{
	"CROWD_TANK/contracts/CrowdTank.sol": {
		"CrowdTank": {
			"abi": [
				{
					"inputs": [],
					"stateMutability": "nonpayable",
					"type": "constructor"
				},
				{
					"inputs": [],
					"name": "ReentrancyGuardReentrantCall",
					"type": "error"
				},
				{
					"anonymous": false,
					"inputs": [
						{
							"indexed": true,
							"internalType": "uint256",
							"name": "projectID",
							"type": "uint256"
						},
						{
							"indexed": true,
							"internalType": "address",
							"name": "creator",
							"type": "address"
						},
						{
							"indexed": false,
							"internalType": "string",
							"name": "name",
							"type": "string"
						},
						{
							"indexed": false,
							"internalType": "string",
							"name": "description",
							"type": "string"
						},
						{
							"indexed": false,
							"internalType": "uint256",
							"name": "fundingGoal",
							"type": "uint256"
						},
						{
							"indexed": false,
							"internalType": "uint256",
							"name": "deadline",
							"type": "uint256"
						}
					],
					"name": "ProjectCreated",
					"type": "event"
				},
				{
					"anonymous": false,
					"inputs": [
						{
							"indexed": true,
							"internalType": "address",
							"name": "user",
							"type": "address"
						},
						{
							"indexed": true,
							"internalType": "uint256",
							"name": "_projectID",
							"type": "uint256"
						},
						{
							"indexed": false,
							"internalType": "uint256",
							"name": "amount",
							"type": "uint256"
						}
					],
					"name": "UserEarlyWithdraw",
					"type": "event"
				},
				{
					"anonymous": false,
					"inputs": [
						{
							"indexed": true,
							"internalType": "address",
							"name": "creator",
							"type": "address"
						}
					],
					"name": "addedCreator",
					"type": "event"
				},
				{
					"anonymous": false,
					"inputs": [
						{
							"indexed": true,
							"internalType": "uint256",
							"name": "projectID",
							"type": "uint256"
						},
						{
							"indexed": false,
							"internalType": "address",
							"name": "withdrawer",
							"type": "address"
						},
						{
							"indexed": false,
							"internalType": "uint256",
							"name": "amount",
							"type": "uint256"
						}
					],
					"name": "creatorWithdrawn",
					"type": "event"
				},
				{
					"anonymous": false,
					"inputs": [
						{
							"indexed": true,
							"internalType": "uint256",
							"name": "projectID",
							"type": "uint256"
						},
						{
							"indexed": false,
							"internalType": "address",
							"name": "contributor",
							"type": "address"
						},
						{
							"indexed": false,
							"internalType": "uint256",
							"name": "amount",
							"type": "uint256"
						},
						{
							"indexed": false,
							"internalType": "uint256",
							"name": "refund",
							"type": "uint256"
						}
					],
					"name": "funded",
					"type": "event"
				},
				{
					"anonymous": false,
					"inputs": [
						{
							"indexed": true,
							"internalType": "address",
							"name": "creator",
							"type": "address"
						}
					],
					"name": "removedCreator",
					"type": "event"
				},
				{
					"anonymous": false,
					"inputs": [
						{
							"indexed": true,
							"internalType": "uint256",
							"name": "projectID",
							"type": "uint256"
						},
						{
							"indexed": false,
							"internalType": "address",
							"name": "withdrawer",
							"type": "address"
						},
						{
							"indexed": false,
							"internalType": "uint256",
							"name": "amount",
							"type": "uint256"
						}
					],
					"name": "userWithdrawn",
					"type": "event"
				},
				{
					"inputs": [
						{
							"internalType": "address",
							"name": "_creator",
							"type": "address"
						}
					],
					"name": "Add_Creators",
					"outputs": [],
					"stateMutability": "nonpayable",
					"type": "function"
				},
				{
					"inputs": [
						{
							"internalType": "address",
							"name": "",
							"type": "address"
						}
					],
					"name": "AuthorizedCreators",
					"outputs": [
						{
							"internalType": "bool",
							"name": "",
							"type": "bool"
						}
					],
					"stateMutability": "view",
					"type": "function"
				},
				{
					"inputs": [
						{
							"internalType": "uint256",
							"name": "_projectID",
							"type": "uint256"
						},
						{
							"internalType": "uint256",
							"name": "Change_Goal",
							"type": "uint256"
						}
					],
					"name": "Change_FundingGoal",
					"outputs": [],
					"stateMutability": "nonpayable",
					"type": "function"
				},
				{
					"inputs": [
						{
							"internalType": "uint256",
							"name": "",
							"type": "uint256"
						},
						{
							"internalType": "address",
							"name": "",
							"type": "address"
						}
					],
					"name": "Contributions",
					"outputs": [
						{
							"internalType": "uint256",
							"name": "",
							"type": "uint256"
						}
					],
					"stateMutability": "view",
					"type": "function"
				},
				{
					"inputs": [
						{
							"internalType": "uint256",
							"name": "_projectID",
							"type": "uint256"
						},
						{
							"internalType": "uint256",
							"name": "_deadline",
							"type": "uint256"
						}
					],
					"name": "Extend_Deadline",
					"outputs": [],
					"stateMutability": "nonpayable",
					"type": "function"
				},
				{
					"inputs": [
						{
							"internalType": "uint256",
							"name": "_projectID",
							"type": "uint256"
						}
					],
					"name": "Funding_Raised_Percentage",
					"outputs": [
						{
							"internalType": "uint256",
							"name": "",
							"type": "uint256"
						}
					],
					"stateMutability": "view",
					"type": "function"
				},
				{
					"inputs": [],
					"name": "GetProjectStatus",
					"outputs": [
						{
							"internalType": "uint256",
							"name": "Successfully_Funded_Projects",
							"type": "uint256"
						},
						{
							"internalType": "uint256",
							"name": "Failed_To_Fund_Projects",
							"type": "uint256"
						}
					],
					"stateMutability": "view",
					"type": "function"
				},
				{
					"inputs": [],
					"name": "Get_Total_Raised_Funding",
					"outputs": [
						{
							"internalType": "uint256",
							"name": "",
							"type": "uint256"
						}
					],
					"stateMutability": "view",
					"type": "function"
				},
				{
					"inputs": [],
					"name": "ProjectStatistics",
					"outputs": [
						{
							"internalType": "uint256",
							"name": "totalProjects",
							"type": "uint256"
						},
						{
							"internalType": "uint256",
							"name": "successfulProjects",
							"type": "uint256"
						},
						{
							"internalType": "uint256",
							"name": "failedProjects",
							"type": "uint256"
						},
						{
							"internalType": "uint256",
							"name": "activeProjects",
							"type": "uint256"
						},
						{
							"internalType": "uint256",
							"name": "totalFundsRaised",
							"type": "uint256"
						}
					],
					"stateMutability": "view",
					"type": "function"
				},
				{
					"inputs": [
						{
							"internalType": "uint256",
							"name": "",
							"type": "uint256"
						}
					],
					"name": "Projects",
					"outputs": [
						{
							"internalType": "address",
							"name": "creator",
							"type": "address"
						},
						{
							"internalType": "string",
							"name": "name",
							"type": "string"
						},
						{
							"internalType": "string",
							"name": "description",
							"type": "string"
						},
						{
							"internalType": "uint256",
							"name": "fundingGoal",
							"type": "uint256"
						},
						{
							"internalType": "uint256",
							"name": "deadline",
							"type": "uint256"
						},
						{
							"internalType": "uint256",
							"name": "amountRaised",
							"type": "uint256"
						},
						{
							"internalType": "bool",
							"name": "funded",
							"type": "bool"
						},
						{
							"internalType": "address",
							"name": "highest_Funder",
							"type": "address"
						},
						{
							"internalType": "uint256",
							"name": "highest_contribution",
							"type": "uint256"
						},
						{
							"internalType": "bool",
							"name": "failed_projects",
							"type": "bool"
						},
						{
							"internalType": "bool",
							"name": "status_processed",
							"type": "bool"
						}
					],
					"stateMutability": "view",
					"type": "function"
				},
				{
					"inputs": [
						{
							"internalType": "uint256",
							"name": "projectID",
							"type": "uint256"
						}
					],
					"name": "Remaining_Fund",
					"outputs": [
						{
							"internalType": "uint256",
							"name": "fundingGoal",
							"type": "uint256"
						},
						{
							"internalType": "uint256",
							"name": "remainingFund",
							"type": "uint256"
						}
					],
					"stateMutability": "view",
					"type": "function"
				},
				{
					"inputs": [
						{
							"internalType": "address",
							"name": "_creator",
							"type": "address"
						}
					],
					"name": "Remove_Creators",
					"outputs": [],
					"stateMutability": "nonpayable",
					"type": "function"
				},
				{
					"inputs": [
						{
							"internalType": "uint256",
							"name": "projectID",
							"type": "uint256"
						}
					],
					"name": "Time_Left",
					"outputs": [
						{
							"internalType": "uint256",
							"name": "",
							"type": "uint256"
						}
					],
					"stateMutability": "view",
					"type": "function"
				},
				{
					"inputs": [],
					"name": "TotalProjects",
					"outputs": [
						{
							"internalType": "uint256",
							"name": "",
							"type": "uint256"
						}
					],
					"stateMutability": "view",
					"type": "function"
				},
				{
					"inputs": [],
					"name": "UpdateProjectStatus",
					"outputs": [],
					"stateMutability": "nonpayable",
					"type": "function"
				},
				{
					"inputs": [],
					"name": "admin",
					"outputs": [
						{
							"internalType": "address",
							"name": "",
							"type": "address"
						}
					],
					"stateMutability": "view",
					"type": "function"
				},
				{
					"inputs": [
						{
							"internalType": "string",
							"name": "_name",
							"type": "string"
						},
						{
							"internalType": "string",
							"name": "_description",
							"type": "string"
						},
						{
							"internalType": "uint256",
							"name": "_fundingGoal",
							"type": "uint256"
						},
						{
							"internalType": "uint256",
							"name": "_durationSeconds",
							"type": "uint256"
						},
						{
							"internalType": "uint256",
							"name": "_id",
							"type": "uint256"
						}
					],
					"name": "createProject",
					"outputs": [],
					"stateMutability": "nonpayable",
					"type": "function"
				},
				{
					"inputs": [
						{
							"internalType": "uint256",
							"name": "_projectID",
							"type": "uint256"
						}
					],
					"name": "creatorWithdraw",
					"outputs": [],
					"stateMutability": "payable",
					"type": "function"
				},
				{
					"inputs": [
						{
							"internalType": "uint256",
							"name": "_projectID",
							"type": "uint256"
						}
					],
					"name": "fundProject",
					"outputs": [],
					"stateMutability": "payable",
					"type": "function"
				},
				{
					"inputs": [
						{
							"internalType": "uint256",
							"name": "_projectID",
							"type": "uint256"
						},
						{
							"internalType": "uint256",
							"name": "withdrawn_amount",
							"type": "uint256"
						}
					],
					"name": "userEarlyWithdraw",
					"outputs": [],
					"stateMutability": "payable",
					"type": "function"
				},
				{
					"inputs": [
						{
							"internalType": "uint256",
							"name": "_projectID",
							"type": "uint256"
						}
					],
					"name": "userWithdraw",
					"outputs": [],
					"stateMutability": "payable",
					"type": "function"
				}
			],
			"devdoc": {
				"errors": {
					"ReentrancyGuardReentrantCall()": [
						{
							"details": "Unauthorized reentrant call."
						}
					]
				},
				"kind": "dev",
				"methods": {},
				"version": 1
			},
			"evm": {
				"assembly": "    /* \"CROWD_TANK/contracts/CrowdTank.sol\":237:12595  contract CrowdTank is ReentrancyGuard {... */\n  mstore(0x40, 0x80)\n    /* \"CROWD_TANK/contracts/CrowdTank.sol\":672:722  constructor() {... */\n  callvalue\n  dup1\n  iszero\n  tag_1\n  jumpi\n  revert(0x00, 0x00)\ntag_1:\n  pop\n    /* \"@openzeppelin/contracts/utils/ReentrancyGuard.sol\":1857:1858  1 */\n  0x01\n    /* \"@openzeppelin/contracts/utils/ReentrancyGuard.sol\":2061:2068  _status */\n  0x00\n    /* \"@openzeppelin/contracts/utils/ReentrancyGuard.sol\":2061:2082  _status = NOT_ENTERED */\n  dup2\n  swap1\n  sstore\n  pop\n    /* \"CROWD_TANK/contracts/CrowdTank.sol\":705:715  msg.sender */\n  caller\n    /* \"CROWD_TANK/contracts/CrowdTank.sol\":697:702  admin */\n  0x03\n  0x00\n    /* \"CROWD_TANK/contracts/CrowdTank.sol\":697:715  admin = msg.sender */\n  0x0100\n  exp\n  dup2\n  sload\n  dup2\n  0xffffffffffffffffffffffffffffffffffffffff\n  mul\n  not\n  and\n  swap1\n  dup4\n  0xffffffffffffffffffffffffffffffffffffffff\n  and\n  mul\n  or\n  swap1\n  sstore\n  pop\n    /* \"CROWD_TANK/contracts/CrowdTank.sol\":237:12595  contract CrowdTank is ReentrancyGuard {... */\n  dataSize(sub_0)\n  dup1\n  dataOffset(sub_0)\n  0x00\n  codecopy\n  0x00\n  return\nstop\n\nsub_0: assembly {\n        /* \"CROWD_TANK/contracts/CrowdTank.sol\":237:12595  contract CrowdTank is ReentrancyGuard {... */\n      mstore(0x40, 0x80)\n      jumpi(tag_1, lt(calldatasize, 0x04))\n      shr(0xe0, calldataload(0x00))\n      dup1\n      0x6c563abe\n      gt\n      tag_23\n      jumpi\n      dup1\n      0xcd4ac98c\n      gt\n      tag_24\n      jumpi\n      dup1\n      0xcd4ac98c\n      eq\n      tag_17\n      jumpi\n      dup1\n      0xe81a6786\n      eq\n      tag_18\n      jumpi\n      dup1\n      0xf81bf601\n      eq\n      tag_19\n      jumpi\n      dup1\n      0xf851a440\n      eq\n      tag_20\n      jumpi\n      dup1\n      0xfcdf1238\n      eq\n      tag_21\n      jumpi\n      dup1\n      0xfee2f1c9\n      eq\n      tag_22\n      jumpi\n      jump(tag_1)\n    tag_24:\n      dup1\n      0x6c563abe\n      eq\n      tag_12\n      jumpi\n      dup1\n      0x71eb89f3\n      eq\n      tag_13\n      jumpi\n      dup1\n      0x7299baeb\n      eq\n      tag_14\n      jumpi\n      dup1\n      0x88283c0f\n      eq\n      tag_15\n      jumpi\n      dup1\n      0x9ab761c7\n      eq\n      tag_16\n      jumpi\n      jump(tag_1)\n    tag_23:\n      dup1\n      0x42d844a5\n      gt\n      tag_25\n      jumpi\n      dup1\n      0x42d844a5\n      eq\n      tag_7\n      jumpi\n      dup1\n      0x520f45b7\n      eq\n      tag_8\n      jumpi\n      dup1\n      0x54a5bcc5\n      eq\n      tag_9\n      jumpi\n      dup1\n      0x5d4e5d78\n      eq\n      tag_10\n      jumpi\n      dup1\n      0x629b2647\n      eq\n      tag_11\n      jumpi\n      jump(tag_1)\n    tag_25:\n      dup1\n      0x0dbac135\n      eq\n      tag_2\n      jumpi\n      dup1\n      0x1392ebfe\n      eq\n      tag_3\n      jumpi\n      dup1\n      0x21b2416c\n      eq\n      tag_4\n      jumpi\n      dup1\n      0x370c36b4\n      eq\n      tag_5\n      jumpi\n      dup1\n      0x3b9056bf\n      eq\n      tag_6\n      jumpi\n    tag_1:\n      revert(0x00, 0x00)\n        /* \"CROWD_TANK/contracts/CrowdTank.sol\":9630:10119  function Remaining_Fund(uint projectID) public view returns(uint fundingGoal , uint remainingFund) {... */\n    tag_2:\n      callvalue\n      dup1\n      iszero\n      tag_26\n      jumpi\n      revert(0x00, 0x00)\n    tag_26:\n      pop\n      tag_27\n      0x04\n      dup1\n      calldatasize\n      sub\n      dup2\n      add\n      swap1\n      tag_28\n      swap2\n      swap1\n      tag_29\n      jump\t// in\n    tag_28:\n      tag_30\n      jump\t// in\n    tag_27:\n      mload(0x40)\n      tag_31\n      swap3\n      swap2\n      swap1\n      tag_32\n      jump\t// in\n    tag_31:\n      mload(0x40)\n      dup1\n      swap2\n      sub\n      swap1\n      return\n        /* \"CROWD_TANK/contracts/CrowdTank.sol\":10485:10893  function Change_FundingGoal( uint _projectID , uint Change_Goal) external {... */\n    tag_3:\n      callvalue\n      dup1\n      iszero\n      tag_33\n      jumpi\n      revert(0x00, 0x00)\n    tag_33:\n      pop\n      tag_34\n      0x04\n      dup1\n      calldatasize\n      sub\n      dup2\n      add\n      swap1\n      tag_35\n      swap2\n      swap1\n      tag_36\n      jump\t// in\n    tag_35:\n      tag_37\n      jump\t// in\n    tag_34:\n      stop\n        /* \"CROWD_TANK/contracts/CrowdTank.sol\":1731:1772  mapping (uint => project) public Projects */\n    tag_4:\n      callvalue\n      dup1\n      iszero\n      tag_38\n      jumpi\n      revert(0x00, 0x00)\n    tag_38:\n      pop\n      tag_39\n      0x04\n      dup1\n      calldatasize\n      sub\n      dup2\n      add\n      swap1\n      tag_40\n      swap2\n      swap1\n      tag_29\n      jump\t// in\n    tag_40:\n      tag_41\n      jump\t// in\n    tag_39:\n      mload(0x40)\n      tag_42\n      swap12\n      swap11\n      swap10\n      swap9\n      swap8\n      swap7\n      swap6\n      swap5\n      swap4\n      swap3\n      swap2\n      swap1\n      tag_43\n      jump\t// in\n    tag_42:\n      mload(0x40)\n      dup1\n      swap2\n      sub\n      swap1\n      return\n        /* \"CROWD_TANK/contracts/CrowdTank.sol\":9272:9562  function Time_Left(uint projectID) view public returns(uint) {... */\n    tag_5:\n      callvalue\n      dup1\n      iszero\n      tag_44\n      jumpi\n      revert(0x00, 0x00)\n    tag_44:\n      pop\n      tag_45\n      0x04\n      dup1\n      calldatasize\n      sub\n      dup2\n      add\n      swap1\n      tag_46\n      swap2\n      swap1\n      tag_29\n      jump\t// in\n    tag_46:\n      tag_47\n      jump\t// in\n    tag_45:\n      mload(0x40)\n      tag_48\n      swap2\n      swap1\n      tag_49\n      jump\t// in\n    tag_48:\n      mload(0x40)\n      dup1\n      swap2\n      sub\n      swap1\n      return\n        /* \"CROWD_TANK/contracts/CrowdTank.sol\":7401:8549  function userWithdraw(uint _projectID) external payable {... */\n    tag_6:\n      tag_50\n      0x04\n      dup1\n      calldatasize\n      sub\n      dup2\n      add\n      swap1\n      tag_51\n      swap2\n      swap1\n      tag_29\n      jump\t// in\n    tag_51:\n      tag_52\n      jump\t// in\n    tag_50:\n      stop\n        /* \"CROWD_TANK/contracts/CrowdTank.sol\":10941:11208  function Funding_Raised_Percentage( uint _projectID ) public view  returns(uint) {... */\n    tag_7:\n      callvalue\n      dup1\n      iszero\n      tag_53\n      jumpi\n      revert(0x00, 0x00)\n    tag_53:\n      pop\n      tag_54\n      0x04\n      dup1\n      calldatasize\n      sub\n      dup2\n      add\n      swap1\n      tag_55\n      swap2\n      swap1\n      tag_29\n      jump\t// in\n    tag_55:\n      tag_56\n      jump\t// in\n    tag_54:\n      mload(0x40)\n      tag_57\n      swap2\n      swap1\n      tag_49\n      jump\t// in\n    tag_57:\n      mload(0x40)\n      dup1\n      swap2\n      sub\n      swap1\n      return\n        /* \"CROWD_TANK/contracts/CrowdTank.sol\":6449:6649  function GetProjectStatus() view public returns(uint Successfully_Funded_Projects , uint Failed_To_Fund_Projects) {... */\n    tag_8:\n      callvalue\n      dup1\n      iszero\n      tag_58\n      jumpi\n      revert(0x00, 0x00)\n    tag_58:\n      pop\n      tag_59\n      tag_60\n      jump\t// in\n    tag_59:\n      mload(0x40)\n      tag_61\n      swap3\n      swap2\n      swap1\n      tag_32\n      jump\t// in\n    tag_61:\n      mload(0x40)\n      dup1\n      swap2\n      sub\n      swap1\n      return\n        /* \"CROWD_TANK/contracts/CrowdTank.sol\":6710:6824  function Get_Total_Raised_Funding() view public returns(uint) {... */\n    tag_9:\n      callvalue\n      dup1\n      iszero\n      tag_62\n      jumpi\n      revert(0x00, 0x00)\n    tag_62:\n      pop\n      tag_63\n      tag_64\n      jump\t// in\n    tag_63:\n      mload(0x40)\n      tag_65\n      swap2\n      swap1\n      tag_49\n      jump\t// in\n    tag_65:\n      mload(0x40)\n      dup1\n      swap2\n      sub\n      swap1\n      return\n        /* \"CROWD_TANK/contracts/CrowdTank.sol\":1831:1895  mapping (uint => mapping (address => uint)) public Contributions */\n    tag_10:\n      callvalue\n      dup1\n      iszero\n      tag_66\n      jumpi\n      revert(0x00, 0x00)\n    tag_66:\n      pop\n      tag_67\n      0x04\n      dup1\n      calldatasize\n      sub\n      dup2\n      add\n      swap1\n      tag_68\n      swap2\n      swap1\n      tag_69\n      jump\t// in\n    tag_68:\n      tag_70\n      jump\t// in\n    tag_67:\n      mload(0x40)\n      tag_71\n      swap2\n      swap1\n      tag_49\n      jump\t// in\n    tag_71:\n      mload(0x40)\n      dup1\n      swap2\n      sub\n      swap1\n      return\n        /* \"CROWD_TANK/contracts/CrowdTank.sol\":10165:10438  function Extend_Deadline(uint _projectID , uint _deadline) external {... */\n    tag_11:\n      callvalue\n      dup1\n      iszero\n      tag_72\n      jumpi\n      revert(0x00, 0x00)\n    tag_72:\n      pop\n      tag_73\n      0x04\n      dup1\n      calldatasize\n      sub\n      dup2\n      add\n      swap1\n      tag_74\n      swap2\n      swap1\n      tag_36\n      jump\t// in\n    tag_74:\n      tag_75\n      jump\t// in\n    tag_73:\n      stop\n        /* \"CROWD_TANK/contracts/CrowdTank.sol\":3689:5567  function fundProject(uint _projectID) external payable nonReentrant {... */\n    tag_12:\n      tag_76\n      0x04\n      dup1\n      calldatasize\n      sub\n      dup2\n      add\n      swap1\n      tag_77\n      swap2\n      swap1\n      tag_29\n      jump\t// in\n    tag_77:\n      tag_78\n      jump\t// in\n    tag_76:\n      stop\n        /* \"CROWD_TANK/contracts/CrowdTank.sol\":8601:9202  function creatorWithdraw(uint _projectID) external payable {... */\n    tag_13:\n      tag_79\n      0x04\n      dup1\n      calldatasize\n      sub\n      dup2\n      add\n      swap1\n      tag_80\n      swap2\n      swap1\n      tag_29\n      jump\t// in\n    tag_80:\n      tag_81\n      jump\t// in\n    tag_79:\n      stop\n        /* \"CROWD_TANK/contracts/CrowdTank.sol\":1092:1253  function Remove_Creators( address _creator ) external OnlyAdmin {... */\n    tag_14:\n      callvalue\n      dup1\n      iszero\n      tag_82\n      jumpi\n      revert(0x00, 0x00)\n    tag_82:\n      pop\n      tag_83\n      0x04\n      dup1\n      calldatasize\n      sub\n      dup2\n      add\n      swap1\n      tag_84\n      swap2\n      swap1\n      tag_85\n      jump\t// in\n    tag_84:\n      tag_86\n      jump\t// in\n    tag_83:\n      stop\n        /* \"CROWD_TANK/contracts/CrowdTank.sol\":865:916  mapping (address => bool) public AuthorizedCreators */\n    tag_15:\n      callvalue\n      dup1\n      iszero\n      tag_87\n      jumpi\n      revert(0x00, 0x00)\n    tag_87:\n      pop\n      tag_88\n      0x04\n      dup1\n      calldatasize\n      sub\n      dup2\n      add\n      swap1\n      tag_89\n      swap2\n      swap1\n      tag_85\n      jump\t// in\n    tag_89:\n      tag_90\n      jump\t// in\n    tag_88:\n      mload(0x40)\n      tag_91\n      swap2\n      swap1\n      tag_92\n      jump\t// in\n    tag_91:\n      mload(0x40)\n      dup1\n      swap2\n      sub\n      swap1\n      return\n        /* \"CROWD_TANK/contracts/CrowdTank.sol\":394:419  uint public TotalProjects */\n    tag_16:\n      callvalue\n      dup1\n      iszero\n      tag_93\n      jumpi\n      revert(0x00, 0x00)\n    tag_93:\n      pop\n      tag_94\n      tag_95\n      jump\t// in\n    tag_94:\n      mload(0x40)\n      tag_96\n      swap2\n      swap1\n      tag_49\n      jump\t// in\n    tag_96:\n      mload(0x40)\n      dup1\n      swap2\n      sub\n      swap1\n      return\n        /* \"CROWD_TANK/contracts/CrowdTank.sol\":11257:12592  function userEarlyWithdraw( uint _projectID , uint withdrawn_amount) external payable {... */\n    tag_17:\n      tag_97\n      0x04\n      dup1\n      calldatasize\n      sub\n      dup2\n      add\n      swap1\n      tag_98\n      swap2\n      swap1\n      tag_36\n      jump\t// in\n    tag_98:\n      tag_99\n      jump\t// in\n    tag_97:\n      stop\n        /* \"CROWD_TANK/contracts/CrowdTank.sol\":5579:6437  function UpdateProjectStatus() public {... */\n    tag_18:\n      callvalue\n      dup1\n      iszero\n      tag_100\n      jumpi\n      revert(0x00, 0x00)\n    tag_100:\n      pop\n      tag_101\n      tag_102\n      jump\t// in\n    tag_101:\n      stop\n        /* \"CROWD_TANK/contracts/CrowdTank.sol\":2656:3628  function createProject(string memory _name , string memory _description , uint _fundingGoal , uint _durationSeconds , uint _id) external {... */\n    tag_19:\n      callvalue\n      dup1\n      iszero\n      tag_103\n      jumpi\n      revert(0x00, 0x00)\n    tag_103:\n      pop\n      tag_104\n      0x04\n      dup1\n      calldatasize\n      sub\n      dup2\n      add\n      swap1\n      tag_105\n      swap2\n      swap1\n      tag_106\n      jump\t// in\n    tag_105:\n      tag_107\n      jump\t// in\n    tag_104:\n      stop\n        /* \"CROWD_TANK/contracts/CrowdTank.sol\":468:488  address public admin */\n    tag_20:\n      callvalue\n      dup1\n      iszero\n      tag_108\n      jumpi\n      revert(0x00, 0x00)\n    tag_108:\n      pop\n      tag_109\n      tag_110\n      jump\t// in\n    tag_109:\n      mload(0x40)\n      tag_111\n      swap2\n      swap1\n      tag_112\n      jump\t// in\n    tag_111:\n      mload(0x40)\n      dup1\n      swap2\n      sub\n      swap1\n      return\n        /* \"CROWD_TANK/contracts/CrowdTank.sol\":6892:7361  function ProjectStatistics() public view returns(... */\n    tag_21:\n      callvalue\n      dup1\n      iszero\n      tag_113\n      jumpi\n      revert(0x00, 0x00)\n    tag_113:\n      pop\n      tag_114\n      tag_115\n      jump\t// in\n    tag_114:\n      mload(0x40)\n      tag_116\n      swap6\n      swap5\n      swap4\n      swap3\n      swap2\n      swap1\n      tag_117\n      jump\t// in\n    tag_116:\n      mload(0x40)\n      dup1\n      swap2\n      sub\n      swap1\n      return\n        /* \"CROWD_TANK/contracts/CrowdTank.sol\":925:1080  function Add_Creators( address _creator ) external OnlyAdmin {... */\n    tag_22:\n      callvalue\n      dup1\n      iszero\n      tag_118\n      jumpi\n      revert(0x00, 0x00)\n    tag_118:\n      pop\n      tag_119\n      0x04\n      dup1\n      calldatasize\n      sub\n      dup2\n      add\n      swap1\n      tag_120\n      swap2\n      swap1\n      tag_85\n      jump\t// in\n    tag_120:\n      tag_121\n      jump\t// in\n    tag_119:\n      stop\n        /* \"CROWD_TANK/contracts/CrowdTank.sol\":9630:10119  function Remaining_Fund(uint projectID) public view returns(uint fundingGoal , uint remainingFund) {... */\n    tag_30:\n        /* \"CROWD_TANK/contracts/CrowdTank.sol\":9690:9706  uint fundingGoal */\n      0x00\n        /* \"CROWD_TANK/contracts/CrowdTank.sol\":9709:9727  uint remainingFund */\n      0x00\n        /* \"CROWD_TANK/contracts/CrowdTank.sol\":9741:9764  project storage Project */\n      0x00\n        /* \"CROWD_TANK/contracts/CrowdTank.sol\":9767:9775  Projects */\n      0x08\n        /* \"CROWD_TANK/contracts/CrowdTank.sol\":9767:9786  Projects[projectID] */\n      0x00\n        /* \"CROWD_TANK/contracts/CrowdTank.sol\":9776:9785  projectID */\n      dup6\n        /* \"CROWD_TANK/contracts/CrowdTank.sol\":9767:9786  Projects[projectID] */\n      dup2\n      mstore\n      0x20\n      add\n      swap1\n      dup2\n      mstore\n      0x20\n      add\n      0x00\n      keccak256\n        /* \"CROWD_TANK/contracts/CrowdTank.sol\":9741:9786  project storage Project = Projects[projectID] */\n      swap1\n      pop\n        /* \"CROWD_TANK/contracts/CrowdTank.sol\":9811:9818  Project */\n      dup1\n        /* \"CROWD_TANK/contracts/CrowdTank.sol\":9811:9830  Project.fundingGoal */\n      0x03\n      add\n      sload\n        /* \"CROWD_TANK/contracts/CrowdTank.sol\":9797:9830  fundingGoal = Project.fundingGoal */\n      swap3\n      pop\n        /* \"CROWD_TANK/contracts/CrowdTank.sol\":9876:9877  0 */\n      0x00\n        /* \"CROWD_TANK/contracts/CrowdTank.sol\":9849:9878  Project.creator != address(0) */\n      0xffffffffffffffffffffffffffffffffffffffff\n      and\n        /* \"CROWD_TANK/contracts/CrowdTank.sol\":9849:9856  Project */\n      dup2\n        /* \"CROWD_TANK/contracts/CrowdTank.sol\":9849:9864  Project.creator */\n      0x00\n      add\n      0x00\n      swap1\n      sload\n      swap1\n      0x0100\n      exp\n      swap1\n      div\n      0xffffffffffffffffffffffffffffffffffffffff\n      and\n        /* \"CROWD_TANK/contracts/CrowdTank.sol\":9849:9878  Project.creator != address(0) */\n      0xffffffffffffffffffffffffffffffffffffffff\n      and\n      sub\n        /* \"CROWD_TANK/contracts/CrowdTank.sol\":9841:9916  require(Project.creator != address(0), \"project has not been created yet!\") */\n      tag_123\n      jumpi\n      mload(0x40)\n      0x08c379a000000000000000000000000000000000000000000000000000000000\n      dup2\n      mstore\n      0x04\n      add\n      tag_124\n      swap1\n      tag_125\n      jump\t// in\n    tag_124:\n      mload(0x40)\n      dup1\n      swap2\n      sub\n      swap1\n      revert\n    tag_123:\n        /* \"CROWD_TANK/contracts/CrowdTank.sol\":9955:9962  Project */\n      dup1\n        /* \"CROWD_TANK/contracts/CrowdTank.sol\":9955:9974  Project.fundingGoal */\n      0x03\n      add\n      sload\n        /* \"CROWD_TANK/contracts/CrowdTank.sol\":9931:9938  Project */\n      dup2\n        /* \"CROWD_TANK/contracts/CrowdTank.sol\":9931:9951  Project.amountRaised */\n      0x05\n      add\n      sload\n        /* \"CROWD_TANK/contracts/CrowdTank.sol\":9931:9974  Project.amountRaised >= Project.fundingGoal */\n      lt\n        /* \"CROWD_TANK/contracts/CrowdTank.sol\":9927:10112  if (Project.amountRaised >= Project.fundingGoal) {... */\n      tag_126\n      jumpi\n        /* \"CROWD_TANK/contracts/CrowdTank.sol\":10008:10009  0 */\n      0x00\n        /* \"CROWD_TANK/contracts/CrowdTank.sol\":9992:10009  remainingFund = 0 */\n      swap2\n      pop\n        /* \"CROWD_TANK/contracts/CrowdTank.sol\":9927:10112  if (Project.amountRaised >= Project.fundingGoal) {... */\n      jump(tag_127)\n    tag_126:\n        /* \"CROWD_TANK/contracts/CrowdTank.sol\":10080:10087  Project */\n      dup1\n        /* \"CROWD_TANK/contracts/CrowdTank.sol\":10080:10100  Project.amountRaised */\n      0x05\n      add\n      sload\n        /* \"CROWD_TANK/contracts/CrowdTank.sol\":10058:10065  Project */\n      dup2\n        /* \"CROWD_TANK/contracts/CrowdTank.sol\":10058:10077  Project.fundingGoal */\n      0x03\n      add\n      sload\n        /* \"CROWD_TANK/contracts/CrowdTank.sol\":10058:10100  Project.fundingGoal - Project.amountRaised */\n      tag_128\n      swap2\n      swap1\n      tag_129\n      jump\t// in\n    tag_128:\n        /* \"CROWD_TANK/contracts/CrowdTank.sol\":10042:10100  remainingFund = Project.fundingGoal - Project.amountRaised */\n      swap2\n      pop\n        /* \"CROWD_TANK/contracts/CrowdTank.sol\":9927:10112  if (Project.amountRaised >= Project.fundingGoal) {... */\n    tag_127:\n        /* \"CROWD_TANK/contracts/CrowdTank.sol\":9729:10119  {... */\n      pop\n        /* \"CROWD_TANK/contracts/CrowdTank.sol\":9630:10119  function Remaining_Fund(uint projectID) public view returns(uint fundingGoal , uint remainingFund) {... */\n      swap2\n      pop\n      swap2\n      jump\t// out\n        /* \"CROWD_TANK/contracts/CrowdTank.sol\":10485:10893  function Change_FundingGoal( uint _projectID , uint Change_Goal) external {... */\n    tag_37:\n        /* \"CROWD_TANK/contracts/CrowdTank.sol\":10571:10594  project storage Project */\n      0x00\n        /* \"CROWD_TANK/contracts/CrowdTank.sol\":10597:10605  Projects */\n      0x08\n        /* \"CROWD_TANK/contracts/CrowdTank.sol\":10597:10617  Projects[_projectID] */\n      0x00\n        /* \"CROWD_TANK/contracts/CrowdTank.sol\":10606:10616  _projectID */\n      dup5\n        /* \"CROWD_TANK/contracts/CrowdTank.sol\":10597:10617  Projects[_projectID] */\n      dup2\n      mstore\n      0x20\n      add\n      swap1\n      dup2\n      mstore\n      0x20\n      add\n      0x00\n      keccak256\n        /* \"CROWD_TANK/contracts/CrowdTank.sol\":10571:10617  project storage Project = Projects[_projectID] */\n      swap1\n      pop\n        /* \"CROWD_TANK/contracts/CrowdTank.sol\":10655:10656  0 */\n      0x00\n        /* \"CROWD_TANK/contracts/CrowdTank.sol\":10636:10643  Project */\n      dup2\n        /* \"CROWD_TANK/contracts/CrowdTank.sol\":10636:10652  Project.deadline */\n      0x04\n      add\n      sload\n        /* \"CROWD_TANK/contracts/CrowdTank.sol\":10636:10656  Project.deadline > 0 */\n      gt\n        /* \"CROWD_TANK/contracts/CrowdTank.sol\":10628:10717  require(Project.deadline > 0 , \"Deadline is over , you Can't change the funding goal !!\") */\n      tag_131\n      jumpi\n      mload(0x40)\n      0x08c379a000000000000000000000000000000000000000000000000000000000\n      dup2\n      mstore\n      0x04\n      add\n      tag_132\n      swap1\n      tag_133\n      jump\t// in\n    tag_132:\n      mload(0x40)\n      dup1\n      swap2\n      sub\n      swap1\n      revert\n    tag_131:\n        /* \"CROWD_TANK/contracts/CrowdTank.sol\":10755:10765  msg.sender */\n      caller\n        /* \"CROWD_TANK/contracts/CrowdTank.sol\":10736:10765  Project.creator == msg.sender */\n      0xffffffffffffffffffffffffffffffffffffffff\n      and\n        /* \"CROWD_TANK/contracts/CrowdTank.sol\":10736:10743  Project */\n      dup2\n        /* \"CROWD_TANK/contracts/CrowdTank.sol\":10736:10751  Project.creator */\n      0x00\n      add\n      0x00\n      swap1\n      sload\n      swap1\n      0x0100\n      exp\n      swap1\n      div\n      0xffffffffffffffffffffffffffffffffffffffff\n      and\n        /* \"CROWD_TANK/contracts/CrowdTank.sol\":10736:10765  Project.creator == msg.sender */\n      0xffffffffffffffffffffffffffffffffffffffff\n      and\n      eq\n        /* \"CROWD_TANK/contracts/CrowdTank.sol\":10728:10839  require(Project.creator == msg.sender , \"You are not the project creator , Only Porject creator can Change !!\") */\n      tag_134\n      jumpi\n      mload(0x40)\n      0x08c379a000000000000000000000000000000000000000000000000000000000\n      dup2\n      mstore\n      0x04\n      add\n      tag_135\n      swap1\n      tag_136\n      jump\t// in\n    tag_135:\n      mload(0x40)\n      dup1\n      swap2\n      sub\n      swap1\n      revert\n    tag_134:\n        /* \"CROWD_TANK/contracts/CrowdTank.sol\":10874:10885  Change_Goal */\n      dup2\n        /* \"CROWD_TANK/contracts/CrowdTank.sol\":10852:10859  Project */\n      dup2\n        /* \"CROWD_TANK/contracts/CrowdTank.sol\":10852:10871  Project.fundingGoal */\n      0x03\n      add\n        /* \"CROWD_TANK/contracts/CrowdTank.sol\":10852:10885  Project.fundingGoal = Change_Goal */\n      dup2\n      swap1\n      sstore\n      pop\n        /* \"CROWD_TANK/contracts/CrowdTank.sol\":10559:10893  {... */\n      pop\n        /* \"CROWD_TANK/contracts/CrowdTank.sol\":10485:10893  function Change_FundingGoal( uint _projectID , uint Change_Goal) external {... */\n      pop\n      pop\n      jump\t// out\n        /* \"CROWD_TANK/contracts/CrowdTank.sol\":1731:1772  mapping (uint => project) public Projects */\n    tag_41:\n      mstore(0x20, 0x08)\n      dup1\n      0x00\n      mstore\n      keccak256(0x00, 0x40)\n      0x00\n      swap2\n      pop\n      swap1\n      pop\n      dup1\n      0x00\n      add\n      0x00\n      swap1\n      sload\n      swap1\n      0x0100\n      exp\n      swap1\n      div\n      0xffffffffffffffffffffffffffffffffffffffff\n      and\n      swap1\n      dup1\n      0x01\n      add\n      dup1\n      sload\n      tag_137\n      swap1\n      tag_138\n      jump\t// in\n    tag_137:\n      dup1\n      0x1f\n      add\n      0x20\n      dup1\n      swap2\n      div\n      mul\n      0x20\n      add\n      mload(0x40)\n      swap1\n      dup2\n      add\n      0x40\n      mstore\n      dup1\n      swap3\n      swap2\n      swap1\n      dup2\n      dup2\n      mstore\n      0x20\n      add\n      dup3\n      dup1\n      sload\n      tag_139\n      swap1\n      tag_138\n      jump\t// in\n    tag_139:\n      dup1\n      iszero\n      tag_140\n      jumpi\n      dup1\n      0x1f\n      lt\n      tag_141\n      jumpi\n      0x0100\n      dup1\n      dup4\n      sload\n      div\n      mul\n      dup4\n      mstore\n      swap2\n      0x20\n      add\n      swap2\n      jump(tag_140)\n    tag_141:\n      dup3\n      add\n      swap2\n      swap1\n      0x00\n      mstore\n      keccak256(0x00, 0x20)\n      swap1\n    tag_142:\n      dup2\n      sload\n      dup2\n      mstore\n      swap1\n      0x01\n      add\n      swap1\n      0x20\n      add\n      dup1\n      dup4\n      gt\n      tag_142\n      jumpi\n      dup3\n      swap1\n      sub\n      0x1f\n      and\n      dup3\n      add\n      swap2\n    tag_140:\n      pop\n      pop\n      pop\n      pop\n      pop\n      swap1\n      dup1\n      0x02\n      add\n      dup1\n      sload\n      tag_143\n      swap1\n      tag_138\n      jump\t// in\n    tag_143:\n      dup1\n      0x1f\n      add\n      0x20\n      dup1\n      swap2\n      div\n      mul\n      0x20\n      add\n      mload(0x40)\n      swap1\n      dup2\n      add\n      0x40\n      mstore\n      dup1\n      swap3\n      swap2\n      swap1\n      dup2\n      dup2\n      mstore\n      0x20\n      add\n      dup3\n      dup1\n      sload\n      tag_144\n      swap1\n      tag_138\n      jump\t// in\n    tag_144:\n      dup1\n      iszero\n      tag_145\n      jumpi\n      dup1\n      0x1f\n      lt\n      tag_146\n      jumpi\n      0x0100\n      dup1\n      dup4\n      sload\n      div\n      mul\n      dup4\n      mstore\n      swap2\n      0x20\n      add\n      swap2\n      jump(tag_145)\n    tag_146:\n      dup3\n      add\n      swap2\n      swap1\n      0x00\n      mstore\n      keccak256(0x00, 0x20)\n      swap1\n    tag_147:\n      dup2\n      sload\n      dup2\n      mstore\n      swap1\n      0x01\n      add\n      swap1\n      0x20\n      add\n      dup1\n      dup4\n      gt\n      tag_147\n      jumpi\n      dup3\n      swap1\n      sub\n      0x1f\n      and\n      dup3\n      add\n      swap2\n    tag_145:\n      pop\n      pop\n      pop\n      pop\n      pop\n      swap1\n      dup1\n      0x03\n      add\n      sload\n      swap1\n      dup1\n      0x04\n      add\n      sload\n      swap1\n      dup1\n      0x05\n      add\n      sload\n      swap1\n      dup1\n      0x06\n      add\n      0x00\n      swap1\n      sload\n      swap1\n      0x0100\n      exp\n      swap1\n      div\n      0xff\n      and\n      swap1\n      dup1\n      0x06\n      add\n      0x01\n      swap1\n      sload\n      swap1\n      0x0100\n      exp\n      swap1\n      div\n      0xffffffffffffffffffffffffffffffffffffffff\n      and\n      swap1\n      dup1\n      0x07\n      add\n      sload\n      swap1\n      dup1\n      0x08\n      add\n      0x00\n      swap1\n      sload\n      swap1\n      0x0100\n      exp\n      swap1\n      div\n      0xff\n      and\n      swap1\n      dup1\n      0x08\n      add\n      0x01\n      swap1\n      sload\n      swap1\n      0x0100\n      exp\n      swap1\n      div\n      0xff\n      and\n      swap1\n      pop\n      dup12\n      jump\t// out\n        /* \"CROWD_TANK/contracts/CrowdTank.sol\":9272:9562  function Time_Left(uint projectID) view public returns(uint) {... */\n    tag_47:\n        /* \"CROWD_TANK/contracts/CrowdTank.sol\":9327:9331  uint */\n      0x00\n        /* \"CROWD_TANK/contracts/CrowdTank.sol\":9344:9367  project storage Project */\n      0x00\n        /* \"CROWD_TANK/contracts/CrowdTank.sol\":9370:9378  Projects */\n      0x08\n        /* \"CROWD_TANK/contracts/CrowdTank.sol\":9370:9389  Projects[projectID] */\n      0x00\n        /* \"CROWD_TANK/contracts/CrowdTank.sol\":9379:9388  projectID */\n      dup5\n        /* \"CROWD_TANK/contracts/CrowdTank.sol\":9370:9389  Projects[projectID] */\n      dup2\n      mstore\n      0x20\n      add\n      swap1\n      dup2\n      mstore\n      0x20\n      add\n      0x00\n      keccak256\n        /* \"CROWD_TANK/contracts/CrowdTank.sol\":9344:9389  project storage Project = Projects[projectID] */\n      swap1\n      pop\n        /* \"CROWD_TANK/contracts/CrowdTank.sol\":9423:9430  Project */\n      dup1\n        /* \"CROWD_TANK/contracts/CrowdTank.sol\":9423:9439  Project.deadline */\n      0x04\n      add\n      sload\n        /* \"CROWD_TANK/contracts/CrowdTank.sol\":9404:9419  block.timestamp */\n      timestamp\n        /* \"CROWD_TANK/contracts/CrowdTank.sol\":9404:9439  block.timestamp >= Project.deadline */\n      lt\n        /* \"CROWD_TANK/contracts/CrowdTank.sol\":9400:9551  if (block.timestamp >= Project.deadline) {... */\n      tag_149\n      jumpi\n        /* \"CROWD_TANK/contracts/CrowdTank.sol\":9463:9464  0 */\n      0x00\n        /* \"CROWD_TANK/contracts/CrowdTank.sol\":9456:9464  return 0 */\n      swap2\n      pop\n      pop\n      jump(tag_148)\n        /* \"CROWD_TANK/contracts/CrowdTank.sol\":9400:9551  if (block.timestamp >= Project.deadline) {... */\n    tag_149:\n        /* \"CROWD_TANK/contracts/CrowdTank.sol\":9523:9538  block.timestamp */\n      timestamp\n        /* \"CROWD_TANK/contracts/CrowdTank.sol\":9504:9511  Project */\n      dup2\n        /* \"CROWD_TANK/contracts/CrowdTank.sol\":9504:9520  Project.deadline */\n      0x04\n      add\n      sload\n        /* \"CROWD_TANK/contracts/CrowdTank.sol\":9504:9538  Project.deadline - block.timestamp */\n      tag_151\n      swap2\n      swap1\n      tag_129\n      jump\t// in\n    tag_151:\n        /* \"CROWD_TANK/contracts/CrowdTank.sol\":9497:9539  return(Project.deadline - block.timestamp) */\n      swap2\n      pop\n      pop\n        /* \"CROWD_TANK/contracts/CrowdTank.sol\":9272:9562  function Time_Left(uint projectID) view public returns(uint) {... */\n    tag_148:\n      swap2\n      swap1\n      pop\n      jump\t// out\n        /* \"CROWD_TANK/contracts/CrowdTank.sol\":7401:8549  function userWithdraw(uint _projectID) external payable {... */\n    tag_52:\n        /* \"CROWD_TANK/contracts/CrowdTank.sol\":7468:7491  project storage Project */\n      0x00\n        /* \"CROWD_TANK/contracts/CrowdTank.sol\":7494:7502  Projects */\n      0x08\n        /* \"CROWD_TANK/contracts/CrowdTank.sol\":7494:7514  Projects[_projectID] */\n      0x00\n        /* \"CROWD_TANK/contracts/CrowdTank.sol\":7503:7513  _projectID */\n      dup4\n        /* \"CROWD_TANK/contracts/CrowdTank.sol\":7494:7514  Projects[_projectID] */\n      dup2\n      mstore\n      0x20\n      add\n      swap1\n      dup2\n      mstore\n      0x20\n      add\n      0x00\n      keccak256\n        /* \"CROWD_TANK/contracts/CrowdTank.sol\":7468:7514  project storage Project = Projects[_projectID] */\n      swap1\n      pop\n        /* \"CROWD_TANK/contracts/CrowdTank.sol\":7554:7561  Project */\n      dup1\n        /* \"CROWD_TANK/contracts/CrowdTank.sol\":7554:7573  Project.fundingGoal */\n      0x03\n      add\n      sload\n        /* \"CROWD_TANK/contracts/CrowdTank.sol\":7533:7540  Project */\n      dup2\n        /* \"CROWD_TANK/contracts/CrowdTank.sol\":7533:7553  Project.amountRaised */\n      0x05\n      add\n      sload\n        /* \"CROWD_TANK/contracts/CrowdTank.sol\":7533:7573  Project.amountRaised<Project.fundingGoal */\n      lt\n        /* \"CROWD_TANK/contracts/CrowdTank.sol\":7525:7625  require(Project.amountRaised<Project.fundingGoal , \"Funding goal has reached , user can't withdraw\") */\n      tag_153\n      jumpi\n      mload(0x40)\n      0x08c379a000000000000000000000000000000000000000000000000000000000\n      dup2\n      mstore\n      0x04\n      add\n      tag_154\n      swap1\n      tag_155\n      jump\t// in\n    tag_154:\n      mload(0x40)\n      dup1\n      swap2\n      sub\n      swap1\n      revert\n    tag_153:\n        /* \"CROWD_TANK/contracts/CrowdTank.sol\":7636:7657  uint fundsContributed */\n      0x00\n        /* \"CROWD_TANK/contracts/CrowdTank.sol\":7660:7673  Contributions */\n      0x09\n        /* \"CROWD_TANK/contracts/CrowdTank.sol\":7660:7685  Contributions[_projectID] */\n      0x00\n        /* \"CROWD_TANK/contracts/CrowdTank.sol\":7674:7684  _projectID */\n      dup5\n        /* \"CROWD_TANK/contracts/CrowdTank.sol\":7660:7685  Contributions[_projectID] */\n      dup2\n      mstore\n      0x20\n      add\n      swap1\n      dup2\n      mstore\n      0x20\n      add\n      0x00\n      keccak256\n        /* \"CROWD_TANK/contracts/CrowdTank.sol\":7660:7697  Contributions[_projectID][msg.sender] */\n      0x00\n        /* \"CROWD_TANK/contracts/CrowdTank.sol\":7686:7696  msg.sender */\n      caller\n        /* \"CROWD_TANK/contracts/CrowdTank.sol\":7660:7697  Contributions[_projectID][msg.sender] */\n      0xffffffffffffffffffffffffffffffffffffffff\n      and\n      0xffffffffffffffffffffffffffffffffffffffff\n      and\n      dup2\n      mstore\n      0x20\n      add\n      swap1\n      dup2\n      mstore\n      0x20\n      add\n      0x00\n      keccak256\n      sload\n        /* \"CROWD_TANK/contracts/CrowdTank.sol\":7636:7697  uint fundsContributed = Contributions[_projectID][msg.sender] */\n      swap1\n      pop\n        /* \"CROWD_TANK/contracts/CrowdTank.sol\":7735:7736  0 */\n      0x00\n        /* \"CROWD_TANK/contracts/CrowdTank.sol\":7716:7732  fundsContributed */\n      dup2\n        /* \"CROWD_TANK/contracts/CrowdTank.sol\":7716:7736  fundsContributed > 0 */\n      gt\n        /* \"CROWD_TANK/contracts/CrowdTank.sol\":7708:7761  require(fundsContributed > 0, \"No funds to withdraw\") */\n      tag_156\n      jumpi\n      mload(0x40)\n      0x08c379a000000000000000000000000000000000000000000000000000000000\n      dup2\n      mstore\n      0x04\n      add\n      tag_157\n      swap1\n      tag_158\n      jump\t// in\n    tag_157:\n      mload(0x40)\n      dup1\n      swap2\n      sub\n      swap1\n      revert\n    tag_156:\n        /* \"CROWD_TANK/contracts/CrowdTank.sol\":7774:7798  bool wasPreviouslyFunded */\n      0x00\n        /* \"CROWD_TANK/contracts/CrowdTank.sol\":7801:7808  Project */\n      dup3\n        /* \"CROWD_TANK/contracts/CrowdTank.sol\":7801:7815  Project.funded */\n      0x06\n      add\n      0x00\n      swap1\n      sload\n      swap1\n      0x0100\n      exp\n      swap1\n      div\n      0xff\n      and\n        /* \"CROWD_TANK/contracts/CrowdTank.sol\":7774:7815  bool wasPreviouslyFunded = Project.funded */\n      swap1\n      pop\n        /* \"CROWD_TANK/contracts/CrowdTank.sol\":7852:7868  fundsContributed */\n      dup2\n        /* \"CROWD_TANK/contracts/CrowdTank.sol\":7828:7835  Project */\n      dup4\n        /* \"CROWD_TANK/contracts/CrowdTank.sol\":7828:7848  Project.amountRaised */\n      0x05\n      add\n      0x00\n        /* \"CROWD_TANK/contracts/CrowdTank.sol\":7828:7868  Project.amountRaised -= fundsContributed */\n      dup3\n      dup3\n      sload\n      tag_159\n      swap2\n      swap1\n      tag_129\n      jump\t// in\n    tag_159:\n      swap3\n      pop\n      pop\n      dup2\n      swap1\n      sstore\n      pop\n        /* \"CROWD_TANK/contracts/CrowdTank.sol\":7920:7936  fundsContributed */\n      dup2\n        /* \"CROWD_TANK/contracts/CrowdTank.sol\":7879:7892  Contributions */\n      0x09\n        /* \"CROWD_TANK/contracts/CrowdTank.sol\":7879:7904  Contributions[_projectID] */\n      0x00\n        /* \"CROWD_TANK/contracts/CrowdTank.sol\":7893:7903  _projectID */\n      dup7\n        /* \"CROWD_TANK/contracts/CrowdTank.sol\":7879:7904  Contributions[_projectID] */\n      dup2\n      mstore\n      0x20\n      add\n      swap1\n      dup2\n      mstore\n      0x20\n      add\n      0x00\n      keccak256\n        /* \"CROWD_TANK/contracts/CrowdTank.sol\":7879:7916  Contributions[_projectID][msg.sender] */\n      0x00\n        /* \"CROWD_TANK/contracts/CrowdTank.sol\":7905:7915  msg.sender */\n      caller\n        /* \"CROWD_TANK/contracts/CrowdTank.sol\":7879:7916  Contributions[_projectID][msg.sender] */\n      0xffffffffffffffffffffffffffffffffffffffff\n      and\n      0xffffffffffffffffffffffffffffffffffffffff\n      and\n      dup2\n      mstore\n      0x20\n      add\n      swap1\n      dup2\n      mstore\n      0x20\n      add\n      0x00\n      keccak256\n      0x00\n        /* \"CROWD_TANK/contracts/CrowdTank.sol\":7879:7936  Contributions[_projectID][msg.sender] -= fundsContributed */\n      dup3\n      dup3\n      sload\n      tag_160\n      swap2\n      swap1\n      tag_129\n      jump\t// in\n    tag_160:\n      swap3\n      pop\n      pop\n      dup2\n      swap1\n      sstore\n      pop\n        /* \"CROWD_TANK/contracts/CrowdTank.sol\":7969:7985  fundsContributed */\n      dup2\n        /* \"CROWD_TANK/contracts/CrowdTank.sol\":7947:7965  TotalRaisedFunding */\n      0x01\n      0x00\n        /* \"CROWD_TANK/contracts/CrowdTank.sol\":7947:7985  TotalRaisedFunding -= fundsContributed */\n      dup3\n      dup3\n      sload\n      tag_161\n      swap2\n      swap1\n      tag_129\n      jump\t// in\n    tag_161:\n      swap3\n      pop\n      pop\n      dup2\n      swap1\n      sstore\n      pop\n        /* \"CROWD_TANK/contracts/CrowdTank.sol\":8002:8021  wasPreviouslyFunded */\n      dup1\n        /* \"CROWD_TANK/contracts/CrowdTank.sol\":8002:8067  wasPreviouslyFunded && Project.amountRaised < Project.fundingGoal */\n      dup1\n      iszero\n      tag_162\n      jumpi\n      pop\n        /* \"CROWD_TANK/contracts/CrowdTank.sol\":8048:8055  Project */\n      dup3\n        /* \"CROWD_TANK/contracts/CrowdTank.sol\":8048:8067  Project.fundingGoal */\n      0x03\n      add\n      sload\n        /* \"CROWD_TANK/contracts/CrowdTank.sol\":8025:8032  Project */\n      dup4\n        /* \"CROWD_TANK/contracts/CrowdTank.sol\":8025:8045  Project.amountRaised */\n      0x05\n      add\n      sload\n        /* \"CROWD_TANK/contracts/CrowdTank.sol\":8025:8067  Project.amountRaised < Project.fundingGoal */\n      lt\n        /* \"CROWD_TANK/contracts/CrowdTank.sol\":8002:8067  wasPreviouslyFunded && Project.amountRaised < Project.fundingGoal */\n    tag_162:\n        /* \"CROWD_TANK/contracts/CrowdTank.sol\":7998:8313  if (wasPreviouslyFunded && Project.amountRaised < Project.fundingGoal) {... */\n      iszero\n      tag_163\n      jumpi\n        /* \"CROWD_TANK/contracts/CrowdTank.sol\":8101:8106  false */\n      0x00\n        /* \"CROWD_TANK/contracts/CrowdTank.sol\":8084:8091  Project */\n      dup4\n        /* \"CROWD_TANK/contracts/CrowdTank.sol\":8084:8098  Project.funded */\n      0x06\n      add\n      0x00\n        /* \"CROWD_TANK/contracts/CrowdTank.sol\":8084:8106  Project.funded = false */\n      0x0100\n      exp\n      dup2\n      sload\n      dup2\n      0xff\n      mul\n      not\n      and\n      swap1\n      dup4\n      iszero\n      iszero\n      mul\n      or\n      swap1\n      sstore\n      pop\n        /* \"CROWD_TANK/contracts/CrowdTank.sol\":8148:8153  false */\n      0x00\n        /* \"CROWD_TANK/contracts/CrowdTank.sol\":8121:8128  Project */\n      dup4\n        /* \"CROWD_TANK/contracts/CrowdTank.sol\":8121:8145  Project.status_processed */\n      0x08\n      add\n      0x01\n        /* \"CROWD_TANK/contracts/CrowdTank.sol\":8121:8153  Project.status_processed = false */\n      0x0100\n      exp\n      dup2\n      sload\n      dup2\n      0xff\n      mul\n      not\n      and\n      swap1\n      dup4\n      iszero\n      iszero\n      mul\n      or\n      swap1\n      sstore\n      pop\n        /* \"CROWD_TANK/contracts/CrowdTank.sol\":8236:8237  0 */\n      0x00\n        /* \"CROWD_TANK/contracts/CrowdTank.sol\":8207:8233  Successful_Funded_Projects */\n      sload(0x04)\n        /* \"CROWD_TANK/contracts/CrowdTank.sol\":8207:8237  Successful_Funded_Projects > 0 */\n      gt\n        /* \"CROWD_TANK/contracts/CrowdTank.sol\":8203:8302  if (Successful_Funded_Projects > 0) {... */\n      iszero\n      tag_164\n      jumpi\n        /* \"CROWD_TANK/contracts/CrowdTank.sol\":8258:8284  Successful_Funded_Projects */\n      0x04\n      0x00\n        /* \"CROWD_TANK/contracts/CrowdTank.sol\":8258:8286  Successful_Funded_Projects-- */\n      dup2\n      sload\n      dup1\n      swap3\n      swap2\n      swap1\n      tag_165\n      swap1\n      tag_166\n      jump\t// in\n    tag_165:\n      swap2\n      swap1\n      pop\n      sstore\n      pop\n        /* \"CROWD_TANK/contracts/CrowdTank.sol\":8203:8302  if (Successful_Funded_Projects > 0) {... */\n    tag_164:\n        /* \"CROWD_TANK/contracts/CrowdTank.sol\":7998:8313  if (wasPreviouslyFunded && Project.amountRaised < Project.fundingGoal) {... */\n    tag_163:\n        /* \"CROWD_TANK/contracts/CrowdTank.sol\":8326:8335  bool sent */\n      0x00\n        /* \"CROWD_TANK/contracts/CrowdTank.sol\":8349:8359  msg.sender */\n      caller\n        /* \"CROWD_TANK/contracts/CrowdTank.sol\":8341:8365  payable(msg.sender).call */\n      0xffffffffffffffffffffffffffffffffffffffff\n      and\n        /* \"CROWD_TANK/contracts/CrowdTank.sol\":8373:8389  fundsContributed */\n      dup4\n        /* \"CROWD_TANK/contracts/CrowdTank.sol\":8341:8394  payable(msg.sender).call{value: fundsContributed}(\"\") */\n      mload(0x40)\n      tag_167\n      swap1\n      tag_168\n      jump\t// in\n    tag_167:\n      0x00\n      mload(0x40)\n      dup1\n      dup4\n      sub\n      dup2\n      dup6\n      dup8\n      gas\n      call\n      swap3\n      pop\n      pop\n      pop\n      returndatasize\n      dup1\n      0x00\n      dup2\n      eq\n      tag_171\n      jumpi\n      mload(0x40)\n      swap2\n      pop\n      and(add(returndatasize, 0x3f), not(0x1f))\n      dup3\n      add\n      0x40\n      mstore\n      returndatasize\n      dup3\n      mstore\n      returndatasize\n      0x00\n      0x20\n      dup5\n      add\n      returndatacopy\n      jump(tag_170)\n    tag_171:\n      0x60\n      swap2\n      pop\n    tag_170:\n      pop\n        /* \"CROWD_TANK/contracts/CrowdTank.sol\":8325:8394  (bool sent, ) = payable(msg.sender).call{value: fundsContributed}(\"\") */\n      pop\n      swap1\n      pop\n        /* \"CROWD_TANK/contracts/CrowdTank.sol\":8413:8417  sent */\n      dup1\n        /* \"CROWD_TANK/contracts/CrowdTank.sol\":8405:8440  require(sent , \"Withdrawal Failed\") */\n      tag_172\n      jumpi\n      mload(0x40)\n      0x08c379a000000000000000000000000000000000000000000000000000000000\n      dup2\n      mstore\n      0x04\n      add\n      tag_173\n      swap1\n      tag_174\n      jump\t// in\n    tag_173:\n      mload(0x40)\n      dup1\n      swap2\n      sub\n      swap1\n      revert\n    tag_172:\n        /* \"CROWD_TANK/contracts/CrowdTank.sol\":8490:8500  _projectID */\n      dup5\n        /* \"CROWD_TANK/contracts/CrowdTank.sol\":8476:8531  userWithdrawn(_projectID, msg.sender, fundsContributed) */\n      0xb6e4e293b6c7c5cf68fbb52edfaca6173710fcccbcecac03c32e62327fc000c6\n        /* \"CROWD_TANK/contracts/CrowdTank.sol\":8502:8512  msg.sender */\n      caller\n        /* \"CROWD_TANK/contracts/CrowdTank.sol\":8514:8530  fundsContributed */\n      dup6\n        /* \"CROWD_TANK/contracts/CrowdTank.sol\":8476:8531  userWithdrawn(_projectID, msg.sender, fundsContributed) */\n      mload(0x40)\n      tag_175\n      swap3\n      swap2\n      swap1\n      tag_176\n      jump\t// in\n    tag_175:\n      mload(0x40)\n      dup1\n      swap2\n      sub\n      swap1\n      log2\n        /* \"CROWD_TANK/contracts/CrowdTank.sol\":7457:8549  {... */\n      pop\n      pop\n      pop\n      pop\n        /* \"CROWD_TANK/contracts/CrowdTank.sol\":7401:8549  function userWithdraw(uint _projectID) external payable {... */\n      pop\n      jump\t// out\n        /* \"CROWD_TANK/contracts/CrowdTank.sol\":10941:11208  function Funding_Raised_Percentage( uint _projectID ) public view  returns(uint) {... */\n    tag_56:\n        /* \"CROWD_TANK/contracts/CrowdTank.sol\":11016:11020  uint */\n      0x00\n        /* \"CROWD_TANK/contracts/CrowdTank.sol\":11033:11056  project storage Project */\n      0x00\n        /* \"CROWD_TANK/contracts/CrowdTank.sol\":11059:11067  Projects */\n      0x08\n        /* \"CROWD_TANK/contracts/CrowdTank.sol\":11059:11079  Projects[_projectID] */\n      0x00\n        /* \"CROWD_TANK/contracts/CrowdTank.sol\":11068:11078  _projectID */\n      dup5\n        /* \"CROWD_TANK/contracts/CrowdTank.sol\":11059:11079  Projects[_projectID] */\n      dup2\n      mstore\n      0x20\n      add\n      swap1\n      dup2\n      mstore\n      0x20\n      add\n      0x00\n      keccak256\n        /* \"CROWD_TANK/contracts/CrowdTank.sol\":11033:11079  project storage Project = Projects[_projectID] */\n      swap1\n      pop\n        /* \"CROWD_TANK/contracts/CrowdTank.sol\":11090:11112  uint Raised_Percentage */\n      0x00\n        /* \"CROWD_TANK/contracts/CrowdTank.sol\":11146:11153  Project */\n      dup2\n        /* \"CROWD_TANK/contracts/CrowdTank.sol\":11146:11165  Project.fundingGoal */\n      0x03\n      add\n      sload\n        /* \"CROWD_TANK/contracts/CrowdTank.sol\":11138:11141  100 */\n      0x64\n        /* \"CROWD_TANK/contracts/CrowdTank.sol\":11117:11124  Project */\n      dup4\n        /* \"CROWD_TANK/contracts/CrowdTank.sol\":11117:11137  Project.amountRaised */\n      0x05\n      add\n      sload\n        /* \"CROWD_TANK/contracts/CrowdTank.sol\":11117:11141  Project.amountRaised*100 */\n      tag_178\n      swap2\n      swap1\n      tag_179\n      jump\t// in\n    tag_178:\n        /* \"CROWD_TANK/contracts/CrowdTank.sol\":11115:11165  ( Project.amountRaised*100 ) / Project.fundingGoal */\n      tag_180\n      swap2\n      swap1\n      tag_181\n      jump\t// in\n    tag_180:\n        /* \"CROWD_TANK/contracts/CrowdTank.sol\":11090:11165  uint Raised_Percentage = ( Project.amountRaised*100 ) / Project.fundingGoal */\n      swap1\n      pop\n        /* \"CROWD_TANK/contracts/CrowdTank.sol\":11183:11200  Raised_Percentage */\n      dup1\n        /* \"CROWD_TANK/contracts/CrowdTank.sol\":11176:11200  return Raised_Percentage */\n      swap3\n      pop\n      pop\n      pop\n        /* \"CROWD_TANK/contracts/CrowdTank.sol\":10941:11208  function Funding_Raised_Percentage( uint _projectID ) public view  returns(uint) {... */\n      swap2\n      swap1\n      pop\n      jump\t// out\n        /* \"CROWD_TANK/contracts/CrowdTank.sol\":6449:6649  function GetProjectStatus() view public returns(uint Successfully_Funded_Projects , uint Failed_To_Fund_Projects) {... */\n    tag_60:\n        /* \"CROWD_TANK/contracts/CrowdTank.sol\":6497:6530  uint Successfully_Funded_Projects */\n      0x00\n        /* \"CROWD_TANK/contracts/CrowdTank.sol\":6533:6561  uint Failed_To_Fund_Projects */\n      0x00\n        /* \"CROWD_TANK/contracts/CrowdTank.sol\":6586:6612  Successful_Funded_Projects */\n      sload(0x04)\n        /* \"CROWD_TANK/contracts/CrowdTank.sol\":6614:6636  Failed_Funded_Projects */\n      sload(0x05)\n        /* \"CROWD_TANK/contracts/CrowdTank.sol\":6578:6637  return (Successful_Funded_Projects, Failed_Funded_Projects) */\n      swap2\n      pop\n      swap2\n      pop\n        /* \"CROWD_TANK/contracts/CrowdTank.sol\":6449:6649  function GetProjectStatus() view public returns(uint Successfully_Funded_Projects , uint Failed_To_Fund_Projects) {... */\n      swap1\n      swap2\n      jump\t// out\n        /* \"CROWD_TANK/contracts/CrowdTank.sol\":6710:6824  function Get_Total_Raised_Funding() view public returns(uint) {... */\n    tag_64:\n        /* \"CROWD_TANK/contracts/CrowdTank.sol\":6766:6770  uint */\n      0x00\n        /* \"CROWD_TANK/contracts/CrowdTank.sol\":6794:6812  TotalRaisedFunding */\n      sload(0x01)\n        /* \"CROWD_TANK/contracts/CrowdTank.sol\":6787:6812  return TotalRaisedFunding */\n      swap1\n      pop\n        /* \"CROWD_TANK/contracts/CrowdTank.sol\":6710:6824  function Get_Total_Raised_Funding() view public returns(uint) {... */\n      swap1\n      jump\t// out\n        /* \"CROWD_TANK/contracts/CrowdTank.sol\":1831:1895  mapping (uint => mapping (address => uint)) public Contributions */\n    tag_70:\n      mstore(0x20, 0x09)\n      dup2\n      0x00\n      mstore\n      mstore(0x20, keccak256(0x00, 0x40))\n      dup1\n      0x00\n      mstore\n      keccak256(0x00, 0x40)\n      0x00\n      swap2\n      pop\n      swap2\n      pop\n      pop\n      sload\n      dup2\n      jump\t// out\n        /* \"CROWD_TANK/contracts/CrowdTank.sol\":10165:10438  function Extend_Deadline(uint _projectID , uint _deadline) external {... */\n    tag_75:\n        /* \"CROWD_TANK/contracts/CrowdTank.sol\":10244:10267  project storage Project */\n      0x00\n        /* \"CROWD_TANK/contracts/CrowdTank.sol\":10270:10278  Projects */\n      0x08\n        /* \"CROWD_TANK/contracts/CrowdTank.sol\":10270:10290  Projects[_projectID] */\n      0x00\n        /* \"CROWD_TANK/contracts/CrowdTank.sol\":10279:10289  _projectID */\n      dup5\n        /* \"CROWD_TANK/contracts/CrowdTank.sol\":10270:10290  Projects[_projectID] */\n      dup2\n      mstore\n      0x20\n      add\n      swap1\n      dup2\n      mstore\n      0x20\n      add\n      0x00\n      keccak256\n        /* \"CROWD_TANK/contracts/CrowdTank.sol\":10244:10290  project storage Project = Projects[_projectID] */\n      swap1\n      pop\n        /* \"CROWD_TANK/contracts/CrowdTank.sol\":10328:10338  msg.sender */\n      caller\n        /* \"CROWD_TANK/contracts/CrowdTank.sol\":10309:10338  Project.creator == msg.sender */\n      0xffffffffffffffffffffffffffffffffffffffff\n      and\n        /* \"CROWD_TANK/contracts/CrowdTank.sol\":10309:10316  Project */\n      dup2\n        /* \"CROWD_TANK/contracts/CrowdTank.sol\":10309:10324  Project.creator */\n      0x00\n      add\n      0x00\n      swap1\n      sload\n      swap1\n      0x0100\n      exp\n      swap1\n      div\n      0xffffffffffffffffffffffffffffffffffffffff\n      and\n        /* \"CROWD_TANK/contracts/CrowdTank.sol\":10309:10338  Project.creator == msg.sender */\n      0xffffffffffffffffffffffffffffffffffffffff\n      and\n      eq\n        /* \"CROWD_TANK/contracts/CrowdTank.sol\":10301:10390  require(Project.creator == msg.sender , \"Only Project creator can extend the deadline!!\") */\n      tag_185\n      jumpi\n      mload(0x40)\n      0x08c379a000000000000000000000000000000000000000000000000000000000\n      dup2\n      mstore\n      0x04\n      add\n      tag_186\n      swap1\n      tag_187\n      jump\t// in\n    tag_186:\n      mload(0x40)\n      dup1\n      swap2\n      sub\n      swap1\n      revert\n    tag_185:\n        /* \"CROWD_TANK/contracts/CrowdTank.sol\":10421:10430  _deadline */\n      dup2\n        /* \"CROWD_TANK/contracts/CrowdTank.sol\":10401:10408  Project */\n      dup2\n        /* \"CROWD_TANK/contracts/CrowdTank.sol\":10401:10417  Project.deadline */\n      0x04\n      add\n      0x00\n        /* \"CROWD_TANK/contracts/CrowdTank.sol\":10401:10430  Project.deadline += _deadline */\n      dup3\n      dup3\n      sload\n      tag_188\n      swap2\n      swap1\n      tag_189\n      jump\t// in\n    tag_188:\n      swap3\n      pop\n      pop\n      dup2\n      swap1\n      sstore\n      pop\n        /* \"CROWD_TANK/contracts/CrowdTank.sol\":10233:10438  {... */\n      pop\n        /* \"CROWD_TANK/contracts/CrowdTank.sol\":10165:10438  function Extend_Deadline(uint _projectID , uint _deadline) external {... */\n      pop\n      pop\n      jump\t// out\n        /* \"CROWD_TANK/contracts/CrowdTank.sol\":3689:5567  function fundProject(uint _projectID) external payable nonReentrant {... */\n    tag_78:\n        /* \"@openzeppelin/contracts/utils/ReentrancyGuard.sol\":2500:2521  _nonReentrantBefore() */\n      tag_191\n        /* \"@openzeppelin/contracts/utils/ReentrancyGuard.sol\":2500:2519  _nonReentrantBefore */\n      tag_192\n        /* \"@openzeppelin/contracts/utils/ReentrancyGuard.sol\":2500:2521  _nonReentrantBefore() */\n      jump\t// in\n    tag_191:\n        /* \"CROWD_TANK/contracts/CrowdTank.sol\":3772:3795  project storage Project */\n      0x00\n        /* \"CROWD_TANK/contracts/CrowdTank.sol\":3798:3806  Projects */\n      0x08\n        /* \"CROWD_TANK/contracts/CrowdTank.sol\":3798:3818  Projects[_projectID] */\n      0x00\n        /* \"CROWD_TANK/contracts/CrowdTank.sol\":3807:3817  _projectID */\n      dup4\n        /* \"CROWD_TANK/contracts/CrowdTank.sol\":3798:3818  Projects[_projectID] */\n      dup2\n      mstore\n      0x20\n      add\n      swap1\n      dup2\n      mstore\n      0x20\n      add\n      0x00\n      keccak256\n        /* \"CROWD_TANK/contracts/CrowdTank.sol\":3772:3818  project storage Project = Projects[_projectID] */\n      swap1\n      pop\n        /* \"CROWD_TANK/contracts/CrowdTank.sol\":3858:3865  Project */\n      dup1\n        /* \"CROWD_TANK/contracts/CrowdTank.sol\":3858:3874  Project.deadline */\n      0x04\n      add\n      sload\n        /* \"CROWD_TANK/contracts/CrowdTank.sol\":3841:3856  block.timestamp */\n      timestamp\n        /* \"CROWD_TANK/contracts/CrowdTank.sol\":3841:3874  block.timestamp<=Project.deadline */\n      gt\n      iszero\n        /* \"CROWD_TANK/contracts/CrowdTank.sol\":3833:3905  require(block.timestamp<=Project.deadline , \"Project deadline is over!\") */\n      tag_194\n      jumpi\n      mload(0x40)\n      0x08c379a000000000000000000000000000000000000000000000000000000000\n      dup2\n      mstore\n      0x04\n      add\n      tag_195\n      swap1\n      tag_196\n      jump\t// in\n    tag_195:\n      mload(0x40)\n      dup1\n      swap2\n      sub\n      swap1\n      revert\n    tag_194:\n        /* \"CROWD_TANK/contracts/CrowdTank.sol\":3929:3936  Project */\n      dup1\n        /* \"CROWD_TANK/contracts/CrowdTank.sol\":3929:3943  Project.funded */\n      0x06\n      add\n      0x00\n      swap1\n      sload\n      swap1\n      0x0100\n      exp\n      swap1\n      div\n      0xff\n      and\n        /* \"CROWD_TANK/contracts/CrowdTank.sol\":3928:3943  !Project.funded */\n      iszero\n        /* \"CROWD_TANK/contracts/CrowdTank.sol\":3920:3988  require(!Project.funded , \"Project Reached its Funding requirement\") */\n      tag_197\n      jumpi\n      mload(0x40)\n      0x08c379a000000000000000000000000000000000000000000000000000000000\n      dup2\n      mstore\n      0x04\n      add\n      tag_198\n      swap1\n      tag_199\n      jump\t// in\n    tag_198:\n      mload(0x40)\n      dup1\n      swap2\n      sub\n      swap1\n      revert\n    tag_197:\n        /* \"CROWD_TANK/contracts/CrowdTank.sol\":4021:4022  0 */\n      0x00\n        /* \"CROWD_TANK/contracts/CrowdTank.sol\":4011:4020  msg.value */\n      callvalue\n        /* \"CROWD_TANK/contracts/CrowdTank.sol\":4011:4022  msg.value>0 */\n      gt\n        /* \"CROWD_TANK/contracts/CrowdTank.sol\":4003:4072  require(msg.value>0 , \"send some ether to contribute in the project\") */\n      tag_200\n      jumpi\n      mload(0x40)\n      0x08c379a000000000000000000000000000000000000000000000000000000000\n      dup2\n      mstore\n      0x04\n      add\n      tag_201\n      swap1\n      tag_202\n      jump\t// in\n    tag_201:\n      mload(0x40)\n      dup1\n      swap2\n      sub\n      swap1\n      revert\n    tag_200:\n        /* \"CROWD_TANK/contracts/CrowdTank.sol\":4108:4115  Project */\n      dup1\n        /* \"CROWD_TANK/contracts/CrowdTank.sol\":4108:4127  Project.fundingGoal */\n      0x03\n      add\n      sload\n        /* \"CROWD_TANK/contracts/CrowdTank.sol\":4095:4104  msg.value */\n      callvalue\n        /* \"CROWD_TANK/contracts/CrowdTank.sol\":4095:4127  msg.value <= Project.fundingGoal */\n      gt\n      iszero\n        /* \"CROWD_TANK/contracts/CrowdTank.sol\":4087:4168  require(msg.value <= Project.fundingGoal, \"Amount Contributed is more than Goal\") */\n      tag_203\n      jumpi\n      mload(0x40)\n      0x08c379a000000000000000000000000000000000000000000000000000000000\n      dup2\n      mstore\n      0x04\n      add\n      tag_204\n      swap1\n      tag_205\n      jump\t// in\n    tag_204:\n      mload(0x40)\n      dup1\n      swap2\n      sub\n      swap1\n      revert\n    tag_203:\n        /* \"CROWD_TANK/contracts/CrowdTank.sol\":4183:4197  uint remaining */\n      0x00\n        /* \"CROWD_TANK/contracts/CrowdTank.sol\":4222:4229  Project */\n      dup2\n        /* \"CROWD_TANK/contracts/CrowdTank.sol\":4222:4242  Project.amountRaised */\n      0x05\n      add\n      sload\n        /* \"CROWD_TANK/contracts/CrowdTank.sol\":4200:4207  Project */\n      dup3\n        /* \"CROWD_TANK/contracts/CrowdTank.sol\":4200:4219  Project.fundingGoal */\n      0x03\n      add\n      sload\n        /* \"CROWD_TANK/contracts/CrowdTank.sol\":4200:4242  Project.fundingGoal - Project.amountRaised */\n      tag_206\n      swap2\n      swap1\n      tag_129\n      jump\t// in\n    tag_206:\n        /* \"CROWD_TANK/contracts/CrowdTank.sol\":4183:4242  uint remaining = Project.fundingGoal - Project.amountRaised */\n      swap1\n      pop\n        /* \"CROWD_TANK/contracts/CrowdTank.sol\":4257:4276  uint amountToAccept */\n      0x00\n        /* \"CROWD_TANK/contracts/CrowdTank.sol\":4291:4302  uint refund */\n      0x00\n        /* \"CROWD_TANK/contracts/CrowdTank.sol\":4332:4341  remaining */\n      dup3\n        /* \"CROWD_TANK/contracts/CrowdTank.sol\":4320:4329  msg.value */\n      callvalue\n        /* \"CROWD_TANK/contracts/CrowdTank.sol\":4320:4341  msg.value > remaining */\n      gt\n        /* \"CROWD_TANK/contracts/CrowdTank.sol\":4317:4549  if(msg.value > remaining) {... */\n      iszero\n      tag_207\n      jumpi\n        /* \"CROWD_TANK/contracts/CrowdTank.sol\":4379:4388  remaining */\n      dup3\n        /* \"CROWD_TANK/contracts/CrowdTank.sol\":4362:4388  amountToAccept = remaining */\n      swap2\n      pop\n        /* \"CROWD_TANK/contracts/CrowdTank.sol\":4428:4437  remaining */\n      dup3\n        /* \"CROWD_TANK/contracts/CrowdTank.sol\":4416:4425  msg.value */\n      callvalue\n        /* \"CROWD_TANK/contracts/CrowdTank.sol\":4416:4437  msg.value - remaining */\n      tag_208\n      swap2\n      swap1\n      tag_129\n      jump\t// in\n    tag_208:\n        /* \"CROWD_TANK/contracts/CrowdTank.sol\":4407:4437  refund = msg.value - remaining */\n      swap1\n      pop\n        /* \"CROWD_TANK/contracts/CrowdTank.sol\":4317:4549  if(msg.value > remaining) {... */\n      jump(tag_209)\n    tag_207:\n        /* \"CROWD_TANK/contracts/CrowdTank.sol\":4495:4504  msg.value */\n      callvalue\n        /* \"CROWD_TANK/contracts/CrowdTank.sol\":4478:4504  amountToAccept = msg.value */\n      swap2\n      pop\n        /* \"CROWD_TANK/contracts/CrowdTank.sol\":4532:4533  0 */\n      0x00\n        /* \"CROWD_TANK/contracts/CrowdTank.sol\":4523:4533  refund = 0 */\n      swap1\n      pop\n        /* \"CROWD_TANK/contracts/CrowdTank.sol\":4317:4549  if(msg.value > remaining) {... */\n    tag_209:\n        /* \"CROWD_TANK/contracts/CrowdTank.sol\":4587:4601  amountToAccept */\n      dup2\n        /* \"CROWD_TANK/contracts/CrowdTank.sol\":4563:4570  Project */\n      dup5\n        /* \"CROWD_TANK/contracts/CrowdTank.sol\":4563:4583  Project.amountRaised */\n      0x05\n      add\n      0x00\n        /* \"CROWD_TANK/contracts/CrowdTank.sol\":4563:4601  Project.amountRaised += amountToAccept */\n      dup3\n      dup3\n      sload\n      tag_210\n      swap2\n      swap1\n      tag_189\n      jump\t// in\n    tag_210:\n      swap3\n      pop\n      pop\n      dup2\n      swap1\n      sstore\n      pop\n        /* \"CROWD_TANK/contracts/CrowdTank.sol\":4656:4670  amountToAccept */\n      dup2\n        /* \"CROWD_TANK/contracts/CrowdTank.sol\":4616:4629  Contributions */\n      0x09\n        /* \"CROWD_TANK/contracts/CrowdTank.sol\":4616:4641  Contributions[_projectID] */\n      0x00\n        /* \"CROWD_TANK/contracts/CrowdTank.sol\":4630:4640  _projectID */\n      dup8\n        /* \"CROWD_TANK/contracts/CrowdTank.sol\":4616:4641  Contributions[_projectID] */\n      dup2\n      mstore\n      0x20\n      add\n      swap1\n      dup2\n      mstore\n      0x20\n      add\n      0x00\n      keccak256\n        /* \"CROWD_TANK/contracts/CrowdTank.sol\":4616:4653  Contributions[_projectID][msg.sender] */\n      0x00\n        /* \"CROWD_TANK/contracts/CrowdTank.sol\":4642:4652  msg.sender */\n      caller\n        /* \"CROWD_TANK/contracts/CrowdTank.sol\":4616:4653  Contributions[_projectID][msg.sender] */\n      0xffffffffffffffffffffffffffffffffffffffff\n      and\n      0xffffffffffffffffffffffffffffffffffffffff\n      and\n      dup2\n      mstore\n      0x20\n      add\n      swap1\n      dup2\n      mstore\n      0x20\n      add\n      0x00\n      keccak256\n        /* \"CROWD_TANK/contracts/CrowdTank.sol\":4616:4670  Contributions[_projectID][msg.sender] = amountToAccept */\n      dup2\n      swap1\n      sstore\n      pop\n        /* \"CROWD_TANK/contracts/CrowdTank.sol\":4738:4752  amountToAccept */\n      dup2\n        /* \"CROWD_TANK/contracts/CrowdTank.sol\":4718:4736  TotalRaisedFunding */\n      0x01\n      0x00\n        /* \"CROWD_TANK/contracts/CrowdTank.sol\":4718:4752  TotalRaisedFunding+=amountToAccept */\n      dup3\n      dup3\n      sload\n      tag_211\n      swap2\n      swap1\n      tag_189\n      jump\t// in\n    tag_211:\n      swap3\n      pop\n      pop\n      dup2\n      swap1\n      sstore\n      pop\n        /* \"CROWD_TANK/contracts/CrowdTank.sol\":4780:4781  0 */\n      0x00\n        /* \"CROWD_TANK/contracts/CrowdTank.sol\":4771:4777  refund */\n      dup2\n        /* \"CROWD_TANK/contracts/CrowdTank.sol\":4771:4781  refund > 0 */\n      gt\n        /* \"CROWD_TANK/contracts/CrowdTank.sol\":4767:4927  if (refund > 0) {... */\n      iszero\n      tag_212\n      jumpi\n        /* \"CROWD_TANK/contracts/CrowdTank.sol\":4803:4812  bool sent */\n      0x00\n        /* \"CROWD_TANK/contracts/CrowdTank.sol\":4826:4836  msg.sender */\n      caller\n        /* \"CROWD_TANK/contracts/CrowdTank.sol\":4818:4842  payable(msg.sender).call */\n      0xffffffffffffffffffffffffffffffffffffffff\n      and\n        /* \"CROWD_TANK/contracts/CrowdTank.sol\":4850:4856  refund */\n      dup3\n        /* \"CROWD_TANK/contracts/CrowdTank.sol\":4818:4861  payable(msg.sender).call{value: refund}(\"\") */\n      mload(0x40)\n      tag_213\n      swap1\n      tag_168\n      jump\t// in\n    tag_213:\n      0x00\n      mload(0x40)\n      dup1\n      dup4\n      sub\n      dup2\n      dup6\n      dup8\n      gas\n      call\n      swap3\n      pop\n      pop\n      pop\n      returndatasize\n      dup1\n      0x00\n      dup2\n      eq\n      tag_216\n      jumpi\n      mload(0x40)\n      swap2\n      pop\n      and(add(returndatasize, 0x3f), not(0x1f))\n      dup3\n      add\n      0x40\n      mstore\n      returndatasize\n      dup3\n      mstore\n      returndatasize\n      0x00\n      0x20\n      dup5\n      add\n      returndatacopy\n      jump(tag_215)\n    tag_216:\n      0x60\n      swap2\n      pop\n    tag_215:\n      pop\n        /* \"CROWD_TANK/contracts/CrowdTank.sol\":4802:4861  (bool sent, ) = payable(msg.sender).call{value: refund}(\"\") */\n      pop\n      swap1\n      pop\n        /* \"CROWD_TANK/contracts/CrowdTank.sol\":4888:4892  sent */\n      dup1\n        /* \"CROWD_TANK/contracts/CrowdTank.sol\":4880:4911  require(sent , \"Refund Failed\") */\n      tag_217\n      jumpi\n      mload(0x40)\n      0x08c379a000000000000000000000000000000000000000000000000000000000\n      dup2\n      mstore\n      0x04\n      add\n      tag_218\n      swap1\n      tag_219\n      jump\t// in\n    tag_218:\n      mload(0x40)\n      dup1\n      swap2\n      sub\n      swap1\n      revert\n    tag_217:\n        /* \"CROWD_TANK/contracts/CrowdTank.sol\":4783:4927  {... */\n      pop\n        /* \"CROWD_TANK/contracts/CrowdTank.sol\":4767:4927  if (refund > 0) {... */\n    tag_212:\n        /* \"CROWD_TANK/contracts/CrowdTank.sol\":4990:5004  uint userTotal */\n      0x00\n        /* \"CROWD_TANK/contracts/CrowdTank.sol\":5007:5020  Contributions */\n      0x09\n        /* \"CROWD_TANK/contracts/CrowdTank.sol\":5007:5032  Contributions[_projectID] */\n      0x00\n        /* \"CROWD_TANK/contracts/CrowdTank.sol\":5021:5031  _projectID */\n      dup8\n        /* \"CROWD_TANK/contracts/CrowdTank.sol\":5007:5032  Contributions[_projectID] */\n      dup2\n      mstore\n      0x20\n      add\n      swap1\n      dup2\n      mstore\n      0x20\n      add\n      0x00\n      keccak256\n        /* \"CROWD_TANK/contracts/CrowdTank.sol\":5007:5044  Contributions[_projectID][msg.sender] */\n      0x00\n        /* \"CROWD_TANK/contracts/CrowdTank.sol\":5033:5043  msg.sender */\n      caller\n        /* \"CROWD_TANK/contracts/CrowdTank.sol\":5007:5044  Contributions[_projectID][msg.sender] */\n      0xffffffffffffffffffffffffffffffffffffffff\n      and\n      0xffffffffffffffffffffffffffffffffffffffff\n      and\n      dup2\n      mstore\n      0x20\n      add\n      swap1\n      dup2\n      mstore\n      0x20\n      add\n      0x00\n      keccak256\n      sload\n        /* \"CROWD_TANK/contracts/CrowdTank.sol\":4990:5044  uint userTotal = Contributions[_projectID][msg.sender] */\n      swap1\n      pop\n        /* \"CROWD_TANK/contracts/CrowdTank.sol\":5075:5082  Project */\n      dup5\n        /* \"CROWD_TANK/contracts/CrowdTank.sol\":5075:5103  Project.highest_contribution */\n      0x07\n      add\n      sload\n        /* \"CROWD_TANK/contracts/CrowdTank.sol\":5063:5072  userTotal */\n      dup2\n        /* \"CROWD_TANK/contracts/CrowdTank.sol\":5063:5103  userTotal > Project.highest_contribution */\n      gt\n        /* \"CROWD_TANK/contracts/CrowdTank.sol\":5059:5234  if (userTotal > Project.highest_contribution) {... */\n      iszero\n      tag_220\n      jumpi\n        /* \"CROWD_TANK/contracts/CrowdTank.sol\":5155:5164  userTotal */\n      dup1\n        /* \"CROWD_TANK/contracts/CrowdTank.sol\":5124:5131  Project */\n      dup6\n        /* \"CROWD_TANK/contracts/CrowdTank.sol\":5124:5152  Project.highest_contribution */\n      0x07\n      add\n        /* \"CROWD_TANK/contracts/CrowdTank.sol\":5124:5164  Project.highest_contribution = userTotal */\n      dup2\n      swap1\n      sstore\n      pop\n        /* \"CROWD_TANK/contracts/CrowdTank.sol\":5208:5218  msg.sender */\n      caller\n        /* \"CROWD_TANK/contracts/CrowdTank.sol\":5183:5190  Project */\n      dup6\n        /* \"CROWD_TANK/contracts/CrowdTank.sol\":5183:5205  Project.highest_Funder */\n      0x06\n      add\n      0x01\n        /* \"CROWD_TANK/contracts/CrowdTank.sol\":5183:5218  Project.highest_Funder = msg.sender */\n      0x0100\n      exp\n      dup2\n      sload\n      dup2\n      0xffffffffffffffffffffffffffffffffffffffff\n      mul\n      not\n      and\n      swap1\n      dup4\n      0xffffffffffffffffffffffffffffffffffffffff\n      and\n      mul\n      or\n      swap1\n      sstore\n      pop\n        /* \"CROWD_TANK/contracts/CrowdTank.sol\":5059:5234  if (userTotal > Project.highest_contribution) {... */\n    tag_220:\n        /* \"CROWD_TANK/contracts/CrowdTank.sol\":5262:5272  _projectID */\n      dup6\n        /* \"CROWD_TANK/contracts/CrowdTank.sol\":5255:5310  funded(_projectID, msg.sender, amountToAccept , refund) */\n      0x7dd983e9d08b449d571f3583275e98423857f3ffbe9ef56f927eb02b1c8ab599\n        /* \"CROWD_TANK/contracts/CrowdTank.sol\":5274:5284  msg.sender */\n      caller\n        /* \"CROWD_TANK/contracts/CrowdTank.sol\":5286:5300  amountToAccept */\n      dup6\n        /* \"CROWD_TANK/contracts/CrowdTank.sol\":5303:5309  refund */\n      dup6\n        /* \"CROWD_TANK/contracts/CrowdTank.sol\":5255:5310  funded(_projectID, msg.sender, amountToAccept , refund) */\n      mload(0x40)\n      tag_221\n      swap4\n      swap3\n      swap2\n      swap1\n      tag_222\n      jump\t// in\n    tag_221:\n      mload(0x40)\n      dup1\n      swap2\n      sub\n      swap1\n      log2\n        /* \"CROWD_TANK/contracts/CrowdTank.sol\":5353:5360  Project */\n      dup5\n        /* \"CROWD_TANK/contracts/CrowdTank.sol\":5353:5372  Project.fundingGoal */\n      0x03\n      add\n      sload\n        /* \"CROWD_TANK/contracts/CrowdTank.sol\":5331:5338  Project */\n      dup6\n        /* \"CROWD_TANK/contracts/CrowdTank.sol\":5331:5351  Project.amountRaised */\n      0x05\n      add\n      sload\n        /* \"CROWD_TANK/contracts/CrowdTank.sol\":5331:5372  Project.amountRaised>=Project.fundingGoal */\n      lt\n      iszero\n        /* \"CROWD_TANK/contracts/CrowdTank.sol\":5331:5401  Project.amountRaised>=Project.fundingGoal && !Project.status_processed */\n      dup1\n      iszero\n      tag_223\n      jumpi\n      pop\n        /* \"CROWD_TANK/contracts/CrowdTank.sol\":5377:5384  Project */\n      dup5\n        /* \"CROWD_TANK/contracts/CrowdTank.sol\":5377:5401  Project.status_processed */\n      0x08\n      add\n      0x01\n      swap1\n      sload\n      swap1\n      0x0100\n      exp\n      swap1\n      div\n      0xff\n      and\n        /* \"CROWD_TANK/contracts/CrowdTank.sol\":5376:5401  !Project.status_processed */\n      iszero\n        /* \"CROWD_TANK/contracts/CrowdTank.sol\":5331:5401  Project.amountRaised>=Project.fundingGoal && !Project.status_processed */\n    tag_223:\n        /* \"CROWD_TANK/contracts/CrowdTank.sol\":5327:5556  if (Project.amountRaised>=Project.fundingGoal && !Project.status_processed) {... */\n      iszero\n      tag_224\n      jumpi\n        /* \"CROWD_TANK/contracts/CrowdTank.sol\":5439:5443  true */\n      0x01\n        /* \"CROWD_TANK/contracts/CrowdTank.sol\":5422:5429  Project */\n      dup6\n        /* \"CROWD_TANK/contracts/CrowdTank.sol\":5422:5436  Project.funded */\n      0x06\n      add\n      0x00\n        /* \"CROWD_TANK/contracts/CrowdTank.sol\":5422:5443  Project.funded = true */\n      0x0100\n      exp\n      dup2\n      sload\n      dup2\n      0xff\n      mul\n      not\n      and\n      swap1\n      dup4\n      iszero\n      iszero\n      mul\n      or\n      swap1\n      sstore\n      pop\n        /* \"CROWD_TANK/contracts/CrowdTank.sol\":5489:5493  true */\n      0x01\n        /* \"CROWD_TANK/contracts/CrowdTank.sol\":5462:5469  Project */\n      dup6\n        /* \"CROWD_TANK/contracts/CrowdTank.sol\":5462:5486  Project.status_processed */\n      0x08\n      add\n      0x01\n        /* \"CROWD_TANK/contracts/CrowdTank.sol\":5462:5493  Project.status_processed = true */\n      0x0100\n      exp\n      dup2\n      sload\n      dup2\n      0xff\n      mul\n      not\n      and\n      swap1\n      dup4\n      iszero\n      iszero\n      mul\n      or\n      swap1\n      sstore\n      pop\n        /* \"CROWD_TANK/contracts/CrowdTank.sol\":5512:5538  Successful_Funded_Projects */\n      0x04\n      0x00\n        /* \"CROWD_TANK/contracts/CrowdTank.sol\":5512:5540  Successful_Funded_Projects++ */\n      dup2\n      sload\n      dup1\n      swap3\n      swap2\n      swap1\n      tag_225\n      swap1\n      tag_226\n      jump\t// in\n    tag_225:\n      swap2\n      swap1\n      pop\n      sstore\n      pop\n        /* \"CROWD_TANK/contracts/CrowdTank.sol\":5327:5556  if (Project.amountRaised>=Project.fundingGoal && !Project.status_processed) {... */\n    tag_224:\n        /* \"CROWD_TANK/contracts/CrowdTank.sol\":3757:5567  {... */\n      pop\n      pop\n      pop\n      pop\n      pop\n        /* \"@openzeppelin/contracts/utils/ReentrancyGuard.sol\":2542:2562  _nonReentrantAfter() */\n      tag_227\n        /* \"@openzeppelin/contracts/utils/ReentrancyGuard.sol\":2542:2560  _nonReentrantAfter */\n      tag_228\n        /* \"@openzeppelin/contracts/utils/ReentrancyGuard.sol\":2542:2562  _nonReentrantAfter() */\n      jump\t// in\n    tag_227:\n        /* \"CROWD_TANK/contracts/CrowdTank.sol\":3689:5567  function fundProject(uint _projectID) external payable nonReentrant {... */\n      pop\n      jump\t// out\n        /* \"CROWD_TANK/contracts/CrowdTank.sol\":8601:9202  function creatorWithdraw(uint _projectID) external payable {... */\n    tag_81:\n        /* \"CROWD_TANK/contracts/CrowdTank.sol\":8671:8694  project storage Project */\n      0x00\n        /* \"CROWD_TANK/contracts/CrowdTank.sol\":8697:8705  Projects */\n      0x08\n        /* \"CROWD_TANK/contracts/CrowdTank.sol\":8697:8717  Projects[_projectID] */\n      0x00\n        /* \"CROWD_TANK/contracts/CrowdTank.sol\":8706:8716  _projectID */\n      dup4\n        /* \"CROWD_TANK/contracts/CrowdTank.sol\":8697:8717  Projects[_projectID] */\n      dup2\n      mstore\n      0x20\n      add\n      swap1\n      dup2\n      mstore\n      0x20\n      add\n      0x00\n      keccak256\n        /* \"CROWD_TANK/contracts/CrowdTank.sol\":8671:8717  project storage Project = Projects[_projectID] */\n      swap1\n      pop\n        /* \"CROWD_TANK/contracts/CrowdTank.sol\":8728:8745  uint totalfunding */\n      0x00\n        /* \"CROWD_TANK/contracts/CrowdTank.sol\":8748:8755  Project */\n      dup2\n        /* \"CROWD_TANK/contracts/CrowdTank.sol\":8748:8768  Project.amountRaised */\n      0x05\n      add\n      sload\n        /* \"CROWD_TANK/contracts/CrowdTank.sol\":8728:8768  uint totalfunding = Project.amountRaised */\n      swap1\n      pop\n        /* \"CROWD_TANK/contracts/CrowdTank.sol\":8787:8794  Project */\n      dup2\n        /* \"CROWD_TANK/contracts/CrowdTank.sol\":8787:8801  Project.funded */\n      0x06\n      add\n      0x00\n      swap1\n      sload\n      swap1\n      0x0100\n      exp\n      swap1\n      div\n      0xff\n      and\n        /* \"CROWD_TANK/contracts/CrowdTank.sol\":8779:8858  require(Project.funded , \"funding goal has not reached , admin can't withdraw\") */\n      tag_230\n      jumpi\n      mload(0x40)\n      0x08c379a000000000000000000000000000000000000000000000000000000000\n      dup2\n      mstore\n      0x04\n      add\n      tag_231\n      swap1\n      tag_232\n      jump\t// in\n    tag_231:\n      mload(0x40)\n      dup1\n      swap2\n      sub\n      swap1\n      revert\n    tag_230:\n        /* \"CROWD_TANK/contracts/CrowdTank.sol\":8896:8906  msg.sender */\n      caller\n        /* \"CROWD_TANK/contracts/CrowdTank.sol\":8877:8906  Project.creator == msg.sender */\n      0xffffffffffffffffffffffffffffffffffffffff\n      and\n        /* \"CROWD_TANK/contracts/CrowdTank.sol\":8877:8884  Project */\n      dup3\n        /* \"CROWD_TANK/contracts/CrowdTank.sol\":8877:8892  Project.creator */\n      0x00\n      add\n      0x00\n      swap1\n      sload\n      swap1\n      0x0100\n      exp\n      swap1\n      div\n      0xffffffffffffffffffffffffffffffffffffffff\n      and\n        /* \"CROWD_TANK/contracts/CrowdTank.sol\":8877:8906  Project.creator == msg.sender */\n      0xffffffffffffffffffffffffffffffffffffffff\n      and\n      eq\n        /* \"CROWD_TANK/contracts/CrowdTank.sol\":8869:8935  require(Project.creator == msg.sender , \"only admin can withdraw\") */\n      tag_233\n      jumpi\n      mload(0x40)\n      0x08c379a000000000000000000000000000000000000000000000000000000000\n      dup2\n      mstore\n      0x04\n      add\n      tag_234\n      swap1\n      tag_235\n      jump\t// in\n    tag_234:\n      mload(0x40)\n      dup1\n      swap2\n      sub\n      swap1\n      revert\n    tag_233:\n        /* \"CROWD_TANK/contracts/CrowdTank.sol\":8972:8987  block.timestamp */\n      timestamp\n        /* \"CROWD_TANK/contracts/CrowdTank.sol\":8954:8961  Project */\n      dup3\n        /* \"CROWD_TANK/contracts/CrowdTank.sol\":8954:8970  Project.deadline */\n      0x04\n      add\n      sload\n        /* \"CROWD_TANK/contracts/CrowdTank.sol\":8954:8987  Project.deadline<=block.timestamp */\n      gt\n      iszero\n        /* \"CROWD_TANK/contracts/CrowdTank.sol\":8946:9040  require(Project.deadline<=block.timestamp , \"deadline has not reached , admin can't withdraw\") */\n      tag_236\n      jumpi\n      mload(0x40)\n      0x08c379a000000000000000000000000000000000000000000000000000000000\n      dup2\n      mstore\n      0x04\n      add\n      tag_237\n      swap1\n      tag_238\n      jump\t// in\n    tag_237:\n      mload(0x40)\n      dup1\n      swap2\n      sub\n      swap1\n      revert\n    tag_236:\n        /* \"CROWD_TANK/contracts/CrowdTank.sol\":9059:9069  msg.sender */\n      caller\n        /* \"CROWD_TANK/contracts/CrowdTank.sol\":9051:9079  payable(msg.sender).transfer */\n      0xffffffffffffffffffffffffffffffffffffffff\n      and\n        /* \"CROWD_TANK/contracts/CrowdTank.sol\":9051:9093  payable(msg.sender).transfer(totalfunding) */\n      0x08fc\n        /* \"CROWD_TANK/contracts/CrowdTank.sol\":9080:9092  totalfunding */\n      dup3\n        /* \"CROWD_TANK/contracts/CrowdTank.sol\":9051:9093  payable(msg.sender).transfer(totalfunding) */\n      swap1\n      dup2\n      iszero\n      mul\n      swap1\n      mload(0x40)\n      0x00\n      mload(0x40)\n      dup1\n      dup4\n      sub\n      dup2\n      dup6\n      dup9\n      dup9\n      call\n      swap4\n      pop\n      pop\n      pop\n      pop\n      iszero\n      dup1\n      iszero\n      tag_240\n      jumpi\n      returndatacopy(0x00, 0x00, returndatasize)\n      revert(0x00, returndatasize)\n    tag_240:\n      pop\n        /* \"CROWD_TANK/contracts/CrowdTank.sol\":9160:9170  _projectID */\n      dup3\n        /* \"CROWD_TANK/contracts/CrowdTank.sol\":9143:9194  creatorWithdrawn(_projectID, msg.sender, msg.value) */\n      0xcae030e1a3c6b0011e7009bd65734e2e1e330528f6983497631fabd47fa7a281\n        /* \"CROWD_TANK/contracts/CrowdTank.sol\":9172:9182  msg.sender */\n      caller\n        /* \"CROWD_TANK/contracts/CrowdTank.sol\":9184:9193  msg.value */\n      callvalue\n        /* \"CROWD_TANK/contracts/CrowdTank.sol\":9143:9194  creatorWithdrawn(_projectID, msg.sender, msg.value) */\n      mload(0x40)\n      tag_241\n      swap3\n      swap2\n      swap1\n      tag_176\n      jump\t// in\n    tag_241:\n      mload(0x40)\n      dup1\n      swap2\n      sub\n      swap1\n      log2\n        /* \"CROWD_TANK/contracts/CrowdTank.sol\":8660:9202  {... */\n      pop\n      pop\n        /* \"CROWD_TANK/contracts/CrowdTank.sol\":8601:9202  function creatorWithdraw(uint _projectID) external payable {... */\n      pop\n      jump\t// out\n        /* \"CROWD_TANK/contracts/CrowdTank.sol\":1092:1253  function Remove_Creators( address _creator ) external OnlyAdmin {... */\n    tag_86:\n        /* \"CROWD_TANK/contracts/CrowdTank.sol\":774:784  msg.sender */\n      caller\n        /* \"CROWD_TANK/contracts/CrowdTank.sol\":765:784  admin == msg.sender */\n      0xffffffffffffffffffffffffffffffffffffffff\n      and\n        /* \"CROWD_TANK/contracts/CrowdTank.sol\":765:770  admin */\n      0x03\n      0x00\n      swap1\n      sload\n      swap1\n      0x0100\n      exp\n      swap1\n      div\n      0xffffffffffffffffffffffffffffffffffffffff\n      and\n        /* \"CROWD_TANK/contracts/CrowdTank.sol\":765:784  admin == msg.sender */\n      0xffffffffffffffffffffffffffffffffffffffff\n      and\n      eq\n        /* \"CROWD_TANK/contracts/CrowdTank.sol\":757:811  require(admin == msg.sender , \"Only Admin can access\") */\n      tag_243\n      jumpi\n      mload(0x40)\n      0x08c379a000000000000000000000000000000000000000000000000000000000\n      dup2\n      mstore\n      0x04\n      add\n      tag_244\n      swap1\n      tag_245\n      jump\t// in\n    tag_244:\n      mload(0x40)\n      dup1\n      swap2\n      sub\n      swap1\n      revert\n    tag_243:\n        /* \"CROWD_TANK/contracts/CrowdTank.sol\":1198:1203  false */\n      0x00\n        /* \"CROWD_TANK/contracts/CrowdTank.sol\":1167:1185  AuthorizedCreators */\n      0x06\n        /* \"CROWD_TANK/contracts/CrowdTank.sol\":1167:1195  AuthorizedCreators[_creator] */\n      0x00\n        /* \"CROWD_TANK/contracts/CrowdTank.sol\":1186:1194  _creator */\n      dup4\n        /* \"CROWD_TANK/contracts/CrowdTank.sol\":1167:1195  AuthorizedCreators[_creator] */\n      0xffffffffffffffffffffffffffffffffffffffff\n      and\n      0xffffffffffffffffffffffffffffffffffffffff\n      and\n      dup2\n      mstore\n      0x20\n      add\n      swap1\n      dup2\n      mstore\n      0x20\n      add\n      0x00\n      keccak256\n      0x00\n        /* \"CROWD_TANK/contracts/CrowdTank.sol\":1167:1203  AuthorizedCreators[_creator] = false */\n      0x0100\n      exp\n      dup2\n      sload\n      dup2\n      0xff\n      mul\n      not\n      and\n      swap1\n      dup4\n      iszero\n      iszero\n      mul\n      or\n      swap1\n      sstore\n      pop\n        /* \"CROWD_TANK/contracts/CrowdTank.sol\":1236:1244  _creator */\n      dup1\n        /* \"CROWD_TANK/contracts/CrowdTank.sol\":1221:1245  removedCreator(_creator) */\n      0xffffffffffffffffffffffffffffffffffffffff\n      and\n      0x0925d0e195cc39b7ade3fd58fdf494022e37bfd6242c2be09c0b2863977c1879\n      mload(0x40)\n      mload(0x40)\n      dup1\n      swap2\n      sub\n      swap1\n      log2\n        /* \"CROWD_TANK/contracts/CrowdTank.sol\":1092:1253  function Remove_Creators( address _creator ) external OnlyAdmin {... */\n      pop\n      jump\t// out\n        /* \"CROWD_TANK/contracts/CrowdTank.sol\":865:916  mapping (address => bool) public AuthorizedCreators */\n    tag_90:\n      mstore(0x20, 0x06)\n      dup1\n      0x00\n      mstore\n      keccak256(0x00, 0x40)\n      0x00\n      swap2\n      pop\n      sload\n      swap1\n      0x0100\n      exp\n      swap1\n      div\n      0xff\n      and\n      dup2\n      jump\t// out\n        /* \"CROWD_TANK/contracts/CrowdTank.sol\":394:419  uint public TotalProjects */\n    tag_95:\n      sload(0x02)\n      dup2\n      jump\t// out\n        /* \"CROWD_TANK/contracts/CrowdTank.sol\":11257:12592  function userEarlyWithdraw( uint _projectID , uint withdrawn_amount) external payable {... */\n    tag_99:\n        /* \"CROWD_TANK/contracts/CrowdTank.sol\":11354:11377  project storage Project */\n      0x00\n        /* \"CROWD_TANK/contracts/CrowdTank.sol\":11380:11388  Projects */\n      0x08\n        /* \"CROWD_TANK/contracts/CrowdTank.sol\":11380:11400  Projects[_projectID] */\n      0x00\n        /* \"CROWD_TANK/contracts/CrowdTank.sol\":11389:11399  _projectID */\n      dup5\n        /* \"CROWD_TANK/contracts/CrowdTank.sol\":11380:11400  Projects[_projectID] */\n      dup2\n      mstore\n      0x20\n      add\n      swap1\n      dup2\n      mstore\n      0x20\n      add\n      0x00\n      keccak256\n        /* \"CROWD_TANK/contracts/CrowdTank.sol\":11354:11400  project storage Project = Projects[_projectID] */\n      swap1\n      pop\n        /* \"CROWD_TANK/contracts/CrowdTank.sol\":11437:11444  Project */\n      dup1\n        /* \"CROWD_TANK/contracts/CrowdTank.sol\":11437:11453  Project.deadline */\n      0x04\n      add\n      sload\n        /* \"CROWD_TANK/contracts/CrowdTank.sol\":11419:11434  block.timestamp */\n      timestamp\n        /* \"CROWD_TANK/contracts/CrowdTank.sol\":11419:11453  block.timestamp < Project.deadline */\n      lt\n        /* \"CROWD_TANK/contracts/CrowdTank.sol\":11411:11488  require(block.timestamp < Project.deadline, \"Cannot withdraw after deadline\") */\n      tag_248\n      jumpi\n      mload(0x40)\n      0x08c379a000000000000000000000000000000000000000000000000000000000\n      dup2\n      mstore\n      0x04\n      add\n      tag_249\n      swap1\n      tag_250\n      jump\t// in\n    tag_249:\n      mload(0x40)\n      dup1\n      swap2\n      sub\n      swap1\n      revert\n    tag_248:\n        /* \"CROWD_TANK/contracts/CrowdTank.sol\":11499:11522  uint contributed_amount */\n      0x00\n        /* \"CROWD_TANK/contracts/CrowdTank.sol\":11525:11538  Contributions */\n      0x09\n        /* \"CROWD_TANK/contracts/CrowdTank.sol\":11525:11550  Contributions[_projectID] */\n      0x00\n        /* \"CROWD_TANK/contracts/CrowdTank.sol\":11539:11549  _projectID */\n      dup6\n        /* \"CROWD_TANK/contracts/CrowdTank.sol\":11525:11550  Contributions[_projectID] */\n      dup2\n      mstore\n      0x20\n      add\n      swap1\n      dup2\n      mstore\n      0x20\n      add\n      0x00\n      keccak256\n        /* \"CROWD_TANK/contracts/CrowdTank.sol\":11525:11562  Contributions[_projectID][msg.sender] */\n      0x00\n        /* \"CROWD_TANK/contracts/CrowdTank.sol\":11551:11561  msg.sender */\n      caller\n        /* \"CROWD_TANK/contracts/CrowdTank.sol\":11525:11562  Contributions[_projectID][msg.sender] */\n      0xffffffffffffffffffffffffffffffffffffffff\n      and\n      0xffffffffffffffffffffffffffffffffffffffff\n      and\n      dup2\n      mstore\n      0x20\n      add\n      swap1\n      dup2\n      mstore\n      0x20\n      add\n      0x00\n      keccak256\n      sload\n        /* \"CROWD_TANK/contracts/CrowdTank.sol\":11499:11562  uint contributed_amount = Contributions[_projectID][msg.sender] */\n      swap1\n      pop\n        /* \"CROWD_TANK/contracts/CrowdTank.sol\":11602:11603  0 */\n      0x00\n        /* \"CROWD_TANK/contracts/CrowdTank.sol\":11581:11599  contributed_amount */\n      dup2\n        /* \"CROWD_TANK/contracts/CrowdTank.sol\":11581:11603  contributed_amount > 0 */\n      gt\n        /* \"CROWD_TANK/contracts/CrowdTank.sol\":11573:11631  require(contributed_amount > 0 , \"No Funds to withdraw!!\") */\n      tag_251\n      jumpi\n      mload(0x40)\n      0x08c379a000000000000000000000000000000000000000000000000000000000\n      dup2\n      mstore\n      0x04\n      add\n      tag_252\n      swap1\n      tag_253\n      jump\t// in\n    tag_252:\n      mload(0x40)\n      dup1\n      swap2\n      sub\n      swap1\n      revert\n    tag_251:\n        /* \"CROWD_TANK/contracts/CrowdTank.sol\":11670:11688  contributed_amount */\n      dup1\n        /* \"CROWD_TANK/contracts/CrowdTank.sol\":11650:11666  withdrawn_amount */\n      dup4\n        /* \"CROWD_TANK/contracts/CrowdTank.sol\":11650:11688  withdrawn_amount <= contributed_amount */\n      gt\n      iszero\n        /* \"CROWD_TANK/contracts/CrowdTank.sol\":11642:11735  require(withdrawn_amount <= contributed_amount , \"Withdraw amount exceeds your contribution\") */\n      tag_254\n      jumpi\n      mload(0x40)\n      0x08c379a000000000000000000000000000000000000000000000000000000000\n      dup2\n      mstore\n      0x04\n      add\n      tag_255\n      swap1\n      tag_256\n      jump\t// in\n    tag_255:\n      mload(0x40)\n      dup1\n      swap2\n      sub\n      swap1\n      revert\n    tag_254:\n        /* \"CROWD_TANK/contracts/CrowdTank.sol\":11748:11772  bool wasPreviouslyFunded */\n      0x00\n        /* \"CROWD_TANK/contracts/CrowdTank.sol\":11775:11782  Project */\n      dup3\n        /* \"CROWD_TANK/contracts/CrowdTank.sol\":11775:11789  Project.funded */\n      0x06\n      add\n      0x00\n      swap1\n      sload\n      swap1\n      0x0100\n      exp\n      swap1\n      div\n      0xff\n      and\n        /* \"CROWD_TANK/contracts/CrowdTank.sol\":11748:11789  bool wasPreviouslyFunded = Project.funded */\n      swap1\n      pop\n        /* \"CROWD_TANK/contracts/CrowdTank.sol\":11882:11898  withdrawn_amount */\n      dup4\n        /* \"CROWD_TANK/contracts/CrowdTank.sol\":11858:11865  Project */\n      dup4\n        /* \"CROWD_TANK/contracts/CrowdTank.sol\":11858:11878  Project.amountRaised */\n      0x05\n      add\n      0x00\n        /* \"CROWD_TANK/contracts/CrowdTank.sol\":11858:11898  Project.amountRaised -= withdrawn_amount */\n      dup3\n      dup3\n      sload\n      tag_257\n      swap2\n      swap1\n      tag_129\n      jump\t// in\n    tag_257:\n      swap3\n      pop\n      pop\n      dup2\n      swap1\n      sstore\n      pop\n        /* \"CROWD_TANK/contracts/CrowdTank.sol\":11950:11966  withdrawn_amount */\n      dup4\n        /* \"CROWD_TANK/contracts/CrowdTank.sol\":11909:11922  Contributions */\n      0x09\n        /* \"CROWD_TANK/contracts/CrowdTank.sol\":11909:11934  Contributions[_projectID] */\n      0x00\n        /* \"CROWD_TANK/contracts/CrowdTank.sol\":11923:11933  _projectID */\n      dup8\n        /* \"CROWD_TANK/contracts/CrowdTank.sol\":11909:11934  Contributions[_projectID] */\n      dup2\n      mstore\n      0x20\n      add\n      swap1\n      dup2\n      mstore\n      0x20\n      add\n      0x00\n      keccak256\n        /* \"CROWD_TANK/contracts/CrowdTank.sol\":11909:11946  Contributions[_projectID][msg.sender] */\n      0x00\n        /* \"CROWD_TANK/contracts/CrowdTank.sol\":11935:11945  msg.sender */\n      caller\n        /* \"CROWD_TANK/contracts/CrowdTank.sol\":11909:11946  Contributions[_projectID][msg.sender] */\n      0xffffffffffffffffffffffffffffffffffffffff\n      and\n      0xffffffffffffffffffffffffffffffffffffffff\n      and\n      dup2\n      mstore\n      0x20\n      add\n      swap1\n      dup2\n      mstore\n      0x20\n      add\n      0x00\n      keccak256\n      0x00\n        /* \"CROWD_TANK/contracts/CrowdTank.sol\":11909:11966  Contributions[_projectID][msg.sender] -= withdrawn_amount */\n      dup3\n      dup3\n      sload\n      tag_258\n      swap2\n      swap1\n      tag_129\n      jump\t// in\n    tag_258:\n      swap3\n      pop\n      pop\n      dup2\n      swap1\n      sstore\n      pop\n        /* \"CROWD_TANK/contracts/CrowdTank.sol\":11999:12015  withdrawn_amount */\n      dup4\n        /* \"CROWD_TANK/contracts/CrowdTank.sol\":11977:11995  TotalRaisedFunding */\n      0x01\n      0x00\n        /* \"CROWD_TANK/contracts/CrowdTank.sol\":11977:12015  TotalRaisedFunding -= withdrawn_amount */\n      dup3\n      dup3\n      sload\n      tag_259\n      swap2\n      swap1\n      tag_129\n      jump\t// in\n    tag_259:\n      swap3\n      pop\n      pop\n      dup2\n      swap1\n      sstore\n      pop\n        /* \"CROWD_TANK/contracts/CrowdTank.sol\":12032:12051  wasPreviouslyFunded */\n      dup1\n        /* \"CROWD_TANK/contracts/CrowdTank.sol\":12032:12097  wasPreviouslyFunded && Project.amountRaised < Project.fundingGoal */\n      dup1\n      iszero\n      tag_260\n      jumpi\n      pop\n        /* \"CROWD_TANK/contracts/CrowdTank.sol\":12078:12085  Project */\n      dup3\n        /* \"CROWD_TANK/contracts/CrowdTank.sol\":12078:12097  Project.fundingGoal */\n      0x03\n      add\n      sload\n        /* \"CROWD_TANK/contracts/CrowdTank.sol\":12055:12062  Project */\n      dup4\n        /* \"CROWD_TANK/contracts/CrowdTank.sol\":12055:12075  Project.amountRaised */\n      0x05\n      add\n      sload\n        /* \"CROWD_TANK/contracts/CrowdTank.sol\":12055:12097  Project.amountRaised < Project.fundingGoal */\n      lt\n        /* \"CROWD_TANK/contracts/CrowdTank.sol\":12032:12097  wasPreviouslyFunded && Project.amountRaised < Project.fundingGoal */\n    tag_260:\n        /* \"CROWD_TANK/contracts/CrowdTank.sol\":12028:12343  if (wasPreviouslyFunded && Project.amountRaised < Project.fundingGoal) {... */\n      iszero\n      tag_261\n      jumpi\n        /* \"CROWD_TANK/contracts/CrowdTank.sol\":12131:12136  false */\n      0x00\n        /* \"CROWD_TANK/contracts/CrowdTank.sol\":12114:12121  Project */\n      dup4\n        /* \"CROWD_TANK/contracts/CrowdTank.sol\":12114:12128  Project.funded */\n      0x06\n      add\n      0x00\n        /* \"CROWD_TANK/contracts/CrowdTank.sol\":12114:12136  Project.funded = false */\n      0x0100\n      exp\n      dup2\n      sload\n      dup2\n      0xff\n      mul\n      not\n      and\n      swap1\n      dup4\n      iszero\n      iszero\n      mul\n      or\n      swap1\n      sstore\n      pop\n        /* \"CROWD_TANK/contracts/CrowdTank.sol\":12178:12183  false */\n      0x00\n        /* \"CROWD_TANK/contracts/CrowdTank.sol\":12151:12158  Project */\n      dup4\n        /* \"CROWD_TANK/contracts/CrowdTank.sol\":12151:12175  Project.status_processed */\n      0x08\n      add\n      0x01\n        /* \"CROWD_TANK/contracts/CrowdTank.sol\":12151:12183  Project.status_processed = false */\n      0x0100\n      exp\n      dup2\n      sload\n      dup2\n      0xff\n      mul\n      not\n      and\n      swap1\n      dup4\n      iszero\n      iszero\n      mul\n      or\n      swap1\n      sstore\n      pop\n        /* \"CROWD_TANK/contracts/CrowdTank.sol\":12266:12267  0 */\n      0x00\n        /* \"CROWD_TANK/contracts/CrowdTank.sol\":12237:12263  Successful_Funded_Projects */\n      sload(0x04)\n        /* \"CROWD_TANK/contracts/CrowdTank.sol\":12237:12267  Successful_Funded_Projects > 0 */\n      gt\n        /* \"CROWD_TANK/contracts/CrowdTank.sol\":12233:12332  if (Successful_Funded_Projects > 0) {... */\n      iszero\n      tag_262\n      jumpi\n        /* \"CROWD_TANK/contracts/CrowdTank.sol\":12288:12314  Successful_Funded_Projects */\n      0x04\n      0x00\n        /* \"CROWD_TANK/contracts/CrowdTank.sol\":12288:12316  Successful_Funded_Projects-- */\n      dup2\n      sload\n      dup1\n      swap3\n      swap2\n      swap1\n      tag_263\n      swap1\n      tag_166\n      jump\t// in\n    tag_263:\n      swap2\n      swap1\n      pop\n      sstore\n      pop\n        /* \"CROWD_TANK/contracts/CrowdTank.sol\":12233:12332  if (Successful_Funded_Projects > 0) {... */\n    tag_262:\n        /* \"CROWD_TANK/contracts/CrowdTank.sol\":12028:12343  if (wasPreviouslyFunded && Project.amountRaised < Project.fundingGoal) {... */\n    tag_261:\n        /* \"CROWD_TANK/contracts/CrowdTank.sol\":12390:12399  bool sent */\n      0x00\n        /* \"CROWD_TANK/contracts/CrowdTank.sol\":12413:12423  msg.sender */\n      caller\n        /* \"CROWD_TANK/contracts/CrowdTank.sol\":12405:12429  payable(msg.sender).call */\n      0xffffffffffffffffffffffffffffffffffffffff\n      and\n        /* \"CROWD_TANK/contracts/CrowdTank.sol\":12438:12454  withdrawn_amount */\n      dup6\n        /* \"CROWD_TANK/contracts/CrowdTank.sol\":12405:12459  payable(msg.sender).call{value : withdrawn_amount}(\"\") */\n      mload(0x40)\n      tag_264\n      swap1\n      tag_168\n      jump\t// in\n    tag_264:\n      0x00\n      mload(0x40)\n      dup1\n      dup4\n      sub\n      dup2\n      dup6\n      dup8\n      gas\n      call\n      swap3\n      pop\n      pop\n      pop\n      returndatasize\n      dup1\n      0x00\n      dup2\n      eq\n      tag_267\n      jumpi\n      mload(0x40)\n      swap2\n      pop\n      and(add(returndatasize, 0x3f), not(0x1f))\n      dup3\n      add\n      0x40\n      mstore\n      returndatasize\n      dup3\n      mstore\n      returndatasize\n      0x00\n      0x20\n      dup5\n      add\n      returndatacopy\n      jump(tag_266)\n    tag_267:\n      0x60\n      swap2\n      pop\n    tag_266:\n      pop\n        /* \"CROWD_TANK/contracts/CrowdTank.sol\":12389:12459  (bool sent, ) = payable(msg.sender).call{value : withdrawn_amount}(\"\") */\n      pop\n      swap1\n      pop\n        /* \"CROWD_TANK/contracts/CrowdTank.sol\":12478:12482  sent */\n      dup1\n        /* \"CROWD_TANK/contracts/CrowdTank.sol\":12470:12507  require(sent , \"withdraw failed!!!!\") */\n      tag_268\n      jumpi\n      mload(0x40)\n      0x08c379a000000000000000000000000000000000000000000000000000000000\n      dup2\n      mstore\n      0x04\n      add\n      tag_269\n      swap1\n      tag_270\n      jump\t// in\n    tag_269:\n      mload(0x40)\n      dup1\n      swap2\n      sub\n      swap1\n      revert\n    tag_268:\n        /* \"CROWD_TANK/contracts/CrowdTank.sol\":12555:12565  _projectID */\n      dup6\n        /* \"CROWD_TANK/contracts/CrowdTank.sol\":12543:12553  msg.sender */\n      caller\n        /* \"CROWD_TANK/contracts/CrowdTank.sol\":12525:12584  UserEarlyWithdraw(msg.sender, _projectID, withdrawn_amount) */\n      0xffffffffffffffffffffffffffffffffffffffff\n      and\n      0xb37480540ffb97ff520a59b38ea1a83aefbfd3d2a956d958a00214b8b6551f28\n        /* \"CROWD_TANK/contracts/CrowdTank.sol\":12567:12583  withdrawn_amount */\n      dup8\n        /* \"CROWD_TANK/contracts/CrowdTank.sol\":12525:12584  UserEarlyWithdraw(msg.sender, _projectID, withdrawn_amount) */\n      mload(0x40)\n      tag_271\n      swap2\n      swap1\n      tag_49\n      jump\t// in\n    tag_271:\n      mload(0x40)\n      dup1\n      swap2\n      sub\n      swap1\n      log3\n        /* \"CROWD_TANK/contracts/CrowdTank.sol\":11343:12592  {... */\n      pop\n      pop\n      pop\n      pop\n        /* \"CROWD_TANK/contracts/CrowdTank.sol\":11257:12592  function userEarlyWithdraw( uint _projectID , uint withdrawn_amount) external payable {... */\n      pop\n      pop\n      jump\t// out\n        /* \"CROWD_TANK/contracts/CrowdTank.sol\":5579:6437  function UpdateProjectStatus() public {... */\n    tag_102:\n        /* \"CROWD_TANK/contracts/CrowdTank.sol\":5637:5643  uint i */\n      0x00\n        /* \"CROWD_TANK/contracts/CrowdTank.sol\":5646:5647  0 */\n      0x00\n        /* \"CROWD_TANK/contracts/CrowdTank.sol\":5637:5647  uint i = 0 */\n      swap1\n      pop\n        /* \"CROWD_TANK/contracts/CrowdTank.sol\":5632:6426  for (uint i = 0; i < projectIDs.length; i++) {... */\n    tag_273:\n        /* \"CROWD_TANK/contracts/CrowdTank.sol\":5653:5663  projectIDs */\n      0x0b\n        /* \"CROWD_TANK/contracts/CrowdTank.sol\":5653:5670  projectIDs.length */\n      dup1\n      sload\n      swap1\n      pop\n        /* \"CROWD_TANK/contracts/CrowdTank.sol\":5649:5650  i */\n      dup2\n        /* \"CROWD_TANK/contracts/CrowdTank.sol\":5649:5670  i < projectIDs.length */\n      lt\n        /* \"CROWD_TANK/contracts/CrowdTank.sol\":5632:6426  for (uint i = 0; i < projectIDs.length; i++) {... */\n      iszero\n      tag_274\n      jumpi\n        /* \"CROWD_TANK/contracts/CrowdTank.sol\":5696:5710  uint projectID */\n      0x00\n        /* \"CROWD_TANK/contracts/CrowdTank.sol\":5713:5723  projectIDs */\n      0x0b\n        /* \"CROWD_TANK/contracts/CrowdTank.sol\":5724:5725  i */\n      dup3\n        /* \"CROWD_TANK/contracts/CrowdTank.sol\":5713:5726  projectIDs[i] */\n      dup2\n      sload\n      dup2\n      lt\n      tag_276\n      jumpi\n      tag_277\n      tag_278\n      jump\t// in\n    tag_277:\n    tag_276:\n      swap1\n      0x00\n      mstore\n      keccak256(0x00, 0x20)\n      add\n      sload\n        /* \"CROWD_TANK/contracts/CrowdTank.sol\":5696:5726  uint projectID = projectIDs[i] */\n      swap1\n      pop\n        /* \"CROWD_TANK/contracts/CrowdTank.sol\":5745:5768  project storage Project */\n      0x00\n        /* \"CROWD_TANK/contracts/CrowdTank.sol\":5771:5779  Projects */\n      0x08\n        /* \"CROWD_TANK/contracts/CrowdTank.sol\":5771:5790  Projects[projectID] */\n      0x00\n        /* \"CROWD_TANK/contracts/CrowdTank.sol\":5780:5789  projectID */\n      dup4\n        /* \"CROWD_TANK/contracts/CrowdTank.sol\":5771:5790  Projects[projectID] */\n      dup2\n      mstore\n      0x20\n      add\n      swap1\n      dup2\n      mstore\n      0x20\n      add\n      0x00\n      keccak256\n        /* \"CROWD_TANK/contracts/CrowdTank.sol\":5745:5790  project storage Project = Projects[projectID] */\n      swap1\n      pop\n        /* \"CROWD_TANK/contracts/CrowdTank.sol\":5814:5821  Project */\n      dup1\n        /* \"CROWD_TANK/contracts/CrowdTank.sol\":5814:5838  Project.status_processed */\n      0x08\n      add\n      0x01\n      swap1\n      sload\n      swap1\n      0x0100\n      exp\n      swap1\n      div\n      0xff\n      and\n        /* \"CROWD_TANK/contracts/CrowdTank.sol\":5813:5838  !Project.status_processed */\n      iszero\n        /* \"CROWD_TANK/contracts/CrowdTank.sol\":5813:5877  !Project.status_processed && block.timestamp >= Project.deadline */\n      dup1\n      iszero\n      tag_280\n      jumpi\n      pop\n        /* \"CROWD_TANK/contracts/CrowdTank.sol\":5861:5868  Project */\n      dup1\n        /* \"CROWD_TANK/contracts/CrowdTank.sol\":5861:5877  Project.deadline */\n      0x04\n      add\n      sload\n        /* \"CROWD_TANK/contracts/CrowdTank.sol\":5842:5857  block.timestamp */\n      timestamp\n        /* \"CROWD_TANK/contracts/CrowdTank.sol\":5842:5877  block.timestamp >= Project.deadline */\n      lt\n      iszero\n        /* \"CROWD_TANK/contracts/CrowdTank.sol\":5813:5877  !Project.status_processed && block.timestamp >= Project.deadline */\n    tag_280:\n        /* \"CROWD_TANK/contracts/CrowdTank.sol\":5809:6411  if (!Project.status_processed && block.timestamp >= Project.deadline) {... */\n      iszero\n      tag_281\n      jumpi\n        /* \"CROWD_TANK/contracts/CrowdTank.sol\":5929:5933  true */\n      0x01\n        /* \"CROWD_TANK/contracts/CrowdTank.sol\":5902:5909  Project */\n      dup2\n        /* \"CROWD_TANK/contracts/CrowdTank.sol\":5902:5926  Project.status_processed */\n      0x08\n      add\n      0x01\n        /* \"CROWD_TANK/contracts/CrowdTank.sol\":5902:5933  Project.status_processed = true */\n      0x0100\n      exp\n      dup2\n      sload\n      dup2\n      0xff\n      mul\n      not\n      and\n      swap1\n      dup4\n      iszero\n      iszero\n      mul\n      or\n      swap1\n      sstore\n      pop\n        /* \"CROWD_TANK/contracts/CrowdTank.sol\":5984:5991  Project */\n      dup1\n        /* \"CROWD_TANK/contracts/CrowdTank.sol\":5984:6003  Project.fundingGoal */\n      0x03\n      add\n      sload\n        /* \"CROWD_TANK/contracts/CrowdTank.sol\":5960:5967  Project */\n      dup2\n        /* \"CROWD_TANK/contracts/CrowdTank.sol\":5960:5980  Project.amountRaised */\n      0x05\n      add\n      sload\n        /* \"CROWD_TANK/contracts/CrowdTank.sol\":5960:6003  Project.amountRaised >= Project.fundingGoal */\n      lt\n      iszero\n        /* \"CROWD_TANK/contracts/CrowdTank.sol\":5960:6042  Project.amountRaised >= Project.fundingGoal && block.timestamp >= Project.deadline */\n      dup1\n      iszero\n      tag_282\n      jumpi\n      pop\n        /* \"CROWD_TANK/contracts/CrowdTank.sol\":6026:6033  Project */\n      dup1\n        /* \"CROWD_TANK/contracts/CrowdTank.sol\":6026:6042  Project.deadline */\n      0x04\n      add\n      sload\n        /* \"CROWD_TANK/contracts/CrowdTank.sol\":6007:6022  block.timestamp */\n      timestamp\n        /* \"CROWD_TANK/contracts/CrowdTank.sol\":6007:6042  block.timestamp >= Project.deadline */\n      lt\n      iszero\n        /* \"CROWD_TANK/contracts/CrowdTank.sol\":5960:6042  Project.amountRaised >= Project.fundingGoal && block.timestamp >= Project.deadline */\n    tag_282:\n        /* \"CROWD_TANK/contracts/CrowdTank.sol\":5956:6392  if (Project.amountRaised >= Project.fundingGoal && block.timestamp >= Project.deadline) {... */\n      iszero\n      tag_283\n      jumpi\n        /* \"CROWD_TANK/contracts/CrowdTank.sol\":6076:6083  Project */\n      dup1\n        /* \"CROWD_TANK/contracts/CrowdTank.sol\":6076:6090  Project.funded */\n      0x06\n      add\n      0x00\n      swap1\n      sload\n      swap1\n      0x0100\n      exp\n      swap1\n      div\n      0xff\n      and\n        /* \"CROWD_TANK/contracts/CrowdTank.sol\":6071:6231  if (!Project.funded) {... */\n      tag_284\n      jumpi\n        /* \"CROWD_TANK/contracts/CrowdTank.sol\":6140:6144  true */\n      0x01\n        /* \"CROWD_TANK/contracts/CrowdTank.sol\":6123:6130  Project */\n      dup2\n        /* \"CROWD_TANK/contracts/CrowdTank.sol\":6123:6137  Project.funded */\n      0x06\n      add\n      0x00\n        /* \"CROWD_TANK/contracts/CrowdTank.sol\":6123:6144  Project.funded = true */\n      0x0100\n      exp\n      dup2\n      sload\n      dup2\n      0xff\n      mul\n      not\n      and\n      swap1\n      dup4\n      iszero\n      iszero\n      mul\n      or\n      swap1\n      sstore\n      pop\n        /* \"CROWD_TANK/contracts/CrowdTank.sol\":6175:6201  Successful_Funded_Projects */\n      0x04\n      0x00\n        /* \"CROWD_TANK/contracts/CrowdTank.sol\":6175:6203  Successful_Funded_Projects++ */\n      dup2\n      sload\n      dup1\n      swap3\n      swap2\n      swap1\n      tag_285\n      swap1\n      tag_226\n      jump\t// in\n    tag_285:\n      swap2\n      swap1\n      pop\n      sstore\n      pop\n        /* \"CROWD_TANK/contracts/CrowdTank.sol\":6071:6231  if (!Project.funded) {... */\n    tag_284:\n        /* \"CROWD_TANK/contracts/CrowdTank.sol\":5956:6392  if (Project.amountRaised >= Project.fundingGoal && block.timestamp >= Project.deadline) {... */\n      jump(tag_286)\n    tag_283:\n        /* \"CROWD_TANK/contracts/CrowdTank.sol\":6313:6317  true */\n      0x01\n        /* \"CROWD_TANK/contracts/CrowdTank.sol\":6287:6294  Project */\n      dup2\n        /* \"CROWD_TANK/contracts/CrowdTank.sol\":6287:6310  Project.failed_projects */\n      0x08\n      add\n      0x00\n        /* \"CROWD_TANK/contracts/CrowdTank.sol\":6287:6317  Project.failed_projects = true */\n      0x0100\n      exp\n      dup2\n      sload\n      dup2\n      0xff\n      mul\n      not\n      and\n      swap1\n      dup4\n      iszero\n      iszero\n      mul\n      or\n      swap1\n      sstore\n      pop\n        /* \"CROWD_TANK/contracts/CrowdTank.sol\":6344:6366  Failed_Funded_Projects */\n      0x05\n      0x00\n        /* \"CROWD_TANK/contracts/CrowdTank.sol\":6344:6368  Failed_Funded_Projects++ */\n      dup2\n      sload\n      dup1\n      swap3\n      swap2\n      swap1\n      tag_287\n      swap1\n      tag_226\n      jump\t// in\n    tag_287:\n      swap2\n      swap1\n      pop\n      sstore\n      pop\n        /* \"CROWD_TANK/contracts/CrowdTank.sol\":5956:6392  if (Project.amountRaised >= Project.fundingGoal && block.timestamp >= Project.deadline) {... */\n    tag_286:\n        /* \"CROWD_TANK/contracts/CrowdTank.sol\":5809:6411  if (!Project.status_processed && block.timestamp >= Project.deadline) {... */\n    tag_281:\n        /* \"CROWD_TANK/contracts/CrowdTank.sol\":5677:6426  {... */\n      pop\n      pop\n        /* \"CROWD_TANK/contracts/CrowdTank.sol\":5672:5675  i++ */\n      dup1\n      dup1\n      0x01\n      add\n      swap2\n      pop\n      pop\n        /* \"CROWD_TANK/contracts/CrowdTank.sol\":5632:6426  for (uint i = 0; i < projectIDs.length; i++) {... */\n      jump(tag_273)\n    tag_274:\n      pop\n        /* \"CROWD_TANK/contracts/CrowdTank.sol\":5579:6437  function UpdateProjectStatus() public {... */\n      jump\t// out\n        /* \"CROWD_TANK/contracts/CrowdTank.sol\":2656:3628  function createProject(string memory _name , string memory _description , uint _fundingGoal , uint _durationSeconds , uint _id) external {... */\n    tag_107:\n        /* \"CROWD_TANK/contracts/CrowdTank.sol\":2813:2821  isIdUsed */\n      0x0a\n        /* \"CROWD_TANK/contracts/CrowdTank.sol\":2813:2826  isIdUsed[_id] */\n      0x00\n        /* \"CROWD_TANK/contracts/CrowdTank.sol\":2822:2825  _id */\n      dup3\n        /* \"CROWD_TANK/contracts/CrowdTank.sol\":2813:2826  isIdUsed[_id] */\n      dup2\n      mstore\n      0x20\n      add\n      swap1\n      dup2\n      mstore\n      0x20\n      add\n      0x00\n      keccak256\n      0x00\n      swap1\n      sload\n      swap1\n      0x0100\n      exp\n      swap1\n      div\n      0xff\n      and\n        /* \"CROWD_TANK/contracts/CrowdTank.sol\":2812:2826  !isIdUsed[_id] */\n      iszero\n        /* \"CROWD_TANK/contracts/CrowdTank.sol\":2804:2861  require(!isIdUsed[_id], \"Project ID is already in use!\" ) */\n      tag_289\n      jumpi\n      mload(0x40)\n      0x08c379a000000000000000000000000000000000000000000000000000000000\n      dup2\n      mstore\n      0x04\n      add\n      tag_290\n      swap1\n      tag_291\n      jump\t// in\n    tag_290:\n      mload(0x40)\n      dup1\n      swap2\n      sub\n      swap1\n      revert\n    tag_289:\n        /* \"CROWD_TANK/contracts/CrowdTank.sol\":2880:2898  AuthorizedCreators */\n      0x06\n        /* \"CROWD_TANK/contracts/CrowdTank.sol\":2880:2910  AuthorizedCreators[msg.sender] */\n      0x00\n        /* \"CROWD_TANK/contracts/CrowdTank.sol\":2899:2909  msg.sender */\n      caller\n        /* \"CROWD_TANK/contracts/CrowdTank.sol\":2880:2910  AuthorizedCreators[msg.sender] */\n      0xffffffffffffffffffffffffffffffffffffffff\n      and\n      0xffffffffffffffffffffffffffffffffffffffff\n      and\n      dup2\n      mstore\n      0x20\n      add\n      swap1\n      dup2\n      mstore\n      0x20\n      add\n      0x00\n      keccak256\n      0x00\n      swap1\n      sload\n      swap1\n      0x0100\n      exp\n      swap1\n      div\n      0xff\n      and\n        /* \"CROWD_TANK/contracts/CrowdTank.sol\":2872:2953  require(AuthorizedCreators[msg.sender] , \"Only Authorized creators can access!!\") */\n      tag_292\n      jumpi\n      mload(0x40)\n      0x08c379a000000000000000000000000000000000000000000000000000000000\n      dup2\n      mstore\n      0x04\n      add\n      tag_293\n      swap1\n      tag_294\n      jump\t// in\n    tag_293:\n      mload(0x40)\n      dup1\n      swap2\n      sub\n      swap1\n      revert\n    tag_292:\n        /* \"CROWD_TANK/contracts/CrowdTank.sol\":2980:2984  true */\n      0x01\n        /* \"CROWD_TANK/contracts/CrowdTank.sol\":2964:2972  isIdUsed */\n      0x0a\n        /* \"CROWD_TANK/contracts/CrowdTank.sol\":2964:2977  isIdUsed[_id] */\n      0x00\n        /* \"CROWD_TANK/contracts/CrowdTank.sol\":2973:2976  _id */\n      dup4\n        /* \"CROWD_TANK/contracts/CrowdTank.sol\":2964:2977  isIdUsed[_id] */\n      dup2\n      mstore\n      0x20\n      add\n      swap1\n      dup2\n      mstore\n      0x20\n      add\n      0x00\n      keccak256\n      0x00\n        /* \"CROWD_TANK/contracts/CrowdTank.sol\":2964:2984  isIdUsed[_id] = true */\n      0x0100\n      exp\n      dup2\n      sload\n      dup2\n      0xff\n      mul\n      not\n      and\n      swap1\n      dup4\n      iszero\n      iszero\n      mul\n      or\n      swap1\n      sstore\n      pop\n        /* \"CROWD_TANK/contracts/CrowdTank.sol\":3011:3442  project({... */\n      mload(0x40)\n      dup1\n      0x0160\n      add\n      0x40\n      mstore\n      dup1\n        /* \"CROWD_TANK/contracts/CrowdTank.sol\":3044:3054  msg.sender */\n      caller\n        /* \"CROWD_TANK/contracts/CrowdTank.sol\":3011:3442  project({... */\n      0xffffffffffffffffffffffffffffffffffffffff\n      and\n      dup2\n      mstore\n      0x20\n      add\n        /* \"CROWD_TANK/contracts/CrowdTank.sol\":3075:3080  _name */\n      dup7\n        /* \"CROWD_TANK/contracts/CrowdTank.sol\":3011:3442  project({... */\n      dup2\n      mstore\n      0x20\n      add\n        /* \"CROWD_TANK/contracts/CrowdTank.sol\":3108:3120  _description */\n      dup6\n        /* \"CROWD_TANK/contracts/CrowdTank.sol\":3011:3442  project({... */\n      dup2\n      mstore\n      0x20\n      add\n        /* \"CROWD_TANK/contracts/CrowdTank.sol\":3148:3160  _fundingGoal */\n      dup5\n        /* \"CROWD_TANK/contracts/CrowdTank.sol\":3011:3442  project({... */\n      dup2\n      mstore\n      0x20\n      add\n        /* \"CROWD_TANK/contracts/CrowdTank.sol\":3203:3219  _durationSeconds */\n      dup4\n        /* \"CROWD_TANK/contracts/CrowdTank.sol\":3185:3200  block.timestamp */\n      timestamp\n        /* \"CROWD_TANK/contracts/CrowdTank.sol\":3185:3219  block.timestamp + _durationSeconds */\n      tag_295\n      swap2\n      swap1\n      tag_189\n      jump\t// in\n    tag_295:\n        /* \"CROWD_TANK/contracts/CrowdTank.sol\":3011:3442  project({... */\n      dup2\n      mstore\n      0x20\n      add\n        /* \"CROWD_TANK/contracts/CrowdTank.sol\":3248:3249  0 */\n      0x00\n        /* \"CROWD_TANK/contracts/CrowdTank.sol\":3011:3442  project({... */\n      dup2\n      mstore\n      0x20\n      add\n        /* \"CROWD_TANK/contracts/CrowdTank.sol\":3272:3277  false */\n      0x00\n        /* \"CROWD_TANK/contracts/CrowdTank.sol\":3011:3442  project({... */\n      iszero\n      iszero\n      dup2\n      mstore\n      0x20\n      add\n        /* \"CROWD_TANK/contracts/CrowdTank.sol\":3316:3317  0 */\n      0x00\n        /* \"CROWD_TANK/contracts/CrowdTank.sol\":3011:3442  project({... */\n      0xffffffffffffffffffffffffffffffffffffffff\n      and\n      dup2\n      mstore\n      0x20\n      add\n        /* \"CROWD_TANK/contracts/CrowdTank.sol\":3354:3355  0 */\n      0x00\n        /* \"CROWD_TANK/contracts/CrowdTank.sol\":3011:3442  project({... */\n      dup2\n      mstore\n      0x20\n      add\n        /* \"CROWD_TANK/contracts/CrowdTank.sol\":3387:3392  false */\n      0x00\n        /* \"CROWD_TANK/contracts/CrowdTank.sol\":3011:3442  project({... */\n      iszero\n      iszero\n      dup2\n      mstore\n      0x20\n      add\n        /* \"CROWD_TANK/contracts/CrowdTank.sol\":3425:3430  false */\n      0x00\n        /* \"CROWD_TANK/contracts/CrowdTank.sol\":3011:3442  project({... */\n      iszero\n      iszero\n      dup2\n      mstore\n      pop\n        /* \"CROWD_TANK/contracts/CrowdTank.sol\":2995:3003  Projects */\n      0x08\n        /* \"CROWD_TANK/contracts/CrowdTank.sol\":2995:3008  Projects[_id] */\n      0x00\n        /* \"CROWD_TANK/contracts/CrowdTank.sol\":3004:3007  _id */\n      dup4\n        /* \"CROWD_TANK/contracts/CrowdTank.sol\":2995:3008  Projects[_id] */\n      dup2\n      mstore\n      0x20\n      add\n      swap1\n      dup2\n      mstore\n      0x20\n      add\n      0x00\n      keccak256\n        /* \"CROWD_TANK/contracts/CrowdTank.sol\":2995:3442  Projects[_id] = project({... */\n      0x00\n      dup3\n      add\n      mload\n      dup2\n      0x00\n      add\n      exp(0x0100, 0x00)\n      dup2\n      sload\n      dup2\n      0xffffffffffffffffffffffffffffffffffffffff\n      mul\n      not\n      and\n      swap1\n      dup4\n      0xffffffffffffffffffffffffffffffffffffffff\n      and\n      mul\n      or\n      swap1\n      sstore\n      pop\n      0x20\n      dup3\n      add\n      mload\n      dup2\n      0x01\n      add\n      swap1\n      dup2\n      tag_296\n      swap2\n      swap1\n      tag_297\n      jump\t// in\n    tag_296:\n      pop\n      0x40\n      dup3\n      add\n      mload\n      dup2\n      0x02\n      add\n      swap1\n      dup2\n      tag_298\n      swap2\n      swap1\n      tag_297\n      jump\t// in\n    tag_298:\n      pop\n      0x60\n      dup3\n      add\n      mload\n      dup2\n      0x03\n      add\n      sstore\n      0x80\n      dup3\n      add\n      mload\n      dup2\n      0x04\n      add\n      sstore\n      0xa0\n      dup3\n      add\n      mload\n      dup2\n      0x05\n      add\n      sstore\n      0xc0\n      dup3\n      add\n      mload\n      dup2\n      0x06\n      add\n      exp(0x0100, 0x00)\n      dup2\n      sload\n      dup2\n      0xff\n      mul\n      not\n      and\n      swap1\n      dup4\n      iszero\n      iszero\n      mul\n      or\n      swap1\n      sstore\n      pop\n      0xe0\n      dup3\n      add\n      mload\n      dup2\n      0x06\n      add\n      exp(0x0100, 0x01)\n      dup2\n      sload\n      dup2\n      0xffffffffffffffffffffffffffffffffffffffff\n      mul\n      not\n      and\n      swap1\n      dup4\n      0xffffffffffffffffffffffffffffffffffffffff\n      and\n      mul\n      or\n      swap1\n      sstore\n      pop\n      0x0100\n      dup3\n      add\n      mload\n      dup2\n      0x07\n      add\n      sstore\n      0x0120\n      dup3\n      add\n      mload\n      dup2\n      0x08\n      add\n      exp(0x0100, 0x00)\n      dup2\n      sload\n      dup2\n      0xff\n      mul\n      not\n      and\n      swap1\n      dup4\n      iszero\n      iszero\n      mul\n      or\n      swap1\n      sstore\n      pop\n      0x0140\n      dup3\n      add\n      mload\n      dup2\n      0x08\n      add\n      exp(0x0100, 0x01)\n      dup2\n      sload\n      dup2\n      0xff\n      mul\n      not\n      and\n      swap1\n      dup4\n      iszero\n      iszero\n      mul\n      or\n      swap1\n      sstore\n      pop\n      swap1\n      pop\n      pop\n        /* \"CROWD_TANK/contracts/CrowdTank.sol\":3453:3466  TotalProjects */\n      0x02\n      0x00\n        /* \"CROWD_TANK/contracts/CrowdTank.sol\":3453:3468  TotalProjects++ */\n      dup2\n      sload\n      dup1\n      swap3\n      swap2\n      swap1\n      tag_299\n      swap1\n      tag_226\n      jump\t// in\n    tag_299:\n      swap2\n      swap1\n      pop\n      sstore\n      pop\n        /* \"CROWD_TANK/contracts/CrowdTank.sol\":3479:3489  projectIDs */\n      0x0b\n        /* \"CROWD_TANK/contracts/CrowdTank.sol\":3495:3498  _id */\n      dup2\n        /* \"CROWD_TANK/contracts/CrowdTank.sol\":3479:3499  projectIDs.push(_id) */\n      swap1\n      dup1\n      0x01\n      dup2\n      sload\n      add\n      dup1\n      dup3\n      sstore\n      dup1\n      swap2\n      pop\n      pop\n      0x01\n      swap1\n      sub\n      swap1\n      0x00\n      mstore\n      keccak256(0x00, 0x20)\n      add\n      0x00\n      swap1\n      swap2\n      swap1\n      swap2\n      swap1\n      swap2\n      pop\n      sstore\n        /* \"CROWD_TANK/contracts/CrowdTank.sol\":3536:3546  msg.sender */\n      caller\n        /* \"CROWD_TANK/contracts/CrowdTank.sol\":3515:3620  ProjectCreated(_id , msg.sender , _name , _description , _fundingGoal , block.timestamp+_durationSeconds) */\n      0xffffffffffffffffffffffffffffffffffffffff\n      and\n        /* \"CROWD_TANK/contracts/CrowdTank.sol\":3530:3533  _id */\n      dup2\n        /* \"CROWD_TANK/contracts/CrowdTank.sol\":3515:3620  ProjectCreated(_id , msg.sender , _name , _description , _fundingGoal , block.timestamp+_durationSeconds) */\n      0xac9b83534845c9e785a6ea70f2d809db1d72ef9a1d981753712d922f5cb55f39\n        /* \"CROWD_TANK/contracts/CrowdTank.sol\":3549:3554  _name */\n      dup8\n        /* \"CROWD_TANK/contracts/CrowdTank.sol\":3557:3569  _description */\n      dup8\n        /* \"CROWD_TANK/contracts/CrowdTank.sol\":3572:3584  _fundingGoal */\n      dup8\n        /* \"CROWD_TANK/contracts/CrowdTank.sol\":3603:3619  _durationSeconds */\n      dup8\n        /* \"CROWD_TANK/contracts/CrowdTank.sol\":3587:3602  block.timestamp */\n      timestamp\n        /* \"CROWD_TANK/contracts/CrowdTank.sol\":3587:3619  block.timestamp+_durationSeconds */\n      tag_301\n      swap2\n      swap1\n      tag_189\n      jump\t// in\n    tag_301:\n        /* \"CROWD_TANK/contracts/CrowdTank.sol\":3515:3620  ProjectCreated(_id , msg.sender , _name , _description , _fundingGoal , block.timestamp+_durationSeconds) */\n      mload(0x40)\n      tag_302\n      swap5\n      swap4\n      swap3\n      swap2\n      swap1\n      tag_303\n      jump\t// in\n    tag_302:\n      mload(0x40)\n      dup1\n      swap2\n      sub\n      swap1\n      log3\n        /* \"CROWD_TANK/contracts/CrowdTank.sol\":2656:3628  function createProject(string memory _name , string memory _description , uint _fundingGoal , uint _durationSeconds , uint _id) external {... */\n      pop\n      pop\n      pop\n      pop\n      pop\n      jump\t// out\n        /* \"CROWD_TANK/contracts/CrowdTank.sol\":468:488  address public admin */\n    tag_110:\n      0x03\n      0x00\n      swap1\n      sload\n      swap1\n      0x0100\n      exp\n      swap1\n      div\n      0xffffffffffffffffffffffffffffffffffffffff\n      and\n      dup2\n      jump\t// out\n        /* \"CROWD_TANK/contracts/CrowdTank.sol\":6892:7361  function ProjectStatistics() public view returns(... */\n    tag_115:\n        /* \"CROWD_TANK/contracts/CrowdTank.sol\":6951:6969  uint totalProjects */\n      0x00\n        /* \"CROWD_TANK/contracts/CrowdTank.sol\":6980:7003  uint successfulProjects */\n      0x00\n        /* \"CROWD_TANK/contracts/CrowdTank.sol\":7014:7033  uint failedProjects */\n      0x00\n        /* \"CROWD_TANK/contracts/CrowdTank.sol\":7044:7063  uint activeProjects */\n      0x00\n        /* \"CROWD_TANK/contracts/CrowdTank.sol\":7074:7095  uint totalFundsRaised */\n      0x00\n        /* \"CROWD_TANK/contracts/CrowdTank.sol\":7136:7149  TotalProjects */\n      sload(0x02)\n        /* \"CROWD_TANK/contracts/CrowdTank.sol\":7164:7190  Successful_Funded_Projects */\n      sload(0x04)\n        /* \"CROWD_TANK/contracts/CrowdTank.sol\":7205:7227  Failed_Funded_Projects */\n      sload(0x05)\n        /* \"CROWD_TANK/contracts/CrowdTank.sol\":7287:7309  Failed_Funded_Projects */\n      sload(0x05)\n        /* \"CROWD_TANK/contracts/CrowdTank.sol\":7258:7284  Successful_Funded_Projects */\n      sload(0x04)\n        /* \"CROWD_TANK/contracts/CrowdTank.sol\":7242:7255  TotalProjects */\n      sload(0x02)\n        /* \"CROWD_TANK/contracts/CrowdTank.sol\":7242:7284  TotalProjects - Successful_Funded_Projects */\n      tag_305\n      swap2\n      swap1\n      tag_129\n      jump\t// in\n    tag_305:\n        /* \"CROWD_TANK/contracts/CrowdTank.sol\":7242:7309  TotalProjects - Successful_Funded_Projects - Failed_Funded_Projects */\n      tag_306\n      swap2\n      swap1\n      tag_129\n      jump\t// in\n    tag_306:\n        /* \"CROWD_TANK/contracts/CrowdTank.sol\":7324:7342  TotalRaisedFunding */\n      sload(0x01)\n        /* \"CROWD_TANK/contracts/CrowdTank.sol\":7114:7353  return (... */\n      swap5\n      pop\n      swap5\n      pop\n      swap5\n      pop\n      swap5\n      pop\n      swap5\n      pop\n        /* \"CROWD_TANK/contracts/CrowdTank.sol\":6892:7361  function ProjectStatistics() public view returns(... */\n      swap1\n      swap2\n      swap3\n      swap4\n      swap5\n      jump\t// out\n        /* \"CROWD_TANK/contracts/CrowdTank.sol\":925:1080  function Add_Creators( address _creator ) external OnlyAdmin {... */\n    tag_121:\n        /* \"CROWD_TANK/contracts/CrowdTank.sol\":774:784  msg.sender */\n      caller\n        /* \"CROWD_TANK/contracts/CrowdTank.sol\":765:784  admin == msg.sender */\n      0xffffffffffffffffffffffffffffffffffffffff\n      and\n        /* \"CROWD_TANK/contracts/CrowdTank.sol\":765:770  admin */\n      0x03\n      0x00\n      swap1\n      sload\n      swap1\n      0x0100\n      exp\n      swap1\n      div\n      0xffffffffffffffffffffffffffffffffffffffff\n      and\n        /* \"CROWD_TANK/contracts/CrowdTank.sol\":765:784  admin == msg.sender */\n      0xffffffffffffffffffffffffffffffffffffffff\n      and\n      eq\n        /* \"CROWD_TANK/contracts/CrowdTank.sol\":757:811  require(admin == msg.sender , \"Only Admin can access\") */\n      tag_308\n      jumpi\n      mload(0x40)\n      0x08c379a000000000000000000000000000000000000000000000000000000000\n      dup2\n      mstore\n      0x04\n      add\n      tag_309\n      swap1\n      tag_245\n      jump\t// in\n    tag_309:\n      mload(0x40)\n      dup1\n      swap2\n      sub\n      swap1\n      revert\n    tag_308:\n        /* \"CROWD_TANK/contracts/CrowdTank.sol\":1028:1032  true */\n      0x01\n        /* \"CROWD_TANK/contracts/CrowdTank.sol\":997:1015  AuthorizedCreators */\n      0x06\n        /* \"CROWD_TANK/contracts/CrowdTank.sol\":997:1025  AuthorizedCreators[_creator] */\n      0x00\n        /* \"CROWD_TANK/contracts/CrowdTank.sol\":1016:1024  _creator */\n      dup4\n        /* \"CROWD_TANK/contracts/CrowdTank.sol\":997:1025  AuthorizedCreators[_creator] */\n      0xffffffffffffffffffffffffffffffffffffffff\n      and\n      0xffffffffffffffffffffffffffffffffffffffff\n      and\n      dup2\n      mstore\n      0x20\n      add\n      swap1\n      dup2\n      mstore\n      0x20\n      add\n      0x00\n      keccak256\n      0x00\n        /* \"CROWD_TANK/contracts/CrowdTank.sol\":997:1032  AuthorizedCreators[_creator] = true */\n      0x0100\n      exp\n      dup2\n      sload\n      dup2\n      0xff\n      mul\n      not\n      and\n      swap1\n      dup4\n      iszero\n      iszero\n      mul\n      or\n      swap1\n      sstore\n      pop\n        /* \"CROWD_TANK/contracts/CrowdTank.sol\":1063:1071  _creator */\n      dup1\n        /* \"CROWD_TANK/contracts/CrowdTank.sol\":1050:1072  addedCreator(_creator) */\n      0xffffffffffffffffffffffffffffffffffffffff\n      and\n      0x1f9f86dc4a3ce57ee42e33c59def65713163420d0ab979169ef129299ff2b85e\n      mload(0x40)\n      mload(0x40)\n      dup1\n      swap2\n      sub\n      swap1\n      log2\n        /* \"CROWD_TANK/contracts/CrowdTank.sol\":925:1080  function Add_Creators( address _creator ) external OnlyAdmin {... */\n      pop\n      jump\t// out\n        /* \"@openzeppelin/contracts/utils/ReentrancyGuard.sol\":2575:2882  function _nonReentrantBefore() private {... */\n    tag_192:\n        /* \"@openzeppelin/contracts/utils/ReentrancyGuard.sol\":1899:1900  2 */\n      0x02\n        /* \"@openzeppelin/contracts/utils/ReentrancyGuard.sol\":2702:2709  _status */\n      sload(0x00)\n        /* \"@openzeppelin/contracts/utils/ReentrancyGuard.sol\":2702:2720  _status == ENTERED */\n      sub\n        /* \"@openzeppelin/contracts/utils/ReentrancyGuard.sol\":2698:2784  if (_status == ENTERED) {... */\n      tag_312\n      jumpi\n        /* \"@openzeppelin/contracts/utils/ReentrancyGuard.sol\":2743:2773  ReentrancyGuardReentrantCall() */\n      mload(0x40)\n      0x3ee5aeb500000000000000000000000000000000000000000000000000000000\n      dup2\n      mstore\n      0x04\n      add\n      mload(0x40)\n      dup1\n      swap2\n      sub\n      swap1\n      revert\n        /* \"@openzeppelin/contracts/utils/ReentrancyGuard.sol\":2698:2784  if (_status == ENTERED) {... */\n    tag_312:\n        /* \"@openzeppelin/contracts/utils/ReentrancyGuard.sol\":1899:1900  2 */\n      0x02\n        /* \"@openzeppelin/contracts/utils/ReentrancyGuard.sol\":2858:2865  _status */\n      0x00\n        /* \"@openzeppelin/contracts/utils/ReentrancyGuard.sol\":2858:2875  _status = ENTERED */\n      dup2\n      swap1\n      sstore\n      pop\n        /* \"@openzeppelin/contracts/utils/ReentrancyGuard.sol\":2575:2882  function _nonReentrantBefore() private {... */\n      jump\t// out\n        /* \"@openzeppelin/contracts/utils/ReentrancyGuard.sol\":2888:3096  function _nonReentrantAfter() private {... */\n    tag_228:\n        /* \"@openzeppelin/contracts/utils/ReentrancyGuard.sol\":1857:1858  1 */\n      0x01\n        /* \"@openzeppelin/contracts/utils/ReentrancyGuard.sol\":3068:3075  _status */\n      0x00\n        /* \"@openzeppelin/contracts/utils/ReentrancyGuard.sol\":3068:3089  _status = NOT_ENTERED */\n      dup2\n      swap1\n      sstore\n      pop\n        /* \"@openzeppelin/contracts/utils/ReentrancyGuard.sol\":2888:3096  function _nonReentrantAfter() private {... */\n      jump\t// out\n        /* \"#utility.yul\":7:82   */\n    tag_314:\n        /* \"#utility.yul\":40:46   */\n      0x00\n        /* \"#utility.yul\":73:75   */\n      0x40\n        /* \"#utility.yul\":67:76   */\n      mload\n        /* \"#utility.yul\":57:76   */\n      swap1\n      pop\n        /* \"#utility.yul\":7:82   */\n      swap1\n      jump\t// out\n        /* \"#utility.yul\":88:205   */\n    tag_315:\n        /* \"#utility.yul\":197:198   */\n      0x00\n        /* \"#utility.yul\":194:195   */\n      0x00\n        /* \"#utility.yul\":187:199   */\n      revert\n        /* \"#utility.yul\":211:328   */\n    tag_316:\n        /* \"#utility.yul\":320:321   */\n      0x00\n        /* \"#utility.yul\":317:318   */\n      0x00\n        /* \"#utility.yul\":310:322   */\n      revert\n        /* \"#utility.yul\":334:411   */\n    tag_317:\n        /* \"#utility.yul\":371:378   */\n      0x00\n        /* \"#utility.yul\":400:405   */\n      dup2\n        /* \"#utility.yul\":389:405   */\n      swap1\n      pop\n        /* \"#utility.yul\":334:411   */\n      swap2\n      swap1\n      pop\n      jump\t// out\n        /* \"#utility.yul\":417:539   */\n    tag_318:\n        /* \"#utility.yul\":490:514   */\n      tag_413\n        /* \"#utility.yul\":508:513   */\n      dup2\n        /* \"#utility.yul\":490:514   */\n      tag_317\n      jump\t// in\n    tag_413:\n        /* \"#utility.yul\":483:488   */\n      dup2\n        /* \"#utility.yul\":480:515   */\n      eq\n        /* \"#utility.yul\":470:533   */\n      tag_414\n      jumpi\n        /* \"#utility.yul\":529:530   */\n      0x00\n        /* \"#utility.yul\":526:527   */\n      0x00\n        /* \"#utility.yul\":519:531   */\n      revert\n        /* \"#utility.yul\":470:533   */\n    tag_414:\n        /* \"#utility.yul\":417:539   */\n      pop\n      jump\t// out\n        /* \"#utility.yul\":545:684   */\n    tag_319:\n        /* \"#utility.yul\":591:596   */\n      0x00\n        /* \"#utility.yul\":629:635   */\n      dup2\n        /* \"#utility.yul\":616:636   */\n      calldataload\n        /* \"#utility.yul\":607:636   */\n      swap1\n      pop\n        /* \"#utility.yul\":645:678   */\n      tag_416\n        /* \"#utility.yul\":672:677   */\n      dup2\n        /* \"#utility.yul\":645:678   */\n      tag_318\n      jump\t// in\n    tag_416:\n        /* \"#utility.yul\":545:684   */\n      swap3\n      swap2\n      pop\n      pop\n      jump\t// out\n        /* \"#utility.yul\":690:1019   */\n    tag_29:\n        /* \"#utility.yul\":749:755   */\n      0x00\n        /* \"#utility.yul\":798:800   */\n      0x20\n        /* \"#utility.yul\":786:795   */\n      dup3\n        /* \"#utility.yul\":777:784   */\n      dup5\n        /* \"#utility.yul\":773:796   */\n      sub\n        /* \"#utility.yul\":769:801   */\n      slt\n        /* \"#utility.yul\":766:885   */\n      iszero\n      tag_418\n      jumpi\n        /* \"#utility.yul\":804:883   */\n      tag_419\n      tag_315\n      jump\t// in\n    tag_419:\n        /* \"#utility.yul\":766:885   */\n    tag_418:\n        /* \"#utility.yul\":924:925   */\n      0x00\n        /* \"#utility.yul\":949:1002   */\n      tag_420\n        /* \"#utility.yul\":994:1001   */\n      dup5\n        /* \"#utility.yul\":985:991   */\n      dup3\n        /* \"#utility.yul\":974:983   */\n      dup6\n        /* \"#utility.yul\":970:992   */\n      add\n        /* \"#utility.yul\":949:1002   */\n      tag_319\n      jump\t// in\n    tag_420:\n        /* \"#utility.yul\":939:1002   */\n      swap2\n      pop\n        /* \"#utility.yul\":895:1012   */\n      pop\n        /* \"#utility.yul\":690:1019   */\n      swap3\n      swap2\n      pop\n      pop\n      jump\t// out\n        /* \"#utility.yul\":1025:1143   */\n    tag_320:\n        /* \"#utility.yul\":1112:1136   */\n      tag_422\n        /* \"#utility.yul\":1130:1135   */\n      dup2\n        /* \"#utility.yul\":1112:1136   */\n      tag_317\n      jump\t// in\n    tag_422:\n        /* \"#utility.yul\":1107:1110   */\n      dup3\n        /* \"#utility.yul\":1100:1137   */\n      mstore\n        /* \"#utility.yul\":1025:1143   */\n      pop\n      pop\n      jump\t// out\n        /* \"#utility.yul\":1149:1481   */\n    tag_32:\n        /* \"#utility.yul\":1270:1274   */\n      0x00\n        /* \"#utility.yul\":1308:1310   */\n      0x40\n        /* \"#utility.yul\":1297:1306   */\n      dup3\n        /* \"#utility.yul\":1293:1311   */\n      add\n        /* \"#utility.yul\":1285:1311   */\n      swap1\n      pop\n        /* \"#utility.yul\":1321:1392   */\n      tag_424\n        /* \"#utility.yul\":1389:1390   */\n      0x00\n        /* \"#utility.yul\":1378:1387   */\n      dup4\n        /* \"#utility.yul\":1374:1391   */\n      add\n        /* \"#utility.yul\":1365:1371   */\n      dup6\n        /* \"#utility.yul\":1321:1392   */\n      tag_320\n      jump\t// in\n    tag_424:\n        /* \"#utility.yul\":1402:1474   */\n      tag_425\n        /* \"#utility.yul\":1470:1472   */\n      0x20\n        /* \"#utility.yul\":1459:1468   */\n      dup4\n        /* \"#utility.yul\":1455:1473   */\n      add\n        /* \"#utility.yul\":1446:1452   */\n      dup5\n        /* \"#utility.yul\":1402:1474   */\n      tag_320\n      jump\t// in\n    tag_425:\n        /* \"#utility.yul\":1149:1481   */\n      swap4\n      swap3\n      pop\n      pop\n      pop\n      jump\t// out\n        /* \"#utility.yul\":1487:1961   */\n    tag_36:\n        /* \"#utility.yul\":1555:1561   */\n      0x00\n        /* \"#utility.yul\":1563:1569   */\n      0x00\n        /* \"#utility.yul\":1612:1614   */\n      0x40\n        /* \"#utility.yul\":1600:1609   */\n      dup4\n        /* \"#utility.yul\":1591:1598   */\n      dup6\n        /* \"#utility.yul\":1587:1610   */\n      sub\n        /* \"#utility.yul\":1583:1615   */\n      slt\n        /* \"#utility.yul\":1580:1699   */\n      iszero\n      tag_427\n      jumpi\n        /* \"#utility.yul\":1618:1697   */\n      tag_428\n      tag_315\n      jump\t// in\n    tag_428:\n        /* \"#utility.yul\":1580:1699   */\n    tag_427:\n        /* \"#utility.yul\":1738:1739   */\n      0x00\n        /* \"#utility.yul\":1763:1816   */\n      tag_429\n        /* \"#utility.yul\":1808:1815   */\n      dup6\n        /* \"#utility.yul\":1799:1805   */\n      dup3\n        /* \"#utility.yul\":1788:1797   */\n      dup7\n        /* \"#utility.yul\":1784:1806   */\n      add\n        /* \"#utility.yul\":1763:1816   */\n      tag_319\n      jump\t// in\n    tag_429:\n        /* \"#utility.yul\":1753:1816   */\n      swap3\n      pop\n        /* \"#utility.yul\":1709:1826   */\n      pop\n        /* \"#utility.yul\":1865:1867   */\n      0x20\n        /* \"#utility.yul\":1891:1944   */\n      tag_430\n        /* \"#utility.yul\":1936:1943   */\n      dup6\n        /* \"#utility.yul\":1927:1933   */\n      dup3\n        /* \"#utility.yul\":1916:1925   */\n      dup7\n        /* \"#utility.yul\":1912:1934   */\n      add\n        /* \"#utility.yul\":1891:1944   */\n      tag_319\n      jump\t// in\n    tag_430:\n        /* \"#utility.yul\":1881:1944   */\n      swap2\n      pop\n        /* \"#utility.yul\":1836:1954   */\n      pop\n        /* \"#utility.yul\":1487:1961   */\n      swap3\n      pop\n      swap3\n      swap1\n      pop\n      jump\t// out\n        /* \"#utility.yul\":1967:2093   */\n    tag_321:\n        /* \"#utility.yul\":2004:2011   */\n      0x00\n        /* \"#utility.yul\":2044:2086   */\n      0xffffffffffffffffffffffffffffffffffffffff\n        /* \"#utility.yul\":2037:2042   */\n      dup3\n        /* \"#utility.yul\":2033:2087   */\n      and\n        /* \"#utility.yul\":2022:2087   */\n      swap1\n      pop\n        /* \"#utility.yul\":1967:2093   */\n      swap2\n      swap1\n      pop\n      jump\t// out\n        /* \"#utility.yul\":2099:2195   */\n    tag_322:\n        /* \"#utility.yul\":2136:2143   */\n      0x00\n        /* \"#utility.yul\":2165:2189   */\n      tag_433\n        /* \"#utility.yul\":2183:2188   */\n      dup3\n        /* \"#utility.yul\":2165:2189   */\n      tag_321\n      jump\t// in\n    tag_433:\n        /* \"#utility.yul\":2154:2189   */\n      swap1\n      pop\n        /* \"#utility.yul\":2099:2195   */\n      swap2\n      swap1\n      pop\n      jump\t// out\n        /* \"#utility.yul\":2201:2319   */\n    tag_323:\n        /* \"#utility.yul\":2288:2312   */\n      tag_435\n        /* \"#utility.yul\":2306:2311   */\n      dup2\n        /* \"#utility.yul\":2288:2312   */\n      tag_322\n      jump\t// in\n    tag_435:\n        /* \"#utility.yul\":2283:2286   */\n      dup3\n        /* \"#utility.yul\":2276:2313   */\n      mstore\n        /* \"#utility.yul\":2201:2319   */\n      pop\n      pop\n      jump\t// out\n        /* \"#utility.yul\":2325:2424   */\n    tag_324:\n        /* \"#utility.yul\":2377:2383   */\n      0x00\n        /* \"#utility.yul\":2411:2416   */\n      dup2\n        /* \"#utility.yul\":2405:2417   */\n      mload\n        /* \"#utility.yul\":2395:2417   */\n      swap1\n      pop\n        /* \"#utility.yul\":2325:2424   */\n      swap2\n      swap1\n      pop\n      jump\t// out\n        /* \"#utility.yul\":2430:2599   */\n    tag_325:\n        /* \"#utility.yul\":2514:2525   */\n      0x00\n        /* \"#utility.yul\":2548:2554   */\n      dup3\n        /* \"#utility.yul\":2543:2546   */\n      dup3\n        /* \"#utility.yul\":2536:2555   */\n      mstore\n        /* \"#utility.yul\":2588:2592   */\n      0x20\n        /* \"#utility.yul\":2583:2586   */\n      dup3\n        /* \"#utility.yul\":2579:2593   */\n      add\n        /* \"#utility.yul\":2564:2593   */\n      swap1\n      pop\n        /* \"#utility.yul\":2430:2599   */\n      swap3\n      swap2\n      pop\n      pop\n      jump\t// out\n        /* \"#utility.yul\":2605:2744   */\n    tag_326:\n        /* \"#utility.yul\":2694:2700   */\n      dup3\n        /* \"#utility.yul\":2689:2692   */\n      dup2\n        /* \"#utility.yul\":2684:2687   */\n      dup4\n        /* \"#utility.yul\":2678:2701   */\n      mcopy\n        /* \"#utility.yul\":2735:2736   */\n      0x00\n        /* \"#utility.yul\":2726:2732   */\n      dup4\n        /* \"#utility.yul\":2721:2724   */\n      dup4\n        /* \"#utility.yul\":2717:2733   */\n      add\n        /* \"#utility.yul\":2710:2737   */\n      mstore\n        /* \"#utility.yul\":2605:2744   */\n      pop\n      pop\n      pop\n      jump\t// out\n        /* \"#utility.yul\":2750:2852   */\n    tag_327:\n        /* \"#utility.yul\":2791:2797   */\n      0x00\n        /* \"#utility.yul\":2842:2844   */\n      0x1f\n        /* \"#utility.yul\":2838:2845   */\n      not\n        /* \"#utility.yul\":2833:2835   */\n      0x1f\n        /* \"#utility.yul\":2826:2831   */\n      dup4\n        /* \"#utility.yul\":2822:2836   */\n      add\n        /* \"#utility.yul\":2818:2846   */\n      and\n        /* \"#utility.yul\":2808:2846   */\n      swap1\n      pop\n        /* \"#utility.yul\":2750:2852   */\n      swap2\n      swap1\n      pop\n      jump\t// out\n        /* \"#utility.yul\":2858:3235   */\n    tag_328:\n        /* \"#utility.yul\":2946:2949   */\n      0x00\n        /* \"#utility.yul\":2974:3013   */\n      tag_441\n        /* \"#utility.yul\":3007:3012   */\n      dup3\n        /* \"#utility.yul\":2974:3013   */\n      tag_324\n      jump\t// in\n    tag_441:\n        /* \"#utility.yul\":3029:3100   */\n      tag_442\n        /* \"#utility.yul\":3093:3099   */\n      dup2\n        /* \"#utility.yul\":3088:3091   */\n      dup6\n        /* \"#utility.yul\":3029:3100   */\n      tag_325\n      jump\t// in\n    tag_442:\n        /* \"#utility.yul\":3022:3100   */\n      swap4\n      pop\n        /* \"#utility.yul\":3109:3174   */\n      tag_443\n        /* \"#utility.yul\":3167:3173   */\n      dup2\n        /* \"#utility.yul\":3162:3165   */\n      dup6\n        /* \"#utility.yul\":3155:3159   */\n      0x20\n        /* \"#utility.yul\":3148:3153   */\n      dup7\n        /* \"#utility.yul\":3144:3160   */\n      add\n        /* \"#utility.yul\":3109:3174   */\n      tag_326\n      jump\t// in\n    tag_443:\n        /* \"#utility.yul\":3199:3228   */\n      tag_444\n        /* \"#utility.yul\":3221:3227   */\n      dup2\n        /* \"#utility.yul\":3199:3228   */\n      tag_327\n      jump\t// in\n    tag_444:\n        /* \"#utility.yul\":3194:3197   */\n      dup5\n        /* \"#utility.yul\":3190:3229   */\n      add\n        /* \"#utility.yul\":3183:3229   */\n      swap2\n      pop\n        /* \"#utility.yul\":2950:3235   */\n      pop\n        /* \"#utility.yul\":2858:3235   */\n      swap3\n      swap2\n      pop\n      pop\n      jump\t// out\n        /* \"#utility.yul\":3241:3331   */\n    tag_329:\n        /* \"#utility.yul\":3275:3282   */\n      0x00\n        /* \"#utility.yul\":3318:3323   */\n      dup2\n        /* \"#utility.yul\":3311:3324   */\n      iszero\n        /* \"#utility.yul\":3304:3325   */\n      iszero\n        /* \"#utility.yul\":3293:3325   */\n      swap1\n      pop\n        /* \"#utility.yul\":3241:3331   */\n      swap2\n      swap1\n      pop\n      jump\t// out\n        /* \"#utility.yul\":3337:3446   */\n    tag_330:\n        /* \"#utility.yul\":3418:3439   */\n      tag_447\n        /* \"#utility.yul\":3433:3438   */\n      dup2\n        /* \"#utility.yul\":3418:3439   */\n      tag_329\n      jump\t// in\n    tag_447:\n        /* \"#utility.yul\":3413:3416   */\n      dup3\n        /* \"#utility.yul\":3406:3440   */\n      mstore\n        /* \"#utility.yul\":3337:3446   */\n      pop\n      pop\n      jump\t// out\n        /* \"#utility.yul\":3452:4930   */\n    tag_43:\n        /* \"#utility.yul\":3848:3852   */\n      0x00\n        /* \"#utility.yul\":3886:3889   */\n      0x0160\n        /* \"#utility.yul\":3875:3884   */\n      dup3\n        /* \"#utility.yul\":3871:3890   */\n      add\n        /* \"#utility.yul\":3863:3890   */\n      swap1\n      pop\n        /* \"#utility.yul\":3900:3971   */\n      tag_449\n        /* \"#utility.yul\":3968:3969   */\n      0x00\n        /* \"#utility.yul\":3957:3966   */\n      dup4\n        /* \"#utility.yul\":3953:3970   */\n      add\n        /* \"#utility.yul\":3944:3950   */\n      dup15\n        /* \"#utility.yul\":3900:3971   */\n      tag_323\n      jump\t// in\n    tag_449:\n        /* \"#utility.yul\":4018:4027   */\n      dup2\n        /* \"#utility.yul\":4012:4016   */\n      dup2\n        /* \"#utility.yul\":4008:4028   */\n      sub\n        /* \"#utility.yul\":4003:4005   */\n      0x20\n        /* \"#utility.yul\":3992:4001   */\n      dup4\n        /* \"#utility.yul\":3988:4006   */\n      add\n        /* \"#utility.yul\":3981:4029   */\n      mstore\n        /* \"#utility.yul\":4046:4124   */\n      tag_450\n        /* \"#utility.yul\":4119:4123   */\n      dup2\n        /* \"#utility.yul\":4110:4116   */\n      dup14\n        /* \"#utility.yul\":4046:4124   */\n      tag_328\n      jump\t// in\n    tag_450:\n        /* \"#utility.yul\":4038:4124   */\n      swap1\n      pop\n        /* \"#utility.yul\":4171:4180   */\n      dup2\n        /* \"#utility.yul\":4165:4169   */\n      dup2\n        /* \"#utility.yul\":4161:4181   */\n      sub\n        /* \"#utility.yul\":4156:4158   */\n      0x40\n        /* \"#utility.yul\":4145:4154   */\n      dup4\n        /* \"#utility.yul\":4141:4159   */\n      add\n        /* \"#utility.yul\":4134:4182   */\n      mstore\n        /* \"#utility.yul\":4199:4277   */\n      tag_451\n        /* \"#utility.yul\":4272:4276   */\n      dup2\n        /* \"#utility.yul\":4263:4269   */\n      dup13\n        /* \"#utility.yul\":4199:4277   */\n      tag_328\n      jump\t// in\n    tag_451:\n        /* \"#utility.yul\":4191:4277   */\n      swap1\n      pop\n        /* \"#utility.yul\":4287:4359   */\n      tag_452\n        /* \"#utility.yul\":4355:4357   */\n      0x60\n        /* \"#utility.yul\":4344:4353   */\n      dup4\n        /* \"#utility.yul\":4340:4358   */\n      add\n        /* \"#utility.yul\":4331:4337   */\n      dup12\n        /* \"#utility.yul\":4287:4359   */\n      tag_320\n      jump\t// in\n    tag_452:\n        /* \"#utility.yul\":4369:4442   */\n      tag_453\n        /* \"#utility.yul\":4437:4440   */\n      0x80\n        /* \"#utility.yul\":4426:4435   */\n      dup4\n        /* \"#utility.yul\":4422:4441   */\n      add\n        /* \"#utility.yul\":4413:4419   */\n      dup11\n        /* \"#utility.yul\":4369:4442   */\n      tag_320\n      jump\t// in\n    tag_453:\n        /* \"#utility.yul\":4452:4525   */\n      tag_454\n        /* \"#utility.yul\":4520:4523   */\n      0xa0\n        /* \"#utility.yul\":4509:4518   */\n      dup4\n        /* \"#utility.yul\":4505:4524   */\n      add\n        /* \"#utility.yul\":4496:4502   */\n      dup10\n        /* \"#utility.yul\":4452:4525   */\n      tag_320\n      jump\t// in\n    tag_454:\n        /* \"#utility.yul\":4535:4602   */\n      tag_455\n        /* \"#utility.yul\":4597:4600   */\n      0xc0\n        /* \"#utility.yul\":4586:4595   */\n      dup4\n        /* \"#utility.yul\":4582:4601   */\n      add\n        /* \"#utility.yul\":4573:4579   */\n      dup9\n        /* \"#utility.yul\":4535:4602   */\n      tag_330\n      jump\t// in\n    tag_455:\n        /* \"#utility.yul\":4612:4685   */\n      tag_456\n        /* \"#utility.yul\":4680:4683   */\n      0xe0\n        /* \"#utility.yul\":4669:4678   */\n      dup4\n        /* \"#utility.yul\":4665:4684   */\n      add\n        /* \"#utility.yul\":4656:4662   */\n      dup8\n        /* \"#utility.yul\":4612:4685   */\n      tag_323\n      jump\t// in\n    tag_456:\n        /* \"#utility.yul\":4695:4768   */\n      tag_457\n        /* \"#utility.yul\":4763:4766   */\n      0x0100\n        /* \"#utility.yul\":4752:4761   */\n      dup4\n        /* \"#utility.yul\":4748:4767   */\n      add\n        /* \"#utility.yul\":4739:4745   */\n      dup7\n        /* \"#utility.yul\":4695:4768   */\n      tag_320\n      jump\t// in\n    tag_457:\n        /* \"#utility.yul\":4778:4845   */\n      tag_458\n        /* \"#utility.yul\":4840:4843   */\n      0x0120\n        /* \"#utility.yul\":4829:4838   */\n      dup4\n        /* \"#utility.yul\":4825:4844   */\n      add\n        /* \"#utility.yul\":4816:4822   */\n      dup6\n        /* \"#utility.yul\":4778:4845   */\n      tag_330\n      jump\t// in\n    tag_458:\n        /* \"#utility.yul\":4855:4923   */\n      tag_459\n        /* \"#utility.yul\":4918:4921   */\n      0x0140\n        /* \"#utility.yul\":4907:4916   */\n      dup4\n        /* \"#utility.yul\":4903:4922   */\n      add\n        /* \"#utility.yul\":4893:4900   */\n      dup5\n        /* \"#utility.yul\":4855:4923   */\n      tag_330\n      jump\t// in\n    tag_459:\n        /* \"#utility.yul\":3452:4930   */\n      swap13\n      swap12\n      pop\n      pop\n      pop\n      pop\n      pop\n      pop\n      pop\n      pop\n      pop\n      pop\n      pop\n      pop\n      jump\t// out\n        /* \"#utility.yul\":4936:5158   */\n    tag_49:\n        /* \"#utility.yul\":5029:5033   */\n      0x00\n        /* \"#utility.yul\":5067:5069   */\n      0x20\n        /* \"#utility.yul\":5056:5065   */\n      dup3\n        /* \"#utility.yul\":5052:5070   */\n      add\n        /* \"#utility.yul\":5044:5070   */\n      swap1\n      pop\n        /* \"#utility.yul\":5080:5151   */\n      tag_461\n        /* \"#utility.yul\":5148:5149   */\n      0x00\n        /* \"#utility.yul\":5137:5146   */\n      dup4\n        /* \"#utility.yul\":5133:5150   */\n      add\n        /* \"#utility.yul\":5124:5130   */\n      dup5\n        /* \"#utility.yul\":5080:5151   */\n      tag_320\n      jump\t// in\n    tag_461:\n        /* \"#utility.yul\":4936:5158   */\n      swap3\n      swap2\n      pop\n      pop\n      jump\t// out\n        /* \"#utility.yul\":5164:5286   */\n    tag_331:\n        /* \"#utility.yul\":5237:5261   */\n      tag_463\n        /* \"#utility.yul\":5255:5260   */\n      dup2\n        /* \"#utility.yul\":5237:5261   */\n      tag_322\n      jump\t// in\n    tag_463:\n        /* \"#utility.yul\":5230:5235   */\n      dup2\n        /* \"#utility.yul\":5227:5262   */\n      eq\n        /* \"#utility.yul\":5217:5280   */\n      tag_464\n      jumpi\n        /* \"#utility.yul\":5276:5277   */\n      0x00\n        /* \"#utility.yul\":5273:5274   */\n      0x00\n        /* \"#utility.yul\":5266:5278   */\n      revert\n        /* \"#utility.yul\":5217:5280   */\n    tag_464:\n        /* \"#utility.yul\":5164:5286   */\n      pop\n      jump\t// out\n        /* \"#utility.yul\":5292:5431   */\n    tag_332:\n        /* \"#utility.yul\":5338:5343   */\n      0x00\n        /* \"#utility.yul\":5376:5382   */\n      dup2\n        /* \"#utility.yul\":5363:5383   */\n      calldataload\n        /* \"#utility.yul\":5354:5383   */\n      swap1\n      pop\n        /* \"#utility.yul\":5392:5425   */\n      tag_466\n        /* \"#utility.yul\":5419:5424   */\n      dup2\n        /* \"#utility.yul\":5392:5425   */\n      tag_331\n      jump\t// in\n    tag_466:\n        /* \"#utility.yul\":5292:5431   */\n      swap3\n      swap2\n      pop\n      pop\n      jump\t// out\n        /* \"#utility.yul\":5437:5911   */\n    tag_69:\n        /* \"#utility.yul\":5505:5511   */\n      0x00\n        /* \"#utility.yul\":5513:5519   */\n      0x00\n        /* \"#utility.yul\":5562:5564   */\n      0x40\n        /* \"#utility.yul\":5550:5559   */\n      dup4\n        /* \"#utility.yul\":5541:5548   */\n      dup6\n        /* \"#utility.yul\":5537:5560   */\n      sub\n        /* \"#utility.yul\":5533:5565   */\n      slt\n        /* \"#utility.yul\":5530:5649   */\n      iszero\n      tag_468\n      jumpi\n        /* \"#utility.yul\":5568:5647   */\n      tag_469\n      tag_315\n      jump\t// in\n    tag_469:\n        /* \"#utility.yul\":5530:5649   */\n    tag_468:\n        /* \"#utility.yul\":5688:5689   */\n      0x00\n        /* \"#utility.yul\":5713:5766   */\n      tag_470\n        /* \"#utility.yul\":5758:5765   */\n      dup6\n        /* \"#utility.yul\":5749:5755   */\n      dup3\n        /* \"#utility.yul\":5738:5747   */\n      dup7\n        /* \"#utility.yul\":5734:5756   */\n      add\n        /* \"#utility.yul\":5713:5766   */\n      tag_319\n      jump\t// in\n    tag_470:\n        /* \"#utility.yul\":5703:5766   */\n      swap3\n      pop\n        /* \"#utility.yul\":5659:5776   */\n      pop\n        /* \"#utility.yul\":5815:5817   */\n      0x20\n        /* \"#utility.yul\":5841:5894   */\n      tag_471\n        /* \"#utility.yul\":5886:5893   */\n      dup6\n        /* \"#utility.yul\":5877:5883   */\n      dup3\n        /* \"#utility.yul\":5866:5875   */\n      dup7\n        /* \"#utility.yul\":5862:5884   */\n      add\n        /* \"#utility.yul\":5841:5894   */\n      tag_332\n      jump\t// in\n    tag_471:\n        /* \"#utility.yul\":5831:5894   */\n      swap2\n      pop\n        /* \"#utility.yul\":5786:5904   */\n      pop\n        /* \"#utility.yul\":5437:5911   */\n      swap3\n      pop\n      swap3\n      swap1\n      pop\n      jump\t// out\n        /* \"#utility.yul\":5917:6246   */\n    tag_85:\n        /* \"#utility.yul\":5976:5982   */\n      0x00\n        /* \"#utility.yul\":6025:6027   */\n      0x20\n        /* \"#utility.yul\":6013:6022   */\n      dup3\n        /* \"#utility.yul\":6004:6011   */\n      dup5\n        /* \"#utility.yul\":6000:6023   */\n      sub\n        /* \"#utility.yul\":5996:6028   */\n      slt\n        /* \"#utility.yul\":5993:6112   */\n      iszero\n      tag_473\n      jumpi\n        /* \"#utility.yul\":6031:6110   */\n      tag_474\n      tag_315\n      jump\t// in\n    tag_474:\n        /* \"#utility.yul\":5993:6112   */\n    tag_473:\n        /* \"#utility.yul\":6151:6152   */\n      0x00\n        /* \"#utility.yul\":6176:6229   */\n      tag_475\n        /* \"#utility.yul\":6221:6228   */\n      dup5\n        /* \"#utility.yul\":6212:6218   */\n      dup3\n        /* \"#utility.yul\":6201:6210   */\n      dup6\n        /* \"#utility.yul\":6197:6219   */\n      add\n        /* \"#utility.yul\":6176:6229   */\n      tag_332\n      jump\t// in\n    tag_475:\n        /* \"#utility.yul\":6166:6229   */\n      swap2\n      pop\n        /* \"#utility.yul\":6122:6239   */\n      pop\n        /* \"#utility.yul\":5917:6246   */\n      swap3\n      swap2\n      pop\n      pop\n      jump\t// out\n        /* \"#utility.yul\":6252:6462   */\n    tag_92:\n        /* \"#utility.yul\":6339:6343   */\n      0x00\n        /* \"#utility.yul\":6377:6379   */\n      0x20\n        /* \"#utility.yul\":6366:6375   */\n      dup3\n        /* \"#utility.yul\":6362:6380   */\n      add\n        /* \"#utility.yul\":6354:6380   */\n      swap1\n      pop\n        /* \"#utility.yul\":6390:6455   */\n      tag_477\n        /* \"#utility.yul\":6452:6453   */\n      0x00\n        /* \"#utility.yul\":6441:6450   */\n      dup4\n        /* \"#utility.yul\":6437:6454   */\n      add\n        /* \"#utility.yul\":6428:6434   */\n      dup5\n        /* \"#utility.yul\":6390:6455   */\n      tag_330\n      jump\t// in\n    tag_477:\n        /* \"#utility.yul\":6252:6462   */\n      swap3\n      swap2\n      pop\n      pop\n      jump\t// out\n        /* \"#utility.yul\":6468:6585   */\n    tag_333:\n        /* \"#utility.yul\":6577:6578   */\n      0x00\n        /* \"#utility.yul\":6574:6575   */\n      0x00\n        /* \"#utility.yul\":6567:6579   */\n      revert\n        /* \"#utility.yul\":6591:6708   */\n    tag_334:\n        /* \"#utility.yul\":6700:6701   */\n      0x00\n        /* \"#utility.yul\":6697:6698   */\n      0x00\n        /* \"#utility.yul\":6690:6702   */\n      revert\n        /* \"#utility.yul\":6714:6894   */\n    tag_335:\n        /* \"#utility.yul\":6762:6839   */\n      0x4e487b7100000000000000000000000000000000000000000000000000000000\n        /* \"#utility.yul\":6759:6760   */\n      0x00\n        /* \"#utility.yul\":6752:6840   */\n      mstore\n        /* \"#utility.yul\":6859:6863   */\n      0x41\n        /* \"#utility.yul\":6856:6857   */\n      0x04\n        /* \"#utility.yul\":6849:6864   */\n      mstore\n        /* \"#utility.yul\":6883:6887   */\n      0x24\n        /* \"#utility.yul\":6880:6881   */\n      0x00\n        /* \"#utility.yul\":6873:6888   */\n      revert\n        /* \"#utility.yul\":6900:7181   */\n    tag_336:\n        /* \"#utility.yul\":6983:7010   */\n      tag_482\n        /* \"#utility.yul\":7005:7009   */\n      dup3\n        /* \"#utility.yul\":6983:7010   */\n      tag_327\n      jump\t// in\n    tag_482:\n        /* \"#utility.yul\":6975:6981   */\n      dup2\n        /* \"#utility.yul\":6971:7011   */\n      add\n        /* \"#utility.yul\":7113:7119   */\n      dup2\n        /* \"#utility.yul\":7101:7111   */\n      dup2\n        /* \"#utility.yul\":7098:7120   */\n      lt\n        /* \"#utility.yul\":7077:7095   */\n      0xffffffffffffffff\n        /* \"#utility.yul\":7065:7075   */\n      dup3\n        /* \"#utility.yul\":7062:7096   */\n      gt\n        /* \"#utility.yul\":7059:7121   */\n      or\n        /* \"#utility.yul\":7056:7144   */\n      iszero\n      tag_483\n      jumpi\n        /* \"#utility.yul\":7124:7142   */\n      tag_484\n      tag_335\n      jump\t// in\n    tag_484:\n        /* \"#utility.yul\":7056:7144   */\n    tag_483:\n        /* \"#utility.yul\":7164:7174   */\n      dup1\n        /* \"#utility.yul\":7160:7162   */\n      0x40\n        /* \"#utility.yul\":7153:7175   */\n      mstore\n        /* \"#utility.yul\":6943:7181   */\n      pop\n        /* \"#utility.yul\":6900:7181   */\n      pop\n      pop\n      jump\t// out\n        /* \"#utility.yul\":7187:7316   */\n    tag_337:\n        /* \"#utility.yul\":7221:7227   */\n      0x00\n        /* \"#utility.yul\":7248:7268   */\n      tag_486\n      tag_314\n      jump\t// in\n    tag_486:\n        /* \"#utility.yul\":7238:7268   */\n      swap1\n      pop\n        /* \"#utility.yul\":7277:7310   */\n      tag_487\n        /* \"#utility.yul\":7305:7309   */\n      dup3\n        /* \"#utility.yul\":7297:7303   */\n      dup3\n        /* \"#utility.yul\":7277:7310   */\n      tag_336\n      jump\t// in\n    tag_487:\n        /* \"#utility.yul\":7187:7316   */\n      swap2\n      swap1\n      pop\n      jump\t// out\n        /* \"#utility.yul\":7322:7630   */\n    tag_338:\n        /* \"#utility.yul\":7384:7388   */\n      0x00\n        /* \"#utility.yul\":7474:7492   */\n      0xffffffffffffffff\n        /* \"#utility.yul\":7466:7472   */\n      dup3\n        /* \"#utility.yul\":7463:7493   */\n      gt\n        /* \"#utility.yul\":7460:7516   */\n      iszero\n      tag_489\n      jumpi\n        /* \"#utility.yul\":7496:7514   */\n      tag_490\n      tag_335\n      jump\t// in\n    tag_490:\n        /* \"#utility.yul\":7460:7516   */\n    tag_489:\n        /* \"#utility.yul\":7534:7563   */\n      tag_491\n        /* \"#utility.yul\":7556:7562   */\n      dup3\n        /* \"#utility.yul\":7534:7563   */\n      tag_327\n      jump\t// in\n    tag_491:\n        /* \"#utility.yul\":7526:7563   */\n      swap1\n      pop\n        /* \"#utility.yul\":7618:7622   */\n      0x20\n        /* \"#utility.yul\":7612:7616   */\n      dup2\n        /* \"#utility.yul\":7608:7623   */\n      add\n        /* \"#utility.yul\":7600:7623   */\n      swap1\n      pop\n        /* \"#utility.yul\":7322:7630   */\n      swap2\n      swap1\n      pop\n      jump\t// out\n        /* \"#utility.yul\":7636:7784   */\n    tag_339:\n        /* \"#utility.yul\":7734:7740   */\n      dup3\n        /* \"#utility.yul\":7729:7732   */\n      dup2\n        /* \"#utility.yul\":7724:7727   */\n      dup4\n        /* \"#utility.yul\":7711:7741   */\n      calldatacopy\n        /* \"#utility.yul\":7775:7776   */\n      0x00\n        /* \"#utility.yul\":7766:7772   */\n      dup4\n        /* \"#utility.yul\":7761:7764   */\n      dup4\n        /* \"#utility.yul\":7757:7773   */\n      add\n        /* \"#utility.yul\":7750:7777   */\n      mstore\n        /* \"#utility.yul\":7636:7784   */\n      pop\n      pop\n      pop\n      jump\t// out\n        /* \"#utility.yul\":7790:8215   */\n    tag_340:\n        /* \"#utility.yul\":7868:7873   */\n      0x00\n        /* \"#utility.yul\":7893:7959   */\n      tag_494\n        /* \"#utility.yul\":7909:7958   */\n      tag_495\n        /* \"#utility.yul\":7951:7957   */\n      dup5\n        /* \"#utility.yul\":7909:7958   */\n      tag_338\n      jump\t// in\n    tag_495:\n        /* \"#utility.yul\":7893:7959   */\n      tag_337\n      jump\t// in\n    tag_494:\n        /* \"#utility.yul\":7884:7959   */\n      swap1\n      pop\n        /* \"#utility.yul\":7982:7988   */\n      dup3\n        /* \"#utility.yul\":7975:7980   */\n      dup2\n        /* \"#utility.yul\":7968:7989   */\n      mstore\n        /* \"#utility.yul\":8020:8024   */\n      0x20\n        /* \"#utility.yul\":8013:8018   */\n      dup2\n        /* \"#utility.yul\":8009:8025   */\n      add\n        /* \"#utility.yul\":8058:8061   */\n      dup5\n        /* \"#utility.yul\":8049:8055   */\n      dup5\n        /* \"#utility.yul\":8044:8047   */\n      dup5\n        /* \"#utility.yul\":8040:8056   */\n      add\n        /* \"#utility.yul\":8037:8062   */\n      gt\n        /* \"#utility.yul\":8034:8146   */\n      iszero\n      tag_496\n      jumpi\n        /* \"#utility.yul\":8065:8144   */\n      tag_497\n      tag_334\n      jump\t// in\n    tag_497:\n        /* \"#utility.yul\":8034:8146   */\n    tag_496:\n        /* \"#utility.yul\":8155:8209   */\n      tag_498\n        /* \"#utility.yul\":8202:8208   */\n      dup5\n        /* \"#utility.yul\":8197:8200   */\n      dup3\n        /* \"#utility.yul\":8192:8195   */\n      dup6\n        /* \"#utility.yul\":8155:8209   */\n      tag_339\n      jump\t// in\n    tag_498:\n        /* \"#utility.yul\":7874:8215   */\n      pop\n        /* \"#utility.yul\":7790:8215   */\n      swap4\n      swap3\n      pop\n      pop\n      pop\n      jump\t// out\n        /* \"#utility.yul\":8235:8575   */\n    tag_341:\n        /* \"#utility.yul\":8291:8296   */\n      0x00\n        /* \"#utility.yul\":8340:8343   */\n      dup3\n        /* \"#utility.yul\":8333:8337   */\n      0x1f\n        /* \"#utility.yul\":8325:8331   */\n      dup4\n        /* \"#utility.yul\":8321:8338   */\n      add\n        /* \"#utility.yul\":8317:8344   */\n      slt\n        /* \"#utility.yul\":8307:8429   */\n      tag_500\n      jumpi\n        /* \"#utility.yul\":8348:8427   */\n      tag_501\n      tag_333\n      jump\t// in\n    tag_501:\n        /* \"#utility.yul\":8307:8429   */\n    tag_500:\n        /* \"#utility.yul\":8465:8471   */\n      dup2\n        /* \"#utility.yul\":8452:8472   */\n      calldataload\n        /* \"#utility.yul\":8490:8569   */\n      tag_502\n        /* \"#utility.yul\":8565:8568   */\n      dup5\n        /* \"#utility.yul\":8557:8563   */\n      dup3\n        /* \"#utility.yul\":8550:8554   */\n      0x20\n        /* \"#utility.yul\":8542:8548   */\n      dup7\n        /* \"#utility.yul\":8538:8555   */\n      add\n        /* \"#utility.yul\":8490:8569   */\n      tag_340\n      jump\t// in\n    tag_502:\n        /* \"#utility.yul\":8481:8569   */\n      swap2\n      pop\n        /* \"#utility.yul\":8297:8575   */\n      pop\n        /* \"#utility.yul\":8235:8575   */\n      swap3\n      swap2\n      pop\n      pop\n      jump\t// out\n        /* \"#utility.yul\":8581:9852   */\n    tag_106:\n        /* \"#utility.yul\":8696:8702   */\n      0x00\n        /* \"#utility.yul\":8704:8710   */\n      0x00\n        /* \"#utility.yul\":8712:8718   */\n      0x00\n        /* \"#utility.yul\":8720:8726   */\n      0x00\n        /* \"#utility.yul\":8728:8734   */\n      0x00\n        /* \"#utility.yul\":8777:8780   */\n      0xa0\n        /* \"#utility.yul\":8765:8774   */\n      dup7\n        /* \"#utility.yul\":8756:8763   */\n      dup9\n        /* \"#utility.yul\":8752:8775   */\n      sub\n        /* \"#utility.yul\":8748:8781   */\n      slt\n        /* \"#utility.yul\":8745:8865   */\n      iszero\n      tag_504\n      jumpi\n        /* \"#utility.yul\":8784:8863   */\n      tag_505\n      tag_315\n      jump\t// in\n    tag_505:\n        /* \"#utility.yul\":8745:8865   */\n    tag_504:\n        /* \"#utility.yul\":8932:8933   */\n      0x00\n        /* \"#utility.yul\":8921:8930   */\n      dup7\n        /* \"#utility.yul\":8917:8934   */\n      add\n        /* \"#utility.yul\":8904:8935   */\n      calldataload\n        /* \"#utility.yul\":8962:8980   */\n      0xffffffffffffffff\n        /* \"#utility.yul\":8954:8960   */\n      dup2\n        /* \"#utility.yul\":8951:8981   */\n      gt\n        /* \"#utility.yul\":8948:9065   */\n      iszero\n      tag_506\n      jumpi\n        /* \"#utility.yul\":8984:9063   */\n      tag_507\n      tag_316\n      jump\t// in\n    tag_507:\n        /* \"#utility.yul\":8948:9065   */\n    tag_506:\n        /* \"#utility.yul\":9089:9152   */\n      tag_508\n        /* \"#utility.yul\":9144:9151   */\n      dup9\n        /* \"#utility.yul\":9135:9141   */\n      dup3\n        /* \"#utility.yul\":9124:9133   */\n      dup10\n        /* \"#utility.yul\":9120:9142   */\n      add\n        /* \"#utility.yul\":9089:9152   */\n      tag_341\n      jump\t// in\n    tag_508:\n        /* \"#utility.yul\":9079:9152   */\n      swap6\n      pop\n        /* \"#utility.yul\":8875:9162   */\n      pop\n        /* \"#utility.yul\":9229:9231   */\n      0x20\n        /* \"#utility.yul\":9218:9227   */\n      dup7\n        /* \"#utility.yul\":9214:9232   */\n      add\n        /* \"#utility.yul\":9201:9233   */\n      calldataload\n        /* \"#utility.yul\":9260:9278   */\n      0xffffffffffffffff\n        /* \"#utility.yul\":9252:9258   */\n      dup2\n        /* \"#utility.yul\":9249:9279   */\n      gt\n        /* \"#utility.yul\":9246:9363   */\n      iszero\n      tag_509\n      jumpi\n        /* \"#utility.yul\":9282:9361   */\n      tag_510\n      tag_316\n      jump\t// in\n    tag_510:\n        /* \"#utility.yul\":9246:9363   */\n    tag_509:\n        /* \"#utility.yul\":9387:9450   */\n      tag_511\n        /* \"#utility.yul\":9442:9449   */\n      dup9\n        /* \"#utility.yul\":9433:9439   */\n      dup3\n        /* \"#utility.yul\":9422:9431   */\n      dup10\n        /* \"#utility.yul\":9418:9440   */\n      add\n        /* \"#utility.yul\":9387:9450   */\n      tag_341\n      jump\t// in\n    tag_511:\n        /* \"#utility.yul\":9377:9450   */\n      swap5\n      pop\n        /* \"#utility.yul\":9172:9460   */\n      pop\n        /* \"#utility.yul\":9499:9501   */\n      0x40\n        /* \"#utility.yul\":9525:9578   */\n      tag_512\n        /* \"#utility.yul\":9570:9577   */\n      dup9\n        /* \"#utility.yul\":9561:9567   */\n      dup3\n        /* \"#utility.yul\":9550:9559   */\n      dup10\n        /* \"#utility.yul\":9546:9568   */\n      add\n        /* \"#utility.yul\":9525:9578   */\n      tag_319\n      jump\t// in\n    tag_512:\n        /* \"#utility.yul\":9515:9578   */\n      swap4\n      pop\n        /* \"#utility.yul\":9470:9588   */\n      pop\n        /* \"#utility.yul\":9627:9629   */\n      0x60\n        /* \"#utility.yul\":9653:9706   */\n      tag_513\n        /* \"#utility.yul\":9698:9705   */\n      dup9\n        /* \"#utility.yul\":9689:9695   */\n      dup3\n        /* \"#utility.yul\":9678:9687   */\n      dup10\n        /* \"#utility.yul\":9674:9696   */\n      add\n        /* \"#utility.yul\":9653:9706   */\n      tag_319\n      jump\t// in\n    tag_513:\n        /* \"#utility.yul\":9643:9706   */\n      swap3\n      pop\n        /* \"#utility.yul\":9598:9716   */\n      pop\n        /* \"#utility.yul\":9755:9758   */\n      0x80\n        /* \"#utility.yul\":9782:9835   */\n      tag_514\n        /* \"#utility.yul\":9827:9834   */\n      dup9\n        /* \"#utility.yul\":9818:9824   */\n      dup3\n        /* \"#utility.yul\":9807:9816   */\n      dup10\n        /* \"#utility.yul\":9803:9825   */\n      add\n        /* \"#utility.yul\":9782:9835   */\n      tag_319\n      jump\t// in\n    tag_514:\n        /* \"#utility.yul\":9772:9835   */\n      swap2\n      pop\n        /* \"#utility.yul\":9726:9845   */\n      pop\n        /* \"#utility.yul\":8581:9852   */\n      swap3\n      swap6\n      pop\n      swap3\n      swap6\n      swap1\n      swap4\n      pop\n      jump\t// out\n        /* \"#utility.yul\":9858:10080   */\n    tag_112:\n        /* \"#utility.yul\":9951:9955   */\n      0x00\n        /* \"#utility.yul\":9989:9991   */\n      0x20\n        /* \"#utility.yul\":9978:9987   */\n      dup3\n        /* \"#utility.yul\":9974:9992   */\n      add\n        /* \"#utility.yul\":9966:9992   */\n      swap1\n      pop\n        /* \"#utility.yul\":10002:10073   */\n      tag_516\n        /* \"#utility.yul\":10070:10071   */\n      0x00\n        /* \"#utility.yul\":10059:10068   */\n      dup4\n        /* \"#utility.yul\":10055:10072   */\n      add\n        /* \"#utility.yul\":10046:10052   */\n      dup5\n        /* \"#utility.yul\":10002:10073   */\n      tag_323\n      jump\t// in\n    tag_516:\n        /* \"#utility.yul\":9858:10080   */\n      swap3\n      swap2\n      pop\n      pop\n      jump\t// out\n        /* \"#utility.yul\":10086:10750   */\n    tag_117:\n        /* \"#utility.yul\":10291:10295   */\n      0x00\n        /* \"#utility.yul\":10329:10332   */\n      0xa0\n        /* \"#utility.yul\":10318:10327   */\n      dup3\n        /* \"#utility.yul\":10314:10333   */\n      add\n        /* \"#utility.yul\":10306:10333   */\n      swap1\n      pop\n        /* \"#utility.yul\":10343:10414   */\n      tag_518\n        /* \"#utility.yul\":10411:10412   */\n      0x00\n        /* \"#utility.yul\":10400:10409   */\n      dup4\n        /* \"#utility.yul\":10396:10413   */\n      add\n        /* \"#utility.yul\":10387:10393   */\n      dup9\n        /* \"#utility.yul\":10343:10414   */\n      tag_320\n      jump\t// in\n    tag_518:\n        /* \"#utility.yul\":10424:10496   */\n      tag_519\n        /* \"#utility.yul\":10492:10494   */\n      0x20\n        /* \"#utility.yul\":10481:10490   */\n      dup4\n        /* \"#utility.yul\":10477:10495   */\n      add\n        /* \"#utility.yul\":10468:10474   */\n      dup8\n        /* \"#utility.yul\":10424:10496   */\n      tag_320\n      jump\t// in\n    tag_519:\n        /* \"#utility.yul\":10506:10578   */\n      tag_520\n        /* \"#utility.yul\":10574:10576   */\n      0x40\n        /* \"#utility.yul\":10563:10572   */\n      dup4\n        /* \"#utility.yul\":10559:10577   */\n      add\n        /* \"#utility.yul\":10550:10556   */\n      dup7\n        /* \"#utility.yul\":10506:10578   */\n      tag_320\n      jump\t// in\n    tag_520:\n        /* \"#utility.yul\":10588:10660   */\n      tag_521\n        /* \"#utility.yul\":10656:10658   */\n      0x60\n        /* \"#utility.yul\":10645:10654   */\n      dup4\n        /* \"#utility.yul\":10641:10659   */\n      add\n        /* \"#utility.yul\":10632:10638   */\n      dup6\n        /* \"#utility.yul\":10588:10660   */\n      tag_320\n      jump\t// in\n    tag_521:\n        /* \"#utility.yul\":10670:10743   */\n      tag_522\n        /* \"#utility.yul\":10738:10741   */\n      0x80\n        /* \"#utility.yul\":10727:10736   */\n      dup4\n        /* \"#utility.yul\":10723:10742   */\n      add\n        /* \"#utility.yul\":10714:10720   */\n      dup5\n        /* \"#utility.yul\":10670:10743   */\n      tag_320\n      jump\t// in\n    tag_522:\n        /* \"#utility.yul\":10086:10750   */\n      swap7\n      swap6\n      pop\n      pop\n      pop\n      pop\n      pop\n      pop\n      jump\t// out\n        /* \"#utility.yul\":10756:10976   */\n    tag_342:\n        /* \"#utility.yul\":10896:10930   */\n      0x70726f6a65637420686173206e6f74206265656e206372656174656420796574\n        /* \"#utility.yul\":10892:10893   */\n      0x00\n        /* \"#utility.yul\":10884:10890   */\n      dup3\n        /* \"#utility.yul\":10880:10894   */\n      add\n        /* \"#utility.yul\":10873:10931   */\n      mstore\n        /* \"#utility.yul\":10965:10968   */\n      0x2100000000000000000000000000000000000000000000000000000000000000\n        /* \"#utility.yul\":10960:10962   */\n      0x20\n        /* \"#utility.yul\":10952:10958   */\n      dup3\n        /* \"#utility.yul\":10948:10963   */\n      add\n        /* \"#utility.yul\":10941:10969   */\n      mstore\n        /* \"#utility.yul\":10756:10976   */\n      pop\n      jump\t// out\n        /* \"#utility.yul\":10982:11348   */\n    tag_343:\n        /* \"#utility.yul\":11124:11127   */\n      0x00\n        /* \"#utility.yul\":11145:11212   */\n      tag_525\n        /* \"#utility.yul\":11209:11211   */\n      0x21\n        /* \"#utility.yul\":11204:11207   */\n      dup4\n        /* \"#utility.yul\":11145:11212   */\n      tag_325\n      jump\t// in\n    tag_525:\n        /* \"#utility.yul\":11138:11212   */\n      swap2\n      pop\n        /* \"#utility.yul\":11221:11314   */\n      tag_526\n        /* \"#utility.yul\":11310:11313   */\n      dup3\n        /* \"#utility.yul\":11221:11314   */\n      tag_342\n      jump\t// in\n    tag_526:\n        /* \"#utility.yul\":11339:11341   */\n      0x40\n        /* \"#utility.yul\":11334:11337   */\n      dup3\n        /* \"#utility.yul\":11330:11342   */\n      add\n        /* \"#utility.yul\":11323:11342   */\n      swap1\n      pop\n        /* \"#utility.yul\":10982:11348   */\n      swap2\n      swap1\n      pop\n      jump\t// out\n        /* \"#utility.yul\":11354:11773   */\n    tag_125:\n        /* \"#utility.yul\":11520:11524   */\n      0x00\n        /* \"#utility.yul\":11558:11560   */\n      0x20\n        /* \"#utility.yul\":11547:11556   */\n      dup3\n        /* \"#utility.yul\":11543:11561   */\n      add\n        /* \"#utility.yul\":11535:11561   */\n      swap1\n      pop\n        /* \"#utility.yul\":11607:11616   */\n      dup2\n        /* \"#utility.yul\":11601:11605   */\n      dup2\n        /* \"#utility.yul\":11597:11617   */\n      sub\n        /* \"#utility.yul\":11593:11594   */\n      0x00\n        /* \"#utility.yul\":11582:11591   */\n      dup4\n        /* \"#utility.yul\":11578:11595   */\n      add\n        /* \"#utility.yul\":11571:11618   */\n      mstore\n        /* \"#utility.yul\":11635:11766   */\n      tag_528\n        /* \"#utility.yul\":11761:11765   */\n      dup2\n        /* \"#utility.yul\":11635:11766   */\n      tag_343\n      jump\t// in\n    tag_528:\n        /* \"#utility.yul\":11627:11766   */\n      swap1\n      pop\n        /* \"#utility.yul\":11354:11773   */\n      swap2\n      swap1\n      pop\n      jump\t// out\n        /* \"#utility.yul\":11779:11959   */\n    tag_344:\n        /* \"#utility.yul\":11827:11904   */\n      0x4e487b7100000000000000000000000000000000000000000000000000000000\n        /* \"#utility.yul\":11824:11825   */\n      0x00\n        /* \"#utility.yul\":11817:11905   */\n      mstore\n        /* \"#utility.yul\":11924:11928   */\n      0x11\n        /* \"#utility.yul\":11921:11922   */\n      0x04\n        /* \"#utility.yul\":11914:11929   */\n      mstore\n        /* \"#utility.yul\":11948:11952   */\n      0x24\n        /* \"#utility.yul\":11945:11946   */\n      0x00\n        /* \"#utility.yul\":11938:11953   */\n      revert\n        /* \"#utility.yul\":11965:12159   */\n    tag_129:\n        /* \"#utility.yul\":12005:12009   */\n      0x00\n        /* \"#utility.yul\":12025:12045   */\n      tag_531\n        /* \"#utility.yul\":12043:12044   */\n      dup3\n        /* \"#utility.yul\":12025:12045   */\n      tag_317\n      jump\t// in\n    tag_531:\n        /* \"#utility.yul\":12020:12045   */\n      swap2\n      pop\n        /* \"#utility.yul\":12059:12079   */\n      tag_532\n        /* \"#utility.yul\":12077:12078   */\n      dup4\n        /* \"#utility.yul\":12059:12079   */\n      tag_317\n      jump\t// in\n    tag_532:\n        /* \"#utility.yul\":12054:12079   */\n      swap3\n      pop\n        /* \"#utility.yul\":12103:12104   */\n      dup3\n        /* \"#utility.yul\":12100:12101   */\n      dup3\n        /* \"#utility.yul\":12096:12105   */\n      sub\n        /* \"#utility.yul\":12088:12105   */\n      swap1\n      pop\n        /* \"#utility.yul\":12127:12128   */\n      dup2\n        /* \"#utility.yul\":12121:12125   */\n      dup2\n        /* \"#utility.yul\":12118:12129   */\n      gt\n        /* \"#utility.yul\":12115:12152   */\n      iszero\n      tag_533\n      jumpi\n        /* \"#utility.yul\":12132:12150   */\n      tag_534\n      tag_344\n      jump\t// in\n    tag_534:\n        /* \"#utility.yul\":12115:12152   */\n    tag_533:\n        /* \"#utility.yul\":11965:12159   */\n      swap3\n      swap2\n      pop\n      pop\n      jump\t// out\n        /* \"#utility.yul\":12165:12407   */\n    tag_345:\n        /* \"#utility.yul\":12305:12339   */\n      0x446561646c696e65206973206f766572202c20796f752043616e277420636861\n        /* \"#utility.yul\":12301:12302   */\n      0x00\n        /* \"#utility.yul\":12293:12299   */\n      dup3\n        /* \"#utility.yul\":12289:12303   */\n      add\n        /* \"#utility.yul\":12282:12340   */\n      mstore\n        /* \"#utility.yul\":12374:12399   */\n      0x6e6765207468652066756e64696e6720676f616c202121000000000000000000\n        /* \"#utility.yul\":12369:12371   */\n      0x20\n        /* \"#utility.yul\":12361:12367   */\n      dup3\n        /* \"#utility.yul\":12357:12372   */\n      add\n        /* \"#utility.yul\":12350:12400   */\n      mstore\n        /* \"#utility.yul\":12165:12407   */\n      pop\n      jump\t// out\n        /* \"#utility.yul\":12413:12779   */\n    tag_346:\n        /* \"#utility.yul\":12555:12558   */\n      0x00\n        /* \"#utility.yul\":12576:12643   */\n      tag_537\n        /* \"#utility.yul\":12640:12642   */\n      0x37\n        /* \"#utility.yul\":12635:12638   */\n      dup4\n        /* \"#utility.yul\":12576:12643   */\n      tag_325\n      jump\t// in\n    tag_537:\n        /* \"#utility.yul\":12569:12643   */\n      swap2\n      pop\n        /* \"#utility.yul\":12652:12745   */\n      tag_538\n        /* \"#utility.yul\":12741:12744   */\n      dup3\n        /* \"#utility.yul\":12652:12745   */\n      tag_345\n      jump\t// in\n    tag_538:\n        /* \"#utility.yul\":12770:12772   */\n      0x40\n        /* \"#utility.yul\":12765:12768   */\n      dup3\n        /* \"#utility.yul\":12761:12773   */\n      add\n        /* \"#utility.yul\":12754:12773   */\n      swap1\n      pop\n        /* \"#utility.yul\":12413:12779   */\n      swap2\n      swap1\n      pop\n      jump\t// out\n        /* \"#utility.yul\":12785:13204   */\n    tag_133:\n        /* \"#utility.yul\":12951:12955   */\n      0x00\n        /* \"#utility.yul\":12989:12991   */\n      0x20\n        /* \"#utility.yul\":12978:12987   */\n      dup3\n        /* \"#utility.yul\":12974:12992   */\n      add\n        /* \"#utility.yul\":12966:12992   */\n      swap1\n      pop\n        /* \"#utility.yul\":13038:13047   */\n      dup2\n        /* \"#utility.yul\":13032:13036   */\n      dup2\n        /* \"#utility.yul\":13028:13048   */\n      sub\n        /* \"#utility.yul\":13024:13025   */\n      0x00\n        /* \"#utility.yul\":13013:13022   */\n      dup4\n        /* \"#utility.yul\":13009:13026   */\n      add\n        /* \"#utility.yul\":13002:13049   */\n      mstore\n        /* \"#utility.yul\":13066:13197   */\n      tag_540\n        /* \"#utility.yul\":13192:13196   */\n      dup2\n        /* \"#utility.yul\":13066:13197   */\n      tag_346\n      jump\t// in\n    tag_540:\n        /* \"#utility.yul\":13058:13197   */\n      swap1\n      pop\n        /* \"#utility.yul\":12785:13204   */\n      swap2\n      swap1\n      pop\n      jump\t// out\n        /* \"#utility.yul\":13210:13502   */\n    tag_347:\n        /* \"#utility.yul\":13350:13384   */\n      0x596f7520617265206e6f74207468652070726f6a6563742063726561746f7220\n        /* \"#utility.yul\":13346:13347   */\n      0x00\n        /* \"#utility.yul\":13338:13344   */\n      dup3\n        /* \"#utility.yul\":13334:13348   */\n      add\n        /* \"#utility.yul\":13327:13385   */\n      mstore\n        /* \"#utility.yul\":13419:13453   */\n      0x2c204f6e6c7920506f726a6563742063726561746f722063616e204368616e67\n        /* \"#utility.yul\":13414:13416   */\n      0x20\n        /* \"#utility.yul\":13406:13412   */\n      dup3\n        /* \"#utility.yul\":13402:13417   */\n      add\n        /* \"#utility.yul\":13395:13454   */\n      mstore\n        /* \"#utility.yul\":13488:13494   */\n      0x6520212100000000000000000000000000000000000000000000000000000000\n        /* \"#utility.yul\":13483:13485   */\n      0x40\n        /* \"#utility.yul\":13475:13481   */\n      dup3\n        /* \"#utility.yul\":13471:13486   */\n      add\n        /* \"#utility.yul\":13464:13495   */\n      mstore\n        /* \"#utility.yul\":13210:13502   */\n      pop\n      jump\t// out\n        /* \"#utility.yul\":13508:13874   */\n    tag_348:\n        /* \"#utility.yul\":13650:13653   */\n      0x00\n        /* \"#utility.yul\":13671:13738   */\n      tag_543\n        /* \"#utility.yul\":13735:13737   */\n      0x44\n        /* \"#utility.yul\":13730:13733   */\n      dup4\n        /* \"#utility.yul\":13671:13738   */\n      tag_325\n      jump\t// in\n    tag_543:\n        /* \"#utility.yul\":13664:13738   */\n      swap2\n      pop\n        /* \"#utility.yul\":13747:13840   */\n      tag_544\n        /* \"#utility.yul\":13836:13839   */\n      dup3\n        /* \"#utility.yul\":13747:13840   */\n      tag_347\n      jump\t// in\n    tag_544:\n        /* \"#utility.yul\":13865:13867   */\n      0x60\n        /* \"#utility.yul\":13860:13863   */\n      dup3\n        /* \"#utility.yul\":13856:13868   */\n      add\n        /* \"#utility.yul\":13849:13868   */\n      swap1\n      pop\n        /* \"#utility.yul\":13508:13874   */\n      swap2\n      swap1\n      pop\n      jump\t// out\n        /* \"#utility.yul\":13880:14299   */\n    tag_136:\n        /* \"#utility.yul\":14046:14050   */\n      0x00\n        /* \"#utility.yul\":14084:14086   */\n      0x20\n        /* \"#utility.yul\":14073:14082   */\n      dup3\n        /* \"#utility.yul\":14069:14087   */\n      add\n        /* \"#utility.yul\":14061:14087   */\n      swap1\n      pop\n        /* \"#utility.yul\":14133:14142   */\n      dup2\n        /* \"#utility.yul\":14127:14131   */\n      dup2\n        /* \"#utility.yul\":14123:14143   */\n      sub\n        /* \"#utility.yul\":14119:14120   */\n      0x00\n        /* \"#utility.yul\":14108:14117   */\n      dup4\n        /* \"#utility.yul\":14104:14121   */\n      add\n        /* \"#utility.yul\":14097:14144   */\n      mstore\n        /* \"#utility.yul\":14161:14292   */\n      tag_546\n        /* \"#utility.yul\":14287:14291   */\n      dup2\n        /* \"#utility.yul\":14161:14292   */\n      tag_348\n      jump\t// in\n    tag_546:\n        /* \"#utility.yul\":14153:14292   */\n      swap1\n      pop\n        /* \"#utility.yul\":13880:14299   */\n      swap2\n      swap1\n      pop\n      jump\t// out\n        /* \"#utility.yul\":14305:14485   */\n    tag_349:\n        /* \"#utility.yul\":14353:14430   */\n      0x4e487b7100000000000000000000000000000000000000000000000000000000\n        /* \"#utility.yul\":14350:14351   */\n      0x00\n        /* \"#utility.yul\":14343:14431   */\n      mstore\n        /* \"#utility.yul\":14450:14454   */\n      0x22\n        /* \"#utility.yul\":14447:14448   */\n      0x04\n        /* \"#utility.yul\":14440:14455   */\n      mstore\n        /* \"#utility.yul\":14474:14478   */\n      0x24\n        /* \"#utility.yul\":14471:14472   */\n      0x00\n        /* \"#utility.yul\":14464:14479   */\n      revert\n        /* \"#utility.yul\":14491:14811   */\n    tag_138:\n        /* \"#utility.yul\":14535:14541   */\n      0x00\n        /* \"#utility.yul\":14572:14573   */\n      0x02\n        /* \"#utility.yul\":14566:14570   */\n      dup3\n        /* \"#utility.yul\":14562:14574   */\n      div\n        /* \"#utility.yul\":14552:14574   */\n      swap1\n      pop\n        /* \"#utility.yul\":14619:14620   */\n      0x01\n        /* \"#utility.yul\":14613:14617   */\n      dup3\n        /* \"#utility.yul\":14609:14621   */\n      and\n        /* \"#utility.yul\":14640:14658   */\n      dup1\n        /* \"#utility.yul\":14630:14711   */\n      tag_549\n      jumpi\n        /* \"#utility.yul\":14696:14700   */\n      0x7f\n        /* \"#utility.yul\":14688:14694   */\n      dup3\n        /* \"#utility.yul\":14684:14701   */\n      and\n        /* \"#utility.yul\":14674:14701   */\n      swap2\n      pop\n        /* \"#utility.yul\":14630:14711   */\n    tag_549:\n        /* \"#utility.yul\":14758:14760   */\n      0x20\n        /* \"#utility.yul\":14750:14756   */\n      dup3\n        /* \"#utility.yul\":14747:14761   */\n      lt\n        /* \"#utility.yul\":14727:14745   */\n      dup2\n        /* \"#utility.yul\":14724:14762   */\n      sub\n        /* \"#utility.yul\":14721:14805   */\n      tag_550\n      jumpi\n        /* \"#utility.yul\":14777:14795   */\n      tag_551\n      tag_349\n      jump\t// in\n    tag_551:\n        /* \"#utility.yul\":14721:14805   */\n    tag_550:\n        /* \"#utility.yul\":14542:14811   */\n      pop\n        /* \"#utility.yul\":14491:14811   */\n      swap2\n      swap1\n      pop\n      jump\t// out\n        /* \"#utility.yul\":14817:15050   */\n    tag_350:\n        /* \"#utility.yul\":14957:14991   */\n      0x46756e64696e6720676f616c206861732072656163686564202c207573657220\n        /* \"#utility.yul\":14953:14954   */\n      0x00\n        /* \"#utility.yul\":14945:14951   */\n      dup3\n        /* \"#utility.yul\":14941:14955   */\n      add\n        /* \"#utility.yul\":14934:14992   */\n      mstore\n        /* \"#utility.yul\":15026:15042   */\n      0x63616e2774207769746864726177000000000000000000000000000000000000\n        /* \"#utility.yul\":15021:15023   */\n      0x20\n        /* \"#utility.yul\":15013:15019   */\n      dup3\n        /* \"#utility.yul\":15009:15024   */\n      add\n        /* \"#utility.yul\":15002:15043   */\n      mstore\n        /* \"#utility.yul\":14817:15050   */\n      pop\n      jump\t// out\n        /* \"#utility.yul\":15056:15422   */\n    tag_351:\n        /* \"#utility.yul\":15198:15201   */\n      0x00\n        /* \"#utility.yul\":15219:15286   */\n      tag_554\n        /* \"#utility.yul\":15283:15285   */\n      0x2e\n        /* \"#utility.yul\":15278:15281   */\n      dup4\n        /* \"#utility.yul\":15219:15286   */\n      tag_325\n      jump\t// in\n    tag_554:\n        /* \"#utility.yul\":15212:15286   */\n      swap2\n      pop\n        /* \"#utility.yul\":15295:15388   */\n      tag_555\n        /* \"#utility.yul\":15384:15387   */\n      dup3\n        /* \"#utility.yul\":15295:15388   */\n      tag_350\n      jump\t// in\n    tag_555:\n        /* \"#utility.yul\":15413:15415   */\n      0x40\n        /* \"#utility.yul\":15408:15411   */\n      dup3\n        /* \"#utility.yul\":15404:15416   */\n      add\n        /* \"#utility.yul\":15397:15416   */\n      swap1\n      pop\n        /* \"#utility.yul\":15056:15422   */\n      swap2\n      swap1\n      pop\n      jump\t// out\n        /* \"#utility.yul\":15428:15847   */\n    tag_155:\n        /* \"#utility.yul\":15594:15598   */\n      0x00\n        /* \"#utility.yul\":15632:15634   */\n      0x20\n        /* \"#utility.yul\":15621:15630   */\n      dup3\n        /* \"#utility.yul\":15617:15635   */\n      add\n        /* \"#utility.yul\":15609:15635   */\n      swap1\n      pop\n        /* \"#utility.yul\":15681:15690   */\n      dup2\n        /* \"#utility.yul\":15675:15679   */\n      dup2\n        /* \"#utility.yul\":15671:15691   */\n      sub\n        /* \"#utility.yul\":15667:15668   */\n      0x00\n        /* \"#utility.yul\":15656:15665   */\n      dup4\n        /* \"#utility.yul\":15652:15669   */\n      add\n        /* \"#utility.yul\":15645:15692   */\n      mstore\n        /* \"#utility.yul\":15709:15840   */\n      tag_557\n        /* \"#utility.yul\":15835:15839   */\n      dup2\n        /* \"#utility.yul\":15709:15840   */\n      tag_351\n      jump\t// in\n    tag_557:\n        /* \"#utility.yul\":15701:15840   */\n      swap1\n      pop\n        /* \"#utility.yul\":15428:15847   */\n      swap2\n      swap1\n      pop\n      jump\t// out\n        /* \"#utility.yul\":15853:16023   */\n    tag_352:\n        /* \"#utility.yul\":15993:16015   */\n      0x4e6f2066756e647320746f207769746864726177000000000000000000000000\n        /* \"#utility.yul\":15989:15990   */\n      0x00\n        /* \"#utility.yul\":15981:15987   */\n      dup3\n        /* \"#utility.yul\":15977:15991   */\n      add\n        /* \"#utility.yul\":15970:16016   */\n      mstore\n        /* \"#utility.yul\":15853:16023   */\n      pop\n      jump\t// out\n        /* \"#utility.yul\":16029:16395   */\n    tag_353:\n        /* \"#utility.yul\":16171:16174   */\n      0x00\n        /* \"#utility.yul\":16192:16259   */\n      tag_560\n        /* \"#utility.yul\":16256:16258   */\n      0x14\n        /* \"#utility.yul\":16251:16254   */\n      dup4\n        /* \"#utility.yul\":16192:16259   */\n      tag_325\n      jump\t// in\n    tag_560:\n        /* \"#utility.yul\":16185:16259   */\n      swap2\n      pop\n        /* \"#utility.yul\":16268:16361   */\n      tag_561\n        /* \"#utility.yul\":16357:16360   */\n      dup3\n        /* \"#utility.yul\":16268:16361   */\n      tag_352\n      jump\t// in\n    tag_561:\n        /* \"#utility.yul\":16386:16388   */\n      0x20\n        /* \"#utility.yul\":16381:16384   */\n      dup3\n        /* \"#utility.yul\":16377:16389   */\n      add\n        /* \"#utility.yul\":16370:16389   */\n      swap1\n      pop\n        /* \"#utility.yul\":16029:16395   */\n      swap2\n      swap1\n      pop\n      jump\t// out\n        /* \"#utility.yul\":16401:16820   */\n    tag_158:\n        /* \"#utility.yul\":16567:16571   */\n      0x00\n        /* \"#utility.yul\":16605:16607   */\n      0x20\n        /* \"#utility.yul\":16594:16603   */\n      dup3\n        /* \"#utility.yul\":16590:16608   */\n      add\n        /* \"#utility.yul\":16582:16608   */\n      swap1\n      pop\n        /* \"#utility.yul\":16654:16663   */\n      dup2\n        /* \"#utility.yul\":16648:16652   */\n      dup2\n        /* \"#utility.yul\":16644:16664   */\n      sub\n        /* \"#utility.yul\":16640:16641   */\n      0x00\n        /* \"#utility.yul\":16629:16638   */\n      dup4\n        /* \"#utility.yul\":16625:16642   */\n      add\n        /* \"#utility.yul\":16618:16665   */\n      mstore\n        /* \"#utility.yul\":16682:16813   */\n      tag_563\n        /* \"#utility.yul\":16808:16812   */\n      dup2\n        /* \"#utility.yul\":16682:16813   */\n      tag_353\n      jump\t// in\n    tag_563:\n        /* \"#utility.yul\":16674:16813   */\n      swap1\n      pop\n        /* \"#utility.yul\":16401:16820   */\n      swap2\n      swap1\n      pop\n      jump\t// out\n        /* \"#utility.yul\":16826:16997   */\n    tag_166:\n        /* \"#utility.yul\":16865:16868   */\n      0x00\n        /* \"#utility.yul\":16888:16912   */\n      tag_565\n        /* \"#utility.yul\":16906:16911   */\n      dup3\n        /* \"#utility.yul\":16888:16912   */\n      tag_317\n      jump\t// in\n    tag_565:\n        /* \"#utility.yul\":16879:16912   */\n      swap2\n      pop\n        /* \"#utility.yul\":16934:16938   */\n      0x00\n        /* \"#utility.yul\":16927:16932   */\n      dup3\n        /* \"#utility.yul\":16924:16939   */\n      sub\n        /* \"#utility.yul\":16921:16962   */\n      tag_566\n      jumpi\n        /* \"#utility.yul\":16942:16960   */\n      tag_567\n      tag_344\n      jump\t// in\n    tag_567:\n        /* \"#utility.yul\":16921:16962   */\n    tag_566:\n        /* \"#utility.yul\":16989:16990   */\n      0x01\n        /* \"#utility.yul\":16982:16987   */\n      dup3\n        /* \"#utility.yul\":16978:16991   */\n      sub\n        /* \"#utility.yul\":16971:16991   */\n      swap1\n      pop\n        /* \"#utility.yul\":16826:16997   */\n      swap2\n      swap1\n      pop\n      jump\t// out\n        /* \"#utility.yul\":17003:17150   */\n    tag_354:\n        /* \"#utility.yul\":17104:17115   */\n      0x00\n        /* \"#utility.yul\":17141:17144   */\n      dup2\n        /* \"#utility.yul\":17126:17144   */\n      swap1\n      pop\n        /* \"#utility.yul\":17003:17150   */\n      swap3\n      swap2\n      pop\n      pop\n      jump\t// out\n        /* \"#utility.yul\":17156:17270   */\n    tag_355:\n      pop\n      jump\t// out\n        /* \"#utility.yul\":17276:17674   */\n    tag_356:\n        /* \"#utility.yul\":17435:17438   */\n      0x00\n        /* \"#utility.yul\":17456:17539   */\n      tag_571\n        /* \"#utility.yul\":17537:17538   */\n      0x00\n        /* \"#utility.yul\":17532:17535   */\n      dup4\n        /* \"#utility.yul\":17456:17539   */\n      tag_354\n      jump\t// in\n    tag_571:\n        /* \"#utility.yul\":17449:17539   */\n      swap2\n      pop\n        /* \"#utility.yul\":17548:17641   */\n      tag_572\n        /* \"#utility.yul\":17637:17640   */\n      dup3\n        /* \"#utility.yul\":17548:17641   */\n      tag_355\n      jump\t// in\n    tag_572:\n        /* \"#utility.yul\":17666:17667   */\n      0x00\n        /* \"#utility.yul\":17661:17664   */\n      dup3\n        /* \"#utility.yul\":17657:17668   */\n      add\n        /* \"#utility.yul\":17650:17668   */\n      swap1\n      pop\n        /* \"#utility.yul\":17276:17674   */\n      swap2\n      swap1\n      pop\n      jump\t// out\n        /* \"#utility.yul\":17680:18059   */\n    tag_168:\n        /* \"#utility.yul\":17864:17867   */\n      0x00\n        /* \"#utility.yul\":17886:18033   */\n      tag_574\n        /* \"#utility.yul\":18029:18032   */\n      dup3\n        /* \"#utility.yul\":17886:18033   */\n      tag_356\n      jump\t// in\n    tag_574:\n        /* \"#utility.yul\":17879:18033   */\n      swap2\n      pop\n        /* \"#utility.yul\":18050:18053   */\n      dup2\n        /* \"#utility.yul\":18043:18053   */\n      swap1\n      pop\n        /* \"#utility.yul\":17680:18059   */\n      swap2\n      swap1\n      pop\n      jump\t// out\n        /* \"#utility.yul\":18065:18232   */\n    tag_357:\n        /* \"#utility.yul\":18205:18224   */\n      0x5769746864726177616c204661696c6564000000000000000000000000000000\n        /* \"#utility.yul\":18201:18202   */\n      0x00\n        /* \"#utility.yul\":18193:18199   */\n      dup3\n        /* \"#utility.yul\":18189:18203   */\n      add\n        /* \"#utility.yul\":18182:18225   */\n      mstore\n        /* \"#utility.yul\":18065:18232   */\n      pop\n      jump\t// out\n        /* \"#utility.yul\":18238:18604   */\n    tag_358:\n        /* \"#utility.yul\":18380:18383   */\n      0x00\n        /* \"#utility.yul\":18401:18468   */\n      tag_577\n        /* \"#utility.yul\":18465:18467   */\n      0x11\n        /* \"#utility.yul\":18460:18463   */\n      dup4\n        /* \"#utility.yul\":18401:18468   */\n      tag_325\n      jump\t// in\n    tag_577:\n        /* \"#utility.yul\":18394:18468   */\n      swap2\n      pop\n        /* \"#utility.yul\":18477:18570   */\n      tag_578\n        /* \"#utility.yul\":18566:18569   */\n      dup3\n        /* \"#utility.yul\":18477:18570   */\n      tag_357\n      jump\t// in\n    tag_578:\n        /* \"#utility.yul\":18595:18597   */\n      0x20\n        /* \"#utility.yul\":18590:18593   */\n      dup3\n        /* \"#utility.yul\":18586:18598   */\n      add\n        /* \"#utility.yul\":18579:18598   */\n      swap1\n      pop\n        /* \"#utility.yul\":18238:18604   */\n      swap2\n      swap1\n      pop\n      jump\t// out\n        /* \"#utility.yul\":18610:19029   */\n    tag_174:\n        /* \"#utility.yul\":18776:18780   */\n      0x00\n        /* \"#utility.yul\":18814:18816   */\n      0x20\n        /* \"#utility.yul\":18803:18812   */\n      dup3\n        /* \"#utility.yul\":18799:18817   */\n      add\n        /* \"#utility.yul\":18791:18817   */\n      swap1\n      pop\n        /* \"#utility.yul\":18863:18872   */\n      dup2\n        /* \"#utility.yul\":18857:18861   */\n      dup2\n        /* \"#utility.yul\":18853:18873   */\n      sub\n        /* \"#utility.yul\":18849:18850   */\n      0x00\n        /* \"#utility.yul\":18838:18847   */\n      dup4\n        /* \"#utility.yul\":18834:18851   */\n      add\n        /* \"#utility.yul\":18827:18874   */\n      mstore\n        /* \"#utility.yul\":18891:19022   */\n      tag_580\n        /* \"#utility.yul\":19017:19021   */\n      dup2\n        /* \"#utility.yul\":18891:19022   */\n      tag_358\n      jump\t// in\n    tag_580:\n        /* \"#utility.yul\":18883:19022   */\n      swap1\n      pop\n        /* \"#utility.yul\":18610:19029   */\n      swap2\n      swap1\n      pop\n      jump\t// out\n        /* \"#utility.yul\":19035:19367   */\n    tag_176:\n        /* \"#utility.yul\":19156:19160   */\n      0x00\n        /* \"#utility.yul\":19194:19196   */\n      0x40\n        /* \"#utility.yul\":19183:19192   */\n      dup3\n        /* \"#utility.yul\":19179:19197   */\n      add\n        /* \"#utility.yul\":19171:19197   */\n      swap1\n      pop\n        /* \"#utility.yul\":19207:19278   */\n      tag_582\n        /* \"#utility.yul\":19275:19276   */\n      0x00\n        /* \"#utility.yul\":19264:19273   */\n      dup4\n        /* \"#utility.yul\":19260:19277   */\n      add\n        /* \"#utility.yul\":19251:19257   */\n      dup6\n        /* \"#utility.yul\":19207:19278   */\n      tag_323\n      jump\t// in\n    tag_582:\n        /* \"#utility.yul\":19288:19360   */\n      tag_583\n        /* \"#utility.yul\":19356:19358   */\n      0x20\n        /* \"#utility.yul\":19345:19354   */\n      dup4\n        /* \"#utility.yul\":19341:19359   */\n      add\n        /* \"#utility.yul\":19332:19338   */\n      dup5\n        /* \"#utility.yul\":19288:19360   */\n      tag_320\n      jump\t// in\n    tag_583:\n        /* \"#utility.yul\":19035:19367   */\n      swap4\n      swap3\n      pop\n      pop\n      pop\n      jump\t// out\n        /* \"#utility.yul\":19373:19783   */\n    tag_179:\n        /* \"#utility.yul\":19413:19420   */\n      0x00\n        /* \"#utility.yul\":19436:19456   */\n      tag_585\n        /* \"#utility.yul\":19454:19455   */\n      dup3\n        /* \"#utility.yul\":19436:19456   */\n      tag_317\n      jump\t// in\n    tag_585:\n        /* \"#utility.yul\":19431:19456   */\n      swap2\n      pop\n        /* \"#utility.yul\":19470:19490   */\n      tag_586\n        /* \"#utility.yul\":19488:19489   */\n      dup4\n        /* \"#utility.yul\":19470:19490   */\n      tag_317\n      jump\t// in\n    tag_586:\n        /* \"#utility.yul\":19465:19490   */\n      swap3\n      pop\n        /* \"#utility.yul\":19525:19526   */\n      dup3\n        /* \"#utility.yul\":19522:19523   */\n      dup3\n        /* \"#utility.yul\":19518:19527   */\n      mul\n        /* \"#utility.yul\":19547:19577   */\n      tag_587\n        /* \"#utility.yul\":19565:19576   */\n      dup2\n        /* \"#utility.yul\":19547:19577   */\n      tag_317\n      jump\t// in\n    tag_587:\n        /* \"#utility.yul\":19536:19577   */\n      swap2\n      pop\n        /* \"#utility.yul\":19726:19727   */\n      dup3\n        /* \"#utility.yul\":19717:19724   */\n      dup3\n        /* \"#utility.yul\":19713:19728   */\n      div\n        /* \"#utility.yul\":19710:19711   */\n      dup5\n        /* \"#utility.yul\":19707:19729   */\n      eq\n        /* \"#utility.yul\":19687:19688   */\n      dup4\n        /* \"#utility.yul\":19680:19689   */\n      iszero\n        /* \"#utility.yul\":19660:19743   */\n      or\n        /* \"#utility.yul\":19637:19776   */\n      tag_588\n      jumpi\n        /* \"#utility.yul\":19756:19774   */\n      tag_589\n      tag_344\n      jump\t// in\n    tag_589:\n        /* \"#utility.yul\":19637:19776   */\n    tag_588:\n        /* \"#utility.yul\":19421:19783   */\n      pop\n        /* \"#utility.yul\":19373:19783   */\n      swap3\n      swap2\n      pop\n      pop\n      jump\t// out\n        /* \"#utility.yul\":19789:19969   */\n    tag_359:\n        /* \"#utility.yul\":19837:19914   */\n      0x4e487b7100000000000000000000000000000000000000000000000000000000\n        /* \"#utility.yul\":19834:19835   */\n      0x00\n        /* \"#utility.yul\":19827:19915   */\n      mstore\n        /* \"#utility.yul\":19934:19938   */\n      0x12\n        /* \"#utility.yul\":19931:19932   */\n      0x04\n        /* \"#utility.yul\":19924:19939   */\n      mstore\n        /* \"#utility.yul\":19958:19962   */\n      0x24\n        /* \"#utility.yul\":19955:19956   */\n      0x00\n        /* \"#utility.yul\":19948:19963   */\n      revert\n        /* \"#utility.yul\":19975:20160   */\n    tag_181:\n        /* \"#utility.yul\":20015:20016   */\n      0x00\n        /* \"#utility.yul\":20032:20052   */\n      tag_592\n        /* \"#utility.yul\":20050:20051   */\n      dup3\n        /* \"#utility.yul\":20032:20052   */\n      tag_317\n      jump\t// in\n    tag_592:\n        /* \"#utility.yul\":20027:20052   */\n      swap2\n      pop\n        /* \"#utility.yul\":20066:20086   */\n      tag_593\n        /* \"#utility.yul\":20084:20085   */\n      dup4\n        /* \"#utility.yul\":20066:20086   */\n      tag_317\n      jump\t// in\n    tag_593:\n        /* \"#utility.yul\":20061:20086   */\n      swap3\n      pop\n        /* \"#utility.yul\":20105:20106   */\n      dup3\n        /* \"#utility.yul\":20095:20130   */\n      tag_594\n      jumpi\n        /* \"#utility.yul\":20110:20128   */\n      tag_595\n      tag_359\n      jump\t// in\n    tag_595:\n        /* \"#utility.yul\":20095:20130   */\n    tag_594:\n        /* \"#utility.yul\":20152:20153   */\n      dup3\n        /* \"#utility.yul\":20149:20150   */\n      dup3\n        /* \"#utility.yul\":20145:20154   */\n      div\n        /* \"#utility.yul\":20140:20154   */\n      swap1\n      pop\n        /* \"#utility.yul\":19975:20160   */\n      swap3\n      swap2\n      pop\n      pop\n      jump\t// out\n        /* \"#utility.yul\":20166:20399   */\n    tag_360:\n        /* \"#utility.yul\":20306:20340   */\n      0x4f6e6c792050726f6a6563742063726561746f722063616e20657874656e6420\n        /* \"#utility.yul\":20302:20303   */\n      0x00\n        /* \"#utility.yul\":20294:20300   */\n      dup3\n        /* \"#utility.yul\":20290:20304   */\n      add\n        /* \"#utility.yul\":20283:20341   */\n      mstore\n        /* \"#utility.yul\":20375:20391   */\n      0x74686520646561646c696e652121000000000000000000000000000000000000\n        /* \"#utility.yul\":20370:20372   */\n      0x20\n        /* \"#utility.yul\":20362:20368   */\n      dup3\n        /* \"#utility.yul\":20358:20373   */\n      add\n        /* \"#utility.yul\":20351:20392   */\n      mstore\n        /* \"#utility.yul\":20166:20399   */\n      pop\n      jump\t// out\n        /* \"#utility.yul\":20405:20771   */\n    tag_361:\n        /* \"#utility.yul\":20547:20550   */\n      0x00\n        /* \"#utility.yul\":20568:20635   */\n      tag_598\n        /* \"#utility.yul\":20632:20634   */\n      0x2e\n        /* \"#utility.yul\":20627:20630   */\n      dup4\n        /* \"#utility.yul\":20568:20635   */\n      tag_325\n      jump\t// in\n    tag_598:\n        /* \"#utility.yul\":20561:20635   */\n      swap2\n      pop\n        /* \"#utility.yul\":20644:20737   */\n      tag_599\n        /* \"#utility.yul\":20733:20736   */\n      dup3\n        /* \"#utility.yul\":20644:20737   */\n      tag_360\n      jump\t// in\n    tag_599:\n        /* \"#utility.yul\":20762:20764   */\n      0x40\n        /* \"#utility.yul\":20757:20760   */\n      dup3\n        /* \"#utility.yul\":20753:20765   */\n      add\n        /* \"#utility.yul\":20746:20765   */\n      swap1\n      pop\n        /* \"#utility.yul\":20405:20771   */\n      swap2\n      swap1\n      pop\n      jump\t// out\n        /* \"#utility.yul\":20777:21196   */\n    tag_187:\n        /* \"#utility.yul\":20943:20947   */\n      0x00\n        /* \"#utility.yul\":20981:20983   */\n      0x20\n        /* \"#utility.yul\":20970:20979   */\n      dup3\n        /* \"#utility.yul\":20966:20984   */\n      add\n        /* \"#utility.yul\":20958:20984   */\n      swap1\n      pop\n        /* \"#utility.yul\":21030:21039   */\n      dup2\n        /* \"#utility.yul\":21024:21028   */\n      dup2\n        /* \"#utility.yul\":21020:21040   */\n      sub\n        /* \"#utility.yul\":21016:21017   */\n      0x00\n        /* \"#utility.yul\":21005:21014   */\n      dup4\n        /* \"#utility.yul\":21001:21018   */\n      add\n        /* \"#utility.yul\":20994:21041   */\n      mstore\n        /* \"#utility.yul\":21058:21189   */\n      tag_601\n        /* \"#utility.yul\":21184:21188   */\n      dup2\n        /* \"#utility.yul\":21058:21189   */\n      tag_361\n      jump\t// in\n    tag_601:\n        /* \"#utility.yul\":21050:21189   */\n      swap1\n      pop\n        /* \"#utility.yul\":20777:21196   */\n      swap2\n      swap1\n      pop\n      jump\t// out\n        /* \"#utility.yul\":21202:21393   */\n    tag_189:\n        /* \"#utility.yul\":21242:21245   */\n      0x00\n        /* \"#utility.yul\":21261:21281   */\n      tag_603\n        /* \"#utility.yul\":21279:21280   */\n      dup3\n        /* \"#utility.yul\":21261:21281   */\n      tag_317\n      jump\t// in\n    tag_603:\n        /* \"#utility.yul\":21256:21281   */\n      swap2\n      pop\n        /* \"#utility.yul\":21295:21315   */\n      tag_604\n        /* \"#utility.yul\":21313:21314   */\n      dup4\n        /* \"#utility.yul\":21295:21315   */\n      tag_317\n      jump\t// in\n    tag_604:\n        /* \"#utility.yul\":21290:21315   */\n      swap3\n      pop\n        /* \"#utility.yul\":21338:21339   */\n      dup3\n        /* \"#utility.yul\":21335:21336   */\n      dup3\n        /* \"#utility.yul\":21331:21340   */\n      add\n        /* \"#utility.yul\":21324:21340   */\n      swap1\n      pop\n        /* \"#utility.yul\":21359:21362   */\n      dup1\n        /* \"#utility.yul\":21356:21357   */\n      dup3\n        /* \"#utility.yul\":21353:21363   */\n      gt\n        /* \"#utility.yul\":21350:21386   */\n      iszero\n      tag_605\n      jumpi\n        /* \"#utility.yul\":21366:21384   */\n      tag_606\n      tag_344\n      jump\t// in\n    tag_606:\n        /* \"#utility.yul\":21350:21386   */\n    tag_605:\n        /* \"#utility.yul\":21202:21393   */\n      swap3\n      swap2\n      pop\n      pop\n      jump\t// out\n        /* \"#utility.yul\":21399:21574   */\n    tag_362:\n        /* \"#utility.yul\":21539:21566   */\n      0x50726f6a65637420646561646c696e65206973206f7665722100000000000000\n        /* \"#utility.yul\":21535:21536   */\n      0x00\n        /* \"#utility.yul\":21527:21533   */\n      dup3\n        /* \"#utility.yul\":21523:21537   */\n      add\n        /* \"#utility.yul\":21516:21567   */\n      mstore\n        /* \"#utility.yul\":21399:21574   */\n      pop\n      jump\t// out\n        /* \"#utility.yul\":21580:21946   */\n    tag_363:\n        /* \"#utility.yul\":21722:21725   */\n      0x00\n        /* \"#utility.yul\":21743:21810   */\n      tag_609\n        /* \"#utility.yul\":21807:21809   */\n      0x19\n        /* \"#utility.yul\":21802:21805   */\n      dup4\n        /* \"#utility.yul\":21743:21810   */\n      tag_325\n      jump\t// in\n    tag_609:\n        /* \"#utility.yul\":21736:21810   */\n      swap2\n      pop\n        /* \"#utility.yul\":21819:21912   */\n      tag_610\n        /* \"#utility.yul\":21908:21911   */\n      dup3\n        /* \"#utility.yul\":21819:21912   */\n      tag_362\n      jump\t// in\n    tag_610:\n        /* \"#utility.yul\":21937:21939   */\n      0x20\n        /* \"#utility.yul\":21932:21935   */\n      dup3\n        /* \"#utility.yul\":21928:21940   */\n      add\n        /* \"#utility.yul\":21921:21940   */\n      swap1\n      pop\n        /* \"#utility.yul\":21580:21946   */\n      swap2\n      swap1\n      pop\n      jump\t// out\n        /* \"#utility.yul\":21952:22371   */\n    tag_196:\n        /* \"#utility.yul\":22118:22122   */\n      0x00\n        /* \"#utility.yul\":22156:22158   */\n      0x20\n        /* \"#utility.yul\":22145:22154   */\n      dup3\n        /* \"#utility.yul\":22141:22159   */\n      add\n        /* \"#utility.yul\":22133:22159   */\n      swap1\n      pop\n        /* \"#utility.yul\":22205:22214   */\n      dup2\n        /* \"#utility.yul\":22199:22203   */\n      dup2\n        /* \"#utility.yul\":22195:22215   */\n      sub\n        /* \"#utility.yul\":22191:22192   */\n      0x00\n        /* \"#utility.yul\":22180:22189   */\n      dup4\n        /* \"#utility.yul\":22176:22193   */\n      add\n        /* \"#utility.yul\":22169:22216   */\n      mstore\n        /* \"#utility.yul\":22233:22364   */\n      tag_612\n        /* \"#utility.yul\":22359:22363   */\n      dup2\n        /* \"#utility.yul\":22233:22364   */\n      tag_363\n      jump\t// in\n    tag_612:\n        /* \"#utility.yul\":22225:22364   */\n      swap1\n      pop\n        /* \"#utility.yul\":21952:22371   */\n      swap2\n      swap1\n      pop\n      jump\t// out\n        /* \"#utility.yul\":22377:22603   */\n    tag_364:\n        /* \"#utility.yul\":22517:22551   */\n      0x50726f6a6563742052656163686564206974732046756e64696e672072657175\n        /* \"#utility.yul\":22513:22514   */\n      0x00\n        /* \"#utility.yul\":22505:22511   */\n      dup3\n        /* \"#utility.yul\":22501:22515   */\n      add\n        /* \"#utility.yul\":22494:22552   */\n      mstore\n        /* \"#utility.yul\":22586:22595   */\n      0x6972656d656e7400000000000000000000000000000000000000000000000000\n        /* \"#utility.yul\":22581:22583   */\n      0x20\n        /* \"#utility.yul\":22573:22579   */\n      dup3\n        /* \"#utility.yul\":22569:22584   */\n      add\n        /* \"#utility.yul\":22562:22596   */\n      mstore\n        /* \"#utility.yul\":22377:22603   */\n      pop\n      jump\t// out\n        /* \"#utility.yul\":22609:22975   */\n    tag_365:\n        /* \"#utility.yul\":22751:22754   */\n      0x00\n        /* \"#utility.yul\":22772:22839   */\n      tag_615\n        /* \"#utility.yul\":22836:22838   */\n      0x27\n        /* \"#utility.yul\":22831:22834   */\n      dup4\n        /* \"#utility.yul\":22772:22839   */\n      tag_325\n      jump\t// in\n    tag_615:\n        /* \"#utility.yul\":22765:22839   */\n      swap2\n      pop\n        /* \"#utility.yul\":22848:22941   */\n      tag_616\n        /* \"#utility.yul\":22937:22940   */\n      dup3\n        /* \"#utility.yul\":22848:22941   */\n      tag_364\n      jump\t// in\n    tag_616:\n        /* \"#utility.yul\":22966:22968   */\n      0x40\n        /* \"#utility.yul\":22961:22964   */\n      dup3\n        /* \"#utility.yul\":22957:22969   */\n      add\n        /* \"#utility.yul\":22950:22969   */\n      swap1\n      pop\n        /* \"#utility.yul\":22609:22975   */\n      swap2\n      swap1\n      pop\n      jump\t// out\n        /* \"#utility.yul\":22981:23400   */\n    tag_199:\n        /* \"#utility.yul\":23147:23151   */\n      0x00\n        /* \"#utility.yul\":23185:23187   */\n      0x20\n        /* \"#utility.yul\":23174:23183   */\n      dup3\n        /* \"#utility.yul\":23170:23188   */\n      add\n        /* \"#utility.yul\":23162:23188   */\n      swap1\n      pop\n        /* \"#utility.yul\":23234:23243   */\n      dup2\n        /* \"#utility.yul\":23228:23232   */\n      dup2\n        /* \"#utility.yul\":23224:23244   */\n      sub\n        /* \"#utility.yul\":23220:23221   */\n      0x00\n        /* \"#utility.yul\":23209:23218   */\n      dup4\n        /* \"#utility.yul\":23205:23222   */\n      add\n        /* \"#utility.yul\":23198:23245   */\n      mstore\n        /* \"#utility.yul\":23262:23393   */\n      tag_618\n        /* \"#utility.yul\":23388:23392   */\n      dup2\n        /* \"#utility.yul\":23262:23393   */\n      tag_365\n      jump\t// in\n    tag_618:\n        /* \"#utility.yul\":23254:23393   */\n      swap1\n      pop\n        /* \"#utility.yul\":22981:23400   */\n      swap2\n      swap1\n      pop\n      jump\t// out\n        /* \"#utility.yul\":23406:23637   */\n    tag_366:\n        /* \"#utility.yul\":23546:23580   */\n      0x73656e6420736f6d6520657468657220746f20636f6e7472696275746520696e\n        /* \"#utility.yul\":23542:23543   */\n      0x00\n        /* \"#utility.yul\":23534:23540   */\n      dup3\n        /* \"#utility.yul\":23530:23544   */\n      add\n        /* \"#utility.yul\":23523:23581   */\n      mstore\n        /* \"#utility.yul\":23615:23629   */\n      0x207468652070726f6a6563740000000000000000000000000000000000000000\n        /* \"#utility.yul\":23610:23612   */\n      0x20\n        /* \"#utility.yul\":23602:23608   */\n      dup3\n        /* \"#utility.yul\":23598:23613   */\n      add\n        /* \"#utility.yul\":23591:23630   */\n      mstore\n        /* \"#utility.yul\":23406:23637   */\n      pop\n      jump\t// out\n        /* \"#utility.yul\":23643:24009   */\n    tag_367:\n        /* \"#utility.yul\":23785:23788   */\n      0x00\n        /* \"#utility.yul\":23806:23873   */\n      tag_621\n        /* \"#utility.yul\":23870:23872   */\n      0x2c\n        /* \"#utility.yul\":23865:23868   */\n      dup4\n        /* \"#utility.yul\":23806:23873   */\n      tag_325\n      jump\t// in\n    tag_621:\n        /* \"#utility.yul\":23799:23873   */\n      swap2\n      pop\n        /* \"#utility.yul\":23882:23975   */\n      tag_622\n        /* \"#utility.yul\":23971:23974   */\n      dup3\n        /* \"#utility.yul\":23882:23975   */\n      tag_366\n      jump\t// in\n    tag_622:\n        /* \"#utility.yul\":24000:24002   */\n      0x40\n        /* \"#utility.yul\":23995:23998   */\n      dup3\n        /* \"#utility.yul\":23991:24003   */\n      add\n        /* \"#utility.yul\":23984:24003   */\n      swap1\n      pop\n        /* \"#utility.yul\":23643:24009   */\n      swap2\n      swap1\n      pop\n      jump\t// out\n        /* \"#utility.yul\":24015:24434   */\n    tag_202:\n        /* \"#utility.yul\":24181:24185   */\n      0x00\n        /* \"#utility.yul\":24219:24221   */\n      0x20\n        /* \"#utility.yul\":24208:24217   */\n      dup3\n        /* \"#utility.yul\":24204:24222   */\n      add\n        /* \"#utility.yul\":24196:24222   */\n      swap1\n      pop\n        /* \"#utility.yul\":24268:24277   */\n      dup2\n        /* \"#utility.yul\":24262:24266   */\n      dup2\n        /* \"#utility.yul\":24258:24278   */\n      sub\n        /* \"#utility.yul\":24254:24255   */\n      0x00\n        /* \"#utility.yul\":24243:24252   */\n      dup4\n        /* \"#utility.yul\":24239:24256   */\n      add\n        /* \"#utility.yul\":24232:24279   */\n      mstore\n        /* \"#utility.yul\":24296:24427   */\n      tag_624\n        /* \"#utility.yul\":24422:24426   */\n      dup2\n        /* \"#utility.yul\":24296:24427   */\n      tag_367\n      jump\t// in\n    tag_624:\n        /* \"#utility.yul\":24288:24427   */\n      swap1\n      pop\n        /* \"#utility.yul\":24015:24434   */\n      swap2\n      swap1\n      pop\n      jump\t// out\n        /* \"#utility.yul\":24440:24663   */\n    tag_368:\n        /* \"#utility.yul\":24580:24614   */\n      0x416d6f756e7420436f6e7472696275746564206973206d6f7265207468616e20\n        /* \"#utility.yul\":24576:24577   */\n      0x00\n        /* \"#utility.yul\":24568:24574   */\n      dup3\n        /* \"#utility.yul\":24564:24578   */\n      add\n        /* \"#utility.yul\":24557:24615   */\n      mstore\n        /* \"#utility.yul\":24649:24655   */\n      0x476f616c00000000000000000000000000000000000000000000000000000000\n        /* \"#utility.yul\":24644:24646   */\n      0x20\n        /* \"#utility.yul\":24636:24642   */\n      dup3\n        /* \"#utility.yul\":24632:24647   */\n      add\n        /* \"#utility.yul\":24625:24656   */\n      mstore\n        /* \"#utility.yul\":24440:24663   */\n      pop\n      jump\t// out\n        /* \"#utility.yul\":24669:25035   */\n    tag_369:\n        /* \"#utility.yul\":24811:24814   */\n      0x00\n        /* \"#utility.yul\":24832:24899   */\n      tag_627\n        /* \"#utility.yul\":24896:24898   */\n      0x24\n        /* \"#utility.yul\":24891:24894   */\n      dup4\n        /* \"#utility.yul\":24832:24899   */\n      tag_325\n      jump\t// in\n    tag_627:\n        /* \"#utility.yul\":24825:24899   */\n      swap2\n      pop\n        /* \"#utility.yul\":24908:25001   */\n      tag_628\n        /* \"#utility.yul\":24997:25000   */\n      dup3\n        /* \"#utility.yul\":24908:25001   */\n      tag_368\n      jump\t// in\n    tag_628:\n        /* \"#utility.yul\":25026:25028   */\n      0x40\n        /* \"#utility.yul\":25021:25024   */\n      dup3\n        /* \"#utility.yul\":25017:25029   */\n      add\n        /* \"#utility.yul\":25010:25029   */\n      swap1\n      pop\n        /* \"#utility.yul\":24669:25035   */\n      swap2\n      swap1\n      pop\n      jump\t// out\n        /* \"#utility.yul\":25041:25460   */\n    tag_205:\n        /* \"#utility.yul\":25207:25211   */\n      0x00\n        /* \"#utility.yul\":25245:25247   */\n      0x20\n        /* \"#utility.yul\":25234:25243   */\n      dup3\n        /* \"#utility.yul\":25230:25248   */\n      add\n        /* \"#utility.yul\":25222:25248   */\n      swap1\n      pop\n        /* \"#utility.yul\":25294:25303   */\n      dup2\n        /* \"#utility.yul\":25288:25292   */\n      dup2\n        /* \"#utility.yul\":25284:25304   */\n      sub\n        /* \"#utility.yul\":25280:25281   */\n      0x00\n        /* \"#utility.yul\":25269:25278   */\n      dup4\n        /* \"#utility.yul\":25265:25282   */\n      add\n        /* \"#utility.yul\":25258:25305   */\n      mstore\n        /* \"#utility.yul\":25322:25453   */\n      tag_630\n        /* \"#utility.yul\":25448:25452   */\n      dup2\n        /* \"#utility.yul\":25322:25453   */\n      tag_369\n      jump\t// in\n    tag_630:\n        /* \"#utility.yul\":25314:25453   */\n      swap1\n      pop\n        /* \"#utility.yul\":25041:25460   */\n      swap2\n      swap1\n      pop\n      jump\t// out\n        /* \"#utility.yul\":25466:25629   */\n    tag_370:\n        /* \"#utility.yul\":25606:25621   */\n      0x526566756e64204661696c656400000000000000000000000000000000000000\n        /* \"#utility.yul\":25602:25603   */\n      0x00\n        /* \"#utility.yul\":25594:25600   */\n      dup3\n        /* \"#utility.yul\":25590:25604   */\n      add\n        /* \"#utility.yul\":25583:25622   */\n      mstore\n        /* \"#utility.yul\":25466:25629   */\n      pop\n      jump\t// out\n        /* \"#utility.yul\":25635:26001   */\n    tag_371:\n        /* \"#utility.yul\":25777:25780   */\n      0x00\n        /* \"#utility.yul\":25798:25865   */\n      tag_633\n        /* \"#utility.yul\":25862:25864   */\n      0x0d\n        /* \"#utility.yul\":25857:25860   */\n      dup4\n        /* \"#utility.yul\":25798:25865   */\n      tag_325\n      jump\t// in\n    tag_633:\n        /* \"#utility.yul\":25791:25865   */\n      swap2\n      pop\n        /* \"#utility.yul\":25874:25967   */\n      tag_634\n        /* \"#utility.yul\":25963:25966   */\n      dup3\n        /* \"#utility.yul\":25874:25967   */\n      tag_370\n      jump\t// in\n    tag_634:\n        /* \"#utility.yul\":25992:25994   */\n      0x20\n        /* \"#utility.yul\":25987:25990   */\n      dup3\n        /* \"#utility.yul\":25983:25995   */\n      add\n        /* \"#utility.yul\":25976:25995   */\n      swap1\n      pop\n        /* \"#utility.yul\":25635:26001   */\n      swap2\n      swap1\n      pop\n      jump\t// out\n        /* \"#utility.yul\":26007:26426   */\n    tag_219:\n        /* \"#utility.yul\":26173:26177   */\n      0x00\n        /* \"#utility.yul\":26211:26213   */\n      0x20\n        /* \"#utility.yul\":26200:26209   */\n      dup3\n        /* \"#utility.yul\":26196:26214   */\n      add\n        /* \"#utility.yul\":26188:26214   */\n      swap1\n      pop\n        /* \"#utility.yul\":26260:26269   */\n      dup2\n        /* \"#utility.yul\":26254:26258   */\n      dup2\n        /* \"#utility.yul\":26250:26270   */\n      sub\n        /* \"#utility.yul\":26246:26247   */\n      0x00\n        /* \"#utility.yul\":26235:26244   */\n      dup4\n        /* \"#utility.yul\":26231:26248   */\n      add\n        /* \"#utility.yul\":26224:26271   */\n      mstore\n        /* \"#utility.yul\":26288:26419   */\n      tag_636\n        /* \"#utility.yul\":26414:26418   */\n      dup2\n        /* \"#utility.yul\":26288:26419   */\n      tag_371\n      jump\t// in\n    tag_636:\n        /* \"#utility.yul\":26280:26419   */\n      swap1\n      pop\n        /* \"#utility.yul\":26007:26426   */\n      swap2\n      swap1\n      pop\n      jump\t// out\n        /* \"#utility.yul\":26432:26874   */\n    tag_222:\n        /* \"#utility.yul\":26581:26585   */\n      0x00\n        /* \"#utility.yul\":26619:26621   */\n      0x60\n        /* \"#utility.yul\":26608:26617   */\n      dup3\n        /* \"#utility.yul\":26604:26622   */\n      add\n        /* \"#utility.yul\":26596:26622   */\n      swap1\n      pop\n        /* \"#utility.yul\":26632:26703   */\n      tag_638\n        /* \"#utility.yul\":26700:26701   */\n      0x00\n        /* \"#utility.yul\":26689:26698   */\n      dup4\n        /* \"#utility.yul\":26685:26702   */\n      add\n        /* \"#utility.yul\":26676:26682   */\n      dup7\n        /* \"#utility.yul\":26632:26703   */\n      tag_323\n      jump\t// in\n    tag_638:\n        /* \"#utility.yul\":26713:26785   */\n      tag_639\n        /* \"#utility.yul\":26781:26783   */\n      0x20\n        /* \"#utility.yul\":26770:26779   */\n      dup4\n        /* \"#utility.yul\":26766:26784   */\n      add\n        /* \"#utility.yul\":26757:26763   */\n      dup6\n        /* \"#utility.yul\":26713:26785   */\n      tag_320\n      jump\t// in\n    tag_639:\n        /* \"#utility.yul\":26795:26867   */\n      tag_640\n        /* \"#utility.yul\":26863:26865   */\n      0x40\n        /* \"#utility.yul\":26852:26861   */\n      dup4\n        /* \"#utility.yul\":26848:26866   */\n      add\n        /* \"#utility.yul\":26839:26845   */\n      dup5\n        /* \"#utility.yul\":26795:26867   */\n      tag_320\n      jump\t// in\n    tag_640:\n        /* \"#utility.yul\":26432:26874   */\n      swap5\n      swap4\n      pop\n      pop\n      pop\n      pop\n      jump\t// out\n        /* \"#utility.yul\":26880:27113   */\n    tag_226:\n        /* \"#utility.yul\":26919:26922   */\n      0x00\n        /* \"#utility.yul\":26942:26966   */\n      tag_642\n        /* \"#utility.yul\":26960:26965   */\n      dup3\n        /* \"#utility.yul\":26942:26966   */\n      tag_317\n      jump\t// in\n    tag_642:\n        /* \"#utility.yul\":26933:26966   */\n      swap2\n      pop\n        /* \"#utility.yul\":26988:27054   */\n      0xffffffffffffffffffffffffffffffffffffffffffffffffffffffffffffffff\n        /* \"#utility.yul\":26981:26986   */\n      dup3\n        /* \"#utility.yul\":26978:27055   */\n      sub\n        /* \"#utility.yul\":26975:27078   */\n      tag_643\n      jumpi\n        /* \"#utility.yul\":27058:27076   */\n      tag_644\n      tag_344\n      jump\t// in\n    tag_644:\n        /* \"#utility.yul\":26975:27078   */\n    tag_643:\n        /* \"#utility.yul\":27105:27106   */\n      0x01\n        /* \"#utility.yul\":27098:27103   */\n      dup3\n        /* \"#utility.yul\":27094:27107   */\n      add\n        /* \"#utility.yul\":27087:27107   */\n      swap1\n      pop\n        /* \"#utility.yul\":26880:27113   */\n      swap2\n      swap1\n      pop\n      jump\t// out\n        /* \"#utility.yul\":27119:27357   */\n    tag_372:\n        /* \"#utility.yul\":27259:27293   */\n      0x66756e64696e6720676f616c20686173206e6f742072656163686564202c2061\n        /* \"#utility.yul\":27255:27256   */\n      0x00\n        /* \"#utility.yul\":27247:27253   */\n      dup3\n        /* \"#utility.yul\":27243:27257   */\n      add\n        /* \"#utility.yul\":27236:27294   */\n      mstore\n        /* \"#utility.yul\":27328:27349   */\n      0x646d696e2063616e277420776974686472617700000000000000000000000000\n        /* \"#utility.yul\":27323:27325   */\n      0x20\n        /* \"#utility.yul\":27315:27321   */\n      dup3\n        /* \"#utility.yul\":27311:27326   */\n      add\n        /* \"#utility.yul\":27304:27350   */\n      mstore\n        /* \"#utility.yul\":27119:27357   */\n      pop\n      jump\t// out\n        /* \"#utility.yul\":27363:27729   */\n    tag_373:\n        /* \"#utility.yul\":27505:27508   */\n      0x00\n        /* \"#utility.yul\":27526:27593   */\n      tag_647\n        /* \"#utility.yul\":27590:27592   */\n      0x33\n        /* \"#utility.yul\":27585:27588   */\n      dup4\n        /* \"#utility.yul\":27526:27593   */\n      tag_325\n      jump\t// in\n    tag_647:\n        /* \"#utility.yul\":27519:27593   */\n      swap2\n      pop\n        /* \"#utility.yul\":27602:27695   */\n      tag_648\n        /* \"#utility.yul\":27691:27694   */\n      dup3\n        /* \"#utility.yul\":27602:27695   */\n      tag_372\n      jump\t// in\n    tag_648:\n        /* \"#utility.yul\":27720:27722   */\n      0x40\n        /* \"#utility.yul\":27715:27718   */\n      dup3\n        /* \"#utility.yul\":27711:27723   */\n      add\n        /* \"#utility.yul\":27704:27723   */\n      swap1\n      pop\n        /* \"#utility.yul\":27363:27729   */\n      swap2\n      swap1\n      pop\n      jump\t// out\n        /* \"#utility.yul\":27735:28154   */\n    tag_232:\n        /* \"#utility.yul\":27901:27905   */\n      0x00\n        /* \"#utility.yul\":27939:27941   */\n      0x20\n        /* \"#utility.yul\":27928:27937   */\n      dup3\n        /* \"#utility.yul\":27924:27942   */\n      add\n        /* \"#utility.yul\":27916:27942   */\n      swap1\n      pop\n        /* \"#utility.yul\":27988:27997   */\n      dup2\n        /* \"#utility.yul\":27982:27986   */\n      dup2\n        /* \"#utility.yul\":27978:27998   */\n      sub\n        /* \"#utility.yul\":27974:27975   */\n      0x00\n        /* \"#utility.yul\":27963:27972   */\n      dup4\n        /* \"#utility.yul\":27959:27976   */\n      add\n        /* \"#utility.yul\":27952:27999   */\n      mstore\n        /* \"#utility.yul\":28016:28147   */\n      tag_650\n        /* \"#utility.yul\":28142:28146   */\n      dup2\n        /* \"#utility.yul\":28016:28147   */\n      tag_373\n      jump\t// in\n    tag_650:\n        /* \"#utility.yul\":28008:28147   */\n      swap1\n      pop\n        /* \"#utility.yul\":27735:28154   */\n      swap2\n      swap1\n      pop\n      jump\t// out\n        /* \"#utility.yul\":28160:28333   */\n    tag_374:\n        /* \"#utility.yul\":28300:28325   */\n      0x6f6e6c792061646d696e2063616e207769746864726177000000000000000000\n        /* \"#utility.yul\":28296:28297   */\n      0x00\n        /* \"#utility.yul\":28288:28294   */\n      dup3\n        /* \"#utility.yul\":28284:28298   */\n      add\n        /* \"#utility.yul\":28277:28326   */\n      mstore\n        /* \"#utility.yul\":28160:28333   */\n      pop\n      jump\t// out\n        /* \"#utility.yul\":28339:28705   */\n    tag_375:\n        /* \"#utility.yul\":28481:28484   */\n      0x00\n        /* \"#utility.yul\":28502:28569   */\n      tag_653\n        /* \"#utility.yul\":28566:28568   */\n      0x17\n        /* \"#utility.yul\":28561:28564   */\n      dup4\n        /* \"#utility.yul\":28502:28569   */\n      tag_325\n      jump\t// in\n    tag_653:\n        /* \"#utility.yul\":28495:28569   */\n      swap2\n      pop\n        /* \"#utility.yul\":28578:28671   */\n      tag_654\n        /* \"#utility.yul\":28667:28670   */\n      dup3\n        /* \"#utility.yul\":28578:28671   */\n      tag_374\n      jump\t// in\n    tag_654:\n        /* \"#utility.yul\":28696:28698   */\n      0x20\n        /* \"#utility.yul\":28691:28694   */\n      dup3\n        /* \"#utility.yul\":28687:28699   */\n      add\n        /* \"#utility.yul\":28680:28699   */\n      swap1\n      pop\n        /* \"#utility.yul\":28339:28705   */\n      swap2\n      swap1\n      pop\n      jump\t// out\n        /* \"#utility.yul\":28711:29130   */\n    tag_235:\n        /* \"#utility.yul\":28877:28881   */\n      0x00\n        /* \"#utility.yul\":28915:28917   */\n      0x20\n        /* \"#utility.yul\":28904:28913   */\n      dup3\n        /* \"#utility.yul\":28900:28918   */\n      add\n        /* \"#utility.yul\":28892:28918   */\n      swap1\n      pop\n        /* \"#utility.yul\":28964:28973   */\n      dup2\n        /* \"#utility.yul\":28958:28962   */\n      dup2\n        /* \"#utility.yul\":28954:28974   */\n      sub\n        /* \"#utility.yul\":28950:28951   */\n      0x00\n        /* \"#utility.yul\":28939:28948   */\n      dup4\n        /* \"#utility.yul\":28935:28952   */\n      add\n        /* \"#utility.yul\":28928:28975   */\n      mstore\n        /* \"#utility.yul\":28992:29123   */\n      tag_656\n        /* \"#utility.yul\":29118:29122   */\n      dup2\n        /* \"#utility.yul\":28992:29123   */\n      tag_375\n      jump\t// in\n    tag_656:\n        /* \"#utility.yul\":28984:29123   */\n      swap1\n      pop\n        /* \"#utility.yul\":28711:29130   */\n      swap2\n      swap1\n      pop\n      jump\t// out\n        /* \"#utility.yul\":29136:29370   */\n    tag_376:\n        /* \"#utility.yul\":29276:29310   */\n      0x646561646c696e6520686173206e6f742072656163686564202c2061646d696e\n        /* \"#utility.yul\":29272:29273   */\n      0x00\n        /* \"#utility.yul\":29264:29270   */\n      dup3\n        /* \"#utility.yul\":29260:29274   */\n      add\n        /* \"#utility.yul\":29253:29311   */\n      mstore\n        /* \"#utility.yul\":29345:29362   */\n      0x2063616e27742077697468647261770000000000000000000000000000000000\n        /* \"#utility.yul\":29340:29342   */\n      0x20\n        /* \"#utility.yul\":29332:29338   */\n      dup3\n        /* \"#utility.yul\":29328:29343   */\n      add\n        /* \"#utility.yul\":29321:29363   */\n      mstore\n        /* \"#utility.yul\":29136:29370   */\n      pop\n      jump\t// out\n        /* \"#utility.yul\":29376:29742   */\n    tag_377:\n        /* \"#utility.yul\":29518:29521   */\n      0x00\n        /* \"#utility.yul\":29539:29606   */\n      tag_659\n        /* \"#utility.yul\":29603:29605   */\n      0x2f\n        /* \"#utility.yul\":29598:29601   */\n      dup4\n        /* \"#utility.yul\":29539:29606   */\n      tag_325\n      jump\t// in\n    tag_659:\n        /* \"#utility.yul\":29532:29606   */\n      swap2\n      pop\n        /* \"#utility.yul\":29615:29708   */\n      tag_660\n        /* \"#utility.yul\":29704:29707   */\n      dup3\n        /* \"#utility.yul\":29615:29708   */\n      tag_376\n      jump\t// in\n    tag_660:\n        /* \"#utility.yul\":29733:29735   */\n      0x40\n        /* \"#utility.yul\":29728:29731   */\n      dup3\n        /* \"#utility.yul\":29724:29736   */\n      add\n        /* \"#utility.yul\":29717:29736   */\n      swap1\n      pop\n        /* \"#utility.yul\":29376:29742   */\n      swap2\n      swap1\n      pop\n      jump\t// out\n        /* \"#utility.yul\":29748:30167   */\n    tag_238:\n        /* \"#utility.yul\":29914:29918   */\n      0x00\n        /* \"#utility.yul\":29952:29954   */\n      0x20\n        /* \"#utility.yul\":29941:29950   */\n      dup3\n        /* \"#utility.yul\":29937:29955   */\n      add\n        /* \"#utility.yul\":29929:29955   */\n      swap1\n      pop\n        /* \"#utility.yul\":30001:30010   */\n      dup2\n        /* \"#utility.yul\":29995:29999   */\n      dup2\n        /* \"#utility.yul\":29991:30011   */\n      sub\n        /* \"#utility.yul\":29987:29988   */\n      0x00\n        /* \"#utility.yul\":29976:29985   */\n      dup4\n        /* \"#utility.yul\":29972:29989   */\n      add\n        /* \"#utility.yul\":29965:30012   */\n      mstore\n        /* \"#utility.yul\":30029:30160   */\n      tag_662\n        /* \"#utility.yul\":30155:30159   */\n      dup2\n        /* \"#utility.yul\":30029:30160   */\n      tag_377\n      jump\t// in\n    tag_662:\n        /* \"#utility.yul\":30021:30160   */\n      swap1\n      pop\n        /* \"#utility.yul\":29748:30167   */\n      swap2\n      swap1\n      pop\n      jump\t// out\n        /* \"#utility.yul\":30173:30344   */\n    tag_378:\n        /* \"#utility.yul\":30313:30336   */\n      0x4f6e6c792041646d696e2063616e206163636573730000000000000000000000\n        /* \"#utility.yul\":30309:30310   */\n      0x00\n        /* \"#utility.yul\":30301:30307   */\n      dup3\n        /* \"#utility.yul\":30297:30311   */\n      add\n        /* \"#utility.yul\":30290:30337   */\n      mstore\n        /* \"#utility.yul\":30173:30344   */\n      pop\n      jump\t// out\n        /* \"#utility.yul\":30350:30716   */\n    tag_379:\n        /* \"#utility.yul\":30492:30495   */\n      0x00\n        /* \"#utility.yul\":30513:30580   */\n      tag_665\n        /* \"#utility.yul\":30577:30579   */\n      0x15\n        /* \"#utility.yul\":30572:30575   */\n      dup4\n        /* \"#utility.yul\":30513:30580   */\n      tag_325\n      jump\t// in\n    tag_665:\n        /* \"#utility.yul\":30506:30580   */\n      swap2\n      pop\n        /* \"#utility.yul\":30589:30682   */\n      tag_666\n        /* \"#utility.yul\":30678:30681   */\n      dup3\n        /* \"#utility.yul\":30589:30682   */\n      tag_378\n      jump\t// in\n    tag_666:\n        /* \"#utility.yul\":30707:30709   */\n      0x20\n        /* \"#utility.yul\":30702:30705   */\n      dup3\n        /* \"#utility.yul\":30698:30710   */\n      add\n        /* \"#utility.yul\":30691:30710   */\n      swap1\n      pop\n        /* \"#utility.yul\":30350:30716   */\n      swap2\n      swap1\n      pop\n      jump\t// out\n        /* \"#utility.yul\":30722:31141   */\n    tag_245:\n        /* \"#utility.yul\":30888:30892   */\n      0x00\n        /* \"#utility.yul\":30926:30928   */\n      0x20\n        /* \"#utility.yul\":30915:30924   */\n      dup3\n        /* \"#utility.yul\":30911:30929   */\n      add\n        /* \"#utility.yul\":30903:30929   */\n      swap1\n      pop\n        /* \"#utility.yul\":30975:30984   */\n      dup2\n        /* \"#utility.yul\":30969:30973   */\n      dup2\n        /* \"#utility.yul\":30965:30985   */\n      sub\n        /* \"#utility.yul\":30961:30962   */\n      0x00\n        /* \"#utility.yul\":30950:30959   */\n      dup4\n        /* \"#utility.yul\":30946:30963   */\n      add\n        /* \"#utility.yul\":30939:30986   */\n      mstore\n        /* \"#utility.yul\":31003:31134   */\n      tag_668\n        /* \"#utility.yul\":31129:31133   */\n      dup2\n        /* \"#utility.yul\":31003:31134   */\n      tag_379\n      jump\t// in\n    tag_668:\n        /* \"#utility.yul\":30995:31134   */\n      swap1\n      pop\n        /* \"#utility.yul\":30722:31141   */\n      swap2\n      swap1\n      pop\n      jump\t// out\n        /* \"#utility.yul\":31147:31327   */\n    tag_380:\n        /* \"#utility.yul\":31287:31319   */\n      0x43616e6e6f7420776974686472617720616674657220646561646c696e650000\n        /* \"#utility.yul\":31283:31284   */\n      0x00\n        /* \"#utility.yul\":31275:31281   */\n      dup3\n        /* \"#utility.yul\":31271:31285   */\n      add\n        /* \"#utility.yul\":31264:31320   */\n      mstore\n        /* \"#utility.yul\":31147:31327   */\n      pop\n      jump\t// out\n        /* \"#utility.yul\":31333:31699   */\n    tag_381:\n        /* \"#utility.yul\":31475:31478   */\n      0x00\n        /* \"#utility.yul\":31496:31563   */\n      tag_671\n        /* \"#utility.yul\":31560:31562   */\n      0x1e\n        /* \"#utility.yul\":31555:31558   */\n      dup4\n        /* \"#utility.yul\":31496:31563   */\n      tag_325\n      jump\t// in\n    tag_671:\n        /* \"#utility.yul\":31489:31563   */\n      swap2\n      pop\n        /* \"#utility.yul\":31572:31665   */\n      tag_672\n        /* \"#utility.yul\":31661:31664   */\n      dup3\n        /* \"#utility.yul\":31572:31665   */\n      tag_380\n      jump\t// in\n    tag_672:\n        /* \"#utility.yul\":31690:31692   */\n      0x20\n        /* \"#utility.yul\":31685:31688   */\n      dup3\n        /* \"#utility.yul\":31681:31693   */\n      add\n        /* \"#utility.yul\":31674:31693   */\n      swap1\n      pop\n        /* \"#utility.yul\":31333:31699   */\n      swap2\n      swap1\n      pop\n      jump\t// out\n        /* \"#utility.yul\":31705:32124   */\n    tag_250:\n        /* \"#utility.yul\":31871:31875   */\n      0x00\n        /* \"#utility.yul\":31909:31911   */\n      0x20\n        /* \"#utility.yul\":31898:31907   */\n      dup3\n        /* \"#utility.yul\":31894:31912   */\n      add\n        /* \"#utility.yul\":31886:31912   */\n      swap1\n      pop\n        /* \"#utility.yul\":31958:31967   */\n      dup2\n        /* \"#utility.yul\":31952:31956   */\n      dup2\n        /* \"#utility.yul\":31948:31968   */\n      sub\n        /* \"#utility.yul\":31944:31945   */\n      0x00\n        /* \"#utility.yul\":31933:31942   */\n      dup4\n        /* \"#utility.yul\":31929:31946   */\n      add\n        /* \"#utility.yul\":31922:31969   */\n      mstore\n        /* \"#utility.yul\":31986:32117   */\n      tag_674\n        /* \"#utility.yul\":32112:32116   */\n      dup2\n        /* \"#utility.yul\":31986:32117   */\n      tag_381\n      jump\t// in\n    tag_674:\n        /* \"#utility.yul\":31978:32117   */\n      swap1\n      pop\n        /* \"#utility.yul\":31705:32124   */\n      swap2\n      swap1\n      pop\n      jump\t// out\n        /* \"#utility.yul\":32130:32302   */\n    tag_382:\n        /* \"#utility.yul\":32270:32294   */\n      0x4e6f2046756e647320746f207769746864726177212100000000000000000000\n        /* \"#utility.yul\":32266:32267   */\n      0x00\n        /* \"#utility.yul\":32258:32264   */\n      dup3\n        /* \"#utility.yul\":32254:32268   */\n      add\n        /* \"#utility.yul\":32247:32295   */\n      mstore\n        /* \"#utility.yul\":32130:32302   */\n      pop\n      jump\t// out\n        /* \"#utility.yul\":32308:32674   */\n    tag_383:\n        /* \"#utility.yul\":32450:32453   */\n      0x00\n        /* \"#utility.yul\":32471:32538   */\n      tag_677\n        /* \"#utility.yul\":32535:32537   */\n      0x16\n        /* \"#utility.yul\":32530:32533   */\n      dup4\n        /* \"#utility.yul\":32471:32538   */\n      tag_325\n      jump\t// in\n    tag_677:\n        /* \"#utility.yul\":32464:32538   */\n      swap2\n      pop\n        /* \"#utility.yul\":32547:32640   */\n      tag_678\n        /* \"#utility.yul\":32636:32639   */\n      dup3\n        /* \"#utility.yul\":32547:32640   */\n      tag_382\n      jump\t// in\n    tag_678:\n        /* \"#utility.yul\":32665:32667   */\n      0x20\n        /* \"#utility.yul\":32660:32663   */\n      dup3\n        /* \"#utility.yul\":32656:32668   */\n      add\n        /* \"#utility.yul\":32649:32668   */\n      swap1\n      pop\n        /* \"#utility.yul\":32308:32674   */\n      swap2\n      swap1\n      pop\n      jump\t// out\n        /* \"#utility.yul\":32680:33099   */\n    tag_253:\n        /* \"#utility.yul\":32846:32850   */\n      0x00\n        /* \"#utility.yul\":32884:32886   */\n      0x20\n        /* \"#utility.yul\":32873:32882   */\n      dup3\n        /* \"#utility.yul\":32869:32887   */\n      add\n        /* \"#utility.yul\":32861:32887   */\n      swap1\n      pop\n        /* \"#utility.yul\":32933:32942   */\n      dup2\n        /* \"#utility.yul\":32927:32931   */\n      dup2\n        /* \"#utility.yul\":32923:32943   */\n      sub\n        /* \"#utility.yul\":32919:32920   */\n      0x00\n        /* \"#utility.yul\":32908:32917   */\n      dup4\n        /* \"#utility.yul\":32904:32921   */\n      add\n        /* \"#utility.yul\":32897:32944   */\n      mstore\n        /* \"#utility.yul\":32961:33092   */\n      tag_680\n        /* \"#utility.yul\":33087:33091   */\n      dup2\n        /* \"#utility.yul\":32961:33092   */\n      tag_383\n      jump\t// in\n    tag_680:\n        /* \"#utility.yul\":32953:33092   */\n      swap1\n      pop\n        /* \"#utility.yul\":32680:33099   */\n      swap2\n      swap1\n      pop\n      jump\t// out\n        /* \"#utility.yul\":33105:33333   */\n    tag_384:\n        /* \"#utility.yul\":33245:33279   */\n      0x576974686472617720616d6f756e74206578636565647320796f757220636f6e\n        /* \"#utility.yul\":33241:33242   */\n      0x00\n        /* \"#utility.yul\":33233:33239   */\n      dup3\n        /* \"#utility.yul\":33229:33243   */\n      add\n        /* \"#utility.yul\":33222:33280   */\n      mstore\n        /* \"#utility.yul\":33314:33325   */\n      0x747269627574696f6e0000000000000000000000000000000000000000000000\n        /* \"#utility.yul\":33309:33311   */\n      0x20\n        /* \"#utility.yul\":33301:33307   */\n      dup3\n        /* \"#utility.yul\":33297:33312   */\n      add\n        /* \"#utility.yul\":33290:33326   */\n      mstore\n        /* \"#utility.yul\":33105:33333   */\n      pop\n      jump\t// out\n        /* \"#utility.yul\":33339:33705   */\n    tag_385:\n        /* \"#utility.yul\":33481:33484   */\n      0x00\n        /* \"#utility.yul\":33502:33569   */\n      tag_683\n        /* \"#utility.yul\":33566:33568   */\n      0x29\n        /* \"#utility.yul\":33561:33564   */\n      dup4\n        /* \"#utility.yul\":33502:33569   */\n      tag_325\n      jump\t// in\n    tag_683:\n        /* \"#utility.yul\":33495:33569   */\n      swap2\n      pop\n        /* \"#utility.yul\":33578:33671   */\n      tag_684\n        /* \"#utility.yul\":33667:33670   */\n      dup3\n        /* \"#utility.yul\":33578:33671   */\n      tag_384\n      jump\t// in\n    tag_684:\n        /* \"#utility.yul\":33696:33698   */\n      0x40\n        /* \"#utility.yul\":33691:33694   */\n      dup3\n        /* \"#utility.yul\":33687:33699   */\n      add\n        /* \"#utility.yul\":33680:33699   */\n      swap1\n      pop\n        /* \"#utility.yul\":33339:33705   */\n      swap2\n      swap1\n      pop\n      jump\t// out\n        /* \"#utility.yul\":33711:34130   */\n    tag_256:\n        /* \"#utility.yul\":33877:33881   */\n      0x00\n        /* \"#utility.yul\":33915:33917   */\n      0x20\n        /* \"#utility.yul\":33904:33913   */\n      dup3\n        /* \"#utility.yul\":33900:33918   */\n      add\n        /* \"#utility.yul\":33892:33918   */\n      swap1\n      pop\n        /* \"#utility.yul\":33964:33973   */\n      dup2\n        /* \"#utility.yul\":33958:33962   */\n      dup2\n        /* \"#utility.yul\":33954:33974   */\n      sub\n        /* \"#utility.yul\":33950:33951   */\n      0x00\n        /* \"#utility.yul\":33939:33948   */\n      dup4\n        /* \"#utility.yul\":33935:33952   */\n      add\n        /* \"#utility.yul\":33928:33975   */\n      mstore\n        /* \"#utility.yul\":33992:34123   */\n      tag_686\n        /* \"#utility.yul\":34118:34122   */\n      dup2\n        /* \"#utility.yul\":33992:34123   */\n      tag_385\n      jump\t// in\n    tag_686:\n        /* \"#utility.yul\":33984:34123   */\n      swap1\n      pop\n        /* \"#utility.yul\":33711:34130   */\n      swap2\n      swap1\n      pop\n      jump\t// out\n        /* \"#utility.yul\":34136:34305   */\n    tag_386:\n        /* \"#utility.yul\":34276:34297   */\n      0x7769746864726177206661696c65642121212100000000000000000000000000\n        /* \"#utility.yul\":34272:34273   */\n      0x00\n        /* \"#utility.yul\":34264:34270   */\n      dup3\n        /* \"#utility.yul\":34260:34274   */\n      add\n        /* \"#utility.yul\":34253:34298   */\n      mstore\n        /* \"#utility.yul\":34136:34305   */\n      pop\n      jump\t// out\n        /* \"#utility.yul\":34311:34677   */\n    tag_387:\n        /* \"#utility.yul\":34453:34456   */\n      0x00\n        /* \"#utility.yul\":34474:34541   */\n      tag_689\n        /* \"#utility.yul\":34538:34540   */\n      0x13\n        /* \"#utility.yul\":34533:34536   */\n      dup4\n        /* \"#utility.yul\":34474:34541   */\n      tag_325\n      jump\t// in\n    tag_689:\n        /* \"#utility.yul\":34467:34541   */\n      swap2\n      pop\n        /* \"#utility.yul\":34550:34643   */\n      tag_690\n        /* \"#utility.yul\":34639:34642   */\n      dup3\n        /* \"#utility.yul\":34550:34643   */\n      tag_386\n      jump\t// in\n    tag_690:\n        /* \"#utility.yul\":34668:34670   */\n      0x20\n        /* \"#utility.yul\":34663:34666   */\n      dup3\n        /* \"#utility.yul\":34659:34671   */\n      add\n        /* \"#utility.yul\":34652:34671   */\n      swap1\n      pop\n        /* \"#utility.yul\":34311:34677   */\n      swap2\n      swap1\n      pop\n      jump\t// out\n        /* \"#utility.yul\":34683:35102   */\n    tag_270:\n        /* \"#utility.yul\":34849:34853   */\n      0x00\n        /* \"#utility.yul\":34887:34889   */\n      0x20\n        /* \"#utility.yul\":34876:34885   */\n      dup3\n        /* \"#utility.yul\":34872:34890   */\n      add\n        /* \"#utility.yul\":34864:34890   */\n      swap1\n      pop\n        /* \"#utility.yul\":34936:34945   */\n      dup2\n        /* \"#utility.yul\":34930:34934   */\n      dup2\n        /* \"#utility.yul\":34926:34946   */\n      sub\n        /* \"#utility.yul\":34922:34923   */\n      0x00\n        /* \"#utility.yul\":34911:34920   */\n      dup4\n        /* \"#utility.yul\":34907:34924   */\n      add\n        /* \"#utility.yul\":34900:34947   */\n      mstore\n        /* \"#utility.yul\":34964:35095   */\n      tag_692\n        /* \"#utility.yul\":35090:35094   */\n      dup2\n        /* \"#utility.yul\":34964:35095   */\n      tag_387\n      jump\t// in\n    tag_692:\n        /* \"#utility.yul\":34956:35095   */\n      swap1\n      pop\n        /* \"#utility.yul\":34683:35102   */\n      swap2\n      swap1\n      pop\n      jump\t// out\n        /* \"#utility.yul\":35108:35288   */\n    tag_278:\n        /* \"#utility.yul\":35156:35233   */\n      0x4e487b7100000000000000000000000000000000000000000000000000000000\n        /* \"#utility.yul\":35153:35154   */\n      0x00\n        /* \"#utility.yul\":35146:35234   */\n      mstore\n        /* \"#utility.yul\":35253:35257   */\n      0x32\n        /* \"#utility.yul\":35250:35251   */\n      0x04\n        /* \"#utility.yul\":35243:35258   */\n      mstore\n        /* \"#utility.yul\":35277:35281   */\n      0x24\n        /* \"#utility.yul\":35274:35275   */\n      0x00\n        /* \"#utility.yul\":35267:35282   */\n      revert\n        /* \"#utility.yul\":35294:35473   */\n    tag_388:\n        /* \"#utility.yul\":35434:35465   */\n      0x50726f6a65637420494420697320616c726561647920696e2075736521000000\n        /* \"#utility.yul\":35430:35431   */\n      0x00\n        /* \"#utility.yul\":35422:35428   */\n      dup3\n        /* \"#utility.yul\":35418:35432   */\n      add\n        /* \"#utility.yul\":35411:35466   */\n      mstore\n        /* \"#utility.yul\":35294:35473   */\n      pop\n      jump\t// out\n        /* \"#utility.yul\":35479:35845   */\n    tag_389:\n        /* \"#utility.yul\":35621:35624   */\n      0x00\n        /* \"#utility.yul\":35642:35709   */\n      tag_696\n        /* \"#utility.yul\":35706:35708   */\n      0x1d\n        /* \"#utility.yul\":35701:35704   */\n      dup4\n        /* \"#utility.yul\":35642:35709   */\n      tag_325\n      jump\t// in\n    tag_696:\n        /* \"#utility.yul\":35635:35709   */\n      swap2\n      pop\n        /* \"#utility.yul\":35718:35811   */\n      tag_697\n        /* \"#utility.yul\":35807:35810   */\n      dup3\n        /* \"#utility.yul\":35718:35811   */\n      tag_388\n      jump\t// in\n    tag_697:\n        /* \"#utility.yul\":35836:35838   */\n      0x20\n        /* \"#utility.yul\":35831:35834   */\n      dup3\n        /* \"#utility.yul\":35827:35839   */\n      add\n        /* \"#utility.yul\":35820:35839   */\n      swap1\n      pop\n        /* \"#utility.yul\":35479:35845   */\n      swap2\n      swap1\n      pop\n      jump\t// out\n        /* \"#utility.yul\":35851:36270   */\n    tag_291:\n        /* \"#utility.yul\":36017:36021   */\n      0x00\n        /* \"#utility.yul\":36055:36057   */\n      0x20\n        /* \"#utility.yul\":36044:36053   */\n      dup3\n        /* \"#utility.yul\":36040:36058   */\n      add\n        /* \"#utility.yul\":36032:36058   */\n      swap1\n      pop\n        /* \"#utility.yul\":36104:36113   */\n      dup2\n        /* \"#utility.yul\":36098:36102   */\n      dup2\n        /* \"#utility.yul\":36094:36114   */\n      sub\n        /* \"#utility.yul\":36090:36091   */\n      0x00\n        /* \"#utility.yul\":36079:36088   */\n      dup4\n        /* \"#utility.yul\":36075:36092   */\n      add\n        /* \"#utility.yul\":36068:36115   */\n      mstore\n        /* \"#utility.yul\":36132:36263   */\n      tag_699\n        /* \"#utility.yul\":36258:36262   */\n      dup2\n        /* \"#utility.yul\":36132:36263   */\n      tag_389\n      jump\t// in\n    tag_699:\n        /* \"#utility.yul\":36124:36263   */\n      swap1\n      pop\n        /* \"#utility.yul\":35851:36270   */\n      swap2\n      swap1\n      pop\n      jump\t// out\n        /* \"#utility.yul\":36276:36500   */\n    tag_390:\n        /* \"#utility.yul\":36416:36450   */\n      0x4f6e6c7920417574686f72697a65642063726561746f72732063616e20616363\n        /* \"#utility.yul\":36412:36413   */\n      0x00\n        /* \"#utility.yul\":36404:36410   */\n      dup3\n        /* \"#utility.yul\":36400:36414   */\n      add\n        /* \"#utility.yul\":36393:36451   */\n      mstore\n        /* \"#utility.yul\":36485:36492   */\n      0x6573732121000000000000000000000000000000000000000000000000000000\n        /* \"#utility.yul\":36480:36482   */\n      0x20\n        /* \"#utility.yul\":36472:36478   */\n      dup3\n        /* \"#utility.yul\":36468:36483   */\n      add\n        /* \"#utility.yul\":36461:36493   */\n      mstore\n        /* \"#utility.yul\":36276:36500   */\n      pop\n      jump\t// out\n        /* \"#utility.yul\":36506:36872   */\n    tag_391:\n        /* \"#utility.yul\":36648:36651   */\n      0x00\n        /* \"#utility.yul\":36669:36736   */\n      tag_702\n        /* \"#utility.yul\":36733:36735   */\n      0x25\n        /* \"#utility.yul\":36728:36731   */\n      dup4\n        /* \"#utility.yul\":36669:36736   */\n      tag_325\n      jump\t// in\n    tag_702:\n        /* \"#utility.yul\":36662:36736   */\n      swap2\n      pop\n        /* \"#utility.yul\":36745:36838   */\n      tag_703\n        /* \"#utility.yul\":36834:36837   */\n      dup3\n        /* \"#utility.yul\":36745:36838   */\n      tag_390\n      jump\t// in\n    tag_703:\n        /* \"#utility.yul\":36863:36865   */\n      0x40\n        /* \"#utility.yul\":36858:36861   */\n      dup3\n        /* \"#utility.yul\":36854:36866   */\n      add\n        /* \"#utility.yul\":36847:36866   */\n      swap1\n      pop\n        /* \"#utility.yul\":36506:36872   */\n      swap2\n      swap1\n      pop\n      jump\t// out\n        /* \"#utility.yul\":36878:37297   */\n    tag_294:\n        /* \"#utility.yul\":37044:37048   */\n      0x00\n        /* \"#utility.yul\":37082:37084   */\n      0x20\n        /* \"#utility.yul\":37071:37080   */\n      dup3\n        /* \"#utility.yul\":37067:37085   */\n      add\n        /* \"#utility.yul\":37059:37085   */\n      swap1\n      pop\n        /* \"#utility.yul\":37131:37140   */\n      dup2\n        /* \"#utility.yul\":37125:37129   */\n      dup2\n        /* \"#utility.yul\":37121:37141   */\n      sub\n        /* \"#utility.yul\":37117:37118   */\n      0x00\n        /* \"#utility.yul\":37106:37115   */\n      dup4\n        /* \"#utility.yul\":37102:37119   */\n      add\n        /* \"#utility.yul\":37095:37142   */\n      mstore\n        /* \"#utility.yul\":37159:37290   */\n      tag_705\n        /* \"#utility.yul\":37285:37289   */\n      dup2\n        /* \"#utility.yul\":37159:37290   */\n      tag_391\n      jump\t// in\n    tag_705:\n        /* \"#utility.yul\":37151:37290   */\n      swap1\n      pop\n        /* \"#utility.yul\":36878:37297   */\n      swap2\n      swap1\n      pop\n      jump\t// out\n        /* \"#utility.yul\":37303:37444   */\n    tag_392:\n        /* \"#utility.yul\":37352:37356   */\n      0x00\n        /* \"#utility.yul\":37375:37378   */\n      dup2\n        /* \"#utility.yul\":37367:37378   */\n      swap1\n      pop\n        /* \"#utility.yul\":37398:37401   */\n      dup2\n        /* \"#utility.yul\":37395:37396   */\n      0x00\n        /* \"#utility.yul\":37388:37402   */\n      mstore\n        /* \"#utility.yul\":37432:37436   */\n      0x20\n        /* \"#utility.yul\":37429:37430   */\n      0x00\n        /* \"#utility.yul\":37419:37437   */\n      keccak256\n        /* \"#utility.yul\":37411:37437   */\n      swap1\n      pop\n        /* \"#utility.yul\":37303:37444   */\n      swap2\n      swap1\n      pop\n      jump\t// out\n        /* \"#utility.yul\":37450:37543   */\n    tag_393:\n        /* \"#utility.yul\":37487:37493   */\n      0x00\n        /* \"#utility.yul\":37534:37536   */\n      0x20\n        /* \"#utility.yul\":37529:37531   */\n      0x1f\n        /* \"#utility.yul\":37522:37527   */\n      dup4\n        /* \"#utility.yul\":37518:37532   */\n      add\n        /* \"#utility.yul\":37514:37537   */\n      div\n        /* \"#utility.yul\":37504:37537   */\n      swap1\n      pop\n        /* \"#utility.yul\":37450:37543   */\n      swap2\n      swap1\n      pop\n      jump\t// out\n        /* \"#utility.yul\":37549:37656   */\n    tag_394:\n        /* \"#utility.yul\":37593:37601   */\n      0x00\n        /* \"#utility.yul\":37643:37648   */\n      dup3\n        /* \"#utility.yul\":37637:37641   */\n      dup3\n        /* \"#utility.yul\":37633:37649   */\n      shl\n        /* \"#utility.yul\":37612:37649   */\n      swap1\n      pop\n        /* \"#utility.yul\":37549:37656   */\n      swap3\n      swap2\n      pop\n      pop\n      jump\t// out\n        /* \"#utility.yul\":37662:38055   */\n    tag_395:\n        /* \"#utility.yul\":37731:37737   */\n      0x00\n        /* \"#utility.yul\":37781:37782   */\n      0x08\n        /* \"#utility.yul\":37769:37779   */\n      dup4\n        /* \"#utility.yul\":37765:37783   */\n      mul\n        /* \"#utility.yul\":37804:37901   */\n      tag_710\n        /* \"#utility.yul\":37834:37900   */\n      0xffffffffffffffffffffffffffffffffffffffffffffffffffffffffffffffff\n        /* \"#utility.yul\":37823:37832   */\n      dup3\n        /* \"#utility.yul\":37804:37901   */\n      tag_394\n      jump\t// in\n    tag_710:\n        /* \"#utility.yul\":37922:37961   */\n      tag_711\n        /* \"#utility.yul\":37952:37960   */\n      dup7\n        /* \"#utility.yul\":37941:37950   */\n      dup4\n        /* \"#utility.yul\":37922:37961   */\n      tag_394\n      jump\t// in\n    tag_711:\n        /* \"#utility.yul\":37910:37961   */\n      swap6\n      pop\n        /* \"#utility.yul\":37994:37998   */\n      dup1\n        /* \"#utility.yul\":37990:37999   */\n      not\n        /* \"#utility.yul\":37983:37988   */\n      dup5\n        /* \"#utility.yul\":37979:38000   */\n      and\n        /* \"#utility.yul\":37970:38000   */\n      swap4\n      pop\n        /* \"#utility.yul\":38043:38047   */\n      dup1\n        /* \"#utility.yul\":38033:38041   */\n      dup7\n        /* \"#utility.yul\":38029:38048   */\n      and\n        /* \"#utility.yul\":38022:38027   */\n      dup5\n        /* \"#utility.yul\":38019:38049   */\n      or\n        /* \"#utility.yul\":38009:38049   */\n      swap3\n      pop\n        /* \"#utility.yul\":37738:38055   */\n      pop\n      pop\n        /* \"#utility.yul\":37662:38055   */\n      swap4\n      swap3\n      pop\n      pop\n      pop\n      jump\t// out\n        /* \"#utility.yul\":38061:38121   */\n    tag_396:\n        /* \"#utility.yul\":38089:38092   */\n      0x00\n        /* \"#utility.yul\":38110:38115   */\n      dup2\n        /* \"#utility.yul\":38103:38115   */\n      swap1\n      pop\n        /* \"#utility.yul\":38061:38121   */\n      swap2\n      swap1\n      pop\n      jump\t// out\n        /* \"#utility.yul\":38127:38269   */\n    tag_397:\n        /* \"#utility.yul\":38177:38186   */\n      0x00\n        /* \"#utility.yul\":38210:38263   */\n      tag_714\n        /* \"#utility.yul\":38228:38262   */\n      tag_715\n        /* \"#utility.yul\":38237:38261   */\n      tag_716\n        /* \"#utility.yul\":38255:38260   */\n      dup5\n        /* \"#utility.yul\":38237:38261   */\n      tag_317\n      jump\t// in\n    tag_716:\n        /* \"#utility.yul\":38228:38262   */\n      tag_396\n      jump\t// in\n    tag_715:\n        /* \"#utility.yul\":38210:38263   */\n      tag_317\n      jump\t// in\n    tag_714:\n        /* \"#utility.yul\":38197:38263   */\n      swap1\n      pop\n        /* \"#utility.yul\":38127:38269   */\n      swap2\n      swap1\n      pop\n      jump\t// out\n        /* \"#utility.yul\":38275:38350   */\n    tag_398:\n        /* \"#utility.yul\":38318:38321   */\n      0x00\n        /* \"#utility.yul\":38339:38344   */\n      dup2\n        /* \"#utility.yul\":38332:38344   */\n      swap1\n      pop\n        /* \"#utility.yul\":38275:38350   */\n      swap2\n      swap1\n      pop\n      jump\t// out\n        /* \"#utility.yul\":38356:38625   */\n    tag_399:\n        /* \"#utility.yul\":38466:38505   */\n      tag_719\n        /* \"#utility.yul\":38497:38504   */\n      dup4\n        /* \"#utility.yul\":38466:38505   */\n      tag_397\n      jump\t// in\n    tag_719:\n        /* \"#utility.yul\":38527:38618   */\n      tag_720\n        /* \"#utility.yul\":38576:38617   */\n      tag_721\n        /* \"#utility.yul\":38600:38616   */\n      dup3\n        /* \"#utility.yul\":38576:38617   */\n      tag_398\n      jump\t// in\n    tag_721:\n        /* \"#utility.yul\":38568:38574   */\n      dup5\n        /* \"#utility.yul\":38561:38565   */\n      dup5\n        /* \"#utility.yul\":38555:38566   */\n      sload\n        /* \"#utility.yul\":38527:38618   */\n      tag_395\n      jump\t// in\n    tag_720:\n        /* \"#utility.yul\":38521:38525   */\n      dup3\n        /* \"#utility.yul\":38514:38619   */\n      sstore\n        /* \"#utility.yul\":38432:38625   */\n      pop\n        /* \"#utility.yul\":38356:38625   */\n      pop\n      pop\n      pop\n      jump\t// out\n        /* \"#utility.yul\":38631:38704   */\n    tag_400:\n        /* \"#utility.yul\":38676:38679   */\n      0x00\n        /* \"#utility.yul\":38697:38698   */\n      0x00\n        /* \"#utility.yul\":38690:38698   */\n      swap1\n      pop\n        /* \"#utility.yul\":38631:38704   */\n      swap1\n      jump\t// out\n        /* \"#utility.yul\":38710:38899   */\n    tag_401:\n        /* \"#utility.yul\":38787:38819   */\n      tag_724\n      tag_400\n      jump\t// in\n    tag_724:\n        /* \"#utility.yul\":38828:38893   */\n      tag_725\n        /* \"#utility.yul\":38886:38892   */\n      dup2\n        /* \"#utility.yul\":38878:38884   */\n      dup5\n        /* \"#utility.yul\":38872:38876   */\n      dup5\n        /* \"#utility.yul\":38828:38893   */\n      tag_399\n      jump\t// in\n    tag_725:\n        /* \"#utility.yul\":38763:38899   */\n      pop\n        /* \"#utility.yul\":38710:38899   */\n      pop\n      pop\n      jump\t// out\n        /* \"#utility.yul\":38905:39091   */\n    tag_402:\n        /* \"#utility.yul\":38965:39085   */\n    tag_727:\n        /* \"#utility.yul\":38982:38985   */\n      dup2\n        /* \"#utility.yul\":38975:38980   */\n      dup2\n        /* \"#utility.yul\":38972:38986   */\n      lt\n        /* \"#utility.yul\":38965:39085   */\n      iszero\n      tag_729\n      jumpi\n        /* \"#utility.yul\":39036:39075   */\n      tag_730\n        /* \"#utility.yul\":39073:39074   */\n      0x00\n        /* \"#utility.yul\":39066:39071   */\n      dup3\n        /* \"#utility.yul\":39036:39075   */\n      tag_401\n      jump\t// in\n    tag_730:\n        /* \"#utility.yul\":39009:39010   */\n      0x01\n        /* \"#utility.yul\":39002:39007   */\n      dup2\n        /* \"#utility.yul\":38998:39011   */\n      add\n        /* \"#utility.yul\":38989:39011   */\n      swap1\n      pop\n        /* \"#utility.yul\":38965:39085   */\n      jump(tag_727)\n    tag_729:\n        /* \"#utility.yul\":38905:39091   */\n      pop\n      pop\n      jump\t// out\n        /* \"#utility.yul\":39097:39640   */\n    tag_403:\n        /* \"#utility.yul\":39198:39200   */\n      0x1f\n        /* \"#utility.yul\":39193:39196   */\n      dup3\n        /* \"#utility.yul\":39190:39201   */\n      gt\n        /* \"#utility.yul\":39187:39633   */\n      iszero\n      tag_732\n      jumpi\n        /* \"#utility.yul\":39232:39270   */\n      tag_733\n        /* \"#utility.yul\":39264:39269   */\n      dup2\n        /* \"#utility.yul\":39232:39270   */\n      tag_392\n      jump\t// in\n    tag_733:\n        /* \"#utility.yul\":39316:39345   */\n      tag_734\n        /* \"#utility.yul\":39334:39344   */\n      dup5\n        /* \"#utility.yul\":39316:39345   */\n      tag_393\n      jump\t// in\n    tag_734:\n        /* \"#utility.yul\":39306:39314   */\n      dup2\n        /* \"#utility.yul\":39302:39346   */\n      add\n        /* \"#utility.yul\":39499:39501   */\n      0x20\n        /* \"#utility.yul\":39487:39497   */\n      dup6\n        /* \"#utility.yul\":39484:39502   */\n      lt\n        /* \"#utility.yul\":39481:39530   */\n      iszero\n      tag_735\n      jumpi\n        /* \"#utility.yul\":39520:39528   */\n      dup2\n        /* \"#utility.yul\":39505:39528   */\n      swap1\n      pop\n        /* \"#utility.yul\":39481:39530   */\n    tag_735:\n        /* \"#utility.yul\":39543:39623   */\n      tag_736\n        /* \"#utility.yul\":39599:39621   */\n      tag_737\n        /* \"#utility.yul\":39617:39620   */\n      dup6\n        /* \"#utility.yul\":39599:39621   */\n      tag_393\n      jump\t// in\n    tag_737:\n        /* \"#utility.yul\":39589:39597   */\n      dup4\n        /* \"#utility.yul\":39585:39622   */\n      add\n        /* \"#utility.yul\":39572:39583   */\n      dup3\n        /* \"#utility.yul\":39543:39623   */\n      tag_402\n      jump\t// in\n    tag_736:\n        /* \"#utility.yul\":39202:39633   */\n      pop\n      pop\n        /* \"#utility.yul\":39187:39633   */\n    tag_732:\n        /* \"#utility.yul\":39097:39640   */\n      pop\n      pop\n      pop\n      jump\t// out\n        /* \"#utility.yul\":39646:39763   */\n    tag_404:\n        /* \"#utility.yul\":39700:39708   */\n      0x00\n        /* \"#utility.yul\":39750:39755   */\n      dup3\n        /* \"#utility.yul\":39744:39748   */\n      dup3\n        /* \"#utility.yul\":39740:39756   */\n      shr\n        /* \"#utility.yul\":39719:39756   */\n      swap1\n      pop\n        /* \"#utility.yul\":39646:39763   */\n      swap3\n      swap2\n      pop\n      pop\n      jump\t// out\n        /* \"#utility.yul\":39769:39938   */\n    tag_405:\n        /* \"#utility.yul\":39813:39819   */\n      0x00\n        /* \"#utility.yul\":39846:39897   */\n      tag_740\n        /* \"#utility.yul\":39894:39895   */\n      0x00\n        /* \"#utility.yul\":39890:39896   */\n      not\n        /* \"#utility.yul\":39882:39887   */\n      dup5\n        /* \"#utility.yul\":39879:39880   */\n      0x08\n        /* \"#utility.yul\":39875:39888   */\n      mul\n        /* \"#utility.yul\":39846:39897   */\n      tag_404\n      jump\t// in\n    tag_740:\n        /* \"#utility.yul\":39842:39898   */\n      not\n        /* \"#utility.yul\":39927:39931   */\n      dup1\n        /* \"#utility.yul\":39921:39925   */\n      dup4\n        /* \"#utility.yul\":39917:39932   */\n      and\n        /* \"#utility.yul\":39907:39932   */\n      swap2\n      pop\n        /* \"#utility.yul\":39820:39938   */\n      pop\n        /* \"#utility.yul\":39769:39938   */\n      swap3\n      swap2\n      pop\n      pop\n      jump\t// out\n        /* \"#utility.yul\":39943:40238   */\n    tag_406:\n        /* \"#utility.yul\":40019:40023   */\n      0x00\n        /* \"#utility.yul\":40165:40194   */\n      tag_742\n        /* \"#utility.yul\":40190:40193   */\n      dup4\n        /* \"#utility.yul\":40184:40188   */\n      dup4\n        /* \"#utility.yul\":40165:40194   */\n      tag_405\n      jump\t// in\n    tag_742:\n        /* \"#utility.yul\":40157:40194   */\n      swap2\n      pop\n        /* \"#utility.yul\":40227:40230   */\n      dup3\n        /* \"#utility.yul\":40224:40225   */\n      0x02\n        /* \"#utility.yul\":40220:40231   */\n      mul\n        /* \"#utility.yul\":40214:40218   */\n      dup3\n        /* \"#utility.yul\":40211:40232   */\n      or\n        /* \"#utility.yul\":40203:40232   */\n      swap1\n      pop\n        /* \"#utility.yul\":39943:40238   */\n      swap3\n      swap2\n      pop\n      pop\n      jump\t// out\n        /* \"#utility.yul\":40243:41638   */\n    tag_297:\n        /* \"#utility.yul\":40360:40397   */\n      tag_744\n        /* \"#utility.yul\":40393:40396   */\n      dup3\n        /* \"#utility.yul\":40360:40397   */\n      tag_324\n      jump\t// in\n    tag_744:\n        /* \"#utility.yul\":40462:40480   */\n      0xffffffffffffffff\n        /* \"#utility.yul\":40454:40460   */\n      dup2\n        /* \"#utility.yul\":40451:40481   */\n      gt\n        /* \"#utility.yul\":40448:40504   */\n      iszero\n      tag_745\n      jumpi\n        /* \"#utility.yul\":40484:40502   */\n      tag_746\n      tag_335\n      jump\t// in\n    tag_746:\n        /* \"#utility.yul\":40448:40504   */\n    tag_745:\n        /* \"#utility.yul\":40528:40566   */\n      tag_747\n        /* \"#utility.yul\":40560:40564   */\n      dup3\n        /* \"#utility.yul\":40554:40565   */\n      sload\n        /* \"#utility.yul\":40528:40566   */\n      tag_138\n      jump\t// in\n    tag_747:\n        /* \"#utility.yul\":40613:40680   */\n      tag_748\n        /* \"#utility.yul\":40673:40679   */\n      dup3\n        /* \"#utility.yul\":40665:40671   */\n      dup3\n        /* \"#utility.yul\":40659:40663   */\n      dup6\n        /* \"#utility.yul\":40613:40680   */\n      tag_403\n      jump\t// in\n    tag_748:\n        /* \"#utility.yul\":40707:40708   */\n      0x00\n        /* \"#utility.yul\":40731:40735   */\n      0x20\n        /* \"#utility.yul\":40718:40735   */\n      swap1\n      pop\n        /* \"#utility.yul\":40763:40765   */\n      0x1f\n        /* \"#utility.yul\":40755:40761   */\n      dup4\n        /* \"#utility.yul\":40752:40766   */\n      gt\n        /* \"#utility.yul\":40780:40781   */\n      0x01\n        /* \"#utility.yul\":40775:41393   */\n      dup2\n      eq\n      tag_750\n      jumpi\n        /* \"#utility.yul\":41437:41438   */\n      0x00\n        /* \"#utility.yul\":41454:41460   */\n      dup5\n        /* \"#utility.yul\":41451:41528   */\n      iszero\n      tag_751\n      jumpi\n        /* \"#utility.yul\":41503:41512   */\n      dup3\n        /* \"#utility.yul\":41498:41501   */\n      dup8\n        /* \"#utility.yul\":41494:41513   */\n      add\n        /* \"#utility.yul\":41488:41514   */\n      mload\n        /* \"#utility.yul\":41479:41514   */\n      swap1\n      pop\n        /* \"#utility.yul\":41451:41528   */\n    tag_751:\n        /* \"#utility.yul\":41554:41621   */\n      tag_752\n        /* \"#utility.yul\":41614:41620   */\n      dup6\n        /* \"#utility.yul\":41607:41612   */\n      dup3\n        /* \"#utility.yul\":41554:41621   */\n      tag_406\n      jump\t// in\n    tag_752:\n        /* \"#utility.yul\":41548:41552   */\n      dup7\n        /* \"#utility.yul\":41541:41622   */\n      sstore\n        /* \"#utility.yul\":41410:41632   */\n      pop\n        /* \"#utility.yul\":40745:41632   */\n      jump(tag_749)\n        /* \"#utility.yul\":40775:41393   */\n    tag_750:\n        /* \"#utility.yul\":40827:40831   */\n      0x1f\n        /* \"#utility.yul\":40823:40832   */\n      not\n        /* \"#utility.yul\":40815:40821   */\n      dup5\n        /* \"#utility.yul\":40811:40833   */\n      and\n        /* \"#utility.yul\":40861:40898   */\n      tag_753\n        /* \"#utility.yul\":40893:40897   */\n      dup7\n        /* \"#utility.yul\":40861:40898   */\n      tag_392\n      jump\t// in\n    tag_753:\n        /* \"#utility.yul\":40920:40921   */\n      0x00\n        /* \"#utility.yul\":40934:41142   */\n    tag_754:\n        /* \"#utility.yul\":40948:40955   */\n      dup3\n        /* \"#utility.yul\":40945:40946   */\n      dup2\n        /* \"#utility.yul\":40942:40956   */\n      lt\n        /* \"#utility.yul\":40934:41142   */\n      iszero\n      tag_756\n      jumpi\n        /* \"#utility.yul\":41027:41036   */\n      dup5\n        /* \"#utility.yul\":41022:41025   */\n      dup10\n        /* \"#utility.yul\":41018:41037   */\n      add\n        /* \"#utility.yul\":41012:41038   */\n      mload\n        /* \"#utility.yul\":41004:41010   */\n      dup3\n        /* \"#utility.yul\":40997:41039   */\n      sstore\n        /* \"#utility.yul\":41078:41079   */\n      0x01\n        /* \"#utility.yul\":41070:41076   */\n      dup3\n        /* \"#utility.yul\":41066:41080   */\n      add\n        /* \"#utility.yul\":41056:41080   */\n      swap2\n      pop\n        /* \"#utility.yul\":41125:41127   */\n      0x20\n        /* \"#utility.yul\":41114:41123   */\n      dup6\n        /* \"#utility.yul\":41110:41128   */\n      add\n        /* \"#utility.yul\":41097:41128   */\n      swap5\n      pop\n        /* \"#utility.yul\":40971:40975   */\n      0x20\n        /* \"#utility.yul\":40968:40969   */\n      dup2\n        /* \"#utility.yul\":40964:40976   */\n      add\n        /* \"#utility.yul\":40959:40976   */\n      swap1\n      pop\n        /* \"#utility.yul\":40934:41142   */\n      jump(tag_754)\n    tag_756:\n        /* \"#utility.yul\":41170:41176   */\n      dup7\n        /* \"#utility.yul\":41161:41168   */\n      dup4\n        /* \"#utility.yul\":41158:41177   */\n      lt\n        /* \"#utility.yul\":41155:41334   */\n      iszero\n      tag_757\n      jumpi\n        /* \"#utility.yul\":41228:41237   */\n      dup5\n        /* \"#utility.yul\":41223:41226   */\n      dup10\n        /* \"#utility.yul\":41219:41238   */\n      add\n        /* \"#utility.yul\":41213:41239   */\n      mload\n        /* \"#utility.yul\":41271:41319   */\n      tag_758\n        /* \"#utility.yul\":41313:41317   */\n      0x1f\n        /* \"#utility.yul\":41305:41311   */\n      dup10\n        /* \"#utility.yul\":41301:41318   */\n      and\n        /* \"#utility.yul\":41290:41299   */\n      dup3\n        /* \"#utility.yul\":41271:41319   */\n      tag_405\n      jump\t// in\n    tag_758:\n        /* \"#utility.yul\":41263:41269   */\n      dup4\n        /* \"#utility.yul\":41256:41320   */\n      sstore\n        /* \"#utility.yul\":41178:41334   */\n      pop\n        /* \"#utility.yul\":41155:41334   */\n    tag_757:\n        /* \"#utility.yul\":41380:41381   */\n      0x01\n        /* \"#utility.yul\":41376:41377   */\n      0x02\n        /* \"#utility.yul\":41368:41374   */\n      dup9\n        /* \"#utility.yul\":41364:41378   */\n      mul\n        /* \"#utility.yul\":41360:41382   */\n      add\n        /* \"#utility.yul\":41354:41358   */\n      dup9\n        /* \"#utility.yul\":41347:41383   */\n      sstore\n        /* \"#utility.yul\":40782:41393   */\n      pop\n      pop\n      pop\n        /* \"#utility.yul\":40745:41632   */\n    tag_749:\n      pop\n        /* \"#utility.yul\":40335:41638   */\n      pop\n      pop\n      pop\n        /* \"#utility.yul\":40243:41638   */\n      pop\n      pop\n      jump\t// out\n        /* \"#utility.yul\":41644:42379   */\n    tag_303:\n        /* \"#utility.yul\":41861:41865   */\n      0x00\n        /* \"#utility.yul\":41899:41902   */\n      0x80\n        /* \"#utility.yul\":41888:41897   */\n      dup3\n        /* \"#utility.yul\":41884:41903   */\n      add\n        /* \"#utility.yul\":41876:41903   */\n      swap1\n      pop\n        /* \"#utility.yul\":41949:41958   */\n      dup2\n        /* \"#utility.yul\":41943:41947   */\n      dup2\n        /* \"#utility.yul\":41939:41959   */\n      sub\n        /* \"#utility.yul\":41935:41936   */\n      0x00\n        /* \"#utility.yul\":41924:41933   */\n      dup4\n        /* \"#utility.yul\":41920:41937   */\n      add\n        /* \"#utility.yul\":41913:41960   */\n      mstore\n        /* \"#utility.yul\":41977:42055   */\n      tag_760\n        /* \"#utility.yul\":42050:42054   */\n      dup2\n        /* \"#utility.yul\":42041:42047   */\n      dup8\n        /* \"#utility.yul\":41977:42055   */\n      tag_328\n      jump\t// in\n    tag_760:\n        /* \"#utility.yul\":41969:42055   */\n      swap1\n      pop\n        /* \"#utility.yul\":42102:42111   */\n      dup2\n        /* \"#utility.yul\":42096:42100   */\n      dup2\n        /* \"#utility.yul\":42092:42112   */\n      sub\n        /* \"#utility.yul\":42087:42089   */\n      0x20\n        /* \"#utility.yul\":42076:42085   */\n      dup4\n        /* \"#utility.yul\":42072:42090   */\n      add\n        /* \"#utility.yul\":42065:42113   */\n      mstore\n        /* \"#utility.yul\":42130:42208   */\n      tag_761\n        /* \"#utility.yul\":42203:42207   */\n      dup2\n        /* \"#utility.yul\":42194:42200   */\n      dup7\n        /* \"#utility.yul\":42130:42208   */\n      tag_328\n      jump\t// in\n    tag_761:\n        /* \"#utility.yul\":42122:42208   */\n      swap1\n      pop\n        /* \"#utility.yul\":42218:42290   */\n      tag_762\n        /* \"#utility.yul\":42286:42288   */\n      0x40\n        /* \"#utility.yul\":42275:42284   */\n      dup4\n        /* \"#utility.yul\":42271:42289   */\n      add\n        /* \"#utility.yul\":42262:42268   */\n      dup6\n        /* \"#utility.yul\":42218:42290   */\n      tag_320\n      jump\t// in\n    tag_762:\n        /* \"#utility.yul\":42300:42372   */\n      tag_763\n        /* \"#utility.yul\":42368:42370   */\n      0x60\n        /* \"#utility.yul\":42357:42366   */\n      dup4\n        /* \"#utility.yul\":42353:42371   */\n      add\n        /* \"#utility.yul\":42344:42350   */\n      dup5\n        /* \"#utility.yul\":42300:42372   */\n      tag_320\n      jump\t// in\n    tag_763:\n        /* \"#utility.yul\":41644:42379   */\n      swap6\n      swap5\n      pop\n      pop\n      pop\n      pop\n      pop\n      jump\t// out\n\n    auxdata: 0xa2646970667358221220cfbd5f256ba57210a8e758696acd41c77f89ad7cc4d00a44f56f59da1baa44a464736f6c634300081e0033\n}\n",
				"bytecode": {
					"linkReferences": {},
					"object": "6080604052348015600e575f5ffd5b5060015f819055503360035f6101000a81548173ffffffffffffffffffffffffffffffffffffffff021916908373ffffffffffffffffffffffffffffffffffffffff160217905550613409806100635f395ff3fe608060405260043610610129575f3560e01c80636c563abe116100aa578063cd4ac98c1161006e578063cd4ac98c146103eb578063e81a678614610407578063f81bf6011461041d578063f851a44014610445578063fcdf12381461046f578063fee2f1c91461049d57610129565b80636c563abe1461032557806371eb89f3146103415780637299baeb1461035d57806388283c0f146103855780639ab761c7146103c157610129565b806342d844a5116100f157806342d844a514610230578063520f45b71461026c57806354a5bcc5146102975780635d4e5d78146102c1578063629b2647146102fd57610129565b80630dbac1351461012d5780631392ebfe1461016a57806321b2416c14610192578063370c36b4146101d85780633b9056bf14610214575b5f5ffd5b348015610138575f5ffd5b50610153600480360381019061014e9190611e46565b6104c5565b604051610161929190611e80565b60405180910390f35b348015610175575f5ffd5b50610190600480360381019061018b9190611ea7565b6105a6565b005b34801561019d575f5ffd5b506101b860048036038101906101b39190611e46565b61069e565b6040516101cf9b9a99989796959493929190611fae565b60405180910390f35b3480156101e3575f5ffd5b506101fe60048036038101906101f99190611e46565b610864565b60405161020b9190612065565b60405180910390f35b61022e60048036038101906102299190611e46565b6108a6565b005b34801561023b575f5ffd5b5061025660048036038101906102519190611e46565b610b9a565b6040516102639190612065565b60405180910390f35b348015610277575f5ffd5b50610280610bdc565b60405161028e929190611e80565b60405180910390f35b3480156102a2575f5ffd5b506102ab610bec565b6040516102b89190612065565b60405180910390f35b3480156102cc575f5ffd5b506102e760048036038101906102e291906120a8565b610bf5565b6040516102f49190612065565b60405180910390f35b348015610308575f5ffd5b50610323600480360381019061031e9190611ea7565b610c15565b005b61033f600480360381019061033a9190611e46565b610cd8565b005b61035b60048036038101906103569190611e46565b6110fa565b005b348015610368575f5ffd5b50610383600480360381019061037e91906120e6565b6112c0565b005b348015610390575f5ffd5b506103ab60048036038101906103a691906120e6565b6113e9565b6040516103b89190612111565b60405180910390f35b3480156103cc575f5ffd5b506103d5611406565b6040516103e29190612065565b60405180910390f35b61040560048036038101906104009190611ea7565b61140c565b005b348015610412575f5ffd5b5061041b611755565b005b348015610428575f5ffd5b50610443600480360381019061043e9190612256565b611896565b005b348015610450575f5ffd5b50610459611c27565b6040516104669190612305565b60405180910390f35b34801561047a575f5ffd5b50610483611c4c565b60405161049495949392919061231e565b60405180910390f35b3480156104a8575f5ffd5b506104c360048036038101906104be91906120e6565b611c8b565b005b5f5f5f60085f8581526020019081526020015f209050806003015492505f73ffffffffffffffffffffffffffffffffffffffff16815f015f9054906101000a900473ffffffffffffffffffffffffffffffffffffffff1673ffffffffffffffffffffffffffffffffffffffff1603610572576040517f08c379a0000000000000000000000000000000000000000000000000000000008152600401610569906123df565b60405180910390fd5b8060030154816005015410610589575f91506105a0565b8060050154816003015461059d919061242a565b91505b50915091565b5f60085f8481526020019081526020015f2090505f816004015411610600576040517f08c379a00000000000000000000000000000000000000000000000000000000081526004016105f7906124cd565b60405180910390fd5b3373ffffffffffffffffffffffffffffffffffffffff16815f015f9054906101000a900473ffffffffffffffffffffffffffffffffffffffff1673ffffffffffffffffffffffffffffffffffffffff1614610690576040517f08c379a000000000000000000000000000000000000000000000000000000000815260040161068790612581565b60405180910390fd5b818160030181905550505050565b6008602052805f5260405f205f91509050805f015f9054906101000a900473ffffffffffffffffffffffffffffffffffffffff16908060010180546106e2906125cc565b80601f016020809104026020016040519081016040528092919081815260200182805461070e906125cc565b80156107595780601f1061073057610100808354040283529160200191610759565b820191905f5260205f20905b81548152906001019060200180831161073c57829003601f168201915b50505050509080600201805461076e906125cc565b80601f016020809104026020016040519081016040528092919081815260200182805461079a906125cc565b80156107e55780601f106107bc576101008083540402835291602001916107e5565b820191905f5260205f20905b8154815290600101906020018083116107c857829003601f168201915b505050505090806003015490806004015490806005015490806006015f9054906101000a900460ff16908060060160019054906101000a900473ffffffffffffffffffffffffffffffffffffffff1690806007015490806008015f9054906101000a900460ff16908060080160019054906101000a900460ff1690508b565b5f5f60085f8481526020019081526020015f2090508060040154421061088d575f9150506108a1565b42816004015461089d919061242a565b9150505b919050565b5f60085f8381526020019081526020015f2090508060030154816005015410610904576040517f08c379a00000000000000000000000000000000000000000000000000000000081526004016108fb9061266c565b60405180910390fd5b5f60095f8481526020019081526020015f205f3373ffffffffffffffffffffffffffffffffffffffff1673ffffffffffffffffffffffffffffffffffffffff1681526020019081526020015f205490505f8111610996576040517f08c379a000000000000000000000000000000000000000000000000000000000815260040161098d906126d4565b60405180910390fd5b5f826006015f9054906101000a900460ff16905081836005015f8282546109bd919061242a565b925050819055508160095f8681526020019081526020015f205f3373ffffffffffffffffffffffffffffffffffffffff1673ffffffffffffffffffffffffffffffffffffffff1681526020019081526020015f205f828254610a1f919061242a565b925050819055508160015f828254610a37919061242a565b92505081905550808015610a52575082600301548360050154105b15610ab1575f836006015f6101000a81548160ff0219169083151502179055505f8360080160016101000a81548160ff0219169083151502179055505f6004541115610ab05760045f815480929190610aaa906126f2565b91905055505b5b5f3373ffffffffffffffffffffffffffffffffffffffff1683604051610ad690612746565b5f6040518083038185875af1925050503d805f8114610b10576040519150601f19603f3d011682016040523d82523d5f602084013e610b15565b606091505b5050905080610b59576040517f08c379a0000000000000000000000000000000000000000000000000000000008152600401610b50906127a4565b60405180910390fd5b847fb6e4e293b6c7c5cf68fbb52edfaca6173710fcccbcecac03c32e62327fc000c63385604051610b8b9291906127c2565b60405180910390a25050505050565b5f5f60085f8481526020019081526020015f2090505f816003015460648360050154610bc691906127e9565b610bd09190612857565b90508092505050919050565b5f5f600454600554915091509091565b5f600154905090565b6009602052815f5260405f20602052805f5260405f205f91509150505481565b5f60085f8481526020019081526020015f2090503373ffffffffffffffffffffffffffffffffffffffff16815f015f9054906101000a900473ffffffffffffffffffffffffffffffffffffffff1673ffffffffffffffffffffffffffffffffffffffff1614610cb9576040517f08c379a0000000000000000000000000000000000000000000000000000000008152600401610cb0906128f7565b60405180910390fd5b81816004015f828254610ccc9190612915565b92505081905550505050565b610ce0611db5565b5f60085f8381526020019081526020015f2090508060040154421115610d3b576040517f08c379a0000000000000000000000000000000000000000000000000000000008152600401610d3290612992565b60405180910390fd5b806006015f9054906101000a900460ff1615610d8c576040517f08c379a0000000000000000000000000000000000000000000000000000000008152600401610d8390612a20565b60405180910390fd5b5f3411610dce576040517f08c379a0000000000000000000000000000000000000000000000000000000008152600401610dc590612aae565b60405180910390fd5b8060030154341115610e15576040517f08c379a0000000000000000000000000000000000000000000000000000000008152600401610e0c90612b3c565b60405180910390fd5b5f81600501548260030154610e2a919061242a565b90505f5f82341115610e4c578291508234610e45919061242a565b9050610e53565b3491505f90505b81846005015f828254610e669190612915565b925050819055508160095f8781526020019081526020015f205f3373ffffffffffffffffffffffffffffffffffffffff1673ffffffffffffffffffffffffffffffffffffffff1681526020019081526020015f20819055508160015f828254610ecf9190612915565b925050819055505f811115610f88575f3373ffffffffffffffffffffffffffffffffffffffff1682604051610f0390612746565b5f6040518083038185875af1925050503d805f8114610f3d576040519150601f19603f3d011682016040523d82523d5f602084013e610f42565b606091505b5050905080610f86576040517f08c379a0000000000000000000000000000000000000000000000000000000008152600401610f7d90612ba4565b60405180910390fd5b505b5f60095f8781526020019081526020015f205f3373ffffffffffffffffffffffffffffffffffffffff1673ffffffffffffffffffffffffffffffffffffffff1681526020019081526020015f20549050846007015481111561103157808560070181905550338560060160016101000a81548173ffffffffffffffffffffffffffffffffffffffff021916908373ffffffffffffffffffffffffffffffffffffffff1602179055505b857f7dd983e9d08b449d571f3583275e98423857f3ffbe9ef56f927eb02b1c8ab59933858560405161106593929190612bc2565b60405180910390a2846003015485600501541015801561109457508460080160019054906101000a900460ff16155b156110ea576001856006015f6101000a81548160ff02191690831515021790555060018560080160016101000a81548160ff02191690831515021790555060045f8154809291906110e490612bf7565b91905055505b50505050506110f7611df9565b50565b5f60085f8381526020019081526020015f2090505f81600501549050816006015f9054906101000a900460ff16611166576040517f08c379a000000000000000000000000000000000000000000000000000000000815260040161115d90612cae565b60405180910390fd5b3373ffffffffffffffffffffffffffffffffffffffff16825f015f9054906101000a900473ffffffffffffffffffffffffffffffffffffffff1673ffffffffffffffffffffffffffffffffffffffff16146111f6576040517f08c379a00000000000000000000000000000000000000000000000000000000081526004016111ed90612d16565b60405180910390fd5b428260040154111561123d576040517f08c379a000000000000000000000000000000000000000000000000000000000815260040161123490612da4565b60405180910390fd5b3373ffffffffffffffffffffffffffffffffffffffff166108fc8290811502906040515f60405180830381858888f19350505050158015611280573d5f5f3e3d5ffd5b50827fcae030e1a3c6b0011e7009bd65734e2e1e330528f6983497631fabd47fa7a28133346040516112b39291906127c2565b60405180910390a2505050565b3373ffffffffffffffffffffffffffffffffffffffff1660035f9054906101000a900473ffffffffffffffffffffffffffffffffffffffff1673ffffffffffffffffffffffffffffffffffffffff161461134f576040517f08c379a000000000000000000000000000000000000000000000000000000000815260040161134690612e0c565b60405180910390fd5b5f60065f8373ffffffffffffffffffffffffffffffffffffffff1673ffffffffffffffffffffffffffffffffffffffff1681526020019081526020015f205f6101000a81548160ff0219169083151502179055508073ffffffffffffffffffffffffffffffffffffffff167f0925d0e195cc39b7ade3fd58fdf494022e37bfd6242c2be09c0b2863977c187960405160405180910390a250565b6006602052805f5260405f205f915054906101000a900460ff1681565b60025481565b5f60085f8481526020019081526020015f20905080600401544210611466576040517f08c379a000000000000000000000000000000000000000000000000000000000815260040161145d90612e74565b60405180910390fd5b5f60095f8581526020019081526020015f205f3373ffffffffffffffffffffffffffffffffffffffff1673ffffffffffffffffffffffffffffffffffffffff1681526020019081526020015f205490505f81116114f8576040517f08c379a00000000000000000000000000000000000000000000000000000000081526004016114ef90612edc565b60405180910390fd5b8083111561153b576040517f08c379a000000000000000000000000000000000000000000000000000000000815260040161153290612f6a565b60405180910390fd5b5f826006015f9054906101000a900460ff16905083836005015f828254611562919061242a565b925050819055508360095f8781526020019081526020015f205f3373ffffffffffffffffffffffffffffffffffffffff1673ffffffffffffffffffffffffffffffffffffffff1681526020019081526020015f205f8282546115c4919061242a565b925050819055508360015f8282546115dc919061242a565b925050819055508080156115f7575082600301548360050154105b15611656575f836006015f6101000a81548160ff0219169083151502179055505f8360080160016101000a81548160ff0219169083151502179055505f60045411156116555760045f81548092919061164f906126f2565b91905055505b5b5f3373ffffffffffffffffffffffffffffffffffffffff168560405161167b90612746565b5f6040518083038185875af1925050503d805f81146116b5576040519150601f19603f3d011682016040523d82523d5f602084013e6116ba565b606091505b50509050806116fe576040517f08c379a00000000000000000000000000000000000000000000000000000000081526004016116f590612fd2565b60405180910390fd5b853373ffffffffffffffffffffffffffffffffffffffff167fb37480540ffb97ff520a59b38ea1a83aefbfd3d2a956d958a00214b8b6551f28876040516117459190612065565b60405180910390a3505050505050565b5f5f90505b600b80549050811015611893575f600b828154811061177c5761177b612ff0565b5b905f5260205f20015490505f60085f8381526020019081526020015f2090508060080160019054906101000a900460ff161580156117be575080600401544210155b156118845760018160080160016101000a81548160ff02191690831515021790555080600301548160050154101580156117fc575080600401544210155b1561184f57806006015f9054906101000a900460ff1661184a576001816006015f6101000a81548160ff02191690831515021790555060045f81548092919061184490612bf7565b91905055505b611883565b6001816008015f6101000a81548160ff02191690831515021790555060055f81548092919061187d90612bf7565b91905055505b5b5050808060010191505061175a565b50565b600a5f8281526020019081526020015f205f9054906101000a900460ff16156118f4576040517f08c379a00000000000000000000000000000000000000000000000000000000081526004016118eb90613067565b60405180910390fd5b60065f3373ffffffffffffffffffffffffffffffffffffffff1673ffffffffffffffffffffffffffffffffffffffff1681526020019081526020015f205f9054906101000a900460ff1661197d576040517f08c379a0000000000000000000000000000000000000000000000000000000008152600401611974906130f5565b60405180910390fd5b6001600a5f8381526020019081526020015f205f6101000a81548160ff0219169083151502179055506040518061016001604052803373ffffffffffffffffffffffffffffffffffffffff16815260200186815260200185815260200184815260200183426119ec9190612915565b81526020015f81526020015f151581526020015f73ffffffffffffffffffffffffffffffffffffffff1681526020015f81526020015f151581526020015f151581525060085f8381526020019081526020015f205f820151815f015f6101000a81548173ffffffffffffffffffffffffffffffffffffffff021916908373ffffffffffffffffffffffffffffffffffffffff1602179055506020820151816001019081611a9991906132b3565b506040820151816002019081611aaf91906132b3565b50606082015181600301556080820151816004015560a0820151816005015560c0820151816006015f6101000a81548160ff02191690831515021790555060e08201518160060160016101000a81548173ffffffffffffffffffffffffffffffffffffffff021916908373ffffffffffffffffffffffffffffffffffffffff1602179055506101008201518160070155610120820151816008015f6101000a81548160ff0219169083151502179055506101408201518160080160016101000a81548160ff02191690831515021790555090505060025f815480929190611b9590612bf7565b9190505550600b81908060018154018082558091505060019003905f5260205f20015f90919091909150553373ffffffffffffffffffffffffffffffffffffffff16817fac9b83534845c9e785a6ea70f2d809db1d72ef9a1d981753712d922f5cb55f398787878742611c089190612915565b604051611c189493929190613382565b60405180910390a35050505050565b60035f9054906101000a900473ffffffffffffffffffffffffffffffffffffffff1681565b5f5f5f5f5f600254600454600554600554600454600254611c6d919061242a565b611c77919061242a565b600154945094509450945094509091929394565b3373ffffffffffffffffffffffffffffffffffffffff1660035f9054906101000a900473ffffffffffffffffffffffffffffffffffffffff1673ffffffffffffffffffffffffffffffffffffffff1614611d1a576040517f08c379a0000000000000000000000000000000000000000000000000000000008152600401611d1190612e0c565b60405180910390fd5b600160065f8373ffffffffffffffffffffffffffffffffffffffff1673ffffffffffffffffffffffffffffffffffffffff1681526020019081526020015f205f6101000a81548160ff0219169083151502179055508073ffffffffffffffffffffffffffffffffffffffff167f1f9f86dc4a3ce57ee42e33c59def65713163420d0ab979169ef129299ff2b85e60405160405180910390a250565b60025f5403611df0576040517f3ee5aeb500000000000000000000000000000000000000000000000000000000815260040160405180910390fd5b60025f81905550565b60015f81905550565b5f604051905090565b5f5ffd5b5f5ffd5b5f819050919050565b611e2581611e13565b8114611e2f575f5ffd5b50565b5f81359050611e4081611e1c565b92915050565b5f60208284031215611e5b57611e5a611e0b565b5b5f611e6884828501611e32565b91505092915050565b611e7a81611e13565b82525050565b5f604082019050611e935f830185611e71565b611ea06020830184611e71565b9392505050565b5f5f60408385031215611ebd57611ebc611e0b565b5b5f611eca85828601611e32565b9250506020611edb85828601611e32565b9150509250929050565b5f73ffffffffffffffffffffffffffffffffffffffff82169050919050565b5f611f0e82611ee5565b9050919050565b611f1e81611f04565b82525050565b5f81519050919050565b5f82825260208201905092915050565b8281835e5f83830152505050565b5f601f19601f8301169050919050565b5f611f6682611f24565b611f708185611f2e565b9350611f80818560208601611f3e565b611f8981611f4c565b840191505092915050565b5f8115159050919050565b611fa881611f94565b82525050565b5f61016082019050611fc25f83018e611f15565b8181036020830152611fd4818d611f5c565b90508181036040830152611fe8818c611f5c565b9050611ff7606083018b611e71565b612004608083018a611e71565b61201160a0830189611e71565b61201e60c0830188611f9f565b61202b60e0830187611f15565b612039610100830186611e71565b612047610120830185611f9f565b612055610140830184611f9f565b9c9b505050505050505050505050565b5f6020820190506120785f830184611e71565b92915050565b61208781611f04565b8114612091575f5ffd5b50565b5f813590506120a28161207e565b92915050565b5f5f604083850312156120be576120bd611e0b565b5b5f6120cb85828601611e32565b92505060206120dc85828601612094565b9150509250929050565b5f602082840312156120fb576120fa611e0b565b5b5f61210884828501612094565b91505092915050565b5f6020820190506121245f830184611f9f565b92915050565b5f5ffd5b5f5ffd5b7f4e487b71000000000000000000000000000000000000000000000000000000005f52604160045260245ffd5b61216882611f4c565b810181811067ffffffffffffffff8211171561218757612186612132565b5b80604052505050565b5f612199611e02565b90506121a5828261215f565b919050565b5f67ffffffffffffffff8211156121c4576121c3612132565b5b6121cd82611f4c565b9050602081019050919050565b828183375f83830152505050565b5f6121fa6121f5846121aa565b612190565b9050828152602081018484840111156122165761221561212e565b5b6122218482856121da565b509392505050565b5f82601f83011261223d5761223c61212a565b5b813561224d8482602086016121e8565b91505092915050565b5f5f5f5f5f60a0868803121561226f5761226e611e0b565b5b5f86013567ffffffffffffffff81111561228c5761228b611e0f565b5b61229888828901612229565b955050602086013567ffffffffffffffff8111156122b9576122b8611e0f565b5b6122c588828901612229565b94505060406122d688828901611e32565b93505060606122e788828901611e32565b92505060806122f888828901611e32565b9150509295509295909350565b5f6020820190506123185f830184611f15565b92915050565b5f60a0820190506123315f830188611e71565b61233e6020830187611e71565b61234b6040830186611e71565b6123586060830185611e71565b6123656080830184611e71565b9695505050505050565b7f70726f6a65637420686173206e6f74206265656e2063726561746564207965745f8201527f2100000000000000000000000000000000000000000000000000000000000000602082015250565b5f6123c9602183611f2e565b91506123d48261236f565b604082019050919050565b5f6020820190508181035f8301526123f6816123bd565b9050919050565b7f4e487b71000000000000000000000000000000000000000000000000000000005f52601160045260245ffd5b5f61243482611e13565b915061243f83611e13565b9250828203905081811115612457576124566123fd565b5b92915050565b7f446561646c696e65206973206f766572202c20796f752043616e2774206368615f8201527f6e6765207468652066756e64696e6720676f616c202121000000000000000000602082015250565b5f6124b7603783611f2e565b91506124c28261245d565b604082019050919050565b5f6020820190508181035f8301526124e4816124ab565b9050919050565b7f596f7520617265206e6f74207468652070726f6a6563742063726561746f72205f8201527f2c204f6e6c7920506f726a6563742063726561746f722063616e204368616e6760208201527f6520212100000000000000000000000000000000000000000000000000000000604082015250565b5f61256b604483611f2e565b9150612576826124eb565b606082019050919050565b5f6020820190508181035f8301526125988161255f565b9050919050565b7f4e487b71000000000000000000000000000000000000000000000000000000005f52602260045260245ffd5b5f60028204905060018216806125e357607f821691505b6020821081036125f6576125f561259f565b5b50919050565b7f46756e64696e6720676f616c206861732072656163686564202c2075736572205f8201527f63616e2774207769746864726177000000000000000000000000000000000000602082015250565b5f612656602e83611f2e565b9150612661826125fc565b604082019050919050565b5f6020820190508181035f8301526126838161264a565b9050919050565b7f4e6f2066756e647320746f2077697468647261770000000000000000000000005f82015250565b5f6126be601483611f2e565b91506126c98261268a565b602082019050919050565b5f6020820190508181035f8301526126eb816126b2565b9050919050565b5f6126fc82611e13565b91505f820361270e5761270d6123fd565b5b600182039050919050565b5f81905092915050565b50565b5f6127315f83612719565b915061273c82612723565b5f82019050919050565b5f61275082612726565b9150819050919050565b7f5769746864726177616c204661696c65640000000000000000000000000000005f82015250565b5f61278e601183611f2e565b91506127998261275a565b602082019050919050565b5f6020820190508181035f8301526127bb81612782565b9050919050565b5f6040820190506127d55f830185611f15565b6127e26020830184611e71565b9392505050565b5f6127f382611e13565b91506127fe83611e13565b925082820261280c81611e13565b91508282048414831517612823576128226123fd565b5b5092915050565b7f4e487b71000000000000000000000000000000000000000000000000000000005f52601260045260245ffd5b5f61286182611e13565b915061286c83611e13565b92508261287c5761287b61282a565b5b828204905092915050565b7f4f6e6c792050726f6a6563742063726561746f722063616e20657874656e64205f8201527f74686520646561646c696e652121000000000000000000000000000000000000602082015250565b5f6128e1602e83611f2e565b91506128ec82612887565b604082019050919050565b5f6020820190508181035f83015261290e816128d5565b9050919050565b5f61291f82611e13565b915061292a83611e13565b9250828201905080821115612942576129416123fd565b5b92915050565b7f50726f6a65637420646561646c696e65206973206f76657221000000000000005f82015250565b5f61297c601983611f2e565b915061298782612948565b602082019050919050565b5f6020820190508181035f8301526129a981612970565b9050919050565b7f50726f6a6563742052656163686564206974732046756e64696e6720726571755f8201527f6972656d656e7400000000000000000000000000000000000000000000000000602082015250565b5f612a0a602783611f2e565b9150612a15826129b0565b604082019050919050565b5f6020820190508181035f830152612a37816129fe565b9050919050565b7f73656e6420736f6d6520657468657220746f20636f6e7472696275746520696e5f8201527f207468652070726f6a6563740000000000000000000000000000000000000000602082015250565b5f612a98602c83611f2e565b9150612aa382612a3e565b604082019050919050565b5f6020820190508181035f830152612ac581612a8c565b9050919050565b7f416d6f756e7420436f6e7472696275746564206973206d6f7265207468616e205f8201527f476f616c00000000000000000000000000000000000000000000000000000000602082015250565b5f612b26602483611f2e565b9150612b3182612acc565b604082019050919050565b5f6020820190508181035f830152612b5381612b1a565b9050919050565b7f526566756e64204661696c6564000000000000000000000000000000000000005f82015250565b5f612b8e600d83611f2e565b9150612b9982612b5a565b602082019050919050565b5f6020820190508181035f830152612bbb81612b82565b9050919050565b5f606082019050612bd55f830186611f15565b612be26020830185611e71565b612bef6040830184611e71565b949350505050565b5f612c0182611e13565b91507fffffffffffffffffffffffffffffffffffffffffffffffffffffffffffffffff8203612c3357612c326123fd565b5b600182019050919050565b7f66756e64696e6720676f616c20686173206e6f742072656163686564202c20615f8201527f646d696e2063616e277420776974686472617700000000000000000000000000602082015250565b5f612c98603383611f2e565b9150612ca382612c3e565b604082019050919050565b5f6020820190508181035f830152612cc581612c8c565b9050919050565b7f6f6e6c792061646d696e2063616e2077697468647261770000000000000000005f82015250565b5f612d00601783611f2e565b9150612d0b82612ccc565b602082019050919050565b5f6020820190508181035f830152612d2d81612cf4565b9050919050565b7f646561646c696e6520686173206e6f742072656163686564202c2061646d696e5f8201527f2063616e27742077697468647261770000000000000000000000000000000000602082015250565b5f612d8e602f83611f2e565b9150612d9982612d34565b604082019050919050565b5f6020820190508181035f830152612dbb81612d82565b9050919050565b7f4f6e6c792041646d696e2063616e2061636365737300000000000000000000005f82015250565b5f612df6601583611f2e565b9150612e0182612dc2565b602082019050919050565b5f6020820190508181035f830152612e2381612dea565b9050919050565b7f43616e6e6f7420776974686472617720616674657220646561646c696e6500005f82015250565b5f612e5e601e83611f2e565b9150612e6982612e2a565b602082019050919050565b5f6020820190508181035f830152612e8b81612e52565b9050919050565b7f4e6f2046756e647320746f2077697468647261772121000000000000000000005f82015250565b5f612ec6601683611f2e565b9150612ed182612e92565b602082019050919050565b5f6020820190508181035f830152612ef381612eba565b9050919050565b7f576974686472617720616d6f756e74206578636565647320796f757220636f6e5f8201527f747269627574696f6e0000000000000000000000000000000000000000000000602082015250565b5f612f54602983611f2e565b9150612f5f82612efa565b604082019050919050565b5f6020820190508181035f830152612f8181612f48565b9050919050565b7f7769746864726177206661696c656421212121000000000000000000000000005f82015250565b5f612fbc601383611f2e565b9150612fc782612f88565b602082019050919050565b5f6020820190508181035f830152612fe981612fb0565b9050919050565b7f4e487b71000000000000000000000000000000000000000000000000000000005f52603260045260245ffd5b7f50726f6a65637420494420697320616c726561647920696e20757365210000005f82015250565b5f613051601d83611f2e565b915061305c8261301d565b602082019050919050565b5f6020820190508181035f83015261307e81613045565b9050919050565b7f4f6e6c7920417574686f72697a65642063726561746f72732063616e206163635f8201527f6573732121000000000000000000000000000000000000000000000000000000602082015250565b5f6130df602583611f2e565b91506130ea82613085565b604082019050919050565b5f6020820190508181035f83015261310c816130d3565b9050919050565b5f819050815f5260205f209050919050565b5f6020601f8301049050919050565b5f82821b905092915050565b5f6008830261316f7fffffffffffffffffffffffffffffffffffffffffffffffffffffffffffffffff82613134565b6131798683613134565b95508019841693508086168417925050509392505050565b5f819050919050565b5f6131b46131af6131aa84611e13565b613191565b611e13565b9050919050565b5f819050919050565b6131cd8361319a565b6131e16131d9826131bb565b848454613140565b825550505050565b5f5f905090565b6131f86131e9565b6132038184846131c4565b505050565b5b818110156132265761321b5f826131f0565b600181019050613209565b5050565b601f82111561326b5761323c81613113565b61324584613125565b81016020851015613254578190505b61326861326085613125565b830182613208565b50505b505050565b5f82821c905092915050565b5f61328b5f1984600802613270565b1980831691505092915050565b5f6132a3838361327c565b9150826002028217905092915050565b6132bc82611f24565b67ffffffffffffffff8111156132d5576132d4612132565b5b6132df82546125cc565b6132ea82828561322a565b5f60209050601f83116001811461331b575f8415613309578287015190505b6133138582613298565b86555061337a565b601f19841661332986613113565b5f5b828110156133505784890151825560018201915060208501945060208101905061332b565b8683101561336d5784890151613369601f89168261327c565b8355505b6001600288020188555050505b505050505050565b5f6080820190508181035f83015261339a8187611f5c565b905081810360208301526133ae8186611f5c565b90506133bd6040830185611e71565b6133ca6060830184611e71565b9594505050505056fea2646970667358221220cfbd5f256ba57210a8e758696acd41c77f89ad7cc4d00a44f56f59da1baa44a464736f6c634300081e0033",
					"opcodes": "PUSH1 0x80 PUSH1 0x40 MSTORE CALLVALUE DUP1 ISZERO PUSH1 0xE JUMPI PUSH0 PUSH0 REVERT JUMPDEST POP PUSH1 0x1 PUSH0 DUP2 SWAP1 SSTORE POP CALLER PUSH1 0x3 PUSH0 PUSH2 0x100 EXP DUP2 SLOAD DUP2 PUSH20 0xFFFFFFFFFFFFFFFFFFFFFFFFFFFFFFFFFFFFFFFF MUL NOT AND SWAP1 DUP4 PUSH20 0xFFFFFFFFFFFFFFFFFFFFFFFFFFFFFFFFFFFFFFFF AND MUL OR SWAP1 SSTORE POP PUSH2 0x3409 DUP1 PUSH2 0x63 PUSH0 CODECOPY PUSH0 RETURN INVALID PUSH1 0x80 PUSH1 0x40 MSTORE PUSH1 0x4 CALLDATASIZE LT PUSH2 0x129 JUMPI PUSH0 CALLDATALOAD PUSH1 0xE0 SHR DUP1 PUSH4 0x6C563ABE GT PUSH2 0xAA JUMPI DUP1 PUSH4 0xCD4AC98C GT PUSH2 0x6E JUMPI DUP1 PUSH4 0xCD4AC98C EQ PUSH2 0x3EB JUMPI DUP1 PUSH4 0xE81A6786 EQ PUSH2 0x407 JUMPI DUP1 PUSH4 0xF81BF601 EQ PUSH2 0x41D JUMPI DUP1 PUSH4 0xF851A440 EQ PUSH2 0x445 JUMPI DUP1 PUSH4 0xFCDF1238 EQ PUSH2 0x46F JUMPI DUP1 PUSH4 0xFEE2F1C9 EQ PUSH2 0x49D JUMPI PUSH2 0x129 JUMP JUMPDEST DUP1 PUSH4 0x6C563ABE EQ PUSH2 0x325 JUMPI DUP1 PUSH4 0x71EB89F3 EQ PUSH2 0x341 JUMPI DUP1 PUSH4 0x7299BAEB EQ PUSH2 0x35D JUMPI DUP1 PUSH4 0x88283C0F EQ PUSH2 0x385 JUMPI DUP1 PUSH4 0x9AB761C7 EQ PUSH2 0x3C1 JUMPI PUSH2 0x129 JUMP JUMPDEST DUP1 PUSH4 0x42D844A5 GT PUSH2 0xF1 JUMPI DUP1 PUSH4 0x42D844A5 EQ PUSH2 0x230 JUMPI DUP1 PUSH4 0x520F45B7 EQ PUSH2 0x26C JUMPI DUP1 PUSH4 0x54A5BCC5 EQ PUSH2 0x297 JUMPI DUP1 PUSH4 0x5D4E5D78 EQ PUSH2 0x2C1 JUMPI DUP1 PUSH4 0x629B2647 EQ PUSH2 0x2FD JUMPI PUSH2 0x129 JUMP JUMPDEST DUP1 PUSH4 0xDBAC135 EQ PUSH2 0x12D JUMPI DUP1 PUSH4 0x1392EBFE EQ PUSH2 0x16A JUMPI DUP1 PUSH4 0x21B2416C EQ PUSH2 0x192 JUMPI DUP1 PUSH4 0x370C36B4 EQ PUSH2 0x1D8 JUMPI DUP1 PUSH4 0x3B9056BF EQ PUSH2 0x214 JUMPI JUMPDEST PUSH0 PUSH0 REVERT JUMPDEST CALLVALUE DUP1 ISZERO PUSH2 0x138 JUMPI PUSH0 PUSH0 REVERT JUMPDEST POP PUSH2 0x153 PUSH1 0x4 DUP1 CALLDATASIZE SUB DUP2 ADD SWAP1 PUSH2 0x14E SWAP2 SWAP1 PUSH2 0x1E46 JUMP JUMPDEST PUSH2 0x4C5 JUMP JUMPDEST PUSH1 0x40 MLOAD PUSH2 0x161 SWAP3 SWAP2 SWAP1 PUSH2 0x1E80 JUMP JUMPDEST PUSH1 0x40 MLOAD DUP1 SWAP2 SUB SWAP1 RETURN JUMPDEST CALLVALUE DUP1 ISZERO PUSH2 0x175 JUMPI PUSH0 PUSH0 REVERT JUMPDEST POP PUSH2 0x190 PUSH1 0x4 DUP1 CALLDATASIZE SUB DUP2 ADD SWAP1 PUSH2 0x18B SWAP2 SWAP1 PUSH2 0x1EA7 JUMP JUMPDEST PUSH2 0x5A6 JUMP JUMPDEST STOP JUMPDEST CALLVALUE DUP1 ISZERO PUSH2 0x19D JUMPI PUSH0 PUSH0 REVERT JUMPDEST POP PUSH2 0x1B8 PUSH1 0x4 DUP1 CALLDATASIZE SUB DUP2 ADD SWAP1 PUSH2 0x1B3 SWAP2 SWAP1 PUSH2 0x1E46 JUMP JUMPDEST PUSH2 0x69E JUMP JUMPDEST PUSH1 0x40 MLOAD PUSH2 0x1CF SWAP12 SWAP11 SWAP10 SWAP9 SWAP8 SWAP7 SWAP6 SWAP5 SWAP4 SWAP3 SWAP2 SWAP1 PUSH2 0x1FAE JUMP JUMPDEST PUSH1 0x40 MLOAD DUP1 SWAP2 SUB SWAP1 RETURN JUMPDEST CALLVALUE DUP1 ISZERO PUSH2 0x1E3 JUMPI PUSH0 PUSH0 REVERT JUMPDEST POP PUSH2 0x1FE PUSH1 0x4 DUP1 CALLDATASIZE SUB DUP2 ADD SWAP1 PUSH2 0x1F9 SWAP2 SWAP1 PUSH2 0x1E46 JUMP JUMPDEST PUSH2 0x864 JUMP JUMPDEST PUSH1 0x40 MLOAD PUSH2 0x20B SWAP2 SWAP1 PUSH2 0x2065 JUMP JUMPDEST PUSH1 0x40 MLOAD DUP1 SWAP2 SUB SWAP1 RETURN JUMPDEST PUSH2 0x22E PUSH1 0x4 DUP1 CALLDATASIZE SUB DUP2 ADD SWAP1 PUSH2 0x229 SWAP2 SWAP1 PUSH2 0x1E46 JUMP JUMPDEST PUSH2 0x8A6 JUMP JUMPDEST STOP JUMPDEST CALLVALUE DUP1 ISZERO PUSH2 0x23B JUMPI PUSH0 PUSH0 REVERT JUMPDEST POP PUSH2 0x256 PUSH1 0x4 DUP1 CALLDATASIZE SUB DUP2 ADD SWAP1 PUSH2 0x251 SWAP2 SWAP1 PUSH2 0x1E46 JUMP JUMPDEST PUSH2 0xB9A JUMP JUMPDEST PUSH1 0x40 MLOAD PUSH2 0x263 SWAP2 SWAP1 PUSH2 0x2065 JUMP JUMPDEST PUSH1 0x40 MLOAD DUP1 SWAP2 SUB SWAP1 RETURN JUMPDEST CALLVALUE DUP1 ISZERO PUSH2 0x277 JUMPI PUSH0 PUSH0 REVERT JUMPDEST POP PUSH2 0x280 PUSH2 0xBDC JUMP JUMPDEST PUSH1 0x40 MLOAD PUSH2 0x28E SWAP3 SWAP2 SWAP1 PUSH2 0x1E80 JUMP JUMPDEST PUSH1 0x40 MLOAD DUP1 SWAP2 SUB SWAP1 RETURN JUMPDEST CALLVALUE DUP1 ISZERO PUSH2 0x2A2 JUMPI PUSH0 PUSH0 REVERT JUMPDEST POP PUSH2 0x2AB PUSH2 0xBEC JUMP JUMPDEST PUSH1 0x40 MLOAD PUSH2 0x2B8 SWAP2 SWAP1 PUSH2 0x2065 JUMP JUMPDEST PUSH1 0x40 MLOAD DUP1 SWAP2 SUB SWAP1 RETURN JUMPDEST CALLVALUE DUP1 ISZERO PUSH2 0x2CC JUMPI PUSH0 PUSH0 REVERT JUMPDEST POP PUSH2 0x2E7 PUSH1 0x4 DUP1 CALLDATASIZE SUB DUP2 ADD SWAP1 PUSH2 0x2E2 SWAP2 SWAP1 PUSH2 0x20A8 JUMP JUMPDEST PUSH2 0xBF5 JUMP JUMPDEST PUSH1 0x40 MLOAD PUSH2 0x2F4 SWAP2 SWAP1 PUSH2 0x2065 JUMP JUMPDEST PUSH1 0x40 MLOAD DUP1 SWAP2 SUB SWAP1 RETURN JUMPDEST CALLVALUE DUP1 ISZERO PUSH2 0x308 JUMPI PUSH0 PUSH0 REVERT JUMPDEST POP PUSH2 0x323 PUSH1 0x4 DUP1 CALLDATASIZE SUB DUP2 ADD SWAP1 PUSH2 0x31E SWAP2 SWAP1 PUSH2 0x1EA7 JUMP JUMPDEST PUSH2 0xC15 JUMP JUMPDEST STOP JUMPDEST PUSH2 0x33F PUSH1 0x4 DUP1 CALLDATASIZE SUB DUP2 ADD SWAP1 PUSH2 0x33A SWAP2 SWAP1 PUSH2 0x1E46 JUMP JUMPDEST PUSH2 0xCD8 JUMP JUMPDEST STOP JUMPDEST PUSH2 0x35B PUSH1 0x4 DUP1 CALLDATASIZE SUB DUP2 ADD SWAP1 PUSH2 0x356 SWAP2 SWAP1 PUSH2 0x1E46 JUMP JUMPDEST PUSH2 0x10FA JUMP JUMPDEST STOP JUMPDEST CALLVALUE DUP1 ISZERO PUSH2 0x368 JUMPI PUSH0 PUSH0 REVERT JUMPDEST POP PUSH2 0x383 PUSH1 0x4 DUP1 CALLDATASIZE SUB DUP2 ADD SWAP1 PUSH2 0x37E SWAP2 SWAP1 PUSH2 0x20E6 JUMP JUMPDEST PUSH2 0x12C0 JUMP JUMPDEST STOP JUMPDEST CALLVALUE DUP1 ISZERO PUSH2 0x390 JUMPI PUSH0 PUSH0 REVERT JUMPDEST POP PUSH2 0x3AB PUSH1 0x4 DUP1 CALLDATASIZE SUB DUP2 ADD SWAP1 PUSH2 0x3A6 SWAP2 SWAP1 PUSH2 0x20E6 JUMP JUMPDEST PUSH2 0x13E9 JUMP JUMPDEST PUSH1 0x40 MLOAD PUSH2 0x3B8 SWAP2 SWAP1 PUSH2 0x2111 JUMP JUMPDEST PUSH1 0x40 MLOAD DUP1 SWAP2 SUB SWAP1 RETURN JUMPDEST CALLVALUE DUP1 ISZERO PUSH2 0x3CC JUMPI PUSH0 PUSH0 REVERT JUMPDEST POP PUSH2 0x3D5 PUSH2 0x1406 JUMP JUMPDEST PUSH1 0x40 MLOAD PUSH2 0x3E2 SWAP2 SWAP1 PUSH2 0x2065 JUMP JUMPDEST PUSH1 0x40 MLOAD DUP1 SWAP2 SUB SWAP1 RETURN JUMPDEST PUSH2 0x405 PUSH1 0x4 DUP1 CALLDATASIZE SUB DUP2 ADD SWAP1 PUSH2 0x400 SWAP2 SWAP1 PUSH2 0x1EA7 JUMP JUMPDEST PUSH2 0x140C JUMP JUMPDEST STOP JUMPDEST CALLVALUE DUP1 ISZERO PUSH2 0x412 JUMPI PUSH0 PUSH0 REVERT JUMPDEST POP PUSH2 0x41B PUSH2 0x1755 JUMP JUMPDEST STOP JUMPDEST CALLVALUE DUP1 ISZERO PUSH2 0x428 JUMPI PUSH0 PUSH0 REVERT JUMPDEST POP PUSH2 0x443 PUSH1 0x4 DUP1 CALLDATASIZE SUB DUP2 ADD SWAP1 PUSH2 0x43E SWAP2 SWAP1 PUSH2 0x2256 JUMP JUMPDEST PUSH2 0x1896 JUMP JUMPDEST STOP JUMPDEST CALLVALUE DUP1 ISZERO PUSH2 0x450 JUMPI PUSH0 PUSH0 REVERT JUMPDEST POP PUSH2 0x459 PUSH2 0x1C27 JUMP JUMPDEST PUSH1 0x40 MLOAD PUSH2 0x466 SWAP2 SWAP1 PUSH2 0x2305 JUMP JUMPDEST PUSH1 0x40 MLOAD DUP1 SWAP2 SUB SWAP1 RETURN JUMPDEST CALLVALUE DUP1 ISZERO PUSH2 0x47A JUMPI PUSH0 PUSH0 REVERT JUMPDEST POP PUSH2 0x483 PUSH2 0x1C4C JUMP JUMPDEST PUSH1 0x40 MLOAD PUSH2 0x494 SWAP6 SWAP5 SWAP4 SWAP3 SWAP2 SWAP1 PUSH2 0x231E JUMP JUMPDEST PUSH1 0x40 MLOAD DUP1 SWAP2 SUB SWAP1 RETURN JUMPDEST CALLVALUE DUP1 ISZERO PUSH2 0x4A8 JUMPI PUSH0 PUSH0 REVERT JUMPDEST POP PUSH2 0x4C3 PUSH1 0x4 DUP1 CALLDATASIZE SUB DUP2 ADD SWAP1 PUSH2 0x4BE SWAP2 SWAP1 PUSH2 0x20E6 JUMP JUMPDEST PUSH2 0x1C8B JUMP JUMPDEST STOP JUMPDEST PUSH0 PUSH0 PUSH0 PUSH1 0x8 PUSH0 DUP6 DUP2 MSTORE PUSH1 0x20 ADD SWAP1 DUP2 MSTORE PUSH1 0x20 ADD PUSH0 KECCAK256 SWAP1 POP DUP1 PUSH1 0x3 ADD SLOAD SWAP3 POP PUSH0 PUSH20 0xFFFFFFFFFFFFFFFFFFFFFFFFFFFFFFFFFFFFFFFF AND DUP2 PUSH0 ADD PUSH0 SWAP1 SLOAD SWAP1 PUSH2 0x100 EXP SWAP1 DIV PUSH20 0xFFFFFFFFFFFFFFFFFFFFFFFFFFFFFFFFFFFFFFFF AND PUSH20 0xFFFFFFFFFFFFFFFFFFFFFFFFFFFFFFFFFFFFFFFF AND SUB PUSH2 0x572 JUMPI PUSH1 0x40 MLOAD PUSH32 0x8C379A000000000000000000000000000000000000000000000000000000000 DUP2 MSTORE PUSH1 0x4 ADD PUSH2 0x569 SWAP1 PUSH2 0x23DF JUMP JUMPDEST PUSH1 0x40 MLOAD DUP1 SWAP2 SUB SWAP1 REVERT JUMPDEST DUP1 PUSH1 0x3 ADD SLOAD DUP2 PUSH1 0x5 ADD SLOAD LT PUSH2 0x589 JUMPI PUSH0 SWAP2 POP PUSH2 0x5A0 JUMP JUMPDEST DUP1 PUSH1 0x5 ADD SLOAD DUP2 PUSH1 0x3 ADD SLOAD PUSH2 0x59D SWAP2 SWAP1 PUSH2 0x242A JUMP JUMPDEST SWAP2 POP JUMPDEST POP SWAP2 POP SWAP2 JUMP JUMPDEST PUSH0 PUSH1 0x8 PUSH0 DUP5 DUP2 MSTORE PUSH1 0x20 ADD SWAP1 DUP2 MSTORE PUSH1 0x20 ADD PUSH0 KECCAK256 SWAP1 POP PUSH0 DUP2 PUSH1 0x4 ADD SLOAD GT PUSH2 0x600 JUMPI PUSH1 0x40 MLOAD PUSH32 0x8C379A000000000000000000000000000000000000000000000000000000000 DUP2 MSTORE PUSH1 0x4 ADD PUSH2 0x5F7 SWAP1 PUSH2 0x24CD JUMP JUMPDEST PUSH1 0x40 MLOAD DUP1 SWAP2 SUB SWAP1 REVERT JUMPDEST CALLER PUSH20 0xFFFFFFFFFFFFFFFFFFFFFFFFFFFFFFFFFFFFFFFF AND DUP2 PUSH0 ADD PUSH0 SWAP1 SLOAD SWAP1 PUSH2 0x100 EXP SWAP1 DIV PUSH20 0xFFFFFFFFFFFFFFFFFFFFFFFFFFFFFFFFFFFFFFFF AND PUSH20 0xFFFFFFFFFFFFFFFFFFFFFFFFFFFFFFFFFFFFFFFF AND EQ PUSH2 0x690 JUMPI PUSH1 0x40 MLOAD PUSH32 0x8C379A000000000000000000000000000000000000000000000000000000000 DUP2 MSTORE PUSH1 0x4 ADD PUSH2 0x687 SWAP1 PUSH2 0x2581 JUMP JUMPDEST PUSH1 0x40 MLOAD DUP1 SWAP2 SUB SWAP1 REVERT JUMPDEST DUP2 DUP2 PUSH1 0x3 ADD DUP2 SWAP1 SSTORE POP POP POP POP JUMP JUMPDEST PUSH1 0x8 PUSH1 0x20 MSTORE DUP1 PUSH0 MSTORE PUSH1 0x40 PUSH0 KECCAK256 PUSH0 SWAP2 POP SWAP1 POP DUP1 PUSH0 ADD PUSH0 SWAP1 SLOAD SWAP1 PUSH2 0x100 EXP SWAP1 DIV PUSH20 0xFFFFFFFFFFFFFFFFFFFFFFFFFFFFFFFFFFFFFFFF AND SWAP1 DUP1 PUSH1 0x1 ADD DUP1 SLOAD PUSH2 0x6E2 SWAP1 PUSH2 0x25CC JUMP JUMPDEST DUP1 PUSH1 0x1F ADD PUSH1 0x20 DUP1 SWAP2 DIV MUL PUSH1 0x20 ADD PUSH1 0x40 MLOAD SWAP1 DUP2 ADD PUSH1 0x40 MSTORE DUP1 SWAP3 SWAP2 SWAP1 DUP2 DUP2 MSTORE PUSH1 0x20 ADD DUP3 DUP1 SLOAD PUSH2 0x70E SWAP1 PUSH2 0x25CC JUMP JUMPDEST DUP1 ISZERO PUSH2 0x759 JUMPI DUP1 PUSH1 0x1F LT PUSH2 0x730 JUMPI PUSH2 0x100 DUP1 DUP4 SLOAD DIV MUL DUP4 MSTORE SWAP2 PUSH1 0x20 ADD SWAP2 PUSH2 0x759 JUMP JUMPDEST DUP3 ADD SWAP2 SWAP1 PUSH0 MSTORE PUSH1 0x20 PUSH0 KECCAK256 SWAP1 JUMPDEST DUP2 SLOAD DUP2 MSTORE SWAP1 PUSH1 0x1 ADD SWAP1 PUSH1 0x20 ADD DUP1 DUP4 GT PUSH2 0x73C JUMPI DUP3 SWAP1 SUB PUSH1 0x1F AND DUP3 ADD SWAP2 JUMPDEST POP POP POP POP POP SWAP1 DUP1 PUSH1 0x2 ADD DUP1 SLOAD PUSH2 0x76E SWAP1 PUSH2 0x25CC JUMP JUMPDEST DUP1 PUSH1 0x1F ADD PUSH1 0x20 DUP1 SWAP2 DIV MUL PUSH1 0x20 ADD PUSH1 0x40 MLOAD SWAP1 DUP2 ADD PUSH1 0x40 MSTORE DUP1 SWAP3 SWAP2 SWAP1 DUP2 DUP2 MSTORE PUSH1 0x20 ADD DUP3 DUP1 SLOAD PUSH2 0x79A SWAP1 PUSH2 0x25CC JUMP JUMPDEST DUP1 ISZERO PUSH2 0x7E5 JUMPI DUP1 PUSH1 0x1F LT PUSH2 0x7BC JUMPI PUSH2 0x100 DUP1 DUP4 SLOAD DIV MUL DUP4 MSTORE SWAP2 PUSH1 0x20 ADD SWAP2 PUSH2 0x7E5 JUMP JUMPDEST DUP3 ADD SWAP2 SWAP1 PUSH0 MSTORE PUSH1 0x20 PUSH0 KECCAK256 SWAP1 JUMPDEST DUP2 SLOAD DUP2 MSTORE SWAP1 PUSH1 0x1 ADD SWAP1 PUSH1 0x20 ADD DUP1 DUP4 GT PUSH2 0x7C8 JUMPI DUP3 SWAP1 SUB PUSH1 0x1F AND DUP3 ADD SWAP2 JUMPDEST POP POP POP POP POP SWAP1 DUP1 PUSH1 0x3 ADD SLOAD SWAP1 DUP1 PUSH1 0x4 ADD SLOAD SWAP1 DUP1 PUSH1 0x5 ADD SLOAD SWAP1 DUP1 PUSH1 0x6 ADD PUSH0 SWAP1 SLOAD SWAP1 PUSH2 0x100 EXP SWAP1 DIV PUSH1 0xFF AND SWAP1 DUP1 PUSH1 0x6 ADD PUSH1 0x1 SWAP1 SLOAD SWAP1 PUSH2 0x100 EXP SWAP1 DIV PUSH20 0xFFFFFFFFFFFFFFFFFFFFFFFFFFFFFFFFFFFFFFFF AND SWAP1 DUP1 PUSH1 0x7 ADD SLOAD SWAP1 DUP1 PUSH1 0x8 ADD PUSH0 SWAP1 SLOAD SWAP1 PUSH2 0x100 EXP SWAP1 DIV PUSH1 0xFF AND SWAP1 DUP1 PUSH1 0x8 ADD PUSH1 0x1 SWAP1 SLOAD SWAP1 PUSH2 0x100 EXP SWAP1 DIV PUSH1 0xFF AND SWAP1 POP DUP12 JUMP JUMPDEST PUSH0 PUSH0 PUSH1 0x8 PUSH0 DUP5 DUP2 MSTORE PUSH1 0x20 ADD SWAP1 DUP2 MSTORE PUSH1 0x20 ADD PUSH0 KECCAK256 SWAP1 POP DUP1 PUSH1 0x4 ADD SLOAD TIMESTAMP LT PUSH2 0x88D JUMPI PUSH0 SWAP2 POP POP PUSH2 0x8A1 JUMP JUMPDEST TIMESTAMP DUP2 PUSH1 0x4 ADD SLOAD PUSH2 0x89D SWAP2 SWAP1 PUSH2 0x242A JUMP JUMPDEST SWAP2 POP POP JUMPDEST SWAP2 SWAP1 POP JUMP JUMPDEST PUSH0 PUSH1 0x8 PUSH0 DUP4 DUP2 MSTORE PUSH1 0x20 ADD SWAP1 DUP2 MSTORE PUSH1 0x20 ADD PUSH0 KECCAK256 SWAP1 POP DUP1 PUSH1 0x3 ADD SLOAD DUP2 PUSH1 0x5 ADD SLOAD LT PUSH2 0x904 JUMPI PUSH1 0x40 MLOAD PUSH32 0x8C379A000000000000000000000000000000000000000000000000000000000 DUP2 MSTORE PUSH1 0x4 ADD PUSH2 0x8FB SWAP1 PUSH2 0x266C JUMP JUMPDEST PUSH1 0x40 MLOAD DUP1 SWAP2 SUB SWAP1 REVERT JUMPDEST PUSH0 PUSH1 0x9 PUSH0 DUP5 DUP2 MSTORE PUSH1 0x20 ADD SWAP1 DUP2 MSTORE PUSH1 0x20 ADD PUSH0 KECCAK256 PUSH0 CALLER PUSH20 0xFFFFFFFFFFFFFFFFFFFFFFFFFFFFFFFFFFFFFFFF AND PUSH20 0xFFFFFFFFFFFFFFFFFFFFFFFFFFFFFFFFFFFFFFFF AND DUP2 MSTORE PUSH1 0x20 ADD SWAP1 DUP2 MSTORE PUSH1 0x20 ADD PUSH0 KECCAK256 SLOAD SWAP1 POP PUSH0 DUP2 GT PUSH2 0x996 JUMPI PUSH1 0x40 MLOAD PUSH32 0x8C379A000000000000000000000000000000000000000000000000000000000 DUP2 MSTORE PUSH1 0x4 ADD PUSH2 0x98D SWAP1 PUSH2 0x26D4 JUMP JUMPDEST PUSH1 0x40 MLOAD DUP1 SWAP2 SUB SWAP1 REVERT JUMPDEST PUSH0 DUP3 PUSH1 0x6 ADD PUSH0 SWAP1 SLOAD SWAP1 PUSH2 0x100 EXP SWAP1 DIV PUSH1 0xFF AND SWAP1 POP DUP2 DUP4 PUSH1 0x5 ADD PUSH0 DUP3 DUP3 SLOAD PUSH2 0x9BD SWAP2 SWAP1 PUSH2 0x242A JUMP JUMPDEST SWAP3 POP POP DUP2 SWAP1 SSTORE POP DUP2 PUSH1 0x9 PUSH0 DUP7 DUP2 MSTORE PUSH1 0x20 ADD SWAP1 DUP2 MSTORE PUSH1 0x20 ADD PUSH0 KECCAK256 PUSH0 CALLER PUSH20 0xFFFFFFFFFFFFFFFFFFFFFFFFFFFFFFFFFFFFFFFF AND PUSH20 0xFFFFFFFFFFFFFFFFFFFFFFFFFFFFFFFFFFFFFFFF AND DUP2 MSTORE PUSH1 0x20 ADD SWAP1 DUP2 MSTORE PUSH1 0x20 ADD PUSH0 KECCAK256 PUSH0 DUP3 DUP3 SLOAD PUSH2 0xA1F SWAP2 SWAP1 PUSH2 0x242A JUMP JUMPDEST SWAP3 POP POP DUP2 SWAP1 SSTORE POP DUP2 PUSH1 0x1 PUSH0 DUP3 DUP3 SLOAD PUSH2 0xA37 SWAP2 SWAP1 PUSH2 0x242A JUMP JUMPDEST SWAP3 POP POP DUP2 SWAP1 SSTORE POP DUP1 DUP1 ISZERO PUSH2 0xA52 JUMPI POP DUP3 PUSH1 0x3 ADD SLOAD DUP4 PUSH1 0x5 ADD SLOAD LT JUMPDEST ISZERO PUSH2 0xAB1 JUMPI PUSH0 DUP4 PUSH1 0x6 ADD PUSH0 PUSH2 0x100 EXP DUP2 SLOAD DUP2 PUSH1 0xFF MUL NOT AND SWAP1 DUP4 ISZERO ISZERO MUL OR SWAP1 SSTORE POP PUSH0 DUP4 PUSH1 0x8 ADD PUSH1 0x1 PUSH2 0x100 EXP DUP2 SLOAD DUP2 PUSH1 0xFF MUL NOT AND SWAP1 DUP4 ISZERO ISZERO MUL OR SWAP1 SSTORE POP PUSH0 PUSH1 0x4 SLOAD GT ISZERO PUSH2 0xAB0 JUMPI PUSH1 0x4 PUSH0 DUP2 SLOAD DUP1 SWAP3 SWAP2 SWAP1 PUSH2 0xAAA SWAP1 PUSH2 0x26F2 JUMP JUMPDEST SWAP2 SWAP1 POP SSTORE POP JUMPDEST JUMPDEST PUSH0 CALLER PUSH20 0xFFFFFFFFFFFFFFFFFFFFFFFFFFFFFFFFFFFFFFFF AND DUP4 PUSH1 0x40 MLOAD PUSH2 0xAD6 SWAP1 PUSH2 0x2746 JUMP JUMPDEST PUSH0 PUSH1 0x40 MLOAD DUP1 DUP4 SUB DUP2 DUP6 DUP8 GAS CALL SWAP3 POP POP POP RETURNDATASIZE DUP1 PUSH0 DUP2 EQ PUSH2 0xB10 JUMPI PUSH1 0x40 MLOAD SWAP2 POP PUSH1 0x1F NOT PUSH1 0x3F RETURNDATASIZE ADD AND DUP3 ADD PUSH1 0x40 MSTORE RETURNDATASIZE DUP3 MSTORE RETURNDATASIZE PUSH0 PUSH1 0x20 DUP5 ADD RETURNDATACOPY PUSH2 0xB15 JUMP JUMPDEST PUSH1 0x60 SWAP2 POP JUMPDEST POP POP SWAP1 POP DUP1 PUSH2 0xB59 JUMPI PUSH1 0x40 MLOAD PUSH32 0x8C379A000000000000000000000000000000000000000000000000000000000 DUP2 MSTORE PUSH1 0x4 ADD PUSH2 0xB50 SWAP1 PUSH2 0x27A4 JUMP JUMPDEST PUSH1 0x40 MLOAD DUP1 SWAP2 SUB SWAP1 REVERT JUMPDEST DUP5 PUSH32 0xB6E4E293B6C7C5CF68FBB52EDFACA6173710FCCCBCECAC03C32E62327FC000C6 CALLER DUP6 PUSH1 0x40 MLOAD PUSH2 0xB8B SWAP3 SWAP2 SWAP1 PUSH2 0x27C2 JUMP JUMPDEST PUSH1 0x40 MLOAD DUP1 SWAP2 SUB SWAP1 LOG2 POP POP POP POP POP JUMP JUMPDEST PUSH0 PUSH0 PUSH1 0x8 PUSH0 DUP5 DUP2 MSTORE PUSH1 0x20 ADD SWAP1 DUP2 MSTORE PUSH1 0x20 ADD PUSH0 KECCAK256 SWAP1 POP PUSH0 DUP2 PUSH1 0x3 ADD SLOAD PUSH1 0x64 DUP4 PUSH1 0x5 ADD SLOAD PUSH2 0xBC6 SWAP2 SWAP1 PUSH2 0x27E9 JUMP JUMPDEST PUSH2 0xBD0 SWAP2 SWAP1 PUSH2 0x2857 JUMP JUMPDEST SWAP1 POP DUP1 SWAP3 POP POP POP SWAP2 SWAP1 POP JUMP JUMPDEST PUSH0 PUSH0 PUSH1 0x4 SLOAD PUSH1 0x5 SLOAD SWAP2 POP SWAP2 POP SWAP1 SWAP2 JUMP JUMPDEST PUSH0 PUSH1 0x1 SLOAD SWAP1 POP SWAP1 JUMP JUMPDEST PUSH1 0x9 PUSH1 0x20 MSTORE DUP2 PUSH0 MSTORE PUSH1 0x40 PUSH0 KECCAK256 PUSH1 0x20 MSTORE DUP1 PUSH0 MSTORE PUSH1 0x40 PUSH0 KECCAK256 PUSH0 SWAP2 POP SWAP2 POP POP SLOAD DUP2 JUMP JUMPDEST PUSH0 PUSH1 0x8 PUSH0 DUP5 DUP2 MSTORE PUSH1 0x20 ADD SWAP1 DUP2 MSTORE PUSH1 0x20 ADD PUSH0 KECCAK256 SWAP1 POP CALLER PUSH20 0xFFFFFFFFFFFFFFFFFFFFFFFFFFFFFFFFFFFFFFFF AND DUP2 PUSH0 ADD PUSH0 SWAP1 SLOAD SWAP1 PUSH2 0x100 EXP SWAP1 DIV PUSH20 0xFFFFFFFFFFFFFFFFFFFFFFFFFFFFFFFFFFFFFFFF AND PUSH20 0xFFFFFFFFFFFFFFFFFFFFFFFFFFFFFFFFFFFFFFFF AND EQ PUSH2 0xCB9 JUMPI PUSH1 0x40 MLOAD PUSH32 0x8C379A000000000000000000000000000000000000000000000000000000000 DUP2 MSTORE PUSH1 0x4 ADD PUSH2 0xCB0 SWAP1 PUSH2 0x28F7 JUMP JUMPDEST PUSH1 0x40 MLOAD DUP1 SWAP2 SUB SWAP1 REVERT JUMPDEST DUP2 DUP2 PUSH1 0x4 ADD PUSH0 DUP3 DUP3 SLOAD PUSH2 0xCCC SWAP2 SWAP1 PUSH2 0x2915 JUMP JUMPDEST SWAP3 POP POP DUP2 SWAP1 SSTORE POP POP POP POP JUMP JUMPDEST PUSH2 0xCE0 PUSH2 0x1DB5 JUMP JUMPDEST PUSH0 PUSH1 0x8 PUSH0 DUP4 DUP2 MSTORE PUSH1 0x20 ADD SWAP1 DUP2 MSTORE PUSH1 0x20 ADD PUSH0 KECCAK256 SWAP1 POP DUP1 PUSH1 0x4 ADD SLOAD TIMESTAMP GT ISZERO PUSH2 0xD3B JUMPI PUSH1 0x40 MLOAD PUSH32 0x8C379A000000000000000000000000000000000000000000000000000000000 DUP2 MSTORE PUSH1 0x4 ADD PUSH2 0xD32 SWAP1 PUSH2 0x2992 JUMP JUMPDEST PUSH1 0x40 MLOAD DUP1 SWAP2 SUB SWAP1 REVERT JUMPDEST DUP1 PUSH1 0x6 ADD PUSH0 SWAP1 SLOAD SWAP1 PUSH2 0x100 EXP SWAP1 DIV PUSH1 0xFF AND ISZERO PUSH2 0xD8C JUMPI PUSH1 0x40 MLOAD PUSH32 0x8C379A000000000000000000000000000000000000000000000000000000000 DUP2 MSTORE PUSH1 0x4 ADD PUSH2 0xD83 SWAP1 PUSH2 0x2A20 JUMP JUMPDEST PUSH1 0x40 MLOAD DUP1 SWAP2 SUB SWAP1 REVERT JUMPDEST PUSH0 CALLVALUE GT PUSH2 0xDCE JUMPI PUSH1 0x40 MLOAD PUSH32 0x8C379A000000000000000000000000000000000000000000000000000000000 DUP2 MSTORE PUSH1 0x4 ADD PUSH2 0xDC5 SWAP1 PUSH2 0x2AAE JUMP JUMPDEST PUSH1 0x40 MLOAD DUP1 SWAP2 SUB SWAP1 REVERT JUMPDEST DUP1 PUSH1 0x3 ADD SLOAD CALLVALUE GT ISZERO PUSH2 0xE15 JUMPI PUSH1 0x40 MLOAD PUSH32 0x8C379A000000000000000000000000000000000000000000000000000000000 DUP2 MSTORE PUSH1 0x4 ADD PUSH2 0xE0C SWAP1 PUSH2 0x2B3C JUMP JUMPDEST PUSH1 0x40 MLOAD DUP1 SWAP2 SUB SWAP1 REVERT JUMPDEST PUSH0 DUP2 PUSH1 0x5 ADD SLOAD DUP3 PUSH1 0x3 ADD SLOAD PUSH2 0xE2A SWAP2 SWAP1 PUSH2 0x242A JUMP JUMPDEST SWAP1 POP PUSH0 PUSH0 DUP3 CALLVALUE GT ISZERO PUSH2 0xE4C JUMPI DUP3 SWAP2 POP DUP3 CALLVALUE PUSH2 0xE45 SWAP2 SWAP1 PUSH2 0x242A JUMP JUMPDEST SWAP1 POP PUSH2 0xE53 JUMP JUMPDEST CALLVALUE SWAP2 POP PUSH0 SWAP1 POP JUMPDEST DUP2 DUP5 PUSH1 0x5 ADD PUSH0 DUP3 DUP3 SLOAD PUSH2 0xE66 SWAP2 SWAP1 PUSH2 0x2915 JUMP JUMPDEST SWAP3 POP POP DUP2 SWAP1 SSTORE POP DUP2 PUSH1 0x9 PUSH0 DUP8 DUP2 MSTORE PUSH1 0x20 ADD SWAP1 DUP2 MSTORE PUSH1 0x20 ADD PUSH0 KECCAK256 PUSH0 CALLER PUSH20 0xFFFFFFFFFFFFFFFFFFFFFFFFFFFFFFFFFFFFFFFF AND PUSH20 0xFFFFFFFFFFFFFFFFFFFFFFFFFFFFFFFFFFFFFFFF AND DUP2 MSTORE PUSH1 0x20 ADD SWAP1 DUP2 MSTORE PUSH1 0x20 ADD PUSH0 KECCAK256 DUP2 SWAP1 SSTORE POP DUP2 PUSH1 0x1 PUSH0 DUP3 DUP3 SLOAD PUSH2 0xECF SWAP2 SWAP1 PUSH2 0x2915 JUMP JUMPDEST SWAP3 POP POP DUP2 SWAP1 SSTORE POP PUSH0 DUP2 GT ISZERO PUSH2 0xF88 JUMPI PUSH0 CALLER PUSH20 0xFFFFFFFFFFFFFFFFFFFFFFFFFFFFFFFFFFFFFFFF AND DUP3 PUSH1 0x40 MLOAD PUSH2 0xF03 SWAP1 PUSH2 0x2746 JUMP JUMPDEST PUSH0 PUSH1 0x40 MLOAD DUP1 DUP4 SUB DUP2 DUP6 DUP8 GAS CALL SWAP3 POP POP POP RETURNDATASIZE DUP1 PUSH0 DUP2 EQ PUSH2 0xF3D JUMPI PUSH1 0x40 MLOAD SWAP2 POP PUSH1 0x1F NOT PUSH1 0x3F RETURNDATASIZE ADD AND DUP3 ADD PUSH1 0x40 MSTORE RETURNDATASIZE DUP3 MSTORE RETURNDATASIZE PUSH0 PUSH1 0x20 DUP5 ADD RETURNDATACOPY PUSH2 0xF42 JUMP JUMPDEST PUSH1 0x60 SWAP2 POP JUMPDEST POP POP SWAP1 POP DUP1 PUSH2 0xF86 JUMPI PUSH1 0x40 MLOAD PUSH32 0x8C379A000000000000000000000000000000000000000000000000000000000 DUP2 MSTORE PUSH1 0x4 ADD PUSH2 0xF7D SWAP1 PUSH2 0x2BA4 JUMP JUMPDEST PUSH1 0x40 MLOAD DUP1 SWAP2 SUB SWAP1 REVERT JUMPDEST POP JUMPDEST PUSH0 PUSH1 0x9 PUSH0 DUP8 DUP2 MSTORE PUSH1 0x20 ADD SWAP1 DUP2 MSTORE PUSH1 0x20 ADD PUSH0 KECCAK256 PUSH0 CALLER PUSH20 0xFFFFFFFFFFFFFFFFFFFFFFFFFFFFFFFFFFFFFFFF AND PUSH20 0xFFFFFFFFFFFFFFFFFFFFFFFFFFFFFFFFFFFFFFFF AND DUP2 MSTORE PUSH1 0x20 ADD SWAP1 DUP2 MSTORE PUSH1 0x20 ADD PUSH0 KECCAK256 SLOAD SWAP1 POP DUP5 PUSH1 0x7 ADD SLOAD DUP2 GT ISZERO PUSH2 0x1031 JUMPI DUP1 DUP6 PUSH1 0x7 ADD DUP2 SWAP1 SSTORE POP CALLER DUP6 PUSH1 0x6 ADD PUSH1 0x1 PUSH2 0x100 EXP DUP2 SLOAD DUP2 PUSH20 0xFFFFFFFFFFFFFFFFFFFFFFFFFFFFFFFFFFFFFFFF MUL NOT AND SWAP1 DUP4 PUSH20 0xFFFFFFFFFFFFFFFFFFFFFFFFFFFFFFFFFFFFFFFF AND MUL OR SWAP1 SSTORE POP JUMPDEST DUP6 PUSH32 0x7DD983E9D08B449D571F3583275E98423857F3FFBE9EF56F927EB02B1C8AB599 CALLER DUP6 DUP6 PUSH1 0x40 MLOAD PUSH2 0x1065 SWAP4 SWAP3 SWAP2 SWAP1 PUSH2 0x2BC2 JUMP JUMPDEST PUSH1 0x40 MLOAD DUP1 SWAP2 SUB SWAP1 LOG2 DUP5 PUSH1 0x3 ADD SLOAD DUP6 PUSH1 0x5 ADD SLOAD LT ISZERO DUP1 ISZERO PUSH2 0x1094 JUMPI POP DUP5 PUSH1 0x8 ADD PUSH1 0x1 SWAP1 SLOAD SWAP1 PUSH2 0x100 EXP SWAP1 DIV PUSH1 0xFF AND ISZERO JUMPDEST ISZERO PUSH2 0x10EA JUMPI PUSH1 0x1 DUP6 PUSH1 0x6 ADD PUSH0 PUSH2 0x100 EXP DUP2 SLOAD DUP2 PUSH1 0xFF MUL NOT AND SWAP1 DUP4 ISZERO ISZERO MUL OR SWAP1 SSTORE POP PUSH1 0x1 DUP6 PUSH1 0x8 ADD PUSH1 0x1 PUSH2 0x100 EXP DUP2 SLOAD DUP2 PUSH1 0xFF MUL NOT AND SWAP1 DUP4 ISZERO ISZERO MUL OR SWAP1 SSTORE POP PUSH1 0x4 PUSH0 DUP2 SLOAD DUP1 SWAP3 SWAP2 SWAP1 PUSH2 0x10E4 SWAP1 PUSH2 0x2BF7 JUMP JUMPDEST SWAP2 SWAP1 POP SSTORE POP JUMPDEST POP POP POP POP POP PUSH2 0x10F7 PUSH2 0x1DF9 JUMP JUMPDEST POP JUMP JUMPDEST PUSH0 PUSH1 0x8 PUSH0 DUP4 DUP2 MSTORE PUSH1 0x20 ADD SWAP1 DUP2 MSTORE PUSH1 0x20 ADD PUSH0 KECCAK256 SWAP1 POP PUSH0 DUP2 PUSH1 0x5 ADD SLOAD SWAP1 POP DUP2 PUSH1 0x6 ADD PUSH0 SWAP1 SLOAD SWAP1 PUSH2 0x100 EXP SWAP1 DIV PUSH1 0xFF AND PUSH2 0x1166 JUMPI PUSH1 0x40 MLOAD PUSH32 0x8C379A000000000000000000000000000000000000000000000000000000000 DUP2 MSTORE PUSH1 0x4 ADD PUSH2 0x115D SWAP1 PUSH2 0x2CAE JUMP JUMPDEST PUSH1 0x40 MLOAD DUP1 SWAP2 SUB SWAP1 REVERT JUMPDEST CALLER PUSH20 0xFFFFFFFFFFFFFFFFFFFFFFFFFFFFFFFFFFFFFFFF AND DUP3 PUSH0 ADD PUSH0 SWAP1 SLOAD SWAP1 PUSH2 0x100 EXP SWAP1 DIV PUSH20 0xFFFFFFFFFFFFFFFFFFFFFFFFFFFFFFFFFFFFFFFF AND PUSH20 0xFFFFFFFFFFFFFFFFFFFFFFFFFFFFFFFFFFFFFFFF AND EQ PUSH2 0x11F6 JUMPI PUSH1 0x40 MLOAD PUSH32 0x8C379A000000000000000000000000000000000000000000000000000000000 DUP2 MSTORE PUSH1 0x4 ADD PUSH2 0x11ED SWAP1 PUSH2 0x2D16 JUMP JUMPDEST PUSH1 0x40 MLOAD DUP1 SWAP2 SUB SWAP1 REVERT JUMPDEST TIMESTAMP DUP3 PUSH1 0x4 ADD SLOAD GT ISZERO PUSH2 0x123D JUMPI PUSH1 0x40 MLOAD PUSH32 0x8C379A000000000000000000000000000000000000000000000000000000000 DUP2 MSTORE PUSH1 0x4 ADD PUSH2 0x1234 SWAP1 PUSH2 0x2DA4 JUMP JUMPDEST PUSH1 0x40 MLOAD DUP1 SWAP2 SUB SWAP1 REVERT JUMPDEST CALLER PUSH20 0xFFFFFFFFFFFFFFFFFFFFFFFFFFFFFFFFFFFFFFFF AND PUSH2 0x8FC DUP3 SWAP1 DUP2 ISZERO MUL SWAP1 PUSH1 0x40 MLOAD PUSH0 PUSH1 0x40 MLOAD DUP1 DUP4 SUB DUP2 DUP6 DUP9 DUP9 CALL SWAP4 POP POP POP POP ISZERO DUP1 ISZERO PUSH2 0x1280 JUMPI RETURNDATASIZE PUSH0 PUSH0 RETURNDATACOPY RETURNDATASIZE PUSH0 REVERT JUMPDEST POP DUP3 PUSH32 0xCAE030E1A3C6B0011E7009BD65734E2E1E330528F6983497631FABD47FA7A281 CALLER CALLVALUE PUSH1 0x40 MLOAD PUSH2 0x12B3 SWAP3 SWAP2 SWAP1 PUSH2 0x27C2 JUMP JUMPDEST PUSH1 0x40 MLOAD DUP1 SWAP2 SUB SWAP1 LOG2 POP POP POP JUMP JUMPDEST CALLER PUSH20 0xFFFFFFFFFFFFFFFFFFFFFFFFFFFFFFFFFFFFFFFF AND PUSH1 0x3 PUSH0 SWAP1 SLOAD SWAP1 PUSH2 0x100 EXP SWAP1 DIV PUSH20 0xFFFFFFFFFFFFFFFFFFFFFFFFFFFFFFFFFFFFFFFF AND PUSH20 0xFFFFFFFFFFFFFFFFFFFFFFFFFFFFFFFFFFFFFFFF AND EQ PUSH2 0x134F JUMPI PUSH1 0x40 MLOAD PUSH32 0x8C379A000000000000000000000000000000000000000000000000000000000 DUP2 MSTORE PUSH1 0x4 ADD PUSH2 0x1346 SWAP1 PUSH2 0x2E0C JUMP JUMPDEST PUSH1 0x40 MLOAD DUP1 SWAP2 SUB SWAP1 REVERT JUMPDEST PUSH0 PUSH1 0x6 PUSH0 DUP4 PUSH20 0xFFFFFFFFFFFFFFFFFFFFFFFFFFFFFFFFFFFFFFFF AND PUSH20 0xFFFFFFFFFFFFFFFFFFFFFFFFFFFFFFFFFFFFFFFF AND DUP2 MSTORE PUSH1 0x20 ADD SWAP1 DUP2 MSTORE PUSH1 0x20 ADD PUSH0 KECCAK256 PUSH0 PUSH2 0x100 EXP DUP2 SLOAD DUP2 PUSH1 0xFF MUL NOT AND SWAP1 DUP4 ISZERO ISZERO MUL OR SWAP1 SSTORE POP DUP1 PUSH20 0xFFFFFFFFFFFFFFFFFFFFFFFFFFFFFFFFFFFFFFFF AND PUSH32 0x925D0E195CC39B7ADE3FD58FDF494022E37BFD6242C2BE09C0B2863977C1879 PUSH1 0x40 MLOAD PUSH1 0x40 MLOAD DUP1 SWAP2 SUB SWAP1 LOG2 POP JUMP JUMPDEST PUSH1 0x6 PUSH1 0x20 MSTORE DUP1 PUSH0 MSTORE PUSH1 0x40 PUSH0 KECCAK256 PUSH0 SWAP2 POP SLOAD SWAP1 PUSH2 0x100 EXP SWAP1 DIV PUSH1 0xFF AND DUP2 JUMP JUMPDEST PUSH1 0x2 SLOAD DUP2 JUMP JUMPDEST PUSH0 PUSH1 0x8 PUSH0 DUP5 DUP2 MSTORE PUSH1 0x20 ADD SWAP1 DUP2 MSTORE PUSH1 0x20 ADD PUSH0 KECCAK256 SWAP1 POP DUP1 PUSH1 0x4 ADD SLOAD TIMESTAMP LT PUSH2 0x1466 JUMPI PUSH1 0x40 MLOAD PUSH32 0x8C379A000000000000000000000000000000000000000000000000000000000 DUP2 MSTORE PUSH1 0x4 ADD PUSH2 0x145D SWAP1 PUSH2 0x2E74 JUMP JUMPDEST PUSH1 0x40 MLOAD DUP1 SWAP2 SUB SWAP1 REVERT JUMPDEST PUSH0 PUSH1 0x9 PUSH0 DUP6 DUP2 MSTORE PUSH1 0x20 ADD SWAP1 DUP2 MSTORE PUSH1 0x20 ADD PUSH0 KECCAK256 PUSH0 CALLER PUSH20 0xFFFFFFFFFFFFFFFFFFFFFFFFFFFFFFFFFFFFFFFF AND PUSH20 0xFFFFFFFFFFFFFFFFFFFFFFFFFFFFFFFFFFFFFFFF AND DUP2 MSTORE PUSH1 0x20 ADD SWAP1 DUP2 MSTORE PUSH1 0x20 ADD PUSH0 KECCAK256 SLOAD SWAP1 POP PUSH0 DUP2 GT PUSH2 0x14F8 JUMPI PUSH1 0x40 MLOAD PUSH32 0x8C379A000000000000000000000000000000000000000000000000000000000 DUP2 MSTORE PUSH1 0x4 ADD PUSH2 0x14EF SWAP1 PUSH2 0x2EDC JUMP JUMPDEST PUSH1 0x40 MLOAD DUP1 SWAP2 SUB SWAP1 REVERT JUMPDEST DUP1 DUP4 GT ISZERO PUSH2 0x153B JUMPI PUSH1 0x40 MLOAD PUSH32 0x8C379A000000000000000000000000000000000000000000000000000000000 DUP2 MSTORE PUSH1 0x4 ADD PUSH2 0x1532 SWAP1 PUSH2 0x2F6A JUMP JUMPDEST PUSH1 0x40 MLOAD DUP1 SWAP2 SUB SWAP1 REVERT JUMPDEST PUSH0 DUP3 PUSH1 0x6 ADD PUSH0 SWAP1 SLOAD SWAP1 PUSH2 0x100 EXP SWAP1 DIV PUSH1 0xFF AND SWAP1 POP DUP4 DUP4 PUSH1 0x5 ADD PUSH0 DUP3 DUP3 SLOAD PUSH2 0x1562 SWAP2 SWAP1 PUSH2 0x242A JUMP JUMPDEST SWAP3 POP POP DUP2 SWAP1 SSTORE POP DUP4 PUSH1 0x9 PUSH0 DUP8 DUP2 MSTORE PUSH1 0x20 ADD SWAP1 DUP2 MSTORE PUSH1 0x20 ADD PUSH0 KECCAK256 PUSH0 CALLER PUSH20 0xFFFFFFFFFFFFFFFFFFFFFFFFFFFFFFFFFFFFFFFF AND PUSH20 0xFFFFFFFFFFFFFFFFFFFFFFFFFFFFFFFFFFFFFFFF AND DUP2 MSTORE PUSH1 0x20 ADD SWAP1 DUP2 MSTORE PUSH1 0x20 ADD PUSH0 KECCAK256 PUSH0 DUP3 DUP3 SLOAD PUSH2 0x15C4 SWAP2 SWAP1 PUSH2 0x242A JUMP JUMPDEST SWAP3 POP POP DUP2 SWAP1 SSTORE POP DUP4 PUSH1 0x1 PUSH0 DUP3 DUP3 SLOAD PUSH2 0x15DC SWAP2 SWAP1 PUSH2 0x242A JUMP JUMPDEST SWAP3 POP POP DUP2 SWAP1 SSTORE POP DUP1 DUP1 ISZERO PUSH2 0x15F7 JUMPI POP DUP3 PUSH1 0x3 ADD SLOAD DUP4 PUSH1 0x5 ADD SLOAD LT JUMPDEST ISZERO PUSH2 0x1656 JUMPI PUSH0 DUP4 PUSH1 0x6 ADD PUSH0 PUSH2 0x100 EXP DUP2 SLOAD DUP2 PUSH1 0xFF MUL NOT AND SWAP1 DUP4 ISZERO ISZERO MUL OR SWAP1 SSTORE POP PUSH0 DUP4 PUSH1 0x8 ADD PUSH1 0x1 PUSH2 0x100 EXP DUP2 SLOAD DUP2 PUSH1 0xFF MUL NOT AND SWAP1 DUP4 ISZERO ISZERO MUL OR SWAP1 SSTORE POP PUSH0 PUSH1 0x4 SLOAD GT ISZERO PUSH2 0x1655 JUMPI PUSH1 0x4 PUSH0 DUP2 SLOAD DUP1 SWAP3 SWAP2 SWAP1 PUSH2 0x164F SWAP1 PUSH2 0x26F2 JUMP JUMPDEST SWAP2 SWAP1 POP SSTORE POP JUMPDEST JUMPDEST PUSH0 CALLER PUSH20 0xFFFFFFFFFFFFFFFFFFFFFFFFFFFFFFFFFFFFFFFF AND DUP6 PUSH1 0x40 MLOAD PUSH2 0x167B SWAP1 PUSH2 0x2746 JUMP JUMPDEST PUSH0 PUSH1 0x40 MLOAD DUP1 DUP4 SUB DUP2 DUP6 DUP8 GAS CALL SWAP3 POP POP POP RETURNDATASIZE DUP1 PUSH0 DUP2 EQ PUSH2 0x16B5 JUMPI PUSH1 0x40 MLOAD SWAP2 POP PUSH1 0x1F NOT PUSH1 0x3F RETURNDATASIZE ADD AND DUP3 ADD PUSH1 0x40 MSTORE RETURNDATASIZE DUP3 MSTORE RETURNDATASIZE PUSH0 PUSH1 0x20 DUP5 ADD RETURNDATACOPY PUSH2 0x16BA JUMP JUMPDEST PUSH1 0x60 SWAP2 POP JUMPDEST POP POP SWAP1 POP DUP1 PUSH2 0x16FE JUMPI PUSH1 0x40 MLOAD PUSH32 0x8C379A000000000000000000000000000000000000000000000000000000000 DUP2 MSTORE PUSH1 0x4 ADD PUSH2 0x16F5 SWAP1 PUSH2 0x2FD2 JUMP JUMPDEST PUSH1 0x40 MLOAD DUP1 SWAP2 SUB SWAP1 REVERT JUMPDEST DUP6 CALLER PUSH20 0xFFFFFFFFFFFFFFFFFFFFFFFFFFFFFFFFFFFFFFFF AND PUSH32 0xB37480540FFB97FF520A59B38EA1A83AEFBFD3D2A956D958A00214B8B6551F28 DUP8 PUSH1 0x40 MLOAD PUSH2 0x1745 SWAP2 SWAP1 PUSH2 0x2065 JUMP JUMPDEST PUSH1 0x40 MLOAD DUP1 SWAP2 SUB SWAP1 LOG3 POP POP POP POP POP POP JUMP JUMPDEST PUSH0 PUSH0 SWAP1 POP JUMPDEST PUSH1 0xB DUP1 SLOAD SWAP1 POP DUP2 LT ISZERO PUSH2 0x1893 JUMPI PUSH0 PUSH1 0xB DUP3 DUP2 SLOAD DUP2 LT PUSH2 0x177C JUMPI PUSH2 0x177B PUSH2 0x2FF0 JUMP JUMPDEST JUMPDEST SWAP1 PUSH0 MSTORE PUSH1 0x20 PUSH0 KECCAK256 ADD SLOAD SWAP1 POP PUSH0 PUSH1 0x8 PUSH0 DUP4 DUP2 MSTORE PUSH1 0x20 ADD SWAP1 DUP2 MSTORE PUSH1 0x20 ADD PUSH0 KECCAK256 SWAP1 POP DUP1 PUSH1 0x8 ADD PUSH1 0x1 SWAP1 SLOAD SWAP1 PUSH2 0x100 EXP SWAP1 DIV PUSH1 0xFF AND ISZERO DUP1 ISZERO PUSH2 0x17BE JUMPI POP DUP1 PUSH1 0x4 ADD SLOAD TIMESTAMP LT ISZERO JUMPDEST ISZERO PUSH2 0x1884 JUMPI PUSH1 0x1 DUP2 PUSH1 0x8 ADD PUSH1 0x1 PUSH2 0x100 EXP DUP2 SLOAD DUP2 PUSH1 0xFF MUL NOT AND SWAP1 DUP4 ISZERO ISZERO MUL OR SWAP1 SSTORE POP DUP1 PUSH1 0x3 ADD SLOAD DUP2 PUSH1 0x5 ADD SLOAD LT ISZERO DUP1 ISZERO PUSH2 0x17FC JUMPI POP DUP1 PUSH1 0x4 ADD SLOAD TIMESTAMP LT ISZERO JUMPDEST ISZERO PUSH2 0x184F JUMPI DUP1 PUSH1 0x6 ADD PUSH0 SWAP1 SLOAD SWAP1 PUSH2 0x100 EXP SWAP1 DIV PUSH1 0xFF AND PUSH2 0x184A JUMPI PUSH1 0x1 DUP2 PUSH1 0x6 ADD PUSH0 PUSH2 0x100 EXP DUP2 SLOAD DUP2 PUSH1 0xFF MUL NOT AND SWAP1 DUP4 ISZERO ISZERO MUL OR SWAP1 SSTORE POP PUSH1 0x4 PUSH0 DUP2 SLOAD DUP1 SWAP3 SWAP2 SWAP1 PUSH2 0x1844 SWAP1 PUSH2 0x2BF7 JUMP JUMPDEST SWAP2 SWAP1 POP SSTORE POP JUMPDEST PUSH2 0x1883 JUMP JUMPDEST PUSH1 0x1 DUP2 PUSH1 0x8 ADD PUSH0 PUSH2 0x100 EXP DUP2 SLOAD DUP2 PUSH1 0xFF MUL NOT AND SWAP1 DUP4 ISZERO ISZERO MUL OR SWAP1 SSTORE POP PUSH1 0x5 PUSH0 DUP2 SLOAD DUP1 SWAP3 SWAP2 SWAP1 PUSH2 0x187D SWAP1 PUSH2 0x2BF7 JUMP JUMPDEST SWAP2 SWAP1 POP SSTORE POP JUMPDEST JUMPDEST POP POP DUP1 DUP1 PUSH1 0x1 ADD SWAP2 POP POP PUSH2 0x175A JUMP JUMPDEST POP JUMP JUMPDEST PUSH1 0xA PUSH0 DUP3 DUP2 MSTORE PUSH1 0x20 ADD SWAP1 DUP2 MSTORE PUSH1 0x20 ADD PUSH0 KECCAK256 PUSH0 SWAP1 SLOAD SWAP1 PUSH2 0x100 EXP SWAP1 DIV PUSH1 0xFF AND ISZERO PUSH2 0x18F4 JUMPI PUSH1 0x40 MLOAD PUSH32 0x8C379A000000000000000000000000000000000000000000000000000000000 DUP2 MSTORE PUSH1 0x4 ADD PUSH2 0x18EB SWAP1 PUSH2 0x3067 JUMP JUMPDEST PUSH1 0x40 MLOAD DUP1 SWAP2 SUB SWAP1 REVERT JUMPDEST PUSH1 0x6 PUSH0 CALLER PUSH20 0xFFFFFFFFFFFFFFFFFFFFFFFFFFFFFFFFFFFFFFFF AND PUSH20 0xFFFFFFFFFFFFFFFFFFFFFFFFFFFFFFFFFFFFFFFF AND DUP2 MSTORE PUSH1 0x20 ADD SWAP1 DUP2 MSTORE PUSH1 0x20 ADD PUSH0 KECCAK256 PUSH0 SWAP1 SLOAD SWAP1 PUSH2 0x100 EXP SWAP1 DIV PUSH1 0xFF AND PUSH2 0x197D JUMPI PUSH1 0x40 MLOAD PUSH32 0x8C379A000000000000000000000000000000000000000000000000000000000 DUP2 MSTORE PUSH1 0x4 ADD PUSH2 0x1974 SWAP1 PUSH2 0x30F5 JUMP JUMPDEST PUSH1 0x40 MLOAD DUP1 SWAP2 SUB SWAP1 REVERT JUMPDEST PUSH1 0x1 PUSH1 0xA PUSH0 DUP4 DUP2 MSTORE PUSH1 0x20 ADD SWAP1 DUP2 MSTORE PUSH1 0x20 ADD PUSH0 KECCAK256 PUSH0 PUSH2 0x100 EXP DUP2 SLOAD DUP2 PUSH1 0xFF MUL NOT AND SWAP1 DUP4 ISZERO ISZERO MUL OR SWAP1 SSTORE POP PUSH1 0x40 MLOAD DUP1 PUSH2 0x160 ADD PUSH1 0x40 MSTORE DUP1 CALLER PUSH20 0xFFFFFFFFFFFFFFFFFFFFFFFFFFFFFFFFFFFFFFFF AND DUP2 MSTORE PUSH1 0x20 ADD DUP7 DUP2 MSTORE PUSH1 0x20 ADD DUP6 DUP2 MSTORE PUSH1 0x20 ADD DUP5 DUP2 MSTORE PUSH1 0x20 ADD DUP4 TIMESTAMP PUSH2 0x19EC SWAP2 SWAP1 PUSH2 0x2915 JUMP JUMPDEST DUP2 MSTORE PUSH1 0x20 ADD PUSH0 DUP2 MSTORE PUSH1 0x20 ADD PUSH0 ISZERO ISZERO DUP2 MSTORE PUSH1 0x20 ADD PUSH0 PUSH20 0xFFFFFFFFFFFFFFFFFFFFFFFFFFFFFFFFFFFFFFFF AND DUP2 MSTORE PUSH1 0x20 ADD PUSH0 DUP2 MSTORE PUSH1 0x20 ADD PUSH0 ISZERO ISZERO DUP2 MSTORE PUSH1 0x20 ADD PUSH0 ISZERO ISZERO DUP2 MSTORE POP PUSH1 0x8 PUSH0 DUP4 DUP2 MSTORE PUSH1 0x20 ADD SWAP1 DUP2 MSTORE PUSH1 0x20 ADD PUSH0 KECCAK256 PUSH0 DUP3 ADD MLOAD DUP2 PUSH0 ADD PUSH0 PUSH2 0x100 EXP DUP2 SLOAD DUP2 PUSH20 0xFFFFFFFFFFFFFFFFFFFFFFFFFFFFFFFFFFFFFFFF MUL NOT AND SWAP1 DUP4 PUSH20 0xFFFFFFFFFFFFFFFFFFFFFFFFFFFFFFFFFFFFFFFF AND MUL OR SWAP1 SSTORE POP PUSH1 0x20 DUP3 ADD MLOAD DUP2 PUSH1 0x1 ADD SWAP1 DUP2 PUSH2 0x1A99 SWAP2 SWAP1 PUSH2 0x32B3 JUMP JUMPDEST POP PUSH1 0x40 DUP3 ADD MLOAD DUP2 PUSH1 0x2 ADD SWAP1 DUP2 PUSH2 0x1AAF SWAP2 SWAP1 PUSH2 0x32B3 JUMP JUMPDEST POP PUSH1 0x60 DUP3 ADD MLOAD DUP2 PUSH1 0x3 ADD SSTORE PUSH1 0x80 DUP3 ADD MLOAD DUP2 PUSH1 0x4 ADD SSTORE PUSH1 0xA0 DUP3 ADD MLOAD DUP2 PUSH1 0x5 ADD SSTORE PUSH1 0xC0 DUP3 ADD MLOAD DUP2 PUSH1 0x6 ADD PUSH0 PUSH2 0x100 EXP DUP2 SLOAD DUP2 PUSH1 0xFF MUL NOT AND SWAP1 DUP4 ISZERO ISZERO MUL OR SWAP1 SSTORE POP PUSH1 0xE0 DUP3 ADD MLOAD DUP2 PUSH1 0x6 ADD PUSH1 0x1 PUSH2 0x100 EXP DUP2 SLOAD DUP2 PUSH20 0xFFFFFFFFFFFFFFFFFFFFFFFFFFFFFFFFFFFFFFFF MUL NOT AND SWAP1 DUP4 PUSH20 0xFFFFFFFFFFFFFFFFFFFFFFFFFFFFFFFFFFFFFFFF AND MUL OR SWAP1 SSTORE POP PUSH2 0x100 DUP3 ADD MLOAD DUP2 PUSH1 0x7 ADD SSTORE PUSH2 0x120 DUP3 ADD MLOAD DUP2 PUSH1 0x8 ADD PUSH0 PUSH2 0x100 EXP DUP2 SLOAD DUP2 PUSH1 0xFF MUL NOT AND SWAP1 DUP4 ISZERO ISZERO MUL OR SWAP1 SSTORE POP PUSH2 0x140 DUP3 ADD MLOAD DUP2 PUSH1 0x8 ADD PUSH1 0x1 PUSH2 0x100 EXP DUP2 SLOAD DUP2 PUSH1 0xFF MUL NOT AND SWAP1 DUP4 ISZERO ISZERO MUL OR SWAP1 SSTORE POP SWAP1 POP POP PUSH1 0x2 PUSH0 DUP2 SLOAD DUP1 SWAP3 SWAP2 SWAP1 PUSH2 0x1B95 SWAP1 PUSH2 0x2BF7 JUMP JUMPDEST SWAP2 SWAP1 POP SSTORE POP PUSH1 0xB DUP2 SWAP1 DUP1 PUSH1 0x1 DUP2 SLOAD ADD DUP1 DUP3 SSTORE DUP1 SWAP2 POP POP PUSH1 0x1 SWAP1 SUB SWAP1 PUSH0 MSTORE PUSH1 0x20 PUSH0 KECCAK256 ADD PUSH0 SWAP1 SWAP2 SWAP1 SWAP2 SWAP1 SWAP2 POP SSTORE CALLER PUSH20 0xFFFFFFFFFFFFFFFFFFFFFFFFFFFFFFFFFFFFFFFF AND DUP2 PUSH32 0xAC9B83534845C9E785A6EA70F2D809DB1D72EF9A1D981753712D922F5CB55F39 DUP8 DUP8 DUP8 DUP8 TIMESTAMP PUSH2 0x1C08 SWAP2 SWAP1 PUSH2 0x2915 JUMP JUMPDEST PUSH1 0x40 MLOAD PUSH2 0x1C18 SWAP5 SWAP4 SWAP3 SWAP2 SWAP1 PUSH2 0x3382 JUMP JUMPDEST PUSH1 0x40 MLOAD DUP1 SWAP2 SUB SWAP1 LOG3 POP POP POP POP POP JUMP JUMPDEST PUSH1 0x3 PUSH0 SWAP1 SLOAD SWAP1 PUSH2 0x100 EXP SWAP1 DIV PUSH20 0xFFFFFFFFFFFFFFFFFFFFFFFFFFFFFFFFFFFFFFFF AND DUP2 JUMP JUMPDEST PUSH0 PUSH0 PUSH0 PUSH0 PUSH0 PUSH1 0x2 SLOAD PUSH1 0x4 SLOAD PUSH1 0x5 SLOAD PUSH1 0x5 SLOAD PUSH1 0x4 SLOAD PUSH1 0x2 SLOAD PUSH2 0x1C6D SWAP2 SWAP1 PUSH2 0x242A JUMP JUMPDEST PUSH2 0x1C77 SWAP2 SWAP1 PUSH2 0x242A JUMP JUMPDEST PUSH1 0x1 SLOAD SWAP5 POP SWAP5 POP SWAP5 POP SWAP5 POP SWAP5 POP SWAP1 SWAP2 SWAP3 SWAP4 SWAP5 JUMP JUMPDEST CALLER PUSH20 0xFFFFFFFFFFFFFFFFFFFFFFFFFFFFFFFFFFFFFFFF AND PUSH1 0x3 PUSH0 SWAP1 SLOAD SWAP1 PUSH2 0x100 EXP SWAP1 DIV PUSH20 0xFFFFFFFFFFFFFFFFFFFFFFFFFFFFFFFFFFFFFFFF AND PUSH20 0xFFFFFFFFFFFFFFFFFFFFFFFFFFFFFFFFFFFFFFFF AND EQ PUSH2 0x1D1A JUMPI PUSH1 0x40 MLOAD PUSH32 0x8C379A000000000000000000000000000000000000000000000000000000000 DUP2 MSTORE PUSH1 0x4 ADD PUSH2 0x1D11 SWAP1 PUSH2 0x2E0C JUMP JUMPDEST PUSH1 0x40 MLOAD DUP1 SWAP2 SUB SWAP1 REVERT JUMPDEST PUSH1 0x1 PUSH1 0x6 PUSH0 DUP4 PUSH20 0xFFFFFFFFFFFFFFFFFFFFFFFFFFFFFFFFFFFFFFFF AND PUSH20 0xFFFFFFFFFFFFFFFFFFFFFFFFFFFFFFFFFFFFFFFF AND DUP2 MSTORE PUSH1 0x20 ADD SWAP1 DUP2 MSTORE PUSH1 0x20 ADD PUSH0 KECCAK256 PUSH0 PUSH2 0x100 EXP DUP2 SLOAD DUP2 PUSH1 0xFF MUL NOT AND SWAP1 DUP4 ISZERO ISZERO MUL OR SWAP1 SSTORE POP DUP1 PUSH20 0xFFFFFFFFFFFFFFFFFFFFFFFFFFFFFFFFFFFFFFFF AND PUSH32 0x1F9F86DC4A3CE57EE42E33C59DEF65713163420D0AB979169EF129299FF2B85E PUSH1 0x40 MLOAD PUSH1 0x40 MLOAD DUP1 SWAP2 SUB SWAP1 LOG2 POP JUMP JUMPDEST PUSH1 0x2 PUSH0 SLOAD SUB PUSH2 0x1DF0 JUMPI PUSH1 0x40 MLOAD PUSH32 0x3EE5AEB500000000000000000000000000000000000000000000000000000000 DUP2 MSTORE PUSH1 0x4 ADD PUSH1 0x40 MLOAD DUP1 SWAP2 SUB SWAP1 REVERT JUMPDEST PUSH1 0x2 PUSH0 DUP2 SWAP1 SSTORE POP JUMP JUMPDEST PUSH1 0x1 PUSH0 DUP2 SWAP1 SSTORE POP JUMP JUMPDEST PUSH0 PUSH1 0x40 MLOAD SWAP1 POP SWAP1 JUMP JUMPDEST PUSH0 PUSH0 REVERT JUMPDEST PUSH0 PUSH0 REVERT JUMPDEST PUSH0 DUP2 SWAP1 POP SWAP2 SWAP1 POP JUMP JUMPDEST PUSH2 0x1E25 DUP2 PUSH2 0x1E13 JUMP JUMPDEST DUP2 EQ PUSH2 0x1E2F JUMPI PUSH0 PUSH0 REVERT JUMPDEST POP JUMP JUMPDEST PUSH0 DUP2 CALLDATALOAD SWAP1 POP PUSH2 0x1E40 DUP2 PUSH2 0x1E1C JUMP JUMPDEST SWAP3 SWAP2 POP POP JUMP JUMPDEST PUSH0 PUSH1 0x20 DUP3 DUP5 SUB SLT ISZERO PUSH2 0x1E5B JUMPI PUSH2 0x1E5A PUSH2 0x1E0B JUMP JUMPDEST JUMPDEST PUSH0 PUSH2 0x1E68 DUP5 DUP3 DUP6 ADD PUSH2 0x1E32 JUMP JUMPDEST SWAP2 POP POP SWAP3 SWAP2 POP POP JUMP JUMPDEST PUSH2 0x1E7A DUP2 PUSH2 0x1E13 JUMP JUMPDEST DUP3 MSTORE POP POP JUMP JUMPDEST PUSH0 PUSH1 0x40 DUP3 ADD SWAP1 POP PUSH2 0x1E93 PUSH0 DUP4 ADD DUP6 PUSH2 0x1E71 JUMP JUMPDEST PUSH2 0x1EA0 PUSH1 0x20 DUP4 ADD DUP5 PUSH2 0x1E71 JUMP JUMPDEST SWAP4 SWAP3 POP POP POP JUMP JUMPDEST PUSH0 PUSH0 PUSH1 0x40 DUP4 DUP6 SUB SLT ISZERO PUSH2 0x1EBD JUMPI PUSH2 0x1EBC PUSH2 0x1E0B JUMP JUMPDEST JUMPDEST PUSH0 PUSH2 0x1ECA DUP6 DUP3 DUP7 ADD PUSH2 0x1E32 JUMP JUMPDEST SWAP3 POP POP PUSH1 0x20 PUSH2 0x1EDB DUP6 DUP3 DUP7 ADD PUSH2 0x1E32 JUMP JUMPDEST SWAP2 POP POP SWAP3 POP SWAP3 SWAP1 POP JUMP JUMPDEST PUSH0 PUSH20 0xFFFFFFFFFFFFFFFFFFFFFFFFFFFFFFFFFFFFFFFF DUP3 AND SWAP1 POP SWAP2 SWAP1 POP JUMP JUMPDEST PUSH0 PUSH2 0x1F0E DUP3 PUSH2 0x1EE5 JUMP JUMPDEST SWAP1 POP SWAP2 SWAP1 POP JUMP JUMPDEST PUSH2 0x1F1E DUP2 PUSH2 0x1F04 JUMP JUMPDEST DUP3 MSTORE POP POP JUMP JUMPDEST PUSH0 DUP2 MLOAD SWAP1 POP SWAP2 SWAP1 POP JUMP JUMPDEST PUSH0 DUP3 DUP3 MSTORE PUSH1 0x20 DUP3 ADD SWAP1 POP SWAP3 SWAP2 POP POP JUMP JUMPDEST DUP3 DUP2 DUP4 MCOPY PUSH0 DUP4 DUP4 ADD MSTORE POP POP POP JUMP JUMPDEST PUSH0 PUSH1 0x1F NOT PUSH1 0x1F DUP4 ADD AND SWAP1 POP SWAP2 SWAP1 POP JUMP JUMPDEST PUSH0 PUSH2 0x1F66 DUP3 PUSH2 0x1F24 JUMP JUMPDEST PUSH2 0x1F70 DUP2 DUP6 PUSH2 0x1F2E JUMP JUMPDEST SWAP4 POP PUSH2 0x1F80 DUP2 DUP6 PUSH1 0x20 DUP7 ADD PUSH2 0x1F3E JUMP JUMPDEST PUSH2 0x1F89 DUP2 PUSH2 0x1F4C JUMP JUMPDEST DUP5 ADD SWAP2 POP POP SWAP3 SWAP2 POP POP JUMP JUMPDEST PUSH0 DUP2 ISZERO ISZERO SWAP1 POP SWAP2 SWAP1 POP JUMP JUMPDEST PUSH2 0x1FA8 DUP2 PUSH2 0x1F94 JUMP JUMPDEST DUP3 MSTORE POP POP JUMP JUMPDEST PUSH0 PUSH2 0x160 DUP3 ADD SWAP1 POP PUSH2 0x1FC2 PUSH0 DUP4 ADD DUP15 PUSH2 0x1F15 JUMP JUMPDEST DUP2 DUP2 SUB PUSH1 0x20 DUP4 ADD MSTORE PUSH2 0x1FD4 DUP2 DUP14 PUSH2 0x1F5C JUMP JUMPDEST SWAP1 POP DUP2 DUP2 SUB PUSH1 0x40 DUP4 ADD MSTORE PUSH2 0x1FE8 DUP2 DUP13 PUSH2 0x1F5C JUMP JUMPDEST SWAP1 POP PUSH2 0x1FF7 PUSH1 0x60 DUP4 ADD DUP12 PUSH2 0x1E71 JUMP JUMPDEST PUSH2 0x2004 PUSH1 0x80 DUP4 ADD DUP11 PUSH2 0x1E71 JUMP JUMPDEST PUSH2 0x2011 PUSH1 0xA0 DUP4 ADD DUP10 PUSH2 0x1E71 JUMP JUMPDEST PUSH2 0x201E PUSH1 0xC0 DUP4 ADD DUP9 PUSH2 0x1F9F JUMP JUMPDEST PUSH2 0x202B PUSH1 0xE0 DUP4 ADD DUP8 PUSH2 0x1F15 JUMP JUMPDEST PUSH2 0x2039 PUSH2 0x100 DUP4 ADD DUP7 PUSH2 0x1E71 JUMP JUMPDEST PUSH2 0x2047 PUSH2 0x120 DUP4 ADD DUP6 PUSH2 0x1F9F JUMP JUMPDEST PUSH2 0x2055 PUSH2 0x140 DUP4 ADD DUP5 PUSH2 0x1F9F JUMP JUMPDEST SWAP13 SWAP12 POP POP POP POP POP POP POP POP POP POP POP POP JUMP JUMPDEST PUSH0 PUSH1 0x20 DUP3 ADD SWAP1 POP PUSH2 0x2078 PUSH0 DUP4 ADD DUP5 PUSH2 0x1E71 JUMP JUMPDEST SWAP3 SWAP2 POP POP JUMP JUMPDEST PUSH2 0x2087 DUP2 PUSH2 0x1F04 JUMP JUMPDEST DUP2 EQ PUSH2 0x2091 JUMPI PUSH0 PUSH0 REVERT JUMPDEST POP JUMP JUMPDEST PUSH0 DUP2 CALLDATALOAD SWAP1 POP PUSH2 0x20A2 DUP2 PUSH2 0x207E JUMP JUMPDEST SWAP3 SWAP2 POP POP JUMP JUMPDEST PUSH0 PUSH0 PUSH1 0x40 DUP4 DUP6 SUB SLT ISZERO PUSH2 0x20BE JUMPI PUSH2 0x20BD PUSH2 0x1E0B JUMP JUMPDEST JUMPDEST PUSH0 PUSH2 0x20CB DUP6 DUP3 DUP7 ADD PUSH2 0x1E32 JUMP JUMPDEST SWAP3 POP POP PUSH1 0x20 PUSH2 0x20DC DUP6 DUP3 DUP7 ADD PUSH2 0x2094 JUMP JUMPDEST SWAP2 POP POP SWAP3 POP SWAP3 SWAP1 POP JUMP JUMPDEST PUSH0 PUSH1 0x20 DUP3 DUP5 SUB SLT ISZERO PUSH2 0x20FB JUMPI PUSH2 0x20FA PUSH2 0x1E0B JUMP JUMPDEST JUMPDEST PUSH0 PUSH2 0x2108 DUP5 DUP3 DUP6 ADD PUSH2 0x2094 JUMP JUMPDEST SWAP2 POP POP SWAP3 SWAP2 POP POP JUMP JUMPDEST PUSH0 PUSH1 0x20 DUP3 ADD SWAP1 POP PUSH2 0x2124 PUSH0 DUP4 ADD DUP5 PUSH2 0x1F9F JUMP JUMPDEST SWAP3 SWAP2 POP POP JUMP JUMPDEST PUSH0 PUSH0 REVERT JUMPDEST PUSH0 PUSH0 REVERT JUMPDEST PUSH32 0x4E487B7100000000000000000000000000000000000000000000000000000000 PUSH0 MSTORE PUSH1 0x41 PUSH1 0x4 MSTORE PUSH1 0x24 PUSH0 REVERT JUMPDEST PUSH2 0x2168 DUP3 PUSH2 0x1F4C JUMP JUMPDEST DUP2 ADD DUP2 DUP2 LT PUSH8 0xFFFFFFFFFFFFFFFF DUP3 GT OR ISZERO PUSH2 0x2187 JUMPI PUSH2 0x2186 PUSH2 0x2132 JUMP JUMPDEST JUMPDEST DUP1 PUSH1 0x40 MSTORE POP POP POP JUMP JUMPDEST PUSH0 PUSH2 0x2199 PUSH2 0x1E02 JUMP JUMPDEST SWAP1 POP PUSH2 0x21A5 DUP3 DUP3 PUSH2 0x215F JUMP JUMPDEST SWAP2 SWAP1 POP JUMP JUMPDEST PUSH0 PUSH8 0xFFFFFFFFFFFFFFFF DUP3 GT ISZERO PUSH2 0x21C4 JUMPI PUSH2 0x21C3 PUSH2 0x2132 JUMP JUMPDEST JUMPDEST PUSH2 0x21CD DUP3 PUSH2 0x1F4C JUMP JUMPDEST SWAP1 POP PUSH1 0x20 DUP2 ADD SWAP1 POP SWAP2 SWAP1 POP JUMP JUMPDEST DUP3 DUP2 DUP4 CALLDATACOPY PUSH0 DUP4 DUP4 ADD MSTORE POP POP POP JUMP JUMPDEST PUSH0 PUSH2 0x21FA PUSH2 0x21F5 DUP5 PUSH2 0x21AA JUMP JUMPDEST PUSH2 0x2190 JUMP JUMPDEST SWAP1 POP DUP3 DUP2 MSTORE PUSH1 0x20 DUP2 ADD DUP5 DUP5 DUP5 ADD GT ISZERO PUSH2 0x2216 JUMPI PUSH2 0x2215 PUSH2 0x212E JUMP JUMPDEST JUMPDEST PUSH2 0x2221 DUP5 DUP3 DUP6 PUSH2 0x21DA JUMP JUMPDEST POP SWAP4 SWAP3 POP POP POP JUMP JUMPDEST PUSH0 DUP3 PUSH1 0x1F DUP4 ADD SLT PUSH2 0x223D JUMPI PUSH2 0x223C PUSH2 0x212A JUMP JUMPDEST JUMPDEST DUP2 CALLDATALOAD PUSH2 0x224D DUP5 DUP3 PUSH1 0x20 DUP7 ADD PUSH2 0x21E8 JUMP JUMPDEST SWAP2 POP POP SWAP3 SWAP2 POP POP JUMP JUMPDEST PUSH0 PUSH0 PUSH0 PUSH0 PUSH0 PUSH1 0xA0 DUP7 DUP9 SUB SLT ISZERO PUSH2 0x226F JUMPI PUSH2 0x226E PUSH2 0x1E0B JUMP JUMPDEST JUMPDEST PUSH0 DUP7 ADD CALLDATALOAD PUSH8 0xFFFFFFFFFFFFFFFF DUP2 GT ISZERO PUSH2 0x228C JUMPI PUSH2 0x228B PUSH2 0x1E0F JUMP JUMPDEST JUMPDEST PUSH2 0x2298 DUP9 DUP3 DUP10 ADD PUSH2 0x2229 JUMP JUMPDEST SWAP6 POP POP PUSH1 0x20 DUP7 ADD CALLDATALOAD PUSH8 0xFFFFFFFFFFFFFFFF DUP2 GT ISZERO PUSH2 0x22B9 JUMPI PUSH2 0x22B8 PUSH2 0x1E0F JUMP JUMPDEST JUMPDEST PUSH2 0x22C5 DUP9 DUP3 DUP10 ADD PUSH2 0x2229 JUMP JUMPDEST SWAP5 POP POP PUSH1 0x40 PUSH2 0x22D6 DUP9 DUP3 DUP10 ADD PUSH2 0x1E32 JUMP JUMPDEST SWAP4 POP POP PUSH1 0x60 PUSH2 0x22E7 DUP9 DUP3 DUP10 ADD PUSH2 0x1E32 JUMP JUMPDEST SWAP3 POP POP PUSH1 0x80 PUSH2 0x22F8 DUP9 DUP3 DUP10 ADD PUSH2 0x1E32 JUMP JUMPDEST SWAP2 POP POP SWAP3 SWAP6 POP SWAP3 SWAP6 SWAP1 SWAP4 POP JUMP JUMPDEST PUSH0 PUSH1 0x20 DUP3 ADD SWAP1 POP PUSH2 0x2318 PUSH0 DUP4 ADD DUP5 PUSH2 0x1F15 JUMP JUMPDEST SWAP3 SWAP2 POP POP JUMP JUMPDEST PUSH0 PUSH1 0xA0 DUP3 ADD SWAP1 POP PUSH2 0x2331 PUSH0 DUP4 ADD DUP9 PUSH2 0x1E71 JUMP JUMPDEST PUSH2 0x233E PUSH1 0x20 DUP4 ADD DUP8 PUSH2 0x1E71 JUMP JUMPDEST PUSH2 0x234B PUSH1 0x40 DUP4 ADD DUP7 PUSH2 0x1E71 JUMP JUMPDEST PUSH2 0x2358 PUSH1 0x60 DUP4 ADD DUP6 PUSH2 0x1E71 JUMP JUMPDEST PUSH2 0x2365 PUSH1 0x80 DUP4 ADD DUP5 PUSH2 0x1E71 JUMP JUMPDEST SWAP7 SWAP6 POP POP POP POP POP POP JUMP JUMPDEST PUSH32 0x70726F6A65637420686173206E6F74206265656E206372656174656420796574 PUSH0 DUP3 ADD MSTORE PUSH32 0x2100000000000000000000000000000000000000000000000000000000000000 PUSH1 0x20 DUP3 ADD MSTORE POP JUMP JUMPDEST PUSH0 PUSH2 0x23C9 PUSH1 0x21 DUP4 PUSH2 0x1F2E JUMP JUMPDEST SWAP2 POP PUSH2 0x23D4 DUP3 PUSH2 0x236F JUMP JUMPDEST PUSH1 0x40 DUP3 ADD SWAP1 POP SWAP2 SWAP1 POP JUMP JUMPDEST PUSH0 PUSH1 0x20 DUP3 ADD SWAP1 POP DUP2 DUP2 SUB PUSH0 DUP4 ADD MSTORE PUSH2 0x23F6 DUP2 PUSH2 0x23BD JUMP JUMPDEST SWAP1 POP SWAP2 SWAP1 POP JUMP JUMPDEST PUSH32 0x4E487B7100000000000000000000000000000000000000000000000000000000 PUSH0 MSTORE PUSH1 0x11 PUSH1 0x4 MSTORE PUSH1 0x24 PUSH0 REVERT JUMPDEST PUSH0 PUSH2 0x2434 DUP3 PUSH2 0x1E13 JUMP JUMPDEST SWAP2 POP PUSH2 0x243F DUP4 PUSH2 0x1E13 JUMP JUMPDEST SWAP3 POP DUP3 DUP3 SUB SWAP1 POP DUP2 DUP2 GT ISZERO PUSH2 0x2457 JUMPI PUSH2 0x2456 PUSH2 0x23FD JUMP JUMPDEST JUMPDEST SWAP3 SWAP2 POP POP JUMP JUMPDEST PUSH32 0x446561646C696E65206973206F766572202C20796F752043616E277420636861 PUSH0 DUP3 ADD MSTORE PUSH32 0x6E6765207468652066756E64696E6720676F616C202121000000000000000000 PUSH1 0x20 DUP3 ADD MSTORE POP JUMP JUMPDEST PUSH0 PUSH2 0x24B7 PUSH1 0x37 DUP4 PUSH2 0x1F2E JUMP JUMPDEST SWAP2 POP PUSH2 0x24C2 DUP3 PUSH2 0x245D JUMP JUMPDEST PUSH1 0x40 DUP3 ADD SWAP1 POP SWAP2 SWAP1 POP JUMP JUMPDEST PUSH0 PUSH1 0x20 DUP3 ADD SWAP1 POP DUP2 DUP2 SUB PUSH0 DUP4 ADD MSTORE PUSH2 0x24E4 DUP2 PUSH2 0x24AB JUMP JUMPDEST SWAP1 POP SWAP2 SWAP1 POP JUMP JUMPDEST PUSH32 0x596F7520617265206E6F74207468652070726F6A6563742063726561746F7220 PUSH0 DUP3 ADD MSTORE PUSH32 0x2C204F6E6C7920506F726A6563742063726561746F722063616E204368616E67 PUSH1 0x20 DUP3 ADD MSTORE PUSH32 0x6520212100000000000000000000000000000000000000000000000000000000 PUSH1 0x40 DUP3 ADD MSTORE POP JUMP JUMPDEST PUSH0 PUSH2 0x256B PUSH1 0x44 DUP4 PUSH2 0x1F2E JUMP JUMPDEST SWAP2 POP PUSH2 0x2576 DUP3 PUSH2 0x24EB JUMP JUMPDEST PUSH1 0x60 DUP3 ADD SWAP1 POP SWAP2 SWAP1 POP JUMP JUMPDEST PUSH0 PUSH1 0x20 DUP3 ADD SWAP1 POP DUP2 DUP2 SUB PUSH0 DUP4 ADD MSTORE PUSH2 0x2598 DUP2 PUSH2 0x255F JUMP JUMPDEST SWAP1 POP SWAP2 SWAP1 POP JUMP JUMPDEST PUSH32 0x4E487B7100000000000000000000000000000000000000000000000000000000 PUSH0 MSTORE PUSH1 0x22 PUSH1 0x4 MSTORE PUSH1 0x24 PUSH0 REVERT JUMPDEST PUSH0 PUSH1 0x2 DUP3 DIV SWAP1 POP PUSH1 0x1 DUP3 AND DUP1 PUSH2 0x25E3 JUMPI PUSH1 0x7F DUP3 AND SWAP2 POP JUMPDEST PUSH1 0x20 DUP3 LT DUP2 SUB PUSH2 0x25F6 JUMPI PUSH2 0x25F5 PUSH2 0x259F JUMP JUMPDEST JUMPDEST POP SWAP2 SWAP1 POP JUMP JUMPDEST PUSH32 0x46756E64696E6720676F616C206861732072656163686564202C207573657220 PUSH0 DUP3 ADD MSTORE PUSH32 0x63616E2774207769746864726177000000000000000000000000000000000000 PUSH1 0x20 DUP3 ADD MSTORE POP JUMP JUMPDEST PUSH0 PUSH2 0x2656 PUSH1 0x2E DUP4 PUSH2 0x1F2E JUMP JUMPDEST SWAP2 POP PUSH2 0x2661 DUP3 PUSH2 0x25FC JUMP JUMPDEST PUSH1 0x40 DUP3 ADD SWAP1 POP SWAP2 SWAP1 POP JUMP JUMPDEST PUSH0 PUSH1 0x20 DUP3 ADD SWAP1 POP DUP2 DUP2 SUB PUSH0 DUP4 ADD MSTORE PUSH2 0x2683 DUP2 PUSH2 0x264A JUMP JUMPDEST SWAP1 POP SWAP2 SWAP1 POP JUMP JUMPDEST PUSH32 0x4E6F2066756E647320746F207769746864726177000000000000000000000000 PUSH0 DUP3 ADD MSTORE POP JUMP JUMPDEST PUSH0 PUSH2 0x26BE PUSH1 0x14 DUP4 PUSH2 0x1F2E JUMP JUMPDEST SWAP2 POP PUSH2 0x26C9 DUP3 PUSH2 0x268A JUMP JUMPDEST PUSH1 0x20 DUP3 ADD SWAP1 POP SWAP2 SWAP1 POP JUMP JUMPDEST PUSH0 PUSH1 0x20 DUP3 ADD SWAP1 POP DUP2 DUP2 SUB PUSH0 DUP4 ADD MSTORE PUSH2 0x26EB DUP2 PUSH2 0x26B2 JUMP JUMPDEST SWAP1 POP SWAP2 SWAP1 POP JUMP JUMPDEST PUSH0 PUSH2 0x26FC DUP3 PUSH2 0x1E13 JUMP JUMPDEST SWAP2 POP PUSH0 DUP3 SUB PUSH2 0x270E JUMPI PUSH2 0x270D PUSH2 0x23FD JUMP JUMPDEST JUMPDEST PUSH1 0x1 DUP3 SUB SWAP1 POP SWAP2 SWAP1 POP JUMP JUMPDEST PUSH0 DUP2 SWAP1 POP SWAP3 SWAP2 POP POP JUMP JUMPDEST POP JUMP JUMPDEST PUSH0 PUSH2 0x2731 PUSH0 DUP4 PUSH2 0x2719 JUMP JUMPDEST SWAP2 POP PUSH2 0x273C DUP3 PUSH2 0x2723 JUMP JUMPDEST PUSH0 DUP3 ADD SWAP1 POP SWAP2 SWAP1 POP JUMP JUMPDEST PUSH0 PUSH2 0x2750 DUP3 PUSH2 0x2726 JUMP JUMPDEST SWAP2 POP DUP2 SWAP1 POP SWAP2 SWAP1 POP JUMP JUMPDEST PUSH32 0x5769746864726177616C204661696C6564000000000000000000000000000000 PUSH0 DUP3 ADD MSTORE POP JUMP JUMPDEST PUSH0 PUSH2 0x278E PUSH1 0x11 DUP4 PUSH2 0x1F2E JUMP JUMPDEST SWAP2 POP PUSH2 0x2799 DUP3 PUSH2 0x275A JUMP JUMPDEST PUSH1 0x20 DUP3 ADD SWAP1 POP SWAP2 SWAP1 POP JUMP JUMPDEST PUSH0 PUSH1 0x20 DUP3 ADD SWAP1 POP DUP2 DUP2 SUB PUSH0 DUP4 ADD MSTORE PUSH2 0x27BB DUP2 PUSH2 0x2782 JUMP JUMPDEST SWAP1 POP SWAP2 SWAP1 POP JUMP JUMPDEST PUSH0 PUSH1 0x40 DUP3 ADD SWAP1 POP PUSH2 0x27D5 PUSH0 DUP4 ADD DUP6 PUSH2 0x1F15 JUMP JUMPDEST PUSH2 0x27E2 PUSH1 0x20 DUP4 ADD DUP5 PUSH2 0x1E71 JUMP JUMPDEST SWAP4 SWAP3 POP POP POP JUMP JUMPDEST PUSH0 PUSH2 0x27F3 DUP3 PUSH2 0x1E13 JUMP JUMPDEST SWAP2 POP PUSH2 0x27FE DUP4 PUSH2 0x1E13 JUMP JUMPDEST SWAP3 POP DUP3 DUP3 MUL PUSH2 0x280C DUP2 PUSH2 0x1E13 JUMP JUMPDEST SWAP2 POP DUP3 DUP3 DIV DUP5 EQ DUP4 ISZERO OR PUSH2 0x2823 JUMPI PUSH2 0x2822 PUSH2 0x23FD JUMP JUMPDEST JUMPDEST POP SWAP3 SWAP2 POP POP JUMP JUMPDEST PUSH32 0x4E487B7100000000000000000000000000000000000000000000000000000000 PUSH0 MSTORE PUSH1 0x12 PUSH1 0x4 MSTORE PUSH1 0x24 PUSH0 REVERT JUMPDEST PUSH0 PUSH2 0x2861 DUP3 PUSH2 0x1E13 JUMP JUMPDEST SWAP2 POP PUSH2 0x286C DUP4 PUSH2 0x1E13 JUMP JUMPDEST SWAP3 POP DUP3 PUSH2 0x287C JUMPI PUSH2 0x287B PUSH2 0x282A JUMP JUMPDEST JUMPDEST DUP3 DUP3 DIV SWAP1 POP SWAP3 SWAP2 POP POP JUMP JUMPDEST PUSH32 0x4F6E6C792050726F6A6563742063726561746F722063616E20657874656E6420 PUSH0 DUP3 ADD MSTORE PUSH32 0x74686520646561646C696E652121000000000000000000000000000000000000 PUSH1 0x20 DUP3 ADD MSTORE POP JUMP JUMPDEST PUSH0 PUSH2 0x28E1 PUSH1 0x2E DUP4 PUSH2 0x1F2E JUMP JUMPDEST SWAP2 POP PUSH2 0x28EC DUP3 PUSH2 0x2887 JUMP JUMPDEST PUSH1 0x40 DUP3 ADD SWAP1 POP SWAP2 SWAP1 POP JUMP JUMPDEST PUSH0 PUSH1 0x20 DUP3 ADD SWAP1 POP DUP2 DUP2 SUB PUSH0 DUP4 ADD MSTORE PUSH2 0x290E DUP2 PUSH2 0x28D5 JUMP JUMPDEST SWAP1 POP SWAP2 SWAP1 POP JUMP JUMPDEST PUSH0 PUSH2 0x291F DUP3 PUSH2 0x1E13 JUMP JUMPDEST SWAP2 POP PUSH2 0x292A DUP4 PUSH2 0x1E13 JUMP JUMPDEST SWAP3 POP DUP3 DUP3 ADD SWAP1 POP DUP1 DUP3 GT ISZERO PUSH2 0x2942 JUMPI PUSH2 0x2941 PUSH2 0x23FD JUMP JUMPDEST JUMPDEST SWAP3 SWAP2 POP POP JUMP JUMPDEST PUSH32 0x50726F6A65637420646561646C696E65206973206F7665722100000000000000 PUSH0 DUP3 ADD MSTORE POP JUMP JUMPDEST PUSH0 PUSH2 0x297C PUSH1 0x19 DUP4 PUSH2 0x1F2E JUMP JUMPDEST SWAP2 POP PUSH2 0x2987 DUP3 PUSH2 0x2948 JUMP JUMPDEST PUSH1 0x20 DUP3 ADD SWAP1 POP SWAP2 SWAP1 POP JUMP JUMPDEST PUSH0 PUSH1 0x20 DUP3 ADD SWAP1 POP DUP2 DUP2 SUB PUSH0 DUP4 ADD MSTORE PUSH2 0x29A9 DUP2 PUSH2 0x2970 JUMP JUMPDEST SWAP1 POP SWAP2 SWAP1 POP JUMP JUMPDEST PUSH32 0x50726F6A6563742052656163686564206974732046756E64696E672072657175 PUSH0 DUP3 ADD MSTORE PUSH32 0x6972656D656E7400000000000000000000000000000000000000000000000000 PUSH1 0x20 DUP3 ADD MSTORE POP JUMP JUMPDEST PUSH0 PUSH2 0x2A0A PUSH1 0x27 DUP4 PUSH2 0x1F2E JUMP JUMPDEST SWAP2 POP PUSH2 0x2A15 DUP3 PUSH2 0x29B0 JUMP JUMPDEST PUSH1 0x40 DUP3 ADD SWAP1 POP SWAP2 SWAP1 POP JUMP JUMPDEST PUSH0 PUSH1 0x20 DUP3 ADD SWAP1 POP DUP2 DUP2 SUB PUSH0 DUP4 ADD MSTORE PUSH2 0x2A37 DUP2 PUSH2 0x29FE JUMP JUMPDEST SWAP1 POP SWAP2 SWAP1 POP JUMP JUMPDEST PUSH32 0x73656E6420736F6D6520657468657220746F20636F6E7472696275746520696E PUSH0 DUP3 ADD MSTORE PUSH32 0x207468652070726F6A6563740000000000000000000000000000000000000000 PUSH1 0x20 DUP3 ADD MSTORE POP JUMP JUMPDEST PUSH0 PUSH2 0x2A98 PUSH1 0x2C DUP4 PUSH2 0x1F2E JUMP JUMPDEST SWAP2 POP PUSH2 0x2AA3 DUP3 PUSH2 0x2A3E JUMP JUMPDEST PUSH1 0x40 DUP3 ADD SWAP1 POP SWAP2 SWAP1 POP JUMP JUMPDEST PUSH0 PUSH1 0x20 DUP3 ADD SWAP1 POP DUP2 DUP2 SUB PUSH0 DUP4 ADD MSTORE PUSH2 0x2AC5 DUP2 PUSH2 0x2A8C JUMP JUMPDEST SWAP1 POP SWAP2 SWAP1 POP JUMP JUMPDEST PUSH32 0x416D6F756E7420436F6E7472696275746564206973206D6F7265207468616E20 PUSH0 DUP3 ADD MSTORE PUSH32 0x476F616C00000000000000000000000000000000000000000000000000000000 PUSH1 0x20 DUP3 ADD MSTORE POP JUMP JUMPDEST PUSH0 PUSH2 0x2B26 PUSH1 0x24 DUP4 PUSH2 0x1F2E JUMP JUMPDEST SWAP2 POP PUSH2 0x2B31 DUP3 PUSH2 0x2ACC JUMP JUMPDEST PUSH1 0x40 DUP3 ADD SWAP1 POP SWAP2 SWAP1 POP JUMP JUMPDEST PUSH0 PUSH1 0x20 DUP3 ADD SWAP1 POP DUP2 DUP2 SUB PUSH0 DUP4 ADD MSTORE PUSH2 0x2B53 DUP2 PUSH2 0x2B1A JUMP JUMPDEST SWAP1 POP SWAP2 SWAP1 POP JUMP JUMPDEST PUSH32 0x526566756E64204661696C656400000000000000000000000000000000000000 PUSH0 DUP3 ADD MSTORE POP JUMP JUMPDEST PUSH0 PUSH2 0x2B8E PUSH1 0xD DUP4 PUSH2 0x1F2E JUMP JUMPDEST SWAP2 POP PUSH2 0x2B99 DUP3 PUSH2 0x2B5A JUMP JUMPDEST PUSH1 0x20 DUP3 ADD SWAP1 POP SWAP2 SWAP1 POP JUMP JUMPDEST PUSH0 PUSH1 0x20 DUP3 ADD SWAP1 POP DUP2 DUP2 SUB PUSH0 DUP4 ADD MSTORE PUSH2 0x2BBB DUP2 PUSH2 0x2B82 JUMP JUMPDEST SWAP1 POP SWAP2 SWAP1 POP JUMP JUMPDEST PUSH0 PUSH1 0x60 DUP3 ADD SWAP1 POP PUSH2 0x2BD5 PUSH0 DUP4 ADD DUP7 PUSH2 0x1F15 JUMP JUMPDEST PUSH2 0x2BE2 PUSH1 0x20 DUP4 ADD DUP6 PUSH2 0x1E71 JUMP JUMPDEST PUSH2 0x2BEF PUSH1 0x40 DUP4 ADD DUP5 PUSH2 0x1E71 JUMP JUMPDEST SWAP5 SWAP4 POP POP POP POP JUMP JUMPDEST PUSH0 PUSH2 0x2C01 DUP3 PUSH2 0x1E13 JUMP JUMPDEST SWAP2 POP PUSH32 0xFFFFFFFFFFFFFFFFFFFFFFFFFFFFFFFFFFFFFFFFFFFFFFFFFFFFFFFFFFFFFFFF DUP3 SUB PUSH2 0x2C33 JUMPI PUSH2 0x2C32 PUSH2 0x23FD JUMP JUMPDEST JUMPDEST PUSH1 0x1 DUP3 ADD SWAP1 POP SWAP2 SWAP1 POP JUMP JUMPDEST PUSH32 0x66756E64696E6720676F616C20686173206E6F742072656163686564202C2061 PUSH0 DUP3 ADD MSTORE PUSH32 0x646D696E2063616E277420776974686472617700000000000000000000000000 PUSH1 0x20 DUP3 ADD MSTORE POP JUMP JUMPDEST PUSH0 PUSH2 0x2C98 PUSH1 0x33 DUP4 PUSH2 0x1F2E JUMP JUMPDEST SWAP2 POP PUSH2 0x2CA3 DUP3 PUSH2 0x2C3E JUMP JUMPDEST PUSH1 0x40 DUP3 ADD SWAP1 POP SWAP2 SWAP1 POP JUMP JUMPDEST PUSH0 PUSH1 0x20 DUP3 ADD SWAP1 POP DUP2 DUP2 SUB PUSH0 DUP4 ADD MSTORE PUSH2 0x2CC5 DUP2 PUSH2 0x2C8C JUMP JUMPDEST SWAP1 POP SWAP2 SWAP1 POP JUMP JUMPDEST PUSH32 0x6F6E6C792061646D696E2063616E207769746864726177000000000000000000 PUSH0 DUP3 ADD MSTORE POP JUMP JUMPDEST PUSH0 PUSH2 0x2D00 PUSH1 0x17 DUP4 PUSH2 0x1F2E JUMP JUMPDEST SWAP2 POP PUSH2 0x2D0B DUP3 PUSH2 0x2CCC JUMP JUMPDEST PUSH1 0x20 DUP3 ADD SWAP1 POP SWAP2 SWAP1 POP JUMP JUMPDEST PUSH0 PUSH1 0x20 DUP3 ADD SWAP1 POP DUP2 DUP2 SUB PUSH0 DUP4 ADD MSTORE PUSH2 0x2D2D DUP2 PUSH2 0x2CF4 JUMP JUMPDEST SWAP1 POP SWAP2 SWAP1 POP JUMP JUMPDEST PUSH32 0x646561646C696E6520686173206E6F742072656163686564202C2061646D696E PUSH0 DUP3 ADD MSTORE PUSH32 0x2063616E27742077697468647261770000000000000000000000000000000000 PUSH1 0x20 DUP3 ADD MSTORE POP JUMP JUMPDEST PUSH0 PUSH2 0x2D8E PUSH1 0x2F DUP4 PUSH2 0x1F2E JUMP JUMPDEST SWAP2 POP PUSH2 0x2D99 DUP3 PUSH2 0x2D34 JUMP JUMPDEST PUSH1 0x40 DUP3 ADD SWAP1 POP SWAP2 SWAP1 POP JUMP JUMPDEST PUSH0 PUSH1 0x20 DUP3 ADD SWAP1 POP DUP2 DUP2 SUB PUSH0 DUP4 ADD MSTORE PUSH2 0x2DBB DUP2 PUSH2 0x2D82 JUMP JUMPDEST SWAP1 POP SWAP2 SWAP1 POP JUMP JUMPDEST PUSH32 0x4F6E6C792041646D696E2063616E206163636573730000000000000000000000 PUSH0 DUP3 ADD MSTORE POP JUMP JUMPDEST PUSH0 PUSH2 0x2DF6 PUSH1 0x15 DUP4 PUSH2 0x1F2E JUMP JUMPDEST SWAP2 POP PUSH2 0x2E01 DUP3 PUSH2 0x2DC2 JUMP JUMPDEST PUSH1 0x20 DUP3 ADD SWAP1 POP SWAP2 SWAP1 POP JUMP JUMPDEST PUSH0 PUSH1 0x20 DUP3 ADD SWAP1 POP DUP2 DUP2 SUB PUSH0 DUP4 ADD MSTORE PUSH2 0x2E23 DUP2 PUSH2 0x2DEA JUMP JUMPDEST SWAP1 POP SWAP2 SWAP1 POP JUMP JUMPDEST PUSH32 0x43616E6E6F7420776974686472617720616674657220646561646C696E650000 PUSH0 DUP3 ADD MSTORE POP JUMP JUMPDEST PUSH0 PUSH2 0x2E5E PUSH1 0x1E DUP4 PUSH2 0x1F2E JUMP JUMPDEST SWAP2 POP PUSH2 0x2E69 DUP3 PUSH2 0x2E2A JUMP JUMPDEST PUSH1 0x20 DUP3 ADD SWAP1 POP SWAP2 SWAP1 POP JUMP JUMPDEST PUSH0 PUSH1 0x20 DUP3 ADD SWAP1 POP DUP2 DUP2 SUB PUSH0 DUP4 ADD MSTORE PUSH2 0x2E8B DUP2 PUSH2 0x2E52 JUMP JUMPDEST SWAP1 POP SWAP2 SWAP1 POP JUMP JUMPDEST PUSH32 0x4E6F2046756E647320746F207769746864726177212100000000000000000000 PUSH0 DUP3 ADD MSTORE POP JUMP JUMPDEST PUSH0 PUSH2 0x2EC6 PUSH1 0x16 DUP4 PUSH2 0x1F2E JUMP JUMPDEST SWAP2 POP PUSH2 0x2ED1 DUP3 PUSH2 0x2E92 JUMP JUMPDEST PUSH1 0x20 DUP3 ADD SWAP1 POP SWAP2 SWAP1 POP JUMP JUMPDEST PUSH0 PUSH1 0x20 DUP3 ADD SWAP1 POP DUP2 DUP2 SUB PUSH0 DUP4 ADD MSTORE PUSH2 0x2EF3 DUP2 PUSH2 0x2EBA JUMP JUMPDEST SWAP1 POP SWAP2 SWAP1 POP JUMP JUMPDEST PUSH32 0x576974686472617720616D6F756E74206578636565647320796F757220636F6E PUSH0 DUP3 ADD MSTORE PUSH32 0x747269627574696F6E0000000000000000000000000000000000000000000000 PUSH1 0x20 DUP3 ADD MSTORE POP JUMP JUMPDEST PUSH0 PUSH2 0x2F54 PUSH1 0x29 DUP4 PUSH2 0x1F2E JUMP JUMPDEST SWAP2 POP PUSH2 0x2F5F DUP3 PUSH2 0x2EFA JUMP JUMPDEST PUSH1 0x40 DUP3 ADD SWAP1 POP SWAP2 SWAP1 POP JUMP JUMPDEST PUSH0 PUSH1 0x20 DUP3 ADD SWAP1 POP DUP2 DUP2 SUB PUSH0 DUP4 ADD MSTORE PUSH2 0x2F81 DUP2 PUSH2 0x2F48 JUMP JUMPDEST SWAP1 POP SWAP2 SWAP1 POP JUMP JUMPDEST PUSH32 0x7769746864726177206661696C65642121212100000000000000000000000000 PUSH0 DUP3 ADD MSTORE POP JUMP JUMPDEST PUSH0 PUSH2 0x2FBC PUSH1 0x13 DUP4 PUSH2 0x1F2E JUMP JUMPDEST SWAP2 POP PUSH2 0x2FC7 DUP3 PUSH2 0x2F88 JUMP JUMPDEST PUSH1 0x20 DUP3 ADD SWAP1 POP SWAP2 SWAP1 POP JUMP JUMPDEST PUSH0 PUSH1 0x20 DUP3 ADD SWAP1 POP DUP2 DUP2 SUB PUSH0 DUP4 ADD MSTORE PUSH2 0x2FE9 DUP2 PUSH2 0x2FB0 JUMP JUMPDEST SWAP1 POP SWAP2 SWAP1 POP JUMP JUMPDEST PUSH32 0x4E487B7100000000000000000000000000000000000000000000000000000000 PUSH0 MSTORE PUSH1 0x32 PUSH1 0x4 MSTORE PUSH1 0x24 PUSH0 REVERT JUMPDEST PUSH32 0x50726F6A65637420494420697320616C726561647920696E2075736521000000 PUSH0 DUP3 ADD MSTORE POP JUMP JUMPDEST PUSH0 PUSH2 0x3051 PUSH1 0x1D DUP4 PUSH2 0x1F2E JUMP JUMPDEST SWAP2 POP PUSH2 0x305C DUP3 PUSH2 0x301D JUMP JUMPDEST PUSH1 0x20 DUP3 ADD SWAP1 POP SWAP2 SWAP1 POP JUMP JUMPDEST PUSH0 PUSH1 0x20 DUP3 ADD SWAP1 POP DUP2 DUP2 SUB PUSH0 DUP4 ADD MSTORE PUSH2 0x307E DUP2 PUSH2 0x3045 JUMP JUMPDEST SWAP1 POP SWAP2 SWAP1 POP JUMP JUMPDEST PUSH32 0x4F6E6C7920417574686F72697A65642063726561746F72732063616E20616363 PUSH0 DUP3 ADD MSTORE PUSH32 0x6573732121000000000000000000000000000000000000000000000000000000 PUSH1 0x20 DUP3 ADD MSTORE POP JUMP JUMPDEST PUSH0 PUSH2 0x30DF PUSH1 0x25 DUP4 PUSH2 0x1F2E JUMP JUMPDEST SWAP2 POP PUSH2 0x30EA DUP3 PUSH2 0x3085 JUMP JUMPDEST PUSH1 0x40 DUP3 ADD SWAP1 POP SWAP2 SWAP1 POP JUMP JUMPDEST PUSH0 PUSH1 0x20 DUP3 ADD SWAP1 POP DUP2 DUP2 SUB PUSH0 DUP4 ADD MSTORE PUSH2 0x310C DUP2 PUSH2 0x30D3 JUMP JUMPDEST SWAP1 POP SWAP2 SWAP1 POP JUMP JUMPDEST PUSH0 DUP2 SWAP1 POP DUP2 PUSH0 MSTORE PUSH1 0x20 PUSH0 KECCAK256 SWAP1 POP SWAP2 SWAP1 POP JUMP JUMPDEST PUSH0 PUSH1 0x20 PUSH1 0x1F DUP4 ADD DIV SWAP1 POP SWAP2 SWAP1 POP JUMP JUMPDEST PUSH0 DUP3 DUP3 SHL SWAP1 POP SWAP3 SWAP2 POP POP JUMP JUMPDEST PUSH0 PUSH1 0x8 DUP4 MUL PUSH2 0x316F PUSH32 0xFFFFFFFFFFFFFFFFFFFFFFFFFFFFFFFFFFFFFFFFFFFFFFFFFFFFFFFFFFFFFFFF DUP3 PUSH2 0x3134 JUMP JUMPDEST PUSH2 0x3179 DUP7 DUP4 PUSH2 0x3134 JUMP JUMPDEST SWAP6 POP DUP1 NOT DUP5 AND SWAP4 POP DUP1 DUP7 AND DUP5 OR SWAP3 POP POP POP SWAP4 SWAP3 POP POP POP JUMP JUMPDEST PUSH0 DUP2 SWAP1 POP SWAP2 SWAP1 POP JUMP JUMPDEST PUSH0 PUSH2 0x31B4 PUSH2 0x31AF PUSH2 0x31AA DUP5 PUSH2 0x1E13 JUMP JUMPDEST PUSH2 0x3191 JUMP JUMPDEST PUSH2 0x1E13 JUMP JUMPDEST SWAP1 POP SWAP2 SWAP1 POP JUMP JUMPDEST PUSH0 DUP2 SWAP1 POP SWAP2 SWAP1 POP JUMP JUMPDEST PUSH2 0x31CD DUP4 PUSH2 0x319A JUMP JUMPDEST PUSH2 0x31E1 PUSH2 0x31D9 DUP3 PUSH2 0x31BB JUMP JUMPDEST DUP5 DUP5 SLOAD PUSH2 0x3140 JUMP JUMPDEST DUP3 SSTORE POP POP POP POP JUMP JUMPDEST PUSH0 PUSH0 SWAP1 POP SWAP1 JUMP JUMPDEST PUSH2 0x31F8 PUSH2 0x31E9 JUMP JUMPDEST PUSH2 0x3203 DUP2 DUP5 DUP5 PUSH2 0x31C4 JUMP JUMPDEST POP POP POP JUMP JUMPDEST JUMPDEST DUP2 DUP2 LT ISZERO PUSH2 0x3226 JUMPI PUSH2 0x321B PUSH0 DUP3 PUSH2 0x31F0 JUMP JUMPDEST PUSH1 0x1 DUP2 ADD SWAP1 POP PUSH2 0x3209 JUMP JUMPDEST POP POP JUMP JUMPDEST PUSH1 0x1F DUP3 GT ISZERO PUSH2 0x326B JUMPI PUSH2 0x323C DUP2 PUSH2 0x3113 JUMP JUMPDEST PUSH2 0x3245 DUP5 PUSH2 0x3125 JUMP JUMPDEST DUP2 ADD PUSH1 0x20 DUP6 LT ISZERO PUSH2 0x3254 JUMPI DUP2 SWAP1 POP JUMPDEST PUSH2 0x3268 PUSH2 0x3260 DUP6 PUSH2 0x3125 JUMP JUMPDEST DUP4 ADD DUP3 PUSH2 0x3208 JUMP JUMPDEST POP POP JUMPDEST POP POP POP JUMP JUMPDEST PUSH0 DUP3 DUP3 SHR SWAP1 POP SWAP3 SWAP2 POP POP JUMP JUMPDEST PUSH0 PUSH2 0x328B PUSH0 NOT DUP5 PUSH1 0x8 MUL PUSH2 0x3270 JUMP JUMPDEST NOT DUP1 DUP4 AND SWAP2 POP POP SWAP3 SWAP2 POP POP JUMP JUMPDEST PUSH0 PUSH2 0x32A3 DUP4 DUP4 PUSH2 0x327C JUMP JUMPDEST SWAP2 POP DUP3 PUSH1 0x2 MUL DUP3 OR SWAP1 POP SWAP3 SWAP2 POP POP JUMP JUMPDEST PUSH2 0x32BC DUP3 PUSH2 0x1F24 JUMP JUMPDEST PUSH8 0xFFFFFFFFFFFFFFFF DUP2 GT ISZERO PUSH2 0x32D5 JUMPI PUSH2 0x32D4 PUSH2 0x2132 JUMP JUMPDEST JUMPDEST PUSH2 0x32DF DUP3 SLOAD PUSH2 0x25CC JUMP JUMPDEST PUSH2 0x32EA DUP3 DUP3 DUP6 PUSH2 0x322A JUMP JUMPDEST PUSH0 PUSH1 0x20 SWAP1 POP PUSH1 0x1F DUP4 GT PUSH1 0x1 DUP2 EQ PUSH2 0x331B JUMPI PUSH0 DUP5 ISZERO PUSH2 0x3309 JUMPI DUP3 DUP8 ADD MLOAD SWAP1 POP JUMPDEST PUSH2 0x3313 DUP6 DUP3 PUSH2 0x3298 JUMP JUMPDEST DUP7 SSTORE POP PUSH2 0x337A JUMP JUMPDEST PUSH1 0x1F NOT DUP5 AND PUSH2 0x3329 DUP7 PUSH2 0x3113 JUMP JUMPDEST PUSH0 JUMPDEST DUP3 DUP2 LT ISZERO PUSH2 0x3350 JUMPI DUP5 DUP10 ADD MLOAD DUP3 SSTORE PUSH1 0x1 DUP3 ADD SWAP2 POP PUSH1 0x20 DUP6 ADD SWAP5 POP PUSH1 0x20 DUP2 ADD SWAP1 POP PUSH2 0x332B JUMP JUMPDEST DUP7 DUP4 LT ISZERO PUSH2 0x336D JUMPI DUP5 DUP10 ADD MLOAD PUSH2 0x3369 PUSH1 0x1F DUP10 AND DUP3 PUSH2 0x327C JUMP JUMPDEST DUP4 SSTORE POP JUMPDEST PUSH1 0x1 PUSH1 0x2 DUP9 MUL ADD DUP9 SSTORE POP POP POP JUMPDEST POP POP POP POP POP POP JUMP JUMPDEST PUSH0 PUSH1 0x80 DUP3 ADD SWAP1 POP DUP2 DUP2 SUB PUSH0 DUP4 ADD MSTORE PUSH2 0x339A DUP2 DUP8 PUSH2 0x1F5C JUMP JUMPDEST SWAP1 POP DUP2 DUP2 SUB PUSH1 0x20 DUP4 ADD MSTORE PUSH2 0x33AE DUP2 DUP7 PUSH2 0x1F5C JUMP JUMPDEST SWAP1 POP PUSH2 0x33BD PUSH1 0x40 DUP4 ADD DUP6 PUSH2 0x1E71 JUMP JUMPDEST PUSH2 0x33CA PUSH1 0x60 DUP4 ADD DUP5 PUSH2 0x1E71 JUMP JUMPDEST SWAP6 SWAP5 POP POP POP POP POP JUMP INVALID LOG2 PUSH5 0x6970667358 0x22 SLT KECCAK256 0xCF 0xBD PUSH0 0x25 PUSH12 0xA57210A8E758696ACD41C77F DUP10 0xAD PUSH29 0xC4D00A44F56F59DA1BAA44A464736F6C634300081E0033000000000000 "
				},
				"gasEstimates": {
					"creation": {
						"codeDepositCost": "2664200",
						"executionCost": "49268",
						"totalCost": "2713468"
					},
					"external": {
						"Add_Creators(address)": "28265",
						"AuthorizedCreators(address)": "2922",
						"Change_FundingGoal(uint256,uint256)": "infinite",
						"Contributions(uint256,address)": "infinite",
						"Extend_Deadline(uint256,uint256)": "infinite",
						"Funding_Raised_Percentage(uint256)": "infinite",
						"GetProjectStatus()": "infinite",
						"Get_Total_Raised_Funding()": "2499",
						"ProjectStatistics()": "infinite",
						"Projects(uint256)": "infinite",
						"Remaining_Fund(uint256)": "infinite",
						"Remove_Creators(address)": "28199",
						"Time_Left(uint256)": "infinite",
						"TotalProjects()": "2536",
						"UpdateProjectStatus()": "infinite",
						"admin()": "2596",
						"createProject(string,string,uint256,uint256,uint256)": "infinite",
						"creatorWithdraw(uint256)": "infinite",
						"fundProject(uint256)": "infinite",
						"userEarlyWithdraw(uint256,uint256)": "infinite",
						"userWithdraw(uint256)": "infinite"
					}
				},
				"methodIdentifiers": {
					"Add_Creators(address)": "fee2f1c9",
					"AuthorizedCreators(address)": "88283c0f",
					"Change_FundingGoal(uint256,uint256)": "1392ebfe",
					"Contributions(uint256,address)": "5d4e5d78",
					"Extend_Deadline(uint256,uint256)": "629b2647",
					"Funding_Raised_Percentage(uint256)": "42d844a5",
					"GetProjectStatus()": "520f45b7",
					"Get_Total_Raised_Funding()": "54a5bcc5",
					"ProjectStatistics()": "fcdf1238",
					"Projects(uint256)": "21b2416c",
					"Remaining_Fund(uint256)": "0dbac135",
					"Remove_Creators(address)": "7299baeb",
					"Time_Left(uint256)": "370c36b4",
					"TotalProjects()": "9ab761c7",
					"UpdateProjectStatus()": "e81a6786",
					"admin()": "f851a440",
					"createProject(string,string,uint256,uint256,uint256)": "f81bf601",
					"creatorWithdraw(uint256)": "71eb89f3",
					"fundProject(uint256)": "6c563abe",
					"userEarlyWithdraw(uint256,uint256)": "cd4ac98c",
					"userWithdraw(uint256)": "3b9056bf"
				}
			},
			"storageLayout": {
				"storage": [
					{
						"astId": 10,
						"contract": "CROWD_TANK/contracts/CrowdTank.sol:CrowdTank",
						"label": "_status",
						"offset": 0,
						"slot": "0",
						"type": "t_uint256"
					},
					{
						"astId": 75,
						"contract": "CROWD_TANK/contracts/CrowdTank.sol:CrowdTank",
						"label": "TotalRaisedFunding",
						"offset": 0,
						"slot": "1",
						"type": "t_uint256"
					},
					{
						"astId": 77,
						"contract": "CROWD_TANK/contracts/CrowdTank.sol:CrowdTank",
						"label": "TotalProjects",
						"offset": 0,
						"slot": "2",
						"type": "t_uint256"
					},
					{
						"astId": 79,
						"contract": "CROWD_TANK/contracts/CrowdTank.sol:CrowdTank",
						"label": "admin",
						"offset": 0,
						"slot": "3",
						"type": "t_address"
					},
					{
						"astId": 81,
						"contract": "CROWD_TANK/contracts/CrowdTank.sol:CrowdTank",
						"label": "Successful_Funded_Projects",
						"offset": 0,
						"slot": "4",
						"type": "t_uint256"
					},
					{
						"astId": 83,
						"contract": "CROWD_TANK/contracts/CrowdTank.sol:CrowdTank",
						"label": "Failed_Funded_Projects",
						"offset": 0,
						"slot": "5",
						"type": "t_uint256"
					},
					{
						"astId": 116,
						"contract": "CROWD_TANK/contracts/CrowdTank.sol:CrowdTank",
						"label": "AuthorizedCreators",
						"offset": 0,
						"slot": "6",
						"type": "t_mapping(t_address,t_bool)"
					},
					{
						"astId": 179,
						"contract": "CROWD_TANK/contracts/CrowdTank.sol:CrowdTank",
						"label": "project_results",
						"offset": 0,
						"slot": "7",
						"type": "t_mapping(t_uint256,t_bool)"
					},
					{
						"astId": 184,
						"contract": "CROWD_TANK/contracts/CrowdTank.sol:CrowdTank",
						"label": "Projects",
						"offset": 0,
						"slot": "8",
						"type": "t_mapping(t_uint256,t_struct(project)175_storage)"
					},
					{
						"astId": 190,
						"contract": "CROWD_TANK/contracts/CrowdTank.sol:CrowdTank",
						"label": "Contributions",
						"offset": 0,
						"slot": "9",
						"type": "t_mapping(t_uint256,t_mapping(t_address,t_uint256))"
					},
					{
						"astId": 194,
						"contract": "CROWD_TANK/contracts/CrowdTank.sol:CrowdTank",
						"label": "isIdUsed",
						"offset": 0,
						"slot": "10",
						"type": "t_mapping(t_uint256,t_bool)"
					},
					{
						"astId": 197,
						"contract": "CROWD_TANK/contracts/CrowdTank.sol:CrowdTank",
						"label": "projectIDs",
						"offset": 0,
						"slot": "11",
						"type": "t_array(t_uint256)dyn_storage"
					}
				],
				"types": {
					"t_address": {
						"encoding": "inplace",
						"label": "address",
						"numberOfBytes": "20"
					},
					"t_array(t_uint256)dyn_storage": {
						"base": "t_uint256",
						"encoding": "dynamic_array",
						"label": "uint256[]",
						"numberOfBytes": "32"
					},
					"t_bool": {
						"encoding": "inplace",
						"label": "bool",
						"numberOfBytes": "1"
					},
					"t_mapping(t_address,t_bool)": {
						"encoding": "mapping",
						"key": "t_address",
						"label": "mapping(address => bool)",
						"numberOfBytes": "32",
						"value": "t_bool"
					},
					"t_mapping(t_address,t_uint256)": {
						"encoding": "mapping",
						"key": "t_address",
						"label": "mapping(address => uint256)",
						"numberOfBytes": "32",
						"value": "t_uint256"
					},
					"t_mapping(t_uint256,t_bool)": {
						"encoding": "mapping",
						"key": "t_uint256",
						"label": "mapping(uint256 => bool)",
						"numberOfBytes": "32",
						"value": "t_bool"
					},
					"t_mapping(t_uint256,t_mapping(t_address,t_uint256))": {
						"encoding": "mapping",
						"key": "t_uint256",
						"label": "mapping(uint256 => mapping(address => uint256))",
						"numberOfBytes": "32",
						"value": "t_mapping(t_address,t_uint256)"
					},
					"t_mapping(t_uint256,t_struct(project)175_storage)": {
						"encoding": "mapping",
						"key": "t_uint256",
						"label": "mapping(uint256 => struct CrowdTank.project)",
						"numberOfBytes": "32",
						"value": "t_struct(project)175_storage"
					},
					"t_string_storage": {
						"encoding": "bytes",
						"label": "string",
						"numberOfBytes": "32"
					},
					"t_struct(project)175_storage": {
						"encoding": "inplace",
						"label": "struct CrowdTank.project",
						"members": [
							{
								"astId": 154,
								"contract": "CROWD_TANK/contracts/CrowdTank.sol:CrowdTank",
								"label": "creator",
								"offset": 0,
								"slot": "0",
								"type": "t_address"
							},
							{
								"astId": 156,
								"contract": "CROWD_TANK/contracts/CrowdTank.sol:CrowdTank",
								"label": "name",
								"offset": 0,
								"slot": "1",
								"type": "t_string_storage"
							},
							{
								"astId": 158,
								"contract": "CROWD_TANK/contracts/CrowdTank.sol:CrowdTank",
								"label": "description",
								"offset": 0,
								"slot": "2",
								"type": "t_string_storage"
							},
							{
								"astId": 160,
								"contract": "CROWD_TANK/contracts/CrowdTank.sol:CrowdTank",
								"label": "fundingGoal",
								"offset": 0,
								"slot": "3",
								"type": "t_uint256"
							},
							{
								"astId": 162,
								"contract": "CROWD_TANK/contracts/CrowdTank.sol:CrowdTank",
								"label": "deadline",
								"offset": 0,
								"slot": "4",
								"type": "t_uint256"
							},
							{
								"astId": 164,
								"contract": "CROWD_TANK/contracts/CrowdTank.sol:CrowdTank",
								"label": "amountRaised",
								"offset": 0,
								"slot": "5",
								"type": "t_uint256"
							},
							{
								"astId": 166,
								"contract": "CROWD_TANK/contracts/CrowdTank.sol:CrowdTank",
								"label": "funded",
								"offset": 0,
								"slot": "6",
								"type": "t_bool"
							},
							{
								"astId": 168,
								"contract": "CROWD_TANK/contracts/CrowdTank.sol:CrowdTank",
								"label": "highest_Funder",
								"offset": 1,
								"slot": "6",
								"type": "t_address"
							},
							{
								"astId": 170,
								"contract": "CROWD_TANK/contracts/CrowdTank.sol:CrowdTank",
								"label": "highest_contribution",
								"offset": 0,
								"slot": "7",
								"type": "t_uint256"
							},
							{
								"astId": 172,
								"contract": "CROWD_TANK/contracts/CrowdTank.sol:CrowdTank",
								"label": "failed_projects",
								"offset": 0,
								"slot": "8",
								"type": "t_bool"
							},
							{
								"astId": 174,
								"contract": "CROWD_TANK/contracts/CrowdTank.sol:CrowdTank",
								"label": "status_processed",
								"offset": 1,
								"slot": "8",
								"type": "t_bool"
							}
						],
						"numberOfBytes": "288"
					},
					"t_uint256": {
						"encoding": "inplace",
						"label": "uint256",
						"numberOfBytes": "32"
					}
				}
			},
			"userdoc": {
				"kind": "user",
				"methods": {},
				"version": 1
			}
		}
	}
}