{
	"contracts/CrowdTank.sol": {
		"CrowdTank": {
			"abi": [
				{
					"inputs": [],
					"stateMutability": "nonpayable",
					"type": "constructor"
				},
				{
					"inputs": [],
					"name": "ReentrancyGuardReentrantCall",
					"type": "error"
				},
				{
					"anonymous": false,
					"inputs": [
						{
							"indexed": true,
							"internalType": "uint256",
							"name": "projectID",
							"type": "uint256"
						},
						{
							"indexed": true,
							"internalType": "address",
							"name": "creator",
							"type": "address"
						},
						{
							"indexed": false,
							"internalType": "string",
							"name": "name",
							"type": "string"
						},
						{
							"indexed": false,
							"internalType": "string",
							"name": "description",
							"type": "string"
						},
						{
							"indexed": false,
							"internalType": "uint256",
							"name": "fundingGoal",
							"type": "uint256"
						},
						{
							"indexed": false,
							"internalType": "uint256",
							"name": "deadline",
							"type": "uint256"
						}
					],
					"name": "ProjectCreated",
					"type": "event"
				},
				{
					"anonymous": false,
					"inputs": [
						{
							"indexed": true,
							"internalType": "address",
							"name": "user",
							"type": "address"
						},
						{
							"indexed": true,
							"internalType": "uint256",
							"name": "_projectID",
							"type": "uint256"
						},
						{
							"indexed": false,
							"internalType": "uint256",
							"name": "amount",
							"type": "uint256"
						}
					],
					"name": "UserEarlyWithdraw",
					"type": "event"
				},
				{
					"anonymous": false,
					"inputs": [
						{
							"indexed": true,
							"internalType": "address",
							"name": "creator",
							"type": "address"
						}
					],
					"name": "addedCreator",
					"type": "event"
				},
				{
					"anonymous": false,
					"inputs": [
						{
							"indexed": true,
							"internalType": "uint256",
							"name": "projectID",
							"type": "uint256"
						},
						{
							"indexed": false,
							"internalType": "address",
							"name": "withdrawer",
							"type": "address"
						},
						{
							"indexed": false,
							"internalType": "uint256",
							"name": "amount",
							"type": "uint256"
						}
					],
					"name": "creatorWithdrawn",
					"type": "event"
				},
				{
					"anonymous": false,
					"inputs": [
						{
							"indexed": true,
							"internalType": "uint256",
							"name": "projectID",
							"type": "uint256"
						},
						{
							"indexed": false,
							"internalType": "address",
							"name": "contributor",
							"type": "address"
						},
						{
							"indexed": false,
							"internalType": "uint256",
							"name": "amount",
							"type": "uint256"
						},
						{
							"indexed": false,
							"internalType": "uint256",
							"name": "refund",
							"type": "uint256"
						}
					],
					"name": "funded",
					"type": "event"
				},
				{
					"anonymous": false,
					"inputs": [
						{
							"indexed": true,
							"internalType": "address",
							"name": "creator",
							"type": "address"
						}
					],
					"name": "removedCreator",
					"type": "event"
				},
				{
					"anonymous": false,
					"inputs": [
						{
							"indexed": true,
							"internalType": "uint256",
							"name": "projectID",
							"type": "uint256"
						},
						{
							"indexed": false,
							"internalType": "address",
							"name": "withdrawer",
							"type": "address"
						},
						{
							"indexed": false,
							"internalType": "uint256",
							"name": "amount",
							"type": "uint256"
						}
					],
					"name": "userWithdrawn",
					"type": "event"
				},
				{
					"inputs": [
						{
							"internalType": "address",
							"name": "_creator",
							"type": "address"
						}
					],
					"name": "Add_Creators",
					"outputs": [],
					"stateMutability": "nonpayable",
					"type": "function"
				},
				{
					"inputs": [
						{
							"internalType": "address",
							"name": "",
							"type": "address"
						}
					],
					"name": "AuthorizedCreators",
					"outputs": [
						{
							"internalType": "bool",
							"name": "",
							"type": "bool"
						}
					],
					"stateMutability": "view",
					"type": "function"
				},
				{
					"inputs": [
						{
							"internalType": "uint256",
							"name": "_projectID",
							"type": "uint256"
						},
						{
							"internalType": "uint256",
							"name": "Change_Goal",
							"type": "uint256"
						}
					],
					"name": "Change_FundingGoal",
					"outputs": [],
					"stateMutability": "nonpayable",
					"type": "function"
				},
				{
					"inputs": [
						{
							"internalType": "uint256",
							"name": "",
							"type": "uint256"
						},
						{
							"internalType": "address",
							"name": "",
							"type": "address"
						}
					],
					"name": "Contributions",
					"outputs": [
						{
							"internalType": "uint256",
							"name": "",
							"type": "uint256"
						}
					],
					"stateMutability": "view",
					"type": "function"
				},
				{
					"inputs": [
						{
							"internalType": "uint256",
							"name": "_projectID",
							"type": "uint256"
						},
						{
							"internalType": "uint256",
							"name": "_deadline",
							"type": "uint256"
						}
					],
					"name": "Extend_Deadline",
					"outputs": [],
					"stateMutability": "nonpayable",
					"type": "function"
				},
				{
					"inputs": [],
					"name": "Failed_Funded_Projects",
					"outputs": [
						{
							"internalType": "uint256",
							"name": "",
							"type": "uint256"
						}
					],
					"stateMutability": "view",
					"type": "function"
				},
				{
					"inputs": [
						{
							"internalType": "uint256",
							"name": "_projectID",
							"type": "uint256"
						}
					],
					"name": "Funding_Raised_Percentage",
					"outputs": [
						{
							"internalType": "uint256",
							"name": "",
							"type": "uint256"
						}
					],
					"stateMutability": "view",
					"type": "function"
				},
				{
					"inputs": [],
					"name": "Get_Total_Raised_Funding",
					"outputs": [
						{
							"internalType": "uint256",
							"name": "",
							"type": "uint256"
						}
					],
					"stateMutability": "view",
					"type": "function"
				},
				{
					"inputs": [
						{
							"internalType": "uint256",
							"name": "",
							"type": "uint256"
						}
					],
					"name": "Projects",
					"outputs": [
						{
							"internalType": "address",
							"name": "creator",
							"type": "address"
						},
						{
							"internalType": "string",
							"name": "name",
							"type": "string"
						},
						{
							"internalType": "string",
							"name": "description",
							"type": "string"
						},
						{
							"internalType": "uint256",
							"name": "fundingGoal",
							"type": "uint256"
						},
						{
							"internalType": "uint256",
							"name": "deadline",
							"type": "uint256"
						},
						{
							"internalType": "uint256",
							"name": "amountRaised",
							"type": "uint256"
						},
						{
							"internalType": "bool",
							"name": "funded",
							"type": "bool"
						},
						{
							"internalType": "address",
							"name": "highest_Funder",
							"type": "address"
						},
						{
							"internalType": "uint256",
							"name": "highest_contribution",
							"type": "uint256"
						}
					],
					"stateMutability": "view",
					"type": "function"
				},
				{
					"inputs": [
						{
							"internalType": "uint256",
							"name": "projectID",
							"type": "uint256"
						}
					],
					"name": "Remaining_Fund",
					"outputs": [
						{
							"internalType": "uint256",
							"name": "fundingGoal",
							"type": "uint256"
						},
						{
							"internalType": "uint256",
							"name": "remainingFund",
							"type": "uint256"
						}
					],
					"stateMutability": "view",
					"type": "function"
				},
				{
					"inputs": [
						{
							"internalType": "address",
							"name": "_creator",
							"type": "address"
						}
					],
					"name": "Remove_Creators",
					"outputs": [],
					"stateMutability": "nonpayable",
					"type": "function"
				},
				{
					"inputs": [],
					"name": "Successful_Funded_Projects",
					"outputs": [
						{
							"internalType": "uint256",
							"name": "",
							"type": "uint256"
						}
					],
					"stateMutability": "view",
					"type": "function"
				},
				{
					"inputs": [
						{
							"internalType": "uint256",
							"name": "projectID",
							"type": "uint256"
						}
					],
					"name": "Time_Left",
					"outputs": [
						{
							"internalType": "uint256",
							"name": "",
							"type": "uint256"
						}
					],
					"stateMutability": "view",
					"type": "function"
				},
				{
					"inputs": [],
					"name": "TotalProjects",
					"outputs": [
						{
							"internalType": "uint256",
							"name": "",
							"type": "uint256"
						}
					],
					"stateMutability": "view",
					"type": "function"
				},
				{
					"inputs": [],
					"name": "admin",
					"outputs": [
						{
							"internalType": "address",
							"name": "",
							"type": "address"
						}
					],
					"stateMutability": "view",
					"type": "function"
				},
				{
					"inputs": [
						{
							"internalType": "string",
							"name": "_name",
							"type": "string"
						},
						{
							"internalType": "string",
							"name": "_description",
							"type": "string"
						},
						{
							"internalType": "uint256",
							"name": "_fundingGoal",
							"type": "uint256"
						},
						{
							"internalType": "uint256",
							"name": "_durationSeconds",
							"type": "uint256"
						},
						{
							"internalType": "uint256",
							"name": "_id",
							"type": "uint256"
						}
					],
					"name": "createProject",
					"outputs": [],
					"stateMutability": "nonpayable",
					"type": "function"
				},
				{
					"inputs": [
						{
							"internalType": "uint256",
							"name": "_projectID",
							"type": "uint256"
						}
					],
					"name": "creatorWithdraw",
					"outputs": [],
					"stateMutability": "payable",
					"type": "function"
				},
				{
					"inputs": [
						{
							"internalType": "uint256",
							"name": "_projectID",
							"type": "uint256"
						}
					],
					"name": "fundProject",
					"outputs": [],
					"stateMutability": "payable",
					"type": "function"
				},
				{
					"inputs": [
						{
							"internalType": "uint256",
							"name": "_projectID",
							"type": "uint256"
						},
						{
							"internalType": "uint256",
							"name": "withdrawn_amount",
							"type": "uint256"
						}
					],
					"name": "userEarlyWithdraw",
					"outputs": [],
					"stateMutability": "payable",
					"type": "function"
				},
				{
					"inputs": [
						{
							"internalType": "uint256",
							"name": "_projectID",
							"type": "uint256"
						}
					],
					"name": "userWithdraw",
					"outputs": [],
					"stateMutability": "payable",
					"type": "function"
				}
			],
			"devdoc": {
				"errors": {
					"ReentrancyGuardReentrantCall()": [
						{
							"details": "Unauthorized reentrant call."
						}
					]
				},
				"kind": "dev",
				"methods": {},
				"version": 1
			},
			"evm": {
				"assembly": "    /* \"contracts/CrowdTank.sol\":237:10191  contract CrowdTank is ReentrancyGuard {... */\n  mstore(0x40, 0x80)\n    /* \"contracts/CrowdTank.sol\":686:736  constructor() {... */\n  callvalue\n  dup1\n  iszero\n  tag_1\n  jumpi\n  revert(0x00, 0x00)\ntag_1:\n  pop\n    /* \"@openzeppelin/contracts/utils/ReentrancyGuard.sol\":1857:1858  1 */\n  0x01\n    /* \"@openzeppelin/contracts/utils/ReentrancyGuard.sol\":2061:2068  _status */\n  0x00\n    /* \"@openzeppelin/contracts/utils/ReentrancyGuard.sol\":2061:2082  _status = NOT_ENTERED */\n  dup2\n  swap1\n  sstore\n  pop\n    /* \"contracts/CrowdTank.sol\":719:729  msg.sender */\n  caller\n    /* \"contracts/CrowdTank.sol\":711:716  admin */\n  0x03\n  0x00\n    /* \"contracts/CrowdTank.sol\":711:729  admin = msg.sender */\n  0x0100\n  exp\n  dup2\n  sload\n  dup2\n  0xffffffffffffffffffffffffffffffffffffffff\n  mul\n  not\n  and\n  swap1\n  dup4\n  0xffffffffffffffffffffffffffffffffffffffff\n  and\n  mul\n  or\n  swap1\n  sstore\n  pop\n    /* \"contracts/CrowdTank.sol\":237:10191  contract CrowdTank is ReentrancyGuard {... */\n  dataSize(sub_0)\n  dup1\n  dataOffset(sub_0)\n  0x00\n  codecopy\n  0x00\n  return\nstop\n\nsub_0: assembly {\n        /* \"contracts/CrowdTank.sol\":237:10191  contract CrowdTank is ReentrancyGuard {... */\n      mstore(0x40, 0x80)\n      jumpi(tag_1, lt(calldatasize, 0x04))\n      shr(0xe0, calldataload(0x00))\n      dup1\n      0x6c563abe\n      gt\n      tag_22\n      jumpi\n      dup1\n      0xcd4ac98c\n      gt\n      tag_23\n      jumpi\n      dup1\n      0xcd4ac98c\n      eq\n      tag_17\n      jumpi\n      dup1\n      0xce7c9080\n      eq\n      tag_18\n      jumpi\n      dup1\n      0xf81bf601\n      eq\n      tag_19\n      jumpi\n      dup1\n      0xf851a440\n      eq\n      tag_20\n      jumpi\n      dup1\n      0xfee2f1c9\n      eq\n      tag_21\n      jumpi\n      jump(tag_1)\n    tag_23:\n      dup1\n      0x6c563abe\n      eq\n      tag_12\n      jumpi\n      dup1\n      0x71eb89f3\n      eq\n      tag_13\n      jumpi\n      dup1\n      0x7299baeb\n      eq\n      tag_14\n      jumpi\n      dup1\n      0x88283c0f\n      eq\n      tag_15\n      jumpi\n      dup1\n      0x9ab761c7\n      eq\n      tag_16\n      jumpi\n      jump(tag_1)\n    tag_22:\n      dup1\n      0x3b9056bf\n      gt\n      tag_24\n      jumpi\n      dup1\n      0x3b9056bf\n      eq\n      tag_7\n      jumpi\n      dup1\n      0x42d844a5\n      eq\n      tag_8\n      jumpi\n      dup1\n      0x54a5bcc5\n      eq\n      tag_9\n      jumpi\n      dup1\n      0x5d4e5d78\n      eq\n      tag_10\n      jumpi\n      dup1\n      0x629b2647\n      eq\n      tag_11\n      jumpi\n      jump(tag_1)\n    tag_24:\n      dup1\n      0x0dbac135\n      eq\n      tag_2\n      jumpi\n      dup1\n      0x1392ebfe\n      eq\n      tag_3\n      jumpi\n      dup1\n      0x21b2416c\n      eq\n      tag_4\n      jumpi\n      dup1\n      0x32dcd3a1\n      eq\n      tag_5\n      jumpi\n      dup1\n      0x370c36b4\n      eq\n      tag_6\n      jumpi\n    tag_1:\n      revert(0x00, 0x00)\n        /* \"contracts/CrowdTank.sol\":7605:8094  function Remaining_Fund(uint projectID) public view returns(uint fundingGoal , uint remainingFund) {... */\n    tag_2:\n      callvalue\n      dup1\n      iszero\n      tag_25\n      jumpi\n      revert(0x00, 0x00)\n    tag_25:\n      pop\n      tag_26\n      0x04\n      dup1\n      calldatasize\n      sub\n      dup2\n      add\n      swap1\n      tag_27\n      swap2\n      swap1\n      tag_28\n      jump\t// in\n    tag_27:\n      tag_29\n      jump\t// in\n    tag_26:\n      mload(0x40)\n      tag_30\n      swap3\n      swap2\n      swap1\n      tag_31\n      jump\t// in\n    tag_30:\n      mload(0x40)\n      dup1\n      swap2\n      sub\n      swap1\n      return\n        /* \"contracts/CrowdTank.sol\":8460:8868  function Change_FundingGoal( uint _projectID , uint Change_Goal) external {... */\n    tag_3:\n      callvalue\n      dup1\n      iszero\n      tag_32\n      jumpi\n      revert(0x00, 0x00)\n    tag_32:\n      pop\n      tag_33\n      0x04\n      dup1\n      calldatasize\n      sub\n      dup2\n      add\n      swap1\n      tag_34\n      swap2\n      swap1\n      tag_35\n      jump\t// in\n    tag_34:\n      tag_36\n      jump\t// in\n    tag_33:\n      stop\n        /* \"contracts/CrowdTank.sol\":1631:1672  mapping (uint => project) public Projects */\n    tag_4:\n      callvalue\n      dup1\n      iszero\n      tag_37\n      jumpi\n      revert(0x00, 0x00)\n    tag_37:\n      pop\n      tag_38\n      0x04\n      dup1\n      calldatasize\n      sub\n      dup2\n      add\n      swap1\n      tag_39\n      swap2\n      swap1\n      tag_28\n      jump\t// in\n    tag_39:\n      tag_40\n      jump\t// in\n    tag_38:\n      mload(0x40)\n      tag_41\n      swap10\n      swap9\n      swap8\n      swap7\n      swap6\n      swap5\n      swap4\n      swap3\n      swap2\n      swap1\n      tag_42\n      jump\t// in\n    tag_41:\n      mload(0x40)\n      dup1\n      swap2\n      sub\n      swap1\n      return\n        /* \"contracts/CrowdTank.sol\":542:576  uint public Failed_Funded_Projects */\n    tag_5:\n      callvalue\n      dup1\n      iszero\n      tag_43\n      jumpi\n      revert(0x00, 0x00)\n    tag_43:\n      pop\n      tag_44\n      tag_45\n      jump\t// in\n    tag_44:\n      mload(0x40)\n      tag_46\n      swap2\n      swap1\n      tag_47\n      jump\t// in\n    tag_46:\n      mload(0x40)\n      dup1\n      swap2\n      sub\n      swap1\n      return\n        /* \"contracts/CrowdTank.sol\":7247:7537  function Time_Left(uint projectID) view public returns(uint) {... */\n    tag_6:\n      callvalue\n      dup1\n      iszero\n      tag_48\n      jumpi\n      revert(0x00, 0x00)\n    tag_48:\n      pop\n      tag_49\n      0x04\n      dup1\n      calldatasize\n      sub\n      dup2\n      add\n      swap1\n      tag_50\n      swap2\n      swap1\n      tag_28\n      jump\t// in\n    tag_50:\n      tag_51\n      jump\t// in\n    tag_49:\n      mload(0x40)\n      tag_52\n      swap2\n      swap1\n      tag_47\n      jump\t// in\n    tag_52:\n      mload(0x40)\n      dup1\n      swap2\n      sub\n      swap1\n      return\n        /* \"contracts/CrowdTank.sol\":5881:6524  function userWithdraw(uint _projectID) external payable {... */\n    tag_7:\n      tag_53\n      0x04\n      dup1\n      calldatasize\n      sub\n      dup2\n      add\n      swap1\n      tag_54\n      swap2\n      swap1\n      tag_28\n      jump\t// in\n    tag_54:\n      tag_55\n      jump\t// in\n    tag_53:\n      stop\n        /* \"contracts/CrowdTank.sol\":8916:9183  function Funding_Raised_Percentage( uint _projectID ) public view  returns(uint) {... */\n    tag_8:\n      callvalue\n      dup1\n      iszero\n      tag_56\n      jumpi\n      revert(0x00, 0x00)\n    tag_56:\n      pop\n      tag_57\n      0x04\n      dup1\n      calldatasize\n      sub\n      dup2\n      add\n      swap1\n      tag_58\n      swap2\n      swap1\n      tag_28\n      jump\t// in\n    tag_58:\n      tag_59\n      jump\t// in\n    tag_57:\n      mload(0x40)\n      tag_60\n      swap2\n      swap1\n      tag_47\n      jump\t// in\n    tag_60:\n      mload(0x40)\n      dup1\n      swap2\n      sub\n      swap1\n      return\n        /* \"contracts/CrowdTank.sol\":5735:5841  function Get_Total_Raised_Funding() view public returns(uint) {... */\n    tag_9:\n      callvalue\n      dup1\n      iszero\n      tag_61\n      jumpi\n      revert(0x00, 0x00)\n    tag_61:\n      pop\n      tag_62\n      tag_63\n      jump\t// in\n    tag_62:\n      mload(0x40)\n      tag_64\n      swap2\n      swap1\n      tag_47\n      jump\t// in\n    tag_64:\n      mload(0x40)\n      dup1\n      swap2\n      sub\n      swap1\n      return\n        /* \"contracts/CrowdTank.sol\":1731:1795  mapping (uint => mapping (address => uint)) public Contributions */\n    tag_10:\n      callvalue\n      dup1\n      iszero\n      tag_65\n      jumpi\n      revert(0x00, 0x00)\n    tag_65:\n      pop\n      tag_66\n      0x04\n      dup1\n      calldatasize\n      sub\n      dup2\n      add\n      swap1\n      tag_67\n      swap2\n      swap1\n      tag_68\n      jump\t// in\n    tag_67:\n      tag_69\n      jump\t// in\n    tag_66:\n      mload(0x40)\n      tag_70\n      swap2\n      swap1\n      tag_47\n      jump\t// in\n    tag_70:\n      mload(0x40)\n      dup1\n      swap2\n      sub\n      swap1\n      return\n        /* \"contracts/CrowdTank.sol\":8140:8413  function Extend_Deadline(uint _projectID , uint _deadline) external {... */\n    tag_11:\n      callvalue\n      dup1\n      iszero\n      tag_71\n      jumpi\n      revert(0x00, 0x00)\n    tag_71:\n      pop\n      tag_72\n      0x04\n      dup1\n      calldatasize\n      sub\n      dup2\n      add\n      swap1\n      tag_73\n      swap2\n      swap1\n      tag_35\n      jump\t// in\n    tag_73:\n      tag_74\n      jump\t// in\n    tag_72:\n      stop\n        /* \"contracts/CrowdTank.sol\":3457:5696  function fundProject(uint _projectID) external payable nonReentrant {... */\n    tag_12:\n      tag_75\n      0x04\n      dup1\n      calldatasize\n      sub\n      dup2\n      add\n      swap1\n      tag_76\n      swap2\n      swap1\n      tag_28\n      jump\t// in\n    tag_76:\n      tag_77\n      jump\t// in\n    tag_75:\n      stop\n        /* \"contracts/CrowdTank.sol\":6576:7177  function creatorWithdraw(uint _projectID) external payable {... */\n    tag_13:\n      tag_78\n      0x04\n      dup1\n      calldatasize\n      sub\n      dup2\n      add\n      swap1\n      tag_79\n      swap2\n      swap1\n      tag_28\n      jump\t// in\n    tag_79:\n      tag_80\n      jump\t// in\n    tag_78:\n      stop\n        /* \"contracts/CrowdTank.sol\":1106:1267  function Remove_Creators( address _creator ) external OnlyAdmin {... */\n    tag_14:\n      callvalue\n      dup1\n      iszero\n      tag_81\n      jumpi\n      revert(0x00, 0x00)\n    tag_81:\n      pop\n      tag_82\n      0x04\n      dup1\n      calldatasize\n      sub\n      dup2\n      add\n      swap1\n      tag_83\n      swap2\n      swap1\n      tag_84\n      jump\t// in\n    tag_83:\n      tag_85\n      jump\t// in\n    tag_82:\n      stop\n        /* \"contracts/CrowdTank.sol\":879:930  mapping (address => bool) public AuthorizedCreators */\n    tag_15:\n      callvalue\n      dup1\n      iszero\n      tag_86\n      jumpi\n      revert(0x00, 0x00)\n    tag_86:\n      pop\n      tag_87\n      0x04\n      dup1\n      calldatasize\n      sub\n      dup2\n      add\n      swap1\n      tag_88\n      swap2\n      swap1\n      tag_84\n      jump\t// in\n    tag_88:\n      tag_89\n      jump\t// in\n    tag_87:\n      mload(0x40)\n      tag_90\n      swap2\n      swap1\n      tag_91\n      jump\t// in\n    tag_90:\n      mload(0x40)\n      dup1\n      swap2\n      sub\n      swap1\n      return\n        /* \"contracts/CrowdTank.sol\":394:419  uint public TotalProjects */\n    tag_16:\n      callvalue\n      dup1\n      iszero\n      tag_92\n      jumpi\n      revert(0x00, 0x00)\n    tag_92:\n      pop\n      tag_93\n      tag_94\n      jump\t// in\n    tag_93:\n      mload(0x40)\n      tag_95\n      swap2\n      swap1\n      tag_47\n      jump\t// in\n    tag_95:\n      mload(0x40)\n      dup1\n      swap2\n      sub\n      swap1\n      return\n        /* \"contracts/CrowdTank.sol\":9232:10186  function userEarlyWithdraw( uint _projectID , uint withdrawn_amount) external payable {... */\n    tag_17:\n      tag_96\n      0x04\n      dup1\n      calldatasize\n      sub\n      dup2\n      add\n      swap1\n      tag_97\n      swap2\n      swap1\n      tag_35\n      jump\t// in\n    tag_97:\n      tag_98\n      jump\t// in\n    tag_96:\n      stop\n        /* \"contracts/CrowdTank.sol\":497:535  uint public Successful_Funded_Projects */\n    tag_18:\n      callvalue\n      dup1\n      iszero\n      tag_99\n      jumpi\n      revert(0x00, 0x00)\n    tag_99:\n      pop\n      tag_100\n      tag_101\n      jump\t// in\n    tag_100:\n      mload(0x40)\n      tag_102\n      swap2\n      swap1\n      tag_47\n      jump\t// in\n    tag_102:\n      mload(0x40)\n      dup1\n      swap2\n      sub\n      swap1\n      return\n        /* \"contracts/CrowdTank.sol\":2530:3396  function createProject(string memory _name , string memory _description , uint _fundingGoal , uint _durationSeconds , uint _id) external {... */\n    tag_19:\n      callvalue\n      dup1\n      iszero\n      tag_103\n      jumpi\n      revert(0x00, 0x00)\n    tag_103:\n      pop\n      tag_104\n      0x04\n      dup1\n      calldatasize\n      sub\n      dup2\n      add\n      swap1\n      tag_105\n      swap2\n      swap1\n      tag_106\n      jump\t// in\n    tag_105:\n      tag_107\n      jump\t// in\n    tag_104:\n      stop\n        /* \"contracts/CrowdTank.sol\":468:488  address public admin */\n    tag_20:\n      callvalue\n      dup1\n      iszero\n      tag_108\n      jumpi\n      revert(0x00, 0x00)\n    tag_108:\n      pop\n      tag_109\n      tag_110\n      jump\t// in\n    tag_109:\n      mload(0x40)\n      tag_111\n      swap2\n      swap1\n      tag_112\n      jump\t// in\n    tag_111:\n      mload(0x40)\n      dup1\n      swap2\n      sub\n      swap1\n      return\n        /* \"contracts/CrowdTank.sol\":939:1094  function Add_Creators( address _creator ) external OnlyAdmin {... */\n    tag_21:\n      callvalue\n      dup1\n      iszero\n      tag_113\n      jumpi\n      revert(0x00, 0x00)\n    tag_113:\n      pop\n      tag_114\n      0x04\n      dup1\n      calldatasize\n      sub\n      dup2\n      add\n      swap1\n      tag_115\n      swap2\n      swap1\n      tag_84\n      jump\t// in\n    tag_115:\n      tag_116\n      jump\t// in\n    tag_114:\n      stop\n        /* \"contracts/CrowdTank.sol\":7605:8094  function Remaining_Fund(uint projectID) public view returns(uint fundingGoal , uint remainingFund) {... */\n    tag_29:\n        /* \"contracts/CrowdTank.sol\":7665:7681  uint fundingGoal */\n      0x00\n        /* \"contracts/CrowdTank.sol\":7684:7702  uint remainingFund */\n      0x00\n        /* \"contracts/CrowdTank.sol\":7716:7739  project storage Project */\n      0x00\n        /* \"contracts/CrowdTank.sol\":7742:7750  Projects */\n      0x07\n        /* \"contracts/CrowdTank.sol\":7742:7761  Projects[projectID] */\n      0x00\n        /* \"contracts/CrowdTank.sol\":7751:7760  projectID */\n      dup6\n        /* \"contracts/CrowdTank.sol\":7742:7761  Projects[projectID] */\n      dup2\n      mstore\n      0x20\n      add\n      swap1\n      dup2\n      mstore\n      0x20\n      add\n      0x00\n      keccak256\n        /* \"contracts/CrowdTank.sol\":7716:7761  project storage Project = Projects[projectID] */\n      swap1\n      pop\n        /* \"contracts/CrowdTank.sol\":7786:7793  Project */\n      dup1\n        /* \"contracts/CrowdTank.sol\":7786:7805  Project.fundingGoal */\n      0x03\n      add\n      sload\n        /* \"contracts/CrowdTank.sol\":7772:7805  fundingGoal = Project.fundingGoal */\n      swap3\n      pop\n        /* \"contracts/CrowdTank.sol\":7851:7852  0 */\n      0x00\n        /* \"contracts/CrowdTank.sol\":7824:7853  Project.creator != address(0) */\n      0xffffffffffffffffffffffffffffffffffffffff\n      and\n        /* \"contracts/CrowdTank.sol\":7824:7831  Project */\n      dup2\n        /* \"contracts/CrowdTank.sol\":7824:7839  Project.creator */\n      0x00\n      add\n      0x00\n      swap1\n      sload\n      swap1\n      0x0100\n      exp\n      swap1\n      div\n      0xffffffffffffffffffffffffffffffffffffffff\n      and\n        /* \"contracts/CrowdTank.sol\":7824:7853  Project.creator != address(0) */\n      0xffffffffffffffffffffffffffffffffffffffff\n      and\n      sub\n        /* \"contracts/CrowdTank.sol\":7816:7891  require(Project.creator != address(0), \"project has not been created yet!\") */\n      tag_118\n      jumpi\n      mload(0x40)\n      0x08c379a000000000000000000000000000000000000000000000000000000000\n      dup2\n      mstore\n      0x04\n      add\n      tag_119\n      swap1\n      tag_120\n      jump\t// in\n    tag_119:\n      mload(0x40)\n      dup1\n      swap2\n      sub\n      swap1\n      revert\n    tag_118:\n        /* \"contracts/CrowdTank.sol\":7930:7937  Project */\n      dup1\n        /* \"contracts/CrowdTank.sol\":7930:7949  Project.fundingGoal */\n      0x03\n      add\n      sload\n        /* \"contracts/CrowdTank.sol\":7906:7913  Project */\n      dup2\n        /* \"contracts/CrowdTank.sol\":7906:7926  Project.amountRaised */\n      0x05\n      add\n      sload\n        /* \"contracts/CrowdTank.sol\":7906:7949  Project.amountRaised >= Project.fundingGoal */\n      lt\n        /* \"contracts/CrowdTank.sol\":7902:8087  if (Project.amountRaised >= Project.fundingGoal) {... */\n      tag_121\n      jumpi\n        /* \"contracts/CrowdTank.sol\":7983:7984  0 */\n      0x00\n        /* \"contracts/CrowdTank.sol\":7967:7984  remainingFund = 0 */\n      swap2\n      pop\n        /* \"contracts/CrowdTank.sol\":7902:8087  if (Project.amountRaised >= Project.fundingGoal) {... */\n      jump(tag_122)\n    tag_121:\n        /* \"contracts/CrowdTank.sol\":8055:8062  Project */\n      dup1\n        /* \"contracts/CrowdTank.sol\":8055:8075  Project.amountRaised */\n      0x05\n      add\n      sload\n        /* \"contracts/CrowdTank.sol\":8033:8040  Project */\n      dup2\n        /* \"contracts/CrowdTank.sol\":8033:8052  Project.fundingGoal */\n      0x03\n      add\n      sload\n        /* \"contracts/CrowdTank.sol\":8033:8075  Project.fundingGoal - Project.amountRaised */\n      tag_123\n      swap2\n      swap1\n      tag_124\n      jump\t// in\n    tag_123:\n        /* \"contracts/CrowdTank.sol\":8017:8075  remainingFund = Project.fundingGoal - Project.amountRaised */\n      swap2\n      pop\n        /* \"contracts/CrowdTank.sol\":7902:8087  if (Project.amountRaised >= Project.fundingGoal) {... */\n    tag_122:\n        /* \"contracts/CrowdTank.sol\":7704:8094  {... */\n      pop\n        /* \"contracts/CrowdTank.sol\":7605:8094  function Remaining_Fund(uint projectID) public view returns(uint fundingGoal , uint remainingFund) {... */\n      swap2\n      pop\n      swap2\n      jump\t// out\n        /* \"contracts/CrowdTank.sol\":8460:8868  function Change_FundingGoal( uint _projectID , uint Change_Goal) external {... */\n    tag_36:\n        /* \"contracts/CrowdTank.sol\":8546:8569  project storage Project */\n      0x00\n        /* \"contracts/CrowdTank.sol\":8572:8580  Projects */\n      0x07\n        /* \"contracts/CrowdTank.sol\":8572:8592  Projects[_projectID] */\n      0x00\n        /* \"contracts/CrowdTank.sol\":8581:8591  _projectID */\n      dup5\n        /* \"contracts/CrowdTank.sol\":8572:8592  Projects[_projectID] */\n      dup2\n      mstore\n      0x20\n      add\n      swap1\n      dup2\n      mstore\n      0x20\n      add\n      0x00\n      keccak256\n        /* \"contracts/CrowdTank.sol\":8546:8592  project storage Project = Projects[_projectID] */\n      swap1\n      pop\n        /* \"contracts/CrowdTank.sol\":8630:8631  0 */\n      0x00\n        /* \"contracts/CrowdTank.sol\":8611:8618  Project */\n      dup2\n        /* \"contracts/CrowdTank.sol\":8611:8627  Project.deadline */\n      0x04\n      add\n      sload\n        /* \"contracts/CrowdTank.sol\":8611:8631  Project.deadline > 0 */\n      gt\n        /* \"contracts/CrowdTank.sol\":8603:8692  require(Project.deadline > 0 , \"Deadline is over , you Can't change the funding goal !!\") */\n      tag_126\n      jumpi\n      mload(0x40)\n      0x08c379a000000000000000000000000000000000000000000000000000000000\n      dup2\n      mstore\n      0x04\n      add\n      tag_127\n      swap1\n      tag_128\n      jump\t// in\n    tag_127:\n      mload(0x40)\n      dup1\n      swap2\n      sub\n      swap1\n      revert\n    tag_126:\n        /* \"contracts/CrowdTank.sol\":8730:8740  msg.sender */\n      caller\n        /* \"contracts/CrowdTank.sol\":8711:8740  Project.creator == msg.sender */\n      0xffffffffffffffffffffffffffffffffffffffff\n      and\n        /* \"contracts/CrowdTank.sol\":8711:8718  Project */\n      dup2\n        /* \"contracts/CrowdTank.sol\":8711:8726  Project.creator */\n      0x00\n      add\n      0x00\n      swap1\n      sload\n      swap1\n      0x0100\n      exp\n      swap1\n      div\n      0xffffffffffffffffffffffffffffffffffffffff\n      and\n        /* \"contracts/CrowdTank.sol\":8711:8740  Project.creator == msg.sender */\n      0xffffffffffffffffffffffffffffffffffffffff\n      and\n      eq\n        /* \"contracts/CrowdTank.sol\":8703:8814  require(Project.creator == msg.sender , \"You are not the project creator , Only Porject creator can Change !!\") */\n      tag_129\n      jumpi\n      mload(0x40)\n      0x08c379a000000000000000000000000000000000000000000000000000000000\n      dup2\n      mstore\n      0x04\n      add\n      tag_130\n      swap1\n      tag_131\n      jump\t// in\n    tag_130:\n      mload(0x40)\n      dup1\n      swap2\n      sub\n      swap1\n      revert\n    tag_129:\n        /* \"contracts/CrowdTank.sol\":8849:8860  Change_Goal */\n      dup2\n        /* \"contracts/CrowdTank.sol\":8827:8834  Project */\n      dup2\n        /* \"contracts/CrowdTank.sol\":8827:8846  Project.fundingGoal */\n      0x03\n      add\n        /* \"contracts/CrowdTank.sol\":8827:8860  Project.fundingGoal = Change_Goal */\n      dup2\n      swap1\n      sstore\n      pop\n        /* \"contracts/CrowdTank.sol\":8534:8868  {... */\n      pop\n        /* \"contracts/CrowdTank.sol\":8460:8868  function Change_FundingGoal( uint _projectID , uint Change_Goal) external {... */\n      pop\n      pop\n      jump\t// out\n        /* \"contracts/CrowdTank.sol\":1631:1672  mapping (uint => project) public Projects */\n    tag_40:\n      mstore(0x20, 0x07)\n      dup1\n      0x00\n      mstore\n      keccak256(0x00, 0x40)\n      0x00\n      swap2\n      pop\n      swap1\n      pop\n      dup1\n      0x00\n      add\n      0x00\n      swap1\n      sload\n      swap1\n      0x0100\n      exp\n      swap1\n      div\n      0xffffffffffffffffffffffffffffffffffffffff\n      and\n      swap1\n      dup1\n      0x01\n      add\n      dup1\n      sload\n      tag_132\n      swap1\n      tag_133\n      jump\t// in\n    tag_132:\n      dup1\n      0x1f\n      add\n      0x20\n      dup1\n      swap2\n      div\n      mul\n      0x20\n      add\n      mload(0x40)\n      swap1\n      dup2\n      add\n      0x40\n      mstore\n      dup1\n      swap3\n      swap2\n      swap1\n      dup2\n      dup2\n      mstore\n      0x20\n      add\n      dup3\n      dup1\n      sload\n      tag_134\n      swap1\n      tag_133\n      jump\t// in\n    tag_134:\n      dup1\n      iszero\n      tag_135\n      jumpi\n      dup1\n      0x1f\n      lt\n      tag_136\n      jumpi\n      0x0100\n      dup1\n      dup4\n      sload\n      div\n      mul\n      dup4\n      mstore\n      swap2\n      0x20\n      add\n      swap2\n      jump(tag_135)\n    tag_136:\n      dup3\n      add\n      swap2\n      swap1\n      0x00\n      mstore\n      keccak256(0x00, 0x20)\n      swap1\n    tag_137:\n      dup2\n      sload\n      dup2\n      mstore\n      swap1\n      0x01\n      add\n      swap1\n      0x20\n      add\n      dup1\n      dup4\n      gt\n      tag_137\n      jumpi\n      dup3\n      swap1\n      sub\n      0x1f\n      and\n      dup3\n      add\n      swap2\n    tag_135:\n      pop\n      pop\n      pop\n      pop\n      pop\n      swap1\n      dup1\n      0x02\n      add\n      dup1\n      sload\n      tag_138\n      swap1\n      tag_133\n      jump\t// in\n    tag_138:\n      dup1\n      0x1f\n      add\n      0x20\n      dup1\n      swap2\n      div\n      mul\n      0x20\n      add\n      mload(0x40)\n      swap1\n      dup2\n      add\n      0x40\n      mstore\n      dup1\n      swap3\n      swap2\n      swap1\n      dup2\n      dup2\n      mstore\n      0x20\n      add\n      dup3\n      dup1\n      sload\n      tag_139\n      swap1\n      tag_133\n      jump\t// in\n    tag_139:\n      dup1\n      iszero\n      tag_140\n      jumpi\n      dup1\n      0x1f\n      lt\n      tag_141\n      jumpi\n      0x0100\n      dup1\n      dup4\n      sload\n      div\n      mul\n      dup4\n      mstore\n      swap2\n      0x20\n      add\n      swap2\n      jump(tag_140)\n    tag_141:\n      dup3\n      add\n      swap2\n      swap1\n      0x00\n      mstore\n      keccak256(0x00, 0x20)\n      swap1\n    tag_142:\n      dup2\n      sload\n      dup2\n      mstore\n      swap1\n      0x01\n      add\n      swap1\n      0x20\n      add\n      dup1\n      dup4\n      gt\n      tag_142\n      jumpi\n      dup3\n      swap1\n      sub\n      0x1f\n      and\n      dup3\n      add\n      swap2\n    tag_140:\n      pop\n      pop\n      pop\n      pop\n      pop\n      swap1\n      dup1\n      0x03\n      add\n      sload\n      swap1\n      dup1\n      0x04\n      add\n      sload\n      swap1\n      dup1\n      0x05\n      add\n      sload\n      swap1\n      dup1\n      0x06\n      add\n      0x00\n      swap1\n      sload\n      swap1\n      0x0100\n      exp\n      swap1\n      div\n      0xff\n      and\n      swap1\n      dup1\n      0x06\n      add\n      0x01\n      swap1\n      sload\n      swap1\n      0x0100\n      exp\n      swap1\n      div\n      0xffffffffffffffffffffffffffffffffffffffff\n      and\n      swap1\n      dup1\n      0x07\n      add\n      sload\n      swap1\n      pop\n      dup10\n      jump\t// out\n        /* \"contracts/CrowdTank.sol\":542:576  uint public Failed_Funded_Projects */\n    tag_45:\n      sload(0x05)\n      dup2\n      jump\t// out\n        /* \"contracts/CrowdTank.sol\":7247:7537  function Time_Left(uint projectID) view public returns(uint) {... */\n    tag_51:\n        /* \"contracts/CrowdTank.sol\":7302:7306  uint */\n      0x00\n        /* \"contracts/CrowdTank.sol\":7319:7342  project storage Project */\n      0x00\n        /* \"contracts/CrowdTank.sol\":7345:7353  Projects */\n      0x07\n        /* \"contracts/CrowdTank.sol\":7345:7364  Projects[projectID] */\n      0x00\n        /* \"contracts/CrowdTank.sol\":7354:7363  projectID */\n      dup5\n        /* \"contracts/CrowdTank.sol\":7345:7364  Projects[projectID] */\n      dup2\n      mstore\n      0x20\n      add\n      swap1\n      dup2\n      mstore\n      0x20\n      add\n      0x00\n      keccak256\n        /* \"contracts/CrowdTank.sol\":7319:7364  project storage Project = Projects[projectID] */\n      swap1\n      pop\n        /* \"contracts/CrowdTank.sol\":7398:7405  Project */\n      dup1\n        /* \"contracts/CrowdTank.sol\":7398:7414  Project.deadline */\n      0x04\n      add\n      sload\n        /* \"contracts/CrowdTank.sol\":7379:7394  block.timestamp */\n      timestamp\n        /* \"contracts/CrowdTank.sol\":7379:7414  block.timestamp >= Project.deadline */\n      lt\n        /* \"contracts/CrowdTank.sol\":7375:7526  if (block.timestamp >= Project.deadline) {... */\n      tag_144\n      jumpi\n        /* \"contracts/CrowdTank.sol\":7438:7439  0 */\n      0x00\n        /* \"contracts/CrowdTank.sol\":7431:7439  return 0 */\n      swap2\n      pop\n      pop\n      jump(tag_143)\n        /* \"contracts/CrowdTank.sol\":7375:7526  if (block.timestamp >= Project.deadline) {... */\n    tag_144:\n        /* \"contracts/CrowdTank.sol\":7498:7513  block.timestamp */\n      timestamp\n        /* \"contracts/CrowdTank.sol\":7479:7486  Project */\n      dup2\n        /* \"contracts/CrowdTank.sol\":7479:7495  Project.deadline */\n      0x04\n      add\n      sload\n        /* \"contracts/CrowdTank.sol\":7479:7513  Project.deadline - block.timestamp */\n      tag_146\n      swap2\n      swap1\n      tag_124\n      jump\t// in\n    tag_146:\n        /* \"contracts/CrowdTank.sol\":7472:7514  return(Project.deadline - block.timestamp) */\n      swap2\n      pop\n      pop\n        /* \"contracts/CrowdTank.sol\":7247:7537  function Time_Left(uint projectID) view public returns(uint) {... */\n    tag_143:\n      swap2\n      swap1\n      pop\n      jump\t// out\n        /* \"contracts/CrowdTank.sol\":5881:6524  function userWithdraw(uint _projectID) external payable {... */\n    tag_55:\n        /* \"contracts/CrowdTank.sol\":5948:5971  project storage Project */\n      0x00\n        /* \"contracts/CrowdTank.sol\":5974:5982  Projects */\n      0x07\n        /* \"contracts/CrowdTank.sol\":5974:5994  Projects[_projectID] */\n      0x00\n        /* \"contracts/CrowdTank.sol\":5983:5993  _projectID */\n      dup4\n        /* \"contracts/CrowdTank.sol\":5974:5994  Projects[_projectID] */\n      dup2\n      mstore\n      0x20\n      add\n      swap1\n      dup2\n      mstore\n      0x20\n      add\n      0x00\n      keccak256\n        /* \"contracts/CrowdTank.sol\":5948:5994  project storage Project = Projects[_projectID] */\n      swap1\n      pop\n        /* \"contracts/CrowdTank.sol\":6034:6041  Project */\n      dup1\n        /* \"contracts/CrowdTank.sol\":6034:6053  Project.fundingGoal */\n      0x03\n      add\n      sload\n        /* \"contracts/CrowdTank.sol\":6013:6020  Project */\n      dup2\n        /* \"contracts/CrowdTank.sol\":6013:6033  Project.amountRaised */\n      0x05\n      add\n      sload\n        /* \"contracts/CrowdTank.sol\":6013:6053  Project.amountRaised<Project.fundingGoal */\n      lt\n        /* \"contracts/CrowdTank.sol\":6005:6105  require(Project.amountRaised<Project.fundingGoal , \"Funding goal has reached , user can't withdraw\") */\n      tag_148\n      jumpi\n      mload(0x40)\n      0x08c379a000000000000000000000000000000000000000000000000000000000\n      dup2\n      mstore\n      0x04\n      add\n      tag_149\n      swap1\n      tag_150\n      jump\t// in\n    tag_149:\n      mload(0x40)\n      dup1\n      swap2\n      sub\n      swap1\n      revert\n    tag_148:\n        /* \"contracts/CrowdTank.sol\":6116:6137  uint fundsContributed */\n      0x00\n        /* \"contracts/CrowdTank.sol\":6140:6153  Contributions */\n      0x08\n        /* \"contracts/CrowdTank.sol\":6140:6165  Contributions[_projectID] */\n      0x00\n        /* \"contracts/CrowdTank.sol\":6154:6164  _projectID */\n      dup5\n        /* \"contracts/CrowdTank.sol\":6140:6165  Contributions[_projectID] */\n      dup2\n      mstore\n      0x20\n      add\n      swap1\n      dup2\n      mstore\n      0x20\n      add\n      0x00\n      keccak256\n        /* \"contracts/CrowdTank.sol\":6140:6177  Contributions[_projectID][msg.sender] */\n      0x00\n        /* \"contracts/CrowdTank.sol\":6166:6176  msg.sender */\n      caller\n        /* \"contracts/CrowdTank.sol\":6140:6177  Contributions[_projectID][msg.sender] */\n      0xffffffffffffffffffffffffffffffffffffffff\n      and\n      0xffffffffffffffffffffffffffffffffffffffff\n      and\n      dup2\n      mstore\n      0x20\n      add\n      swap1\n      dup2\n      mstore\n      0x20\n      add\n      0x00\n      keccak256\n      sload\n        /* \"contracts/CrowdTank.sol\":6116:6177  uint fundsContributed = Contributions[_projectID][msg.sender] */\n      swap1\n      pop\n        /* \"contracts/CrowdTank.sol\":6213:6229  fundsContributed */\n      dup1\n        /* \"contracts/CrowdTank.sol\":6189:6196  Project */\n      dup3\n        /* \"contracts/CrowdTank.sol\":6189:6209  Project.amountRaised */\n      0x05\n      add\n      0x00\n        /* \"contracts/CrowdTank.sol\":6189:6229  Project.amountRaised -= fundsContributed */\n      dup3\n      dup3\n      sload\n      tag_151\n      swap2\n      swap1\n      tag_124\n      jump\t// in\n    tag_151:\n      swap3\n      pop\n      pop\n      dup2\n      swap1\n      sstore\n      pop\n        /* \"contracts/CrowdTank.sol\":6281:6297  fundsContributed */\n      dup1\n        /* \"contracts/CrowdTank.sol\":6240:6253  Contributions */\n      0x08\n        /* \"contracts/CrowdTank.sol\":6240:6265  Contributions[_projectID] */\n      0x00\n        /* \"contracts/CrowdTank.sol\":6254:6264  _projectID */\n      dup6\n        /* \"contracts/CrowdTank.sol\":6240:6265  Contributions[_projectID] */\n      dup2\n      mstore\n      0x20\n      add\n      swap1\n      dup2\n      mstore\n      0x20\n      add\n      0x00\n      keccak256\n        /* \"contracts/CrowdTank.sol\":6240:6277  Contributions[_projectID][msg.sender] */\n      0x00\n        /* \"contracts/CrowdTank.sol\":6266:6276  msg.sender */\n      caller\n        /* \"contracts/CrowdTank.sol\":6240:6277  Contributions[_projectID][msg.sender] */\n      0xffffffffffffffffffffffffffffffffffffffff\n      and\n      0xffffffffffffffffffffffffffffffffffffffff\n      and\n      dup2\n      mstore\n      0x20\n      add\n      swap1\n      dup2\n      mstore\n      0x20\n      add\n      0x00\n      keccak256\n      0x00\n        /* \"contracts/CrowdTank.sol\":6240:6297  Contributions[_projectID][msg.sender] -= fundsContributed */\n      dup3\n      dup3\n      sload\n      tag_152\n      swap2\n      swap1\n      tag_124\n      jump\t// in\n    tag_152:\n      swap3\n      pop\n      pop\n      dup2\n      swap1\n      sstore\n      pop\n        /* \"contracts/CrowdTank.sol\":6330:6346  fundsContributed */\n      dup1\n        /* \"contracts/CrowdTank.sol\":6308:6326  TotalRaisedFunding */\n      0x01\n      0x00\n        /* \"contracts/CrowdTank.sol\":6308:6346  TotalRaisedFunding -= fundsContributed */\n      dup3\n      dup3\n      sload\n      tag_153\n      swap2\n      swap1\n      tag_124\n      jump\t// in\n    tag_153:\n      swap3\n      pop\n      pop\n      dup2\n      swap1\n      sstore\n      pop\n        /* \"contracts/CrowdTank.sol\":6365:6375  msg.sender */\n      caller\n        /* \"contracts/CrowdTank.sol\":6357:6385  payable(msg.sender).transfer */\n      0xffffffffffffffffffffffffffffffffffffffff\n      and\n        /* \"contracts/CrowdTank.sol\":6357:6403  payable(msg.sender).transfer(fundsContributed) */\n      0x08fc\n        /* \"contracts/CrowdTank.sol\":6386:6402  fundsContributed */\n      dup3\n        /* \"contracts/CrowdTank.sol\":6357:6403  payable(msg.sender).transfer(fundsContributed) */\n      swap1\n      dup2\n      iszero\n      mul\n      swap1\n      mload(0x40)\n      0x00\n      mload(0x40)\n      dup1\n      dup4\n      sub\n      dup2\n      dup6\n      dup9\n      dup9\n      call\n      swap4\n      pop\n      pop\n      pop\n      pop\n      iszero\n      dup1\n      iszero\n      tag_155\n      jumpi\n      returndatacopy(0x00, 0x00, returndatasize)\n      revert(0x00, returndatasize)\n    tag_155:\n      pop\n        /* \"contracts/CrowdTank.sol\":6465:6475  _projectID */\n      dup3\n        /* \"contracts/CrowdTank.sol\":6451:6506  userWithdrawn(_projectID, msg.sender, fundsContributed) */\n      0xb6e4e293b6c7c5cf68fbb52edfaca6173710fcccbcecac03c32e62327fc000c6\n        /* \"contracts/CrowdTank.sol\":6477:6487  msg.sender */\n      caller\n        /* \"contracts/CrowdTank.sol\":6489:6505  fundsContributed */\n      dup4\n        /* \"contracts/CrowdTank.sol\":6451:6506  userWithdrawn(_projectID, msg.sender, fundsContributed) */\n      mload(0x40)\n      tag_156\n      swap3\n      swap2\n      swap1\n      tag_157\n      jump\t// in\n    tag_156:\n      mload(0x40)\n      dup1\n      swap2\n      sub\n      swap1\n      log2\n        /* \"contracts/CrowdTank.sol\":5937:6524  {... */\n      pop\n      pop\n        /* \"contracts/CrowdTank.sol\":5881:6524  function userWithdraw(uint _projectID) external payable {... */\n      pop\n      jump\t// out\n        /* \"contracts/CrowdTank.sol\":8916:9183  function Funding_Raised_Percentage( uint _projectID ) public view  returns(uint) {... */\n    tag_59:\n        /* \"contracts/CrowdTank.sol\":8991:8995  uint */\n      0x00\n        /* \"contracts/CrowdTank.sol\":9008:9031  project storage Project */\n      0x00\n        /* \"contracts/CrowdTank.sol\":9034:9042  Projects */\n      0x07\n        /* \"contracts/CrowdTank.sol\":9034:9054  Projects[_projectID] */\n      0x00\n        /* \"contracts/CrowdTank.sol\":9043:9053  _projectID */\n      dup5\n        /* \"contracts/CrowdTank.sol\":9034:9054  Projects[_projectID] */\n      dup2\n      mstore\n      0x20\n      add\n      swap1\n      dup2\n      mstore\n      0x20\n      add\n      0x00\n      keccak256\n        /* \"contracts/CrowdTank.sol\":9008:9054  project storage Project = Projects[_projectID] */\n      swap1\n      pop\n        /* \"contracts/CrowdTank.sol\":9065:9087  uint Raised_Percentage */\n      0x00\n        /* \"contracts/CrowdTank.sol\":9121:9128  Project */\n      dup2\n        /* \"contracts/CrowdTank.sol\":9121:9140  Project.fundingGoal */\n      0x03\n      add\n      sload\n        /* \"contracts/CrowdTank.sol\":9113:9116  100 */\n      0x64\n        /* \"contracts/CrowdTank.sol\":9092:9099  Project */\n      dup4\n        /* \"contracts/CrowdTank.sol\":9092:9112  Project.amountRaised */\n      0x05\n      add\n      sload\n        /* \"contracts/CrowdTank.sol\":9092:9116  Project.amountRaised*100 */\n      tag_159\n      swap2\n      swap1\n      tag_160\n      jump\t// in\n    tag_159:\n        /* \"contracts/CrowdTank.sol\":9090:9140  ( Project.amountRaised*100 ) / Project.fundingGoal */\n      tag_161\n      swap2\n      swap1\n      tag_162\n      jump\t// in\n    tag_161:\n        /* \"contracts/CrowdTank.sol\":9065:9140  uint Raised_Percentage = ( Project.amountRaised*100 ) / Project.fundingGoal */\n      swap1\n      pop\n        /* \"contracts/CrowdTank.sol\":9158:9175  Raised_Percentage */\n      dup1\n        /* \"contracts/CrowdTank.sol\":9151:9175  return Raised_Percentage */\n      swap3\n      pop\n      pop\n      pop\n        /* \"contracts/CrowdTank.sol\":8916:9183  function Funding_Raised_Percentage( uint _projectID ) public view  returns(uint) {... */\n      swap2\n      swap1\n      pop\n      jump\t// out\n        /* \"contracts/CrowdTank.sol\":5735:5841  function Get_Total_Raised_Funding() view public returns(uint) {... */\n    tag_63:\n        /* \"contracts/CrowdTank.sol\":5791:5795  uint */\n      0x00\n        /* \"contracts/CrowdTank.sol\":5815:5833  TotalRaisedFunding */\n      sload(0x01)\n        /* \"contracts/CrowdTank.sol\":5808:5833  return TotalRaisedFunding */\n      swap1\n      pop\n        /* \"contracts/CrowdTank.sol\":5735:5841  function Get_Total_Raised_Funding() view public returns(uint) {... */\n      swap1\n      jump\t// out\n        /* \"contracts/CrowdTank.sol\":1731:1795  mapping (uint => mapping (address => uint)) public Contributions */\n    tag_69:\n      mstore(0x20, 0x08)\n      dup2\n      0x00\n      mstore\n      mstore(0x20, keccak256(0x00, 0x40))\n      dup1\n      0x00\n      mstore\n      keccak256(0x00, 0x40)\n      0x00\n      swap2\n      pop\n      swap2\n      pop\n      pop\n      sload\n      dup2\n      jump\t// out\n        /* \"contracts/CrowdTank.sol\":8140:8413  function Extend_Deadline(uint _projectID , uint _deadline) external {... */\n    tag_74:\n        /* \"contracts/CrowdTank.sol\":8219:8242  project storage Project */\n      0x00\n        /* \"contracts/CrowdTank.sol\":8245:8253  Projects */\n      0x07\n        /* \"contracts/CrowdTank.sol\":8245:8265  Projects[_projectID] */\n      0x00\n        /* \"contracts/CrowdTank.sol\":8254:8264  _projectID */\n      dup5\n        /* \"contracts/CrowdTank.sol\":8245:8265  Projects[_projectID] */\n      dup2\n      mstore\n      0x20\n      add\n      swap1\n      dup2\n      mstore\n      0x20\n      add\n      0x00\n      keccak256\n        /* \"contracts/CrowdTank.sol\":8219:8265  project storage Project = Projects[_projectID] */\n      swap1\n      pop\n        /* \"contracts/CrowdTank.sol\":8303:8313  msg.sender */\n      caller\n        /* \"contracts/CrowdTank.sol\":8284:8313  Project.creator == msg.sender */\n      0xffffffffffffffffffffffffffffffffffffffff\n      and\n        /* \"contracts/CrowdTank.sol\":8284:8291  Project */\n      dup2\n        /* \"contracts/CrowdTank.sol\":8284:8299  Project.creator */\n      0x00\n      add\n      0x00\n      swap1\n      sload\n      swap1\n      0x0100\n      exp\n      swap1\n      div\n      0xffffffffffffffffffffffffffffffffffffffff\n      and\n        /* \"contracts/CrowdTank.sol\":8284:8313  Project.creator == msg.sender */\n      0xffffffffffffffffffffffffffffffffffffffff\n      and\n      eq\n        /* \"contracts/CrowdTank.sol\":8276:8365  require(Project.creator == msg.sender , \"Only Project creator can extend the deadline!!\") */\n      tag_165\n      jumpi\n      mload(0x40)\n      0x08c379a000000000000000000000000000000000000000000000000000000000\n      dup2\n      mstore\n      0x04\n      add\n      tag_166\n      swap1\n      tag_167\n      jump\t// in\n    tag_166:\n      mload(0x40)\n      dup1\n      swap2\n      sub\n      swap1\n      revert\n    tag_165:\n        /* \"contracts/CrowdTank.sol\":8396:8405  _deadline */\n      dup2\n        /* \"contracts/CrowdTank.sol\":8376:8383  Project */\n      dup2\n        /* \"contracts/CrowdTank.sol\":8376:8392  Project.deadline */\n      0x04\n      add\n      0x00\n        /* \"contracts/CrowdTank.sol\":8376:8405  Project.deadline += _deadline */\n      dup3\n      dup3\n      sload\n      tag_168\n      swap2\n      swap1\n      tag_169\n      jump\t// in\n    tag_168:\n      swap3\n      pop\n      pop\n      dup2\n      swap1\n      sstore\n      pop\n        /* \"contracts/CrowdTank.sol\":8208:8413  {... */\n      pop\n        /* \"contracts/CrowdTank.sol\":8140:8413  function Extend_Deadline(uint _projectID , uint _deadline) external {... */\n      pop\n      pop\n      jump\t// out\n        /* \"contracts/CrowdTank.sol\":3457:5696  function fundProject(uint _projectID) external payable nonReentrant {... */\n    tag_77:\n        /* \"@openzeppelin/contracts/utils/ReentrancyGuard.sol\":2500:2521  _nonReentrantBefore() */\n      tag_171\n        /* \"@openzeppelin/contracts/utils/ReentrancyGuard.sol\":2500:2519  _nonReentrantBefore */\n      tag_172\n        /* \"@openzeppelin/contracts/utils/ReentrancyGuard.sol\":2500:2521  _nonReentrantBefore() */\n      jump\t// in\n    tag_171:\n        /* \"contracts/CrowdTank.sol\":3540:3563  project storage Project */\n      0x00\n        /* \"contracts/CrowdTank.sol\":3566:3574  Projects */\n      0x07\n        /* \"contracts/CrowdTank.sol\":3566:3586  Projects[_projectID] */\n      0x00\n        /* \"contracts/CrowdTank.sol\":3575:3585  _projectID */\n      dup4\n        /* \"contracts/CrowdTank.sol\":3566:3586  Projects[_projectID] */\n      dup2\n      mstore\n      0x20\n      add\n      swap1\n      dup2\n      mstore\n      0x20\n      add\n      0x00\n      keccak256\n        /* \"contracts/CrowdTank.sol\":3540:3586  project storage Project = Projects[_projectID] */\n      swap1\n      pop\n        /* \"contracts/CrowdTank.sol\":3626:3633  Project */\n      dup1\n        /* \"contracts/CrowdTank.sol\":3626:3642  Project.deadline */\n      0x04\n      add\n      sload\n        /* \"contracts/CrowdTank.sol\":3609:3624  block.timestamp */\n      timestamp\n        /* \"contracts/CrowdTank.sol\":3609:3642  block.timestamp<=Project.deadline */\n      gt\n      iszero\n        /* \"contracts/CrowdTank.sol\":3601:3673  require(block.timestamp<=Project.deadline , \"Project deadline is over!\") */\n      tag_174\n      jumpi\n      mload(0x40)\n      0x08c379a000000000000000000000000000000000000000000000000000000000\n      dup2\n      mstore\n      0x04\n      add\n      tag_175\n      swap1\n      tag_176\n      jump\t// in\n    tag_175:\n      mload(0x40)\n      dup1\n      swap2\n      sub\n      swap1\n      revert\n    tag_174:\n        /* \"contracts/CrowdTank.sol\":3697:3704  Project */\n      dup1\n        /* \"contracts/CrowdTank.sol\":3697:3711  Project.funded */\n      0x06\n      add\n      0x00\n      swap1\n      sload\n      swap1\n      0x0100\n      exp\n      swap1\n      div\n      0xff\n      and\n        /* \"contracts/CrowdTank.sol\":3696:3711  !Project.funded */\n      iszero\n        /* \"contracts/CrowdTank.sol\":3688:3756  require(!Project.funded , \"Project Reached its Funding requirement\") */\n      tag_177\n      jumpi\n      mload(0x40)\n      0x08c379a000000000000000000000000000000000000000000000000000000000\n      dup2\n      mstore\n      0x04\n      add\n      tag_178\n      swap1\n      tag_179\n      jump\t// in\n    tag_178:\n      mload(0x40)\n      dup1\n      swap2\n      sub\n      swap1\n      revert\n    tag_177:\n        /* \"contracts/CrowdTank.sol\":3789:3790  0 */\n      0x00\n        /* \"contracts/CrowdTank.sol\":3779:3788  msg.value */\n      callvalue\n        /* \"contracts/CrowdTank.sol\":3779:3790  msg.value>0 */\n      gt\n        /* \"contracts/CrowdTank.sol\":3771:3840  require(msg.value>0 , \"send some ether to contribute in the project\") */\n      tag_180\n      jumpi\n      mload(0x40)\n      0x08c379a000000000000000000000000000000000000000000000000000000000\n      dup2\n      mstore\n      0x04\n      add\n      tag_181\n      swap1\n      tag_182\n      jump\t// in\n    tag_181:\n      mload(0x40)\n      dup1\n      swap2\n      sub\n      swap1\n      revert\n    tag_180:\n        /* \"contracts/CrowdTank.sol\":3876:3883  Project */\n      dup1\n        /* \"contracts/CrowdTank.sol\":3876:3895  Project.fundingGoal */\n      0x03\n      add\n      sload\n        /* \"contracts/CrowdTank.sol\":3863:3872  msg.value */\n      callvalue\n        /* \"contracts/CrowdTank.sol\":3863:3895  msg.value <= Project.fundingGoal */\n      gt\n      iszero\n        /* \"contracts/CrowdTank.sol\":3855:3936  require(msg.value <= Project.fundingGoal, \"Amount Contributed is more than Goal\") */\n      tag_183\n      jumpi\n      mload(0x40)\n      0x08c379a000000000000000000000000000000000000000000000000000000000\n      dup2\n      mstore\n      0x04\n      add\n      tag_184\n      swap1\n      tag_185\n      jump\t// in\n    tag_184:\n      mload(0x40)\n      dup1\n      swap2\n      sub\n      swap1\n      revert\n    tag_183:\n        /* \"contracts/CrowdTank.sol\":3951:3965  uint remaining */\n      0x00\n        /* \"contracts/CrowdTank.sol\":3990:3997  Project */\n      dup2\n        /* \"contracts/CrowdTank.sol\":3990:4010  Project.amountRaised */\n      0x05\n      add\n      sload\n        /* \"contracts/CrowdTank.sol\":3968:3975  Project */\n      dup3\n        /* \"contracts/CrowdTank.sol\":3968:3987  Project.fundingGoal */\n      0x03\n      add\n      sload\n        /* \"contracts/CrowdTank.sol\":3968:4010  Project.fundingGoal - Project.amountRaised */\n      tag_186\n      swap2\n      swap1\n      tag_124\n      jump\t// in\n    tag_186:\n        /* \"contracts/CrowdTank.sol\":3951:4010  uint remaining = Project.fundingGoal - Project.amountRaised */\n      swap1\n      pop\n        /* \"contracts/CrowdTank.sol\":4025:4044  uint amountToAccept */\n      0x00\n        /* \"contracts/CrowdTank.sol\":4059:4070  uint refund */\n      0x00\n        /* \"contracts/CrowdTank.sol\":4100:4109  remaining */\n      dup3\n        /* \"contracts/CrowdTank.sol\":4088:4097  msg.value */\n      callvalue\n        /* \"contracts/CrowdTank.sol\":4088:4109  msg.value > remaining */\n      gt\n        /* \"contracts/CrowdTank.sol\":4085:4317  if(msg.value > remaining) {... */\n      iszero\n      tag_187\n      jumpi\n        /* \"contracts/CrowdTank.sol\":4147:4156  remaining */\n      dup3\n        /* \"contracts/CrowdTank.sol\":4130:4156  amountToAccept = remaining */\n      swap2\n      pop\n        /* \"contracts/CrowdTank.sol\":4196:4205  remaining */\n      dup3\n        /* \"contracts/CrowdTank.sol\":4184:4193  msg.value */\n      callvalue\n        /* \"contracts/CrowdTank.sol\":4184:4205  msg.value - remaining */\n      tag_188\n      swap2\n      swap1\n      tag_124\n      jump\t// in\n    tag_188:\n        /* \"contracts/CrowdTank.sol\":4175:4205  refund = msg.value - remaining */\n      swap1\n      pop\n        /* \"contracts/CrowdTank.sol\":4085:4317  if(msg.value > remaining) {... */\n      jump(tag_189)\n    tag_187:\n        /* \"contracts/CrowdTank.sol\":4263:4272  msg.value */\n      callvalue\n        /* \"contracts/CrowdTank.sol\":4246:4272  amountToAccept = msg.value */\n      swap2\n      pop\n        /* \"contracts/CrowdTank.sol\":4300:4301  0 */\n      0x00\n        /* \"contracts/CrowdTank.sol\":4291:4301  refund = 0 */\n      swap1\n      pop\n        /* \"contracts/CrowdTank.sol\":4085:4317  if(msg.value > remaining) {... */\n    tag_189:\n        /* \"contracts/CrowdTank.sol\":4355:4369  amountToAccept */\n      dup2\n        /* \"contracts/CrowdTank.sol\":4331:4338  Project */\n      dup5\n        /* \"contracts/CrowdTank.sol\":4331:4351  Project.amountRaised */\n      0x05\n      add\n      0x00\n        /* \"contracts/CrowdTank.sol\":4331:4369  Project.amountRaised += amountToAccept */\n      dup3\n      dup3\n      sload\n      tag_190\n      swap2\n      swap1\n      tag_169\n      jump\t// in\n    tag_190:\n      swap3\n      pop\n      pop\n      dup2\n      swap1\n      sstore\n      pop\n        /* \"contracts/CrowdTank.sol\":4424:4438  amountToAccept */\n      dup2\n        /* \"contracts/CrowdTank.sol\":4384:4397  Contributions */\n      0x08\n        /* \"contracts/CrowdTank.sol\":4384:4409  Contributions[_projectID] */\n      0x00\n        /* \"contracts/CrowdTank.sol\":4398:4408  _projectID */\n      dup8\n        /* \"contracts/CrowdTank.sol\":4384:4409  Contributions[_projectID] */\n      dup2\n      mstore\n      0x20\n      add\n      swap1\n      dup2\n      mstore\n      0x20\n      add\n      0x00\n      keccak256\n        /* \"contracts/CrowdTank.sol\":4384:4421  Contributions[_projectID][msg.sender] */\n      0x00\n        /* \"contracts/CrowdTank.sol\":4410:4420  msg.sender */\n      caller\n        /* \"contracts/CrowdTank.sol\":4384:4421  Contributions[_projectID][msg.sender] */\n      0xffffffffffffffffffffffffffffffffffffffff\n      and\n      0xffffffffffffffffffffffffffffffffffffffff\n      and\n      dup2\n      mstore\n      0x20\n      add\n      swap1\n      dup2\n      mstore\n      0x20\n      add\n      0x00\n      keccak256\n        /* \"contracts/CrowdTank.sol\":4384:4438  Contributions[_projectID][msg.sender] = amountToAccept */\n      dup2\n      swap1\n      sstore\n      pop\n        /* \"contracts/CrowdTank.sol\":4506:4520  amountToAccept */\n      dup2\n        /* \"contracts/CrowdTank.sol\":4486:4504  TotalRaisedFunding */\n      0x01\n      0x00\n        /* \"contracts/CrowdTank.sol\":4486:4520  TotalRaisedFunding+=amountToAccept */\n      dup3\n      dup3\n      sload\n      tag_191\n      swap2\n      swap1\n      tag_169\n      jump\t// in\n    tag_191:\n      swap3\n      pop\n      pop\n      dup2\n      swap1\n      sstore\n      pop\n        /* \"contracts/CrowdTank.sol\":4548:4549  0 */\n      0x00\n        /* \"contracts/CrowdTank.sol\":4539:4545  refund */\n      dup2\n        /* \"contracts/CrowdTank.sol\":4539:4549  refund > 0 */\n      gt\n        /* \"contracts/CrowdTank.sol\":4535:4695  if (refund > 0) {... */\n      iszero\n      tag_192\n      jumpi\n        /* \"contracts/CrowdTank.sol\":4571:4580  bool sent */\n      0x00\n        /* \"contracts/CrowdTank.sol\":4594:4604  msg.sender */\n      caller\n        /* \"contracts/CrowdTank.sol\":4586:4610  payable(msg.sender).call */\n      0xffffffffffffffffffffffffffffffffffffffff\n      and\n        /* \"contracts/CrowdTank.sol\":4618:4624  refund */\n      dup3\n        /* \"contracts/CrowdTank.sol\":4586:4629  payable(msg.sender).call{value: refund}(\"\") */\n      mload(0x40)\n      tag_193\n      swap1\n      tag_194\n      jump\t// in\n    tag_193:\n      0x00\n      mload(0x40)\n      dup1\n      dup4\n      sub\n      dup2\n      dup6\n      dup8\n      gas\n      call\n      swap3\n      pop\n      pop\n      pop\n      returndatasize\n      dup1\n      0x00\n      dup2\n      eq\n      tag_197\n      jumpi\n      mload(0x40)\n      swap2\n      pop\n      and(add(returndatasize, 0x3f), not(0x1f))\n      dup3\n      add\n      0x40\n      mstore\n      returndatasize\n      dup3\n      mstore\n      returndatasize\n      0x00\n      0x20\n      dup5\n      add\n      returndatacopy\n      jump(tag_196)\n    tag_197:\n      0x60\n      swap2\n      pop\n    tag_196:\n      pop\n        /* \"contracts/CrowdTank.sol\":4570:4629  (bool sent, ) = payable(msg.sender).call{value: refund}(\"\") */\n      pop\n      swap1\n      pop\n        /* \"contracts/CrowdTank.sol\":4656:4660  sent */\n      dup1\n        /* \"contracts/CrowdTank.sol\":4648:4679  require(sent , \"Refund Failed\") */\n      tag_198\n      jumpi\n      mload(0x40)\n      0x08c379a000000000000000000000000000000000000000000000000000000000\n      dup2\n      mstore\n      0x04\n      add\n      tag_199\n      swap1\n      tag_200\n      jump\t// in\n    tag_199:\n      mload(0x40)\n      dup1\n      swap2\n      sub\n      swap1\n      revert\n    tag_198:\n        /* \"contracts/CrowdTank.sol\":4551:4695  {... */\n      pop\n        /* \"contracts/CrowdTank.sol\":4535:4695  if (refund > 0) {... */\n    tag_192:\n        /* \"contracts/CrowdTank.sol\":4758:4772  uint userTotal */\n      0x00\n        /* \"contracts/CrowdTank.sol\":4775:4788  Contributions */\n      0x08\n        /* \"contracts/CrowdTank.sol\":4775:4800  Contributions[_projectID] */\n      0x00\n        /* \"contracts/CrowdTank.sol\":4789:4799  _projectID */\n      dup8\n        /* \"contracts/CrowdTank.sol\":4775:4800  Contributions[_projectID] */\n      dup2\n      mstore\n      0x20\n      add\n      swap1\n      dup2\n      mstore\n      0x20\n      add\n      0x00\n      keccak256\n        /* \"contracts/CrowdTank.sol\":4775:4812  Contributions[_projectID][msg.sender] */\n      0x00\n        /* \"contracts/CrowdTank.sol\":4801:4811  msg.sender */\n      caller\n        /* \"contracts/CrowdTank.sol\":4775:4812  Contributions[_projectID][msg.sender] */\n      0xffffffffffffffffffffffffffffffffffffffff\n      and\n      0xffffffffffffffffffffffffffffffffffffffff\n      and\n      dup2\n      mstore\n      0x20\n      add\n      swap1\n      dup2\n      mstore\n      0x20\n      add\n      0x00\n      keccak256\n      sload\n        /* \"contracts/CrowdTank.sol\":4758:4812  uint userTotal = Contributions[_projectID][msg.sender] */\n      swap1\n      pop\n        /* \"contracts/CrowdTank.sol\":4843:4850  Project */\n      dup5\n        /* \"contracts/CrowdTank.sol\":4843:4871  Project.highest_contribution */\n      0x07\n      add\n      sload\n        /* \"contracts/CrowdTank.sol\":4831:4840  userTotal */\n      dup2\n        /* \"contracts/CrowdTank.sol\":4831:4871  userTotal > Project.highest_contribution */\n      gt\n        /* \"contracts/CrowdTank.sol\":4827:5002  if (userTotal > Project.highest_contribution) {... */\n      iszero\n      tag_201\n      jumpi\n        /* \"contracts/CrowdTank.sol\":4923:4932  userTotal */\n      dup1\n        /* \"contracts/CrowdTank.sol\":4892:4899  Project */\n      dup6\n        /* \"contracts/CrowdTank.sol\":4892:4920  Project.highest_contribution */\n      0x07\n      add\n        /* \"contracts/CrowdTank.sol\":4892:4932  Project.highest_contribution = userTotal */\n      dup2\n      swap1\n      sstore\n      pop\n        /* \"contracts/CrowdTank.sol\":4976:4986  msg.sender */\n      caller\n        /* \"contracts/CrowdTank.sol\":4951:4958  Project */\n      dup6\n        /* \"contracts/CrowdTank.sol\":4951:4973  Project.highest_Funder */\n      0x06\n      add\n      0x01\n        /* \"contracts/CrowdTank.sol\":4951:4986  Project.highest_Funder = msg.sender */\n      0x0100\n      exp\n      dup2\n      sload\n      dup2\n      0xffffffffffffffffffffffffffffffffffffffff\n      mul\n      not\n      and\n      swap1\n      dup4\n      0xffffffffffffffffffffffffffffffffffffffff\n      and\n      mul\n      or\n      swap1\n      sstore\n      pop\n        /* \"contracts/CrowdTank.sol\":4827:5002  if (userTotal > Project.highest_contribution) {... */\n    tag_201:\n        /* \"contracts/CrowdTank.sol\":5030:5040  _projectID */\n      dup6\n        /* \"contracts/CrowdTank.sol\":5023:5078  funded(_projectID, msg.sender, amountToAccept , refund) */\n      0x7dd983e9d08b449d571f3583275e98423857f3ffbe9ef56f927eb02b1c8ab599\n        /* \"contracts/CrowdTank.sol\":5042:5052  msg.sender */\n      caller\n        /* \"contracts/CrowdTank.sol\":5054:5068  amountToAccept */\n      dup6\n        /* \"contracts/CrowdTank.sol\":5071:5077  refund */\n      dup6\n        /* \"contracts/CrowdTank.sol\":5023:5078  funded(_projectID, msg.sender, amountToAccept , refund) */\n      mload(0x40)\n      tag_202\n      swap4\n      swap3\n      swap2\n      swap1\n      tag_203\n      jump\t// in\n    tag_202:\n      mload(0x40)\n      dup1\n      swap2\n      sub\n      swap1\n      log2\n        /* \"contracts/CrowdTank.sol\":5121:5128  Project */\n      dup5\n        /* \"contracts/CrowdTank.sol\":5121:5140  Project.fundingGoal */\n      0x03\n      add\n      sload\n        /* \"contracts/CrowdTank.sol\":5099:5106  Project */\n      dup6\n        /* \"contracts/CrowdTank.sol\":5099:5119  Project.amountRaised */\n      0x05\n      add\n      sload\n        /* \"contracts/CrowdTank.sol\":5099:5140  Project.amountRaised>=Project.fundingGoal */\n      lt\n        /* \"contracts/CrowdTank.sol\":5095:5198  if (Project.amountRaised>=Project.fundingGoal) {... */\n      tag_204\n      jumpi\n        /* \"contracts/CrowdTank.sol\":5178:5182  true */\n      0x01\n        /* \"contracts/CrowdTank.sol\":5161:5168  Project */\n      dup6\n        /* \"contracts/CrowdTank.sol\":5161:5175  Project.funded */\n      0x06\n      add\n      0x00\n        /* \"contracts/CrowdTank.sol\":5161:5182  Project.funded = true */\n      0x0100\n      exp\n      dup2\n      sload\n      dup2\n      0xff\n      mul\n      not\n      and\n      swap1\n      dup4\n      iszero\n      iszero\n      mul\n      or\n      swap1\n      sstore\n      pop\n        /* \"contracts/CrowdTank.sol\":5095:5198  if (Project.amountRaised>=Project.fundingGoal) {... */\n    tag_204:\n        /* \"contracts/CrowdTank.sol\":5267:5274  Project */\n      dup5\n        /* \"contracts/CrowdTank.sol\":5267:5281  Project.funded */\n      0x06\n      add\n      0x00\n      swap1\n      sload\n      swap1\n      0x0100\n      exp\n      swap1\n      div\n      0xff\n      and\n        /* \"contracts/CrowdTank.sol\":5266:5281  !Project.funded */\n      iszero\n        /* \"contracts/CrowdTank.sol\":5265:5323  (!Project.funded) && (block.timestamp >= Project.deadline) */\n      dup1\n      iszero\n      tag_205\n      jumpi\n      pop\n        /* \"contracts/CrowdTank.sol\":5306:5313  Project */\n      dup5\n        /* \"contracts/CrowdTank.sol\":5306:5322  Project.deadline */\n      0x04\n      add\n      sload\n        /* \"contracts/CrowdTank.sol\":5287:5302  block.timestamp */\n      timestamp\n        /* \"contracts/CrowdTank.sol\":5287:5322  block.timestamp >= Project.deadline */\n      lt\n      iszero\n        /* \"contracts/CrowdTank.sol\":5265:5323  (!Project.funded) && (block.timestamp >= Project.deadline) */\n    tag_205:\n        /* \"contracts/CrowdTank.sol\":5261:5685  if ((!Project.funded) && (block.timestamp >= Project.deadline)) {... */\n      iszero\n      tag_206\n      jumpi\n        /* \"contracts/CrowdTank.sol\":5361:5365  true */\n      0x01\n        /* \"contracts/CrowdTank.sol\":5344:5351  Project */\n      dup6\n        /* \"contracts/CrowdTank.sol\":5344:5358  Project.funded */\n      0x06\n      add\n      0x00\n        /* \"contracts/CrowdTank.sol\":5344:5365  Project.funded = true */\n      0x0100\n      exp\n      dup2\n      sload\n      dup2\n      0xff\n      mul\n      not\n      and\n      swap1\n      dup4\n      iszero\n      iszero\n      mul\n      or\n      swap1\n      sstore\n      pop\n        /* \"contracts/CrowdTank.sol\":5384:5410  Successful_Funded_Projects */\n      0x04\n      0x00\n        /* \"contracts/CrowdTank.sol\":5384:5412  Successful_Funded_Projects++ */\n      dup2\n      sload\n      dup1\n      swap3\n      swap2\n      swap1\n      tag_207\n      swap1\n      tag_208\n      jump\t// in\n    tag_207:\n      swap2\n      swap1\n      pop\n      sstore\n      pop\n        /* \"contracts/CrowdTank.sol\":5261:5685  if ((!Project.funded) && (block.timestamp >= Project.deadline)) {... */\n      jump(tag_209)\n    tag_206:\n        /* \"contracts/CrowdTank.sol\":5455:5460  false */\n      0x00\n        /* \"contracts/CrowdTank.sol\":5438:5445  Project */\n      dup6\n        /* \"contracts/CrowdTank.sol\":5438:5452  Project.funded */\n      0x06\n      add\n      0x00\n        /* \"contracts/CrowdTank.sol\":5438:5460  Project.funded = false */\n      0x0100\n      exp\n      dup2\n      sload\n      dup2\n      0xff\n      mul\n      not\n      and\n      swap1\n      dup4\n      iszero\n      iszero\n      mul\n      or\n      swap1\n      sstore\n        /* \"contracts/CrowdTank.sol\":5434:5685  if (Project.funded = false) {... */\n      iszero\n      tag_210\n      jumpi\n        /* \"contracts/CrowdTank.sol\":5508:5515  Project */\n      dup5\n        /* \"contracts/CrowdTank.sol\":5508:5524  Project.deadline */\n      0x04\n      add\n      sload\n        /* \"contracts/CrowdTank.sol\":5489:5504  block.timestamp */\n      timestamp\n        /* \"contracts/CrowdTank.sol\":5489:5524  block.timestamp >= Project.deadline */\n      lt\n      iszero\n        /* \"contracts/CrowdTank.sol\":5481:5557  require(block.timestamp >= Project.deadline , \"Deadline is not reached yet\") */\n      tag_211\n      jumpi\n      mload(0x40)\n      0x08c379a000000000000000000000000000000000000000000000000000000000\n      dup2\n      mstore\n      0x04\n      add\n      tag_212\n      swap1\n      tag_213\n      jump\t// in\n    tag_212:\n      mload(0x40)\n      dup1\n      swap2\n      sub\n      swap1\n      revert\n    tag_211:\n        /* \"contracts/CrowdTank.sol\":5585:5592  Project */\n      dup5\n        /* \"contracts/CrowdTank.sol\":5585:5599  Project.funded */\n      0x06\n      add\n      0x00\n      swap1\n      sload\n      swap1\n      0x0100\n      exp\n      swap1\n      div\n      0xff\n      and\n        /* \"contracts/CrowdTank.sol\":5584:5599  !Project.funded */\n      iszero\n        /* \"contracts/CrowdTank.sol\":5576:5626  require(!Project.funded, \"Project already funded\") */\n      tag_214\n      jumpi\n      mload(0x40)\n      0x08c379a000000000000000000000000000000000000000000000000000000000\n      dup2\n      mstore\n      0x04\n      add\n      tag_215\n      swap1\n      tag_216\n      jump\t// in\n    tag_215:\n      mload(0x40)\n      dup1\n      swap2\n      sub\n      swap1\n      revert\n    tag_214:\n        /* \"contracts/CrowdTank.sol\":5645:5667  Failed_Funded_Projects */\n      0x05\n      0x00\n        /* \"contracts/CrowdTank.sol\":5645:5669  Failed_Funded_Projects++ */\n      dup2\n      sload\n      dup1\n      swap3\n      swap2\n      swap1\n      tag_217\n      swap1\n      tag_208\n      jump\t// in\n    tag_217:\n      swap2\n      swap1\n      pop\n      sstore\n      pop\n        /* \"contracts/CrowdTank.sol\":5434:5685  if (Project.funded = false) {... */\n    tag_210:\n        /* \"contracts/CrowdTank.sol\":5261:5685  if ((!Project.funded) && (block.timestamp >= Project.deadline)) {... */\n    tag_209:\n        /* \"contracts/CrowdTank.sol\":3525:5696  {... */\n      pop\n      pop\n      pop\n      pop\n      pop\n        /* \"@openzeppelin/contracts/utils/ReentrancyGuard.sol\":2542:2562  _nonReentrantAfter() */\n      tag_218\n        /* \"@openzeppelin/contracts/utils/ReentrancyGuard.sol\":2542:2560  _nonReentrantAfter */\n      tag_219\n        /* \"@openzeppelin/contracts/utils/ReentrancyGuard.sol\":2542:2562  _nonReentrantAfter() */\n      jump\t// in\n    tag_218:\n        /* \"contracts/CrowdTank.sol\":3457:5696  function fundProject(uint _projectID) external payable nonReentrant {... */\n      pop\n      jump\t// out\n        /* \"contracts/CrowdTank.sol\":6576:7177  function creatorWithdraw(uint _projectID) external payable {... */\n    tag_80:\n        /* \"contracts/CrowdTank.sol\":6646:6669  project storage Project */\n      0x00\n        /* \"contracts/CrowdTank.sol\":6672:6680  Projects */\n      0x07\n        /* \"contracts/CrowdTank.sol\":6672:6692  Projects[_projectID] */\n      0x00\n        /* \"contracts/CrowdTank.sol\":6681:6691  _projectID */\n      dup4\n        /* \"contracts/CrowdTank.sol\":6672:6692  Projects[_projectID] */\n      dup2\n      mstore\n      0x20\n      add\n      swap1\n      dup2\n      mstore\n      0x20\n      add\n      0x00\n      keccak256\n        /* \"contracts/CrowdTank.sol\":6646:6692  project storage Project = Projects[_projectID] */\n      swap1\n      pop\n        /* \"contracts/CrowdTank.sol\":6703:6720  uint totalfunding */\n      0x00\n        /* \"contracts/CrowdTank.sol\":6723:6730  Project */\n      dup2\n        /* \"contracts/CrowdTank.sol\":6723:6743  Project.amountRaised */\n      0x05\n      add\n      sload\n        /* \"contracts/CrowdTank.sol\":6703:6743  uint totalfunding = Project.amountRaised */\n      swap1\n      pop\n        /* \"contracts/CrowdTank.sol\":6762:6769  Project */\n      dup2\n        /* \"contracts/CrowdTank.sol\":6762:6776  Project.funded */\n      0x06\n      add\n      0x00\n      swap1\n      sload\n      swap1\n      0x0100\n      exp\n      swap1\n      div\n      0xff\n      and\n        /* \"contracts/CrowdTank.sol\":6754:6833  require(Project.funded , \"funding goal has not reached , admin can't withdraw\") */\n      tag_221\n      jumpi\n      mload(0x40)\n      0x08c379a000000000000000000000000000000000000000000000000000000000\n      dup2\n      mstore\n      0x04\n      add\n      tag_222\n      swap1\n      tag_223\n      jump\t// in\n    tag_222:\n      mload(0x40)\n      dup1\n      swap2\n      sub\n      swap1\n      revert\n    tag_221:\n        /* \"contracts/CrowdTank.sol\":6871:6881  msg.sender */\n      caller\n        /* \"contracts/CrowdTank.sol\":6852:6881  Project.creator == msg.sender */\n      0xffffffffffffffffffffffffffffffffffffffff\n      and\n        /* \"contracts/CrowdTank.sol\":6852:6859  Project */\n      dup3\n        /* \"contracts/CrowdTank.sol\":6852:6867  Project.creator */\n      0x00\n      add\n      0x00\n      swap1\n      sload\n      swap1\n      0x0100\n      exp\n      swap1\n      div\n      0xffffffffffffffffffffffffffffffffffffffff\n      and\n        /* \"contracts/CrowdTank.sol\":6852:6881  Project.creator == msg.sender */\n      0xffffffffffffffffffffffffffffffffffffffff\n      and\n      eq\n        /* \"contracts/CrowdTank.sol\":6844:6910  require(Project.creator == msg.sender , \"only admin can withdraw\") */\n      tag_224\n      jumpi\n      mload(0x40)\n      0x08c379a000000000000000000000000000000000000000000000000000000000\n      dup2\n      mstore\n      0x04\n      add\n      tag_225\n      swap1\n      tag_226\n      jump\t// in\n    tag_225:\n      mload(0x40)\n      dup1\n      swap2\n      sub\n      swap1\n      revert\n    tag_224:\n        /* \"contracts/CrowdTank.sol\":6947:6962  block.timestamp */\n      timestamp\n        /* \"contracts/CrowdTank.sol\":6929:6936  Project */\n      dup3\n        /* \"contracts/CrowdTank.sol\":6929:6945  Project.deadline */\n      0x04\n      add\n      sload\n        /* \"contracts/CrowdTank.sol\":6929:6962  Project.deadline<=block.timestamp */\n      gt\n      iszero\n        /* \"contracts/CrowdTank.sol\":6921:7015  require(Project.deadline<=block.timestamp , \"deadline has not reached , admin can't withdraw\") */\n      tag_227\n      jumpi\n      mload(0x40)\n      0x08c379a000000000000000000000000000000000000000000000000000000000\n      dup2\n      mstore\n      0x04\n      add\n      tag_228\n      swap1\n      tag_229\n      jump\t// in\n    tag_228:\n      mload(0x40)\n      dup1\n      swap2\n      sub\n      swap1\n      revert\n    tag_227:\n        /* \"contracts/CrowdTank.sol\":7034:7044  msg.sender */\n      caller\n        /* \"contracts/CrowdTank.sol\":7026:7054  payable(msg.sender).transfer */\n      0xffffffffffffffffffffffffffffffffffffffff\n      and\n        /* \"contracts/CrowdTank.sol\":7026:7068  payable(msg.sender).transfer(totalfunding) */\n      0x08fc\n        /* \"contracts/CrowdTank.sol\":7055:7067  totalfunding */\n      dup3\n        /* \"contracts/CrowdTank.sol\":7026:7068  payable(msg.sender).transfer(totalfunding) */\n      swap1\n      dup2\n      iszero\n      mul\n      swap1\n      mload(0x40)\n      0x00\n      mload(0x40)\n      dup1\n      dup4\n      sub\n      dup2\n      dup6\n      dup9\n      dup9\n      call\n      swap4\n      pop\n      pop\n      pop\n      pop\n      iszero\n      dup1\n      iszero\n      tag_231\n      jumpi\n      returndatacopy(0x00, 0x00, returndatasize)\n      revert(0x00, returndatasize)\n    tag_231:\n      pop\n        /* \"contracts/CrowdTank.sol\":7135:7145  _projectID */\n      dup3\n        /* \"contracts/CrowdTank.sol\":7118:7169  creatorWithdrawn(_projectID, msg.sender, msg.value) */\n      0xcae030e1a3c6b0011e7009bd65734e2e1e330528f6983497631fabd47fa7a281\n        /* \"contracts/CrowdTank.sol\":7147:7157  msg.sender */\n      caller\n        /* \"contracts/CrowdTank.sol\":7159:7168  msg.value */\n      callvalue\n        /* \"contracts/CrowdTank.sol\":7118:7169  creatorWithdrawn(_projectID, msg.sender, msg.value) */\n      mload(0x40)\n      tag_232\n      swap3\n      swap2\n      swap1\n      tag_157\n      jump\t// in\n    tag_232:\n      mload(0x40)\n      dup1\n      swap2\n      sub\n      swap1\n      log2\n        /* \"contracts/CrowdTank.sol\":6635:7177  {... */\n      pop\n      pop\n        /* \"contracts/CrowdTank.sol\":6576:7177  function creatorWithdraw(uint _projectID) external payable {... */\n      pop\n      jump\t// out\n        /* \"contracts/CrowdTank.sol\":1106:1267  function Remove_Creators( address _creator ) external OnlyAdmin {... */\n    tag_85:\n        /* \"contracts/CrowdTank.sol\":788:798  msg.sender */\n      caller\n        /* \"contracts/CrowdTank.sol\":779:798  admin == msg.sender */\n      0xffffffffffffffffffffffffffffffffffffffff\n      and\n        /* \"contracts/CrowdTank.sol\":779:784  admin */\n      0x03\n      0x00\n      swap1\n      sload\n      swap1\n      0x0100\n      exp\n      swap1\n      div\n      0xffffffffffffffffffffffffffffffffffffffff\n      and\n        /* \"contracts/CrowdTank.sol\":779:798  admin == msg.sender */\n      0xffffffffffffffffffffffffffffffffffffffff\n      and\n      eq\n        /* \"contracts/CrowdTank.sol\":771:825  require(admin == msg.sender , \"Only Admin can access\") */\n      tag_234\n      jumpi\n      mload(0x40)\n      0x08c379a000000000000000000000000000000000000000000000000000000000\n      dup2\n      mstore\n      0x04\n      add\n      tag_235\n      swap1\n      tag_236\n      jump\t// in\n    tag_235:\n      mload(0x40)\n      dup1\n      swap2\n      sub\n      swap1\n      revert\n    tag_234:\n        /* \"contracts/CrowdTank.sol\":1212:1217  false */\n      0x00\n        /* \"contracts/CrowdTank.sol\":1181:1199  AuthorizedCreators */\n      0x06\n        /* \"contracts/CrowdTank.sol\":1181:1209  AuthorizedCreators[_creator] */\n      0x00\n        /* \"contracts/CrowdTank.sol\":1200:1208  _creator */\n      dup4\n        /* \"contracts/CrowdTank.sol\":1181:1209  AuthorizedCreators[_creator] */\n      0xffffffffffffffffffffffffffffffffffffffff\n      and\n      0xffffffffffffffffffffffffffffffffffffffff\n      and\n      dup2\n      mstore\n      0x20\n      add\n      swap1\n      dup2\n      mstore\n      0x20\n      add\n      0x00\n      keccak256\n      0x00\n        /* \"contracts/CrowdTank.sol\":1181:1217  AuthorizedCreators[_creator] = false */\n      0x0100\n      exp\n      dup2\n      sload\n      dup2\n      0xff\n      mul\n      not\n      and\n      swap1\n      dup4\n      iszero\n      iszero\n      mul\n      or\n      swap1\n      sstore\n      pop\n        /* \"contracts/CrowdTank.sol\":1250:1258  _creator */\n      dup1\n        /* \"contracts/CrowdTank.sol\":1235:1259  removedCreator(_creator) */\n      0xffffffffffffffffffffffffffffffffffffffff\n      and\n      0x0925d0e195cc39b7ade3fd58fdf494022e37bfd6242c2be09c0b2863977c1879\n      mload(0x40)\n      mload(0x40)\n      dup1\n      swap2\n      sub\n      swap1\n      log2\n        /* \"contracts/CrowdTank.sol\":1106:1267  function Remove_Creators( address _creator ) external OnlyAdmin {... */\n      pop\n      jump\t// out\n        /* \"contracts/CrowdTank.sol\":879:930  mapping (address => bool) public AuthorizedCreators */\n    tag_89:\n      mstore(0x20, 0x06)\n      dup1\n      0x00\n      mstore\n      keccak256(0x00, 0x40)\n      0x00\n      swap2\n      pop\n      sload\n      swap1\n      0x0100\n      exp\n      swap1\n      div\n      0xff\n      and\n      dup2\n      jump\t// out\n        /* \"contracts/CrowdTank.sol\":394:419  uint public TotalProjects */\n    tag_94:\n      sload(0x02)\n      dup2\n      jump\t// out\n        /* \"contracts/CrowdTank.sol\":9232:10186  function userEarlyWithdraw( uint _projectID , uint withdrawn_amount) external payable {... */\n    tag_98:\n        /* \"contracts/CrowdTank.sol\":9329:9352  project storage Project */\n      0x00\n        /* \"contracts/CrowdTank.sol\":9355:9363  Projects */\n      0x07\n        /* \"contracts/CrowdTank.sol\":9355:9375  Projects[_projectID] */\n      0x00\n        /* \"contracts/CrowdTank.sol\":9364:9374  _projectID */\n      dup5\n        /* \"contracts/CrowdTank.sol\":9355:9375  Projects[_projectID] */\n      dup2\n      mstore\n      0x20\n      add\n      swap1\n      dup2\n      mstore\n      0x20\n      add\n      0x00\n      keccak256\n        /* \"contracts/CrowdTank.sol\":9329:9375  project storage Project = Projects[_projectID] */\n      swap1\n      pop\n        /* \"contracts/CrowdTank.sol\":9412:9419  Project */\n      dup1\n        /* \"contracts/CrowdTank.sol\":9412:9428  Project.deadline */\n      0x04\n      add\n      sload\n        /* \"contracts/CrowdTank.sol\":9394:9409  block.timestamp */\n      timestamp\n        /* \"contracts/CrowdTank.sol\":9394:9428  block.timestamp < Project.deadline */\n      lt\n        /* \"contracts/CrowdTank.sol\":9386:9463  require(block.timestamp < Project.deadline, \"Cannot withdraw after deadline\") */\n      tag_239\n      jumpi\n      mload(0x40)\n      0x08c379a000000000000000000000000000000000000000000000000000000000\n      dup2\n      mstore\n      0x04\n      add\n      tag_240\n      swap1\n      tag_241\n      jump\t// in\n    tag_240:\n      mload(0x40)\n      dup1\n      swap2\n      sub\n      swap1\n      revert\n    tag_239:\n        /* \"contracts/CrowdTank.sol\":9474:9497  uint contributed_amount */\n      0x00\n        /* \"contracts/CrowdTank.sol\":9500:9513  Contributions */\n      0x08\n        /* \"contracts/CrowdTank.sol\":9500:9525  Contributions[_projectID] */\n      0x00\n        /* \"contracts/CrowdTank.sol\":9514:9524  _projectID */\n      dup6\n        /* \"contracts/CrowdTank.sol\":9500:9525  Contributions[_projectID] */\n      dup2\n      mstore\n      0x20\n      add\n      swap1\n      dup2\n      mstore\n      0x20\n      add\n      0x00\n      keccak256\n        /* \"contracts/CrowdTank.sol\":9500:9537  Contributions[_projectID][msg.sender] */\n      0x00\n        /* \"contracts/CrowdTank.sol\":9526:9536  msg.sender */\n      caller\n        /* \"contracts/CrowdTank.sol\":9500:9537  Contributions[_projectID][msg.sender] */\n      0xffffffffffffffffffffffffffffffffffffffff\n      and\n      0xffffffffffffffffffffffffffffffffffffffff\n      and\n      dup2\n      mstore\n      0x20\n      add\n      swap1\n      dup2\n      mstore\n      0x20\n      add\n      0x00\n      keccak256\n      sload\n        /* \"contracts/CrowdTank.sol\":9474:9537  uint contributed_amount = Contributions[_projectID][msg.sender] */\n      swap1\n      pop\n        /* \"contracts/CrowdTank.sol\":9577:9578  0 */\n      0x00\n        /* \"contracts/CrowdTank.sol\":9556:9574  contributed_amount */\n      dup2\n        /* \"contracts/CrowdTank.sol\":9556:9578  contributed_amount > 0 */\n      gt\n        /* \"contracts/CrowdTank.sol\":9548:9606  require(contributed_amount > 0 , \"No Funds to withdraw!!\") */\n      tag_242\n      jumpi\n      mload(0x40)\n      0x08c379a000000000000000000000000000000000000000000000000000000000\n      dup2\n      mstore\n      0x04\n      add\n      tag_243\n      swap1\n      tag_244\n      jump\t// in\n    tag_243:\n      mload(0x40)\n      dup1\n      swap2\n      sub\n      swap1\n      revert\n    tag_242:\n        /* \"contracts/CrowdTank.sol\":9645:9663  contributed_amount */\n      dup1\n        /* \"contracts/CrowdTank.sol\":9625:9641  withdrawn_amount */\n      dup4\n        /* \"contracts/CrowdTank.sol\":9625:9663  withdrawn_amount <= contributed_amount */\n      gt\n      iszero\n        /* \"contracts/CrowdTank.sol\":9617:9710  require(withdrawn_amount <= contributed_amount , \"Withdraw amount exceeds your contribution\") */\n      tag_245\n      jumpi\n      mload(0x40)\n      0x08c379a000000000000000000000000000000000000000000000000000000000\n      dup2\n      mstore\n      0x04\n      add\n      tag_246\n      swap1\n      tag_247\n      jump\t// in\n    tag_246:\n      mload(0x40)\n      dup1\n      swap2\n      sub\n      swap1\n      revert\n    tag_245:\n        /* \"contracts/CrowdTank.sol\":9803:9819  withdrawn_amount */\n      dup3\n        /* \"contracts/CrowdTank.sol\":9779:9786  Project */\n      dup3\n        /* \"contracts/CrowdTank.sol\":9779:9799  Project.amountRaised */\n      0x05\n      add\n      0x00\n        /* \"contracts/CrowdTank.sol\":9779:9819  Project.amountRaised -= withdrawn_amount */\n      dup3\n      dup3\n      sload\n      tag_248\n      swap2\n      swap1\n      tag_124\n      jump\t// in\n    tag_248:\n      swap3\n      pop\n      pop\n      dup2\n      swap1\n      sstore\n      pop\n        /* \"contracts/CrowdTank.sol\":9871:9887  withdrawn_amount */\n      dup3\n        /* \"contracts/CrowdTank.sol\":9830:9843  Contributions */\n      0x08\n        /* \"contracts/CrowdTank.sol\":9830:9855  Contributions[_projectID] */\n      0x00\n        /* \"contracts/CrowdTank.sol\":9844:9854  _projectID */\n      dup7\n        /* \"contracts/CrowdTank.sol\":9830:9855  Contributions[_projectID] */\n      dup2\n      mstore\n      0x20\n      add\n      swap1\n      dup2\n      mstore\n      0x20\n      add\n      0x00\n      keccak256\n        /* \"contracts/CrowdTank.sol\":9830:9867  Contributions[_projectID][msg.sender] */\n      0x00\n        /* \"contracts/CrowdTank.sol\":9856:9866  msg.sender */\n      caller\n        /* \"contracts/CrowdTank.sol\":9830:9867  Contributions[_projectID][msg.sender] */\n      0xffffffffffffffffffffffffffffffffffffffff\n      and\n      0xffffffffffffffffffffffffffffffffffffffff\n      and\n      dup2\n      mstore\n      0x20\n      add\n      swap1\n      dup2\n      mstore\n      0x20\n      add\n      0x00\n      keccak256\n      0x00\n        /* \"contracts/CrowdTank.sol\":9830:9887  Contributions[_projectID][msg.sender] -= withdrawn_amount */\n      dup3\n      dup3\n      sload\n      tag_249\n      swap2\n      swap1\n      tag_124\n      jump\t// in\n    tag_249:\n      swap3\n      pop\n      pop\n      dup2\n      swap1\n      sstore\n      pop\n        /* \"contracts/CrowdTank.sol\":9920:9936  withdrawn_amount */\n      dup3\n        /* \"contracts/CrowdTank.sol\":9898:9916  TotalRaisedFunding */\n      0x01\n      0x00\n        /* \"contracts/CrowdTank.sol\":9898:9936  TotalRaisedFunding -= withdrawn_amount */\n      dup3\n      dup3\n      sload\n      tag_250\n      swap2\n      swap1\n      tag_124\n      jump\t// in\n    tag_250:\n      swap3\n      pop\n      pop\n      dup2\n      swap1\n      sstore\n      pop\n        /* \"contracts/CrowdTank.sol\":9984:9993  bool sent */\n      0x00\n        /* \"contracts/CrowdTank.sol\":10007:10017  msg.sender */\n      caller\n        /* \"contracts/CrowdTank.sol\":9999:10023  payable(msg.sender).call */\n      0xffffffffffffffffffffffffffffffffffffffff\n      and\n        /* \"contracts/CrowdTank.sol\":10032:10048  withdrawn_amount */\n      dup5\n        /* \"contracts/CrowdTank.sol\":9999:10053  payable(msg.sender).call{value : withdrawn_amount}(\"\") */\n      mload(0x40)\n      tag_251\n      swap1\n      tag_194\n      jump\t// in\n    tag_251:\n      0x00\n      mload(0x40)\n      dup1\n      dup4\n      sub\n      dup2\n      dup6\n      dup8\n      gas\n      call\n      swap3\n      pop\n      pop\n      pop\n      returndatasize\n      dup1\n      0x00\n      dup2\n      eq\n      tag_254\n      jumpi\n      mload(0x40)\n      swap2\n      pop\n      and(add(returndatasize, 0x3f), not(0x1f))\n      dup3\n      add\n      0x40\n      mstore\n      returndatasize\n      dup3\n      mstore\n      returndatasize\n      0x00\n      0x20\n      dup5\n      add\n      returndatacopy\n      jump(tag_253)\n    tag_254:\n      0x60\n      swap2\n      pop\n    tag_253:\n      pop\n        /* \"contracts/CrowdTank.sol\":9983:10053  (bool sent, ) = payable(msg.sender).call{value : withdrawn_amount}(\"\") */\n      pop\n      swap1\n      pop\n        /* \"contracts/CrowdTank.sol\":10072:10076  sent */\n      dup1\n        /* \"contracts/CrowdTank.sol\":10064:10101  require(sent , \"withdraw failed!!!!\") */\n      tag_255\n      jumpi\n      mload(0x40)\n      0x08c379a000000000000000000000000000000000000000000000000000000000\n      dup2\n      mstore\n      0x04\n      add\n      tag_256\n      swap1\n      tag_257\n      jump\t// in\n    tag_256:\n      mload(0x40)\n      dup1\n      swap2\n      sub\n      swap1\n      revert\n    tag_255:\n        /* \"contracts/CrowdTank.sol\":10149:10159  _projectID */\n      dup5\n        /* \"contracts/CrowdTank.sol\":10137:10147  msg.sender */\n      caller\n        /* \"contracts/CrowdTank.sol\":10119:10178  UserEarlyWithdraw(msg.sender, _projectID, withdrawn_amount) */\n      0xffffffffffffffffffffffffffffffffffffffff\n      and\n      0xb37480540ffb97ff520a59b38ea1a83aefbfd3d2a956d958a00214b8b6551f28\n        /* \"contracts/CrowdTank.sol\":10161:10177  withdrawn_amount */\n      dup7\n        /* \"contracts/CrowdTank.sol\":10119:10178  UserEarlyWithdraw(msg.sender, _projectID, withdrawn_amount) */\n      mload(0x40)\n      tag_258\n      swap2\n      swap1\n      tag_47\n      jump\t// in\n    tag_258:\n      mload(0x40)\n      dup1\n      swap2\n      sub\n      swap1\n      log3\n        /* \"contracts/CrowdTank.sol\":9318:10186  {... */\n      pop\n      pop\n      pop\n        /* \"contracts/CrowdTank.sol\":9232:10186  function userEarlyWithdraw( uint _projectID , uint withdrawn_amount) external payable {... */\n      pop\n      pop\n      jump\t// out\n        /* \"contracts/CrowdTank.sol\":497:535  uint public Successful_Funded_Projects */\n    tag_101:\n      sload(0x04)\n      dup2\n      jump\t// out\n        /* \"contracts/CrowdTank.sol\":2530:3396  function createProject(string memory _name , string memory _description , uint _fundingGoal , uint _durationSeconds , uint _id) external {... */\n    tag_107:\n        /* \"contracts/CrowdTank.sol\":2687:2695  isIdUsed */\n      0x09\n        /* \"contracts/CrowdTank.sol\":2687:2700  isIdUsed[_id] */\n      0x00\n        /* \"contracts/CrowdTank.sol\":2696:2699  _id */\n      dup3\n        /* \"contracts/CrowdTank.sol\":2687:2700  isIdUsed[_id] */\n      dup2\n      mstore\n      0x20\n      add\n      swap1\n      dup2\n      mstore\n      0x20\n      add\n      0x00\n      keccak256\n      0x00\n      swap1\n      sload\n      swap1\n      0x0100\n      exp\n      swap1\n      div\n      0xff\n      and\n        /* \"contracts/CrowdTank.sol\":2686:2700  !isIdUsed[_id] */\n      iszero\n        /* \"contracts/CrowdTank.sol\":2678:2735  require(!isIdUsed[_id], \"Project ID is already in use!\" ) */\n      tag_260\n      jumpi\n      mload(0x40)\n      0x08c379a000000000000000000000000000000000000000000000000000000000\n      dup2\n      mstore\n      0x04\n      add\n      tag_261\n      swap1\n      tag_262\n      jump\t// in\n    tag_261:\n      mload(0x40)\n      dup1\n      swap2\n      sub\n      swap1\n      revert\n    tag_260:\n        /* \"contracts/CrowdTank.sol\":2754:2772  AuthorizedCreators */\n      0x06\n        /* \"contracts/CrowdTank.sol\":2754:2784  AuthorizedCreators[msg.sender] */\n      0x00\n        /* \"contracts/CrowdTank.sol\":2773:2783  msg.sender */\n      caller\n        /* \"contracts/CrowdTank.sol\":2754:2784  AuthorizedCreators[msg.sender] */\n      0xffffffffffffffffffffffffffffffffffffffff\n      and\n      0xffffffffffffffffffffffffffffffffffffffff\n      and\n      dup2\n      mstore\n      0x20\n      add\n      swap1\n      dup2\n      mstore\n      0x20\n      add\n      0x00\n      keccak256\n      0x00\n      swap1\n      sload\n      swap1\n      0x0100\n      exp\n      swap1\n      div\n      0xff\n      and\n        /* \"contracts/CrowdTank.sol\":2746:2827  require(AuthorizedCreators[msg.sender] , \"Only Authorized creators can access!!\") */\n      tag_263\n      jumpi\n      mload(0x40)\n      0x08c379a000000000000000000000000000000000000000000000000000000000\n      dup2\n      mstore\n      0x04\n      add\n      tag_264\n      swap1\n      tag_265\n      jump\t// in\n    tag_264:\n      mload(0x40)\n      dup1\n      swap2\n      sub\n      swap1\n      revert\n    tag_263:\n        /* \"contracts/CrowdTank.sol\":2854:2858  true */\n      0x01\n        /* \"contracts/CrowdTank.sol\":2838:2846  isIdUsed */\n      0x09\n        /* \"contracts/CrowdTank.sol\":2838:2851  isIdUsed[_id] */\n      0x00\n        /* \"contracts/CrowdTank.sol\":2847:2850  _id */\n      dup4\n        /* \"contracts/CrowdTank.sol\":2838:2851  isIdUsed[_id] */\n      dup2\n      mstore\n      0x20\n      add\n      swap1\n      dup2\n      mstore\n      0x20\n      add\n      0x00\n      keccak256\n      0x00\n        /* \"contracts/CrowdTank.sol\":2838:2858  isIdUsed[_id] = true */\n      0x0100\n      exp\n      dup2\n      sload\n      dup2\n      0xff\n      mul\n      not\n      and\n      swap1\n      dup4\n      iszero\n      iszero\n      mul\n      or\n      swap1\n      sstore\n      pop\n        /* \"contracts/CrowdTank.sol\":2885:3241  project({... */\n      mload(0x40)\n      dup1\n      0x0120\n      add\n      0x40\n      mstore\n      dup1\n        /* \"contracts/CrowdTank.sol\":2918:2928  msg.sender */\n      caller\n        /* \"contracts/CrowdTank.sol\":2885:3241  project({... */\n      0xffffffffffffffffffffffffffffffffffffffff\n      and\n      dup2\n      mstore\n      0x20\n      add\n        /* \"contracts/CrowdTank.sol\":2949:2954  _name */\n      dup7\n        /* \"contracts/CrowdTank.sol\":2885:3241  project({... */\n      dup2\n      mstore\n      0x20\n      add\n        /* \"contracts/CrowdTank.sol\":2982:2994  _description */\n      dup6\n        /* \"contracts/CrowdTank.sol\":2885:3241  project({... */\n      dup2\n      mstore\n      0x20\n      add\n        /* \"contracts/CrowdTank.sol\":3022:3034  _fundingGoal */\n      dup5\n        /* \"contracts/CrowdTank.sol\":2885:3241  project({... */\n      dup2\n      mstore\n      0x20\n      add\n        /* \"contracts/CrowdTank.sol\":3077:3093  _durationSeconds */\n      dup4\n        /* \"contracts/CrowdTank.sol\":3059:3074  block.timestamp */\n      timestamp\n        /* \"contracts/CrowdTank.sol\":3059:3093  block.timestamp + _durationSeconds */\n      tag_266\n      swap2\n      swap1\n      tag_169\n      jump\t// in\n    tag_266:\n        /* \"contracts/CrowdTank.sol\":2885:3241  project({... */\n      dup2\n      mstore\n      0x20\n      add\n        /* \"contracts/CrowdTank.sol\":3122:3123  0 */\n      0x00\n        /* \"contracts/CrowdTank.sol\":2885:3241  project({... */\n      dup2\n      mstore\n      0x20\n      add\n        /* \"contracts/CrowdTank.sol\":3146:3151  false */\n      0x00\n        /* \"contracts/CrowdTank.sol\":2885:3241  project({... */\n      iszero\n      iszero\n      dup2\n      mstore\n      0x20\n      add\n        /* \"contracts/CrowdTank.sol\":3190:3191  0 */\n      0x00\n        /* \"contracts/CrowdTank.sol\":2885:3241  project({... */\n      0xffffffffffffffffffffffffffffffffffffffff\n      and\n      dup2\n      mstore\n      0x20\n      add\n        /* \"contracts/CrowdTank.sol\":3228:3229  0 */\n      0x00\n        /* \"contracts/CrowdTank.sol\":2885:3241  project({... */\n      dup2\n      mstore\n      pop\n        /* \"contracts/CrowdTank.sol\":2869:2877  Projects */\n      0x07\n        /* \"contracts/CrowdTank.sol\":2869:2882  Projects[_id] */\n      0x00\n        /* \"contracts/CrowdTank.sol\":2878:2881  _id */\n      dup4\n        /* \"contracts/CrowdTank.sol\":2869:2882  Projects[_id] */\n      dup2\n      mstore\n      0x20\n      add\n      swap1\n      dup2\n      mstore\n      0x20\n      add\n      0x00\n      keccak256\n        /* \"contracts/CrowdTank.sol\":2869:3241  Projects[_id] = project({... */\n      0x00\n      dup3\n      add\n      mload\n      dup2\n      0x00\n      add\n      exp(0x0100, 0x00)\n      dup2\n      sload\n      dup2\n      0xffffffffffffffffffffffffffffffffffffffff\n      mul\n      not\n      and\n      swap1\n      dup4\n      0xffffffffffffffffffffffffffffffffffffffff\n      and\n      mul\n      or\n      swap1\n      sstore\n      pop\n      0x20\n      dup3\n      add\n      mload\n      dup2\n      0x01\n      add\n      swap1\n      dup2\n      tag_267\n      swap2\n      swap1\n      tag_268\n      jump\t// in\n    tag_267:\n      pop\n      0x40\n      dup3\n      add\n      mload\n      dup2\n      0x02\n      add\n      swap1\n      dup2\n      tag_269\n      swap2\n      swap1\n      tag_268\n      jump\t// in\n    tag_269:\n      pop\n      0x60\n      dup3\n      add\n      mload\n      dup2\n      0x03\n      add\n      sstore\n      0x80\n      dup3\n      add\n      mload\n      dup2\n      0x04\n      add\n      sstore\n      0xa0\n      dup3\n      add\n      mload\n      dup2\n      0x05\n      add\n      sstore\n      0xc0\n      dup3\n      add\n      mload\n      dup2\n      0x06\n      add\n      exp(0x0100, 0x00)\n      dup2\n      sload\n      dup2\n      0xff\n      mul\n      not\n      and\n      swap1\n      dup4\n      iszero\n      iszero\n      mul\n      or\n      swap1\n      sstore\n      pop\n      0xe0\n      dup3\n      add\n      mload\n      dup2\n      0x06\n      add\n      exp(0x0100, 0x01)\n      dup2\n      sload\n      dup2\n      0xffffffffffffffffffffffffffffffffffffffff\n      mul\n      not\n      and\n      swap1\n      dup4\n      0xffffffffffffffffffffffffffffffffffffffff\n      and\n      mul\n      or\n      swap1\n      sstore\n      pop\n      0x0100\n      dup3\n      add\n      mload\n      dup2\n      0x07\n      add\n      sstore\n      swap1\n      pop\n      pop\n        /* \"contracts/CrowdTank.sol\":3252:3265  TotalProjects */\n      0x02\n      0x00\n        /* \"contracts/CrowdTank.sol\":3252:3267  TotalProjects++ */\n      dup2\n      sload\n      dup1\n      swap3\n      swap2\n      swap1\n      tag_270\n      swap1\n      tag_208\n      jump\t// in\n    tag_270:\n      swap2\n      swap1\n      pop\n      sstore\n      pop\n        /* \"contracts/CrowdTank.sol\":3304:3314  msg.sender */\n      caller\n        /* \"contracts/CrowdTank.sol\":3283:3388  ProjectCreated(_id , msg.sender , _name , _description , _fundingGoal , block.timestamp+_durationSeconds) */\n      0xffffffffffffffffffffffffffffffffffffffff\n      and\n        /* \"contracts/CrowdTank.sol\":3298:3301  _id */\n      dup2\n        /* \"contracts/CrowdTank.sol\":3283:3388  ProjectCreated(_id , msg.sender , _name , _description , _fundingGoal , block.timestamp+_durationSeconds) */\n      0xac9b83534845c9e785a6ea70f2d809db1d72ef9a1d981753712d922f5cb55f39\n        /* \"contracts/CrowdTank.sol\":3317:3322  _name */\n      dup8\n        /* \"contracts/CrowdTank.sol\":3325:3337  _description */\n      dup8\n        /* \"contracts/CrowdTank.sol\":3340:3352  _fundingGoal */\n      dup8\n        /* \"contracts/CrowdTank.sol\":3371:3387  _durationSeconds */\n      dup8\n        /* \"contracts/CrowdTank.sol\":3355:3370  block.timestamp */\n      timestamp\n        /* \"contracts/CrowdTank.sol\":3355:3387  block.timestamp+_durationSeconds */\n      tag_271\n      swap2\n      swap1\n      tag_169\n      jump\t// in\n    tag_271:\n        /* \"contracts/CrowdTank.sol\":3283:3388  ProjectCreated(_id , msg.sender , _name , _description , _fundingGoal , block.timestamp+_durationSeconds) */\n      mload(0x40)\n      tag_272\n      swap5\n      swap4\n      swap3\n      swap2\n      swap1\n      tag_273\n      jump\t// in\n    tag_272:\n      mload(0x40)\n      dup1\n      swap2\n      sub\n      swap1\n      log3\n        /* \"contracts/CrowdTank.sol\":2530:3396  function createProject(string memory _name , string memory _description , uint _fundingGoal , uint _durationSeconds , uint _id) external {... */\n      pop\n      pop\n      pop\n      pop\n      pop\n      jump\t// out\n        /* \"contracts/CrowdTank.sol\":468:488  address public admin */\n    tag_110:\n      0x03\n      0x00\n      swap1\n      sload\n      swap1\n      0x0100\n      exp\n      swap1\n      div\n      0xffffffffffffffffffffffffffffffffffffffff\n      and\n      dup2\n      jump\t// out\n        /* \"contracts/CrowdTank.sol\":939:1094  function Add_Creators( address _creator ) external OnlyAdmin {... */\n    tag_116:\n        /* \"contracts/CrowdTank.sol\":788:798  msg.sender */\n      caller\n        /* \"contracts/CrowdTank.sol\":779:798  admin == msg.sender */\n      0xffffffffffffffffffffffffffffffffffffffff\n      and\n        /* \"contracts/CrowdTank.sol\":779:784  admin */\n      0x03\n      0x00\n      swap1\n      sload\n      swap1\n      0x0100\n      exp\n      swap1\n      div\n      0xffffffffffffffffffffffffffffffffffffffff\n      and\n        /* \"contracts/CrowdTank.sol\":779:798  admin == msg.sender */\n      0xffffffffffffffffffffffffffffffffffffffff\n      and\n      eq\n        /* \"contracts/CrowdTank.sol\":771:825  require(admin == msg.sender , \"Only Admin can access\") */\n      tag_275\n      jumpi\n      mload(0x40)\n      0x08c379a000000000000000000000000000000000000000000000000000000000\n      dup2\n      mstore\n      0x04\n      add\n      tag_276\n      swap1\n      tag_236\n      jump\t// in\n    tag_276:\n      mload(0x40)\n      dup1\n      swap2\n      sub\n      swap1\n      revert\n    tag_275:\n        /* \"contracts/CrowdTank.sol\":1042:1046  true */\n      0x01\n        /* \"contracts/CrowdTank.sol\":1011:1029  AuthorizedCreators */\n      0x06\n        /* \"contracts/CrowdTank.sol\":1011:1039  AuthorizedCreators[_creator] */\n      0x00\n        /* \"contracts/CrowdTank.sol\":1030:1038  _creator */\n      dup4\n        /* \"contracts/CrowdTank.sol\":1011:1039  AuthorizedCreators[_creator] */\n      0xffffffffffffffffffffffffffffffffffffffff\n      and\n      0xffffffffffffffffffffffffffffffffffffffff\n      and\n      dup2\n      mstore\n      0x20\n      add\n      swap1\n      dup2\n      mstore\n      0x20\n      add\n      0x00\n      keccak256\n      0x00\n        /* \"contracts/CrowdTank.sol\":1011:1046  AuthorizedCreators[_creator] = true */\n      0x0100\n      exp\n      dup2\n      sload\n      dup2\n      0xff\n      mul\n      not\n      and\n      swap1\n      dup4\n      iszero\n      iszero\n      mul\n      or\n      swap1\n      sstore\n      pop\n        /* \"contracts/CrowdTank.sol\":1077:1085  _creator */\n      dup1\n        /* \"contracts/CrowdTank.sol\":1064:1086  addedCreator(_creator) */\n      0xffffffffffffffffffffffffffffffffffffffff\n      and\n      0x1f9f86dc4a3ce57ee42e33c59def65713163420d0ab979169ef129299ff2b85e\n      mload(0x40)\n      mload(0x40)\n      dup1\n      swap2\n      sub\n      swap1\n      log2\n        /* \"contracts/CrowdTank.sol\":939:1094  function Add_Creators( address _creator ) external OnlyAdmin {... */\n      pop\n      jump\t// out\n        /* \"@openzeppelin/contracts/utils/ReentrancyGuard.sol\":2575:2882  function _nonReentrantBefore() private {... */\n    tag_172:\n        /* \"@openzeppelin/contracts/utils/ReentrancyGuard.sol\":1899:1900  2 */\n      0x02\n        /* \"@openzeppelin/contracts/utils/ReentrancyGuard.sol\":2702:2709  _status */\n      sload(0x00)\n        /* \"@openzeppelin/contracts/utils/ReentrancyGuard.sol\":2702:2720  _status == ENTERED */\n      sub\n        /* \"@openzeppelin/contracts/utils/ReentrancyGuard.sol\":2698:2784  if (_status == ENTERED) {... */\n      tag_279\n      jumpi\n        /* \"@openzeppelin/contracts/utils/ReentrancyGuard.sol\":2743:2773  ReentrancyGuardReentrantCall() */\n      mload(0x40)\n      0x3ee5aeb500000000000000000000000000000000000000000000000000000000\n      dup2\n      mstore\n      0x04\n      add\n      mload(0x40)\n      dup1\n      swap2\n      sub\n      swap1\n      revert\n        /* \"@openzeppelin/contracts/utils/ReentrancyGuard.sol\":2698:2784  if (_status == ENTERED) {... */\n    tag_279:\n        /* \"@openzeppelin/contracts/utils/ReentrancyGuard.sol\":1899:1900  2 */\n      0x02\n        /* \"@openzeppelin/contracts/utils/ReentrancyGuard.sol\":2858:2865  _status */\n      0x00\n        /* \"@openzeppelin/contracts/utils/ReentrancyGuard.sol\":2858:2875  _status = ENTERED */\n      dup2\n      swap1\n      sstore\n      pop\n        /* \"@openzeppelin/contracts/utils/ReentrancyGuard.sol\":2575:2882  function _nonReentrantBefore() private {... */\n      jump\t// out\n        /* \"@openzeppelin/contracts/utils/ReentrancyGuard.sol\":2888:3096  function _nonReentrantAfter() private {... */\n    tag_219:\n        /* \"@openzeppelin/contracts/utils/ReentrancyGuard.sol\":1857:1858  1 */\n      0x01\n        /* \"@openzeppelin/contracts/utils/ReentrancyGuard.sol\":3068:3075  _status */\n      0x00\n        /* \"@openzeppelin/contracts/utils/ReentrancyGuard.sol\":3068:3089  _status = NOT_ENTERED */\n      dup2\n      swap1\n      sstore\n      pop\n        /* \"@openzeppelin/contracts/utils/ReentrancyGuard.sol\":2888:3096  function _nonReentrantAfter() private {... */\n      jump\t// out\n        /* \"#utility.yul\":7:82   */\n    tag_281:\n        /* \"#utility.yul\":40:46   */\n      0x00\n        /* \"#utility.yul\":73:75   */\n      0x40\n        /* \"#utility.yul\":67:76   */\n      mload\n        /* \"#utility.yul\":57:76   */\n      swap1\n      pop\n        /* \"#utility.yul\":7:82   */\n      swap1\n      jump\t// out\n        /* \"#utility.yul\":88:205   */\n    tag_282:\n        /* \"#utility.yul\":197:198   */\n      0x00\n        /* \"#utility.yul\":194:195   */\n      0x00\n        /* \"#utility.yul\":187:199   */\n      revert\n        /* \"#utility.yul\":211:328   */\n    tag_283:\n        /* \"#utility.yul\":320:321   */\n      0x00\n        /* \"#utility.yul\":317:318   */\n      0x00\n        /* \"#utility.yul\":310:322   */\n      revert\n        /* \"#utility.yul\":334:411   */\n    tag_284:\n        /* \"#utility.yul\":371:378   */\n      0x00\n        /* \"#utility.yul\":400:405   */\n      dup2\n        /* \"#utility.yul\":389:405   */\n      swap1\n      pop\n        /* \"#utility.yul\":334:411   */\n      swap2\n      swap1\n      pop\n      jump\t// out\n        /* \"#utility.yul\":417:539   */\n    tag_285:\n        /* \"#utility.yul\":490:514   */\n      tag_380\n        /* \"#utility.yul\":508:513   */\n      dup2\n        /* \"#utility.yul\":490:514   */\n      tag_284\n      jump\t// in\n    tag_380:\n        /* \"#utility.yul\":483:488   */\n      dup2\n        /* \"#utility.yul\":480:515   */\n      eq\n        /* \"#utility.yul\":470:533   */\n      tag_381\n      jumpi\n        /* \"#utility.yul\":529:530   */\n      0x00\n        /* \"#utility.yul\":526:527   */\n      0x00\n        /* \"#utility.yul\":519:531   */\n      revert\n        /* \"#utility.yul\":470:533   */\n    tag_381:\n        /* \"#utility.yul\":417:539   */\n      pop\n      jump\t// out\n        /* \"#utility.yul\":545:684   */\n    tag_286:\n        /* \"#utility.yul\":591:596   */\n      0x00\n        /* \"#utility.yul\":629:635   */\n      dup2\n        /* \"#utility.yul\":616:636   */\n      calldataload\n        /* \"#utility.yul\":607:636   */\n      swap1\n      pop\n        /* \"#utility.yul\":645:678   */\n      tag_383\n        /* \"#utility.yul\":672:677   */\n      dup2\n        /* \"#utility.yul\":645:678   */\n      tag_285\n      jump\t// in\n    tag_383:\n        /* \"#utility.yul\":545:684   */\n      swap3\n      swap2\n      pop\n      pop\n      jump\t// out\n        /* \"#utility.yul\":690:1019   */\n    tag_28:\n        /* \"#utility.yul\":749:755   */\n      0x00\n        /* \"#utility.yul\":798:800   */\n      0x20\n        /* \"#utility.yul\":786:795   */\n      dup3\n        /* \"#utility.yul\":777:784   */\n      dup5\n        /* \"#utility.yul\":773:796   */\n      sub\n        /* \"#utility.yul\":769:801   */\n      slt\n        /* \"#utility.yul\":766:885   */\n      iszero\n      tag_385\n      jumpi\n        /* \"#utility.yul\":804:883   */\n      tag_386\n      tag_282\n      jump\t// in\n    tag_386:\n        /* \"#utility.yul\":766:885   */\n    tag_385:\n        /* \"#utility.yul\":924:925   */\n      0x00\n        /* \"#utility.yul\":949:1002   */\n      tag_387\n        /* \"#utility.yul\":994:1001   */\n      dup5\n        /* \"#utility.yul\":985:991   */\n      dup3\n        /* \"#utility.yul\":974:983   */\n      dup6\n        /* \"#utility.yul\":970:992   */\n      add\n        /* \"#utility.yul\":949:1002   */\n      tag_286\n      jump\t// in\n    tag_387:\n        /* \"#utility.yul\":939:1002   */\n      swap2\n      pop\n        /* \"#utility.yul\":895:1012   */\n      pop\n        /* \"#utility.yul\":690:1019   */\n      swap3\n      swap2\n      pop\n      pop\n      jump\t// out\n        /* \"#utility.yul\":1025:1143   */\n    tag_287:\n        /* \"#utility.yul\":1112:1136   */\n      tag_389\n        /* \"#utility.yul\":1130:1135   */\n      dup2\n        /* \"#utility.yul\":1112:1136   */\n      tag_284\n      jump\t// in\n    tag_389:\n        /* \"#utility.yul\":1107:1110   */\n      dup3\n        /* \"#utility.yul\":1100:1137   */\n      mstore\n        /* \"#utility.yul\":1025:1143   */\n      pop\n      pop\n      jump\t// out\n        /* \"#utility.yul\":1149:1481   */\n    tag_31:\n        /* \"#utility.yul\":1270:1274   */\n      0x00\n        /* \"#utility.yul\":1308:1310   */\n      0x40\n        /* \"#utility.yul\":1297:1306   */\n      dup3\n        /* \"#utility.yul\":1293:1311   */\n      add\n        /* \"#utility.yul\":1285:1311   */\n      swap1\n      pop\n        /* \"#utility.yul\":1321:1392   */\n      tag_391\n        /* \"#utility.yul\":1389:1390   */\n      0x00\n        /* \"#utility.yul\":1378:1387   */\n      dup4\n        /* \"#utility.yul\":1374:1391   */\n      add\n        /* \"#utility.yul\":1365:1371   */\n      dup6\n        /* \"#utility.yul\":1321:1392   */\n      tag_287\n      jump\t// in\n    tag_391:\n        /* \"#utility.yul\":1402:1474   */\n      tag_392\n        /* \"#utility.yul\":1470:1472   */\n      0x20\n        /* \"#utility.yul\":1459:1468   */\n      dup4\n        /* \"#utility.yul\":1455:1473   */\n      add\n        /* \"#utility.yul\":1446:1452   */\n      dup5\n        /* \"#utility.yul\":1402:1474   */\n      tag_287\n      jump\t// in\n    tag_392:\n        /* \"#utility.yul\":1149:1481   */\n      swap4\n      swap3\n      pop\n      pop\n      pop\n      jump\t// out\n        /* \"#utility.yul\":1487:1961   */\n    tag_35:\n        /* \"#utility.yul\":1555:1561   */\n      0x00\n        /* \"#utility.yul\":1563:1569   */\n      0x00\n        /* \"#utility.yul\":1612:1614   */\n      0x40\n        /* \"#utility.yul\":1600:1609   */\n      dup4\n        /* \"#utility.yul\":1591:1598   */\n      dup6\n        /* \"#utility.yul\":1587:1610   */\n      sub\n        /* \"#utility.yul\":1583:1615   */\n      slt\n        /* \"#utility.yul\":1580:1699   */\n      iszero\n      tag_394\n      jumpi\n        /* \"#utility.yul\":1618:1697   */\n      tag_395\n      tag_282\n      jump\t// in\n    tag_395:\n        /* \"#utility.yul\":1580:1699   */\n    tag_394:\n        /* \"#utility.yul\":1738:1739   */\n      0x00\n        /* \"#utility.yul\":1763:1816   */\n      tag_396\n        /* \"#utility.yul\":1808:1815   */\n      dup6\n        /* \"#utility.yul\":1799:1805   */\n      dup3\n        /* \"#utility.yul\":1788:1797   */\n      dup7\n        /* \"#utility.yul\":1784:1806   */\n      add\n        /* \"#utility.yul\":1763:1816   */\n      tag_286\n      jump\t// in\n    tag_396:\n        /* \"#utility.yul\":1753:1816   */\n      swap3\n      pop\n        /* \"#utility.yul\":1709:1826   */\n      pop\n        /* \"#utility.yul\":1865:1867   */\n      0x20\n        /* \"#utility.yul\":1891:1944   */\n      tag_397\n        /* \"#utility.yul\":1936:1943   */\n      dup6\n        /* \"#utility.yul\":1927:1933   */\n      dup3\n        /* \"#utility.yul\":1916:1925   */\n      dup7\n        /* \"#utility.yul\":1912:1934   */\n      add\n        /* \"#utility.yul\":1891:1944   */\n      tag_286\n      jump\t// in\n    tag_397:\n        /* \"#utility.yul\":1881:1944   */\n      swap2\n      pop\n        /* \"#utility.yul\":1836:1954   */\n      pop\n        /* \"#utility.yul\":1487:1961   */\n      swap3\n      pop\n      swap3\n      swap1\n      pop\n      jump\t// out\n        /* \"#utility.yul\":1967:2093   */\n    tag_288:\n        /* \"#utility.yul\":2004:2011   */\n      0x00\n        /* \"#utility.yul\":2044:2086   */\n      0xffffffffffffffffffffffffffffffffffffffff\n        /* \"#utility.yul\":2037:2042   */\n      dup3\n        /* \"#utility.yul\":2033:2087   */\n      and\n        /* \"#utility.yul\":2022:2087   */\n      swap1\n      pop\n        /* \"#utility.yul\":1967:2093   */\n      swap2\n      swap1\n      pop\n      jump\t// out\n        /* \"#utility.yul\":2099:2195   */\n    tag_289:\n        /* \"#utility.yul\":2136:2143   */\n      0x00\n        /* \"#utility.yul\":2165:2189   */\n      tag_400\n        /* \"#utility.yul\":2183:2188   */\n      dup3\n        /* \"#utility.yul\":2165:2189   */\n      tag_288\n      jump\t// in\n    tag_400:\n        /* \"#utility.yul\":2154:2189   */\n      swap1\n      pop\n        /* \"#utility.yul\":2099:2195   */\n      swap2\n      swap1\n      pop\n      jump\t// out\n        /* \"#utility.yul\":2201:2319   */\n    tag_290:\n        /* \"#utility.yul\":2288:2312   */\n      tag_402\n        /* \"#utility.yul\":2306:2311   */\n      dup2\n        /* \"#utility.yul\":2288:2312   */\n      tag_289\n      jump\t// in\n    tag_402:\n        /* \"#utility.yul\":2283:2286   */\n      dup3\n        /* \"#utility.yul\":2276:2313   */\n      mstore\n        /* \"#utility.yul\":2201:2319   */\n      pop\n      pop\n      jump\t// out\n        /* \"#utility.yul\":2325:2424   */\n    tag_291:\n        /* \"#utility.yul\":2377:2383   */\n      0x00\n        /* \"#utility.yul\":2411:2416   */\n      dup2\n        /* \"#utility.yul\":2405:2417   */\n      mload\n        /* \"#utility.yul\":2395:2417   */\n      swap1\n      pop\n        /* \"#utility.yul\":2325:2424   */\n      swap2\n      swap1\n      pop\n      jump\t// out\n        /* \"#utility.yul\":2430:2599   */\n    tag_292:\n        /* \"#utility.yul\":2514:2525   */\n      0x00\n        /* \"#utility.yul\":2548:2554   */\n      dup3\n        /* \"#utility.yul\":2543:2546   */\n      dup3\n        /* \"#utility.yul\":2536:2555   */\n      mstore\n        /* \"#utility.yul\":2588:2592   */\n      0x20\n        /* \"#utility.yul\":2583:2586   */\n      dup3\n        /* \"#utility.yul\":2579:2593   */\n      add\n        /* \"#utility.yul\":2564:2593   */\n      swap1\n      pop\n        /* \"#utility.yul\":2430:2599   */\n      swap3\n      swap2\n      pop\n      pop\n      jump\t// out\n        /* \"#utility.yul\":2605:2744   */\n    tag_293:\n        /* \"#utility.yul\":2694:2700   */\n      dup3\n        /* \"#utility.yul\":2689:2692   */\n      dup2\n        /* \"#utility.yul\":2684:2687   */\n      dup4\n        /* \"#utility.yul\":2678:2701   */\n      mcopy\n        /* \"#utility.yul\":2735:2736   */\n      0x00\n        /* \"#utility.yul\":2726:2732   */\n      dup4\n        /* \"#utility.yul\":2721:2724   */\n      dup4\n        /* \"#utility.yul\":2717:2733   */\n      add\n        /* \"#utility.yul\":2710:2737   */\n      mstore\n        /* \"#utility.yul\":2605:2744   */\n      pop\n      pop\n      pop\n      jump\t// out\n        /* \"#utility.yul\":2750:2852   */\n    tag_294:\n        /* \"#utility.yul\":2791:2797   */\n      0x00\n        /* \"#utility.yul\":2842:2844   */\n      0x1f\n        /* \"#utility.yul\":2838:2845   */\n      not\n        /* \"#utility.yul\":2833:2835   */\n      0x1f\n        /* \"#utility.yul\":2826:2831   */\n      dup4\n        /* \"#utility.yul\":2822:2836   */\n      add\n        /* \"#utility.yul\":2818:2846   */\n      and\n        /* \"#utility.yul\":2808:2846   */\n      swap1\n      pop\n        /* \"#utility.yul\":2750:2852   */\n      swap2\n      swap1\n      pop\n      jump\t// out\n        /* \"#utility.yul\":2858:3235   */\n    tag_295:\n        /* \"#utility.yul\":2946:2949   */\n      0x00\n        /* \"#utility.yul\":2974:3013   */\n      tag_408\n        /* \"#utility.yul\":3007:3012   */\n      dup3\n        /* \"#utility.yul\":2974:3013   */\n      tag_291\n      jump\t// in\n    tag_408:\n        /* \"#utility.yul\":3029:3100   */\n      tag_409\n        /* \"#utility.yul\":3093:3099   */\n      dup2\n        /* \"#utility.yul\":3088:3091   */\n      dup6\n        /* \"#utility.yul\":3029:3100   */\n      tag_292\n      jump\t// in\n    tag_409:\n        /* \"#utility.yul\":3022:3100   */\n      swap4\n      pop\n        /* \"#utility.yul\":3109:3174   */\n      tag_410\n        /* \"#utility.yul\":3167:3173   */\n      dup2\n        /* \"#utility.yul\":3162:3165   */\n      dup6\n        /* \"#utility.yul\":3155:3159   */\n      0x20\n        /* \"#utility.yul\":3148:3153   */\n      dup7\n        /* \"#utility.yul\":3144:3160   */\n      add\n        /* \"#utility.yul\":3109:3174   */\n      tag_293\n      jump\t// in\n    tag_410:\n        /* \"#utility.yul\":3199:3228   */\n      tag_411\n        /* \"#utility.yul\":3221:3227   */\n      dup2\n        /* \"#utility.yul\":3199:3228   */\n      tag_294\n      jump\t// in\n    tag_411:\n        /* \"#utility.yul\":3194:3197   */\n      dup5\n        /* \"#utility.yul\":3190:3229   */\n      add\n        /* \"#utility.yul\":3183:3229   */\n      swap2\n      pop\n        /* \"#utility.yul\":2950:3235   */\n      pop\n        /* \"#utility.yul\":2858:3235   */\n      swap3\n      swap2\n      pop\n      pop\n      jump\t// out\n        /* \"#utility.yul\":3241:3331   */\n    tag_296:\n        /* \"#utility.yul\":3275:3282   */\n      0x00\n        /* \"#utility.yul\":3318:3323   */\n      dup2\n        /* \"#utility.yul\":3311:3324   */\n      iszero\n        /* \"#utility.yul\":3304:3325   */\n      iszero\n        /* \"#utility.yul\":3293:3325   */\n      swap1\n      pop\n        /* \"#utility.yul\":3241:3331   */\n      swap2\n      swap1\n      pop\n      jump\t// out\n        /* \"#utility.yul\":3337:3446   */\n    tag_297:\n        /* \"#utility.yul\":3418:3439   */\n      tag_414\n        /* \"#utility.yul\":3433:3438   */\n      dup2\n        /* \"#utility.yul\":3418:3439   */\n      tag_296\n      jump\t// in\n    tag_414:\n        /* \"#utility.yul\":3413:3416   */\n      dup3\n        /* \"#utility.yul\":3406:3440   */\n      mstore\n        /* \"#utility.yul\":3337:3446   */\n      pop\n      pop\n      jump\t// out\n        /* \"#utility.yul\":3452:4730   */\n    tag_42:\n        /* \"#utility.yul\":3803:3807   */\n      0x00\n        /* \"#utility.yul\":3841:3844   */\n      0x0120\n        /* \"#utility.yul\":3830:3839   */\n      dup3\n        /* \"#utility.yul\":3826:3845   */\n      add\n        /* \"#utility.yul\":3818:3845   */\n      swap1\n      pop\n        /* \"#utility.yul\":3855:3926   */\n      tag_416\n        /* \"#utility.yul\":3923:3924   */\n      0x00\n        /* \"#utility.yul\":3912:3921   */\n      dup4\n        /* \"#utility.yul\":3908:3925   */\n      add\n        /* \"#utility.yul\":3899:3905   */\n      dup13\n        /* \"#utility.yul\":3855:3926   */\n      tag_290\n      jump\t// in\n    tag_416:\n        /* \"#utility.yul\":3973:3982   */\n      dup2\n        /* \"#utility.yul\":3967:3971   */\n      dup2\n        /* \"#utility.yul\":3963:3983   */\n      sub\n        /* \"#utility.yul\":3958:3960   */\n      0x20\n        /* \"#utility.yul\":3947:3956   */\n      dup4\n        /* \"#utility.yul\":3943:3961   */\n      add\n        /* \"#utility.yul\":3936:3984   */\n      mstore\n        /* \"#utility.yul\":4001:4079   */\n      tag_417\n        /* \"#utility.yul\":4074:4078   */\n      dup2\n        /* \"#utility.yul\":4065:4071   */\n      dup12\n        /* \"#utility.yul\":4001:4079   */\n      tag_295\n      jump\t// in\n    tag_417:\n        /* \"#utility.yul\":3993:4079   */\n      swap1\n      pop\n        /* \"#utility.yul\":4126:4135   */\n      dup2\n        /* \"#utility.yul\":4120:4124   */\n      dup2\n        /* \"#utility.yul\":4116:4136   */\n      sub\n        /* \"#utility.yul\":4111:4113   */\n      0x40\n        /* \"#utility.yul\":4100:4109   */\n      dup4\n        /* \"#utility.yul\":4096:4114   */\n      add\n        /* \"#utility.yul\":4089:4137   */\n      mstore\n        /* \"#utility.yul\":4154:4232   */\n      tag_418\n        /* \"#utility.yul\":4227:4231   */\n      dup2\n        /* \"#utility.yul\":4218:4224   */\n      dup11\n        /* \"#utility.yul\":4154:4232   */\n      tag_295\n      jump\t// in\n    tag_418:\n        /* \"#utility.yul\":4146:4232   */\n      swap1\n      pop\n        /* \"#utility.yul\":4242:4314   */\n      tag_419\n        /* \"#utility.yul\":4310:4312   */\n      0x60\n        /* \"#utility.yul\":4299:4308   */\n      dup4\n        /* \"#utility.yul\":4295:4313   */\n      add\n        /* \"#utility.yul\":4286:4292   */\n      dup10\n        /* \"#utility.yul\":4242:4314   */\n      tag_287\n      jump\t// in\n    tag_419:\n        /* \"#utility.yul\":4324:4397   */\n      tag_420\n        /* \"#utility.yul\":4392:4395   */\n      0x80\n        /* \"#utility.yul\":4381:4390   */\n      dup4\n        /* \"#utility.yul\":4377:4396   */\n      add\n        /* \"#utility.yul\":4368:4374   */\n      dup9\n        /* \"#utility.yul\":4324:4397   */\n      tag_287\n      jump\t// in\n    tag_420:\n        /* \"#utility.yul\":4407:4480   */\n      tag_421\n        /* \"#utility.yul\":4475:4478   */\n      0xa0\n        /* \"#utility.yul\":4464:4473   */\n      dup4\n        /* \"#utility.yul\":4460:4479   */\n      add\n        /* \"#utility.yul\":4451:4457   */\n      dup8\n        /* \"#utility.yul\":4407:4480   */\n      tag_287\n      jump\t// in\n    tag_421:\n        /* \"#utility.yul\":4490:4557   */\n      tag_422\n        /* \"#utility.yul\":4552:4555   */\n      0xc0\n        /* \"#utility.yul\":4541:4550   */\n      dup4\n        /* \"#utility.yul\":4537:4556   */\n      add\n        /* \"#utility.yul\":4528:4534   */\n      dup7\n        /* \"#utility.yul\":4490:4557   */\n      tag_297\n      jump\t// in\n    tag_422:\n        /* \"#utility.yul\":4567:4640   */\n      tag_423\n        /* \"#utility.yul\":4635:4638   */\n      0xe0\n        /* \"#utility.yul\":4624:4633   */\n      dup4\n        /* \"#utility.yul\":4620:4639   */\n      add\n        /* \"#utility.yul\":4611:4617   */\n      dup6\n        /* \"#utility.yul\":4567:4640   */\n      tag_290\n      jump\t// in\n    tag_423:\n        /* \"#utility.yul\":4650:4723   */\n      tag_424\n        /* \"#utility.yul\":4718:4721   */\n      0x0100\n        /* \"#utility.yul\":4707:4716   */\n      dup4\n        /* \"#utility.yul\":4703:4722   */\n      add\n        /* \"#utility.yul\":4694:4700   */\n      dup5\n        /* \"#utility.yul\":4650:4723   */\n      tag_287\n      jump\t// in\n    tag_424:\n        /* \"#utility.yul\":3452:4730   */\n      swap11\n      swap10\n      pop\n      pop\n      pop\n      pop\n      pop\n      pop\n      pop\n      pop\n      pop\n      pop\n      jump\t// out\n        /* \"#utility.yul\":4736:4958   */\n    tag_47:\n        /* \"#utility.yul\":4829:4833   */\n      0x00\n        /* \"#utility.yul\":4867:4869   */\n      0x20\n        /* \"#utility.yul\":4856:4865   */\n      dup3\n        /* \"#utility.yul\":4852:4870   */\n      add\n        /* \"#utility.yul\":4844:4870   */\n      swap1\n      pop\n        /* \"#utility.yul\":4880:4951   */\n      tag_426\n        /* \"#utility.yul\":4948:4949   */\n      0x00\n        /* \"#utility.yul\":4937:4946   */\n      dup4\n        /* \"#utility.yul\":4933:4950   */\n      add\n        /* \"#utility.yul\":4924:4930   */\n      dup5\n        /* \"#utility.yul\":4880:4951   */\n      tag_287\n      jump\t// in\n    tag_426:\n        /* \"#utility.yul\":4736:4958   */\n      swap3\n      swap2\n      pop\n      pop\n      jump\t// out\n        /* \"#utility.yul\":4964:5086   */\n    tag_298:\n        /* \"#utility.yul\":5037:5061   */\n      tag_428\n        /* \"#utility.yul\":5055:5060   */\n      dup2\n        /* \"#utility.yul\":5037:5061   */\n      tag_289\n      jump\t// in\n    tag_428:\n        /* \"#utility.yul\":5030:5035   */\n      dup2\n        /* \"#utility.yul\":5027:5062   */\n      eq\n        /* \"#utility.yul\":5017:5080   */\n      tag_429\n      jumpi\n        /* \"#utility.yul\":5076:5077   */\n      0x00\n        /* \"#utility.yul\":5073:5074   */\n      0x00\n        /* \"#utility.yul\":5066:5078   */\n      revert\n        /* \"#utility.yul\":5017:5080   */\n    tag_429:\n        /* \"#utility.yul\":4964:5086   */\n      pop\n      jump\t// out\n        /* \"#utility.yul\":5092:5231   */\n    tag_299:\n        /* \"#utility.yul\":5138:5143   */\n      0x00\n        /* \"#utility.yul\":5176:5182   */\n      dup2\n        /* \"#utility.yul\":5163:5183   */\n      calldataload\n        /* \"#utility.yul\":5154:5183   */\n      swap1\n      pop\n        /* \"#utility.yul\":5192:5225   */\n      tag_431\n        /* \"#utility.yul\":5219:5224   */\n      dup2\n        /* \"#utility.yul\":5192:5225   */\n      tag_298\n      jump\t// in\n    tag_431:\n        /* \"#utility.yul\":5092:5231   */\n      swap3\n      swap2\n      pop\n      pop\n      jump\t// out\n        /* \"#utility.yul\":5237:5711   */\n    tag_68:\n        /* \"#utility.yul\":5305:5311   */\n      0x00\n        /* \"#utility.yul\":5313:5319   */\n      0x00\n        /* \"#utility.yul\":5362:5364   */\n      0x40\n        /* \"#utility.yul\":5350:5359   */\n      dup4\n        /* \"#utility.yul\":5341:5348   */\n      dup6\n        /* \"#utility.yul\":5337:5360   */\n      sub\n        /* \"#utility.yul\":5333:5365   */\n      slt\n        /* \"#utility.yul\":5330:5449   */\n      iszero\n      tag_433\n      jumpi\n        /* \"#utility.yul\":5368:5447   */\n      tag_434\n      tag_282\n      jump\t// in\n    tag_434:\n        /* \"#utility.yul\":5330:5449   */\n    tag_433:\n        /* \"#utility.yul\":5488:5489   */\n      0x00\n        /* \"#utility.yul\":5513:5566   */\n      tag_435\n        /* \"#utility.yul\":5558:5565   */\n      dup6\n        /* \"#utility.yul\":5549:5555   */\n      dup3\n        /* \"#utility.yul\":5538:5547   */\n      dup7\n        /* \"#utility.yul\":5534:5556   */\n      add\n        /* \"#utility.yul\":5513:5566   */\n      tag_286\n      jump\t// in\n    tag_435:\n        /* \"#utility.yul\":5503:5566   */\n      swap3\n      pop\n        /* \"#utility.yul\":5459:5576   */\n      pop\n        /* \"#utility.yul\":5615:5617   */\n      0x20\n        /* \"#utility.yul\":5641:5694   */\n      tag_436\n        /* \"#utility.yul\":5686:5693   */\n      dup6\n        /* \"#utility.yul\":5677:5683   */\n      dup3\n        /* \"#utility.yul\":5666:5675   */\n      dup7\n        /* \"#utility.yul\":5662:5684   */\n      add\n        /* \"#utility.yul\":5641:5694   */\n      tag_299\n      jump\t// in\n    tag_436:\n        /* \"#utility.yul\":5631:5694   */\n      swap2\n      pop\n        /* \"#utility.yul\":5586:5704   */\n      pop\n        /* \"#utility.yul\":5237:5711   */\n      swap3\n      pop\n      swap3\n      swap1\n      pop\n      jump\t// out\n        /* \"#utility.yul\":5717:6046   */\n    tag_84:\n        /* \"#utility.yul\":5776:5782   */\n      0x00\n        /* \"#utility.yul\":5825:5827   */\n      0x20\n        /* \"#utility.yul\":5813:5822   */\n      dup3\n        /* \"#utility.yul\":5804:5811   */\n      dup5\n        /* \"#utility.yul\":5800:5823   */\n      sub\n        /* \"#utility.yul\":5796:5828   */\n      slt\n        /* \"#utility.yul\":5793:5912   */\n      iszero\n      tag_438\n      jumpi\n        /* \"#utility.yul\":5831:5910   */\n      tag_439\n      tag_282\n      jump\t// in\n    tag_439:\n        /* \"#utility.yul\":5793:5912   */\n    tag_438:\n        /* \"#utility.yul\":5951:5952   */\n      0x00\n        /* \"#utility.yul\":5976:6029   */\n      tag_440\n        /* \"#utility.yul\":6021:6028   */\n      dup5\n        /* \"#utility.yul\":6012:6018   */\n      dup3\n        /* \"#utility.yul\":6001:6010   */\n      dup6\n        /* \"#utility.yul\":5997:6019   */\n      add\n        /* \"#utility.yul\":5976:6029   */\n      tag_299\n      jump\t// in\n    tag_440:\n        /* \"#utility.yul\":5966:6029   */\n      swap2\n      pop\n        /* \"#utility.yul\":5922:6039   */\n      pop\n        /* \"#utility.yul\":5717:6046   */\n      swap3\n      swap2\n      pop\n      pop\n      jump\t// out\n        /* \"#utility.yul\":6052:6262   */\n    tag_91:\n        /* \"#utility.yul\":6139:6143   */\n      0x00\n        /* \"#utility.yul\":6177:6179   */\n      0x20\n        /* \"#utility.yul\":6166:6175   */\n      dup3\n        /* \"#utility.yul\":6162:6180   */\n      add\n        /* \"#utility.yul\":6154:6180   */\n      swap1\n      pop\n        /* \"#utility.yul\":6190:6255   */\n      tag_442\n        /* \"#utility.yul\":6252:6253   */\n      0x00\n        /* \"#utility.yul\":6241:6250   */\n      dup4\n        /* \"#utility.yul\":6237:6254   */\n      add\n        /* \"#utility.yul\":6228:6234   */\n      dup5\n        /* \"#utility.yul\":6190:6255   */\n      tag_297\n      jump\t// in\n    tag_442:\n        /* \"#utility.yul\":6052:6262   */\n      swap3\n      swap2\n      pop\n      pop\n      jump\t// out\n        /* \"#utility.yul\":6268:6385   */\n    tag_300:\n        /* \"#utility.yul\":6377:6378   */\n      0x00\n        /* \"#utility.yul\":6374:6375   */\n      0x00\n        /* \"#utility.yul\":6367:6379   */\n      revert\n        /* \"#utility.yul\":6391:6508   */\n    tag_301:\n        /* \"#utility.yul\":6500:6501   */\n      0x00\n        /* \"#utility.yul\":6497:6498   */\n      0x00\n        /* \"#utility.yul\":6490:6502   */\n      revert\n        /* \"#utility.yul\":6514:6694   */\n    tag_302:\n        /* \"#utility.yul\":6562:6639   */\n      0x4e487b7100000000000000000000000000000000000000000000000000000000\n        /* \"#utility.yul\":6559:6560   */\n      0x00\n        /* \"#utility.yul\":6552:6640   */\n      mstore\n        /* \"#utility.yul\":6659:6663   */\n      0x41\n        /* \"#utility.yul\":6656:6657   */\n      0x04\n        /* \"#utility.yul\":6649:6664   */\n      mstore\n        /* \"#utility.yul\":6683:6687   */\n      0x24\n        /* \"#utility.yul\":6680:6681   */\n      0x00\n        /* \"#utility.yul\":6673:6688   */\n      revert\n        /* \"#utility.yul\":6700:6981   */\n    tag_303:\n        /* \"#utility.yul\":6783:6810   */\n      tag_447\n        /* \"#utility.yul\":6805:6809   */\n      dup3\n        /* \"#utility.yul\":6783:6810   */\n      tag_294\n      jump\t// in\n    tag_447:\n        /* \"#utility.yul\":6775:6781   */\n      dup2\n        /* \"#utility.yul\":6771:6811   */\n      add\n        /* \"#utility.yul\":6913:6919   */\n      dup2\n        /* \"#utility.yul\":6901:6911   */\n      dup2\n        /* \"#utility.yul\":6898:6920   */\n      lt\n        /* \"#utility.yul\":6877:6895   */\n      0xffffffffffffffff\n        /* \"#utility.yul\":6865:6875   */\n      dup3\n        /* \"#utility.yul\":6862:6896   */\n      gt\n        /* \"#utility.yul\":6859:6921   */\n      or\n        /* \"#utility.yul\":6856:6944   */\n      iszero\n      tag_448\n      jumpi\n        /* \"#utility.yul\":6924:6942   */\n      tag_449\n      tag_302\n      jump\t// in\n    tag_449:\n        /* \"#utility.yul\":6856:6944   */\n    tag_448:\n        /* \"#utility.yul\":6964:6974   */\n      dup1\n        /* \"#utility.yul\":6960:6962   */\n      0x40\n        /* \"#utility.yul\":6953:6975   */\n      mstore\n        /* \"#utility.yul\":6743:6981   */\n      pop\n        /* \"#utility.yul\":6700:6981   */\n      pop\n      pop\n      jump\t// out\n        /* \"#utility.yul\":6987:7116   */\n    tag_304:\n        /* \"#utility.yul\":7021:7027   */\n      0x00\n        /* \"#utility.yul\":7048:7068   */\n      tag_451\n      tag_281\n      jump\t// in\n    tag_451:\n        /* \"#utility.yul\":7038:7068   */\n      swap1\n      pop\n        /* \"#utility.yul\":7077:7110   */\n      tag_452\n        /* \"#utility.yul\":7105:7109   */\n      dup3\n        /* \"#utility.yul\":7097:7103   */\n      dup3\n        /* \"#utility.yul\":7077:7110   */\n      tag_303\n      jump\t// in\n    tag_452:\n        /* \"#utility.yul\":6987:7116   */\n      swap2\n      swap1\n      pop\n      jump\t// out\n        /* \"#utility.yul\":7122:7430   */\n    tag_305:\n        /* \"#utility.yul\":7184:7188   */\n      0x00\n        /* \"#utility.yul\":7274:7292   */\n      0xffffffffffffffff\n        /* \"#utility.yul\":7266:7272   */\n      dup3\n        /* \"#utility.yul\":7263:7293   */\n      gt\n        /* \"#utility.yul\":7260:7316   */\n      iszero\n      tag_454\n      jumpi\n        /* \"#utility.yul\":7296:7314   */\n      tag_455\n      tag_302\n      jump\t// in\n    tag_455:\n        /* \"#utility.yul\":7260:7316   */\n    tag_454:\n        /* \"#utility.yul\":7334:7363   */\n      tag_456\n        /* \"#utility.yul\":7356:7362   */\n      dup3\n        /* \"#utility.yul\":7334:7363   */\n      tag_294\n      jump\t// in\n    tag_456:\n        /* \"#utility.yul\":7326:7363   */\n      swap1\n      pop\n        /* \"#utility.yul\":7418:7422   */\n      0x20\n        /* \"#utility.yul\":7412:7416   */\n      dup2\n        /* \"#utility.yul\":7408:7423   */\n      add\n        /* \"#utility.yul\":7400:7423   */\n      swap1\n      pop\n        /* \"#utility.yul\":7122:7430   */\n      swap2\n      swap1\n      pop\n      jump\t// out\n        /* \"#utility.yul\":7436:7584   */\n    tag_306:\n        /* \"#utility.yul\":7534:7540   */\n      dup3\n        /* \"#utility.yul\":7529:7532   */\n      dup2\n        /* \"#utility.yul\":7524:7527   */\n      dup4\n        /* \"#utility.yul\":7511:7541   */\n      calldatacopy\n        /* \"#utility.yul\":7575:7576   */\n      0x00\n        /* \"#utility.yul\":7566:7572   */\n      dup4\n        /* \"#utility.yul\":7561:7564   */\n      dup4\n        /* \"#utility.yul\":7557:7573   */\n      add\n        /* \"#utility.yul\":7550:7577   */\n      mstore\n        /* \"#utility.yul\":7436:7584   */\n      pop\n      pop\n      pop\n      jump\t// out\n        /* \"#utility.yul\":7590:8015   */\n    tag_307:\n        /* \"#utility.yul\":7668:7673   */\n      0x00\n        /* \"#utility.yul\":7693:7759   */\n      tag_459\n        /* \"#utility.yul\":7709:7758   */\n      tag_460\n        /* \"#utility.yul\":7751:7757   */\n      dup5\n        /* \"#utility.yul\":7709:7758   */\n      tag_305\n      jump\t// in\n    tag_460:\n        /* \"#utility.yul\":7693:7759   */\n      tag_304\n      jump\t// in\n    tag_459:\n        /* \"#utility.yul\":7684:7759   */\n      swap1\n      pop\n        /* \"#utility.yul\":7782:7788   */\n      dup3\n        /* \"#utility.yul\":7775:7780   */\n      dup2\n        /* \"#utility.yul\":7768:7789   */\n      mstore\n        /* \"#utility.yul\":7820:7824   */\n      0x20\n        /* \"#utility.yul\":7813:7818   */\n      dup2\n        /* \"#utility.yul\":7809:7825   */\n      add\n        /* \"#utility.yul\":7858:7861   */\n      dup5\n        /* \"#utility.yul\":7849:7855   */\n      dup5\n        /* \"#utility.yul\":7844:7847   */\n      dup5\n        /* \"#utility.yul\":7840:7856   */\n      add\n        /* \"#utility.yul\":7837:7862   */\n      gt\n        /* \"#utility.yul\":7834:7946   */\n      iszero\n      tag_461\n      jumpi\n        /* \"#utility.yul\":7865:7944   */\n      tag_462\n      tag_301\n      jump\t// in\n    tag_462:\n        /* \"#utility.yul\":7834:7946   */\n    tag_461:\n        /* \"#utility.yul\":7955:8009   */\n      tag_463\n        /* \"#utility.yul\":8002:8008   */\n      dup5\n        /* \"#utility.yul\":7997:8000   */\n      dup3\n        /* \"#utility.yul\":7992:7995   */\n      dup6\n        /* \"#utility.yul\":7955:8009   */\n      tag_306\n      jump\t// in\n    tag_463:\n        /* \"#utility.yul\":7674:8015   */\n      pop\n        /* \"#utility.yul\":7590:8015   */\n      swap4\n      swap3\n      pop\n      pop\n      pop\n      jump\t// out\n        /* \"#utility.yul\":8035:8375   */\n    tag_308:\n        /* \"#utility.yul\":8091:8096   */\n      0x00\n        /* \"#utility.yul\":8140:8143   */\n      dup3\n        /* \"#utility.yul\":8133:8137   */\n      0x1f\n        /* \"#utility.yul\":8125:8131   */\n      dup4\n        /* \"#utility.yul\":8121:8138   */\n      add\n        /* \"#utility.yul\":8117:8144   */\n      slt\n        /* \"#utility.yul\":8107:8229   */\n      tag_465\n      jumpi\n        /* \"#utility.yul\":8148:8227   */\n      tag_466\n      tag_300\n      jump\t// in\n    tag_466:\n        /* \"#utility.yul\":8107:8229   */\n    tag_465:\n        /* \"#utility.yul\":8265:8271   */\n      dup2\n        /* \"#utility.yul\":8252:8272   */\n      calldataload\n        /* \"#utility.yul\":8290:8369   */\n      tag_467\n        /* \"#utility.yul\":8365:8368   */\n      dup5\n        /* \"#utility.yul\":8357:8363   */\n      dup3\n        /* \"#utility.yul\":8350:8354   */\n      0x20\n        /* \"#utility.yul\":8342:8348   */\n      dup7\n        /* \"#utility.yul\":8338:8355   */\n      add\n        /* \"#utility.yul\":8290:8369   */\n      tag_307\n      jump\t// in\n    tag_467:\n        /* \"#utility.yul\":8281:8369   */\n      swap2\n      pop\n        /* \"#utility.yul\":8097:8375   */\n      pop\n        /* \"#utility.yul\":8035:8375   */\n      swap3\n      swap2\n      pop\n      pop\n      jump\t// out\n        /* \"#utility.yul\":8381:9652   */\n    tag_106:\n        /* \"#utility.yul\":8496:8502   */\n      0x00\n        /* \"#utility.yul\":8504:8510   */\n      0x00\n        /* \"#utility.yul\":8512:8518   */\n      0x00\n        /* \"#utility.yul\":8520:8526   */\n      0x00\n        /* \"#utility.yul\":8528:8534   */\n      0x00\n        /* \"#utility.yul\":8577:8580   */\n      0xa0\n        /* \"#utility.yul\":8565:8574   */\n      dup7\n        /* \"#utility.yul\":8556:8563   */\n      dup9\n        /* \"#utility.yul\":8552:8575   */\n      sub\n        /* \"#utility.yul\":8548:8581   */\n      slt\n        /* \"#utility.yul\":8545:8665   */\n      iszero\n      tag_469\n      jumpi\n        /* \"#utility.yul\":8584:8663   */\n      tag_470\n      tag_282\n      jump\t// in\n    tag_470:\n        /* \"#utility.yul\":8545:8665   */\n    tag_469:\n        /* \"#utility.yul\":8732:8733   */\n      0x00\n        /* \"#utility.yul\":8721:8730   */\n      dup7\n        /* \"#utility.yul\":8717:8734   */\n      add\n        /* \"#utility.yul\":8704:8735   */\n      calldataload\n        /* \"#utility.yul\":8762:8780   */\n      0xffffffffffffffff\n        /* \"#utility.yul\":8754:8760   */\n      dup2\n        /* \"#utility.yul\":8751:8781   */\n      gt\n        /* \"#utility.yul\":8748:8865   */\n      iszero\n      tag_471\n      jumpi\n        /* \"#utility.yul\":8784:8863   */\n      tag_472\n      tag_283\n      jump\t// in\n    tag_472:\n        /* \"#utility.yul\":8748:8865   */\n    tag_471:\n        /* \"#utility.yul\":8889:8952   */\n      tag_473\n        /* \"#utility.yul\":8944:8951   */\n      dup9\n        /* \"#utility.yul\":8935:8941   */\n      dup3\n        /* \"#utility.yul\":8924:8933   */\n      dup10\n        /* \"#utility.yul\":8920:8942   */\n      add\n        /* \"#utility.yul\":8889:8952   */\n      tag_308\n      jump\t// in\n    tag_473:\n        /* \"#utility.yul\":8879:8952   */\n      swap6\n      pop\n        /* \"#utility.yul\":8675:8962   */\n      pop\n        /* \"#utility.yul\":9029:9031   */\n      0x20\n        /* \"#utility.yul\":9018:9027   */\n      dup7\n        /* \"#utility.yul\":9014:9032   */\n      add\n        /* \"#utility.yul\":9001:9033   */\n      calldataload\n        /* \"#utility.yul\":9060:9078   */\n      0xffffffffffffffff\n        /* \"#utility.yul\":9052:9058   */\n      dup2\n        /* \"#utility.yul\":9049:9079   */\n      gt\n        /* \"#utility.yul\":9046:9163   */\n      iszero\n      tag_474\n      jumpi\n        /* \"#utility.yul\":9082:9161   */\n      tag_475\n      tag_283\n      jump\t// in\n    tag_475:\n        /* \"#utility.yul\":9046:9163   */\n    tag_474:\n        /* \"#utility.yul\":9187:9250   */\n      tag_476\n        /* \"#utility.yul\":9242:9249   */\n      dup9\n        /* \"#utility.yul\":9233:9239   */\n      dup3\n        /* \"#utility.yul\":9222:9231   */\n      dup10\n        /* \"#utility.yul\":9218:9240   */\n      add\n        /* \"#utility.yul\":9187:9250   */\n      tag_308\n      jump\t// in\n    tag_476:\n        /* \"#utility.yul\":9177:9250   */\n      swap5\n      pop\n        /* \"#utility.yul\":8972:9260   */\n      pop\n        /* \"#utility.yul\":9299:9301   */\n      0x40\n        /* \"#utility.yul\":9325:9378   */\n      tag_477\n        /* \"#utility.yul\":9370:9377   */\n      dup9\n        /* \"#utility.yul\":9361:9367   */\n      dup3\n        /* \"#utility.yul\":9350:9359   */\n      dup10\n        /* \"#utility.yul\":9346:9368   */\n      add\n        /* \"#utility.yul\":9325:9378   */\n      tag_286\n      jump\t// in\n    tag_477:\n        /* \"#utility.yul\":9315:9378   */\n      swap4\n      pop\n        /* \"#utility.yul\":9270:9388   */\n      pop\n        /* \"#utility.yul\":9427:9429   */\n      0x60\n        /* \"#utility.yul\":9453:9506   */\n      tag_478\n        /* \"#utility.yul\":9498:9505   */\n      dup9\n        /* \"#utility.yul\":9489:9495   */\n      dup3\n        /* \"#utility.yul\":9478:9487   */\n      dup10\n        /* \"#utility.yul\":9474:9496   */\n      add\n        /* \"#utility.yul\":9453:9506   */\n      tag_286\n      jump\t// in\n    tag_478:\n        /* \"#utility.yul\":9443:9506   */\n      swap3\n      pop\n        /* \"#utility.yul\":9398:9516   */\n      pop\n        /* \"#utility.yul\":9555:9558   */\n      0x80\n        /* \"#utility.yul\":9582:9635   */\n      tag_479\n        /* \"#utility.yul\":9627:9634   */\n      dup9\n        /* \"#utility.yul\":9618:9624   */\n      dup3\n        /* \"#utility.yul\":9607:9616   */\n      dup10\n        /* \"#utility.yul\":9603:9625   */\n      add\n        /* \"#utility.yul\":9582:9635   */\n      tag_286\n      jump\t// in\n    tag_479:\n        /* \"#utility.yul\":9572:9635   */\n      swap2\n      pop\n        /* \"#utility.yul\":9526:9645   */\n      pop\n        /* \"#utility.yul\":8381:9652   */\n      swap3\n      swap6\n      pop\n      swap3\n      swap6\n      swap1\n      swap4\n      pop\n      jump\t// out\n        /* \"#utility.yul\":9658:9880   */\n    tag_112:\n        /* \"#utility.yul\":9751:9755   */\n      0x00\n        /* \"#utility.yul\":9789:9791   */\n      0x20\n        /* \"#utility.yul\":9778:9787   */\n      dup3\n        /* \"#utility.yul\":9774:9792   */\n      add\n        /* \"#utility.yul\":9766:9792   */\n      swap1\n      pop\n        /* \"#utility.yul\":9802:9873   */\n      tag_481\n        /* \"#utility.yul\":9870:9871   */\n      0x00\n        /* \"#utility.yul\":9859:9868   */\n      dup4\n        /* \"#utility.yul\":9855:9872   */\n      add\n        /* \"#utility.yul\":9846:9852   */\n      dup5\n        /* \"#utility.yul\":9802:9873   */\n      tag_290\n      jump\t// in\n    tag_481:\n        /* \"#utility.yul\":9658:9880   */\n      swap3\n      swap2\n      pop\n      pop\n      jump\t// out\n        /* \"#utility.yul\":9886:10106   */\n    tag_309:\n        /* \"#utility.yul\":10026:10060   */\n      0x70726f6a65637420686173206e6f74206265656e206372656174656420796574\n        /* \"#utility.yul\":10022:10023   */\n      0x00\n        /* \"#utility.yul\":10014:10020   */\n      dup3\n        /* \"#utility.yul\":10010:10024   */\n      add\n        /* \"#utility.yul\":10003:10061   */\n      mstore\n        /* \"#utility.yul\":10095:10098   */\n      0x2100000000000000000000000000000000000000000000000000000000000000\n        /* \"#utility.yul\":10090:10092   */\n      0x20\n        /* \"#utility.yul\":10082:10088   */\n      dup3\n        /* \"#utility.yul\":10078:10093   */\n      add\n        /* \"#utility.yul\":10071:10099   */\n      mstore\n        /* \"#utility.yul\":9886:10106   */\n      pop\n      jump\t// out\n        /* \"#utility.yul\":10112:10478   */\n    tag_310:\n        /* \"#utility.yul\":10254:10257   */\n      0x00\n        /* \"#utility.yul\":10275:10342   */\n      tag_484\n        /* \"#utility.yul\":10339:10341   */\n      0x21\n        /* \"#utility.yul\":10334:10337   */\n      dup4\n        /* \"#utility.yul\":10275:10342   */\n      tag_292\n      jump\t// in\n    tag_484:\n        /* \"#utility.yul\":10268:10342   */\n      swap2\n      pop\n        /* \"#utility.yul\":10351:10444   */\n      tag_485\n        /* \"#utility.yul\":10440:10443   */\n      dup3\n        /* \"#utility.yul\":10351:10444   */\n      tag_309\n      jump\t// in\n    tag_485:\n        /* \"#utility.yul\":10469:10471   */\n      0x40\n        /* \"#utility.yul\":10464:10467   */\n      dup3\n        /* \"#utility.yul\":10460:10472   */\n      add\n        /* \"#utility.yul\":10453:10472   */\n      swap1\n      pop\n        /* \"#utility.yul\":10112:10478   */\n      swap2\n      swap1\n      pop\n      jump\t// out\n        /* \"#utility.yul\":10484:10903   */\n    tag_120:\n        /* \"#utility.yul\":10650:10654   */\n      0x00\n        /* \"#utility.yul\":10688:10690   */\n      0x20\n        /* \"#utility.yul\":10677:10686   */\n      dup3\n        /* \"#utility.yul\":10673:10691   */\n      add\n        /* \"#utility.yul\":10665:10691   */\n      swap1\n      pop\n        /* \"#utility.yul\":10737:10746   */\n      dup2\n        /* \"#utility.yul\":10731:10735   */\n      dup2\n        /* \"#utility.yul\":10727:10747   */\n      sub\n        /* \"#utility.yul\":10723:10724   */\n      0x00\n        /* \"#utility.yul\":10712:10721   */\n      dup4\n        /* \"#utility.yul\":10708:10725   */\n      add\n        /* \"#utility.yul\":10701:10748   */\n      mstore\n        /* \"#utility.yul\":10765:10896   */\n      tag_487\n        /* \"#utility.yul\":10891:10895   */\n      dup2\n        /* \"#utility.yul\":10765:10896   */\n      tag_310\n      jump\t// in\n    tag_487:\n        /* \"#utility.yul\":10757:10896   */\n      swap1\n      pop\n        /* \"#utility.yul\":10484:10903   */\n      swap2\n      swap1\n      pop\n      jump\t// out\n        /* \"#utility.yul\":10909:11089   */\n    tag_311:\n        /* \"#utility.yul\":10957:11034   */\n      0x4e487b7100000000000000000000000000000000000000000000000000000000\n        /* \"#utility.yul\":10954:10955   */\n      0x00\n        /* \"#utility.yul\":10947:11035   */\n      mstore\n        /* \"#utility.yul\":11054:11058   */\n      0x11\n        /* \"#utility.yul\":11051:11052   */\n      0x04\n        /* \"#utility.yul\":11044:11059   */\n      mstore\n        /* \"#utility.yul\":11078:11082   */\n      0x24\n        /* \"#utility.yul\":11075:11076   */\n      0x00\n        /* \"#utility.yul\":11068:11083   */\n      revert\n        /* \"#utility.yul\":11095:11289   */\n    tag_124:\n        /* \"#utility.yul\":11135:11139   */\n      0x00\n        /* \"#utility.yul\":11155:11175   */\n      tag_490\n        /* \"#utility.yul\":11173:11174   */\n      dup3\n        /* \"#utility.yul\":11155:11175   */\n      tag_284\n      jump\t// in\n    tag_490:\n        /* \"#utility.yul\":11150:11175   */\n      swap2\n      pop\n        /* \"#utility.yul\":11189:11209   */\n      tag_491\n        /* \"#utility.yul\":11207:11208   */\n      dup4\n        /* \"#utility.yul\":11189:11209   */\n      tag_284\n      jump\t// in\n    tag_491:\n        /* \"#utility.yul\":11184:11209   */\n      swap3\n      pop\n        /* \"#utility.yul\":11233:11234   */\n      dup3\n        /* \"#utility.yul\":11230:11231   */\n      dup3\n        /* \"#utility.yul\":11226:11235   */\n      sub\n        /* \"#utility.yul\":11218:11235   */\n      swap1\n      pop\n        /* \"#utility.yul\":11257:11258   */\n      dup2\n        /* \"#utility.yul\":11251:11255   */\n      dup2\n        /* \"#utility.yul\":11248:11259   */\n      gt\n        /* \"#utility.yul\":11245:11282   */\n      iszero\n      tag_492\n      jumpi\n        /* \"#utility.yul\":11262:11280   */\n      tag_493\n      tag_311\n      jump\t// in\n    tag_493:\n        /* \"#utility.yul\":11245:11282   */\n    tag_492:\n        /* \"#utility.yul\":11095:11289   */\n      swap3\n      swap2\n      pop\n      pop\n      jump\t// out\n        /* \"#utility.yul\":11295:11537   */\n    tag_312:\n        /* \"#utility.yul\":11435:11469   */\n      0x446561646c696e65206973206f766572202c20796f752043616e277420636861\n        /* \"#utility.yul\":11431:11432   */\n      0x00\n        /* \"#utility.yul\":11423:11429   */\n      dup3\n        /* \"#utility.yul\":11419:11433   */\n      add\n        /* \"#utility.yul\":11412:11470   */\n      mstore\n        /* \"#utility.yul\":11504:11529   */\n      0x6e6765207468652066756e64696e6720676f616c202121000000000000000000\n        /* \"#utility.yul\":11499:11501   */\n      0x20\n        /* \"#utility.yul\":11491:11497   */\n      dup3\n        /* \"#utility.yul\":11487:11502   */\n      add\n        /* \"#utility.yul\":11480:11530   */\n      mstore\n        /* \"#utility.yul\":11295:11537   */\n      pop\n      jump\t// out\n        /* \"#utility.yul\":11543:11909   */\n    tag_313:\n        /* \"#utility.yul\":11685:11688   */\n      0x00\n        /* \"#utility.yul\":11706:11773   */\n      tag_496\n        /* \"#utility.yul\":11770:11772   */\n      0x37\n        /* \"#utility.yul\":11765:11768   */\n      dup4\n        /* \"#utility.yul\":11706:11773   */\n      tag_292\n      jump\t// in\n    tag_496:\n        /* \"#utility.yul\":11699:11773   */\n      swap2\n      pop\n        /* \"#utility.yul\":11782:11875   */\n      tag_497\n        /* \"#utility.yul\":11871:11874   */\n      dup3\n        /* \"#utility.yul\":11782:11875   */\n      tag_312\n      jump\t// in\n    tag_497:\n        /* \"#utility.yul\":11900:11902   */\n      0x40\n        /* \"#utility.yul\":11895:11898   */\n      dup3\n        /* \"#utility.yul\":11891:11903   */\n      add\n        /* \"#utility.yul\":11884:11903   */\n      swap1\n      pop\n        /* \"#utility.yul\":11543:11909   */\n      swap2\n      swap1\n      pop\n      jump\t// out\n        /* \"#utility.yul\":11915:12334   */\n    tag_128:\n        /* \"#utility.yul\":12081:12085   */\n      0x00\n        /* \"#utility.yul\":12119:12121   */\n      0x20\n        /* \"#utility.yul\":12108:12117   */\n      dup3\n        /* \"#utility.yul\":12104:12122   */\n      add\n        /* \"#utility.yul\":12096:12122   */\n      swap1\n      pop\n        /* \"#utility.yul\":12168:12177   */\n      dup2\n        /* \"#utility.yul\":12162:12166   */\n      dup2\n        /* \"#utility.yul\":12158:12178   */\n      sub\n        /* \"#utility.yul\":12154:12155   */\n      0x00\n        /* \"#utility.yul\":12143:12152   */\n      dup4\n        /* \"#utility.yul\":12139:12156   */\n      add\n        /* \"#utility.yul\":12132:12179   */\n      mstore\n        /* \"#utility.yul\":12196:12327   */\n      tag_499\n        /* \"#utility.yul\":12322:12326   */\n      dup2\n        /* \"#utility.yul\":12196:12327   */\n      tag_313\n      jump\t// in\n    tag_499:\n        /* \"#utility.yul\":12188:12327   */\n      swap1\n      pop\n        /* \"#utility.yul\":11915:12334   */\n      swap2\n      swap1\n      pop\n      jump\t// out\n        /* \"#utility.yul\":12340:12632   */\n    tag_314:\n        /* \"#utility.yul\":12480:12514   */\n      0x596f7520617265206e6f74207468652070726f6a6563742063726561746f7220\n        /* \"#utility.yul\":12476:12477   */\n      0x00\n        /* \"#utility.yul\":12468:12474   */\n      dup3\n        /* \"#utility.yul\":12464:12478   */\n      add\n        /* \"#utility.yul\":12457:12515   */\n      mstore\n        /* \"#utility.yul\":12549:12583   */\n      0x2c204f6e6c7920506f726a6563742063726561746f722063616e204368616e67\n        /* \"#utility.yul\":12544:12546   */\n      0x20\n        /* \"#utility.yul\":12536:12542   */\n      dup3\n        /* \"#utility.yul\":12532:12547   */\n      add\n        /* \"#utility.yul\":12525:12584   */\n      mstore\n        /* \"#utility.yul\":12618:12624   */\n      0x6520212100000000000000000000000000000000000000000000000000000000\n        /* \"#utility.yul\":12613:12615   */\n      0x40\n        /* \"#utility.yul\":12605:12611   */\n      dup3\n        /* \"#utility.yul\":12601:12616   */\n      add\n        /* \"#utility.yul\":12594:12625   */\n      mstore\n        /* \"#utility.yul\":12340:12632   */\n      pop\n      jump\t// out\n        /* \"#utility.yul\":12638:13004   */\n    tag_315:\n        /* \"#utility.yul\":12780:12783   */\n      0x00\n        /* \"#utility.yul\":12801:12868   */\n      tag_502\n        /* \"#utility.yul\":12865:12867   */\n      0x44\n        /* \"#utility.yul\":12860:12863   */\n      dup4\n        /* \"#utility.yul\":12801:12868   */\n      tag_292\n      jump\t// in\n    tag_502:\n        /* \"#utility.yul\":12794:12868   */\n      swap2\n      pop\n        /* \"#utility.yul\":12877:12970   */\n      tag_503\n        /* \"#utility.yul\":12966:12969   */\n      dup3\n        /* \"#utility.yul\":12877:12970   */\n      tag_314\n      jump\t// in\n    tag_503:\n        /* \"#utility.yul\":12995:12997   */\n      0x60\n        /* \"#utility.yul\":12990:12993   */\n      dup3\n        /* \"#utility.yul\":12986:12998   */\n      add\n        /* \"#utility.yul\":12979:12998   */\n      swap1\n      pop\n        /* \"#utility.yul\":12638:13004   */\n      swap2\n      swap1\n      pop\n      jump\t// out\n        /* \"#utility.yul\":13010:13429   */\n    tag_131:\n        /* \"#utility.yul\":13176:13180   */\n      0x00\n        /* \"#utility.yul\":13214:13216   */\n      0x20\n        /* \"#utility.yul\":13203:13212   */\n      dup3\n        /* \"#utility.yul\":13199:13217   */\n      add\n        /* \"#utility.yul\":13191:13217   */\n      swap1\n      pop\n        /* \"#utility.yul\":13263:13272   */\n      dup2\n        /* \"#utility.yul\":13257:13261   */\n      dup2\n        /* \"#utility.yul\":13253:13273   */\n      sub\n        /* \"#utility.yul\":13249:13250   */\n      0x00\n        /* \"#utility.yul\":13238:13247   */\n      dup4\n        /* \"#utility.yul\":13234:13251   */\n      add\n        /* \"#utility.yul\":13227:13274   */\n      mstore\n        /* \"#utility.yul\":13291:13422   */\n      tag_505\n        /* \"#utility.yul\":13417:13421   */\n      dup2\n        /* \"#utility.yul\":13291:13422   */\n      tag_315\n      jump\t// in\n    tag_505:\n        /* \"#utility.yul\":13283:13422   */\n      swap1\n      pop\n        /* \"#utility.yul\":13010:13429   */\n      swap2\n      swap1\n      pop\n      jump\t// out\n        /* \"#utility.yul\":13435:13615   */\n    tag_316:\n        /* \"#utility.yul\":13483:13560   */\n      0x4e487b7100000000000000000000000000000000000000000000000000000000\n        /* \"#utility.yul\":13480:13481   */\n      0x00\n        /* \"#utility.yul\":13473:13561   */\n      mstore\n        /* \"#utility.yul\":13580:13584   */\n      0x22\n        /* \"#utility.yul\":13577:13578   */\n      0x04\n        /* \"#utility.yul\":13570:13585   */\n      mstore\n        /* \"#utility.yul\":13604:13608   */\n      0x24\n        /* \"#utility.yul\":13601:13602   */\n      0x00\n        /* \"#utility.yul\":13594:13609   */\n      revert\n        /* \"#utility.yul\":13621:13941   */\n    tag_133:\n        /* \"#utility.yul\":13665:13671   */\n      0x00\n        /* \"#utility.yul\":13702:13703   */\n      0x02\n        /* \"#utility.yul\":13696:13700   */\n      dup3\n        /* \"#utility.yul\":13692:13704   */\n      div\n        /* \"#utility.yul\":13682:13704   */\n      swap1\n      pop\n        /* \"#utility.yul\":13749:13750   */\n      0x01\n        /* \"#utility.yul\":13743:13747   */\n      dup3\n        /* \"#utility.yul\":13739:13751   */\n      and\n        /* \"#utility.yul\":13770:13788   */\n      dup1\n        /* \"#utility.yul\":13760:13841   */\n      tag_508\n      jumpi\n        /* \"#utility.yul\":13826:13830   */\n      0x7f\n        /* \"#utility.yul\":13818:13824   */\n      dup3\n        /* \"#utility.yul\":13814:13831   */\n      and\n        /* \"#utility.yul\":13804:13831   */\n      swap2\n      pop\n        /* \"#utility.yul\":13760:13841   */\n    tag_508:\n        /* \"#utility.yul\":13888:13890   */\n      0x20\n        /* \"#utility.yul\":13880:13886   */\n      dup3\n        /* \"#utility.yul\":13877:13891   */\n      lt\n        /* \"#utility.yul\":13857:13875   */\n      dup2\n        /* \"#utility.yul\":13854:13892   */\n      sub\n        /* \"#utility.yul\":13851:13935   */\n      tag_509\n      jumpi\n        /* \"#utility.yul\":13907:13925   */\n      tag_510\n      tag_316\n      jump\t// in\n    tag_510:\n        /* \"#utility.yul\":13851:13935   */\n    tag_509:\n        /* \"#utility.yul\":13672:13941   */\n      pop\n        /* \"#utility.yul\":13621:13941   */\n      swap2\n      swap1\n      pop\n      jump\t// out\n        /* \"#utility.yul\":13947:14180   */\n    tag_317:\n        /* \"#utility.yul\":14087:14121   */\n      0x46756e64696e6720676f616c206861732072656163686564202c207573657220\n        /* \"#utility.yul\":14083:14084   */\n      0x00\n        /* \"#utility.yul\":14075:14081   */\n      dup3\n        /* \"#utility.yul\":14071:14085   */\n      add\n        /* \"#utility.yul\":14064:14122   */\n      mstore\n        /* \"#utility.yul\":14156:14172   */\n      0x63616e2774207769746864726177000000000000000000000000000000000000\n        /* \"#utility.yul\":14151:14153   */\n      0x20\n        /* \"#utility.yul\":14143:14149   */\n      dup3\n        /* \"#utility.yul\":14139:14154   */\n      add\n        /* \"#utility.yul\":14132:14173   */\n      mstore\n        /* \"#utility.yul\":13947:14180   */\n      pop\n      jump\t// out\n        /* \"#utility.yul\":14186:14552   */\n    tag_318:\n        /* \"#utility.yul\":14328:14331   */\n      0x00\n        /* \"#utility.yul\":14349:14416   */\n      tag_513\n        /* \"#utility.yul\":14413:14415   */\n      0x2e\n        /* \"#utility.yul\":14408:14411   */\n      dup4\n        /* \"#utility.yul\":14349:14416   */\n      tag_292\n      jump\t// in\n    tag_513:\n        /* \"#utility.yul\":14342:14416   */\n      swap2\n      pop\n        /* \"#utility.yul\":14425:14518   */\n      tag_514\n        /* \"#utility.yul\":14514:14517   */\n      dup3\n        /* \"#utility.yul\":14425:14518   */\n      tag_317\n      jump\t// in\n    tag_514:\n        /* \"#utility.yul\":14543:14545   */\n      0x40\n        /* \"#utility.yul\":14538:14541   */\n      dup3\n        /* \"#utility.yul\":14534:14546   */\n      add\n        /* \"#utility.yul\":14527:14546   */\n      swap1\n      pop\n        /* \"#utility.yul\":14186:14552   */\n      swap2\n      swap1\n      pop\n      jump\t// out\n        /* \"#utility.yul\":14558:14977   */\n    tag_150:\n        /* \"#utility.yul\":14724:14728   */\n      0x00\n        /* \"#utility.yul\":14762:14764   */\n      0x20\n        /* \"#utility.yul\":14751:14760   */\n      dup3\n        /* \"#utility.yul\":14747:14765   */\n      add\n        /* \"#utility.yul\":14739:14765   */\n      swap1\n      pop\n        /* \"#utility.yul\":14811:14820   */\n      dup2\n        /* \"#utility.yul\":14805:14809   */\n      dup2\n        /* \"#utility.yul\":14801:14821   */\n      sub\n        /* \"#utility.yul\":14797:14798   */\n      0x00\n        /* \"#utility.yul\":14786:14795   */\n      dup4\n        /* \"#utility.yul\":14782:14799   */\n      add\n        /* \"#utility.yul\":14775:14822   */\n      mstore\n        /* \"#utility.yul\":14839:14970   */\n      tag_516\n        /* \"#utility.yul\":14965:14969   */\n      dup2\n        /* \"#utility.yul\":14839:14970   */\n      tag_318\n      jump\t// in\n    tag_516:\n        /* \"#utility.yul\":14831:14970   */\n      swap1\n      pop\n        /* \"#utility.yul\":14558:14977   */\n      swap2\n      swap1\n      pop\n      jump\t// out\n        /* \"#utility.yul\":14983:15315   */\n    tag_157:\n        /* \"#utility.yul\":15104:15108   */\n      0x00\n        /* \"#utility.yul\":15142:15144   */\n      0x40\n        /* \"#utility.yul\":15131:15140   */\n      dup3\n        /* \"#utility.yul\":15127:15145   */\n      add\n        /* \"#utility.yul\":15119:15145   */\n      swap1\n      pop\n        /* \"#utility.yul\":15155:15226   */\n      tag_518\n        /* \"#utility.yul\":15223:15224   */\n      0x00\n        /* \"#utility.yul\":15212:15221   */\n      dup4\n        /* \"#utility.yul\":15208:15225   */\n      add\n        /* \"#utility.yul\":15199:15205   */\n      dup6\n        /* \"#utility.yul\":15155:15226   */\n      tag_290\n      jump\t// in\n    tag_518:\n        /* \"#utility.yul\":15236:15308   */\n      tag_519\n        /* \"#utility.yul\":15304:15306   */\n      0x20\n        /* \"#utility.yul\":15293:15302   */\n      dup4\n        /* \"#utility.yul\":15289:15307   */\n      add\n        /* \"#utility.yul\":15280:15286   */\n      dup5\n        /* \"#utility.yul\":15236:15308   */\n      tag_287\n      jump\t// in\n    tag_519:\n        /* \"#utility.yul\":14983:15315   */\n      swap4\n      swap3\n      pop\n      pop\n      pop\n      jump\t// out\n        /* \"#utility.yul\":15321:15731   */\n    tag_160:\n        /* \"#utility.yul\":15361:15368   */\n      0x00\n        /* \"#utility.yul\":15384:15404   */\n      tag_521\n        /* \"#utility.yul\":15402:15403   */\n      dup3\n        /* \"#utility.yul\":15384:15404   */\n      tag_284\n      jump\t// in\n    tag_521:\n        /* \"#utility.yul\":15379:15404   */\n      swap2\n      pop\n        /* \"#utility.yul\":15418:15438   */\n      tag_522\n        /* \"#utility.yul\":15436:15437   */\n      dup4\n        /* \"#utility.yul\":15418:15438   */\n      tag_284\n      jump\t// in\n    tag_522:\n        /* \"#utility.yul\":15413:15438   */\n      swap3\n      pop\n        /* \"#utility.yul\":15473:15474   */\n      dup3\n        /* \"#utility.yul\":15470:15471   */\n      dup3\n        /* \"#utility.yul\":15466:15475   */\n      mul\n        /* \"#utility.yul\":15495:15525   */\n      tag_523\n        /* \"#utility.yul\":15513:15524   */\n      dup2\n        /* \"#utility.yul\":15495:15525   */\n      tag_284\n      jump\t// in\n    tag_523:\n        /* \"#utility.yul\":15484:15525   */\n      swap2\n      pop\n        /* \"#utility.yul\":15674:15675   */\n      dup3\n        /* \"#utility.yul\":15665:15672   */\n      dup3\n        /* \"#utility.yul\":15661:15676   */\n      div\n        /* \"#utility.yul\":15658:15659   */\n      dup5\n        /* \"#utility.yul\":15655:15677   */\n      eq\n        /* \"#utility.yul\":15635:15636   */\n      dup4\n        /* \"#utility.yul\":15628:15637   */\n      iszero\n        /* \"#utility.yul\":15608:15691   */\n      or\n        /* \"#utility.yul\":15585:15724   */\n      tag_524\n      jumpi\n        /* \"#utility.yul\":15704:15722   */\n      tag_525\n      tag_311\n      jump\t// in\n    tag_525:\n        /* \"#utility.yul\":15585:15724   */\n    tag_524:\n        /* \"#utility.yul\":15369:15731   */\n      pop\n        /* \"#utility.yul\":15321:15731   */\n      swap3\n      swap2\n      pop\n      pop\n      jump\t// out\n        /* \"#utility.yul\":15737:15917   */\n    tag_319:\n        /* \"#utility.yul\":15785:15862   */\n      0x4e487b7100000000000000000000000000000000000000000000000000000000\n        /* \"#utility.yul\":15782:15783   */\n      0x00\n        /* \"#utility.yul\":15775:15863   */\n      mstore\n        /* \"#utility.yul\":15882:15886   */\n      0x12\n        /* \"#utility.yul\":15879:15880   */\n      0x04\n        /* \"#utility.yul\":15872:15887   */\n      mstore\n        /* \"#utility.yul\":15906:15910   */\n      0x24\n        /* \"#utility.yul\":15903:15904   */\n      0x00\n        /* \"#utility.yul\":15896:15911   */\n      revert\n        /* \"#utility.yul\":15923:16108   */\n    tag_162:\n        /* \"#utility.yul\":15963:15964   */\n      0x00\n        /* \"#utility.yul\":15980:16000   */\n      tag_528\n        /* \"#utility.yul\":15998:15999   */\n      dup3\n        /* \"#utility.yul\":15980:16000   */\n      tag_284\n      jump\t// in\n    tag_528:\n        /* \"#utility.yul\":15975:16000   */\n      swap2\n      pop\n        /* \"#utility.yul\":16014:16034   */\n      tag_529\n        /* \"#utility.yul\":16032:16033   */\n      dup4\n        /* \"#utility.yul\":16014:16034   */\n      tag_284\n      jump\t// in\n    tag_529:\n        /* \"#utility.yul\":16009:16034   */\n      swap3\n      pop\n        /* \"#utility.yul\":16053:16054   */\n      dup3\n        /* \"#utility.yul\":16043:16078   */\n      tag_530\n      jumpi\n        /* \"#utility.yul\":16058:16076   */\n      tag_531\n      tag_319\n      jump\t// in\n    tag_531:\n        /* \"#utility.yul\":16043:16078   */\n    tag_530:\n        /* \"#utility.yul\":16100:16101   */\n      dup3\n        /* \"#utility.yul\":16097:16098   */\n      dup3\n        /* \"#utility.yul\":16093:16102   */\n      div\n        /* \"#utility.yul\":16088:16102   */\n      swap1\n      pop\n        /* \"#utility.yul\":15923:16108   */\n      swap3\n      swap2\n      pop\n      pop\n      jump\t// out\n        /* \"#utility.yul\":16114:16347   */\n    tag_320:\n        /* \"#utility.yul\":16254:16288   */\n      0x4f6e6c792050726f6a6563742063726561746f722063616e20657874656e6420\n        /* \"#utility.yul\":16250:16251   */\n      0x00\n        /* \"#utility.yul\":16242:16248   */\n      dup3\n        /* \"#utility.yul\":16238:16252   */\n      add\n        /* \"#utility.yul\":16231:16289   */\n      mstore\n        /* \"#utility.yul\":16323:16339   */\n      0x74686520646561646c696e652121000000000000000000000000000000000000\n        /* \"#utility.yul\":16318:16320   */\n      0x20\n        /* \"#utility.yul\":16310:16316   */\n      dup3\n        /* \"#utility.yul\":16306:16321   */\n      add\n        /* \"#utility.yul\":16299:16340   */\n      mstore\n        /* \"#utility.yul\":16114:16347   */\n      pop\n      jump\t// out\n        /* \"#utility.yul\":16353:16719   */\n    tag_321:\n        /* \"#utility.yul\":16495:16498   */\n      0x00\n        /* \"#utility.yul\":16516:16583   */\n      tag_534\n        /* \"#utility.yul\":16580:16582   */\n      0x2e\n        /* \"#utility.yul\":16575:16578   */\n      dup4\n        /* \"#utility.yul\":16516:16583   */\n      tag_292\n      jump\t// in\n    tag_534:\n        /* \"#utility.yul\":16509:16583   */\n      swap2\n      pop\n        /* \"#utility.yul\":16592:16685   */\n      tag_535\n        /* \"#utility.yul\":16681:16684   */\n      dup3\n        /* \"#utility.yul\":16592:16685   */\n      tag_320\n      jump\t// in\n    tag_535:\n        /* \"#utility.yul\":16710:16712   */\n      0x40\n        /* \"#utility.yul\":16705:16708   */\n      dup3\n        /* \"#utility.yul\":16701:16713   */\n      add\n        /* \"#utility.yul\":16694:16713   */\n      swap1\n      pop\n        /* \"#utility.yul\":16353:16719   */\n      swap2\n      swap1\n      pop\n      jump\t// out\n        /* \"#utility.yul\":16725:17144   */\n    tag_167:\n        /* \"#utility.yul\":16891:16895   */\n      0x00\n        /* \"#utility.yul\":16929:16931   */\n      0x20\n        /* \"#utility.yul\":16918:16927   */\n      dup3\n        /* \"#utility.yul\":16914:16932   */\n      add\n        /* \"#utility.yul\":16906:16932   */\n      swap1\n      pop\n        /* \"#utility.yul\":16978:16987   */\n      dup2\n        /* \"#utility.yul\":16972:16976   */\n      dup2\n        /* \"#utility.yul\":16968:16988   */\n      sub\n        /* \"#utility.yul\":16964:16965   */\n      0x00\n        /* \"#utility.yul\":16953:16962   */\n      dup4\n        /* \"#utility.yul\":16949:16966   */\n      add\n        /* \"#utility.yul\":16942:16989   */\n      mstore\n        /* \"#utility.yul\":17006:17137   */\n      tag_537\n        /* \"#utility.yul\":17132:17136   */\n      dup2\n        /* \"#utility.yul\":17006:17137   */\n      tag_321\n      jump\t// in\n    tag_537:\n        /* \"#utility.yul\":16998:17137   */\n      swap1\n      pop\n        /* \"#utility.yul\":16725:17144   */\n      swap2\n      swap1\n      pop\n      jump\t// out\n        /* \"#utility.yul\":17150:17341   */\n    tag_169:\n        /* \"#utility.yul\":17190:17193   */\n      0x00\n        /* \"#utility.yul\":17209:17229   */\n      tag_539\n        /* \"#utility.yul\":17227:17228   */\n      dup3\n        /* \"#utility.yul\":17209:17229   */\n      tag_284\n      jump\t// in\n    tag_539:\n        /* \"#utility.yul\":17204:17229   */\n      swap2\n      pop\n        /* \"#utility.yul\":17243:17263   */\n      tag_540\n        /* \"#utility.yul\":17261:17262   */\n      dup4\n        /* \"#utility.yul\":17243:17263   */\n      tag_284\n      jump\t// in\n    tag_540:\n        /* \"#utility.yul\":17238:17263   */\n      swap3\n      pop\n        /* \"#utility.yul\":17286:17287   */\n      dup3\n        /* \"#utility.yul\":17283:17284   */\n      dup3\n        /* \"#utility.yul\":17279:17288   */\n      add\n        /* \"#utility.yul\":17272:17288   */\n      swap1\n      pop\n        /* \"#utility.yul\":17307:17310   */\n      dup1\n        /* \"#utility.yul\":17304:17305   */\n      dup3\n        /* \"#utility.yul\":17301:17311   */\n      gt\n        /* \"#utility.yul\":17298:17334   */\n      iszero\n      tag_541\n      jumpi\n        /* \"#utility.yul\":17314:17332   */\n      tag_542\n      tag_311\n      jump\t// in\n    tag_542:\n        /* \"#utility.yul\":17298:17334   */\n    tag_541:\n        /* \"#utility.yul\":17150:17341   */\n      swap3\n      swap2\n      pop\n      pop\n      jump\t// out\n        /* \"#utility.yul\":17347:17522   */\n    tag_322:\n        /* \"#utility.yul\":17487:17514   */\n      0x50726f6a65637420646561646c696e65206973206f7665722100000000000000\n        /* \"#utility.yul\":17483:17484   */\n      0x00\n        /* \"#utility.yul\":17475:17481   */\n      dup3\n        /* \"#utility.yul\":17471:17485   */\n      add\n        /* \"#utility.yul\":17464:17515   */\n      mstore\n        /* \"#utility.yul\":17347:17522   */\n      pop\n      jump\t// out\n        /* \"#utility.yul\":17528:17894   */\n    tag_323:\n        /* \"#utility.yul\":17670:17673   */\n      0x00\n        /* \"#utility.yul\":17691:17758   */\n      tag_545\n        /* \"#utility.yul\":17755:17757   */\n      0x19\n        /* \"#utility.yul\":17750:17753   */\n      dup4\n        /* \"#utility.yul\":17691:17758   */\n      tag_292\n      jump\t// in\n    tag_545:\n        /* \"#utility.yul\":17684:17758   */\n      swap2\n      pop\n        /* \"#utility.yul\":17767:17860   */\n      tag_546\n        /* \"#utility.yul\":17856:17859   */\n      dup3\n        /* \"#utility.yul\":17767:17860   */\n      tag_322\n      jump\t// in\n    tag_546:\n        /* \"#utility.yul\":17885:17887   */\n      0x20\n        /* \"#utility.yul\":17880:17883   */\n      dup3\n        /* \"#utility.yul\":17876:17888   */\n      add\n        /* \"#utility.yul\":17869:17888   */\n      swap1\n      pop\n        /* \"#utility.yul\":17528:17894   */\n      swap2\n      swap1\n      pop\n      jump\t// out\n        /* \"#utility.yul\":17900:18319   */\n    tag_176:\n        /* \"#utility.yul\":18066:18070   */\n      0x00\n        /* \"#utility.yul\":18104:18106   */\n      0x20\n        /* \"#utility.yul\":18093:18102   */\n      dup3\n        /* \"#utility.yul\":18089:18107   */\n      add\n        /* \"#utility.yul\":18081:18107   */\n      swap1\n      pop\n        /* \"#utility.yul\":18153:18162   */\n      dup2\n        /* \"#utility.yul\":18147:18151   */\n      dup2\n        /* \"#utility.yul\":18143:18163   */\n      sub\n        /* \"#utility.yul\":18139:18140   */\n      0x00\n        /* \"#utility.yul\":18128:18137   */\n      dup4\n        /* \"#utility.yul\":18124:18141   */\n      add\n        /* \"#utility.yul\":18117:18164   */\n      mstore\n        /* \"#utility.yul\":18181:18312   */\n      tag_548\n        /* \"#utility.yul\":18307:18311   */\n      dup2\n        /* \"#utility.yul\":18181:18312   */\n      tag_323\n      jump\t// in\n    tag_548:\n        /* \"#utility.yul\":18173:18312   */\n      swap1\n      pop\n        /* \"#utility.yul\":17900:18319   */\n      swap2\n      swap1\n      pop\n      jump\t// out\n        /* \"#utility.yul\":18325:18551   */\n    tag_324:\n        /* \"#utility.yul\":18465:18499   */\n      0x50726f6a6563742052656163686564206974732046756e64696e672072657175\n        /* \"#utility.yul\":18461:18462   */\n      0x00\n        /* \"#utility.yul\":18453:18459   */\n      dup3\n        /* \"#utility.yul\":18449:18463   */\n      add\n        /* \"#utility.yul\":18442:18500   */\n      mstore\n        /* \"#utility.yul\":18534:18543   */\n      0x6972656d656e7400000000000000000000000000000000000000000000000000\n        /* \"#utility.yul\":18529:18531   */\n      0x20\n        /* \"#utility.yul\":18521:18527   */\n      dup3\n        /* \"#utility.yul\":18517:18532   */\n      add\n        /* \"#utility.yul\":18510:18544   */\n      mstore\n        /* \"#utility.yul\":18325:18551   */\n      pop\n      jump\t// out\n        /* \"#utility.yul\":18557:18923   */\n    tag_325:\n        /* \"#utility.yul\":18699:18702   */\n      0x00\n        /* \"#utility.yul\":18720:18787   */\n      tag_551\n        /* \"#utility.yul\":18784:18786   */\n      0x27\n        /* \"#utility.yul\":18779:18782   */\n      dup4\n        /* \"#utility.yul\":18720:18787   */\n      tag_292\n      jump\t// in\n    tag_551:\n        /* \"#utility.yul\":18713:18787   */\n      swap2\n      pop\n        /* \"#utility.yul\":18796:18889   */\n      tag_552\n        /* \"#utility.yul\":18885:18888   */\n      dup3\n        /* \"#utility.yul\":18796:18889   */\n      tag_324\n      jump\t// in\n    tag_552:\n        /* \"#utility.yul\":18914:18916   */\n      0x40\n        /* \"#utility.yul\":18909:18912   */\n      dup3\n        /* \"#utility.yul\":18905:18917   */\n      add\n        /* \"#utility.yul\":18898:18917   */\n      swap1\n      pop\n        /* \"#utility.yul\":18557:18923   */\n      swap2\n      swap1\n      pop\n      jump\t// out\n        /* \"#utility.yul\":18929:19348   */\n    tag_179:\n        /* \"#utility.yul\":19095:19099   */\n      0x00\n        /* \"#utility.yul\":19133:19135   */\n      0x20\n        /* \"#utility.yul\":19122:19131   */\n      dup3\n        /* \"#utility.yul\":19118:19136   */\n      add\n        /* \"#utility.yul\":19110:19136   */\n      swap1\n      pop\n        /* \"#utility.yul\":19182:19191   */\n      dup2\n        /* \"#utility.yul\":19176:19180   */\n      dup2\n        /* \"#utility.yul\":19172:19192   */\n      sub\n        /* \"#utility.yul\":19168:19169   */\n      0x00\n        /* \"#utility.yul\":19157:19166   */\n      dup4\n        /* \"#utility.yul\":19153:19170   */\n      add\n        /* \"#utility.yul\":19146:19193   */\n      mstore\n        /* \"#utility.yul\":19210:19341   */\n      tag_554\n        /* \"#utility.yul\":19336:19340   */\n      dup2\n        /* \"#utility.yul\":19210:19341   */\n      tag_325\n      jump\t// in\n    tag_554:\n        /* \"#utility.yul\":19202:19341   */\n      swap1\n      pop\n        /* \"#utility.yul\":18929:19348   */\n      swap2\n      swap1\n      pop\n      jump\t// out\n        /* \"#utility.yul\":19354:19585   */\n    tag_326:\n        /* \"#utility.yul\":19494:19528   */\n      0x73656e6420736f6d6520657468657220746f20636f6e7472696275746520696e\n        /* \"#utility.yul\":19490:19491   */\n      0x00\n        /* \"#utility.yul\":19482:19488   */\n      dup3\n        /* \"#utility.yul\":19478:19492   */\n      add\n        /* \"#utility.yul\":19471:19529   */\n      mstore\n        /* \"#utility.yul\":19563:19577   */\n      0x207468652070726f6a6563740000000000000000000000000000000000000000\n        /* \"#utility.yul\":19558:19560   */\n      0x20\n        /* \"#utility.yul\":19550:19556   */\n      dup3\n        /* \"#utility.yul\":19546:19561   */\n      add\n        /* \"#utility.yul\":19539:19578   */\n      mstore\n        /* \"#utility.yul\":19354:19585   */\n      pop\n      jump\t// out\n        /* \"#utility.yul\":19591:19957   */\n    tag_327:\n        /* \"#utility.yul\":19733:19736   */\n      0x00\n        /* \"#utility.yul\":19754:19821   */\n      tag_557\n        /* \"#utility.yul\":19818:19820   */\n      0x2c\n        /* \"#utility.yul\":19813:19816   */\n      dup4\n        /* \"#utility.yul\":19754:19821   */\n      tag_292\n      jump\t// in\n    tag_557:\n        /* \"#utility.yul\":19747:19821   */\n      swap2\n      pop\n        /* \"#utility.yul\":19830:19923   */\n      tag_558\n        /* \"#utility.yul\":19919:19922   */\n      dup3\n        /* \"#utility.yul\":19830:19923   */\n      tag_326\n      jump\t// in\n    tag_558:\n        /* \"#utility.yul\":19948:19950   */\n      0x40\n        /* \"#utility.yul\":19943:19946   */\n      dup3\n        /* \"#utility.yul\":19939:19951   */\n      add\n        /* \"#utility.yul\":19932:19951   */\n      swap1\n      pop\n        /* \"#utility.yul\":19591:19957   */\n      swap2\n      swap1\n      pop\n      jump\t// out\n        /* \"#utility.yul\":19963:20382   */\n    tag_182:\n        /* \"#utility.yul\":20129:20133   */\n      0x00\n        /* \"#utility.yul\":20167:20169   */\n      0x20\n        /* \"#utility.yul\":20156:20165   */\n      dup3\n        /* \"#utility.yul\":20152:20170   */\n      add\n        /* \"#utility.yul\":20144:20170   */\n      swap1\n      pop\n        /* \"#utility.yul\":20216:20225   */\n      dup2\n        /* \"#utility.yul\":20210:20214   */\n      dup2\n        /* \"#utility.yul\":20206:20226   */\n      sub\n        /* \"#utility.yul\":20202:20203   */\n      0x00\n        /* \"#utility.yul\":20191:20200   */\n      dup4\n        /* \"#utility.yul\":20187:20204   */\n      add\n        /* \"#utility.yul\":20180:20227   */\n      mstore\n        /* \"#utility.yul\":20244:20375   */\n      tag_560\n        /* \"#utility.yul\":20370:20374   */\n      dup2\n        /* \"#utility.yul\":20244:20375   */\n      tag_327\n      jump\t// in\n    tag_560:\n        /* \"#utility.yul\":20236:20375   */\n      swap1\n      pop\n        /* \"#utility.yul\":19963:20382   */\n      swap2\n      swap1\n      pop\n      jump\t// out\n        /* \"#utility.yul\":20388:20611   */\n    tag_328:\n        /* \"#utility.yul\":20528:20562   */\n      0x416d6f756e7420436f6e7472696275746564206973206d6f7265207468616e20\n        /* \"#utility.yul\":20524:20525   */\n      0x00\n        /* \"#utility.yul\":20516:20522   */\n      dup3\n        /* \"#utility.yul\":20512:20526   */\n      add\n        /* \"#utility.yul\":20505:20563   */\n      mstore\n        /* \"#utility.yul\":20597:20603   */\n      0x476f616c00000000000000000000000000000000000000000000000000000000\n        /* \"#utility.yul\":20592:20594   */\n      0x20\n        /* \"#utility.yul\":20584:20590   */\n      dup3\n        /* \"#utility.yul\":20580:20595   */\n      add\n        /* \"#utility.yul\":20573:20604   */\n      mstore\n        /* \"#utility.yul\":20388:20611   */\n      pop\n      jump\t// out\n        /* \"#utility.yul\":20617:20983   */\n    tag_329:\n        /* \"#utility.yul\":20759:20762   */\n      0x00\n        /* \"#utility.yul\":20780:20847   */\n      tag_563\n        /* \"#utility.yul\":20844:20846   */\n      0x24\n        /* \"#utility.yul\":20839:20842   */\n      dup4\n        /* \"#utility.yul\":20780:20847   */\n      tag_292\n      jump\t// in\n    tag_563:\n        /* \"#utility.yul\":20773:20847   */\n      swap2\n      pop\n        /* \"#utility.yul\":20856:20949   */\n      tag_564\n        /* \"#utility.yul\":20945:20948   */\n      dup3\n        /* \"#utility.yul\":20856:20949   */\n      tag_328\n      jump\t// in\n    tag_564:\n        /* \"#utility.yul\":20974:20976   */\n      0x40\n        /* \"#utility.yul\":20969:20972   */\n      dup3\n        /* \"#utility.yul\":20965:20977   */\n      add\n        /* \"#utility.yul\":20958:20977   */\n      swap1\n      pop\n        /* \"#utility.yul\":20617:20983   */\n      swap2\n      swap1\n      pop\n      jump\t// out\n        /* \"#utility.yul\":20989:21408   */\n    tag_185:\n        /* \"#utility.yul\":21155:21159   */\n      0x00\n        /* \"#utility.yul\":21193:21195   */\n      0x20\n        /* \"#utility.yul\":21182:21191   */\n      dup3\n        /* \"#utility.yul\":21178:21196   */\n      add\n        /* \"#utility.yul\":21170:21196   */\n      swap1\n      pop\n        /* \"#utility.yul\":21242:21251   */\n      dup2\n        /* \"#utility.yul\":21236:21240   */\n      dup2\n        /* \"#utility.yul\":21232:21252   */\n      sub\n        /* \"#utility.yul\":21228:21229   */\n      0x00\n        /* \"#utility.yul\":21217:21226   */\n      dup4\n        /* \"#utility.yul\":21213:21230   */\n      add\n        /* \"#utility.yul\":21206:21253   */\n      mstore\n        /* \"#utility.yul\":21270:21401   */\n      tag_566\n        /* \"#utility.yul\":21396:21400   */\n      dup2\n        /* \"#utility.yul\":21270:21401   */\n      tag_329\n      jump\t// in\n    tag_566:\n        /* \"#utility.yul\":21262:21401   */\n      swap1\n      pop\n        /* \"#utility.yul\":20989:21408   */\n      swap2\n      swap1\n      pop\n      jump\t// out\n        /* \"#utility.yul\":21414:21561   */\n    tag_330:\n        /* \"#utility.yul\":21515:21526   */\n      0x00\n        /* \"#utility.yul\":21552:21555   */\n      dup2\n        /* \"#utility.yul\":21537:21555   */\n      swap1\n      pop\n        /* \"#utility.yul\":21414:21561   */\n      swap3\n      swap2\n      pop\n      pop\n      jump\t// out\n        /* \"#utility.yul\":21567:21681   */\n    tag_331:\n      pop\n      jump\t// out\n        /* \"#utility.yul\":21687:22085   */\n    tag_332:\n        /* \"#utility.yul\":21846:21849   */\n      0x00\n        /* \"#utility.yul\":21867:21950   */\n      tag_570\n        /* \"#utility.yul\":21948:21949   */\n      0x00\n        /* \"#utility.yul\":21943:21946   */\n      dup4\n        /* \"#utility.yul\":21867:21950   */\n      tag_330\n      jump\t// in\n    tag_570:\n        /* \"#utility.yul\":21860:21950   */\n      swap2\n      pop\n        /* \"#utility.yul\":21959:22052   */\n      tag_571\n        /* \"#utility.yul\":22048:22051   */\n      dup3\n        /* \"#utility.yul\":21959:22052   */\n      tag_331\n      jump\t// in\n    tag_571:\n        /* \"#utility.yul\":22077:22078   */\n      0x00\n        /* \"#utility.yul\":22072:22075   */\n      dup3\n        /* \"#utility.yul\":22068:22079   */\n      add\n        /* \"#utility.yul\":22061:22079   */\n      swap1\n      pop\n        /* \"#utility.yul\":21687:22085   */\n      swap2\n      swap1\n      pop\n      jump\t// out\n        /* \"#utility.yul\":22091:22470   */\n    tag_194:\n        /* \"#utility.yul\":22275:22278   */\n      0x00\n        /* \"#utility.yul\":22297:22444   */\n      tag_573\n        /* \"#utility.yul\":22440:22443   */\n      dup3\n        /* \"#utility.yul\":22297:22444   */\n      tag_332\n      jump\t// in\n    tag_573:\n        /* \"#utility.yul\":22290:22444   */\n      swap2\n      pop\n        /* \"#utility.yul\":22461:22464   */\n      dup2\n        /* \"#utility.yul\":22454:22464   */\n      swap1\n      pop\n        /* \"#utility.yul\":22091:22470   */\n      swap2\n      swap1\n      pop\n      jump\t// out\n        /* \"#utility.yul\":22476:22639   */\n    tag_333:\n        /* \"#utility.yul\":22616:22631   */\n      0x526566756e64204661696c656400000000000000000000000000000000000000\n        /* \"#utility.yul\":22612:22613   */\n      0x00\n        /* \"#utility.yul\":22604:22610   */\n      dup3\n        /* \"#utility.yul\":22600:22614   */\n      add\n        /* \"#utility.yul\":22593:22632   */\n      mstore\n        /* \"#utility.yul\":22476:22639   */\n      pop\n      jump\t// out\n        /* \"#utility.yul\":22645:23011   */\n    tag_334:\n        /* \"#utility.yul\":22787:22790   */\n      0x00\n        /* \"#utility.yul\":22808:22875   */\n      tag_576\n        /* \"#utility.yul\":22872:22874   */\n      0x0d\n        /* \"#utility.yul\":22867:22870   */\n      dup4\n        /* \"#utility.yul\":22808:22875   */\n      tag_292\n      jump\t// in\n    tag_576:\n        /* \"#utility.yul\":22801:22875   */\n      swap2\n      pop\n        /* \"#utility.yul\":22884:22977   */\n      tag_577\n        /* \"#utility.yul\":22973:22976   */\n      dup3\n        /* \"#utility.yul\":22884:22977   */\n      tag_333\n      jump\t// in\n    tag_577:\n        /* \"#utility.yul\":23002:23004   */\n      0x20\n        /* \"#utility.yul\":22997:23000   */\n      dup3\n        /* \"#utility.yul\":22993:23005   */\n      add\n        /* \"#utility.yul\":22986:23005   */\n      swap1\n      pop\n        /* \"#utility.yul\":22645:23011   */\n      swap2\n      swap1\n      pop\n      jump\t// out\n        /* \"#utility.yul\":23017:23436   */\n    tag_200:\n        /* \"#utility.yul\":23183:23187   */\n      0x00\n        /* \"#utility.yul\":23221:23223   */\n      0x20\n        /* \"#utility.yul\":23210:23219   */\n      dup3\n        /* \"#utility.yul\":23206:23224   */\n      add\n        /* \"#utility.yul\":23198:23224   */\n      swap1\n      pop\n        /* \"#utility.yul\":23270:23279   */\n      dup2\n        /* \"#utility.yul\":23264:23268   */\n      dup2\n        /* \"#utility.yul\":23260:23280   */\n      sub\n        /* \"#utility.yul\":23256:23257   */\n      0x00\n        /* \"#utility.yul\":23245:23254   */\n      dup4\n        /* \"#utility.yul\":23241:23258   */\n      add\n        /* \"#utility.yul\":23234:23281   */\n      mstore\n        /* \"#utility.yul\":23298:23429   */\n      tag_579\n        /* \"#utility.yul\":23424:23428   */\n      dup2\n        /* \"#utility.yul\":23298:23429   */\n      tag_334\n      jump\t// in\n    tag_579:\n        /* \"#utility.yul\":23290:23429   */\n      swap1\n      pop\n        /* \"#utility.yul\":23017:23436   */\n      swap2\n      swap1\n      pop\n      jump\t// out\n        /* \"#utility.yul\":23442:23884   */\n    tag_203:\n        /* \"#utility.yul\":23591:23595   */\n      0x00\n        /* \"#utility.yul\":23629:23631   */\n      0x60\n        /* \"#utility.yul\":23618:23627   */\n      dup3\n        /* \"#utility.yul\":23614:23632   */\n      add\n        /* \"#utility.yul\":23606:23632   */\n      swap1\n      pop\n        /* \"#utility.yul\":23642:23713   */\n      tag_581\n        /* \"#utility.yul\":23710:23711   */\n      0x00\n        /* \"#utility.yul\":23699:23708   */\n      dup4\n        /* \"#utility.yul\":23695:23712   */\n      add\n        /* \"#utility.yul\":23686:23692   */\n      dup7\n        /* \"#utility.yul\":23642:23713   */\n      tag_290\n      jump\t// in\n    tag_581:\n        /* \"#utility.yul\":23723:23795   */\n      tag_582\n        /* \"#utility.yul\":23791:23793   */\n      0x20\n        /* \"#utility.yul\":23780:23789   */\n      dup4\n        /* \"#utility.yul\":23776:23794   */\n      add\n        /* \"#utility.yul\":23767:23773   */\n      dup6\n        /* \"#utility.yul\":23723:23795   */\n      tag_287\n      jump\t// in\n    tag_582:\n        /* \"#utility.yul\":23805:23877   */\n      tag_583\n        /* \"#utility.yul\":23873:23875   */\n      0x40\n        /* \"#utility.yul\":23862:23871   */\n      dup4\n        /* \"#utility.yul\":23858:23876   */\n      add\n        /* \"#utility.yul\":23849:23855   */\n      dup5\n        /* \"#utility.yul\":23805:23877   */\n      tag_287\n      jump\t// in\n    tag_583:\n        /* \"#utility.yul\":23442:23884   */\n      swap5\n      swap4\n      pop\n      pop\n      pop\n      pop\n      jump\t// out\n        /* \"#utility.yul\":23890:24123   */\n    tag_208:\n        /* \"#utility.yul\":23929:23932   */\n      0x00\n        /* \"#utility.yul\":23952:23976   */\n      tag_585\n        /* \"#utility.yul\":23970:23975   */\n      dup3\n        /* \"#utility.yul\":23952:23976   */\n      tag_284\n      jump\t// in\n    tag_585:\n        /* \"#utility.yul\":23943:23976   */\n      swap2\n      pop\n        /* \"#utility.yul\":23998:24064   */\n      0xffffffffffffffffffffffffffffffffffffffffffffffffffffffffffffffff\n        /* \"#utility.yul\":23991:23996   */\n      dup3\n        /* \"#utility.yul\":23988:24065   */\n      sub\n        /* \"#utility.yul\":23985:24088   */\n      tag_586\n      jumpi\n        /* \"#utility.yul\":24068:24086   */\n      tag_587\n      tag_311\n      jump\t// in\n    tag_587:\n        /* \"#utility.yul\":23985:24088   */\n    tag_586:\n        /* \"#utility.yul\":24115:24116   */\n      0x01\n        /* \"#utility.yul\":24108:24113   */\n      dup3\n        /* \"#utility.yul\":24104:24117   */\n      add\n        /* \"#utility.yul\":24097:24117   */\n      swap1\n      pop\n        /* \"#utility.yul\":23890:24123   */\n      swap2\n      swap1\n      pop\n      jump\t// out\n        /* \"#utility.yul\":24129:24306   */\n    tag_335:\n        /* \"#utility.yul\":24269:24298   */\n      0x446561646c696e65206973206e6f742072656163686564207965740000000000\n        /* \"#utility.yul\":24265:24266   */\n      0x00\n        /* \"#utility.yul\":24257:24263   */\n      dup3\n        /* \"#utility.yul\":24253:24267   */\n      add\n        /* \"#utility.yul\":24246:24299   */\n      mstore\n        /* \"#utility.yul\":24129:24306   */\n      pop\n      jump\t// out\n        /* \"#utility.yul\":24312:24678   */\n    tag_336:\n        /* \"#utility.yul\":24454:24457   */\n      0x00\n        /* \"#utility.yul\":24475:24542   */\n      tag_590\n        /* \"#utility.yul\":24539:24541   */\n      0x1b\n        /* \"#utility.yul\":24534:24537   */\n      dup4\n        /* \"#utility.yul\":24475:24542   */\n      tag_292\n      jump\t// in\n    tag_590:\n        /* \"#utility.yul\":24468:24542   */\n      swap2\n      pop\n        /* \"#utility.yul\":24551:24644   */\n      tag_591\n        /* \"#utility.yul\":24640:24643   */\n      dup3\n        /* \"#utility.yul\":24551:24644   */\n      tag_335\n      jump\t// in\n    tag_591:\n        /* \"#utility.yul\":24669:24671   */\n      0x20\n        /* \"#utility.yul\":24664:24667   */\n      dup3\n        /* \"#utility.yul\":24660:24672   */\n      add\n        /* \"#utility.yul\":24653:24672   */\n      swap1\n      pop\n        /* \"#utility.yul\":24312:24678   */\n      swap2\n      swap1\n      pop\n      jump\t// out\n        /* \"#utility.yul\":24684:25103   */\n    tag_213:\n        /* \"#utility.yul\":24850:24854   */\n      0x00\n        /* \"#utility.yul\":24888:24890   */\n      0x20\n        /* \"#utility.yul\":24877:24886   */\n      dup3\n        /* \"#utility.yul\":24873:24891   */\n      add\n        /* \"#utility.yul\":24865:24891   */\n      swap1\n      pop\n        /* \"#utility.yul\":24937:24946   */\n      dup2\n        /* \"#utility.yul\":24931:24935   */\n      dup2\n        /* \"#utility.yul\":24927:24947   */\n      sub\n        /* \"#utility.yul\":24923:24924   */\n      0x00\n        /* \"#utility.yul\":24912:24921   */\n      dup4\n        /* \"#utility.yul\":24908:24925   */\n      add\n        /* \"#utility.yul\":24901:24948   */\n      mstore\n        /* \"#utility.yul\":24965:25096   */\n      tag_593\n        /* \"#utility.yul\":25091:25095   */\n      dup2\n        /* \"#utility.yul\":24965:25096   */\n      tag_336\n      jump\t// in\n    tag_593:\n        /* \"#utility.yul\":24957:25096   */\n      swap1\n      pop\n        /* \"#utility.yul\":24684:25103   */\n      swap2\n      swap1\n      pop\n      jump\t// out\n        /* \"#utility.yul\":25109:25281   */\n    tag_337:\n        /* \"#utility.yul\":25249:25273   */\n      0x50726f6a65637420616c72656164792066756e64656400000000000000000000\n        /* \"#utility.yul\":25245:25246   */\n      0x00\n        /* \"#utility.yul\":25237:25243   */\n      dup3\n        /* \"#utility.yul\":25233:25247   */\n      add\n        /* \"#utility.yul\":25226:25274   */\n      mstore\n        /* \"#utility.yul\":25109:25281   */\n      pop\n      jump\t// out\n        /* \"#utility.yul\":25287:25653   */\n    tag_338:\n        /* \"#utility.yul\":25429:25432   */\n      0x00\n        /* \"#utility.yul\":25450:25517   */\n      tag_596\n        /* \"#utility.yul\":25514:25516   */\n      0x16\n        /* \"#utility.yul\":25509:25512   */\n      dup4\n        /* \"#utility.yul\":25450:25517   */\n      tag_292\n      jump\t// in\n    tag_596:\n        /* \"#utility.yul\":25443:25517   */\n      swap2\n      pop\n        /* \"#utility.yul\":25526:25619   */\n      tag_597\n        /* \"#utility.yul\":25615:25618   */\n      dup3\n        /* \"#utility.yul\":25526:25619   */\n      tag_337\n      jump\t// in\n    tag_597:\n        /* \"#utility.yul\":25644:25646   */\n      0x20\n        /* \"#utility.yul\":25639:25642   */\n      dup3\n        /* \"#utility.yul\":25635:25647   */\n      add\n        /* \"#utility.yul\":25628:25647   */\n      swap1\n      pop\n        /* \"#utility.yul\":25287:25653   */\n      swap2\n      swap1\n      pop\n      jump\t// out\n        /* \"#utility.yul\":25659:26078   */\n    tag_216:\n        /* \"#utility.yul\":25825:25829   */\n      0x00\n        /* \"#utility.yul\":25863:25865   */\n      0x20\n        /* \"#utility.yul\":25852:25861   */\n      dup3\n        /* \"#utility.yul\":25848:25866   */\n      add\n        /* \"#utility.yul\":25840:25866   */\n      swap1\n      pop\n        /* \"#utility.yul\":25912:25921   */\n      dup2\n        /* \"#utility.yul\":25906:25910   */\n      dup2\n        /* \"#utility.yul\":25902:25922   */\n      sub\n        /* \"#utility.yul\":25898:25899   */\n      0x00\n        /* \"#utility.yul\":25887:25896   */\n      dup4\n        /* \"#utility.yul\":25883:25900   */\n      add\n        /* \"#utility.yul\":25876:25923   */\n      mstore\n        /* \"#utility.yul\":25940:26071   */\n      tag_599\n        /* \"#utility.yul\":26066:26070   */\n      dup2\n        /* \"#utility.yul\":25940:26071   */\n      tag_338\n      jump\t// in\n    tag_599:\n        /* \"#utility.yul\":25932:26071   */\n      swap1\n      pop\n        /* \"#utility.yul\":25659:26078   */\n      swap2\n      swap1\n      pop\n      jump\t// out\n        /* \"#utility.yul\":26084:26322   */\n    tag_339:\n        /* \"#utility.yul\":26224:26258   */\n      0x66756e64696e6720676f616c20686173206e6f742072656163686564202c2061\n        /* \"#utility.yul\":26220:26221   */\n      0x00\n        /* \"#utility.yul\":26212:26218   */\n      dup3\n        /* \"#utility.yul\":26208:26222   */\n      add\n        /* \"#utility.yul\":26201:26259   */\n      mstore\n        /* \"#utility.yul\":26293:26314   */\n      0x646d696e2063616e277420776974686472617700000000000000000000000000\n        /* \"#utility.yul\":26288:26290   */\n      0x20\n        /* \"#utility.yul\":26280:26286   */\n      dup3\n        /* \"#utility.yul\":26276:26291   */\n      add\n        /* \"#utility.yul\":26269:26315   */\n      mstore\n        /* \"#utility.yul\":26084:26322   */\n      pop\n      jump\t// out\n        /* \"#utility.yul\":26328:26694   */\n    tag_340:\n        /* \"#utility.yul\":26470:26473   */\n      0x00\n        /* \"#utility.yul\":26491:26558   */\n      tag_602\n        /* \"#utility.yul\":26555:26557   */\n      0x33\n        /* \"#utility.yul\":26550:26553   */\n      dup4\n        /* \"#utility.yul\":26491:26558   */\n      tag_292\n      jump\t// in\n    tag_602:\n        /* \"#utility.yul\":26484:26558   */\n      swap2\n      pop\n        /* \"#utility.yul\":26567:26660   */\n      tag_603\n        /* \"#utility.yul\":26656:26659   */\n      dup3\n        /* \"#utility.yul\":26567:26660   */\n      tag_339\n      jump\t// in\n    tag_603:\n        /* \"#utility.yul\":26685:26687   */\n      0x40\n        /* \"#utility.yul\":26680:26683   */\n      dup3\n        /* \"#utility.yul\":26676:26688   */\n      add\n        /* \"#utility.yul\":26669:26688   */\n      swap1\n      pop\n        /* \"#utility.yul\":26328:26694   */\n      swap2\n      swap1\n      pop\n      jump\t// out\n        /* \"#utility.yul\":26700:27119   */\n    tag_223:\n        /* \"#utility.yul\":26866:26870   */\n      0x00\n        /* \"#utility.yul\":26904:26906   */\n      0x20\n        /* \"#utility.yul\":26893:26902   */\n      dup3\n        /* \"#utility.yul\":26889:26907   */\n      add\n        /* \"#utility.yul\":26881:26907   */\n      swap1\n      pop\n        /* \"#utility.yul\":26953:26962   */\n      dup2\n        /* \"#utility.yul\":26947:26951   */\n      dup2\n        /* \"#utility.yul\":26943:26963   */\n      sub\n        /* \"#utility.yul\":26939:26940   */\n      0x00\n        /* \"#utility.yul\":26928:26937   */\n      dup4\n        /* \"#utility.yul\":26924:26941   */\n      add\n        /* \"#utility.yul\":26917:26964   */\n      mstore\n        /* \"#utility.yul\":26981:27112   */\n      tag_605\n        /* \"#utility.yul\":27107:27111   */\n      dup2\n        /* \"#utility.yul\":26981:27112   */\n      tag_340\n      jump\t// in\n    tag_605:\n        /* \"#utility.yul\":26973:27112   */\n      swap1\n      pop\n        /* \"#utility.yul\":26700:27119   */\n      swap2\n      swap1\n      pop\n      jump\t// out\n        /* \"#utility.yul\":27125:27298   */\n    tag_341:\n        /* \"#utility.yul\":27265:27290   */\n      0x6f6e6c792061646d696e2063616e207769746864726177000000000000000000\n        /* \"#utility.yul\":27261:27262   */\n      0x00\n        /* \"#utility.yul\":27253:27259   */\n      dup3\n        /* \"#utility.yul\":27249:27263   */\n      add\n        /* \"#utility.yul\":27242:27291   */\n      mstore\n        /* \"#utility.yul\":27125:27298   */\n      pop\n      jump\t// out\n        /* \"#utility.yul\":27304:27670   */\n    tag_342:\n        /* \"#utility.yul\":27446:27449   */\n      0x00\n        /* \"#utility.yul\":27467:27534   */\n      tag_608\n        /* \"#utility.yul\":27531:27533   */\n      0x17\n        /* \"#utility.yul\":27526:27529   */\n      dup4\n        /* \"#utility.yul\":27467:27534   */\n      tag_292\n      jump\t// in\n    tag_608:\n        /* \"#utility.yul\":27460:27534   */\n      swap2\n      pop\n        /* \"#utility.yul\":27543:27636   */\n      tag_609\n        /* \"#utility.yul\":27632:27635   */\n      dup3\n        /* \"#utility.yul\":27543:27636   */\n      tag_341\n      jump\t// in\n    tag_609:\n        /* \"#utility.yul\":27661:27663   */\n      0x20\n        /* \"#utility.yul\":27656:27659   */\n      dup3\n        /* \"#utility.yul\":27652:27664   */\n      add\n        /* \"#utility.yul\":27645:27664   */\n      swap1\n      pop\n        /* \"#utility.yul\":27304:27670   */\n      swap2\n      swap1\n      pop\n      jump\t// out\n        /* \"#utility.yul\":27676:28095   */\n    tag_226:\n        /* \"#utility.yul\":27842:27846   */\n      0x00\n        /* \"#utility.yul\":27880:27882   */\n      0x20\n        /* \"#utility.yul\":27869:27878   */\n      dup3\n        /* \"#utility.yul\":27865:27883   */\n      add\n        /* \"#utility.yul\":27857:27883   */\n      swap1\n      pop\n        /* \"#utility.yul\":27929:27938   */\n      dup2\n        /* \"#utility.yul\":27923:27927   */\n      dup2\n        /* \"#utility.yul\":27919:27939   */\n      sub\n        /* \"#utility.yul\":27915:27916   */\n      0x00\n        /* \"#utility.yul\":27904:27913   */\n      dup4\n        /* \"#utility.yul\":27900:27917   */\n      add\n        /* \"#utility.yul\":27893:27940   */\n      mstore\n        /* \"#utility.yul\":27957:28088   */\n      tag_611\n        /* \"#utility.yul\":28083:28087   */\n      dup2\n        /* \"#utility.yul\":27957:28088   */\n      tag_342\n      jump\t// in\n    tag_611:\n        /* \"#utility.yul\":27949:28088   */\n      swap1\n      pop\n        /* \"#utility.yul\":27676:28095   */\n      swap2\n      swap1\n      pop\n      jump\t// out\n        /* \"#utility.yul\":28101:28335   */\n    tag_343:\n        /* \"#utility.yul\":28241:28275   */\n      0x646561646c696e6520686173206e6f742072656163686564202c2061646d696e\n        /* \"#utility.yul\":28237:28238   */\n      0x00\n        /* \"#utility.yul\":28229:28235   */\n      dup3\n        /* \"#utility.yul\":28225:28239   */\n      add\n        /* \"#utility.yul\":28218:28276   */\n      mstore\n        /* \"#utility.yul\":28310:28327   */\n      0x2063616e27742077697468647261770000000000000000000000000000000000\n        /* \"#utility.yul\":28305:28307   */\n      0x20\n        /* \"#utility.yul\":28297:28303   */\n      dup3\n        /* \"#utility.yul\":28293:28308   */\n      add\n        /* \"#utility.yul\":28286:28328   */\n      mstore\n        /* \"#utility.yul\":28101:28335   */\n      pop\n      jump\t// out\n        /* \"#utility.yul\":28341:28707   */\n    tag_344:\n        /* \"#utility.yul\":28483:28486   */\n      0x00\n        /* \"#utility.yul\":28504:28571   */\n      tag_614\n        /* \"#utility.yul\":28568:28570   */\n      0x2f\n        /* \"#utility.yul\":28563:28566   */\n      dup4\n        /* \"#utility.yul\":28504:28571   */\n      tag_292\n      jump\t// in\n    tag_614:\n        /* \"#utility.yul\":28497:28571   */\n      swap2\n      pop\n        /* \"#utility.yul\":28580:28673   */\n      tag_615\n        /* \"#utility.yul\":28669:28672   */\n      dup3\n        /* \"#utility.yul\":28580:28673   */\n      tag_343\n      jump\t// in\n    tag_615:\n        /* \"#utility.yul\":28698:28700   */\n      0x40\n        /* \"#utility.yul\":28693:28696   */\n      dup3\n        /* \"#utility.yul\":28689:28701   */\n      add\n        /* \"#utility.yul\":28682:28701   */\n      swap1\n      pop\n        /* \"#utility.yul\":28341:28707   */\n      swap2\n      swap1\n      pop\n      jump\t// out\n        /* \"#utility.yul\":28713:29132   */\n    tag_229:\n        /* \"#utility.yul\":28879:28883   */\n      0x00\n        /* \"#utility.yul\":28917:28919   */\n      0x20\n        /* \"#utility.yul\":28906:28915   */\n      dup3\n        /* \"#utility.yul\":28902:28920   */\n      add\n        /* \"#utility.yul\":28894:28920   */\n      swap1\n      pop\n        /* \"#utility.yul\":28966:28975   */\n      dup2\n        /* \"#utility.yul\":28960:28964   */\n      dup2\n        /* \"#utility.yul\":28956:28976   */\n      sub\n        /* \"#utility.yul\":28952:28953   */\n      0x00\n        /* \"#utility.yul\":28941:28950   */\n      dup4\n        /* \"#utility.yul\":28937:28954   */\n      add\n        /* \"#utility.yul\":28930:28977   */\n      mstore\n        /* \"#utility.yul\":28994:29125   */\n      tag_617\n        /* \"#utility.yul\":29120:29124   */\n      dup2\n        /* \"#utility.yul\":28994:29125   */\n      tag_344\n      jump\t// in\n    tag_617:\n        /* \"#utility.yul\":28986:29125   */\n      swap1\n      pop\n        /* \"#utility.yul\":28713:29132   */\n      swap2\n      swap1\n      pop\n      jump\t// out\n        /* \"#utility.yul\":29138:29309   */\n    tag_345:\n        /* \"#utility.yul\":29278:29301   */\n      0x4f6e6c792041646d696e2063616e206163636573730000000000000000000000\n        /* \"#utility.yul\":29274:29275   */\n      0x00\n        /* \"#utility.yul\":29266:29272   */\n      dup3\n        /* \"#utility.yul\":29262:29276   */\n      add\n        /* \"#utility.yul\":29255:29302   */\n      mstore\n        /* \"#utility.yul\":29138:29309   */\n      pop\n      jump\t// out\n        /* \"#utility.yul\":29315:29681   */\n    tag_346:\n        /* \"#utility.yul\":29457:29460   */\n      0x00\n        /* \"#utility.yul\":29478:29545   */\n      tag_620\n        /* \"#utility.yul\":29542:29544   */\n      0x15\n        /* \"#utility.yul\":29537:29540   */\n      dup4\n        /* \"#utility.yul\":29478:29545   */\n      tag_292\n      jump\t// in\n    tag_620:\n        /* \"#utility.yul\":29471:29545   */\n      swap2\n      pop\n        /* \"#utility.yul\":29554:29647   */\n      tag_621\n        /* \"#utility.yul\":29643:29646   */\n      dup3\n        /* \"#utility.yul\":29554:29647   */\n      tag_345\n      jump\t// in\n    tag_621:\n        /* \"#utility.yul\":29672:29674   */\n      0x20\n        /* \"#utility.yul\":29667:29670   */\n      dup3\n        /* \"#utility.yul\":29663:29675   */\n      add\n        /* \"#utility.yul\":29656:29675   */\n      swap1\n      pop\n        /* \"#utility.yul\":29315:29681   */\n      swap2\n      swap1\n      pop\n      jump\t// out\n        /* \"#utility.yul\":29687:30106   */\n    tag_236:\n        /* \"#utility.yul\":29853:29857   */\n      0x00\n        /* \"#utility.yul\":29891:29893   */\n      0x20\n        /* \"#utility.yul\":29880:29889   */\n      dup3\n        /* \"#utility.yul\":29876:29894   */\n      add\n        /* \"#utility.yul\":29868:29894   */\n      swap1\n      pop\n        /* \"#utility.yul\":29940:29949   */\n      dup2\n        /* \"#utility.yul\":29934:29938   */\n      dup2\n        /* \"#utility.yul\":29930:29950   */\n      sub\n        /* \"#utility.yul\":29926:29927   */\n      0x00\n        /* \"#utility.yul\":29915:29924   */\n      dup4\n        /* \"#utility.yul\":29911:29928   */\n      add\n        /* \"#utility.yul\":29904:29951   */\n      mstore\n        /* \"#utility.yul\":29968:30099   */\n      tag_623\n        /* \"#utility.yul\":30094:30098   */\n      dup2\n        /* \"#utility.yul\":29968:30099   */\n      tag_346\n      jump\t// in\n    tag_623:\n        /* \"#utility.yul\":29960:30099   */\n      swap1\n      pop\n        /* \"#utility.yul\":29687:30106   */\n      swap2\n      swap1\n      pop\n      jump\t// out\n        /* \"#utility.yul\":30112:30292   */\n    tag_347:\n        /* \"#utility.yul\":30252:30284   */\n      0x43616e6e6f7420776974686472617720616674657220646561646c696e650000\n        /* \"#utility.yul\":30248:30249   */\n      0x00\n        /* \"#utility.yul\":30240:30246   */\n      dup3\n        /* \"#utility.yul\":30236:30250   */\n      add\n        /* \"#utility.yul\":30229:30285   */\n      mstore\n        /* \"#utility.yul\":30112:30292   */\n      pop\n      jump\t// out\n        /* \"#utility.yul\":30298:30664   */\n    tag_348:\n        /* \"#utility.yul\":30440:30443   */\n      0x00\n        /* \"#utility.yul\":30461:30528   */\n      tag_626\n        /* \"#utility.yul\":30525:30527   */\n      0x1e\n        /* \"#utility.yul\":30520:30523   */\n      dup4\n        /* \"#utility.yul\":30461:30528   */\n      tag_292\n      jump\t// in\n    tag_626:\n        /* \"#utility.yul\":30454:30528   */\n      swap2\n      pop\n        /* \"#utility.yul\":30537:30630   */\n      tag_627\n        /* \"#utility.yul\":30626:30629   */\n      dup3\n        /* \"#utility.yul\":30537:30630   */\n      tag_347\n      jump\t// in\n    tag_627:\n        /* \"#utility.yul\":30655:30657   */\n      0x20\n        /* \"#utility.yul\":30650:30653   */\n      dup3\n        /* \"#utility.yul\":30646:30658   */\n      add\n        /* \"#utility.yul\":30639:30658   */\n      swap1\n      pop\n        /* \"#utility.yul\":30298:30664   */\n      swap2\n      swap1\n      pop\n      jump\t// out\n        /* \"#utility.yul\":30670:31089   */\n    tag_241:\n        /* \"#utility.yul\":30836:30840   */\n      0x00\n        /* \"#utility.yul\":30874:30876   */\n      0x20\n        /* \"#utility.yul\":30863:30872   */\n      dup3\n        /* \"#utility.yul\":30859:30877   */\n      add\n        /* \"#utility.yul\":30851:30877   */\n      swap1\n      pop\n        /* \"#utility.yul\":30923:30932   */\n      dup2\n        /* \"#utility.yul\":30917:30921   */\n      dup2\n        /* \"#utility.yul\":30913:30933   */\n      sub\n        /* \"#utility.yul\":30909:30910   */\n      0x00\n        /* \"#utility.yul\":30898:30907   */\n      dup4\n        /* \"#utility.yul\":30894:30911   */\n      add\n        /* \"#utility.yul\":30887:30934   */\n      mstore\n        /* \"#utility.yul\":30951:31082   */\n      tag_629\n        /* \"#utility.yul\":31077:31081   */\n      dup2\n        /* \"#utility.yul\":30951:31082   */\n      tag_348\n      jump\t// in\n    tag_629:\n        /* \"#utility.yul\":30943:31082   */\n      swap1\n      pop\n        /* \"#utility.yul\":30670:31089   */\n      swap2\n      swap1\n      pop\n      jump\t// out\n        /* \"#utility.yul\":31095:31267   */\n    tag_349:\n        /* \"#utility.yul\":31235:31259   */\n      0x4e6f2046756e647320746f207769746864726177212100000000000000000000\n        /* \"#utility.yul\":31231:31232   */\n      0x00\n        /* \"#utility.yul\":31223:31229   */\n      dup3\n        /* \"#utility.yul\":31219:31233   */\n      add\n        /* \"#utility.yul\":31212:31260   */\n      mstore\n        /* \"#utility.yul\":31095:31267   */\n      pop\n      jump\t// out\n        /* \"#utility.yul\":31273:31639   */\n    tag_350:\n        /* \"#utility.yul\":31415:31418   */\n      0x00\n        /* \"#utility.yul\":31436:31503   */\n      tag_632\n        /* \"#utility.yul\":31500:31502   */\n      0x16\n        /* \"#utility.yul\":31495:31498   */\n      dup4\n        /* \"#utility.yul\":31436:31503   */\n      tag_292\n      jump\t// in\n    tag_632:\n        /* \"#utility.yul\":31429:31503   */\n      swap2\n      pop\n        /* \"#utility.yul\":31512:31605   */\n      tag_633\n        /* \"#utility.yul\":31601:31604   */\n      dup3\n        /* \"#utility.yul\":31512:31605   */\n      tag_349\n      jump\t// in\n    tag_633:\n        /* \"#utility.yul\":31630:31632   */\n      0x20\n        /* \"#utility.yul\":31625:31628   */\n      dup3\n        /* \"#utility.yul\":31621:31633   */\n      add\n        /* \"#utility.yul\":31614:31633   */\n      swap1\n      pop\n        /* \"#utility.yul\":31273:31639   */\n      swap2\n      swap1\n      pop\n      jump\t// out\n        /* \"#utility.yul\":31645:32064   */\n    tag_244:\n        /* \"#utility.yul\":31811:31815   */\n      0x00\n        /* \"#utility.yul\":31849:31851   */\n      0x20\n        /* \"#utility.yul\":31838:31847   */\n      dup3\n        /* \"#utility.yul\":31834:31852   */\n      add\n        /* \"#utility.yul\":31826:31852   */\n      swap1\n      pop\n        /* \"#utility.yul\":31898:31907   */\n      dup2\n        /* \"#utility.yul\":31892:31896   */\n      dup2\n        /* \"#utility.yul\":31888:31908   */\n      sub\n        /* \"#utility.yul\":31884:31885   */\n      0x00\n        /* \"#utility.yul\":31873:31882   */\n      dup4\n        /* \"#utility.yul\":31869:31886   */\n      add\n        /* \"#utility.yul\":31862:31909   */\n      mstore\n        /* \"#utility.yul\":31926:32057   */\n      tag_635\n        /* \"#utility.yul\":32052:32056   */\n      dup2\n        /* \"#utility.yul\":31926:32057   */\n      tag_350\n      jump\t// in\n    tag_635:\n        /* \"#utility.yul\":31918:32057   */\n      swap1\n      pop\n        /* \"#utility.yul\":31645:32064   */\n      swap2\n      swap1\n      pop\n      jump\t// out\n        /* \"#utility.yul\":32070:32298   */\n    tag_351:\n        /* \"#utility.yul\":32210:32244   */\n      0x576974686472617720616d6f756e74206578636565647320796f757220636f6e\n        /* \"#utility.yul\":32206:32207   */\n      0x00\n        /* \"#utility.yul\":32198:32204   */\n      dup3\n        /* \"#utility.yul\":32194:32208   */\n      add\n        /* \"#utility.yul\":32187:32245   */\n      mstore\n        /* \"#utility.yul\":32279:32290   */\n      0x747269627574696f6e0000000000000000000000000000000000000000000000\n        /* \"#utility.yul\":32274:32276   */\n      0x20\n        /* \"#utility.yul\":32266:32272   */\n      dup3\n        /* \"#utility.yul\":32262:32277   */\n      add\n        /* \"#utility.yul\":32255:32291   */\n      mstore\n        /* \"#utility.yul\":32070:32298   */\n      pop\n      jump\t// out\n        /* \"#utility.yul\":32304:32670   */\n    tag_352:\n        /* \"#utility.yul\":32446:32449   */\n      0x00\n        /* \"#utility.yul\":32467:32534   */\n      tag_638\n        /* \"#utility.yul\":32531:32533   */\n      0x29\n        /* \"#utility.yul\":32526:32529   */\n      dup4\n        /* \"#utility.yul\":32467:32534   */\n      tag_292\n      jump\t// in\n    tag_638:\n        /* \"#utility.yul\":32460:32534   */\n      swap2\n      pop\n        /* \"#utility.yul\":32543:32636   */\n      tag_639\n        /* \"#utility.yul\":32632:32635   */\n      dup3\n        /* \"#utility.yul\":32543:32636   */\n      tag_351\n      jump\t// in\n    tag_639:\n        /* \"#utility.yul\":32661:32663   */\n      0x40\n        /* \"#utility.yul\":32656:32659   */\n      dup3\n        /* \"#utility.yul\":32652:32664   */\n      add\n        /* \"#utility.yul\":32645:32664   */\n      swap1\n      pop\n        /* \"#utility.yul\":32304:32670   */\n      swap2\n      swap1\n      pop\n      jump\t// out\n        /* \"#utility.yul\":32676:33095   */\n    tag_247:\n        /* \"#utility.yul\":32842:32846   */\n      0x00\n        /* \"#utility.yul\":32880:32882   */\n      0x20\n        /* \"#utility.yul\":32869:32878   */\n      dup3\n        /* \"#utility.yul\":32865:32883   */\n      add\n        /* \"#utility.yul\":32857:32883   */\n      swap1\n      pop\n        /* \"#utility.yul\":32929:32938   */\n      dup2\n        /* \"#utility.yul\":32923:32927   */\n      dup2\n        /* \"#utility.yul\":32919:32939   */\n      sub\n        /* \"#utility.yul\":32915:32916   */\n      0x00\n        /* \"#utility.yul\":32904:32913   */\n      dup4\n        /* \"#utility.yul\":32900:32917   */\n      add\n        /* \"#utility.yul\":32893:32940   */\n      mstore\n        /* \"#utility.yul\":32957:33088   */\n      tag_641\n        /* \"#utility.yul\":33083:33087   */\n      dup2\n        /* \"#utility.yul\":32957:33088   */\n      tag_352\n      jump\t// in\n    tag_641:\n        /* \"#utility.yul\":32949:33088   */\n      swap1\n      pop\n        /* \"#utility.yul\":32676:33095   */\n      swap2\n      swap1\n      pop\n      jump\t// out\n        /* \"#utility.yul\":33101:33270   */\n    tag_353:\n        /* \"#utility.yul\":33241:33262   */\n      0x7769746864726177206661696c65642121212100000000000000000000000000\n        /* \"#utility.yul\":33237:33238   */\n      0x00\n        /* \"#utility.yul\":33229:33235   */\n      dup3\n        /* \"#utility.yul\":33225:33239   */\n      add\n        /* \"#utility.yul\":33218:33263   */\n      mstore\n        /* \"#utility.yul\":33101:33270   */\n      pop\n      jump\t// out\n        /* \"#utility.yul\":33276:33642   */\n    tag_354:\n        /* \"#utility.yul\":33418:33421   */\n      0x00\n        /* \"#utility.yul\":33439:33506   */\n      tag_644\n        /* \"#utility.yul\":33503:33505   */\n      0x13\n        /* \"#utility.yul\":33498:33501   */\n      dup4\n        /* \"#utility.yul\":33439:33506   */\n      tag_292\n      jump\t// in\n    tag_644:\n        /* \"#utility.yul\":33432:33506   */\n      swap2\n      pop\n        /* \"#utility.yul\":33515:33608   */\n      tag_645\n        /* \"#utility.yul\":33604:33607   */\n      dup3\n        /* \"#utility.yul\":33515:33608   */\n      tag_353\n      jump\t// in\n    tag_645:\n        /* \"#utility.yul\":33633:33635   */\n      0x20\n        /* \"#utility.yul\":33628:33631   */\n      dup3\n        /* \"#utility.yul\":33624:33636   */\n      add\n        /* \"#utility.yul\":33617:33636   */\n      swap1\n      pop\n        /* \"#utility.yul\":33276:33642   */\n      swap2\n      swap1\n      pop\n      jump\t// out\n        /* \"#utility.yul\":33648:34067   */\n    tag_257:\n        /* \"#utility.yul\":33814:33818   */\n      0x00\n        /* \"#utility.yul\":33852:33854   */\n      0x20\n        /* \"#utility.yul\":33841:33850   */\n      dup3\n        /* \"#utility.yul\":33837:33855   */\n      add\n        /* \"#utility.yul\":33829:33855   */\n      swap1\n      pop\n        /* \"#utility.yul\":33901:33910   */\n      dup2\n        /* \"#utility.yul\":33895:33899   */\n      dup2\n        /* \"#utility.yul\":33891:33911   */\n      sub\n        /* \"#utility.yul\":33887:33888   */\n      0x00\n        /* \"#utility.yul\":33876:33885   */\n      dup4\n        /* \"#utility.yul\":33872:33889   */\n      add\n        /* \"#utility.yul\":33865:33912   */\n      mstore\n        /* \"#utility.yul\":33929:34060   */\n      tag_647\n        /* \"#utility.yul\":34055:34059   */\n      dup2\n        /* \"#utility.yul\":33929:34060   */\n      tag_354\n      jump\t// in\n    tag_647:\n        /* \"#utility.yul\":33921:34060   */\n      swap1\n      pop\n        /* \"#utility.yul\":33648:34067   */\n      swap2\n      swap1\n      pop\n      jump\t// out\n        /* \"#utility.yul\":34073:34252   */\n    tag_355:\n        /* \"#utility.yul\":34213:34244   */\n      0x50726f6a65637420494420697320616c726561647920696e2075736521000000\n        /* \"#utility.yul\":34209:34210   */\n      0x00\n        /* \"#utility.yul\":34201:34207   */\n      dup3\n        /* \"#utility.yul\":34197:34211   */\n      add\n        /* \"#utility.yul\":34190:34245   */\n      mstore\n        /* \"#utility.yul\":34073:34252   */\n      pop\n      jump\t// out\n        /* \"#utility.yul\":34258:34624   */\n    tag_356:\n        /* \"#utility.yul\":34400:34403   */\n      0x00\n        /* \"#utility.yul\":34421:34488   */\n      tag_650\n        /* \"#utility.yul\":34485:34487   */\n      0x1d\n        /* \"#utility.yul\":34480:34483   */\n      dup4\n        /* \"#utility.yul\":34421:34488   */\n      tag_292\n      jump\t// in\n    tag_650:\n        /* \"#utility.yul\":34414:34488   */\n      swap2\n      pop\n        /* \"#utility.yul\":34497:34590   */\n      tag_651\n        /* \"#utility.yul\":34586:34589   */\n      dup3\n        /* \"#utility.yul\":34497:34590   */\n      tag_355\n      jump\t// in\n    tag_651:\n        /* \"#utility.yul\":34615:34617   */\n      0x20\n        /* \"#utility.yul\":34610:34613   */\n      dup3\n        /* \"#utility.yul\":34606:34618   */\n      add\n        /* \"#utility.yul\":34599:34618   */\n      swap1\n      pop\n        /* \"#utility.yul\":34258:34624   */\n      swap2\n      swap1\n      pop\n      jump\t// out\n        /* \"#utility.yul\":34630:35049   */\n    tag_262:\n        /* \"#utility.yul\":34796:34800   */\n      0x00\n        /* \"#utility.yul\":34834:34836   */\n      0x20\n        /* \"#utility.yul\":34823:34832   */\n      dup3\n        /* \"#utility.yul\":34819:34837   */\n      add\n        /* \"#utility.yul\":34811:34837   */\n      swap1\n      pop\n        /* \"#utility.yul\":34883:34892   */\n      dup2\n        /* \"#utility.yul\":34877:34881   */\n      dup2\n        /* \"#utility.yul\":34873:34893   */\n      sub\n        /* \"#utility.yul\":34869:34870   */\n      0x00\n        /* \"#utility.yul\":34858:34867   */\n      dup4\n        /* \"#utility.yul\":34854:34871   */\n      add\n        /* \"#utility.yul\":34847:34894   */\n      mstore\n        /* \"#utility.yul\":34911:35042   */\n      tag_653\n        /* \"#utility.yul\":35037:35041   */\n      dup2\n        /* \"#utility.yul\":34911:35042   */\n      tag_356\n      jump\t// in\n    tag_653:\n        /* \"#utility.yul\":34903:35042   */\n      swap1\n      pop\n        /* \"#utility.yul\":34630:35049   */\n      swap2\n      swap1\n      pop\n      jump\t// out\n        /* \"#utility.yul\":35055:35279   */\n    tag_357:\n        /* \"#utility.yul\":35195:35229   */\n      0x4f6e6c7920417574686f72697a65642063726561746f72732063616e20616363\n        /* \"#utility.yul\":35191:35192   */\n      0x00\n        /* \"#utility.yul\":35183:35189   */\n      dup3\n        /* \"#utility.yul\":35179:35193   */\n      add\n        /* \"#utility.yul\":35172:35230   */\n      mstore\n        /* \"#utility.yul\":35264:35271   */\n      0x6573732121000000000000000000000000000000000000000000000000000000\n        /* \"#utility.yul\":35259:35261   */\n      0x20\n        /* \"#utility.yul\":35251:35257   */\n      dup3\n        /* \"#utility.yul\":35247:35262   */\n      add\n        /* \"#utility.yul\":35240:35272   */\n      mstore\n        /* \"#utility.yul\":35055:35279   */\n      pop\n      jump\t// out\n        /* \"#utility.yul\":35285:35651   */\n    tag_358:\n        /* \"#utility.yul\":35427:35430   */\n      0x00\n        /* \"#utility.yul\":35448:35515   */\n      tag_656\n        /* \"#utility.yul\":35512:35514   */\n      0x25\n        /* \"#utility.yul\":35507:35510   */\n      dup4\n        /* \"#utility.yul\":35448:35515   */\n      tag_292\n      jump\t// in\n    tag_656:\n        /* \"#utility.yul\":35441:35515   */\n      swap2\n      pop\n        /* \"#utility.yul\":35524:35617   */\n      tag_657\n        /* \"#utility.yul\":35613:35616   */\n      dup3\n        /* \"#utility.yul\":35524:35617   */\n      tag_357\n      jump\t// in\n    tag_657:\n        /* \"#utility.yul\":35642:35644   */\n      0x40\n        /* \"#utility.yul\":35637:35640   */\n      dup3\n        /* \"#utility.yul\":35633:35645   */\n      add\n        /* \"#utility.yul\":35626:35645   */\n      swap1\n      pop\n        /* \"#utility.yul\":35285:35651   */\n      swap2\n      swap1\n      pop\n      jump\t// out\n        /* \"#utility.yul\":35657:36076   */\n    tag_265:\n        /* \"#utility.yul\":35823:35827   */\n      0x00\n        /* \"#utility.yul\":35861:35863   */\n      0x20\n        /* \"#utility.yul\":35850:35859   */\n      dup3\n        /* \"#utility.yul\":35846:35864   */\n      add\n        /* \"#utility.yul\":35838:35864   */\n      swap1\n      pop\n        /* \"#utility.yul\":35910:35919   */\n      dup2\n        /* \"#utility.yul\":35904:35908   */\n      dup2\n        /* \"#utility.yul\":35900:35920   */\n      sub\n        /* \"#utility.yul\":35896:35897   */\n      0x00\n        /* \"#utility.yul\":35885:35894   */\n      dup4\n        /* \"#utility.yul\":35881:35898   */\n      add\n        /* \"#utility.yul\":35874:35921   */\n      mstore\n        /* \"#utility.yul\":35938:36069   */\n      tag_659\n        /* \"#utility.yul\":36064:36068   */\n      dup2\n        /* \"#utility.yul\":35938:36069   */\n      tag_358\n      jump\t// in\n    tag_659:\n        /* \"#utility.yul\":35930:36069   */\n      swap1\n      pop\n        /* \"#utility.yul\":35657:36076   */\n      swap2\n      swap1\n      pop\n      jump\t// out\n        /* \"#utility.yul\":36082:36223   */\n    tag_359:\n        /* \"#utility.yul\":36131:36135   */\n      0x00\n        /* \"#utility.yul\":36154:36157   */\n      dup2\n        /* \"#utility.yul\":36146:36157   */\n      swap1\n      pop\n        /* \"#utility.yul\":36177:36180   */\n      dup2\n        /* \"#utility.yul\":36174:36175   */\n      0x00\n        /* \"#utility.yul\":36167:36181   */\n      mstore\n        /* \"#utility.yul\":36211:36215   */\n      0x20\n        /* \"#utility.yul\":36208:36209   */\n      0x00\n        /* \"#utility.yul\":36198:36216   */\n      keccak256\n        /* \"#utility.yul\":36190:36216   */\n      swap1\n      pop\n        /* \"#utility.yul\":36082:36223   */\n      swap2\n      swap1\n      pop\n      jump\t// out\n        /* \"#utility.yul\":36229:36322   */\n    tag_360:\n        /* \"#utility.yul\":36266:36272   */\n      0x00\n        /* \"#utility.yul\":36313:36315   */\n      0x20\n        /* \"#utility.yul\":36308:36310   */\n      0x1f\n        /* \"#utility.yul\":36301:36306   */\n      dup4\n        /* \"#utility.yul\":36297:36311   */\n      add\n        /* \"#utility.yul\":36293:36316   */\n      div\n        /* \"#utility.yul\":36283:36316   */\n      swap1\n      pop\n        /* \"#utility.yul\":36229:36322   */\n      swap2\n      swap1\n      pop\n      jump\t// out\n        /* \"#utility.yul\":36328:36435   */\n    tag_361:\n        /* \"#utility.yul\":36372:36380   */\n      0x00\n        /* \"#utility.yul\":36422:36427   */\n      dup3\n        /* \"#utility.yul\":36416:36420   */\n      dup3\n        /* \"#utility.yul\":36412:36428   */\n      shl\n        /* \"#utility.yul\":36391:36428   */\n      swap1\n      pop\n        /* \"#utility.yul\":36328:36435   */\n      swap3\n      swap2\n      pop\n      pop\n      jump\t// out\n        /* \"#utility.yul\":36441:36834   */\n    tag_362:\n        /* \"#utility.yul\":36510:36516   */\n      0x00\n        /* \"#utility.yul\":36560:36561   */\n      0x08\n        /* \"#utility.yul\":36548:36558   */\n      dup4\n        /* \"#utility.yul\":36544:36562   */\n      mul\n        /* \"#utility.yul\":36583:36680   */\n      tag_664\n        /* \"#utility.yul\":36613:36679   */\n      0xffffffffffffffffffffffffffffffffffffffffffffffffffffffffffffffff\n        /* \"#utility.yul\":36602:36611   */\n      dup3\n        /* \"#utility.yul\":36583:36680   */\n      tag_361\n      jump\t// in\n    tag_664:\n        /* \"#utility.yul\":36701:36740   */\n      tag_665\n        /* \"#utility.yul\":36731:36739   */\n      dup7\n        /* \"#utility.yul\":36720:36729   */\n      dup4\n        /* \"#utility.yul\":36701:36740   */\n      tag_361\n      jump\t// in\n    tag_665:\n        /* \"#utility.yul\":36689:36740   */\n      swap6\n      pop\n        /* \"#utility.yul\":36773:36777   */\n      dup1\n        /* \"#utility.yul\":36769:36778   */\n      not\n        /* \"#utility.yul\":36762:36767   */\n      dup5\n        /* \"#utility.yul\":36758:36779   */\n      and\n        /* \"#utility.yul\":36749:36779   */\n      swap4\n      pop\n        /* \"#utility.yul\":36822:36826   */\n      dup1\n        /* \"#utility.yul\":36812:36820   */\n      dup7\n        /* \"#utility.yul\":36808:36827   */\n      and\n        /* \"#utility.yul\":36801:36806   */\n      dup5\n        /* \"#utility.yul\":36798:36828   */\n      or\n        /* \"#utility.yul\":36788:36828   */\n      swap3\n      pop\n        /* \"#utility.yul\":36517:36834   */\n      pop\n      pop\n        /* \"#utility.yul\":36441:36834   */\n      swap4\n      swap3\n      pop\n      pop\n      pop\n      jump\t// out\n        /* \"#utility.yul\":36840:36900   */\n    tag_363:\n        /* \"#utility.yul\":36868:36871   */\n      0x00\n        /* \"#utility.yul\":36889:36894   */\n      dup2\n        /* \"#utility.yul\":36882:36894   */\n      swap1\n      pop\n        /* \"#utility.yul\":36840:36900   */\n      swap2\n      swap1\n      pop\n      jump\t// out\n        /* \"#utility.yul\":36906:37048   */\n    tag_364:\n        /* \"#utility.yul\":36956:36965   */\n      0x00\n        /* \"#utility.yul\":36989:37042   */\n      tag_668\n        /* \"#utility.yul\":37007:37041   */\n      tag_669\n        /* \"#utility.yul\":37016:37040   */\n      tag_670\n        /* \"#utility.yul\":37034:37039   */\n      dup5\n        /* \"#utility.yul\":37016:37040   */\n      tag_284\n      jump\t// in\n    tag_670:\n        /* \"#utility.yul\":37007:37041   */\n      tag_363\n      jump\t// in\n    tag_669:\n        /* \"#utility.yul\":36989:37042   */\n      tag_284\n      jump\t// in\n    tag_668:\n        /* \"#utility.yul\":36976:37042   */\n      swap1\n      pop\n        /* \"#utility.yul\":36906:37048   */\n      swap2\n      swap1\n      pop\n      jump\t// out\n        /* \"#utility.yul\":37054:37129   */\n    tag_365:\n        /* \"#utility.yul\":37097:37100   */\n      0x00\n        /* \"#utility.yul\":37118:37123   */\n      dup2\n        /* \"#utility.yul\":37111:37123   */\n      swap1\n      pop\n        /* \"#utility.yul\":37054:37129   */\n      swap2\n      swap1\n      pop\n      jump\t// out\n        /* \"#utility.yul\":37135:37404   */\n    tag_366:\n        /* \"#utility.yul\":37245:37284   */\n      tag_673\n        /* \"#utility.yul\":37276:37283   */\n      dup4\n        /* \"#utility.yul\":37245:37284   */\n      tag_364\n      jump\t// in\n    tag_673:\n        /* \"#utility.yul\":37306:37397   */\n      tag_674\n        /* \"#utility.yul\":37355:37396   */\n      tag_675\n        /* \"#utility.yul\":37379:37395   */\n      dup3\n        /* \"#utility.yul\":37355:37396   */\n      tag_365\n      jump\t// in\n    tag_675:\n        /* \"#utility.yul\":37347:37353   */\n      dup5\n        /* \"#utility.yul\":37340:37344   */\n      dup5\n        /* \"#utility.yul\":37334:37345   */\n      sload\n        /* \"#utility.yul\":37306:37397   */\n      tag_362\n      jump\t// in\n    tag_674:\n        /* \"#utility.yul\":37300:37304   */\n      dup3\n        /* \"#utility.yul\":37293:37398   */\n      sstore\n        /* \"#utility.yul\":37211:37404   */\n      pop\n        /* \"#utility.yul\":37135:37404   */\n      pop\n      pop\n      pop\n      jump\t// out\n        /* \"#utility.yul\":37410:37483   */\n    tag_367:\n        /* \"#utility.yul\":37455:37458   */\n      0x00\n        /* \"#utility.yul\":37476:37477   */\n      0x00\n        /* \"#utility.yul\":37469:37477   */\n      swap1\n      pop\n        /* \"#utility.yul\":37410:37483   */\n      swap1\n      jump\t// out\n        /* \"#utility.yul\":37489:37678   */\n    tag_368:\n        /* \"#utility.yul\":37566:37598   */\n      tag_678\n      tag_367\n      jump\t// in\n    tag_678:\n        /* \"#utility.yul\":37607:37672   */\n      tag_679\n        /* \"#utility.yul\":37665:37671   */\n      dup2\n        /* \"#utility.yul\":37657:37663   */\n      dup5\n        /* \"#utility.yul\":37651:37655   */\n      dup5\n        /* \"#utility.yul\":37607:37672   */\n      tag_366\n      jump\t// in\n    tag_679:\n        /* \"#utility.yul\":37542:37678   */\n      pop\n        /* \"#utility.yul\":37489:37678   */\n      pop\n      pop\n      jump\t// out\n        /* \"#utility.yul\":37684:37870   */\n    tag_369:\n        /* \"#utility.yul\":37744:37864   */\n    tag_681:\n        /* \"#utility.yul\":37761:37764   */\n      dup2\n        /* \"#utility.yul\":37754:37759   */\n      dup2\n        /* \"#utility.yul\":37751:37765   */\n      lt\n        /* \"#utility.yul\":37744:37864   */\n      iszero\n      tag_683\n      jumpi\n        /* \"#utility.yul\":37815:37854   */\n      tag_684\n        /* \"#utility.yul\":37852:37853   */\n      0x00\n        /* \"#utility.yul\":37845:37850   */\n      dup3\n        /* \"#utility.yul\":37815:37854   */\n      tag_368\n      jump\t// in\n    tag_684:\n        /* \"#utility.yul\":37788:37789   */\n      0x01\n        /* \"#utility.yul\":37781:37786   */\n      dup2\n        /* \"#utility.yul\":37777:37790   */\n      add\n        /* \"#utility.yul\":37768:37790   */\n      swap1\n      pop\n        /* \"#utility.yul\":37744:37864   */\n      jump(tag_681)\n    tag_683:\n        /* \"#utility.yul\":37684:37870   */\n      pop\n      pop\n      jump\t// out\n        /* \"#utility.yul\":37876:38419   */\n    tag_370:\n        /* \"#utility.yul\":37977:37979   */\n      0x1f\n        /* \"#utility.yul\":37972:37975   */\n      dup3\n        /* \"#utility.yul\":37969:37980   */\n      gt\n        /* \"#utility.yul\":37966:38412   */\n      iszero\n      tag_686\n      jumpi\n        /* \"#utility.yul\":38011:38049   */\n      tag_687\n        /* \"#utility.yul\":38043:38048   */\n      dup2\n        /* \"#utility.yul\":38011:38049   */\n      tag_359\n      jump\t// in\n    tag_687:\n        /* \"#utility.yul\":38095:38124   */\n      tag_688\n        /* \"#utility.yul\":38113:38123   */\n      dup5\n        /* \"#utility.yul\":38095:38124   */\n      tag_360\n      jump\t// in\n    tag_688:\n        /* \"#utility.yul\":38085:38093   */\n      dup2\n        /* \"#utility.yul\":38081:38125   */\n      add\n        /* \"#utility.yul\":38278:38280   */\n      0x20\n        /* \"#utility.yul\":38266:38276   */\n      dup6\n        /* \"#utility.yul\":38263:38281   */\n      lt\n        /* \"#utility.yul\":38260:38309   */\n      iszero\n      tag_689\n      jumpi\n        /* \"#utility.yul\":38299:38307   */\n      dup2\n        /* \"#utility.yul\":38284:38307   */\n      swap1\n      pop\n        /* \"#utility.yul\":38260:38309   */\n    tag_689:\n        /* \"#utility.yul\":38322:38402   */\n      tag_690\n        /* \"#utility.yul\":38378:38400   */\n      tag_691\n        /* \"#utility.yul\":38396:38399   */\n      dup6\n        /* \"#utility.yul\":38378:38400   */\n      tag_360\n      jump\t// in\n    tag_691:\n        /* \"#utility.yul\":38368:38376   */\n      dup4\n        /* \"#utility.yul\":38364:38401   */\n      add\n        /* \"#utility.yul\":38351:38362   */\n      dup3\n        /* \"#utility.yul\":38322:38402   */\n      tag_369\n      jump\t// in\n    tag_690:\n        /* \"#utility.yul\":37981:38412   */\n      pop\n      pop\n        /* \"#utility.yul\":37966:38412   */\n    tag_686:\n        /* \"#utility.yul\":37876:38419   */\n      pop\n      pop\n      pop\n      jump\t// out\n        /* \"#utility.yul\":38425:38542   */\n    tag_371:\n        /* \"#utility.yul\":38479:38487   */\n      0x00\n        /* \"#utility.yul\":38529:38534   */\n      dup3\n        /* \"#utility.yul\":38523:38527   */\n      dup3\n        /* \"#utility.yul\":38519:38535   */\n      shr\n        /* \"#utility.yul\":38498:38535   */\n      swap1\n      pop\n        /* \"#utility.yul\":38425:38542   */\n      swap3\n      swap2\n      pop\n      pop\n      jump\t// out\n        /* \"#utility.yul\":38548:38717   */\n    tag_372:\n        /* \"#utility.yul\":38592:38598   */\n      0x00\n        /* \"#utility.yul\":38625:38676   */\n      tag_694\n        /* \"#utility.yul\":38673:38674   */\n      0x00\n        /* \"#utility.yul\":38669:38675   */\n      not\n        /* \"#utility.yul\":38661:38666   */\n      dup5\n        /* \"#utility.yul\":38658:38659   */\n      0x08\n        /* \"#utility.yul\":38654:38667   */\n      mul\n        /* \"#utility.yul\":38625:38676   */\n      tag_371\n      jump\t// in\n    tag_694:\n        /* \"#utility.yul\":38621:38677   */\n      not\n        /* \"#utility.yul\":38706:38710   */\n      dup1\n        /* \"#utility.yul\":38700:38704   */\n      dup4\n        /* \"#utility.yul\":38696:38711   */\n      and\n        /* \"#utility.yul\":38686:38711   */\n      swap2\n      pop\n        /* \"#utility.yul\":38599:38717   */\n      pop\n        /* \"#utility.yul\":38548:38717   */\n      swap3\n      swap2\n      pop\n      pop\n      jump\t// out\n        /* \"#utility.yul\":38722:39017   */\n    tag_373:\n        /* \"#utility.yul\":38798:38802   */\n      0x00\n        /* \"#utility.yul\":38944:38973   */\n      tag_696\n        /* \"#utility.yul\":38969:38972   */\n      dup4\n        /* \"#utility.yul\":38963:38967   */\n      dup4\n        /* \"#utility.yul\":38944:38973   */\n      tag_372\n      jump\t// in\n    tag_696:\n        /* \"#utility.yul\":38936:38973   */\n      swap2\n      pop\n        /* \"#utility.yul\":39006:39009   */\n      dup3\n        /* \"#utility.yul\":39003:39004   */\n      0x02\n        /* \"#utility.yul\":38999:39010   */\n      mul\n        /* \"#utility.yul\":38993:38997   */\n      dup3\n        /* \"#utility.yul\":38990:39011   */\n      or\n        /* \"#utility.yul\":38982:39011   */\n      swap1\n      pop\n        /* \"#utility.yul\":38722:39017   */\n      swap3\n      swap2\n      pop\n      pop\n      jump\t// out\n        /* \"#utility.yul\":39022:40417   */\n    tag_268:\n        /* \"#utility.yul\":39139:39176   */\n      tag_698\n        /* \"#utility.yul\":39172:39175   */\n      dup3\n        /* \"#utility.yul\":39139:39176   */\n      tag_291\n      jump\t// in\n    tag_698:\n        /* \"#utility.yul\":39241:39259   */\n      0xffffffffffffffff\n        /* \"#utility.yul\":39233:39239   */\n      dup2\n        /* \"#utility.yul\":39230:39260   */\n      gt\n        /* \"#utility.yul\":39227:39283   */\n      iszero\n      tag_699\n      jumpi\n        /* \"#utility.yul\":39263:39281   */\n      tag_700\n      tag_302\n      jump\t// in\n    tag_700:\n        /* \"#utility.yul\":39227:39283   */\n    tag_699:\n        /* \"#utility.yul\":39307:39345   */\n      tag_701\n        /* \"#utility.yul\":39339:39343   */\n      dup3\n        /* \"#utility.yul\":39333:39344   */\n      sload\n        /* \"#utility.yul\":39307:39345   */\n      tag_133\n      jump\t// in\n    tag_701:\n        /* \"#utility.yul\":39392:39459   */\n      tag_702\n        /* \"#utility.yul\":39452:39458   */\n      dup3\n        /* \"#utility.yul\":39444:39450   */\n      dup3\n        /* \"#utility.yul\":39438:39442   */\n      dup6\n        /* \"#utility.yul\":39392:39459   */\n      tag_370\n      jump\t// in\n    tag_702:\n        /* \"#utility.yul\":39486:39487   */\n      0x00\n        /* \"#utility.yul\":39510:39514   */\n      0x20\n        /* \"#utility.yul\":39497:39514   */\n      swap1\n      pop\n        /* \"#utility.yul\":39542:39544   */\n      0x1f\n        /* \"#utility.yul\":39534:39540   */\n      dup4\n        /* \"#utility.yul\":39531:39545   */\n      gt\n        /* \"#utility.yul\":39559:39560   */\n      0x01\n        /* \"#utility.yul\":39554:40172   */\n      dup2\n      eq\n      tag_704\n      jumpi\n        /* \"#utility.yul\":40216:40217   */\n      0x00\n        /* \"#utility.yul\":40233:40239   */\n      dup5\n        /* \"#utility.yul\":40230:40307   */\n      iszero\n      tag_705\n      jumpi\n        /* \"#utility.yul\":40282:40291   */\n      dup3\n        /* \"#utility.yul\":40277:40280   */\n      dup8\n        /* \"#utility.yul\":40273:40292   */\n      add\n        /* \"#utility.yul\":40267:40293   */\n      mload\n        /* \"#utility.yul\":40258:40293   */\n      swap1\n      pop\n        /* \"#utility.yul\":40230:40307   */\n    tag_705:\n        /* \"#utility.yul\":40333:40400   */\n      tag_706\n        /* \"#utility.yul\":40393:40399   */\n      dup6\n        /* \"#utility.yul\":40386:40391   */\n      dup3\n        /* \"#utility.yul\":40333:40400   */\n      tag_373\n      jump\t// in\n    tag_706:\n        /* \"#utility.yul\":40327:40331   */\n      dup7\n        /* \"#utility.yul\":40320:40401   */\n      sstore\n        /* \"#utility.yul\":40189:40411   */\n      pop\n        /* \"#utility.yul\":39524:40411   */\n      jump(tag_703)\n        /* \"#utility.yul\":39554:40172   */\n    tag_704:\n        /* \"#utility.yul\":39606:39610   */\n      0x1f\n        /* \"#utility.yul\":39602:39611   */\n      not\n        /* \"#utility.yul\":39594:39600   */\n      dup5\n        /* \"#utility.yul\":39590:39612   */\n      and\n        /* \"#utility.yul\":39640:39677   */\n      tag_707\n        /* \"#utility.yul\":39672:39676   */\n      dup7\n        /* \"#utility.yul\":39640:39677   */\n      tag_359\n      jump\t// in\n    tag_707:\n        /* \"#utility.yul\":39699:39700   */\n      0x00\n        /* \"#utility.yul\":39713:39921   */\n    tag_708:\n        /* \"#utility.yul\":39727:39734   */\n      dup3\n        /* \"#utility.yul\":39724:39725   */\n      dup2\n        /* \"#utility.yul\":39721:39735   */\n      lt\n        /* \"#utility.yul\":39713:39921   */\n      iszero\n      tag_710\n      jumpi\n        /* \"#utility.yul\":39806:39815   */\n      dup5\n        /* \"#utility.yul\":39801:39804   */\n      dup10\n        /* \"#utility.yul\":39797:39816   */\n      add\n        /* \"#utility.yul\":39791:39817   */\n      mload\n        /* \"#utility.yul\":39783:39789   */\n      dup3\n        /* \"#utility.yul\":39776:39818   */\n      sstore\n        /* \"#utility.yul\":39857:39858   */\n      0x01\n        /* \"#utility.yul\":39849:39855   */\n      dup3\n        /* \"#utility.yul\":39845:39859   */\n      add\n        /* \"#utility.yul\":39835:39859   */\n      swap2\n      pop\n        /* \"#utility.yul\":39904:39906   */\n      0x20\n        /* \"#utility.yul\":39893:39902   */\n      dup6\n        /* \"#utility.yul\":39889:39907   */\n      add\n        /* \"#utility.yul\":39876:39907   */\n      swap5\n      pop\n        /* \"#utility.yul\":39750:39754   */\n      0x20\n        /* \"#utility.yul\":39747:39748   */\n      dup2\n        /* \"#utility.yul\":39743:39755   */\n      add\n        /* \"#utility.yul\":39738:39755   */\n      swap1\n      pop\n        /* \"#utility.yul\":39713:39921   */\n      jump(tag_708)\n    tag_710:\n        /* \"#utility.yul\":39949:39955   */\n      dup7\n        /* \"#utility.yul\":39940:39947   */\n      dup4\n        /* \"#utility.yul\":39937:39956   */\n      lt\n        /* \"#utility.yul\":39934:40113   */\n      iszero\n      tag_711\n      jumpi\n        /* \"#utility.yul\":40007:40016   */\n      dup5\n        /* \"#utility.yul\":40002:40005   */\n      dup10\n        /* \"#utility.yul\":39998:40017   */\n      add\n        /* \"#utility.yul\":39992:40018   */\n      mload\n        /* \"#utility.yul\":40050:40098   */\n      tag_712\n        /* \"#utility.yul\":40092:40096   */\n      0x1f\n        /* \"#utility.yul\":40084:40090   */\n      dup10\n        /* \"#utility.yul\":40080:40097   */\n      and\n        /* \"#utility.yul\":40069:40078   */\n      dup3\n        /* \"#utility.yul\":40050:40098   */\n      tag_372\n      jump\t// in\n    tag_712:\n        /* \"#utility.yul\":40042:40048   */\n      dup4\n        /* \"#utility.yul\":40035:40099   */\n      sstore\n        /* \"#utility.yul\":39957:40113   */\n      pop\n        /* \"#utility.yul\":39934:40113   */\n    tag_711:\n        /* \"#utility.yul\":40159:40160   */\n      0x01\n        /* \"#utility.yul\":40155:40156   */\n      0x02\n        /* \"#utility.yul\":40147:40153   */\n      dup9\n        /* \"#utility.yul\":40143:40157   */\n      mul\n        /* \"#utility.yul\":40139:40161   */\n      add\n        /* \"#utility.yul\":40133:40137   */\n      dup9\n        /* \"#utility.yul\":40126:40162   */\n      sstore\n        /* \"#utility.yul\":39561:40172   */\n      pop\n      pop\n      pop\n        /* \"#utility.yul\":39524:40411   */\n    tag_703:\n      pop\n        /* \"#utility.yul\":39114:40417   */\n      pop\n      pop\n      pop\n        /* \"#utility.yul\":39022:40417   */\n      pop\n      pop\n      jump\t// out\n        /* \"#utility.yul\":40423:41158   */\n    tag_273:\n        /* \"#utility.yul\":40640:40644   */\n      0x00\n        /* \"#utility.yul\":40678:40681   */\n      0x80\n        /* \"#utility.yul\":40667:40676   */\n      dup3\n        /* \"#utility.yul\":40663:40682   */\n      add\n        /* \"#utility.yul\":40655:40682   */\n      swap1\n      pop\n        /* \"#utility.yul\":40728:40737   */\n      dup2\n        /* \"#utility.yul\":40722:40726   */\n      dup2\n        /* \"#utility.yul\":40718:40738   */\n      sub\n        /* \"#utility.yul\":40714:40715   */\n      0x00\n        /* \"#utility.yul\":40703:40712   */\n      dup4\n        /* \"#utility.yul\":40699:40716   */\n      add\n        /* \"#utility.yul\":40692:40739   */\n      mstore\n        /* \"#utility.yul\":40756:40834   */\n      tag_714\n        /* \"#utility.yul\":40829:40833   */\n      dup2\n        /* \"#utility.yul\":40820:40826   */\n      dup8\n        /* \"#utility.yul\":40756:40834   */\n      tag_295\n      jump\t// in\n    tag_714:\n        /* \"#utility.yul\":40748:40834   */\n      swap1\n      pop\n        /* \"#utility.yul\":40881:40890   */\n      dup2\n        /* \"#utility.yul\":40875:40879   */\n      dup2\n        /* \"#utility.yul\":40871:40891   */\n      sub\n        /* \"#utility.yul\":40866:40868   */\n      0x20\n        /* \"#utility.yul\":40855:40864   */\n      dup4\n        /* \"#utility.yul\":40851:40869   */\n      add\n        /* \"#utility.yul\":40844:40892   */\n      mstore\n        /* \"#utility.yul\":40909:40987   */\n      tag_715\n        /* \"#utility.yul\":40982:40986   */\n      dup2\n        /* \"#utility.yul\":40973:40979   */\n      dup7\n        /* \"#utility.yul\":40909:40987   */\n      tag_295\n      jump\t// in\n    tag_715:\n        /* \"#utility.yul\":40901:40987   */\n      swap1\n      pop\n        /* \"#utility.yul\":40997:41069   */\n      tag_716\n        /* \"#utility.yul\":41065:41067   */\n      0x40\n        /* \"#utility.yul\":41054:41063   */\n      dup4\n        /* \"#utility.yul\":41050:41068   */\n      add\n        /* \"#utility.yul\":41041:41047   */\n      dup6\n        /* \"#utility.yul\":40997:41069   */\n      tag_287\n      jump\t// in\n    tag_716:\n        /* \"#utility.yul\":41079:41151   */\n      tag_717\n        /* \"#utility.yul\":41147:41149   */\n      0x60\n        /* \"#utility.yul\":41136:41145   */\n      dup4\n        /* \"#utility.yul\":41132:41150   */\n      add\n        /* \"#utility.yul\":41123:41129   */\n      dup5\n        /* \"#utility.yul\":41079:41151   */\n      tag_287\n      jump\t// in\n    tag_717:\n        /* \"#utility.yul\":40423:41158   */\n      swap6\n      swap5\n      pop\n      pop\n      pop\n      pop\n      pop\n      jump\t// out\n\n    auxdata: 0xa26469706673582212205fe7a628fc20a3324efc0aeab8927dfc7a0fba536538099e3176b02e2566d41f64736f6c634300081e0033\n}\n",
				"bytecode": {
					"linkReferences": {},
					"object": "6080604052348015600e575f5ffd5b5060015f819055503360035f6101000a81548173ffffffffffffffffffffffffffffffffffffffff021916908373ffffffffffffffffffffffffffffffffffffffff160217905550613025806100635f395ff3fe60806040526004361061011e575f3560e01c80636c563abe1161009f578063cd4ac98c11610063578063cd4ac98c146103dd578063ce7c9080146103f9578063f81bf60114610423578063f851a4401461044b578063fee2f1c9146104755761011e565b80636c563abe1461031757806371eb89f3146103335780637299baeb1461034f57806388283c0f146103775780639ab761c7146103b35761011e565b80633b9056bf116100e65780633b9056bf1461023157806342d844a51461024d57806354a5bcc5146102895780635d4e5d78146102b3578063629b2647146102ef5761011e565b80630dbac135146101225780631392ebfe1461015f57806321b2416c1461018757806332dcd3a1146101cb578063370c36b4146101f5575b5f5ffd5b34801561012d575f5ffd5b5061014860048036038101906101439190611b25565b61049d565b604051610156929190611b5f565b60405180910390f35b34801561016a575f5ffd5b5061018560048036038101906101809190611b86565b61057e565b005b348015610192575f5ffd5b506101ad60048036038101906101a89190611b25565b610676565b6040516101c299989796959493929190611c8d565b60405180910390f35b3480156101d6575f5ffd5b506101df610817565b6040516101ec9190611d26565b60405180910390f35b348015610200575f5ffd5b5061021b60048036038101906102169190611b25565b61081d565b6040516102289190611d26565b60405180910390f35b61024b60048036038101906102469190611b25565b61085f565b005b348015610258575f5ffd5b50610273600480360381019061026e9190611b25565b610a24565b6040516102809190611d26565b60405180910390f35b348015610294575f5ffd5b5061029d610a66565b6040516102aa9190611d26565b60405180910390f35b3480156102be575f5ffd5b506102d960048036038101906102d49190611d69565b610a6f565b6040516102e69190611d26565b60405180910390f35b3480156102fa575f5ffd5b5061031560048036038101906103109190611b86565b610a8f565b005b610331600480360381019061032c9190611b25565b610b52565b005b61034d60048036038101906103489190611b25565b611052565b005b34801561035a575f5ffd5b5061037560048036038101906103709190611da7565b611218565b005b348015610382575f5ffd5b5061039d60048036038101906103989190611da7565b611341565b6040516103aa9190611dd2565b60405180910390f35b3480156103be575f5ffd5b506103c761135e565b6040516103d49190611d26565b60405180910390f35b6103f760048036038101906103f29190611b86565b611364565b005b348015610404575f5ffd5b5061040d611625565b60405161041a9190611d26565b60405180910390f35b34801561042e575f5ffd5b5061044960048036038101906104449190611f17565b61162b565b005b348015610456575f5ffd5b5061045f611945565b60405161046c9190611fc6565b60405180910390f35b348015610480575f5ffd5b5061049b60048036038101906104969190611da7565b61196a565b005b5f5f5f60075f8581526020019081526020015f209050806003015492505f73ffffffffffffffffffffffffffffffffffffffff16815f015f9054906101000a900473ffffffffffffffffffffffffffffffffffffffff1673ffffffffffffffffffffffffffffffffffffffff160361054a576040517f08c379a00000000000000000000000000000000000000000000000000000000081526004016105419061204f565b60405180910390fd5b8060030154816005015410610561575f9150610578565b80600501548160030154610575919061209a565b91505b50915091565b5f60075f8481526020019081526020015f2090505f8160040154116105d8576040517f08c379a00000000000000000000000000000000000000000000000000000000081526004016105cf9061213d565b60405180910390fd5b3373ffffffffffffffffffffffffffffffffffffffff16815f015f9054906101000a900473ffffffffffffffffffffffffffffffffffffffff1673ffffffffffffffffffffffffffffffffffffffff1614610668576040517f08c379a000000000000000000000000000000000000000000000000000000000815260040161065f906121f1565b60405180910390fd5b818160030181905550505050565b6007602052805f5260405f205f91509050805f015f9054906101000a900473ffffffffffffffffffffffffffffffffffffffff16908060010180546106ba9061223c565b80601f01602080910402602001604051908101604052809291908181526020018280546106e69061223c565b80156107315780601f1061070857610100808354040283529160200191610731565b820191905f5260205f20905b81548152906001019060200180831161071457829003601f168201915b5050505050908060020180546107469061223c565b80601f01602080910402602001604051908101604052809291908181526020018280546107729061223c565b80156107bd5780601f10610794576101008083540402835291602001916107bd565b820191905f5260205f20905b8154815290600101906020018083116107a057829003601f168201915b505050505090806003015490806004015490806005015490806006015f9054906101000a900460ff16908060060160019054906101000a900473ffffffffffffffffffffffffffffffffffffffff16908060070154905089565b60055481565b5f5f60075f8481526020019081526020015f20905080600401544210610846575f91505061085a565b428160040154610856919061209a565b9150505b919050565b5f60075f8381526020019081526020015f20905080600301548160050154106108bd576040517f08c379a00000000000000000000000000000000000000000000000000000000081526004016108b4906122dc565b60405180910390fd5b5f60085f8481526020019081526020015f205f3373ffffffffffffffffffffffffffffffffffffffff1673ffffffffffffffffffffffffffffffffffffffff1681526020019081526020015f2054905080826005015f828254610920919061209a565b925050819055508060085f8581526020019081526020015f205f3373ffffffffffffffffffffffffffffffffffffffff1673ffffffffffffffffffffffffffffffffffffffff1681526020019081526020015f205f828254610982919061209a565b925050819055508060015f82825461099a919061209a565b925050819055503373ffffffffffffffffffffffffffffffffffffffff166108fc8290811502906040515f60405180830381858888f193505050501580156109e4573d5f5f3e3d5ffd5b50827fb6e4e293b6c7c5cf68fbb52edfaca6173710fcccbcecac03c32e62327fc000c63383604051610a179291906122fa565b60405180910390a2505050565b5f5f60075f8481526020019081526020015f2090505f816003015460648360050154610a509190612321565b610a5a919061238f565b90508092505050919050565b5f600154905090565b6008602052815f5260405f20602052805f5260405f205f91509150505481565b5f60075f8481526020019081526020015f2090503373ffffffffffffffffffffffffffffffffffffffff16815f015f9054906101000a900473ffffffffffffffffffffffffffffffffffffffff1673ffffffffffffffffffffffffffffffffffffffff1614610b33576040517f08c379a0000000000000000000000000000000000000000000000000000000008152600401610b2a9061242f565b60405180910390fd5b81816004015f828254610b46919061244d565b92505081905550505050565b610b5a611a94565b5f60075f8381526020019081526020015f2090508060040154421115610bb5576040517f08c379a0000000000000000000000000000000000000000000000000000000008152600401610bac906124ca565b60405180910390fd5b806006015f9054906101000a900460ff1615610c06576040517f08c379a0000000000000000000000000000000000000000000000000000000008152600401610bfd90612558565b60405180910390fd5b5f3411610c48576040517f08c379a0000000000000000000000000000000000000000000000000000000008152600401610c3f906125e6565b60405180910390fd5b8060030154341115610c8f576040517f08c379a0000000000000000000000000000000000000000000000000000000008152600401610c8690612674565b60405180910390fd5b5f81600501548260030154610ca4919061209a565b90505f5f82341115610cc6578291508234610cbf919061209a565b9050610ccd565b3491505f90505b81846005015f828254610ce0919061244d565b925050819055508160085f8781526020019081526020015f205f3373ffffffffffffffffffffffffffffffffffffffff1673ffffffffffffffffffffffffffffffffffffffff1681526020019081526020015f20819055508160015f828254610d49919061244d565b925050819055505f811115610e02575f3373ffffffffffffffffffffffffffffffffffffffff1682604051610d7d906126bf565b5f6040518083038185875af1925050503d805f8114610db7576040519150601f19603f3d011682016040523d82523d5f602084013e610dbc565b606091505b5050905080610e00576040517f08c379a0000000000000000000000000000000000000000000000000000000008152600401610df79061271d565b60405180910390fd5b505b5f60085f8781526020019081526020015f205f3373ffffffffffffffffffffffffffffffffffffffff1673ffffffffffffffffffffffffffffffffffffffff1681526020019081526020015f205490508460070154811115610eab57808560070181905550338560060160016101000a81548173ffffffffffffffffffffffffffffffffffffffff021916908373ffffffffffffffffffffffffffffffffffffffff1602179055505b857f7dd983e9d08b449d571f3583275e98423857f3ffbe9ef56f927eb02b1c8ab599338585604051610edf9392919061273b565b60405180910390a28460030154856005015410610f13576001856006015f6101000a81548160ff0219169083151502179055505b846006015f9054906101000a900460ff16158015610f35575084600401544210155b15610f72576001856006015f6101000a81548160ff02191690831515021790555060045f815480929190610f6890612770565b9190505550611042565b5f856006015f6101000a81548160ff021916908315150217905515611041578460040154421015610fd8576040517f08c379a0000000000000000000000000000000000000000000000000000000008152600401610fcf90612801565b60405180910390fd5b846006015f9054906101000a900460ff1615611029576040517f08c379a000000000000000000000000000000000000000000000000000000000815260040161102090612869565b60405180910390fd5b60055f81548092919061103b90612770565b91905055505b5b505050505061104f611ad8565b50565b5f60075f8381526020019081526020015f2090505f81600501549050816006015f9054906101000a900460ff166110be576040517f08c379a00000000000000000000000000000000000000000000000000000000081526004016110b5906128f7565b60405180910390fd5b3373ffffffffffffffffffffffffffffffffffffffff16825f015f9054906101000a900473ffffffffffffffffffffffffffffffffffffffff1673ffffffffffffffffffffffffffffffffffffffff161461114e576040517f08c379a00000000000000000000000000000000000000000000000000000000081526004016111459061295f565b60405180910390fd5b4282600401541115611195576040517f08c379a000000000000000000000000000000000000000000000000000000000815260040161118c906129ed565b60405180910390fd5b3373ffffffffffffffffffffffffffffffffffffffff166108fc8290811502906040515f60405180830381858888f193505050501580156111d8573d5f5f3e3d5ffd5b50827fcae030e1a3c6b0011e7009bd65734e2e1e330528f6983497631fabd47fa7a281333460405161120b9291906122fa565b60405180910390a2505050565b3373ffffffffffffffffffffffffffffffffffffffff1660035f9054906101000a900473ffffffffffffffffffffffffffffffffffffffff1673ffffffffffffffffffffffffffffffffffffffff16146112a7576040517f08c379a000000000000000000000000000000000000000000000000000000000815260040161129e90612a55565b60405180910390fd5b5f60065f8373ffffffffffffffffffffffffffffffffffffffff1673ffffffffffffffffffffffffffffffffffffffff1681526020019081526020015f205f6101000a81548160ff0219169083151502179055508073ffffffffffffffffffffffffffffffffffffffff167f0925d0e195cc39b7ade3fd58fdf494022e37bfd6242c2be09c0b2863977c187960405160405180910390a250565b6006602052805f5260405f205f915054906101000a900460ff1681565b60025481565b5f60075f8481526020019081526020015f209050806004015442106113be576040517f08c379a00000000000000000000000000000000000000000000000000000000081526004016113b590612abd565b60405180910390fd5b5f60085f8581526020019081526020015f205f3373ffffffffffffffffffffffffffffffffffffffff1673ffffffffffffffffffffffffffffffffffffffff1681526020019081526020015f205490505f8111611450576040517f08c379a000000000000000000000000000000000000000000000000000000000815260040161144790612b25565b60405180910390fd5b80831115611493576040517f08c379a000000000000000000000000000000000000000000000000000000000815260040161148a90612bb3565b60405180910390fd5b82826005015f8282546114a6919061209a565b925050819055508260085f8681526020019081526020015f205f3373ffffffffffffffffffffffffffffffffffffffff1673ffffffffffffffffffffffffffffffffffffffff1681526020019081526020015f205f828254611508919061209a565b925050819055508260015f828254611520919061209a565b925050819055505f3373ffffffffffffffffffffffffffffffffffffffff168460405161154c906126bf565b5f6040518083038185875af1925050503d805f8114611586576040519150601f19603f3d011682016040523d82523d5f602084013e61158b565b606091505b50509050806115cf576040517f08c379a00000000000000000000000000000000000000000000000000000000081526004016115c690612c1b565b60405180910390fd5b843373ffffffffffffffffffffffffffffffffffffffff167fb37480540ffb97ff520a59b38ea1a83aefbfd3d2a956d958a00214b8b6551f28866040516116169190611d26565b60405180910390a35050505050565b60045481565b60095f8281526020019081526020015f205f9054906101000a900460ff1615611689576040517f08c379a000000000000000000000000000000000000000000000000000000000815260040161168090612c83565b60405180910390fd5b60065f3373ffffffffffffffffffffffffffffffffffffffff1673ffffffffffffffffffffffffffffffffffffffff1681526020019081526020015f205f9054906101000a900460ff16611712576040517f08c379a000000000000000000000000000000000000000000000000000000000815260040161170990612d11565b60405180910390fd5b600160095f8381526020019081526020015f205f6101000a81548160ff0219169083151502179055506040518061012001604052803373ffffffffffffffffffffffffffffffffffffffff1681526020018681526020018581526020018481526020018342611781919061244d565b81526020015f81526020015f151581526020015f73ffffffffffffffffffffffffffffffffffffffff1681526020015f81525060075f8381526020019081526020015f205f820151815f015f6101000a81548173ffffffffffffffffffffffffffffffffffffffff021916908373ffffffffffffffffffffffffffffffffffffffff160217905550602082015181600101908161181e9190612ecf565b5060408201518160020190816118349190612ecf565b50606082015181600301556080820151816004015560a0820151816005015560c0820151816006015f6101000a81548160ff02191690831515021790555060e08201518160060160016101000a81548173ffffffffffffffffffffffffffffffffffffffff021916908373ffffffffffffffffffffffffffffffffffffffff160217905550610100820151816007015590505060025f8154809291906118d990612770565b91905055503373ffffffffffffffffffffffffffffffffffffffff16817fac9b83534845c9e785a6ea70f2d809db1d72ef9a1d981753712d922f5cb55f398787878742611926919061244d565b6040516119369493929190612f9e565b60405180910390a35050505050565b60035f9054906101000a900473ffffffffffffffffffffffffffffffffffffffff1681565b3373ffffffffffffffffffffffffffffffffffffffff1660035f9054906101000a900473ffffffffffffffffffffffffffffffffffffffff1673ffffffffffffffffffffffffffffffffffffffff16146119f9576040517f08c379a00000000000000000000000000000000000000000000000000000000081526004016119f090612a55565b60405180910390fd5b600160065f8373ffffffffffffffffffffffffffffffffffffffff1673ffffffffffffffffffffffffffffffffffffffff1681526020019081526020015f205f6101000a81548160ff0219169083151502179055508073ffffffffffffffffffffffffffffffffffffffff167f1f9f86dc4a3ce57ee42e33c59def65713163420d0ab979169ef129299ff2b85e60405160405180910390a250565b60025f5403611acf576040517f3ee5aeb500000000000000000000000000000000000000000000000000000000815260040160405180910390fd5b60025f81905550565b60015f81905550565b5f604051905090565b5f5ffd5b5f5ffd5b5f819050919050565b611b0481611af2565b8114611b0e575f5ffd5b50565b5f81359050611b1f81611afb565b92915050565b5f60208284031215611b3a57611b39611aea565b5b5f611b4784828501611b11565b91505092915050565b611b5981611af2565b82525050565b5f604082019050611b725f830185611b50565b611b7f6020830184611b50565b9392505050565b5f5f60408385031215611b9c57611b9b611aea565b5b5f611ba985828601611b11565b9250506020611bba85828601611b11565b9150509250929050565b5f73ffffffffffffffffffffffffffffffffffffffff82169050919050565b5f611bed82611bc4565b9050919050565b611bfd81611be3565b82525050565b5f81519050919050565b5f82825260208201905092915050565b8281835e5f83830152505050565b5f601f19601f8301169050919050565b5f611c4582611c03565b611c4f8185611c0d565b9350611c5f818560208601611c1d565b611c6881611c2b565b840191505092915050565b5f8115159050919050565b611c8781611c73565b82525050565b5f61012082019050611ca15f83018c611bf4565b8181036020830152611cb3818b611c3b565b90508181036040830152611cc7818a611c3b565b9050611cd66060830189611b50565b611ce36080830188611b50565b611cf060a0830187611b50565b611cfd60c0830186611c7e565b611d0a60e0830185611bf4565b611d18610100830184611b50565b9a9950505050505050505050565b5f602082019050611d395f830184611b50565b92915050565b611d4881611be3565b8114611d52575f5ffd5b50565b5f81359050611d6381611d3f565b92915050565b5f5f60408385031215611d7f57611d7e611aea565b5b5f611d8c85828601611b11565b9250506020611d9d85828601611d55565b9150509250929050565b5f60208284031215611dbc57611dbb611aea565b5b5f611dc984828501611d55565b91505092915050565b5f602082019050611de55f830184611c7e565b92915050565b5f5ffd5b5f5ffd5b7f4e487b71000000000000000000000000000000000000000000000000000000005f52604160045260245ffd5b611e2982611c2b565b810181811067ffffffffffffffff82111715611e4857611e47611df3565b5b80604052505050565b5f611e5a611ae1565b9050611e668282611e20565b919050565b5f67ffffffffffffffff821115611e8557611e84611df3565b5b611e8e82611c2b565b9050602081019050919050565b828183375f83830152505050565b5f611ebb611eb684611e6b565b611e51565b905082815260208101848484011115611ed757611ed6611def565b5b611ee2848285611e9b565b509392505050565b5f82601f830112611efe57611efd611deb565b5b8135611f0e848260208601611ea9565b91505092915050565b5f5f5f5f5f60a08688031215611f3057611f2f611aea565b5b5f86013567ffffffffffffffff811115611f4d57611f4c611aee565b5b611f5988828901611eea565b955050602086013567ffffffffffffffff811115611f7a57611f79611aee565b5b611f8688828901611eea565b9450506040611f9788828901611b11565b9350506060611fa888828901611b11565b9250506080611fb988828901611b11565b9150509295509295909350565b5f602082019050611fd95f830184611bf4565b92915050565b7f70726f6a65637420686173206e6f74206265656e2063726561746564207965745f8201527f2100000000000000000000000000000000000000000000000000000000000000602082015250565b5f612039602183611c0d565b915061204482611fdf565b604082019050919050565b5f6020820190508181035f8301526120668161202d565b9050919050565b7f4e487b71000000000000000000000000000000000000000000000000000000005f52601160045260245ffd5b5f6120a482611af2565b91506120af83611af2565b92508282039050818111156120c7576120c661206d565b5b92915050565b7f446561646c696e65206973206f766572202c20796f752043616e2774206368615f8201527f6e6765207468652066756e64696e6720676f616c202121000000000000000000602082015250565b5f612127603783611c0d565b9150612132826120cd565b604082019050919050565b5f6020820190508181035f8301526121548161211b565b9050919050565b7f596f7520617265206e6f74207468652070726f6a6563742063726561746f72205f8201527f2c204f6e6c7920506f726a6563742063726561746f722063616e204368616e6760208201527f6520212100000000000000000000000000000000000000000000000000000000604082015250565b5f6121db604483611c0d565b91506121e68261215b565b606082019050919050565b5f6020820190508181035f830152612208816121cf565b9050919050565b7f4e487b71000000000000000000000000000000000000000000000000000000005f52602260045260245ffd5b5f600282049050600182168061225357607f821691505b6020821081036122665761226561220f565b5b50919050565b7f46756e64696e6720676f616c206861732072656163686564202c2075736572205f8201527f63616e2774207769746864726177000000000000000000000000000000000000602082015250565b5f6122c6602e83611c0d565b91506122d18261226c565b604082019050919050565b5f6020820190508181035f8301526122f3816122ba565b9050919050565b5f60408201905061230d5f830185611bf4565b61231a6020830184611b50565b9392505050565b5f61232b82611af2565b915061233683611af2565b925082820261234481611af2565b9150828204841483151761235b5761235a61206d565b5b5092915050565b7f4e487b71000000000000000000000000000000000000000000000000000000005f52601260045260245ffd5b5f61239982611af2565b91506123a483611af2565b9250826123b4576123b3612362565b5b828204905092915050565b7f4f6e6c792050726f6a6563742063726561746f722063616e20657874656e64205f8201527f74686520646561646c696e652121000000000000000000000000000000000000602082015250565b5f612419602e83611c0d565b9150612424826123bf565b604082019050919050565b5f6020820190508181035f8301526124468161240d565b9050919050565b5f61245782611af2565b915061246283611af2565b925082820190508082111561247a5761247961206d565b5b92915050565b7f50726f6a65637420646561646c696e65206973206f76657221000000000000005f82015250565b5f6124b4601983611c0d565b91506124bf82612480565b602082019050919050565b5f6020820190508181035f8301526124e1816124a8565b9050919050565b7f50726f6a6563742052656163686564206974732046756e64696e6720726571755f8201527f6972656d656e7400000000000000000000000000000000000000000000000000602082015250565b5f612542602783611c0d565b915061254d826124e8565b604082019050919050565b5f6020820190508181035f83015261256f81612536565b9050919050565b7f73656e6420736f6d6520657468657220746f20636f6e7472696275746520696e5f8201527f207468652070726f6a6563740000000000000000000000000000000000000000602082015250565b5f6125d0602c83611c0d565b91506125db82612576565b604082019050919050565b5f6020820190508181035f8301526125fd816125c4565b9050919050565b7f416d6f756e7420436f6e7472696275746564206973206d6f7265207468616e205f8201527f476f616c00000000000000000000000000000000000000000000000000000000602082015250565b5f61265e602483611c0d565b915061266982612604565b604082019050919050565b5f6020820190508181035f83015261268b81612652565b9050919050565b5f81905092915050565b50565b5f6126aa5f83612692565b91506126b58261269c565b5f82019050919050565b5f6126c98261269f565b9150819050919050565b7f526566756e64204661696c6564000000000000000000000000000000000000005f82015250565b5f612707600d83611c0d565b9150612712826126d3565b602082019050919050565b5f6020820190508181035f830152612734816126fb565b9050919050565b5f60608201905061274e5f830186611bf4565b61275b6020830185611b50565b6127686040830184611b50565b949350505050565b5f61277a82611af2565b91507fffffffffffffffffffffffffffffffffffffffffffffffffffffffffffffffff82036127ac576127ab61206d565b5b600182019050919050565b7f446561646c696e65206973206e6f7420726561636865642079657400000000005f82015250565b5f6127eb601b83611c0d565b91506127f6826127b7565b602082019050919050565b5f6020820190508181035f830152612818816127df565b9050919050565b7f50726f6a65637420616c72656164792066756e646564000000000000000000005f82015250565b5f612853601683611c0d565b915061285e8261281f565b602082019050919050565b5f6020820190508181035f83015261288081612847565b9050919050565b7f66756e64696e6720676f616c20686173206e6f742072656163686564202c20615f8201527f646d696e2063616e277420776974686472617700000000000000000000000000602082015250565b5f6128e1603383611c0d565b91506128ec82612887565b604082019050919050565b5f6020820190508181035f83015261290e816128d5565b9050919050565b7f6f6e6c792061646d696e2063616e2077697468647261770000000000000000005f82015250565b5f612949601783611c0d565b915061295482612915565b602082019050919050565b5f6020820190508181035f8301526129768161293d565b9050919050565b7f646561646c696e6520686173206e6f742072656163686564202c2061646d696e5f8201527f2063616e27742077697468647261770000000000000000000000000000000000602082015250565b5f6129d7602f83611c0d565b91506129e28261297d565b604082019050919050565b5f6020820190508181035f830152612a04816129cb565b9050919050565b7f4f6e6c792041646d696e2063616e2061636365737300000000000000000000005f82015250565b5f612a3f601583611c0d565b9150612a4a82612a0b565b602082019050919050565b5f6020820190508181035f830152612a6c81612a33565b9050919050565b7f43616e6e6f7420776974686472617720616674657220646561646c696e6500005f82015250565b5f612aa7601e83611c0d565b9150612ab282612a73565b602082019050919050565b5f6020820190508181035f830152612ad481612a9b565b9050919050565b7f4e6f2046756e647320746f2077697468647261772121000000000000000000005f82015250565b5f612b0f601683611c0d565b9150612b1a82612adb565b602082019050919050565b5f6020820190508181035f830152612b3c81612b03565b9050919050565b7f576974686472617720616d6f756e74206578636565647320796f757220636f6e5f8201527f747269627574696f6e0000000000000000000000000000000000000000000000602082015250565b5f612b9d602983611c0d565b9150612ba882612b43565b604082019050919050565b5f6020820190508181035f830152612bca81612b91565b9050919050565b7f7769746864726177206661696c656421212121000000000000000000000000005f82015250565b5f612c05601383611c0d565b9150612c1082612bd1565b602082019050919050565b5f6020820190508181035f830152612c3281612bf9565b9050919050565b7f50726f6a65637420494420697320616c726561647920696e20757365210000005f82015250565b5f612c6d601d83611c0d565b9150612c7882612c39565b602082019050919050565b5f6020820190508181035f830152612c9a81612c61565b9050919050565b7f4f6e6c7920417574686f72697a65642063726561746f72732063616e206163635f8201527f6573732121000000000000000000000000000000000000000000000000000000602082015250565b5f612cfb602583611c0d565b9150612d0682612ca1565b604082019050919050565b5f6020820190508181035f830152612d2881612cef565b9050919050565b5f819050815f5260205f209050919050565b5f6020601f8301049050919050565b5f82821b905092915050565b5f60088302612d8b7fffffffffffffffffffffffffffffffffffffffffffffffffffffffffffffffff82612d50565b612d958683612d50565b95508019841693508086168417925050509392505050565b5f819050919050565b5f612dd0612dcb612dc684611af2565b612dad565b611af2565b9050919050565b5f819050919050565b612de983612db6565b612dfd612df582612dd7565b848454612d5c565b825550505050565b5f5f905090565b612e14612e05565b612e1f818484612de0565b505050565b5b81811015612e4257612e375f82612e0c565b600181019050612e25565b5050565b601f821115612e8757612e5881612d2f565b612e6184612d41565b81016020851015612e70578190505b612e84612e7c85612d41565b830182612e24565b50505b505050565b5f82821c905092915050565b5f612ea75f1984600802612e8c565b1980831691505092915050565b5f612ebf8383612e98565b9150826002028217905092915050565b612ed882611c03565b67ffffffffffffffff811115612ef157612ef0611df3565b5b612efb825461223c565b612f06828285612e46565b5f60209050601f831160018114612f37575f8415612f25578287015190505b612f2f8582612eb4565b865550612f96565b601f198416612f4586612d2f565b5f5b82811015612f6c57848901518255600182019150602085019450602081019050612f47565b86831015612f895784890151612f85601f891682612e98565b8355505b6001600288020188555050505b505050505050565b5f6080820190508181035f830152612fb68187611c3b565b90508181036020830152612fca8186611c3b565b9050612fd96040830185611b50565b612fe66060830184611b50565b9594505050505056fea26469706673582212205fe7a628fc20a3324efc0aeab8927dfc7a0fba536538099e3176b02e2566d41f64736f6c634300081e0033",
					"opcodes": "PUSH1 0x80 PUSH1 0x40 MSTORE CALLVALUE DUP1 ISZERO PUSH1 0xE JUMPI PUSH0 PUSH0 REVERT JUMPDEST POP PUSH1 0x1 PUSH0 DUP2 SWAP1 SSTORE POP CALLER PUSH1 0x3 PUSH0 PUSH2 0x100 EXP DUP2 SLOAD DUP2 PUSH20 0xFFFFFFFFFFFFFFFFFFFFFFFFFFFFFFFFFFFFFFFF MUL NOT AND SWAP1 DUP4 PUSH20 0xFFFFFFFFFFFFFFFFFFFFFFFFFFFFFFFFFFFFFFFF AND MUL OR SWAP1 SSTORE POP PUSH2 0x3025 DUP1 PUSH2 0x63 PUSH0 CODECOPY PUSH0 RETURN INVALID PUSH1 0x80 PUSH1 0x40 MSTORE PUSH1 0x4 CALLDATASIZE LT PUSH2 0x11E JUMPI PUSH0 CALLDATALOAD PUSH1 0xE0 SHR DUP1 PUSH4 0x6C563ABE GT PUSH2 0x9F JUMPI DUP1 PUSH4 0xCD4AC98C GT PUSH2 0x63 JUMPI DUP1 PUSH4 0xCD4AC98C EQ PUSH2 0x3DD JUMPI DUP1 PUSH4 0xCE7C9080 EQ PUSH2 0x3F9 JUMPI DUP1 PUSH4 0xF81BF601 EQ PUSH2 0x423 JUMPI DUP1 PUSH4 0xF851A440 EQ PUSH2 0x44B JUMPI DUP1 PUSH4 0xFEE2F1C9 EQ PUSH2 0x475 JUMPI PUSH2 0x11E JUMP JUMPDEST DUP1 PUSH4 0x6C563ABE EQ PUSH2 0x317 JUMPI DUP1 PUSH4 0x71EB89F3 EQ PUSH2 0x333 JUMPI DUP1 PUSH4 0x7299BAEB EQ PUSH2 0x34F JUMPI DUP1 PUSH4 0x88283C0F EQ PUSH2 0x377 JUMPI DUP1 PUSH4 0x9AB761C7 EQ PUSH2 0x3B3 JUMPI PUSH2 0x11E JUMP JUMPDEST DUP1 PUSH4 0x3B9056BF GT PUSH2 0xE6 JUMPI DUP1 PUSH4 0x3B9056BF EQ PUSH2 0x231 JUMPI DUP1 PUSH4 0x42D844A5 EQ PUSH2 0x24D JUMPI DUP1 PUSH4 0x54A5BCC5 EQ PUSH2 0x289 JUMPI DUP1 PUSH4 0x5D4E5D78 EQ PUSH2 0x2B3 JUMPI DUP1 PUSH4 0x629B2647 EQ PUSH2 0x2EF JUMPI PUSH2 0x11E JUMP JUMPDEST DUP1 PUSH4 0xDBAC135 EQ PUSH2 0x122 JUMPI DUP1 PUSH4 0x1392EBFE EQ PUSH2 0x15F JUMPI DUP1 PUSH4 0x21B2416C EQ PUSH2 0x187 JUMPI DUP1 PUSH4 0x32DCD3A1 EQ PUSH2 0x1CB JUMPI DUP1 PUSH4 0x370C36B4 EQ PUSH2 0x1F5 JUMPI JUMPDEST PUSH0 PUSH0 REVERT JUMPDEST CALLVALUE DUP1 ISZERO PUSH2 0x12D JUMPI PUSH0 PUSH0 REVERT JUMPDEST POP PUSH2 0x148 PUSH1 0x4 DUP1 CALLDATASIZE SUB DUP2 ADD SWAP1 PUSH2 0x143 SWAP2 SWAP1 PUSH2 0x1B25 JUMP JUMPDEST PUSH2 0x49D JUMP JUMPDEST PUSH1 0x40 MLOAD PUSH2 0x156 SWAP3 SWAP2 SWAP1 PUSH2 0x1B5F JUMP JUMPDEST PUSH1 0x40 MLOAD DUP1 SWAP2 SUB SWAP1 RETURN JUMPDEST CALLVALUE DUP1 ISZERO PUSH2 0x16A JUMPI PUSH0 PUSH0 REVERT JUMPDEST POP PUSH2 0x185 PUSH1 0x4 DUP1 CALLDATASIZE SUB DUP2 ADD SWAP1 PUSH2 0x180 SWAP2 SWAP1 PUSH2 0x1B86 JUMP JUMPDEST PUSH2 0x57E JUMP JUMPDEST STOP JUMPDEST CALLVALUE DUP1 ISZERO PUSH2 0x192 JUMPI PUSH0 PUSH0 REVERT JUMPDEST POP PUSH2 0x1AD PUSH1 0x4 DUP1 CALLDATASIZE SUB DUP2 ADD SWAP1 PUSH2 0x1A8 SWAP2 SWAP1 PUSH2 0x1B25 JUMP JUMPDEST PUSH2 0x676 JUMP JUMPDEST PUSH1 0x40 MLOAD PUSH2 0x1C2 SWAP10 SWAP9 SWAP8 SWAP7 SWAP6 SWAP5 SWAP4 SWAP3 SWAP2 SWAP1 PUSH2 0x1C8D JUMP JUMPDEST PUSH1 0x40 MLOAD DUP1 SWAP2 SUB SWAP1 RETURN JUMPDEST CALLVALUE DUP1 ISZERO PUSH2 0x1D6 JUMPI PUSH0 PUSH0 REVERT JUMPDEST POP PUSH2 0x1DF PUSH2 0x817 JUMP JUMPDEST PUSH1 0x40 MLOAD PUSH2 0x1EC SWAP2 SWAP1 PUSH2 0x1D26 JUMP JUMPDEST PUSH1 0x40 MLOAD DUP1 SWAP2 SUB SWAP1 RETURN JUMPDEST CALLVALUE DUP1 ISZERO PUSH2 0x200 JUMPI PUSH0 PUSH0 REVERT JUMPDEST POP PUSH2 0x21B PUSH1 0x4 DUP1 CALLDATASIZE SUB DUP2 ADD SWAP1 PUSH2 0x216 SWAP2 SWAP1 PUSH2 0x1B25 JUMP JUMPDEST PUSH2 0x81D JUMP JUMPDEST PUSH1 0x40 MLOAD PUSH2 0x228 SWAP2 SWAP1 PUSH2 0x1D26 JUMP JUMPDEST PUSH1 0x40 MLOAD DUP1 SWAP2 SUB SWAP1 RETURN JUMPDEST PUSH2 0x24B PUSH1 0x4 DUP1 CALLDATASIZE SUB DUP2 ADD SWAP1 PUSH2 0x246 SWAP2 SWAP1 PUSH2 0x1B25 JUMP JUMPDEST PUSH2 0x85F JUMP JUMPDEST STOP JUMPDEST CALLVALUE DUP1 ISZERO PUSH2 0x258 JUMPI PUSH0 PUSH0 REVERT JUMPDEST POP PUSH2 0x273 PUSH1 0x4 DUP1 CALLDATASIZE SUB DUP2 ADD SWAP1 PUSH2 0x26E SWAP2 SWAP1 PUSH2 0x1B25 JUMP JUMPDEST PUSH2 0xA24 JUMP JUMPDEST PUSH1 0x40 MLOAD PUSH2 0x280 SWAP2 SWAP1 PUSH2 0x1D26 JUMP JUMPDEST PUSH1 0x40 MLOAD DUP1 SWAP2 SUB SWAP1 RETURN JUMPDEST CALLVALUE DUP1 ISZERO PUSH2 0x294 JUMPI PUSH0 PUSH0 REVERT JUMPDEST POP PUSH2 0x29D PUSH2 0xA66 JUMP JUMPDEST PUSH1 0x40 MLOAD PUSH2 0x2AA SWAP2 SWAP1 PUSH2 0x1D26 JUMP JUMPDEST PUSH1 0x40 MLOAD DUP1 SWAP2 SUB SWAP1 RETURN JUMPDEST CALLVALUE DUP1 ISZERO PUSH2 0x2BE JUMPI PUSH0 PUSH0 REVERT JUMPDEST POP PUSH2 0x2D9 PUSH1 0x4 DUP1 CALLDATASIZE SUB DUP2 ADD SWAP1 PUSH2 0x2D4 SWAP2 SWAP1 PUSH2 0x1D69 JUMP JUMPDEST PUSH2 0xA6F JUMP JUMPDEST PUSH1 0x40 MLOAD PUSH2 0x2E6 SWAP2 SWAP1 PUSH2 0x1D26 JUMP JUMPDEST PUSH1 0x40 MLOAD DUP1 SWAP2 SUB SWAP1 RETURN JUMPDEST CALLVALUE DUP1 ISZERO PUSH2 0x2FA JUMPI PUSH0 PUSH0 REVERT JUMPDEST POP PUSH2 0x315 PUSH1 0x4 DUP1 CALLDATASIZE SUB DUP2 ADD SWAP1 PUSH2 0x310 SWAP2 SWAP1 PUSH2 0x1B86 JUMP JUMPDEST PUSH2 0xA8F JUMP JUMPDEST STOP JUMPDEST PUSH2 0x331 PUSH1 0x4 DUP1 CALLDATASIZE SUB DUP2 ADD SWAP1 PUSH2 0x32C SWAP2 SWAP1 PUSH2 0x1B25 JUMP JUMPDEST PUSH2 0xB52 JUMP JUMPDEST STOP JUMPDEST PUSH2 0x34D PUSH1 0x4 DUP1 CALLDATASIZE SUB DUP2 ADD SWAP1 PUSH2 0x348 SWAP2 SWAP1 PUSH2 0x1B25 JUMP JUMPDEST PUSH2 0x1052 JUMP JUMPDEST STOP JUMPDEST CALLVALUE DUP1 ISZERO PUSH2 0x35A JUMPI PUSH0 PUSH0 REVERT JUMPDEST POP PUSH2 0x375 PUSH1 0x4 DUP1 CALLDATASIZE SUB DUP2 ADD SWAP1 PUSH2 0x370 SWAP2 SWAP1 PUSH2 0x1DA7 JUMP JUMPDEST PUSH2 0x1218 JUMP JUMPDEST STOP JUMPDEST CALLVALUE DUP1 ISZERO PUSH2 0x382 JUMPI PUSH0 PUSH0 REVERT JUMPDEST POP PUSH2 0x39D PUSH1 0x4 DUP1 CALLDATASIZE SUB DUP2 ADD SWAP1 PUSH2 0x398 SWAP2 SWAP1 PUSH2 0x1DA7 JUMP JUMPDEST PUSH2 0x1341 JUMP JUMPDEST PUSH1 0x40 MLOAD PUSH2 0x3AA SWAP2 SWAP1 PUSH2 0x1DD2 JUMP JUMPDEST PUSH1 0x40 MLOAD DUP1 SWAP2 SUB SWAP1 RETURN JUMPDEST CALLVALUE DUP1 ISZERO PUSH2 0x3BE JUMPI PUSH0 PUSH0 REVERT JUMPDEST POP PUSH2 0x3C7 PUSH2 0x135E JUMP JUMPDEST PUSH1 0x40 MLOAD PUSH2 0x3D4 SWAP2 SWAP1 PUSH2 0x1D26 JUMP JUMPDEST PUSH1 0x40 MLOAD DUP1 SWAP2 SUB SWAP1 RETURN JUMPDEST PUSH2 0x3F7 PUSH1 0x4 DUP1 CALLDATASIZE SUB DUP2 ADD SWAP1 PUSH2 0x3F2 SWAP2 SWAP1 PUSH2 0x1B86 JUMP JUMPDEST PUSH2 0x1364 JUMP JUMPDEST STOP JUMPDEST CALLVALUE DUP1 ISZERO PUSH2 0x404 JUMPI PUSH0 PUSH0 REVERT JUMPDEST POP PUSH2 0x40D PUSH2 0x1625 JUMP JUMPDEST PUSH1 0x40 MLOAD PUSH2 0x41A SWAP2 SWAP1 PUSH2 0x1D26 JUMP JUMPDEST PUSH1 0x40 MLOAD DUP1 SWAP2 SUB SWAP1 RETURN JUMPDEST CALLVALUE DUP1 ISZERO PUSH2 0x42E JUMPI PUSH0 PUSH0 REVERT JUMPDEST POP PUSH2 0x449 PUSH1 0x4 DUP1 CALLDATASIZE SUB DUP2 ADD SWAP1 PUSH2 0x444 SWAP2 SWAP1 PUSH2 0x1F17 JUMP JUMPDEST PUSH2 0x162B JUMP JUMPDEST STOP JUMPDEST CALLVALUE DUP1 ISZERO PUSH2 0x456 JUMPI PUSH0 PUSH0 REVERT JUMPDEST POP PUSH2 0x45F PUSH2 0x1945 JUMP JUMPDEST PUSH1 0x40 MLOAD PUSH2 0x46C SWAP2 SWAP1 PUSH2 0x1FC6 JUMP JUMPDEST PUSH1 0x40 MLOAD DUP1 SWAP2 SUB SWAP1 RETURN JUMPDEST CALLVALUE DUP1 ISZERO PUSH2 0x480 JUMPI PUSH0 PUSH0 REVERT JUMPDEST POP PUSH2 0x49B PUSH1 0x4 DUP1 CALLDATASIZE SUB DUP2 ADD SWAP1 PUSH2 0x496 SWAP2 SWAP1 PUSH2 0x1DA7 JUMP JUMPDEST PUSH2 0x196A JUMP JUMPDEST STOP JUMPDEST PUSH0 PUSH0 PUSH0 PUSH1 0x7 PUSH0 DUP6 DUP2 MSTORE PUSH1 0x20 ADD SWAP1 DUP2 MSTORE PUSH1 0x20 ADD PUSH0 KECCAK256 SWAP1 POP DUP1 PUSH1 0x3 ADD SLOAD SWAP3 POP PUSH0 PUSH20 0xFFFFFFFFFFFFFFFFFFFFFFFFFFFFFFFFFFFFFFFF AND DUP2 PUSH0 ADD PUSH0 SWAP1 SLOAD SWAP1 PUSH2 0x100 EXP SWAP1 DIV PUSH20 0xFFFFFFFFFFFFFFFFFFFFFFFFFFFFFFFFFFFFFFFF AND PUSH20 0xFFFFFFFFFFFFFFFFFFFFFFFFFFFFFFFFFFFFFFFF AND SUB PUSH2 0x54A JUMPI PUSH1 0x40 MLOAD PUSH32 0x8C379A000000000000000000000000000000000000000000000000000000000 DUP2 MSTORE PUSH1 0x4 ADD PUSH2 0x541 SWAP1 PUSH2 0x204F JUMP JUMPDEST PUSH1 0x40 MLOAD DUP1 SWAP2 SUB SWAP1 REVERT JUMPDEST DUP1 PUSH1 0x3 ADD SLOAD DUP2 PUSH1 0x5 ADD SLOAD LT PUSH2 0x561 JUMPI PUSH0 SWAP2 POP PUSH2 0x578 JUMP JUMPDEST DUP1 PUSH1 0x5 ADD SLOAD DUP2 PUSH1 0x3 ADD SLOAD PUSH2 0x575 SWAP2 SWAP1 PUSH2 0x209A JUMP JUMPDEST SWAP2 POP JUMPDEST POP SWAP2 POP SWAP2 JUMP JUMPDEST PUSH0 PUSH1 0x7 PUSH0 DUP5 DUP2 MSTORE PUSH1 0x20 ADD SWAP1 DUP2 MSTORE PUSH1 0x20 ADD PUSH0 KECCAK256 SWAP1 POP PUSH0 DUP2 PUSH1 0x4 ADD SLOAD GT PUSH2 0x5D8 JUMPI PUSH1 0x40 MLOAD PUSH32 0x8C379A000000000000000000000000000000000000000000000000000000000 DUP2 MSTORE PUSH1 0x4 ADD PUSH2 0x5CF SWAP1 PUSH2 0x213D JUMP JUMPDEST PUSH1 0x40 MLOAD DUP1 SWAP2 SUB SWAP1 REVERT JUMPDEST CALLER PUSH20 0xFFFFFFFFFFFFFFFFFFFFFFFFFFFFFFFFFFFFFFFF AND DUP2 PUSH0 ADD PUSH0 SWAP1 SLOAD SWAP1 PUSH2 0x100 EXP SWAP1 DIV PUSH20 0xFFFFFFFFFFFFFFFFFFFFFFFFFFFFFFFFFFFFFFFF AND PUSH20 0xFFFFFFFFFFFFFFFFFFFFFFFFFFFFFFFFFFFFFFFF AND EQ PUSH2 0x668 JUMPI PUSH1 0x40 MLOAD PUSH32 0x8C379A000000000000000000000000000000000000000000000000000000000 DUP2 MSTORE PUSH1 0x4 ADD PUSH2 0x65F SWAP1 PUSH2 0x21F1 JUMP JUMPDEST PUSH1 0x40 MLOAD DUP1 SWAP2 SUB SWAP1 REVERT JUMPDEST DUP2 DUP2 PUSH1 0x3 ADD DUP2 SWAP1 SSTORE POP POP POP POP JUMP JUMPDEST PUSH1 0x7 PUSH1 0x20 MSTORE DUP1 PUSH0 MSTORE PUSH1 0x40 PUSH0 KECCAK256 PUSH0 SWAP2 POP SWAP1 POP DUP1 PUSH0 ADD PUSH0 SWAP1 SLOAD SWAP1 PUSH2 0x100 EXP SWAP1 DIV PUSH20 0xFFFFFFFFFFFFFFFFFFFFFFFFFFFFFFFFFFFFFFFF AND SWAP1 DUP1 PUSH1 0x1 ADD DUP1 SLOAD PUSH2 0x6BA SWAP1 PUSH2 0x223C JUMP JUMPDEST DUP1 PUSH1 0x1F ADD PUSH1 0x20 DUP1 SWAP2 DIV MUL PUSH1 0x20 ADD PUSH1 0x40 MLOAD SWAP1 DUP2 ADD PUSH1 0x40 MSTORE DUP1 SWAP3 SWAP2 SWAP1 DUP2 DUP2 MSTORE PUSH1 0x20 ADD DUP3 DUP1 SLOAD PUSH2 0x6E6 SWAP1 PUSH2 0x223C JUMP JUMPDEST DUP1 ISZERO PUSH2 0x731 JUMPI DUP1 PUSH1 0x1F LT PUSH2 0x708 JUMPI PUSH2 0x100 DUP1 DUP4 SLOAD DIV MUL DUP4 MSTORE SWAP2 PUSH1 0x20 ADD SWAP2 PUSH2 0x731 JUMP JUMPDEST DUP3 ADD SWAP2 SWAP1 PUSH0 MSTORE PUSH1 0x20 PUSH0 KECCAK256 SWAP1 JUMPDEST DUP2 SLOAD DUP2 MSTORE SWAP1 PUSH1 0x1 ADD SWAP1 PUSH1 0x20 ADD DUP1 DUP4 GT PUSH2 0x714 JUMPI DUP3 SWAP1 SUB PUSH1 0x1F AND DUP3 ADD SWAP2 JUMPDEST POP POP POP POP POP SWAP1 DUP1 PUSH1 0x2 ADD DUP1 SLOAD PUSH2 0x746 SWAP1 PUSH2 0x223C JUMP JUMPDEST DUP1 PUSH1 0x1F ADD PUSH1 0x20 DUP1 SWAP2 DIV MUL PUSH1 0x20 ADD PUSH1 0x40 MLOAD SWAP1 DUP2 ADD PUSH1 0x40 MSTORE DUP1 SWAP3 SWAP2 SWAP1 DUP2 DUP2 MSTORE PUSH1 0x20 ADD DUP3 DUP1 SLOAD PUSH2 0x772 SWAP1 PUSH2 0x223C JUMP JUMPDEST DUP1 ISZERO PUSH2 0x7BD JUMPI DUP1 PUSH1 0x1F LT PUSH2 0x794 JUMPI PUSH2 0x100 DUP1 DUP4 SLOAD DIV MUL DUP4 MSTORE SWAP2 PUSH1 0x20 ADD SWAP2 PUSH2 0x7BD JUMP JUMPDEST DUP3 ADD SWAP2 SWAP1 PUSH0 MSTORE PUSH1 0x20 PUSH0 KECCAK256 SWAP1 JUMPDEST DUP2 SLOAD DUP2 MSTORE SWAP1 PUSH1 0x1 ADD SWAP1 PUSH1 0x20 ADD DUP1 DUP4 GT PUSH2 0x7A0 JUMPI DUP3 SWAP1 SUB PUSH1 0x1F AND DUP3 ADD SWAP2 JUMPDEST POP POP POP POP POP SWAP1 DUP1 PUSH1 0x3 ADD SLOAD SWAP1 DUP1 PUSH1 0x4 ADD SLOAD SWAP1 DUP1 PUSH1 0x5 ADD SLOAD SWAP1 DUP1 PUSH1 0x6 ADD PUSH0 SWAP1 SLOAD SWAP1 PUSH2 0x100 EXP SWAP1 DIV PUSH1 0xFF AND SWAP1 DUP1 PUSH1 0x6 ADD PUSH1 0x1 SWAP1 SLOAD SWAP1 PUSH2 0x100 EXP SWAP1 DIV PUSH20 0xFFFFFFFFFFFFFFFFFFFFFFFFFFFFFFFFFFFFFFFF AND SWAP1 DUP1 PUSH1 0x7 ADD SLOAD SWAP1 POP DUP10 JUMP JUMPDEST PUSH1 0x5 SLOAD DUP2 JUMP JUMPDEST PUSH0 PUSH0 PUSH1 0x7 PUSH0 DUP5 DUP2 MSTORE PUSH1 0x20 ADD SWAP1 DUP2 MSTORE PUSH1 0x20 ADD PUSH0 KECCAK256 SWAP1 POP DUP1 PUSH1 0x4 ADD SLOAD TIMESTAMP LT PUSH2 0x846 JUMPI PUSH0 SWAP2 POP POP PUSH2 0x85A JUMP JUMPDEST TIMESTAMP DUP2 PUSH1 0x4 ADD SLOAD PUSH2 0x856 SWAP2 SWAP1 PUSH2 0x209A JUMP JUMPDEST SWAP2 POP POP JUMPDEST SWAP2 SWAP1 POP JUMP JUMPDEST PUSH0 PUSH1 0x7 PUSH0 DUP4 DUP2 MSTORE PUSH1 0x20 ADD SWAP1 DUP2 MSTORE PUSH1 0x20 ADD PUSH0 KECCAK256 SWAP1 POP DUP1 PUSH1 0x3 ADD SLOAD DUP2 PUSH1 0x5 ADD SLOAD LT PUSH2 0x8BD JUMPI PUSH1 0x40 MLOAD PUSH32 0x8C379A000000000000000000000000000000000000000000000000000000000 DUP2 MSTORE PUSH1 0x4 ADD PUSH2 0x8B4 SWAP1 PUSH2 0x22DC JUMP JUMPDEST PUSH1 0x40 MLOAD DUP1 SWAP2 SUB SWAP1 REVERT JUMPDEST PUSH0 PUSH1 0x8 PUSH0 DUP5 DUP2 MSTORE PUSH1 0x20 ADD SWAP1 DUP2 MSTORE PUSH1 0x20 ADD PUSH0 KECCAK256 PUSH0 CALLER PUSH20 0xFFFFFFFFFFFFFFFFFFFFFFFFFFFFFFFFFFFFFFFF AND PUSH20 0xFFFFFFFFFFFFFFFFFFFFFFFFFFFFFFFFFFFFFFFF AND DUP2 MSTORE PUSH1 0x20 ADD SWAP1 DUP2 MSTORE PUSH1 0x20 ADD PUSH0 KECCAK256 SLOAD SWAP1 POP DUP1 DUP3 PUSH1 0x5 ADD PUSH0 DUP3 DUP3 SLOAD PUSH2 0x920 SWAP2 SWAP1 PUSH2 0x209A JUMP JUMPDEST SWAP3 POP POP DUP2 SWAP1 SSTORE POP DUP1 PUSH1 0x8 PUSH0 DUP6 DUP2 MSTORE PUSH1 0x20 ADD SWAP1 DUP2 MSTORE PUSH1 0x20 ADD PUSH0 KECCAK256 PUSH0 CALLER PUSH20 0xFFFFFFFFFFFFFFFFFFFFFFFFFFFFFFFFFFFFFFFF AND PUSH20 0xFFFFFFFFFFFFFFFFFFFFFFFFFFFFFFFFFFFFFFFF AND DUP2 MSTORE PUSH1 0x20 ADD SWAP1 DUP2 MSTORE PUSH1 0x20 ADD PUSH0 KECCAK256 PUSH0 DUP3 DUP3 SLOAD PUSH2 0x982 SWAP2 SWAP1 PUSH2 0x209A JUMP JUMPDEST SWAP3 POP POP DUP2 SWAP1 SSTORE POP DUP1 PUSH1 0x1 PUSH0 DUP3 DUP3 SLOAD PUSH2 0x99A SWAP2 SWAP1 PUSH2 0x209A JUMP JUMPDEST SWAP3 POP POP DUP2 SWAP1 SSTORE POP CALLER PUSH20 0xFFFFFFFFFFFFFFFFFFFFFFFFFFFFFFFFFFFFFFFF AND PUSH2 0x8FC DUP3 SWAP1 DUP2 ISZERO MUL SWAP1 PUSH1 0x40 MLOAD PUSH0 PUSH1 0x40 MLOAD DUP1 DUP4 SUB DUP2 DUP6 DUP9 DUP9 CALL SWAP4 POP POP POP POP ISZERO DUP1 ISZERO PUSH2 0x9E4 JUMPI RETURNDATASIZE PUSH0 PUSH0 RETURNDATACOPY RETURNDATASIZE PUSH0 REVERT JUMPDEST POP DUP3 PUSH32 0xB6E4E293B6C7C5CF68FBB52EDFACA6173710FCCCBCECAC03C32E62327FC000C6 CALLER DUP4 PUSH1 0x40 MLOAD PUSH2 0xA17 SWAP3 SWAP2 SWAP1 PUSH2 0x22FA JUMP JUMPDEST PUSH1 0x40 MLOAD DUP1 SWAP2 SUB SWAP1 LOG2 POP POP POP JUMP JUMPDEST PUSH0 PUSH0 PUSH1 0x7 PUSH0 DUP5 DUP2 MSTORE PUSH1 0x20 ADD SWAP1 DUP2 MSTORE PUSH1 0x20 ADD PUSH0 KECCAK256 SWAP1 POP PUSH0 DUP2 PUSH1 0x3 ADD SLOAD PUSH1 0x64 DUP4 PUSH1 0x5 ADD SLOAD PUSH2 0xA50 SWAP2 SWAP1 PUSH2 0x2321 JUMP JUMPDEST PUSH2 0xA5A SWAP2 SWAP1 PUSH2 0x238F JUMP JUMPDEST SWAP1 POP DUP1 SWAP3 POP POP POP SWAP2 SWAP1 POP JUMP JUMPDEST PUSH0 PUSH1 0x1 SLOAD SWAP1 POP SWAP1 JUMP JUMPDEST PUSH1 0x8 PUSH1 0x20 MSTORE DUP2 PUSH0 MSTORE PUSH1 0x40 PUSH0 KECCAK256 PUSH1 0x20 MSTORE DUP1 PUSH0 MSTORE PUSH1 0x40 PUSH0 KECCAK256 PUSH0 SWAP2 POP SWAP2 POP POP SLOAD DUP2 JUMP JUMPDEST PUSH0 PUSH1 0x7 PUSH0 DUP5 DUP2 MSTORE PUSH1 0x20 ADD SWAP1 DUP2 MSTORE PUSH1 0x20 ADD PUSH0 KECCAK256 SWAP1 POP CALLER PUSH20 0xFFFFFFFFFFFFFFFFFFFFFFFFFFFFFFFFFFFFFFFF AND DUP2 PUSH0 ADD PUSH0 SWAP1 SLOAD SWAP1 PUSH2 0x100 EXP SWAP1 DIV PUSH20 0xFFFFFFFFFFFFFFFFFFFFFFFFFFFFFFFFFFFFFFFF AND PUSH20 0xFFFFFFFFFFFFFFFFFFFFFFFFFFFFFFFFFFFFFFFF AND EQ PUSH2 0xB33 JUMPI PUSH1 0x40 MLOAD PUSH32 0x8C379A000000000000000000000000000000000000000000000000000000000 DUP2 MSTORE PUSH1 0x4 ADD PUSH2 0xB2A SWAP1 PUSH2 0x242F JUMP JUMPDEST PUSH1 0x40 MLOAD DUP1 SWAP2 SUB SWAP1 REVERT JUMPDEST DUP2 DUP2 PUSH1 0x4 ADD PUSH0 DUP3 DUP3 SLOAD PUSH2 0xB46 SWAP2 SWAP1 PUSH2 0x244D JUMP JUMPDEST SWAP3 POP POP DUP2 SWAP1 SSTORE POP POP POP POP JUMP JUMPDEST PUSH2 0xB5A PUSH2 0x1A94 JUMP JUMPDEST PUSH0 PUSH1 0x7 PUSH0 DUP4 DUP2 MSTORE PUSH1 0x20 ADD SWAP1 DUP2 MSTORE PUSH1 0x20 ADD PUSH0 KECCAK256 SWAP1 POP DUP1 PUSH1 0x4 ADD SLOAD TIMESTAMP GT ISZERO PUSH2 0xBB5 JUMPI PUSH1 0x40 MLOAD PUSH32 0x8C379A000000000000000000000000000000000000000000000000000000000 DUP2 MSTORE PUSH1 0x4 ADD PUSH2 0xBAC SWAP1 PUSH2 0x24CA JUMP JUMPDEST PUSH1 0x40 MLOAD DUP1 SWAP2 SUB SWAP1 REVERT JUMPDEST DUP1 PUSH1 0x6 ADD PUSH0 SWAP1 SLOAD SWAP1 PUSH2 0x100 EXP SWAP1 DIV PUSH1 0xFF AND ISZERO PUSH2 0xC06 JUMPI PUSH1 0x40 MLOAD PUSH32 0x8C379A000000000000000000000000000000000000000000000000000000000 DUP2 MSTORE PUSH1 0x4 ADD PUSH2 0xBFD SWAP1 PUSH2 0x2558 JUMP JUMPDEST PUSH1 0x40 MLOAD DUP1 SWAP2 SUB SWAP1 REVERT JUMPDEST PUSH0 CALLVALUE GT PUSH2 0xC48 JUMPI PUSH1 0x40 MLOAD PUSH32 0x8C379A000000000000000000000000000000000000000000000000000000000 DUP2 MSTORE PUSH1 0x4 ADD PUSH2 0xC3F SWAP1 PUSH2 0x25E6 JUMP JUMPDEST PUSH1 0x40 MLOAD DUP1 SWAP2 SUB SWAP1 REVERT JUMPDEST DUP1 PUSH1 0x3 ADD SLOAD CALLVALUE GT ISZERO PUSH2 0xC8F JUMPI PUSH1 0x40 MLOAD PUSH32 0x8C379A000000000000000000000000000000000000000000000000000000000 DUP2 MSTORE PUSH1 0x4 ADD PUSH2 0xC86 SWAP1 PUSH2 0x2674 JUMP JUMPDEST PUSH1 0x40 MLOAD DUP1 SWAP2 SUB SWAP1 REVERT JUMPDEST PUSH0 DUP2 PUSH1 0x5 ADD SLOAD DUP3 PUSH1 0x3 ADD SLOAD PUSH2 0xCA4 SWAP2 SWAP1 PUSH2 0x209A JUMP JUMPDEST SWAP1 POP PUSH0 PUSH0 DUP3 CALLVALUE GT ISZERO PUSH2 0xCC6 JUMPI DUP3 SWAP2 POP DUP3 CALLVALUE PUSH2 0xCBF SWAP2 SWAP1 PUSH2 0x209A JUMP JUMPDEST SWAP1 POP PUSH2 0xCCD JUMP JUMPDEST CALLVALUE SWAP2 POP PUSH0 SWAP1 POP JUMPDEST DUP2 DUP5 PUSH1 0x5 ADD PUSH0 DUP3 DUP3 SLOAD PUSH2 0xCE0 SWAP2 SWAP1 PUSH2 0x244D JUMP JUMPDEST SWAP3 POP POP DUP2 SWAP1 SSTORE POP DUP2 PUSH1 0x8 PUSH0 DUP8 DUP2 MSTORE PUSH1 0x20 ADD SWAP1 DUP2 MSTORE PUSH1 0x20 ADD PUSH0 KECCAK256 PUSH0 CALLER PUSH20 0xFFFFFFFFFFFFFFFFFFFFFFFFFFFFFFFFFFFFFFFF AND PUSH20 0xFFFFFFFFFFFFFFFFFFFFFFFFFFFFFFFFFFFFFFFF AND DUP2 MSTORE PUSH1 0x20 ADD SWAP1 DUP2 MSTORE PUSH1 0x20 ADD PUSH0 KECCAK256 DUP2 SWAP1 SSTORE POP DUP2 PUSH1 0x1 PUSH0 DUP3 DUP3 SLOAD PUSH2 0xD49 SWAP2 SWAP1 PUSH2 0x244D JUMP JUMPDEST SWAP3 POP POP DUP2 SWAP1 SSTORE POP PUSH0 DUP2 GT ISZERO PUSH2 0xE02 JUMPI PUSH0 CALLER PUSH20 0xFFFFFFFFFFFFFFFFFFFFFFFFFFFFFFFFFFFFFFFF AND DUP3 PUSH1 0x40 MLOAD PUSH2 0xD7D SWAP1 PUSH2 0x26BF JUMP JUMPDEST PUSH0 PUSH1 0x40 MLOAD DUP1 DUP4 SUB DUP2 DUP6 DUP8 GAS CALL SWAP3 POP POP POP RETURNDATASIZE DUP1 PUSH0 DUP2 EQ PUSH2 0xDB7 JUMPI PUSH1 0x40 MLOAD SWAP2 POP PUSH1 0x1F NOT PUSH1 0x3F RETURNDATASIZE ADD AND DUP3 ADD PUSH1 0x40 MSTORE RETURNDATASIZE DUP3 MSTORE RETURNDATASIZE PUSH0 PUSH1 0x20 DUP5 ADD RETURNDATACOPY PUSH2 0xDBC JUMP JUMPDEST PUSH1 0x60 SWAP2 POP JUMPDEST POP POP SWAP1 POP DUP1 PUSH2 0xE00 JUMPI PUSH1 0x40 MLOAD PUSH32 0x8C379A000000000000000000000000000000000000000000000000000000000 DUP2 MSTORE PUSH1 0x4 ADD PUSH2 0xDF7 SWAP1 PUSH2 0x271D JUMP JUMPDEST PUSH1 0x40 MLOAD DUP1 SWAP2 SUB SWAP1 REVERT JUMPDEST POP JUMPDEST PUSH0 PUSH1 0x8 PUSH0 DUP8 DUP2 MSTORE PUSH1 0x20 ADD SWAP1 DUP2 MSTORE PUSH1 0x20 ADD PUSH0 KECCAK256 PUSH0 CALLER PUSH20 0xFFFFFFFFFFFFFFFFFFFFFFFFFFFFFFFFFFFFFFFF AND PUSH20 0xFFFFFFFFFFFFFFFFFFFFFFFFFFFFFFFFFFFFFFFF AND DUP2 MSTORE PUSH1 0x20 ADD SWAP1 DUP2 MSTORE PUSH1 0x20 ADD PUSH0 KECCAK256 SLOAD SWAP1 POP DUP5 PUSH1 0x7 ADD SLOAD DUP2 GT ISZERO PUSH2 0xEAB JUMPI DUP1 DUP6 PUSH1 0x7 ADD DUP2 SWAP1 SSTORE POP CALLER DUP6 PUSH1 0x6 ADD PUSH1 0x1 PUSH2 0x100 EXP DUP2 SLOAD DUP2 PUSH20 0xFFFFFFFFFFFFFFFFFFFFFFFFFFFFFFFFFFFFFFFF MUL NOT AND SWAP1 DUP4 PUSH20 0xFFFFFFFFFFFFFFFFFFFFFFFFFFFFFFFFFFFFFFFF AND MUL OR SWAP1 SSTORE POP JUMPDEST DUP6 PUSH32 0x7DD983E9D08B449D571F3583275E98423857F3FFBE9EF56F927EB02B1C8AB599 CALLER DUP6 DUP6 PUSH1 0x40 MLOAD PUSH2 0xEDF SWAP4 SWAP3 SWAP2 SWAP1 PUSH2 0x273B JUMP JUMPDEST PUSH1 0x40 MLOAD DUP1 SWAP2 SUB SWAP1 LOG2 DUP5 PUSH1 0x3 ADD SLOAD DUP6 PUSH1 0x5 ADD SLOAD LT PUSH2 0xF13 JUMPI PUSH1 0x1 DUP6 PUSH1 0x6 ADD PUSH0 PUSH2 0x100 EXP DUP2 SLOAD DUP2 PUSH1 0xFF MUL NOT AND SWAP1 DUP4 ISZERO ISZERO MUL OR SWAP1 SSTORE POP JUMPDEST DUP5 PUSH1 0x6 ADD PUSH0 SWAP1 SLOAD SWAP1 PUSH2 0x100 EXP SWAP1 DIV PUSH1 0xFF AND ISZERO DUP1 ISZERO PUSH2 0xF35 JUMPI POP DUP5 PUSH1 0x4 ADD SLOAD TIMESTAMP LT ISZERO JUMPDEST ISZERO PUSH2 0xF72 JUMPI PUSH1 0x1 DUP6 PUSH1 0x6 ADD PUSH0 PUSH2 0x100 EXP DUP2 SLOAD DUP2 PUSH1 0xFF MUL NOT AND SWAP1 DUP4 ISZERO ISZERO MUL OR SWAP1 SSTORE POP PUSH1 0x4 PUSH0 DUP2 SLOAD DUP1 SWAP3 SWAP2 SWAP1 PUSH2 0xF68 SWAP1 PUSH2 0x2770 JUMP JUMPDEST SWAP2 SWAP1 POP SSTORE POP PUSH2 0x1042 JUMP JUMPDEST PUSH0 DUP6 PUSH1 0x6 ADD PUSH0 PUSH2 0x100 EXP DUP2 SLOAD DUP2 PUSH1 0xFF MUL NOT AND SWAP1 DUP4 ISZERO ISZERO MUL OR SWAP1 SSTORE ISZERO PUSH2 0x1041 JUMPI DUP5 PUSH1 0x4 ADD SLOAD TIMESTAMP LT ISZERO PUSH2 0xFD8 JUMPI PUSH1 0x40 MLOAD PUSH32 0x8C379A000000000000000000000000000000000000000000000000000000000 DUP2 MSTORE PUSH1 0x4 ADD PUSH2 0xFCF SWAP1 PUSH2 0x2801 JUMP JUMPDEST PUSH1 0x40 MLOAD DUP1 SWAP2 SUB SWAP1 REVERT JUMPDEST DUP5 PUSH1 0x6 ADD PUSH0 SWAP1 SLOAD SWAP1 PUSH2 0x100 EXP SWAP1 DIV PUSH1 0xFF AND ISZERO PUSH2 0x1029 JUMPI PUSH1 0x40 MLOAD PUSH32 0x8C379A000000000000000000000000000000000000000000000000000000000 DUP2 MSTORE PUSH1 0x4 ADD PUSH2 0x1020 SWAP1 PUSH2 0x2869 JUMP JUMPDEST PUSH1 0x40 MLOAD DUP1 SWAP2 SUB SWAP1 REVERT JUMPDEST PUSH1 0x5 PUSH0 DUP2 SLOAD DUP1 SWAP3 SWAP2 SWAP1 PUSH2 0x103B SWAP1 PUSH2 0x2770 JUMP JUMPDEST SWAP2 SWAP1 POP SSTORE POP JUMPDEST JUMPDEST POP POP POP POP POP PUSH2 0x104F PUSH2 0x1AD8 JUMP JUMPDEST POP JUMP JUMPDEST PUSH0 PUSH1 0x7 PUSH0 DUP4 DUP2 MSTORE PUSH1 0x20 ADD SWAP1 DUP2 MSTORE PUSH1 0x20 ADD PUSH0 KECCAK256 SWAP1 POP PUSH0 DUP2 PUSH1 0x5 ADD SLOAD SWAP1 POP DUP2 PUSH1 0x6 ADD PUSH0 SWAP1 SLOAD SWAP1 PUSH2 0x100 EXP SWAP1 DIV PUSH1 0xFF AND PUSH2 0x10BE JUMPI PUSH1 0x40 MLOAD PUSH32 0x8C379A000000000000000000000000000000000000000000000000000000000 DUP2 MSTORE PUSH1 0x4 ADD PUSH2 0x10B5 SWAP1 PUSH2 0x28F7 JUMP JUMPDEST PUSH1 0x40 MLOAD DUP1 SWAP2 SUB SWAP1 REVERT JUMPDEST CALLER PUSH20 0xFFFFFFFFFFFFFFFFFFFFFFFFFFFFFFFFFFFFFFFF AND DUP3 PUSH0 ADD PUSH0 SWAP1 SLOAD SWAP1 PUSH2 0x100 EXP SWAP1 DIV PUSH20 0xFFFFFFFFFFFFFFFFFFFFFFFFFFFFFFFFFFFFFFFF AND PUSH20 0xFFFFFFFFFFFFFFFFFFFFFFFFFFFFFFFFFFFFFFFF AND EQ PUSH2 0x114E JUMPI PUSH1 0x40 MLOAD PUSH32 0x8C379A000000000000000000000000000000000000000000000000000000000 DUP2 MSTORE PUSH1 0x4 ADD PUSH2 0x1145 SWAP1 PUSH2 0x295F JUMP JUMPDEST PUSH1 0x40 MLOAD DUP1 SWAP2 SUB SWAP1 REVERT JUMPDEST TIMESTAMP DUP3 PUSH1 0x4 ADD SLOAD GT ISZERO PUSH2 0x1195 JUMPI PUSH1 0x40 MLOAD PUSH32 0x8C379A000000000000000000000000000000000000000000000000000000000 DUP2 MSTORE PUSH1 0x4 ADD PUSH2 0x118C SWAP1 PUSH2 0x29ED JUMP JUMPDEST PUSH1 0x40 MLOAD DUP1 SWAP2 SUB SWAP1 REVERT JUMPDEST CALLER PUSH20 0xFFFFFFFFFFFFFFFFFFFFFFFFFFFFFFFFFFFFFFFF AND PUSH2 0x8FC DUP3 SWAP1 DUP2 ISZERO MUL SWAP1 PUSH1 0x40 MLOAD PUSH0 PUSH1 0x40 MLOAD DUP1 DUP4 SUB DUP2 DUP6 DUP9 DUP9 CALL SWAP4 POP POP POP POP ISZERO DUP1 ISZERO PUSH2 0x11D8 JUMPI RETURNDATASIZE PUSH0 PUSH0 RETURNDATACOPY RETURNDATASIZE PUSH0 REVERT JUMPDEST POP DUP3 PUSH32 0xCAE030E1A3C6B0011E7009BD65734E2E1E330528F6983497631FABD47FA7A281 CALLER CALLVALUE PUSH1 0x40 MLOAD PUSH2 0x120B SWAP3 SWAP2 SWAP1 PUSH2 0x22FA JUMP JUMPDEST PUSH1 0x40 MLOAD DUP1 SWAP2 SUB SWAP1 LOG2 POP POP POP JUMP JUMPDEST CALLER PUSH20 0xFFFFFFFFFFFFFFFFFFFFFFFFFFFFFFFFFFFFFFFF AND PUSH1 0x3 PUSH0 SWAP1 SLOAD SWAP1 PUSH2 0x100 EXP SWAP1 DIV PUSH20 0xFFFFFFFFFFFFFFFFFFFFFFFFFFFFFFFFFFFFFFFF AND PUSH20 0xFFFFFFFFFFFFFFFFFFFFFFFFFFFFFFFFFFFFFFFF AND EQ PUSH2 0x12A7 JUMPI PUSH1 0x40 MLOAD PUSH32 0x8C379A000000000000000000000000000000000000000000000000000000000 DUP2 MSTORE PUSH1 0x4 ADD PUSH2 0x129E SWAP1 PUSH2 0x2A55 JUMP JUMPDEST PUSH1 0x40 MLOAD DUP1 SWAP2 SUB SWAP1 REVERT JUMPDEST PUSH0 PUSH1 0x6 PUSH0 DUP4 PUSH20 0xFFFFFFFFFFFFFFFFFFFFFFFFFFFFFFFFFFFFFFFF AND PUSH20 0xFFFFFFFFFFFFFFFFFFFFFFFFFFFFFFFFFFFFFFFF AND DUP2 MSTORE PUSH1 0x20 ADD SWAP1 DUP2 MSTORE PUSH1 0x20 ADD PUSH0 KECCAK256 PUSH0 PUSH2 0x100 EXP DUP2 SLOAD DUP2 PUSH1 0xFF MUL NOT AND SWAP1 DUP4 ISZERO ISZERO MUL OR SWAP1 SSTORE POP DUP1 PUSH20 0xFFFFFFFFFFFFFFFFFFFFFFFFFFFFFFFFFFFFFFFF AND PUSH32 0x925D0E195CC39B7ADE3FD58FDF494022E37BFD6242C2BE09C0B2863977C1879 PUSH1 0x40 MLOAD PUSH1 0x40 MLOAD DUP1 SWAP2 SUB SWAP1 LOG2 POP JUMP JUMPDEST PUSH1 0x6 PUSH1 0x20 MSTORE DUP1 PUSH0 MSTORE PUSH1 0x40 PUSH0 KECCAK256 PUSH0 SWAP2 POP SLOAD SWAP1 PUSH2 0x100 EXP SWAP1 DIV PUSH1 0xFF AND DUP2 JUMP JUMPDEST PUSH1 0x2 SLOAD DUP2 JUMP JUMPDEST PUSH0 PUSH1 0x7 PUSH0 DUP5 DUP2 MSTORE PUSH1 0x20 ADD SWAP1 DUP2 MSTORE PUSH1 0x20 ADD PUSH0 KECCAK256 SWAP1 POP DUP1 PUSH1 0x4 ADD SLOAD TIMESTAMP LT PUSH2 0x13BE JUMPI PUSH1 0x40 MLOAD PUSH32 0x8C379A000000000000000000000000000000000000000000000000000000000 DUP2 MSTORE PUSH1 0x4 ADD PUSH2 0x13B5 SWAP1 PUSH2 0x2ABD JUMP JUMPDEST PUSH1 0x40 MLOAD DUP1 SWAP2 SUB SWAP1 REVERT JUMPDEST PUSH0 PUSH1 0x8 PUSH0 DUP6 DUP2 MSTORE PUSH1 0x20 ADD SWAP1 DUP2 MSTORE PUSH1 0x20 ADD PUSH0 KECCAK256 PUSH0 CALLER PUSH20 0xFFFFFFFFFFFFFFFFFFFFFFFFFFFFFFFFFFFFFFFF AND PUSH20 0xFFFFFFFFFFFFFFFFFFFFFFFFFFFFFFFFFFFFFFFF AND DUP2 MSTORE PUSH1 0x20 ADD SWAP1 DUP2 MSTORE PUSH1 0x20 ADD PUSH0 KECCAK256 SLOAD SWAP1 POP PUSH0 DUP2 GT PUSH2 0x1450 JUMPI PUSH1 0x40 MLOAD PUSH32 0x8C379A000000000000000000000000000000000000000000000000000000000 DUP2 MSTORE PUSH1 0x4 ADD PUSH2 0x1447 SWAP1 PUSH2 0x2B25 JUMP JUMPDEST PUSH1 0x40 MLOAD DUP1 SWAP2 SUB SWAP1 REVERT JUMPDEST DUP1 DUP4 GT ISZERO PUSH2 0x1493 JUMPI PUSH1 0x40 MLOAD PUSH32 0x8C379A000000000000000000000000000000000000000000000000000000000 DUP2 MSTORE PUSH1 0x4 ADD PUSH2 0x148A SWAP1 PUSH2 0x2BB3 JUMP JUMPDEST PUSH1 0x40 MLOAD DUP1 SWAP2 SUB SWAP1 REVERT JUMPDEST DUP3 DUP3 PUSH1 0x5 ADD PUSH0 DUP3 DUP3 SLOAD PUSH2 0x14A6 SWAP2 SWAP1 PUSH2 0x209A JUMP JUMPDEST SWAP3 POP POP DUP2 SWAP1 SSTORE POP DUP3 PUSH1 0x8 PUSH0 DUP7 DUP2 MSTORE PUSH1 0x20 ADD SWAP1 DUP2 MSTORE PUSH1 0x20 ADD PUSH0 KECCAK256 PUSH0 CALLER PUSH20 0xFFFFFFFFFFFFFFFFFFFFFFFFFFFFFFFFFFFFFFFF AND PUSH20 0xFFFFFFFFFFFFFFFFFFFFFFFFFFFFFFFFFFFFFFFF AND DUP2 MSTORE PUSH1 0x20 ADD SWAP1 DUP2 MSTORE PUSH1 0x20 ADD PUSH0 KECCAK256 PUSH0 DUP3 DUP3 SLOAD PUSH2 0x1508 SWAP2 SWAP1 PUSH2 0x209A JUMP JUMPDEST SWAP3 POP POP DUP2 SWAP1 SSTORE POP DUP3 PUSH1 0x1 PUSH0 DUP3 DUP3 SLOAD PUSH2 0x1520 SWAP2 SWAP1 PUSH2 0x209A JUMP JUMPDEST SWAP3 POP POP DUP2 SWAP1 SSTORE POP PUSH0 CALLER PUSH20 0xFFFFFFFFFFFFFFFFFFFFFFFFFFFFFFFFFFFFFFFF AND DUP5 PUSH1 0x40 MLOAD PUSH2 0x154C SWAP1 PUSH2 0x26BF JUMP JUMPDEST PUSH0 PUSH1 0x40 MLOAD DUP1 DUP4 SUB DUP2 DUP6 DUP8 GAS CALL SWAP3 POP POP POP RETURNDATASIZE DUP1 PUSH0 DUP2 EQ PUSH2 0x1586 JUMPI PUSH1 0x40 MLOAD SWAP2 POP PUSH1 0x1F NOT PUSH1 0x3F RETURNDATASIZE ADD AND DUP3 ADD PUSH1 0x40 MSTORE RETURNDATASIZE DUP3 MSTORE RETURNDATASIZE PUSH0 PUSH1 0x20 DUP5 ADD RETURNDATACOPY PUSH2 0x158B JUMP JUMPDEST PUSH1 0x60 SWAP2 POP JUMPDEST POP POP SWAP1 POP DUP1 PUSH2 0x15CF JUMPI PUSH1 0x40 MLOAD PUSH32 0x8C379A000000000000000000000000000000000000000000000000000000000 DUP2 MSTORE PUSH1 0x4 ADD PUSH2 0x15C6 SWAP1 PUSH2 0x2C1B JUMP JUMPDEST PUSH1 0x40 MLOAD DUP1 SWAP2 SUB SWAP1 REVERT JUMPDEST DUP5 CALLER PUSH20 0xFFFFFFFFFFFFFFFFFFFFFFFFFFFFFFFFFFFFFFFF AND PUSH32 0xB37480540FFB97FF520A59B38EA1A83AEFBFD3D2A956D958A00214B8B6551F28 DUP7 PUSH1 0x40 MLOAD PUSH2 0x1616 SWAP2 SWAP1 PUSH2 0x1D26 JUMP JUMPDEST PUSH1 0x40 MLOAD DUP1 SWAP2 SUB SWAP1 LOG3 POP POP POP POP POP JUMP JUMPDEST PUSH1 0x4 SLOAD DUP2 JUMP JUMPDEST PUSH1 0x9 PUSH0 DUP3 DUP2 MSTORE PUSH1 0x20 ADD SWAP1 DUP2 MSTORE PUSH1 0x20 ADD PUSH0 KECCAK256 PUSH0 SWAP1 SLOAD SWAP1 PUSH2 0x100 EXP SWAP1 DIV PUSH1 0xFF AND ISZERO PUSH2 0x1689 JUMPI PUSH1 0x40 MLOAD PUSH32 0x8C379A000000000000000000000000000000000000000000000000000000000 DUP2 MSTORE PUSH1 0x4 ADD PUSH2 0x1680 SWAP1 PUSH2 0x2C83 JUMP JUMPDEST PUSH1 0x40 MLOAD DUP1 SWAP2 SUB SWAP1 REVERT JUMPDEST PUSH1 0x6 PUSH0 CALLER PUSH20 0xFFFFFFFFFFFFFFFFFFFFFFFFFFFFFFFFFFFFFFFF AND PUSH20 0xFFFFFFFFFFFFFFFFFFFFFFFFFFFFFFFFFFFFFFFF AND DUP2 MSTORE PUSH1 0x20 ADD SWAP1 DUP2 MSTORE PUSH1 0x20 ADD PUSH0 KECCAK256 PUSH0 SWAP1 SLOAD SWAP1 PUSH2 0x100 EXP SWAP1 DIV PUSH1 0xFF AND PUSH2 0x1712 JUMPI PUSH1 0x40 MLOAD PUSH32 0x8C379A000000000000000000000000000000000000000000000000000000000 DUP2 MSTORE PUSH1 0x4 ADD PUSH2 0x1709 SWAP1 PUSH2 0x2D11 JUMP JUMPDEST PUSH1 0x40 MLOAD DUP1 SWAP2 SUB SWAP1 REVERT JUMPDEST PUSH1 0x1 PUSH1 0x9 PUSH0 DUP4 DUP2 MSTORE PUSH1 0x20 ADD SWAP1 DUP2 MSTORE PUSH1 0x20 ADD PUSH0 KECCAK256 PUSH0 PUSH2 0x100 EXP DUP2 SLOAD DUP2 PUSH1 0xFF MUL NOT AND SWAP1 DUP4 ISZERO ISZERO MUL OR SWAP1 SSTORE POP PUSH1 0x40 MLOAD DUP1 PUSH2 0x120 ADD PUSH1 0x40 MSTORE DUP1 CALLER PUSH20 0xFFFFFFFFFFFFFFFFFFFFFFFFFFFFFFFFFFFFFFFF AND DUP2 MSTORE PUSH1 0x20 ADD DUP7 DUP2 MSTORE PUSH1 0x20 ADD DUP6 DUP2 MSTORE PUSH1 0x20 ADD DUP5 DUP2 MSTORE PUSH1 0x20 ADD DUP4 TIMESTAMP PUSH2 0x1781 SWAP2 SWAP1 PUSH2 0x244D JUMP JUMPDEST DUP2 MSTORE PUSH1 0x20 ADD PUSH0 DUP2 MSTORE PUSH1 0x20 ADD PUSH0 ISZERO ISZERO DUP2 MSTORE PUSH1 0x20 ADD PUSH0 PUSH20 0xFFFFFFFFFFFFFFFFFFFFFFFFFFFFFFFFFFFFFFFF AND DUP2 MSTORE PUSH1 0x20 ADD PUSH0 DUP2 MSTORE POP PUSH1 0x7 PUSH0 DUP4 DUP2 MSTORE PUSH1 0x20 ADD SWAP1 DUP2 MSTORE PUSH1 0x20 ADD PUSH0 KECCAK256 PUSH0 DUP3 ADD MLOAD DUP2 PUSH0 ADD PUSH0 PUSH2 0x100 EXP DUP2 SLOAD DUP2 PUSH20 0xFFFFFFFFFFFFFFFFFFFFFFFFFFFFFFFFFFFFFFFF MUL NOT AND SWAP1 DUP4 PUSH20 0xFFFFFFFFFFFFFFFFFFFFFFFFFFFFFFFFFFFFFFFF AND MUL OR SWAP1 SSTORE POP PUSH1 0x20 DUP3 ADD MLOAD DUP2 PUSH1 0x1 ADD SWAP1 DUP2 PUSH2 0x181E SWAP2 SWAP1 PUSH2 0x2ECF JUMP JUMPDEST POP PUSH1 0x40 DUP3 ADD MLOAD DUP2 PUSH1 0x2 ADD SWAP1 DUP2 PUSH2 0x1834 SWAP2 SWAP1 PUSH2 0x2ECF JUMP JUMPDEST POP PUSH1 0x60 DUP3 ADD MLOAD DUP2 PUSH1 0x3 ADD SSTORE PUSH1 0x80 DUP3 ADD MLOAD DUP2 PUSH1 0x4 ADD SSTORE PUSH1 0xA0 DUP3 ADD MLOAD DUP2 PUSH1 0x5 ADD SSTORE PUSH1 0xC0 DUP3 ADD MLOAD DUP2 PUSH1 0x6 ADD PUSH0 PUSH2 0x100 EXP DUP2 SLOAD DUP2 PUSH1 0xFF MUL NOT AND SWAP1 DUP4 ISZERO ISZERO MUL OR SWAP1 SSTORE POP PUSH1 0xE0 DUP3 ADD MLOAD DUP2 PUSH1 0x6 ADD PUSH1 0x1 PUSH2 0x100 EXP DUP2 SLOAD DUP2 PUSH20 0xFFFFFFFFFFFFFFFFFFFFFFFFFFFFFFFFFFFFFFFF MUL NOT AND SWAP1 DUP4 PUSH20 0xFFFFFFFFFFFFFFFFFFFFFFFFFFFFFFFFFFFFFFFF AND MUL OR SWAP1 SSTORE POP PUSH2 0x100 DUP3 ADD MLOAD DUP2 PUSH1 0x7 ADD SSTORE SWAP1 POP POP PUSH1 0x2 PUSH0 DUP2 SLOAD DUP1 SWAP3 SWAP2 SWAP1 PUSH2 0x18D9 SWAP1 PUSH2 0x2770 JUMP JUMPDEST SWAP2 SWAP1 POP SSTORE POP CALLER PUSH20 0xFFFFFFFFFFFFFFFFFFFFFFFFFFFFFFFFFFFFFFFF AND DUP2 PUSH32 0xAC9B83534845C9E785A6EA70F2D809DB1D72EF9A1D981753712D922F5CB55F39 DUP8 DUP8 DUP8 DUP8 TIMESTAMP PUSH2 0x1926 SWAP2 SWAP1 PUSH2 0x244D JUMP JUMPDEST PUSH1 0x40 MLOAD PUSH2 0x1936 SWAP5 SWAP4 SWAP3 SWAP2 SWAP1 PUSH2 0x2F9E JUMP JUMPDEST PUSH1 0x40 MLOAD DUP1 SWAP2 SUB SWAP1 LOG3 POP POP POP POP POP JUMP JUMPDEST PUSH1 0x3 PUSH0 SWAP1 SLOAD SWAP1 PUSH2 0x100 EXP SWAP1 DIV PUSH20 0xFFFFFFFFFFFFFFFFFFFFFFFFFFFFFFFFFFFFFFFF AND DUP2 JUMP JUMPDEST CALLER PUSH20 0xFFFFFFFFFFFFFFFFFFFFFFFFFFFFFFFFFFFFFFFF AND PUSH1 0x3 PUSH0 SWAP1 SLOAD SWAP1 PUSH2 0x100 EXP SWAP1 DIV PUSH20 0xFFFFFFFFFFFFFFFFFFFFFFFFFFFFFFFFFFFFFFFF AND PUSH20 0xFFFFFFFFFFFFFFFFFFFFFFFFFFFFFFFFFFFFFFFF AND EQ PUSH2 0x19F9 JUMPI PUSH1 0x40 MLOAD PUSH32 0x8C379A000000000000000000000000000000000000000000000000000000000 DUP2 MSTORE PUSH1 0x4 ADD PUSH2 0x19F0 SWAP1 PUSH2 0x2A55 JUMP JUMPDEST PUSH1 0x40 MLOAD DUP1 SWAP2 SUB SWAP1 REVERT JUMPDEST PUSH1 0x1 PUSH1 0x6 PUSH0 DUP4 PUSH20 0xFFFFFFFFFFFFFFFFFFFFFFFFFFFFFFFFFFFFFFFF AND PUSH20 0xFFFFFFFFFFFFFFFFFFFFFFFFFFFFFFFFFFFFFFFF AND DUP2 MSTORE PUSH1 0x20 ADD SWAP1 DUP2 MSTORE PUSH1 0x20 ADD PUSH0 KECCAK256 PUSH0 PUSH2 0x100 EXP DUP2 SLOAD DUP2 PUSH1 0xFF MUL NOT AND SWAP1 DUP4 ISZERO ISZERO MUL OR SWAP1 SSTORE POP DUP1 PUSH20 0xFFFFFFFFFFFFFFFFFFFFFFFFFFFFFFFFFFFFFFFF AND PUSH32 0x1F9F86DC4A3CE57EE42E33C59DEF65713163420D0AB979169EF129299FF2B85E PUSH1 0x40 MLOAD PUSH1 0x40 MLOAD DUP1 SWAP2 SUB SWAP1 LOG2 POP JUMP JUMPDEST PUSH1 0x2 PUSH0 SLOAD SUB PUSH2 0x1ACF JUMPI PUSH1 0x40 MLOAD PUSH32 0x3EE5AEB500000000000000000000000000000000000000000000000000000000 DUP2 MSTORE PUSH1 0x4 ADD PUSH1 0x40 MLOAD DUP1 SWAP2 SUB SWAP1 REVERT JUMPDEST PUSH1 0x2 PUSH0 DUP2 SWAP1 SSTORE POP JUMP JUMPDEST PUSH1 0x1 PUSH0 DUP2 SWAP1 SSTORE POP JUMP JUMPDEST PUSH0 PUSH1 0x40 MLOAD SWAP1 POP SWAP1 JUMP JUMPDEST PUSH0 PUSH0 REVERT JUMPDEST PUSH0 PUSH0 REVERT JUMPDEST PUSH0 DUP2 SWAP1 POP SWAP2 SWAP1 POP JUMP JUMPDEST PUSH2 0x1B04 DUP2 PUSH2 0x1AF2 JUMP JUMPDEST DUP2 EQ PUSH2 0x1B0E JUMPI PUSH0 PUSH0 REVERT JUMPDEST POP JUMP JUMPDEST PUSH0 DUP2 CALLDATALOAD SWAP1 POP PUSH2 0x1B1F DUP2 PUSH2 0x1AFB JUMP JUMPDEST SWAP3 SWAP2 POP POP JUMP JUMPDEST PUSH0 PUSH1 0x20 DUP3 DUP5 SUB SLT ISZERO PUSH2 0x1B3A JUMPI PUSH2 0x1B39 PUSH2 0x1AEA JUMP JUMPDEST JUMPDEST PUSH0 PUSH2 0x1B47 DUP5 DUP3 DUP6 ADD PUSH2 0x1B11 JUMP JUMPDEST SWAP2 POP POP SWAP3 SWAP2 POP POP JUMP JUMPDEST PUSH2 0x1B59 DUP2 PUSH2 0x1AF2 JUMP JUMPDEST DUP3 MSTORE POP POP JUMP JUMPDEST PUSH0 PUSH1 0x40 DUP3 ADD SWAP1 POP PUSH2 0x1B72 PUSH0 DUP4 ADD DUP6 PUSH2 0x1B50 JUMP JUMPDEST PUSH2 0x1B7F PUSH1 0x20 DUP4 ADD DUP5 PUSH2 0x1B50 JUMP JUMPDEST SWAP4 SWAP3 POP POP POP JUMP JUMPDEST PUSH0 PUSH0 PUSH1 0x40 DUP4 DUP6 SUB SLT ISZERO PUSH2 0x1B9C JUMPI PUSH2 0x1B9B PUSH2 0x1AEA JUMP JUMPDEST JUMPDEST PUSH0 PUSH2 0x1BA9 DUP6 DUP3 DUP7 ADD PUSH2 0x1B11 JUMP JUMPDEST SWAP3 POP POP PUSH1 0x20 PUSH2 0x1BBA DUP6 DUP3 DUP7 ADD PUSH2 0x1B11 JUMP JUMPDEST SWAP2 POP POP SWAP3 POP SWAP3 SWAP1 POP JUMP JUMPDEST PUSH0 PUSH20 0xFFFFFFFFFFFFFFFFFFFFFFFFFFFFFFFFFFFFFFFF DUP3 AND SWAP1 POP SWAP2 SWAP1 POP JUMP JUMPDEST PUSH0 PUSH2 0x1BED DUP3 PUSH2 0x1BC4 JUMP JUMPDEST SWAP1 POP SWAP2 SWAP1 POP JUMP JUMPDEST PUSH2 0x1BFD DUP2 PUSH2 0x1BE3 JUMP JUMPDEST DUP3 MSTORE POP POP JUMP JUMPDEST PUSH0 DUP2 MLOAD SWAP1 POP SWAP2 SWAP1 POP JUMP JUMPDEST PUSH0 DUP3 DUP3 MSTORE PUSH1 0x20 DUP3 ADD SWAP1 POP SWAP3 SWAP2 POP POP JUMP JUMPDEST DUP3 DUP2 DUP4 MCOPY PUSH0 DUP4 DUP4 ADD MSTORE POP POP POP JUMP JUMPDEST PUSH0 PUSH1 0x1F NOT PUSH1 0x1F DUP4 ADD AND SWAP1 POP SWAP2 SWAP1 POP JUMP JUMPDEST PUSH0 PUSH2 0x1C45 DUP3 PUSH2 0x1C03 JUMP JUMPDEST PUSH2 0x1C4F DUP2 DUP6 PUSH2 0x1C0D JUMP JUMPDEST SWAP4 POP PUSH2 0x1C5F DUP2 DUP6 PUSH1 0x20 DUP7 ADD PUSH2 0x1C1D JUMP JUMPDEST PUSH2 0x1C68 DUP2 PUSH2 0x1C2B JUMP JUMPDEST DUP5 ADD SWAP2 POP POP SWAP3 SWAP2 POP POP JUMP JUMPDEST PUSH0 DUP2 ISZERO ISZERO SWAP1 POP SWAP2 SWAP1 POP JUMP JUMPDEST PUSH2 0x1C87 DUP2 PUSH2 0x1C73 JUMP JUMPDEST DUP3 MSTORE POP POP JUMP JUMPDEST PUSH0 PUSH2 0x120 DUP3 ADD SWAP1 POP PUSH2 0x1CA1 PUSH0 DUP4 ADD DUP13 PUSH2 0x1BF4 JUMP JUMPDEST DUP2 DUP2 SUB PUSH1 0x20 DUP4 ADD MSTORE PUSH2 0x1CB3 DUP2 DUP12 PUSH2 0x1C3B JUMP JUMPDEST SWAP1 POP DUP2 DUP2 SUB PUSH1 0x40 DUP4 ADD MSTORE PUSH2 0x1CC7 DUP2 DUP11 PUSH2 0x1C3B JUMP JUMPDEST SWAP1 POP PUSH2 0x1CD6 PUSH1 0x60 DUP4 ADD DUP10 PUSH2 0x1B50 JUMP JUMPDEST PUSH2 0x1CE3 PUSH1 0x80 DUP4 ADD DUP9 PUSH2 0x1B50 JUMP JUMPDEST PUSH2 0x1CF0 PUSH1 0xA0 DUP4 ADD DUP8 PUSH2 0x1B50 JUMP JUMPDEST PUSH2 0x1CFD PUSH1 0xC0 DUP4 ADD DUP7 PUSH2 0x1C7E JUMP JUMPDEST PUSH2 0x1D0A PUSH1 0xE0 DUP4 ADD DUP6 PUSH2 0x1BF4 JUMP JUMPDEST PUSH2 0x1D18 PUSH2 0x100 DUP4 ADD DUP5 PUSH2 0x1B50 JUMP JUMPDEST SWAP11 SWAP10 POP POP POP POP POP POP POP POP POP POP JUMP JUMPDEST PUSH0 PUSH1 0x20 DUP3 ADD SWAP1 POP PUSH2 0x1D39 PUSH0 DUP4 ADD DUP5 PUSH2 0x1B50 JUMP JUMPDEST SWAP3 SWAP2 POP POP JUMP JUMPDEST PUSH2 0x1D48 DUP2 PUSH2 0x1BE3 JUMP JUMPDEST DUP2 EQ PUSH2 0x1D52 JUMPI PUSH0 PUSH0 REVERT JUMPDEST POP JUMP JUMPDEST PUSH0 DUP2 CALLDATALOAD SWAP1 POP PUSH2 0x1D63 DUP2 PUSH2 0x1D3F JUMP JUMPDEST SWAP3 SWAP2 POP POP JUMP JUMPDEST PUSH0 PUSH0 PUSH1 0x40 DUP4 DUP6 SUB SLT ISZERO PUSH2 0x1D7F JUMPI PUSH2 0x1D7E PUSH2 0x1AEA JUMP JUMPDEST JUMPDEST PUSH0 PUSH2 0x1D8C DUP6 DUP3 DUP7 ADD PUSH2 0x1B11 JUMP JUMPDEST SWAP3 POP POP PUSH1 0x20 PUSH2 0x1D9D DUP6 DUP3 DUP7 ADD PUSH2 0x1D55 JUMP JUMPDEST SWAP2 POP POP SWAP3 POP SWAP3 SWAP1 POP JUMP JUMPDEST PUSH0 PUSH1 0x20 DUP3 DUP5 SUB SLT ISZERO PUSH2 0x1DBC JUMPI PUSH2 0x1DBB PUSH2 0x1AEA JUMP JUMPDEST JUMPDEST PUSH0 PUSH2 0x1DC9 DUP5 DUP3 DUP6 ADD PUSH2 0x1D55 JUMP JUMPDEST SWAP2 POP POP SWAP3 SWAP2 POP POP JUMP JUMPDEST PUSH0 PUSH1 0x20 DUP3 ADD SWAP1 POP PUSH2 0x1DE5 PUSH0 DUP4 ADD DUP5 PUSH2 0x1C7E JUMP JUMPDEST SWAP3 SWAP2 POP POP JUMP JUMPDEST PUSH0 PUSH0 REVERT JUMPDEST PUSH0 PUSH0 REVERT JUMPDEST PUSH32 0x4E487B7100000000000000000000000000000000000000000000000000000000 PUSH0 MSTORE PUSH1 0x41 PUSH1 0x4 MSTORE PUSH1 0x24 PUSH0 REVERT JUMPDEST PUSH2 0x1E29 DUP3 PUSH2 0x1C2B JUMP JUMPDEST DUP2 ADD DUP2 DUP2 LT PUSH8 0xFFFFFFFFFFFFFFFF DUP3 GT OR ISZERO PUSH2 0x1E48 JUMPI PUSH2 0x1E47 PUSH2 0x1DF3 JUMP JUMPDEST JUMPDEST DUP1 PUSH1 0x40 MSTORE POP POP POP JUMP JUMPDEST PUSH0 PUSH2 0x1E5A PUSH2 0x1AE1 JUMP JUMPDEST SWAP1 POP PUSH2 0x1E66 DUP3 DUP3 PUSH2 0x1E20 JUMP JUMPDEST SWAP2 SWAP1 POP JUMP JUMPDEST PUSH0 PUSH8 0xFFFFFFFFFFFFFFFF DUP3 GT ISZERO PUSH2 0x1E85 JUMPI PUSH2 0x1E84 PUSH2 0x1DF3 JUMP JUMPDEST JUMPDEST PUSH2 0x1E8E DUP3 PUSH2 0x1C2B JUMP JUMPDEST SWAP1 POP PUSH1 0x20 DUP2 ADD SWAP1 POP SWAP2 SWAP1 POP JUMP JUMPDEST DUP3 DUP2 DUP4 CALLDATACOPY PUSH0 DUP4 DUP4 ADD MSTORE POP POP POP JUMP JUMPDEST PUSH0 PUSH2 0x1EBB PUSH2 0x1EB6 DUP5 PUSH2 0x1E6B JUMP JUMPDEST PUSH2 0x1E51 JUMP JUMPDEST SWAP1 POP DUP3 DUP2 MSTORE PUSH1 0x20 DUP2 ADD DUP5 DUP5 DUP5 ADD GT ISZERO PUSH2 0x1ED7 JUMPI PUSH2 0x1ED6 PUSH2 0x1DEF JUMP JUMPDEST JUMPDEST PUSH2 0x1EE2 DUP5 DUP3 DUP6 PUSH2 0x1E9B JUMP JUMPDEST POP SWAP4 SWAP3 POP POP POP JUMP JUMPDEST PUSH0 DUP3 PUSH1 0x1F DUP4 ADD SLT PUSH2 0x1EFE JUMPI PUSH2 0x1EFD PUSH2 0x1DEB JUMP JUMPDEST JUMPDEST DUP2 CALLDATALOAD PUSH2 0x1F0E DUP5 DUP3 PUSH1 0x20 DUP7 ADD PUSH2 0x1EA9 JUMP JUMPDEST SWAP2 POP POP SWAP3 SWAP2 POP POP JUMP JUMPDEST PUSH0 PUSH0 PUSH0 PUSH0 PUSH0 PUSH1 0xA0 DUP7 DUP9 SUB SLT ISZERO PUSH2 0x1F30 JUMPI PUSH2 0x1F2F PUSH2 0x1AEA JUMP JUMPDEST JUMPDEST PUSH0 DUP7 ADD CALLDATALOAD PUSH8 0xFFFFFFFFFFFFFFFF DUP2 GT ISZERO PUSH2 0x1F4D JUMPI PUSH2 0x1F4C PUSH2 0x1AEE JUMP JUMPDEST JUMPDEST PUSH2 0x1F59 DUP9 DUP3 DUP10 ADD PUSH2 0x1EEA JUMP JUMPDEST SWAP6 POP POP PUSH1 0x20 DUP7 ADD CALLDATALOAD PUSH8 0xFFFFFFFFFFFFFFFF DUP2 GT ISZERO PUSH2 0x1F7A JUMPI PUSH2 0x1F79 PUSH2 0x1AEE JUMP JUMPDEST JUMPDEST PUSH2 0x1F86 DUP9 DUP3 DUP10 ADD PUSH2 0x1EEA JUMP JUMPDEST SWAP5 POP POP PUSH1 0x40 PUSH2 0x1F97 DUP9 DUP3 DUP10 ADD PUSH2 0x1B11 JUMP JUMPDEST SWAP4 POP POP PUSH1 0x60 PUSH2 0x1FA8 DUP9 DUP3 DUP10 ADD PUSH2 0x1B11 JUMP JUMPDEST SWAP3 POP POP PUSH1 0x80 PUSH2 0x1FB9 DUP9 DUP3 DUP10 ADD PUSH2 0x1B11 JUMP JUMPDEST SWAP2 POP POP SWAP3 SWAP6 POP SWAP3 SWAP6 SWAP1 SWAP4 POP JUMP JUMPDEST PUSH0 PUSH1 0x20 DUP3 ADD SWAP1 POP PUSH2 0x1FD9 PUSH0 DUP4 ADD DUP5 PUSH2 0x1BF4 JUMP JUMPDEST SWAP3 SWAP2 POP POP JUMP JUMPDEST PUSH32 0x70726F6A65637420686173206E6F74206265656E206372656174656420796574 PUSH0 DUP3 ADD MSTORE PUSH32 0x2100000000000000000000000000000000000000000000000000000000000000 PUSH1 0x20 DUP3 ADD MSTORE POP JUMP JUMPDEST PUSH0 PUSH2 0x2039 PUSH1 0x21 DUP4 PUSH2 0x1C0D JUMP JUMPDEST SWAP2 POP PUSH2 0x2044 DUP3 PUSH2 0x1FDF JUMP JUMPDEST PUSH1 0x40 DUP3 ADD SWAP1 POP SWAP2 SWAP1 POP JUMP JUMPDEST PUSH0 PUSH1 0x20 DUP3 ADD SWAP1 POP DUP2 DUP2 SUB PUSH0 DUP4 ADD MSTORE PUSH2 0x2066 DUP2 PUSH2 0x202D JUMP JUMPDEST SWAP1 POP SWAP2 SWAP1 POP JUMP JUMPDEST PUSH32 0x4E487B7100000000000000000000000000000000000000000000000000000000 PUSH0 MSTORE PUSH1 0x11 PUSH1 0x4 MSTORE PUSH1 0x24 PUSH0 REVERT JUMPDEST PUSH0 PUSH2 0x20A4 DUP3 PUSH2 0x1AF2 JUMP JUMPDEST SWAP2 POP PUSH2 0x20AF DUP4 PUSH2 0x1AF2 JUMP JUMPDEST SWAP3 POP DUP3 DUP3 SUB SWAP1 POP DUP2 DUP2 GT ISZERO PUSH2 0x20C7 JUMPI PUSH2 0x20C6 PUSH2 0x206D JUMP JUMPDEST JUMPDEST SWAP3 SWAP2 POP POP JUMP JUMPDEST PUSH32 0x446561646C696E65206973206F766572202C20796F752043616E277420636861 PUSH0 DUP3 ADD MSTORE PUSH32 0x6E6765207468652066756E64696E6720676F616C202121000000000000000000 PUSH1 0x20 DUP3 ADD MSTORE POP JUMP JUMPDEST PUSH0 PUSH2 0x2127 PUSH1 0x37 DUP4 PUSH2 0x1C0D JUMP JUMPDEST SWAP2 POP PUSH2 0x2132 DUP3 PUSH2 0x20CD JUMP JUMPDEST PUSH1 0x40 DUP3 ADD SWAP1 POP SWAP2 SWAP1 POP JUMP JUMPDEST PUSH0 PUSH1 0x20 DUP3 ADD SWAP1 POP DUP2 DUP2 SUB PUSH0 DUP4 ADD MSTORE PUSH2 0x2154 DUP2 PUSH2 0x211B JUMP JUMPDEST SWAP1 POP SWAP2 SWAP1 POP JUMP JUMPDEST PUSH32 0x596F7520617265206E6F74207468652070726F6A6563742063726561746F7220 PUSH0 DUP3 ADD MSTORE PUSH32 0x2C204F6E6C7920506F726A6563742063726561746F722063616E204368616E67 PUSH1 0x20 DUP3 ADD MSTORE PUSH32 0x6520212100000000000000000000000000000000000000000000000000000000 PUSH1 0x40 DUP3 ADD MSTORE POP JUMP JUMPDEST PUSH0 PUSH2 0x21DB PUSH1 0x44 DUP4 PUSH2 0x1C0D JUMP JUMPDEST SWAP2 POP PUSH2 0x21E6 DUP3 PUSH2 0x215B JUMP JUMPDEST PUSH1 0x60 DUP3 ADD SWAP1 POP SWAP2 SWAP1 POP JUMP JUMPDEST PUSH0 PUSH1 0x20 DUP3 ADD SWAP1 POP DUP2 DUP2 SUB PUSH0 DUP4 ADD MSTORE PUSH2 0x2208 DUP2 PUSH2 0x21CF JUMP JUMPDEST SWAP1 POP SWAP2 SWAP1 POP JUMP JUMPDEST PUSH32 0x4E487B7100000000000000000000000000000000000000000000000000000000 PUSH0 MSTORE PUSH1 0x22 PUSH1 0x4 MSTORE PUSH1 0x24 PUSH0 REVERT JUMPDEST PUSH0 PUSH1 0x2 DUP3 DIV SWAP1 POP PUSH1 0x1 DUP3 AND DUP1 PUSH2 0x2253 JUMPI PUSH1 0x7F DUP3 AND SWAP2 POP JUMPDEST PUSH1 0x20 DUP3 LT DUP2 SUB PUSH2 0x2266 JUMPI PUSH2 0x2265 PUSH2 0x220F JUMP JUMPDEST JUMPDEST POP SWAP2 SWAP1 POP JUMP JUMPDEST PUSH32 0x46756E64696E6720676F616C206861732072656163686564202C207573657220 PUSH0 DUP3 ADD MSTORE PUSH32 0x63616E2774207769746864726177000000000000000000000000000000000000 PUSH1 0x20 DUP3 ADD MSTORE POP JUMP JUMPDEST PUSH0 PUSH2 0x22C6 PUSH1 0x2E DUP4 PUSH2 0x1C0D JUMP JUMPDEST SWAP2 POP PUSH2 0x22D1 DUP3 PUSH2 0x226C JUMP JUMPDEST PUSH1 0x40 DUP3 ADD SWAP1 POP SWAP2 SWAP1 POP JUMP JUMPDEST PUSH0 PUSH1 0x20 DUP3 ADD SWAP1 POP DUP2 DUP2 SUB PUSH0 DUP4 ADD MSTORE PUSH2 0x22F3 DUP2 PUSH2 0x22BA JUMP JUMPDEST SWAP1 POP SWAP2 SWAP1 POP JUMP JUMPDEST PUSH0 PUSH1 0x40 DUP3 ADD SWAP1 POP PUSH2 0x230D PUSH0 DUP4 ADD DUP6 PUSH2 0x1BF4 JUMP JUMPDEST PUSH2 0x231A PUSH1 0x20 DUP4 ADD DUP5 PUSH2 0x1B50 JUMP JUMPDEST SWAP4 SWAP3 POP POP POP JUMP JUMPDEST PUSH0 PUSH2 0x232B DUP3 PUSH2 0x1AF2 JUMP JUMPDEST SWAP2 POP PUSH2 0x2336 DUP4 PUSH2 0x1AF2 JUMP JUMPDEST SWAP3 POP DUP3 DUP3 MUL PUSH2 0x2344 DUP2 PUSH2 0x1AF2 JUMP JUMPDEST SWAP2 POP DUP3 DUP3 DIV DUP5 EQ DUP4 ISZERO OR PUSH2 0x235B JUMPI PUSH2 0x235A PUSH2 0x206D JUMP JUMPDEST JUMPDEST POP SWAP3 SWAP2 POP POP JUMP JUMPDEST PUSH32 0x4E487B7100000000000000000000000000000000000000000000000000000000 PUSH0 MSTORE PUSH1 0x12 PUSH1 0x4 MSTORE PUSH1 0x24 PUSH0 REVERT JUMPDEST PUSH0 PUSH2 0x2399 DUP3 PUSH2 0x1AF2 JUMP JUMPDEST SWAP2 POP PUSH2 0x23A4 DUP4 PUSH2 0x1AF2 JUMP JUMPDEST SWAP3 POP DUP3 PUSH2 0x23B4 JUMPI PUSH2 0x23B3 PUSH2 0x2362 JUMP JUMPDEST JUMPDEST DUP3 DUP3 DIV SWAP1 POP SWAP3 SWAP2 POP POP JUMP JUMPDEST PUSH32 0x4F6E6C792050726F6A6563742063726561746F722063616E20657874656E6420 PUSH0 DUP3 ADD MSTORE PUSH32 0x74686520646561646C696E652121000000000000000000000000000000000000 PUSH1 0x20 DUP3 ADD MSTORE POP JUMP JUMPDEST PUSH0 PUSH2 0x2419 PUSH1 0x2E DUP4 PUSH2 0x1C0D JUMP JUMPDEST SWAP2 POP PUSH2 0x2424 DUP3 PUSH2 0x23BF JUMP JUMPDEST PUSH1 0x40 DUP3 ADD SWAP1 POP SWAP2 SWAP1 POP JUMP JUMPDEST PUSH0 PUSH1 0x20 DUP3 ADD SWAP1 POP DUP2 DUP2 SUB PUSH0 DUP4 ADD MSTORE PUSH2 0x2446 DUP2 PUSH2 0x240D JUMP JUMPDEST SWAP1 POP SWAP2 SWAP1 POP JUMP JUMPDEST PUSH0 PUSH2 0x2457 DUP3 PUSH2 0x1AF2 JUMP JUMPDEST SWAP2 POP PUSH2 0x2462 DUP4 PUSH2 0x1AF2 JUMP JUMPDEST SWAP3 POP DUP3 DUP3 ADD SWAP1 POP DUP1 DUP3 GT ISZERO PUSH2 0x247A JUMPI PUSH2 0x2479 PUSH2 0x206D JUMP JUMPDEST JUMPDEST SWAP3 SWAP2 POP POP JUMP JUMPDEST PUSH32 0x50726F6A65637420646561646C696E65206973206F7665722100000000000000 PUSH0 DUP3 ADD MSTORE POP JUMP JUMPDEST PUSH0 PUSH2 0x24B4 PUSH1 0x19 DUP4 PUSH2 0x1C0D JUMP JUMPDEST SWAP2 POP PUSH2 0x24BF DUP3 PUSH2 0x2480 JUMP JUMPDEST PUSH1 0x20 DUP3 ADD SWAP1 POP SWAP2 SWAP1 POP JUMP JUMPDEST PUSH0 PUSH1 0x20 DUP3 ADD SWAP1 POP DUP2 DUP2 SUB PUSH0 DUP4 ADD MSTORE PUSH2 0x24E1 DUP2 PUSH2 0x24A8 JUMP JUMPDEST SWAP1 POP SWAP2 SWAP1 POP JUMP JUMPDEST PUSH32 0x50726F6A6563742052656163686564206974732046756E64696E672072657175 PUSH0 DUP3 ADD MSTORE PUSH32 0x6972656D656E7400000000000000000000000000000000000000000000000000 PUSH1 0x20 DUP3 ADD MSTORE POP JUMP JUMPDEST PUSH0 PUSH2 0x2542 PUSH1 0x27 DUP4 PUSH2 0x1C0D JUMP JUMPDEST SWAP2 POP PUSH2 0x254D DUP3 PUSH2 0x24E8 JUMP JUMPDEST PUSH1 0x40 DUP3 ADD SWAP1 POP SWAP2 SWAP1 POP JUMP JUMPDEST PUSH0 PUSH1 0x20 DUP3 ADD SWAP1 POP DUP2 DUP2 SUB PUSH0 DUP4 ADD MSTORE PUSH2 0x256F DUP2 PUSH2 0x2536 JUMP JUMPDEST SWAP1 POP SWAP2 SWAP1 POP JUMP JUMPDEST PUSH32 0x73656E6420736F6D6520657468657220746F20636F6E7472696275746520696E PUSH0 DUP3 ADD MSTORE PUSH32 0x207468652070726F6A6563740000000000000000000000000000000000000000 PUSH1 0x20 DUP3 ADD MSTORE POP JUMP JUMPDEST PUSH0 PUSH2 0x25D0 PUSH1 0x2C DUP4 PUSH2 0x1C0D JUMP JUMPDEST SWAP2 POP PUSH2 0x25DB DUP3 PUSH2 0x2576 JUMP JUMPDEST PUSH1 0x40 DUP3 ADD SWAP1 POP SWAP2 SWAP1 POP JUMP JUMPDEST PUSH0 PUSH1 0x20 DUP3 ADD SWAP1 POP DUP2 DUP2 SUB PUSH0 DUP4 ADD MSTORE PUSH2 0x25FD DUP2 PUSH2 0x25C4 JUMP JUMPDEST SWAP1 POP SWAP2 SWAP1 POP JUMP JUMPDEST PUSH32 0x416D6F756E7420436F6E7472696275746564206973206D6F7265207468616E20 PUSH0 DUP3 ADD MSTORE PUSH32 0x476F616C00000000000000000000000000000000000000000000000000000000 PUSH1 0x20 DUP3 ADD MSTORE POP JUMP JUMPDEST PUSH0 PUSH2 0x265E PUSH1 0x24 DUP4 PUSH2 0x1C0D JUMP JUMPDEST SWAP2 POP PUSH2 0x2669 DUP3 PUSH2 0x2604 JUMP JUMPDEST PUSH1 0x40 DUP3 ADD SWAP1 POP SWAP2 SWAP1 POP JUMP JUMPDEST PUSH0 PUSH1 0x20 DUP3 ADD SWAP1 POP DUP2 DUP2 SUB PUSH0 DUP4 ADD MSTORE PUSH2 0x268B DUP2 PUSH2 0x2652 JUMP JUMPDEST SWAP1 POP SWAP2 SWAP1 POP JUMP JUMPDEST PUSH0 DUP2 SWAP1 POP SWAP3 SWAP2 POP POP JUMP JUMPDEST POP JUMP JUMPDEST PUSH0 PUSH2 0x26AA PUSH0 DUP4 PUSH2 0x2692 JUMP JUMPDEST SWAP2 POP PUSH2 0x26B5 DUP3 PUSH2 0x269C JUMP JUMPDEST PUSH0 DUP3 ADD SWAP1 POP SWAP2 SWAP1 POP JUMP JUMPDEST PUSH0 PUSH2 0x26C9 DUP3 PUSH2 0x269F JUMP JUMPDEST SWAP2 POP DUP2 SWAP1 POP SWAP2 SWAP1 POP JUMP JUMPDEST PUSH32 0x526566756E64204661696C656400000000000000000000000000000000000000 PUSH0 DUP3 ADD MSTORE POP JUMP JUMPDEST PUSH0 PUSH2 0x2707 PUSH1 0xD DUP4 PUSH2 0x1C0D JUMP JUMPDEST SWAP2 POP PUSH2 0x2712 DUP3 PUSH2 0x26D3 JUMP JUMPDEST PUSH1 0x20 DUP3 ADD SWAP1 POP SWAP2 SWAP1 POP JUMP JUMPDEST PUSH0 PUSH1 0x20 DUP3 ADD SWAP1 POP DUP2 DUP2 SUB PUSH0 DUP4 ADD MSTORE PUSH2 0x2734 DUP2 PUSH2 0x26FB JUMP JUMPDEST SWAP1 POP SWAP2 SWAP1 POP JUMP JUMPDEST PUSH0 PUSH1 0x60 DUP3 ADD SWAP1 POP PUSH2 0x274E PUSH0 DUP4 ADD DUP7 PUSH2 0x1BF4 JUMP JUMPDEST PUSH2 0x275B PUSH1 0x20 DUP4 ADD DUP6 PUSH2 0x1B50 JUMP JUMPDEST PUSH2 0x2768 PUSH1 0x40 DUP4 ADD DUP5 PUSH2 0x1B50 JUMP JUMPDEST SWAP5 SWAP4 POP POP POP POP JUMP JUMPDEST PUSH0 PUSH2 0x277A DUP3 PUSH2 0x1AF2 JUMP JUMPDEST SWAP2 POP PUSH32 0xFFFFFFFFFFFFFFFFFFFFFFFFFFFFFFFFFFFFFFFFFFFFFFFFFFFFFFFFFFFFFFFF DUP3 SUB PUSH2 0x27AC JUMPI PUSH2 0x27AB PUSH2 0x206D JUMP JUMPDEST JUMPDEST PUSH1 0x1 DUP3 ADD SWAP1 POP SWAP2 SWAP1 POP JUMP JUMPDEST PUSH32 0x446561646C696E65206973206E6F742072656163686564207965740000000000 PUSH0 DUP3 ADD MSTORE POP JUMP JUMPDEST PUSH0 PUSH2 0x27EB PUSH1 0x1B DUP4 PUSH2 0x1C0D JUMP JUMPDEST SWAP2 POP PUSH2 0x27F6 DUP3 PUSH2 0x27B7 JUMP JUMPDEST PUSH1 0x20 DUP3 ADD SWAP1 POP SWAP2 SWAP1 POP JUMP JUMPDEST PUSH0 PUSH1 0x20 DUP3 ADD SWAP1 POP DUP2 DUP2 SUB PUSH0 DUP4 ADD MSTORE PUSH2 0x2818 DUP2 PUSH2 0x27DF JUMP JUMPDEST SWAP1 POP SWAP2 SWAP1 POP JUMP JUMPDEST PUSH32 0x50726F6A65637420616C72656164792066756E64656400000000000000000000 PUSH0 DUP3 ADD MSTORE POP JUMP JUMPDEST PUSH0 PUSH2 0x2853 PUSH1 0x16 DUP4 PUSH2 0x1C0D JUMP JUMPDEST SWAP2 POP PUSH2 0x285E DUP3 PUSH2 0x281F JUMP JUMPDEST PUSH1 0x20 DUP3 ADD SWAP1 POP SWAP2 SWAP1 POP JUMP JUMPDEST PUSH0 PUSH1 0x20 DUP3 ADD SWAP1 POP DUP2 DUP2 SUB PUSH0 DUP4 ADD MSTORE PUSH2 0x2880 DUP2 PUSH2 0x2847 JUMP JUMPDEST SWAP1 POP SWAP2 SWAP1 POP JUMP JUMPDEST PUSH32 0x66756E64696E6720676F616C20686173206E6F742072656163686564202C2061 PUSH0 DUP3 ADD MSTORE PUSH32 0x646D696E2063616E277420776974686472617700000000000000000000000000 PUSH1 0x20 DUP3 ADD MSTORE POP JUMP JUMPDEST PUSH0 PUSH2 0x28E1 PUSH1 0x33 DUP4 PUSH2 0x1C0D JUMP JUMPDEST SWAP2 POP PUSH2 0x28EC DUP3 PUSH2 0x2887 JUMP JUMPDEST PUSH1 0x40 DUP3 ADD SWAP1 POP SWAP2 SWAP1 POP JUMP JUMPDEST PUSH0 PUSH1 0x20 DUP3 ADD SWAP1 POP DUP2 DUP2 SUB PUSH0 DUP4 ADD MSTORE PUSH2 0x290E DUP2 PUSH2 0x28D5 JUMP JUMPDEST SWAP1 POP SWAP2 SWAP1 POP JUMP JUMPDEST PUSH32 0x6F6E6C792061646D696E2063616E207769746864726177000000000000000000 PUSH0 DUP3 ADD MSTORE POP JUMP JUMPDEST PUSH0 PUSH2 0x2949 PUSH1 0x17 DUP4 PUSH2 0x1C0D JUMP JUMPDEST SWAP2 POP PUSH2 0x2954 DUP3 PUSH2 0x2915 JUMP JUMPDEST PUSH1 0x20 DUP3 ADD SWAP1 POP SWAP2 SWAP1 POP JUMP JUMPDEST PUSH0 PUSH1 0x20 DUP3 ADD SWAP1 POP DUP2 DUP2 SUB PUSH0 DUP4 ADD MSTORE PUSH2 0x2976 DUP2 PUSH2 0x293D JUMP JUMPDEST SWAP1 POP SWAP2 SWAP1 POP JUMP JUMPDEST PUSH32 0x646561646C696E6520686173206E6F742072656163686564202C2061646D696E PUSH0 DUP3 ADD MSTORE PUSH32 0x2063616E27742077697468647261770000000000000000000000000000000000 PUSH1 0x20 DUP3 ADD MSTORE POP JUMP JUMPDEST PUSH0 PUSH2 0x29D7 PUSH1 0x2F DUP4 PUSH2 0x1C0D JUMP JUMPDEST SWAP2 POP PUSH2 0x29E2 DUP3 PUSH2 0x297D JUMP JUMPDEST PUSH1 0x40 DUP3 ADD SWAP1 POP SWAP2 SWAP1 POP JUMP JUMPDEST PUSH0 PUSH1 0x20 DUP3 ADD SWAP1 POP DUP2 DUP2 SUB PUSH0 DUP4 ADD MSTORE PUSH2 0x2A04 DUP2 PUSH2 0x29CB JUMP JUMPDEST SWAP1 POP SWAP2 SWAP1 POP JUMP JUMPDEST PUSH32 0x4F6E6C792041646D696E2063616E206163636573730000000000000000000000 PUSH0 DUP3 ADD MSTORE POP JUMP JUMPDEST PUSH0 PUSH2 0x2A3F PUSH1 0x15 DUP4 PUSH2 0x1C0D JUMP JUMPDEST SWAP2 POP PUSH2 0x2A4A DUP3 PUSH2 0x2A0B JUMP JUMPDEST PUSH1 0x20 DUP3 ADD SWAP1 POP SWAP2 SWAP1 POP JUMP JUMPDEST PUSH0 PUSH1 0x20 DUP3 ADD SWAP1 POP DUP2 DUP2 SUB PUSH0 DUP4 ADD MSTORE PUSH2 0x2A6C DUP2 PUSH2 0x2A33 JUMP JUMPDEST SWAP1 POP SWAP2 SWAP1 POP JUMP JUMPDEST PUSH32 0x43616E6E6F7420776974686472617720616674657220646561646C696E650000 PUSH0 DUP3 ADD MSTORE POP JUMP JUMPDEST PUSH0 PUSH2 0x2AA7 PUSH1 0x1E DUP4 PUSH2 0x1C0D JUMP JUMPDEST SWAP2 POP PUSH2 0x2AB2 DUP3 PUSH2 0x2A73 JUMP JUMPDEST PUSH1 0x20 DUP3 ADD SWAP1 POP SWAP2 SWAP1 POP JUMP JUMPDEST PUSH0 PUSH1 0x20 DUP3 ADD SWAP1 POP DUP2 DUP2 SUB PUSH0 DUP4 ADD MSTORE PUSH2 0x2AD4 DUP2 PUSH2 0x2A9B JUMP JUMPDEST SWAP1 POP SWAP2 SWAP1 POP JUMP JUMPDEST PUSH32 0x4E6F2046756E647320746F207769746864726177212100000000000000000000 PUSH0 DUP3 ADD MSTORE POP JUMP JUMPDEST PUSH0 PUSH2 0x2B0F PUSH1 0x16 DUP4 PUSH2 0x1C0D JUMP JUMPDEST SWAP2 POP PUSH2 0x2B1A DUP3 PUSH2 0x2ADB JUMP JUMPDEST PUSH1 0x20 DUP3 ADD SWAP1 POP SWAP2 SWAP1 POP JUMP JUMPDEST PUSH0 PUSH1 0x20 DUP3 ADD SWAP1 POP DUP2 DUP2 SUB PUSH0 DUP4 ADD MSTORE PUSH2 0x2B3C DUP2 PUSH2 0x2B03 JUMP JUMPDEST SWAP1 POP SWAP2 SWAP1 POP JUMP JUMPDEST PUSH32 0x576974686472617720616D6F756E74206578636565647320796F757220636F6E PUSH0 DUP3 ADD MSTORE PUSH32 0x747269627574696F6E0000000000000000000000000000000000000000000000 PUSH1 0x20 DUP3 ADD MSTORE POP JUMP JUMPDEST PUSH0 PUSH2 0x2B9D PUSH1 0x29 DUP4 PUSH2 0x1C0D JUMP JUMPDEST SWAP2 POP PUSH2 0x2BA8 DUP3 PUSH2 0x2B43 JUMP JUMPDEST PUSH1 0x40 DUP3 ADD SWAP1 POP SWAP2 SWAP1 POP JUMP JUMPDEST PUSH0 PUSH1 0x20 DUP3 ADD SWAP1 POP DUP2 DUP2 SUB PUSH0 DUP4 ADD MSTORE PUSH2 0x2BCA DUP2 PUSH2 0x2B91 JUMP JUMPDEST SWAP1 POP SWAP2 SWAP1 POP JUMP JUMPDEST PUSH32 0x7769746864726177206661696C65642121212100000000000000000000000000 PUSH0 DUP3 ADD MSTORE POP JUMP JUMPDEST PUSH0 PUSH2 0x2C05 PUSH1 0x13 DUP4 PUSH2 0x1C0D JUMP JUMPDEST SWAP2 POP PUSH2 0x2C10 DUP3 PUSH2 0x2BD1 JUMP JUMPDEST PUSH1 0x20 DUP3 ADD SWAP1 POP SWAP2 SWAP1 POP JUMP JUMPDEST PUSH0 PUSH1 0x20 DUP3 ADD SWAP1 POP DUP2 DUP2 SUB PUSH0 DUP4 ADD MSTORE PUSH2 0x2C32 DUP2 PUSH2 0x2BF9 JUMP JUMPDEST SWAP1 POP SWAP2 SWAP1 POP JUMP JUMPDEST PUSH32 0x50726F6A65637420494420697320616C726561647920696E2075736521000000 PUSH0 DUP3 ADD MSTORE POP JUMP JUMPDEST PUSH0 PUSH2 0x2C6D PUSH1 0x1D DUP4 PUSH2 0x1C0D JUMP JUMPDEST SWAP2 POP PUSH2 0x2C78 DUP3 PUSH2 0x2C39 JUMP JUMPDEST PUSH1 0x20 DUP3 ADD SWAP1 POP SWAP2 SWAP1 POP JUMP JUMPDEST PUSH0 PUSH1 0x20 DUP3 ADD SWAP1 POP DUP2 DUP2 SUB PUSH0 DUP4 ADD MSTORE PUSH2 0x2C9A DUP2 PUSH2 0x2C61 JUMP JUMPDEST SWAP1 POP SWAP2 SWAP1 POP JUMP JUMPDEST PUSH32 0x4F6E6C7920417574686F72697A65642063726561746F72732063616E20616363 PUSH0 DUP3 ADD MSTORE PUSH32 0x6573732121000000000000000000000000000000000000000000000000000000 PUSH1 0x20 DUP3 ADD MSTORE POP JUMP JUMPDEST PUSH0 PUSH2 0x2CFB PUSH1 0x25 DUP4 PUSH2 0x1C0D JUMP JUMPDEST SWAP2 POP PUSH2 0x2D06 DUP3 PUSH2 0x2CA1 JUMP JUMPDEST PUSH1 0x40 DUP3 ADD SWAP1 POP SWAP2 SWAP1 POP JUMP JUMPDEST PUSH0 PUSH1 0x20 DUP3 ADD SWAP1 POP DUP2 DUP2 SUB PUSH0 DUP4 ADD MSTORE PUSH2 0x2D28 DUP2 PUSH2 0x2CEF JUMP JUMPDEST SWAP1 POP SWAP2 SWAP1 POP JUMP JUMPDEST PUSH0 DUP2 SWAP1 POP DUP2 PUSH0 MSTORE PUSH1 0x20 PUSH0 KECCAK256 SWAP1 POP SWAP2 SWAP1 POP JUMP JUMPDEST PUSH0 PUSH1 0x20 PUSH1 0x1F DUP4 ADD DIV SWAP1 POP SWAP2 SWAP1 POP JUMP JUMPDEST PUSH0 DUP3 DUP3 SHL SWAP1 POP SWAP3 SWAP2 POP POP JUMP JUMPDEST PUSH0 PUSH1 0x8 DUP4 MUL PUSH2 0x2D8B PUSH32 0xFFFFFFFFFFFFFFFFFFFFFFFFFFFFFFFFFFFFFFFFFFFFFFFFFFFFFFFFFFFFFFFF DUP3 PUSH2 0x2D50 JUMP JUMPDEST PUSH2 0x2D95 DUP7 DUP4 PUSH2 0x2D50 JUMP JUMPDEST SWAP6 POP DUP1 NOT DUP5 AND SWAP4 POP DUP1 DUP7 AND DUP5 OR SWAP3 POP POP POP SWAP4 SWAP3 POP POP POP JUMP JUMPDEST PUSH0 DUP2 SWAP1 POP SWAP2 SWAP1 POP JUMP JUMPDEST PUSH0 PUSH2 0x2DD0 PUSH2 0x2DCB PUSH2 0x2DC6 DUP5 PUSH2 0x1AF2 JUMP JUMPDEST PUSH2 0x2DAD JUMP JUMPDEST PUSH2 0x1AF2 JUMP JUMPDEST SWAP1 POP SWAP2 SWAP1 POP JUMP JUMPDEST PUSH0 DUP2 SWAP1 POP SWAP2 SWAP1 POP JUMP JUMPDEST PUSH2 0x2DE9 DUP4 PUSH2 0x2DB6 JUMP JUMPDEST PUSH2 0x2DFD PUSH2 0x2DF5 DUP3 PUSH2 0x2DD7 JUMP JUMPDEST DUP5 DUP5 SLOAD PUSH2 0x2D5C JUMP JUMPDEST DUP3 SSTORE POP POP POP POP JUMP JUMPDEST PUSH0 PUSH0 SWAP1 POP SWAP1 JUMP JUMPDEST PUSH2 0x2E14 PUSH2 0x2E05 JUMP JUMPDEST PUSH2 0x2E1F DUP2 DUP5 DUP5 PUSH2 0x2DE0 JUMP JUMPDEST POP POP POP JUMP JUMPDEST JUMPDEST DUP2 DUP2 LT ISZERO PUSH2 0x2E42 JUMPI PUSH2 0x2E37 PUSH0 DUP3 PUSH2 0x2E0C JUMP JUMPDEST PUSH1 0x1 DUP2 ADD SWAP1 POP PUSH2 0x2E25 JUMP JUMPDEST POP POP JUMP JUMPDEST PUSH1 0x1F DUP3 GT ISZERO PUSH2 0x2E87 JUMPI PUSH2 0x2E58 DUP2 PUSH2 0x2D2F JUMP JUMPDEST PUSH2 0x2E61 DUP5 PUSH2 0x2D41 JUMP JUMPDEST DUP2 ADD PUSH1 0x20 DUP6 LT ISZERO PUSH2 0x2E70 JUMPI DUP2 SWAP1 POP JUMPDEST PUSH2 0x2E84 PUSH2 0x2E7C DUP6 PUSH2 0x2D41 JUMP JUMPDEST DUP4 ADD DUP3 PUSH2 0x2E24 JUMP JUMPDEST POP POP JUMPDEST POP POP POP JUMP JUMPDEST PUSH0 DUP3 DUP3 SHR SWAP1 POP SWAP3 SWAP2 POP POP JUMP JUMPDEST PUSH0 PUSH2 0x2EA7 PUSH0 NOT DUP5 PUSH1 0x8 MUL PUSH2 0x2E8C JUMP JUMPDEST NOT DUP1 DUP4 AND SWAP2 POP POP SWAP3 SWAP2 POP POP JUMP JUMPDEST PUSH0 PUSH2 0x2EBF DUP4 DUP4 PUSH2 0x2E98 JUMP JUMPDEST SWAP2 POP DUP3 PUSH1 0x2 MUL DUP3 OR SWAP1 POP SWAP3 SWAP2 POP POP JUMP JUMPDEST PUSH2 0x2ED8 DUP3 PUSH2 0x1C03 JUMP JUMPDEST PUSH8 0xFFFFFFFFFFFFFFFF DUP2 GT ISZERO PUSH2 0x2EF1 JUMPI PUSH2 0x2EF0 PUSH2 0x1DF3 JUMP JUMPDEST JUMPDEST PUSH2 0x2EFB DUP3 SLOAD PUSH2 0x223C JUMP JUMPDEST PUSH2 0x2F06 DUP3 DUP3 DUP6 PUSH2 0x2E46 JUMP JUMPDEST PUSH0 PUSH1 0x20 SWAP1 POP PUSH1 0x1F DUP4 GT PUSH1 0x1 DUP2 EQ PUSH2 0x2F37 JUMPI PUSH0 DUP5 ISZERO PUSH2 0x2F25 JUMPI DUP3 DUP8 ADD MLOAD SWAP1 POP JUMPDEST PUSH2 0x2F2F DUP6 DUP3 PUSH2 0x2EB4 JUMP JUMPDEST DUP7 SSTORE POP PUSH2 0x2F96 JUMP JUMPDEST PUSH1 0x1F NOT DUP5 AND PUSH2 0x2F45 DUP7 PUSH2 0x2D2F JUMP JUMPDEST PUSH0 JUMPDEST DUP3 DUP2 LT ISZERO PUSH2 0x2F6C JUMPI DUP5 DUP10 ADD MLOAD DUP3 SSTORE PUSH1 0x1 DUP3 ADD SWAP2 POP PUSH1 0x20 DUP6 ADD SWAP5 POP PUSH1 0x20 DUP2 ADD SWAP1 POP PUSH2 0x2F47 JUMP JUMPDEST DUP7 DUP4 LT ISZERO PUSH2 0x2F89 JUMPI DUP5 DUP10 ADD MLOAD PUSH2 0x2F85 PUSH1 0x1F DUP10 AND DUP3 PUSH2 0x2E98 JUMP JUMPDEST DUP4 SSTORE POP JUMPDEST PUSH1 0x1 PUSH1 0x2 DUP9 MUL ADD DUP9 SSTORE POP POP POP JUMPDEST POP POP POP POP POP POP JUMP JUMPDEST PUSH0 PUSH1 0x80 DUP3 ADD SWAP1 POP DUP2 DUP2 SUB PUSH0 DUP4 ADD MSTORE PUSH2 0x2FB6 DUP2 DUP8 PUSH2 0x1C3B JUMP JUMPDEST SWAP1 POP DUP2 DUP2 SUB PUSH1 0x20 DUP4 ADD MSTORE PUSH2 0x2FCA DUP2 DUP7 PUSH2 0x1C3B JUMP JUMPDEST SWAP1 POP PUSH2 0x2FD9 PUSH1 0x40 DUP4 ADD DUP6 PUSH2 0x1B50 JUMP JUMPDEST PUSH2 0x2FE6 PUSH1 0x60 DUP4 ADD DUP5 PUSH2 0x1B50 JUMP JUMPDEST SWAP6 SWAP5 POP POP POP POP POP JUMP INVALID LOG2 PUSH5 0x6970667358 0x22 SLT KECCAK256 PUSH0 SWAPN 0xA6 0x28 0xFC KECCAK256 LOG3 ORIGIN 0x4E 0xFC EXP 0xEA 0xB8 SWAP3 PUSH30 0xFC7A0FBA536538099E3176B02E2566D41F64736F6C634300081E00330000 "
				},
				"gasEstimates": {
					"creation": {
						"codeDepositCost": "2465000",
						"executionCost": "49034",
						"totalCost": "2514034"
					},
					"external": {
						"Add_Creators(address)": "28243",
						"AuthorizedCreators(address)": "2922",
						"Change_FundingGoal(uint256,uint256)": "infinite",
						"Contributions(uint256,address)": "infinite",
						"Extend_Deadline(uint256,uint256)": "infinite",
						"Failed_Funded_Projects()": "2515",
						"Funding_Raised_Percentage(uint256)": "infinite",
						"Get_Total_Raised_Funding()": "2499",
						"Projects(uint256)": "infinite",
						"Remaining_Fund(uint256)": "infinite",
						"Remove_Creators(address)": "28199",
						"Successful_Funded_Projects()": "2469",
						"Time_Left(uint256)": "infinite",
						"TotalProjects()": "2536",
						"admin()": "2596",
						"createProject(string,string,uint256,uint256,uint256)": "infinite",
						"creatorWithdraw(uint256)": "infinite",
						"fundProject(uint256)": "infinite",
						"userEarlyWithdraw(uint256,uint256)": "infinite",
						"userWithdraw(uint256)": "infinite"
					}
				},
				"methodIdentifiers": {
					"Add_Creators(address)": "fee2f1c9",
					"AuthorizedCreators(address)": "88283c0f",
					"Change_FundingGoal(uint256,uint256)": "1392ebfe",
					"Contributions(uint256,address)": "5d4e5d78",
					"Extend_Deadline(uint256,uint256)": "629b2647",
					"Failed_Funded_Projects()": "32dcd3a1",
					"Funding_Raised_Percentage(uint256)": "42d844a5",
					"Get_Total_Raised_Funding()": "54a5bcc5",
					"Projects(uint256)": "21b2416c",
					"Remaining_Fund(uint256)": "0dbac135",
					"Remove_Creators(address)": "7299baeb",
					"Successful_Funded_Projects()": "ce7c9080",
					"Time_Left(uint256)": "370c36b4",
					"TotalProjects()": "9ab761c7",
					"admin()": "f851a440",
					"createProject(string,string,uint256,uint256,uint256)": "f81bf601",
					"creatorWithdraw(uint256)": "71eb89f3",
					"fundProject(uint256)": "6c563abe",
					"userEarlyWithdraw(uint256,uint256)": "cd4ac98c",
					"userWithdraw(uint256)": "3b9056bf"
				}
			},
			"storageLayout": {
				"storage": [
					{
						"astId": 10,
						"contract": "contracts/CrowdTank.sol:CrowdTank",
						"label": "_status",
						"offset": 0,
						"slot": "0",
						"type": "t_uint256"
					},
					{
						"astId": 75,
						"contract": "contracts/CrowdTank.sol:CrowdTank",
						"label": "TotalRaisedFunding",
						"offset": 0,
						"slot": "1",
						"type": "t_uint256"
					},
					{
						"astId": 77,
						"contract": "contracts/CrowdTank.sol:CrowdTank",
						"label": "TotalProjects",
						"offset": 0,
						"slot": "2",
						"type": "t_uint256"
					},
					{
						"astId": 79,
						"contract": "contracts/CrowdTank.sol:CrowdTank",
						"label": "admin",
						"offset": 0,
						"slot": "3",
						"type": "t_address"
					},
					{
						"astId": 81,
						"contract": "contracts/CrowdTank.sol:CrowdTank",
						"label": "Successful_Funded_Projects",
						"offset": 0,
						"slot": "4",
						"type": "t_uint256"
					},
					{
						"astId": 83,
						"contract": "contracts/CrowdTank.sol:CrowdTank",
						"label": "Failed_Funded_Projects",
						"offset": 0,
						"slot": "5",
						"type": "t_uint256"
					},
					{
						"astId": 116,
						"contract": "contracts/CrowdTank.sol:CrowdTank",
						"label": "AuthorizedCreators",
						"offset": 0,
						"slot": "6",
						"type": "t_mapping(t_address,t_bool)"
					},
					{
						"astId": 176,
						"contract": "contracts/CrowdTank.sol:CrowdTank",
						"label": "Projects",
						"offset": 0,
						"slot": "7",
						"type": "t_mapping(t_uint256,t_struct(project)171_storage)"
					},
					{
						"astId": 182,
						"contract": "contracts/CrowdTank.sol:CrowdTank",
						"label": "Contributions",
						"offset": 0,
						"slot": "8",
						"type": "t_mapping(t_uint256,t_mapping(t_address,t_uint256))"
					},
					{
						"astId": 186,
						"contract": "contracts/CrowdTank.sol:CrowdTank",
						"label": "isIdUsed",
						"offset": 0,
						"slot": "9",
						"type": "t_mapping(t_uint256,t_bool)"
					}
				],
				"types": {
					"t_address": {
						"encoding": "inplace",
						"label": "address",
						"numberOfBytes": "20"
					},
					"t_bool": {
						"encoding": "inplace",
						"label": "bool",
						"numberOfBytes": "1"
					},
					"t_mapping(t_address,t_bool)": {
						"encoding": "mapping",
						"key": "t_address",
						"label": "mapping(address => bool)",
						"numberOfBytes": "32",
						"value": "t_bool"
					},
					"t_mapping(t_address,t_uint256)": {
						"encoding": "mapping",
						"key": "t_address",
						"label": "mapping(address => uint256)",
						"numberOfBytes": "32",
						"value": "t_uint256"
					},
					"t_mapping(t_uint256,t_bool)": {
						"encoding": "mapping",
						"key": "t_uint256",
						"label": "mapping(uint256 => bool)",
						"numberOfBytes": "32",
						"value": "t_bool"
					},
					"t_mapping(t_uint256,t_mapping(t_address,t_uint256))": {
						"encoding": "mapping",
						"key": "t_uint256",
						"label": "mapping(uint256 => mapping(address => uint256))",
						"numberOfBytes": "32",
						"value": "t_mapping(t_address,t_uint256)"
					},
					"t_mapping(t_uint256,t_struct(project)171_storage)": {
						"encoding": "mapping",
						"key": "t_uint256",
						"label": "mapping(uint256 => struct CrowdTank.project)",
						"numberOfBytes": "32",
						"value": "t_struct(project)171_storage"
					},
					"t_string_storage": {
						"encoding": "bytes",
						"label": "string",
						"numberOfBytes": "32"
					},
					"t_struct(project)171_storage": {
						"encoding": "inplace",
						"label": "struct CrowdTank.project",
						"members": [
							{
								"astId": 154,
								"contract": "contracts/CrowdTank.sol:CrowdTank",
								"label": "creator",
								"offset": 0,
								"slot": "0",
								"type": "t_address"
							},
							{
								"astId": 156,
								"contract": "contracts/CrowdTank.sol:CrowdTank",
								"label": "name",
								"offset": 0,
								"slot": "1",
								"type": "t_string_storage"
							},
							{
								"astId": 158,
								"contract": "contracts/CrowdTank.sol:CrowdTank",
								"label": "description",
								"offset": 0,
								"slot": "2",
								"type": "t_string_storage"
							},
							{
								"astId": 160,
								"contract": "contracts/CrowdTank.sol:CrowdTank",
								"label": "fundingGoal",
								"offset": 0,
								"slot": "3",
								"type": "t_uint256"
							},
							{
								"astId": 162,
								"contract": "contracts/CrowdTank.sol:CrowdTank",
								"label": "deadline",
								"offset": 0,
								"slot": "4",
								"type": "t_uint256"
							},
							{
								"astId": 164,
								"contract": "contracts/CrowdTank.sol:CrowdTank",
								"label": "amountRaised",
								"offset": 0,
								"slot": "5",
								"type": "t_uint256"
							},
							{
								"astId": 166,
								"contract": "contracts/CrowdTank.sol:CrowdTank",
								"label": "funded",
								"offset": 0,
								"slot": "6",
								"type": "t_bool"
							},
							{
								"astId": 168,
								"contract": "contracts/CrowdTank.sol:CrowdTank",
								"label": "highest_Funder",
								"offset": 1,
								"slot": "6",
								"type": "t_address"
							},
							{
								"astId": 170,
								"contract": "contracts/CrowdTank.sol:CrowdTank",
								"label": "highest_contribution",
								"offset": 0,
								"slot": "7",
								"type": "t_uint256"
							}
						],
						"numberOfBytes": "256"
					},
					"t_uint256": {
						"encoding": "inplace",
						"label": "uint256",
						"numberOfBytes": "32"
					}
				}
			},
			"userdoc": {
				"kind": "user",
				"methods": {},
				"version": 1
			}
		}
	}
}