{
	"contracts/CrowdTank.sol": {
		"CrowdTank": {
			"abi": [
				{
					"inputs": [],
					"name": "ReentrancyGuardReentrantCall",
					"type": "error"
				},
				{
					"anonymous": false,
					"inputs": [
						{
							"indexed": true,
							"internalType": "uint256",
							"name": "projectID",
							"type": "uint256"
						},
						{
							"indexed": true,
							"internalType": "address",
							"name": "creator",
							"type": "address"
						},
						{
							"indexed": false,
							"internalType": "string",
							"name": "name",
							"type": "string"
						},
						{
							"indexed": false,
							"internalType": "string",
							"name": "description",
							"type": "string"
						},
						{
							"indexed": false,
							"internalType": "uint256",
							"name": "fundingGoal",
							"type": "uint256"
						},
						{
							"indexed": false,
							"internalType": "uint256",
							"name": "deadline",
							"type": "uint256"
						}
					],
					"name": "ProjectCreated",
					"type": "event"
				},
				{
					"anonymous": false,
					"inputs": [
						{
							"indexed": true,
							"internalType": "address",
							"name": "user",
							"type": "address"
						},
						{
							"indexed": true,
							"internalType": "uint256",
							"name": "_projectID",
							"type": "uint256"
						},
						{
							"indexed": false,
							"internalType": "uint256",
							"name": "amount",
							"type": "uint256"
						}
					],
					"name": "UserEarlyWithdraw",
					"type": "event"
				},
				{
					"anonymous": false,
					"inputs": [
						{
							"indexed": true,
							"internalType": "uint256",
							"name": "projectID",
							"type": "uint256"
						},
						{
							"indexed": false,
							"internalType": "address",
							"name": "withdrawer",
							"type": "address"
						},
						{
							"indexed": false,
							"internalType": "uint256",
							"name": "amount",
							"type": "uint256"
						}
					],
					"name": "creatorWithdrawn",
					"type": "event"
				},
				{
					"anonymous": false,
					"inputs": [
						{
							"indexed": true,
							"internalType": "uint256",
							"name": "projectID",
							"type": "uint256"
						},
						{
							"indexed": false,
							"internalType": "address",
							"name": "contributor",
							"type": "address"
						},
						{
							"indexed": false,
							"internalType": "uint256",
							"name": "amount",
							"type": "uint256"
						},
						{
							"indexed": false,
							"internalType": "uint256",
							"name": "refund",
							"type": "uint256"
						}
					],
					"name": "funded",
					"type": "event"
				},
				{
					"anonymous": false,
					"inputs": [
						{
							"indexed": true,
							"internalType": "uint256",
							"name": "projectID",
							"type": "uint256"
						},
						{
							"indexed": false,
							"internalType": "address",
							"name": "withdrawer",
							"type": "address"
						},
						{
							"indexed": false,
							"internalType": "uint256",
							"name": "amount",
							"type": "uint256"
						}
					],
					"name": "userWithdrawn",
					"type": "event"
				},
				{
					"inputs": [
						{
							"internalType": "uint256",
							"name": "_projectID",
							"type": "uint256"
						},
						{
							"internalType": "uint256",
							"name": "Change_Goal",
							"type": "uint256"
						}
					],
					"name": "Change_FundingGoal",
					"outputs": [],
					"stateMutability": "nonpayable",
					"type": "function"
				},
				{
					"inputs": [
						{
							"internalType": "uint256",
							"name": "",
							"type": "uint256"
						},
						{
							"internalType": "address",
							"name": "",
							"type": "address"
						}
					],
					"name": "Contributions",
					"outputs": [
						{
							"internalType": "uint256",
							"name": "",
							"type": "uint256"
						}
					],
					"stateMutability": "view",
					"type": "function"
				},
				{
					"inputs": [
						{
							"internalType": "uint256",
							"name": "_projectID",
							"type": "uint256"
						},
						{
							"internalType": "uint256",
							"name": "_deadline",
							"type": "uint256"
						}
					],
					"name": "Extend_Deadline",
					"outputs": [],
					"stateMutability": "nonpayable",
					"type": "function"
				},
				{
					"inputs": [
						{
							"internalType": "uint256",
							"name": "_projectID",
							"type": "uint256"
						}
					],
					"name": "Funding_Raised_Percentage",
					"outputs": [
						{
							"internalType": "uint256",
							"name": "",
							"type": "uint256"
						}
					],
					"stateMutability": "view",
					"type": "function"
				},
				{
					"inputs": [],
					"name": "Get_Total_Raised_Funding",
					"outputs": [
						{
							"internalType": "uint256",
							"name": "",
							"type": "uint256"
						}
					],
					"stateMutability": "view",
					"type": "function"
				},
				{
					"inputs": [
						{
							"internalType": "uint256",
							"name": "",
							"type": "uint256"
						}
					],
					"name": "Projects",
					"outputs": [
						{
							"internalType": "address",
							"name": "creator",
							"type": "address"
						},
						{
							"internalType": "string",
							"name": "name",
							"type": "string"
						},
						{
							"internalType": "string",
							"name": "description",
							"type": "string"
						},
						{
							"internalType": "uint256",
							"name": "fundingGoal",
							"type": "uint256"
						},
						{
							"internalType": "uint256",
							"name": "deadline",
							"type": "uint256"
						},
						{
							"internalType": "uint256",
							"name": "amountRaised",
							"type": "uint256"
						},
						{
							"internalType": "bool",
							"name": "funded",
							"type": "bool"
						}
					],
					"stateMutability": "view",
					"type": "function"
				},
				{
					"inputs": [
						{
							"internalType": "uint256",
							"name": "projectID",
							"type": "uint256"
						}
					],
					"name": "Remaining_Fund",
					"outputs": [
						{
							"internalType": "uint256",
							"name": "fundingGoal",
							"type": "uint256"
						},
						{
							"internalType": "uint256",
							"name": "remainingFund",
							"type": "uint256"
						}
					],
					"stateMutability": "view",
					"type": "function"
				},
				{
					"inputs": [
						{
							"internalType": "uint256",
							"name": "projectID",
							"type": "uint256"
						}
					],
					"name": "Time_Left",
					"outputs": [
						{
							"internalType": "uint256",
							"name": "",
							"type": "uint256"
						}
					],
					"stateMutability": "view",
					"type": "function"
				},
				{
					"inputs": [],
					"name": "TotalProjects",
					"outputs": [
						{
							"internalType": "uint256",
							"name": "",
							"type": "uint256"
						}
					],
					"stateMutability": "view",
					"type": "function"
				},
				{
					"inputs": [
						{
							"internalType": "string",
							"name": "_name",
							"type": "string"
						},
						{
							"internalType": "string",
							"name": "_description",
							"type": "string"
						},
						{
							"internalType": "uint256",
							"name": "_fundingGoal",
							"type": "uint256"
						},
						{
							"internalType": "uint256",
							"name": "_durationSeconds",
							"type": "uint256"
						},
						{
							"internalType": "uint256",
							"name": "_id",
							"type": "uint256"
						}
					],
					"name": "createProject",
					"outputs": [],
					"stateMutability": "nonpayable",
					"type": "function"
				},
				{
					"inputs": [
						{
							"internalType": "uint256",
							"name": "_projectID",
							"type": "uint256"
						}
					],
					"name": "creatorWithdraw",
					"outputs": [],
					"stateMutability": "payable",
					"type": "function"
				},
				{
					"inputs": [
						{
							"internalType": "uint256",
							"name": "_projectID",
							"type": "uint256"
						}
					],
					"name": "fundProject",
					"outputs": [],
					"stateMutability": "payable",
					"type": "function"
				},
				{
					"inputs": [
						{
							"internalType": "uint256",
							"name": "_projectID",
							"type": "uint256"
						},
						{
							"internalType": "uint256",
							"name": "withdrawn_amount",
							"type": "uint256"
						}
					],
					"name": "userEarlyWithdraw",
					"outputs": [],
					"stateMutability": "payable",
					"type": "function"
				},
				{
					"inputs": [
						{
							"internalType": "uint256",
							"name": "_projectID",
							"type": "uint256"
						}
					],
					"name": "userWithdraw",
					"outputs": [],
					"stateMutability": "payable",
					"type": "function"
				}
			],
			"devdoc": {
				"errors": {
					"ReentrancyGuardReentrantCall()": [
						{
							"details": "Unauthorized reentrant call."
						}
					]
				},
				"kind": "dev",
				"methods": {},
				"version": 1
			},
			"evm": {
				"assembly": "    /* \"contracts/CrowdTank.sol\":237:8170  contract CrowdTank is ReentrancyGuard {... */\n  mstore(0x40, 0x80)\n  callvalue\n  dup1\n  iszero\n  tag_1\n  jumpi\n  revert(0x00, 0x00)\ntag_1:\n  pop\n    /* \"@openzeppelin/contracts/utils/ReentrancyGuard.sol\":1857:1858  1 */\n  0x01\n    /* \"@openzeppelin/contracts/utils/ReentrancyGuard.sol\":2061:2068  _status */\n  0x00\n    /* \"@openzeppelin/contracts/utils/ReentrancyGuard.sol\":2061:2082  _status = NOT_ENTERED */\n  dup2\n  swap1\n  sstore\n  pop\n    /* \"contracts/CrowdTank.sol\":237:8170  contract CrowdTank is ReentrancyGuard {... */\n  dataSize(sub_0)\n  dup1\n  dataOffset(sub_0)\n  0x00\n  codecopy\n  0x00\n  return\nstop\n\nsub_0: assembly {\n        /* \"contracts/CrowdTank.sol\":237:8170  contract CrowdTank is ReentrancyGuard {... */\n      mstore(0x40, 0x80)\n      jumpi(tag_1, lt(calldatasize, 0x04))\n      shr(0xe0, calldataload(0x00))\n      dup1\n      0x5d4e5d78\n      gt\n      tag_16\n      jumpi\n      dup1\n      0x71eb89f3\n      gt\n      tag_17\n      jumpi\n      dup1\n      0x71eb89f3\n      eq\n      tag_12\n      jumpi\n      dup1\n      0x9ab761c7\n      eq\n      tag_13\n      jumpi\n      dup1\n      0xcd4ac98c\n      eq\n      tag_14\n      jumpi\n      dup1\n      0xf81bf601\n      eq\n      tag_15\n      jumpi\n      jump(tag_1)\n    tag_17:\n      dup1\n      0x5d4e5d78\n      eq\n      tag_9\n      jumpi\n      dup1\n      0x629b2647\n      eq\n      tag_10\n      jumpi\n      dup1\n      0x6c563abe\n      eq\n      tag_11\n      jumpi\n      jump(tag_1)\n    tag_16:\n      dup1\n      0x370c36b4\n      gt\n      tag_18\n      jumpi\n      dup1\n      0x370c36b4\n      eq\n      tag_5\n      jumpi\n      dup1\n      0x3b9056bf\n      eq\n      tag_6\n      jumpi\n      dup1\n      0x42d844a5\n      eq\n      tag_7\n      jumpi\n      dup1\n      0x54a5bcc5\n      eq\n      tag_8\n      jumpi\n      jump(tag_1)\n    tag_18:\n      dup1\n      0x0dbac135\n      eq\n      tag_2\n      jumpi\n      dup1\n      0x1392ebfe\n      eq\n      tag_3\n      jumpi\n      dup1\n      0x21b2416c\n      eq\n      tag_4\n      jumpi\n    tag_1:\n      revert(0x00, 0x00)\n        /* \"contracts/CrowdTank.sol\":5573:6062  function Remaining_Fund(uint projectID) public view returns(uint fundingGoal , uint remainingFund) {... */\n    tag_2:\n      callvalue\n      dup1\n      iszero\n      tag_19\n      jumpi\n      revert(0x00, 0x00)\n    tag_19:\n      pop\n      tag_20\n      0x04\n      dup1\n      calldatasize\n      sub\n      dup2\n      add\n      swap1\n      tag_21\n      swap2\n      swap1\n      tag_22\n      jump\t// in\n    tag_21:\n      tag_23\n      jump\t// in\n    tag_20:\n      mload(0x40)\n      tag_24\n      swap3\n      swap2\n      swap1\n      tag_25\n      jump\t// in\n    tag_24:\n      mload(0x40)\n      dup1\n      swap2\n      sub\n      swap1\n      return\n        /* \"contracts/CrowdTank.sol\":6428:6836  function Change_FundingGoal( uint _projectID , uint Change_Goal) external {... */\n    tag_3:\n      callvalue\n      dup1\n      iszero\n      tag_26\n      jumpi\n      revert(0x00, 0x00)\n    tag_26:\n      pop\n      tag_27\n      0x04\n      dup1\n      calldatasize\n      sub\n      dup2\n      add\n      swap1\n      tag_28\n      swap2\n      swap1\n      tag_29\n      jump\t// in\n    tag_28:\n      tag_30\n      jump\t// in\n    tag_27:\n      stop\n        /* \"contracts/CrowdTank.sol\":737:778  mapping (uint => project) public Projects */\n    tag_4:\n      callvalue\n      dup1\n      iszero\n      tag_31\n      jumpi\n      revert(0x00, 0x00)\n    tag_31:\n      pop\n      tag_32\n      0x04\n      dup1\n      calldatasize\n      sub\n      dup2\n      add\n      swap1\n      tag_33\n      swap2\n      swap1\n      tag_22\n      jump\t// in\n    tag_33:\n      tag_34\n      jump\t// in\n    tag_32:\n      mload(0x40)\n      tag_35\n      swap8\n      swap7\n      swap6\n      swap5\n      swap4\n      swap3\n      swap2\n      swap1\n      tag_36\n      jump\t// in\n    tag_35:\n      mload(0x40)\n      dup1\n      swap2\n      sub\n      swap1\n      return\n        /* \"contracts/CrowdTank.sol\":5215:5505  function Time_Left(uint projectID) view public returns(uint) {... */\n    tag_5:\n      callvalue\n      dup1\n      iszero\n      tag_37\n      jumpi\n      revert(0x00, 0x00)\n    tag_37:\n      pop\n      tag_38\n      0x04\n      dup1\n      calldatasize\n      sub\n      dup2\n      add\n      swap1\n      tag_39\n      swap2\n      swap1\n      tag_22\n      jump\t// in\n    tag_39:\n      tag_40\n      jump\t// in\n    tag_38:\n      mload(0x40)\n      tag_41\n      swap2\n      swap1\n      tag_42\n      jump\t// in\n    tag_41:\n      mload(0x40)\n      dup1\n      swap2\n      sub\n      swap1\n      return\n        /* \"contracts/CrowdTank.sol\":4025:4492  function userWithdraw(uint _projectID) external payable {... */\n    tag_6:\n      tag_43\n      0x04\n      dup1\n      calldatasize\n      sub\n      dup2\n      add\n      swap1\n      tag_44\n      swap2\n      swap1\n      tag_22\n      jump\t// in\n    tag_44:\n      tag_45\n      jump\t// in\n    tag_43:\n      stop\n        /* \"contracts/CrowdTank.sol\":6884:7151  function Funding_Raised_Percentage( uint _projectID ) public view  returns(uint) {... */\n    tag_7:\n      callvalue\n      dup1\n      iszero\n      tag_46\n      jumpi\n      revert(0x00, 0x00)\n    tag_46:\n      pop\n      tag_47\n      0x04\n      dup1\n      calldatasize\n      sub\n      dup2\n      add\n      swap1\n      tag_48\n      swap2\n      swap1\n      tag_22\n      jump\t// in\n    tag_48:\n      tag_49\n      jump\t// in\n    tag_47:\n      mload(0x40)\n      tag_50\n      swap2\n      swap1\n      tag_42\n      jump\t// in\n    tag_50:\n      mload(0x40)\n      dup1\n      swap2\n      sub\n      swap1\n      return\n        /* \"contracts/CrowdTank.sol\":3879:3985  function Get_Total_Raised_Funding() view public returns(uint) {... */\n    tag_8:\n      callvalue\n      dup1\n      iszero\n      tag_51\n      jumpi\n      revert(0x00, 0x00)\n    tag_51:\n      pop\n      tag_52\n      tag_53\n      jump\t// in\n    tag_52:\n      mload(0x40)\n      tag_54\n      swap2\n      swap1\n      tag_42\n      jump\t// in\n    tag_54:\n      mload(0x40)\n      dup1\n      swap2\n      sub\n      swap1\n      return\n        /* \"contracts/CrowdTank.sol\":837:901  mapping (uint => mapping (address => uint)) public Contributions */\n    tag_9:\n      callvalue\n      dup1\n      iszero\n      tag_55\n      jumpi\n      revert(0x00, 0x00)\n    tag_55:\n      pop\n      tag_56\n      0x04\n      dup1\n      calldatasize\n      sub\n      dup2\n      add\n      swap1\n      tag_57\n      swap2\n      swap1\n      tag_58\n      jump\t// in\n    tag_57:\n      tag_59\n      jump\t// in\n    tag_56:\n      mload(0x40)\n      tag_60\n      swap2\n      swap1\n      tag_42\n      jump\t// in\n    tag_60:\n      mload(0x40)\n      dup1\n      swap2\n      sub\n      swap1\n      return\n        /* \"contracts/CrowdTank.sol\":6108:6381  function Extend_Deadline(uint _projectID , uint _deadline) external {... */\n    tag_10:\n      callvalue\n      dup1\n      iszero\n      tag_61\n      jumpi\n      revert(0x00, 0x00)\n    tag_61:\n      pop\n      tag_62\n      0x04\n      dup1\n      calldatasize\n      sub\n      dup2\n      add\n      swap1\n      tag_63\n      swap2\n      swap1\n      tag_29\n      jump\t// in\n    tag_63:\n      tag_64\n      jump\t// in\n    tag_62:\n      stop\n        /* \"contracts/CrowdTank.sol\":2393:3838  function fundProject(uint _projectID) external payable nonReentrant {... */\n    tag_11:\n      tag_65\n      0x04\n      dup1\n      calldatasize\n      sub\n      dup2\n      add\n      swap1\n      tag_66\n      swap2\n      swap1\n      tag_22\n      jump\t// in\n    tag_66:\n      tag_67\n      jump\t// in\n    tag_65:\n      stop\n        /* \"contracts/CrowdTank.sol\":4544:5145  function creatorWithdraw(uint _projectID) external payable {... */\n    tag_12:\n      tag_68\n      0x04\n      dup1\n      calldatasize\n      sub\n      dup2\n      add\n      swap1\n      tag_69\n      swap2\n      swap1\n      tag_22\n      jump\t// in\n    tag_69:\n      tag_70\n      jump\t// in\n    tag_68:\n      stop\n        /* \"contracts/CrowdTank.sol\":420:445  uint public TotalProjects */\n    tag_13:\n      callvalue\n      dup1\n      iszero\n      tag_71\n      jumpi\n      revert(0x00, 0x00)\n    tag_71:\n      pop\n      tag_72\n      tag_73\n      jump\t// in\n    tag_72:\n      mload(0x40)\n      tag_74\n      swap2\n      swap1\n      tag_42\n      jump\t// in\n    tag_74:\n      mload(0x40)\n      dup1\n      swap2\n      sub\n      swap1\n      return\n        /* \"contracts/CrowdTank.sol\":7200:8167  function userEarlyWithdraw( uint _projectID , uint withdrawn_amount) external payable {... */\n    tag_14:\n      tag_75\n      0x04\n      dup1\n      calldatasize\n      sub\n      dup2\n      add\n      swap1\n      tag_76\n      swap2\n      swap1\n      tag_29\n      jump\t// in\n    tag_76:\n      tag_77\n      jump\t// in\n    tag_75:\n      stop\n        /* \"contracts/CrowdTank.sol\":1636:2332  function createProject(string memory _name , string memory _description , uint _fundingGoal , uint _durationSeconds , uint _id) external {... */\n    tag_15:\n      callvalue\n      dup1\n      iszero\n      tag_78\n      jumpi\n      revert(0x00, 0x00)\n    tag_78:\n      pop\n      tag_79\n      0x04\n      dup1\n      calldatasize\n      sub\n      dup2\n      add\n      swap1\n      tag_80\n      swap2\n      swap1\n      tag_81\n      jump\t// in\n    tag_80:\n      tag_82\n      jump\t// in\n    tag_79:\n      stop\n        /* \"contracts/CrowdTank.sol\":5573:6062  function Remaining_Fund(uint projectID) public view returns(uint fundingGoal , uint remainingFund) {... */\n    tag_23:\n        /* \"contracts/CrowdTank.sol\":5633:5649  uint fundingGoal */\n      0x00\n        /* \"contracts/CrowdTank.sol\":5652:5670  uint remainingFund */\n      0x00\n        /* \"contracts/CrowdTank.sol\":5684:5707  project storage Project */\n      0x00\n        /* \"contracts/CrowdTank.sol\":5710:5718  Projects */\n      0x03\n        /* \"contracts/CrowdTank.sol\":5710:5729  Projects[projectID] */\n      0x00\n        /* \"contracts/CrowdTank.sol\":5719:5728  projectID */\n      dup6\n        /* \"contracts/CrowdTank.sol\":5710:5729  Projects[projectID] */\n      dup2\n      mstore\n      0x20\n      add\n      swap1\n      dup2\n      mstore\n      0x20\n      add\n      0x00\n      keccak256\n        /* \"contracts/CrowdTank.sol\":5684:5729  project storage Project = Projects[projectID] */\n      swap1\n      pop\n        /* \"contracts/CrowdTank.sol\":5754:5761  Project */\n      dup1\n        /* \"contracts/CrowdTank.sol\":5754:5773  Project.fundingGoal */\n      0x03\n      add\n      sload\n        /* \"contracts/CrowdTank.sol\":5740:5773  fundingGoal = Project.fundingGoal */\n      swap3\n      pop\n        /* \"contracts/CrowdTank.sol\":5819:5820  0 */\n      0x00\n        /* \"contracts/CrowdTank.sol\":5792:5821  Project.creator != address(0) */\n      0xffffffffffffffffffffffffffffffffffffffff\n      and\n        /* \"contracts/CrowdTank.sol\":5792:5799  Project */\n      dup2\n        /* \"contracts/CrowdTank.sol\":5792:5807  Project.creator */\n      0x00\n      add\n      0x00\n      swap1\n      sload\n      swap1\n      0x0100\n      exp\n      swap1\n      div\n      0xffffffffffffffffffffffffffffffffffffffff\n      and\n        /* \"contracts/CrowdTank.sol\":5792:5821  Project.creator != address(0) */\n      0xffffffffffffffffffffffffffffffffffffffff\n      and\n      sub\n        /* \"contracts/CrowdTank.sol\":5784:5859  require(Project.creator != address(0), \"project has not been created yet!\") */\n      tag_84\n      jumpi\n      mload(0x40)\n      0x08c379a000000000000000000000000000000000000000000000000000000000\n      dup2\n      mstore\n      0x04\n      add\n      tag_85\n      swap1\n      tag_86\n      jump\t// in\n    tag_85:\n      mload(0x40)\n      dup1\n      swap2\n      sub\n      swap1\n      revert\n    tag_84:\n        /* \"contracts/CrowdTank.sol\":5898:5905  Project */\n      dup1\n        /* \"contracts/CrowdTank.sol\":5898:5917  Project.fundingGoal */\n      0x03\n      add\n      sload\n        /* \"contracts/CrowdTank.sol\":5874:5881  Project */\n      dup2\n        /* \"contracts/CrowdTank.sol\":5874:5894  Project.amountRaised */\n      0x05\n      add\n      sload\n        /* \"contracts/CrowdTank.sol\":5874:5917  Project.amountRaised >= Project.fundingGoal */\n      lt\n        /* \"contracts/CrowdTank.sol\":5870:6055  if (Project.amountRaised >= Project.fundingGoal) {... */\n      tag_87\n      jumpi\n        /* \"contracts/CrowdTank.sol\":5951:5952  0 */\n      0x00\n        /* \"contracts/CrowdTank.sol\":5935:5952  remainingFund = 0 */\n      swap2\n      pop\n        /* \"contracts/CrowdTank.sol\":5870:6055  if (Project.amountRaised >= Project.fundingGoal) {... */\n      jump(tag_88)\n    tag_87:\n        /* \"contracts/CrowdTank.sol\":6023:6030  Project */\n      dup1\n        /* \"contracts/CrowdTank.sol\":6023:6043  Project.amountRaised */\n      0x05\n      add\n      sload\n        /* \"contracts/CrowdTank.sol\":6001:6008  Project */\n      dup2\n        /* \"contracts/CrowdTank.sol\":6001:6020  Project.fundingGoal */\n      0x03\n      add\n      sload\n        /* \"contracts/CrowdTank.sol\":6001:6043  Project.fundingGoal - Project.amountRaised */\n      tag_89\n      swap2\n      swap1\n      tag_90\n      jump\t// in\n    tag_89:\n        /* \"contracts/CrowdTank.sol\":5985:6043  remainingFund = Project.fundingGoal - Project.amountRaised */\n      swap2\n      pop\n        /* \"contracts/CrowdTank.sol\":5870:6055  if (Project.amountRaised >= Project.fundingGoal) {... */\n    tag_88:\n        /* \"contracts/CrowdTank.sol\":5672:6062  {... */\n      pop\n        /* \"contracts/CrowdTank.sol\":5573:6062  function Remaining_Fund(uint projectID) public view returns(uint fundingGoal , uint remainingFund) {... */\n      swap2\n      pop\n      swap2\n      jump\t// out\n        /* \"contracts/CrowdTank.sol\":6428:6836  function Change_FundingGoal( uint _projectID , uint Change_Goal) external {... */\n    tag_30:\n        /* \"contracts/CrowdTank.sol\":6514:6537  project storage Project */\n      0x00\n        /* \"contracts/CrowdTank.sol\":6540:6548  Projects */\n      0x03\n        /* \"contracts/CrowdTank.sol\":6540:6560  Projects[_projectID] */\n      0x00\n        /* \"contracts/CrowdTank.sol\":6549:6559  _projectID */\n      dup5\n        /* \"contracts/CrowdTank.sol\":6540:6560  Projects[_projectID] */\n      dup2\n      mstore\n      0x20\n      add\n      swap1\n      dup2\n      mstore\n      0x20\n      add\n      0x00\n      keccak256\n        /* \"contracts/CrowdTank.sol\":6514:6560  project storage Project = Projects[_projectID] */\n      swap1\n      pop\n        /* \"contracts/CrowdTank.sol\":6598:6599  0 */\n      0x00\n        /* \"contracts/CrowdTank.sol\":6579:6586  Project */\n      dup2\n        /* \"contracts/CrowdTank.sol\":6579:6595  Project.deadline */\n      0x04\n      add\n      sload\n        /* \"contracts/CrowdTank.sol\":6579:6599  Project.deadline > 0 */\n      gt\n        /* \"contracts/CrowdTank.sol\":6571:6660  require(Project.deadline > 0 , \"Deadline is over , you Can't change the funding goal !!\") */\n      tag_92\n      jumpi\n      mload(0x40)\n      0x08c379a000000000000000000000000000000000000000000000000000000000\n      dup2\n      mstore\n      0x04\n      add\n      tag_93\n      swap1\n      tag_94\n      jump\t// in\n    tag_93:\n      mload(0x40)\n      dup1\n      swap2\n      sub\n      swap1\n      revert\n    tag_92:\n        /* \"contracts/CrowdTank.sol\":6698:6708  msg.sender */\n      caller\n        /* \"contracts/CrowdTank.sol\":6679:6708  Project.creator == msg.sender */\n      0xffffffffffffffffffffffffffffffffffffffff\n      and\n        /* \"contracts/CrowdTank.sol\":6679:6686  Project */\n      dup2\n        /* \"contracts/CrowdTank.sol\":6679:6694  Project.creator */\n      0x00\n      add\n      0x00\n      swap1\n      sload\n      swap1\n      0x0100\n      exp\n      swap1\n      div\n      0xffffffffffffffffffffffffffffffffffffffff\n      and\n        /* \"contracts/CrowdTank.sol\":6679:6708  Project.creator == msg.sender */\n      0xffffffffffffffffffffffffffffffffffffffff\n      and\n      eq\n        /* \"contracts/CrowdTank.sol\":6671:6782  require(Project.creator == msg.sender , \"You are not the project creator , Only Porject creator can Change !!\") */\n      tag_95\n      jumpi\n      mload(0x40)\n      0x08c379a000000000000000000000000000000000000000000000000000000000\n      dup2\n      mstore\n      0x04\n      add\n      tag_96\n      swap1\n      tag_97\n      jump\t// in\n    tag_96:\n      mload(0x40)\n      dup1\n      swap2\n      sub\n      swap1\n      revert\n    tag_95:\n        /* \"contracts/CrowdTank.sol\":6817:6828  Change_Goal */\n      dup2\n        /* \"contracts/CrowdTank.sol\":6795:6802  Project */\n      dup2\n        /* \"contracts/CrowdTank.sol\":6795:6814  Project.fundingGoal */\n      0x03\n      add\n        /* \"contracts/CrowdTank.sol\":6795:6828  Project.fundingGoal = Change_Goal */\n      dup2\n      swap1\n      sstore\n      pop\n        /* \"contracts/CrowdTank.sol\":6502:6836  {... */\n      pop\n        /* \"contracts/CrowdTank.sol\":6428:6836  function Change_FundingGoal( uint _projectID , uint Change_Goal) external {... */\n      pop\n      pop\n      jump\t// out\n        /* \"contracts/CrowdTank.sol\":737:778  mapping (uint => project) public Projects */\n    tag_34:\n      mstore(0x20, 0x03)\n      dup1\n      0x00\n      mstore\n      keccak256(0x00, 0x40)\n      0x00\n      swap2\n      pop\n      swap1\n      pop\n      dup1\n      0x00\n      add\n      0x00\n      swap1\n      sload\n      swap1\n      0x0100\n      exp\n      swap1\n      div\n      0xffffffffffffffffffffffffffffffffffffffff\n      and\n      swap1\n      dup1\n      0x01\n      add\n      dup1\n      sload\n      tag_98\n      swap1\n      tag_99\n      jump\t// in\n    tag_98:\n      dup1\n      0x1f\n      add\n      0x20\n      dup1\n      swap2\n      div\n      mul\n      0x20\n      add\n      mload(0x40)\n      swap1\n      dup2\n      add\n      0x40\n      mstore\n      dup1\n      swap3\n      swap2\n      swap1\n      dup2\n      dup2\n      mstore\n      0x20\n      add\n      dup3\n      dup1\n      sload\n      tag_100\n      swap1\n      tag_99\n      jump\t// in\n    tag_100:\n      dup1\n      iszero\n      tag_101\n      jumpi\n      dup1\n      0x1f\n      lt\n      tag_102\n      jumpi\n      0x0100\n      dup1\n      dup4\n      sload\n      div\n      mul\n      dup4\n      mstore\n      swap2\n      0x20\n      add\n      swap2\n      jump(tag_101)\n    tag_102:\n      dup3\n      add\n      swap2\n      swap1\n      0x00\n      mstore\n      keccak256(0x00, 0x20)\n      swap1\n    tag_103:\n      dup2\n      sload\n      dup2\n      mstore\n      swap1\n      0x01\n      add\n      swap1\n      0x20\n      add\n      dup1\n      dup4\n      gt\n      tag_103\n      jumpi\n      dup3\n      swap1\n      sub\n      0x1f\n      and\n      dup3\n      add\n      swap2\n    tag_101:\n      pop\n      pop\n      pop\n      pop\n      pop\n      swap1\n      dup1\n      0x02\n      add\n      dup1\n      sload\n      tag_104\n      swap1\n      tag_99\n      jump\t// in\n    tag_104:\n      dup1\n      0x1f\n      add\n      0x20\n      dup1\n      swap2\n      div\n      mul\n      0x20\n      add\n      mload(0x40)\n      swap1\n      dup2\n      add\n      0x40\n      mstore\n      dup1\n      swap3\n      swap2\n      swap1\n      dup2\n      dup2\n      mstore\n      0x20\n      add\n      dup3\n      dup1\n      sload\n      tag_105\n      swap1\n      tag_99\n      jump\t// in\n    tag_105:\n      dup1\n      iszero\n      tag_106\n      jumpi\n      dup1\n      0x1f\n      lt\n      tag_107\n      jumpi\n      0x0100\n      dup1\n      dup4\n      sload\n      div\n      mul\n      dup4\n      mstore\n      swap2\n      0x20\n      add\n      swap2\n      jump(tag_106)\n    tag_107:\n      dup3\n      add\n      swap2\n      swap1\n      0x00\n      mstore\n      keccak256(0x00, 0x20)\n      swap1\n    tag_108:\n      dup2\n      sload\n      dup2\n      mstore\n      swap1\n      0x01\n      add\n      swap1\n      0x20\n      add\n      dup1\n      dup4\n      gt\n      tag_108\n      jumpi\n      dup3\n      swap1\n      sub\n      0x1f\n      and\n      dup3\n      add\n      swap2\n    tag_106:\n      pop\n      pop\n      pop\n      pop\n      pop\n      swap1\n      dup1\n      0x03\n      add\n      sload\n      swap1\n      dup1\n      0x04\n      add\n      sload\n      swap1\n      dup1\n      0x05\n      add\n      sload\n      swap1\n      dup1\n      0x06\n      add\n      0x00\n      swap1\n      sload\n      swap1\n      0x0100\n      exp\n      swap1\n      div\n      0xff\n      and\n      swap1\n      pop\n      dup8\n      jump\t// out\n        /* \"contracts/CrowdTank.sol\":5215:5505  function Time_Left(uint projectID) view public returns(uint) {... */\n    tag_40:\n        /* \"contracts/CrowdTank.sol\":5270:5274  uint */\n      0x00\n        /* \"contracts/CrowdTank.sol\":5287:5310  project storage Project */\n      0x00\n        /* \"contracts/CrowdTank.sol\":5313:5321  Projects */\n      0x03\n        /* \"contracts/CrowdTank.sol\":5313:5332  Projects[projectID] */\n      0x00\n        /* \"contracts/CrowdTank.sol\":5322:5331  projectID */\n      dup5\n        /* \"contracts/CrowdTank.sol\":5313:5332  Projects[projectID] */\n      dup2\n      mstore\n      0x20\n      add\n      swap1\n      dup2\n      mstore\n      0x20\n      add\n      0x00\n      keccak256\n        /* \"contracts/CrowdTank.sol\":5287:5332  project storage Project = Projects[projectID] */\n      swap1\n      pop\n        /* \"contracts/CrowdTank.sol\":5366:5373  Project */\n      dup1\n        /* \"contracts/CrowdTank.sol\":5366:5382  Project.deadline */\n      0x04\n      add\n      sload\n        /* \"contracts/CrowdTank.sol\":5347:5362  block.timestamp */\n      timestamp\n        /* \"contracts/CrowdTank.sol\":5347:5382  block.timestamp >= Project.deadline */\n      lt\n        /* \"contracts/CrowdTank.sol\":5343:5494  if (block.timestamp >= Project.deadline) {... */\n      tag_110\n      jumpi\n        /* \"contracts/CrowdTank.sol\":5406:5407  0 */\n      0x00\n        /* \"contracts/CrowdTank.sol\":5399:5407  return 0 */\n      swap2\n      pop\n      pop\n      jump(tag_109)\n        /* \"contracts/CrowdTank.sol\":5343:5494  if (block.timestamp >= Project.deadline) {... */\n    tag_110:\n        /* \"contracts/CrowdTank.sol\":5466:5481  block.timestamp */\n      timestamp\n        /* \"contracts/CrowdTank.sol\":5447:5454  Project */\n      dup2\n        /* \"contracts/CrowdTank.sol\":5447:5463  Project.deadline */\n      0x04\n      add\n      sload\n        /* \"contracts/CrowdTank.sol\":5447:5481  Project.deadline - block.timestamp */\n      tag_112\n      swap2\n      swap1\n      tag_90\n      jump\t// in\n    tag_112:\n        /* \"contracts/CrowdTank.sol\":5440:5482  return(Project.deadline - block.timestamp) */\n      swap2\n      pop\n      pop\n        /* \"contracts/CrowdTank.sol\":5215:5505  function Time_Left(uint projectID) view public returns(uint) {... */\n    tag_109:\n      swap2\n      swap1\n      pop\n      jump\t// out\n        /* \"contracts/CrowdTank.sol\":4025:4492  function userWithdraw(uint _projectID) external payable {... */\n    tag_45:\n        /* \"contracts/CrowdTank.sol\":4092:4115  project storage Project */\n      0x00\n        /* \"contracts/CrowdTank.sol\":4118:4126  Projects */\n      0x03\n        /* \"contracts/CrowdTank.sol\":4118:4138  Projects[_projectID] */\n      0x00\n        /* \"contracts/CrowdTank.sol\":4127:4137  _projectID */\n      dup4\n        /* \"contracts/CrowdTank.sol\":4118:4138  Projects[_projectID] */\n      dup2\n      mstore\n      0x20\n      add\n      swap1\n      dup2\n      mstore\n      0x20\n      add\n      0x00\n      keccak256\n        /* \"contracts/CrowdTank.sol\":4092:4138  project storage Project = Projects[_projectID] */\n      swap1\n      pop\n        /* \"contracts/CrowdTank.sol\":4178:4185  Project */\n      dup1\n        /* \"contracts/CrowdTank.sol\":4178:4197  Project.fundingGoal */\n      0x03\n      add\n      sload\n        /* \"contracts/CrowdTank.sol\":4157:4164  Project */\n      dup2\n        /* \"contracts/CrowdTank.sol\":4157:4177  Project.amountRaised */\n      0x05\n      add\n      sload\n        /* \"contracts/CrowdTank.sol\":4157:4197  Project.amountRaised<Project.fundingGoal */\n      lt\n        /* \"contracts/CrowdTank.sol\":4149:4249  require(Project.amountRaised<Project.fundingGoal , \"Funding goal has reached , user can't withdraw\") */\n      tag_114\n      jumpi\n      mload(0x40)\n      0x08c379a000000000000000000000000000000000000000000000000000000000\n      dup2\n      mstore\n      0x04\n      add\n      tag_115\n      swap1\n      tag_116\n      jump\t// in\n    tag_115:\n      mload(0x40)\n      dup1\n      swap2\n      sub\n      swap1\n      revert\n    tag_114:\n        /* \"contracts/CrowdTank.sol\":4260:4281  uint fundsContributed */\n      0x00\n        /* \"contracts/CrowdTank.sol\":4284:4297  Contributions */\n      0x04\n        /* \"contracts/CrowdTank.sol\":4284:4309  Contributions[_projectID] */\n      0x00\n        /* \"contracts/CrowdTank.sol\":4298:4308  _projectID */\n      dup5\n        /* \"contracts/CrowdTank.sol\":4284:4309  Contributions[_projectID] */\n      dup2\n      mstore\n      0x20\n      add\n      swap1\n      dup2\n      mstore\n      0x20\n      add\n      0x00\n      keccak256\n        /* \"contracts/CrowdTank.sol\":4284:4321  Contributions[_projectID][msg.sender] */\n      0x00\n        /* \"contracts/CrowdTank.sol\":4310:4320  msg.sender */\n      caller\n        /* \"contracts/CrowdTank.sol\":4284:4321  Contributions[_projectID][msg.sender] */\n      0xffffffffffffffffffffffffffffffffffffffff\n      and\n      0xffffffffffffffffffffffffffffffffffffffff\n      and\n      dup2\n      mstore\n      0x20\n      add\n      swap1\n      dup2\n      mstore\n      0x20\n      add\n      0x00\n      keccak256\n      sload\n        /* \"contracts/CrowdTank.sol\":4260:4321  uint fundsContributed = Contributions[_projectID][msg.sender] */\n      swap1\n      pop\n        /* \"contracts/CrowdTank.sol\":4340:4350  msg.sender */\n      caller\n        /* \"contracts/CrowdTank.sol\":4332:4360  payable(msg.sender).transfer */\n      0xffffffffffffffffffffffffffffffffffffffff\n      and\n        /* \"contracts/CrowdTank.sol\":4332:4378  payable(msg.sender).transfer(fundsContributed) */\n      0x08fc\n        /* \"contracts/CrowdTank.sol\":4361:4377  fundsContributed */\n      dup3\n        /* \"contracts/CrowdTank.sol\":4332:4378  payable(msg.sender).transfer(fundsContributed) */\n      swap1\n      dup2\n      iszero\n      mul\n      swap1\n      mload(0x40)\n      0x00\n      mload(0x40)\n      dup1\n      dup4\n      sub\n      dup2\n      dup6\n      dup9\n      dup9\n      call\n      swap4\n      pop\n      pop\n      pop\n      pop\n      iszero\n      dup1\n      iszero\n      tag_118\n      jumpi\n      returndatacopy(0x00, 0x00, returndatasize)\n      revert(0x00, returndatasize)\n    tag_118:\n      pop\n        /* \"contracts/CrowdTank.sol\":4440:4450  _projectID */\n      dup3\n        /* \"contracts/CrowdTank.sol\":4426:4474  userWithdrawn(_projectID, msg.sender, msg.value) */\n      0xb6e4e293b6c7c5cf68fbb52edfaca6173710fcccbcecac03c32e62327fc000c6\n        /* \"contracts/CrowdTank.sol\":4452:4462  msg.sender */\n      caller\n        /* \"contracts/CrowdTank.sol\":4464:4473  msg.value */\n      callvalue\n        /* \"contracts/CrowdTank.sol\":4426:4474  userWithdrawn(_projectID, msg.sender, msg.value) */\n      mload(0x40)\n      tag_119\n      swap3\n      swap2\n      swap1\n      tag_120\n      jump\t// in\n    tag_119:\n      mload(0x40)\n      dup1\n      swap2\n      sub\n      swap1\n      log2\n        /* \"contracts/CrowdTank.sol\":4081:4492  {... */\n      pop\n      pop\n        /* \"contracts/CrowdTank.sol\":4025:4492  function userWithdraw(uint _projectID) external payable {... */\n      pop\n      jump\t// out\n        /* \"contracts/CrowdTank.sol\":6884:7151  function Funding_Raised_Percentage( uint _projectID ) public view  returns(uint) {... */\n    tag_49:\n        /* \"contracts/CrowdTank.sol\":6959:6963  uint */\n      0x00\n        /* \"contracts/CrowdTank.sol\":6976:6999  project storage Project */\n      0x00\n        /* \"contracts/CrowdTank.sol\":7002:7010  Projects */\n      0x03\n        /* \"contracts/CrowdTank.sol\":7002:7022  Projects[_projectID] */\n      0x00\n        /* \"contracts/CrowdTank.sol\":7011:7021  _projectID */\n      dup5\n        /* \"contracts/CrowdTank.sol\":7002:7022  Projects[_projectID] */\n      dup2\n      mstore\n      0x20\n      add\n      swap1\n      dup2\n      mstore\n      0x20\n      add\n      0x00\n      keccak256\n        /* \"contracts/CrowdTank.sol\":6976:7022  project storage Project = Projects[_projectID] */\n      swap1\n      pop\n        /* \"contracts/CrowdTank.sol\":7033:7055  uint Raised_Percentage */\n      0x00\n        /* \"contracts/CrowdTank.sol\":7089:7096  Project */\n      dup2\n        /* \"contracts/CrowdTank.sol\":7089:7108  Project.fundingGoal */\n      0x03\n      add\n      sload\n        /* \"contracts/CrowdTank.sol\":7081:7084  100 */\n      0x64\n        /* \"contracts/CrowdTank.sol\":7060:7067  Project */\n      dup4\n        /* \"contracts/CrowdTank.sol\":7060:7080  Project.amountRaised */\n      0x05\n      add\n      sload\n        /* \"contracts/CrowdTank.sol\":7060:7084  Project.amountRaised*100 */\n      tag_122\n      swap2\n      swap1\n      tag_123\n      jump\t// in\n    tag_122:\n        /* \"contracts/CrowdTank.sol\":7058:7108  ( Project.amountRaised*100 ) / Project.fundingGoal */\n      tag_124\n      swap2\n      swap1\n      tag_125\n      jump\t// in\n    tag_124:\n        /* \"contracts/CrowdTank.sol\":7033:7108  uint Raised_Percentage = ( Project.amountRaised*100 ) / Project.fundingGoal */\n      swap1\n      pop\n        /* \"contracts/CrowdTank.sol\":7126:7143  Raised_Percentage */\n      dup1\n        /* \"contracts/CrowdTank.sol\":7119:7143  return Raised_Percentage */\n      swap3\n      pop\n      pop\n      pop\n        /* \"contracts/CrowdTank.sol\":6884:7151  function Funding_Raised_Percentage( uint _projectID ) public view  returns(uint) {... */\n      swap2\n      swap1\n      pop\n      jump\t// out\n        /* \"contracts/CrowdTank.sol\":3879:3985  function Get_Total_Raised_Funding() view public returns(uint) {... */\n    tag_53:\n        /* \"contracts/CrowdTank.sol\":3935:3939  uint */\n      0x00\n        /* \"contracts/CrowdTank.sol\":3959:3977  TotalRaisedFunding */\n      sload(0x01)\n        /* \"contracts/CrowdTank.sol\":3952:3977  return TotalRaisedFunding */\n      swap1\n      pop\n        /* \"contracts/CrowdTank.sol\":3879:3985  function Get_Total_Raised_Funding() view public returns(uint) {... */\n      swap1\n      jump\t// out\n        /* \"contracts/CrowdTank.sol\":837:901  mapping (uint => mapping (address => uint)) public Contributions */\n    tag_59:\n      mstore(0x20, 0x04)\n      dup2\n      0x00\n      mstore\n      mstore(0x20, keccak256(0x00, 0x40))\n      dup1\n      0x00\n      mstore\n      keccak256(0x00, 0x40)\n      0x00\n      swap2\n      pop\n      swap2\n      pop\n      pop\n      sload\n      dup2\n      jump\t// out\n        /* \"contracts/CrowdTank.sol\":6108:6381  function Extend_Deadline(uint _projectID , uint _deadline) external {... */\n    tag_64:\n        /* \"contracts/CrowdTank.sol\":6187:6210  project storage Project */\n      0x00\n        /* \"contracts/CrowdTank.sol\":6213:6221  Projects */\n      0x03\n        /* \"contracts/CrowdTank.sol\":6213:6233  Projects[_projectID] */\n      0x00\n        /* \"contracts/CrowdTank.sol\":6222:6232  _projectID */\n      dup5\n        /* \"contracts/CrowdTank.sol\":6213:6233  Projects[_projectID] */\n      dup2\n      mstore\n      0x20\n      add\n      swap1\n      dup2\n      mstore\n      0x20\n      add\n      0x00\n      keccak256\n        /* \"contracts/CrowdTank.sol\":6187:6233  project storage Project = Projects[_projectID] */\n      swap1\n      pop\n        /* \"contracts/CrowdTank.sol\":6271:6281  msg.sender */\n      caller\n        /* \"contracts/CrowdTank.sol\":6252:6281  Project.creator == msg.sender */\n      0xffffffffffffffffffffffffffffffffffffffff\n      and\n        /* \"contracts/CrowdTank.sol\":6252:6259  Project */\n      dup2\n        /* \"contracts/CrowdTank.sol\":6252:6267  Project.creator */\n      0x00\n      add\n      0x00\n      swap1\n      sload\n      swap1\n      0x0100\n      exp\n      swap1\n      div\n      0xffffffffffffffffffffffffffffffffffffffff\n      and\n        /* \"contracts/CrowdTank.sol\":6252:6281  Project.creator == msg.sender */\n      0xffffffffffffffffffffffffffffffffffffffff\n      and\n      eq\n        /* \"contracts/CrowdTank.sol\":6244:6333  require(Project.creator == msg.sender , \"Only Project creator can extend the deadline!!\") */\n      tag_128\n      jumpi\n      mload(0x40)\n      0x08c379a000000000000000000000000000000000000000000000000000000000\n      dup2\n      mstore\n      0x04\n      add\n      tag_129\n      swap1\n      tag_130\n      jump\t// in\n    tag_129:\n      mload(0x40)\n      dup1\n      swap2\n      sub\n      swap1\n      revert\n    tag_128:\n        /* \"contracts/CrowdTank.sol\":6364:6373  _deadline */\n      dup2\n        /* \"contracts/CrowdTank.sol\":6344:6351  Project */\n      dup2\n        /* \"contracts/CrowdTank.sol\":6344:6360  Project.deadline */\n      0x04\n      add\n      0x00\n        /* \"contracts/CrowdTank.sol\":6344:6373  Project.deadline += _deadline */\n      dup3\n      dup3\n      sload\n      tag_131\n      swap2\n      swap1\n      tag_132\n      jump\t// in\n    tag_131:\n      swap3\n      pop\n      pop\n      dup2\n      swap1\n      sstore\n      pop\n        /* \"contracts/CrowdTank.sol\":6176:6381  {... */\n      pop\n        /* \"contracts/CrowdTank.sol\":6108:6381  function Extend_Deadline(uint _projectID , uint _deadline) external {... */\n      pop\n      pop\n      jump\t// out\n        /* \"contracts/CrowdTank.sol\":2393:3838  function fundProject(uint _projectID) external payable nonReentrant {... */\n    tag_67:\n        /* \"@openzeppelin/contracts/utils/ReentrancyGuard.sol\":2500:2521  _nonReentrantBefore() */\n      tag_134\n        /* \"@openzeppelin/contracts/utils/ReentrancyGuard.sol\":2500:2519  _nonReentrantBefore */\n      tag_135\n        /* \"@openzeppelin/contracts/utils/ReentrancyGuard.sol\":2500:2521  _nonReentrantBefore() */\n      jump\t// in\n    tag_134:\n        /* \"contracts/CrowdTank.sol\":2476:2499  project storage Project */\n      0x00\n        /* \"contracts/CrowdTank.sol\":2502:2510  Projects */\n      0x03\n        /* \"contracts/CrowdTank.sol\":2502:2522  Projects[_projectID] */\n      0x00\n        /* \"contracts/CrowdTank.sol\":2511:2521  _projectID */\n      dup4\n        /* \"contracts/CrowdTank.sol\":2502:2522  Projects[_projectID] */\n      dup2\n      mstore\n      0x20\n      add\n      swap1\n      dup2\n      mstore\n      0x20\n      add\n      0x00\n      keccak256\n        /* \"contracts/CrowdTank.sol\":2476:2522  project storage Project = Projects[_projectID] */\n      swap1\n      pop\n        /* \"contracts/CrowdTank.sol\":2562:2569  Project */\n      dup1\n        /* \"contracts/CrowdTank.sol\":2562:2578  Project.deadline */\n      0x04\n      add\n      sload\n        /* \"contracts/CrowdTank.sol\":2545:2560  block.timestamp */\n      timestamp\n        /* \"contracts/CrowdTank.sol\":2545:2578  block.timestamp<=Project.deadline */\n      gt\n      iszero\n        /* \"contracts/CrowdTank.sol\":2537:2609  require(block.timestamp<=Project.deadline , \"Project deadline is over!\") */\n      tag_137\n      jumpi\n      mload(0x40)\n      0x08c379a000000000000000000000000000000000000000000000000000000000\n      dup2\n      mstore\n      0x04\n      add\n      tag_138\n      swap1\n      tag_139\n      jump\t// in\n    tag_138:\n      mload(0x40)\n      dup1\n      swap2\n      sub\n      swap1\n      revert\n    tag_137:\n        /* \"contracts/CrowdTank.sol\":2633:2640  Project */\n      dup1\n        /* \"contracts/CrowdTank.sol\":2633:2647  Project.funded */\n      0x06\n      add\n      0x00\n      swap1\n      sload\n      swap1\n      0x0100\n      exp\n      swap1\n      div\n      0xff\n      and\n        /* \"contracts/CrowdTank.sol\":2632:2647  !Project.funded */\n      iszero\n        /* \"contracts/CrowdTank.sol\":2624:2692  require(!Project.funded , \"Project Reached its Funding requirement\") */\n      tag_140\n      jumpi\n      mload(0x40)\n      0x08c379a000000000000000000000000000000000000000000000000000000000\n      dup2\n      mstore\n      0x04\n      add\n      tag_141\n      swap1\n      tag_142\n      jump\t// in\n    tag_141:\n      mload(0x40)\n      dup1\n      swap2\n      sub\n      swap1\n      revert\n    tag_140:\n        /* \"contracts/CrowdTank.sol\":2725:2726  0 */\n      0x00\n        /* \"contracts/CrowdTank.sol\":2715:2724  msg.value */\n      callvalue\n        /* \"contracts/CrowdTank.sol\":2715:2726  msg.value>0 */\n      gt\n        /* \"contracts/CrowdTank.sol\":2707:2776  require(msg.value>0 , \"send some ether to contribute in the project\") */\n      tag_143\n      jumpi\n      mload(0x40)\n      0x08c379a000000000000000000000000000000000000000000000000000000000\n      dup2\n      mstore\n      0x04\n      add\n      tag_144\n      swap1\n      tag_145\n      jump\t// in\n    tag_144:\n      mload(0x40)\n      dup1\n      swap2\n      sub\n      swap1\n      revert\n    tag_143:\n        /* \"contracts/CrowdTank.sol\":2812:2819  Project */\n      dup1\n        /* \"contracts/CrowdTank.sol\":2812:2831  Project.fundingGoal */\n      0x03\n      add\n      sload\n        /* \"contracts/CrowdTank.sol\":2799:2808  msg.value */\n      callvalue\n        /* \"contracts/CrowdTank.sol\":2799:2831  msg.value <= Project.fundingGoal */\n      gt\n      iszero\n        /* \"contracts/CrowdTank.sol\":2791:2872  require(msg.value <= Project.fundingGoal, \"Amount Contributed is more than Goal\") */\n      tag_146\n      jumpi\n      mload(0x40)\n      0x08c379a000000000000000000000000000000000000000000000000000000000\n      dup2\n      mstore\n      0x04\n      add\n      tag_147\n      swap1\n      tag_148\n      jump\t// in\n    tag_147:\n      mload(0x40)\n      dup1\n      swap2\n      sub\n      swap1\n      revert\n    tag_146:\n        /* \"contracts/CrowdTank.sol\":2887:2901  uint remaining */\n      0x00\n        /* \"contracts/CrowdTank.sol\":2926:2933  Project */\n      dup2\n        /* \"contracts/CrowdTank.sol\":2926:2946  Project.amountRaised */\n      0x05\n      add\n      sload\n        /* \"contracts/CrowdTank.sol\":2904:2911  Project */\n      dup3\n        /* \"contracts/CrowdTank.sol\":2904:2923  Project.fundingGoal */\n      0x03\n      add\n      sload\n        /* \"contracts/CrowdTank.sol\":2904:2946  Project.fundingGoal - Project.amountRaised */\n      tag_149\n      swap2\n      swap1\n      tag_90\n      jump\t// in\n    tag_149:\n        /* \"contracts/CrowdTank.sol\":2887:2946  uint remaining = Project.fundingGoal - Project.amountRaised */\n      swap1\n      pop\n        /* \"contracts/CrowdTank.sol\":2961:2980  uint amountToAccept */\n      0x00\n        /* \"contracts/CrowdTank.sol\":2995:3006  uint refund */\n      0x00\n        /* \"contracts/CrowdTank.sol\":3036:3045  remaining */\n      dup3\n        /* \"contracts/CrowdTank.sol\":3024:3033  msg.value */\n      callvalue\n        /* \"contracts/CrowdTank.sol\":3024:3045  msg.value > remaining */\n      gt\n        /* \"contracts/CrowdTank.sol\":3021:3253  if(msg.value > remaining) {... */\n      iszero\n      tag_150\n      jumpi\n        /* \"contracts/CrowdTank.sol\":3083:3092  remaining */\n      dup3\n        /* \"contracts/CrowdTank.sol\":3066:3092  amountToAccept = remaining */\n      swap2\n      pop\n        /* \"contracts/CrowdTank.sol\":3132:3141  remaining */\n      dup3\n        /* \"contracts/CrowdTank.sol\":3120:3129  msg.value */\n      callvalue\n        /* \"contracts/CrowdTank.sol\":3120:3141  msg.value - remaining */\n      tag_151\n      swap2\n      swap1\n      tag_90\n      jump\t// in\n    tag_151:\n        /* \"contracts/CrowdTank.sol\":3111:3141  refund = msg.value - remaining */\n      swap1\n      pop\n        /* \"contracts/CrowdTank.sol\":3021:3253  if(msg.value > remaining) {... */\n      jump(tag_152)\n    tag_150:\n        /* \"contracts/CrowdTank.sol\":3199:3208  msg.value */\n      callvalue\n        /* \"contracts/CrowdTank.sol\":3182:3208  amountToAccept = msg.value */\n      swap2\n      pop\n        /* \"contracts/CrowdTank.sol\":3236:3237  0 */\n      0x00\n        /* \"contracts/CrowdTank.sol\":3227:3237  refund = 0 */\n      swap1\n      pop\n        /* \"contracts/CrowdTank.sol\":3021:3253  if(msg.value > remaining) {... */\n    tag_152:\n        /* \"contracts/CrowdTank.sol\":3291:3305  amountToAccept */\n      dup2\n        /* \"contracts/CrowdTank.sol\":3267:3274  Project */\n      dup5\n        /* \"contracts/CrowdTank.sol\":3267:3287  Project.amountRaised */\n      0x05\n      add\n      0x00\n        /* \"contracts/CrowdTank.sol\":3267:3305  Project.amountRaised += amountToAccept */\n      dup3\n      dup3\n      sload\n      tag_153\n      swap2\n      swap1\n      tag_132\n      jump\t// in\n    tag_153:\n      swap3\n      pop\n      pop\n      dup2\n      swap1\n      sstore\n      pop\n        /* \"contracts/CrowdTank.sol\":3360:3374  amountToAccept */\n      dup2\n        /* \"contracts/CrowdTank.sol\":3320:3333  Contributions */\n      0x04\n        /* \"contracts/CrowdTank.sol\":3320:3345  Contributions[_projectID] */\n      0x00\n        /* \"contracts/CrowdTank.sol\":3334:3344  _projectID */\n      dup8\n        /* \"contracts/CrowdTank.sol\":3320:3345  Contributions[_projectID] */\n      dup2\n      mstore\n      0x20\n      add\n      swap1\n      dup2\n      mstore\n      0x20\n      add\n      0x00\n      keccak256\n        /* \"contracts/CrowdTank.sol\":3320:3357  Contributions[_projectID][msg.sender] */\n      0x00\n        /* \"contracts/CrowdTank.sol\":3346:3356  msg.sender */\n      caller\n        /* \"contracts/CrowdTank.sol\":3320:3357  Contributions[_projectID][msg.sender] */\n      0xffffffffffffffffffffffffffffffffffffffff\n      and\n      0xffffffffffffffffffffffffffffffffffffffff\n      and\n      dup2\n      mstore\n      0x20\n      add\n      swap1\n      dup2\n      mstore\n      0x20\n      add\n      0x00\n      keccak256\n        /* \"contracts/CrowdTank.sol\":3320:3374  Contributions[_projectID][msg.sender] = amountToAccept */\n      dup2\n      swap1\n      sstore\n      pop\n        /* \"contracts/CrowdTank.sol\":3442:3456  amountToAccept */\n      dup2\n        /* \"contracts/CrowdTank.sol\":3422:3440  TotalRaisedFunding */\n      0x01\n      0x00\n        /* \"contracts/CrowdTank.sol\":3422:3456  TotalRaisedFunding+=amountToAccept */\n      dup3\n      dup3\n      sload\n      tag_154\n      swap2\n      swap1\n      tag_132\n      jump\t// in\n    tag_154:\n      swap3\n      pop\n      pop\n      dup2\n      swap1\n      sstore\n      pop\n        /* \"contracts/CrowdTank.sol\":3484:3485  0 */\n      0x00\n        /* \"contracts/CrowdTank.sol\":3475:3481  refund */\n      dup2\n        /* \"contracts/CrowdTank.sol\":3475:3485  refund > 0 */\n      gt\n        /* \"contracts/CrowdTank.sol\":3471:3631  if (refund > 0) {... */\n      iszero\n      tag_155\n      jumpi\n        /* \"contracts/CrowdTank.sol\":3507:3516  bool sent */\n      0x00\n        /* \"contracts/CrowdTank.sol\":3530:3540  msg.sender */\n      caller\n        /* \"contracts/CrowdTank.sol\":3522:3546  payable(msg.sender).call */\n      0xffffffffffffffffffffffffffffffffffffffff\n      and\n        /* \"contracts/CrowdTank.sol\":3554:3560  refund */\n      dup3\n        /* \"contracts/CrowdTank.sol\":3522:3565  payable(msg.sender).call{value: refund}(\"\") */\n      mload(0x40)\n      tag_156\n      swap1\n      tag_157\n      jump\t// in\n    tag_156:\n      0x00\n      mload(0x40)\n      dup1\n      dup4\n      sub\n      dup2\n      dup6\n      dup8\n      gas\n      call\n      swap3\n      pop\n      pop\n      pop\n      returndatasize\n      dup1\n      0x00\n      dup2\n      eq\n      tag_160\n      jumpi\n      mload(0x40)\n      swap2\n      pop\n      and(add(returndatasize, 0x3f), not(0x1f))\n      dup3\n      add\n      0x40\n      mstore\n      returndatasize\n      dup3\n      mstore\n      returndatasize\n      0x00\n      0x20\n      dup5\n      add\n      returndatacopy\n      jump(tag_159)\n    tag_160:\n      0x60\n      swap2\n      pop\n    tag_159:\n      pop\n        /* \"contracts/CrowdTank.sol\":3506:3565  (bool sent, ) = payable(msg.sender).call{value: refund}(\"\") */\n      pop\n      swap1\n      pop\n        /* \"contracts/CrowdTank.sol\":3592:3596  sent */\n      dup1\n        /* \"contracts/CrowdTank.sol\":3584:3615  require(sent , \"Refund Failed\") */\n      tag_161\n      jumpi\n      mload(0x40)\n      0x08c379a000000000000000000000000000000000000000000000000000000000\n      dup2\n      mstore\n      0x04\n      add\n      tag_162\n      swap1\n      tag_163\n      jump\t// in\n    tag_162:\n      mload(0x40)\n      dup1\n      swap2\n      sub\n      swap1\n      revert\n    tag_161:\n        /* \"contracts/CrowdTank.sol\":3487:3631  {... */\n      pop\n        /* \"contracts/CrowdTank.sol\":3471:3631  if (refund > 0) {... */\n    tag_155:\n        /* \"contracts/CrowdTank.sol\":3659:3669  _projectID */\n      dup5\n        /* \"contracts/CrowdTank.sol\":3652:3707  funded(_projectID, msg.sender, amountToAccept , refund) */\n      0x7dd983e9d08b449d571f3583275e98423857f3ffbe9ef56f927eb02b1c8ab599\n        /* \"contracts/CrowdTank.sol\":3671:3681  msg.sender */\n      caller\n        /* \"contracts/CrowdTank.sol\":3683:3697  amountToAccept */\n      dup5\n        /* \"contracts/CrowdTank.sol\":3700:3706  refund */\n      dup5\n        /* \"contracts/CrowdTank.sol\":3652:3707  funded(_projectID, msg.sender, amountToAccept , refund) */\n      mload(0x40)\n      tag_164\n      swap4\n      swap3\n      swap2\n      swap1\n      tag_165\n      jump\t// in\n    tag_164:\n      mload(0x40)\n      dup1\n      swap2\n      sub\n      swap1\n      log2\n        /* \"contracts/CrowdTank.sol\":3750:3757  Project */\n      dup4\n        /* \"contracts/CrowdTank.sol\":3750:3769  Project.fundingGoal */\n      0x03\n      add\n      sload\n        /* \"contracts/CrowdTank.sol\":3728:3735  Project */\n      dup5\n        /* \"contracts/CrowdTank.sol\":3728:3748  Project.amountRaised */\n      0x05\n      add\n      sload\n        /* \"contracts/CrowdTank.sol\":3728:3769  Project.amountRaised>=Project.fundingGoal */\n      lt\n        /* \"contracts/CrowdTank.sol\":3724:3827  if (Project.amountRaised>=Project.fundingGoal) {... */\n      tag_166\n      jumpi\n        /* \"contracts/CrowdTank.sol\":3807:3811  true */\n      0x01\n        /* \"contracts/CrowdTank.sol\":3790:3797  Project */\n      dup5\n        /* \"contracts/CrowdTank.sol\":3790:3804  Project.funded */\n      0x06\n      add\n      0x00\n        /* \"contracts/CrowdTank.sol\":3790:3811  Project.funded = true */\n      0x0100\n      exp\n      dup2\n      sload\n      dup2\n      0xff\n      mul\n      not\n      and\n      swap1\n      dup4\n      iszero\n      iszero\n      mul\n      or\n      swap1\n      sstore\n      pop\n        /* \"contracts/CrowdTank.sol\":3724:3827  if (Project.amountRaised>=Project.fundingGoal) {... */\n    tag_166:\n        /* \"contracts/CrowdTank.sol\":2461:3838  {... */\n      pop\n      pop\n      pop\n      pop\n        /* \"@openzeppelin/contracts/utils/ReentrancyGuard.sol\":2542:2562  _nonReentrantAfter() */\n      tag_167\n        /* \"@openzeppelin/contracts/utils/ReentrancyGuard.sol\":2542:2560  _nonReentrantAfter */\n      tag_168\n        /* \"@openzeppelin/contracts/utils/ReentrancyGuard.sol\":2542:2562  _nonReentrantAfter() */\n      jump\t// in\n    tag_167:\n        /* \"contracts/CrowdTank.sol\":2393:3838  function fundProject(uint _projectID) external payable nonReentrant {... */\n      pop\n      jump\t// out\n        /* \"contracts/CrowdTank.sol\":4544:5145  function creatorWithdraw(uint _projectID) external payable {... */\n    tag_70:\n        /* \"contracts/CrowdTank.sol\":4614:4637  project storage Project */\n      0x00\n        /* \"contracts/CrowdTank.sol\":4640:4648  Projects */\n      0x03\n        /* \"contracts/CrowdTank.sol\":4640:4660  Projects[_projectID] */\n      0x00\n        /* \"contracts/CrowdTank.sol\":4649:4659  _projectID */\n      dup4\n        /* \"contracts/CrowdTank.sol\":4640:4660  Projects[_projectID] */\n      dup2\n      mstore\n      0x20\n      add\n      swap1\n      dup2\n      mstore\n      0x20\n      add\n      0x00\n      keccak256\n        /* \"contracts/CrowdTank.sol\":4614:4660  project storage Project = Projects[_projectID] */\n      swap1\n      pop\n        /* \"contracts/CrowdTank.sol\":4671:4688  uint totalfunding */\n      0x00\n        /* \"contracts/CrowdTank.sol\":4691:4698  Project */\n      dup2\n        /* \"contracts/CrowdTank.sol\":4691:4711  Project.amountRaised */\n      0x05\n      add\n      sload\n        /* \"contracts/CrowdTank.sol\":4671:4711  uint totalfunding = Project.amountRaised */\n      swap1\n      pop\n        /* \"contracts/CrowdTank.sol\":4730:4737  Project */\n      dup2\n        /* \"contracts/CrowdTank.sol\":4730:4744  Project.funded */\n      0x06\n      add\n      0x00\n      swap1\n      sload\n      swap1\n      0x0100\n      exp\n      swap1\n      div\n      0xff\n      and\n        /* \"contracts/CrowdTank.sol\":4722:4801  require(Project.funded , \"funding goal has not reached , admin can't withdraw\") */\n      tag_170\n      jumpi\n      mload(0x40)\n      0x08c379a000000000000000000000000000000000000000000000000000000000\n      dup2\n      mstore\n      0x04\n      add\n      tag_171\n      swap1\n      tag_172\n      jump\t// in\n    tag_171:\n      mload(0x40)\n      dup1\n      swap2\n      sub\n      swap1\n      revert\n    tag_170:\n        /* \"contracts/CrowdTank.sol\":4839:4849  msg.sender */\n      caller\n        /* \"contracts/CrowdTank.sol\":4820:4849  Project.creator == msg.sender */\n      0xffffffffffffffffffffffffffffffffffffffff\n      and\n        /* \"contracts/CrowdTank.sol\":4820:4827  Project */\n      dup3\n        /* \"contracts/CrowdTank.sol\":4820:4835  Project.creator */\n      0x00\n      add\n      0x00\n      swap1\n      sload\n      swap1\n      0x0100\n      exp\n      swap1\n      div\n      0xffffffffffffffffffffffffffffffffffffffff\n      and\n        /* \"contracts/CrowdTank.sol\":4820:4849  Project.creator == msg.sender */\n      0xffffffffffffffffffffffffffffffffffffffff\n      and\n      eq\n        /* \"contracts/CrowdTank.sol\":4812:4878  require(Project.creator == msg.sender , \"only admin can withdraw\") */\n      tag_173\n      jumpi\n      mload(0x40)\n      0x08c379a000000000000000000000000000000000000000000000000000000000\n      dup2\n      mstore\n      0x04\n      add\n      tag_174\n      swap1\n      tag_175\n      jump\t// in\n    tag_174:\n      mload(0x40)\n      dup1\n      swap2\n      sub\n      swap1\n      revert\n    tag_173:\n        /* \"contracts/CrowdTank.sol\":4915:4930  block.timestamp */\n      timestamp\n        /* \"contracts/CrowdTank.sol\":4897:4904  Project */\n      dup3\n        /* \"contracts/CrowdTank.sol\":4897:4913  Project.deadline */\n      0x04\n      add\n      sload\n        /* \"contracts/CrowdTank.sol\":4897:4930  Project.deadline<=block.timestamp */\n      gt\n      iszero\n        /* \"contracts/CrowdTank.sol\":4889:4983  require(Project.deadline<=block.timestamp , \"deadline has not reached , admin can't withdraw\") */\n      tag_176\n      jumpi\n      mload(0x40)\n      0x08c379a000000000000000000000000000000000000000000000000000000000\n      dup2\n      mstore\n      0x04\n      add\n      tag_177\n      swap1\n      tag_178\n      jump\t// in\n    tag_177:\n      mload(0x40)\n      dup1\n      swap2\n      sub\n      swap1\n      revert\n    tag_176:\n        /* \"contracts/CrowdTank.sol\":5002:5012  msg.sender */\n      caller\n        /* \"contracts/CrowdTank.sol\":4994:5022  payable(msg.sender).transfer */\n      0xffffffffffffffffffffffffffffffffffffffff\n      and\n        /* \"contracts/CrowdTank.sol\":4994:5036  payable(msg.sender).transfer(totalfunding) */\n      0x08fc\n        /* \"contracts/CrowdTank.sol\":5023:5035  totalfunding */\n      dup3\n        /* \"contracts/CrowdTank.sol\":4994:5036  payable(msg.sender).transfer(totalfunding) */\n      swap1\n      dup2\n      iszero\n      mul\n      swap1\n      mload(0x40)\n      0x00\n      mload(0x40)\n      dup1\n      dup4\n      sub\n      dup2\n      dup6\n      dup9\n      dup9\n      call\n      swap4\n      pop\n      pop\n      pop\n      pop\n      iszero\n      dup1\n      iszero\n      tag_180\n      jumpi\n      returndatacopy(0x00, 0x00, returndatasize)\n      revert(0x00, returndatasize)\n    tag_180:\n      pop\n        /* \"contracts/CrowdTank.sol\":5103:5113  _projectID */\n      dup3\n        /* \"contracts/CrowdTank.sol\":5086:5137  creatorWithdrawn(_projectID, msg.sender, msg.value) */\n      0xcae030e1a3c6b0011e7009bd65734e2e1e330528f6983497631fabd47fa7a281\n        /* \"contracts/CrowdTank.sol\":5115:5125  msg.sender */\n      caller\n        /* \"contracts/CrowdTank.sol\":5127:5136  msg.value */\n      callvalue\n        /* \"contracts/CrowdTank.sol\":5086:5137  creatorWithdrawn(_projectID, msg.sender, msg.value) */\n      mload(0x40)\n      tag_181\n      swap3\n      swap2\n      swap1\n      tag_120\n      jump\t// in\n    tag_181:\n      mload(0x40)\n      dup1\n      swap2\n      sub\n      swap1\n      log2\n        /* \"contracts/CrowdTank.sol\":4603:5145  {... */\n      pop\n      pop\n        /* \"contracts/CrowdTank.sol\":4544:5145  function creatorWithdraw(uint _projectID) external payable {... */\n      pop\n      jump\t// out\n        /* \"contracts/CrowdTank.sol\":420:445  uint public TotalProjects */\n    tag_73:\n      sload(0x02)\n      dup2\n      jump\t// out\n        /* \"contracts/CrowdTank.sol\":7200:8167  function userEarlyWithdraw( uint _projectID , uint withdrawn_amount) external payable {... */\n    tag_77:\n        /* \"contracts/CrowdTank.sol\":7297:7320  project storage Project */\n      0x00\n        /* \"contracts/CrowdTank.sol\":7323:7331  Projects */\n      0x03\n        /* \"contracts/CrowdTank.sol\":7323:7343  Projects[_projectID] */\n      0x00\n        /* \"contracts/CrowdTank.sol\":7332:7342  _projectID */\n      dup5\n        /* \"contracts/CrowdTank.sol\":7323:7343  Projects[_projectID] */\n      dup2\n      mstore\n      0x20\n      add\n      swap1\n      dup2\n      mstore\n      0x20\n      add\n      0x00\n      keccak256\n        /* \"contracts/CrowdTank.sol\":7297:7343  project storage Project = Projects[_projectID] */\n      swap1\n      pop\n        /* \"contracts/CrowdTank.sol\":7380:7387  Project */\n      dup1\n        /* \"contracts/CrowdTank.sol\":7380:7396  Project.deadline */\n      0x04\n      add\n      sload\n        /* \"contracts/CrowdTank.sol\":7362:7377  block.timestamp */\n      timestamp\n        /* \"contracts/CrowdTank.sol\":7362:7396  block.timestamp < Project.deadline */\n      lt\n        /* \"contracts/CrowdTank.sol\":7354:7431  require(block.timestamp < Project.deadline, \"Cannot withdraw after deadline\") */\n      tag_183\n      jumpi\n      mload(0x40)\n      0x08c379a000000000000000000000000000000000000000000000000000000000\n      dup2\n      mstore\n      0x04\n      add\n      tag_184\n      swap1\n      tag_185\n      jump\t// in\n    tag_184:\n      mload(0x40)\n      dup1\n      swap2\n      sub\n      swap1\n      revert\n    tag_183:\n        /* \"contracts/CrowdTank.sol\":7442:7465  uint contributed_amount */\n      0x00\n        /* \"contracts/CrowdTank.sol\":7468:7481  Contributions */\n      0x04\n        /* \"contracts/CrowdTank.sol\":7468:7493  Contributions[_projectID] */\n      0x00\n        /* \"contracts/CrowdTank.sol\":7482:7492  _projectID */\n      dup6\n        /* \"contracts/CrowdTank.sol\":7468:7493  Contributions[_projectID] */\n      dup2\n      mstore\n      0x20\n      add\n      swap1\n      dup2\n      mstore\n      0x20\n      add\n      0x00\n      keccak256\n        /* \"contracts/CrowdTank.sol\":7468:7505  Contributions[_projectID][msg.sender] */\n      0x00\n        /* \"contracts/CrowdTank.sol\":7494:7504  msg.sender */\n      caller\n        /* \"contracts/CrowdTank.sol\":7468:7505  Contributions[_projectID][msg.sender] */\n      0xffffffffffffffffffffffffffffffffffffffff\n      and\n      0xffffffffffffffffffffffffffffffffffffffff\n      and\n      dup2\n      mstore\n      0x20\n      add\n      swap1\n      dup2\n      mstore\n      0x20\n      add\n      0x00\n      keccak256\n      sload\n        /* \"contracts/CrowdTank.sol\":7442:7505  uint contributed_amount = Contributions[_projectID][msg.sender] */\n      swap1\n      pop\n        /* \"contracts/CrowdTank.sol\":7545:7546  0 */\n      0x00\n        /* \"contracts/CrowdTank.sol\":7524:7542  contributed_amount */\n      dup2\n        /* \"contracts/CrowdTank.sol\":7524:7546  contributed_amount > 0 */\n      gt\n        /* \"contracts/CrowdTank.sol\":7516:7574  require(contributed_amount > 0 , \"No Funds to withdraw!!\") */\n      tag_186\n      jumpi\n      mload(0x40)\n      0x08c379a000000000000000000000000000000000000000000000000000000000\n      dup2\n      mstore\n      0x04\n      add\n      tag_187\n      swap1\n      tag_188\n      jump\t// in\n    tag_187:\n      mload(0x40)\n      dup1\n      swap2\n      sub\n      swap1\n      revert\n    tag_186:\n        /* \"contracts/CrowdTank.sol\":7613:7631  contributed_amount */\n      dup1\n        /* \"contracts/CrowdTank.sol\":7593:7609  withdrawn_amount */\n      dup4\n        /* \"contracts/CrowdTank.sol\":7593:7631  withdrawn_amount <= contributed_amount */\n      gt\n      iszero\n        /* \"contracts/CrowdTank.sol\":7585:7678  require(withdrawn_amount <= contributed_amount , \"Withdraw amount exceeds your contribution\") */\n      tag_189\n      jumpi\n      mload(0x40)\n      0x08c379a000000000000000000000000000000000000000000000000000000000\n      dup2\n      mstore\n      0x04\n      add\n      tag_190\n      swap1\n      tag_191\n      jump\t// in\n    tag_190:\n      mload(0x40)\n      dup1\n      swap2\n      sub\n      swap1\n      revert\n    tag_189:\n        /* \"contracts/CrowdTank.sol\":7772:7788  withdrawn_amount */\n      dup3\n        /* \"contracts/CrowdTank.sol\":7748:7755  Project */\n      dup3\n        /* \"contracts/CrowdTank.sol\":7748:7768  Project.amountRaised */\n      0x05\n      add\n      0x00\n        /* \"contracts/CrowdTank.sol\":7748:7788  Project.amountRaised -= withdrawn_amount */\n      dup3\n      dup3\n      sload\n      tag_192\n      swap2\n      swap1\n      tag_90\n      jump\t// in\n    tag_192:\n      swap3\n      pop\n      pop\n      dup2\n      swap1\n      sstore\n      pop\n        /* \"contracts/CrowdTank.sol\":7840:7856  withdrawn_amount */\n      dup3\n        /* \"contracts/CrowdTank.sol\":7799:7812  Contributions */\n      0x04\n        /* \"contracts/CrowdTank.sol\":7799:7824  Contributions[_projectID] */\n      0x00\n        /* \"contracts/CrowdTank.sol\":7813:7823  _projectID */\n      dup7\n        /* \"contracts/CrowdTank.sol\":7799:7824  Contributions[_projectID] */\n      dup2\n      mstore\n      0x20\n      add\n      swap1\n      dup2\n      mstore\n      0x20\n      add\n      0x00\n      keccak256\n        /* \"contracts/CrowdTank.sol\":7799:7836  Contributions[_projectID][msg.sender] */\n      0x00\n        /* \"contracts/CrowdTank.sol\":7825:7835  msg.sender */\n      caller\n        /* \"contracts/CrowdTank.sol\":7799:7836  Contributions[_projectID][msg.sender] */\n      0xffffffffffffffffffffffffffffffffffffffff\n      and\n      0xffffffffffffffffffffffffffffffffffffffff\n      and\n      dup2\n      mstore\n      0x20\n      add\n      swap1\n      dup2\n      mstore\n      0x20\n      add\n      0x00\n      keccak256\n      0x00\n        /* \"contracts/CrowdTank.sol\":7799:7856  Contributions[_projectID][msg.sender] -= withdrawn_amount */\n      dup3\n      dup3\n      sload\n      tag_193\n      swap2\n      swap1\n      tag_90\n      jump\t// in\n    tag_193:\n      swap3\n      pop\n      pop\n      dup2\n      swap1\n      sstore\n      pop\n        /* \"contracts/CrowdTank.sol\":7889:7905  withdrawn_amount */\n      dup3\n        /* \"contracts/CrowdTank.sol\":7867:7885  TotalRaisedFunding */\n      0x01\n      0x00\n        /* \"contracts/CrowdTank.sol\":7867:7905  TotalRaisedFunding -= withdrawn_amount */\n      dup3\n      dup3\n      sload\n      tag_194\n      swap2\n      swap1\n      tag_90\n      jump\t// in\n    tag_194:\n      swap3\n      pop\n      pop\n      dup2\n      swap1\n      sstore\n      pop\n        /* \"contracts/CrowdTank.sol\":7953:7965  bool success */\n      0x00\n        /* \"contracts/CrowdTank.sol\":7979:7989  msg.sender */\n      caller\n        /* \"contracts/CrowdTank.sol\":7971:7995  payable(msg.sender).call */\n      0xffffffffffffffffffffffffffffffffffffffff\n      and\n        /* \"contracts/CrowdTank.sol\":8004:8020  withdrawn_amount */\n      dup5\n        /* \"contracts/CrowdTank.sol\":7971:8025  payable(msg.sender).call{value : withdrawn_amount}(\"\") */\n      mload(0x40)\n      tag_195\n      swap1\n      tag_157\n      jump\t// in\n    tag_195:\n      0x00\n      mload(0x40)\n      dup1\n      dup4\n      sub\n      dup2\n      dup6\n      dup8\n      gas\n      call\n      swap3\n      pop\n      pop\n      pop\n      returndatasize\n      dup1\n      0x00\n      dup2\n      eq\n      tag_198\n      jumpi\n      mload(0x40)\n      swap2\n      pop\n      and(add(returndatasize, 0x3f), not(0x1f))\n      dup3\n      add\n      0x40\n      mstore\n      returndatasize\n      dup3\n      mstore\n      returndatasize\n      0x00\n      0x20\n      dup5\n      add\n      returndatacopy\n      jump(tag_197)\n    tag_198:\n      0x60\n      swap2\n      pop\n    tag_197:\n      pop\n        /* \"contracts/CrowdTank.sol\":7952:8025  (bool success, ) = payable(msg.sender).call{value : withdrawn_amount}(\"\") */\n      pop\n      swap1\n      pop\n        /* \"contracts/CrowdTank.sol\":8044:8051  success */\n      dup1\n        /* \"contracts/CrowdTank.sol\":8036:8076  require(success , \"withdraw failed!!!!\") */\n      tag_199\n      jumpi\n      mload(0x40)\n      0x08c379a000000000000000000000000000000000000000000000000000000000\n      dup2\n      mstore\n      0x04\n      add\n      tag_200\n      swap1\n      tag_201\n      jump\t// in\n    tag_200:\n      mload(0x40)\n      dup1\n      swap2\n      sub\n      swap1\n      revert\n    tag_199:\n        /* \"contracts/CrowdTank.sol\":8124:8134  _projectID */\n      dup5\n        /* \"contracts/CrowdTank.sol\":8112:8122  msg.sender */\n      caller\n        /* \"contracts/CrowdTank.sol\":8094:8153  UserEarlyWithdraw(msg.sender, _projectID, withdrawn_amount) */\n      0xffffffffffffffffffffffffffffffffffffffff\n      and\n      0xb37480540ffb97ff520a59b38ea1a83aefbfd3d2a956d958a00214b8b6551f28\n        /* \"contracts/CrowdTank.sol\":8136:8152  withdrawn_amount */\n      dup7\n        /* \"contracts/CrowdTank.sol\":8094:8153  UserEarlyWithdraw(msg.sender, _projectID, withdrawn_amount) */\n      mload(0x40)\n      tag_202\n      swap2\n      swap1\n      tag_42\n      jump\t// in\n    tag_202:\n      mload(0x40)\n      dup1\n      swap2\n      sub\n      swap1\n      log3\n        /* \"contracts/CrowdTank.sol\":7286:8167  {... */\n      pop\n      pop\n      pop\n        /* \"contracts/CrowdTank.sol\":7200:8167  function userEarlyWithdraw( uint _projectID , uint withdrawn_amount) external payable {... */\n      pop\n      pop\n      jump\t// out\n        /* \"contracts/CrowdTank.sol\":1636:2332  function createProject(string memory _name , string memory _description , uint _fundingGoal , uint _durationSeconds , uint _id) external {... */\n    tag_82:\n        /* \"contracts/CrowdTank.sol\":1793:1801  isIdUsed */\n      0x05\n        /* \"contracts/CrowdTank.sol\":1793:1806  isIdUsed[_id] */\n      0x00\n        /* \"contracts/CrowdTank.sol\":1802:1805  _id */\n      dup3\n        /* \"contracts/CrowdTank.sol\":1793:1806  isIdUsed[_id] */\n      dup2\n      mstore\n      0x20\n      add\n      swap1\n      dup2\n      mstore\n      0x20\n      add\n      0x00\n      keccak256\n      0x00\n      swap1\n      sload\n      swap1\n      0x0100\n      exp\n      swap1\n      div\n      0xff\n      and\n        /* \"contracts/CrowdTank.sol\":1792:1806  !isIdUsed[_id] */\n      iszero\n        /* \"contracts/CrowdTank.sol\":1784:1841  require(!isIdUsed[_id], \"Project ID is already in use!\" ) */\n      tag_204\n      jumpi\n      mload(0x40)\n      0x08c379a000000000000000000000000000000000000000000000000000000000\n      dup2\n      mstore\n      0x04\n      add\n      tag_205\n      swap1\n      tag_206\n      jump\t// in\n    tag_205:\n      mload(0x40)\n      dup1\n      swap2\n      sub\n      swap1\n      revert\n    tag_204:\n        /* \"contracts/CrowdTank.sol\":1868:1872  true */\n      0x01\n        /* \"contracts/CrowdTank.sol\":1852:1860  isIdUsed */\n      0x05\n        /* \"contracts/CrowdTank.sol\":1852:1865  isIdUsed[_id] */\n      0x00\n        /* \"contracts/CrowdTank.sol\":1861:1864  _id */\n      dup4\n        /* \"contracts/CrowdTank.sol\":1852:1865  isIdUsed[_id] */\n      dup2\n      mstore\n      0x20\n      add\n      swap1\n      dup2\n      mstore\n      0x20\n      add\n      0x00\n      keccak256\n      0x00\n        /* \"contracts/CrowdTank.sol\":1852:1872  isIdUsed[_id] = true */\n      0x0100\n      exp\n      dup2\n      sload\n      dup2\n      0xff\n      mul\n      not\n      and\n      swap1\n      dup4\n      iszero\n      iszero\n      mul\n      or\n      swap1\n      sstore\n      pop\n        /* \"contracts/CrowdTank.sol\":1899:2177  project({... */\n      mload(0x40)\n      dup1\n      0xe0\n      add\n      0x40\n      mstore\n      dup1\n        /* \"contracts/CrowdTank.sol\":1932:1942  msg.sender */\n      caller\n        /* \"contracts/CrowdTank.sol\":1899:2177  project({... */\n      0xffffffffffffffffffffffffffffffffffffffff\n      and\n      dup2\n      mstore\n      0x20\n      add\n        /* \"contracts/CrowdTank.sol\":1963:1968  _name */\n      dup7\n        /* \"contracts/CrowdTank.sol\":1899:2177  project({... */\n      dup2\n      mstore\n      0x20\n      add\n        /* \"contracts/CrowdTank.sol\":1996:2008  _description */\n      dup6\n        /* \"contracts/CrowdTank.sol\":1899:2177  project({... */\n      dup2\n      mstore\n      0x20\n      add\n        /* \"contracts/CrowdTank.sol\":2036:2048  _fundingGoal */\n      dup5\n        /* \"contracts/CrowdTank.sol\":1899:2177  project({... */\n      dup2\n      mstore\n      0x20\n      add\n        /* \"contracts/CrowdTank.sol\":2091:2107  _durationSeconds */\n      dup4\n        /* \"contracts/CrowdTank.sol\":2073:2088  block.timestamp */\n      timestamp\n        /* \"contracts/CrowdTank.sol\":2073:2107  block.timestamp + _durationSeconds */\n      tag_207\n      swap2\n      swap1\n      tag_132\n      jump\t// in\n    tag_207:\n        /* \"contracts/CrowdTank.sol\":1899:2177  project({... */\n      dup2\n      mstore\n      0x20\n      add\n        /* \"contracts/CrowdTank.sol\":2136:2137  0 */\n      0x00\n        /* \"contracts/CrowdTank.sol\":1899:2177  project({... */\n      dup2\n      mstore\n      0x20\n      add\n        /* \"contracts/CrowdTank.sol\":2160:2165  false */\n      0x00\n        /* \"contracts/CrowdTank.sol\":1899:2177  project({... */\n      iszero\n      iszero\n      dup2\n      mstore\n      pop\n        /* \"contracts/CrowdTank.sol\":1883:1891  Projects */\n      0x03\n        /* \"contracts/CrowdTank.sol\":1883:1896  Projects[_id] */\n      0x00\n        /* \"contracts/CrowdTank.sol\":1892:1895  _id */\n      dup4\n        /* \"contracts/CrowdTank.sol\":1883:1896  Projects[_id] */\n      dup2\n      mstore\n      0x20\n      add\n      swap1\n      dup2\n      mstore\n      0x20\n      add\n      0x00\n      keccak256\n        /* \"contracts/CrowdTank.sol\":1883:2177  Projects[_id] = project({... */\n      0x00\n      dup3\n      add\n      mload\n      dup2\n      0x00\n      add\n      exp(0x0100, 0x00)\n      dup2\n      sload\n      dup2\n      0xffffffffffffffffffffffffffffffffffffffff\n      mul\n      not\n      and\n      swap1\n      dup4\n      0xffffffffffffffffffffffffffffffffffffffff\n      and\n      mul\n      or\n      swap1\n      sstore\n      pop\n      0x20\n      dup3\n      add\n      mload\n      dup2\n      0x01\n      add\n      swap1\n      dup2\n      tag_208\n      swap2\n      swap1\n      tag_209\n      jump\t// in\n    tag_208:\n      pop\n      0x40\n      dup3\n      add\n      mload\n      dup2\n      0x02\n      add\n      swap1\n      dup2\n      tag_210\n      swap2\n      swap1\n      tag_209\n      jump\t// in\n    tag_210:\n      pop\n      0x60\n      dup3\n      add\n      mload\n      dup2\n      0x03\n      add\n      sstore\n      0x80\n      dup3\n      add\n      mload\n      dup2\n      0x04\n      add\n      sstore\n      0xa0\n      dup3\n      add\n      mload\n      dup2\n      0x05\n      add\n      sstore\n      0xc0\n      dup3\n      add\n      mload\n      dup2\n      0x06\n      add\n      exp(0x0100, 0x00)\n      dup2\n      sload\n      dup2\n      0xff\n      mul\n      not\n      and\n      swap1\n      dup4\n      iszero\n      iszero\n      mul\n      or\n      swap1\n      sstore\n      pop\n      swap1\n      pop\n      pop\n        /* \"contracts/CrowdTank.sol\":2188:2201  TotalProjects */\n      0x02\n      0x00\n        /* \"contracts/CrowdTank.sol\":2188:2203  TotalProjects++ */\n      dup2\n      sload\n      dup1\n      swap3\n      swap2\n      swap1\n      tag_211\n      swap1\n      tag_212\n      jump\t// in\n    tag_211:\n      swap2\n      swap1\n      pop\n      sstore\n      pop\n        /* \"contracts/CrowdTank.sol\":2240:2250  msg.sender */\n      caller\n        /* \"contracts/CrowdTank.sol\":2219:2324  ProjectCreated(_id , msg.sender , _name , _description , _fundingGoal , block.timestamp+_durationSeconds) */\n      0xffffffffffffffffffffffffffffffffffffffff\n      and\n        /* \"contracts/CrowdTank.sol\":2234:2237  _id */\n      dup2\n        /* \"contracts/CrowdTank.sol\":2219:2324  ProjectCreated(_id , msg.sender , _name , _description , _fundingGoal , block.timestamp+_durationSeconds) */\n      0xac9b83534845c9e785a6ea70f2d809db1d72ef9a1d981753712d922f5cb55f39\n        /* \"contracts/CrowdTank.sol\":2253:2258  _name */\n      dup8\n        /* \"contracts/CrowdTank.sol\":2261:2273  _description */\n      dup8\n        /* \"contracts/CrowdTank.sol\":2276:2288  _fundingGoal */\n      dup8\n        /* \"contracts/CrowdTank.sol\":2307:2323  _durationSeconds */\n      dup8\n        /* \"contracts/CrowdTank.sol\":2291:2306  block.timestamp */\n      timestamp\n        /* \"contracts/CrowdTank.sol\":2291:2323  block.timestamp+_durationSeconds */\n      tag_213\n      swap2\n      swap1\n      tag_132\n      jump\t// in\n    tag_213:\n        /* \"contracts/CrowdTank.sol\":2219:2324  ProjectCreated(_id , msg.sender , _name , _description , _fundingGoal , block.timestamp+_durationSeconds) */\n      mload(0x40)\n      tag_214\n      swap5\n      swap4\n      swap3\n      swap2\n      swap1\n      tag_215\n      jump\t// in\n    tag_214:\n      mload(0x40)\n      dup1\n      swap2\n      sub\n      swap1\n      log3\n        /* \"contracts/CrowdTank.sol\":1636:2332  function createProject(string memory _name , string memory _description , uint _fundingGoal , uint _durationSeconds , uint _id) external {... */\n      pop\n      pop\n      pop\n      pop\n      pop\n      jump\t// out\n        /* \"@openzeppelin/contracts/utils/ReentrancyGuard.sol\":2575:2882  function _nonReentrantBefore() private {... */\n    tag_135:\n        /* \"@openzeppelin/contracts/utils/ReentrancyGuard.sol\":1899:1900  2 */\n      0x02\n        /* \"@openzeppelin/contracts/utils/ReentrancyGuard.sol\":2702:2709  _status */\n      sload(0x00)\n        /* \"@openzeppelin/contracts/utils/ReentrancyGuard.sol\":2702:2720  _status == ENTERED */\n      sub\n        /* \"@openzeppelin/contracts/utils/ReentrancyGuard.sol\":2698:2784  if (_status == ENTERED) {... */\n      tag_217\n      jumpi\n        /* \"@openzeppelin/contracts/utils/ReentrancyGuard.sol\":2743:2773  ReentrancyGuardReentrantCall() */\n      mload(0x40)\n      0x3ee5aeb500000000000000000000000000000000000000000000000000000000\n      dup2\n      mstore\n      0x04\n      add\n      mload(0x40)\n      dup1\n      swap2\n      sub\n      swap1\n      revert\n        /* \"@openzeppelin/contracts/utils/ReentrancyGuard.sol\":2698:2784  if (_status == ENTERED) {... */\n    tag_217:\n        /* \"@openzeppelin/contracts/utils/ReentrancyGuard.sol\":1899:1900  2 */\n      0x02\n        /* \"@openzeppelin/contracts/utils/ReentrancyGuard.sol\":2858:2865  _status */\n      0x00\n        /* \"@openzeppelin/contracts/utils/ReentrancyGuard.sol\":2858:2875  _status = ENTERED */\n      dup2\n      swap1\n      sstore\n      pop\n        /* \"@openzeppelin/contracts/utils/ReentrancyGuard.sol\":2575:2882  function _nonReentrantBefore() private {... */\n      jump\t// out\n        /* \"@openzeppelin/contracts/utils/ReentrancyGuard.sol\":2888:3096  function _nonReentrantAfter() private {... */\n    tag_168:\n        /* \"@openzeppelin/contracts/utils/ReentrancyGuard.sol\":1857:1858  1 */\n      0x01\n        /* \"@openzeppelin/contracts/utils/ReentrancyGuard.sol\":3068:3075  _status */\n      0x00\n        /* \"@openzeppelin/contracts/utils/ReentrancyGuard.sol\":3068:3089  _status = NOT_ENTERED */\n      dup2\n      swap1\n      sstore\n      pop\n        /* \"@openzeppelin/contracts/utils/ReentrancyGuard.sol\":2888:3096  function _nonReentrantAfter() private {... */\n      jump\t// out\n        /* \"#utility.yul\":7:82   */\n    tag_219:\n        /* \"#utility.yul\":40:46   */\n      0x00\n        /* \"#utility.yul\":73:75   */\n      0x40\n        /* \"#utility.yul\":67:76   */\n      mload\n        /* \"#utility.yul\":57:76   */\n      swap1\n      pop\n        /* \"#utility.yul\":7:82   */\n      swap1\n      jump\t// out\n        /* \"#utility.yul\":88:205   */\n    tag_220:\n        /* \"#utility.yul\":197:198   */\n      0x00\n        /* \"#utility.yul\":194:195   */\n      0x00\n        /* \"#utility.yul\":187:199   */\n      revert\n        /* \"#utility.yul\":211:328   */\n    tag_221:\n        /* \"#utility.yul\":320:321   */\n      0x00\n        /* \"#utility.yul\":317:318   */\n      0x00\n        /* \"#utility.yul\":310:322   */\n      revert\n        /* \"#utility.yul\":334:411   */\n    tag_222:\n        /* \"#utility.yul\":371:378   */\n      0x00\n        /* \"#utility.yul\":400:405   */\n      dup2\n        /* \"#utility.yul\":389:405   */\n      swap1\n      pop\n        /* \"#utility.yul\":334:411   */\n      swap2\n      swap1\n      pop\n      jump\t// out\n        /* \"#utility.yul\":417:539   */\n    tag_223:\n        /* \"#utility.yul\":490:514   */\n      tag_310\n        /* \"#utility.yul\":508:513   */\n      dup2\n        /* \"#utility.yul\":490:514   */\n      tag_222\n      jump\t// in\n    tag_310:\n        /* \"#utility.yul\":483:488   */\n      dup2\n        /* \"#utility.yul\":480:515   */\n      eq\n        /* \"#utility.yul\":470:533   */\n      tag_311\n      jumpi\n        /* \"#utility.yul\":529:530   */\n      0x00\n        /* \"#utility.yul\":526:527   */\n      0x00\n        /* \"#utility.yul\":519:531   */\n      revert\n        /* \"#utility.yul\":470:533   */\n    tag_311:\n        /* \"#utility.yul\":417:539   */\n      pop\n      jump\t// out\n        /* \"#utility.yul\":545:684   */\n    tag_224:\n        /* \"#utility.yul\":591:596   */\n      0x00\n        /* \"#utility.yul\":629:635   */\n      dup2\n        /* \"#utility.yul\":616:636   */\n      calldataload\n        /* \"#utility.yul\":607:636   */\n      swap1\n      pop\n        /* \"#utility.yul\":645:678   */\n      tag_313\n        /* \"#utility.yul\":672:677   */\n      dup2\n        /* \"#utility.yul\":645:678   */\n      tag_223\n      jump\t// in\n    tag_313:\n        /* \"#utility.yul\":545:684   */\n      swap3\n      swap2\n      pop\n      pop\n      jump\t// out\n        /* \"#utility.yul\":690:1019   */\n    tag_22:\n        /* \"#utility.yul\":749:755   */\n      0x00\n        /* \"#utility.yul\":798:800   */\n      0x20\n        /* \"#utility.yul\":786:795   */\n      dup3\n        /* \"#utility.yul\":777:784   */\n      dup5\n        /* \"#utility.yul\":773:796   */\n      sub\n        /* \"#utility.yul\":769:801   */\n      slt\n        /* \"#utility.yul\":766:885   */\n      iszero\n      tag_315\n      jumpi\n        /* \"#utility.yul\":804:883   */\n      tag_316\n      tag_220\n      jump\t// in\n    tag_316:\n        /* \"#utility.yul\":766:885   */\n    tag_315:\n        /* \"#utility.yul\":924:925   */\n      0x00\n        /* \"#utility.yul\":949:1002   */\n      tag_317\n        /* \"#utility.yul\":994:1001   */\n      dup5\n        /* \"#utility.yul\":985:991   */\n      dup3\n        /* \"#utility.yul\":974:983   */\n      dup6\n        /* \"#utility.yul\":970:992   */\n      add\n        /* \"#utility.yul\":949:1002   */\n      tag_224\n      jump\t// in\n    tag_317:\n        /* \"#utility.yul\":939:1002   */\n      swap2\n      pop\n        /* \"#utility.yul\":895:1012   */\n      pop\n        /* \"#utility.yul\":690:1019   */\n      swap3\n      swap2\n      pop\n      pop\n      jump\t// out\n        /* \"#utility.yul\":1025:1143   */\n    tag_225:\n        /* \"#utility.yul\":1112:1136   */\n      tag_319\n        /* \"#utility.yul\":1130:1135   */\n      dup2\n        /* \"#utility.yul\":1112:1136   */\n      tag_222\n      jump\t// in\n    tag_319:\n        /* \"#utility.yul\":1107:1110   */\n      dup3\n        /* \"#utility.yul\":1100:1137   */\n      mstore\n        /* \"#utility.yul\":1025:1143   */\n      pop\n      pop\n      jump\t// out\n        /* \"#utility.yul\":1149:1481   */\n    tag_25:\n        /* \"#utility.yul\":1270:1274   */\n      0x00\n        /* \"#utility.yul\":1308:1310   */\n      0x40\n        /* \"#utility.yul\":1297:1306   */\n      dup3\n        /* \"#utility.yul\":1293:1311   */\n      add\n        /* \"#utility.yul\":1285:1311   */\n      swap1\n      pop\n        /* \"#utility.yul\":1321:1392   */\n      tag_321\n        /* \"#utility.yul\":1389:1390   */\n      0x00\n        /* \"#utility.yul\":1378:1387   */\n      dup4\n        /* \"#utility.yul\":1374:1391   */\n      add\n        /* \"#utility.yul\":1365:1371   */\n      dup6\n        /* \"#utility.yul\":1321:1392   */\n      tag_225\n      jump\t// in\n    tag_321:\n        /* \"#utility.yul\":1402:1474   */\n      tag_322\n        /* \"#utility.yul\":1470:1472   */\n      0x20\n        /* \"#utility.yul\":1459:1468   */\n      dup4\n        /* \"#utility.yul\":1455:1473   */\n      add\n        /* \"#utility.yul\":1446:1452   */\n      dup5\n        /* \"#utility.yul\":1402:1474   */\n      tag_225\n      jump\t// in\n    tag_322:\n        /* \"#utility.yul\":1149:1481   */\n      swap4\n      swap3\n      pop\n      pop\n      pop\n      jump\t// out\n        /* \"#utility.yul\":1487:1961   */\n    tag_29:\n        /* \"#utility.yul\":1555:1561   */\n      0x00\n        /* \"#utility.yul\":1563:1569   */\n      0x00\n        /* \"#utility.yul\":1612:1614   */\n      0x40\n        /* \"#utility.yul\":1600:1609   */\n      dup4\n        /* \"#utility.yul\":1591:1598   */\n      dup6\n        /* \"#utility.yul\":1587:1610   */\n      sub\n        /* \"#utility.yul\":1583:1615   */\n      slt\n        /* \"#utility.yul\":1580:1699   */\n      iszero\n      tag_324\n      jumpi\n        /* \"#utility.yul\":1618:1697   */\n      tag_325\n      tag_220\n      jump\t// in\n    tag_325:\n        /* \"#utility.yul\":1580:1699   */\n    tag_324:\n        /* \"#utility.yul\":1738:1739   */\n      0x00\n        /* \"#utility.yul\":1763:1816   */\n      tag_326\n        /* \"#utility.yul\":1808:1815   */\n      dup6\n        /* \"#utility.yul\":1799:1805   */\n      dup3\n        /* \"#utility.yul\":1788:1797   */\n      dup7\n        /* \"#utility.yul\":1784:1806   */\n      add\n        /* \"#utility.yul\":1763:1816   */\n      tag_224\n      jump\t// in\n    tag_326:\n        /* \"#utility.yul\":1753:1816   */\n      swap3\n      pop\n        /* \"#utility.yul\":1709:1826   */\n      pop\n        /* \"#utility.yul\":1865:1867   */\n      0x20\n        /* \"#utility.yul\":1891:1944   */\n      tag_327\n        /* \"#utility.yul\":1936:1943   */\n      dup6\n        /* \"#utility.yul\":1927:1933   */\n      dup3\n        /* \"#utility.yul\":1916:1925   */\n      dup7\n        /* \"#utility.yul\":1912:1934   */\n      add\n        /* \"#utility.yul\":1891:1944   */\n      tag_224\n      jump\t// in\n    tag_327:\n        /* \"#utility.yul\":1881:1944   */\n      swap2\n      pop\n        /* \"#utility.yul\":1836:1954   */\n      pop\n        /* \"#utility.yul\":1487:1961   */\n      swap3\n      pop\n      swap3\n      swap1\n      pop\n      jump\t// out\n        /* \"#utility.yul\":1967:2093   */\n    tag_226:\n        /* \"#utility.yul\":2004:2011   */\n      0x00\n        /* \"#utility.yul\":2044:2086   */\n      0xffffffffffffffffffffffffffffffffffffffff\n        /* \"#utility.yul\":2037:2042   */\n      dup3\n        /* \"#utility.yul\":2033:2087   */\n      and\n        /* \"#utility.yul\":2022:2087   */\n      swap1\n      pop\n        /* \"#utility.yul\":1967:2093   */\n      swap2\n      swap1\n      pop\n      jump\t// out\n        /* \"#utility.yul\":2099:2195   */\n    tag_227:\n        /* \"#utility.yul\":2136:2143   */\n      0x00\n        /* \"#utility.yul\":2165:2189   */\n      tag_330\n        /* \"#utility.yul\":2183:2188   */\n      dup3\n        /* \"#utility.yul\":2165:2189   */\n      tag_226\n      jump\t// in\n    tag_330:\n        /* \"#utility.yul\":2154:2189   */\n      swap1\n      pop\n        /* \"#utility.yul\":2099:2195   */\n      swap2\n      swap1\n      pop\n      jump\t// out\n        /* \"#utility.yul\":2201:2319   */\n    tag_228:\n        /* \"#utility.yul\":2288:2312   */\n      tag_332\n        /* \"#utility.yul\":2306:2311   */\n      dup2\n        /* \"#utility.yul\":2288:2312   */\n      tag_227\n      jump\t// in\n    tag_332:\n        /* \"#utility.yul\":2283:2286   */\n      dup3\n        /* \"#utility.yul\":2276:2313   */\n      mstore\n        /* \"#utility.yul\":2201:2319   */\n      pop\n      pop\n      jump\t// out\n        /* \"#utility.yul\":2325:2424   */\n    tag_229:\n        /* \"#utility.yul\":2377:2383   */\n      0x00\n        /* \"#utility.yul\":2411:2416   */\n      dup2\n        /* \"#utility.yul\":2405:2417   */\n      mload\n        /* \"#utility.yul\":2395:2417   */\n      swap1\n      pop\n        /* \"#utility.yul\":2325:2424   */\n      swap2\n      swap1\n      pop\n      jump\t// out\n        /* \"#utility.yul\":2430:2599   */\n    tag_230:\n        /* \"#utility.yul\":2514:2525   */\n      0x00\n        /* \"#utility.yul\":2548:2554   */\n      dup3\n        /* \"#utility.yul\":2543:2546   */\n      dup3\n        /* \"#utility.yul\":2536:2555   */\n      mstore\n        /* \"#utility.yul\":2588:2592   */\n      0x20\n        /* \"#utility.yul\":2583:2586   */\n      dup3\n        /* \"#utility.yul\":2579:2593   */\n      add\n        /* \"#utility.yul\":2564:2593   */\n      swap1\n      pop\n        /* \"#utility.yul\":2430:2599   */\n      swap3\n      swap2\n      pop\n      pop\n      jump\t// out\n        /* \"#utility.yul\":2605:2744   */\n    tag_231:\n        /* \"#utility.yul\":2694:2700   */\n      dup3\n        /* \"#utility.yul\":2689:2692   */\n      dup2\n        /* \"#utility.yul\":2684:2687   */\n      dup4\n        /* \"#utility.yul\":2678:2701   */\n      mcopy\n        /* \"#utility.yul\":2735:2736   */\n      0x00\n        /* \"#utility.yul\":2726:2732   */\n      dup4\n        /* \"#utility.yul\":2721:2724   */\n      dup4\n        /* \"#utility.yul\":2717:2733   */\n      add\n        /* \"#utility.yul\":2710:2737   */\n      mstore\n        /* \"#utility.yul\":2605:2744   */\n      pop\n      pop\n      pop\n      jump\t// out\n        /* \"#utility.yul\":2750:2852   */\n    tag_232:\n        /* \"#utility.yul\":2791:2797   */\n      0x00\n        /* \"#utility.yul\":2842:2844   */\n      0x1f\n        /* \"#utility.yul\":2838:2845   */\n      not\n        /* \"#utility.yul\":2833:2835   */\n      0x1f\n        /* \"#utility.yul\":2826:2831   */\n      dup4\n        /* \"#utility.yul\":2822:2836   */\n      add\n        /* \"#utility.yul\":2818:2846   */\n      and\n        /* \"#utility.yul\":2808:2846   */\n      swap1\n      pop\n        /* \"#utility.yul\":2750:2852   */\n      swap2\n      swap1\n      pop\n      jump\t// out\n        /* \"#utility.yul\":2858:3235   */\n    tag_233:\n        /* \"#utility.yul\":2946:2949   */\n      0x00\n        /* \"#utility.yul\":2974:3013   */\n      tag_338\n        /* \"#utility.yul\":3007:3012   */\n      dup3\n        /* \"#utility.yul\":2974:3013   */\n      tag_229\n      jump\t// in\n    tag_338:\n        /* \"#utility.yul\":3029:3100   */\n      tag_339\n        /* \"#utility.yul\":3093:3099   */\n      dup2\n        /* \"#utility.yul\":3088:3091   */\n      dup6\n        /* \"#utility.yul\":3029:3100   */\n      tag_230\n      jump\t// in\n    tag_339:\n        /* \"#utility.yul\":3022:3100   */\n      swap4\n      pop\n        /* \"#utility.yul\":3109:3174   */\n      tag_340\n        /* \"#utility.yul\":3167:3173   */\n      dup2\n        /* \"#utility.yul\":3162:3165   */\n      dup6\n        /* \"#utility.yul\":3155:3159   */\n      0x20\n        /* \"#utility.yul\":3148:3153   */\n      dup7\n        /* \"#utility.yul\":3144:3160   */\n      add\n        /* \"#utility.yul\":3109:3174   */\n      tag_231\n      jump\t// in\n    tag_340:\n        /* \"#utility.yul\":3199:3228   */\n      tag_341\n        /* \"#utility.yul\":3221:3227   */\n      dup2\n        /* \"#utility.yul\":3199:3228   */\n      tag_232\n      jump\t// in\n    tag_341:\n        /* \"#utility.yul\":3194:3197   */\n      dup5\n        /* \"#utility.yul\":3190:3229   */\n      add\n        /* \"#utility.yul\":3183:3229   */\n      swap2\n      pop\n        /* \"#utility.yul\":2950:3235   */\n      pop\n        /* \"#utility.yul\":2858:3235   */\n      swap3\n      swap2\n      pop\n      pop\n      jump\t// out\n        /* \"#utility.yul\":3241:3331   */\n    tag_234:\n        /* \"#utility.yul\":3275:3282   */\n      0x00\n        /* \"#utility.yul\":3318:3323   */\n      dup2\n        /* \"#utility.yul\":3311:3324   */\n      iszero\n        /* \"#utility.yul\":3304:3325   */\n      iszero\n        /* \"#utility.yul\":3293:3325   */\n      swap1\n      pop\n        /* \"#utility.yul\":3241:3331   */\n      swap2\n      swap1\n      pop\n      jump\t// out\n        /* \"#utility.yul\":3337:3446   */\n    tag_235:\n        /* \"#utility.yul\":3418:3439   */\n      tag_344\n        /* \"#utility.yul\":3433:3438   */\n      dup2\n        /* \"#utility.yul\":3418:3439   */\n      tag_234\n      jump\t// in\n    tag_344:\n        /* \"#utility.yul\":3413:3416   */\n      dup3\n        /* \"#utility.yul\":3406:3440   */\n      mstore\n        /* \"#utility.yul\":3337:3446   */\n      pop\n      pop\n      jump\t// out\n        /* \"#utility.yul\":3452:4508   */\n    tag_36:\n        /* \"#utility.yul\":3747:3751   */\n      0x00\n        /* \"#utility.yul\":3785:3788   */\n      0xe0\n        /* \"#utility.yul\":3774:3783   */\n      dup3\n        /* \"#utility.yul\":3770:3789   */\n      add\n        /* \"#utility.yul\":3762:3789   */\n      swap1\n      pop\n        /* \"#utility.yul\":3799:3870   */\n      tag_346\n        /* \"#utility.yul\":3867:3868   */\n      0x00\n        /* \"#utility.yul\":3856:3865   */\n      dup4\n        /* \"#utility.yul\":3852:3869   */\n      add\n        /* \"#utility.yul\":3843:3849   */\n      dup11\n        /* \"#utility.yul\":3799:3870   */\n      tag_228\n      jump\t// in\n    tag_346:\n        /* \"#utility.yul\":3917:3926   */\n      dup2\n        /* \"#utility.yul\":3911:3915   */\n      dup2\n        /* \"#utility.yul\":3907:3927   */\n      sub\n        /* \"#utility.yul\":3902:3904   */\n      0x20\n        /* \"#utility.yul\":3891:3900   */\n      dup4\n        /* \"#utility.yul\":3887:3905   */\n      add\n        /* \"#utility.yul\":3880:3928   */\n      mstore\n        /* \"#utility.yul\":3945:4023   */\n      tag_347\n        /* \"#utility.yul\":4018:4022   */\n      dup2\n        /* \"#utility.yul\":4009:4015   */\n      dup10\n        /* \"#utility.yul\":3945:4023   */\n      tag_233\n      jump\t// in\n    tag_347:\n        /* \"#utility.yul\":3937:4023   */\n      swap1\n      pop\n        /* \"#utility.yul\":4070:4079   */\n      dup2\n        /* \"#utility.yul\":4064:4068   */\n      dup2\n        /* \"#utility.yul\":4060:4080   */\n      sub\n        /* \"#utility.yul\":4055:4057   */\n      0x40\n        /* \"#utility.yul\":4044:4053   */\n      dup4\n        /* \"#utility.yul\":4040:4058   */\n      add\n        /* \"#utility.yul\":4033:4081   */\n      mstore\n        /* \"#utility.yul\":4098:4176   */\n      tag_348\n        /* \"#utility.yul\":4171:4175   */\n      dup2\n        /* \"#utility.yul\":4162:4168   */\n      dup9\n        /* \"#utility.yul\":4098:4176   */\n      tag_233\n      jump\t// in\n    tag_348:\n        /* \"#utility.yul\":4090:4176   */\n      swap1\n      pop\n        /* \"#utility.yul\":4186:4258   */\n      tag_349\n        /* \"#utility.yul\":4254:4256   */\n      0x60\n        /* \"#utility.yul\":4243:4252   */\n      dup4\n        /* \"#utility.yul\":4239:4257   */\n      add\n        /* \"#utility.yul\":4230:4236   */\n      dup8\n        /* \"#utility.yul\":4186:4258   */\n      tag_225\n      jump\t// in\n    tag_349:\n        /* \"#utility.yul\":4268:4341   */\n      tag_350\n        /* \"#utility.yul\":4336:4339   */\n      0x80\n        /* \"#utility.yul\":4325:4334   */\n      dup4\n        /* \"#utility.yul\":4321:4340   */\n      add\n        /* \"#utility.yul\":4312:4318   */\n      dup7\n        /* \"#utility.yul\":4268:4341   */\n      tag_225\n      jump\t// in\n    tag_350:\n        /* \"#utility.yul\":4351:4424   */\n      tag_351\n        /* \"#utility.yul\":4419:4422   */\n      0xa0\n        /* \"#utility.yul\":4408:4417   */\n      dup4\n        /* \"#utility.yul\":4404:4423   */\n      add\n        /* \"#utility.yul\":4395:4401   */\n      dup6\n        /* \"#utility.yul\":4351:4424   */\n      tag_225\n      jump\t// in\n    tag_351:\n        /* \"#utility.yul\":4434:4501   */\n      tag_352\n        /* \"#utility.yul\":4496:4499   */\n      0xc0\n        /* \"#utility.yul\":4485:4494   */\n      dup4\n        /* \"#utility.yul\":4481:4500   */\n      add\n        /* \"#utility.yul\":4472:4478   */\n      dup5\n        /* \"#utility.yul\":4434:4501   */\n      tag_235\n      jump\t// in\n    tag_352:\n        /* \"#utility.yul\":3452:4508   */\n      swap9\n      swap8\n      pop\n      pop\n      pop\n      pop\n      pop\n      pop\n      pop\n      pop\n      jump\t// out\n        /* \"#utility.yul\":4514:4736   */\n    tag_42:\n        /* \"#utility.yul\":4607:4611   */\n      0x00\n        /* \"#utility.yul\":4645:4647   */\n      0x20\n        /* \"#utility.yul\":4634:4643   */\n      dup3\n        /* \"#utility.yul\":4630:4648   */\n      add\n        /* \"#utility.yul\":4622:4648   */\n      swap1\n      pop\n        /* \"#utility.yul\":4658:4729   */\n      tag_354\n        /* \"#utility.yul\":4726:4727   */\n      0x00\n        /* \"#utility.yul\":4715:4724   */\n      dup4\n        /* \"#utility.yul\":4711:4728   */\n      add\n        /* \"#utility.yul\":4702:4708   */\n      dup5\n        /* \"#utility.yul\":4658:4729   */\n      tag_225\n      jump\t// in\n    tag_354:\n        /* \"#utility.yul\":4514:4736   */\n      swap3\n      swap2\n      pop\n      pop\n      jump\t// out\n        /* \"#utility.yul\":4742:4864   */\n    tag_236:\n        /* \"#utility.yul\":4815:4839   */\n      tag_356\n        /* \"#utility.yul\":4833:4838   */\n      dup2\n        /* \"#utility.yul\":4815:4839   */\n      tag_227\n      jump\t// in\n    tag_356:\n        /* \"#utility.yul\":4808:4813   */\n      dup2\n        /* \"#utility.yul\":4805:4840   */\n      eq\n        /* \"#utility.yul\":4795:4858   */\n      tag_357\n      jumpi\n        /* \"#utility.yul\":4854:4855   */\n      0x00\n        /* \"#utility.yul\":4851:4852   */\n      0x00\n        /* \"#utility.yul\":4844:4856   */\n      revert\n        /* \"#utility.yul\":4795:4858   */\n    tag_357:\n        /* \"#utility.yul\":4742:4864   */\n      pop\n      jump\t// out\n        /* \"#utility.yul\":4870:5009   */\n    tag_237:\n        /* \"#utility.yul\":4916:4921   */\n      0x00\n        /* \"#utility.yul\":4954:4960   */\n      dup2\n        /* \"#utility.yul\":4941:4961   */\n      calldataload\n        /* \"#utility.yul\":4932:4961   */\n      swap1\n      pop\n        /* \"#utility.yul\":4970:5003   */\n      tag_359\n        /* \"#utility.yul\":4997:5002   */\n      dup2\n        /* \"#utility.yul\":4970:5003   */\n      tag_236\n      jump\t// in\n    tag_359:\n        /* \"#utility.yul\":4870:5009   */\n      swap3\n      swap2\n      pop\n      pop\n      jump\t// out\n        /* \"#utility.yul\":5015:5489   */\n    tag_58:\n        /* \"#utility.yul\":5083:5089   */\n      0x00\n        /* \"#utility.yul\":5091:5097   */\n      0x00\n        /* \"#utility.yul\":5140:5142   */\n      0x40\n        /* \"#utility.yul\":5128:5137   */\n      dup4\n        /* \"#utility.yul\":5119:5126   */\n      dup6\n        /* \"#utility.yul\":5115:5138   */\n      sub\n        /* \"#utility.yul\":5111:5143   */\n      slt\n        /* \"#utility.yul\":5108:5227   */\n      iszero\n      tag_361\n      jumpi\n        /* \"#utility.yul\":5146:5225   */\n      tag_362\n      tag_220\n      jump\t// in\n    tag_362:\n        /* \"#utility.yul\":5108:5227   */\n    tag_361:\n        /* \"#utility.yul\":5266:5267   */\n      0x00\n        /* \"#utility.yul\":5291:5344   */\n      tag_363\n        /* \"#utility.yul\":5336:5343   */\n      dup6\n        /* \"#utility.yul\":5327:5333   */\n      dup3\n        /* \"#utility.yul\":5316:5325   */\n      dup7\n        /* \"#utility.yul\":5312:5334   */\n      add\n        /* \"#utility.yul\":5291:5344   */\n      tag_224\n      jump\t// in\n    tag_363:\n        /* \"#utility.yul\":5281:5344   */\n      swap3\n      pop\n        /* \"#utility.yul\":5237:5354   */\n      pop\n        /* \"#utility.yul\":5393:5395   */\n      0x20\n        /* \"#utility.yul\":5419:5472   */\n      tag_364\n        /* \"#utility.yul\":5464:5471   */\n      dup6\n        /* \"#utility.yul\":5455:5461   */\n      dup3\n        /* \"#utility.yul\":5444:5453   */\n      dup7\n        /* \"#utility.yul\":5440:5462   */\n      add\n        /* \"#utility.yul\":5419:5472   */\n      tag_237\n      jump\t// in\n    tag_364:\n        /* \"#utility.yul\":5409:5472   */\n      swap2\n      pop\n        /* \"#utility.yul\":5364:5482   */\n      pop\n        /* \"#utility.yul\":5015:5489   */\n      swap3\n      pop\n      swap3\n      swap1\n      pop\n      jump\t// out\n        /* \"#utility.yul\":5495:5612   */\n    tag_238:\n        /* \"#utility.yul\":5604:5605   */\n      0x00\n        /* \"#utility.yul\":5601:5602   */\n      0x00\n        /* \"#utility.yul\":5594:5606   */\n      revert\n        /* \"#utility.yul\":5618:5735   */\n    tag_239:\n        /* \"#utility.yul\":5727:5728   */\n      0x00\n        /* \"#utility.yul\":5724:5725   */\n      0x00\n        /* \"#utility.yul\":5717:5729   */\n      revert\n        /* \"#utility.yul\":5741:5921   */\n    tag_240:\n        /* \"#utility.yul\":5789:5866   */\n      0x4e487b7100000000000000000000000000000000000000000000000000000000\n        /* \"#utility.yul\":5786:5787   */\n      0x00\n        /* \"#utility.yul\":5779:5867   */\n      mstore\n        /* \"#utility.yul\":5886:5890   */\n      0x41\n        /* \"#utility.yul\":5883:5884   */\n      0x04\n        /* \"#utility.yul\":5876:5891   */\n      mstore\n        /* \"#utility.yul\":5910:5914   */\n      0x24\n        /* \"#utility.yul\":5907:5908   */\n      0x00\n        /* \"#utility.yul\":5900:5915   */\n      revert\n        /* \"#utility.yul\":5927:6208   */\n    tag_241:\n        /* \"#utility.yul\":6010:6037   */\n      tag_369\n        /* \"#utility.yul\":6032:6036   */\n      dup3\n        /* \"#utility.yul\":6010:6037   */\n      tag_232\n      jump\t// in\n    tag_369:\n        /* \"#utility.yul\":6002:6008   */\n      dup2\n        /* \"#utility.yul\":5998:6038   */\n      add\n        /* \"#utility.yul\":6140:6146   */\n      dup2\n        /* \"#utility.yul\":6128:6138   */\n      dup2\n        /* \"#utility.yul\":6125:6147   */\n      lt\n        /* \"#utility.yul\":6104:6122   */\n      0xffffffffffffffff\n        /* \"#utility.yul\":6092:6102   */\n      dup3\n        /* \"#utility.yul\":6089:6123   */\n      gt\n        /* \"#utility.yul\":6086:6148   */\n      or\n        /* \"#utility.yul\":6083:6171   */\n      iszero\n      tag_370\n      jumpi\n        /* \"#utility.yul\":6151:6169   */\n      tag_371\n      tag_240\n      jump\t// in\n    tag_371:\n        /* \"#utility.yul\":6083:6171   */\n    tag_370:\n        /* \"#utility.yul\":6191:6201   */\n      dup1\n        /* \"#utility.yul\":6187:6189   */\n      0x40\n        /* \"#utility.yul\":6180:6202   */\n      mstore\n        /* \"#utility.yul\":5970:6208   */\n      pop\n        /* \"#utility.yul\":5927:6208   */\n      pop\n      pop\n      jump\t// out\n        /* \"#utility.yul\":6214:6343   */\n    tag_242:\n        /* \"#utility.yul\":6248:6254   */\n      0x00\n        /* \"#utility.yul\":6275:6295   */\n      tag_373\n      tag_219\n      jump\t// in\n    tag_373:\n        /* \"#utility.yul\":6265:6295   */\n      swap1\n      pop\n        /* \"#utility.yul\":6304:6337   */\n      tag_374\n        /* \"#utility.yul\":6332:6336   */\n      dup3\n        /* \"#utility.yul\":6324:6330   */\n      dup3\n        /* \"#utility.yul\":6304:6337   */\n      tag_241\n      jump\t// in\n    tag_374:\n        /* \"#utility.yul\":6214:6343   */\n      swap2\n      swap1\n      pop\n      jump\t// out\n        /* \"#utility.yul\":6349:6657   */\n    tag_243:\n        /* \"#utility.yul\":6411:6415   */\n      0x00\n        /* \"#utility.yul\":6501:6519   */\n      0xffffffffffffffff\n        /* \"#utility.yul\":6493:6499   */\n      dup3\n        /* \"#utility.yul\":6490:6520   */\n      gt\n        /* \"#utility.yul\":6487:6543   */\n      iszero\n      tag_376\n      jumpi\n        /* \"#utility.yul\":6523:6541   */\n      tag_377\n      tag_240\n      jump\t// in\n    tag_377:\n        /* \"#utility.yul\":6487:6543   */\n    tag_376:\n        /* \"#utility.yul\":6561:6590   */\n      tag_378\n        /* \"#utility.yul\":6583:6589   */\n      dup3\n        /* \"#utility.yul\":6561:6590   */\n      tag_232\n      jump\t// in\n    tag_378:\n        /* \"#utility.yul\":6553:6590   */\n      swap1\n      pop\n        /* \"#utility.yul\":6645:6649   */\n      0x20\n        /* \"#utility.yul\":6639:6643   */\n      dup2\n        /* \"#utility.yul\":6635:6650   */\n      add\n        /* \"#utility.yul\":6627:6650   */\n      swap1\n      pop\n        /* \"#utility.yul\":6349:6657   */\n      swap2\n      swap1\n      pop\n      jump\t// out\n        /* \"#utility.yul\":6663:6811   */\n    tag_244:\n        /* \"#utility.yul\":6761:6767   */\n      dup3\n        /* \"#utility.yul\":6756:6759   */\n      dup2\n        /* \"#utility.yul\":6751:6754   */\n      dup4\n        /* \"#utility.yul\":6738:6768   */\n      calldatacopy\n        /* \"#utility.yul\":6802:6803   */\n      0x00\n        /* \"#utility.yul\":6793:6799   */\n      dup4\n        /* \"#utility.yul\":6788:6791   */\n      dup4\n        /* \"#utility.yul\":6784:6800   */\n      add\n        /* \"#utility.yul\":6777:6804   */\n      mstore\n        /* \"#utility.yul\":6663:6811   */\n      pop\n      pop\n      pop\n      jump\t// out\n        /* \"#utility.yul\":6817:7242   */\n    tag_245:\n        /* \"#utility.yul\":6895:6900   */\n      0x00\n        /* \"#utility.yul\":6920:6986   */\n      tag_381\n        /* \"#utility.yul\":6936:6985   */\n      tag_382\n        /* \"#utility.yul\":6978:6984   */\n      dup5\n        /* \"#utility.yul\":6936:6985   */\n      tag_243\n      jump\t// in\n    tag_382:\n        /* \"#utility.yul\":6920:6986   */\n      tag_242\n      jump\t// in\n    tag_381:\n        /* \"#utility.yul\":6911:6986   */\n      swap1\n      pop\n        /* \"#utility.yul\":7009:7015   */\n      dup3\n        /* \"#utility.yul\":7002:7007   */\n      dup2\n        /* \"#utility.yul\":6995:7016   */\n      mstore\n        /* \"#utility.yul\":7047:7051   */\n      0x20\n        /* \"#utility.yul\":7040:7045   */\n      dup2\n        /* \"#utility.yul\":7036:7052   */\n      add\n        /* \"#utility.yul\":7085:7088   */\n      dup5\n        /* \"#utility.yul\":7076:7082   */\n      dup5\n        /* \"#utility.yul\":7071:7074   */\n      dup5\n        /* \"#utility.yul\":7067:7083   */\n      add\n        /* \"#utility.yul\":7064:7089   */\n      gt\n        /* \"#utility.yul\":7061:7173   */\n      iszero\n      tag_383\n      jumpi\n        /* \"#utility.yul\":7092:7171   */\n      tag_384\n      tag_239\n      jump\t// in\n    tag_384:\n        /* \"#utility.yul\":7061:7173   */\n    tag_383:\n        /* \"#utility.yul\":7182:7236   */\n      tag_385\n        /* \"#utility.yul\":7229:7235   */\n      dup5\n        /* \"#utility.yul\":7224:7227   */\n      dup3\n        /* \"#utility.yul\":7219:7222   */\n      dup6\n        /* \"#utility.yul\":7182:7236   */\n      tag_244\n      jump\t// in\n    tag_385:\n        /* \"#utility.yul\":6901:7242   */\n      pop\n        /* \"#utility.yul\":6817:7242   */\n      swap4\n      swap3\n      pop\n      pop\n      pop\n      jump\t// out\n        /* \"#utility.yul\":7262:7602   */\n    tag_246:\n        /* \"#utility.yul\":7318:7323   */\n      0x00\n        /* \"#utility.yul\":7367:7370   */\n      dup3\n        /* \"#utility.yul\":7360:7364   */\n      0x1f\n        /* \"#utility.yul\":7352:7358   */\n      dup4\n        /* \"#utility.yul\":7348:7365   */\n      add\n        /* \"#utility.yul\":7344:7371   */\n      slt\n        /* \"#utility.yul\":7334:7456   */\n      tag_387\n      jumpi\n        /* \"#utility.yul\":7375:7454   */\n      tag_388\n      tag_238\n      jump\t// in\n    tag_388:\n        /* \"#utility.yul\":7334:7456   */\n    tag_387:\n        /* \"#utility.yul\":7492:7498   */\n      dup2\n        /* \"#utility.yul\":7479:7499   */\n      calldataload\n        /* \"#utility.yul\":7517:7596   */\n      tag_389\n        /* \"#utility.yul\":7592:7595   */\n      dup5\n        /* \"#utility.yul\":7584:7590   */\n      dup3\n        /* \"#utility.yul\":7577:7581   */\n      0x20\n        /* \"#utility.yul\":7569:7575   */\n      dup7\n        /* \"#utility.yul\":7565:7582   */\n      add\n        /* \"#utility.yul\":7517:7596   */\n      tag_245\n      jump\t// in\n    tag_389:\n        /* \"#utility.yul\":7508:7596   */\n      swap2\n      pop\n        /* \"#utility.yul\":7324:7602   */\n      pop\n        /* \"#utility.yul\":7262:7602   */\n      swap3\n      swap2\n      pop\n      pop\n      jump\t// out\n        /* \"#utility.yul\":7608:8879   */\n    tag_81:\n        /* \"#utility.yul\":7723:7729   */\n      0x00\n        /* \"#utility.yul\":7731:7737   */\n      0x00\n        /* \"#utility.yul\":7739:7745   */\n      0x00\n        /* \"#utility.yul\":7747:7753   */\n      0x00\n        /* \"#utility.yul\":7755:7761   */\n      0x00\n        /* \"#utility.yul\":7804:7807   */\n      0xa0\n        /* \"#utility.yul\":7792:7801   */\n      dup7\n        /* \"#utility.yul\":7783:7790   */\n      dup9\n        /* \"#utility.yul\":7779:7802   */\n      sub\n        /* \"#utility.yul\":7775:7808   */\n      slt\n        /* \"#utility.yul\":7772:7892   */\n      iszero\n      tag_391\n      jumpi\n        /* \"#utility.yul\":7811:7890   */\n      tag_392\n      tag_220\n      jump\t// in\n    tag_392:\n        /* \"#utility.yul\":7772:7892   */\n    tag_391:\n        /* \"#utility.yul\":7959:7960   */\n      0x00\n        /* \"#utility.yul\":7948:7957   */\n      dup7\n        /* \"#utility.yul\":7944:7961   */\n      add\n        /* \"#utility.yul\":7931:7962   */\n      calldataload\n        /* \"#utility.yul\":7989:8007   */\n      0xffffffffffffffff\n        /* \"#utility.yul\":7981:7987   */\n      dup2\n        /* \"#utility.yul\":7978:8008   */\n      gt\n        /* \"#utility.yul\":7975:8092   */\n      iszero\n      tag_393\n      jumpi\n        /* \"#utility.yul\":8011:8090   */\n      tag_394\n      tag_221\n      jump\t// in\n    tag_394:\n        /* \"#utility.yul\":7975:8092   */\n    tag_393:\n        /* \"#utility.yul\":8116:8179   */\n      tag_395\n        /* \"#utility.yul\":8171:8178   */\n      dup9\n        /* \"#utility.yul\":8162:8168   */\n      dup3\n        /* \"#utility.yul\":8151:8160   */\n      dup10\n        /* \"#utility.yul\":8147:8169   */\n      add\n        /* \"#utility.yul\":8116:8179   */\n      tag_246\n      jump\t// in\n    tag_395:\n        /* \"#utility.yul\":8106:8179   */\n      swap6\n      pop\n        /* \"#utility.yul\":7902:8189   */\n      pop\n        /* \"#utility.yul\":8256:8258   */\n      0x20\n        /* \"#utility.yul\":8245:8254   */\n      dup7\n        /* \"#utility.yul\":8241:8259   */\n      add\n        /* \"#utility.yul\":8228:8260   */\n      calldataload\n        /* \"#utility.yul\":8287:8305   */\n      0xffffffffffffffff\n        /* \"#utility.yul\":8279:8285   */\n      dup2\n        /* \"#utility.yul\":8276:8306   */\n      gt\n        /* \"#utility.yul\":8273:8390   */\n      iszero\n      tag_396\n      jumpi\n        /* \"#utility.yul\":8309:8388   */\n      tag_397\n      tag_221\n      jump\t// in\n    tag_397:\n        /* \"#utility.yul\":8273:8390   */\n    tag_396:\n        /* \"#utility.yul\":8414:8477   */\n      tag_398\n        /* \"#utility.yul\":8469:8476   */\n      dup9\n        /* \"#utility.yul\":8460:8466   */\n      dup3\n        /* \"#utility.yul\":8449:8458   */\n      dup10\n        /* \"#utility.yul\":8445:8467   */\n      add\n        /* \"#utility.yul\":8414:8477   */\n      tag_246\n      jump\t// in\n    tag_398:\n        /* \"#utility.yul\":8404:8477   */\n      swap5\n      pop\n        /* \"#utility.yul\":8199:8487   */\n      pop\n        /* \"#utility.yul\":8526:8528   */\n      0x40\n        /* \"#utility.yul\":8552:8605   */\n      tag_399\n        /* \"#utility.yul\":8597:8604   */\n      dup9\n        /* \"#utility.yul\":8588:8594   */\n      dup3\n        /* \"#utility.yul\":8577:8586   */\n      dup10\n        /* \"#utility.yul\":8573:8595   */\n      add\n        /* \"#utility.yul\":8552:8605   */\n      tag_224\n      jump\t// in\n    tag_399:\n        /* \"#utility.yul\":8542:8605   */\n      swap4\n      pop\n        /* \"#utility.yul\":8497:8615   */\n      pop\n        /* \"#utility.yul\":8654:8656   */\n      0x60\n        /* \"#utility.yul\":8680:8733   */\n      tag_400\n        /* \"#utility.yul\":8725:8732   */\n      dup9\n        /* \"#utility.yul\":8716:8722   */\n      dup3\n        /* \"#utility.yul\":8705:8714   */\n      dup10\n        /* \"#utility.yul\":8701:8723   */\n      add\n        /* \"#utility.yul\":8680:8733   */\n      tag_224\n      jump\t// in\n    tag_400:\n        /* \"#utility.yul\":8670:8733   */\n      swap3\n      pop\n        /* \"#utility.yul\":8625:8743   */\n      pop\n        /* \"#utility.yul\":8782:8785   */\n      0x80\n        /* \"#utility.yul\":8809:8862   */\n      tag_401\n        /* \"#utility.yul\":8854:8861   */\n      dup9\n        /* \"#utility.yul\":8845:8851   */\n      dup3\n        /* \"#utility.yul\":8834:8843   */\n      dup10\n        /* \"#utility.yul\":8830:8852   */\n      add\n        /* \"#utility.yul\":8809:8862   */\n      tag_224\n      jump\t// in\n    tag_401:\n        /* \"#utility.yul\":8799:8862   */\n      swap2\n      pop\n        /* \"#utility.yul\":8753:8872   */\n      pop\n        /* \"#utility.yul\":7608:8879   */\n      swap3\n      swap6\n      pop\n      swap3\n      swap6\n      swap1\n      swap4\n      pop\n      jump\t// out\n        /* \"#utility.yul\":8885:9105   */\n    tag_247:\n        /* \"#utility.yul\":9025:9059   */\n      0x70726f6a65637420686173206e6f74206265656e206372656174656420796574\n        /* \"#utility.yul\":9021:9022   */\n      0x00\n        /* \"#utility.yul\":9013:9019   */\n      dup3\n        /* \"#utility.yul\":9009:9023   */\n      add\n        /* \"#utility.yul\":9002:9060   */\n      mstore\n        /* \"#utility.yul\":9094:9097   */\n      0x2100000000000000000000000000000000000000000000000000000000000000\n        /* \"#utility.yul\":9089:9091   */\n      0x20\n        /* \"#utility.yul\":9081:9087   */\n      dup3\n        /* \"#utility.yul\":9077:9092   */\n      add\n        /* \"#utility.yul\":9070:9098   */\n      mstore\n        /* \"#utility.yul\":8885:9105   */\n      pop\n      jump\t// out\n        /* \"#utility.yul\":9111:9477   */\n    tag_248:\n        /* \"#utility.yul\":9253:9256   */\n      0x00\n        /* \"#utility.yul\":9274:9341   */\n      tag_404\n        /* \"#utility.yul\":9338:9340   */\n      0x21\n        /* \"#utility.yul\":9333:9336   */\n      dup4\n        /* \"#utility.yul\":9274:9341   */\n      tag_230\n      jump\t// in\n    tag_404:\n        /* \"#utility.yul\":9267:9341   */\n      swap2\n      pop\n        /* \"#utility.yul\":9350:9443   */\n      tag_405\n        /* \"#utility.yul\":9439:9442   */\n      dup3\n        /* \"#utility.yul\":9350:9443   */\n      tag_247\n      jump\t// in\n    tag_405:\n        /* \"#utility.yul\":9468:9470   */\n      0x40\n        /* \"#utility.yul\":9463:9466   */\n      dup3\n        /* \"#utility.yul\":9459:9471   */\n      add\n        /* \"#utility.yul\":9452:9471   */\n      swap1\n      pop\n        /* \"#utility.yul\":9111:9477   */\n      swap2\n      swap1\n      pop\n      jump\t// out\n        /* \"#utility.yul\":9483:9902   */\n    tag_86:\n        /* \"#utility.yul\":9649:9653   */\n      0x00\n        /* \"#utility.yul\":9687:9689   */\n      0x20\n        /* \"#utility.yul\":9676:9685   */\n      dup3\n        /* \"#utility.yul\":9672:9690   */\n      add\n        /* \"#utility.yul\":9664:9690   */\n      swap1\n      pop\n        /* \"#utility.yul\":9736:9745   */\n      dup2\n        /* \"#utility.yul\":9730:9734   */\n      dup2\n        /* \"#utility.yul\":9726:9746   */\n      sub\n        /* \"#utility.yul\":9722:9723   */\n      0x00\n        /* \"#utility.yul\":9711:9720   */\n      dup4\n        /* \"#utility.yul\":9707:9724   */\n      add\n        /* \"#utility.yul\":9700:9747   */\n      mstore\n        /* \"#utility.yul\":9764:9895   */\n      tag_407\n        /* \"#utility.yul\":9890:9894   */\n      dup2\n        /* \"#utility.yul\":9764:9895   */\n      tag_248\n      jump\t// in\n    tag_407:\n        /* \"#utility.yul\":9756:9895   */\n      swap1\n      pop\n        /* \"#utility.yul\":9483:9902   */\n      swap2\n      swap1\n      pop\n      jump\t// out\n        /* \"#utility.yul\":9908:10088   */\n    tag_249:\n        /* \"#utility.yul\":9956:10033   */\n      0x4e487b7100000000000000000000000000000000000000000000000000000000\n        /* \"#utility.yul\":9953:9954   */\n      0x00\n        /* \"#utility.yul\":9946:10034   */\n      mstore\n        /* \"#utility.yul\":10053:10057   */\n      0x11\n        /* \"#utility.yul\":10050:10051   */\n      0x04\n        /* \"#utility.yul\":10043:10058   */\n      mstore\n        /* \"#utility.yul\":10077:10081   */\n      0x24\n        /* \"#utility.yul\":10074:10075   */\n      0x00\n        /* \"#utility.yul\":10067:10082   */\n      revert\n        /* \"#utility.yul\":10094:10288   */\n    tag_90:\n        /* \"#utility.yul\":10134:10138   */\n      0x00\n        /* \"#utility.yul\":10154:10174   */\n      tag_410\n        /* \"#utility.yul\":10172:10173   */\n      dup3\n        /* \"#utility.yul\":10154:10174   */\n      tag_222\n      jump\t// in\n    tag_410:\n        /* \"#utility.yul\":10149:10174   */\n      swap2\n      pop\n        /* \"#utility.yul\":10188:10208   */\n      tag_411\n        /* \"#utility.yul\":10206:10207   */\n      dup4\n        /* \"#utility.yul\":10188:10208   */\n      tag_222\n      jump\t// in\n    tag_411:\n        /* \"#utility.yul\":10183:10208   */\n      swap3\n      pop\n        /* \"#utility.yul\":10232:10233   */\n      dup3\n        /* \"#utility.yul\":10229:10230   */\n      dup3\n        /* \"#utility.yul\":10225:10234   */\n      sub\n        /* \"#utility.yul\":10217:10234   */\n      swap1\n      pop\n        /* \"#utility.yul\":10256:10257   */\n      dup2\n        /* \"#utility.yul\":10250:10254   */\n      dup2\n        /* \"#utility.yul\":10247:10258   */\n      gt\n        /* \"#utility.yul\":10244:10281   */\n      iszero\n      tag_412\n      jumpi\n        /* \"#utility.yul\":10261:10279   */\n      tag_413\n      tag_249\n      jump\t// in\n    tag_413:\n        /* \"#utility.yul\":10244:10281   */\n    tag_412:\n        /* \"#utility.yul\":10094:10288   */\n      swap3\n      swap2\n      pop\n      pop\n      jump\t// out\n        /* \"#utility.yul\":10294:10536   */\n    tag_250:\n        /* \"#utility.yul\":10434:10468   */\n      0x446561646c696e65206973206f766572202c20796f752043616e277420636861\n        /* \"#utility.yul\":10430:10431   */\n      0x00\n        /* \"#utility.yul\":10422:10428   */\n      dup3\n        /* \"#utility.yul\":10418:10432   */\n      add\n        /* \"#utility.yul\":10411:10469   */\n      mstore\n        /* \"#utility.yul\":10503:10528   */\n      0x6e6765207468652066756e64696e6720676f616c202121000000000000000000\n        /* \"#utility.yul\":10498:10500   */\n      0x20\n        /* \"#utility.yul\":10490:10496   */\n      dup3\n        /* \"#utility.yul\":10486:10501   */\n      add\n        /* \"#utility.yul\":10479:10529   */\n      mstore\n        /* \"#utility.yul\":10294:10536   */\n      pop\n      jump\t// out\n        /* \"#utility.yul\":10542:10908   */\n    tag_251:\n        /* \"#utility.yul\":10684:10687   */\n      0x00\n        /* \"#utility.yul\":10705:10772   */\n      tag_416\n        /* \"#utility.yul\":10769:10771   */\n      0x37\n        /* \"#utility.yul\":10764:10767   */\n      dup4\n        /* \"#utility.yul\":10705:10772   */\n      tag_230\n      jump\t// in\n    tag_416:\n        /* \"#utility.yul\":10698:10772   */\n      swap2\n      pop\n        /* \"#utility.yul\":10781:10874   */\n      tag_417\n        /* \"#utility.yul\":10870:10873   */\n      dup3\n        /* \"#utility.yul\":10781:10874   */\n      tag_250\n      jump\t// in\n    tag_417:\n        /* \"#utility.yul\":10899:10901   */\n      0x40\n        /* \"#utility.yul\":10894:10897   */\n      dup3\n        /* \"#utility.yul\":10890:10902   */\n      add\n        /* \"#utility.yul\":10883:10902   */\n      swap1\n      pop\n        /* \"#utility.yul\":10542:10908   */\n      swap2\n      swap1\n      pop\n      jump\t// out\n        /* \"#utility.yul\":10914:11333   */\n    tag_94:\n        /* \"#utility.yul\":11080:11084   */\n      0x00\n        /* \"#utility.yul\":11118:11120   */\n      0x20\n        /* \"#utility.yul\":11107:11116   */\n      dup3\n        /* \"#utility.yul\":11103:11121   */\n      add\n        /* \"#utility.yul\":11095:11121   */\n      swap1\n      pop\n        /* \"#utility.yul\":11167:11176   */\n      dup2\n        /* \"#utility.yul\":11161:11165   */\n      dup2\n        /* \"#utility.yul\":11157:11177   */\n      sub\n        /* \"#utility.yul\":11153:11154   */\n      0x00\n        /* \"#utility.yul\":11142:11151   */\n      dup4\n        /* \"#utility.yul\":11138:11155   */\n      add\n        /* \"#utility.yul\":11131:11178   */\n      mstore\n        /* \"#utility.yul\":11195:11326   */\n      tag_419\n        /* \"#utility.yul\":11321:11325   */\n      dup2\n        /* \"#utility.yul\":11195:11326   */\n      tag_251\n      jump\t// in\n    tag_419:\n        /* \"#utility.yul\":11187:11326   */\n      swap1\n      pop\n        /* \"#utility.yul\":10914:11333   */\n      swap2\n      swap1\n      pop\n      jump\t// out\n        /* \"#utility.yul\":11339:11631   */\n    tag_252:\n        /* \"#utility.yul\":11479:11513   */\n      0x596f7520617265206e6f74207468652070726f6a6563742063726561746f7220\n        /* \"#utility.yul\":11475:11476   */\n      0x00\n        /* \"#utility.yul\":11467:11473   */\n      dup3\n        /* \"#utility.yul\":11463:11477   */\n      add\n        /* \"#utility.yul\":11456:11514   */\n      mstore\n        /* \"#utility.yul\":11548:11582   */\n      0x2c204f6e6c7920506f726a6563742063726561746f722063616e204368616e67\n        /* \"#utility.yul\":11543:11545   */\n      0x20\n        /* \"#utility.yul\":11535:11541   */\n      dup3\n        /* \"#utility.yul\":11531:11546   */\n      add\n        /* \"#utility.yul\":11524:11583   */\n      mstore\n        /* \"#utility.yul\":11617:11623   */\n      0x6520212100000000000000000000000000000000000000000000000000000000\n        /* \"#utility.yul\":11612:11614   */\n      0x40\n        /* \"#utility.yul\":11604:11610   */\n      dup3\n        /* \"#utility.yul\":11600:11615   */\n      add\n        /* \"#utility.yul\":11593:11624   */\n      mstore\n        /* \"#utility.yul\":11339:11631   */\n      pop\n      jump\t// out\n        /* \"#utility.yul\":11637:12003   */\n    tag_253:\n        /* \"#utility.yul\":11779:11782   */\n      0x00\n        /* \"#utility.yul\":11800:11867   */\n      tag_422\n        /* \"#utility.yul\":11864:11866   */\n      0x44\n        /* \"#utility.yul\":11859:11862   */\n      dup4\n        /* \"#utility.yul\":11800:11867   */\n      tag_230\n      jump\t// in\n    tag_422:\n        /* \"#utility.yul\":11793:11867   */\n      swap2\n      pop\n        /* \"#utility.yul\":11876:11969   */\n      tag_423\n        /* \"#utility.yul\":11965:11968   */\n      dup3\n        /* \"#utility.yul\":11876:11969   */\n      tag_252\n      jump\t// in\n    tag_423:\n        /* \"#utility.yul\":11994:11996   */\n      0x60\n        /* \"#utility.yul\":11989:11992   */\n      dup3\n        /* \"#utility.yul\":11985:11997   */\n      add\n        /* \"#utility.yul\":11978:11997   */\n      swap1\n      pop\n        /* \"#utility.yul\":11637:12003   */\n      swap2\n      swap1\n      pop\n      jump\t// out\n        /* \"#utility.yul\":12009:12428   */\n    tag_97:\n        /* \"#utility.yul\":12175:12179   */\n      0x00\n        /* \"#utility.yul\":12213:12215   */\n      0x20\n        /* \"#utility.yul\":12202:12211   */\n      dup3\n        /* \"#utility.yul\":12198:12216   */\n      add\n        /* \"#utility.yul\":12190:12216   */\n      swap1\n      pop\n        /* \"#utility.yul\":12262:12271   */\n      dup2\n        /* \"#utility.yul\":12256:12260   */\n      dup2\n        /* \"#utility.yul\":12252:12272   */\n      sub\n        /* \"#utility.yul\":12248:12249   */\n      0x00\n        /* \"#utility.yul\":12237:12246   */\n      dup4\n        /* \"#utility.yul\":12233:12250   */\n      add\n        /* \"#utility.yul\":12226:12273   */\n      mstore\n        /* \"#utility.yul\":12290:12421   */\n      tag_425\n        /* \"#utility.yul\":12416:12420   */\n      dup2\n        /* \"#utility.yul\":12290:12421   */\n      tag_253\n      jump\t// in\n    tag_425:\n        /* \"#utility.yul\":12282:12421   */\n      swap1\n      pop\n        /* \"#utility.yul\":12009:12428   */\n      swap2\n      swap1\n      pop\n      jump\t// out\n        /* \"#utility.yul\":12434:12614   */\n    tag_254:\n        /* \"#utility.yul\":12482:12559   */\n      0x4e487b7100000000000000000000000000000000000000000000000000000000\n        /* \"#utility.yul\":12479:12480   */\n      0x00\n        /* \"#utility.yul\":12472:12560   */\n      mstore\n        /* \"#utility.yul\":12579:12583   */\n      0x22\n        /* \"#utility.yul\":12576:12577   */\n      0x04\n        /* \"#utility.yul\":12569:12584   */\n      mstore\n        /* \"#utility.yul\":12603:12607   */\n      0x24\n        /* \"#utility.yul\":12600:12601   */\n      0x00\n        /* \"#utility.yul\":12593:12608   */\n      revert\n        /* \"#utility.yul\":12620:12940   */\n    tag_99:\n        /* \"#utility.yul\":12664:12670   */\n      0x00\n        /* \"#utility.yul\":12701:12702   */\n      0x02\n        /* \"#utility.yul\":12695:12699   */\n      dup3\n        /* \"#utility.yul\":12691:12703   */\n      div\n        /* \"#utility.yul\":12681:12703   */\n      swap1\n      pop\n        /* \"#utility.yul\":12748:12749   */\n      0x01\n        /* \"#utility.yul\":12742:12746   */\n      dup3\n        /* \"#utility.yul\":12738:12750   */\n      and\n        /* \"#utility.yul\":12769:12787   */\n      dup1\n        /* \"#utility.yul\":12759:12840   */\n      tag_428\n      jumpi\n        /* \"#utility.yul\":12825:12829   */\n      0x7f\n        /* \"#utility.yul\":12817:12823   */\n      dup3\n        /* \"#utility.yul\":12813:12830   */\n      and\n        /* \"#utility.yul\":12803:12830   */\n      swap2\n      pop\n        /* \"#utility.yul\":12759:12840   */\n    tag_428:\n        /* \"#utility.yul\":12887:12889   */\n      0x20\n        /* \"#utility.yul\":12879:12885   */\n      dup3\n        /* \"#utility.yul\":12876:12890   */\n      lt\n        /* \"#utility.yul\":12856:12874   */\n      dup2\n        /* \"#utility.yul\":12853:12891   */\n      sub\n        /* \"#utility.yul\":12850:12934   */\n      tag_429\n      jumpi\n        /* \"#utility.yul\":12906:12924   */\n      tag_430\n      tag_254\n      jump\t// in\n    tag_430:\n        /* \"#utility.yul\":12850:12934   */\n    tag_429:\n        /* \"#utility.yul\":12671:12940   */\n      pop\n        /* \"#utility.yul\":12620:12940   */\n      swap2\n      swap1\n      pop\n      jump\t// out\n        /* \"#utility.yul\":12946:13179   */\n    tag_255:\n        /* \"#utility.yul\":13086:13120   */\n      0x46756e64696e6720676f616c206861732072656163686564202c207573657220\n        /* \"#utility.yul\":13082:13083   */\n      0x00\n        /* \"#utility.yul\":13074:13080   */\n      dup3\n        /* \"#utility.yul\":13070:13084   */\n      add\n        /* \"#utility.yul\":13063:13121   */\n      mstore\n        /* \"#utility.yul\":13155:13171   */\n      0x63616e2774207769746864726177000000000000000000000000000000000000\n        /* \"#utility.yul\":13150:13152   */\n      0x20\n        /* \"#utility.yul\":13142:13148   */\n      dup3\n        /* \"#utility.yul\":13138:13153   */\n      add\n        /* \"#utility.yul\":13131:13172   */\n      mstore\n        /* \"#utility.yul\":12946:13179   */\n      pop\n      jump\t// out\n        /* \"#utility.yul\":13185:13551   */\n    tag_256:\n        /* \"#utility.yul\":13327:13330   */\n      0x00\n        /* \"#utility.yul\":13348:13415   */\n      tag_433\n        /* \"#utility.yul\":13412:13414   */\n      0x2e\n        /* \"#utility.yul\":13407:13410   */\n      dup4\n        /* \"#utility.yul\":13348:13415   */\n      tag_230\n      jump\t// in\n    tag_433:\n        /* \"#utility.yul\":13341:13415   */\n      swap2\n      pop\n        /* \"#utility.yul\":13424:13517   */\n      tag_434\n        /* \"#utility.yul\":13513:13516   */\n      dup3\n        /* \"#utility.yul\":13424:13517   */\n      tag_255\n      jump\t// in\n    tag_434:\n        /* \"#utility.yul\":13542:13544   */\n      0x40\n        /* \"#utility.yul\":13537:13540   */\n      dup3\n        /* \"#utility.yul\":13533:13545   */\n      add\n        /* \"#utility.yul\":13526:13545   */\n      swap1\n      pop\n        /* \"#utility.yul\":13185:13551   */\n      swap2\n      swap1\n      pop\n      jump\t// out\n        /* \"#utility.yul\":13557:13976   */\n    tag_116:\n        /* \"#utility.yul\":13723:13727   */\n      0x00\n        /* \"#utility.yul\":13761:13763   */\n      0x20\n        /* \"#utility.yul\":13750:13759   */\n      dup3\n        /* \"#utility.yul\":13746:13764   */\n      add\n        /* \"#utility.yul\":13738:13764   */\n      swap1\n      pop\n        /* \"#utility.yul\":13810:13819   */\n      dup2\n        /* \"#utility.yul\":13804:13808   */\n      dup2\n        /* \"#utility.yul\":13800:13820   */\n      sub\n        /* \"#utility.yul\":13796:13797   */\n      0x00\n        /* \"#utility.yul\":13785:13794   */\n      dup4\n        /* \"#utility.yul\":13781:13798   */\n      add\n        /* \"#utility.yul\":13774:13821   */\n      mstore\n        /* \"#utility.yul\":13838:13969   */\n      tag_436\n        /* \"#utility.yul\":13964:13968   */\n      dup2\n        /* \"#utility.yul\":13838:13969   */\n      tag_256\n      jump\t// in\n    tag_436:\n        /* \"#utility.yul\":13830:13969   */\n      swap1\n      pop\n        /* \"#utility.yul\":13557:13976   */\n      swap2\n      swap1\n      pop\n      jump\t// out\n        /* \"#utility.yul\":13982:14314   */\n    tag_120:\n        /* \"#utility.yul\":14103:14107   */\n      0x00\n        /* \"#utility.yul\":14141:14143   */\n      0x40\n        /* \"#utility.yul\":14130:14139   */\n      dup3\n        /* \"#utility.yul\":14126:14144   */\n      add\n        /* \"#utility.yul\":14118:14144   */\n      swap1\n      pop\n        /* \"#utility.yul\":14154:14225   */\n      tag_438\n        /* \"#utility.yul\":14222:14223   */\n      0x00\n        /* \"#utility.yul\":14211:14220   */\n      dup4\n        /* \"#utility.yul\":14207:14224   */\n      add\n        /* \"#utility.yul\":14198:14204   */\n      dup6\n        /* \"#utility.yul\":14154:14225   */\n      tag_228\n      jump\t// in\n    tag_438:\n        /* \"#utility.yul\":14235:14307   */\n      tag_439\n        /* \"#utility.yul\":14303:14305   */\n      0x20\n        /* \"#utility.yul\":14292:14301   */\n      dup4\n        /* \"#utility.yul\":14288:14306   */\n      add\n        /* \"#utility.yul\":14279:14285   */\n      dup5\n        /* \"#utility.yul\":14235:14307   */\n      tag_225\n      jump\t// in\n    tag_439:\n        /* \"#utility.yul\":13982:14314   */\n      swap4\n      swap3\n      pop\n      pop\n      pop\n      jump\t// out\n        /* \"#utility.yul\":14320:14730   */\n    tag_123:\n        /* \"#utility.yul\":14360:14367   */\n      0x00\n        /* \"#utility.yul\":14383:14403   */\n      tag_441\n        /* \"#utility.yul\":14401:14402   */\n      dup3\n        /* \"#utility.yul\":14383:14403   */\n      tag_222\n      jump\t// in\n    tag_441:\n        /* \"#utility.yul\":14378:14403   */\n      swap2\n      pop\n        /* \"#utility.yul\":14417:14437   */\n      tag_442\n        /* \"#utility.yul\":14435:14436   */\n      dup4\n        /* \"#utility.yul\":14417:14437   */\n      tag_222\n      jump\t// in\n    tag_442:\n        /* \"#utility.yul\":14412:14437   */\n      swap3\n      pop\n        /* \"#utility.yul\":14472:14473   */\n      dup3\n        /* \"#utility.yul\":14469:14470   */\n      dup3\n        /* \"#utility.yul\":14465:14474   */\n      mul\n        /* \"#utility.yul\":14494:14524   */\n      tag_443\n        /* \"#utility.yul\":14512:14523   */\n      dup2\n        /* \"#utility.yul\":14494:14524   */\n      tag_222\n      jump\t// in\n    tag_443:\n        /* \"#utility.yul\":14483:14524   */\n      swap2\n      pop\n        /* \"#utility.yul\":14673:14674   */\n      dup3\n        /* \"#utility.yul\":14664:14671   */\n      dup3\n        /* \"#utility.yul\":14660:14675   */\n      div\n        /* \"#utility.yul\":14657:14658   */\n      dup5\n        /* \"#utility.yul\":14654:14676   */\n      eq\n        /* \"#utility.yul\":14634:14635   */\n      dup4\n        /* \"#utility.yul\":14627:14636   */\n      iszero\n        /* \"#utility.yul\":14607:14690   */\n      or\n        /* \"#utility.yul\":14584:14723   */\n      tag_444\n      jumpi\n        /* \"#utility.yul\":14703:14721   */\n      tag_445\n      tag_249\n      jump\t// in\n    tag_445:\n        /* \"#utility.yul\":14584:14723   */\n    tag_444:\n        /* \"#utility.yul\":14368:14730   */\n      pop\n        /* \"#utility.yul\":14320:14730   */\n      swap3\n      swap2\n      pop\n      pop\n      jump\t// out\n        /* \"#utility.yul\":14736:14916   */\n    tag_257:\n        /* \"#utility.yul\":14784:14861   */\n      0x4e487b7100000000000000000000000000000000000000000000000000000000\n        /* \"#utility.yul\":14781:14782   */\n      0x00\n        /* \"#utility.yul\":14774:14862   */\n      mstore\n        /* \"#utility.yul\":14881:14885   */\n      0x12\n        /* \"#utility.yul\":14878:14879   */\n      0x04\n        /* \"#utility.yul\":14871:14886   */\n      mstore\n        /* \"#utility.yul\":14905:14909   */\n      0x24\n        /* \"#utility.yul\":14902:14903   */\n      0x00\n        /* \"#utility.yul\":14895:14910   */\n      revert\n        /* \"#utility.yul\":14922:15107   */\n    tag_125:\n        /* \"#utility.yul\":14962:14963   */\n      0x00\n        /* \"#utility.yul\":14979:14999   */\n      tag_448\n        /* \"#utility.yul\":14997:14998   */\n      dup3\n        /* \"#utility.yul\":14979:14999   */\n      tag_222\n      jump\t// in\n    tag_448:\n        /* \"#utility.yul\":14974:14999   */\n      swap2\n      pop\n        /* \"#utility.yul\":15013:15033   */\n      tag_449\n        /* \"#utility.yul\":15031:15032   */\n      dup4\n        /* \"#utility.yul\":15013:15033   */\n      tag_222\n      jump\t// in\n    tag_449:\n        /* \"#utility.yul\":15008:15033   */\n      swap3\n      pop\n        /* \"#utility.yul\":15052:15053   */\n      dup3\n        /* \"#utility.yul\":15042:15077   */\n      tag_450\n      jumpi\n        /* \"#utility.yul\":15057:15075   */\n      tag_451\n      tag_257\n      jump\t// in\n    tag_451:\n        /* \"#utility.yul\":15042:15077   */\n    tag_450:\n        /* \"#utility.yul\":15099:15100   */\n      dup3\n        /* \"#utility.yul\":15096:15097   */\n      dup3\n        /* \"#utility.yul\":15092:15101   */\n      div\n        /* \"#utility.yul\":15087:15101   */\n      swap1\n      pop\n        /* \"#utility.yul\":14922:15107   */\n      swap3\n      swap2\n      pop\n      pop\n      jump\t// out\n        /* \"#utility.yul\":15113:15346   */\n    tag_258:\n        /* \"#utility.yul\":15253:15287   */\n      0x4f6e6c792050726f6a6563742063726561746f722063616e20657874656e6420\n        /* \"#utility.yul\":15249:15250   */\n      0x00\n        /* \"#utility.yul\":15241:15247   */\n      dup3\n        /* \"#utility.yul\":15237:15251   */\n      add\n        /* \"#utility.yul\":15230:15288   */\n      mstore\n        /* \"#utility.yul\":15322:15338   */\n      0x74686520646561646c696e652121000000000000000000000000000000000000\n        /* \"#utility.yul\":15317:15319   */\n      0x20\n        /* \"#utility.yul\":15309:15315   */\n      dup3\n        /* \"#utility.yul\":15305:15320   */\n      add\n        /* \"#utility.yul\":15298:15339   */\n      mstore\n        /* \"#utility.yul\":15113:15346   */\n      pop\n      jump\t// out\n        /* \"#utility.yul\":15352:15718   */\n    tag_259:\n        /* \"#utility.yul\":15494:15497   */\n      0x00\n        /* \"#utility.yul\":15515:15582   */\n      tag_454\n        /* \"#utility.yul\":15579:15581   */\n      0x2e\n        /* \"#utility.yul\":15574:15577   */\n      dup4\n        /* \"#utility.yul\":15515:15582   */\n      tag_230\n      jump\t// in\n    tag_454:\n        /* \"#utility.yul\":15508:15582   */\n      swap2\n      pop\n        /* \"#utility.yul\":15591:15684   */\n      tag_455\n        /* \"#utility.yul\":15680:15683   */\n      dup3\n        /* \"#utility.yul\":15591:15684   */\n      tag_258\n      jump\t// in\n    tag_455:\n        /* \"#utility.yul\":15709:15711   */\n      0x40\n        /* \"#utility.yul\":15704:15707   */\n      dup3\n        /* \"#utility.yul\":15700:15712   */\n      add\n        /* \"#utility.yul\":15693:15712   */\n      swap1\n      pop\n        /* \"#utility.yul\":15352:15718   */\n      swap2\n      swap1\n      pop\n      jump\t// out\n        /* \"#utility.yul\":15724:16143   */\n    tag_130:\n        /* \"#utility.yul\":15890:15894   */\n      0x00\n        /* \"#utility.yul\":15928:15930   */\n      0x20\n        /* \"#utility.yul\":15917:15926   */\n      dup3\n        /* \"#utility.yul\":15913:15931   */\n      add\n        /* \"#utility.yul\":15905:15931   */\n      swap1\n      pop\n        /* \"#utility.yul\":15977:15986   */\n      dup2\n        /* \"#utility.yul\":15971:15975   */\n      dup2\n        /* \"#utility.yul\":15967:15987   */\n      sub\n        /* \"#utility.yul\":15963:15964   */\n      0x00\n        /* \"#utility.yul\":15952:15961   */\n      dup4\n        /* \"#utility.yul\":15948:15965   */\n      add\n        /* \"#utility.yul\":15941:15988   */\n      mstore\n        /* \"#utility.yul\":16005:16136   */\n      tag_457\n        /* \"#utility.yul\":16131:16135   */\n      dup2\n        /* \"#utility.yul\":16005:16136   */\n      tag_259\n      jump\t// in\n    tag_457:\n        /* \"#utility.yul\":15997:16136   */\n      swap1\n      pop\n        /* \"#utility.yul\":15724:16143   */\n      swap2\n      swap1\n      pop\n      jump\t// out\n        /* \"#utility.yul\":16149:16340   */\n    tag_132:\n        /* \"#utility.yul\":16189:16192   */\n      0x00\n        /* \"#utility.yul\":16208:16228   */\n      tag_459\n        /* \"#utility.yul\":16226:16227   */\n      dup3\n        /* \"#utility.yul\":16208:16228   */\n      tag_222\n      jump\t// in\n    tag_459:\n        /* \"#utility.yul\":16203:16228   */\n      swap2\n      pop\n        /* \"#utility.yul\":16242:16262   */\n      tag_460\n        /* \"#utility.yul\":16260:16261   */\n      dup4\n        /* \"#utility.yul\":16242:16262   */\n      tag_222\n      jump\t// in\n    tag_460:\n        /* \"#utility.yul\":16237:16262   */\n      swap3\n      pop\n        /* \"#utility.yul\":16285:16286   */\n      dup3\n        /* \"#utility.yul\":16282:16283   */\n      dup3\n        /* \"#utility.yul\":16278:16287   */\n      add\n        /* \"#utility.yul\":16271:16287   */\n      swap1\n      pop\n        /* \"#utility.yul\":16306:16309   */\n      dup1\n        /* \"#utility.yul\":16303:16304   */\n      dup3\n        /* \"#utility.yul\":16300:16310   */\n      gt\n        /* \"#utility.yul\":16297:16333   */\n      iszero\n      tag_461\n      jumpi\n        /* \"#utility.yul\":16313:16331   */\n      tag_462\n      tag_249\n      jump\t// in\n    tag_462:\n        /* \"#utility.yul\":16297:16333   */\n    tag_461:\n        /* \"#utility.yul\":16149:16340   */\n      swap3\n      swap2\n      pop\n      pop\n      jump\t// out\n        /* \"#utility.yul\":16346:16521   */\n    tag_260:\n        /* \"#utility.yul\":16486:16513   */\n      0x50726f6a65637420646561646c696e65206973206f7665722100000000000000\n        /* \"#utility.yul\":16482:16483   */\n      0x00\n        /* \"#utility.yul\":16474:16480   */\n      dup3\n        /* \"#utility.yul\":16470:16484   */\n      add\n        /* \"#utility.yul\":16463:16514   */\n      mstore\n        /* \"#utility.yul\":16346:16521   */\n      pop\n      jump\t// out\n        /* \"#utility.yul\":16527:16893   */\n    tag_261:\n        /* \"#utility.yul\":16669:16672   */\n      0x00\n        /* \"#utility.yul\":16690:16757   */\n      tag_465\n        /* \"#utility.yul\":16754:16756   */\n      0x19\n        /* \"#utility.yul\":16749:16752   */\n      dup4\n        /* \"#utility.yul\":16690:16757   */\n      tag_230\n      jump\t// in\n    tag_465:\n        /* \"#utility.yul\":16683:16757   */\n      swap2\n      pop\n        /* \"#utility.yul\":16766:16859   */\n      tag_466\n        /* \"#utility.yul\":16855:16858   */\n      dup3\n        /* \"#utility.yul\":16766:16859   */\n      tag_260\n      jump\t// in\n    tag_466:\n        /* \"#utility.yul\":16884:16886   */\n      0x20\n        /* \"#utility.yul\":16879:16882   */\n      dup3\n        /* \"#utility.yul\":16875:16887   */\n      add\n        /* \"#utility.yul\":16868:16887   */\n      swap1\n      pop\n        /* \"#utility.yul\":16527:16893   */\n      swap2\n      swap1\n      pop\n      jump\t// out\n        /* \"#utility.yul\":16899:17318   */\n    tag_139:\n        /* \"#utility.yul\":17065:17069   */\n      0x00\n        /* \"#utility.yul\":17103:17105   */\n      0x20\n        /* \"#utility.yul\":17092:17101   */\n      dup3\n        /* \"#utility.yul\":17088:17106   */\n      add\n        /* \"#utility.yul\":17080:17106   */\n      swap1\n      pop\n        /* \"#utility.yul\":17152:17161   */\n      dup2\n        /* \"#utility.yul\":17146:17150   */\n      dup2\n        /* \"#utility.yul\":17142:17162   */\n      sub\n        /* \"#utility.yul\":17138:17139   */\n      0x00\n        /* \"#utility.yul\":17127:17136   */\n      dup4\n        /* \"#utility.yul\":17123:17140   */\n      add\n        /* \"#utility.yul\":17116:17163   */\n      mstore\n        /* \"#utility.yul\":17180:17311   */\n      tag_468\n        /* \"#utility.yul\":17306:17310   */\n      dup2\n        /* \"#utility.yul\":17180:17311   */\n      tag_261\n      jump\t// in\n    tag_468:\n        /* \"#utility.yul\":17172:17311   */\n      swap1\n      pop\n        /* \"#utility.yul\":16899:17318   */\n      swap2\n      swap1\n      pop\n      jump\t// out\n        /* \"#utility.yul\":17324:17550   */\n    tag_262:\n        /* \"#utility.yul\":17464:17498   */\n      0x50726f6a6563742052656163686564206974732046756e64696e672072657175\n        /* \"#utility.yul\":17460:17461   */\n      0x00\n        /* \"#utility.yul\":17452:17458   */\n      dup3\n        /* \"#utility.yul\":17448:17462   */\n      add\n        /* \"#utility.yul\":17441:17499   */\n      mstore\n        /* \"#utility.yul\":17533:17542   */\n      0x6972656d656e7400000000000000000000000000000000000000000000000000\n        /* \"#utility.yul\":17528:17530   */\n      0x20\n        /* \"#utility.yul\":17520:17526   */\n      dup3\n        /* \"#utility.yul\":17516:17531   */\n      add\n        /* \"#utility.yul\":17509:17543   */\n      mstore\n        /* \"#utility.yul\":17324:17550   */\n      pop\n      jump\t// out\n        /* \"#utility.yul\":17556:17922   */\n    tag_263:\n        /* \"#utility.yul\":17698:17701   */\n      0x00\n        /* \"#utility.yul\":17719:17786   */\n      tag_471\n        /* \"#utility.yul\":17783:17785   */\n      0x27\n        /* \"#utility.yul\":17778:17781   */\n      dup4\n        /* \"#utility.yul\":17719:17786   */\n      tag_230\n      jump\t// in\n    tag_471:\n        /* \"#utility.yul\":17712:17786   */\n      swap2\n      pop\n        /* \"#utility.yul\":17795:17888   */\n      tag_472\n        /* \"#utility.yul\":17884:17887   */\n      dup3\n        /* \"#utility.yul\":17795:17888   */\n      tag_262\n      jump\t// in\n    tag_472:\n        /* \"#utility.yul\":17913:17915   */\n      0x40\n        /* \"#utility.yul\":17908:17911   */\n      dup3\n        /* \"#utility.yul\":17904:17916   */\n      add\n        /* \"#utility.yul\":17897:17916   */\n      swap1\n      pop\n        /* \"#utility.yul\":17556:17922   */\n      swap2\n      swap1\n      pop\n      jump\t// out\n        /* \"#utility.yul\":17928:18347   */\n    tag_142:\n        /* \"#utility.yul\":18094:18098   */\n      0x00\n        /* \"#utility.yul\":18132:18134   */\n      0x20\n        /* \"#utility.yul\":18121:18130   */\n      dup3\n        /* \"#utility.yul\":18117:18135   */\n      add\n        /* \"#utility.yul\":18109:18135   */\n      swap1\n      pop\n        /* \"#utility.yul\":18181:18190   */\n      dup2\n        /* \"#utility.yul\":18175:18179   */\n      dup2\n        /* \"#utility.yul\":18171:18191   */\n      sub\n        /* \"#utility.yul\":18167:18168   */\n      0x00\n        /* \"#utility.yul\":18156:18165   */\n      dup4\n        /* \"#utility.yul\":18152:18169   */\n      add\n        /* \"#utility.yul\":18145:18192   */\n      mstore\n        /* \"#utility.yul\":18209:18340   */\n      tag_474\n        /* \"#utility.yul\":18335:18339   */\n      dup2\n        /* \"#utility.yul\":18209:18340   */\n      tag_263\n      jump\t// in\n    tag_474:\n        /* \"#utility.yul\":18201:18340   */\n      swap1\n      pop\n        /* \"#utility.yul\":17928:18347   */\n      swap2\n      swap1\n      pop\n      jump\t// out\n        /* \"#utility.yul\":18353:18584   */\n    tag_264:\n        /* \"#utility.yul\":18493:18527   */\n      0x73656e6420736f6d6520657468657220746f20636f6e7472696275746520696e\n        /* \"#utility.yul\":18489:18490   */\n      0x00\n        /* \"#utility.yul\":18481:18487   */\n      dup3\n        /* \"#utility.yul\":18477:18491   */\n      add\n        /* \"#utility.yul\":18470:18528   */\n      mstore\n        /* \"#utility.yul\":18562:18576   */\n      0x207468652070726f6a6563740000000000000000000000000000000000000000\n        /* \"#utility.yul\":18557:18559   */\n      0x20\n        /* \"#utility.yul\":18549:18555   */\n      dup3\n        /* \"#utility.yul\":18545:18560   */\n      add\n        /* \"#utility.yul\":18538:18577   */\n      mstore\n        /* \"#utility.yul\":18353:18584   */\n      pop\n      jump\t// out\n        /* \"#utility.yul\":18590:18956   */\n    tag_265:\n        /* \"#utility.yul\":18732:18735   */\n      0x00\n        /* \"#utility.yul\":18753:18820   */\n      tag_477\n        /* \"#utility.yul\":18817:18819   */\n      0x2c\n        /* \"#utility.yul\":18812:18815   */\n      dup4\n        /* \"#utility.yul\":18753:18820   */\n      tag_230\n      jump\t// in\n    tag_477:\n        /* \"#utility.yul\":18746:18820   */\n      swap2\n      pop\n        /* \"#utility.yul\":18829:18922   */\n      tag_478\n        /* \"#utility.yul\":18918:18921   */\n      dup3\n        /* \"#utility.yul\":18829:18922   */\n      tag_264\n      jump\t// in\n    tag_478:\n        /* \"#utility.yul\":18947:18949   */\n      0x40\n        /* \"#utility.yul\":18942:18945   */\n      dup3\n        /* \"#utility.yul\":18938:18950   */\n      add\n        /* \"#utility.yul\":18931:18950   */\n      swap1\n      pop\n        /* \"#utility.yul\":18590:18956   */\n      swap2\n      swap1\n      pop\n      jump\t// out\n        /* \"#utility.yul\":18962:19381   */\n    tag_145:\n        /* \"#utility.yul\":19128:19132   */\n      0x00\n        /* \"#utility.yul\":19166:19168   */\n      0x20\n        /* \"#utility.yul\":19155:19164   */\n      dup3\n        /* \"#utility.yul\":19151:19169   */\n      add\n        /* \"#utility.yul\":19143:19169   */\n      swap1\n      pop\n        /* \"#utility.yul\":19215:19224   */\n      dup2\n        /* \"#utility.yul\":19209:19213   */\n      dup2\n        /* \"#utility.yul\":19205:19225   */\n      sub\n        /* \"#utility.yul\":19201:19202   */\n      0x00\n        /* \"#utility.yul\":19190:19199   */\n      dup4\n        /* \"#utility.yul\":19186:19203   */\n      add\n        /* \"#utility.yul\":19179:19226   */\n      mstore\n        /* \"#utility.yul\":19243:19374   */\n      tag_480\n        /* \"#utility.yul\":19369:19373   */\n      dup2\n        /* \"#utility.yul\":19243:19374   */\n      tag_265\n      jump\t// in\n    tag_480:\n        /* \"#utility.yul\":19235:19374   */\n      swap1\n      pop\n        /* \"#utility.yul\":18962:19381   */\n      swap2\n      swap1\n      pop\n      jump\t// out\n        /* \"#utility.yul\":19387:19610   */\n    tag_266:\n        /* \"#utility.yul\":19527:19561   */\n      0x416d6f756e7420436f6e7472696275746564206973206d6f7265207468616e20\n        /* \"#utility.yul\":19523:19524   */\n      0x00\n        /* \"#utility.yul\":19515:19521   */\n      dup3\n        /* \"#utility.yul\":19511:19525   */\n      add\n        /* \"#utility.yul\":19504:19562   */\n      mstore\n        /* \"#utility.yul\":19596:19602   */\n      0x476f616c00000000000000000000000000000000000000000000000000000000\n        /* \"#utility.yul\":19591:19593   */\n      0x20\n        /* \"#utility.yul\":19583:19589   */\n      dup3\n        /* \"#utility.yul\":19579:19594   */\n      add\n        /* \"#utility.yul\":19572:19603   */\n      mstore\n        /* \"#utility.yul\":19387:19610   */\n      pop\n      jump\t// out\n        /* \"#utility.yul\":19616:19982   */\n    tag_267:\n        /* \"#utility.yul\":19758:19761   */\n      0x00\n        /* \"#utility.yul\":19779:19846   */\n      tag_483\n        /* \"#utility.yul\":19843:19845   */\n      0x24\n        /* \"#utility.yul\":19838:19841   */\n      dup4\n        /* \"#utility.yul\":19779:19846   */\n      tag_230\n      jump\t// in\n    tag_483:\n        /* \"#utility.yul\":19772:19846   */\n      swap2\n      pop\n        /* \"#utility.yul\":19855:19948   */\n      tag_484\n        /* \"#utility.yul\":19944:19947   */\n      dup3\n        /* \"#utility.yul\":19855:19948   */\n      tag_266\n      jump\t// in\n    tag_484:\n        /* \"#utility.yul\":19973:19975   */\n      0x40\n        /* \"#utility.yul\":19968:19971   */\n      dup3\n        /* \"#utility.yul\":19964:19976   */\n      add\n        /* \"#utility.yul\":19957:19976   */\n      swap1\n      pop\n        /* \"#utility.yul\":19616:19982   */\n      swap2\n      swap1\n      pop\n      jump\t// out\n        /* \"#utility.yul\":19988:20407   */\n    tag_148:\n        /* \"#utility.yul\":20154:20158   */\n      0x00\n        /* \"#utility.yul\":20192:20194   */\n      0x20\n        /* \"#utility.yul\":20181:20190   */\n      dup3\n        /* \"#utility.yul\":20177:20195   */\n      add\n        /* \"#utility.yul\":20169:20195   */\n      swap1\n      pop\n        /* \"#utility.yul\":20241:20250   */\n      dup2\n        /* \"#utility.yul\":20235:20239   */\n      dup2\n        /* \"#utility.yul\":20231:20251   */\n      sub\n        /* \"#utility.yul\":20227:20228   */\n      0x00\n        /* \"#utility.yul\":20216:20225   */\n      dup4\n        /* \"#utility.yul\":20212:20229   */\n      add\n        /* \"#utility.yul\":20205:20252   */\n      mstore\n        /* \"#utility.yul\":20269:20400   */\n      tag_486\n        /* \"#utility.yul\":20395:20399   */\n      dup2\n        /* \"#utility.yul\":20269:20400   */\n      tag_267\n      jump\t// in\n    tag_486:\n        /* \"#utility.yul\":20261:20400   */\n      swap1\n      pop\n        /* \"#utility.yul\":19988:20407   */\n      swap2\n      swap1\n      pop\n      jump\t// out\n        /* \"#utility.yul\":20413:20560   */\n    tag_268:\n        /* \"#utility.yul\":20514:20525   */\n      0x00\n        /* \"#utility.yul\":20551:20554   */\n      dup2\n        /* \"#utility.yul\":20536:20554   */\n      swap1\n      pop\n        /* \"#utility.yul\":20413:20560   */\n      swap3\n      swap2\n      pop\n      pop\n      jump\t// out\n        /* \"#utility.yul\":20566:20680   */\n    tag_269:\n      pop\n      jump\t// out\n        /* \"#utility.yul\":20686:21084   */\n    tag_270:\n        /* \"#utility.yul\":20845:20848   */\n      0x00\n        /* \"#utility.yul\":20866:20949   */\n      tag_490\n        /* \"#utility.yul\":20947:20948   */\n      0x00\n        /* \"#utility.yul\":20942:20945   */\n      dup4\n        /* \"#utility.yul\":20866:20949   */\n      tag_268\n      jump\t// in\n    tag_490:\n        /* \"#utility.yul\":20859:20949   */\n      swap2\n      pop\n        /* \"#utility.yul\":20958:21051   */\n      tag_491\n        /* \"#utility.yul\":21047:21050   */\n      dup3\n        /* \"#utility.yul\":20958:21051   */\n      tag_269\n      jump\t// in\n    tag_491:\n        /* \"#utility.yul\":21076:21077   */\n      0x00\n        /* \"#utility.yul\":21071:21074   */\n      dup3\n        /* \"#utility.yul\":21067:21078   */\n      add\n        /* \"#utility.yul\":21060:21078   */\n      swap1\n      pop\n        /* \"#utility.yul\":20686:21084   */\n      swap2\n      swap1\n      pop\n      jump\t// out\n        /* \"#utility.yul\":21090:21469   */\n    tag_157:\n        /* \"#utility.yul\":21274:21277   */\n      0x00\n        /* \"#utility.yul\":21296:21443   */\n      tag_493\n        /* \"#utility.yul\":21439:21442   */\n      dup3\n        /* \"#utility.yul\":21296:21443   */\n      tag_270\n      jump\t// in\n    tag_493:\n        /* \"#utility.yul\":21289:21443   */\n      swap2\n      pop\n        /* \"#utility.yul\":21460:21463   */\n      dup2\n        /* \"#utility.yul\":21453:21463   */\n      swap1\n      pop\n        /* \"#utility.yul\":21090:21469   */\n      swap2\n      swap1\n      pop\n      jump\t// out\n        /* \"#utility.yul\":21475:21638   */\n    tag_271:\n        /* \"#utility.yul\":21615:21630   */\n      0x526566756e64204661696c656400000000000000000000000000000000000000\n        /* \"#utility.yul\":21611:21612   */\n      0x00\n        /* \"#utility.yul\":21603:21609   */\n      dup3\n        /* \"#utility.yul\":21599:21613   */\n      add\n        /* \"#utility.yul\":21592:21631   */\n      mstore\n        /* \"#utility.yul\":21475:21638   */\n      pop\n      jump\t// out\n        /* \"#utility.yul\":21644:22010   */\n    tag_272:\n        /* \"#utility.yul\":21786:21789   */\n      0x00\n        /* \"#utility.yul\":21807:21874   */\n      tag_496\n        /* \"#utility.yul\":21871:21873   */\n      0x0d\n        /* \"#utility.yul\":21866:21869   */\n      dup4\n        /* \"#utility.yul\":21807:21874   */\n      tag_230\n      jump\t// in\n    tag_496:\n        /* \"#utility.yul\":21800:21874   */\n      swap2\n      pop\n        /* \"#utility.yul\":21883:21976   */\n      tag_497\n        /* \"#utility.yul\":21972:21975   */\n      dup3\n        /* \"#utility.yul\":21883:21976   */\n      tag_271\n      jump\t// in\n    tag_497:\n        /* \"#utility.yul\":22001:22003   */\n      0x20\n        /* \"#utility.yul\":21996:21999   */\n      dup3\n        /* \"#utility.yul\":21992:22004   */\n      add\n        /* \"#utility.yul\":21985:22004   */\n      swap1\n      pop\n        /* \"#utility.yul\":21644:22010   */\n      swap2\n      swap1\n      pop\n      jump\t// out\n        /* \"#utility.yul\":22016:22435   */\n    tag_163:\n        /* \"#utility.yul\":22182:22186   */\n      0x00\n        /* \"#utility.yul\":22220:22222   */\n      0x20\n        /* \"#utility.yul\":22209:22218   */\n      dup3\n        /* \"#utility.yul\":22205:22223   */\n      add\n        /* \"#utility.yul\":22197:22223   */\n      swap1\n      pop\n        /* \"#utility.yul\":22269:22278   */\n      dup2\n        /* \"#utility.yul\":22263:22267   */\n      dup2\n        /* \"#utility.yul\":22259:22279   */\n      sub\n        /* \"#utility.yul\":22255:22256   */\n      0x00\n        /* \"#utility.yul\":22244:22253   */\n      dup4\n        /* \"#utility.yul\":22240:22257   */\n      add\n        /* \"#utility.yul\":22233:22280   */\n      mstore\n        /* \"#utility.yul\":22297:22428   */\n      tag_499\n        /* \"#utility.yul\":22423:22427   */\n      dup2\n        /* \"#utility.yul\":22297:22428   */\n      tag_272\n      jump\t// in\n    tag_499:\n        /* \"#utility.yul\":22289:22428   */\n      swap1\n      pop\n        /* \"#utility.yul\":22016:22435   */\n      swap2\n      swap1\n      pop\n      jump\t// out\n        /* \"#utility.yul\":22441:22883   */\n    tag_165:\n        /* \"#utility.yul\":22590:22594   */\n      0x00\n        /* \"#utility.yul\":22628:22630   */\n      0x60\n        /* \"#utility.yul\":22617:22626   */\n      dup3\n        /* \"#utility.yul\":22613:22631   */\n      add\n        /* \"#utility.yul\":22605:22631   */\n      swap1\n      pop\n        /* \"#utility.yul\":22641:22712   */\n      tag_501\n        /* \"#utility.yul\":22709:22710   */\n      0x00\n        /* \"#utility.yul\":22698:22707   */\n      dup4\n        /* \"#utility.yul\":22694:22711   */\n      add\n        /* \"#utility.yul\":22685:22691   */\n      dup7\n        /* \"#utility.yul\":22641:22712   */\n      tag_228\n      jump\t// in\n    tag_501:\n        /* \"#utility.yul\":22722:22794   */\n      tag_502\n        /* \"#utility.yul\":22790:22792   */\n      0x20\n        /* \"#utility.yul\":22779:22788   */\n      dup4\n        /* \"#utility.yul\":22775:22793   */\n      add\n        /* \"#utility.yul\":22766:22772   */\n      dup6\n        /* \"#utility.yul\":22722:22794   */\n      tag_225\n      jump\t// in\n    tag_502:\n        /* \"#utility.yul\":22804:22876   */\n      tag_503\n        /* \"#utility.yul\":22872:22874   */\n      0x40\n        /* \"#utility.yul\":22861:22870   */\n      dup4\n        /* \"#utility.yul\":22857:22875   */\n      add\n        /* \"#utility.yul\":22848:22854   */\n      dup5\n        /* \"#utility.yul\":22804:22876   */\n      tag_225\n      jump\t// in\n    tag_503:\n        /* \"#utility.yul\":22441:22883   */\n      swap5\n      swap4\n      pop\n      pop\n      pop\n      pop\n      jump\t// out\n        /* \"#utility.yul\":22889:23127   */\n    tag_273:\n        /* \"#utility.yul\":23029:23063   */\n      0x66756e64696e6720676f616c20686173206e6f742072656163686564202c2061\n        /* \"#utility.yul\":23025:23026   */\n      0x00\n        /* \"#utility.yul\":23017:23023   */\n      dup3\n        /* \"#utility.yul\":23013:23027   */\n      add\n        /* \"#utility.yul\":23006:23064   */\n      mstore\n        /* \"#utility.yul\":23098:23119   */\n      0x646d696e2063616e277420776974686472617700000000000000000000000000\n        /* \"#utility.yul\":23093:23095   */\n      0x20\n        /* \"#utility.yul\":23085:23091   */\n      dup3\n        /* \"#utility.yul\":23081:23096   */\n      add\n        /* \"#utility.yul\":23074:23120   */\n      mstore\n        /* \"#utility.yul\":22889:23127   */\n      pop\n      jump\t// out\n        /* \"#utility.yul\":23133:23499   */\n    tag_274:\n        /* \"#utility.yul\":23275:23278   */\n      0x00\n        /* \"#utility.yul\":23296:23363   */\n      tag_506\n        /* \"#utility.yul\":23360:23362   */\n      0x33\n        /* \"#utility.yul\":23355:23358   */\n      dup4\n        /* \"#utility.yul\":23296:23363   */\n      tag_230\n      jump\t// in\n    tag_506:\n        /* \"#utility.yul\":23289:23363   */\n      swap2\n      pop\n        /* \"#utility.yul\":23372:23465   */\n      tag_507\n        /* \"#utility.yul\":23461:23464   */\n      dup3\n        /* \"#utility.yul\":23372:23465   */\n      tag_273\n      jump\t// in\n    tag_507:\n        /* \"#utility.yul\":23490:23492   */\n      0x40\n        /* \"#utility.yul\":23485:23488   */\n      dup3\n        /* \"#utility.yul\":23481:23493   */\n      add\n        /* \"#utility.yul\":23474:23493   */\n      swap1\n      pop\n        /* \"#utility.yul\":23133:23499   */\n      swap2\n      swap1\n      pop\n      jump\t// out\n        /* \"#utility.yul\":23505:23924   */\n    tag_172:\n        /* \"#utility.yul\":23671:23675   */\n      0x00\n        /* \"#utility.yul\":23709:23711   */\n      0x20\n        /* \"#utility.yul\":23698:23707   */\n      dup3\n        /* \"#utility.yul\":23694:23712   */\n      add\n        /* \"#utility.yul\":23686:23712   */\n      swap1\n      pop\n        /* \"#utility.yul\":23758:23767   */\n      dup2\n        /* \"#utility.yul\":23752:23756   */\n      dup2\n        /* \"#utility.yul\":23748:23768   */\n      sub\n        /* \"#utility.yul\":23744:23745   */\n      0x00\n        /* \"#utility.yul\":23733:23742   */\n      dup4\n        /* \"#utility.yul\":23729:23746   */\n      add\n        /* \"#utility.yul\":23722:23769   */\n      mstore\n        /* \"#utility.yul\":23786:23917   */\n      tag_509\n        /* \"#utility.yul\":23912:23916   */\n      dup2\n        /* \"#utility.yul\":23786:23917   */\n      tag_274\n      jump\t// in\n    tag_509:\n        /* \"#utility.yul\":23778:23917   */\n      swap1\n      pop\n        /* \"#utility.yul\":23505:23924   */\n      swap2\n      swap1\n      pop\n      jump\t// out\n        /* \"#utility.yul\":23930:24103   */\n    tag_275:\n        /* \"#utility.yul\":24070:24095   */\n      0x6f6e6c792061646d696e2063616e207769746864726177000000000000000000\n        /* \"#utility.yul\":24066:24067   */\n      0x00\n        /* \"#utility.yul\":24058:24064   */\n      dup3\n        /* \"#utility.yul\":24054:24068   */\n      add\n        /* \"#utility.yul\":24047:24096   */\n      mstore\n        /* \"#utility.yul\":23930:24103   */\n      pop\n      jump\t// out\n        /* \"#utility.yul\":24109:24475   */\n    tag_276:\n        /* \"#utility.yul\":24251:24254   */\n      0x00\n        /* \"#utility.yul\":24272:24339   */\n      tag_512\n        /* \"#utility.yul\":24336:24338   */\n      0x17\n        /* \"#utility.yul\":24331:24334   */\n      dup4\n        /* \"#utility.yul\":24272:24339   */\n      tag_230\n      jump\t// in\n    tag_512:\n        /* \"#utility.yul\":24265:24339   */\n      swap2\n      pop\n        /* \"#utility.yul\":24348:24441   */\n      tag_513\n        /* \"#utility.yul\":24437:24440   */\n      dup3\n        /* \"#utility.yul\":24348:24441   */\n      tag_275\n      jump\t// in\n    tag_513:\n        /* \"#utility.yul\":24466:24468   */\n      0x20\n        /* \"#utility.yul\":24461:24464   */\n      dup3\n        /* \"#utility.yul\":24457:24469   */\n      add\n        /* \"#utility.yul\":24450:24469   */\n      swap1\n      pop\n        /* \"#utility.yul\":24109:24475   */\n      swap2\n      swap1\n      pop\n      jump\t// out\n        /* \"#utility.yul\":24481:24900   */\n    tag_175:\n        /* \"#utility.yul\":24647:24651   */\n      0x00\n        /* \"#utility.yul\":24685:24687   */\n      0x20\n        /* \"#utility.yul\":24674:24683   */\n      dup3\n        /* \"#utility.yul\":24670:24688   */\n      add\n        /* \"#utility.yul\":24662:24688   */\n      swap1\n      pop\n        /* \"#utility.yul\":24734:24743   */\n      dup2\n        /* \"#utility.yul\":24728:24732   */\n      dup2\n        /* \"#utility.yul\":24724:24744   */\n      sub\n        /* \"#utility.yul\":24720:24721   */\n      0x00\n        /* \"#utility.yul\":24709:24718   */\n      dup4\n        /* \"#utility.yul\":24705:24722   */\n      add\n        /* \"#utility.yul\":24698:24745   */\n      mstore\n        /* \"#utility.yul\":24762:24893   */\n      tag_515\n        /* \"#utility.yul\":24888:24892   */\n      dup2\n        /* \"#utility.yul\":24762:24893   */\n      tag_276\n      jump\t// in\n    tag_515:\n        /* \"#utility.yul\":24754:24893   */\n      swap1\n      pop\n        /* \"#utility.yul\":24481:24900   */\n      swap2\n      swap1\n      pop\n      jump\t// out\n        /* \"#utility.yul\":24906:25140   */\n    tag_277:\n        /* \"#utility.yul\":25046:25080   */\n      0x646561646c696e6520686173206e6f742072656163686564202c2061646d696e\n        /* \"#utility.yul\":25042:25043   */\n      0x00\n        /* \"#utility.yul\":25034:25040   */\n      dup3\n        /* \"#utility.yul\":25030:25044   */\n      add\n        /* \"#utility.yul\":25023:25081   */\n      mstore\n        /* \"#utility.yul\":25115:25132   */\n      0x2063616e27742077697468647261770000000000000000000000000000000000\n        /* \"#utility.yul\":25110:25112   */\n      0x20\n        /* \"#utility.yul\":25102:25108   */\n      dup3\n        /* \"#utility.yul\":25098:25113   */\n      add\n        /* \"#utility.yul\":25091:25133   */\n      mstore\n        /* \"#utility.yul\":24906:25140   */\n      pop\n      jump\t// out\n        /* \"#utility.yul\":25146:25512   */\n    tag_278:\n        /* \"#utility.yul\":25288:25291   */\n      0x00\n        /* \"#utility.yul\":25309:25376   */\n      tag_518\n        /* \"#utility.yul\":25373:25375   */\n      0x2f\n        /* \"#utility.yul\":25368:25371   */\n      dup4\n        /* \"#utility.yul\":25309:25376   */\n      tag_230\n      jump\t// in\n    tag_518:\n        /* \"#utility.yul\":25302:25376   */\n      swap2\n      pop\n        /* \"#utility.yul\":25385:25478   */\n      tag_519\n        /* \"#utility.yul\":25474:25477   */\n      dup3\n        /* \"#utility.yul\":25385:25478   */\n      tag_277\n      jump\t// in\n    tag_519:\n        /* \"#utility.yul\":25503:25505   */\n      0x40\n        /* \"#utility.yul\":25498:25501   */\n      dup3\n        /* \"#utility.yul\":25494:25506   */\n      add\n        /* \"#utility.yul\":25487:25506   */\n      swap1\n      pop\n        /* \"#utility.yul\":25146:25512   */\n      swap2\n      swap1\n      pop\n      jump\t// out\n        /* \"#utility.yul\":25518:25937   */\n    tag_178:\n        /* \"#utility.yul\":25684:25688   */\n      0x00\n        /* \"#utility.yul\":25722:25724   */\n      0x20\n        /* \"#utility.yul\":25711:25720   */\n      dup3\n        /* \"#utility.yul\":25707:25725   */\n      add\n        /* \"#utility.yul\":25699:25725   */\n      swap1\n      pop\n        /* \"#utility.yul\":25771:25780   */\n      dup2\n        /* \"#utility.yul\":25765:25769   */\n      dup2\n        /* \"#utility.yul\":25761:25781   */\n      sub\n        /* \"#utility.yul\":25757:25758   */\n      0x00\n        /* \"#utility.yul\":25746:25755   */\n      dup4\n        /* \"#utility.yul\":25742:25759   */\n      add\n        /* \"#utility.yul\":25735:25782   */\n      mstore\n        /* \"#utility.yul\":25799:25930   */\n      tag_521\n        /* \"#utility.yul\":25925:25929   */\n      dup2\n        /* \"#utility.yul\":25799:25930   */\n      tag_278\n      jump\t// in\n    tag_521:\n        /* \"#utility.yul\":25791:25930   */\n      swap1\n      pop\n        /* \"#utility.yul\":25518:25937   */\n      swap2\n      swap1\n      pop\n      jump\t// out\n        /* \"#utility.yul\":25943:26123   */\n    tag_279:\n        /* \"#utility.yul\":26083:26115   */\n      0x43616e6e6f7420776974686472617720616674657220646561646c696e650000\n        /* \"#utility.yul\":26079:26080   */\n      0x00\n        /* \"#utility.yul\":26071:26077   */\n      dup3\n        /* \"#utility.yul\":26067:26081   */\n      add\n        /* \"#utility.yul\":26060:26116   */\n      mstore\n        /* \"#utility.yul\":25943:26123   */\n      pop\n      jump\t// out\n        /* \"#utility.yul\":26129:26495   */\n    tag_280:\n        /* \"#utility.yul\":26271:26274   */\n      0x00\n        /* \"#utility.yul\":26292:26359   */\n      tag_524\n        /* \"#utility.yul\":26356:26358   */\n      0x1e\n        /* \"#utility.yul\":26351:26354   */\n      dup4\n        /* \"#utility.yul\":26292:26359   */\n      tag_230\n      jump\t// in\n    tag_524:\n        /* \"#utility.yul\":26285:26359   */\n      swap2\n      pop\n        /* \"#utility.yul\":26368:26461   */\n      tag_525\n        /* \"#utility.yul\":26457:26460   */\n      dup3\n        /* \"#utility.yul\":26368:26461   */\n      tag_279\n      jump\t// in\n    tag_525:\n        /* \"#utility.yul\":26486:26488   */\n      0x20\n        /* \"#utility.yul\":26481:26484   */\n      dup3\n        /* \"#utility.yul\":26477:26489   */\n      add\n        /* \"#utility.yul\":26470:26489   */\n      swap1\n      pop\n        /* \"#utility.yul\":26129:26495   */\n      swap2\n      swap1\n      pop\n      jump\t// out\n        /* \"#utility.yul\":26501:26920   */\n    tag_185:\n        /* \"#utility.yul\":26667:26671   */\n      0x00\n        /* \"#utility.yul\":26705:26707   */\n      0x20\n        /* \"#utility.yul\":26694:26703   */\n      dup3\n        /* \"#utility.yul\":26690:26708   */\n      add\n        /* \"#utility.yul\":26682:26708   */\n      swap1\n      pop\n        /* \"#utility.yul\":26754:26763   */\n      dup2\n        /* \"#utility.yul\":26748:26752   */\n      dup2\n        /* \"#utility.yul\":26744:26764   */\n      sub\n        /* \"#utility.yul\":26740:26741   */\n      0x00\n        /* \"#utility.yul\":26729:26738   */\n      dup4\n        /* \"#utility.yul\":26725:26742   */\n      add\n        /* \"#utility.yul\":26718:26765   */\n      mstore\n        /* \"#utility.yul\":26782:26913   */\n      tag_527\n        /* \"#utility.yul\":26908:26912   */\n      dup2\n        /* \"#utility.yul\":26782:26913   */\n      tag_280\n      jump\t// in\n    tag_527:\n        /* \"#utility.yul\":26774:26913   */\n      swap1\n      pop\n        /* \"#utility.yul\":26501:26920   */\n      swap2\n      swap1\n      pop\n      jump\t// out\n        /* \"#utility.yul\":26926:27098   */\n    tag_281:\n        /* \"#utility.yul\":27066:27090   */\n      0x4e6f2046756e647320746f207769746864726177212100000000000000000000\n        /* \"#utility.yul\":27062:27063   */\n      0x00\n        /* \"#utility.yul\":27054:27060   */\n      dup3\n        /* \"#utility.yul\":27050:27064   */\n      add\n        /* \"#utility.yul\":27043:27091   */\n      mstore\n        /* \"#utility.yul\":26926:27098   */\n      pop\n      jump\t// out\n        /* \"#utility.yul\":27104:27470   */\n    tag_282:\n        /* \"#utility.yul\":27246:27249   */\n      0x00\n        /* \"#utility.yul\":27267:27334   */\n      tag_530\n        /* \"#utility.yul\":27331:27333   */\n      0x16\n        /* \"#utility.yul\":27326:27329   */\n      dup4\n        /* \"#utility.yul\":27267:27334   */\n      tag_230\n      jump\t// in\n    tag_530:\n        /* \"#utility.yul\":27260:27334   */\n      swap2\n      pop\n        /* \"#utility.yul\":27343:27436   */\n      tag_531\n        /* \"#utility.yul\":27432:27435   */\n      dup3\n        /* \"#utility.yul\":27343:27436   */\n      tag_281\n      jump\t// in\n    tag_531:\n        /* \"#utility.yul\":27461:27463   */\n      0x20\n        /* \"#utility.yul\":27456:27459   */\n      dup3\n        /* \"#utility.yul\":27452:27464   */\n      add\n        /* \"#utility.yul\":27445:27464   */\n      swap1\n      pop\n        /* \"#utility.yul\":27104:27470   */\n      swap2\n      swap1\n      pop\n      jump\t// out\n        /* \"#utility.yul\":27476:27895   */\n    tag_188:\n        /* \"#utility.yul\":27642:27646   */\n      0x00\n        /* \"#utility.yul\":27680:27682   */\n      0x20\n        /* \"#utility.yul\":27669:27678   */\n      dup3\n        /* \"#utility.yul\":27665:27683   */\n      add\n        /* \"#utility.yul\":27657:27683   */\n      swap1\n      pop\n        /* \"#utility.yul\":27729:27738   */\n      dup2\n        /* \"#utility.yul\":27723:27727   */\n      dup2\n        /* \"#utility.yul\":27719:27739   */\n      sub\n        /* \"#utility.yul\":27715:27716   */\n      0x00\n        /* \"#utility.yul\":27704:27713   */\n      dup4\n        /* \"#utility.yul\":27700:27717   */\n      add\n        /* \"#utility.yul\":27693:27740   */\n      mstore\n        /* \"#utility.yul\":27757:27888   */\n      tag_533\n        /* \"#utility.yul\":27883:27887   */\n      dup2\n        /* \"#utility.yul\":27757:27888   */\n      tag_282\n      jump\t// in\n    tag_533:\n        /* \"#utility.yul\":27749:27888   */\n      swap1\n      pop\n        /* \"#utility.yul\":27476:27895   */\n      swap2\n      swap1\n      pop\n      jump\t// out\n        /* \"#utility.yul\":27901:28129   */\n    tag_283:\n        /* \"#utility.yul\":28041:28075   */\n      0x576974686472617720616d6f756e74206578636565647320796f757220636f6e\n        /* \"#utility.yul\":28037:28038   */\n      0x00\n        /* \"#utility.yul\":28029:28035   */\n      dup3\n        /* \"#utility.yul\":28025:28039   */\n      add\n        /* \"#utility.yul\":28018:28076   */\n      mstore\n        /* \"#utility.yul\":28110:28121   */\n      0x747269627574696f6e0000000000000000000000000000000000000000000000\n        /* \"#utility.yul\":28105:28107   */\n      0x20\n        /* \"#utility.yul\":28097:28103   */\n      dup3\n        /* \"#utility.yul\":28093:28108   */\n      add\n        /* \"#utility.yul\":28086:28122   */\n      mstore\n        /* \"#utility.yul\":27901:28129   */\n      pop\n      jump\t// out\n        /* \"#utility.yul\":28135:28501   */\n    tag_284:\n        /* \"#utility.yul\":28277:28280   */\n      0x00\n        /* \"#utility.yul\":28298:28365   */\n      tag_536\n        /* \"#utility.yul\":28362:28364   */\n      0x29\n        /* \"#utility.yul\":28357:28360   */\n      dup4\n        /* \"#utility.yul\":28298:28365   */\n      tag_230\n      jump\t// in\n    tag_536:\n        /* \"#utility.yul\":28291:28365   */\n      swap2\n      pop\n        /* \"#utility.yul\":28374:28467   */\n      tag_537\n        /* \"#utility.yul\":28463:28466   */\n      dup3\n        /* \"#utility.yul\":28374:28467   */\n      tag_283\n      jump\t// in\n    tag_537:\n        /* \"#utility.yul\":28492:28494   */\n      0x40\n        /* \"#utility.yul\":28487:28490   */\n      dup3\n        /* \"#utility.yul\":28483:28495   */\n      add\n        /* \"#utility.yul\":28476:28495   */\n      swap1\n      pop\n        /* \"#utility.yul\":28135:28501   */\n      swap2\n      swap1\n      pop\n      jump\t// out\n        /* \"#utility.yul\":28507:28926   */\n    tag_191:\n        /* \"#utility.yul\":28673:28677   */\n      0x00\n        /* \"#utility.yul\":28711:28713   */\n      0x20\n        /* \"#utility.yul\":28700:28709   */\n      dup3\n        /* \"#utility.yul\":28696:28714   */\n      add\n        /* \"#utility.yul\":28688:28714   */\n      swap1\n      pop\n        /* \"#utility.yul\":28760:28769   */\n      dup2\n        /* \"#utility.yul\":28754:28758   */\n      dup2\n        /* \"#utility.yul\":28750:28770   */\n      sub\n        /* \"#utility.yul\":28746:28747   */\n      0x00\n        /* \"#utility.yul\":28735:28744   */\n      dup4\n        /* \"#utility.yul\":28731:28748   */\n      add\n        /* \"#utility.yul\":28724:28771   */\n      mstore\n        /* \"#utility.yul\":28788:28919   */\n      tag_539\n        /* \"#utility.yul\":28914:28918   */\n      dup2\n        /* \"#utility.yul\":28788:28919   */\n      tag_284\n      jump\t// in\n    tag_539:\n        /* \"#utility.yul\":28780:28919   */\n      swap1\n      pop\n        /* \"#utility.yul\":28507:28926   */\n      swap2\n      swap1\n      pop\n      jump\t// out\n        /* \"#utility.yul\":28932:29101   */\n    tag_285:\n        /* \"#utility.yul\":29072:29093   */\n      0x7769746864726177206661696c65642121212100000000000000000000000000\n        /* \"#utility.yul\":29068:29069   */\n      0x00\n        /* \"#utility.yul\":29060:29066   */\n      dup3\n        /* \"#utility.yul\":29056:29070   */\n      add\n        /* \"#utility.yul\":29049:29094   */\n      mstore\n        /* \"#utility.yul\":28932:29101   */\n      pop\n      jump\t// out\n        /* \"#utility.yul\":29107:29473   */\n    tag_286:\n        /* \"#utility.yul\":29249:29252   */\n      0x00\n        /* \"#utility.yul\":29270:29337   */\n      tag_542\n        /* \"#utility.yul\":29334:29336   */\n      0x13\n        /* \"#utility.yul\":29329:29332   */\n      dup4\n        /* \"#utility.yul\":29270:29337   */\n      tag_230\n      jump\t// in\n    tag_542:\n        /* \"#utility.yul\":29263:29337   */\n      swap2\n      pop\n        /* \"#utility.yul\":29346:29439   */\n      tag_543\n        /* \"#utility.yul\":29435:29438   */\n      dup3\n        /* \"#utility.yul\":29346:29439   */\n      tag_285\n      jump\t// in\n    tag_543:\n        /* \"#utility.yul\":29464:29466   */\n      0x20\n        /* \"#utility.yul\":29459:29462   */\n      dup3\n        /* \"#utility.yul\":29455:29467   */\n      add\n        /* \"#utility.yul\":29448:29467   */\n      swap1\n      pop\n        /* \"#utility.yul\":29107:29473   */\n      swap2\n      swap1\n      pop\n      jump\t// out\n        /* \"#utility.yul\":29479:29898   */\n    tag_201:\n        /* \"#utility.yul\":29645:29649   */\n      0x00\n        /* \"#utility.yul\":29683:29685   */\n      0x20\n        /* \"#utility.yul\":29672:29681   */\n      dup3\n        /* \"#utility.yul\":29668:29686   */\n      add\n        /* \"#utility.yul\":29660:29686   */\n      swap1\n      pop\n        /* \"#utility.yul\":29732:29741   */\n      dup2\n        /* \"#utility.yul\":29726:29730   */\n      dup2\n        /* \"#utility.yul\":29722:29742   */\n      sub\n        /* \"#utility.yul\":29718:29719   */\n      0x00\n        /* \"#utility.yul\":29707:29716   */\n      dup4\n        /* \"#utility.yul\":29703:29720   */\n      add\n        /* \"#utility.yul\":29696:29743   */\n      mstore\n        /* \"#utility.yul\":29760:29891   */\n      tag_545\n        /* \"#utility.yul\":29886:29890   */\n      dup2\n        /* \"#utility.yul\":29760:29891   */\n      tag_286\n      jump\t// in\n    tag_545:\n        /* \"#utility.yul\":29752:29891   */\n      swap1\n      pop\n        /* \"#utility.yul\":29479:29898   */\n      swap2\n      swap1\n      pop\n      jump\t// out\n        /* \"#utility.yul\":29904:30083   */\n    tag_287:\n        /* \"#utility.yul\":30044:30075   */\n      0x50726f6a65637420494420697320616c726561647920696e2075736521000000\n        /* \"#utility.yul\":30040:30041   */\n      0x00\n        /* \"#utility.yul\":30032:30038   */\n      dup3\n        /* \"#utility.yul\":30028:30042   */\n      add\n        /* \"#utility.yul\":30021:30076   */\n      mstore\n        /* \"#utility.yul\":29904:30083   */\n      pop\n      jump\t// out\n        /* \"#utility.yul\":30089:30455   */\n    tag_288:\n        /* \"#utility.yul\":30231:30234   */\n      0x00\n        /* \"#utility.yul\":30252:30319   */\n      tag_548\n        /* \"#utility.yul\":30316:30318   */\n      0x1d\n        /* \"#utility.yul\":30311:30314   */\n      dup4\n        /* \"#utility.yul\":30252:30319   */\n      tag_230\n      jump\t// in\n    tag_548:\n        /* \"#utility.yul\":30245:30319   */\n      swap2\n      pop\n        /* \"#utility.yul\":30328:30421   */\n      tag_549\n        /* \"#utility.yul\":30417:30420   */\n      dup3\n        /* \"#utility.yul\":30328:30421   */\n      tag_287\n      jump\t// in\n    tag_549:\n        /* \"#utility.yul\":30446:30448   */\n      0x20\n        /* \"#utility.yul\":30441:30444   */\n      dup3\n        /* \"#utility.yul\":30437:30449   */\n      add\n        /* \"#utility.yul\":30430:30449   */\n      swap1\n      pop\n        /* \"#utility.yul\":30089:30455   */\n      swap2\n      swap1\n      pop\n      jump\t// out\n        /* \"#utility.yul\":30461:30880   */\n    tag_206:\n        /* \"#utility.yul\":30627:30631   */\n      0x00\n        /* \"#utility.yul\":30665:30667   */\n      0x20\n        /* \"#utility.yul\":30654:30663   */\n      dup3\n        /* \"#utility.yul\":30650:30668   */\n      add\n        /* \"#utility.yul\":30642:30668   */\n      swap1\n      pop\n        /* \"#utility.yul\":30714:30723   */\n      dup2\n        /* \"#utility.yul\":30708:30712   */\n      dup2\n        /* \"#utility.yul\":30704:30724   */\n      sub\n        /* \"#utility.yul\":30700:30701   */\n      0x00\n        /* \"#utility.yul\":30689:30698   */\n      dup4\n        /* \"#utility.yul\":30685:30702   */\n      add\n        /* \"#utility.yul\":30678:30725   */\n      mstore\n        /* \"#utility.yul\":30742:30873   */\n      tag_551\n        /* \"#utility.yul\":30868:30872   */\n      dup2\n        /* \"#utility.yul\":30742:30873   */\n      tag_288\n      jump\t// in\n    tag_551:\n        /* \"#utility.yul\":30734:30873   */\n      swap1\n      pop\n        /* \"#utility.yul\":30461:30880   */\n      swap2\n      swap1\n      pop\n      jump\t// out\n        /* \"#utility.yul\":30886:31027   */\n    tag_289:\n        /* \"#utility.yul\":30935:30939   */\n      0x00\n        /* \"#utility.yul\":30958:30961   */\n      dup2\n        /* \"#utility.yul\":30950:30961   */\n      swap1\n      pop\n        /* \"#utility.yul\":30981:30984   */\n      dup2\n        /* \"#utility.yul\":30978:30979   */\n      0x00\n        /* \"#utility.yul\":30971:30985   */\n      mstore\n        /* \"#utility.yul\":31015:31019   */\n      0x20\n        /* \"#utility.yul\":31012:31013   */\n      0x00\n        /* \"#utility.yul\":31002:31020   */\n      keccak256\n        /* \"#utility.yul\":30994:31020   */\n      swap1\n      pop\n        /* \"#utility.yul\":30886:31027   */\n      swap2\n      swap1\n      pop\n      jump\t// out\n        /* \"#utility.yul\":31033:31126   */\n    tag_290:\n        /* \"#utility.yul\":31070:31076   */\n      0x00\n        /* \"#utility.yul\":31117:31119   */\n      0x20\n        /* \"#utility.yul\":31112:31114   */\n      0x1f\n        /* \"#utility.yul\":31105:31110   */\n      dup4\n        /* \"#utility.yul\":31101:31115   */\n      add\n        /* \"#utility.yul\":31097:31120   */\n      div\n        /* \"#utility.yul\":31087:31120   */\n      swap1\n      pop\n        /* \"#utility.yul\":31033:31126   */\n      swap2\n      swap1\n      pop\n      jump\t// out\n        /* \"#utility.yul\":31132:31239   */\n    tag_291:\n        /* \"#utility.yul\":31176:31184   */\n      0x00\n        /* \"#utility.yul\":31226:31231   */\n      dup3\n        /* \"#utility.yul\":31220:31224   */\n      dup3\n        /* \"#utility.yul\":31216:31232   */\n      shl\n        /* \"#utility.yul\":31195:31232   */\n      swap1\n      pop\n        /* \"#utility.yul\":31132:31239   */\n      swap3\n      swap2\n      pop\n      pop\n      jump\t// out\n        /* \"#utility.yul\":31245:31638   */\n    tag_292:\n        /* \"#utility.yul\":31314:31320   */\n      0x00\n        /* \"#utility.yul\":31364:31365   */\n      0x08\n        /* \"#utility.yul\":31352:31362   */\n      dup4\n        /* \"#utility.yul\":31348:31366   */\n      mul\n        /* \"#utility.yul\":31387:31484   */\n      tag_556\n        /* \"#utility.yul\":31417:31483   */\n      0xffffffffffffffffffffffffffffffffffffffffffffffffffffffffffffffff\n        /* \"#utility.yul\":31406:31415   */\n      dup3\n        /* \"#utility.yul\":31387:31484   */\n      tag_291\n      jump\t// in\n    tag_556:\n        /* \"#utility.yul\":31505:31544   */\n      tag_557\n        /* \"#utility.yul\":31535:31543   */\n      dup7\n        /* \"#utility.yul\":31524:31533   */\n      dup4\n        /* \"#utility.yul\":31505:31544   */\n      tag_291\n      jump\t// in\n    tag_557:\n        /* \"#utility.yul\":31493:31544   */\n      swap6\n      pop\n        /* \"#utility.yul\":31577:31581   */\n      dup1\n        /* \"#utility.yul\":31573:31582   */\n      not\n        /* \"#utility.yul\":31566:31571   */\n      dup5\n        /* \"#utility.yul\":31562:31583   */\n      and\n        /* \"#utility.yul\":31553:31583   */\n      swap4\n      pop\n        /* \"#utility.yul\":31626:31630   */\n      dup1\n        /* \"#utility.yul\":31616:31624   */\n      dup7\n        /* \"#utility.yul\":31612:31631   */\n      and\n        /* \"#utility.yul\":31605:31610   */\n      dup5\n        /* \"#utility.yul\":31602:31632   */\n      or\n        /* \"#utility.yul\":31592:31632   */\n      swap3\n      pop\n        /* \"#utility.yul\":31321:31638   */\n      pop\n      pop\n        /* \"#utility.yul\":31245:31638   */\n      swap4\n      swap3\n      pop\n      pop\n      pop\n      jump\t// out\n        /* \"#utility.yul\":31644:31704   */\n    tag_293:\n        /* \"#utility.yul\":31672:31675   */\n      0x00\n        /* \"#utility.yul\":31693:31698   */\n      dup2\n        /* \"#utility.yul\":31686:31698   */\n      swap1\n      pop\n        /* \"#utility.yul\":31644:31704   */\n      swap2\n      swap1\n      pop\n      jump\t// out\n        /* \"#utility.yul\":31710:31852   */\n    tag_294:\n        /* \"#utility.yul\":31760:31769   */\n      0x00\n        /* \"#utility.yul\":31793:31846   */\n      tag_560\n        /* \"#utility.yul\":31811:31845   */\n      tag_561\n        /* \"#utility.yul\":31820:31844   */\n      tag_562\n        /* \"#utility.yul\":31838:31843   */\n      dup5\n        /* \"#utility.yul\":31820:31844   */\n      tag_222\n      jump\t// in\n    tag_562:\n        /* \"#utility.yul\":31811:31845   */\n      tag_293\n      jump\t// in\n    tag_561:\n        /* \"#utility.yul\":31793:31846   */\n      tag_222\n      jump\t// in\n    tag_560:\n        /* \"#utility.yul\":31780:31846   */\n      swap1\n      pop\n        /* \"#utility.yul\":31710:31852   */\n      swap2\n      swap1\n      pop\n      jump\t// out\n        /* \"#utility.yul\":31858:31933   */\n    tag_295:\n        /* \"#utility.yul\":31901:31904   */\n      0x00\n        /* \"#utility.yul\":31922:31927   */\n      dup2\n        /* \"#utility.yul\":31915:31927   */\n      swap1\n      pop\n        /* \"#utility.yul\":31858:31933   */\n      swap2\n      swap1\n      pop\n      jump\t// out\n        /* \"#utility.yul\":31939:32208   */\n    tag_296:\n        /* \"#utility.yul\":32049:32088   */\n      tag_565\n        /* \"#utility.yul\":32080:32087   */\n      dup4\n        /* \"#utility.yul\":32049:32088   */\n      tag_294\n      jump\t// in\n    tag_565:\n        /* \"#utility.yul\":32110:32201   */\n      tag_566\n        /* \"#utility.yul\":32159:32200   */\n      tag_567\n        /* \"#utility.yul\":32183:32199   */\n      dup3\n        /* \"#utility.yul\":32159:32200   */\n      tag_295\n      jump\t// in\n    tag_567:\n        /* \"#utility.yul\":32151:32157   */\n      dup5\n        /* \"#utility.yul\":32144:32148   */\n      dup5\n        /* \"#utility.yul\":32138:32149   */\n      sload\n        /* \"#utility.yul\":32110:32201   */\n      tag_292\n      jump\t// in\n    tag_566:\n        /* \"#utility.yul\":32104:32108   */\n      dup3\n        /* \"#utility.yul\":32097:32202   */\n      sstore\n        /* \"#utility.yul\":32015:32208   */\n      pop\n        /* \"#utility.yul\":31939:32208   */\n      pop\n      pop\n      pop\n      jump\t// out\n        /* \"#utility.yul\":32214:32287   */\n    tag_297:\n        /* \"#utility.yul\":32259:32262   */\n      0x00\n        /* \"#utility.yul\":32280:32281   */\n      0x00\n        /* \"#utility.yul\":32273:32281   */\n      swap1\n      pop\n        /* \"#utility.yul\":32214:32287   */\n      swap1\n      jump\t// out\n        /* \"#utility.yul\":32293:32482   */\n    tag_298:\n        /* \"#utility.yul\":32370:32402   */\n      tag_570\n      tag_297\n      jump\t// in\n    tag_570:\n        /* \"#utility.yul\":32411:32476   */\n      tag_571\n        /* \"#utility.yul\":32469:32475   */\n      dup2\n        /* \"#utility.yul\":32461:32467   */\n      dup5\n        /* \"#utility.yul\":32455:32459   */\n      dup5\n        /* \"#utility.yul\":32411:32476   */\n      tag_296\n      jump\t// in\n    tag_571:\n        /* \"#utility.yul\":32346:32482   */\n      pop\n        /* \"#utility.yul\":32293:32482   */\n      pop\n      pop\n      jump\t// out\n        /* \"#utility.yul\":32488:32674   */\n    tag_299:\n        /* \"#utility.yul\":32548:32668   */\n    tag_573:\n        /* \"#utility.yul\":32565:32568   */\n      dup2\n        /* \"#utility.yul\":32558:32563   */\n      dup2\n        /* \"#utility.yul\":32555:32569   */\n      lt\n        /* \"#utility.yul\":32548:32668   */\n      iszero\n      tag_575\n      jumpi\n        /* \"#utility.yul\":32619:32658   */\n      tag_576\n        /* \"#utility.yul\":32656:32657   */\n      0x00\n        /* \"#utility.yul\":32649:32654   */\n      dup3\n        /* \"#utility.yul\":32619:32658   */\n      tag_298\n      jump\t// in\n    tag_576:\n        /* \"#utility.yul\":32592:32593   */\n      0x01\n        /* \"#utility.yul\":32585:32590   */\n      dup2\n        /* \"#utility.yul\":32581:32594   */\n      add\n        /* \"#utility.yul\":32572:32594   */\n      swap1\n      pop\n        /* \"#utility.yul\":32548:32668   */\n      jump(tag_573)\n    tag_575:\n        /* \"#utility.yul\":32488:32674   */\n      pop\n      pop\n      jump\t// out\n        /* \"#utility.yul\":32680:33223   */\n    tag_300:\n        /* \"#utility.yul\":32781:32783   */\n      0x1f\n        /* \"#utility.yul\":32776:32779   */\n      dup3\n        /* \"#utility.yul\":32773:32784   */\n      gt\n        /* \"#utility.yul\":32770:33216   */\n      iszero\n      tag_578\n      jumpi\n        /* \"#utility.yul\":32815:32853   */\n      tag_579\n        /* \"#utility.yul\":32847:32852   */\n      dup2\n        /* \"#utility.yul\":32815:32853   */\n      tag_289\n      jump\t// in\n    tag_579:\n        /* \"#utility.yul\":32899:32928   */\n      tag_580\n        /* \"#utility.yul\":32917:32927   */\n      dup5\n        /* \"#utility.yul\":32899:32928   */\n      tag_290\n      jump\t// in\n    tag_580:\n        /* \"#utility.yul\":32889:32897   */\n      dup2\n        /* \"#utility.yul\":32885:32929   */\n      add\n        /* \"#utility.yul\":33082:33084   */\n      0x20\n        /* \"#utility.yul\":33070:33080   */\n      dup6\n        /* \"#utility.yul\":33067:33085   */\n      lt\n        /* \"#utility.yul\":33064:33113   */\n      iszero\n      tag_581\n      jumpi\n        /* \"#utility.yul\":33103:33111   */\n      dup2\n        /* \"#utility.yul\":33088:33111   */\n      swap1\n      pop\n        /* \"#utility.yul\":33064:33113   */\n    tag_581:\n        /* \"#utility.yul\":33126:33206   */\n      tag_582\n        /* \"#utility.yul\":33182:33204   */\n      tag_583\n        /* \"#utility.yul\":33200:33203   */\n      dup6\n        /* \"#utility.yul\":33182:33204   */\n      tag_290\n      jump\t// in\n    tag_583:\n        /* \"#utility.yul\":33172:33180   */\n      dup4\n        /* \"#utility.yul\":33168:33205   */\n      add\n        /* \"#utility.yul\":33155:33166   */\n      dup3\n        /* \"#utility.yul\":33126:33206   */\n      tag_299\n      jump\t// in\n    tag_582:\n        /* \"#utility.yul\":32785:33216   */\n      pop\n      pop\n        /* \"#utility.yul\":32770:33216   */\n    tag_578:\n        /* \"#utility.yul\":32680:33223   */\n      pop\n      pop\n      pop\n      jump\t// out\n        /* \"#utility.yul\":33229:33346   */\n    tag_301:\n        /* \"#utility.yul\":33283:33291   */\n      0x00\n        /* \"#utility.yul\":33333:33338   */\n      dup3\n        /* \"#utility.yul\":33327:33331   */\n      dup3\n        /* \"#utility.yul\":33323:33339   */\n      shr\n        /* \"#utility.yul\":33302:33339   */\n      swap1\n      pop\n        /* \"#utility.yul\":33229:33346   */\n      swap3\n      swap2\n      pop\n      pop\n      jump\t// out\n        /* \"#utility.yul\":33352:33521   */\n    tag_302:\n        /* \"#utility.yul\":33396:33402   */\n      0x00\n        /* \"#utility.yul\":33429:33480   */\n      tag_586\n        /* \"#utility.yul\":33477:33478   */\n      0x00\n        /* \"#utility.yul\":33473:33479   */\n      not\n        /* \"#utility.yul\":33465:33470   */\n      dup5\n        /* \"#utility.yul\":33462:33463   */\n      0x08\n        /* \"#utility.yul\":33458:33471   */\n      mul\n        /* \"#utility.yul\":33429:33480   */\n      tag_301\n      jump\t// in\n    tag_586:\n        /* \"#utility.yul\":33425:33481   */\n      not\n        /* \"#utility.yul\":33510:33514   */\n      dup1\n        /* \"#utility.yul\":33504:33508   */\n      dup4\n        /* \"#utility.yul\":33500:33515   */\n      and\n        /* \"#utility.yul\":33490:33515   */\n      swap2\n      pop\n        /* \"#utility.yul\":33403:33521   */\n      pop\n        /* \"#utility.yul\":33352:33521   */\n      swap3\n      swap2\n      pop\n      pop\n      jump\t// out\n        /* \"#utility.yul\":33526:33821   */\n    tag_303:\n        /* \"#utility.yul\":33602:33606   */\n      0x00\n        /* \"#utility.yul\":33748:33777   */\n      tag_588\n        /* \"#utility.yul\":33773:33776   */\n      dup4\n        /* \"#utility.yul\":33767:33771   */\n      dup4\n        /* \"#utility.yul\":33748:33777   */\n      tag_302\n      jump\t// in\n    tag_588:\n        /* \"#utility.yul\":33740:33777   */\n      swap2\n      pop\n        /* \"#utility.yul\":33810:33813   */\n      dup3\n        /* \"#utility.yul\":33807:33808   */\n      0x02\n        /* \"#utility.yul\":33803:33814   */\n      mul\n        /* \"#utility.yul\":33797:33801   */\n      dup3\n        /* \"#utility.yul\":33794:33815   */\n      or\n        /* \"#utility.yul\":33786:33815   */\n      swap1\n      pop\n        /* \"#utility.yul\":33526:33821   */\n      swap3\n      swap2\n      pop\n      pop\n      jump\t// out\n        /* \"#utility.yul\":33826:35221   */\n    tag_209:\n        /* \"#utility.yul\":33943:33980   */\n      tag_590\n        /* \"#utility.yul\":33976:33979   */\n      dup3\n        /* \"#utility.yul\":33943:33980   */\n      tag_229\n      jump\t// in\n    tag_590:\n        /* \"#utility.yul\":34045:34063   */\n      0xffffffffffffffff\n        /* \"#utility.yul\":34037:34043   */\n      dup2\n        /* \"#utility.yul\":34034:34064   */\n      gt\n        /* \"#utility.yul\":34031:34087   */\n      iszero\n      tag_591\n      jumpi\n        /* \"#utility.yul\":34067:34085   */\n      tag_592\n      tag_240\n      jump\t// in\n    tag_592:\n        /* \"#utility.yul\":34031:34087   */\n    tag_591:\n        /* \"#utility.yul\":34111:34149   */\n      tag_593\n        /* \"#utility.yul\":34143:34147   */\n      dup3\n        /* \"#utility.yul\":34137:34148   */\n      sload\n        /* \"#utility.yul\":34111:34149   */\n      tag_99\n      jump\t// in\n    tag_593:\n        /* \"#utility.yul\":34196:34263   */\n      tag_594\n        /* \"#utility.yul\":34256:34262   */\n      dup3\n        /* \"#utility.yul\":34248:34254   */\n      dup3\n        /* \"#utility.yul\":34242:34246   */\n      dup6\n        /* \"#utility.yul\":34196:34263   */\n      tag_300\n      jump\t// in\n    tag_594:\n        /* \"#utility.yul\":34290:34291   */\n      0x00\n        /* \"#utility.yul\":34314:34318   */\n      0x20\n        /* \"#utility.yul\":34301:34318   */\n      swap1\n      pop\n        /* \"#utility.yul\":34346:34348   */\n      0x1f\n        /* \"#utility.yul\":34338:34344   */\n      dup4\n        /* \"#utility.yul\":34335:34349   */\n      gt\n        /* \"#utility.yul\":34363:34364   */\n      0x01\n        /* \"#utility.yul\":34358:34976   */\n      dup2\n      eq\n      tag_596\n      jumpi\n        /* \"#utility.yul\":35020:35021   */\n      0x00\n        /* \"#utility.yul\":35037:35043   */\n      dup5\n        /* \"#utility.yul\":35034:35111   */\n      iszero\n      tag_597\n      jumpi\n        /* \"#utility.yul\":35086:35095   */\n      dup3\n        /* \"#utility.yul\":35081:35084   */\n      dup8\n        /* \"#utility.yul\":35077:35096   */\n      add\n        /* \"#utility.yul\":35071:35097   */\n      mload\n        /* \"#utility.yul\":35062:35097   */\n      swap1\n      pop\n        /* \"#utility.yul\":35034:35111   */\n    tag_597:\n        /* \"#utility.yul\":35137:35204   */\n      tag_598\n        /* \"#utility.yul\":35197:35203   */\n      dup6\n        /* \"#utility.yul\":35190:35195   */\n      dup3\n        /* \"#utility.yul\":35137:35204   */\n      tag_303\n      jump\t// in\n    tag_598:\n        /* \"#utility.yul\":35131:35135   */\n      dup7\n        /* \"#utility.yul\":35124:35205   */\n      sstore\n        /* \"#utility.yul\":34993:35215   */\n      pop\n        /* \"#utility.yul\":34328:35215   */\n      jump(tag_595)\n        /* \"#utility.yul\":34358:34976   */\n    tag_596:\n        /* \"#utility.yul\":34410:34414   */\n      0x1f\n        /* \"#utility.yul\":34406:34415   */\n      not\n        /* \"#utility.yul\":34398:34404   */\n      dup5\n        /* \"#utility.yul\":34394:34416   */\n      and\n        /* \"#utility.yul\":34444:34481   */\n      tag_599\n        /* \"#utility.yul\":34476:34480   */\n      dup7\n        /* \"#utility.yul\":34444:34481   */\n      tag_289\n      jump\t// in\n    tag_599:\n        /* \"#utility.yul\":34503:34504   */\n      0x00\n        /* \"#utility.yul\":34517:34725   */\n    tag_600:\n        /* \"#utility.yul\":34531:34538   */\n      dup3\n        /* \"#utility.yul\":34528:34529   */\n      dup2\n        /* \"#utility.yul\":34525:34539   */\n      lt\n        /* \"#utility.yul\":34517:34725   */\n      iszero\n      tag_602\n      jumpi\n        /* \"#utility.yul\":34610:34619   */\n      dup5\n        /* \"#utility.yul\":34605:34608   */\n      dup10\n        /* \"#utility.yul\":34601:34620   */\n      add\n        /* \"#utility.yul\":34595:34621   */\n      mload\n        /* \"#utility.yul\":34587:34593   */\n      dup3\n        /* \"#utility.yul\":34580:34622   */\n      sstore\n        /* \"#utility.yul\":34661:34662   */\n      0x01\n        /* \"#utility.yul\":34653:34659   */\n      dup3\n        /* \"#utility.yul\":34649:34663   */\n      add\n        /* \"#utility.yul\":34639:34663   */\n      swap2\n      pop\n        /* \"#utility.yul\":34708:34710   */\n      0x20\n        /* \"#utility.yul\":34697:34706   */\n      dup6\n        /* \"#utility.yul\":34693:34711   */\n      add\n        /* \"#utility.yul\":34680:34711   */\n      swap5\n      pop\n        /* \"#utility.yul\":34554:34558   */\n      0x20\n        /* \"#utility.yul\":34551:34552   */\n      dup2\n        /* \"#utility.yul\":34547:34559   */\n      add\n        /* \"#utility.yul\":34542:34559   */\n      swap1\n      pop\n        /* \"#utility.yul\":34517:34725   */\n      jump(tag_600)\n    tag_602:\n        /* \"#utility.yul\":34753:34759   */\n      dup7\n        /* \"#utility.yul\":34744:34751   */\n      dup4\n        /* \"#utility.yul\":34741:34760   */\n      lt\n        /* \"#utility.yul\":34738:34917   */\n      iszero\n      tag_603\n      jumpi\n        /* \"#utility.yul\":34811:34820   */\n      dup5\n        /* \"#utility.yul\":34806:34809   */\n      dup10\n        /* \"#utility.yul\":34802:34821   */\n      add\n        /* \"#utility.yul\":34796:34822   */\n      mload\n        /* \"#utility.yul\":34854:34902   */\n      tag_604\n        /* \"#utility.yul\":34896:34900   */\n      0x1f\n        /* \"#utility.yul\":34888:34894   */\n      dup10\n        /* \"#utility.yul\":34884:34901   */\n      and\n        /* \"#utility.yul\":34873:34882   */\n      dup3\n        /* \"#utility.yul\":34854:34902   */\n      tag_302\n      jump\t// in\n    tag_604:\n        /* \"#utility.yul\":34846:34852   */\n      dup4\n        /* \"#utility.yul\":34839:34903   */\n      sstore\n        /* \"#utility.yul\":34761:34917   */\n      pop\n        /* \"#utility.yul\":34738:34917   */\n    tag_603:\n        /* \"#utility.yul\":34963:34964   */\n      0x01\n        /* \"#utility.yul\":34959:34960   */\n      0x02\n        /* \"#utility.yul\":34951:34957   */\n      dup9\n        /* \"#utility.yul\":34947:34961   */\n      mul\n        /* \"#utility.yul\":34943:34965   */\n      add\n        /* \"#utility.yul\":34937:34941   */\n      dup9\n        /* \"#utility.yul\":34930:34966   */\n      sstore\n        /* \"#utility.yul\":34365:34976   */\n      pop\n      pop\n      pop\n        /* \"#utility.yul\":34328:35215   */\n    tag_595:\n      pop\n        /* \"#utility.yul\":33918:35221   */\n      pop\n      pop\n      pop\n        /* \"#utility.yul\":33826:35221   */\n      pop\n      pop\n      jump\t// out\n        /* \"#utility.yul\":35227:35460   */\n    tag_212:\n        /* \"#utility.yul\":35266:35269   */\n      0x00\n        /* \"#utility.yul\":35289:35313   */\n      tag_606\n        /* \"#utility.yul\":35307:35312   */\n      dup3\n        /* \"#utility.yul\":35289:35313   */\n      tag_222\n      jump\t// in\n    tag_606:\n        /* \"#utility.yul\":35280:35313   */\n      swap2\n      pop\n        /* \"#utility.yul\":35335:35401   */\n      0xffffffffffffffffffffffffffffffffffffffffffffffffffffffffffffffff\n        /* \"#utility.yul\":35328:35333   */\n      dup3\n        /* \"#utility.yul\":35325:35402   */\n      sub\n        /* \"#utility.yul\":35322:35425   */\n      tag_607\n      jumpi\n        /* \"#utility.yul\":35405:35423   */\n      tag_608\n      tag_249\n      jump\t// in\n    tag_608:\n        /* \"#utility.yul\":35322:35425   */\n    tag_607:\n        /* \"#utility.yul\":35452:35453   */\n      0x01\n        /* \"#utility.yul\":35445:35450   */\n      dup3\n        /* \"#utility.yul\":35441:35454   */\n      add\n        /* \"#utility.yul\":35434:35454   */\n      swap1\n      pop\n        /* \"#utility.yul\":35227:35460   */\n      swap2\n      swap1\n      pop\n      jump\t// out\n        /* \"#utility.yul\":35466:36201   */\n    tag_215:\n        /* \"#utility.yul\":35683:35687   */\n      0x00\n        /* \"#utility.yul\":35721:35724   */\n      0x80\n        /* \"#utility.yul\":35710:35719   */\n      dup3\n        /* \"#utility.yul\":35706:35725   */\n      add\n        /* \"#utility.yul\":35698:35725   */\n      swap1\n      pop\n        /* \"#utility.yul\":35771:35780   */\n      dup2\n        /* \"#utility.yul\":35765:35769   */\n      dup2\n        /* \"#utility.yul\":35761:35781   */\n      sub\n        /* \"#utility.yul\":35757:35758   */\n      0x00\n        /* \"#utility.yul\":35746:35755   */\n      dup4\n        /* \"#utility.yul\":35742:35759   */\n      add\n        /* \"#utility.yul\":35735:35782   */\n      mstore\n        /* \"#utility.yul\":35799:35877   */\n      tag_610\n        /* \"#utility.yul\":35872:35876   */\n      dup2\n        /* \"#utility.yul\":35863:35869   */\n      dup8\n        /* \"#utility.yul\":35799:35877   */\n      tag_233\n      jump\t// in\n    tag_610:\n        /* \"#utility.yul\":35791:35877   */\n      swap1\n      pop\n        /* \"#utility.yul\":35924:35933   */\n      dup2\n        /* \"#utility.yul\":35918:35922   */\n      dup2\n        /* \"#utility.yul\":35914:35934   */\n      sub\n        /* \"#utility.yul\":35909:35911   */\n      0x20\n        /* \"#utility.yul\":35898:35907   */\n      dup4\n        /* \"#utility.yul\":35894:35912   */\n      add\n        /* \"#utility.yul\":35887:35935   */\n      mstore\n        /* \"#utility.yul\":35952:36030   */\n      tag_611\n        /* \"#utility.yul\":36025:36029   */\n      dup2\n        /* \"#utility.yul\":36016:36022   */\n      dup7\n        /* \"#utility.yul\":35952:36030   */\n      tag_233\n      jump\t// in\n    tag_611:\n        /* \"#utility.yul\":35944:36030   */\n      swap1\n      pop\n        /* \"#utility.yul\":36040:36112   */\n      tag_612\n        /* \"#utility.yul\":36108:36110   */\n      0x40\n        /* \"#utility.yul\":36097:36106   */\n      dup4\n        /* \"#utility.yul\":36093:36111   */\n      add\n        /* \"#utility.yul\":36084:36090   */\n      dup6\n        /* \"#utility.yul\":36040:36112   */\n      tag_225\n      jump\t// in\n    tag_612:\n        /* \"#utility.yul\":36122:36194   */\n      tag_613\n        /* \"#utility.yul\":36190:36192   */\n      0x60\n        /* \"#utility.yul\":36179:36188   */\n      dup4\n        /* \"#utility.yul\":36175:36193   */\n      add\n        /* \"#utility.yul\":36166:36172   */\n      dup5\n        /* \"#utility.yul\":36122:36194   */\n      tag_225\n      jump\t// in\n    tag_613:\n        /* \"#utility.yul\":35466:36201   */\n      swap6\n      swap5\n      pop\n      pop\n      pop\n      pop\n      pop\n      jump\t// out\n\n    auxdata: 0xa2646970667358221220ce81e50e245cc31358a0d544e976e5bd64392b9883e1fe7c7d4da69c6e42d23364736f6c634300081e0033\n}\n",
				"bytecode": {
					"linkReferences": {},
					"object": "6080604052348015600e575f5ffd5b5060015f8190555061265e806100235f395ff3fe6080604052600436106100dc575f3560e01c80635d4e5d781161007e57806371eb89f31161005857806371eb89f3146102c55780639ab761c7146102e1578063cd4ac98c1461030b578063f81bf60114610327576100dc565b80635d4e5d7814610245578063629b2647146102815780636c563abe146102a9576100dc565b8063370c36b4116100ba578063370c36b4146101875780633b9056bf146101c357806342d844a5146101df57806354a5bcc51461021b576100dc565b80630dbac135146100e05780631392ebfe1461011d57806321b2416c14610145575b5f5ffd5b3480156100eb575f5ffd5b506101066004803603810190610101919061139f565b61034f565b6040516101149291906113d9565b60405180910390f35b348015610128575f5ffd5b50610143600480360381019061013e9190611400565b610430565b005b348015610150575f5ffd5b5061016b6004803603810190610166919061139f565b610528565b60405161017e9796959493929190611507565b60405180910390f35b348015610192575f5ffd5b506101ad60048036038101906101a8919061139f565b61069d565b6040516101ba9190611582565b60405180910390f35b6101dd60048036038101906101d8919061139f565b6106df565b005b3480156101ea575f5ffd5b506102056004803603810190610200919061139f565b610810565b6040516102129190611582565b60405180910390f35b348015610226575f5ffd5b5061022f610852565b60405161023c9190611582565b60405180910390f35b348015610250575f5ffd5b5061026b600480360381019061026691906115c5565b61085b565b6040516102789190611582565b60405180910390f35b34801561028c575f5ffd5b506102a760048036038101906102a29190611400565b61087b565b005b6102c360048036038101906102be919061139f565b61093e565b005b6102df60048036038101906102da919061139f565b610c65565b005b3480156102ec575f5ffd5b506102f5610e2b565b6040516103029190611582565b60405180910390f35b61032560048036038101906103209190611400565b610e31565b005b348015610332575f5ffd5b5061034d6004803603810190610348919061172f565b6110f2565b005b5f5f5f60035f8581526020019081526020015f209050806003015492505f73ffffffffffffffffffffffffffffffffffffffff16815f015f9054906101000a900473ffffffffffffffffffffffffffffffffffffffff1673ffffffffffffffffffffffffffffffffffffffff16036103fc576040517f08c379a00000000000000000000000000000000000000000000000000000000081526004016103f39061184e565b60405180910390fd5b8060030154816005015410610413575f915061042a565b806005015481600301546104279190611899565b91505b50915091565b5f60035f8481526020019081526020015f2090505f81600401541161048a576040517f08c379a00000000000000000000000000000000000000000000000000000000081526004016104819061193c565b60405180910390fd5b3373ffffffffffffffffffffffffffffffffffffffff16815f015f9054906101000a900473ffffffffffffffffffffffffffffffffffffffff1673ffffffffffffffffffffffffffffffffffffffff161461051a576040517f08c379a0000000000000000000000000000000000000000000000000000000008152600401610511906119f0565b60405180910390fd5b818160030181905550505050565b6003602052805f5260405f205f91509050805f015f9054906101000a900473ffffffffffffffffffffffffffffffffffffffff169080600101805461056c90611a3b565b80601f016020809104026020016040519081016040528092919081815260200182805461059890611a3b565b80156105e35780601f106105ba576101008083540402835291602001916105e3565b820191905f5260205f20905b8154815290600101906020018083116105c657829003601f168201915b5050505050908060020180546105f890611a3b565b80601f016020809104026020016040519081016040528092919081815260200182805461062490611a3b565b801561066f5780601f106106465761010080835404028352916020019161066f565b820191905f5260205f20905b81548152906001019060200180831161065257829003601f168201915b505050505090806003015490806004015490806005015490806006015f9054906101000a900460ff16905087565b5f5f60035f8481526020019081526020015f209050806004015442106106c6575f9150506106da565b4281600401546106d69190611899565b9150505b919050565b5f60035f8381526020019081526020015f209050806003015481600501541061073d576040517f08c379a000000000000000000000000000000000000000000000000000000000815260040161073490611adb565b60405180910390fd5b5f60045f8481526020019081526020015f205f3373ffffffffffffffffffffffffffffffffffffffff1673ffffffffffffffffffffffffffffffffffffffff1681526020019081526020015f205490503373ffffffffffffffffffffffffffffffffffffffff166108fc8290811502906040515f60405180830381858888f193505050501580156107d0573d5f5f3e3d5ffd5b50827fb6e4e293b6c7c5cf68fbb52edfaca6173710fcccbcecac03c32e62327fc000c63334604051610803929190611af9565b60405180910390a2505050565b5f5f60035f8481526020019081526020015f2090505f81600301546064836005015461083c9190611b20565b6108469190611b8e565b90508092505050919050565b5f600154905090565b6004602052815f5260405f20602052805f5260405f205f91509150505481565b5f60035f8481526020019081526020015f2090503373ffffffffffffffffffffffffffffffffffffffff16815f015f9054906101000a900473ffffffffffffffffffffffffffffffffffffffff1673ffffffffffffffffffffffffffffffffffffffff161461091f576040517f08c379a000000000000000000000000000000000000000000000000000000000815260040161091690611c2e565b60405180910390fd5b81816004015f8282546109329190611c4c565b92505081905550505050565b61094661130e565b5f60035f8381526020019081526020015f20905080600401544211156109a1576040517f08c379a000000000000000000000000000000000000000000000000000000000815260040161099890611cc9565b60405180910390fd5b806006015f9054906101000a900460ff16156109f2576040517f08c379a00000000000000000000000000000000000000000000000000000000081526004016109e990611d57565b60405180910390fd5b5f3411610a34576040517f08c379a0000000000000000000000000000000000000000000000000000000008152600401610a2b90611de5565b60405180910390fd5b8060030154341115610a7b576040517f08c379a0000000000000000000000000000000000000000000000000000000008152600401610a7290611e73565b60405180910390fd5b5f81600501548260030154610a909190611899565b90505f5f82341115610ab2578291508234610aab9190611899565b9050610ab9565b3491505f90505b81846005015f828254610acc9190611c4c565b925050819055508160045f8781526020019081526020015f205f3373ffffffffffffffffffffffffffffffffffffffff1673ffffffffffffffffffffffffffffffffffffffff1681526020019081526020015f20819055508160015f828254610b359190611c4c565b925050819055505f811115610bee575f3373ffffffffffffffffffffffffffffffffffffffff1682604051610b6990611ebe565b5f6040518083038185875af1925050503d805f8114610ba3576040519150601f19603f3d011682016040523d82523d5f602084013e610ba8565b606091505b5050905080610bec576040517f08c379a0000000000000000000000000000000000000000000000000000000008152600401610be390611f1c565b60405180910390fd5b505b847f7dd983e9d08b449d571f3583275e98423857f3ffbe9ef56f927eb02b1c8ab599338484604051610c2293929190611f3a565b60405180910390a28360030154846005015410610c56576001846006015f6101000a81548160ff0219169083151502179055505b50505050610c62611352565b50565b5f60035f8381526020019081526020015f2090505f81600501549050816006015f9054906101000a900460ff16610cd1576040517f08c379a0000000000000000000000000000000000000000000000000000000008152600401610cc890611fdf565b60405180910390fd5b3373ffffffffffffffffffffffffffffffffffffffff16825f015f9054906101000a900473ffffffffffffffffffffffffffffffffffffffff1673ffffffffffffffffffffffffffffffffffffffff1614610d61576040517f08c379a0000000000000000000000000000000000000000000000000000000008152600401610d5890612047565b60405180910390fd5b4282600401541115610da8576040517f08c379a0000000000000000000000000000000000000000000000000000000008152600401610d9f906120d5565b60405180910390fd5b3373ffffffffffffffffffffffffffffffffffffffff166108fc8290811502906040515f60405180830381858888f19350505050158015610deb573d5f5f3e3d5ffd5b50827fcae030e1a3c6b0011e7009bd65734e2e1e330528f6983497631fabd47fa7a2813334604051610e1e929190611af9565b60405180910390a2505050565b60025481565b5f60035f8481526020019081526020015f20905080600401544210610e8b576040517f08c379a0000000000000000000000000000000000000000000000000000000008152600401610e829061213d565b60405180910390fd5b5f60045f8581526020019081526020015f205f3373ffffffffffffffffffffffffffffffffffffffff1673ffffffffffffffffffffffffffffffffffffffff1681526020019081526020015f205490505f8111610f1d576040517f08c379a0000000000000000000000000000000000000000000000000000000008152600401610f14906121a5565b60405180910390fd5b80831115610f60576040517f08c379a0000000000000000000000000000000000000000000000000000000008152600401610f5790612233565b60405180910390fd5b82826005015f828254610f739190611899565b925050819055508260045f8681526020019081526020015f205f3373ffffffffffffffffffffffffffffffffffffffff1673ffffffffffffffffffffffffffffffffffffffff1681526020019081526020015f205f828254610fd59190611899565b925050819055508260015f828254610fed9190611899565b925050819055505f3373ffffffffffffffffffffffffffffffffffffffff168460405161101990611ebe565b5f6040518083038185875af1925050503d805f8114611053576040519150601f19603f3d011682016040523d82523d5f602084013e611058565b606091505b505090508061109c576040517f08c379a00000000000000000000000000000000000000000000000000000000081526004016110939061229b565b60405180910390fd5b843373ffffffffffffffffffffffffffffffffffffffff167fb37480540ffb97ff520a59b38ea1a83aefbfd3d2a956d958a00214b8b6551f28866040516110e39190611582565b60405180910390a35050505050565b60055f8281526020019081526020015f205f9054906101000a900460ff1615611150576040517f08c379a000000000000000000000000000000000000000000000000000000000815260040161114790612303565b60405180910390fd5b600160055f8381526020019081526020015f205f6101000a81548160ff0219169083151502179055506040518060e001604052803373ffffffffffffffffffffffffffffffffffffffff16815260200186815260200185815260200184815260200183426111be9190611c4c565b81526020015f81526020015f151581525060035f8381526020019081526020015f205f820151815f015f6101000a81548173ffffffffffffffffffffffffffffffffffffffff021916908373ffffffffffffffffffffffffffffffffffffffff160217905550602082015181600101908161123991906124c1565b50604082015181600201908161124f91906124c1565b50606082015181600301556080820151816004015560a0820151816005015560c0820151816006015f6101000a81548160ff02191690831515021790555090505060025f8154809291906112a290612590565b91905055503373ffffffffffffffffffffffffffffffffffffffff16817fac9b83534845c9e785a6ea70f2d809db1d72ef9a1d981753712d922f5cb55f3987878787426112ef9190611c4c565b6040516112ff94939291906125d7565b60405180910390a35050505050565b60025f5403611349576040517f3ee5aeb500000000000000000000000000000000000000000000000000000000815260040160405180910390fd5b60025f81905550565b60015f81905550565b5f604051905090565b5f5ffd5b5f5ffd5b5f819050919050565b61137e8161136c565b8114611388575f5ffd5b50565b5f8135905061139981611375565b92915050565b5f602082840312156113b4576113b3611364565b5b5f6113c18482850161138b565b91505092915050565b6113d38161136c565b82525050565b5f6040820190506113ec5f8301856113ca565b6113f960208301846113ca565b9392505050565b5f5f6040838503121561141657611415611364565b5b5f6114238582860161138b565b92505060206114348582860161138b565b9150509250929050565b5f73ffffffffffffffffffffffffffffffffffffffff82169050919050565b5f6114678261143e565b9050919050565b6114778161145d565b82525050565b5f81519050919050565b5f82825260208201905092915050565b8281835e5f83830152505050565b5f601f19601f8301169050919050565b5f6114bf8261147d565b6114c98185611487565b93506114d9818560208601611497565b6114e2816114a5565b840191505092915050565b5f8115159050919050565b611501816114ed565b82525050565b5f60e08201905061151a5f83018a61146e565b818103602083015261152c81896114b5565b9050818103604083015261154081886114b5565b905061154f60608301876113ca565b61155c60808301866113ca565b61156960a08301856113ca565b61157660c08301846114f8565b98975050505050505050565b5f6020820190506115955f8301846113ca565b92915050565b6115a48161145d565b81146115ae575f5ffd5b50565b5f813590506115bf8161159b565b92915050565b5f5f604083850312156115db576115da611364565b5b5f6115e88582860161138b565b92505060206115f9858286016115b1565b9150509250929050565b5f5ffd5b5f5ffd5b7f4e487b71000000000000000000000000000000000000000000000000000000005f52604160045260245ffd5b611641826114a5565b810181811067ffffffffffffffff821117156116605761165f61160b565b5b80604052505050565b5f61167261135b565b905061167e8282611638565b919050565b5f67ffffffffffffffff82111561169d5761169c61160b565b5b6116a6826114a5565b9050602081019050919050565b828183375f83830152505050565b5f6116d36116ce84611683565b611669565b9050828152602081018484840111156116ef576116ee611607565b5b6116fa8482856116b3565b509392505050565b5f82601f83011261171657611715611603565b5b81356117268482602086016116c1565b91505092915050565b5f5f5f5f5f60a0868803121561174857611747611364565b5b5f86013567ffffffffffffffff81111561176557611764611368565b5b61177188828901611702565b955050602086013567ffffffffffffffff81111561179257611791611368565b5b61179e88828901611702565b94505060406117af8882890161138b565b93505060606117c08882890161138b565b92505060806117d18882890161138b565b9150509295509295909350565b7f70726f6a65637420686173206e6f74206265656e2063726561746564207965745f8201527f2100000000000000000000000000000000000000000000000000000000000000602082015250565b5f611838602183611487565b9150611843826117de565b604082019050919050565b5f6020820190508181035f8301526118658161182c565b9050919050565b7f4e487b71000000000000000000000000000000000000000000000000000000005f52601160045260245ffd5b5f6118a38261136c565b91506118ae8361136c565b92508282039050818111156118c6576118c561186c565b5b92915050565b7f446561646c696e65206973206f766572202c20796f752043616e2774206368615f8201527f6e6765207468652066756e64696e6720676f616c202121000000000000000000602082015250565b5f611926603783611487565b9150611931826118cc565b604082019050919050565b5f6020820190508181035f8301526119538161191a565b9050919050565b7f596f7520617265206e6f74207468652070726f6a6563742063726561746f72205f8201527f2c204f6e6c7920506f726a6563742063726561746f722063616e204368616e6760208201527f6520212100000000000000000000000000000000000000000000000000000000604082015250565b5f6119da604483611487565b91506119e58261195a565b606082019050919050565b5f6020820190508181035f830152611a07816119ce565b9050919050565b7f4e487b71000000000000000000000000000000000000000000000000000000005f52602260045260245ffd5b5f6002820490506001821680611a5257607f821691505b602082108103611a6557611a64611a0e565b5b50919050565b7f46756e64696e6720676f616c206861732072656163686564202c2075736572205f8201527f63616e2774207769746864726177000000000000000000000000000000000000602082015250565b5f611ac5602e83611487565b9150611ad082611a6b565b604082019050919050565b5f6020820190508181035f830152611af281611ab9565b9050919050565b5f604082019050611b0c5f83018561146e565b611b1960208301846113ca565b9392505050565b5f611b2a8261136c565b9150611b358361136c565b9250828202611b438161136c565b91508282048414831517611b5a57611b5961186c565b5b5092915050565b7f4e487b71000000000000000000000000000000000000000000000000000000005f52601260045260245ffd5b5f611b988261136c565b9150611ba38361136c565b925082611bb357611bb2611b61565b5b828204905092915050565b7f4f6e6c792050726f6a6563742063726561746f722063616e20657874656e64205f8201527f74686520646561646c696e652121000000000000000000000000000000000000602082015250565b5f611c18602e83611487565b9150611c2382611bbe565b604082019050919050565b5f6020820190508181035f830152611c4581611c0c565b9050919050565b5f611c568261136c565b9150611c618361136c565b9250828201905080821115611c7957611c7861186c565b5b92915050565b7f50726f6a65637420646561646c696e65206973206f76657221000000000000005f82015250565b5f611cb3601983611487565b9150611cbe82611c7f565b602082019050919050565b5f6020820190508181035f830152611ce081611ca7565b9050919050565b7f50726f6a6563742052656163686564206974732046756e64696e6720726571755f8201527f6972656d656e7400000000000000000000000000000000000000000000000000602082015250565b5f611d41602783611487565b9150611d4c82611ce7565b604082019050919050565b5f6020820190508181035f830152611d6e81611d35565b9050919050565b7f73656e6420736f6d6520657468657220746f20636f6e7472696275746520696e5f8201527f207468652070726f6a6563740000000000000000000000000000000000000000602082015250565b5f611dcf602c83611487565b9150611dda82611d75565b604082019050919050565b5f6020820190508181035f830152611dfc81611dc3565b9050919050565b7f416d6f756e7420436f6e7472696275746564206973206d6f7265207468616e205f8201527f476f616c00000000000000000000000000000000000000000000000000000000602082015250565b5f611e5d602483611487565b9150611e6882611e03565b604082019050919050565b5f6020820190508181035f830152611e8a81611e51565b9050919050565b5f81905092915050565b50565b5f611ea95f83611e91565b9150611eb482611e9b565b5f82019050919050565b5f611ec882611e9e565b9150819050919050565b7f526566756e64204661696c6564000000000000000000000000000000000000005f82015250565b5f611f06600d83611487565b9150611f1182611ed2565b602082019050919050565b5f6020820190508181035f830152611f3381611efa565b9050919050565b5f606082019050611f4d5f83018661146e565b611f5a60208301856113ca565b611f6760408301846113ca565b949350505050565b7f66756e64696e6720676f616c20686173206e6f742072656163686564202c20615f8201527f646d696e2063616e277420776974686472617700000000000000000000000000602082015250565b5f611fc9603383611487565b9150611fd482611f6f565b604082019050919050565b5f6020820190508181035f830152611ff681611fbd565b9050919050565b7f6f6e6c792061646d696e2063616e2077697468647261770000000000000000005f82015250565b5f612031601783611487565b915061203c82611ffd565b602082019050919050565b5f6020820190508181035f83015261205e81612025565b9050919050565b7f646561646c696e6520686173206e6f742072656163686564202c2061646d696e5f8201527f2063616e27742077697468647261770000000000000000000000000000000000602082015250565b5f6120bf602f83611487565b91506120ca82612065565b604082019050919050565b5f6020820190508181035f8301526120ec816120b3565b9050919050565b7f43616e6e6f7420776974686472617720616674657220646561646c696e6500005f82015250565b5f612127601e83611487565b9150612132826120f3565b602082019050919050565b5f6020820190508181035f8301526121548161211b565b9050919050565b7f4e6f2046756e647320746f2077697468647261772121000000000000000000005f82015250565b5f61218f601683611487565b915061219a8261215b565b602082019050919050565b5f6020820190508181035f8301526121bc81612183565b9050919050565b7f576974686472617720616d6f756e74206578636565647320796f757220636f6e5f8201527f747269627574696f6e0000000000000000000000000000000000000000000000602082015250565b5f61221d602983611487565b9150612228826121c3565b604082019050919050565b5f6020820190508181035f83015261224a81612211565b9050919050565b7f7769746864726177206661696c656421212121000000000000000000000000005f82015250565b5f612285601383611487565b915061229082612251565b602082019050919050565b5f6020820190508181035f8301526122b281612279565b9050919050565b7f50726f6a65637420494420697320616c726561647920696e20757365210000005f82015250565b5f6122ed601d83611487565b91506122f8826122b9565b602082019050919050565b5f6020820190508181035f83015261231a816122e1565b9050919050565b5f819050815f5260205f209050919050565b5f6020601f8301049050919050565b5f82821b905092915050565b5f6008830261237d7fffffffffffffffffffffffffffffffffffffffffffffffffffffffffffffffff82612342565b6123878683612342565b95508019841693508086168417925050509392505050565b5f819050919050565b5f6123c26123bd6123b88461136c565b61239f565b61136c565b9050919050565b5f819050919050565b6123db836123a8565b6123ef6123e7826123c9565b84845461234e565b825550505050565b5f5f905090565b6124066123f7565b6124118184846123d2565b505050565b5b81811015612434576124295f826123fe565b600181019050612417565b5050565b601f8211156124795761244a81612321565b61245384612333565b81016020851015612462578190505b61247661246e85612333565b830182612416565b50505b505050565b5f82821c905092915050565b5f6124995f198460080261247e565b1980831691505092915050565b5f6124b1838361248a565b9150826002028217905092915050565b6124ca8261147d565b67ffffffffffffffff8111156124e3576124e261160b565b5b6124ed8254611a3b565b6124f8828285612438565b5f60209050601f831160018114612529575f8415612517578287015190505b61252185826124a6565b865550612588565b601f19841661253786612321565b5f5b8281101561255e57848901518255600182019150602085019450602081019050612539565b8683101561257b5784890151612577601f89168261248a565b8355505b6001600288020188555050505b505050505050565b5f61259a8261136c565b91507fffffffffffffffffffffffffffffffffffffffffffffffffffffffffffffffff82036125cc576125cb61186c565b5b600182019050919050565b5f6080820190508181035f8301526125ef81876114b5565b9050818103602083015261260381866114b5565b905061261260408301856113ca565b61261f60608301846113ca565b9594505050505056fea2646970667358221220ce81e50e245cc31358a0d544e976e5bd64392b9883e1fe7c7d4da69c6e42d23364736f6c634300081e0033",
					"opcodes": "PUSH1 0x80 PUSH1 0x40 MSTORE CALLVALUE DUP1 ISZERO PUSH1 0xE JUMPI PUSH0 PUSH0 REVERT JUMPDEST POP PUSH1 0x1 PUSH0 DUP2 SWAP1 SSTORE POP PUSH2 0x265E DUP1 PUSH2 0x23 PUSH0 CODECOPY PUSH0 RETURN INVALID PUSH1 0x80 PUSH1 0x40 MSTORE PUSH1 0x4 CALLDATASIZE LT PUSH2 0xDC JUMPI PUSH0 CALLDATALOAD PUSH1 0xE0 SHR DUP1 PUSH4 0x5D4E5D78 GT PUSH2 0x7E JUMPI DUP1 PUSH4 0x71EB89F3 GT PUSH2 0x58 JUMPI DUP1 PUSH4 0x71EB89F3 EQ PUSH2 0x2C5 JUMPI DUP1 PUSH4 0x9AB761C7 EQ PUSH2 0x2E1 JUMPI DUP1 PUSH4 0xCD4AC98C EQ PUSH2 0x30B JUMPI DUP1 PUSH4 0xF81BF601 EQ PUSH2 0x327 JUMPI PUSH2 0xDC JUMP JUMPDEST DUP1 PUSH4 0x5D4E5D78 EQ PUSH2 0x245 JUMPI DUP1 PUSH4 0x629B2647 EQ PUSH2 0x281 JUMPI DUP1 PUSH4 0x6C563ABE EQ PUSH2 0x2A9 JUMPI PUSH2 0xDC JUMP JUMPDEST DUP1 PUSH4 0x370C36B4 GT PUSH2 0xBA JUMPI DUP1 PUSH4 0x370C36B4 EQ PUSH2 0x187 JUMPI DUP1 PUSH4 0x3B9056BF EQ PUSH2 0x1C3 JUMPI DUP1 PUSH4 0x42D844A5 EQ PUSH2 0x1DF JUMPI DUP1 PUSH4 0x54A5BCC5 EQ PUSH2 0x21B JUMPI PUSH2 0xDC JUMP JUMPDEST DUP1 PUSH4 0xDBAC135 EQ PUSH2 0xE0 JUMPI DUP1 PUSH4 0x1392EBFE EQ PUSH2 0x11D JUMPI DUP1 PUSH4 0x21B2416C EQ PUSH2 0x145 JUMPI JUMPDEST PUSH0 PUSH0 REVERT JUMPDEST CALLVALUE DUP1 ISZERO PUSH2 0xEB JUMPI PUSH0 PUSH0 REVERT JUMPDEST POP PUSH2 0x106 PUSH1 0x4 DUP1 CALLDATASIZE SUB DUP2 ADD SWAP1 PUSH2 0x101 SWAP2 SWAP1 PUSH2 0x139F JUMP JUMPDEST PUSH2 0x34F JUMP JUMPDEST PUSH1 0x40 MLOAD PUSH2 0x114 SWAP3 SWAP2 SWAP1 PUSH2 0x13D9 JUMP JUMPDEST PUSH1 0x40 MLOAD DUP1 SWAP2 SUB SWAP1 RETURN JUMPDEST CALLVALUE DUP1 ISZERO PUSH2 0x128 JUMPI PUSH0 PUSH0 REVERT JUMPDEST POP PUSH2 0x143 PUSH1 0x4 DUP1 CALLDATASIZE SUB DUP2 ADD SWAP1 PUSH2 0x13E SWAP2 SWAP1 PUSH2 0x1400 JUMP JUMPDEST PUSH2 0x430 JUMP JUMPDEST STOP JUMPDEST CALLVALUE DUP1 ISZERO PUSH2 0x150 JUMPI PUSH0 PUSH0 REVERT JUMPDEST POP PUSH2 0x16B PUSH1 0x4 DUP1 CALLDATASIZE SUB DUP2 ADD SWAP1 PUSH2 0x166 SWAP2 SWAP1 PUSH2 0x139F JUMP JUMPDEST PUSH2 0x528 JUMP JUMPDEST PUSH1 0x40 MLOAD PUSH2 0x17E SWAP8 SWAP7 SWAP6 SWAP5 SWAP4 SWAP3 SWAP2 SWAP1 PUSH2 0x1507 JUMP JUMPDEST PUSH1 0x40 MLOAD DUP1 SWAP2 SUB SWAP1 RETURN JUMPDEST CALLVALUE DUP1 ISZERO PUSH2 0x192 JUMPI PUSH0 PUSH0 REVERT JUMPDEST POP PUSH2 0x1AD PUSH1 0x4 DUP1 CALLDATASIZE SUB DUP2 ADD SWAP1 PUSH2 0x1A8 SWAP2 SWAP1 PUSH2 0x139F JUMP JUMPDEST PUSH2 0x69D JUMP JUMPDEST PUSH1 0x40 MLOAD PUSH2 0x1BA SWAP2 SWAP1 PUSH2 0x1582 JUMP JUMPDEST PUSH1 0x40 MLOAD DUP1 SWAP2 SUB SWAP1 RETURN JUMPDEST PUSH2 0x1DD PUSH1 0x4 DUP1 CALLDATASIZE SUB DUP2 ADD SWAP1 PUSH2 0x1D8 SWAP2 SWAP1 PUSH2 0x139F JUMP JUMPDEST PUSH2 0x6DF JUMP JUMPDEST STOP JUMPDEST CALLVALUE DUP1 ISZERO PUSH2 0x1EA JUMPI PUSH0 PUSH0 REVERT JUMPDEST POP PUSH2 0x205 PUSH1 0x4 DUP1 CALLDATASIZE SUB DUP2 ADD SWAP1 PUSH2 0x200 SWAP2 SWAP1 PUSH2 0x139F JUMP JUMPDEST PUSH2 0x810 JUMP JUMPDEST PUSH1 0x40 MLOAD PUSH2 0x212 SWAP2 SWAP1 PUSH2 0x1582 JUMP JUMPDEST PUSH1 0x40 MLOAD DUP1 SWAP2 SUB SWAP1 RETURN JUMPDEST CALLVALUE DUP1 ISZERO PUSH2 0x226 JUMPI PUSH0 PUSH0 REVERT JUMPDEST POP PUSH2 0x22F PUSH2 0x852 JUMP JUMPDEST PUSH1 0x40 MLOAD PUSH2 0x23C SWAP2 SWAP1 PUSH2 0x1582 JUMP JUMPDEST PUSH1 0x40 MLOAD DUP1 SWAP2 SUB SWAP1 RETURN JUMPDEST CALLVALUE DUP1 ISZERO PUSH2 0x250 JUMPI PUSH0 PUSH0 REVERT JUMPDEST POP PUSH2 0x26B PUSH1 0x4 DUP1 CALLDATASIZE SUB DUP2 ADD SWAP1 PUSH2 0x266 SWAP2 SWAP1 PUSH2 0x15C5 JUMP JUMPDEST PUSH2 0x85B JUMP JUMPDEST PUSH1 0x40 MLOAD PUSH2 0x278 SWAP2 SWAP1 PUSH2 0x1582 JUMP JUMPDEST PUSH1 0x40 MLOAD DUP1 SWAP2 SUB SWAP1 RETURN JUMPDEST CALLVALUE DUP1 ISZERO PUSH2 0x28C JUMPI PUSH0 PUSH0 REVERT JUMPDEST POP PUSH2 0x2A7 PUSH1 0x4 DUP1 CALLDATASIZE SUB DUP2 ADD SWAP1 PUSH2 0x2A2 SWAP2 SWAP1 PUSH2 0x1400 JUMP JUMPDEST PUSH2 0x87B JUMP JUMPDEST STOP JUMPDEST PUSH2 0x2C3 PUSH1 0x4 DUP1 CALLDATASIZE SUB DUP2 ADD SWAP1 PUSH2 0x2BE SWAP2 SWAP1 PUSH2 0x139F JUMP JUMPDEST PUSH2 0x93E JUMP JUMPDEST STOP JUMPDEST PUSH2 0x2DF PUSH1 0x4 DUP1 CALLDATASIZE SUB DUP2 ADD SWAP1 PUSH2 0x2DA SWAP2 SWAP1 PUSH2 0x139F JUMP JUMPDEST PUSH2 0xC65 JUMP JUMPDEST STOP JUMPDEST CALLVALUE DUP1 ISZERO PUSH2 0x2EC JUMPI PUSH0 PUSH0 REVERT JUMPDEST POP PUSH2 0x2F5 PUSH2 0xE2B JUMP JUMPDEST PUSH1 0x40 MLOAD PUSH2 0x302 SWAP2 SWAP1 PUSH2 0x1582 JUMP JUMPDEST PUSH1 0x40 MLOAD DUP1 SWAP2 SUB SWAP1 RETURN JUMPDEST PUSH2 0x325 PUSH1 0x4 DUP1 CALLDATASIZE SUB DUP2 ADD SWAP1 PUSH2 0x320 SWAP2 SWAP1 PUSH2 0x1400 JUMP JUMPDEST PUSH2 0xE31 JUMP JUMPDEST STOP JUMPDEST CALLVALUE DUP1 ISZERO PUSH2 0x332 JUMPI PUSH0 PUSH0 REVERT JUMPDEST POP PUSH2 0x34D PUSH1 0x4 DUP1 CALLDATASIZE SUB DUP2 ADD SWAP1 PUSH2 0x348 SWAP2 SWAP1 PUSH2 0x172F JUMP JUMPDEST PUSH2 0x10F2 JUMP JUMPDEST STOP JUMPDEST PUSH0 PUSH0 PUSH0 PUSH1 0x3 PUSH0 DUP6 DUP2 MSTORE PUSH1 0x20 ADD SWAP1 DUP2 MSTORE PUSH1 0x20 ADD PUSH0 KECCAK256 SWAP1 POP DUP1 PUSH1 0x3 ADD SLOAD SWAP3 POP PUSH0 PUSH20 0xFFFFFFFFFFFFFFFFFFFFFFFFFFFFFFFFFFFFFFFF AND DUP2 PUSH0 ADD PUSH0 SWAP1 SLOAD SWAP1 PUSH2 0x100 EXP SWAP1 DIV PUSH20 0xFFFFFFFFFFFFFFFFFFFFFFFFFFFFFFFFFFFFFFFF AND PUSH20 0xFFFFFFFFFFFFFFFFFFFFFFFFFFFFFFFFFFFFFFFF AND SUB PUSH2 0x3FC JUMPI PUSH1 0x40 MLOAD PUSH32 0x8C379A000000000000000000000000000000000000000000000000000000000 DUP2 MSTORE PUSH1 0x4 ADD PUSH2 0x3F3 SWAP1 PUSH2 0x184E JUMP JUMPDEST PUSH1 0x40 MLOAD DUP1 SWAP2 SUB SWAP1 REVERT JUMPDEST DUP1 PUSH1 0x3 ADD SLOAD DUP2 PUSH1 0x5 ADD SLOAD LT PUSH2 0x413 JUMPI PUSH0 SWAP2 POP PUSH2 0x42A JUMP JUMPDEST DUP1 PUSH1 0x5 ADD SLOAD DUP2 PUSH1 0x3 ADD SLOAD PUSH2 0x427 SWAP2 SWAP1 PUSH2 0x1899 JUMP JUMPDEST SWAP2 POP JUMPDEST POP SWAP2 POP SWAP2 JUMP JUMPDEST PUSH0 PUSH1 0x3 PUSH0 DUP5 DUP2 MSTORE PUSH1 0x20 ADD SWAP1 DUP2 MSTORE PUSH1 0x20 ADD PUSH0 KECCAK256 SWAP1 POP PUSH0 DUP2 PUSH1 0x4 ADD SLOAD GT PUSH2 0x48A JUMPI PUSH1 0x40 MLOAD PUSH32 0x8C379A000000000000000000000000000000000000000000000000000000000 DUP2 MSTORE PUSH1 0x4 ADD PUSH2 0x481 SWAP1 PUSH2 0x193C JUMP JUMPDEST PUSH1 0x40 MLOAD DUP1 SWAP2 SUB SWAP1 REVERT JUMPDEST CALLER PUSH20 0xFFFFFFFFFFFFFFFFFFFFFFFFFFFFFFFFFFFFFFFF AND DUP2 PUSH0 ADD PUSH0 SWAP1 SLOAD SWAP1 PUSH2 0x100 EXP SWAP1 DIV PUSH20 0xFFFFFFFFFFFFFFFFFFFFFFFFFFFFFFFFFFFFFFFF AND PUSH20 0xFFFFFFFFFFFFFFFFFFFFFFFFFFFFFFFFFFFFFFFF AND EQ PUSH2 0x51A JUMPI PUSH1 0x40 MLOAD PUSH32 0x8C379A000000000000000000000000000000000000000000000000000000000 DUP2 MSTORE PUSH1 0x4 ADD PUSH2 0x511 SWAP1 PUSH2 0x19F0 JUMP JUMPDEST PUSH1 0x40 MLOAD DUP1 SWAP2 SUB SWAP1 REVERT JUMPDEST DUP2 DUP2 PUSH1 0x3 ADD DUP2 SWAP1 SSTORE POP POP POP POP JUMP JUMPDEST PUSH1 0x3 PUSH1 0x20 MSTORE DUP1 PUSH0 MSTORE PUSH1 0x40 PUSH0 KECCAK256 PUSH0 SWAP2 POP SWAP1 POP DUP1 PUSH0 ADD PUSH0 SWAP1 SLOAD SWAP1 PUSH2 0x100 EXP SWAP1 DIV PUSH20 0xFFFFFFFFFFFFFFFFFFFFFFFFFFFFFFFFFFFFFFFF AND SWAP1 DUP1 PUSH1 0x1 ADD DUP1 SLOAD PUSH2 0x56C SWAP1 PUSH2 0x1A3B JUMP JUMPDEST DUP1 PUSH1 0x1F ADD PUSH1 0x20 DUP1 SWAP2 DIV MUL PUSH1 0x20 ADD PUSH1 0x40 MLOAD SWAP1 DUP2 ADD PUSH1 0x40 MSTORE DUP1 SWAP3 SWAP2 SWAP1 DUP2 DUP2 MSTORE PUSH1 0x20 ADD DUP3 DUP1 SLOAD PUSH2 0x598 SWAP1 PUSH2 0x1A3B JUMP JUMPDEST DUP1 ISZERO PUSH2 0x5E3 JUMPI DUP1 PUSH1 0x1F LT PUSH2 0x5BA JUMPI PUSH2 0x100 DUP1 DUP4 SLOAD DIV MUL DUP4 MSTORE SWAP2 PUSH1 0x20 ADD SWAP2 PUSH2 0x5E3 JUMP JUMPDEST DUP3 ADD SWAP2 SWAP1 PUSH0 MSTORE PUSH1 0x20 PUSH0 KECCAK256 SWAP1 JUMPDEST DUP2 SLOAD DUP2 MSTORE SWAP1 PUSH1 0x1 ADD SWAP1 PUSH1 0x20 ADD DUP1 DUP4 GT PUSH2 0x5C6 JUMPI DUP3 SWAP1 SUB PUSH1 0x1F AND DUP3 ADD SWAP2 JUMPDEST POP POP POP POP POP SWAP1 DUP1 PUSH1 0x2 ADD DUP1 SLOAD PUSH2 0x5F8 SWAP1 PUSH2 0x1A3B JUMP JUMPDEST DUP1 PUSH1 0x1F ADD PUSH1 0x20 DUP1 SWAP2 DIV MUL PUSH1 0x20 ADD PUSH1 0x40 MLOAD SWAP1 DUP2 ADD PUSH1 0x40 MSTORE DUP1 SWAP3 SWAP2 SWAP1 DUP2 DUP2 MSTORE PUSH1 0x20 ADD DUP3 DUP1 SLOAD PUSH2 0x624 SWAP1 PUSH2 0x1A3B JUMP JUMPDEST DUP1 ISZERO PUSH2 0x66F JUMPI DUP1 PUSH1 0x1F LT PUSH2 0x646 JUMPI PUSH2 0x100 DUP1 DUP4 SLOAD DIV MUL DUP4 MSTORE SWAP2 PUSH1 0x20 ADD SWAP2 PUSH2 0x66F JUMP JUMPDEST DUP3 ADD SWAP2 SWAP1 PUSH0 MSTORE PUSH1 0x20 PUSH0 KECCAK256 SWAP1 JUMPDEST DUP2 SLOAD DUP2 MSTORE SWAP1 PUSH1 0x1 ADD SWAP1 PUSH1 0x20 ADD DUP1 DUP4 GT PUSH2 0x652 JUMPI DUP3 SWAP1 SUB PUSH1 0x1F AND DUP3 ADD SWAP2 JUMPDEST POP POP POP POP POP SWAP1 DUP1 PUSH1 0x3 ADD SLOAD SWAP1 DUP1 PUSH1 0x4 ADD SLOAD SWAP1 DUP1 PUSH1 0x5 ADD SLOAD SWAP1 DUP1 PUSH1 0x6 ADD PUSH0 SWAP1 SLOAD SWAP1 PUSH2 0x100 EXP SWAP1 DIV PUSH1 0xFF AND SWAP1 POP DUP8 JUMP JUMPDEST PUSH0 PUSH0 PUSH1 0x3 PUSH0 DUP5 DUP2 MSTORE PUSH1 0x20 ADD SWAP1 DUP2 MSTORE PUSH1 0x20 ADD PUSH0 KECCAK256 SWAP1 POP DUP1 PUSH1 0x4 ADD SLOAD TIMESTAMP LT PUSH2 0x6C6 JUMPI PUSH0 SWAP2 POP POP PUSH2 0x6DA JUMP JUMPDEST TIMESTAMP DUP2 PUSH1 0x4 ADD SLOAD PUSH2 0x6D6 SWAP2 SWAP1 PUSH2 0x1899 JUMP JUMPDEST SWAP2 POP POP JUMPDEST SWAP2 SWAP1 POP JUMP JUMPDEST PUSH0 PUSH1 0x3 PUSH0 DUP4 DUP2 MSTORE PUSH1 0x20 ADD SWAP1 DUP2 MSTORE PUSH1 0x20 ADD PUSH0 KECCAK256 SWAP1 POP DUP1 PUSH1 0x3 ADD SLOAD DUP2 PUSH1 0x5 ADD SLOAD LT PUSH2 0x73D JUMPI PUSH1 0x40 MLOAD PUSH32 0x8C379A000000000000000000000000000000000000000000000000000000000 DUP2 MSTORE PUSH1 0x4 ADD PUSH2 0x734 SWAP1 PUSH2 0x1ADB JUMP JUMPDEST PUSH1 0x40 MLOAD DUP1 SWAP2 SUB SWAP1 REVERT JUMPDEST PUSH0 PUSH1 0x4 PUSH0 DUP5 DUP2 MSTORE PUSH1 0x20 ADD SWAP1 DUP2 MSTORE PUSH1 0x20 ADD PUSH0 KECCAK256 PUSH0 CALLER PUSH20 0xFFFFFFFFFFFFFFFFFFFFFFFFFFFFFFFFFFFFFFFF AND PUSH20 0xFFFFFFFFFFFFFFFFFFFFFFFFFFFFFFFFFFFFFFFF AND DUP2 MSTORE PUSH1 0x20 ADD SWAP1 DUP2 MSTORE PUSH1 0x20 ADD PUSH0 KECCAK256 SLOAD SWAP1 POP CALLER PUSH20 0xFFFFFFFFFFFFFFFFFFFFFFFFFFFFFFFFFFFFFFFF AND PUSH2 0x8FC DUP3 SWAP1 DUP2 ISZERO MUL SWAP1 PUSH1 0x40 MLOAD PUSH0 PUSH1 0x40 MLOAD DUP1 DUP4 SUB DUP2 DUP6 DUP9 DUP9 CALL SWAP4 POP POP POP POP ISZERO DUP1 ISZERO PUSH2 0x7D0 JUMPI RETURNDATASIZE PUSH0 PUSH0 RETURNDATACOPY RETURNDATASIZE PUSH0 REVERT JUMPDEST POP DUP3 PUSH32 0xB6E4E293B6C7C5CF68FBB52EDFACA6173710FCCCBCECAC03C32E62327FC000C6 CALLER CALLVALUE PUSH1 0x40 MLOAD PUSH2 0x803 SWAP3 SWAP2 SWAP1 PUSH2 0x1AF9 JUMP JUMPDEST PUSH1 0x40 MLOAD DUP1 SWAP2 SUB SWAP1 LOG2 POP POP POP JUMP JUMPDEST PUSH0 PUSH0 PUSH1 0x3 PUSH0 DUP5 DUP2 MSTORE PUSH1 0x20 ADD SWAP1 DUP2 MSTORE PUSH1 0x20 ADD PUSH0 KECCAK256 SWAP1 POP PUSH0 DUP2 PUSH1 0x3 ADD SLOAD PUSH1 0x64 DUP4 PUSH1 0x5 ADD SLOAD PUSH2 0x83C SWAP2 SWAP1 PUSH2 0x1B20 JUMP JUMPDEST PUSH2 0x846 SWAP2 SWAP1 PUSH2 0x1B8E JUMP JUMPDEST SWAP1 POP DUP1 SWAP3 POP POP POP SWAP2 SWAP1 POP JUMP JUMPDEST PUSH0 PUSH1 0x1 SLOAD SWAP1 POP SWAP1 JUMP JUMPDEST PUSH1 0x4 PUSH1 0x20 MSTORE DUP2 PUSH0 MSTORE PUSH1 0x40 PUSH0 KECCAK256 PUSH1 0x20 MSTORE DUP1 PUSH0 MSTORE PUSH1 0x40 PUSH0 KECCAK256 PUSH0 SWAP2 POP SWAP2 POP POP SLOAD DUP2 JUMP JUMPDEST PUSH0 PUSH1 0x3 PUSH0 DUP5 DUP2 MSTORE PUSH1 0x20 ADD SWAP1 DUP2 MSTORE PUSH1 0x20 ADD PUSH0 KECCAK256 SWAP1 POP CALLER PUSH20 0xFFFFFFFFFFFFFFFFFFFFFFFFFFFFFFFFFFFFFFFF AND DUP2 PUSH0 ADD PUSH0 SWAP1 SLOAD SWAP1 PUSH2 0x100 EXP SWAP1 DIV PUSH20 0xFFFFFFFFFFFFFFFFFFFFFFFFFFFFFFFFFFFFFFFF AND PUSH20 0xFFFFFFFFFFFFFFFFFFFFFFFFFFFFFFFFFFFFFFFF AND EQ PUSH2 0x91F JUMPI PUSH1 0x40 MLOAD PUSH32 0x8C379A000000000000000000000000000000000000000000000000000000000 DUP2 MSTORE PUSH1 0x4 ADD PUSH2 0x916 SWAP1 PUSH2 0x1C2E JUMP JUMPDEST PUSH1 0x40 MLOAD DUP1 SWAP2 SUB SWAP1 REVERT JUMPDEST DUP2 DUP2 PUSH1 0x4 ADD PUSH0 DUP3 DUP3 SLOAD PUSH2 0x932 SWAP2 SWAP1 PUSH2 0x1C4C JUMP JUMPDEST SWAP3 POP POP DUP2 SWAP1 SSTORE POP POP POP POP JUMP JUMPDEST PUSH2 0x946 PUSH2 0x130E JUMP JUMPDEST PUSH0 PUSH1 0x3 PUSH0 DUP4 DUP2 MSTORE PUSH1 0x20 ADD SWAP1 DUP2 MSTORE PUSH1 0x20 ADD PUSH0 KECCAK256 SWAP1 POP DUP1 PUSH1 0x4 ADD SLOAD TIMESTAMP GT ISZERO PUSH2 0x9A1 JUMPI PUSH1 0x40 MLOAD PUSH32 0x8C379A000000000000000000000000000000000000000000000000000000000 DUP2 MSTORE PUSH1 0x4 ADD PUSH2 0x998 SWAP1 PUSH2 0x1CC9 JUMP JUMPDEST PUSH1 0x40 MLOAD DUP1 SWAP2 SUB SWAP1 REVERT JUMPDEST DUP1 PUSH1 0x6 ADD PUSH0 SWAP1 SLOAD SWAP1 PUSH2 0x100 EXP SWAP1 DIV PUSH1 0xFF AND ISZERO PUSH2 0x9F2 JUMPI PUSH1 0x40 MLOAD PUSH32 0x8C379A000000000000000000000000000000000000000000000000000000000 DUP2 MSTORE PUSH1 0x4 ADD PUSH2 0x9E9 SWAP1 PUSH2 0x1D57 JUMP JUMPDEST PUSH1 0x40 MLOAD DUP1 SWAP2 SUB SWAP1 REVERT JUMPDEST PUSH0 CALLVALUE GT PUSH2 0xA34 JUMPI PUSH1 0x40 MLOAD PUSH32 0x8C379A000000000000000000000000000000000000000000000000000000000 DUP2 MSTORE PUSH1 0x4 ADD PUSH2 0xA2B SWAP1 PUSH2 0x1DE5 JUMP JUMPDEST PUSH1 0x40 MLOAD DUP1 SWAP2 SUB SWAP1 REVERT JUMPDEST DUP1 PUSH1 0x3 ADD SLOAD CALLVALUE GT ISZERO PUSH2 0xA7B JUMPI PUSH1 0x40 MLOAD PUSH32 0x8C379A000000000000000000000000000000000000000000000000000000000 DUP2 MSTORE PUSH1 0x4 ADD PUSH2 0xA72 SWAP1 PUSH2 0x1E73 JUMP JUMPDEST PUSH1 0x40 MLOAD DUP1 SWAP2 SUB SWAP1 REVERT JUMPDEST PUSH0 DUP2 PUSH1 0x5 ADD SLOAD DUP3 PUSH1 0x3 ADD SLOAD PUSH2 0xA90 SWAP2 SWAP1 PUSH2 0x1899 JUMP JUMPDEST SWAP1 POP PUSH0 PUSH0 DUP3 CALLVALUE GT ISZERO PUSH2 0xAB2 JUMPI DUP3 SWAP2 POP DUP3 CALLVALUE PUSH2 0xAAB SWAP2 SWAP1 PUSH2 0x1899 JUMP JUMPDEST SWAP1 POP PUSH2 0xAB9 JUMP JUMPDEST CALLVALUE SWAP2 POP PUSH0 SWAP1 POP JUMPDEST DUP2 DUP5 PUSH1 0x5 ADD PUSH0 DUP3 DUP3 SLOAD PUSH2 0xACC SWAP2 SWAP1 PUSH2 0x1C4C JUMP JUMPDEST SWAP3 POP POP DUP2 SWAP1 SSTORE POP DUP2 PUSH1 0x4 PUSH0 DUP8 DUP2 MSTORE PUSH1 0x20 ADD SWAP1 DUP2 MSTORE PUSH1 0x20 ADD PUSH0 KECCAK256 PUSH0 CALLER PUSH20 0xFFFFFFFFFFFFFFFFFFFFFFFFFFFFFFFFFFFFFFFF AND PUSH20 0xFFFFFFFFFFFFFFFFFFFFFFFFFFFFFFFFFFFFFFFF AND DUP2 MSTORE PUSH1 0x20 ADD SWAP1 DUP2 MSTORE PUSH1 0x20 ADD PUSH0 KECCAK256 DUP2 SWAP1 SSTORE POP DUP2 PUSH1 0x1 PUSH0 DUP3 DUP3 SLOAD PUSH2 0xB35 SWAP2 SWAP1 PUSH2 0x1C4C JUMP JUMPDEST SWAP3 POP POP DUP2 SWAP1 SSTORE POP PUSH0 DUP2 GT ISZERO PUSH2 0xBEE JUMPI PUSH0 CALLER PUSH20 0xFFFFFFFFFFFFFFFFFFFFFFFFFFFFFFFFFFFFFFFF AND DUP3 PUSH1 0x40 MLOAD PUSH2 0xB69 SWAP1 PUSH2 0x1EBE JUMP JUMPDEST PUSH0 PUSH1 0x40 MLOAD DUP1 DUP4 SUB DUP2 DUP6 DUP8 GAS CALL SWAP3 POP POP POP RETURNDATASIZE DUP1 PUSH0 DUP2 EQ PUSH2 0xBA3 JUMPI PUSH1 0x40 MLOAD SWAP2 POP PUSH1 0x1F NOT PUSH1 0x3F RETURNDATASIZE ADD AND DUP3 ADD PUSH1 0x40 MSTORE RETURNDATASIZE DUP3 MSTORE RETURNDATASIZE PUSH0 PUSH1 0x20 DUP5 ADD RETURNDATACOPY PUSH2 0xBA8 JUMP JUMPDEST PUSH1 0x60 SWAP2 POP JUMPDEST POP POP SWAP1 POP DUP1 PUSH2 0xBEC JUMPI PUSH1 0x40 MLOAD PUSH32 0x8C379A000000000000000000000000000000000000000000000000000000000 DUP2 MSTORE PUSH1 0x4 ADD PUSH2 0xBE3 SWAP1 PUSH2 0x1F1C JUMP JUMPDEST PUSH1 0x40 MLOAD DUP1 SWAP2 SUB SWAP1 REVERT JUMPDEST POP JUMPDEST DUP5 PUSH32 0x7DD983E9D08B449D571F3583275E98423857F3FFBE9EF56F927EB02B1C8AB599 CALLER DUP5 DUP5 PUSH1 0x40 MLOAD PUSH2 0xC22 SWAP4 SWAP3 SWAP2 SWAP1 PUSH2 0x1F3A JUMP JUMPDEST PUSH1 0x40 MLOAD DUP1 SWAP2 SUB SWAP1 LOG2 DUP4 PUSH1 0x3 ADD SLOAD DUP5 PUSH1 0x5 ADD SLOAD LT PUSH2 0xC56 JUMPI PUSH1 0x1 DUP5 PUSH1 0x6 ADD PUSH0 PUSH2 0x100 EXP DUP2 SLOAD DUP2 PUSH1 0xFF MUL NOT AND SWAP1 DUP4 ISZERO ISZERO MUL OR SWAP1 SSTORE POP JUMPDEST POP POP POP POP PUSH2 0xC62 PUSH2 0x1352 JUMP JUMPDEST POP JUMP JUMPDEST PUSH0 PUSH1 0x3 PUSH0 DUP4 DUP2 MSTORE PUSH1 0x20 ADD SWAP1 DUP2 MSTORE PUSH1 0x20 ADD PUSH0 KECCAK256 SWAP1 POP PUSH0 DUP2 PUSH1 0x5 ADD SLOAD SWAP1 POP DUP2 PUSH1 0x6 ADD PUSH0 SWAP1 SLOAD SWAP1 PUSH2 0x100 EXP SWAP1 DIV PUSH1 0xFF AND PUSH2 0xCD1 JUMPI PUSH1 0x40 MLOAD PUSH32 0x8C379A000000000000000000000000000000000000000000000000000000000 DUP2 MSTORE PUSH1 0x4 ADD PUSH2 0xCC8 SWAP1 PUSH2 0x1FDF JUMP JUMPDEST PUSH1 0x40 MLOAD DUP1 SWAP2 SUB SWAP1 REVERT JUMPDEST CALLER PUSH20 0xFFFFFFFFFFFFFFFFFFFFFFFFFFFFFFFFFFFFFFFF AND DUP3 PUSH0 ADD PUSH0 SWAP1 SLOAD SWAP1 PUSH2 0x100 EXP SWAP1 DIV PUSH20 0xFFFFFFFFFFFFFFFFFFFFFFFFFFFFFFFFFFFFFFFF AND PUSH20 0xFFFFFFFFFFFFFFFFFFFFFFFFFFFFFFFFFFFFFFFF AND EQ PUSH2 0xD61 JUMPI PUSH1 0x40 MLOAD PUSH32 0x8C379A000000000000000000000000000000000000000000000000000000000 DUP2 MSTORE PUSH1 0x4 ADD PUSH2 0xD58 SWAP1 PUSH2 0x2047 JUMP JUMPDEST PUSH1 0x40 MLOAD DUP1 SWAP2 SUB SWAP1 REVERT JUMPDEST TIMESTAMP DUP3 PUSH1 0x4 ADD SLOAD GT ISZERO PUSH2 0xDA8 JUMPI PUSH1 0x40 MLOAD PUSH32 0x8C379A000000000000000000000000000000000000000000000000000000000 DUP2 MSTORE PUSH1 0x4 ADD PUSH2 0xD9F SWAP1 PUSH2 0x20D5 JUMP JUMPDEST PUSH1 0x40 MLOAD DUP1 SWAP2 SUB SWAP1 REVERT JUMPDEST CALLER PUSH20 0xFFFFFFFFFFFFFFFFFFFFFFFFFFFFFFFFFFFFFFFF AND PUSH2 0x8FC DUP3 SWAP1 DUP2 ISZERO MUL SWAP1 PUSH1 0x40 MLOAD PUSH0 PUSH1 0x40 MLOAD DUP1 DUP4 SUB DUP2 DUP6 DUP9 DUP9 CALL SWAP4 POP POP POP POP ISZERO DUP1 ISZERO PUSH2 0xDEB JUMPI RETURNDATASIZE PUSH0 PUSH0 RETURNDATACOPY RETURNDATASIZE PUSH0 REVERT JUMPDEST POP DUP3 PUSH32 0xCAE030E1A3C6B0011E7009BD65734E2E1E330528F6983497631FABD47FA7A281 CALLER CALLVALUE PUSH1 0x40 MLOAD PUSH2 0xE1E SWAP3 SWAP2 SWAP1 PUSH2 0x1AF9 JUMP JUMPDEST PUSH1 0x40 MLOAD DUP1 SWAP2 SUB SWAP1 LOG2 POP POP POP JUMP JUMPDEST PUSH1 0x2 SLOAD DUP2 JUMP JUMPDEST PUSH0 PUSH1 0x3 PUSH0 DUP5 DUP2 MSTORE PUSH1 0x20 ADD SWAP1 DUP2 MSTORE PUSH1 0x20 ADD PUSH0 KECCAK256 SWAP1 POP DUP1 PUSH1 0x4 ADD SLOAD TIMESTAMP LT PUSH2 0xE8B JUMPI PUSH1 0x40 MLOAD PUSH32 0x8C379A000000000000000000000000000000000000000000000000000000000 DUP2 MSTORE PUSH1 0x4 ADD PUSH2 0xE82 SWAP1 PUSH2 0x213D JUMP JUMPDEST PUSH1 0x40 MLOAD DUP1 SWAP2 SUB SWAP1 REVERT JUMPDEST PUSH0 PUSH1 0x4 PUSH0 DUP6 DUP2 MSTORE PUSH1 0x20 ADD SWAP1 DUP2 MSTORE PUSH1 0x20 ADD PUSH0 KECCAK256 PUSH0 CALLER PUSH20 0xFFFFFFFFFFFFFFFFFFFFFFFFFFFFFFFFFFFFFFFF AND PUSH20 0xFFFFFFFFFFFFFFFFFFFFFFFFFFFFFFFFFFFFFFFF AND DUP2 MSTORE PUSH1 0x20 ADD SWAP1 DUP2 MSTORE PUSH1 0x20 ADD PUSH0 KECCAK256 SLOAD SWAP1 POP PUSH0 DUP2 GT PUSH2 0xF1D JUMPI PUSH1 0x40 MLOAD PUSH32 0x8C379A000000000000000000000000000000000000000000000000000000000 DUP2 MSTORE PUSH1 0x4 ADD PUSH2 0xF14 SWAP1 PUSH2 0x21A5 JUMP JUMPDEST PUSH1 0x40 MLOAD DUP1 SWAP2 SUB SWAP1 REVERT JUMPDEST DUP1 DUP4 GT ISZERO PUSH2 0xF60 JUMPI PUSH1 0x40 MLOAD PUSH32 0x8C379A000000000000000000000000000000000000000000000000000000000 DUP2 MSTORE PUSH1 0x4 ADD PUSH2 0xF57 SWAP1 PUSH2 0x2233 JUMP JUMPDEST PUSH1 0x40 MLOAD DUP1 SWAP2 SUB SWAP1 REVERT JUMPDEST DUP3 DUP3 PUSH1 0x5 ADD PUSH0 DUP3 DUP3 SLOAD PUSH2 0xF73 SWAP2 SWAP1 PUSH2 0x1899 JUMP JUMPDEST SWAP3 POP POP DUP2 SWAP1 SSTORE POP DUP3 PUSH1 0x4 PUSH0 DUP7 DUP2 MSTORE PUSH1 0x20 ADD SWAP1 DUP2 MSTORE PUSH1 0x20 ADD PUSH0 KECCAK256 PUSH0 CALLER PUSH20 0xFFFFFFFFFFFFFFFFFFFFFFFFFFFFFFFFFFFFFFFF AND PUSH20 0xFFFFFFFFFFFFFFFFFFFFFFFFFFFFFFFFFFFFFFFF AND DUP2 MSTORE PUSH1 0x20 ADD SWAP1 DUP2 MSTORE PUSH1 0x20 ADD PUSH0 KECCAK256 PUSH0 DUP3 DUP3 SLOAD PUSH2 0xFD5 SWAP2 SWAP1 PUSH2 0x1899 JUMP JUMPDEST SWAP3 POP POP DUP2 SWAP1 SSTORE POP DUP3 PUSH1 0x1 PUSH0 DUP3 DUP3 SLOAD PUSH2 0xFED SWAP2 SWAP1 PUSH2 0x1899 JUMP JUMPDEST SWAP3 POP POP DUP2 SWAP1 SSTORE POP PUSH0 CALLER PUSH20 0xFFFFFFFFFFFFFFFFFFFFFFFFFFFFFFFFFFFFFFFF AND DUP5 PUSH1 0x40 MLOAD PUSH2 0x1019 SWAP1 PUSH2 0x1EBE JUMP JUMPDEST PUSH0 PUSH1 0x40 MLOAD DUP1 DUP4 SUB DUP2 DUP6 DUP8 GAS CALL SWAP3 POP POP POP RETURNDATASIZE DUP1 PUSH0 DUP2 EQ PUSH2 0x1053 JUMPI PUSH1 0x40 MLOAD SWAP2 POP PUSH1 0x1F NOT PUSH1 0x3F RETURNDATASIZE ADD AND DUP3 ADD PUSH1 0x40 MSTORE RETURNDATASIZE DUP3 MSTORE RETURNDATASIZE PUSH0 PUSH1 0x20 DUP5 ADD RETURNDATACOPY PUSH2 0x1058 JUMP JUMPDEST PUSH1 0x60 SWAP2 POP JUMPDEST POP POP SWAP1 POP DUP1 PUSH2 0x109C JUMPI PUSH1 0x40 MLOAD PUSH32 0x8C379A000000000000000000000000000000000000000000000000000000000 DUP2 MSTORE PUSH1 0x4 ADD PUSH2 0x1093 SWAP1 PUSH2 0x229B JUMP JUMPDEST PUSH1 0x40 MLOAD DUP1 SWAP2 SUB SWAP1 REVERT JUMPDEST DUP5 CALLER PUSH20 0xFFFFFFFFFFFFFFFFFFFFFFFFFFFFFFFFFFFFFFFF AND PUSH32 0xB37480540FFB97FF520A59B38EA1A83AEFBFD3D2A956D958A00214B8B6551F28 DUP7 PUSH1 0x40 MLOAD PUSH2 0x10E3 SWAP2 SWAP1 PUSH2 0x1582 JUMP JUMPDEST PUSH1 0x40 MLOAD DUP1 SWAP2 SUB SWAP1 LOG3 POP POP POP POP POP JUMP JUMPDEST PUSH1 0x5 PUSH0 DUP3 DUP2 MSTORE PUSH1 0x20 ADD SWAP1 DUP2 MSTORE PUSH1 0x20 ADD PUSH0 KECCAK256 PUSH0 SWAP1 SLOAD SWAP1 PUSH2 0x100 EXP SWAP1 DIV PUSH1 0xFF AND ISZERO PUSH2 0x1150 JUMPI PUSH1 0x40 MLOAD PUSH32 0x8C379A000000000000000000000000000000000000000000000000000000000 DUP2 MSTORE PUSH1 0x4 ADD PUSH2 0x1147 SWAP1 PUSH2 0x2303 JUMP JUMPDEST PUSH1 0x40 MLOAD DUP1 SWAP2 SUB SWAP1 REVERT JUMPDEST PUSH1 0x1 PUSH1 0x5 PUSH0 DUP4 DUP2 MSTORE PUSH1 0x20 ADD SWAP1 DUP2 MSTORE PUSH1 0x20 ADD PUSH0 KECCAK256 PUSH0 PUSH2 0x100 EXP DUP2 SLOAD DUP2 PUSH1 0xFF MUL NOT AND SWAP1 DUP4 ISZERO ISZERO MUL OR SWAP1 SSTORE POP PUSH1 0x40 MLOAD DUP1 PUSH1 0xE0 ADD PUSH1 0x40 MSTORE DUP1 CALLER PUSH20 0xFFFFFFFFFFFFFFFFFFFFFFFFFFFFFFFFFFFFFFFF AND DUP2 MSTORE PUSH1 0x20 ADD DUP7 DUP2 MSTORE PUSH1 0x20 ADD DUP6 DUP2 MSTORE PUSH1 0x20 ADD DUP5 DUP2 MSTORE PUSH1 0x20 ADD DUP4 TIMESTAMP PUSH2 0x11BE SWAP2 SWAP1 PUSH2 0x1C4C JUMP JUMPDEST DUP2 MSTORE PUSH1 0x20 ADD PUSH0 DUP2 MSTORE PUSH1 0x20 ADD PUSH0 ISZERO ISZERO DUP2 MSTORE POP PUSH1 0x3 PUSH0 DUP4 DUP2 MSTORE PUSH1 0x20 ADD SWAP1 DUP2 MSTORE PUSH1 0x20 ADD PUSH0 KECCAK256 PUSH0 DUP3 ADD MLOAD DUP2 PUSH0 ADD PUSH0 PUSH2 0x100 EXP DUP2 SLOAD DUP2 PUSH20 0xFFFFFFFFFFFFFFFFFFFFFFFFFFFFFFFFFFFFFFFF MUL NOT AND SWAP1 DUP4 PUSH20 0xFFFFFFFFFFFFFFFFFFFFFFFFFFFFFFFFFFFFFFFF AND MUL OR SWAP1 SSTORE POP PUSH1 0x20 DUP3 ADD MLOAD DUP2 PUSH1 0x1 ADD SWAP1 DUP2 PUSH2 0x1239 SWAP2 SWAP1 PUSH2 0x24C1 JUMP JUMPDEST POP PUSH1 0x40 DUP3 ADD MLOAD DUP2 PUSH1 0x2 ADD SWAP1 DUP2 PUSH2 0x124F SWAP2 SWAP1 PUSH2 0x24C1 JUMP JUMPDEST POP PUSH1 0x60 DUP3 ADD MLOAD DUP2 PUSH1 0x3 ADD SSTORE PUSH1 0x80 DUP3 ADD MLOAD DUP2 PUSH1 0x4 ADD SSTORE PUSH1 0xA0 DUP3 ADD MLOAD DUP2 PUSH1 0x5 ADD SSTORE PUSH1 0xC0 DUP3 ADD MLOAD DUP2 PUSH1 0x6 ADD PUSH0 PUSH2 0x100 EXP DUP2 SLOAD DUP2 PUSH1 0xFF MUL NOT AND SWAP1 DUP4 ISZERO ISZERO MUL OR SWAP1 SSTORE POP SWAP1 POP POP PUSH1 0x2 PUSH0 DUP2 SLOAD DUP1 SWAP3 SWAP2 SWAP1 PUSH2 0x12A2 SWAP1 PUSH2 0x2590 JUMP JUMPDEST SWAP2 SWAP1 POP SSTORE POP CALLER PUSH20 0xFFFFFFFFFFFFFFFFFFFFFFFFFFFFFFFFFFFFFFFF AND DUP2 PUSH32 0xAC9B83534845C9E785A6EA70F2D809DB1D72EF9A1D981753712D922F5CB55F39 DUP8 DUP8 DUP8 DUP8 TIMESTAMP PUSH2 0x12EF SWAP2 SWAP1 PUSH2 0x1C4C JUMP JUMPDEST PUSH1 0x40 MLOAD PUSH2 0x12FF SWAP5 SWAP4 SWAP3 SWAP2 SWAP1 PUSH2 0x25D7 JUMP JUMPDEST PUSH1 0x40 MLOAD DUP1 SWAP2 SUB SWAP1 LOG3 POP POP POP POP POP JUMP JUMPDEST PUSH1 0x2 PUSH0 SLOAD SUB PUSH2 0x1349 JUMPI PUSH1 0x40 MLOAD PUSH32 0x3EE5AEB500000000000000000000000000000000000000000000000000000000 DUP2 MSTORE PUSH1 0x4 ADD PUSH1 0x40 MLOAD DUP1 SWAP2 SUB SWAP1 REVERT JUMPDEST PUSH1 0x2 PUSH0 DUP2 SWAP1 SSTORE POP JUMP JUMPDEST PUSH1 0x1 PUSH0 DUP2 SWAP1 SSTORE POP JUMP JUMPDEST PUSH0 PUSH1 0x40 MLOAD SWAP1 POP SWAP1 JUMP JUMPDEST PUSH0 PUSH0 REVERT JUMPDEST PUSH0 PUSH0 REVERT JUMPDEST PUSH0 DUP2 SWAP1 POP SWAP2 SWAP1 POP JUMP JUMPDEST PUSH2 0x137E DUP2 PUSH2 0x136C JUMP JUMPDEST DUP2 EQ PUSH2 0x1388 JUMPI PUSH0 PUSH0 REVERT JUMPDEST POP JUMP JUMPDEST PUSH0 DUP2 CALLDATALOAD SWAP1 POP PUSH2 0x1399 DUP2 PUSH2 0x1375 JUMP JUMPDEST SWAP3 SWAP2 POP POP JUMP JUMPDEST PUSH0 PUSH1 0x20 DUP3 DUP5 SUB SLT ISZERO PUSH2 0x13B4 JUMPI PUSH2 0x13B3 PUSH2 0x1364 JUMP JUMPDEST JUMPDEST PUSH0 PUSH2 0x13C1 DUP5 DUP3 DUP6 ADD PUSH2 0x138B JUMP JUMPDEST SWAP2 POP POP SWAP3 SWAP2 POP POP JUMP JUMPDEST PUSH2 0x13D3 DUP2 PUSH2 0x136C JUMP JUMPDEST DUP3 MSTORE POP POP JUMP JUMPDEST PUSH0 PUSH1 0x40 DUP3 ADD SWAP1 POP PUSH2 0x13EC PUSH0 DUP4 ADD DUP6 PUSH2 0x13CA JUMP JUMPDEST PUSH2 0x13F9 PUSH1 0x20 DUP4 ADD DUP5 PUSH2 0x13CA JUMP JUMPDEST SWAP4 SWAP3 POP POP POP JUMP JUMPDEST PUSH0 PUSH0 PUSH1 0x40 DUP4 DUP6 SUB SLT ISZERO PUSH2 0x1416 JUMPI PUSH2 0x1415 PUSH2 0x1364 JUMP JUMPDEST JUMPDEST PUSH0 PUSH2 0x1423 DUP6 DUP3 DUP7 ADD PUSH2 0x138B JUMP JUMPDEST SWAP3 POP POP PUSH1 0x20 PUSH2 0x1434 DUP6 DUP3 DUP7 ADD PUSH2 0x138B JUMP JUMPDEST SWAP2 POP POP SWAP3 POP SWAP3 SWAP1 POP JUMP JUMPDEST PUSH0 PUSH20 0xFFFFFFFFFFFFFFFFFFFFFFFFFFFFFFFFFFFFFFFF DUP3 AND SWAP1 POP SWAP2 SWAP1 POP JUMP JUMPDEST PUSH0 PUSH2 0x1467 DUP3 PUSH2 0x143E JUMP JUMPDEST SWAP1 POP SWAP2 SWAP1 POP JUMP JUMPDEST PUSH2 0x1477 DUP2 PUSH2 0x145D JUMP JUMPDEST DUP3 MSTORE POP POP JUMP JUMPDEST PUSH0 DUP2 MLOAD SWAP1 POP SWAP2 SWAP1 POP JUMP JUMPDEST PUSH0 DUP3 DUP3 MSTORE PUSH1 0x20 DUP3 ADD SWAP1 POP SWAP3 SWAP2 POP POP JUMP JUMPDEST DUP3 DUP2 DUP4 MCOPY PUSH0 DUP4 DUP4 ADD MSTORE POP POP POP JUMP JUMPDEST PUSH0 PUSH1 0x1F NOT PUSH1 0x1F DUP4 ADD AND SWAP1 POP SWAP2 SWAP1 POP JUMP JUMPDEST PUSH0 PUSH2 0x14BF DUP3 PUSH2 0x147D JUMP JUMPDEST PUSH2 0x14C9 DUP2 DUP6 PUSH2 0x1487 JUMP JUMPDEST SWAP4 POP PUSH2 0x14D9 DUP2 DUP6 PUSH1 0x20 DUP7 ADD PUSH2 0x1497 JUMP JUMPDEST PUSH2 0x14E2 DUP2 PUSH2 0x14A5 JUMP JUMPDEST DUP5 ADD SWAP2 POP POP SWAP3 SWAP2 POP POP JUMP JUMPDEST PUSH0 DUP2 ISZERO ISZERO SWAP1 POP SWAP2 SWAP1 POP JUMP JUMPDEST PUSH2 0x1501 DUP2 PUSH2 0x14ED JUMP JUMPDEST DUP3 MSTORE POP POP JUMP JUMPDEST PUSH0 PUSH1 0xE0 DUP3 ADD SWAP1 POP PUSH2 0x151A PUSH0 DUP4 ADD DUP11 PUSH2 0x146E JUMP JUMPDEST DUP2 DUP2 SUB PUSH1 0x20 DUP4 ADD MSTORE PUSH2 0x152C DUP2 DUP10 PUSH2 0x14B5 JUMP JUMPDEST SWAP1 POP DUP2 DUP2 SUB PUSH1 0x40 DUP4 ADD MSTORE PUSH2 0x1540 DUP2 DUP9 PUSH2 0x14B5 JUMP JUMPDEST SWAP1 POP PUSH2 0x154F PUSH1 0x60 DUP4 ADD DUP8 PUSH2 0x13CA JUMP JUMPDEST PUSH2 0x155C PUSH1 0x80 DUP4 ADD DUP7 PUSH2 0x13CA JUMP JUMPDEST PUSH2 0x1569 PUSH1 0xA0 DUP4 ADD DUP6 PUSH2 0x13CA JUMP JUMPDEST PUSH2 0x1576 PUSH1 0xC0 DUP4 ADD DUP5 PUSH2 0x14F8 JUMP JUMPDEST SWAP9 SWAP8 POP POP POP POP POP POP POP POP JUMP JUMPDEST PUSH0 PUSH1 0x20 DUP3 ADD SWAP1 POP PUSH2 0x1595 PUSH0 DUP4 ADD DUP5 PUSH2 0x13CA JUMP JUMPDEST SWAP3 SWAP2 POP POP JUMP JUMPDEST PUSH2 0x15A4 DUP2 PUSH2 0x145D JUMP JUMPDEST DUP2 EQ PUSH2 0x15AE JUMPI PUSH0 PUSH0 REVERT JUMPDEST POP JUMP JUMPDEST PUSH0 DUP2 CALLDATALOAD SWAP1 POP PUSH2 0x15BF DUP2 PUSH2 0x159B JUMP JUMPDEST SWAP3 SWAP2 POP POP JUMP JUMPDEST PUSH0 PUSH0 PUSH1 0x40 DUP4 DUP6 SUB SLT ISZERO PUSH2 0x15DB JUMPI PUSH2 0x15DA PUSH2 0x1364 JUMP JUMPDEST JUMPDEST PUSH0 PUSH2 0x15E8 DUP6 DUP3 DUP7 ADD PUSH2 0x138B JUMP JUMPDEST SWAP3 POP POP PUSH1 0x20 PUSH2 0x15F9 DUP6 DUP3 DUP7 ADD PUSH2 0x15B1 JUMP JUMPDEST SWAP2 POP POP SWAP3 POP SWAP3 SWAP1 POP JUMP JUMPDEST PUSH0 PUSH0 REVERT JUMPDEST PUSH0 PUSH0 REVERT JUMPDEST PUSH32 0x4E487B7100000000000000000000000000000000000000000000000000000000 PUSH0 MSTORE PUSH1 0x41 PUSH1 0x4 MSTORE PUSH1 0x24 PUSH0 REVERT JUMPDEST PUSH2 0x1641 DUP3 PUSH2 0x14A5 JUMP JUMPDEST DUP2 ADD DUP2 DUP2 LT PUSH8 0xFFFFFFFFFFFFFFFF DUP3 GT OR ISZERO PUSH2 0x1660 JUMPI PUSH2 0x165F PUSH2 0x160B JUMP JUMPDEST JUMPDEST DUP1 PUSH1 0x40 MSTORE POP POP POP JUMP JUMPDEST PUSH0 PUSH2 0x1672 PUSH2 0x135B JUMP JUMPDEST SWAP1 POP PUSH2 0x167E DUP3 DUP3 PUSH2 0x1638 JUMP JUMPDEST SWAP2 SWAP1 POP JUMP JUMPDEST PUSH0 PUSH8 0xFFFFFFFFFFFFFFFF DUP3 GT ISZERO PUSH2 0x169D JUMPI PUSH2 0x169C PUSH2 0x160B JUMP JUMPDEST JUMPDEST PUSH2 0x16A6 DUP3 PUSH2 0x14A5 JUMP JUMPDEST SWAP1 POP PUSH1 0x20 DUP2 ADD SWAP1 POP SWAP2 SWAP1 POP JUMP JUMPDEST DUP3 DUP2 DUP4 CALLDATACOPY PUSH0 DUP4 DUP4 ADD MSTORE POP POP POP JUMP JUMPDEST PUSH0 PUSH2 0x16D3 PUSH2 0x16CE DUP5 PUSH2 0x1683 JUMP JUMPDEST PUSH2 0x1669 JUMP JUMPDEST SWAP1 POP DUP3 DUP2 MSTORE PUSH1 0x20 DUP2 ADD DUP5 DUP5 DUP5 ADD GT ISZERO PUSH2 0x16EF JUMPI PUSH2 0x16EE PUSH2 0x1607 JUMP JUMPDEST JUMPDEST PUSH2 0x16FA DUP5 DUP3 DUP6 PUSH2 0x16B3 JUMP JUMPDEST POP SWAP4 SWAP3 POP POP POP JUMP JUMPDEST PUSH0 DUP3 PUSH1 0x1F DUP4 ADD SLT PUSH2 0x1716 JUMPI PUSH2 0x1715 PUSH2 0x1603 JUMP JUMPDEST JUMPDEST DUP2 CALLDATALOAD PUSH2 0x1726 DUP5 DUP3 PUSH1 0x20 DUP7 ADD PUSH2 0x16C1 JUMP JUMPDEST SWAP2 POP POP SWAP3 SWAP2 POP POP JUMP JUMPDEST PUSH0 PUSH0 PUSH0 PUSH0 PUSH0 PUSH1 0xA0 DUP7 DUP9 SUB SLT ISZERO PUSH2 0x1748 JUMPI PUSH2 0x1747 PUSH2 0x1364 JUMP JUMPDEST JUMPDEST PUSH0 DUP7 ADD CALLDATALOAD PUSH8 0xFFFFFFFFFFFFFFFF DUP2 GT ISZERO PUSH2 0x1765 JUMPI PUSH2 0x1764 PUSH2 0x1368 JUMP JUMPDEST JUMPDEST PUSH2 0x1771 DUP9 DUP3 DUP10 ADD PUSH2 0x1702 JUMP JUMPDEST SWAP6 POP POP PUSH1 0x20 DUP7 ADD CALLDATALOAD PUSH8 0xFFFFFFFFFFFFFFFF DUP2 GT ISZERO PUSH2 0x1792 JUMPI PUSH2 0x1791 PUSH2 0x1368 JUMP JUMPDEST JUMPDEST PUSH2 0x179E DUP9 DUP3 DUP10 ADD PUSH2 0x1702 JUMP JUMPDEST SWAP5 POP POP PUSH1 0x40 PUSH2 0x17AF DUP9 DUP3 DUP10 ADD PUSH2 0x138B JUMP JUMPDEST SWAP4 POP POP PUSH1 0x60 PUSH2 0x17C0 DUP9 DUP3 DUP10 ADD PUSH2 0x138B JUMP JUMPDEST SWAP3 POP POP PUSH1 0x80 PUSH2 0x17D1 DUP9 DUP3 DUP10 ADD PUSH2 0x138B JUMP JUMPDEST SWAP2 POP POP SWAP3 SWAP6 POP SWAP3 SWAP6 SWAP1 SWAP4 POP JUMP JUMPDEST PUSH32 0x70726F6A65637420686173206E6F74206265656E206372656174656420796574 PUSH0 DUP3 ADD MSTORE PUSH32 0x2100000000000000000000000000000000000000000000000000000000000000 PUSH1 0x20 DUP3 ADD MSTORE POP JUMP JUMPDEST PUSH0 PUSH2 0x1838 PUSH1 0x21 DUP4 PUSH2 0x1487 JUMP JUMPDEST SWAP2 POP PUSH2 0x1843 DUP3 PUSH2 0x17DE JUMP JUMPDEST PUSH1 0x40 DUP3 ADD SWAP1 POP SWAP2 SWAP1 POP JUMP JUMPDEST PUSH0 PUSH1 0x20 DUP3 ADD SWAP1 POP DUP2 DUP2 SUB PUSH0 DUP4 ADD MSTORE PUSH2 0x1865 DUP2 PUSH2 0x182C JUMP JUMPDEST SWAP1 POP SWAP2 SWAP1 POP JUMP JUMPDEST PUSH32 0x4E487B7100000000000000000000000000000000000000000000000000000000 PUSH0 MSTORE PUSH1 0x11 PUSH1 0x4 MSTORE PUSH1 0x24 PUSH0 REVERT JUMPDEST PUSH0 PUSH2 0x18A3 DUP3 PUSH2 0x136C JUMP JUMPDEST SWAP2 POP PUSH2 0x18AE DUP4 PUSH2 0x136C JUMP JUMPDEST SWAP3 POP DUP3 DUP3 SUB SWAP1 POP DUP2 DUP2 GT ISZERO PUSH2 0x18C6 JUMPI PUSH2 0x18C5 PUSH2 0x186C JUMP JUMPDEST JUMPDEST SWAP3 SWAP2 POP POP JUMP JUMPDEST PUSH32 0x446561646C696E65206973206F766572202C20796F752043616E277420636861 PUSH0 DUP3 ADD MSTORE PUSH32 0x6E6765207468652066756E64696E6720676F616C202121000000000000000000 PUSH1 0x20 DUP3 ADD MSTORE POP JUMP JUMPDEST PUSH0 PUSH2 0x1926 PUSH1 0x37 DUP4 PUSH2 0x1487 JUMP JUMPDEST SWAP2 POP PUSH2 0x1931 DUP3 PUSH2 0x18CC JUMP JUMPDEST PUSH1 0x40 DUP3 ADD SWAP1 POP SWAP2 SWAP1 POP JUMP JUMPDEST PUSH0 PUSH1 0x20 DUP3 ADD SWAP1 POP DUP2 DUP2 SUB PUSH0 DUP4 ADD MSTORE PUSH2 0x1953 DUP2 PUSH2 0x191A JUMP JUMPDEST SWAP1 POP SWAP2 SWAP1 POP JUMP JUMPDEST PUSH32 0x596F7520617265206E6F74207468652070726F6A6563742063726561746F7220 PUSH0 DUP3 ADD MSTORE PUSH32 0x2C204F6E6C7920506F726A6563742063726561746F722063616E204368616E67 PUSH1 0x20 DUP3 ADD MSTORE PUSH32 0x6520212100000000000000000000000000000000000000000000000000000000 PUSH1 0x40 DUP3 ADD MSTORE POP JUMP JUMPDEST PUSH0 PUSH2 0x19DA PUSH1 0x44 DUP4 PUSH2 0x1487 JUMP JUMPDEST SWAP2 POP PUSH2 0x19E5 DUP3 PUSH2 0x195A JUMP JUMPDEST PUSH1 0x60 DUP3 ADD SWAP1 POP SWAP2 SWAP1 POP JUMP JUMPDEST PUSH0 PUSH1 0x20 DUP3 ADD SWAP1 POP DUP2 DUP2 SUB PUSH0 DUP4 ADD MSTORE PUSH2 0x1A07 DUP2 PUSH2 0x19CE JUMP JUMPDEST SWAP1 POP SWAP2 SWAP1 POP JUMP JUMPDEST PUSH32 0x4E487B7100000000000000000000000000000000000000000000000000000000 PUSH0 MSTORE PUSH1 0x22 PUSH1 0x4 MSTORE PUSH1 0x24 PUSH0 REVERT JUMPDEST PUSH0 PUSH1 0x2 DUP3 DIV SWAP1 POP PUSH1 0x1 DUP3 AND DUP1 PUSH2 0x1A52 JUMPI PUSH1 0x7F DUP3 AND SWAP2 POP JUMPDEST PUSH1 0x20 DUP3 LT DUP2 SUB PUSH2 0x1A65 JUMPI PUSH2 0x1A64 PUSH2 0x1A0E JUMP JUMPDEST JUMPDEST POP SWAP2 SWAP1 POP JUMP JUMPDEST PUSH32 0x46756E64696E6720676F616C206861732072656163686564202C207573657220 PUSH0 DUP3 ADD MSTORE PUSH32 0x63616E2774207769746864726177000000000000000000000000000000000000 PUSH1 0x20 DUP3 ADD MSTORE POP JUMP JUMPDEST PUSH0 PUSH2 0x1AC5 PUSH1 0x2E DUP4 PUSH2 0x1487 JUMP JUMPDEST SWAP2 POP PUSH2 0x1AD0 DUP3 PUSH2 0x1A6B JUMP JUMPDEST PUSH1 0x40 DUP3 ADD SWAP1 POP SWAP2 SWAP1 POP JUMP JUMPDEST PUSH0 PUSH1 0x20 DUP3 ADD SWAP1 POP DUP2 DUP2 SUB PUSH0 DUP4 ADD MSTORE PUSH2 0x1AF2 DUP2 PUSH2 0x1AB9 JUMP JUMPDEST SWAP1 POP SWAP2 SWAP1 POP JUMP JUMPDEST PUSH0 PUSH1 0x40 DUP3 ADD SWAP1 POP PUSH2 0x1B0C PUSH0 DUP4 ADD DUP6 PUSH2 0x146E JUMP JUMPDEST PUSH2 0x1B19 PUSH1 0x20 DUP4 ADD DUP5 PUSH2 0x13CA JUMP JUMPDEST SWAP4 SWAP3 POP POP POP JUMP JUMPDEST PUSH0 PUSH2 0x1B2A DUP3 PUSH2 0x136C JUMP JUMPDEST SWAP2 POP PUSH2 0x1B35 DUP4 PUSH2 0x136C JUMP JUMPDEST SWAP3 POP DUP3 DUP3 MUL PUSH2 0x1B43 DUP2 PUSH2 0x136C JUMP JUMPDEST SWAP2 POP DUP3 DUP3 DIV DUP5 EQ DUP4 ISZERO OR PUSH2 0x1B5A JUMPI PUSH2 0x1B59 PUSH2 0x186C JUMP JUMPDEST JUMPDEST POP SWAP3 SWAP2 POP POP JUMP JUMPDEST PUSH32 0x4E487B7100000000000000000000000000000000000000000000000000000000 PUSH0 MSTORE PUSH1 0x12 PUSH1 0x4 MSTORE PUSH1 0x24 PUSH0 REVERT JUMPDEST PUSH0 PUSH2 0x1B98 DUP3 PUSH2 0x136C JUMP JUMPDEST SWAP2 POP PUSH2 0x1BA3 DUP4 PUSH2 0x136C JUMP JUMPDEST SWAP3 POP DUP3 PUSH2 0x1BB3 JUMPI PUSH2 0x1BB2 PUSH2 0x1B61 JUMP JUMPDEST JUMPDEST DUP3 DUP3 DIV SWAP1 POP SWAP3 SWAP2 POP POP JUMP JUMPDEST PUSH32 0x4F6E6C792050726F6A6563742063726561746F722063616E20657874656E6420 PUSH0 DUP3 ADD MSTORE PUSH32 0x74686520646561646C696E652121000000000000000000000000000000000000 PUSH1 0x20 DUP3 ADD MSTORE POP JUMP JUMPDEST PUSH0 PUSH2 0x1C18 PUSH1 0x2E DUP4 PUSH2 0x1487 JUMP JUMPDEST SWAP2 POP PUSH2 0x1C23 DUP3 PUSH2 0x1BBE JUMP JUMPDEST PUSH1 0x40 DUP3 ADD SWAP1 POP SWAP2 SWAP1 POP JUMP JUMPDEST PUSH0 PUSH1 0x20 DUP3 ADD SWAP1 POP DUP2 DUP2 SUB PUSH0 DUP4 ADD MSTORE PUSH2 0x1C45 DUP2 PUSH2 0x1C0C JUMP JUMPDEST SWAP1 POP SWAP2 SWAP1 POP JUMP JUMPDEST PUSH0 PUSH2 0x1C56 DUP3 PUSH2 0x136C JUMP JUMPDEST SWAP2 POP PUSH2 0x1C61 DUP4 PUSH2 0x136C JUMP JUMPDEST SWAP3 POP DUP3 DUP3 ADD SWAP1 POP DUP1 DUP3 GT ISZERO PUSH2 0x1C79 JUMPI PUSH2 0x1C78 PUSH2 0x186C JUMP JUMPDEST JUMPDEST SWAP3 SWAP2 POP POP JUMP JUMPDEST PUSH32 0x50726F6A65637420646561646C696E65206973206F7665722100000000000000 PUSH0 DUP3 ADD MSTORE POP JUMP JUMPDEST PUSH0 PUSH2 0x1CB3 PUSH1 0x19 DUP4 PUSH2 0x1487 JUMP JUMPDEST SWAP2 POP PUSH2 0x1CBE DUP3 PUSH2 0x1C7F JUMP JUMPDEST PUSH1 0x20 DUP3 ADD SWAP1 POP SWAP2 SWAP1 POP JUMP JUMPDEST PUSH0 PUSH1 0x20 DUP3 ADD SWAP1 POP DUP2 DUP2 SUB PUSH0 DUP4 ADD MSTORE PUSH2 0x1CE0 DUP2 PUSH2 0x1CA7 JUMP JUMPDEST SWAP1 POP SWAP2 SWAP1 POP JUMP JUMPDEST PUSH32 0x50726F6A6563742052656163686564206974732046756E64696E672072657175 PUSH0 DUP3 ADD MSTORE PUSH32 0x6972656D656E7400000000000000000000000000000000000000000000000000 PUSH1 0x20 DUP3 ADD MSTORE POP JUMP JUMPDEST PUSH0 PUSH2 0x1D41 PUSH1 0x27 DUP4 PUSH2 0x1487 JUMP JUMPDEST SWAP2 POP PUSH2 0x1D4C DUP3 PUSH2 0x1CE7 JUMP JUMPDEST PUSH1 0x40 DUP3 ADD SWAP1 POP SWAP2 SWAP1 POP JUMP JUMPDEST PUSH0 PUSH1 0x20 DUP3 ADD SWAP1 POP DUP2 DUP2 SUB PUSH0 DUP4 ADD MSTORE PUSH2 0x1D6E DUP2 PUSH2 0x1D35 JUMP JUMPDEST SWAP1 POP SWAP2 SWAP1 POP JUMP JUMPDEST PUSH32 0x73656E6420736F6D6520657468657220746F20636F6E7472696275746520696E PUSH0 DUP3 ADD MSTORE PUSH32 0x207468652070726F6A6563740000000000000000000000000000000000000000 PUSH1 0x20 DUP3 ADD MSTORE POP JUMP JUMPDEST PUSH0 PUSH2 0x1DCF PUSH1 0x2C DUP4 PUSH2 0x1487 JUMP JUMPDEST SWAP2 POP PUSH2 0x1DDA DUP3 PUSH2 0x1D75 JUMP JUMPDEST PUSH1 0x40 DUP3 ADD SWAP1 POP SWAP2 SWAP1 POP JUMP JUMPDEST PUSH0 PUSH1 0x20 DUP3 ADD SWAP1 POP DUP2 DUP2 SUB PUSH0 DUP4 ADD MSTORE PUSH2 0x1DFC DUP2 PUSH2 0x1DC3 JUMP JUMPDEST SWAP1 POP SWAP2 SWAP1 POP JUMP JUMPDEST PUSH32 0x416D6F756E7420436F6E7472696275746564206973206D6F7265207468616E20 PUSH0 DUP3 ADD MSTORE PUSH32 0x476F616C00000000000000000000000000000000000000000000000000000000 PUSH1 0x20 DUP3 ADD MSTORE POP JUMP JUMPDEST PUSH0 PUSH2 0x1E5D PUSH1 0x24 DUP4 PUSH2 0x1487 JUMP JUMPDEST SWAP2 POP PUSH2 0x1E68 DUP3 PUSH2 0x1E03 JUMP JUMPDEST PUSH1 0x40 DUP3 ADD SWAP1 POP SWAP2 SWAP1 POP JUMP JUMPDEST PUSH0 PUSH1 0x20 DUP3 ADD SWAP1 POP DUP2 DUP2 SUB PUSH0 DUP4 ADD MSTORE PUSH2 0x1E8A DUP2 PUSH2 0x1E51 JUMP JUMPDEST SWAP1 POP SWAP2 SWAP1 POP JUMP JUMPDEST PUSH0 DUP2 SWAP1 POP SWAP3 SWAP2 POP POP JUMP JUMPDEST POP JUMP JUMPDEST PUSH0 PUSH2 0x1EA9 PUSH0 DUP4 PUSH2 0x1E91 JUMP JUMPDEST SWAP2 POP PUSH2 0x1EB4 DUP3 PUSH2 0x1E9B JUMP JUMPDEST PUSH0 DUP3 ADD SWAP1 POP SWAP2 SWAP1 POP JUMP JUMPDEST PUSH0 PUSH2 0x1EC8 DUP3 PUSH2 0x1E9E JUMP JUMPDEST SWAP2 POP DUP2 SWAP1 POP SWAP2 SWAP1 POP JUMP JUMPDEST PUSH32 0x526566756E64204661696C656400000000000000000000000000000000000000 PUSH0 DUP3 ADD MSTORE POP JUMP JUMPDEST PUSH0 PUSH2 0x1F06 PUSH1 0xD DUP4 PUSH2 0x1487 JUMP JUMPDEST SWAP2 POP PUSH2 0x1F11 DUP3 PUSH2 0x1ED2 JUMP JUMPDEST PUSH1 0x20 DUP3 ADD SWAP1 POP SWAP2 SWAP1 POP JUMP JUMPDEST PUSH0 PUSH1 0x20 DUP3 ADD SWAP1 POP DUP2 DUP2 SUB PUSH0 DUP4 ADD MSTORE PUSH2 0x1F33 DUP2 PUSH2 0x1EFA JUMP JUMPDEST SWAP1 POP SWAP2 SWAP1 POP JUMP JUMPDEST PUSH0 PUSH1 0x60 DUP3 ADD SWAP1 POP PUSH2 0x1F4D PUSH0 DUP4 ADD DUP7 PUSH2 0x146E JUMP JUMPDEST PUSH2 0x1F5A PUSH1 0x20 DUP4 ADD DUP6 PUSH2 0x13CA JUMP JUMPDEST PUSH2 0x1F67 PUSH1 0x40 DUP4 ADD DUP5 PUSH2 0x13CA JUMP JUMPDEST SWAP5 SWAP4 POP POP POP POP JUMP JUMPDEST PUSH32 0x66756E64696E6720676F616C20686173206E6F742072656163686564202C2061 PUSH0 DUP3 ADD MSTORE PUSH32 0x646D696E2063616E277420776974686472617700000000000000000000000000 PUSH1 0x20 DUP3 ADD MSTORE POP JUMP JUMPDEST PUSH0 PUSH2 0x1FC9 PUSH1 0x33 DUP4 PUSH2 0x1487 JUMP JUMPDEST SWAP2 POP PUSH2 0x1FD4 DUP3 PUSH2 0x1F6F JUMP JUMPDEST PUSH1 0x40 DUP3 ADD SWAP1 POP SWAP2 SWAP1 POP JUMP JUMPDEST PUSH0 PUSH1 0x20 DUP3 ADD SWAP1 POP DUP2 DUP2 SUB PUSH0 DUP4 ADD MSTORE PUSH2 0x1FF6 DUP2 PUSH2 0x1FBD JUMP JUMPDEST SWAP1 POP SWAP2 SWAP1 POP JUMP JUMPDEST PUSH32 0x6F6E6C792061646D696E2063616E207769746864726177000000000000000000 PUSH0 DUP3 ADD MSTORE POP JUMP JUMPDEST PUSH0 PUSH2 0x2031 PUSH1 0x17 DUP4 PUSH2 0x1487 JUMP JUMPDEST SWAP2 POP PUSH2 0x203C DUP3 PUSH2 0x1FFD JUMP JUMPDEST PUSH1 0x20 DUP3 ADD SWAP1 POP SWAP2 SWAP1 POP JUMP JUMPDEST PUSH0 PUSH1 0x20 DUP3 ADD SWAP1 POP DUP2 DUP2 SUB PUSH0 DUP4 ADD MSTORE PUSH2 0x205E DUP2 PUSH2 0x2025 JUMP JUMPDEST SWAP1 POP SWAP2 SWAP1 POP JUMP JUMPDEST PUSH32 0x646561646C696E6520686173206E6F742072656163686564202C2061646D696E PUSH0 DUP3 ADD MSTORE PUSH32 0x2063616E27742077697468647261770000000000000000000000000000000000 PUSH1 0x20 DUP3 ADD MSTORE POP JUMP JUMPDEST PUSH0 PUSH2 0x20BF PUSH1 0x2F DUP4 PUSH2 0x1487 JUMP JUMPDEST SWAP2 POP PUSH2 0x20CA DUP3 PUSH2 0x2065 JUMP JUMPDEST PUSH1 0x40 DUP3 ADD SWAP1 POP SWAP2 SWAP1 POP JUMP JUMPDEST PUSH0 PUSH1 0x20 DUP3 ADD SWAP1 POP DUP2 DUP2 SUB PUSH0 DUP4 ADD MSTORE PUSH2 0x20EC DUP2 PUSH2 0x20B3 JUMP JUMPDEST SWAP1 POP SWAP2 SWAP1 POP JUMP JUMPDEST PUSH32 0x43616E6E6F7420776974686472617720616674657220646561646C696E650000 PUSH0 DUP3 ADD MSTORE POP JUMP JUMPDEST PUSH0 PUSH2 0x2127 PUSH1 0x1E DUP4 PUSH2 0x1487 JUMP JUMPDEST SWAP2 POP PUSH2 0x2132 DUP3 PUSH2 0x20F3 JUMP JUMPDEST PUSH1 0x20 DUP3 ADD SWAP1 POP SWAP2 SWAP1 POP JUMP JUMPDEST PUSH0 PUSH1 0x20 DUP3 ADD SWAP1 POP DUP2 DUP2 SUB PUSH0 DUP4 ADD MSTORE PUSH2 0x2154 DUP2 PUSH2 0x211B JUMP JUMPDEST SWAP1 POP SWAP2 SWAP1 POP JUMP JUMPDEST PUSH32 0x4E6F2046756E647320746F207769746864726177212100000000000000000000 PUSH0 DUP3 ADD MSTORE POP JUMP JUMPDEST PUSH0 PUSH2 0x218F PUSH1 0x16 DUP4 PUSH2 0x1487 JUMP JUMPDEST SWAP2 POP PUSH2 0x219A DUP3 PUSH2 0x215B JUMP JUMPDEST PUSH1 0x20 DUP3 ADD SWAP1 POP SWAP2 SWAP1 POP JUMP JUMPDEST PUSH0 PUSH1 0x20 DUP3 ADD SWAP1 POP DUP2 DUP2 SUB PUSH0 DUP4 ADD MSTORE PUSH2 0x21BC DUP2 PUSH2 0x2183 JUMP JUMPDEST SWAP1 POP SWAP2 SWAP1 POP JUMP JUMPDEST PUSH32 0x576974686472617720616D6F756E74206578636565647320796F757220636F6E PUSH0 DUP3 ADD MSTORE PUSH32 0x747269627574696F6E0000000000000000000000000000000000000000000000 PUSH1 0x20 DUP3 ADD MSTORE POP JUMP JUMPDEST PUSH0 PUSH2 0x221D PUSH1 0x29 DUP4 PUSH2 0x1487 JUMP JUMPDEST SWAP2 POP PUSH2 0x2228 DUP3 PUSH2 0x21C3 JUMP JUMPDEST PUSH1 0x40 DUP3 ADD SWAP1 POP SWAP2 SWAP1 POP JUMP JUMPDEST PUSH0 PUSH1 0x20 DUP3 ADD SWAP1 POP DUP2 DUP2 SUB PUSH0 DUP4 ADD MSTORE PUSH2 0x224A DUP2 PUSH2 0x2211 JUMP JUMPDEST SWAP1 POP SWAP2 SWAP1 POP JUMP JUMPDEST PUSH32 0x7769746864726177206661696C65642121212100000000000000000000000000 PUSH0 DUP3 ADD MSTORE POP JUMP JUMPDEST PUSH0 PUSH2 0x2285 PUSH1 0x13 DUP4 PUSH2 0x1487 JUMP JUMPDEST SWAP2 POP PUSH2 0x2290 DUP3 PUSH2 0x2251 JUMP JUMPDEST PUSH1 0x20 DUP3 ADD SWAP1 POP SWAP2 SWAP1 POP JUMP JUMPDEST PUSH0 PUSH1 0x20 DUP3 ADD SWAP1 POP DUP2 DUP2 SUB PUSH0 DUP4 ADD MSTORE PUSH2 0x22B2 DUP2 PUSH2 0x2279 JUMP JUMPDEST SWAP1 POP SWAP2 SWAP1 POP JUMP JUMPDEST PUSH32 0x50726F6A65637420494420697320616C726561647920696E2075736521000000 PUSH0 DUP3 ADD MSTORE POP JUMP JUMPDEST PUSH0 PUSH2 0x22ED PUSH1 0x1D DUP4 PUSH2 0x1487 JUMP JUMPDEST SWAP2 POP PUSH2 0x22F8 DUP3 PUSH2 0x22B9 JUMP JUMPDEST PUSH1 0x20 DUP3 ADD SWAP1 POP SWAP2 SWAP1 POP JUMP JUMPDEST PUSH0 PUSH1 0x20 DUP3 ADD SWAP1 POP DUP2 DUP2 SUB PUSH0 DUP4 ADD MSTORE PUSH2 0x231A DUP2 PUSH2 0x22E1 JUMP JUMPDEST SWAP1 POP SWAP2 SWAP1 POP JUMP JUMPDEST PUSH0 DUP2 SWAP1 POP DUP2 PUSH0 MSTORE PUSH1 0x20 PUSH0 KECCAK256 SWAP1 POP SWAP2 SWAP1 POP JUMP JUMPDEST PUSH0 PUSH1 0x20 PUSH1 0x1F DUP4 ADD DIV SWAP1 POP SWAP2 SWAP1 POP JUMP JUMPDEST PUSH0 DUP3 DUP3 SHL SWAP1 POP SWAP3 SWAP2 POP POP JUMP JUMPDEST PUSH0 PUSH1 0x8 DUP4 MUL PUSH2 0x237D PUSH32 0xFFFFFFFFFFFFFFFFFFFFFFFFFFFFFFFFFFFFFFFFFFFFFFFFFFFFFFFFFFFFFFFF DUP3 PUSH2 0x2342 JUMP JUMPDEST PUSH2 0x2387 DUP7 DUP4 PUSH2 0x2342 JUMP JUMPDEST SWAP6 POP DUP1 NOT DUP5 AND SWAP4 POP DUP1 DUP7 AND DUP5 OR SWAP3 POP POP POP SWAP4 SWAP3 POP POP POP JUMP JUMPDEST PUSH0 DUP2 SWAP1 POP SWAP2 SWAP1 POP JUMP JUMPDEST PUSH0 PUSH2 0x23C2 PUSH2 0x23BD PUSH2 0x23B8 DUP5 PUSH2 0x136C JUMP JUMPDEST PUSH2 0x239F JUMP JUMPDEST PUSH2 0x136C JUMP JUMPDEST SWAP1 POP SWAP2 SWAP1 POP JUMP JUMPDEST PUSH0 DUP2 SWAP1 POP SWAP2 SWAP1 POP JUMP JUMPDEST PUSH2 0x23DB DUP4 PUSH2 0x23A8 JUMP JUMPDEST PUSH2 0x23EF PUSH2 0x23E7 DUP3 PUSH2 0x23C9 JUMP JUMPDEST DUP5 DUP5 SLOAD PUSH2 0x234E JUMP JUMPDEST DUP3 SSTORE POP POP POP POP JUMP JUMPDEST PUSH0 PUSH0 SWAP1 POP SWAP1 JUMP JUMPDEST PUSH2 0x2406 PUSH2 0x23F7 JUMP JUMPDEST PUSH2 0x2411 DUP2 DUP5 DUP5 PUSH2 0x23D2 JUMP JUMPDEST POP POP POP JUMP JUMPDEST JUMPDEST DUP2 DUP2 LT ISZERO PUSH2 0x2434 JUMPI PUSH2 0x2429 PUSH0 DUP3 PUSH2 0x23FE JUMP JUMPDEST PUSH1 0x1 DUP2 ADD SWAP1 POP PUSH2 0x2417 JUMP JUMPDEST POP POP JUMP JUMPDEST PUSH1 0x1F DUP3 GT ISZERO PUSH2 0x2479 JUMPI PUSH2 0x244A DUP2 PUSH2 0x2321 JUMP JUMPDEST PUSH2 0x2453 DUP5 PUSH2 0x2333 JUMP JUMPDEST DUP2 ADD PUSH1 0x20 DUP6 LT ISZERO PUSH2 0x2462 JUMPI DUP2 SWAP1 POP JUMPDEST PUSH2 0x2476 PUSH2 0x246E DUP6 PUSH2 0x2333 JUMP JUMPDEST DUP4 ADD DUP3 PUSH2 0x2416 JUMP JUMPDEST POP POP JUMPDEST POP POP POP JUMP JUMPDEST PUSH0 DUP3 DUP3 SHR SWAP1 POP SWAP3 SWAP2 POP POP JUMP JUMPDEST PUSH0 PUSH2 0x2499 PUSH0 NOT DUP5 PUSH1 0x8 MUL PUSH2 0x247E JUMP JUMPDEST NOT DUP1 DUP4 AND SWAP2 POP POP SWAP3 SWAP2 POP POP JUMP JUMPDEST PUSH0 PUSH2 0x24B1 DUP4 DUP4 PUSH2 0x248A JUMP JUMPDEST SWAP2 POP DUP3 PUSH1 0x2 MUL DUP3 OR SWAP1 POP SWAP3 SWAP2 POP POP JUMP JUMPDEST PUSH2 0x24CA DUP3 PUSH2 0x147D JUMP JUMPDEST PUSH8 0xFFFFFFFFFFFFFFFF DUP2 GT ISZERO PUSH2 0x24E3 JUMPI PUSH2 0x24E2 PUSH2 0x160B JUMP JUMPDEST JUMPDEST PUSH2 0x24ED DUP3 SLOAD PUSH2 0x1A3B JUMP JUMPDEST PUSH2 0x24F8 DUP3 DUP3 DUP6 PUSH2 0x2438 JUMP JUMPDEST PUSH0 PUSH1 0x20 SWAP1 POP PUSH1 0x1F DUP4 GT PUSH1 0x1 DUP2 EQ PUSH2 0x2529 JUMPI PUSH0 DUP5 ISZERO PUSH2 0x2517 JUMPI DUP3 DUP8 ADD MLOAD SWAP1 POP JUMPDEST PUSH2 0x2521 DUP6 DUP3 PUSH2 0x24A6 JUMP JUMPDEST DUP7 SSTORE POP PUSH2 0x2588 JUMP JUMPDEST PUSH1 0x1F NOT DUP5 AND PUSH2 0x2537 DUP7 PUSH2 0x2321 JUMP JUMPDEST PUSH0 JUMPDEST DUP3 DUP2 LT ISZERO PUSH2 0x255E JUMPI DUP5 DUP10 ADD MLOAD DUP3 SSTORE PUSH1 0x1 DUP3 ADD SWAP2 POP PUSH1 0x20 DUP6 ADD SWAP5 POP PUSH1 0x20 DUP2 ADD SWAP1 POP PUSH2 0x2539 JUMP JUMPDEST DUP7 DUP4 LT ISZERO PUSH2 0x257B JUMPI DUP5 DUP10 ADD MLOAD PUSH2 0x2577 PUSH1 0x1F DUP10 AND DUP3 PUSH2 0x248A JUMP JUMPDEST DUP4 SSTORE POP JUMPDEST PUSH1 0x1 PUSH1 0x2 DUP9 MUL ADD DUP9 SSTORE POP POP POP JUMPDEST POP POP POP POP POP POP JUMP JUMPDEST PUSH0 PUSH2 0x259A DUP3 PUSH2 0x136C JUMP JUMPDEST SWAP2 POP PUSH32 0xFFFFFFFFFFFFFFFFFFFFFFFFFFFFFFFFFFFFFFFFFFFFFFFFFFFFFFFFFFFFFFFF DUP3 SUB PUSH2 0x25CC JUMPI PUSH2 0x25CB PUSH2 0x186C JUMP JUMPDEST JUMPDEST PUSH1 0x1 DUP3 ADD SWAP1 POP SWAP2 SWAP1 POP JUMP JUMPDEST PUSH0 PUSH1 0x80 DUP3 ADD SWAP1 POP DUP2 DUP2 SUB PUSH0 DUP4 ADD MSTORE PUSH2 0x25EF DUP2 DUP8 PUSH2 0x14B5 JUMP JUMPDEST SWAP1 POP DUP2 DUP2 SUB PUSH1 0x20 DUP4 ADD MSTORE PUSH2 0x2603 DUP2 DUP7 PUSH2 0x14B5 JUMP JUMPDEST SWAP1 POP PUSH2 0x2612 PUSH1 0x40 DUP4 ADD DUP6 PUSH2 0x13CA JUMP JUMPDEST PUSH2 0x261F PUSH1 0x60 DUP4 ADD DUP5 PUSH2 0x13CA JUMP JUMPDEST SWAP6 SWAP5 POP POP POP POP POP JUMP INVALID LOG2 PUSH5 0x6970667358 0x22 SLT KECCAK256 0xCE DUP2 JUMPF 0xE24 TLOAD 0xC3 SGT PC LOG0 0xD5 PREVRANDAO 0xE9 PUSH23 0xE5BD64392B9883E1FE7C7D4DA69C6E42D23364736F6C63 NUMBER STOP ADDMOD 0x1E STOP CALLER "
				},
				"gasEstimates": {
					"creation": {
						"codeDepositCost": "1964400",
						"executionCost": "24188",
						"totalCost": "1988588"
					},
					"external": {
						"Change_FundingGoal(uint256,uint256)": "infinite",
						"Contributions(uint256,address)": "infinite",
						"Extend_Deadline(uint256,uint256)": "infinite",
						"Funding_Raised_Percentage(uint256)": "infinite",
						"Get_Total_Raised_Funding()": "2521",
						"Projects(uint256)": "infinite",
						"Remaining_Fund(uint256)": "infinite",
						"Time_Left(uint256)": "infinite",
						"TotalProjects()": "2469",
						"createProject(string,string,uint256,uint256,uint256)": "infinite",
						"creatorWithdraw(uint256)": "infinite",
						"fundProject(uint256)": "infinite",
						"userEarlyWithdraw(uint256,uint256)": "infinite",
						"userWithdraw(uint256)": "infinite"
					}
				},
				"methodIdentifiers": {
					"Change_FundingGoal(uint256,uint256)": "1392ebfe",
					"Contributions(uint256,address)": "5d4e5d78",
					"Extend_Deadline(uint256,uint256)": "629b2647",
					"Funding_Raised_Percentage(uint256)": "42d844a5",
					"Get_Total_Raised_Funding()": "54a5bcc5",
					"Projects(uint256)": "21b2416c",
					"Remaining_Fund(uint256)": "0dbac135",
					"Time_Left(uint256)": "370c36b4",
					"TotalProjects()": "9ab761c7",
					"createProject(string,string,uint256,uint256,uint256)": "f81bf601",
					"creatorWithdraw(uint256)": "71eb89f3",
					"fundProject(uint256)": "6c563abe",
					"userEarlyWithdraw(uint256,uint256)": "cd4ac98c",
					"userWithdraw(uint256)": "3b9056bf"
				}
			},
			"storageLayout": {
				"storage": [
					{
						"astId": 10,
						"contract": "contracts/CrowdTank.sol:CrowdTank",
						"label": "_status",
						"offset": 0,
						"slot": "0",
						"type": "t_uint256"
					},
					{
						"astId": 75,
						"contract": "contracts/CrowdTank.sol:CrowdTank",
						"label": "TotalRaisedFunding",
						"offset": 0,
						"slot": "1",
						"type": "t_uint256"
					},
					{
						"astId": 77,
						"contract": "contracts/CrowdTank.sol:CrowdTank",
						"label": "TotalProjects",
						"offset": 0,
						"slot": "2",
						"type": "t_uint256"
					},
					{
						"astId": 97,
						"contract": "contracts/CrowdTank.sol:CrowdTank",
						"label": "Projects",
						"offset": 0,
						"slot": "3",
						"type": "t_mapping(t_uint256,t_struct(project)92_storage)"
					},
					{
						"astId": 103,
						"contract": "contracts/CrowdTank.sol:CrowdTank",
						"label": "Contributions",
						"offset": 0,
						"slot": "4",
						"type": "t_mapping(t_uint256,t_mapping(t_address,t_uint256))"
					},
					{
						"astId": 107,
						"contract": "contracts/CrowdTank.sol:CrowdTank",
						"label": "isIdUsed",
						"offset": 0,
						"slot": "5",
						"type": "t_mapping(t_uint256,t_bool)"
					}
				],
				"types": {
					"t_address": {
						"encoding": "inplace",
						"label": "address",
						"numberOfBytes": "20"
					},
					"t_bool": {
						"encoding": "inplace",
						"label": "bool",
						"numberOfBytes": "1"
					},
					"t_mapping(t_address,t_uint256)": {
						"encoding": "mapping",
						"key": "t_address",
						"label": "mapping(address => uint256)",
						"numberOfBytes": "32",
						"value": "t_uint256"
					},
					"t_mapping(t_uint256,t_bool)": {
						"encoding": "mapping",
						"key": "t_uint256",
						"label": "mapping(uint256 => bool)",
						"numberOfBytes": "32",
						"value": "t_bool"
					},
					"t_mapping(t_uint256,t_mapping(t_address,t_uint256))": {
						"encoding": "mapping",
						"key": "t_uint256",
						"label": "mapping(uint256 => mapping(address => uint256))",
						"numberOfBytes": "32",
						"value": "t_mapping(t_address,t_uint256)"
					},
					"t_mapping(t_uint256,t_struct(project)92_storage)": {
						"encoding": "mapping",
						"key": "t_uint256",
						"label": "mapping(uint256 => struct CrowdTank.project)",
						"numberOfBytes": "32",
						"value": "t_struct(project)92_storage"
					},
					"t_string_storage": {
						"encoding": "bytes",
						"label": "string",
						"numberOfBytes": "32"
					},
					"t_struct(project)92_storage": {
						"encoding": "inplace",
						"label": "struct CrowdTank.project",
						"members": [
							{
								"astId": 79,
								"contract": "contracts/CrowdTank.sol:CrowdTank",
								"label": "creator",
								"offset": 0,
								"slot": "0",
								"type": "t_address"
							},
							{
								"astId": 81,
								"contract": "contracts/CrowdTank.sol:CrowdTank",
								"label": "name",
								"offset": 0,
								"slot": "1",
								"type": "t_string_storage"
							},
							{
								"astId": 83,
								"contract": "contracts/CrowdTank.sol:CrowdTank",
								"label": "description",
								"offset": 0,
								"slot": "2",
								"type": "t_string_storage"
							},
							{
								"astId": 85,
								"contract": "contracts/CrowdTank.sol:CrowdTank",
								"label": "fundingGoal",
								"offset": 0,
								"slot": "3",
								"type": "t_uint256"
							},
							{
								"astId": 87,
								"contract": "contracts/CrowdTank.sol:CrowdTank",
								"label": "deadline",
								"offset": 0,
								"slot": "4",
								"type": "t_uint256"
							},
							{
								"astId": 89,
								"contract": "contracts/CrowdTank.sol:CrowdTank",
								"label": "amountRaised",
								"offset": 0,
								"slot": "5",
								"type": "t_uint256"
							},
							{
								"astId": 91,
								"contract": "contracts/CrowdTank.sol:CrowdTank",
								"label": "funded",
								"offset": 0,
								"slot": "6",
								"type": "t_bool"
							}
						],
						"numberOfBytes": "224"
					},
					"t_uint256": {
						"encoding": "inplace",
						"label": "uint256",
						"numberOfBytes": "32"
					}
				}
			},
			"userdoc": {
				"kind": "user",
				"methods": {},
				"version": 1
			}
		}
	}
}