{
	"CROWD_TANK/contracts/CrowdTank.sol": {
		"CrowdTank": {
			"abi": [
				{
					"anonymous": false,
					"inputs": [
						{
							"indexed": true,
							"internalType": "uint256",
							"name": "projectID",
							"type": "uint256"
						},
						{
							"indexed": true,
							"internalType": "address",
							"name": "creator",
							"type": "address"
						},
						{
							"indexed": false,
							"internalType": "string",
							"name": "name",
							"type": "string"
						},
						{
							"indexed": false,
							"internalType": "string",
							"name": "description",
							"type": "string"
						},
						{
							"indexed": false,
							"internalType": "uint256",
							"name": "fundingGoal",
							"type": "uint256"
						},
						{
							"indexed": false,
							"internalType": "uint256",
							"name": "deadline",
							"type": "uint256"
						}
					],
					"name": "ProjectCreated",
					"type": "event"
				},
				{
					"anonymous": false,
					"inputs": [
						{
							"indexed": true,
							"internalType": "uint256",
							"name": "projectID",
							"type": "uint256"
						},
						{
							"indexed": false,
							"internalType": "address",
							"name": "withdrawer",
							"type": "address"
						},
						{
							"indexed": false,
							"internalType": "uint256",
							"name": "amount",
							"type": "uint256"
						}
					],
					"name": "creatorWithdrawn",
					"type": "event"
				},
				{
					"anonymous": false,
					"inputs": [
						{
							"indexed": true,
							"internalType": "uint256",
							"name": "projectID",
							"type": "uint256"
						},
						{
							"indexed": false,
							"internalType": "address",
							"name": "contributor",
							"type": "address"
						},
						{
							"indexed": false,
							"internalType": "uint256",
							"name": "amount",
							"type": "uint256"
						}
					],
					"name": "funded",
					"type": "event"
				},
				{
					"anonymous": false,
					"inputs": [
						{
							"indexed": true,
							"internalType": "uint256",
							"name": "projectID",
							"type": "uint256"
						},
						{
							"indexed": false,
							"internalType": "address",
							"name": "withdrawer",
							"type": "address"
						},
						{
							"indexed": false,
							"internalType": "uint256",
							"name": "amount",
							"type": "uint256"
						}
					],
					"name": "userWithdrawn",
					"type": "event"
				},
				{
					"inputs": [
						{
							"internalType": "uint256",
							"name": "",
							"type": "uint256"
						},
						{
							"internalType": "address",
							"name": "",
							"type": "address"
						}
					],
					"name": "Contributions",
					"outputs": [
						{
							"internalType": "uint256",
							"name": "",
							"type": "uint256"
						}
					],
					"stateMutability": "view",
					"type": "function"
				},
				{
					"inputs": [
						{
							"internalType": "uint256",
							"name": "_projectID",
							"type": "uint256"
						},
						{
							"internalType": "uint256",
							"name": "_deadline",
							"type": "uint256"
						}
					],
					"name": "Extend_Deadline",
					"outputs": [],
					"stateMutability": "nonpayable",
					"type": "function"
				},
				{
					"inputs": [],
					"name": "Get_Total_Raised_Funding",
					"outputs": [
						{
							"internalType": "uint256",
							"name": "",
							"type": "uint256"
						}
					],
					"stateMutability": "view",
					"type": "function"
				},
				{
					"inputs": [
						{
							"internalType": "uint256",
							"name": "",
							"type": "uint256"
						}
					],
					"name": "Projects",
					"outputs": [
						{
							"internalType": "address",
							"name": "creator",
							"type": "address"
						},
						{
							"internalType": "string",
							"name": "name",
							"type": "string"
						},
						{
							"internalType": "string",
							"name": "description",
							"type": "string"
						},
						{
							"internalType": "uint256",
							"name": "fundingGoal",
							"type": "uint256"
						},
						{
							"internalType": "uint256",
							"name": "deadline",
							"type": "uint256"
						},
						{
							"internalType": "uint256",
							"name": "amountRaised",
							"type": "uint256"
						},
						{
							"internalType": "bool",
							"name": "funded",
							"type": "bool"
						}
					],
					"stateMutability": "view",
					"type": "function"
				},
				{
					"inputs": [
						{
							"internalType": "uint256",
							"name": "projectID",
							"type": "uint256"
						}
					],
					"name": "Remaining_Fund",
					"outputs": [
						{
							"internalType": "uint256",
							"name": "fundingGoal",
							"type": "uint256"
						},
						{
							"internalType": "uint256",
							"name": "remainingFund",
							"type": "uint256"
						}
					],
					"stateMutability": "view",
					"type": "function"
				},
				{
					"inputs": [
						{
							"internalType": "uint256",
							"name": "projectID",
							"type": "uint256"
						}
					],
					"name": "Time_Left",
					"outputs": [
						{
							"internalType": "uint256",
							"name": "",
							"type": "uint256"
						}
					],
					"stateMutability": "view",
					"type": "function"
				},
				{
					"inputs": [
						{
							"internalType": "string",
							"name": "_name",
							"type": "string"
						},
						{
							"internalType": "string",
							"name": "_description",
							"type": "string"
						},
						{
							"internalType": "uint256",
							"name": "_fundingGoal",
							"type": "uint256"
						},
						{
							"internalType": "uint256",
							"name": "_durationSeconds",
							"type": "uint256"
						},
						{
							"internalType": "uint256",
							"name": "_id",
							"type": "uint256"
						}
					],
					"name": "createProject",
					"outputs": [],
					"stateMutability": "nonpayable",
					"type": "function"
				},
				{
					"inputs": [
						{
							"internalType": "uint256",
							"name": "_projectID",
							"type": "uint256"
						}
					],
					"name": "creatorWithdraw",
					"outputs": [],
					"stateMutability": "payable",
					"type": "function"
				},
				{
					"inputs": [
						{
							"internalType": "uint256",
							"name": "_projectID",
							"type": "uint256"
						}
					],
					"name": "fundProject",
					"outputs": [],
					"stateMutability": "payable",
					"type": "function"
				},
				{
					"inputs": [
						{
							"internalType": "uint256",
							"name": "_projectID",
							"type": "uint256"
						}
					],
					"name": "userWithdraw",
					"outputs": [],
					"stateMutability": "payable",
					"type": "function"
				}
			],
			"devdoc": {
				"kind": "dev",
				"methods": {},
				"version": 1
			},
			"evm": {
				"assembly": "    /* \"CROWD_TANK/contracts/CrowdTank.sol\":174:5323  contract CrowdTank {... */\n  mstore(0x40, 0x80)\n  callvalue\n  dup1\n  iszero\n  tag_1\n  jumpi\n  revert(0x00, 0x00)\ntag_1:\n  pop\n  dataSize(sub_0)\n  dup1\n  dataOffset(sub_0)\n  0x00\n  codecopy\n  0x00\n  return\nstop\n\nsub_0: assembly {\n        /* \"CROWD_TANK/contracts/CrowdTank.sol\":174:5323  contract CrowdTank {... */\n      mstore(0x40, 0x80)\n      jumpi(tag_1, lt(calldatasize, 0x04))\n      shr(0xe0, calldataload(0x00))\n      dup1\n      0x5d4e5d78\n      gt\n      tag_12\n      jumpi\n      dup1\n      0x5d4e5d78\n      eq\n      tag_7\n      jumpi\n      dup1\n      0x629b2647\n      eq\n      tag_8\n      jumpi\n      dup1\n      0x6c563abe\n      eq\n      tag_9\n      jumpi\n      dup1\n      0x71eb89f3\n      eq\n      tag_10\n      jumpi\n      dup1\n      0xf81bf601\n      eq\n      tag_11\n      jumpi\n      jump(tag_1)\n    tag_12:\n      dup1\n      0x0dbac135\n      eq\n      tag_2\n      jumpi\n      dup1\n      0x21b2416c\n      eq\n      tag_3\n      jumpi\n      dup1\n      0x370c36b4\n      eq\n      tag_4\n      jumpi\n      dup1\n      0x3b9056bf\n      eq\n      tag_5\n      jumpi\n      dup1\n      0x54a5bcc5\n      eq\n      tag_6\n      jumpi\n    tag_1:\n      revert(0x00, 0x00)\n        /* \"CROWD_TANK/contracts/CrowdTank.sol\":4550:5039  function Remaining_Fund(uint projectID) public view returns(uint fundingGoal , uint remainingFund) {... */\n    tag_2:\n      callvalue\n      dup1\n      iszero\n      tag_13\n      jumpi\n      revert(0x00, 0x00)\n    tag_13:\n      pop\n      tag_14\n      0x04\n      dup1\n      calldatasize\n      sub\n      dup2\n      add\n      swap1\n      tag_15\n      swap2\n      swap1\n      tag_16\n      jump\t// in\n    tag_15:\n      tag_17\n      jump\t// in\n    tag_14:\n      mload(0x40)\n      tag_18\n      swap3\n      swap2\n      swap1\n      tag_19\n      jump\t// in\n    tag_18:\n      mload(0x40)\n      dup1\n      swap2\n      sub\n      swap1\n      return\n        /* \"CROWD_TANK/contracts/CrowdTank.sol\":583:624  mapping (uint => project) public Projects */\n    tag_3:\n      callvalue\n      dup1\n      iszero\n      tag_20\n      jumpi\n      revert(0x00, 0x00)\n    tag_20:\n      pop\n      tag_21\n      0x04\n      dup1\n      calldatasize\n      sub\n      dup2\n      add\n      swap1\n      tag_22\n      swap2\n      swap1\n      tag_16\n      jump\t// in\n    tag_22:\n      tag_23\n      jump\t// in\n    tag_21:\n      mload(0x40)\n      tag_24\n      swap8\n      swap7\n      swap6\n      swap5\n      swap4\n      swap3\n      swap2\n      swap1\n      tag_25\n      jump\t// in\n    tag_24:\n      mload(0x40)\n      dup1\n      swap2\n      sub\n      swap1\n      return\n        /* \"CROWD_TANK/contracts/CrowdTank.sol\":4192:4482  function Time_Left(uint projectID) view public returns(uint) {... */\n    tag_4:\n      callvalue\n      dup1\n      iszero\n      tag_26\n      jumpi\n      revert(0x00, 0x00)\n    tag_26:\n      pop\n      tag_27\n      0x04\n      dup1\n      calldatasize\n      sub\n      dup2\n      add\n      swap1\n      tag_28\n      swap2\n      swap1\n      tag_16\n      jump\t// in\n    tag_28:\n      tag_29\n      jump\t// in\n    tag_27:\n      mload(0x40)\n      tag_30\n      swap2\n      swap1\n      tag_31\n      jump\t// in\n    tag_30:\n      mload(0x40)\n      dup1\n      swap2\n      sub\n      swap1\n      return\n        /* \"CROWD_TANK/contracts/CrowdTank.sol\":3002:3469  function userWithdraw(uint _projectID) external payable {... */\n    tag_5:\n      tag_32\n      0x04\n      dup1\n      calldatasize\n      sub\n      dup2\n      add\n      swap1\n      tag_33\n      swap2\n      swap1\n      tag_16\n      jump\t// in\n    tag_33:\n      tag_34\n      jump\t// in\n    tag_32:\n      stop\n        /* \"CROWD_TANK/contracts/CrowdTank.sol\":2856:2962  function Get_Total_Raised_Funding() view public returns(uint) {... */\n    tag_6:\n      callvalue\n      dup1\n      iszero\n      tag_35\n      jumpi\n      revert(0x00, 0x00)\n    tag_35:\n      pop\n      tag_36\n      tag_37\n      jump\t// in\n    tag_36:\n      mload(0x40)\n      tag_38\n      swap2\n      swap1\n      tag_31\n      jump\t// in\n    tag_38:\n      mload(0x40)\n      dup1\n      swap2\n      sub\n      swap1\n      return\n        /* \"CROWD_TANK/contracts/CrowdTank.sol\":683:747  mapping (uint => mapping (address => uint)) public Contributions */\n    tag_7:\n      callvalue\n      dup1\n      iszero\n      tag_39\n      jumpi\n      revert(0x00, 0x00)\n    tag_39:\n      pop\n      tag_40\n      0x04\n      dup1\n      calldatasize\n      sub\n      dup2\n      add\n      swap1\n      tag_41\n      swap2\n      swap1\n      tag_42\n      jump\t// in\n    tag_41:\n      tag_43\n      jump\t// in\n    tag_40:\n      mload(0x40)\n      tag_44\n      swap2\n      swap1\n      tag_31\n      jump\t// in\n    tag_44:\n      mload(0x40)\n      dup1\n      swap2\n      sub\n      swap1\n      return\n        /* \"CROWD_TANK/contracts/CrowdTank.sol\":5047:5320  function Extend_Deadline(uint _projectID , uint _deadline) external {... */\n    tag_8:\n      callvalue\n      dup1\n      iszero\n      tag_45\n      jumpi\n      revert(0x00, 0x00)\n    tag_45:\n      pop\n      tag_46\n      0x04\n      dup1\n      calldatasize\n      sub\n      dup2\n      add\n      swap1\n      tag_47\n      swap2\n      swap1\n      tag_48\n      jump\t// in\n    tag_47:\n      tag_49\n      jump\t// in\n    tag_46:\n      stop\n        /* \"CROWD_TANK/contracts/CrowdTank.sol\":2105:2815  function fundProject(uint _projectID) external payable {... */\n    tag_9:\n      tag_50\n      0x04\n      dup1\n      calldatasize\n      sub\n      dup2\n      add\n      swap1\n      tag_51\n      swap2\n      swap1\n      tag_16\n      jump\t// in\n    tag_51:\n      tag_52\n      jump\t// in\n    tag_50:\n      stop\n        /* \"CROWD_TANK/contracts/CrowdTank.sol\":3521:4122  function creatorWithdraw(uint _projectID) external payable {... */\n    tag_10:\n      tag_53\n      0x04\n      dup1\n      calldatasize\n      sub\n      dup2\n      add\n      swap1\n      tag_54\n      swap2\n      swap1\n      tag_16\n      jump\t// in\n    tag_54:\n      tag_55\n      jump\t// in\n    tag_53:\n      stop\n        /* \"CROWD_TANK/contracts/CrowdTank.sol\":1374:2044  function createProject(string memory _name , string memory _description , uint _fundingGoal , uint _durationSeconds , uint _id) external {... */\n    tag_11:\n      callvalue\n      dup1\n      iszero\n      tag_56\n      jumpi\n      revert(0x00, 0x00)\n    tag_56:\n      pop\n      tag_57\n      0x04\n      dup1\n      calldatasize\n      sub\n      dup2\n      add\n      swap1\n      tag_58\n      swap2\n      swap1\n      tag_59\n      jump\t// in\n    tag_58:\n      tag_60\n      jump\t// in\n    tag_57:\n      stop\n        /* \"CROWD_TANK/contracts/CrowdTank.sol\":4550:5039  function Remaining_Fund(uint projectID) public view returns(uint fundingGoal , uint remainingFund) {... */\n    tag_17:\n        /* \"CROWD_TANK/contracts/CrowdTank.sol\":4610:4626  uint fundingGoal */\n      0x00\n        /* \"CROWD_TANK/contracts/CrowdTank.sol\":4629:4647  uint remainingFund */\n      0x00\n        /* \"CROWD_TANK/contracts/CrowdTank.sol\":4661:4684  project storage Project */\n      0x00\n        /* \"CROWD_TANK/contracts/CrowdTank.sol\":4687:4695  Projects */\n      0x01\n        /* \"CROWD_TANK/contracts/CrowdTank.sol\":4687:4706  Projects[projectID] */\n      0x00\n        /* \"CROWD_TANK/contracts/CrowdTank.sol\":4696:4705  projectID */\n      dup6\n        /* \"CROWD_TANK/contracts/CrowdTank.sol\":4687:4706  Projects[projectID] */\n      dup2\n      mstore\n      0x20\n      add\n      swap1\n      dup2\n      mstore\n      0x20\n      add\n      0x00\n      keccak256\n        /* \"CROWD_TANK/contracts/CrowdTank.sol\":4661:4706  project storage Project = Projects[projectID] */\n      swap1\n      pop\n        /* \"CROWD_TANK/contracts/CrowdTank.sol\":4731:4738  Project */\n      dup1\n        /* \"CROWD_TANK/contracts/CrowdTank.sol\":4731:4750  Project.fundingGoal */\n      0x03\n      add\n      sload\n        /* \"CROWD_TANK/contracts/CrowdTank.sol\":4717:4750  fundingGoal = Project.fundingGoal */\n      swap3\n      pop\n        /* \"CROWD_TANK/contracts/CrowdTank.sol\":4796:4797  0 */\n      0x00\n        /* \"CROWD_TANK/contracts/CrowdTank.sol\":4769:4798  Project.creator != address(0) */\n      0xffffffffffffffffffffffffffffffffffffffff\n      and\n        /* \"CROWD_TANK/contracts/CrowdTank.sol\":4769:4776  Project */\n      dup2\n        /* \"CROWD_TANK/contracts/CrowdTank.sol\":4769:4784  Project.creator */\n      0x00\n      add\n      0x00\n      swap1\n      sload\n      swap1\n      0x0100\n      exp\n      swap1\n      div\n      0xffffffffffffffffffffffffffffffffffffffff\n      and\n        /* \"CROWD_TANK/contracts/CrowdTank.sol\":4769:4798  Project.creator != address(0) */\n      0xffffffffffffffffffffffffffffffffffffffff\n      and\n      sub\n        /* \"CROWD_TANK/contracts/CrowdTank.sol\":4761:4836  require(Project.creator != address(0), \"project has not been created yet!\") */\n      tag_62\n      jumpi\n      mload(0x40)\n      0x08c379a000000000000000000000000000000000000000000000000000000000\n      dup2\n      mstore\n      0x04\n      add\n      tag_63\n      swap1\n      tag_64\n      jump\t// in\n    tag_63:\n      mload(0x40)\n      dup1\n      swap2\n      sub\n      swap1\n      revert\n    tag_62:\n        /* \"CROWD_TANK/contracts/CrowdTank.sol\":4875:4882  Project */\n      dup1\n        /* \"CROWD_TANK/contracts/CrowdTank.sol\":4875:4894  Project.fundingGoal */\n      0x03\n      add\n      sload\n        /* \"CROWD_TANK/contracts/CrowdTank.sol\":4851:4858  Project */\n      dup2\n        /* \"CROWD_TANK/contracts/CrowdTank.sol\":4851:4871  Project.amountRaised */\n      0x05\n      add\n      sload\n        /* \"CROWD_TANK/contracts/CrowdTank.sol\":4851:4894  Project.amountRaised >= Project.fundingGoal */\n      lt\n        /* \"CROWD_TANK/contracts/CrowdTank.sol\":4847:5032  if (Project.amountRaised >= Project.fundingGoal) {... */\n      tag_65\n      jumpi\n        /* \"CROWD_TANK/contracts/CrowdTank.sol\":4928:4929  0 */\n      0x00\n        /* \"CROWD_TANK/contracts/CrowdTank.sol\":4912:4929  remainingFund = 0 */\n      swap2\n      pop\n        /* \"CROWD_TANK/contracts/CrowdTank.sol\":4847:5032  if (Project.amountRaised >= Project.fundingGoal) {... */\n      jump(tag_66)\n    tag_65:\n        /* \"CROWD_TANK/contracts/CrowdTank.sol\":5000:5007  Project */\n      dup1\n        /* \"CROWD_TANK/contracts/CrowdTank.sol\":5000:5020  Project.amountRaised */\n      0x05\n      add\n      sload\n        /* \"CROWD_TANK/contracts/CrowdTank.sol\":4978:4985  Project */\n      dup2\n        /* \"CROWD_TANK/contracts/CrowdTank.sol\":4978:4997  Project.fundingGoal */\n      0x03\n      add\n      sload\n        /* \"CROWD_TANK/contracts/CrowdTank.sol\":4978:5020  Project.fundingGoal - Project.amountRaised */\n      tag_67\n      swap2\n      swap1\n      tag_68\n      jump\t// in\n    tag_67:\n        /* \"CROWD_TANK/contracts/CrowdTank.sol\":4962:5020  remainingFund = Project.fundingGoal - Project.amountRaised */\n      swap2\n      pop\n        /* \"CROWD_TANK/contracts/CrowdTank.sol\":4847:5032  if (Project.amountRaised >= Project.fundingGoal) {... */\n    tag_66:\n        /* \"CROWD_TANK/contracts/CrowdTank.sol\":4649:5039  {... */\n      pop\n        /* \"CROWD_TANK/contracts/CrowdTank.sol\":4550:5039  function Remaining_Fund(uint projectID) public view returns(uint fundingGoal , uint remainingFund) {... */\n      swap2\n      pop\n      swap2\n      jump\t// out\n        /* \"CROWD_TANK/contracts/CrowdTank.sol\":583:624  mapping (uint => project) public Projects */\n    tag_23:\n      mstore(0x20, 0x01)\n      dup1\n      0x00\n      mstore\n      keccak256(0x00, 0x40)\n      0x00\n      swap2\n      pop\n      swap1\n      pop\n      dup1\n      0x00\n      add\n      0x00\n      swap1\n      sload\n      swap1\n      0x0100\n      exp\n      swap1\n      div\n      0xffffffffffffffffffffffffffffffffffffffff\n      and\n      swap1\n      dup1\n      0x01\n      add\n      dup1\n      sload\n      tag_69\n      swap1\n      tag_70\n      jump\t// in\n    tag_69:\n      dup1\n      0x1f\n      add\n      0x20\n      dup1\n      swap2\n      div\n      mul\n      0x20\n      add\n      mload(0x40)\n      swap1\n      dup2\n      add\n      0x40\n      mstore\n      dup1\n      swap3\n      swap2\n      swap1\n      dup2\n      dup2\n      mstore\n      0x20\n      add\n      dup3\n      dup1\n      sload\n      tag_71\n      swap1\n      tag_70\n      jump\t// in\n    tag_71:\n      dup1\n      iszero\n      tag_72\n      jumpi\n      dup1\n      0x1f\n      lt\n      tag_73\n      jumpi\n      0x0100\n      dup1\n      dup4\n      sload\n      div\n      mul\n      dup4\n      mstore\n      swap2\n      0x20\n      add\n      swap2\n      jump(tag_72)\n    tag_73:\n      dup3\n      add\n      swap2\n      swap1\n      0x00\n      mstore\n      keccak256(0x00, 0x20)\n      swap1\n    tag_74:\n      dup2\n      sload\n      dup2\n      mstore\n      swap1\n      0x01\n      add\n      swap1\n      0x20\n      add\n      dup1\n      dup4\n      gt\n      tag_74\n      jumpi\n      dup3\n      swap1\n      sub\n      0x1f\n      and\n      dup3\n      add\n      swap2\n    tag_72:\n      pop\n      pop\n      pop\n      pop\n      pop\n      swap1\n      dup1\n      0x02\n      add\n      dup1\n      sload\n      tag_75\n      swap1\n      tag_70\n      jump\t// in\n    tag_75:\n      dup1\n      0x1f\n      add\n      0x20\n      dup1\n      swap2\n      div\n      mul\n      0x20\n      add\n      mload(0x40)\n      swap1\n      dup2\n      add\n      0x40\n      mstore\n      dup1\n      swap3\n      swap2\n      swap1\n      dup2\n      dup2\n      mstore\n      0x20\n      add\n      dup3\n      dup1\n      sload\n      tag_76\n      swap1\n      tag_70\n      jump\t// in\n    tag_76:\n      dup1\n      iszero\n      tag_77\n      jumpi\n      dup1\n      0x1f\n      lt\n      tag_78\n      jumpi\n      0x0100\n      dup1\n      dup4\n      sload\n      div\n      mul\n      dup4\n      mstore\n      swap2\n      0x20\n      add\n      swap2\n      jump(tag_77)\n    tag_78:\n      dup3\n      add\n      swap2\n      swap1\n      0x00\n      mstore\n      keccak256(0x00, 0x20)\n      swap1\n    tag_79:\n      dup2\n      sload\n      dup2\n      mstore\n      swap1\n      0x01\n      add\n      swap1\n      0x20\n      add\n      dup1\n      dup4\n      gt\n      tag_79\n      jumpi\n      dup3\n      swap1\n      sub\n      0x1f\n      and\n      dup3\n      add\n      swap2\n    tag_77:\n      pop\n      pop\n      pop\n      pop\n      pop\n      swap1\n      dup1\n      0x03\n      add\n      sload\n      swap1\n      dup1\n      0x04\n      add\n      sload\n      swap1\n      dup1\n      0x05\n      add\n      sload\n      swap1\n      dup1\n      0x06\n      add\n      0x00\n      swap1\n      sload\n      swap1\n      0x0100\n      exp\n      swap1\n      div\n      0xff\n      and\n      swap1\n      pop\n      dup8\n      jump\t// out\n        /* \"CROWD_TANK/contracts/CrowdTank.sol\":4192:4482  function Time_Left(uint projectID) view public returns(uint) {... */\n    tag_29:\n        /* \"CROWD_TANK/contracts/CrowdTank.sol\":4247:4251  uint */\n      0x00\n        /* \"CROWD_TANK/contracts/CrowdTank.sol\":4264:4287  project storage Project */\n      0x00\n        /* \"CROWD_TANK/contracts/CrowdTank.sol\":4290:4298  Projects */\n      0x01\n        /* \"CROWD_TANK/contracts/CrowdTank.sol\":4290:4309  Projects[projectID] */\n      0x00\n        /* \"CROWD_TANK/contracts/CrowdTank.sol\":4299:4308  projectID */\n      dup5\n        /* \"CROWD_TANK/contracts/CrowdTank.sol\":4290:4309  Projects[projectID] */\n      dup2\n      mstore\n      0x20\n      add\n      swap1\n      dup2\n      mstore\n      0x20\n      add\n      0x00\n      keccak256\n        /* \"CROWD_TANK/contracts/CrowdTank.sol\":4264:4309  project storage Project = Projects[projectID] */\n      swap1\n      pop\n        /* \"CROWD_TANK/contracts/CrowdTank.sol\":4343:4350  Project */\n      dup1\n        /* \"CROWD_TANK/contracts/CrowdTank.sol\":4343:4359  Project.deadline */\n      0x04\n      add\n      sload\n        /* \"CROWD_TANK/contracts/CrowdTank.sol\":4324:4339  block.timestamp */\n      timestamp\n        /* \"CROWD_TANK/contracts/CrowdTank.sol\":4324:4359  block.timestamp >= Project.deadline */\n      lt\n        /* \"CROWD_TANK/contracts/CrowdTank.sol\":4320:4471  if (block.timestamp >= Project.deadline) {... */\n      tag_81\n      jumpi\n        /* \"CROWD_TANK/contracts/CrowdTank.sol\":4383:4384  0 */\n      0x00\n        /* \"CROWD_TANK/contracts/CrowdTank.sol\":4376:4384  return 0 */\n      swap2\n      pop\n      pop\n      jump(tag_80)\n        /* \"CROWD_TANK/contracts/CrowdTank.sol\":4320:4471  if (block.timestamp >= Project.deadline) {... */\n    tag_81:\n        /* \"CROWD_TANK/contracts/CrowdTank.sol\":4443:4458  block.timestamp */\n      timestamp\n        /* \"CROWD_TANK/contracts/CrowdTank.sol\":4424:4431  Project */\n      dup2\n        /* \"CROWD_TANK/contracts/CrowdTank.sol\":4424:4440  Project.deadline */\n      0x04\n      add\n      sload\n        /* \"CROWD_TANK/contracts/CrowdTank.sol\":4424:4458  Project.deadline - block.timestamp */\n      tag_83\n      swap2\n      swap1\n      tag_68\n      jump\t// in\n    tag_83:\n        /* \"CROWD_TANK/contracts/CrowdTank.sol\":4417:4459  return(Project.deadline - block.timestamp) */\n      swap2\n      pop\n      pop\n        /* \"CROWD_TANK/contracts/CrowdTank.sol\":4192:4482  function Time_Left(uint projectID) view public returns(uint) {... */\n    tag_80:\n      swap2\n      swap1\n      pop\n      jump\t// out\n        /* \"CROWD_TANK/contracts/CrowdTank.sol\":3002:3469  function userWithdraw(uint _projectID) external payable {... */\n    tag_34:\n        /* \"CROWD_TANK/contracts/CrowdTank.sol\":3069:3092  project storage Project */\n      0x00\n        /* \"CROWD_TANK/contracts/CrowdTank.sol\":3095:3103  Projects */\n      0x01\n        /* \"CROWD_TANK/contracts/CrowdTank.sol\":3095:3115  Projects[_projectID] */\n      0x00\n        /* \"CROWD_TANK/contracts/CrowdTank.sol\":3104:3114  _projectID */\n      dup4\n        /* \"CROWD_TANK/contracts/CrowdTank.sol\":3095:3115  Projects[_projectID] */\n      dup2\n      mstore\n      0x20\n      add\n      swap1\n      dup2\n      mstore\n      0x20\n      add\n      0x00\n      keccak256\n        /* \"CROWD_TANK/contracts/CrowdTank.sol\":3069:3115  project storage Project = Projects[_projectID] */\n      swap1\n      pop\n        /* \"CROWD_TANK/contracts/CrowdTank.sol\":3155:3162  Project */\n      dup1\n        /* \"CROWD_TANK/contracts/CrowdTank.sol\":3155:3174  Project.fundingGoal */\n      0x03\n      add\n      sload\n        /* \"CROWD_TANK/contracts/CrowdTank.sol\":3134:3141  Project */\n      dup2\n        /* \"CROWD_TANK/contracts/CrowdTank.sol\":3134:3154  Project.amountRaised */\n      0x05\n      add\n      sload\n        /* \"CROWD_TANK/contracts/CrowdTank.sol\":3134:3174  Project.amountRaised<Project.fundingGoal */\n      lt\n        /* \"CROWD_TANK/contracts/CrowdTank.sol\":3126:3226  require(Project.amountRaised<Project.fundingGoal , \"Funding goal has reached , user can't withdraw\") */\n      tag_85\n      jumpi\n      mload(0x40)\n      0x08c379a000000000000000000000000000000000000000000000000000000000\n      dup2\n      mstore\n      0x04\n      add\n      tag_86\n      swap1\n      tag_87\n      jump\t// in\n    tag_86:\n      mload(0x40)\n      dup1\n      swap2\n      sub\n      swap1\n      revert\n    tag_85:\n        /* \"CROWD_TANK/contracts/CrowdTank.sol\":3237:3258  uint fundsContributed */\n      0x00\n        /* \"CROWD_TANK/contracts/CrowdTank.sol\":3261:3274  Contributions */\n      0x02\n        /* \"CROWD_TANK/contracts/CrowdTank.sol\":3261:3286  Contributions[_projectID] */\n      0x00\n        /* \"CROWD_TANK/contracts/CrowdTank.sol\":3275:3285  _projectID */\n      dup5\n        /* \"CROWD_TANK/contracts/CrowdTank.sol\":3261:3286  Contributions[_projectID] */\n      dup2\n      mstore\n      0x20\n      add\n      swap1\n      dup2\n      mstore\n      0x20\n      add\n      0x00\n      keccak256\n        /* \"CROWD_TANK/contracts/CrowdTank.sol\":3261:3298  Contributions[_projectID][msg.sender] */\n      0x00\n        /* \"CROWD_TANK/contracts/CrowdTank.sol\":3287:3297  msg.sender */\n      caller\n        /* \"CROWD_TANK/contracts/CrowdTank.sol\":3261:3298  Contributions[_projectID][msg.sender] */\n      0xffffffffffffffffffffffffffffffffffffffff\n      and\n      0xffffffffffffffffffffffffffffffffffffffff\n      and\n      dup2\n      mstore\n      0x20\n      add\n      swap1\n      dup2\n      mstore\n      0x20\n      add\n      0x00\n      keccak256\n      sload\n        /* \"CROWD_TANK/contracts/CrowdTank.sol\":3237:3298  uint fundsContributed = Contributions[_projectID][msg.sender] */\n      swap1\n      pop\n        /* \"CROWD_TANK/contracts/CrowdTank.sol\":3317:3327  msg.sender */\n      caller\n        /* \"CROWD_TANK/contracts/CrowdTank.sol\":3309:3337  payable(msg.sender).transfer */\n      0xffffffffffffffffffffffffffffffffffffffff\n      and\n        /* \"CROWD_TANK/contracts/CrowdTank.sol\":3309:3355  payable(msg.sender).transfer(fundsContributed) */\n      0x08fc\n        /* \"CROWD_TANK/contracts/CrowdTank.sol\":3338:3354  fundsContributed */\n      dup3\n        /* \"CROWD_TANK/contracts/CrowdTank.sol\":3309:3355  payable(msg.sender).transfer(fundsContributed) */\n      swap1\n      dup2\n      iszero\n      mul\n      swap1\n      mload(0x40)\n      0x00\n      mload(0x40)\n      dup1\n      dup4\n      sub\n      dup2\n      dup6\n      dup9\n      dup9\n      call\n      swap4\n      pop\n      pop\n      pop\n      pop\n      iszero\n      dup1\n      iszero\n      tag_89\n      jumpi\n      returndatacopy(0x00, 0x00, returndatasize)\n      revert(0x00, returndatasize)\n    tag_89:\n      pop\n        /* \"CROWD_TANK/contracts/CrowdTank.sol\":3417:3427  _projectID */\n      dup3\n        /* \"CROWD_TANK/contracts/CrowdTank.sol\":3403:3451  userWithdrawn(_projectID, msg.sender, msg.value) */\n      0xb6e4e293b6c7c5cf68fbb52edfaca6173710fcccbcecac03c32e62327fc000c6\n        /* \"CROWD_TANK/contracts/CrowdTank.sol\":3429:3439  msg.sender */\n      caller\n        /* \"CROWD_TANK/contracts/CrowdTank.sol\":3441:3450  msg.value */\n      callvalue\n        /* \"CROWD_TANK/contracts/CrowdTank.sol\":3403:3451  userWithdrawn(_projectID, msg.sender, msg.value) */\n      mload(0x40)\n      tag_90\n      swap3\n      swap2\n      swap1\n      tag_91\n      jump\t// in\n    tag_90:\n      mload(0x40)\n      dup1\n      swap2\n      sub\n      swap1\n      log2\n        /* \"CROWD_TANK/contracts/CrowdTank.sol\":3058:3469  {... */\n      pop\n      pop\n        /* \"CROWD_TANK/contracts/CrowdTank.sol\":3002:3469  function userWithdraw(uint _projectID) external payable {... */\n      pop\n      jump\t// out\n        /* \"CROWD_TANK/contracts/CrowdTank.sol\":2856:2962  function Get_Total_Raised_Funding() view public returns(uint) {... */\n    tag_37:\n        /* \"CROWD_TANK/contracts/CrowdTank.sol\":2912:2916  uint */\n      0x00\n        /* \"CROWD_TANK/contracts/CrowdTank.sol\":2936:2954  TotalRaisedFunding */\n      sload(0x00)\n        /* \"CROWD_TANK/contracts/CrowdTank.sol\":2929:2954  return TotalRaisedFunding */\n      swap1\n      pop\n        /* \"CROWD_TANK/contracts/CrowdTank.sol\":2856:2962  function Get_Total_Raised_Funding() view public returns(uint) {... */\n      swap1\n      jump\t// out\n        /* \"CROWD_TANK/contracts/CrowdTank.sol\":683:747  mapping (uint => mapping (address => uint)) public Contributions */\n    tag_43:\n      mstore(0x20, 0x02)\n      dup2\n      0x00\n      mstore\n      mstore(0x20, keccak256(0x00, 0x40))\n      dup1\n      0x00\n      mstore\n      keccak256(0x00, 0x40)\n      0x00\n      swap2\n      pop\n      swap2\n      pop\n      pop\n      sload\n      dup2\n      jump\t// out\n        /* \"CROWD_TANK/contracts/CrowdTank.sol\":5047:5320  function Extend_Deadline(uint _projectID , uint _deadline) external {... */\n    tag_49:\n        /* \"CROWD_TANK/contracts/CrowdTank.sol\":5126:5149  project storage Project */\n      0x00\n        /* \"CROWD_TANK/contracts/CrowdTank.sol\":5152:5160  Projects */\n      0x01\n        /* \"CROWD_TANK/contracts/CrowdTank.sol\":5152:5172  Projects[_projectID] */\n      0x00\n        /* \"CROWD_TANK/contracts/CrowdTank.sol\":5161:5171  _projectID */\n      dup5\n        /* \"CROWD_TANK/contracts/CrowdTank.sol\":5152:5172  Projects[_projectID] */\n      dup2\n      mstore\n      0x20\n      add\n      swap1\n      dup2\n      mstore\n      0x20\n      add\n      0x00\n      keccak256\n        /* \"CROWD_TANK/contracts/CrowdTank.sol\":5126:5172  project storage Project = Projects[_projectID] */\n      swap1\n      pop\n        /* \"CROWD_TANK/contracts/CrowdTank.sol\":5210:5220  msg.sender */\n      caller\n        /* \"CROWD_TANK/contracts/CrowdTank.sol\":5191:5220  Project.creator == msg.sender */\n      0xffffffffffffffffffffffffffffffffffffffff\n      and\n        /* \"CROWD_TANK/contracts/CrowdTank.sol\":5191:5198  Project */\n      dup2\n        /* \"CROWD_TANK/contracts/CrowdTank.sol\":5191:5206  Project.creator */\n      0x00\n      add\n      0x00\n      swap1\n      sload\n      swap1\n      0x0100\n      exp\n      swap1\n      div\n      0xffffffffffffffffffffffffffffffffffffffff\n      and\n        /* \"CROWD_TANK/contracts/CrowdTank.sol\":5191:5220  Project.creator == msg.sender */\n      0xffffffffffffffffffffffffffffffffffffffff\n      and\n      eq\n        /* \"CROWD_TANK/contracts/CrowdTank.sol\":5183:5272  require(Project.creator == msg.sender , \"Only Project creator can extend the deadline!!\") */\n      tag_94\n      jumpi\n      mload(0x40)\n      0x08c379a000000000000000000000000000000000000000000000000000000000\n      dup2\n      mstore\n      0x04\n      add\n      tag_95\n      swap1\n      tag_96\n      jump\t// in\n    tag_95:\n      mload(0x40)\n      dup1\n      swap2\n      sub\n      swap1\n      revert\n    tag_94:\n        /* \"CROWD_TANK/contracts/CrowdTank.sol\":5303:5312  _deadline */\n      dup2\n        /* \"CROWD_TANK/contracts/CrowdTank.sol\":5283:5290  Project */\n      dup2\n        /* \"CROWD_TANK/contracts/CrowdTank.sol\":5283:5299  Project.deadline */\n      0x04\n      add\n      0x00\n        /* \"CROWD_TANK/contracts/CrowdTank.sol\":5283:5312  Project.deadline += _deadline */\n      dup3\n      dup3\n      sload\n      tag_97\n      swap2\n      swap1\n      tag_98\n      jump\t// in\n    tag_97:\n      swap3\n      pop\n      pop\n      dup2\n      swap1\n      sstore\n      pop\n        /* \"CROWD_TANK/contracts/CrowdTank.sol\":5115:5320  {... */\n      pop\n        /* \"CROWD_TANK/contracts/CrowdTank.sol\":5047:5320  function Extend_Deadline(uint _projectID , uint _deadline) external {... */\n      pop\n      pop\n      jump\t// out\n        /* \"CROWD_TANK/contracts/CrowdTank.sol\":2105:2815  function fundProject(uint _projectID) external payable {... */\n    tag_52:\n        /* \"CROWD_TANK/contracts/CrowdTank.sol\":2172:2195  project storage Project */\n      0x00\n        /* \"CROWD_TANK/contracts/CrowdTank.sol\":2198:2206  Projects */\n      0x01\n        /* \"CROWD_TANK/contracts/CrowdTank.sol\":2198:2218  Projects[_projectID] */\n      0x00\n        /* \"CROWD_TANK/contracts/CrowdTank.sol\":2207:2217  _projectID */\n      dup4\n        /* \"CROWD_TANK/contracts/CrowdTank.sol\":2198:2218  Projects[_projectID] */\n      dup2\n      mstore\n      0x20\n      add\n      swap1\n      dup2\n      mstore\n      0x20\n      add\n      0x00\n      keccak256\n        /* \"CROWD_TANK/contracts/CrowdTank.sol\":2172:2218  project storage Project = Projects[_projectID] */\n      swap1\n      pop\n        /* \"CROWD_TANK/contracts/CrowdTank.sol\":2255:2262  Project */\n      dup1\n        /* \"CROWD_TANK/contracts/CrowdTank.sol\":2255:2271  Project.deadline */\n      0x04\n      add\n      sload\n        /* \"CROWD_TANK/contracts/CrowdTank.sol\":2238:2253  block.timestamp */\n      timestamp\n        /* \"CROWD_TANK/contracts/CrowdTank.sol\":2238:2271  block.timestamp<=Project.deadline */\n      gt\n      iszero\n        /* \"CROWD_TANK/contracts/CrowdTank.sol\":2230:2302  require(block.timestamp<=Project.deadline , \"Project deadline is over!\") */\n      tag_100\n      jumpi\n      mload(0x40)\n      0x08c379a000000000000000000000000000000000000000000000000000000000\n      dup2\n      mstore\n      0x04\n      add\n      tag_101\n      swap1\n      tag_102\n      jump\t// in\n    tag_101:\n      mload(0x40)\n      dup1\n      swap2\n      sub\n      swap1\n      revert\n    tag_100:\n        /* \"CROWD_TANK/contracts/CrowdTank.sol\":2323:2330  Project */\n      dup1\n        /* \"CROWD_TANK/contracts/CrowdTank.sol\":2323:2337  Project.funded */\n      0x06\n      add\n      0x00\n      swap1\n      sload\n      swap1\n      0x0100\n      exp\n      swap1\n      div\n      0xff\n      and\n        /* \"CROWD_TANK/contracts/CrowdTank.sol\":2322:2337  !Project.funded */\n      iszero\n        /* \"CROWD_TANK/contracts/CrowdTank.sol\":2314:2382  require(!Project.funded , \"Project Reached its Funding requirement\") */\n      tag_103\n      jumpi\n      mload(0x40)\n      0x08c379a000000000000000000000000000000000000000000000000000000000\n      dup2\n      mstore\n      0x04\n      add\n      tag_104\n      swap1\n      tag_105\n      jump\t// in\n    tag_104:\n      mload(0x40)\n      dup1\n      swap2\n      sub\n      swap1\n      revert\n    tag_103:\n        /* \"CROWD_TANK/contracts/CrowdTank.sol\":2412:2413  0 */\n      0x00\n        /* \"CROWD_TANK/contracts/CrowdTank.sol\":2402:2411  msg.value */\n      callvalue\n        /* \"CROWD_TANK/contracts/CrowdTank.sol\":2402:2413  msg.value>0 */\n      gt\n        /* \"CROWD_TANK/contracts/CrowdTank.sol\":2394:2463  require(msg.value>0 , \"send some ether to contribute in the project\") */\n      tag_106\n      jumpi\n      mload(0x40)\n      0x08c379a000000000000000000000000000000000000000000000000000000000\n      dup2\n      mstore\n      0x04\n      add\n      tag_107\n      swap1\n      tag_108\n      jump\t// in\n    tag_107:\n      mload(0x40)\n      dup1\n      swap2\n      sub\n      swap1\n      revert\n    tag_106:\n        /* \"CROWD_TANK/contracts/CrowdTank.sol\":2497:2506  msg.value */\n      callvalue\n        /* \"CROWD_TANK/contracts/CrowdTank.sol\":2475:2482  Project */\n      dup2\n        /* \"CROWD_TANK/contracts/CrowdTank.sol\":2475:2495  Project.amountRaised */\n      0x05\n      add\n      0x00\n        /* \"CROWD_TANK/contracts/CrowdTank.sol\":2475:2506  Project.amountRaised+=msg.value */\n      dup3\n      dup3\n      sload\n      tag_109\n      swap2\n      swap1\n      tag_98\n      jump\t// in\n    tag_109:\n      swap3\n      pop\n      pop\n      dup2\n      swap1\n      sstore\n      pop\n        /* \"CROWD_TANK/contracts/CrowdTank.sol\":2558:2567  msg.value */\n      callvalue\n        /* \"CROWD_TANK/contracts/CrowdTank.sol\":2518:2531  Contributions */\n      0x02\n        /* \"CROWD_TANK/contracts/CrowdTank.sol\":2518:2543  Contributions[_projectID] */\n      0x00\n        /* \"CROWD_TANK/contracts/CrowdTank.sol\":2532:2542  _projectID */\n      dup5\n        /* \"CROWD_TANK/contracts/CrowdTank.sol\":2518:2543  Contributions[_projectID] */\n      dup2\n      mstore\n      0x20\n      add\n      swap1\n      dup2\n      mstore\n      0x20\n      add\n      0x00\n      keccak256\n        /* \"CROWD_TANK/contracts/CrowdTank.sol\":2518:2555  Contributions[_projectID][msg.sender] */\n      0x00\n        /* \"CROWD_TANK/contracts/CrowdTank.sol\":2544:2554  msg.sender */\n      caller\n        /* \"CROWD_TANK/contracts/CrowdTank.sol\":2518:2555  Contributions[_projectID][msg.sender] */\n      0xffffffffffffffffffffffffffffffffffffffff\n      and\n      0xffffffffffffffffffffffffffffffffffffffff\n      and\n      dup2\n      mstore\n      0x20\n      add\n      swap1\n      dup2\n      mstore\n      0x20\n      add\n      0x00\n      keccak256\n        /* \"CROWD_TANK/contracts/CrowdTank.sol\":2518:2567  Contributions[_projectID][msg.sender] = msg.value */\n      dup2\n      swap1\n      sstore\n      pop\n        /* \"CROWD_TANK/contracts/CrowdTank.sol\":2629:2638  msg.value */\n      callvalue\n        /* \"CROWD_TANK/contracts/CrowdTank.sol\":2609:2627  TotalRaisedFunding */\n      0x00\n      0x00\n        /* \"CROWD_TANK/contracts/CrowdTank.sol\":2609:2638  TotalRaisedFunding+=msg.value */\n      dup3\n      dup3\n      sload\n      tag_110\n      swap2\n      swap1\n      tag_98\n      jump\t// in\n    tag_110:\n      swap3\n      pop\n      pop\n      dup2\n      swap1\n      sstore\n      pop\n        /* \"CROWD_TANK/contracts/CrowdTank.sol\":2664:2674  _projectID */\n      dup2\n        /* \"CROWD_TANK/contracts/CrowdTank.sol\":2657:2698  funded(_projectID, msg.sender, msg.value) */\n      0xf234fc17e03e9c3501c842e35414fd219e9e8bc572c4632ef54db1493e3afaf4\n        /* \"CROWD_TANK/contracts/CrowdTank.sol\":2676:2686  msg.sender */\n      caller\n        /* \"CROWD_TANK/contracts/CrowdTank.sol\":2688:2697  msg.value */\n      callvalue\n        /* \"CROWD_TANK/contracts/CrowdTank.sol\":2657:2698  funded(_projectID, msg.sender, msg.value) */\n      mload(0x40)\n      tag_111\n      swap3\n      swap2\n      swap1\n      tag_91\n      jump\t// in\n    tag_111:\n      mload(0x40)\n      dup1\n      swap2\n      sub\n      swap1\n      log2\n        /* \"CROWD_TANK/contracts/CrowdTank.sol\":2738:2745  Project */\n      dup1\n        /* \"CROWD_TANK/contracts/CrowdTank.sol\":2738:2757  Project.fundingGoal */\n      0x03\n      add\n      sload\n        /* \"CROWD_TANK/contracts/CrowdTank.sol\":2716:2723  Project */\n      dup2\n        /* \"CROWD_TANK/contracts/CrowdTank.sol\":2716:2736  Project.amountRaised */\n      0x05\n      add\n      sload\n        /* \"CROWD_TANK/contracts/CrowdTank.sol\":2716:2757  Project.amountRaised>=Project.fundingGoal */\n      lt\n        /* \"CROWD_TANK/contracts/CrowdTank.sol\":2712:2808  if (Project.amountRaised>=Project.fundingGoal) {... */\n      tag_112\n      jumpi\n        /* \"CROWD_TANK/contracts/CrowdTank.sol\":2791:2795  true */\n      0x01\n        /* \"CROWD_TANK/contracts/CrowdTank.sol\":2774:2781  Project */\n      dup2\n        /* \"CROWD_TANK/contracts/CrowdTank.sol\":2774:2788  Project.funded */\n      0x06\n      add\n      0x00\n        /* \"CROWD_TANK/contracts/CrowdTank.sol\":2774:2795  Project.funded = true */\n      0x0100\n      exp\n      dup2\n      sload\n      dup2\n      0xff\n      mul\n      not\n      and\n      swap1\n      dup4\n      iszero\n      iszero\n      mul\n      or\n      swap1\n      sstore\n      pop\n        /* \"CROWD_TANK/contracts/CrowdTank.sol\":2712:2808  if (Project.amountRaised>=Project.fundingGoal) {... */\n    tag_112:\n        /* \"CROWD_TANK/contracts/CrowdTank.sol\":2160:2815  {... */\n      pop\n        /* \"CROWD_TANK/contracts/CrowdTank.sol\":2105:2815  function fundProject(uint _projectID) external payable {... */\n      pop\n      jump\t// out\n        /* \"CROWD_TANK/contracts/CrowdTank.sol\":3521:4122  function creatorWithdraw(uint _projectID) external payable {... */\n    tag_55:\n        /* \"CROWD_TANK/contracts/CrowdTank.sol\":3591:3614  project storage Project */\n      0x00\n        /* \"CROWD_TANK/contracts/CrowdTank.sol\":3617:3625  Projects */\n      0x01\n        /* \"CROWD_TANK/contracts/CrowdTank.sol\":3617:3637  Projects[_projectID] */\n      0x00\n        /* \"CROWD_TANK/contracts/CrowdTank.sol\":3626:3636  _projectID */\n      dup4\n        /* \"CROWD_TANK/contracts/CrowdTank.sol\":3617:3637  Projects[_projectID] */\n      dup2\n      mstore\n      0x20\n      add\n      swap1\n      dup2\n      mstore\n      0x20\n      add\n      0x00\n      keccak256\n        /* \"CROWD_TANK/contracts/CrowdTank.sol\":3591:3637  project storage Project = Projects[_projectID] */\n      swap1\n      pop\n        /* \"CROWD_TANK/contracts/CrowdTank.sol\":3648:3665  uint totalfunding */\n      0x00\n        /* \"CROWD_TANK/contracts/CrowdTank.sol\":3668:3675  Project */\n      dup2\n        /* \"CROWD_TANK/contracts/CrowdTank.sol\":3668:3688  Project.amountRaised */\n      0x05\n      add\n      sload\n        /* \"CROWD_TANK/contracts/CrowdTank.sol\":3648:3688  uint totalfunding = Project.amountRaised */\n      swap1\n      pop\n        /* \"CROWD_TANK/contracts/CrowdTank.sol\":3707:3714  Project */\n      dup2\n        /* \"CROWD_TANK/contracts/CrowdTank.sol\":3707:3721  Project.funded */\n      0x06\n      add\n      0x00\n      swap1\n      sload\n      swap1\n      0x0100\n      exp\n      swap1\n      div\n      0xff\n      and\n        /* \"CROWD_TANK/contracts/CrowdTank.sol\":3699:3778  require(Project.funded , \"funding goal has not reached , admin can't withdraw\") */\n      tag_114\n      jumpi\n      mload(0x40)\n      0x08c379a000000000000000000000000000000000000000000000000000000000\n      dup2\n      mstore\n      0x04\n      add\n      tag_115\n      swap1\n      tag_116\n      jump\t// in\n    tag_115:\n      mload(0x40)\n      dup1\n      swap2\n      sub\n      swap1\n      revert\n    tag_114:\n        /* \"CROWD_TANK/contracts/CrowdTank.sol\":3816:3826  msg.sender */\n      caller\n        /* \"CROWD_TANK/contracts/CrowdTank.sol\":3797:3826  Project.creator == msg.sender */\n      0xffffffffffffffffffffffffffffffffffffffff\n      and\n        /* \"CROWD_TANK/contracts/CrowdTank.sol\":3797:3804  Project */\n      dup3\n        /* \"CROWD_TANK/contracts/CrowdTank.sol\":3797:3812  Project.creator */\n      0x00\n      add\n      0x00\n      swap1\n      sload\n      swap1\n      0x0100\n      exp\n      swap1\n      div\n      0xffffffffffffffffffffffffffffffffffffffff\n      and\n        /* \"CROWD_TANK/contracts/CrowdTank.sol\":3797:3826  Project.creator == msg.sender */\n      0xffffffffffffffffffffffffffffffffffffffff\n      and\n      eq\n        /* \"CROWD_TANK/contracts/CrowdTank.sol\":3789:3855  require(Project.creator == msg.sender , \"only admin can withdraw\") */\n      tag_117\n      jumpi\n      mload(0x40)\n      0x08c379a000000000000000000000000000000000000000000000000000000000\n      dup2\n      mstore\n      0x04\n      add\n      tag_118\n      swap1\n      tag_119\n      jump\t// in\n    tag_118:\n      mload(0x40)\n      dup1\n      swap2\n      sub\n      swap1\n      revert\n    tag_117:\n        /* \"CROWD_TANK/contracts/CrowdTank.sol\":3892:3907  block.timestamp */\n      timestamp\n        /* \"CROWD_TANK/contracts/CrowdTank.sol\":3874:3881  Project */\n      dup3\n        /* \"CROWD_TANK/contracts/CrowdTank.sol\":3874:3890  Project.deadline */\n      0x04\n      add\n      sload\n        /* \"CROWD_TANK/contracts/CrowdTank.sol\":3874:3907  Project.deadline<=block.timestamp */\n      gt\n      iszero\n        /* \"CROWD_TANK/contracts/CrowdTank.sol\":3866:3960  require(Project.deadline<=block.timestamp , \"deadline has not reached , admin can't withdraw\") */\n      tag_120\n      jumpi\n      mload(0x40)\n      0x08c379a000000000000000000000000000000000000000000000000000000000\n      dup2\n      mstore\n      0x04\n      add\n      tag_121\n      swap1\n      tag_122\n      jump\t// in\n    tag_121:\n      mload(0x40)\n      dup1\n      swap2\n      sub\n      swap1\n      revert\n    tag_120:\n        /* \"CROWD_TANK/contracts/CrowdTank.sol\":3979:3989  msg.sender */\n      caller\n        /* \"CROWD_TANK/contracts/CrowdTank.sol\":3971:3999  payable(msg.sender).transfer */\n      0xffffffffffffffffffffffffffffffffffffffff\n      and\n        /* \"CROWD_TANK/contracts/CrowdTank.sol\":3971:4013  payable(msg.sender).transfer(totalfunding) */\n      0x08fc\n        /* \"CROWD_TANK/contracts/CrowdTank.sol\":4000:4012  totalfunding */\n      dup3\n        /* \"CROWD_TANK/contracts/CrowdTank.sol\":3971:4013  payable(msg.sender).transfer(totalfunding) */\n      swap1\n      dup2\n      iszero\n      mul\n      swap1\n      mload(0x40)\n      0x00\n      mload(0x40)\n      dup1\n      dup4\n      sub\n      dup2\n      dup6\n      dup9\n      dup9\n      call\n      swap4\n      pop\n      pop\n      pop\n      pop\n      iszero\n      dup1\n      iszero\n      tag_124\n      jumpi\n      returndatacopy(0x00, 0x00, returndatasize)\n      revert(0x00, returndatasize)\n    tag_124:\n      pop\n        /* \"CROWD_TANK/contracts/CrowdTank.sol\":4080:4090  _projectID */\n      dup3\n        /* \"CROWD_TANK/contracts/CrowdTank.sol\":4063:4114  creatorWithdrawn(_projectID, msg.sender, msg.value) */\n      0xcae030e1a3c6b0011e7009bd65734e2e1e330528f6983497631fabd47fa7a281\n        /* \"CROWD_TANK/contracts/CrowdTank.sol\":4092:4102  msg.sender */\n      caller\n        /* \"CROWD_TANK/contracts/CrowdTank.sol\":4104:4113  msg.value */\n      callvalue\n        /* \"CROWD_TANK/contracts/CrowdTank.sol\":4063:4114  creatorWithdrawn(_projectID, msg.sender, msg.value) */\n      mload(0x40)\n      tag_125\n      swap3\n      swap2\n      swap1\n      tag_91\n      jump\t// in\n    tag_125:\n      mload(0x40)\n      dup1\n      swap2\n      sub\n      swap1\n      log2\n        /* \"CROWD_TANK/contracts/CrowdTank.sol\":3580:4122  {... */\n      pop\n      pop\n        /* \"CROWD_TANK/contracts/CrowdTank.sol\":3521:4122  function creatorWithdraw(uint _projectID) external payable {... */\n      pop\n      jump\t// out\n        /* \"CROWD_TANK/contracts/CrowdTank.sol\":1374:2044  function createProject(string memory _name , string memory _description , uint _fundingGoal , uint _durationSeconds , uint _id) external {... */\n    tag_60:\n        /* \"CROWD_TANK/contracts/CrowdTank.sol\":1531:1539  isIdUsed */\n      0x03\n        /* \"CROWD_TANK/contracts/CrowdTank.sol\":1531:1544  isIdUsed[_id] */\n      0x00\n        /* \"CROWD_TANK/contracts/CrowdTank.sol\":1540:1543  _id */\n      dup3\n        /* \"CROWD_TANK/contracts/CrowdTank.sol\":1531:1544  isIdUsed[_id] */\n      dup2\n      mstore\n      0x20\n      add\n      swap1\n      dup2\n      mstore\n      0x20\n      add\n      0x00\n      keccak256\n      0x00\n      swap1\n      sload\n      swap1\n      0x0100\n      exp\n      swap1\n      div\n      0xff\n      and\n        /* \"CROWD_TANK/contracts/CrowdTank.sol\":1530:1544  !isIdUsed[_id] */\n      iszero\n        /* \"CROWD_TANK/contracts/CrowdTank.sol\":1522:1579  require(!isIdUsed[_id], \"Project ID is already in use!\" ) */\n      tag_127\n      jumpi\n      mload(0x40)\n      0x08c379a000000000000000000000000000000000000000000000000000000000\n      dup2\n      mstore\n      0x04\n      add\n      tag_128\n      swap1\n      tag_129\n      jump\t// in\n    tag_128:\n      mload(0x40)\n      dup1\n      swap2\n      sub\n      swap1\n      revert\n    tag_127:\n        /* \"CROWD_TANK/contracts/CrowdTank.sol\":1606:1610  true */\n      0x01\n        /* \"CROWD_TANK/contracts/CrowdTank.sol\":1590:1598  isIdUsed */\n      0x03\n        /* \"CROWD_TANK/contracts/CrowdTank.sol\":1590:1603  isIdUsed[_id] */\n      0x00\n        /* \"CROWD_TANK/contracts/CrowdTank.sol\":1599:1602  _id */\n      dup4\n        /* \"CROWD_TANK/contracts/CrowdTank.sol\":1590:1603  isIdUsed[_id] */\n      dup2\n      mstore\n      0x20\n      add\n      swap1\n      dup2\n      mstore\n      0x20\n      add\n      0x00\n      keccak256\n      0x00\n        /* \"CROWD_TANK/contracts/CrowdTank.sol\":1590:1610  isIdUsed[_id] = true */\n      0x0100\n      exp\n      dup2\n      sload\n      dup2\n      0xff\n      mul\n      not\n      and\n      swap1\n      dup4\n      iszero\n      iszero\n      mul\n      or\n      swap1\n      sstore\n      pop\n        /* \"CROWD_TANK/contracts/CrowdTank.sol\":1637:1915  project({... */\n      mload(0x40)\n      dup1\n      0xe0\n      add\n      0x40\n      mstore\n      dup1\n        /* \"CROWD_TANK/contracts/CrowdTank.sol\":1670:1680  msg.sender */\n      caller\n        /* \"CROWD_TANK/contracts/CrowdTank.sol\":1637:1915  project({... */\n      0xffffffffffffffffffffffffffffffffffffffff\n      and\n      dup2\n      mstore\n      0x20\n      add\n        /* \"CROWD_TANK/contracts/CrowdTank.sol\":1701:1706  _name */\n      dup7\n        /* \"CROWD_TANK/contracts/CrowdTank.sol\":1637:1915  project({... */\n      dup2\n      mstore\n      0x20\n      add\n        /* \"CROWD_TANK/contracts/CrowdTank.sol\":1734:1746  _description */\n      dup6\n        /* \"CROWD_TANK/contracts/CrowdTank.sol\":1637:1915  project({... */\n      dup2\n      mstore\n      0x20\n      add\n        /* \"CROWD_TANK/contracts/CrowdTank.sol\":1774:1786  _fundingGoal */\n      dup5\n        /* \"CROWD_TANK/contracts/CrowdTank.sol\":1637:1915  project({... */\n      dup2\n      mstore\n      0x20\n      add\n        /* \"CROWD_TANK/contracts/CrowdTank.sol\":1829:1845  _durationSeconds */\n      dup4\n        /* \"CROWD_TANK/contracts/CrowdTank.sol\":1811:1826  block.timestamp */\n      timestamp\n        /* \"CROWD_TANK/contracts/CrowdTank.sol\":1811:1845  block.timestamp + _durationSeconds */\n      tag_130\n      swap2\n      swap1\n      tag_98\n      jump\t// in\n    tag_130:\n        /* \"CROWD_TANK/contracts/CrowdTank.sol\":1637:1915  project({... */\n      dup2\n      mstore\n      0x20\n      add\n        /* \"CROWD_TANK/contracts/CrowdTank.sol\":1874:1875  0 */\n      0x00\n        /* \"CROWD_TANK/contracts/CrowdTank.sol\":1637:1915  project({... */\n      dup2\n      mstore\n      0x20\n      add\n        /* \"CROWD_TANK/contracts/CrowdTank.sol\":1898:1903  false */\n      0x00\n        /* \"CROWD_TANK/contracts/CrowdTank.sol\":1637:1915  project({... */\n      iszero\n      iszero\n      dup2\n      mstore\n      pop\n        /* \"CROWD_TANK/contracts/CrowdTank.sol\":1621:1629  Projects */\n      0x01\n        /* \"CROWD_TANK/contracts/CrowdTank.sol\":1621:1634  Projects[_id] */\n      0x00\n        /* \"CROWD_TANK/contracts/CrowdTank.sol\":1630:1633  _id */\n      dup4\n        /* \"CROWD_TANK/contracts/CrowdTank.sol\":1621:1634  Projects[_id] */\n      dup2\n      mstore\n      0x20\n      add\n      swap1\n      dup2\n      mstore\n      0x20\n      add\n      0x00\n      keccak256\n        /* \"CROWD_TANK/contracts/CrowdTank.sol\":1621:1915  Projects[_id] = project({... */\n      0x00\n      dup3\n      add\n      mload\n      dup2\n      0x00\n      add\n      exp(0x0100, 0x00)\n      dup2\n      sload\n      dup2\n      0xffffffffffffffffffffffffffffffffffffffff\n      mul\n      not\n      and\n      swap1\n      dup4\n      0xffffffffffffffffffffffffffffffffffffffff\n      and\n      mul\n      or\n      swap1\n      sstore\n      pop\n      0x20\n      dup3\n      add\n      mload\n      dup2\n      0x01\n      add\n      swap1\n      dup2\n      tag_131\n      swap2\n      swap1\n      tag_132\n      jump\t// in\n    tag_131:\n      pop\n      0x40\n      dup3\n      add\n      mload\n      dup2\n      0x02\n      add\n      swap1\n      dup2\n      tag_133\n      swap2\n      swap1\n      tag_132\n      jump\t// in\n    tag_133:\n      pop\n      0x60\n      dup3\n      add\n      mload\n      dup2\n      0x03\n      add\n      sstore\n      0x80\n      dup3\n      add\n      mload\n      dup2\n      0x04\n      add\n      sstore\n      0xa0\n      dup3\n      add\n      mload\n      dup2\n      0x05\n      add\n      sstore\n      0xc0\n      dup3\n      add\n      mload\n      dup2\n      0x06\n      add\n      exp(0x0100, 0x00)\n      dup2\n      sload\n      dup2\n      0xff\n      mul\n      not\n      and\n      swap1\n      dup4\n      iszero\n      iszero\n      mul\n      or\n      swap1\n      sstore\n      pop\n      swap1\n      pop\n      pop\n        /* \"CROWD_TANK/contracts/CrowdTank.sol\":1952:1962  msg.sender */\n      caller\n        /* \"CROWD_TANK/contracts/CrowdTank.sol\":1931:2036  ProjectCreated(_id , msg.sender , _name , _description , _fundingGoal , block.timestamp+_durationSeconds) */\n      0xffffffffffffffffffffffffffffffffffffffff\n      and\n        /* \"CROWD_TANK/contracts/CrowdTank.sol\":1946:1949  _id */\n      dup2\n        /* \"CROWD_TANK/contracts/CrowdTank.sol\":1931:2036  ProjectCreated(_id , msg.sender , _name , _description , _fundingGoal , block.timestamp+_durationSeconds) */\n      0xac9b83534845c9e785a6ea70f2d809db1d72ef9a1d981753712d922f5cb55f39\n        /* \"CROWD_TANK/contracts/CrowdTank.sol\":1965:1970  _name */\n      dup8\n        /* \"CROWD_TANK/contracts/CrowdTank.sol\":1973:1985  _description */\n      dup8\n        /* \"CROWD_TANK/contracts/CrowdTank.sol\":1988:2000  _fundingGoal */\n      dup8\n        /* \"CROWD_TANK/contracts/CrowdTank.sol\":2019:2035  _durationSeconds */\n      dup8\n        /* \"CROWD_TANK/contracts/CrowdTank.sol\":2003:2018  block.timestamp */\n      timestamp\n        /* \"CROWD_TANK/contracts/CrowdTank.sol\":2003:2035  block.timestamp+_durationSeconds */\n      tag_134\n      swap2\n      swap1\n      tag_98\n      jump\t// in\n    tag_134:\n        /* \"CROWD_TANK/contracts/CrowdTank.sol\":1931:2036  ProjectCreated(_id , msg.sender , _name , _description , _fundingGoal , block.timestamp+_durationSeconds) */\n      mload(0x40)\n      tag_135\n      swap5\n      swap4\n      swap3\n      swap2\n      swap1\n      tag_136\n      jump\t// in\n    tag_135:\n      mload(0x40)\n      dup1\n      swap2\n      sub\n      swap1\n      log3\n        /* \"CROWD_TANK/contracts/CrowdTank.sol\":1374:2044  function createProject(string memory _name , string memory _description , uint _fundingGoal , uint _durationSeconds , uint _id) external {... */\n      pop\n      pop\n      pop\n      pop\n      pop\n      jump\t// out\n        /* \"#utility.yul\":7:82   */\n    tag_137:\n        /* \"#utility.yul\":40:46   */\n      0x00\n        /* \"#utility.yul\":73:75   */\n      0x40\n        /* \"#utility.yul\":67:76   */\n      mload\n        /* \"#utility.yul\":57:76   */\n      swap1\n      pop\n        /* \"#utility.yul\":7:82   */\n      swap1\n      jump\t// out\n        /* \"#utility.yul\":88:205   */\n    tag_138:\n        /* \"#utility.yul\":197:198   */\n      0x00\n        /* \"#utility.yul\":194:195   */\n      0x00\n        /* \"#utility.yul\":187:199   */\n      revert\n        /* \"#utility.yul\":211:328   */\n    tag_139:\n        /* \"#utility.yul\":320:321   */\n      0x00\n        /* \"#utility.yul\":317:318   */\n      0x00\n        /* \"#utility.yul\":310:322   */\n      revert\n        /* \"#utility.yul\":334:411   */\n    tag_140:\n        /* \"#utility.yul\":371:378   */\n      0x00\n        /* \"#utility.yul\":400:405   */\n      dup2\n        /* \"#utility.yul\":389:405   */\n      swap1\n      pop\n        /* \"#utility.yul\":334:411   */\n      swap2\n      swap1\n      pop\n      jump\t// out\n        /* \"#utility.yul\":417:539   */\n    tag_141:\n        /* \"#utility.yul\":490:514   */\n      tag_208\n        /* \"#utility.yul\":508:513   */\n      dup2\n        /* \"#utility.yul\":490:514   */\n      tag_140\n      jump\t// in\n    tag_208:\n        /* \"#utility.yul\":483:488   */\n      dup2\n        /* \"#utility.yul\":480:515   */\n      eq\n        /* \"#utility.yul\":470:533   */\n      tag_209\n      jumpi\n        /* \"#utility.yul\":529:530   */\n      0x00\n        /* \"#utility.yul\":526:527   */\n      0x00\n        /* \"#utility.yul\":519:531   */\n      revert\n        /* \"#utility.yul\":470:533   */\n    tag_209:\n        /* \"#utility.yul\":417:539   */\n      pop\n      jump\t// out\n        /* \"#utility.yul\":545:684   */\n    tag_142:\n        /* \"#utility.yul\":591:596   */\n      0x00\n        /* \"#utility.yul\":629:635   */\n      dup2\n        /* \"#utility.yul\":616:636   */\n      calldataload\n        /* \"#utility.yul\":607:636   */\n      swap1\n      pop\n        /* \"#utility.yul\":645:678   */\n      tag_211\n        /* \"#utility.yul\":672:677   */\n      dup2\n        /* \"#utility.yul\":645:678   */\n      tag_141\n      jump\t// in\n    tag_211:\n        /* \"#utility.yul\":545:684   */\n      swap3\n      swap2\n      pop\n      pop\n      jump\t// out\n        /* \"#utility.yul\":690:1019   */\n    tag_16:\n        /* \"#utility.yul\":749:755   */\n      0x00\n        /* \"#utility.yul\":798:800   */\n      0x20\n        /* \"#utility.yul\":786:795   */\n      dup3\n        /* \"#utility.yul\":777:784   */\n      dup5\n        /* \"#utility.yul\":773:796   */\n      sub\n        /* \"#utility.yul\":769:801   */\n      slt\n        /* \"#utility.yul\":766:885   */\n      iszero\n      tag_213\n      jumpi\n        /* \"#utility.yul\":804:883   */\n      tag_214\n      tag_138\n      jump\t// in\n    tag_214:\n        /* \"#utility.yul\":766:885   */\n    tag_213:\n        /* \"#utility.yul\":924:925   */\n      0x00\n        /* \"#utility.yul\":949:1002   */\n      tag_215\n        /* \"#utility.yul\":994:1001   */\n      dup5\n        /* \"#utility.yul\":985:991   */\n      dup3\n        /* \"#utility.yul\":974:983   */\n      dup6\n        /* \"#utility.yul\":970:992   */\n      add\n        /* \"#utility.yul\":949:1002   */\n      tag_142\n      jump\t// in\n    tag_215:\n        /* \"#utility.yul\":939:1002   */\n      swap2\n      pop\n        /* \"#utility.yul\":895:1012   */\n      pop\n        /* \"#utility.yul\":690:1019   */\n      swap3\n      swap2\n      pop\n      pop\n      jump\t// out\n        /* \"#utility.yul\":1025:1143   */\n    tag_143:\n        /* \"#utility.yul\":1112:1136   */\n      tag_217\n        /* \"#utility.yul\":1130:1135   */\n      dup2\n        /* \"#utility.yul\":1112:1136   */\n      tag_140\n      jump\t// in\n    tag_217:\n        /* \"#utility.yul\":1107:1110   */\n      dup3\n        /* \"#utility.yul\":1100:1137   */\n      mstore\n        /* \"#utility.yul\":1025:1143   */\n      pop\n      pop\n      jump\t// out\n        /* \"#utility.yul\":1149:1481   */\n    tag_19:\n        /* \"#utility.yul\":1270:1274   */\n      0x00\n        /* \"#utility.yul\":1308:1310   */\n      0x40\n        /* \"#utility.yul\":1297:1306   */\n      dup3\n        /* \"#utility.yul\":1293:1311   */\n      add\n        /* \"#utility.yul\":1285:1311   */\n      swap1\n      pop\n        /* \"#utility.yul\":1321:1392   */\n      tag_219\n        /* \"#utility.yul\":1389:1390   */\n      0x00\n        /* \"#utility.yul\":1378:1387   */\n      dup4\n        /* \"#utility.yul\":1374:1391   */\n      add\n        /* \"#utility.yul\":1365:1371   */\n      dup6\n        /* \"#utility.yul\":1321:1392   */\n      tag_143\n      jump\t// in\n    tag_219:\n        /* \"#utility.yul\":1402:1474   */\n      tag_220\n        /* \"#utility.yul\":1470:1472   */\n      0x20\n        /* \"#utility.yul\":1459:1468   */\n      dup4\n        /* \"#utility.yul\":1455:1473   */\n      add\n        /* \"#utility.yul\":1446:1452   */\n      dup5\n        /* \"#utility.yul\":1402:1474   */\n      tag_143\n      jump\t// in\n    tag_220:\n        /* \"#utility.yul\":1149:1481   */\n      swap4\n      swap3\n      pop\n      pop\n      pop\n      jump\t// out\n        /* \"#utility.yul\":1487:1613   */\n    tag_144:\n        /* \"#utility.yul\":1524:1531   */\n      0x00\n        /* \"#utility.yul\":1564:1606   */\n      0xffffffffffffffffffffffffffffffffffffffff\n        /* \"#utility.yul\":1557:1562   */\n      dup3\n        /* \"#utility.yul\":1553:1607   */\n      and\n        /* \"#utility.yul\":1542:1607   */\n      swap1\n      pop\n        /* \"#utility.yul\":1487:1613   */\n      swap2\n      swap1\n      pop\n      jump\t// out\n        /* \"#utility.yul\":1619:1715   */\n    tag_145:\n        /* \"#utility.yul\":1656:1663   */\n      0x00\n        /* \"#utility.yul\":1685:1709   */\n      tag_223\n        /* \"#utility.yul\":1703:1708   */\n      dup3\n        /* \"#utility.yul\":1685:1709   */\n      tag_144\n      jump\t// in\n    tag_223:\n        /* \"#utility.yul\":1674:1709   */\n      swap1\n      pop\n        /* \"#utility.yul\":1619:1715   */\n      swap2\n      swap1\n      pop\n      jump\t// out\n        /* \"#utility.yul\":1721:1839   */\n    tag_146:\n        /* \"#utility.yul\":1808:1832   */\n      tag_225\n        /* \"#utility.yul\":1826:1831   */\n      dup2\n        /* \"#utility.yul\":1808:1832   */\n      tag_145\n      jump\t// in\n    tag_225:\n        /* \"#utility.yul\":1803:1806   */\n      dup3\n        /* \"#utility.yul\":1796:1833   */\n      mstore\n        /* \"#utility.yul\":1721:1839   */\n      pop\n      pop\n      jump\t// out\n        /* \"#utility.yul\":1845:1944   */\n    tag_147:\n        /* \"#utility.yul\":1897:1903   */\n      0x00\n        /* \"#utility.yul\":1931:1936   */\n      dup2\n        /* \"#utility.yul\":1925:1937   */\n      mload\n        /* \"#utility.yul\":1915:1937   */\n      swap1\n      pop\n        /* \"#utility.yul\":1845:1944   */\n      swap2\n      swap1\n      pop\n      jump\t// out\n        /* \"#utility.yul\":1950:2119   */\n    tag_148:\n        /* \"#utility.yul\":2034:2045   */\n      0x00\n        /* \"#utility.yul\":2068:2074   */\n      dup3\n        /* \"#utility.yul\":2063:2066   */\n      dup3\n        /* \"#utility.yul\":2056:2075   */\n      mstore\n        /* \"#utility.yul\":2108:2112   */\n      0x20\n        /* \"#utility.yul\":2103:2106   */\n      dup3\n        /* \"#utility.yul\":2099:2113   */\n      add\n        /* \"#utility.yul\":2084:2113   */\n      swap1\n      pop\n        /* \"#utility.yul\":1950:2119   */\n      swap3\n      swap2\n      pop\n      pop\n      jump\t// out\n        /* \"#utility.yul\":2125:2264   */\n    tag_149:\n        /* \"#utility.yul\":2214:2220   */\n      dup3\n        /* \"#utility.yul\":2209:2212   */\n      dup2\n        /* \"#utility.yul\":2204:2207   */\n      dup4\n        /* \"#utility.yul\":2198:2221   */\n      mcopy\n        /* \"#utility.yul\":2255:2256   */\n      0x00\n        /* \"#utility.yul\":2246:2252   */\n      dup4\n        /* \"#utility.yul\":2241:2244   */\n      dup4\n        /* \"#utility.yul\":2237:2253   */\n      add\n        /* \"#utility.yul\":2230:2257   */\n      mstore\n        /* \"#utility.yul\":2125:2264   */\n      pop\n      pop\n      pop\n      jump\t// out\n        /* \"#utility.yul\":2270:2372   */\n    tag_150:\n        /* \"#utility.yul\":2311:2317   */\n      0x00\n        /* \"#utility.yul\":2362:2364   */\n      0x1f\n        /* \"#utility.yul\":2358:2365   */\n      not\n        /* \"#utility.yul\":2353:2355   */\n      0x1f\n        /* \"#utility.yul\":2346:2351   */\n      dup4\n        /* \"#utility.yul\":2342:2356   */\n      add\n        /* \"#utility.yul\":2338:2366   */\n      and\n        /* \"#utility.yul\":2328:2366   */\n      swap1\n      pop\n        /* \"#utility.yul\":2270:2372   */\n      swap2\n      swap1\n      pop\n      jump\t// out\n        /* \"#utility.yul\":2378:2755   */\n    tag_151:\n        /* \"#utility.yul\":2466:2469   */\n      0x00\n        /* \"#utility.yul\":2494:2533   */\n      tag_231\n        /* \"#utility.yul\":2527:2532   */\n      dup3\n        /* \"#utility.yul\":2494:2533   */\n      tag_147\n      jump\t// in\n    tag_231:\n        /* \"#utility.yul\":2549:2620   */\n      tag_232\n        /* \"#utility.yul\":2613:2619   */\n      dup2\n        /* \"#utility.yul\":2608:2611   */\n      dup6\n        /* \"#utility.yul\":2549:2620   */\n      tag_148\n      jump\t// in\n    tag_232:\n        /* \"#utility.yul\":2542:2620   */\n      swap4\n      pop\n        /* \"#utility.yul\":2629:2694   */\n      tag_233\n        /* \"#utility.yul\":2687:2693   */\n      dup2\n        /* \"#utility.yul\":2682:2685   */\n      dup6\n        /* \"#utility.yul\":2675:2679   */\n      0x20\n        /* \"#utility.yul\":2668:2673   */\n      dup7\n        /* \"#utility.yul\":2664:2680   */\n      add\n        /* \"#utility.yul\":2629:2694   */\n      tag_149\n      jump\t// in\n    tag_233:\n        /* \"#utility.yul\":2719:2748   */\n      tag_234\n        /* \"#utility.yul\":2741:2747   */\n      dup2\n        /* \"#utility.yul\":2719:2748   */\n      tag_150\n      jump\t// in\n    tag_234:\n        /* \"#utility.yul\":2714:2717   */\n      dup5\n        /* \"#utility.yul\":2710:2749   */\n      add\n        /* \"#utility.yul\":2703:2749   */\n      swap2\n      pop\n        /* \"#utility.yul\":2470:2755   */\n      pop\n        /* \"#utility.yul\":2378:2755   */\n      swap3\n      swap2\n      pop\n      pop\n      jump\t// out\n        /* \"#utility.yul\":2761:2851   */\n    tag_152:\n        /* \"#utility.yul\":2795:2802   */\n      0x00\n        /* \"#utility.yul\":2838:2843   */\n      dup2\n        /* \"#utility.yul\":2831:2844   */\n      iszero\n        /* \"#utility.yul\":2824:2845   */\n      iszero\n        /* \"#utility.yul\":2813:2845   */\n      swap1\n      pop\n        /* \"#utility.yul\":2761:2851   */\n      swap2\n      swap1\n      pop\n      jump\t// out\n        /* \"#utility.yul\":2857:2966   */\n    tag_153:\n        /* \"#utility.yul\":2938:2959   */\n      tag_237\n        /* \"#utility.yul\":2953:2958   */\n      dup2\n        /* \"#utility.yul\":2938:2959   */\n      tag_152\n      jump\t// in\n    tag_237:\n        /* \"#utility.yul\":2933:2936   */\n      dup3\n        /* \"#utility.yul\":2926:2960   */\n      mstore\n        /* \"#utility.yul\":2857:2966   */\n      pop\n      pop\n      jump\t// out\n        /* \"#utility.yul\":2972:4028   */\n    tag_25:\n        /* \"#utility.yul\":3267:3271   */\n      0x00\n        /* \"#utility.yul\":3305:3308   */\n      0xe0\n        /* \"#utility.yul\":3294:3303   */\n      dup3\n        /* \"#utility.yul\":3290:3309   */\n      add\n        /* \"#utility.yul\":3282:3309   */\n      swap1\n      pop\n        /* \"#utility.yul\":3319:3390   */\n      tag_239\n        /* \"#utility.yul\":3387:3388   */\n      0x00\n        /* \"#utility.yul\":3376:3385   */\n      dup4\n        /* \"#utility.yul\":3372:3389   */\n      add\n        /* \"#utility.yul\":3363:3369   */\n      dup11\n        /* \"#utility.yul\":3319:3390   */\n      tag_146\n      jump\t// in\n    tag_239:\n        /* \"#utility.yul\":3437:3446   */\n      dup2\n        /* \"#utility.yul\":3431:3435   */\n      dup2\n        /* \"#utility.yul\":3427:3447   */\n      sub\n        /* \"#utility.yul\":3422:3424   */\n      0x20\n        /* \"#utility.yul\":3411:3420   */\n      dup4\n        /* \"#utility.yul\":3407:3425   */\n      add\n        /* \"#utility.yul\":3400:3448   */\n      mstore\n        /* \"#utility.yul\":3465:3543   */\n      tag_240\n        /* \"#utility.yul\":3538:3542   */\n      dup2\n        /* \"#utility.yul\":3529:3535   */\n      dup10\n        /* \"#utility.yul\":3465:3543   */\n      tag_151\n      jump\t// in\n    tag_240:\n        /* \"#utility.yul\":3457:3543   */\n      swap1\n      pop\n        /* \"#utility.yul\":3590:3599   */\n      dup2\n        /* \"#utility.yul\":3584:3588   */\n      dup2\n        /* \"#utility.yul\":3580:3600   */\n      sub\n        /* \"#utility.yul\":3575:3577   */\n      0x40\n        /* \"#utility.yul\":3564:3573   */\n      dup4\n        /* \"#utility.yul\":3560:3578   */\n      add\n        /* \"#utility.yul\":3553:3601   */\n      mstore\n        /* \"#utility.yul\":3618:3696   */\n      tag_241\n        /* \"#utility.yul\":3691:3695   */\n      dup2\n        /* \"#utility.yul\":3682:3688   */\n      dup9\n        /* \"#utility.yul\":3618:3696   */\n      tag_151\n      jump\t// in\n    tag_241:\n        /* \"#utility.yul\":3610:3696   */\n      swap1\n      pop\n        /* \"#utility.yul\":3706:3778   */\n      tag_242\n        /* \"#utility.yul\":3774:3776   */\n      0x60\n        /* \"#utility.yul\":3763:3772   */\n      dup4\n        /* \"#utility.yul\":3759:3777   */\n      add\n        /* \"#utility.yul\":3750:3756   */\n      dup8\n        /* \"#utility.yul\":3706:3778   */\n      tag_143\n      jump\t// in\n    tag_242:\n        /* \"#utility.yul\":3788:3861   */\n      tag_243\n        /* \"#utility.yul\":3856:3859   */\n      0x80\n        /* \"#utility.yul\":3845:3854   */\n      dup4\n        /* \"#utility.yul\":3841:3860   */\n      add\n        /* \"#utility.yul\":3832:3838   */\n      dup7\n        /* \"#utility.yul\":3788:3861   */\n      tag_143\n      jump\t// in\n    tag_243:\n        /* \"#utility.yul\":3871:3944   */\n      tag_244\n        /* \"#utility.yul\":3939:3942   */\n      0xa0\n        /* \"#utility.yul\":3928:3937   */\n      dup4\n        /* \"#utility.yul\":3924:3943   */\n      add\n        /* \"#utility.yul\":3915:3921   */\n      dup6\n        /* \"#utility.yul\":3871:3944   */\n      tag_143\n      jump\t// in\n    tag_244:\n        /* \"#utility.yul\":3954:4021   */\n      tag_245\n        /* \"#utility.yul\":4016:4019   */\n      0xc0\n        /* \"#utility.yul\":4005:4014   */\n      dup4\n        /* \"#utility.yul\":4001:4020   */\n      add\n        /* \"#utility.yul\":3992:3998   */\n      dup5\n        /* \"#utility.yul\":3954:4021   */\n      tag_153\n      jump\t// in\n    tag_245:\n        /* \"#utility.yul\":2972:4028   */\n      swap9\n      swap8\n      pop\n      pop\n      pop\n      pop\n      pop\n      pop\n      pop\n      pop\n      jump\t// out\n        /* \"#utility.yul\":4034:4256   */\n    tag_31:\n        /* \"#utility.yul\":4127:4131   */\n      0x00\n        /* \"#utility.yul\":4165:4167   */\n      0x20\n        /* \"#utility.yul\":4154:4163   */\n      dup3\n        /* \"#utility.yul\":4150:4168   */\n      add\n        /* \"#utility.yul\":4142:4168   */\n      swap1\n      pop\n        /* \"#utility.yul\":4178:4249   */\n      tag_247\n        /* \"#utility.yul\":4246:4247   */\n      0x00\n        /* \"#utility.yul\":4235:4244   */\n      dup4\n        /* \"#utility.yul\":4231:4248   */\n      add\n        /* \"#utility.yul\":4222:4228   */\n      dup5\n        /* \"#utility.yul\":4178:4249   */\n      tag_143\n      jump\t// in\n    tag_247:\n        /* \"#utility.yul\":4034:4256   */\n      swap3\n      swap2\n      pop\n      pop\n      jump\t// out\n        /* \"#utility.yul\":4262:4384   */\n    tag_154:\n        /* \"#utility.yul\":4335:4359   */\n      tag_249\n        /* \"#utility.yul\":4353:4358   */\n      dup2\n        /* \"#utility.yul\":4335:4359   */\n      tag_145\n      jump\t// in\n    tag_249:\n        /* \"#utility.yul\":4328:4333   */\n      dup2\n        /* \"#utility.yul\":4325:4360   */\n      eq\n        /* \"#utility.yul\":4315:4378   */\n      tag_250\n      jumpi\n        /* \"#utility.yul\":4374:4375   */\n      0x00\n        /* \"#utility.yul\":4371:4372   */\n      0x00\n        /* \"#utility.yul\":4364:4376   */\n      revert\n        /* \"#utility.yul\":4315:4378   */\n    tag_250:\n        /* \"#utility.yul\":4262:4384   */\n      pop\n      jump\t// out\n        /* \"#utility.yul\":4390:4529   */\n    tag_155:\n        /* \"#utility.yul\":4436:4441   */\n      0x00\n        /* \"#utility.yul\":4474:4480   */\n      dup2\n        /* \"#utility.yul\":4461:4481   */\n      calldataload\n        /* \"#utility.yul\":4452:4481   */\n      swap1\n      pop\n        /* \"#utility.yul\":4490:4523   */\n      tag_252\n        /* \"#utility.yul\":4517:4522   */\n      dup2\n        /* \"#utility.yul\":4490:4523   */\n      tag_154\n      jump\t// in\n    tag_252:\n        /* \"#utility.yul\":4390:4529   */\n      swap3\n      swap2\n      pop\n      pop\n      jump\t// out\n        /* \"#utility.yul\":4535:5009   */\n    tag_42:\n        /* \"#utility.yul\":4603:4609   */\n      0x00\n        /* \"#utility.yul\":4611:4617   */\n      0x00\n        /* \"#utility.yul\":4660:4662   */\n      0x40\n        /* \"#utility.yul\":4648:4657   */\n      dup4\n        /* \"#utility.yul\":4639:4646   */\n      dup6\n        /* \"#utility.yul\":4635:4658   */\n      sub\n        /* \"#utility.yul\":4631:4663   */\n      slt\n        /* \"#utility.yul\":4628:4747   */\n      iszero\n      tag_254\n      jumpi\n        /* \"#utility.yul\":4666:4745   */\n      tag_255\n      tag_138\n      jump\t// in\n    tag_255:\n        /* \"#utility.yul\":4628:4747   */\n    tag_254:\n        /* \"#utility.yul\":4786:4787   */\n      0x00\n        /* \"#utility.yul\":4811:4864   */\n      tag_256\n        /* \"#utility.yul\":4856:4863   */\n      dup6\n        /* \"#utility.yul\":4847:4853   */\n      dup3\n        /* \"#utility.yul\":4836:4845   */\n      dup7\n        /* \"#utility.yul\":4832:4854   */\n      add\n        /* \"#utility.yul\":4811:4864   */\n      tag_142\n      jump\t// in\n    tag_256:\n        /* \"#utility.yul\":4801:4864   */\n      swap3\n      pop\n        /* \"#utility.yul\":4757:4874   */\n      pop\n        /* \"#utility.yul\":4913:4915   */\n      0x20\n        /* \"#utility.yul\":4939:4992   */\n      tag_257\n        /* \"#utility.yul\":4984:4991   */\n      dup6\n        /* \"#utility.yul\":4975:4981   */\n      dup3\n        /* \"#utility.yul\":4964:4973   */\n      dup7\n        /* \"#utility.yul\":4960:4982   */\n      add\n        /* \"#utility.yul\":4939:4992   */\n      tag_155\n      jump\t// in\n    tag_257:\n        /* \"#utility.yul\":4929:4992   */\n      swap2\n      pop\n        /* \"#utility.yul\":4884:5002   */\n      pop\n        /* \"#utility.yul\":4535:5009   */\n      swap3\n      pop\n      swap3\n      swap1\n      pop\n      jump\t// out\n        /* \"#utility.yul\":5015:5489   */\n    tag_48:\n        /* \"#utility.yul\":5083:5089   */\n      0x00\n        /* \"#utility.yul\":5091:5097   */\n      0x00\n        /* \"#utility.yul\":5140:5142   */\n      0x40\n        /* \"#utility.yul\":5128:5137   */\n      dup4\n        /* \"#utility.yul\":5119:5126   */\n      dup6\n        /* \"#utility.yul\":5115:5138   */\n      sub\n        /* \"#utility.yul\":5111:5143   */\n      slt\n        /* \"#utility.yul\":5108:5227   */\n      iszero\n      tag_259\n      jumpi\n        /* \"#utility.yul\":5146:5225   */\n      tag_260\n      tag_138\n      jump\t// in\n    tag_260:\n        /* \"#utility.yul\":5108:5227   */\n    tag_259:\n        /* \"#utility.yul\":5266:5267   */\n      0x00\n        /* \"#utility.yul\":5291:5344   */\n      tag_261\n        /* \"#utility.yul\":5336:5343   */\n      dup6\n        /* \"#utility.yul\":5327:5333   */\n      dup3\n        /* \"#utility.yul\":5316:5325   */\n      dup7\n        /* \"#utility.yul\":5312:5334   */\n      add\n        /* \"#utility.yul\":5291:5344   */\n      tag_142\n      jump\t// in\n    tag_261:\n        /* \"#utility.yul\":5281:5344   */\n      swap3\n      pop\n        /* \"#utility.yul\":5237:5354   */\n      pop\n        /* \"#utility.yul\":5393:5395   */\n      0x20\n        /* \"#utility.yul\":5419:5472   */\n      tag_262\n        /* \"#utility.yul\":5464:5471   */\n      dup6\n        /* \"#utility.yul\":5455:5461   */\n      dup3\n        /* \"#utility.yul\":5444:5453   */\n      dup7\n        /* \"#utility.yul\":5440:5462   */\n      add\n        /* \"#utility.yul\":5419:5472   */\n      tag_142\n      jump\t// in\n    tag_262:\n        /* \"#utility.yul\":5409:5472   */\n      swap2\n      pop\n        /* \"#utility.yul\":5364:5482   */\n      pop\n        /* \"#utility.yul\":5015:5489   */\n      swap3\n      pop\n      swap3\n      swap1\n      pop\n      jump\t// out\n        /* \"#utility.yul\":5495:5612   */\n    tag_156:\n        /* \"#utility.yul\":5604:5605   */\n      0x00\n        /* \"#utility.yul\":5601:5602   */\n      0x00\n        /* \"#utility.yul\":5594:5606   */\n      revert\n        /* \"#utility.yul\":5618:5735   */\n    tag_157:\n        /* \"#utility.yul\":5727:5728   */\n      0x00\n        /* \"#utility.yul\":5724:5725   */\n      0x00\n        /* \"#utility.yul\":5717:5729   */\n      revert\n        /* \"#utility.yul\":5741:5921   */\n    tag_158:\n        /* \"#utility.yul\":5789:5866   */\n      0x4e487b7100000000000000000000000000000000000000000000000000000000\n        /* \"#utility.yul\":5786:5787   */\n      0x00\n        /* \"#utility.yul\":5779:5867   */\n      mstore\n        /* \"#utility.yul\":5886:5890   */\n      0x41\n        /* \"#utility.yul\":5883:5884   */\n      0x04\n        /* \"#utility.yul\":5876:5891   */\n      mstore\n        /* \"#utility.yul\":5910:5914   */\n      0x24\n        /* \"#utility.yul\":5907:5908   */\n      0x00\n        /* \"#utility.yul\":5900:5915   */\n      revert\n        /* \"#utility.yul\":5927:6208   */\n    tag_159:\n        /* \"#utility.yul\":6010:6037   */\n      tag_267\n        /* \"#utility.yul\":6032:6036   */\n      dup3\n        /* \"#utility.yul\":6010:6037   */\n      tag_150\n      jump\t// in\n    tag_267:\n        /* \"#utility.yul\":6002:6008   */\n      dup2\n        /* \"#utility.yul\":5998:6038   */\n      add\n        /* \"#utility.yul\":6140:6146   */\n      dup2\n        /* \"#utility.yul\":6128:6138   */\n      dup2\n        /* \"#utility.yul\":6125:6147   */\n      lt\n        /* \"#utility.yul\":6104:6122   */\n      0xffffffffffffffff\n        /* \"#utility.yul\":6092:6102   */\n      dup3\n        /* \"#utility.yul\":6089:6123   */\n      gt\n        /* \"#utility.yul\":6086:6148   */\n      or\n        /* \"#utility.yul\":6083:6171   */\n      iszero\n      tag_268\n      jumpi\n        /* \"#utility.yul\":6151:6169   */\n      tag_269\n      tag_158\n      jump\t// in\n    tag_269:\n        /* \"#utility.yul\":6083:6171   */\n    tag_268:\n        /* \"#utility.yul\":6191:6201   */\n      dup1\n        /* \"#utility.yul\":6187:6189   */\n      0x40\n        /* \"#utility.yul\":6180:6202   */\n      mstore\n        /* \"#utility.yul\":5970:6208   */\n      pop\n        /* \"#utility.yul\":5927:6208   */\n      pop\n      pop\n      jump\t// out\n        /* \"#utility.yul\":6214:6343   */\n    tag_160:\n        /* \"#utility.yul\":6248:6254   */\n      0x00\n        /* \"#utility.yul\":6275:6295   */\n      tag_271\n      tag_137\n      jump\t// in\n    tag_271:\n        /* \"#utility.yul\":6265:6295   */\n      swap1\n      pop\n        /* \"#utility.yul\":6304:6337   */\n      tag_272\n        /* \"#utility.yul\":6332:6336   */\n      dup3\n        /* \"#utility.yul\":6324:6330   */\n      dup3\n        /* \"#utility.yul\":6304:6337   */\n      tag_159\n      jump\t// in\n    tag_272:\n        /* \"#utility.yul\":6214:6343   */\n      swap2\n      swap1\n      pop\n      jump\t// out\n        /* \"#utility.yul\":6349:6657   */\n    tag_161:\n        /* \"#utility.yul\":6411:6415   */\n      0x00\n        /* \"#utility.yul\":6501:6519   */\n      0xffffffffffffffff\n        /* \"#utility.yul\":6493:6499   */\n      dup3\n        /* \"#utility.yul\":6490:6520   */\n      gt\n        /* \"#utility.yul\":6487:6543   */\n      iszero\n      tag_274\n      jumpi\n        /* \"#utility.yul\":6523:6541   */\n      tag_275\n      tag_158\n      jump\t// in\n    tag_275:\n        /* \"#utility.yul\":6487:6543   */\n    tag_274:\n        /* \"#utility.yul\":6561:6590   */\n      tag_276\n        /* \"#utility.yul\":6583:6589   */\n      dup3\n        /* \"#utility.yul\":6561:6590   */\n      tag_150\n      jump\t// in\n    tag_276:\n        /* \"#utility.yul\":6553:6590   */\n      swap1\n      pop\n        /* \"#utility.yul\":6645:6649   */\n      0x20\n        /* \"#utility.yul\":6639:6643   */\n      dup2\n        /* \"#utility.yul\":6635:6650   */\n      add\n        /* \"#utility.yul\":6627:6650   */\n      swap1\n      pop\n        /* \"#utility.yul\":6349:6657   */\n      swap2\n      swap1\n      pop\n      jump\t// out\n        /* \"#utility.yul\":6663:6811   */\n    tag_162:\n        /* \"#utility.yul\":6761:6767   */\n      dup3\n        /* \"#utility.yul\":6756:6759   */\n      dup2\n        /* \"#utility.yul\":6751:6754   */\n      dup4\n        /* \"#utility.yul\":6738:6768   */\n      calldatacopy\n        /* \"#utility.yul\":6802:6803   */\n      0x00\n        /* \"#utility.yul\":6793:6799   */\n      dup4\n        /* \"#utility.yul\":6788:6791   */\n      dup4\n        /* \"#utility.yul\":6784:6800   */\n      add\n        /* \"#utility.yul\":6777:6804   */\n      mstore\n        /* \"#utility.yul\":6663:6811   */\n      pop\n      pop\n      pop\n      jump\t// out\n        /* \"#utility.yul\":6817:7242   */\n    tag_163:\n        /* \"#utility.yul\":6895:6900   */\n      0x00\n        /* \"#utility.yul\":6920:6986   */\n      tag_279\n        /* \"#utility.yul\":6936:6985   */\n      tag_280\n        /* \"#utility.yul\":6978:6984   */\n      dup5\n        /* \"#utility.yul\":6936:6985   */\n      tag_161\n      jump\t// in\n    tag_280:\n        /* \"#utility.yul\":6920:6986   */\n      tag_160\n      jump\t// in\n    tag_279:\n        /* \"#utility.yul\":6911:6986   */\n      swap1\n      pop\n        /* \"#utility.yul\":7009:7015   */\n      dup3\n        /* \"#utility.yul\":7002:7007   */\n      dup2\n        /* \"#utility.yul\":6995:7016   */\n      mstore\n        /* \"#utility.yul\":7047:7051   */\n      0x20\n        /* \"#utility.yul\":7040:7045   */\n      dup2\n        /* \"#utility.yul\":7036:7052   */\n      add\n        /* \"#utility.yul\":7085:7088   */\n      dup5\n        /* \"#utility.yul\":7076:7082   */\n      dup5\n        /* \"#utility.yul\":7071:7074   */\n      dup5\n        /* \"#utility.yul\":7067:7083   */\n      add\n        /* \"#utility.yul\":7064:7089   */\n      gt\n        /* \"#utility.yul\":7061:7173   */\n      iszero\n      tag_281\n      jumpi\n        /* \"#utility.yul\":7092:7171   */\n      tag_282\n      tag_157\n      jump\t// in\n    tag_282:\n        /* \"#utility.yul\":7061:7173   */\n    tag_281:\n        /* \"#utility.yul\":7182:7236   */\n      tag_283\n        /* \"#utility.yul\":7229:7235   */\n      dup5\n        /* \"#utility.yul\":7224:7227   */\n      dup3\n        /* \"#utility.yul\":7219:7222   */\n      dup6\n        /* \"#utility.yul\":7182:7236   */\n      tag_162\n      jump\t// in\n    tag_283:\n        /* \"#utility.yul\":6901:7242   */\n      pop\n        /* \"#utility.yul\":6817:7242   */\n      swap4\n      swap3\n      pop\n      pop\n      pop\n      jump\t// out\n        /* \"#utility.yul\":7262:7602   */\n    tag_164:\n        /* \"#utility.yul\":7318:7323   */\n      0x00\n        /* \"#utility.yul\":7367:7370   */\n      dup3\n        /* \"#utility.yul\":7360:7364   */\n      0x1f\n        /* \"#utility.yul\":7352:7358   */\n      dup4\n        /* \"#utility.yul\":7348:7365   */\n      add\n        /* \"#utility.yul\":7344:7371   */\n      slt\n        /* \"#utility.yul\":7334:7456   */\n      tag_285\n      jumpi\n        /* \"#utility.yul\":7375:7454   */\n      tag_286\n      tag_156\n      jump\t// in\n    tag_286:\n        /* \"#utility.yul\":7334:7456   */\n    tag_285:\n        /* \"#utility.yul\":7492:7498   */\n      dup2\n        /* \"#utility.yul\":7479:7499   */\n      calldataload\n        /* \"#utility.yul\":7517:7596   */\n      tag_287\n        /* \"#utility.yul\":7592:7595   */\n      dup5\n        /* \"#utility.yul\":7584:7590   */\n      dup3\n        /* \"#utility.yul\":7577:7581   */\n      0x20\n        /* \"#utility.yul\":7569:7575   */\n      dup7\n        /* \"#utility.yul\":7565:7582   */\n      add\n        /* \"#utility.yul\":7517:7596   */\n      tag_163\n      jump\t// in\n    tag_287:\n        /* \"#utility.yul\":7508:7596   */\n      swap2\n      pop\n        /* \"#utility.yul\":7324:7602   */\n      pop\n        /* \"#utility.yul\":7262:7602   */\n      swap3\n      swap2\n      pop\n      pop\n      jump\t// out\n        /* \"#utility.yul\":7608:8879   */\n    tag_59:\n        /* \"#utility.yul\":7723:7729   */\n      0x00\n        /* \"#utility.yul\":7731:7737   */\n      0x00\n        /* \"#utility.yul\":7739:7745   */\n      0x00\n        /* \"#utility.yul\":7747:7753   */\n      0x00\n        /* \"#utility.yul\":7755:7761   */\n      0x00\n        /* \"#utility.yul\":7804:7807   */\n      0xa0\n        /* \"#utility.yul\":7792:7801   */\n      dup7\n        /* \"#utility.yul\":7783:7790   */\n      dup9\n        /* \"#utility.yul\":7779:7802   */\n      sub\n        /* \"#utility.yul\":7775:7808   */\n      slt\n        /* \"#utility.yul\":7772:7892   */\n      iszero\n      tag_289\n      jumpi\n        /* \"#utility.yul\":7811:7890   */\n      tag_290\n      tag_138\n      jump\t// in\n    tag_290:\n        /* \"#utility.yul\":7772:7892   */\n    tag_289:\n        /* \"#utility.yul\":7959:7960   */\n      0x00\n        /* \"#utility.yul\":7948:7957   */\n      dup7\n        /* \"#utility.yul\":7944:7961   */\n      add\n        /* \"#utility.yul\":7931:7962   */\n      calldataload\n        /* \"#utility.yul\":7989:8007   */\n      0xffffffffffffffff\n        /* \"#utility.yul\":7981:7987   */\n      dup2\n        /* \"#utility.yul\":7978:8008   */\n      gt\n        /* \"#utility.yul\":7975:8092   */\n      iszero\n      tag_291\n      jumpi\n        /* \"#utility.yul\":8011:8090   */\n      tag_292\n      tag_139\n      jump\t// in\n    tag_292:\n        /* \"#utility.yul\":7975:8092   */\n    tag_291:\n        /* \"#utility.yul\":8116:8179   */\n      tag_293\n        /* \"#utility.yul\":8171:8178   */\n      dup9\n        /* \"#utility.yul\":8162:8168   */\n      dup3\n        /* \"#utility.yul\":8151:8160   */\n      dup10\n        /* \"#utility.yul\":8147:8169   */\n      add\n        /* \"#utility.yul\":8116:8179   */\n      tag_164\n      jump\t// in\n    tag_293:\n        /* \"#utility.yul\":8106:8179   */\n      swap6\n      pop\n        /* \"#utility.yul\":7902:8189   */\n      pop\n        /* \"#utility.yul\":8256:8258   */\n      0x20\n        /* \"#utility.yul\":8245:8254   */\n      dup7\n        /* \"#utility.yul\":8241:8259   */\n      add\n        /* \"#utility.yul\":8228:8260   */\n      calldataload\n        /* \"#utility.yul\":8287:8305   */\n      0xffffffffffffffff\n        /* \"#utility.yul\":8279:8285   */\n      dup2\n        /* \"#utility.yul\":8276:8306   */\n      gt\n        /* \"#utility.yul\":8273:8390   */\n      iszero\n      tag_294\n      jumpi\n        /* \"#utility.yul\":8309:8388   */\n      tag_295\n      tag_139\n      jump\t// in\n    tag_295:\n        /* \"#utility.yul\":8273:8390   */\n    tag_294:\n        /* \"#utility.yul\":8414:8477   */\n      tag_296\n        /* \"#utility.yul\":8469:8476   */\n      dup9\n        /* \"#utility.yul\":8460:8466   */\n      dup3\n        /* \"#utility.yul\":8449:8458   */\n      dup10\n        /* \"#utility.yul\":8445:8467   */\n      add\n        /* \"#utility.yul\":8414:8477   */\n      tag_164\n      jump\t// in\n    tag_296:\n        /* \"#utility.yul\":8404:8477   */\n      swap5\n      pop\n        /* \"#utility.yul\":8199:8487   */\n      pop\n        /* \"#utility.yul\":8526:8528   */\n      0x40\n        /* \"#utility.yul\":8552:8605   */\n      tag_297\n        /* \"#utility.yul\":8597:8604   */\n      dup9\n        /* \"#utility.yul\":8588:8594   */\n      dup3\n        /* \"#utility.yul\":8577:8586   */\n      dup10\n        /* \"#utility.yul\":8573:8595   */\n      add\n        /* \"#utility.yul\":8552:8605   */\n      tag_142\n      jump\t// in\n    tag_297:\n        /* \"#utility.yul\":8542:8605   */\n      swap4\n      pop\n        /* \"#utility.yul\":8497:8615   */\n      pop\n        /* \"#utility.yul\":8654:8656   */\n      0x60\n        /* \"#utility.yul\":8680:8733   */\n      tag_298\n        /* \"#utility.yul\":8725:8732   */\n      dup9\n        /* \"#utility.yul\":8716:8722   */\n      dup3\n        /* \"#utility.yul\":8705:8714   */\n      dup10\n        /* \"#utility.yul\":8701:8723   */\n      add\n        /* \"#utility.yul\":8680:8733   */\n      tag_142\n      jump\t// in\n    tag_298:\n        /* \"#utility.yul\":8670:8733   */\n      swap3\n      pop\n        /* \"#utility.yul\":8625:8743   */\n      pop\n        /* \"#utility.yul\":8782:8785   */\n      0x80\n        /* \"#utility.yul\":8809:8862   */\n      tag_299\n        /* \"#utility.yul\":8854:8861   */\n      dup9\n        /* \"#utility.yul\":8845:8851   */\n      dup3\n        /* \"#utility.yul\":8834:8843   */\n      dup10\n        /* \"#utility.yul\":8830:8852   */\n      add\n        /* \"#utility.yul\":8809:8862   */\n      tag_142\n      jump\t// in\n    tag_299:\n        /* \"#utility.yul\":8799:8862   */\n      swap2\n      pop\n        /* \"#utility.yul\":8753:8872   */\n      pop\n        /* \"#utility.yul\":7608:8879   */\n      swap3\n      swap6\n      pop\n      swap3\n      swap6\n      swap1\n      swap4\n      pop\n      jump\t// out\n        /* \"#utility.yul\":8885:9105   */\n    tag_165:\n        /* \"#utility.yul\":9025:9059   */\n      0x70726f6a65637420686173206e6f74206265656e206372656174656420796574\n        /* \"#utility.yul\":9021:9022   */\n      0x00\n        /* \"#utility.yul\":9013:9019   */\n      dup3\n        /* \"#utility.yul\":9009:9023   */\n      add\n        /* \"#utility.yul\":9002:9060   */\n      mstore\n        /* \"#utility.yul\":9094:9097   */\n      0x2100000000000000000000000000000000000000000000000000000000000000\n        /* \"#utility.yul\":9089:9091   */\n      0x20\n        /* \"#utility.yul\":9081:9087   */\n      dup3\n        /* \"#utility.yul\":9077:9092   */\n      add\n        /* \"#utility.yul\":9070:9098   */\n      mstore\n        /* \"#utility.yul\":8885:9105   */\n      pop\n      jump\t// out\n        /* \"#utility.yul\":9111:9477   */\n    tag_166:\n        /* \"#utility.yul\":9253:9256   */\n      0x00\n        /* \"#utility.yul\":9274:9341   */\n      tag_302\n        /* \"#utility.yul\":9338:9340   */\n      0x21\n        /* \"#utility.yul\":9333:9336   */\n      dup4\n        /* \"#utility.yul\":9274:9341   */\n      tag_148\n      jump\t// in\n    tag_302:\n        /* \"#utility.yul\":9267:9341   */\n      swap2\n      pop\n        /* \"#utility.yul\":9350:9443   */\n      tag_303\n        /* \"#utility.yul\":9439:9442   */\n      dup3\n        /* \"#utility.yul\":9350:9443   */\n      tag_165\n      jump\t// in\n    tag_303:\n        /* \"#utility.yul\":9468:9470   */\n      0x40\n        /* \"#utility.yul\":9463:9466   */\n      dup3\n        /* \"#utility.yul\":9459:9471   */\n      add\n        /* \"#utility.yul\":9452:9471   */\n      swap1\n      pop\n        /* \"#utility.yul\":9111:9477   */\n      swap2\n      swap1\n      pop\n      jump\t// out\n        /* \"#utility.yul\":9483:9902   */\n    tag_64:\n        /* \"#utility.yul\":9649:9653   */\n      0x00\n        /* \"#utility.yul\":9687:9689   */\n      0x20\n        /* \"#utility.yul\":9676:9685   */\n      dup3\n        /* \"#utility.yul\":9672:9690   */\n      add\n        /* \"#utility.yul\":9664:9690   */\n      swap1\n      pop\n        /* \"#utility.yul\":9736:9745   */\n      dup2\n        /* \"#utility.yul\":9730:9734   */\n      dup2\n        /* \"#utility.yul\":9726:9746   */\n      sub\n        /* \"#utility.yul\":9722:9723   */\n      0x00\n        /* \"#utility.yul\":9711:9720   */\n      dup4\n        /* \"#utility.yul\":9707:9724   */\n      add\n        /* \"#utility.yul\":9700:9747   */\n      mstore\n        /* \"#utility.yul\":9764:9895   */\n      tag_305\n        /* \"#utility.yul\":9890:9894   */\n      dup2\n        /* \"#utility.yul\":9764:9895   */\n      tag_166\n      jump\t// in\n    tag_305:\n        /* \"#utility.yul\":9756:9895   */\n      swap1\n      pop\n        /* \"#utility.yul\":9483:9902   */\n      swap2\n      swap1\n      pop\n      jump\t// out\n        /* \"#utility.yul\":9908:10088   */\n    tag_167:\n        /* \"#utility.yul\":9956:10033   */\n      0x4e487b7100000000000000000000000000000000000000000000000000000000\n        /* \"#utility.yul\":9953:9954   */\n      0x00\n        /* \"#utility.yul\":9946:10034   */\n      mstore\n        /* \"#utility.yul\":10053:10057   */\n      0x11\n        /* \"#utility.yul\":10050:10051   */\n      0x04\n        /* \"#utility.yul\":10043:10058   */\n      mstore\n        /* \"#utility.yul\":10077:10081   */\n      0x24\n        /* \"#utility.yul\":10074:10075   */\n      0x00\n        /* \"#utility.yul\":10067:10082   */\n      revert\n        /* \"#utility.yul\":10094:10288   */\n    tag_68:\n        /* \"#utility.yul\":10134:10138   */\n      0x00\n        /* \"#utility.yul\":10154:10174   */\n      tag_308\n        /* \"#utility.yul\":10172:10173   */\n      dup3\n        /* \"#utility.yul\":10154:10174   */\n      tag_140\n      jump\t// in\n    tag_308:\n        /* \"#utility.yul\":10149:10174   */\n      swap2\n      pop\n        /* \"#utility.yul\":10188:10208   */\n      tag_309\n        /* \"#utility.yul\":10206:10207   */\n      dup4\n        /* \"#utility.yul\":10188:10208   */\n      tag_140\n      jump\t// in\n    tag_309:\n        /* \"#utility.yul\":10183:10208   */\n      swap3\n      pop\n        /* \"#utility.yul\":10232:10233   */\n      dup3\n        /* \"#utility.yul\":10229:10230   */\n      dup3\n        /* \"#utility.yul\":10225:10234   */\n      sub\n        /* \"#utility.yul\":10217:10234   */\n      swap1\n      pop\n        /* \"#utility.yul\":10256:10257   */\n      dup2\n        /* \"#utility.yul\":10250:10254   */\n      dup2\n        /* \"#utility.yul\":10247:10258   */\n      gt\n        /* \"#utility.yul\":10244:10281   */\n      iszero\n      tag_310\n      jumpi\n        /* \"#utility.yul\":10261:10279   */\n      tag_311\n      tag_167\n      jump\t// in\n    tag_311:\n        /* \"#utility.yul\":10244:10281   */\n    tag_310:\n        /* \"#utility.yul\":10094:10288   */\n      swap3\n      swap2\n      pop\n      pop\n      jump\t// out\n        /* \"#utility.yul\":10294:10474   */\n    tag_168:\n        /* \"#utility.yul\":10342:10419   */\n      0x4e487b7100000000000000000000000000000000000000000000000000000000\n        /* \"#utility.yul\":10339:10340   */\n      0x00\n        /* \"#utility.yul\":10332:10420   */\n      mstore\n        /* \"#utility.yul\":10439:10443   */\n      0x22\n        /* \"#utility.yul\":10436:10437   */\n      0x04\n        /* \"#utility.yul\":10429:10444   */\n      mstore\n        /* \"#utility.yul\":10463:10467   */\n      0x24\n        /* \"#utility.yul\":10460:10461   */\n      0x00\n        /* \"#utility.yul\":10453:10468   */\n      revert\n        /* \"#utility.yul\":10480:10800   */\n    tag_70:\n        /* \"#utility.yul\":10524:10530   */\n      0x00\n        /* \"#utility.yul\":10561:10562   */\n      0x02\n        /* \"#utility.yul\":10555:10559   */\n      dup3\n        /* \"#utility.yul\":10551:10563   */\n      div\n        /* \"#utility.yul\":10541:10563   */\n      swap1\n      pop\n        /* \"#utility.yul\":10608:10609   */\n      0x01\n        /* \"#utility.yul\":10602:10606   */\n      dup3\n        /* \"#utility.yul\":10598:10610   */\n      and\n        /* \"#utility.yul\":10629:10647   */\n      dup1\n        /* \"#utility.yul\":10619:10700   */\n      tag_314\n      jumpi\n        /* \"#utility.yul\":10685:10689   */\n      0x7f\n        /* \"#utility.yul\":10677:10683   */\n      dup3\n        /* \"#utility.yul\":10673:10690   */\n      and\n        /* \"#utility.yul\":10663:10690   */\n      swap2\n      pop\n        /* \"#utility.yul\":10619:10700   */\n    tag_314:\n        /* \"#utility.yul\":10747:10749   */\n      0x20\n        /* \"#utility.yul\":10739:10745   */\n      dup3\n        /* \"#utility.yul\":10736:10750   */\n      lt\n        /* \"#utility.yul\":10716:10734   */\n      dup2\n        /* \"#utility.yul\":10713:10751   */\n      sub\n        /* \"#utility.yul\":10710:10794   */\n      tag_315\n      jumpi\n        /* \"#utility.yul\":10766:10784   */\n      tag_316\n      tag_168\n      jump\t// in\n    tag_316:\n        /* \"#utility.yul\":10710:10794   */\n    tag_315:\n        /* \"#utility.yul\":10531:10800   */\n      pop\n        /* \"#utility.yul\":10480:10800   */\n      swap2\n      swap1\n      pop\n      jump\t// out\n        /* \"#utility.yul\":10806:11039   */\n    tag_169:\n        /* \"#utility.yul\":10946:10980   */\n      0x46756e64696e6720676f616c206861732072656163686564202c207573657220\n        /* \"#utility.yul\":10942:10943   */\n      0x00\n        /* \"#utility.yul\":10934:10940   */\n      dup3\n        /* \"#utility.yul\":10930:10944   */\n      add\n        /* \"#utility.yul\":10923:10981   */\n      mstore\n        /* \"#utility.yul\":11015:11031   */\n      0x63616e2774207769746864726177000000000000000000000000000000000000\n        /* \"#utility.yul\":11010:11012   */\n      0x20\n        /* \"#utility.yul\":11002:11008   */\n      dup3\n        /* \"#utility.yul\":10998:11013   */\n      add\n        /* \"#utility.yul\":10991:11032   */\n      mstore\n        /* \"#utility.yul\":10806:11039   */\n      pop\n      jump\t// out\n        /* \"#utility.yul\":11045:11411   */\n    tag_170:\n        /* \"#utility.yul\":11187:11190   */\n      0x00\n        /* \"#utility.yul\":11208:11275   */\n      tag_319\n        /* \"#utility.yul\":11272:11274   */\n      0x2e\n        /* \"#utility.yul\":11267:11270   */\n      dup4\n        /* \"#utility.yul\":11208:11275   */\n      tag_148\n      jump\t// in\n    tag_319:\n        /* \"#utility.yul\":11201:11275   */\n      swap2\n      pop\n        /* \"#utility.yul\":11284:11377   */\n      tag_320\n        /* \"#utility.yul\":11373:11376   */\n      dup3\n        /* \"#utility.yul\":11284:11377   */\n      tag_169\n      jump\t// in\n    tag_320:\n        /* \"#utility.yul\":11402:11404   */\n      0x40\n        /* \"#utility.yul\":11397:11400   */\n      dup3\n        /* \"#utility.yul\":11393:11405   */\n      add\n        /* \"#utility.yul\":11386:11405   */\n      swap1\n      pop\n        /* \"#utility.yul\":11045:11411   */\n      swap2\n      swap1\n      pop\n      jump\t// out\n        /* \"#utility.yul\":11417:11836   */\n    tag_87:\n        /* \"#utility.yul\":11583:11587   */\n      0x00\n        /* \"#utility.yul\":11621:11623   */\n      0x20\n        /* \"#utility.yul\":11610:11619   */\n      dup3\n        /* \"#utility.yul\":11606:11624   */\n      add\n        /* \"#utility.yul\":11598:11624   */\n      swap1\n      pop\n        /* \"#utility.yul\":11670:11679   */\n      dup2\n        /* \"#utility.yul\":11664:11668   */\n      dup2\n        /* \"#utility.yul\":11660:11680   */\n      sub\n        /* \"#utility.yul\":11656:11657   */\n      0x00\n        /* \"#utility.yul\":11645:11654   */\n      dup4\n        /* \"#utility.yul\":11641:11658   */\n      add\n        /* \"#utility.yul\":11634:11681   */\n      mstore\n        /* \"#utility.yul\":11698:11829   */\n      tag_322\n        /* \"#utility.yul\":11824:11828   */\n      dup2\n        /* \"#utility.yul\":11698:11829   */\n      tag_170\n      jump\t// in\n    tag_322:\n        /* \"#utility.yul\":11690:11829   */\n      swap1\n      pop\n        /* \"#utility.yul\":11417:11836   */\n      swap2\n      swap1\n      pop\n      jump\t// out\n        /* \"#utility.yul\":11842:12174   */\n    tag_91:\n        /* \"#utility.yul\":11963:11967   */\n      0x00\n        /* \"#utility.yul\":12001:12003   */\n      0x40\n        /* \"#utility.yul\":11990:11999   */\n      dup3\n        /* \"#utility.yul\":11986:12004   */\n      add\n        /* \"#utility.yul\":11978:12004   */\n      swap1\n      pop\n        /* \"#utility.yul\":12014:12085   */\n      tag_324\n        /* \"#utility.yul\":12082:12083   */\n      0x00\n        /* \"#utility.yul\":12071:12080   */\n      dup4\n        /* \"#utility.yul\":12067:12084   */\n      add\n        /* \"#utility.yul\":12058:12064   */\n      dup6\n        /* \"#utility.yul\":12014:12085   */\n      tag_146\n      jump\t// in\n    tag_324:\n        /* \"#utility.yul\":12095:12167   */\n      tag_325\n        /* \"#utility.yul\":12163:12165   */\n      0x20\n        /* \"#utility.yul\":12152:12161   */\n      dup4\n        /* \"#utility.yul\":12148:12166   */\n      add\n        /* \"#utility.yul\":12139:12145   */\n      dup5\n        /* \"#utility.yul\":12095:12167   */\n      tag_143\n      jump\t// in\n    tag_325:\n        /* \"#utility.yul\":11842:12174   */\n      swap4\n      swap3\n      pop\n      pop\n      pop\n      jump\t// out\n        /* \"#utility.yul\":12180:12413   */\n    tag_171:\n        /* \"#utility.yul\":12320:12354   */\n      0x4f6e6c792050726f6a6563742063726561746f722063616e20657874656e6420\n        /* \"#utility.yul\":12316:12317   */\n      0x00\n        /* \"#utility.yul\":12308:12314   */\n      dup3\n        /* \"#utility.yul\":12304:12318   */\n      add\n        /* \"#utility.yul\":12297:12355   */\n      mstore\n        /* \"#utility.yul\":12389:12405   */\n      0x74686520646561646c696e652121000000000000000000000000000000000000\n        /* \"#utility.yul\":12384:12386   */\n      0x20\n        /* \"#utility.yul\":12376:12382   */\n      dup3\n        /* \"#utility.yul\":12372:12387   */\n      add\n        /* \"#utility.yul\":12365:12406   */\n      mstore\n        /* \"#utility.yul\":12180:12413   */\n      pop\n      jump\t// out\n        /* \"#utility.yul\":12419:12785   */\n    tag_172:\n        /* \"#utility.yul\":12561:12564   */\n      0x00\n        /* \"#utility.yul\":12582:12649   */\n      tag_328\n        /* \"#utility.yul\":12646:12648   */\n      0x2e\n        /* \"#utility.yul\":12641:12644   */\n      dup4\n        /* \"#utility.yul\":12582:12649   */\n      tag_148\n      jump\t// in\n    tag_328:\n        /* \"#utility.yul\":12575:12649   */\n      swap2\n      pop\n        /* \"#utility.yul\":12658:12751   */\n      tag_329\n        /* \"#utility.yul\":12747:12750   */\n      dup3\n        /* \"#utility.yul\":12658:12751   */\n      tag_171\n      jump\t// in\n    tag_329:\n        /* \"#utility.yul\":12776:12778   */\n      0x40\n        /* \"#utility.yul\":12771:12774   */\n      dup3\n        /* \"#utility.yul\":12767:12779   */\n      add\n        /* \"#utility.yul\":12760:12779   */\n      swap1\n      pop\n        /* \"#utility.yul\":12419:12785   */\n      swap2\n      swap1\n      pop\n      jump\t// out\n        /* \"#utility.yul\":12791:13210   */\n    tag_96:\n        /* \"#utility.yul\":12957:12961   */\n      0x00\n        /* \"#utility.yul\":12995:12997   */\n      0x20\n        /* \"#utility.yul\":12984:12993   */\n      dup3\n        /* \"#utility.yul\":12980:12998   */\n      add\n        /* \"#utility.yul\":12972:12998   */\n      swap1\n      pop\n        /* \"#utility.yul\":13044:13053   */\n      dup2\n        /* \"#utility.yul\":13038:13042   */\n      dup2\n        /* \"#utility.yul\":13034:13054   */\n      sub\n        /* \"#utility.yul\":13030:13031   */\n      0x00\n        /* \"#utility.yul\":13019:13028   */\n      dup4\n        /* \"#utility.yul\":13015:13032   */\n      add\n        /* \"#utility.yul\":13008:13055   */\n      mstore\n        /* \"#utility.yul\":13072:13203   */\n      tag_331\n        /* \"#utility.yul\":13198:13202   */\n      dup2\n        /* \"#utility.yul\":13072:13203   */\n      tag_172\n      jump\t// in\n    tag_331:\n        /* \"#utility.yul\":13064:13203   */\n      swap1\n      pop\n        /* \"#utility.yul\":12791:13210   */\n      swap2\n      swap1\n      pop\n      jump\t// out\n        /* \"#utility.yul\":13216:13407   */\n    tag_98:\n        /* \"#utility.yul\":13256:13259   */\n      0x00\n        /* \"#utility.yul\":13275:13295   */\n      tag_333\n        /* \"#utility.yul\":13293:13294   */\n      dup3\n        /* \"#utility.yul\":13275:13295   */\n      tag_140\n      jump\t// in\n    tag_333:\n        /* \"#utility.yul\":13270:13295   */\n      swap2\n      pop\n        /* \"#utility.yul\":13309:13329   */\n      tag_334\n        /* \"#utility.yul\":13327:13328   */\n      dup4\n        /* \"#utility.yul\":13309:13329   */\n      tag_140\n      jump\t// in\n    tag_334:\n        /* \"#utility.yul\":13304:13329   */\n      swap3\n      pop\n        /* \"#utility.yul\":13352:13353   */\n      dup3\n        /* \"#utility.yul\":13349:13350   */\n      dup3\n        /* \"#utility.yul\":13345:13354   */\n      add\n        /* \"#utility.yul\":13338:13354   */\n      swap1\n      pop\n        /* \"#utility.yul\":13373:13376   */\n      dup1\n        /* \"#utility.yul\":13370:13371   */\n      dup3\n        /* \"#utility.yul\":13367:13377   */\n      gt\n        /* \"#utility.yul\":13364:13400   */\n      iszero\n      tag_335\n      jumpi\n        /* \"#utility.yul\":13380:13398   */\n      tag_336\n      tag_167\n      jump\t// in\n    tag_336:\n        /* \"#utility.yul\":13364:13400   */\n    tag_335:\n        /* \"#utility.yul\":13216:13407   */\n      swap3\n      swap2\n      pop\n      pop\n      jump\t// out\n        /* \"#utility.yul\":13413:13588   */\n    tag_173:\n        /* \"#utility.yul\":13553:13580   */\n      0x50726f6a65637420646561646c696e65206973206f7665722100000000000000\n        /* \"#utility.yul\":13549:13550   */\n      0x00\n        /* \"#utility.yul\":13541:13547   */\n      dup3\n        /* \"#utility.yul\":13537:13551   */\n      add\n        /* \"#utility.yul\":13530:13581   */\n      mstore\n        /* \"#utility.yul\":13413:13588   */\n      pop\n      jump\t// out\n        /* \"#utility.yul\":13594:13960   */\n    tag_174:\n        /* \"#utility.yul\":13736:13739   */\n      0x00\n        /* \"#utility.yul\":13757:13824   */\n      tag_339\n        /* \"#utility.yul\":13821:13823   */\n      0x19\n        /* \"#utility.yul\":13816:13819   */\n      dup4\n        /* \"#utility.yul\":13757:13824   */\n      tag_148\n      jump\t// in\n    tag_339:\n        /* \"#utility.yul\":13750:13824   */\n      swap2\n      pop\n        /* \"#utility.yul\":13833:13926   */\n      tag_340\n        /* \"#utility.yul\":13922:13925   */\n      dup3\n        /* \"#utility.yul\":13833:13926   */\n      tag_173\n      jump\t// in\n    tag_340:\n        /* \"#utility.yul\":13951:13953   */\n      0x20\n        /* \"#utility.yul\":13946:13949   */\n      dup3\n        /* \"#utility.yul\":13942:13954   */\n      add\n        /* \"#utility.yul\":13935:13954   */\n      swap1\n      pop\n        /* \"#utility.yul\":13594:13960   */\n      swap2\n      swap1\n      pop\n      jump\t// out\n        /* \"#utility.yul\":13966:14385   */\n    tag_102:\n        /* \"#utility.yul\":14132:14136   */\n      0x00\n        /* \"#utility.yul\":14170:14172   */\n      0x20\n        /* \"#utility.yul\":14159:14168   */\n      dup3\n        /* \"#utility.yul\":14155:14173   */\n      add\n        /* \"#utility.yul\":14147:14173   */\n      swap1\n      pop\n        /* \"#utility.yul\":14219:14228   */\n      dup2\n        /* \"#utility.yul\":14213:14217   */\n      dup2\n        /* \"#utility.yul\":14209:14229   */\n      sub\n        /* \"#utility.yul\":14205:14206   */\n      0x00\n        /* \"#utility.yul\":14194:14203   */\n      dup4\n        /* \"#utility.yul\":14190:14207   */\n      add\n        /* \"#utility.yul\":14183:14230   */\n      mstore\n        /* \"#utility.yul\":14247:14378   */\n      tag_342\n        /* \"#utility.yul\":14373:14377   */\n      dup2\n        /* \"#utility.yul\":14247:14378   */\n      tag_174\n      jump\t// in\n    tag_342:\n        /* \"#utility.yul\":14239:14378   */\n      swap1\n      pop\n        /* \"#utility.yul\":13966:14385   */\n      swap2\n      swap1\n      pop\n      jump\t// out\n        /* \"#utility.yul\":14391:14617   */\n    tag_175:\n        /* \"#utility.yul\":14531:14565   */\n      0x50726f6a6563742052656163686564206974732046756e64696e672072657175\n        /* \"#utility.yul\":14527:14528   */\n      0x00\n        /* \"#utility.yul\":14519:14525   */\n      dup3\n        /* \"#utility.yul\":14515:14529   */\n      add\n        /* \"#utility.yul\":14508:14566   */\n      mstore\n        /* \"#utility.yul\":14600:14609   */\n      0x6972656d656e7400000000000000000000000000000000000000000000000000\n        /* \"#utility.yul\":14595:14597   */\n      0x20\n        /* \"#utility.yul\":14587:14593   */\n      dup3\n        /* \"#utility.yul\":14583:14598   */\n      add\n        /* \"#utility.yul\":14576:14610   */\n      mstore\n        /* \"#utility.yul\":14391:14617   */\n      pop\n      jump\t// out\n        /* \"#utility.yul\":14623:14989   */\n    tag_176:\n        /* \"#utility.yul\":14765:14768   */\n      0x00\n        /* \"#utility.yul\":14786:14853   */\n      tag_345\n        /* \"#utility.yul\":14850:14852   */\n      0x27\n        /* \"#utility.yul\":14845:14848   */\n      dup4\n        /* \"#utility.yul\":14786:14853   */\n      tag_148\n      jump\t// in\n    tag_345:\n        /* \"#utility.yul\":14779:14853   */\n      swap2\n      pop\n        /* \"#utility.yul\":14862:14955   */\n      tag_346\n        /* \"#utility.yul\":14951:14954   */\n      dup3\n        /* \"#utility.yul\":14862:14955   */\n      tag_175\n      jump\t// in\n    tag_346:\n        /* \"#utility.yul\":14980:14982   */\n      0x40\n        /* \"#utility.yul\":14975:14978   */\n      dup3\n        /* \"#utility.yul\":14971:14983   */\n      add\n        /* \"#utility.yul\":14964:14983   */\n      swap1\n      pop\n        /* \"#utility.yul\":14623:14989   */\n      swap2\n      swap1\n      pop\n      jump\t// out\n        /* \"#utility.yul\":14995:15414   */\n    tag_105:\n        /* \"#utility.yul\":15161:15165   */\n      0x00\n        /* \"#utility.yul\":15199:15201   */\n      0x20\n        /* \"#utility.yul\":15188:15197   */\n      dup3\n        /* \"#utility.yul\":15184:15202   */\n      add\n        /* \"#utility.yul\":15176:15202   */\n      swap1\n      pop\n        /* \"#utility.yul\":15248:15257   */\n      dup2\n        /* \"#utility.yul\":15242:15246   */\n      dup2\n        /* \"#utility.yul\":15238:15258   */\n      sub\n        /* \"#utility.yul\":15234:15235   */\n      0x00\n        /* \"#utility.yul\":15223:15232   */\n      dup4\n        /* \"#utility.yul\":15219:15236   */\n      add\n        /* \"#utility.yul\":15212:15259   */\n      mstore\n        /* \"#utility.yul\":15276:15407   */\n      tag_348\n        /* \"#utility.yul\":15402:15406   */\n      dup2\n        /* \"#utility.yul\":15276:15407   */\n      tag_176\n      jump\t// in\n    tag_348:\n        /* \"#utility.yul\":15268:15407   */\n      swap1\n      pop\n        /* \"#utility.yul\":14995:15414   */\n      swap2\n      swap1\n      pop\n      jump\t// out\n        /* \"#utility.yul\":15420:15651   */\n    tag_177:\n        /* \"#utility.yul\":15560:15594   */\n      0x73656e6420736f6d6520657468657220746f20636f6e7472696275746520696e\n        /* \"#utility.yul\":15556:15557   */\n      0x00\n        /* \"#utility.yul\":15548:15554   */\n      dup3\n        /* \"#utility.yul\":15544:15558   */\n      add\n        /* \"#utility.yul\":15537:15595   */\n      mstore\n        /* \"#utility.yul\":15629:15643   */\n      0x207468652070726f6a6563740000000000000000000000000000000000000000\n        /* \"#utility.yul\":15624:15626   */\n      0x20\n        /* \"#utility.yul\":15616:15622   */\n      dup3\n        /* \"#utility.yul\":15612:15627   */\n      add\n        /* \"#utility.yul\":15605:15644   */\n      mstore\n        /* \"#utility.yul\":15420:15651   */\n      pop\n      jump\t// out\n        /* \"#utility.yul\":15657:16023   */\n    tag_178:\n        /* \"#utility.yul\":15799:15802   */\n      0x00\n        /* \"#utility.yul\":15820:15887   */\n      tag_351\n        /* \"#utility.yul\":15884:15886   */\n      0x2c\n        /* \"#utility.yul\":15879:15882   */\n      dup4\n        /* \"#utility.yul\":15820:15887   */\n      tag_148\n      jump\t// in\n    tag_351:\n        /* \"#utility.yul\":15813:15887   */\n      swap2\n      pop\n        /* \"#utility.yul\":15896:15989   */\n      tag_352\n        /* \"#utility.yul\":15985:15988   */\n      dup3\n        /* \"#utility.yul\":15896:15989   */\n      tag_177\n      jump\t// in\n    tag_352:\n        /* \"#utility.yul\":16014:16016   */\n      0x40\n        /* \"#utility.yul\":16009:16012   */\n      dup3\n        /* \"#utility.yul\":16005:16017   */\n      add\n        /* \"#utility.yul\":15998:16017   */\n      swap1\n      pop\n        /* \"#utility.yul\":15657:16023   */\n      swap2\n      swap1\n      pop\n      jump\t// out\n        /* \"#utility.yul\":16029:16448   */\n    tag_108:\n        /* \"#utility.yul\":16195:16199   */\n      0x00\n        /* \"#utility.yul\":16233:16235   */\n      0x20\n        /* \"#utility.yul\":16222:16231   */\n      dup3\n        /* \"#utility.yul\":16218:16236   */\n      add\n        /* \"#utility.yul\":16210:16236   */\n      swap1\n      pop\n        /* \"#utility.yul\":16282:16291   */\n      dup2\n        /* \"#utility.yul\":16276:16280   */\n      dup2\n        /* \"#utility.yul\":16272:16292   */\n      sub\n        /* \"#utility.yul\":16268:16269   */\n      0x00\n        /* \"#utility.yul\":16257:16266   */\n      dup4\n        /* \"#utility.yul\":16253:16270   */\n      add\n        /* \"#utility.yul\":16246:16293   */\n      mstore\n        /* \"#utility.yul\":16310:16441   */\n      tag_354\n        /* \"#utility.yul\":16436:16440   */\n      dup2\n        /* \"#utility.yul\":16310:16441   */\n      tag_178\n      jump\t// in\n    tag_354:\n        /* \"#utility.yul\":16302:16441   */\n      swap1\n      pop\n        /* \"#utility.yul\":16029:16448   */\n      swap2\n      swap1\n      pop\n      jump\t// out\n        /* \"#utility.yul\":16454:16692   */\n    tag_179:\n        /* \"#utility.yul\":16594:16628   */\n      0x66756e64696e6720676f616c20686173206e6f742072656163686564202c2061\n        /* \"#utility.yul\":16590:16591   */\n      0x00\n        /* \"#utility.yul\":16582:16588   */\n      dup3\n        /* \"#utility.yul\":16578:16592   */\n      add\n        /* \"#utility.yul\":16571:16629   */\n      mstore\n        /* \"#utility.yul\":16663:16684   */\n      0x646d696e2063616e277420776974686472617700000000000000000000000000\n        /* \"#utility.yul\":16658:16660   */\n      0x20\n        /* \"#utility.yul\":16650:16656   */\n      dup3\n        /* \"#utility.yul\":16646:16661   */\n      add\n        /* \"#utility.yul\":16639:16685   */\n      mstore\n        /* \"#utility.yul\":16454:16692   */\n      pop\n      jump\t// out\n        /* \"#utility.yul\":16698:17064   */\n    tag_180:\n        /* \"#utility.yul\":16840:16843   */\n      0x00\n        /* \"#utility.yul\":16861:16928   */\n      tag_357\n        /* \"#utility.yul\":16925:16927   */\n      0x33\n        /* \"#utility.yul\":16920:16923   */\n      dup4\n        /* \"#utility.yul\":16861:16928   */\n      tag_148\n      jump\t// in\n    tag_357:\n        /* \"#utility.yul\":16854:16928   */\n      swap2\n      pop\n        /* \"#utility.yul\":16937:17030   */\n      tag_358\n        /* \"#utility.yul\":17026:17029   */\n      dup3\n        /* \"#utility.yul\":16937:17030   */\n      tag_179\n      jump\t// in\n    tag_358:\n        /* \"#utility.yul\":17055:17057   */\n      0x40\n        /* \"#utility.yul\":17050:17053   */\n      dup3\n        /* \"#utility.yul\":17046:17058   */\n      add\n        /* \"#utility.yul\":17039:17058   */\n      swap1\n      pop\n        /* \"#utility.yul\":16698:17064   */\n      swap2\n      swap1\n      pop\n      jump\t// out\n        /* \"#utility.yul\":17070:17489   */\n    tag_116:\n        /* \"#utility.yul\":17236:17240   */\n      0x00\n        /* \"#utility.yul\":17274:17276   */\n      0x20\n        /* \"#utility.yul\":17263:17272   */\n      dup3\n        /* \"#utility.yul\":17259:17277   */\n      add\n        /* \"#utility.yul\":17251:17277   */\n      swap1\n      pop\n        /* \"#utility.yul\":17323:17332   */\n      dup2\n        /* \"#utility.yul\":17317:17321   */\n      dup2\n        /* \"#utility.yul\":17313:17333   */\n      sub\n        /* \"#utility.yul\":17309:17310   */\n      0x00\n        /* \"#utility.yul\":17298:17307   */\n      dup4\n        /* \"#utility.yul\":17294:17311   */\n      add\n        /* \"#utility.yul\":17287:17334   */\n      mstore\n        /* \"#utility.yul\":17351:17482   */\n      tag_360\n        /* \"#utility.yul\":17477:17481   */\n      dup2\n        /* \"#utility.yul\":17351:17482   */\n      tag_180\n      jump\t// in\n    tag_360:\n        /* \"#utility.yul\":17343:17482   */\n      swap1\n      pop\n        /* \"#utility.yul\":17070:17489   */\n      swap2\n      swap1\n      pop\n      jump\t// out\n        /* \"#utility.yul\":17495:17668   */\n    tag_181:\n        /* \"#utility.yul\":17635:17660   */\n      0x6f6e6c792061646d696e2063616e207769746864726177000000000000000000\n        /* \"#utility.yul\":17631:17632   */\n      0x00\n        /* \"#utility.yul\":17623:17629   */\n      dup3\n        /* \"#utility.yul\":17619:17633   */\n      add\n        /* \"#utility.yul\":17612:17661   */\n      mstore\n        /* \"#utility.yul\":17495:17668   */\n      pop\n      jump\t// out\n        /* \"#utility.yul\":17674:18040   */\n    tag_182:\n        /* \"#utility.yul\":17816:17819   */\n      0x00\n        /* \"#utility.yul\":17837:17904   */\n      tag_363\n        /* \"#utility.yul\":17901:17903   */\n      0x17\n        /* \"#utility.yul\":17896:17899   */\n      dup4\n        /* \"#utility.yul\":17837:17904   */\n      tag_148\n      jump\t// in\n    tag_363:\n        /* \"#utility.yul\":17830:17904   */\n      swap2\n      pop\n        /* \"#utility.yul\":17913:18006   */\n      tag_364\n        /* \"#utility.yul\":18002:18005   */\n      dup3\n        /* \"#utility.yul\":17913:18006   */\n      tag_181\n      jump\t// in\n    tag_364:\n        /* \"#utility.yul\":18031:18033   */\n      0x20\n        /* \"#utility.yul\":18026:18029   */\n      dup3\n        /* \"#utility.yul\":18022:18034   */\n      add\n        /* \"#utility.yul\":18015:18034   */\n      swap1\n      pop\n        /* \"#utility.yul\":17674:18040   */\n      swap2\n      swap1\n      pop\n      jump\t// out\n        /* \"#utility.yul\":18046:18465   */\n    tag_119:\n        /* \"#utility.yul\":18212:18216   */\n      0x00\n        /* \"#utility.yul\":18250:18252   */\n      0x20\n        /* \"#utility.yul\":18239:18248   */\n      dup3\n        /* \"#utility.yul\":18235:18253   */\n      add\n        /* \"#utility.yul\":18227:18253   */\n      swap1\n      pop\n        /* \"#utility.yul\":18299:18308   */\n      dup2\n        /* \"#utility.yul\":18293:18297   */\n      dup2\n        /* \"#utility.yul\":18289:18309   */\n      sub\n        /* \"#utility.yul\":18285:18286   */\n      0x00\n        /* \"#utility.yul\":18274:18283   */\n      dup4\n        /* \"#utility.yul\":18270:18287   */\n      add\n        /* \"#utility.yul\":18263:18310   */\n      mstore\n        /* \"#utility.yul\":18327:18458   */\n      tag_366\n        /* \"#utility.yul\":18453:18457   */\n      dup2\n        /* \"#utility.yul\":18327:18458   */\n      tag_182\n      jump\t// in\n    tag_366:\n        /* \"#utility.yul\":18319:18458   */\n      swap1\n      pop\n        /* \"#utility.yul\":18046:18465   */\n      swap2\n      swap1\n      pop\n      jump\t// out\n        /* \"#utility.yul\":18471:18705   */\n    tag_183:\n        /* \"#utility.yul\":18611:18645   */\n      0x646561646c696e6520686173206e6f742072656163686564202c2061646d696e\n        /* \"#utility.yul\":18607:18608   */\n      0x00\n        /* \"#utility.yul\":18599:18605   */\n      dup3\n        /* \"#utility.yul\":18595:18609   */\n      add\n        /* \"#utility.yul\":18588:18646   */\n      mstore\n        /* \"#utility.yul\":18680:18697   */\n      0x2063616e27742077697468647261770000000000000000000000000000000000\n        /* \"#utility.yul\":18675:18677   */\n      0x20\n        /* \"#utility.yul\":18667:18673   */\n      dup3\n        /* \"#utility.yul\":18663:18678   */\n      add\n        /* \"#utility.yul\":18656:18698   */\n      mstore\n        /* \"#utility.yul\":18471:18705   */\n      pop\n      jump\t// out\n        /* \"#utility.yul\":18711:19077   */\n    tag_184:\n        /* \"#utility.yul\":18853:18856   */\n      0x00\n        /* \"#utility.yul\":18874:18941   */\n      tag_369\n        /* \"#utility.yul\":18938:18940   */\n      0x2f\n        /* \"#utility.yul\":18933:18936   */\n      dup4\n        /* \"#utility.yul\":18874:18941   */\n      tag_148\n      jump\t// in\n    tag_369:\n        /* \"#utility.yul\":18867:18941   */\n      swap2\n      pop\n        /* \"#utility.yul\":18950:19043   */\n      tag_370\n        /* \"#utility.yul\":19039:19042   */\n      dup3\n        /* \"#utility.yul\":18950:19043   */\n      tag_183\n      jump\t// in\n    tag_370:\n        /* \"#utility.yul\":19068:19070   */\n      0x40\n        /* \"#utility.yul\":19063:19066   */\n      dup3\n        /* \"#utility.yul\":19059:19071   */\n      add\n        /* \"#utility.yul\":19052:19071   */\n      swap1\n      pop\n        /* \"#utility.yul\":18711:19077   */\n      swap2\n      swap1\n      pop\n      jump\t// out\n        /* \"#utility.yul\":19083:19502   */\n    tag_122:\n        /* \"#utility.yul\":19249:19253   */\n      0x00\n        /* \"#utility.yul\":19287:19289   */\n      0x20\n        /* \"#utility.yul\":19276:19285   */\n      dup3\n        /* \"#utility.yul\":19272:19290   */\n      add\n        /* \"#utility.yul\":19264:19290   */\n      swap1\n      pop\n        /* \"#utility.yul\":19336:19345   */\n      dup2\n        /* \"#utility.yul\":19330:19334   */\n      dup2\n        /* \"#utility.yul\":19326:19346   */\n      sub\n        /* \"#utility.yul\":19322:19323   */\n      0x00\n        /* \"#utility.yul\":19311:19320   */\n      dup4\n        /* \"#utility.yul\":19307:19324   */\n      add\n        /* \"#utility.yul\":19300:19347   */\n      mstore\n        /* \"#utility.yul\":19364:19495   */\n      tag_372\n        /* \"#utility.yul\":19490:19494   */\n      dup2\n        /* \"#utility.yul\":19364:19495   */\n      tag_184\n      jump\t// in\n    tag_372:\n        /* \"#utility.yul\":19356:19495   */\n      swap1\n      pop\n        /* \"#utility.yul\":19083:19502   */\n      swap2\n      swap1\n      pop\n      jump\t// out\n        /* \"#utility.yul\":19508:19687   */\n    tag_185:\n        /* \"#utility.yul\":19648:19679   */\n      0x50726f6a65637420494420697320616c726561647920696e2075736521000000\n        /* \"#utility.yul\":19644:19645   */\n      0x00\n        /* \"#utility.yul\":19636:19642   */\n      dup3\n        /* \"#utility.yul\":19632:19646   */\n      add\n        /* \"#utility.yul\":19625:19680   */\n      mstore\n        /* \"#utility.yul\":19508:19687   */\n      pop\n      jump\t// out\n        /* \"#utility.yul\":19693:20059   */\n    tag_186:\n        /* \"#utility.yul\":19835:19838   */\n      0x00\n        /* \"#utility.yul\":19856:19923   */\n      tag_375\n        /* \"#utility.yul\":19920:19922   */\n      0x1d\n        /* \"#utility.yul\":19915:19918   */\n      dup4\n        /* \"#utility.yul\":19856:19923   */\n      tag_148\n      jump\t// in\n    tag_375:\n        /* \"#utility.yul\":19849:19923   */\n      swap2\n      pop\n        /* \"#utility.yul\":19932:20025   */\n      tag_376\n        /* \"#utility.yul\":20021:20024   */\n      dup3\n        /* \"#utility.yul\":19932:20025   */\n      tag_185\n      jump\t// in\n    tag_376:\n        /* \"#utility.yul\":20050:20052   */\n      0x20\n        /* \"#utility.yul\":20045:20048   */\n      dup3\n        /* \"#utility.yul\":20041:20053   */\n      add\n        /* \"#utility.yul\":20034:20053   */\n      swap1\n      pop\n        /* \"#utility.yul\":19693:20059   */\n      swap2\n      swap1\n      pop\n      jump\t// out\n        /* \"#utility.yul\":20065:20484   */\n    tag_129:\n        /* \"#utility.yul\":20231:20235   */\n      0x00\n        /* \"#utility.yul\":20269:20271   */\n      0x20\n        /* \"#utility.yul\":20258:20267   */\n      dup3\n        /* \"#utility.yul\":20254:20272   */\n      add\n        /* \"#utility.yul\":20246:20272   */\n      swap1\n      pop\n        /* \"#utility.yul\":20318:20327   */\n      dup2\n        /* \"#utility.yul\":20312:20316   */\n      dup2\n        /* \"#utility.yul\":20308:20328   */\n      sub\n        /* \"#utility.yul\":20304:20305   */\n      0x00\n        /* \"#utility.yul\":20293:20302   */\n      dup4\n        /* \"#utility.yul\":20289:20306   */\n      add\n        /* \"#utility.yul\":20282:20329   */\n      mstore\n        /* \"#utility.yul\":20346:20477   */\n      tag_378\n        /* \"#utility.yul\":20472:20476   */\n      dup2\n        /* \"#utility.yul\":20346:20477   */\n      tag_186\n      jump\t// in\n    tag_378:\n        /* \"#utility.yul\":20338:20477   */\n      swap1\n      pop\n        /* \"#utility.yul\":20065:20484   */\n      swap2\n      swap1\n      pop\n      jump\t// out\n        /* \"#utility.yul\":20490:20631   */\n    tag_187:\n        /* \"#utility.yul\":20539:20543   */\n      0x00\n        /* \"#utility.yul\":20562:20565   */\n      dup2\n        /* \"#utility.yul\":20554:20565   */\n      swap1\n      pop\n        /* \"#utility.yul\":20585:20588   */\n      dup2\n        /* \"#utility.yul\":20582:20583   */\n      0x00\n        /* \"#utility.yul\":20575:20589   */\n      mstore\n        /* \"#utility.yul\":20619:20623   */\n      0x20\n        /* \"#utility.yul\":20616:20617   */\n      0x00\n        /* \"#utility.yul\":20606:20624   */\n      keccak256\n        /* \"#utility.yul\":20598:20624   */\n      swap1\n      pop\n        /* \"#utility.yul\":20490:20631   */\n      swap2\n      swap1\n      pop\n      jump\t// out\n        /* \"#utility.yul\":20637:20730   */\n    tag_188:\n        /* \"#utility.yul\":20674:20680   */\n      0x00\n        /* \"#utility.yul\":20721:20723   */\n      0x20\n        /* \"#utility.yul\":20716:20718   */\n      0x1f\n        /* \"#utility.yul\":20709:20714   */\n      dup4\n        /* \"#utility.yul\":20705:20719   */\n      add\n        /* \"#utility.yul\":20701:20724   */\n      div\n        /* \"#utility.yul\":20691:20724   */\n      swap1\n      pop\n        /* \"#utility.yul\":20637:20730   */\n      swap2\n      swap1\n      pop\n      jump\t// out\n        /* \"#utility.yul\":20736:20843   */\n    tag_189:\n        /* \"#utility.yul\":20780:20788   */\n      0x00\n        /* \"#utility.yul\":20830:20835   */\n      dup3\n        /* \"#utility.yul\":20824:20828   */\n      dup3\n        /* \"#utility.yul\":20820:20836   */\n      shl\n        /* \"#utility.yul\":20799:20836   */\n      swap1\n      pop\n        /* \"#utility.yul\":20736:20843   */\n      swap3\n      swap2\n      pop\n      pop\n      jump\t// out\n        /* \"#utility.yul\":20849:21242   */\n    tag_190:\n        /* \"#utility.yul\":20918:20924   */\n      0x00\n        /* \"#utility.yul\":20968:20969   */\n      0x08\n        /* \"#utility.yul\":20956:20966   */\n      dup4\n        /* \"#utility.yul\":20952:20970   */\n      mul\n        /* \"#utility.yul\":20991:21088   */\n      tag_383\n        /* \"#utility.yul\":21021:21087   */\n      0xffffffffffffffffffffffffffffffffffffffffffffffffffffffffffffffff\n        /* \"#utility.yul\":21010:21019   */\n      dup3\n        /* \"#utility.yul\":20991:21088   */\n      tag_189\n      jump\t// in\n    tag_383:\n        /* \"#utility.yul\":21109:21148   */\n      tag_384\n        /* \"#utility.yul\":21139:21147   */\n      dup7\n        /* \"#utility.yul\":21128:21137   */\n      dup4\n        /* \"#utility.yul\":21109:21148   */\n      tag_189\n      jump\t// in\n    tag_384:\n        /* \"#utility.yul\":21097:21148   */\n      swap6\n      pop\n        /* \"#utility.yul\":21181:21185   */\n      dup1\n        /* \"#utility.yul\":21177:21186   */\n      not\n        /* \"#utility.yul\":21170:21175   */\n      dup5\n        /* \"#utility.yul\":21166:21187   */\n      and\n        /* \"#utility.yul\":21157:21187   */\n      swap4\n      pop\n        /* \"#utility.yul\":21230:21234   */\n      dup1\n        /* \"#utility.yul\":21220:21228   */\n      dup7\n        /* \"#utility.yul\":21216:21235   */\n      and\n        /* \"#utility.yul\":21209:21214   */\n      dup5\n        /* \"#utility.yul\":21206:21236   */\n      or\n        /* \"#utility.yul\":21196:21236   */\n      swap3\n      pop\n        /* \"#utility.yul\":20925:21242   */\n      pop\n      pop\n        /* \"#utility.yul\":20849:21242   */\n      swap4\n      swap3\n      pop\n      pop\n      pop\n      jump\t// out\n        /* \"#utility.yul\":21248:21308   */\n    tag_191:\n        /* \"#utility.yul\":21276:21279   */\n      0x00\n        /* \"#utility.yul\":21297:21302   */\n      dup2\n        /* \"#utility.yul\":21290:21302   */\n      swap1\n      pop\n        /* \"#utility.yul\":21248:21308   */\n      swap2\n      swap1\n      pop\n      jump\t// out\n        /* \"#utility.yul\":21314:21456   */\n    tag_192:\n        /* \"#utility.yul\":21364:21373   */\n      0x00\n        /* \"#utility.yul\":21397:21450   */\n      tag_387\n        /* \"#utility.yul\":21415:21449   */\n      tag_388\n        /* \"#utility.yul\":21424:21448   */\n      tag_389\n        /* \"#utility.yul\":21442:21447   */\n      dup5\n        /* \"#utility.yul\":21424:21448   */\n      tag_140\n      jump\t// in\n    tag_389:\n        /* \"#utility.yul\":21415:21449   */\n      tag_191\n      jump\t// in\n    tag_388:\n        /* \"#utility.yul\":21397:21450   */\n      tag_140\n      jump\t// in\n    tag_387:\n        /* \"#utility.yul\":21384:21450   */\n      swap1\n      pop\n        /* \"#utility.yul\":21314:21456   */\n      swap2\n      swap1\n      pop\n      jump\t// out\n        /* \"#utility.yul\":21462:21537   */\n    tag_193:\n        /* \"#utility.yul\":21505:21508   */\n      0x00\n        /* \"#utility.yul\":21526:21531   */\n      dup2\n        /* \"#utility.yul\":21519:21531   */\n      swap1\n      pop\n        /* \"#utility.yul\":21462:21537   */\n      swap2\n      swap1\n      pop\n      jump\t// out\n        /* \"#utility.yul\":21543:21812   */\n    tag_194:\n        /* \"#utility.yul\":21653:21692   */\n      tag_392\n        /* \"#utility.yul\":21684:21691   */\n      dup4\n        /* \"#utility.yul\":21653:21692   */\n      tag_192\n      jump\t// in\n    tag_392:\n        /* \"#utility.yul\":21714:21805   */\n      tag_393\n        /* \"#utility.yul\":21763:21804   */\n      tag_394\n        /* \"#utility.yul\":21787:21803   */\n      dup3\n        /* \"#utility.yul\":21763:21804   */\n      tag_193\n      jump\t// in\n    tag_394:\n        /* \"#utility.yul\":21755:21761   */\n      dup5\n        /* \"#utility.yul\":21748:21752   */\n      dup5\n        /* \"#utility.yul\":21742:21753   */\n      sload\n        /* \"#utility.yul\":21714:21805   */\n      tag_190\n      jump\t// in\n    tag_393:\n        /* \"#utility.yul\":21708:21712   */\n      dup3\n        /* \"#utility.yul\":21701:21806   */\n      sstore\n        /* \"#utility.yul\":21619:21812   */\n      pop\n        /* \"#utility.yul\":21543:21812   */\n      pop\n      pop\n      pop\n      jump\t// out\n        /* \"#utility.yul\":21818:21891   */\n    tag_195:\n        /* \"#utility.yul\":21863:21866   */\n      0x00\n        /* \"#utility.yul\":21884:21885   */\n      0x00\n        /* \"#utility.yul\":21877:21885   */\n      swap1\n      pop\n        /* \"#utility.yul\":21818:21891   */\n      swap1\n      jump\t// out\n        /* \"#utility.yul\":21897:22086   */\n    tag_196:\n        /* \"#utility.yul\":21974:22006   */\n      tag_397\n      tag_195\n      jump\t// in\n    tag_397:\n        /* \"#utility.yul\":22015:22080   */\n      tag_398\n        /* \"#utility.yul\":22073:22079   */\n      dup2\n        /* \"#utility.yul\":22065:22071   */\n      dup5\n        /* \"#utility.yul\":22059:22063   */\n      dup5\n        /* \"#utility.yul\":22015:22080   */\n      tag_194\n      jump\t// in\n    tag_398:\n        /* \"#utility.yul\":21950:22086   */\n      pop\n        /* \"#utility.yul\":21897:22086   */\n      pop\n      pop\n      jump\t// out\n        /* \"#utility.yul\":22092:22278   */\n    tag_197:\n        /* \"#utility.yul\":22152:22272   */\n    tag_400:\n        /* \"#utility.yul\":22169:22172   */\n      dup2\n        /* \"#utility.yul\":22162:22167   */\n      dup2\n        /* \"#utility.yul\":22159:22173   */\n      lt\n        /* \"#utility.yul\":22152:22272   */\n      iszero\n      tag_402\n      jumpi\n        /* \"#utility.yul\":22223:22262   */\n      tag_403\n        /* \"#utility.yul\":22260:22261   */\n      0x00\n        /* \"#utility.yul\":22253:22258   */\n      dup3\n        /* \"#utility.yul\":22223:22262   */\n      tag_196\n      jump\t// in\n    tag_403:\n        /* \"#utility.yul\":22196:22197   */\n      0x01\n        /* \"#utility.yul\":22189:22194   */\n      dup2\n        /* \"#utility.yul\":22185:22198   */\n      add\n        /* \"#utility.yul\":22176:22198   */\n      swap1\n      pop\n        /* \"#utility.yul\":22152:22272   */\n      jump(tag_400)\n    tag_402:\n        /* \"#utility.yul\":22092:22278   */\n      pop\n      pop\n      jump\t// out\n        /* \"#utility.yul\":22284:22827   */\n    tag_198:\n        /* \"#utility.yul\":22385:22387   */\n      0x1f\n        /* \"#utility.yul\":22380:22383   */\n      dup3\n        /* \"#utility.yul\":22377:22388   */\n      gt\n        /* \"#utility.yul\":22374:22820   */\n      iszero\n      tag_405\n      jumpi\n        /* \"#utility.yul\":22419:22457   */\n      tag_406\n        /* \"#utility.yul\":22451:22456   */\n      dup2\n        /* \"#utility.yul\":22419:22457   */\n      tag_187\n      jump\t// in\n    tag_406:\n        /* \"#utility.yul\":22503:22532   */\n      tag_407\n        /* \"#utility.yul\":22521:22531   */\n      dup5\n        /* \"#utility.yul\":22503:22532   */\n      tag_188\n      jump\t// in\n    tag_407:\n        /* \"#utility.yul\":22493:22501   */\n      dup2\n        /* \"#utility.yul\":22489:22533   */\n      add\n        /* \"#utility.yul\":22686:22688   */\n      0x20\n        /* \"#utility.yul\":22674:22684   */\n      dup6\n        /* \"#utility.yul\":22671:22689   */\n      lt\n        /* \"#utility.yul\":22668:22717   */\n      iszero\n      tag_408\n      jumpi\n        /* \"#utility.yul\":22707:22715   */\n      dup2\n        /* \"#utility.yul\":22692:22715   */\n      swap1\n      pop\n        /* \"#utility.yul\":22668:22717   */\n    tag_408:\n        /* \"#utility.yul\":22730:22810   */\n      tag_409\n        /* \"#utility.yul\":22786:22808   */\n      tag_410\n        /* \"#utility.yul\":22804:22807   */\n      dup6\n        /* \"#utility.yul\":22786:22808   */\n      tag_188\n      jump\t// in\n    tag_410:\n        /* \"#utility.yul\":22776:22784   */\n      dup4\n        /* \"#utility.yul\":22772:22809   */\n      add\n        /* \"#utility.yul\":22759:22770   */\n      dup3\n        /* \"#utility.yul\":22730:22810   */\n      tag_197\n      jump\t// in\n    tag_409:\n        /* \"#utility.yul\":22389:22820   */\n      pop\n      pop\n        /* \"#utility.yul\":22374:22820   */\n    tag_405:\n        /* \"#utility.yul\":22284:22827   */\n      pop\n      pop\n      pop\n      jump\t// out\n        /* \"#utility.yul\":22833:22950   */\n    tag_199:\n        /* \"#utility.yul\":22887:22895   */\n      0x00\n        /* \"#utility.yul\":22937:22942   */\n      dup3\n        /* \"#utility.yul\":22931:22935   */\n      dup3\n        /* \"#utility.yul\":22927:22943   */\n      shr\n        /* \"#utility.yul\":22906:22943   */\n      swap1\n      pop\n        /* \"#utility.yul\":22833:22950   */\n      swap3\n      swap2\n      pop\n      pop\n      jump\t// out\n        /* \"#utility.yul\":22956:23125   */\n    tag_200:\n        /* \"#utility.yul\":23000:23006   */\n      0x00\n        /* \"#utility.yul\":23033:23084   */\n      tag_413\n        /* \"#utility.yul\":23081:23082   */\n      0x00\n        /* \"#utility.yul\":23077:23083   */\n      not\n        /* \"#utility.yul\":23069:23074   */\n      dup5\n        /* \"#utility.yul\":23066:23067   */\n      0x08\n        /* \"#utility.yul\":23062:23075   */\n      mul\n        /* \"#utility.yul\":23033:23084   */\n      tag_199\n      jump\t// in\n    tag_413:\n        /* \"#utility.yul\":23029:23085   */\n      not\n        /* \"#utility.yul\":23114:23118   */\n      dup1\n        /* \"#utility.yul\":23108:23112   */\n      dup4\n        /* \"#utility.yul\":23104:23119   */\n      and\n        /* \"#utility.yul\":23094:23119   */\n      swap2\n      pop\n        /* \"#utility.yul\":23007:23125   */\n      pop\n        /* \"#utility.yul\":22956:23125   */\n      swap3\n      swap2\n      pop\n      pop\n      jump\t// out\n        /* \"#utility.yul\":23130:23425   */\n    tag_201:\n        /* \"#utility.yul\":23206:23210   */\n      0x00\n        /* \"#utility.yul\":23352:23381   */\n      tag_415\n        /* \"#utility.yul\":23377:23380   */\n      dup4\n        /* \"#utility.yul\":23371:23375   */\n      dup4\n        /* \"#utility.yul\":23352:23381   */\n      tag_200\n      jump\t// in\n    tag_415:\n        /* \"#utility.yul\":23344:23381   */\n      swap2\n      pop\n        /* \"#utility.yul\":23414:23417   */\n      dup3\n        /* \"#utility.yul\":23411:23412   */\n      0x02\n        /* \"#utility.yul\":23407:23418   */\n      mul\n        /* \"#utility.yul\":23401:23405   */\n      dup3\n        /* \"#utility.yul\":23398:23419   */\n      or\n        /* \"#utility.yul\":23390:23419   */\n      swap1\n      pop\n        /* \"#utility.yul\":23130:23425   */\n      swap3\n      swap2\n      pop\n      pop\n      jump\t// out\n        /* \"#utility.yul\":23430:24825   */\n    tag_132:\n        /* \"#utility.yul\":23547:23584   */\n      tag_417\n        /* \"#utility.yul\":23580:23583   */\n      dup3\n        /* \"#utility.yul\":23547:23584   */\n      tag_147\n      jump\t// in\n    tag_417:\n        /* \"#utility.yul\":23649:23667   */\n      0xffffffffffffffff\n        /* \"#utility.yul\":23641:23647   */\n      dup2\n        /* \"#utility.yul\":23638:23668   */\n      gt\n        /* \"#utility.yul\":23635:23691   */\n      iszero\n      tag_418\n      jumpi\n        /* \"#utility.yul\":23671:23689   */\n      tag_419\n      tag_158\n      jump\t// in\n    tag_419:\n        /* \"#utility.yul\":23635:23691   */\n    tag_418:\n        /* \"#utility.yul\":23715:23753   */\n      tag_420\n        /* \"#utility.yul\":23747:23751   */\n      dup3\n        /* \"#utility.yul\":23741:23752   */\n      sload\n        /* \"#utility.yul\":23715:23753   */\n      tag_70\n      jump\t// in\n    tag_420:\n        /* \"#utility.yul\":23800:23867   */\n      tag_421\n        /* \"#utility.yul\":23860:23866   */\n      dup3\n        /* \"#utility.yul\":23852:23858   */\n      dup3\n        /* \"#utility.yul\":23846:23850   */\n      dup6\n        /* \"#utility.yul\":23800:23867   */\n      tag_198\n      jump\t// in\n    tag_421:\n        /* \"#utility.yul\":23894:23895   */\n      0x00\n        /* \"#utility.yul\":23918:23922   */\n      0x20\n        /* \"#utility.yul\":23905:23922   */\n      swap1\n      pop\n        /* \"#utility.yul\":23950:23952   */\n      0x1f\n        /* \"#utility.yul\":23942:23948   */\n      dup4\n        /* \"#utility.yul\":23939:23953   */\n      gt\n        /* \"#utility.yul\":23967:23968   */\n      0x01\n        /* \"#utility.yul\":23962:24580   */\n      dup2\n      eq\n      tag_423\n      jumpi\n        /* \"#utility.yul\":24624:24625   */\n      0x00\n        /* \"#utility.yul\":24641:24647   */\n      dup5\n        /* \"#utility.yul\":24638:24715   */\n      iszero\n      tag_424\n      jumpi\n        /* \"#utility.yul\":24690:24699   */\n      dup3\n        /* \"#utility.yul\":24685:24688   */\n      dup8\n        /* \"#utility.yul\":24681:24700   */\n      add\n        /* \"#utility.yul\":24675:24701   */\n      mload\n        /* \"#utility.yul\":24666:24701   */\n      swap1\n      pop\n        /* \"#utility.yul\":24638:24715   */\n    tag_424:\n        /* \"#utility.yul\":24741:24808   */\n      tag_425\n        /* \"#utility.yul\":24801:24807   */\n      dup6\n        /* \"#utility.yul\":24794:24799   */\n      dup3\n        /* \"#utility.yul\":24741:24808   */\n      tag_201\n      jump\t// in\n    tag_425:\n        /* \"#utility.yul\":24735:24739   */\n      dup7\n        /* \"#utility.yul\":24728:24809   */\n      sstore\n        /* \"#utility.yul\":24597:24819   */\n      pop\n        /* \"#utility.yul\":23932:24819   */\n      jump(tag_422)\n        /* \"#utility.yul\":23962:24580   */\n    tag_423:\n        /* \"#utility.yul\":24014:24018   */\n      0x1f\n        /* \"#utility.yul\":24010:24019   */\n      not\n        /* \"#utility.yul\":24002:24008   */\n      dup5\n        /* \"#utility.yul\":23998:24020   */\n      and\n        /* \"#utility.yul\":24048:24085   */\n      tag_426\n        /* \"#utility.yul\":24080:24084   */\n      dup7\n        /* \"#utility.yul\":24048:24085   */\n      tag_187\n      jump\t// in\n    tag_426:\n        /* \"#utility.yul\":24107:24108   */\n      0x00\n        /* \"#utility.yul\":24121:24329   */\n    tag_427:\n        /* \"#utility.yul\":24135:24142   */\n      dup3\n        /* \"#utility.yul\":24132:24133   */\n      dup2\n        /* \"#utility.yul\":24129:24143   */\n      lt\n        /* \"#utility.yul\":24121:24329   */\n      iszero\n      tag_429\n      jumpi\n        /* \"#utility.yul\":24214:24223   */\n      dup5\n        /* \"#utility.yul\":24209:24212   */\n      dup10\n        /* \"#utility.yul\":24205:24224   */\n      add\n        /* \"#utility.yul\":24199:24225   */\n      mload\n        /* \"#utility.yul\":24191:24197   */\n      dup3\n        /* \"#utility.yul\":24184:24226   */\n      sstore\n        /* \"#utility.yul\":24265:24266   */\n      0x01\n        /* \"#utility.yul\":24257:24263   */\n      dup3\n        /* \"#utility.yul\":24253:24267   */\n      add\n        /* \"#utility.yul\":24243:24267   */\n      swap2\n      pop\n        /* \"#utility.yul\":24312:24314   */\n      0x20\n        /* \"#utility.yul\":24301:24310   */\n      dup6\n        /* \"#utility.yul\":24297:24315   */\n      add\n        /* \"#utility.yul\":24284:24315   */\n      swap5\n      pop\n        /* \"#utility.yul\":24158:24162   */\n      0x20\n        /* \"#utility.yul\":24155:24156   */\n      dup2\n        /* \"#utility.yul\":24151:24163   */\n      add\n        /* \"#utility.yul\":24146:24163   */\n      swap1\n      pop\n        /* \"#utility.yul\":24121:24329   */\n      jump(tag_427)\n    tag_429:\n        /* \"#utility.yul\":24357:24363   */\n      dup7\n        /* \"#utility.yul\":24348:24355   */\n      dup4\n        /* \"#utility.yul\":24345:24364   */\n      lt\n        /* \"#utility.yul\":24342:24521   */\n      iszero\n      tag_430\n      jumpi\n        /* \"#utility.yul\":24415:24424   */\n      dup5\n        /* \"#utility.yul\":24410:24413   */\n      dup10\n        /* \"#utility.yul\":24406:24425   */\n      add\n        /* \"#utility.yul\":24400:24426   */\n      mload\n        /* \"#utility.yul\":24458:24506   */\n      tag_431\n        /* \"#utility.yul\":24500:24504   */\n      0x1f\n        /* \"#utility.yul\":24492:24498   */\n      dup10\n        /* \"#utility.yul\":24488:24505   */\n      and\n        /* \"#utility.yul\":24477:24486   */\n      dup3\n        /* \"#utility.yul\":24458:24506   */\n      tag_200\n      jump\t// in\n    tag_431:\n        /* \"#utility.yul\":24450:24456   */\n      dup4\n        /* \"#utility.yul\":24443:24507   */\n      sstore\n        /* \"#utility.yul\":24365:24521   */\n      pop\n        /* \"#utility.yul\":24342:24521   */\n    tag_430:\n        /* \"#utility.yul\":24567:24568   */\n      0x01\n        /* \"#utility.yul\":24563:24564   */\n      0x02\n        /* \"#utility.yul\":24555:24561   */\n      dup9\n        /* \"#utility.yul\":24551:24565   */\n      mul\n        /* \"#utility.yul\":24547:24569   */\n      add\n        /* \"#utility.yul\":24541:24545   */\n      dup9\n        /* \"#utility.yul\":24534:24570   */\n      sstore\n        /* \"#utility.yul\":23969:24580   */\n      pop\n      pop\n      pop\n        /* \"#utility.yul\":23932:24819   */\n    tag_422:\n      pop\n        /* \"#utility.yul\":23522:24825   */\n      pop\n      pop\n      pop\n        /* \"#utility.yul\":23430:24825   */\n      pop\n      pop\n      jump\t// out\n        /* \"#utility.yul\":24831:25566   */\n    tag_136:\n        /* \"#utility.yul\":25048:25052   */\n      0x00\n        /* \"#utility.yul\":25086:25089   */\n      0x80\n        /* \"#utility.yul\":25075:25084   */\n      dup3\n        /* \"#utility.yul\":25071:25090   */\n      add\n        /* \"#utility.yul\":25063:25090   */\n      swap1\n      pop\n        /* \"#utility.yul\":25136:25145   */\n      dup2\n        /* \"#utility.yul\":25130:25134   */\n      dup2\n        /* \"#utility.yul\":25126:25146   */\n      sub\n        /* \"#utility.yul\":25122:25123   */\n      0x00\n        /* \"#utility.yul\":25111:25120   */\n      dup4\n        /* \"#utility.yul\":25107:25124   */\n      add\n        /* \"#utility.yul\":25100:25147   */\n      mstore\n        /* \"#utility.yul\":25164:25242   */\n      tag_433\n        /* \"#utility.yul\":25237:25241   */\n      dup2\n        /* \"#utility.yul\":25228:25234   */\n      dup8\n        /* \"#utility.yul\":25164:25242   */\n      tag_151\n      jump\t// in\n    tag_433:\n        /* \"#utility.yul\":25156:25242   */\n      swap1\n      pop\n        /* \"#utility.yul\":25289:25298   */\n      dup2\n        /* \"#utility.yul\":25283:25287   */\n      dup2\n        /* \"#utility.yul\":25279:25299   */\n      sub\n        /* \"#utility.yul\":25274:25276   */\n      0x20\n        /* \"#utility.yul\":25263:25272   */\n      dup4\n        /* \"#utility.yul\":25259:25277   */\n      add\n        /* \"#utility.yul\":25252:25300   */\n      mstore\n        /* \"#utility.yul\":25317:25395   */\n      tag_434\n        /* \"#utility.yul\":25390:25394   */\n      dup2\n        /* \"#utility.yul\":25381:25387   */\n      dup7\n        /* \"#utility.yul\":25317:25395   */\n      tag_151\n      jump\t// in\n    tag_434:\n        /* \"#utility.yul\":25309:25395   */\n      swap1\n      pop\n        /* \"#utility.yul\":25405:25477   */\n      tag_435\n        /* \"#utility.yul\":25473:25475   */\n      0x40\n        /* \"#utility.yul\":25462:25471   */\n      dup4\n        /* \"#utility.yul\":25458:25476   */\n      add\n        /* \"#utility.yul\":25449:25455   */\n      dup6\n        /* \"#utility.yul\":25405:25477   */\n      tag_143\n      jump\t// in\n    tag_435:\n        /* \"#utility.yul\":25487:25559   */\n      tag_436\n        /* \"#utility.yul\":25555:25557   */\n      0x60\n        /* \"#utility.yul\":25544:25553   */\n      dup4\n        /* \"#utility.yul\":25540:25558   */\n      add\n        /* \"#utility.yul\":25531:25537   */\n      dup5\n        /* \"#utility.yul\":25487:25559   */\n      tag_143\n      jump\t// in\n    tag_436:\n        /* \"#utility.yul\":24831:25566   */\n      swap6\n      swap5\n      pop\n      pop\n      pop\n      pop\n      pop\n      jump\t// out\n\n    auxdata: 0xa26469706673582212207da5347f7959c9472b9fd418298d2ef90f686ca1285e97ed53b16fbb11fae50464736f6c634300081e0033\n}\n",
				"bytecode": {
					"linkReferences": {},
					"object": "6080604052348015600e575f5ffd5b50611a5c8061001c5f395ff3fe608060405260043610610090575f3560e01c80635d4e5d78116100585780635d4e5d7814610195578063629b2647146101d15780636c563abe146101f957806371eb89f314610215578063f81bf6011461023157610090565b80630dbac1351461009457806321b2416c146100d1578063370c36b4146101135780633b9056bf1461014f57806354a5bcc51461016b575b5f5ffd5b34801561009f575f5ffd5b506100ba60048036038101906100b59190610cf6565b610259565b6040516100c8929190610d30565b60405180910390f35b3480156100dc575f5ffd5b506100f760048036038101906100f29190610cf6565b61033a565b60405161010a9796959493929190610e20565b60405180910390f35b34801561011e575f5ffd5b5061013960048036038101906101349190610cf6565b6104af565b6040516101469190610e9b565b60405180910390f35b61016960048036038101906101649190610cf6565b6104f1565b005b348015610176575f5ffd5b5061017f610622565b60405161018c9190610e9b565b60405180910390f35b3480156101a0575f5ffd5b506101bb60048036038101906101b69190610ede565b61062a565b6040516101c89190610e9b565b60405180910390f35b3480156101dc575f5ffd5b506101f760048036038101906101f29190610f1c565b61064a565b005b610213600480360381019061020e9190610cf6565b61070d565b005b61022f600480360381019061022a9190610cf6565b6108e7565b005b34801561023c575f5ffd5b5061025760048036038101906102529190611086565b610aad565b005b5f5f5f60015f8581526020019081526020015f209050806003015492505f73ffffffffffffffffffffffffffffffffffffffff16815f015f9054906101000a900473ffffffffffffffffffffffffffffffffffffffff1673ffffffffffffffffffffffffffffffffffffffff1603610306576040517f08c379a00000000000000000000000000000000000000000000000000000000081526004016102fd906111a5565b60405180910390fd5b806003015481600501541061031d575f9150610334565b8060050154816003015461033191906111f0565b91505b50915091565b6001602052805f5260405f205f91509050805f015f9054906101000a900473ffffffffffffffffffffffffffffffffffffffff169080600101805461037e90611250565b80601f01602080910402602001604051908101604052809291908181526020018280546103aa90611250565b80156103f55780601f106103cc576101008083540402835291602001916103f5565b820191905f5260205f20905b8154815290600101906020018083116103d857829003601f168201915b50505050509080600201805461040a90611250565b80601f016020809104026020016040519081016040528092919081815260200182805461043690611250565b80156104815780601f1061045857610100808354040283529160200191610481565b820191905f5260205f20905b81548152906001019060200180831161046457829003601f168201915b505050505090806003015490806004015490806005015490806006015f9054906101000a900460ff16905087565b5f5f60015f8481526020019081526020015f209050806004015442106104d8575f9150506104ec565b4281600401546104e891906111f0565b9150505b919050565b5f60015f8381526020019081526020015f209050806003015481600501541061054f576040517f08c379a0000000000000000000000000000000000000000000000000000000008152600401610546906112f0565b60405180910390fd5b5f60025f8481526020019081526020015f205f3373ffffffffffffffffffffffffffffffffffffffff1673ffffffffffffffffffffffffffffffffffffffff1681526020019081526020015f205490503373ffffffffffffffffffffffffffffffffffffffff166108fc8290811502906040515f60405180830381858888f193505050501580156105e2573d5f5f3e3d5ffd5b50827fb6e4e293b6c7c5cf68fbb52edfaca6173710fcccbcecac03c32e62327fc000c6333460405161061592919061130e565b60405180910390a2505050565b5f5f54905090565b6002602052815f5260405f20602052805f5260405f205f91509150505481565b5f60015f8481526020019081526020015f2090503373ffffffffffffffffffffffffffffffffffffffff16815f015f9054906101000a900473ffffffffffffffffffffffffffffffffffffffff1673ffffffffffffffffffffffffffffffffffffffff16146106ee576040517f08c379a00000000000000000000000000000000000000000000000000000000081526004016106e5906113a5565b60405180910390fd5b81816004015f82825461070191906113c3565b92505081905550505050565b5f60015f8381526020019081526020015f2090508060040154421115610768576040517f08c379a000000000000000000000000000000000000000000000000000000000815260040161075f90611440565b60405180910390fd5b806006015f9054906101000a900460ff16156107b9576040517f08c379a00000000000000000000000000000000000000000000000000000000081526004016107b0906114ce565b60405180910390fd5b5f34116107fb576040517f08c379a00000000000000000000000000000000000000000000000000000000081526004016107f29061155c565b60405180910390fd5b34816005015f82825461080e91906113c3565b925050819055503460025f8481526020019081526020015f205f3373ffffffffffffffffffffffffffffffffffffffff1673ffffffffffffffffffffffffffffffffffffffff1681526020019081526020015f2081905550345f5f82825461087691906113c3565b92505081905550817ff234fc17e03e9c3501c842e35414fd219e9e8bc572c4632ef54db1493e3afaf433346040516108af92919061130e565b60405180910390a280600301548160050154106108e3576001816006015f6101000a81548160ff0219169083151502179055505b5050565b5f60015f8381526020019081526020015f2090505f81600501549050816006015f9054906101000a900460ff16610953576040517f08c379a000000000000000000000000000000000000000000000000000000000815260040161094a906115ea565b60405180910390fd5b3373ffffffffffffffffffffffffffffffffffffffff16825f015f9054906101000a900473ffffffffffffffffffffffffffffffffffffffff1673ffffffffffffffffffffffffffffffffffffffff16146109e3576040517f08c379a00000000000000000000000000000000000000000000000000000000081526004016109da90611652565b60405180910390fd5b4282600401541115610a2a576040517f08c379a0000000000000000000000000000000000000000000000000000000008152600401610a21906116e0565b60405180910390fd5b3373ffffffffffffffffffffffffffffffffffffffff166108fc8290811502906040515f60405180830381858888f19350505050158015610a6d573d5f5f3e3d5ffd5b50827fcae030e1a3c6b0011e7009bd65734e2e1e330528f6983497631fabd47fa7a2813334604051610aa092919061130e565b60405180910390a2505050565b60035f8281526020019081526020015f205f9054906101000a900460ff1615610b0b576040517f08c379a0000000000000000000000000000000000000000000000000000000008152600401610b0290611748565b60405180910390fd5b600160035f8381526020019081526020015f205f6101000a81548160ff0219169083151502179055506040518060e001604052803373ffffffffffffffffffffffffffffffffffffffff1681526020018681526020018581526020018481526020018342610b7991906113c3565b81526020015f81526020015f151581525060015f8381526020019081526020015f205f820151815f015f6101000a81548173ffffffffffffffffffffffffffffffffffffffff021916908373ffffffffffffffffffffffffffffffffffffffff1602179055506020820151816001019081610bf49190611906565b506040820151816002019081610c0a9190611906565b50606082015181600301556080820151816004015560a0820151816005015560c0820151816006015f6101000a81548160ff0219169083151502179055509050503373ffffffffffffffffffffffffffffffffffffffff16817fac9b83534845c9e785a6ea70f2d809db1d72ef9a1d981753712d922f5cb55f398787878742610c9391906113c3565b604051610ca394939291906119d5565b60405180910390a35050505050565b5f604051905090565b5f5ffd5b5f5ffd5b5f819050919050565b610cd581610cc3565b8114610cdf575f5ffd5b50565b5f81359050610cf081610ccc565b92915050565b5f60208284031215610d0b57610d0a610cbb565b5b5f610d1884828501610ce2565b91505092915050565b610d2a81610cc3565b82525050565b5f604082019050610d435f830185610d21565b610d506020830184610d21565b9392505050565b5f73ffffffffffffffffffffffffffffffffffffffff82169050919050565b5f610d8082610d57565b9050919050565b610d9081610d76565b82525050565b5f81519050919050565b5f82825260208201905092915050565b8281835e5f83830152505050565b5f601f19601f8301169050919050565b5f610dd882610d96565b610de28185610da0565b9350610df2818560208601610db0565b610dfb81610dbe565b840191505092915050565b5f8115159050919050565b610e1a81610e06565b82525050565b5f60e082019050610e335f83018a610d87565b8181036020830152610e458189610dce565b90508181036040830152610e598188610dce565b9050610e686060830187610d21565b610e756080830186610d21565b610e8260a0830185610d21565b610e8f60c0830184610e11565b98975050505050505050565b5f602082019050610eae5f830184610d21565b92915050565b610ebd81610d76565b8114610ec7575f5ffd5b50565b5f81359050610ed881610eb4565b92915050565b5f5f60408385031215610ef457610ef3610cbb565b5b5f610f0185828601610ce2565b9250506020610f1285828601610eca565b9150509250929050565b5f5f60408385031215610f3257610f31610cbb565b5b5f610f3f85828601610ce2565b9250506020610f5085828601610ce2565b9150509250929050565b5f5ffd5b5f5ffd5b7f4e487b71000000000000000000000000000000000000000000000000000000005f52604160045260245ffd5b610f9882610dbe565b810181811067ffffffffffffffff82111715610fb757610fb6610f62565b5b80604052505050565b5f610fc9610cb2565b9050610fd58282610f8f565b919050565b5f67ffffffffffffffff821115610ff457610ff3610f62565b5b610ffd82610dbe565b9050602081019050919050565b828183375f83830152505050565b5f61102a61102584610fda565b610fc0565b90508281526020810184848401111561104657611045610f5e565b5b61105184828561100a565b509392505050565b5f82601f83011261106d5761106c610f5a565b5b813561107d848260208601611018565b91505092915050565b5f5f5f5f5f60a0868803121561109f5761109e610cbb565b5b5f86013567ffffffffffffffff8111156110bc576110bb610cbf565b5b6110c888828901611059565b955050602086013567ffffffffffffffff8111156110e9576110e8610cbf565b5b6110f588828901611059565b945050604061110688828901610ce2565b935050606061111788828901610ce2565b925050608061112888828901610ce2565b9150509295509295909350565b7f70726f6a65637420686173206e6f74206265656e2063726561746564207965745f8201527f2100000000000000000000000000000000000000000000000000000000000000602082015250565b5f61118f602183610da0565b915061119a82611135565b604082019050919050565b5f6020820190508181035f8301526111bc81611183565b9050919050565b7f4e487b71000000000000000000000000000000000000000000000000000000005f52601160045260245ffd5b5f6111fa82610cc3565b915061120583610cc3565b925082820390508181111561121d5761121c6111c3565b5b92915050565b7f4e487b71000000000000000000000000000000000000000000000000000000005f52602260045260245ffd5b5f600282049050600182168061126757607f821691505b60208210810361127a57611279611223565b5b50919050565b7f46756e64696e6720676f616c206861732072656163686564202c2075736572205f8201527f63616e2774207769746864726177000000000000000000000000000000000000602082015250565b5f6112da602e83610da0565b91506112e582611280565b604082019050919050565b5f6020820190508181035f830152611307816112ce565b9050919050565b5f6040820190506113215f830185610d87565b61132e6020830184610d21565b9392505050565b7f4f6e6c792050726f6a6563742063726561746f722063616e20657874656e64205f8201527f74686520646561646c696e652121000000000000000000000000000000000000602082015250565b5f61138f602e83610da0565b915061139a82611335565b604082019050919050565b5f6020820190508181035f8301526113bc81611383565b9050919050565b5f6113cd82610cc3565b91506113d883610cc3565b92508282019050808211156113f0576113ef6111c3565b5b92915050565b7f50726f6a65637420646561646c696e65206973206f76657221000000000000005f82015250565b5f61142a601983610da0565b9150611435826113f6565b602082019050919050565b5f6020820190508181035f8301526114578161141e565b9050919050565b7f50726f6a6563742052656163686564206974732046756e64696e6720726571755f8201527f6972656d656e7400000000000000000000000000000000000000000000000000602082015250565b5f6114b8602783610da0565b91506114c38261145e565b604082019050919050565b5f6020820190508181035f8301526114e5816114ac565b9050919050565b7f73656e6420736f6d6520657468657220746f20636f6e7472696275746520696e5f8201527f207468652070726f6a6563740000000000000000000000000000000000000000602082015250565b5f611546602c83610da0565b9150611551826114ec565b604082019050919050565b5f6020820190508181035f8301526115738161153a565b9050919050565b7f66756e64696e6720676f616c20686173206e6f742072656163686564202c20615f8201527f646d696e2063616e277420776974686472617700000000000000000000000000602082015250565b5f6115d4603383610da0565b91506115df8261157a565b604082019050919050565b5f6020820190508181035f830152611601816115c8565b9050919050565b7f6f6e6c792061646d696e2063616e2077697468647261770000000000000000005f82015250565b5f61163c601783610da0565b915061164782611608565b602082019050919050565b5f6020820190508181035f83015261166981611630565b9050919050565b7f646561646c696e6520686173206e6f742072656163686564202c2061646d696e5f8201527f2063616e27742077697468647261770000000000000000000000000000000000602082015250565b5f6116ca602f83610da0565b91506116d582611670565b604082019050919050565b5f6020820190508181035f8301526116f7816116be565b9050919050565b7f50726f6a65637420494420697320616c726561647920696e20757365210000005f82015250565b5f611732601d83610da0565b915061173d826116fe565b602082019050919050565b5f6020820190508181035f83015261175f81611726565b9050919050565b5f819050815f5260205f209050919050565b5f6020601f8301049050919050565b5f82821b905092915050565b5f600883026117c27fffffffffffffffffffffffffffffffffffffffffffffffffffffffffffffffff82611787565b6117cc8683611787565b95508019841693508086168417925050509392505050565b5f819050919050565b5f6118076118026117fd84610cc3565b6117e4565b610cc3565b9050919050565b5f819050919050565b611820836117ed565b61183461182c8261180e565b848454611793565b825550505050565b5f5f905090565b61184b61183c565b611856818484611817565b505050565b5b818110156118795761186e5f82611843565b60018101905061185c565b5050565b601f8211156118be5761188f81611766565b61189884611778565b810160208510156118a7578190505b6118bb6118b385611778565b83018261185b565b50505b505050565b5f82821c905092915050565b5f6118de5f19846008026118c3565b1980831691505092915050565b5f6118f683836118cf565b9150826002028217905092915050565b61190f82610d96565b67ffffffffffffffff81111561192857611927610f62565b5b6119328254611250565b61193d82828561187d565b5f60209050601f83116001811461196e575f841561195c578287015190505b61196685826118eb565b8655506119cd565b601f19841661197c86611766565b5f5b828110156119a35784890151825560018201915060208501945060208101905061197e565b868310156119c057848901516119bc601f8916826118cf565b8355505b6001600288020188555050505b505050505050565b5f6080820190508181035f8301526119ed8187610dce565b90508181036020830152611a018186610dce565b9050611a106040830185610d21565b611a1d6060830184610d21565b9594505050505056fea26469706673582212207da5347f7959c9472b9fd418298d2ef90f686ca1285e97ed53b16fbb11fae50464736f6c634300081e0033",
					"opcodes": "PUSH1 0x80 PUSH1 0x40 MSTORE CALLVALUE DUP1 ISZERO PUSH1 0xE JUMPI PUSH0 PUSH0 REVERT JUMPDEST POP PUSH2 0x1A5C DUP1 PUSH2 0x1C PUSH0 CODECOPY PUSH0 RETURN INVALID PUSH1 0x80 PUSH1 0x40 MSTORE PUSH1 0x4 CALLDATASIZE LT PUSH2 0x90 JUMPI PUSH0 CALLDATALOAD PUSH1 0xE0 SHR DUP1 PUSH4 0x5D4E5D78 GT PUSH2 0x58 JUMPI DUP1 PUSH4 0x5D4E5D78 EQ PUSH2 0x195 JUMPI DUP1 PUSH4 0x629B2647 EQ PUSH2 0x1D1 JUMPI DUP1 PUSH4 0x6C563ABE EQ PUSH2 0x1F9 JUMPI DUP1 PUSH4 0x71EB89F3 EQ PUSH2 0x215 JUMPI DUP1 PUSH4 0xF81BF601 EQ PUSH2 0x231 JUMPI PUSH2 0x90 JUMP JUMPDEST DUP1 PUSH4 0xDBAC135 EQ PUSH2 0x94 JUMPI DUP1 PUSH4 0x21B2416C EQ PUSH2 0xD1 JUMPI DUP1 PUSH4 0x370C36B4 EQ PUSH2 0x113 JUMPI DUP1 PUSH4 0x3B9056BF EQ PUSH2 0x14F JUMPI DUP1 PUSH4 0x54A5BCC5 EQ PUSH2 0x16B JUMPI JUMPDEST PUSH0 PUSH0 REVERT JUMPDEST CALLVALUE DUP1 ISZERO PUSH2 0x9F JUMPI PUSH0 PUSH0 REVERT JUMPDEST POP PUSH2 0xBA PUSH1 0x4 DUP1 CALLDATASIZE SUB DUP2 ADD SWAP1 PUSH2 0xB5 SWAP2 SWAP1 PUSH2 0xCF6 JUMP JUMPDEST PUSH2 0x259 JUMP JUMPDEST PUSH1 0x40 MLOAD PUSH2 0xC8 SWAP3 SWAP2 SWAP1 PUSH2 0xD30 JUMP JUMPDEST PUSH1 0x40 MLOAD DUP1 SWAP2 SUB SWAP1 RETURN JUMPDEST CALLVALUE DUP1 ISZERO PUSH2 0xDC JUMPI PUSH0 PUSH0 REVERT JUMPDEST POP PUSH2 0xF7 PUSH1 0x4 DUP1 CALLDATASIZE SUB DUP2 ADD SWAP1 PUSH2 0xF2 SWAP2 SWAP1 PUSH2 0xCF6 JUMP JUMPDEST PUSH2 0x33A JUMP JUMPDEST PUSH1 0x40 MLOAD PUSH2 0x10A SWAP8 SWAP7 SWAP6 SWAP5 SWAP4 SWAP3 SWAP2 SWAP1 PUSH2 0xE20 JUMP JUMPDEST PUSH1 0x40 MLOAD DUP1 SWAP2 SUB SWAP1 RETURN JUMPDEST CALLVALUE DUP1 ISZERO PUSH2 0x11E JUMPI PUSH0 PUSH0 REVERT JUMPDEST POP PUSH2 0x139 PUSH1 0x4 DUP1 CALLDATASIZE SUB DUP2 ADD SWAP1 PUSH2 0x134 SWAP2 SWAP1 PUSH2 0xCF6 JUMP JUMPDEST PUSH2 0x4AF JUMP JUMPDEST PUSH1 0x40 MLOAD PUSH2 0x146 SWAP2 SWAP1 PUSH2 0xE9B JUMP JUMPDEST PUSH1 0x40 MLOAD DUP1 SWAP2 SUB SWAP1 RETURN JUMPDEST PUSH2 0x169 PUSH1 0x4 DUP1 CALLDATASIZE SUB DUP2 ADD SWAP1 PUSH2 0x164 SWAP2 SWAP1 PUSH2 0xCF6 JUMP JUMPDEST PUSH2 0x4F1 JUMP JUMPDEST STOP JUMPDEST CALLVALUE DUP1 ISZERO PUSH2 0x176 JUMPI PUSH0 PUSH0 REVERT JUMPDEST POP PUSH2 0x17F PUSH2 0x622 JUMP JUMPDEST PUSH1 0x40 MLOAD PUSH2 0x18C SWAP2 SWAP1 PUSH2 0xE9B JUMP JUMPDEST PUSH1 0x40 MLOAD DUP1 SWAP2 SUB SWAP1 RETURN JUMPDEST CALLVALUE DUP1 ISZERO PUSH2 0x1A0 JUMPI PUSH0 PUSH0 REVERT JUMPDEST POP PUSH2 0x1BB PUSH1 0x4 DUP1 CALLDATASIZE SUB DUP2 ADD SWAP1 PUSH2 0x1B6 SWAP2 SWAP1 PUSH2 0xEDE JUMP JUMPDEST PUSH2 0x62A JUMP JUMPDEST PUSH1 0x40 MLOAD PUSH2 0x1C8 SWAP2 SWAP1 PUSH2 0xE9B JUMP JUMPDEST PUSH1 0x40 MLOAD DUP1 SWAP2 SUB SWAP1 RETURN JUMPDEST CALLVALUE DUP1 ISZERO PUSH2 0x1DC JUMPI PUSH0 PUSH0 REVERT JUMPDEST POP PUSH2 0x1F7 PUSH1 0x4 DUP1 CALLDATASIZE SUB DUP2 ADD SWAP1 PUSH2 0x1F2 SWAP2 SWAP1 PUSH2 0xF1C JUMP JUMPDEST PUSH2 0x64A JUMP JUMPDEST STOP JUMPDEST PUSH2 0x213 PUSH1 0x4 DUP1 CALLDATASIZE SUB DUP2 ADD SWAP1 PUSH2 0x20E SWAP2 SWAP1 PUSH2 0xCF6 JUMP JUMPDEST PUSH2 0x70D JUMP JUMPDEST STOP JUMPDEST PUSH2 0x22F PUSH1 0x4 DUP1 CALLDATASIZE SUB DUP2 ADD SWAP1 PUSH2 0x22A SWAP2 SWAP1 PUSH2 0xCF6 JUMP JUMPDEST PUSH2 0x8E7 JUMP JUMPDEST STOP JUMPDEST CALLVALUE DUP1 ISZERO PUSH2 0x23C JUMPI PUSH0 PUSH0 REVERT JUMPDEST POP PUSH2 0x257 PUSH1 0x4 DUP1 CALLDATASIZE SUB DUP2 ADD SWAP1 PUSH2 0x252 SWAP2 SWAP1 PUSH2 0x1086 JUMP JUMPDEST PUSH2 0xAAD JUMP JUMPDEST STOP JUMPDEST PUSH0 PUSH0 PUSH0 PUSH1 0x1 PUSH0 DUP6 DUP2 MSTORE PUSH1 0x20 ADD SWAP1 DUP2 MSTORE PUSH1 0x20 ADD PUSH0 KECCAK256 SWAP1 POP DUP1 PUSH1 0x3 ADD SLOAD SWAP3 POP PUSH0 PUSH20 0xFFFFFFFFFFFFFFFFFFFFFFFFFFFFFFFFFFFFFFFF AND DUP2 PUSH0 ADD PUSH0 SWAP1 SLOAD SWAP1 PUSH2 0x100 EXP SWAP1 DIV PUSH20 0xFFFFFFFFFFFFFFFFFFFFFFFFFFFFFFFFFFFFFFFF AND PUSH20 0xFFFFFFFFFFFFFFFFFFFFFFFFFFFFFFFFFFFFFFFF AND SUB PUSH2 0x306 JUMPI PUSH1 0x40 MLOAD PUSH32 0x8C379A000000000000000000000000000000000000000000000000000000000 DUP2 MSTORE PUSH1 0x4 ADD PUSH2 0x2FD SWAP1 PUSH2 0x11A5 JUMP JUMPDEST PUSH1 0x40 MLOAD DUP1 SWAP2 SUB SWAP1 REVERT JUMPDEST DUP1 PUSH1 0x3 ADD SLOAD DUP2 PUSH1 0x5 ADD SLOAD LT PUSH2 0x31D JUMPI PUSH0 SWAP2 POP PUSH2 0x334 JUMP JUMPDEST DUP1 PUSH1 0x5 ADD SLOAD DUP2 PUSH1 0x3 ADD SLOAD PUSH2 0x331 SWAP2 SWAP1 PUSH2 0x11F0 JUMP JUMPDEST SWAP2 POP JUMPDEST POP SWAP2 POP SWAP2 JUMP JUMPDEST PUSH1 0x1 PUSH1 0x20 MSTORE DUP1 PUSH0 MSTORE PUSH1 0x40 PUSH0 KECCAK256 PUSH0 SWAP2 POP SWAP1 POP DUP1 PUSH0 ADD PUSH0 SWAP1 SLOAD SWAP1 PUSH2 0x100 EXP SWAP1 DIV PUSH20 0xFFFFFFFFFFFFFFFFFFFFFFFFFFFFFFFFFFFFFFFF AND SWAP1 DUP1 PUSH1 0x1 ADD DUP1 SLOAD PUSH2 0x37E SWAP1 PUSH2 0x1250 JUMP JUMPDEST DUP1 PUSH1 0x1F ADD PUSH1 0x20 DUP1 SWAP2 DIV MUL PUSH1 0x20 ADD PUSH1 0x40 MLOAD SWAP1 DUP2 ADD PUSH1 0x40 MSTORE DUP1 SWAP3 SWAP2 SWAP1 DUP2 DUP2 MSTORE PUSH1 0x20 ADD DUP3 DUP1 SLOAD PUSH2 0x3AA SWAP1 PUSH2 0x1250 JUMP JUMPDEST DUP1 ISZERO PUSH2 0x3F5 JUMPI DUP1 PUSH1 0x1F LT PUSH2 0x3CC JUMPI PUSH2 0x100 DUP1 DUP4 SLOAD DIV MUL DUP4 MSTORE SWAP2 PUSH1 0x20 ADD SWAP2 PUSH2 0x3F5 JUMP JUMPDEST DUP3 ADD SWAP2 SWAP1 PUSH0 MSTORE PUSH1 0x20 PUSH0 KECCAK256 SWAP1 JUMPDEST DUP2 SLOAD DUP2 MSTORE SWAP1 PUSH1 0x1 ADD SWAP1 PUSH1 0x20 ADD DUP1 DUP4 GT PUSH2 0x3D8 JUMPI DUP3 SWAP1 SUB PUSH1 0x1F AND DUP3 ADD SWAP2 JUMPDEST POP POP POP POP POP SWAP1 DUP1 PUSH1 0x2 ADD DUP1 SLOAD PUSH2 0x40A SWAP1 PUSH2 0x1250 JUMP JUMPDEST DUP1 PUSH1 0x1F ADD PUSH1 0x20 DUP1 SWAP2 DIV MUL PUSH1 0x20 ADD PUSH1 0x40 MLOAD SWAP1 DUP2 ADD PUSH1 0x40 MSTORE DUP1 SWAP3 SWAP2 SWAP1 DUP2 DUP2 MSTORE PUSH1 0x20 ADD DUP3 DUP1 SLOAD PUSH2 0x436 SWAP1 PUSH2 0x1250 JUMP JUMPDEST DUP1 ISZERO PUSH2 0x481 JUMPI DUP1 PUSH1 0x1F LT PUSH2 0x458 JUMPI PUSH2 0x100 DUP1 DUP4 SLOAD DIV MUL DUP4 MSTORE SWAP2 PUSH1 0x20 ADD SWAP2 PUSH2 0x481 JUMP JUMPDEST DUP3 ADD SWAP2 SWAP1 PUSH0 MSTORE PUSH1 0x20 PUSH0 KECCAK256 SWAP1 JUMPDEST DUP2 SLOAD DUP2 MSTORE SWAP1 PUSH1 0x1 ADD SWAP1 PUSH1 0x20 ADD DUP1 DUP4 GT PUSH2 0x464 JUMPI DUP3 SWAP1 SUB PUSH1 0x1F AND DUP3 ADD SWAP2 JUMPDEST POP POP POP POP POP SWAP1 DUP1 PUSH1 0x3 ADD SLOAD SWAP1 DUP1 PUSH1 0x4 ADD SLOAD SWAP1 DUP1 PUSH1 0x5 ADD SLOAD SWAP1 DUP1 PUSH1 0x6 ADD PUSH0 SWAP1 SLOAD SWAP1 PUSH2 0x100 EXP SWAP1 DIV PUSH1 0xFF AND SWAP1 POP DUP8 JUMP JUMPDEST PUSH0 PUSH0 PUSH1 0x1 PUSH0 DUP5 DUP2 MSTORE PUSH1 0x20 ADD SWAP1 DUP2 MSTORE PUSH1 0x20 ADD PUSH0 KECCAK256 SWAP1 POP DUP1 PUSH1 0x4 ADD SLOAD TIMESTAMP LT PUSH2 0x4D8 JUMPI PUSH0 SWAP2 POP POP PUSH2 0x4EC JUMP JUMPDEST TIMESTAMP DUP2 PUSH1 0x4 ADD SLOAD PUSH2 0x4E8 SWAP2 SWAP1 PUSH2 0x11F0 JUMP JUMPDEST SWAP2 POP POP JUMPDEST SWAP2 SWAP1 POP JUMP JUMPDEST PUSH0 PUSH1 0x1 PUSH0 DUP4 DUP2 MSTORE PUSH1 0x20 ADD SWAP1 DUP2 MSTORE PUSH1 0x20 ADD PUSH0 KECCAK256 SWAP1 POP DUP1 PUSH1 0x3 ADD SLOAD DUP2 PUSH1 0x5 ADD SLOAD LT PUSH2 0x54F JUMPI PUSH1 0x40 MLOAD PUSH32 0x8C379A000000000000000000000000000000000000000000000000000000000 DUP2 MSTORE PUSH1 0x4 ADD PUSH2 0x546 SWAP1 PUSH2 0x12F0 JUMP JUMPDEST PUSH1 0x40 MLOAD DUP1 SWAP2 SUB SWAP1 REVERT JUMPDEST PUSH0 PUSH1 0x2 PUSH0 DUP5 DUP2 MSTORE PUSH1 0x20 ADD SWAP1 DUP2 MSTORE PUSH1 0x20 ADD PUSH0 KECCAK256 PUSH0 CALLER PUSH20 0xFFFFFFFFFFFFFFFFFFFFFFFFFFFFFFFFFFFFFFFF AND PUSH20 0xFFFFFFFFFFFFFFFFFFFFFFFFFFFFFFFFFFFFFFFF AND DUP2 MSTORE PUSH1 0x20 ADD SWAP1 DUP2 MSTORE PUSH1 0x20 ADD PUSH0 KECCAK256 SLOAD SWAP1 POP CALLER PUSH20 0xFFFFFFFFFFFFFFFFFFFFFFFFFFFFFFFFFFFFFFFF AND PUSH2 0x8FC DUP3 SWAP1 DUP2 ISZERO MUL SWAP1 PUSH1 0x40 MLOAD PUSH0 PUSH1 0x40 MLOAD DUP1 DUP4 SUB DUP2 DUP6 DUP9 DUP9 CALL SWAP4 POP POP POP POP ISZERO DUP1 ISZERO PUSH2 0x5E2 JUMPI RETURNDATASIZE PUSH0 PUSH0 RETURNDATACOPY RETURNDATASIZE PUSH0 REVERT JUMPDEST POP DUP3 PUSH32 0xB6E4E293B6C7C5CF68FBB52EDFACA6173710FCCCBCECAC03C32E62327FC000C6 CALLER CALLVALUE PUSH1 0x40 MLOAD PUSH2 0x615 SWAP3 SWAP2 SWAP1 PUSH2 0x130E JUMP JUMPDEST PUSH1 0x40 MLOAD DUP1 SWAP2 SUB SWAP1 LOG2 POP POP POP JUMP JUMPDEST PUSH0 PUSH0 SLOAD SWAP1 POP SWAP1 JUMP JUMPDEST PUSH1 0x2 PUSH1 0x20 MSTORE DUP2 PUSH0 MSTORE PUSH1 0x40 PUSH0 KECCAK256 PUSH1 0x20 MSTORE DUP1 PUSH0 MSTORE PUSH1 0x40 PUSH0 KECCAK256 PUSH0 SWAP2 POP SWAP2 POP POP SLOAD DUP2 JUMP JUMPDEST PUSH0 PUSH1 0x1 PUSH0 DUP5 DUP2 MSTORE PUSH1 0x20 ADD SWAP1 DUP2 MSTORE PUSH1 0x20 ADD PUSH0 KECCAK256 SWAP1 POP CALLER PUSH20 0xFFFFFFFFFFFFFFFFFFFFFFFFFFFFFFFFFFFFFFFF AND DUP2 PUSH0 ADD PUSH0 SWAP1 SLOAD SWAP1 PUSH2 0x100 EXP SWAP1 DIV PUSH20 0xFFFFFFFFFFFFFFFFFFFFFFFFFFFFFFFFFFFFFFFF AND PUSH20 0xFFFFFFFFFFFFFFFFFFFFFFFFFFFFFFFFFFFFFFFF AND EQ PUSH2 0x6EE JUMPI PUSH1 0x40 MLOAD PUSH32 0x8C379A000000000000000000000000000000000000000000000000000000000 DUP2 MSTORE PUSH1 0x4 ADD PUSH2 0x6E5 SWAP1 PUSH2 0x13A5 JUMP JUMPDEST PUSH1 0x40 MLOAD DUP1 SWAP2 SUB SWAP1 REVERT JUMPDEST DUP2 DUP2 PUSH1 0x4 ADD PUSH0 DUP3 DUP3 SLOAD PUSH2 0x701 SWAP2 SWAP1 PUSH2 0x13C3 JUMP JUMPDEST SWAP3 POP POP DUP2 SWAP1 SSTORE POP POP POP POP JUMP JUMPDEST PUSH0 PUSH1 0x1 PUSH0 DUP4 DUP2 MSTORE PUSH1 0x20 ADD SWAP1 DUP2 MSTORE PUSH1 0x20 ADD PUSH0 KECCAK256 SWAP1 POP DUP1 PUSH1 0x4 ADD SLOAD TIMESTAMP GT ISZERO PUSH2 0x768 JUMPI PUSH1 0x40 MLOAD PUSH32 0x8C379A000000000000000000000000000000000000000000000000000000000 DUP2 MSTORE PUSH1 0x4 ADD PUSH2 0x75F SWAP1 PUSH2 0x1440 JUMP JUMPDEST PUSH1 0x40 MLOAD DUP1 SWAP2 SUB SWAP1 REVERT JUMPDEST DUP1 PUSH1 0x6 ADD PUSH0 SWAP1 SLOAD SWAP1 PUSH2 0x100 EXP SWAP1 DIV PUSH1 0xFF AND ISZERO PUSH2 0x7B9 JUMPI PUSH1 0x40 MLOAD PUSH32 0x8C379A000000000000000000000000000000000000000000000000000000000 DUP2 MSTORE PUSH1 0x4 ADD PUSH2 0x7B0 SWAP1 PUSH2 0x14CE JUMP JUMPDEST PUSH1 0x40 MLOAD DUP1 SWAP2 SUB SWAP1 REVERT JUMPDEST PUSH0 CALLVALUE GT PUSH2 0x7FB JUMPI PUSH1 0x40 MLOAD PUSH32 0x8C379A000000000000000000000000000000000000000000000000000000000 DUP2 MSTORE PUSH1 0x4 ADD PUSH2 0x7F2 SWAP1 PUSH2 0x155C JUMP JUMPDEST PUSH1 0x40 MLOAD DUP1 SWAP2 SUB SWAP1 REVERT JUMPDEST CALLVALUE DUP2 PUSH1 0x5 ADD PUSH0 DUP3 DUP3 SLOAD PUSH2 0x80E SWAP2 SWAP1 PUSH2 0x13C3 JUMP JUMPDEST SWAP3 POP POP DUP2 SWAP1 SSTORE POP CALLVALUE PUSH1 0x2 PUSH0 DUP5 DUP2 MSTORE PUSH1 0x20 ADD SWAP1 DUP2 MSTORE PUSH1 0x20 ADD PUSH0 KECCAK256 PUSH0 CALLER PUSH20 0xFFFFFFFFFFFFFFFFFFFFFFFFFFFFFFFFFFFFFFFF AND PUSH20 0xFFFFFFFFFFFFFFFFFFFFFFFFFFFFFFFFFFFFFFFF AND DUP2 MSTORE PUSH1 0x20 ADD SWAP1 DUP2 MSTORE PUSH1 0x20 ADD PUSH0 KECCAK256 DUP2 SWAP1 SSTORE POP CALLVALUE PUSH0 PUSH0 DUP3 DUP3 SLOAD PUSH2 0x876 SWAP2 SWAP1 PUSH2 0x13C3 JUMP JUMPDEST SWAP3 POP POP DUP2 SWAP1 SSTORE POP DUP2 PUSH32 0xF234FC17E03E9C3501C842E35414FD219E9E8BC572C4632EF54DB1493E3AFAF4 CALLER CALLVALUE PUSH1 0x40 MLOAD PUSH2 0x8AF SWAP3 SWAP2 SWAP1 PUSH2 0x130E JUMP JUMPDEST PUSH1 0x40 MLOAD DUP1 SWAP2 SUB SWAP1 LOG2 DUP1 PUSH1 0x3 ADD SLOAD DUP2 PUSH1 0x5 ADD SLOAD LT PUSH2 0x8E3 JUMPI PUSH1 0x1 DUP2 PUSH1 0x6 ADD PUSH0 PUSH2 0x100 EXP DUP2 SLOAD DUP2 PUSH1 0xFF MUL NOT AND SWAP1 DUP4 ISZERO ISZERO MUL OR SWAP1 SSTORE POP JUMPDEST POP POP JUMP JUMPDEST PUSH0 PUSH1 0x1 PUSH0 DUP4 DUP2 MSTORE PUSH1 0x20 ADD SWAP1 DUP2 MSTORE PUSH1 0x20 ADD PUSH0 KECCAK256 SWAP1 POP PUSH0 DUP2 PUSH1 0x5 ADD SLOAD SWAP1 POP DUP2 PUSH1 0x6 ADD PUSH0 SWAP1 SLOAD SWAP1 PUSH2 0x100 EXP SWAP1 DIV PUSH1 0xFF AND PUSH2 0x953 JUMPI PUSH1 0x40 MLOAD PUSH32 0x8C379A000000000000000000000000000000000000000000000000000000000 DUP2 MSTORE PUSH1 0x4 ADD PUSH2 0x94A SWAP1 PUSH2 0x15EA JUMP JUMPDEST PUSH1 0x40 MLOAD DUP1 SWAP2 SUB SWAP1 REVERT JUMPDEST CALLER PUSH20 0xFFFFFFFFFFFFFFFFFFFFFFFFFFFFFFFFFFFFFFFF AND DUP3 PUSH0 ADD PUSH0 SWAP1 SLOAD SWAP1 PUSH2 0x100 EXP SWAP1 DIV PUSH20 0xFFFFFFFFFFFFFFFFFFFFFFFFFFFFFFFFFFFFFFFF AND PUSH20 0xFFFFFFFFFFFFFFFFFFFFFFFFFFFFFFFFFFFFFFFF AND EQ PUSH2 0x9E3 JUMPI PUSH1 0x40 MLOAD PUSH32 0x8C379A000000000000000000000000000000000000000000000000000000000 DUP2 MSTORE PUSH1 0x4 ADD PUSH2 0x9DA SWAP1 PUSH2 0x1652 JUMP JUMPDEST PUSH1 0x40 MLOAD DUP1 SWAP2 SUB SWAP1 REVERT JUMPDEST TIMESTAMP DUP3 PUSH1 0x4 ADD SLOAD GT ISZERO PUSH2 0xA2A JUMPI PUSH1 0x40 MLOAD PUSH32 0x8C379A000000000000000000000000000000000000000000000000000000000 DUP2 MSTORE PUSH1 0x4 ADD PUSH2 0xA21 SWAP1 PUSH2 0x16E0 JUMP JUMPDEST PUSH1 0x40 MLOAD DUP1 SWAP2 SUB SWAP1 REVERT JUMPDEST CALLER PUSH20 0xFFFFFFFFFFFFFFFFFFFFFFFFFFFFFFFFFFFFFFFF AND PUSH2 0x8FC DUP3 SWAP1 DUP2 ISZERO MUL SWAP1 PUSH1 0x40 MLOAD PUSH0 PUSH1 0x40 MLOAD DUP1 DUP4 SUB DUP2 DUP6 DUP9 DUP9 CALL SWAP4 POP POP POP POP ISZERO DUP1 ISZERO PUSH2 0xA6D JUMPI RETURNDATASIZE PUSH0 PUSH0 RETURNDATACOPY RETURNDATASIZE PUSH0 REVERT JUMPDEST POP DUP3 PUSH32 0xCAE030E1A3C6B0011E7009BD65734E2E1E330528F6983497631FABD47FA7A281 CALLER CALLVALUE PUSH1 0x40 MLOAD PUSH2 0xAA0 SWAP3 SWAP2 SWAP1 PUSH2 0x130E JUMP JUMPDEST PUSH1 0x40 MLOAD DUP1 SWAP2 SUB SWAP1 LOG2 POP POP POP JUMP JUMPDEST PUSH1 0x3 PUSH0 DUP3 DUP2 MSTORE PUSH1 0x20 ADD SWAP1 DUP2 MSTORE PUSH1 0x20 ADD PUSH0 KECCAK256 PUSH0 SWAP1 SLOAD SWAP1 PUSH2 0x100 EXP SWAP1 DIV PUSH1 0xFF AND ISZERO PUSH2 0xB0B JUMPI PUSH1 0x40 MLOAD PUSH32 0x8C379A000000000000000000000000000000000000000000000000000000000 DUP2 MSTORE PUSH1 0x4 ADD PUSH2 0xB02 SWAP1 PUSH2 0x1748 JUMP JUMPDEST PUSH1 0x40 MLOAD DUP1 SWAP2 SUB SWAP1 REVERT JUMPDEST PUSH1 0x1 PUSH1 0x3 PUSH0 DUP4 DUP2 MSTORE PUSH1 0x20 ADD SWAP1 DUP2 MSTORE PUSH1 0x20 ADD PUSH0 KECCAK256 PUSH0 PUSH2 0x100 EXP DUP2 SLOAD DUP2 PUSH1 0xFF MUL NOT AND SWAP1 DUP4 ISZERO ISZERO MUL OR SWAP1 SSTORE POP PUSH1 0x40 MLOAD DUP1 PUSH1 0xE0 ADD PUSH1 0x40 MSTORE DUP1 CALLER PUSH20 0xFFFFFFFFFFFFFFFFFFFFFFFFFFFFFFFFFFFFFFFF AND DUP2 MSTORE PUSH1 0x20 ADD DUP7 DUP2 MSTORE PUSH1 0x20 ADD DUP6 DUP2 MSTORE PUSH1 0x20 ADD DUP5 DUP2 MSTORE PUSH1 0x20 ADD DUP4 TIMESTAMP PUSH2 0xB79 SWAP2 SWAP1 PUSH2 0x13C3 JUMP JUMPDEST DUP2 MSTORE PUSH1 0x20 ADD PUSH0 DUP2 MSTORE PUSH1 0x20 ADD PUSH0 ISZERO ISZERO DUP2 MSTORE POP PUSH1 0x1 PUSH0 DUP4 DUP2 MSTORE PUSH1 0x20 ADD SWAP1 DUP2 MSTORE PUSH1 0x20 ADD PUSH0 KECCAK256 PUSH0 DUP3 ADD MLOAD DUP2 PUSH0 ADD PUSH0 PUSH2 0x100 EXP DUP2 SLOAD DUP2 PUSH20 0xFFFFFFFFFFFFFFFFFFFFFFFFFFFFFFFFFFFFFFFF MUL NOT AND SWAP1 DUP4 PUSH20 0xFFFFFFFFFFFFFFFFFFFFFFFFFFFFFFFFFFFFFFFF AND MUL OR SWAP1 SSTORE POP PUSH1 0x20 DUP3 ADD MLOAD DUP2 PUSH1 0x1 ADD SWAP1 DUP2 PUSH2 0xBF4 SWAP2 SWAP1 PUSH2 0x1906 JUMP JUMPDEST POP PUSH1 0x40 DUP3 ADD MLOAD DUP2 PUSH1 0x2 ADD SWAP1 DUP2 PUSH2 0xC0A SWAP2 SWAP1 PUSH2 0x1906 JUMP JUMPDEST POP PUSH1 0x60 DUP3 ADD MLOAD DUP2 PUSH1 0x3 ADD SSTORE PUSH1 0x80 DUP3 ADD MLOAD DUP2 PUSH1 0x4 ADD SSTORE PUSH1 0xA0 DUP3 ADD MLOAD DUP2 PUSH1 0x5 ADD SSTORE PUSH1 0xC0 DUP3 ADD MLOAD DUP2 PUSH1 0x6 ADD PUSH0 PUSH2 0x100 EXP DUP2 SLOAD DUP2 PUSH1 0xFF MUL NOT AND SWAP1 DUP4 ISZERO ISZERO MUL OR SWAP1 SSTORE POP SWAP1 POP POP CALLER PUSH20 0xFFFFFFFFFFFFFFFFFFFFFFFFFFFFFFFFFFFFFFFF AND DUP2 PUSH32 0xAC9B83534845C9E785A6EA70F2D809DB1D72EF9A1D981753712D922F5CB55F39 DUP8 DUP8 DUP8 DUP8 TIMESTAMP PUSH2 0xC93 SWAP2 SWAP1 PUSH2 0x13C3 JUMP JUMPDEST PUSH1 0x40 MLOAD PUSH2 0xCA3 SWAP5 SWAP4 SWAP3 SWAP2 SWAP1 PUSH2 0x19D5 JUMP JUMPDEST PUSH1 0x40 MLOAD DUP1 SWAP2 SUB SWAP1 LOG3 POP POP POP POP POP JUMP JUMPDEST PUSH0 PUSH1 0x40 MLOAD SWAP1 POP SWAP1 JUMP JUMPDEST PUSH0 PUSH0 REVERT JUMPDEST PUSH0 PUSH0 REVERT JUMPDEST PUSH0 DUP2 SWAP1 POP SWAP2 SWAP1 POP JUMP JUMPDEST PUSH2 0xCD5 DUP2 PUSH2 0xCC3 JUMP JUMPDEST DUP2 EQ PUSH2 0xCDF JUMPI PUSH0 PUSH0 REVERT JUMPDEST POP JUMP JUMPDEST PUSH0 DUP2 CALLDATALOAD SWAP1 POP PUSH2 0xCF0 DUP2 PUSH2 0xCCC JUMP JUMPDEST SWAP3 SWAP2 POP POP JUMP JUMPDEST PUSH0 PUSH1 0x20 DUP3 DUP5 SUB SLT ISZERO PUSH2 0xD0B JUMPI PUSH2 0xD0A PUSH2 0xCBB JUMP JUMPDEST JUMPDEST PUSH0 PUSH2 0xD18 DUP5 DUP3 DUP6 ADD PUSH2 0xCE2 JUMP JUMPDEST SWAP2 POP POP SWAP3 SWAP2 POP POP JUMP JUMPDEST PUSH2 0xD2A DUP2 PUSH2 0xCC3 JUMP JUMPDEST DUP3 MSTORE POP POP JUMP JUMPDEST PUSH0 PUSH1 0x40 DUP3 ADD SWAP1 POP PUSH2 0xD43 PUSH0 DUP4 ADD DUP6 PUSH2 0xD21 JUMP JUMPDEST PUSH2 0xD50 PUSH1 0x20 DUP4 ADD DUP5 PUSH2 0xD21 JUMP JUMPDEST SWAP4 SWAP3 POP POP POP JUMP JUMPDEST PUSH0 PUSH20 0xFFFFFFFFFFFFFFFFFFFFFFFFFFFFFFFFFFFFFFFF DUP3 AND SWAP1 POP SWAP2 SWAP1 POP JUMP JUMPDEST PUSH0 PUSH2 0xD80 DUP3 PUSH2 0xD57 JUMP JUMPDEST SWAP1 POP SWAP2 SWAP1 POP JUMP JUMPDEST PUSH2 0xD90 DUP2 PUSH2 0xD76 JUMP JUMPDEST DUP3 MSTORE POP POP JUMP JUMPDEST PUSH0 DUP2 MLOAD SWAP1 POP SWAP2 SWAP1 POP JUMP JUMPDEST PUSH0 DUP3 DUP3 MSTORE PUSH1 0x20 DUP3 ADD SWAP1 POP SWAP3 SWAP2 POP POP JUMP JUMPDEST DUP3 DUP2 DUP4 MCOPY PUSH0 DUP4 DUP4 ADD MSTORE POP POP POP JUMP JUMPDEST PUSH0 PUSH1 0x1F NOT PUSH1 0x1F DUP4 ADD AND SWAP1 POP SWAP2 SWAP1 POP JUMP JUMPDEST PUSH0 PUSH2 0xDD8 DUP3 PUSH2 0xD96 JUMP JUMPDEST PUSH2 0xDE2 DUP2 DUP6 PUSH2 0xDA0 JUMP JUMPDEST SWAP4 POP PUSH2 0xDF2 DUP2 DUP6 PUSH1 0x20 DUP7 ADD PUSH2 0xDB0 JUMP JUMPDEST PUSH2 0xDFB DUP2 PUSH2 0xDBE JUMP JUMPDEST DUP5 ADD SWAP2 POP POP SWAP3 SWAP2 POP POP JUMP JUMPDEST PUSH0 DUP2 ISZERO ISZERO SWAP1 POP SWAP2 SWAP1 POP JUMP JUMPDEST PUSH2 0xE1A DUP2 PUSH2 0xE06 JUMP JUMPDEST DUP3 MSTORE POP POP JUMP JUMPDEST PUSH0 PUSH1 0xE0 DUP3 ADD SWAP1 POP PUSH2 0xE33 PUSH0 DUP4 ADD DUP11 PUSH2 0xD87 JUMP JUMPDEST DUP2 DUP2 SUB PUSH1 0x20 DUP4 ADD MSTORE PUSH2 0xE45 DUP2 DUP10 PUSH2 0xDCE JUMP JUMPDEST SWAP1 POP DUP2 DUP2 SUB PUSH1 0x40 DUP4 ADD MSTORE PUSH2 0xE59 DUP2 DUP9 PUSH2 0xDCE JUMP JUMPDEST SWAP1 POP PUSH2 0xE68 PUSH1 0x60 DUP4 ADD DUP8 PUSH2 0xD21 JUMP JUMPDEST PUSH2 0xE75 PUSH1 0x80 DUP4 ADD DUP7 PUSH2 0xD21 JUMP JUMPDEST PUSH2 0xE82 PUSH1 0xA0 DUP4 ADD DUP6 PUSH2 0xD21 JUMP JUMPDEST PUSH2 0xE8F PUSH1 0xC0 DUP4 ADD DUP5 PUSH2 0xE11 JUMP JUMPDEST SWAP9 SWAP8 POP POP POP POP POP POP POP POP JUMP JUMPDEST PUSH0 PUSH1 0x20 DUP3 ADD SWAP1 POP PUSH2 0xEAE PUSH0 DUP4 ADD DUP5 PUSH2 0xD21 JUMP JUMPDEST SWAP3 SWAP2 POP POP JUMP JUMPDEST PUSH2 0xEBD DUP2 PUSH2 0xD76 JUMP JUMPDEST DUP2 EQ PUSH2 0xEC7 JUMPI PUSH0 PUSH0 REVERT JUMPDEST POP JUMP JUMPDEST PUSH0 DUP2 CALLDATALOAD SWAP1 POP PUSH2 0xED8 DUP2 PUSH2 0xEB4 JUMP JUMPDEST SWAP3 SWAP2 POP POP JUMP JUMPDEST PUSH0 PUSH0 PUSH1 0x40 DUP4 DUP6 SUB SLT ISZERO PUSH2 0xEF4 JUMPI PUSH2 0xEF3 PUSH2 0xCBB JUMP JUMPDEST JUMPDEST PUSH0 PUSH2 0xF01 DUP6 DUP3 DUP7 ADD PUSH2 0xCE2 JUMP JUMPDEST SWAP3 POP POP PUSH1 0x20 PUSH2 0xF12 DUP6 DUP3 DUP7 ADD PUSH2 0xECA JUMP JUMPDEST SWAP2 POP POP SWAP3 POP SWAP3 SWAP1 POP JUMP JUMPDEST PUSH0 PUSH0 PUSH1 0x40 DUP4 DUP6 SUB SLT ISZERO PUSH2 0xF32 JUMPI PUSH2 0xF31 PUSH2 0xCBB JUMP JUMPDEST JUMPDEST PUSH0 PUSH2 0xF3F DUP6 DUP3 DUP7 ADD PUSH2 0xCE2 JUMP JUMPDEST SWAP3 POP POP PUSH1 0x20 PUSH2 0xF50 DUP6 DUP3 DUP7 ADD PUSH2 0xCE2 JUMP JUMPDEST SWAP2 POP POP SWAP3 POP SWAP3 SWAP1 POP JUMP JUMPDEST PUSH0 PUSH0 REVERT JUMPDEST PUSH0 PUSH0 REVERT JUMPDEST PUSH32 0x4E487B7100000000000000000000000000000000000000000000000000000000 PUSH0 MSTORE PUSH1 0x41 PUSH1 0x4 MSTORE PUSH1 0x24 PUSH0 REVERT JUMPDEST PUSH2 0xF98 DUP3 PUSH2 0xDBE JUMP JUMPDEST DUP2 ADD DUP2 DUP2 LT PUSH8 0xFFFFFFFFFFFFFFFF DUP3 GT OR ISZERO PUSH2 0xFB7 JUMPI PUSH2 0xFB6 PUSH2 0xF62 JUMP JUMPDEST JUMPDEST DUP1 PUSH1 0x40 MSTORE POP POP POP JUMP JUMPDEST PUSH0 PUSH2 0xFC9 PUSH2 0xCB2 JUMP JUMPDEST SWAP1 POP PUSH2 0xFD5 DUP3 DUP3 PUSH2 0xF8F JUMP JUMPDEST SWAP2 SWAP1 POP JUMP JUMPDEST PUSH0 PUSH8 0xFFFFFFFFFFFFFFFF DUP3 GT ISZERO PUSH2 0xFF4 JUMPI PUSH2 0xFF3 PUSH2 0xF62 JUMP JUMPDEST JUMPDEST PUSH2 0xFFD DUP3 PUSH2 0xDBE JUMP JUMPDEST SWAP1 POP PUSH1 0x20 DUP2 ADD SWAP1 POP SWAP2 SWAP1 POP JUMP JUMPDEST DUP3 DUP2 DUP4 CALLDATACOPY PUSH0 DUP4 DUP4 ADD MSTORE POP POP POP JUMP JUMPDEST PUSH0 PUSH2 0x102A PUSH2 0x1025 DUP5 PUSH2 0xFDA JUMP JUMPDEST PUSH2 0xFC0 JUMP JUMPDEST SWAP1 POP DUP3 DUP2 MSTORE PUSH1 0x20 DUP2 ADD DUP5 DUP5 DUP5 ADD GT ISZERO PUSH2 0x1046 JUMPI PUSH2 0x1045 PUSH2 0xF5E JUMP JUMPDEST JUMPDEST PUSH2 0x1051 DUP5 DUP3 DUP6 PUSH2 0x100A JUMP JUMPDEST POP SWAP4 SWAP3 POP POP POP JUMP JUMPDEST PUSH0 DUP3 PUSH1 0x1F DUP4 ADD SLT PUSH2 0x106D JUMPI PUSH2 0x106C PUSH2 0xF5A JUMP JUMPDEST JUMPDEST DUP2 CALLDATALOAD PUSH2 0x107D DUP5 DUP3 PUSH1 0x20 DUP7 ADD PUSH2 0x1018 JUMP JUMPDEST SWAP2 POP POP SWAP3 SWAP2 POP POP JUMP JUMPDEST PUSH0 PUSH0 PUSH0 PUSH0 PUSH0 PUSH1 0xA0 DUP7 DUP9 SUB SLT ISZERO PUSH2 0x109F JUMPI PUSH2 0x109E PUSH2 0xCBB JUMP JUMPDEST JUMPDEST PUSH0 DUP7 ADD CALLDATALOAD PUSH8 0xFFFFFFFFFFFFFFFF DUP2 GT ISZERO PUSH2 0x10BC JUMPI PUSH2 0x10BB PUSH2 0xCBF JUMP JUMPDEST JUMPDEST PUSH2 0x10C8 DUP9 DUP3 DUP10 ADD PUSH2 0x1059 JUMP JUMPDEST SWAP6 POP POP PUSH1 0x20 DUP7 ADD CALLDATALOAD PUSH8 0xFFFFFFFFFFFFFFFF DUP2 GT ISZERO PUSH2 0x10E9 JUMPI PUSH2 0x10E8 PUSH2 0xCBF JUMP JUMPDEST JUMPDEST PUSH2 0x10F5 DUP9 DUP3 DUP10 ADD PUSH2 0x1059 JUMP JUMPDEST SWAP5 POP POP PUSH1 0x40 PUSH2 0x1106 DUP9 DUP3 DUP10 ADD PUSH2 0xCE2 JUMP JUMPDEST SWAP4 POP POP PUSH1 0x60 PUSH2 0x1117 DUP9 DUP3 DUP10 ADD PUSH2 0xCE2 JUMP JUMPDEST SWAP3 POP POP PUSH1 0x80 PUSH2 0x1128 DUP9 DUP3 DUP10 ADD PUSH2 0xCE2 JUMP JUMPDEST SWAP2 POP POP SWAP3 SWAP6 POP SWAP3 SWAP6 SWAP1 SWAP4 POP JUMP JUMPDEST PUSH32 0x70726F6A65637420686173206E6F74206265656E206372656174656420796574 PUSH0 DUP3 ADD MSTORE PUSH32 0x2100000000000000000000000000000000000000000000000000000000000000 PUSH1 0x20 DUP3 ADD MSTORE POP JUMP JUMPDEST PUSH0 PUSH2 0x118F PUSH1 0x21 DUP4 PUSH2 0xDA0 JUMP JUMPDEST SWAP2 POP PUSH2 0x119A DUP3 PUSH2 0x1135 JUMP JUMPDEST PUSH1 0x40 DUP3 ADD SWAP1 POP SWAP2 SWAP1 POP JUMP JUMPDEST PUSH0 PUSH1 0x20 DUP3 ADD SWAP1 POP DUP2 DUP2 SUB PUSH0 DUP4 ADD MSTORE PUSH2 0x11BC DUP2 PUSH2 0x1183 JUMP JUMPDEST SWAP1 POP SWAP2 SWAP1 POP JUMP JUMPDEST PUSH32 0x4E487B7100000000000000000000000000000000000000000000000000000000 PUSH0 MSTORE PUSH1 0x11 PUSH1 0x4 MSTORE PUSH1 0x24 PUSH0 REVERT JUMPDEST PUSH0 PUSH2 0x11FA DUP3 PUSH2 0xCC3 JUMP JUMPDEST SWAP2 POP PUSH2 0x1205 DUP4 PUSH2 0xCC3 JUMP JUMPDEST SWAP3 POP DUP3 DUP3 SUB SWAP1 POP DUP2 DUP2 GT ISZERO PUSH2 0x121D JUMPI PUSH2 0x121C PUSH2 0x11C3 JUMP JUMPDEST JUMPDEST SWAP3 SWAP2 POP POP JUMP JUMPDEST PUSH32 0x4E487B7100000000000000000000000000000000000000000000000000000000 PUSH0 MSTORE PUSH1 0x22 PUSH1 0x4 MSTORE PUSH1 0x24 PUSH0 REVERT JUMPDEST PUSH0 PUSH1 0x2 DUP3 DIV SWAP1 POP PUSH1 0x1 DUP3 AND DUP1 PUSH2 0x1267 JUMPI PUSH1 0x7F DUP3 AND SWAP2 POP JUMPDEST PUSH1 0x20 DUP3 LT DUP2 SUB PUSH2 0x127A JUMPI PUSH2 0x1279 PUSH2 0x1223 JUMP JUMPDEST JUMPDEST POP SWAP2 SWAP1 POP JUMP JUMPDEST PUSH32 0x46756E64696E6720676F616C206861732072656163686564202C207573657220 PUSH0 DUP3 ADD MSTORE PUSH32 0x63616E2774207769746864726177000000000000000000000000000000000000 PUSH1 0x20 DUP3 ADD MSTORE POP JUMP JUMPDEST PUSH0 PUSH2 0x12DA PUSH1 0x2E DUP4 PUSH2 0xDA0 JUMP JUMPDEST SWAP2 POP PUSH2 0x12E5 DUP3 PUSH2 0x1280 JUMP JUMPDEST PUSH1 0x40 DUP3 ADD SWAP1 POP SWAP2 SWAP1 POP JUMP JUMPDEST PUSH0 PUSH1 0x20 DUP3 ADD SWAP1 POP DUP2 DUP2 SUB PUSH0 DUP4 ADD MSTORE PUSH2 0x1307 DUP2 PUSH2 0x12CE JUMP JUMPDEST SWAP1 POP SWAP2 SWAP1 POP JUMP JUMPDEST PUSH0 PUSH1 0x40 DUP3 ADD SWAP1 POP PUSH2 0x1321 PUSH0 DUP4 ADD DUP6 PUSH2 0xD87 JUMP JUMPDEST PUSH2 0x132E PUSH1 0x20 DUP4 ADD DUP5 PUSH2 0xD21 JUMP JUMPDEST SWAP4 SWAP3 POP POP POP JUMP JUMPDEST PUSH32 0x4F6E6C792050726F6A6563742063726561746F722063616E20657874656E6420 PUSH0 DUP3 ADD MSTORE PUSH32 0x74686520646561646C696E652121000000000000000000000000000000000000 PUSH1 0x20 DUP3 ADD MSTORE POP JUMP JUMPDEST PUSH0 PUSH2 0x138F PUSH1 0x2E DUP4 PUSH2 0xDA0 JUMP JUMPDEST SWAP2 POP PUSH2 0x139A DUP3 PUSH2 0x1335 JUMP JUMPDEST PUSH1 0x40 DUP3 ADD SWAP1 POP SWAP2 SWAP1 POP JUMP JUMPDEST PUSH0 PUSH1 0x20 DUP3 ADD SWAP1 POP DUP2 DUP2 SUB PUSH0 DUP4 ADD MSTORE PUSH2 0x13BC DUP2 PUSH2 0x1383 JUMP JUMPDEST SWAP1 POP SWAP2 SWAP1 POP JUMP JUMPDEST PUSH0 PUSH2 0x13CD DUP3 PUSH2 0xCC3 JUMP JUMPDEST SWAP2 POP PUSH2 0x13D8 DUP4 PUSH2 0xCC3 JUMP JUMPDEST SWAP3 POP DUP3 DUP3 ADD SWAP1 POP DUP1 DUP3 GT ISZERO PUSH2 0x13F0 JUMPI PUSH2 0x13EF PUSH2 0x11C3 JUMP JUMPDEST JUMPDEST SWAP3 SWAP2 POP POP JUMP JUMPDEST PUSH32 0x50726F6A65637420646561646C696E65206973206F7665722100000000000000 PUSH0 DUP3 ADD MSTORE POP JUMP JUMPDEST PUSH0 PUSH2 0x142A PUSH1 0x19 DUP4 PUSH2 0xDA0 JUMP JUMPDEST SWAP2 POP PUSH2 0x1435 DUP3 PUSH2 0x13F6 JUMP JUMPDEST PUSH1 0x20 DUP3 ADD SWAP1 POP SWAP2 SWAP1 POP JUMP JUMPDEST PUSH0 PUSH1 0x20 DUP3 ADD SWAP1 POP DUP2 DUP2 SUB PUSH0 DUP4 ADD MSTORE PUSH2 0x1457 DUP2 PUSH2 0x141E JUMP JUMPDEST SWAP1 POP SWAP2 SWAP1 POP JUMP JUMPDEST PUSH32 0x50726F6A6563742052656163686564206974732046756E64696E672072657175 PUSH0 DUP3 ADD MSTORE PUSH32 0x6972656D656E7400000000000000000000000000000000000000000000000000 PUSH1 0x20 DUP3 ADD MSTORE POP JUMP JUMPDEST PUSH0 PUSH2 0x14B8 PUSH1 0x27 DUP4 PUSH2 0xDA0 JUMP JUMPDEST SWAP2 POP PUSH2 0x14C3 DUP3 PUSH2 0x145E JUMP JUMPDEST PUSH1 0x40 DUP3 ADD SWAP1 POP SWAP2 SWAP1 POP JUMP JUMPDEST PUSH0 PUSH1 0x20 DUP3 ADD SWAP1 POP DUP2 DUP2 SUB PUSH0 DUP4 ADD MSTORE PUSH2 0x14E5 DUP2 PUSH2 0x14AC JUMP JUMPDEST SWAP1 POP SWAP2 SWAP1 POP JUMP JUMPDEST PUSH32 0x73656E6420736F6D6520657468657220746F20636F6E7472696275746520696E PUSH0 DUP3 ADD MSTORE PUSH32 0x207468652070726F6A6563740000000000000000000000000000000000000000 PUSH1 0x20 DUP3 ADD MSTORE POP JUMP JUMPDEST PUSH0 PUSH2 0x1546 PUSH1 0x2C DUP4 PUSH2 0xDA0 JUMP JUMPDEST SWAP2 POP PUSH2 0x1551 DUP3 PUSH2 0x14EC JUMP JUMPDEST PUSH1 0x40 DUP3 ADD SWAP1 POP SWAP2 SWAP1 POP JUMP JUMPDEST PUSH0 PUSH1 0x20 DUP3 ADD SWAP1 POP DUP2 DUP2 SUB PUSH0 DUP4 ADD MSTORE PUSH2 0x1573 DUP2 PUSH2 0x153A JUMP JUMPDEST SWAP1 POP SWAP2 SWAP1 POP JUMP JUMPDEST PUSH32 0x66756E64696E6720676F616C20686173206E6F742072656163686564202C2061 PUSH0 DUP3 ADD MSTORE PUSH32 0x646D696E2063616E277420776974686472617700000000000000000000000000 PUSH1 0x20 DUP3 ADD MSTORE POP JUMP JUMPDEST PUSH0 PUSH2 0x15D4 PUSH1 0x33 DUP4 PUSH2 0xDA0 JUMP JUMPDEST SWAP2 POP PUSH2 0x15DF DUP3 PUSH2 0x157A JUMP JUMPDEST PUSH1 0x40 DUP3 ADD SWAP1 POP SWAP2 SWAP1 POP JUMP JUMPDEST PUSH0 PUSH1 0x20 DUP3 ADD SWAP1 POP DUP2 DUP2 SUB PUSH0 DUP4 ADD MSTORE PUSH2 0x1601 DUP2 PUSH2 0x15C8 JUMP JUMPDEST SWAP1 POP SWAP2 SWAP1 POP JUMP JUMPDEST PUSH32 0x6F6E6C792061646D696E2063616E207769746864726177000000000000000000 PUSH0 DUP3 ADD MSTORE POP JUMP JUMPDEST PUSH0 PUSH2 0x163C PUSH1 0x17 DUP4 PUSH2 0xDA0 JUMP JUMPDEST SWAP2 POP PUSH2 0x1647 DUP3 PUSH2 0x1608 JUMP JUMPDEST PUSH1 0x20 DUP3 ADD SWAP1 POP SWAP2 SWAP1 POP JUMP JUMPDEST PUSH0 PUSH1 0x20 DUP3 ADD SWAP1 POP DUP2 DUP2 SUB PUSH0 DUP4 ADD MSTORE PUSH2 0x1669 DUP2 PUSH2 0x1630 JUMP JUMPDEST SWAP1 POP SWAP2 SWAP1 POP JUMP JUMPDEST PUSH32 0x646561646C696E6520686173206E6F742072656163686564202C2061646D696E PUSH0 DUP3 ADD MSTORE PUSH32 0x2063616E27742077697468647261770000000000000000000000000000000000 PUSH1 0x20 DUP3 ADD MSTORE POP JUMP JUMPDEST PUSH0 PUSH2 0x16CA PUSH1 0x2F DUP4 PUSH2 0xDA0 JUMP JUMPDEST SWAP2 POP PUSH2 0x16D5 DUP3 PUSH2 0x1670 JUMP JUMPDEST PUSH1 0x40 DUP3 ADD SWAP1 POP SWAP2 SWAP1 POP JUMP JUMPDEST PUSH0 PUSH1 0x20 DUP3 ADD SWAP1 POP DUP2 DUP2 SUB PUSH0 DUP4 ADD MSTORE PUSH2 0x16F7 DUP2 PUSH2 0x16BE JUMP JUMPDEST SWAP1 POP SWAP2 SWAP1 POP JUMP JUMPDEST PUSH32 0x50726F6A65637420494420697320616C726561647920696E2075736521000000 PUSH0 DUP3 ADD MSTORE POP JUMP JUMPDEST PUSH0 PUSH2 0x1732 PUSH1 0x1D DUP4 PUSH2 0xDA0 JUMP JUMPDEST SWAP2 POP PUSH2 0x173D DUP3 PUSH2 0x16FE JUMP JUMPDEST PUSH1 0x20 DUP3 ADD SWAP1 POP SWAP2 SWAP1 POP JUMP JUMPDEST PUSH0 PUSH1 0x20 DUP3 ADD SWAP1 POP DUP2 DUP2 SUB PUSH0 DUP4 ADD MSTORE PUSH2 0x175F DUP2 PUSH2 0x1726 JUMP JUMPDEST SWAP1 POP SWAP2 SWAP1 POP JUMP JUMPDEST PUSH0 DUP2 SWAP1 POP DUP2 PUSH0 MSTORE PUSH1 0x20 PUSH0 KECCAK256 SWAP1 POP SWAP2 SWAP1 POP JUMP JUMPDEST PUSH0 PUSH1 0x20 PUSH1 0x1F DUP4 ADD DIV SWAP1 POP SWAP2 SWAP1 POP JUMP JUMPDEST PUSH0 DUP3 DUP3 SHL SWAP1 POP SWAP3 SWAP2 POP POP JUMP JUMPDEST PUSH0 PUSH1 0x8 DUP4 MUL PUSH2 0x17C2 PUSH32 0xFFFFFFFFFFFFFFFFFFFFFFFFFFFFFFFFFFFFFFFFFFFFFFFFFFFFFFFFFFFFFFFF DUP3 PUSH2 0x1787 JUMP JUMPDEST PUSH2 0x17CC DUP7 DUP4 PUSH2 0x1787 JUMP JUMPDEST SWAP6 POP DUP1 NOT DUP5 AND SWAP4 POP DUP1 DUP7 AND DUP5 OR SWAP3 POP POP POP SWAP4 SWAP3 POP POP POP JUMP JUMPDEST PUSH0 DUP2 SWAP1 POP SWAP2 SWAP1 POP JUMP JUMPDEST PUSH0 PUSH2 0x1807 PUSH2 0x1802 PUSH2 0x17FD DUP5 PUSH2 0xCC3 JUMP JUMPDEST PUSH2 0x17E4 JUMP JUMPDEST PUSH2 0xCC3 JUMP JUMPDEST SWAP1 POP SWAP2 SWAP1 POP JUMP JUMPDEST PUSH0 DUP2 SWAP1 POP SWAP2 SWAP1 POP JUMP JUMPDEST PUSH2 0x1820 DUP4 PUSH2 0x17ED JUMP JUMPDEST PUSH2 0x1834 PUSH2 0x182C DUP3 PUSH2 0x180E JUMP JUMPDEST DUP5 DUP5 SLOAD PUSH2 0x1793 JUMP JUMPDEST DUP3 SSTORE POP POP POP POP JUMP JUMPDEST PUSH0 PUSH0 SWAP1 POP SWAP1 JUMP JUMPDEST PUSH2 0x184B PUSH2 0x183C JUMP JUMPDEST PUSH2 0x1856 DUP2 DUP5 DUP5 PUSH2 0x1817 JUMP JUMPDEST POP POP POP JUMP JUMPDEST JUMPDEST DUP2 DUP2 LT ISZERO PUSH2 0x1879 JUMPI PUSH2 0x186E PUSH0 DUP3 PUSH2 0x1843 JUMP JUMPDEST PUSH1 0x1 DUP2 ADD SWAP1 POP PUSH2 0x185C JUMP JUMPDEST POP POP JUMP JUMPDEST PUSH1 0x1F DUP3 GT ISZERO PUSH2 0x18BE JUMPI PUSH2 0x188F DUP2 PUSH2 0x1766 JUMP JUMPDEST PUSH2 0x1898 DUP5 PUSH2 0x1778 JUMP JUMPDEST DUP2 ADD PUSH1 0x20 DUP6 LT ISZERO PUSH2 0x18A7 JUMPI DUP2 SWAP1 POP JUMPDEST PUSH2 0x18BB PUSH2 0x18B3 DUP6 PUSH2 0x1778 JUMP JUMPDEST DUP4 ADD DUP3 PUSH2 0x185B JUMP JUMPDEST POP POP JUMPDEST POP POP POP JUMP JUMPDEST PUSH0 DUP3 DUP3 SHR SWAP1 POP SWAP3 SWAP2 POP POP JUMP JUMPDEST PUSH0 PUSH2 0x18DE PUSH0 NOT DUP5 PUSH1 0x8 MUL PUSH2 0x18C3 JUMP JUMPDEST NOT DUP1 DUP4 AND SWAP2 POP POP SWAP3 SWAP2 POP POP JUMP JUMPDEST PUSH0 PUSH2 0x18F6 DUP4 DUP4 PUSH2 0x18CF JUMP JUMPDEST SWAP2 POP DUP3 PUSH1 0x2 MUL DUP3 OR SWAP1 POP SWAP3 SWAP2 POP POP JUMP JUMPDEST PUSH2 0x190F DUP3 PUSH2 0xD96 JUMP JUMPDEST PUSH8 0xFFFFFFFFFFFFFFFF DUP2 GT ISZERO PUSH2 0x1928 JUMPI PUSH2 0x1927 PUSH2 0xF62 JUMP JUMPDEST JUMPDEST PUSH2 0x1932 DUP3 SLOAD PUSH2 0x1250 JUMP JUMPDEST PUSH2 0x193D DUP3 DUP3 DUP6 PUSH2 0x187D JUMP JUMPDEST PUSH0 PUSH1 0x20 SWAP1 POP PUSH1 0x1F DUP4 GT PUSH1 0x1 DUP2 EQ PUSH2 0x196E JUMPI PUSH0 DUP5 ISZERO PUSH2 0x195C JUMPI DUP3 DUP8 ADD MLOAD SWAP1 POP JUMPDEST PUSH2 0x1966 DUP6 DUP3 PUSH2 0x18EB JUMP JUMPDEST DUP7 SSTORE POP PUSH2 0x19CD JUMP JUMPDEST PUSH1 0x1F NOT DUP5 AND PUSH2 0x197C DUP7 PUSH2 0x1766 JUMP JUMPDEST PUSH0 JUMPDEST DUP3 DUP2 LT ISZERO PUSH2 0x19A3 JUMPI DUP5 DUP10 ADD MLOAD DUP3 SSTORE PUSH1 0x1 DUP3 ADD SWAP2 POP PUSH1 0x20 DUP6 ADD SWAP5 POP PUSH1 0x20 DUP2 ADD SWAP1 POP PUSH2 0x197E JUMP JUMPDEST DUP7 DUP4 LT ISZERO PUSH2 0x19C0 JUMPI DUP5 DUP10 ADD MLOAD PUSH2 0x19BC PUSH1 0x1F DUP10 AND DUP3 PUSH2 0x18CF JUMP JUMPDEST DUP4 SSTORE POP JUMPDEST PUSH1 0x1 PUSH1 0x2 DUP9 MUL ADD DUP9 SSTORE POP POP POP JUMPDEST POP POP POP POP POP POP JUMP JUMPDEST PUSH0 PUSH1 0x80 DUP3 ADD SWAP1 POP DUP2 DUP2 SUB PUSH0 DUP4 ADD MSTORE PUSH2 0x19ED DUP2 DUP8 PUSH2 0xDCE JUMP JUMPDEST SWAP1 POP DUP2 DUP2 SUB PUSH1 0x20 DUP4 ADD MSTORE PUSH2 0x1A01 DUP2 DUP7 PUSH2 0xDCE JUMP JUMPDEST SWAP1 POP PUSH2 0x1A10 PUSH1 0x40 DUP4 ADD DUP6 PUSH2 0xD21 JUMP JUMPDEST PUSH2 0x1A1D PUSH1 0x60 DUP4 ADD DUP5 PUSH2 0xD21 JUMP JUMPDEST SWAP6 SWAP5 POP POP POP POP POP JUMP INVALID LOG2 PUSH5 0x6970667358 0x22 SLT KECCAK256 PUSH30 0xA5347F7959C9472B9FD418298D2EF90F686CA1285E97ED53B16FBB11FAE5 DIV PUSH5 0x736F6C6343 STOP ADDMOD 0x1E STOP CALLER "
				},
				"gasEstimates": {
					"creation": {
						"codeDepositCost": "1349600",
						"executionCost": "1401",
						"totalCost": "1351001"
					},
					"external": {
						"Contributions(uint256,address)": "infinite",
						"Extend_Deadline(uint256,uint256)": "infinite",
						"Get_Total_Raised_Funding()": "2520",
						"Projects(uint256)": "infinite",
						"Remaining_Fund(uint256)": "infinite",
						"Time_Left(uint256)": "infinite",
						"createProject(string,string,uint256,uint256,uint256)": "infinite",
						"creatorWithdraw(uint256)": "infinite",
						"fundProject(uint256)": "infinite",
						"userWithdraw(uint256)": "infinite"
					}
				},
				"methodIdentifiers": {
					"Contributions(uint256,address)": "5d4e5d78",
					"Extend_Deadline(uint256,uint256)": "629b2647",
					"Get_Total_Raised_Funding()": "54a5bcc5",
					"Projects(uint256)": "21b2416c",
					"Remaining_Fund(uint256)": "0dbac135",
					"Time_Left(uint256)": "370c36b4",
					"createProject(string,string,uint256,uint256,uint256)": "f81bf601",
					"creatorWithdraw(uint256)": "71eb89f3",
					"fundProject(uint256)": "6c563abe",
					"userWithdraw(uint256)": "3b9056bf"
				}
			},
			"storageLayout": {
				"storage": [
					{
						"astId": 3,
						"contract": "CROWD_TANK/contracts/CrowdTank.sol:CrowdTank",
						"label": "TotalRaisedFunding",
						"offset": 0,
						"slot": "0",
						"type": "t_uint256"
					},
					{
						"astId": 23,
						"contract": "CROWD_TANK/contracts/CrowdTank.sol:CrowdTank",
						"label": "Projects",
						"offset": 0,
						"slot": "1",
						"type": "t_mapping(t_uint256,t_struct(project)18_storage)"
					},
					{
						"astId": 29,
						"contract": "CROWD_TANK/contracts/CrowdTank.sol:CrowdTank",
						"label": "Contributions",
						"offset": 0,
						"slot": "2",
						"type": "t_mapping(t_uint256,t_mapping(t_address,t_uint256))"
					},
					{
						"astId": 33,
						"contract": "CROWD_TANK/contracts/CrowdTank.sol:CrowdTank",
						"label": "isIdUsed",
						"offset": 0,
						"slot": "3",
						"type": "t_mapping(t_uint256,t_bool)"
					}
				],
				"types": {
					"t_address": {
						"encoding": "inplace",
						"label": "address",
						"numberOfBytes": "20"
					},
					"t_bool": {
						"encoding": "inplace",
						"label": "bool",
						"numberOfBytes": "1"
					},
					"t_mapping(t_address,t_uint256)": {
						"encoding": "mapping",
						"key": "t_address",
						"label": "mapping(address => uint256)",
						"numberOfBytes": "32",
						"value": "t_uint256"
					},
					"t_mapping(t_uint256,t_bool)": {
						"encoding": "mapping",
						"key": "t_uint256",
						"label": "mapping(uint256 => bool)",
						"numberOfBytes": "32",
						"value": "t_bool"
					},
					"t_mapping(t_uint256,t_mapping(t_address,t_uint256))": {
						"encoding": "mapping",
						"key": "t_uint256",
						"label": "mapping(uint256 => mapping(address => uint256))",
						"numberOfBytes": "32",
						"value": "t_mapping(t_address,t_uint256)"
					},
					"t_mapping(t_uint256,t_struct(project)18_storage)": {
						"encoding": "mapping",
						"key": "t_uint256",
						"label": "mapping(uint256 => struct CrowdTank.project)",
						"numberOfBytes": "32",
						"value": "t_struct(project)18_storage"
					},
					"t_string_storage": {
						"encoding": "bytes",
						"label": "string",
						"numberOfBytes": "32"
					},
					"t_struct(project)18_storage": {
						"encoding": "inplace",
						"label": "struct CrowdTank.project",
						"members": [
							{
								"astId": 5,
								"contract": "CROWD_TANK/contracts/CrowdTank.sol:CrowdTank",
								"label": "creator",
								"offset": 0,
								"slot": "0",
								"type": "t_address"
							},
							{
								"astId": 7,
								"contract": "CROWD_TANK/contracts/CrowdTank.sol:CrowdTank",
								"label": "name",
								"offset": 0,
								"slot": "1",
								"type": "t_string_storage"
							},
							{
								"astId": 9,
								"contract": "CROWD_TANK/contracts/CrowdTank.sol:CrowdTank",
								"label": "description",
								"offset": 0,
								"slot": "2",
								"type": "t_string_storage"
							},
							{
								"astId": 11,
								"contract": "CROWD_TANK/contracts/CrowdTank.sol:CrowdTank",
								"label": "fundingGoal",
								"offset": 0,
								"slot": "3",
								"type": "t_uint256"
							},
							{
								"astId": 13,
								"contract": "CROWD_TANK/contracts/CrowdTank.sol:CrowdTank",
								"label": "deadline",
								"offset": 0,
								"slot": "4",
								"type": "t_uint256"
							},
							{
								"astId": 15,
								"contract": "CROWD_TANK/contracts/CrowdTank.sol:CrowdTank",
								"label": "amountRaised",
								"offset": 0,
								"slot": "5",
								"type": "t_uint256"
							},
							{
								"astId": 17,
								"contract": "CROWD_TANK/contracts/CrowdTank.sol:CrowdTank",
								"label": "funded",
								"offset": 0,
								"slot": "6",
								"type": "t_bool"
							}
						],
						"numberOfBytes": "224"
					},
					"t_uint256": {
						"encoding": "inplace",
						"label": "uint256",
						"numberOfBytes": "32"
					}
				}
			},
			"userdoc": {
				"kind": "user",
				"methods": {},
				"version": 1
			}
		}
	}
}