{
	"contracts/CrowdTank.sol": {
		"CrowdTank": {
			"abi": [
				{
					"anonymous": false,
					"inputs": [
						{
							"indexed": true,
							"internalType": "uint256",
							"name": "projectID",
							"type": "uint256"
						},
						{
							"indexed": true,
							"internalType": "address",
							"name": "creator",
							"type": "address"
						},
						{
							"indexed": false,
							"internalType": "string",
							"name": "name",
							"type": "string"
						},
						{
							"indexed": false,
							"internalType": "string",
							"name": "description",
							"type": "string"
						},
						{
							"indexed": false,
							"internalType": "uint256",
							"name": "fundingGoal",
							"type": "uint256"
						},
						{
							"indexed": false,
							"internalType": "uint256",
							"name": "deadline",
							"type": "uint256"
						}
					],
					"name": "ProjectCreated",
					"type": "event"
				},
				{
					"anonymous": false,
					"inputs": [
						{
							"indexed": true,
							"internalType": "uint256",
							"name": "projectID",
							"type": "uint256"
						},
						{
							"indexed": false,
							"internalType": "address",
							"name": "withdrawer",
							"type": "address"
						},
						{
							"indexed": false,
							"internalType": "uint256",
							"name": "amount",
							"type": "uint256"
						}
					],
					"name": "creatorWithdrawn",
					"type": "event"
				},
				{
					"anonymous": false,
					"inputs": [
						{
							"indexed": true,
							"internalType": "uint256",
							"name": "projectID",
							"type": "uint256"
						},
						{
							"indexed": false,
							"internalType": "address",
							"name": "contributor",
							"type": "address"
						},
						{
							"indexed": false,
							"internalType": "uint256",
							"name": "amount",
							"type": "uint256"
						}
					],
					"name": "funded",
					"type": "event"
				},
				{
					"anonymous": false,
					"inputs": [
						{
							"indexed": true,
							"internalType": "uint256",
							"name": "projectID",
							"type": "uint256"
						},
						{
							"indexed": false,
							"internalType": "address",
							"name": "withdrawer",
							"type": "address"
						},
						{
							"indexed": false,
							"internalType": "uint256",
							"name": "amount",
							"type": "uint256"
						}
					],
					"name": "userWithdrawn",
					"type": "event"
				},
				{
					"inputs": [
						{
							"internalType": "uint256",
							"name": "",
							"type": "uint256"
						},
						{
							"internalType": "address",
							"name": "",
							"type": "address"
						}
					],
					"name": "Contributions",
					"outputs": [
						{
							"internalType": "uint256",
							"name": "",
							"type": "uint256"
						}
					],
					"stateMutability": "view",
					"type": "function"
				},
				{
					"inputs": [],
					"name": "Get_Total_Raised_Funding",
					"outputs": [
						{
							"internalType": "uint256",
							"name": "",
							"type": "uint256"
						}
					],
					"stateMutability": "view",
					"type": "function"
				},
				{
					"inputs": [
						{
							"internalType": "uint256",
							"name": "",
							"type": "uint256"
						}
					],
					"name": "Projects",
					"outputs": [
						{
							"internalType": "address",
							"name": "creator",
							"type": "address"
						},
						{
							"internalType": "string",
							"name": "name",
							"type": "string"
						},
						{
							"internalType": "string",
							"name": "description",
							"type": "string"
						},
						{
							"internalType": "uint256",
							"name": "fundingGoal",
							"type": "uint256"
						},
						{
							"internalType": "uint256",
							"name": "deadline",
							"type": "uint256"
						},
						{
							"internalType": "uint256",
							"name": "amountRaised",
							"type": "uint256"
						},
						{
							"internalType": "bool",
							"name": "funded",
							"type": "bool"
						}
					],
					"stateMutability": "view",
					"type": "function"
				},
				{
					"inputs": [
						{
							"internalType": "uint256",
							"name": "projectID",
							"type": "uint256"
						}
					],
					"name": "Remaining_Fund",
					"outputs": [
						{
							"internalType": "uint256",
							"name": "fundingGoal",
							"type": "uint256"
						},
						{
							"internalType": "uint256",
							"name": "remainingFund",
							"type": "uint256"
						}
					],
					"stateMutability": "view",
					"type": "function"
				},
				{
					"inputs": [
						{
							"internalType": "uint256",
							"name": "projectID",
							"type": "uint256"
						}
					],
					"name": "Time_Left",
					"outputs": [
						{
							"internalType": "uint256",
							"name": "",
							"type": "uint256"
						}
					],
					"stateMutability": "view",
					"type": "function"
				},
				{
					"inputs": [
						{
							"internalType": "string",
							"name": "_name",
							"type": "string"
						},
						{
							"internalType": "string",
							"name": "_description",
							"type": "string"
						},
						{
							"internalType": "uint256",
							"name": "_fundingGoal",
							"type": "uint256"
						},
						{
							"internalType": "uint256",
							"name": "_durationSeconds",
							"type": "uint256"
						},
						{
							"internalType": "uint256",
							"name": "_id",
							"type": "uint256"
						}
					],
					"name": "createProject",
					"outputs": [],
					"stateMutability": "nonpayable",
					"type": "function"
				},
				{
					"inputs": [
						{
							"internalType": "uint256",
							"name": "_projectID",
							"type": "uint256"
						}
					],
					"name": "creatorWithdraw",
					"outputs": [],
					"stateMutability": "payable",
					"type": "function"
				},
				{
					"inputs": [
						{
							"internalType": "uint256",
							"name": "_projectID",
							"type": "uint256"
						}
					],
					"name": "fundProject",
					"outputs": [],
					"stateMutability": "payable",
					"type": "function"
				},
				{
					"inputs": [
						{
							"internalType": "uint256",
							"name": "_projectID",
							"type": "uint256"
						}
					],
					"name": "userWithdraw",
					"outputs": [],
					"stateMutability": "payable",
					"type": "function"
				}
			],
			"devdoc": {
				"kind": "dev",
				"methods": {},
				"version": 1
			},
			"evm": {
				"assembly": "    /* \"contracts/CrowdTank.sol\":174:5039  contract CrowdTank {... */\n  mstore(0x40, 0x80)\n  callvalue\n  dup1\n  iszero\n  tag_1\n  jumpi\n  revert(0x00, 0x00)\ntag_1:\n  pop\n  dataSize(sub_0)\n  dup1\n  dataOffset(sub_0)\n  0x00\n  codecopy\n  0x00\n  return\nstop\n\nsub_0: assembly {\n        /* \"contracts/CrowdTank.sol\":174:5039  contract CrowdTank {... */\n      mstore(0x40, 0x80)\n      jumpi(tag_1, lt(calldatasize, 0x04))\n      shr(0xe0, calldataload(0x00))\n      dup1\n      0x54a5bcc5\n      gt\n      tag_11\n      jumpi\n      dup1\n      0x54a5bcc5\n      eq\n      tag_6\n      jumpi\n      dup1\n      0x5d4e5d78\n      eq\n      tag_7\n      jumpi\n      dup1\n      0x6c563abe\n      eq\n      tag_8\n      jumpi\n      dup1\n      0x71eb89f3\n      eq\n      tag_9\n      jumpi\n      dup1\n      0xf81bf601\n      eq\n      tag_10\n      jumpi\n      jump(tag_1)\n    tag_11:\n      dup1\n      0x0dbac135\n      eq\n      tag_2\n      jumpi\n      dup1\n      0x21b2416c\n      eq\n      tag_3\n      jumpi\n      dup1\n      0x370c36b4\n      eq\n      tag_4\n      jumpi\n      dup1\n      0x3b9056bf\n      eq\n      tag_5\n      jumpi\n    tag_1:\n      revert(0x00, 0x00)\n        /* \"contracts/CrowdTank.sol\":4548:5036  function Remaining_Fund(uint projectID) public view returns(uint fundingGoal , uint remainingFund) {... */\n    tag_2:\n      callvalue\n      dup1\n      iszero\n      tag_12\n      jumpi\n      revert(0x00, 0x00)\n    tag_12:\n      pop\n      tag_13\n      0x04\n      dup1\n      calldatasize\n      sub\n      dup2\n      add\n      swap1\n      tag_14\n      swap2\n      swap1\n      tag_15\n      jump\t// in\n    tag_14:\n      tag_16\n      jump\t// in\n    tag_13:\n      mload(0x40)\n      tag_17\n      swap3\n      swap2\n      swap1\n      tag_18\n      jump\t// in\n    tag_17:\n      mload(0x40)\n      dup1\n      swap2\n      sub\n      swap1\n      return\n        /* \"contracts/CrowdTank.sol\":583:624  mapping (uint => project) public Projects */\n    tag_3:\n      callvalue\n      dup1\n      iszero\n      tag_19\n      jumpi\n      revert(0x00, 0x00)\n    tag_19:\n      pop\n      tag_20\n      0x04\n      dup1\n      calldatasize\n      sub\n      dup2\n      add\n      swap1\n      tag_21\n      swap2\n      swap1\n      tag_15\n      jump\t// in\n    tag_21:\n      tag_22\n      jump\t// in\n    tag_20:\n      mload(0x40)\n      tag_23\n      swap8\n      swap7\n      swap6\n      swap5\n      swap4\n      swap3\n      swap2\n      swap1\n      tag_24\n      jump\t// in\n    tag_23:\n      mload(0x40)\n      dup1\n      swap2\n      sub\n      swap1\n      return\n        /* \"contracts/CrowdTank.sol\":4190:4480  function Time_Left(uint projectID) view public returns(uint) {... */\n    tag_4:\n      callvalue\n      dup1\n      iszero\n      tag_25\n      jumpi\n      revert(0x00, 0x00)\n    tag_25:\n      pop\n      tag_26\n      0x04\n      dup1\n      calldatasize\n      sub\n      dup2\n      add\n      swap1\n      tag_27\n      swap2\n      swap1\n      tag_15\n      jump\t// in\n    tag_27:\n      tag_28\n      jump\t// in\n    tag_26:\n      mload(0x40)\n      tag_29\n      swap2\n      swap1\n      tag_30\n      jump\t// in\n    tag_29:\n      mload(0x40)\n      dup1\n      swap2\n      sub\n      swap1\n      return\n        /* \"contracts/CrowdTank.sol\":3000:3467  function userWithdraw(uint _projectID) external payable {... */\n    tag_5:\n      tag_31\n      0x04\n      dup1\n      calldatasize\n      sub\n      dup2\n      add\n      swap1\n      tag_32\n      swap2\n      swap1\n      tag_15\n      jump\t// in\n    tag_32:\n      tag_33\n      jump\t// in\n    tag_31:\n      stop\n        /* \"contracts/CrowdTank.sol\":2854:2960  function Get_Total_Raised_Funding() view public returns(uint) {... */\n    tag_6:\n      callvalue\n      dup1\n      iszero\n      tag_34\n      jumpi\n      revert(0x00, 0x00)\n    tag_34:\n      pop\n      tag_35\n      tag_36\n      jump\t// in\n    tag_35:\n      mload(0x40)\n      tag_37\n      swap2\n      swap1\n      tag_30\n      jump\t// in\n    tag_37:\n      mload(0x40)\n      dup1\n      swap2\n      sub\n      swap1\n      return\n        /* \"contracts/CrowdTank.sol\":683:747  mapping (uint => mapping (address => uint)) public Contributions */\n    tag_7:\n      callvalue\n      dup1\n      iszero\n      tag_38\n      jumpi\n      revert(0x00, 0x00)\n    tag_38:\n      pop\n      tag_39\n      0x04\n      dup1\n      calldatasize\n      sub\n      dup2\n      add\n      swap1\n      tag_40\n      swap2\n      swap1\n      tag_41\n      jump\t// in\n    tag_40:\n      tag_42\n      jump\t// in\n    tag_39:\n      mload(0x40)\n      tag_43\n      swap2\n      swap1\n      tag_30\n      jump\t// in\n    tag_43:\n      mload(0x40)\n      dup1\n      swap2\n      sub\n      swap1\n      return\n        /* \"contracts/CrowdTank.sol\":2103:2813  function fundProject(uint _projectID) external payable {... */\n    tag_8:\n      tag_44\n      0x04\n      dup1\n      calldatasize\n      sub\n      dup2\n      add\n      swap1\n      tag_45\n      swap2\n      swap1\n      tag_15\n      jump\t// in\n    tag_45:\n      tag_46\n      jump\t// in\n    tag_44:\n      stop\n        /* \"contracts/CrowdTank.sol\":3519:4120  function creatorWithdraw(uint _projectID) external payable {... */\n    tag_9:\n      tag_47\n      0x04\n      dup1\n      calldatasize\n      sub\n      dup2\n      add\n      swap1\n      tag_48\n      swap2\n      swap1\n      tag_15\n      jump\t// in\n    tag_48:\n      tag_49\n      jump\t// in\n    tag_47:\n      stop\n        /* \"contracts/CrowdTank.sol\":1374:2042  function createProject(string memory _name , string memory _description , uint _fundingGoal , uint _durationSeconds , uint _id) external {... */\n    tag_10:\n      callvalue\n      dup1\n      iszero\n      tag_50\n      jumpi\n      revert(0x00, 0x00)\n    tag_50:\n      pop\n      tag_51\n      0x04\n      dup1\n      calldatasize\n      sub\n      dup2\n      add\n      swap1\n      tag_52\n      swap2\n      swap1\n      tag_53\n      jump\t// in\n    tag_52:\n      tag_54\n      jump\t// in\n    tag_51:\n      stop\n        /* \"contracts/CrowdTank.sol\":4548:5036  function Remaining_Fund(uint projectID) public view returns(uint fundingGoal , uint remainingFund) {... */\n    tag_16:\n        /* \"contracts/CrowdTank.sol\":4608:4624  uint fundingGoal */\n      0x00\n        /* \"contracts/CrowdTank.sol\":4627:4645  uint remainingFund */\n      0x00\n        /* \"contracts/CrowdTank.sol\":4658:4681  project storage Project */\n      0x00\n        /* \"contracts/CrowdTank.sol\":4684:4692  Projects */\n      0x01\n        /* \"contracts/CrowdTank.sol\":4684:4703  Projects[projectID] */\n      0x00\n        /* \"contracts/CrowdTank.sol\":4693:4702  projectID */\n      dup6\n        /* \"contracts/CrowdTank.sol\":4684:4703  Projects[projectID] */\n      dup2\n      mstore\n      0x20\n      add\n      swap1\n      dup2\n      mstore\n      0x20\n      add\n      0x00\n      keccak256\n        /* \"contracts/CrowdTank.sol\":4658:4703  project storage Project = Projects[projectID] */\n      swap1\n      pop\n        /* \"contracts/CrowdTank.sol\":4728:4735  Project */\n      dup1\n        /* \"contracts/CrowdTank.sol\":4728:4747  Project.fundingGoal */\n      0x03\n      add\n      sload\n        /* \"contracts/CrowdTank.sol\":4714:4747  fundingGoal = Project.fundingGoal */\n      swap3\n      pop\n        /* \"contracts/CrowdTank.sol\":4793:4794  0 */\n      0x00\n        /* \"contracts/CrowdTank.sol\":4766:4795  Project.creator != address(0) */\n      0xffffffffffffffffffffffffffffffffffffffff\n      and\n        /* \"contracts/CrowdTank.sol\":4766:4773  Project */\n      dup2\n        /* \"contracts/CrowdTank.sol\":4766:4781  Project.creator */\n      0x00\n      add\n      0x00\n      swap1\n      sload\n      swap1\n      0x0100\n      exp\n      swap1\n      div\n      0xffffffffffffffffffffffffffffffffffffffff\n      and\n        /* \"contracts/CrowdTank.sol\":4766:4795  Project.creator != address(0) */\n      0xffffffffffffffffffffffffffffffffffffffff\n      and\n      sub\n        /* \"contracts/CrowdTank.sol\":4758:4833  require(Project.creator != address(0), \"project has not been created yet!\") */\n      tag_56\n      jumpi\n      mload(0x40)\n      0x08c379a000000000000000000000000000000000000000000000000000000000\n      dup2\n      mstore\n      0x04\n      add\n      tag_57\n      swap1\n      tag_58\n      jump\t// in\n    tag_57:\n      mload(0x40)\n      dup1\n      swap2\n      sub\n      swap1\n      revert\n    tag_56:\n        /* \"contracts/CrowdTank.sol\":4872:4879  Project */\n      dup1\n        /* \"contracts/CrowdTank.sol\":4872:4891  Project.fundingGoal */\n      0x03\n      add\n      sload\n        /* \"contracts/CrowdTank.sol\":4848:4855  Project */\n      dup2\n        /* \"contracts/CrowdTank.sol\":4848:4868  Project.amountRaised */\n      0x05\n      add\n      sload\n        /* \"contracts/CrowdTank.sol\":4848:4891  Project.amountRaised >= Project.fundingGoal */\n      lt\n        /* \"contracts/CrowdTank.sol\":4844:5029  if (Project.amountRaised >= Project.fundingGoal) {... */\n      tag_59\n      jumpi\n        /* \"contracts/CrowdTank.sol\":4925:4926  0 */\n      0x00\n        /* \"contracts/CrowdTank.sol\":4909:4926  remainingFund = 0 */\n      swap2\n      pop\n        /* \"contracts/CrowdTank.sol\":4844:5029  if (Project.amountRaised >= Project.fundingGoal) {... */\n      jump(tag_60)\n    tag_59:\n        /* \"contracts/CrowdTank.sol\":4997:5004  Project */\n      dup1\n        /* \"contracts/CrowdTank.sol\":4997:5017  Project.amountRaised */\n      0x05\n      add\n      sload\n        /* \"contracts/CrowdTank.sol\":4975:4982  Project */\n      dup2\n        /* \"contracts/CrowdTank.sol\":4975:4994  Project.fundingGoal */\n      0x03\n      add\n      sload\n        /* \"contracts/CrowdTank.sol\":4975:5017  Project.fundingGoal - Project.amountRaised */\n      tag_61\n      swap2\n      swap1\n      tag_62\n      jump\t// in\n    tag_61:\n        /* \"contracts/CrowdTank.sol\":4959:5017  remainingFund = Project.fundingGoal - Project.amountRaised */\n      swap2\n      pop\n        /* \"contracts/CrowdTank.sol\":4844:5029  if (Project.amountRaised >= Project.fundingGoal) {... */\n    tag_60:\n        /* \"contracts/CrowdTank.sol\":4647:5036  {... */\n      pop\n        /* \"contracts/CrowdTank.sol\":4548:5036  function Remaining_Fund(uint projectID) public view returns(uint fundingGoal , uint remainingFund) {... */\n      swap2\n      pop\n      swap2\n      jump\t// out\n        /* \"contracts/CrowdTank.sol\":583:624  mapping (uint => project) public Projects */\n    tag_22:\n      mstore(0x20, 0x01)\n      dup1\n      0x00\n      mstore\n      keccak256(0x00, 0x40)\n      0x00\n      swap2\n      pop\n      swap1\n      pop\n      dup1\n      0x00\n      add\n      0x00\n      swap1\n      sload\n      swap1\n      0x0100\n      exp\n      swap1\n      div\n      0xffffffffffffffffffffffffffffffffffffffff\n      and\n      swap1\n      dup1\n      0x01\n      add\n      dup1\n      sload\n      tag_63\n      swap1\n      tag_64\n      jump\t// in\n    tag_63:\n      dup1\n      0x1f\n      add\n      0x20\n      dup1\n      swap2\n      div\n      mul\n      0x20\n      add\n      mload(0x40)\n      swap1\n      dup2\n      add\n      0x40\n      mstore\n      dup1\n      swap3\n      swap2\n      swap1\n      dup2\n      dup2\n      mstore\n      0x20\n      add\n      dup3\n      dup1\n      sload\n      tag_65\n      swap1\n      tag_64\n      jump\t// in\n    tag_65:\n      dup1\n      iszero\n      tag_66\n      jumpi\n      dup1\n      0x1f\n      lt\n      tag_67\n      jumpi\n      0x0100\n      dup1\n      dup4\n      sload\n      div\n      mul\n      dup4\n      mstore\n      swap2\n      0x20\n      add\n      swap2\n      jump(tag_66)\n    tag_67:\n      dup3\n      add\n      swap2\n      swap1\n      0x00\n      mstore\n      keccak256(0x00, 0x20)\n      swap1\n    tag_68:\n      dup2\n      sload\n      dup2\n      mstore\n      swap1\n      0x01\n      add\n      swap1\n      0x20\n      add\n      dup1\n      dup4\n      gt\n      tag_68\n      jumpi\n      dup3\n      swap1\n      sub\n      0x1f\n      and\n      dup3\n      add\n      swap2\n    tag_66:\n      pop\n      pop\n      pop\n      pop\n      pop\n      swap1\n      dup1\n      0x02\n      add\n      dup1\n      sload\n      tag_69\n      swap1\n      tag_64\n      jump\t// in\n    tag_69:\n      dup1\n      0x1f\n      add\n      0x20\n      dup1\n      swap2\n      div\n      mul\n      0x20\n      add\n      mload(0x40)\n      swap1\n      dup2\n      add\n      0x40\n      mstore\n      dup1\n      swap3\n      swap2\n      swap1\n      dup2\n      dup2\n      mstore\n      0x20\n      add\n      dup3\n      dup1\n      sload\n      tag_70\n      swap1\n      tag_64\n      jump\t// in\n    tag_70:\n      dup1\n      iszero\n      tag_71\n      jumpi\n      dup1\n      0x1f\n      lt\n      tag_72\n      jumpi\n      0x0100\n      dup1\n      dup4\n      sload\n      div\n      mul\n      dup4\n      mstore\n      swap2\n      0x20\n      add\n      swap2\n      jump(tag_71)\n    tag_72:\n      dup3\n      add\n      swap2\n      swap1\n      0x00\n      mstore\n      keccak256(0x00, 0x20)\n      swap1\n    tag_73:\n      dup2\n      sload\n      dup2\n      mstore\n      swap1\n      0x01\n      add\n      swap1\n      0x20\n      add\n      dup1\n      dup4\n      gt\n      tag_73\n      jumpi\n      dup3\n      swap1\n      sub\n      0x1f\n      and\n      dup3\n      add\n      swap2\n    tag_71:\n      pop\n      pop\n      pop\n      pop\n      pop\n      swap1\n      dup1\n      0x03\n      add\n      sload\n      swap1\n      dup1\n      0x04\n      add\n      sload\n      swap1\n      dup1\n      0x05\n      add\n      sload\n      swap1\n      dup1\n      0x06\n      add\n      0x00\n      swap1\n      sload\n      swap1\n      0x0100\n      exp\n      swap1\n      div\n      0xff\n      and\n      swap1\n      pop\n      dup8\n      jump\t// out\n        /* \"contracts/CrowdTank.sol\":4190:4480  function Time_Left(uint projectID) view public returns(uint) {... */\n    tag_28:\n        /* \"contracts/CrowdTank.sol\":4245:4249  uint */\n      0x00\n        /* \"contracts/CrowdTank.sol\":4262:4285  project storage Project */\n      0x00\n        /* \"contracts/CrowdTank.sol\":4288:4296  Projects */\n      0x01\n        /* \"contracts/CrowdTank.sol\":4288:4307  Projects[projectID] */\n      0x00\n        /* \"contracts/CrowdTank.sol\":4297:4306  projectID */\n      dup5\n        /* \"contracts/CrowdTank.sol\":4288:4307  Projects[projectID] */\n      dup2\n      mstore\n      0x20\n      add\n      swap1\n      dup2\n      mstore\n      0x20\n      add\n      0x00\n      keccak256\n        /* \"contracts/CrowdTank.sol\":4262:4307  project storage Project = Projects[projectID] */\n      swap1\n      pop\n        /* \"contracts/CrowdTank.sol\":4341:4348  Project */\n      dup1\n        /* \"contracts/CrowdTank.sol\":4341:4357  Project.deadline */\n      0x04\n      add\n      sload\n        /* \"contracts/CrowdTank.sol\":4322:4337  block.timestamp */\n      timestamp\n        /* \"contracts/CrowdTank.sol\":4322:4357  block.timestamp >= Project.deadline */\n      lt\n        /* \"contracts/CrowdTank.sol\":4318:4469  if (block.timestamp >= Project.deadline) {... */\n      tag_75\n      jumpi\n        /* \"contracts/CrowdTank.sol\":4381:4382  0 */\n      0x00\n        /* \"contracts/CrowdTank.sol\":4374:4382  return 0 */\n      swap2\n      pop\n      pop\n      jump(tag_74)\n        /* \"contracts/CrowdTank.sol\":4318:4469  if (block.timestamp >= Project.deadline) {... */\n    tag_75:\n        /* \"contracts/CrowdTank.sol\":4441:4456  block.timestamp */\n      timestamp\n        /* \"contracts/CrowdTank.sol\":4422:4429  Project */\n      dup2\n        /* \"contracts/CrowdTank.sol\":4422:4438  Project.deadline */\n      0x04\n      add\n      sload\n        /* \"contracts/CrowdTank.sol\":4422:4456  Project.deadline - block.timestamp */\n      tag_77\n      swap2\n      swap1\n      tag_62\n      jump\t// in\n    tag_77:\n        /* \"contracts/CrowdTank.sol\":4415:4457  return(Project.deadline - block.timestamp) */\n      swap2\n      pop\n      pop\n        /* \"contracts/CrowdTank.sol\":4190:4480  function Time_Left(uint projectID) view public returns(uint) {... */\n    tag_74:\n      swap2\n      swap1\n      pop\n      jump\t// out\n        /* \"contracts/CrowdTank.sol\":3000:3467  function userWithdraw(uint _projectID) external payable {... */\n    tag_33:\n        /* \"contracts/CrowdTank.sol\":3067:3090  project storage Project */\n      0x00\n        /* \"contracts/CrowdTank.sol\":3093:3101  Projects */\n      0x01\n        /* \"contracts/CrowdTank.sol\":3093:3113  Projects[_projectID] */\n      0x00\n        /* \"contracts/CrowdTank.sol\":3102:3112  _projectID */\n      dup4\n        /* \"contracts/CrowdTank.sol\":3093:3113  Projects[_projectID] */\n      dup2\n      mstore\n      0x20\n      add\n      swap1\n      dup2\n      mstore\n      0x20\n      add\n      0x00\n      keccak256\n        /* \"contracts/CrowdTank.sol\":3067:3113  project storage Project = Projects[_projectID] */\n      swap1\n      pop\n        /* \"contracts/CrowdTank.sol\":3153:3160  Project */\n      dup1\n        /* \"contracts/CrowdTank.sol\":3153:3172  Project.fundingGoal */\n      0x03\n      add\n      sload\n        /* \"contracts/CrowdTank.sol\":3132:3139  Project */\n      dup2\n        /* \"contracts/CrowdTank.sol\":3132:3152  Project.amountRaised */\n      0x05\n      add\n      sload\n        /* \"contracts/CrowdTank.sol\":3132:3172  Project.amountRaised<Project.fundingGoal */\n      lt\n        /* \"contracts/CrowdTank.sol\":3124:3224  require(Project.amountRaised<Project.fundingGoal , \"Funding goal has reached , user can't withdraw\") */\n      tag_79\n      jumpi\n      mload(0x40)\n      0x08c379a000000000000000000000000000000000000000000000000000000000\n      dup2\n      mstore\n      0x04\n      add\n      tag_80\n      swap1\n      tag_81\n      jump\t// in\n    tag_80:\n      mload(0x40)\n      dup1\n      swap2\n      sub\n      swap1\n      revert\n    tag_79:\n        /* \"contracts/CrowdTank.sol\":3235:3256  uint fundsContributed */\n      0x00\n        /* \"contracts/CrowdTank.sol\":3259:3272  Contributions */\n      0x02\n        /* \"contracts/CrowdTank.sol\":3259:3284  Contributions[_projectID] */\n      0x00\n        /* \"contracts/CrowdTank.sol\":3273:3283  _projectID */\n      dup5\n        /* \"contracts/CrowdTank.sol\":3259:3284  Contributions[_projectID] */\n      dup2\n      mstore\n      0x20\n      add\n      swap1\n      dup2\n      mstore\n      0x20\n      add\n      0x00\n      keccak256\n        /* \"contracts/CrowdTank.sol\":3259:3296  Contributions[_projectID][msg.sender] */\n      0x00\n        /* \"contracts/CrowdTank.sol\":3285:3295  msg.sender */\n      caller\n        /* \"contracts/CrowdTank.sol\":3259:3296  Contributions[_projectID][msg.sender] */\n      0xffffffffffffffffffffffffffffffffffffffff\n      and\n      0xffffffffffffffffffffffffffffffffffffffff\n      and\n      dup2\n      mstore\n      0x20\n      add\n      swap1\n      dup2\n      mstore\n      0x20\n      add\n      0x00\n      keccak256\n      sload\n        /* \"contracts/CrowdTank.sol\":3235:3296  uint fundsContributed = Contributions[_projectID][msg.sender] */\n      swap1\n      pop\n        /* \"contracts/CrowdTank.sol\":3315:3325  msg.sender */\n      caller\n        /* \"contracts/CrowdTank.sol\":3307:3335  payable(msg.sender).transfer */\n      0xffffffffffffffffffffffffffffffffffffffff\n      and\n        /* \"contracts/CrowdTank.sol\":3307:3353  payable(msg.sender).transfer(fundsContributed) */\n      0x08fc\n        /* \"contracts/CrowdTank.sol\":3336:3352  fundsContributed */\n      dup3\n        /* \"contracts/CrowdTank.sol\":3307:3353  payable(msg.sender).transfer(fundsContributed) */\n      swap1\n      dup2\n      iszero\n      mul\n      swap1\n      mload(0x40)\n      0x00\n      mload(0x40)\n      dup1\n      dup4\n      sub\n      dup2\n      dup6\n      dup9\n      dup9\n      call\n      swap4\n      pop\n      pop\n      pop\n      pop\n      iszero\n      dup1\n      iszero\n      tag_83\n      jumpi\n      returndatacopy(0x00, 0x00, returndatasize)\n      revert(0x00, returndatasize)\n    tag_83:\n      pop\n        /* \"contracts/CrowdTank.sol\":3415:3425  _projectID */\n      dup3\n        /* \"contracts/CrowdTank.sol\":3401:3449  userWithdrawn(_projectID, msg.sender, msg.value) */\n      0xb6e4e293b6c7c5cf68fbb52edfaca6173710fcccbcecac03c32e62327fc000c6\n        /* \"contracts/CrowdTank.sol\":3427:3437  msg.sender */\n      caller\n        /* \"contracts/CrowdTank.sol\":3439:3448  msg.value */\n      callvalue\n        /* \"contracts/CrowdTank.sol\":3401:3449  userWithdrawn(_projectID, msg.sender, msg.value) */\n      mload(0x40)\n      tag_84\n      swap3\n      swap2\n      swap1\n      tag_85\n      jump\t// in\n    tag_84:\n      mload(0x40)\n      dup1\n      swap2\n      sub\n      swap1\n      log2\n        /* \"contracts/CrowdTank.sol\":3056:3467  {... */\n      pop\n      pop\n        /* \"contracts/CrowdTank.sol\":3000:3467  function userWithdraw(uint _projectID) external payable {... */\n      pop\n      jump\t// out\n        /* \"contracts/CrowdTank.sol\":2854:2960  function Get_Total_Raised_Funding() view public returns(uint) {... */\n    tag_36:\n        /* \"contracts/CrowdTank.sol\":2910:2914  uint */\n      0x00\n        /* \"contracts/CrowdTank.sol\":2934:2952  TotalRaisedFunding */\n      sload(0x00)\n        /* \"contracts/CrowdTank.sol\":2927:2952  return TotalRaisedFunding */\n      swap1\n      pop\n        /* \"contracts/CrowdTank.sol\":2854:2960  function Get_Total_Raised_Funding() view public returns(uint) {... */\n      swap1\n      jump\t// out\n        /* \"contracts/CrowdTank.sol\":683:747  mapping (uint => mapping (address => uint)) public Contributions */\n    tag_42:\n      mstore(0x20, 0x02)\n      dup2\n      0x00\n      mstore\n      mstore(0x20, keccak256(0x00, 0x40))\n      dup1\n      0x00\n      mstore\n      keccak256(0x00, 0x40)\n      0x00\n      swap2\n      pop\n      swap2\n      pop\n      pop\n      sload\n      dup2\n      jump\t// out\n        /* \"contracts/CrowdTank.sol\":2103:2813  function fundProject(uint _projectID) external payable {... */\n    tag_46:\n        /* \"contracts/CrowdTank.sol\":2170:2193  project storage Project */\n      0x00\n        /* \"contracts/CrowdTank.sol\":2196:2204  Projects */\n      0x01\n        /* \"contracts/CrowdTank.sol\":2196:2216  Projects[_projectID] */\n      0x00\n        /* \"contracts/CrowdTank.sol\":2205:2215  _projectID */\n      dup4\n        /* \"contracts/CrowdTank.sol\":2196:2216  Projects[_projectID] */\n      dup2\n      mstore\n      0x20\n      add\n      swap1\n      dup2\n      mstore\n      0x20\n      add\n      0x00\n      keccak256\n        /* \"contracts/CrowdTank.sol\":2170:2216  project storage Project = Projects[_projectID] */\n      swap1\n      pop\n        /* \"contracts/CrowdTank.sol\":2253:2260  Project */\n      dup1\n        /* \"contracts/CrowdTank.sol\":2253:2269  Project.deadline */\n      0x04\n      add\n      sload\n        /* \"contracts/CrowdTank.sol\":2236:2251  block.timestamp */\n      timestamp\n        /* \"contracts/CrowdTank.sol\":2236:2269  block.timestamp<=Project.deadline */\n      gt\n      iszero\n        /* \"contracts/CrowdTank.sol\":2228:2300  require(block.timestamp<=Project.deadline , \"Project deadline is over!\") */\n      tag_88\n      jumpi\n      mload(0x40)\n      0x08c379a000000000000000000000000000000000000000000000000000000000\n      dup2\n      mstore\n      0x04\n      add\n      tag_89\n      swap1\n      tag_90\n      jump\t// in\n    tag_89:\n      mload(0x40)\n      dup1\n      swap2\n      sub\n      swap1\n      revert\n    tag_88:\n        /* \"contracts/CrowdTank.sol\":2321:2328  Project */\n      dup1\n        /* \"contracts/CrowdTank.sol\":2321:2335  Project.funded */\n      0x06\n      add\n      0x00\n      swap1\n      sload\n      swap1\n      0x0100\n      exp\n      swap1\n      div\n      0xff\n      and\n        /* \"contracts/CrowdTank.sol\":2320:2335  !Project.funded */\n      iszero\n        /* \"contracts/CrowdTank.sol\":2312:2380  require(!Project.funded , \"Project Reached its Funding requirement\") */\n      tag_91\n      jumpi\n      mload(0x40)\n      0x08c379a000000000000000000000000000000000000000000000000000000000\n      dup2\n      mstore\n      0x04\n      add\n      tag_92\n      swap1\n      tag_93\n      jump\t// in\n    tag_92:\n      mload(0x40)\n      dup1\n      swap2\n      sub\n      swap1\n      revert\n    tag_91:\n        /* \"contracts/CrowdTank.sol\":2410:2411  0 */\n      0x00\n        /* \"contracts/CrowdTank.sol\":2400:2409  msg.value */\n      callvalue\n        /* \"contracts/CrowdTank.sol\":2400:2411  msg.value>0 */\n      gt\n        /* \"contracts/CrowdTank.sol\":2392:2461  require(msg.value>0 , \"send some ether to contribute in the project\") */\n      tag_94\n      jumpi\n      mload(0x40)\n      0x08c379a000000000000000000000000000000000000000000000000000000000\n      dup2\n      mstore\n      0x04\n      add\n      tag_95\n      swap1\n      tag_96\n      jump\t// in\n    tag_95:\n      mload(0x40)\n      dup1\n      swap2\n      sub\n      swap1\n      revert\n    tag_94:\n        /* \"contracts/CrowdTank.sol\":2495:2504  msg.value */\n      callvalue\n        /* \"contracts/CrowdTank.sol\":2473:2480  Project */\n      dup2\n        /* \"contracts/CrowdTank.sol\":2473:2493  Project.amountRaised */\n      0x05\n      add\n      0x00\n        /* \"contracts/CrowdTank.sol\":2473:2504  Project.amountRaised+=msg.value */\n      dup3\n      dup3\n      sload\n      tag_97\n      swap2\n      swap1\n      tag_98\n      jump\t// in\n    tag_97:\n      swap3\n      pop\n      pop\n      dup2\n      swap1\n      sstore\n      pop\n        /* \"contracts/CrowdTank.sol\":2556:2565  msg.value */\n      callvalue\n        /* \"contracts/CrowdTank.sol\":2516:2529  Contributions */\n      0x02\n        /* \"contracts/CrowdTank.sol\":2516:2541  Contributions[_projectID] */\n      0x00\n        /* \"contracts/CrowdTank.sol\":2530:2540  _projectID */\n      dup5\n        /* \"contracts/CrowdTank.sol\":2516:2541  Contributions[_projectID] */\n      dup2\n      mstore\n      0x20\n      add\n      swap1\n      dup2\n      mstore\n      0x20\n      add\n      0x00\n      keccak256\n        /* \"contracts/CrowdTank.sol\":2516:2553  Contributions[_projectID][msg.sender] */\n      0x00\n        /* \"contracts/CrowdTank.sol\":2542:2552  msg.sender */\n      caller\n        /* \"contracts/CrowdTank.sol\":2516:2553  Contributions[_projectID][msg.sender] */\n      0xffffffffffffffffffffffffffffffffffffffff\n      and\n      0xffffffffffffffffffffffffffffffffffffffff\n      and\n      dup2\n      mstore\n      0x20\n      add\n      swap1\n      dup2\n      mstore\n      0x20\n      add\n      0x00\n      keccak256\n        /* \"contracts/CrowdTank.sol\":2516:2565  Contributions[_projectID][msg.sender] = msg.value */\n      dup2\n      swap1\n      sstore\n      pop\n        /* \"contracts/CrowdTank.sol\":2627:2636  msg.value */\n      callvalue\n        /* \"contracts/CrowdTank.sol\":2607:2625  TotalRaisedFunding */\n      0x00\n      0x00\n        /* \"contracts/CrowdTank.sol\":2607:2636  TotalRaisedFunding+=msg.value */\n      dup3\n      dup3\n      sload\n      tag_99\n      swap2\n      swap1\n      tag_98\n      jump\t// in\n    tag_99:\n      swap3\n      pop\n      pop\n      dup2\n      swap1\n      sstore\n      pop\n        /* \"contracts/CrowdTank.sol\":2662:2672  _projectID */\n      dup2\n        /* \"contracts/CrowdTank.sol\":2655:2696  funded(_projectID, msg.sender, msg.value) */\n      0xf234fc17e03e9c3501c842e35414fd219e9e8bc572c4632ef54db1493e3afaf4\n        /* \"contracts/CrowdTank.sol\":2674:2684  msg.sender */\n      caller\n        /* \"contracts/CrowdTank.sol\":2686:2695  msg.value */\n      callvalue\n        /* \"contracts/CrowdTank.sol\":2655:2696  funded(_projectID, msg.sender, msg.value) */\n      mload(0x40)\n      tag_100\n      swap3\n      swap2\n      swap1\n      tag_85\n      jump\t// in\n    tag_100:\n      mload(0x40)\n      dup1\n      swap2\n      sub\n      swap1\n      log2\n        /* \"contracts/CrowdTank.sol\":2736:2743  Project */\n      dup1\n        /* \"contracts/CrowdTank.sol\":2736:2755  Project.fundingGoal */\n      0x03\n      add\n      sload\n        /* \"contracts/CrowdTank.sol\":2714:2721  Project */\n      dup2\n        /* \"contracts/CrowdTank.sol\":2714:2734  Project.amountRaised */\n      0x05\n      add\n      sload\n        /* \"contracts/CrowdTank.sol\":2714:2755  Project.amountRaised>=Project.fundingGoal */\n      lt\n        /* \"contracts/CrowdTank.sol\":2710:2806  if (Project.amountRaised>=Project.fundingGoal) {... */\n      tag_101\n      jumpi\n        /* \"contracts/CrowdTank.sol\":2789:2793  true */\n      0x01\n        /* \"contracts/CrowdTank.sol\":2772:2779  Project */\n      dup2\n        /* \"contracts/CrowdTank.sol\":2772:2786  Project.funded */\n      0x06\n      add\n      0x00\n        /* \"contracts/CrowdTank.sol\":2772:2793  Project.funded = true */\n      0x0100\n      exp\n      dup2\n      sload\n      dup2\n      0xff\n      mul\n      not\n      and\n      swap1\n      dup4\n      iszero\n      iszero\n      mul\n      or\n      swap1\n      sstore\n      pop\n        /* \"contracts/CrowdTank.sol\":2710:2806  if (Project.amountRaised>=Project.fundingGoal) {... */\n    tag_101:\n        /* \"contracts/CrowdTank.sol\":2158:2813  {... */\n      pop\n        /* \"contracts/CrowdTank.sol\":2103:2813  function fundProject(uint _projectID) external payable {... */\n      pop\n      jump\t// out\n        /* \"contracts/CrowdTank.sol\":3519:4120  function creatorWithdraw(uint _projectID) external payable {... */\n    tag_49:\n        /* \"contracts/CrowdTank.sol\":3589:3612  project storage Project */\n      0x00\n        /* \"contracts/CrowdTank.sol\":3615:3623  Projects */\n      0x01\n        /* \"contracts/CrowdTank.sol\":3615:3635  Projects[_projectID] */\n      0x00\n        /* \"contracts/CrowdTank.sol\":3624:3634  _projectID */\n      dup4\n        /* \"contracts/CrowdTank.sol\":3615:3635  Projects[_projectID] */\n      dup2\n      mstore\n      0x20\n      add\n      swap1\n      dup2\n      mstore\n      0x20\n      add\n      0x00\n      keccak256\n        /* \"contracts/CrowdTank.sol\":3589:3635  project storage Project = Projects[_projectID] */\n      swap1\n      pop\n        /* \"contracts/CrowdTank.sol\":3646:3663  uint totalfunding */\n      0x00\n        /* \"contracts/CrowdTank.sol\":3666:3673  Project */\n      dup2\n        /* \"contracts/CrowdTank.sol\":3666:3686  Project.amountRaised */\n      0x05\n      add\n      sload\n        /* \"contracts/CrowdTank.sol\":3646:3686  uint totalfunding = Project.amountRaised */\n      swap1\n      pop\n        /* \"contracts/CrowdTank.sol\":3705:3712  Project */\n      dup2\n        /* \"contracts/CrowdTank.sol\":3705:3719  Project.funded */\n      0x06\n      add\n      0x00\n      swap1\n      sload\n      swap1\n      0x0100\n      exp\n      swap1\n      div\n      0xff\n      and\n        /* \"contracts/CrowdTank.sol\":3697:3776  require(Project.funded , \"funding goal has not reached , admin can't withdraw\") */\n      tag_103\n      jumpi\n      mload(0x40)\n      0x08c379a000000000000000000000000000000000000000000000000000000000\n      dup2\n      mstore\n      0x04\n      add\n      tag_104\n      swap1\n      tag_105\n      jump\t// in\n    tag_104:\n      mload(0x40)\n      dup1\n      swap2\n      sub\n      swap1\n      revert\n    tag_103:\n        /* \"contracts/CrowdTank.sol\":3814:3824  msg.sender */\n      caller\n        /* \"contracts/CrowdTank.sol\":3795:3824  Project.creator == msg.sender */\n      0xffffffffffffffffffffffffffffffffffffffff\n      and\n        /* \"contracts/CrowdTank.sol\":3795:3802  Project */\n      dup3\n        /* \"contracts/CrowdTank.sol\":3795:3810  Project.creator */\n      0x00\n      add\n      0x00\n      swap1\n      sload\n      swap1\n      0x0100\n      exp\n      swap1\n      div\n      0xffffffffffffffffffffffffffffffffffffffff\n      and\n        /* \"contracts/CrowdTank.sol\":3795:3824  Project.creator == msg.sender */\n      0xffffffffffffffffffffffffffffffffffffffff\n      and\n      eq\n        /* \"contracts/CrowdTank.sol\":3787:3853  require(Project.creator == msg.sender , \"only admin can withdraw\") */\n      tag_106\n      jumpi\n      mload(0x40)\n      0x08c379a000000000000000000000000000000000000000000000000000000000\n      dup2\n      mstore\n      0x04\n      add\n      tag_107\n      swap1\n      tag_108\n      jump\t// in\n    tag_107:\n      mload(0x40)\n      dup1\n      swap2\n      sub\n      swap1\n      revert\n    tag_106:\n        /* \"contracts/CrowdTank.sol\":3890:3905  block.timestamp */\n      timestamp\n        /* \"contracts/CrowdTank.sol\":3872:3879  Project */\n      dup3\n        /* \"contracts/CrowdTank.sol\":3872:3888  Project.deadline */\n      0x04\n      add\n      sload\n        /* \"contracts/CrowdTank.sol\":3872:3905  Project.deadline<=block.timestamp */\n      gt\n      iszero\n        /* \"contracts/CrowdTank.sol\":3864:3958  require(Project.deadline<=block.timestamp , \"deadline has not reached , admin can't withdraw\") */\n      tag_109\n      jumpi\n      mload(0x40)\n      0x08c379a000000000000000000000000000000000000000000000000000000000\n      dup2\n      mstore\n      0x04\n      add\n      tag_110\n      swap1\n      tag_111\n      jump\t// in\n    tag_110:\n      mload(0x40)\n      dup1\n      swap2\n      sub\n      swap1\n      revert\n    tag_109:\n        /* \"contracts/CrowdTank.sol\":3977:3987  msg.sender */\n      caller\n        /* \"contracts/CrowdTank.sol\":3969:3997  payable(msg.sender).transfer */\n      0xffffffffffffffffffffffffffffffffffffffff\n      and\n        /* \"contracts/CrowdTank.sol\":3969:4011  payable(msg.sender).transfer(totalfunding) */\n      0x08fc\n        /* \"contracts/CrowdTank.sol\":3998:4010  totalfunding */\n      dup3\n        /* \"contracts/CrowdTank.sol\":3969:4011  payable(msg.sender).transfer(totalfunding) */\n      swap1\n      dup2\n      iszero\n      mul\n      swap1\n      mload(0x40)\n      0x00\n      mload(0x40)\n      dup1\n      dup4\n      sub\n      dup2\n      dup6\n      dup9\n      dup9\n      call\n      swap4\n      pop\n      pop\n      pop\n      pop\n      iszero\n      dup1\n      iszero\n      tag_113\n      jumpi\n      returndatacopy(0x00, 0x00, returndatasize)\n      revert(0x00, returndatasize)\n    tag_113:\n      pop\n        /* \"contracts/CrowdTank.sol\":4078:4088  _projectID */\n      dup3\n        /* \"contracts/CrowdTank.sol\":4061:4112  creatorWithdrawn(_projectID, msg.sender, msg.value) */\n      0xcae030e1a3c6b0011e7009bd65734e2e1e330528f6983497631fabd47fa7a281\n        /* \"contracts/CrowdTank.sol\":4090:4100  msg.sender */\n      caller\n        /* \"contracts/CrowdTank.sol\":4102:4111  msg.value */\n      callvalue\n        /* \"contracts/CrowdTank.sol\":4061:4112  creatorWithdrawn(_projectID, msg.sender, msg.value) */\n      mload(0x40)\n      tag_114\n      swap3\n      swap2\n      swap1\n      tag_85\n      jump\t// in\n    tag_114:\n      mload(0x40)\n      dup1\n      swap2\n      sub\n      swap1\n      log2\n        /* \"contracts/CrowdTank.sol\":3578:4120  {... */\n      pop\n      pop\n        /* \"contracts/CrowdTank.sol\":3519:4120  function creatorWithdraw(uint _projectID) external payable {... */\n      pop\n      jump\t// out\n        /* \"contracts/CrowdTank.sol\":1374:2042  function createProject(string memory _name , string memory _description , uint _fundingGoal , uint _durationSeconds , uint _id) external {... */\n    tag_54:\n        /* \"contracts/CrowdTank.sol\":1531:1539  isIdUsed */\n      0x03\n        /* \"contracts/CrowdTank.sol\":1531:1544  isIdUsed[_id] */\n      0x00\n        /* \"contracts/CrowdTank.sol\":1540:1543  _id */\n      dup3\n        /* \"contracts/CrowdTank.sol\":1531:1544  isIdUsed[_id] */\n      dup2\n      mstore\n      0x20\n      add\n      swap1\n      dup2\n      mstore\n      0x20\n      add\n      0x00\n      keccak256\n      0x00\n      swap1\n      sload\n      swap1\n      0x0100\n      exp\n      swap1\n      div\n      0xff\n      and\n        /* \"contracts/CrowdTank.sol\":1530:1544  !isIdUsed[_id] */\n      iszero\n        /* \"contracts/CrowdTank.sol\":1522:1579  require(!isIdUsed[_id], \"Project ID is already in use!\" ) */\n      tag_116\n      jumpi\n      mload(0x40)\n      0x08c379a000000000000000000000000000000000000000000000000000000000\n      dup2\n      mstore\n      0x04\n      add\n      tag_117\n      swap1\n      tag_118\n      jump\t// in\n    tag_117:\n      mload(0x40)\n      dup1\n      swap2\n      sub\n      swap1\n      revert\n    tag_116:\n        /* \"contracts/CrowdTank.sol\":1606:1610  true */\n      0x01\n        /* \"contracts/CrowdTank.sol\":1590:1598  isIdUsed */\n      0x03\n        /* \"contracts/CrowdTank.sol\":1590:1603  isIdUsed[_id] */\n      0x00\n        /* \"contracts/CrowdTank.sol\":1599:1602  _id */\n      dup4\n        /* \"contracts/CrowdTank.sol\":1590:1603  isIdUsed[_id] */\n      dup2\n      mstore\n      0x20\n      add\n      swap1\n      dup2\n      mstore\n      0x20\n      add\n      0x00\n      keccak256\n      0x00\n        /* \"contracts/CrowdTank.sol\":1590:1610  isIdUsed[_id] = true */\n      0x0100\n      exp\n      dup2\n      sload\n      dup2\n      0xff\n      mul\n      not\n      and\n      swap1\n      dup4\n      iszero\n      iszero\n      mul\n      or\n      swap1\n      sstore\n      pop\n        /* \"contracts/CrowdTank.sol\":1637:1913  project({... */\n      mload(0x40)\n      dup1\n      0xe0\n      add\n      0x40\n      mstore\n      dup1\n        /* \"contracts/CrowdTank.sol\":1670:1680  msg.sender */\n      caller\n        /* \"contracts/CrowdTank.sol\":1637:1913  project({... */\n      0xffffffffffffffffffffffffffffffffffffffff\n      and\n      dup2\n      mstore\n      0x20\n      add\n        /* \"contracts/CrowdTank.sol\":1701:1706  _name */\n      dup7\n        /* \"contracts/CrowdTank.sol\":1637:1913  project({... */\n      dup2\n      mstore\n      0x20\n      add\n        /* \"contracts/CrowdTank.sol\":1734:1746  _description */\n      dup6\n        /* \"contracts/CrowdTank.sol\":1637:1913  project({... */\n      dup2\n      mstore\n      0x20\n      add\n        /* \"contracts/CrowdTank.sol\":1774:1786  _fundingGoal */\n      dup5\n        /* \"contracts/CrowdTank.sol\":1637:1913  project({... */\n      dup2\n      mstore\n      0x20\n      add\n        /* \"contracts/CrowdTank.sol\":1827:1843  _durationSeconds */\n      dup4\n        /* \"contracts/CrowdTank.sol\":1811:1826  block.timestamp */\n      timestamp\n        /* \"contracts/CrowdTank.sol\":1811:1843  block.timestamp+_durationSeconds */\n      tag_119\n      swap2\n      swap1\n      tag_98\n      jump\t// in\n    tag_119:\n        /* \"contracts/CrowdTank.sol\":1637:1913  project({... */\n      dup2\n      mstore\n      0x20\n      add\n        /* \"contracts/CrowdTank.sol\":1872:1873  0 */\n      0x00\n        /* \"contracts/CrowdTank.sol\":1637:1913  project({... */\n      dup2\n      mstore\n      0x20\n      add\n        /* \"contracts/CrowdTank.sol\":1896:1901  false */\n      0x00\n        /* \"contracts/CrowdTank.sol\":1637:1913  project({... */\n      iszero\n      iszero\n      dup2\n      mstore\n      pop\n        /* \"contracts/CrowdTank.sol\":1621:1629  Projects */\n      0x01\n        /* \"contracts/CrowdTank.sol\":1621:1634  Projects[_id] */\n      0x00\n        /* \"contracts/CrowdTank.sol\":1630:1633  _id */\n      dup4\n        /* \"contracts/CrowdTank.sol\":1621:1634  Projects[_id] */\n      dup2\n      mstore\n      0x20\n      add\n      swap1\n      dup2\n      mstore\n      0x20\n      add\n      0x00\n      keccak256\n        /* \"contracts/CrowdTank.sol\":1621:1913  Projects[_id] = project({... */\n      0x00\n      dup3\n      add\n      mload\n      dup2\n      0x00\n      add\n      exp(0x0100, 0x00)\n      dup2\n      sload\n      dup2\n      0xffffffffffffffffffffffffffffffffffffffff\n      mul\n      not\n      and\n      swap1\n      dup4\n      0xffffffffffffffffffffffffffffffffffffffff\n      and\n      mul\n      or\n      swap1\n      sstore\n      pop\n      0x20\n      dup3\n      add\n      mload\n      dup2\n      0x01\n      add\n      swap1\n      dup2\n      tag_120\n      swap2\n      swap1\n      tag_121\n      jump\t// in\n    tag_120:\n      pop\n      0x40\n      dup3\n      add\n      mload\n      dup2\n      0x02\n      add\n      swap1\n      dup2\n      tag_122\n      swap2\n      swap1\n      tag_121\n      jump\t// in\n    tag_122:\n      pop\n      0x60\n      dup3\n      add\n      mload\n      dup2\n      0x03\n      add\n      sstore\n      0x80\n      dup3\n      add\n      mload\n      dup2\n      0x04\n      add\n      sstore\n      0xa0\n      dup3\n      add\n      mload\n      dup2\n      0x05\n      add\n      sstore\n      0xc0\n      dup3\n      add\n      mload\n      dup2\n      0x06\n      add\n      exp(0x0100, 0x00)\n      dup2\n      sload\n      dup2\n      0xff\n      mul\n      not\n      and\n      swap1\n      dup4\n      iszero\n      iszero\n      mul\n      or\n      swap1\n      sstore\n      pop\n      swap1\n      pop\n      pop\n        /* \"contracts/CrowdTank.sol\":1950:1960  msg.sender */\n      caller\n        /* \"contracts/CrowdTank.sol\":1929:2034  ProjectCreated(_id , msg.sender , _name , _description , _fundingGoal , block.timestamp+_durationSeconds) */\n      0xffffffffffffffffffffffffffffffffffffffff\n      and\n        /* \"contracts/CrowdTank.sol\":1944:1947  _id */\n      dup2\n        /* \"contracts/CrowdTank.sol\":1929:2034  ProjectCreated(_id , msg.sender , _name , _description , _fundingGoal , block.timestamp+_durationSeconds) */\n      0xac9b83534845c9e785a6ea70f2d809db1d72ef9a1d981753712d922f5cb55f39\n        /* \"contracts/CrowdTank.sol\":1963:1968  _name */\n      dup8\n        /* \"contracts/CrowdTank.sol\":1971:1983  _description */\n      dup8\n        /* \"contracts/CrowdTank.sol\":1986:1998  _fundingGoal */\n      dup8\n        /* \"contracts/CrowdTank.sol\":2017:2033  _durationSeconds */\n      dup8\n        /* \"contracts/CrowdTank.sol\":2001:2016  block.timestamp */\n      timestamp\n        /* \"contracts/CrowdTank.sol\":2001:2033  block.timestamp+_durationSeconds */\n      tag_123\n      swap2\n      swap1\n      tag_98\n      jump\t// in\n    tag_123:\n        /* \"contracts/CrowdTank.sol\":1929:2034  ProjectCreated(_id , msg.sender , _name , _description , _fundingGoal , block.timestamp+_durationSeconds) */\n      mload(0x40)\n      tag_124\n      swap5\n      swap4\n      swap3\n      swap2\n      swap1\n      tag_125\n      jump\t// in\n    tag_124:\n      mload(0x40)\n      dup1\n      swap2\n      sub\n      swap1\n      log3\n        /* \"contracts/CrowdTank.sol\":1374:2042  function createProject(string memory _name , string memory _description , uint _fundingGoal , uint _durationSeconds , uint _id) external {... */\n      pop\n      pop\n      pop\n      pop\n      pop\n      jump\t// out\n        /* \"#utility.yul\":7:82   */\n    tag_126:\n        /* \"#utility.yul\":40:46   */\n      0x00\n        /* \"#utility.yul\":73:75   */\n      0x40\n        /* \"#utility.yul\":67:76   */\n      mload\n        /* \"#utility.yul\":57:76   */\n      swap1\n      pop\n        /* \"#utility.yul\":7:82   */\n      swap1\n      jump\t// out\n        /* \"#utility.yul\":88:205   */\n    tag_127:\n        /* \"#utility.yul\":197:198   */\n      0x00\n        /* \"#utility.yul\":194:195   */\n      0x00\n        /* \"#utility.yul\":187:199   */\n      revert\n        /* \"#utility.yul\":211:328   */\n    tag_128:\n        /* \"#utility.yul\":320:321   */\n      0x00\n        /* \"#utility.yul\":317:318   */\n      0x00\n        /* \"#utility.yul\":310:322   */\n      revert\n        /* \"#utility.yul\":334:411   */\n    tag_129:\n        /* \"#utility.yul\":371:378   */\n      0x00\n        /* \"#utility.yul\":400:405   */\n      dup2\n        /* \"#utility.yul\":389:405   */\n      swap1\n      pop\n        /* \"#utility.yul\":334:411   */\n      swap2\n      swap1\n      pop\n      jump\t// out\n        /* \"#utility.yul\":417:539   */\n    tag_130:\n        /* \"#utility.yul\":490:514   */\n      tag_195\n        /* \"#utility.yul\":508:513   */\n      dup2\n        /* \"#utility.yul\":490:514   */\n      tag_129\n      jump\t// in\n    tag_195:\n        /* \"#utility.yul\":483:488   */\n      dup2\n        /* \"#utility.yul\":480:515   */\n      eq\n        /* \"#utility.yul\":470:533   */\n      tag_196\n      jumpi\n        /* \"#utility.yul\":529:530   */\n      0x00\n        /* \"#utility.yul\":526:527   */\n      0x00\n        /* \"#utility.yul\":519:531   */\n      revert\n        /* \"#utility.yul\":470:533   */\n    tag_196:\n        /* \"#utility.yul\":417:539   */\n      pop\n      jump\t// out\n        /* \"#utility.yul\":545:684   */\n    tag_131:\n        /* \"#utility.yul\":591:596   */\n      0x00\n        /* \"#utility.yul\":629:635   */\n      dup2\n        /* \"#utility.yul\":616:636   */\n      calldataload\n        /* \"#utility.yul\":607:636   */\n      swap1\n      pop\n        /* \"#utility.yul\":645:678   */\n      tag_198\n        /* \"#utility.yul\":672:677   */\n      dup2\n        /* \"#utility.yul\":645:678   */\n      tag_130\n      jump\t// in\n    tag_198:\n        /* \"#utility.yul\":545:684   */\n      swap3\n      swap2\n      pop\n      pop\n      jump\t// out\n        /* \"#utility.yul\":690:1019   */\n    tag_15:\n        /* \"#utility.yul\":749:755   */\n      0x00\n        /* \"#utility.yul\":798:800   */\n      0x20\n        /* \"#utility.yul\":786:795   */\n      dup3\n        /* \"#utility.yul\":777:784   */\n      dup5\n        /* \"#utility.yul\":773:796   */\n      sub\n        /* \"#utility.yul\":769:801   */\n      slt\n        /* \"#utility.yul\":766:885   */\n      iszero\n      tag_200\n      jumpi\n        /* \"#utility.yul\":804:883   */\n      tag_201\n      tag_127\n      jump\t// in\n    tag_201:\n        /* \"#utility.yul\":766:885   */\n    tag_200:\n        /* \"#utility.yul\":924:925   */\n      0x00\n        /* \"#utility.yul\":949:1002   */\n      tag_202\n        /* \"#utility.yul\":994:1001   */\n      dup5\n        /* \"#utility.yul\":985:991   */\n      dup3\n        /* \"#utility.yul\":974:983   */\n      dup6\n        /* \"#utility.yul\":970:992   */\n      add\n        /* \"#utility.yul\":949:1002   */\n      tag_131\n      jump\t// in\n    tag_202:\n        /* \"#utility.yul\":939:1002   */\n      swap2\n      pop\n        /* \"#utility.yul\":895:1012   */\n      pop\n        /* \"#utility.yul\":690:1019   */\n      swap3\n      swap2\n      pop\n      pop\n      jump\t// out\n        /* \"#utility.yul\":1025:1143   */\n    tag_132:\n        /* \"#utility.yul\":1112:1136   */\n      tag_204\n        /* \"#utility.yul\":1130:1135   */\n      dup2\n        /* \"#utility.yul\":1112:1136   */\n      tag_129\n      jump\t// in\n    tag_204:\n        /* \"#utility.yul\":1107:1110   */\n      dup3\n        /* \"#utility.yul\":1100:1137   */\n      mstore\n        /* \"#utility.yul\":1025:1143   */\n      pop\n      pop\n      jump\t// out\n        /* \"#utility.yul\":1149:1481   */\n    tag_18:\n        /* \"#utility.yul\":1270:1274   */\n      0x00\n        /* \"#utility.yul\":1308:1310   */\n      0x40\n        /* \"#utility.yul\":1297:1306   */\n      dup3\n        /* \"#utility.yul\":1293:1311   */\n      add\n        /* \"#utility.yul\":1285:1311   */\n      swap1\n      pop\n        /* \"#utility.yul\":1321:1392   */\n      tag_206\n        /* \"#utility.yul\":1389:1390   */\n      0x00\n        /* \"#utility.yul\":1378:1387   */\n      dup4\n        /* \"#utility.yul\":1374:1391   */\n      add\n        /* \"#utility.yul\":1365:1371   */\n      dup6\n        /* \"#utility.yul\":1321:1392   */\n      tag_132\n      jump\t// in\n    tag_206:\n        /* \"#utility.yul\":1402:1474   */\n      tag_207\n        /* \"#utility.yul\":1470:1472   */\n      0x20\n        /* \"#utility.yul\":1459:1468   */\n      dup4\n        /* \"#utility.yul\":1455:1473   */\n      add\n        /* \"#utility.yul\":1446:1452   */\n      dup5\n        /* \"#utility.yul\":1402:1474   */\n      tag_132\n      jump\t// in\n    tag_207:\n        /* \"#utility.yul\":1149:1481   */\n      swap4\n      swap3\n      pop\n      pop\n      pop\n      jump\t// out\n        /* \"#utility.yul\":1487:1613   */\n    tag_133:\n        /* \"#utility.yul\":1524:1531   */\n      0x00\n        /* \"#utility.yul\":1564:1606   */\n      0xffffffffffffffffffffffffffffffffffffffff\n        /* \"#utility.yul\":1557:1562   */\n      dup3\n        /* \"#utility.yul\":1553:1607   */\n      and\n        /* \"#utility.yul\":1542:1607   */\n      swap1\n      pop\n        /* \"#utility.yul\":1487:1613   */\n      swap2\n      swap1\n      pop\n      jump\t// out\n        /* \"#utility.yul\":1619:1715   */\n    tag_134:\n        /* \"#utility.yul\":1656:1663   */\n      0x00\n        /* \"#utility.yul\":1685:1709   */\n      tag_210\n        /* \"#utility.yul\":1703:1708   */\n      dup3\n        /* \"#utility.yul\":1685:1709   */\n      tag_133\n      jump\t// in\n    tag_210:\n        /* \"#utility.yul\":1674:1709   */\n      swap1\n      pop\n        /* \"#utility.yul\":1619:1715   */\n      swap2\n      swap1\n      pop\n      jump\t// out\n        /* \"#utility.yul\":1721:1839   */\n    tag_135:\n        /* \"#utility.yul\":1808:1832   */\n      tag_212\n        /* \"#utility.yul\":1826:1831   */\n      dup2\n        /* \"#utility.yul\":1808:1832   */\n      tag_134\n      jump\t// in\n    tag_212:\n        /* \"#utility.yul\":1803:1806   */\n      dup3\n        /* \"#utility.yul\":1796:1833   */\n      mstore\n        /* \"#utility.yul\":1721:1839   */\n      pop\n      pop\n      jump\t// out\n        /* \"#utility.yul\":1845:1944   */\n    tag_136:\n        /* \"#utility.yul\":1897:1903   */\n      0x00\n        /* \"#utility.yul\":1931:1936   */\n      dup2\n        /* \"#utility.yul\":1925:1937   */\n      mload\n        /* \"#utility.yul\":1915:1937   */\n      swap1\n      pop\n        /* \"#utility.yul\":1845:1944   */\n      swap2\n      swap1\n      pop\n      jump\t// out\n        /* \"#utility.yul\":1950:2119   */\n    tag_137:\n        /* \"#utility.yul\":2034:2045   */\n      0x00\n        /* \"#utility.yul\":2068:2074   */\n      dup3\n        /* \"#utility.yul\":2063:2066   */\n      dup3\n        /* \"#utility.yul\":2056:2075   */\n      mstore\n        /* \"#utility.yul\":2108:2112   */\n      0x20\n        /* \"#utility.yul\":2103:2106   */\n      dup3\n        /* \"#utility.yul\":2099:2113   */\n      add\n        /* \"#utility.yul\":2084:2113   */\n      swap1\n      pop\n        /* \"#utility.yul\":1950:2119   */\n      swap3\n      swap2\n      pop\n      pop\n      jump\t// out\n        /* \"#utility.yul\":2125:2264   */\n    tag_138:\n        /* \"#utility.yul\":2214:2220   */\n      dup3\n        /* \"#utility.yul\":2209:2212   */\n      dup2\n        /* \"#utility.yul\":2204:2207   */\n      dup4\n        /* \"#utility.yul\":2198:2221   */\n      mcopy\n        /* \"#utility.yul\":2255:2256   */\n      0x00\n        /* \"#utility.yul\":2246:2252   */\n      dup4\n        /* \"#utility.yul\":2241:2244   */\n      dup4\n        /* \"#utility.yul\":2237:2253   */\n      add\n        /* \"#utility.yul\":2230:2257   */\n      mstore\n        /* \"#utility.yul\":2125:2264   */\n      pop\n      pop\n      pop\n      jump\t// out\n        /* \"#utility.yul\":2270:2372   */\n    tag_139:\n        /* \"#utility.yul\":2311:2317   */\n      0x00\n        /* \"#utility.yul\":2362:2364   */\n      0x1f\n        /* \"#utility.yul\":2358:2365   */\n      not\n        /* \"#utility.yul\":2353:2355   */\n      0x1f\n        /* \"#utility.yul\":2346:2351   */\n      dup4\n        /* \"#utility.yul\":2342:2356   */\n      add\n        /* \"#utility.yul\":2338:2366   */\n      and\n        /* \"#utility.yul\":2328:2366   */\n      swap1\n      pop\n        /* \"#utility.yul\":2270:2372   */\n      swap2\n      swap1\n      pop\n      jump\t// out\n        /* \"#utility.yul\":2378:2755   */\n    tag_140:\n        /* \"#utility.yul\":2466:2469   */\n      0x00\n        /* \"#utility.yul\":2494:2533   */\n      tag_218\n        /* \"#utility.yul\":2527:2532   */\n      dup3\n        /* \"#utility.yul\":2494:2533   */\n      tag_136\n      jump\t// in\n    tag_218:\n        /* \"#utility.yul\":2549:2620   */\n      tag_219\n        /* \"#utility.yul\":2613:2619   */\n      dup2\n        /* \"#utility.yul\":2608:2611   */\n      dup6\n        /* \"#utility.yul\":2549:2620   */\n      tag_137\n      jump\t// in\n    tag_219:\n        /* \"#utility.yul\":2542:2620   */\n      swap4\n      pop\n        /* \"#utility.yul\":2629:2694   */\n      tag_220\n        /* \"#utility.yul\":2687:2693   */\n      dup2\n        /* \"#utility.yul\":2682:2685   */\n      dup6\n        /* \"#utility.yul\":2675:2679   */\n      0x20\n        /* \"#utility.yul\":2668:2673   */\n      dup7\n        /* \"#utility.yul\":2664:2680   */\n      add\n        /* \"#utility.yul\":2629:2694   */\n      tag_138\n      jump\t// in\n    tag_220:\n        /* \"#utility.yul\":2719:2748   */\n      tag_221\n        /* \"#utility.yul\":2741:2747   */\n      dup2\n        /* \"#utility.yul\":2719:2748   */\n      tag_139\n      jump\t// in\n    tag_221:\n        /* \"#utility.yul\":2714:2717   */\n      dup5\n        /* \"#utility.yul\":2710:2749   */\n      add\n        /* \"#utility.yul\":2703:2749   */\n      swap2\n      pop\n        /* \"#utility.yul\":2470:2755   */\n      pop\n        /* \"#utility.yul\":2378:2755   */\n      swap3\n      swap2\n      pop\n      pop\n      jump\t// out\n        /* \"#utility.yul\":2761:2851   */\n    tag_141:\n        /* \"#utility.yul\":2795:2802   */\n      0x00\n        /* \"#utility.yul\":2838:2843   */\n      dup2\n        /* \"#utility.yul\":2831:2844   */\n      iszero\n        /* \"#utility.yul\":2824:2845   */\n      iszero\n        /* \"#utility.yul\":2813:2845   */\n      swap1\n      pop\n        /* \"#utility.yul\":2761:2851   */\n      swap2\n      swap1\n      pop\n      jump\t// out\n        /* \"#utility.yul\":2857:2966   */\n    tag_142:\n        /* \"#utility.yul\":2938:2959   */\n      tag_224\n        /* \"#utility.yul\":2953:2958   */\n      dup2\n        /* \"#utility.yul\":2938:2959   */\n      tag_141\n      jump\t// in\n    tag_224:\n        /* \"#utility.yul\":2933:2936   */\n      dup3\n        /* \"#utility.yul\":2926:2960   */\n      mstore\n        /* \"#utility.yul\":2857:2966   */\n      pop\n      pop\n      jump\t// out\n        /* \"#utility.yul\":2972:4028   */\n    tag_24:\n        /* \"#utility.yul\":3267:3271   */\n      0x00\n        /* \"#utility.yul\":3305:3308   */\n      0xe0\n        /* \"#utility.yul\":3294:3303   */\n      dup3\n        /* \"#utility.yul\":3290:3309   */\n      add\n        /* \"#utility.yul\":3282:3309   */\n      swap1\n      pop\n        /* \"#utility.yul\":3319:3390   */\n      tag_226\n        /* \"#utility.yul\":3387:3388   */\n      0x00\n        /* \"#utility.yul\":3376:3385   */\n      dup4\n        /* \"#utility.yul\":3372:3389   */\n      add\n        /* \"#utility.yul\":3363:3369   */\n      dup11\n        /* \"#utility.yul\":3319:3390   */\n      tag_135\n      jump\t// in\n    tag_226:\n        /* \"#utility.yul\":3437:3446   */\n      dup2\n        /* \"#utility.yul\":3431:3435   */\n      dup2\n        /* \"#utility.yul\":3427:3447   */\n      sub\n        /* \"#utility.yul\":3422:3424   */\n      0x20\n        /* \"#utility.yul\":3411:3420   */\n      dup4\n        /* \"#utility.yul\":3407:3425   */\n      add\n        /* \"#utility.yul\":3400:3448   */\n      mstore\n        /* \"#utility.yul\":3465:3543   */\n      tag_227\n        /* \"#utility.yul\":3538:3542   */\n      dup2\n        /* \"#utility.yul\":3529:3535   */\n      dup10\n        /* \"#utility.yul\":3465:3543   */\n      tag_140\n      jump\t// in\n    tag_227:\n        /* \"#utility.yul\":3457:3543   */\n      swap1\n      pop\n        /* \"#utility.yul\":3590:3599   */\n      dup2\n        /* \"#utility.yul\":3584:3588   */\n      dup2\n        /* \"#utility.yul\":3580:3600   */\n      sub\n        /* \"#utility.yul\":3575:3577   */\n      0x40\n        /* \"#utility.yul\":3564:3573   */\n      dup4\n        /* \"#utility.yul\":3560:3578   */\n      add\n        /* \"#utility.yul\":3553:3601   */\n      mstore\n        /* \"#utility.yul\":3618:3696   */\n      tag_228\n        /* \"#utility.yul\":3691:3695   */\n      dup2\n        /* \"#utility.yul\":3682:3688   */\n      dup9\n        /* \"#utility.yul\":3618:3696   */\n      tag_140\n      jump\t// in\n    tag_228:\n        /* \"#utility.yul\":3610:3696   */\n      swap1\n      pop\n        /* \"#utility.yul\":3706:3778   */\n      tag_229\n        /* \"#utility.yul\":3774:3776   */\n      0x60\n        /* \"#utility.yul\":3763:3772   */\n      dup4\n        /* \"#utility.yul\":3759:3777   */\n      add\n        /* \"#utility.yul\":3750:3756   */\n      dup8\n        /* \"#utility.yul\":3706:3778   */\n      tag_132\n      jump\t// in\n    tag_229:\n        /* \"#utility.yul\":3788:3861   */\n      tag_230\n        /* \"#utility.yul\":3856:3859   */\n      0x80\n        /* \"#utility.yul\":3845:3854   */\n      dup4\n        /* \"#utility.yul\":3841:3860   */\n      add\n        /* \"#utility.yul\":3832:3838   */\n      dup7\n        /* \"#utility.yul\":3788:3861   */\n      tag_132\n      jump\t// in\n    tag_230:\n        /* \"#utility.yul\":3871:3944   */\n      tag_231\n        /* \"#utility.yul\":3939:3942   */\n      0xa0\n        /* \"#utility.yul\":3928:3937   */\n      dup4\n        /* \"#utility.yul\":3924:3943   */\n      add\n        /* \"#utility.yul\":3915:3921   */\n      dup6\n        /* \"#utility.yul\":3871:3944   */\n      tag_132\n      jump\t// in\n    tag_231:\n        /* \"#utility.yul\":3954:4021   */\n      tag_232\n        /* \"#utility.yul\":4016:4019   */\n      0xc0\n        /* \"#utility.yul\":4005:4014   */\n      dup4\n        /* \"#utility.yul\":4001:4020   */\n      add\n        /* \"#utility.yul\":3992:3998   */\n      dup5\n        /* \"#utility.yul\":3954:4021   */\n      tag_142\n      jump\t// in\n    tag_232:\n        /* \"#utility.yul\":2972:4028   */\n      swap9\n      swap8\n      pop\n      pop\n      pop\n      pop\n      pop\n      pop\n      pop\n      pop\n      jump\t// out\n        /* \"#utility.yul\":4034:4256   */\n    tag_30:\n        /* \"#utility.yul\":4127:4131   */\n      0x00\n        /* \"#utility.yul\":4165:4167   */\n      0x20\n        /* \"#utility.yul\":4154:4163   */\n      dup3\n        /* \"#utility.yul\":4150:4168   */\n      add\n        /* \"#utility.yul\":4142:4168   */\n      swap1\n      pop\n        /* \"#utility.yul\":4178:4249   */\n      tag_234\n        /* \"#utility.yul\":4246:4247   */\n      0x00\n        /* \"#utility.yul\":4235:4244   */\n      dup4\n        /* \"#utility.yul\":4231:4248   */\n      add\n        /* \"#utility.yul\":4222:4228   */\n      dup5\n        /* \"#utility.yul\":4178:4249   */\n      tag_132\n      jump\t// in\n    tag_234:\n        /* \"#utility.yul\":4034:4256   */\n      swap3\n      swap2\n      pop\n      pop\n      jump\t// out\n        /* \"#utility.yul\":4262:4384   */\n    tag_143:\n        /* \"#utility.yul\":4335:4359   */\n      tag_236\n        /* \"#utility.yul\":4353:4358   */\n      dup2\n        /* \"#utility.yul\":4335:4359   */\n      tag_134\n      jump\t// in\n    tag_236:\n        /* \"#utility.yul\":4328:4333   */\n      dup2\n        /* \"#utility.yul\":4325:4360   */\n      eq\n        /* \"#utility.yul\":4315:4378   */\n      tag_237\n      jumpi\n        /* \"#utility.yul\":4374:4375   */\n      0x00\n        /* \"#utility.yul\":4371:4372   */\n      0x00\n        /* \"#utility.yul\":4364:4376   */\n      revert\n        /* \"#utility.yul\":4315:4378   */\n    tag_237:\n        /* \"#utility.yul\":4262:4384   */\n      pop\n      jump\t// out\n        /* \"#utility.yul\":4390:4529   */\n    tag_144:\n        /* \"#utility.yul\":4436:4441   */\n      0x00\n        /* \"#utility.yul\":4474:4480   */\n      dup2\n        /* \"#utility.yul\":4461:4481   */\n      calldataload\n        /* \"#utility.yul\":4452:4481   */\n      swap1\n      pop\n        /* \"#utility.yul\":4490:4523   */\n      tag_239\n        /* \"#utility.yul\":4517:4522   */\n      dup2\n        /* \"#utility.yul\":4490:4523   */\n      tag_143\n      jump\t// in\n    tag_239:\n        /* \"#utility.yul\":4390:4529   */\n      swap3\n      swap2\n      pop\n      pop\n      jump\t// out\n        /* \"#utility.yul\":4535:5009   */\n    tag_41:\n        /* \"#utility.yul\":4603:4609   */\n      0x00\n        /* \"#utility.yul\":4611:4617   */\n      0x00\n        /* \"#utility.yul\":4660:4662   */\n      0x40\n        /* \"#utility.yul\":4648:4657   */\n      dup4\n        /* \"#utility.yul\":4639:4646   */\n      dup6\n        /* \"#utility.yul\":4635:4658   */\n      sub\n        /* \"#utility.yul\":4631:4663   */\n      slt\n        /* \"#utility.yul\":4628:4747   */\n      iszero\n      tag_241\n      jumpi\n        /* \"#utility.yul\":4666:4745   */\n      tag_242\n      tag_127\n      jump\t// in\n    tag_242:\n        /* \"#utility.yul\":4628:4747   */\n    tag_241:\n        /* \"#utility.yul\":4786:4787   */\n      0x00\n        /* \"#utility.yul\":4811:4864   */\n      tag_243\n        /* \"#utility.yul\":4856:4863   */\n      dup6\n        /* \"#utility.yul\":4847:4853   */\n      dup3\n        /* \"#utility.yul\":4836:4845   */\n      dup7\n        /* \"#utility.yul\":4832:4854   */\n      add\n        /* \"#utility.yul\":4811:4864   */\n      tag_131\n      jump\t// in\n    tag_243:\n        /* \"#utility.yul\":4801:4864   */\n      swap3\n      pop\n        /* \"#utility.yul\":4757:4874   */\n      pop\n        /* \"#utility.yul\":4913:4915   */\n      0x20\n        /* \"#utility.yul\":4939:4992   */\n      tag_244\n        /* \"#utility.yul\":4984:4991   */\n      dup6\n        /* \"#utility.yul\":4975:4981   */\n      dup3\n        /* \"#utility.yul\":4964:4973   */\n      dup7\n        /* \"#utility.yul\":4960:4982   */\n      add\n        /* \"#utility.yul\":4939:4992   */\n      tag_144\n      jump\t// in\n    tag_244:\n        /* \"#utility.yul\":4929:4992   */\n      swap2\n      pop\n        /* \"#utility.yul\":4884:5002   */\n      pop\n        /* \"#utility.yul\":4535:5009   */\n      swap3\n      pop\n      swap3\n      swap1\n      pop\n      jump\t// out\n        /* \"#utility.yul\":5015:5132   */\n    tag_145:\n        /* \"#utility.yul\":5124:5125   */\n      0x00\n        /* \"#utility.yul\":5121:5122   */\n      0x00\n        /* \"#utility.yul\":5114:5126   */\n      revert\n        /* \"#utility.yul\":5138:5255   */\n    tag_146:\n        /* \"#utility.yul\":5247:5248   */\n      0x00\n        /* \"#utility.yul\":5244:5245   */\n      0x00\n        /* \"#utility.yul\":5237:5249   */\n      revert\n        /* \"#utility.yul\":5261:5441   */\n    tag_147:\n        /* \"#utility.yul\":5309:5386   */\n      0x4e487b7100000000000000000000000000000000000000000000000000000000\n        /* \"#utility.yul\":5306:5307   */\n      0x00\n        /* \"#utility.yul\":5299:5387   */\n      mstore\n        /* \"#utility.yul\":5406:5410   */\n      0x41\n        /* \"#utility.yul\":5403:5404   */\n      0x04\n        /* \"#utility.yul\":5396:5411   */\n      mstore\n        /* \"#utility.yul\":5430:5434   */\n      0x24\n        /* \"#utility.yul\":5427:5428   */\n      0x00\n        /* \"#utility.yul\":5420:5435   */\n      revert\n        /* \"#utility.yul\":5447:5728   */\n    tag_148:\n        /* \"#utility.yul\":5530:5557   */\n      tag_249\n        /* \"#utility.yul\":5552:5556   */\n      dup3\n        /* \"#utility.yul\":5530:5557   */\n      tag_139\n      jump\t// in\n    tag_249:\n        /* \"#utility.yul\":5522:5528   */\n      dup2\n        /* \"#utility.yul\":5518:5558   */\n      add\n        /* \"#utility.yul\":5660:5666   */\n      dup2\n        /* \"#utility.yul\":5648:5658   */\n      dup2\n        /* \"#utility.yul\":5645:5667   */\n      lt\n        /* \"#utility.yul\":5624:5642   */\n      0xffffffffffffffff\n        /* \"#utility.yul\":5612:5622   */\n      dup3\n        /* \"#utility.yul\":5609:5643   */\n      gt\n        /* \"#utility.yul\":5606:5668   */\n      or\n        /* \"#utility.yul\":5603:5691   */\n      iszero\n      tag_250\n      jumpi\n        /* \"#utility.yul\":5671:5689   */\n      tag_251\n      tag_147\n      jump\t// in\n    tag_251:\n        /* \"#utility.yul\":5603:5691   */\n    tag_250:\n        /* \"#utility.yul\":5711:5721   */\n      dup1\n        /* \"#utility.yul\":5707:5709   */\n      0x40\n        /* \"#utility.yul\":5700:5722   */\n      mstore\n        /* \"#utility.yul\":5490:5728   */\n      pop\n        /* \"#utility.yul\":5447:5728   */\n      pop\n      pop\n      jump\t// out\n        /* \"#utility.yul\":5734:5863   */\n    tag_149:\n        /* \"#utility.yul\":5768:5774   */\n      0x00\n        /* \"#utility.yul\":5795:5815   */\n      tag_253\n      tag_126\n      jump\t// in\n    tag_253:\n        /* \"#utility.yul\":5785:5815   */\n      swap1\n      pop\n        /* \"#utility.yul\":5824:5857   */\n      tag_254\n        /* \"#utility.yul\":5852:5856   */\n      dup3\n        /* \"#utility.yul\":5844:5850   */\n      dup3\n        /* \"#utility.yul\":5824:5857   */\n      tag_148\n      jump\t// in\n    tag_254:\n        /* \"#utility.yul\":5734:5863   */\n      swap2\n      swap1\n      pop\n      jump\t// out\n        /* \"#utility.yul\":5869:6177   */\n    tag_150:\n        /* \"#utility.yul\":5931:5935   */\n      0x00\n        /* \"#utility.yul\":6021:6039   */\n      0xffffffffffffffff\n        /* \"#utility.yul\":6013:6019   */\n      dup3\n        /* \"#utility.yul\":6010:6040   */\n      gt\n        /* \"#utility.yul\":6007:6063   */\n      iszero\n      tag_256\n      jumpi\n        /* \"#utility.yul\":6043:6061   */\n      tag_257\n      tag_147\n      jump\t// in\n    tag_257:\n        /* \"#utility.yul\":6007:6063   */\n    tag_256:\n        /* \"#utility.yul\":6081:6110   */\n      tag_258\n        /* \"#utility.yul\":6103:6109   */\n      dup3\n        /* \"#utility.yul\":6081:6110   */\n      tag_139\n      jump\t// in\n    tag_258:\n        /* \"#utility.yul\":6073:6110   */\n      swap1\n      pop\n        /* \"#utility.yul\":6165:6169   */\n      0x20\n        /* \"#utility.yul\":6159:6163   */\n      dup2\n        /* \"#utility.yul\":6155:6170   */\n      add\n        /* \"#utility.yul\":6147:6170   */\n      swap1\n      pop\n        /* \"#utility.yul\":5869:6177   */\n      swap2\n      swap1\n      pop\n      jump\t// out\n        /* \"#utility.yul\":6183:6331   */\n    tag_151:\n        /* \"#utility.yul\":6281:6287   */\n      dup3\n        /* \"#utility.yul\":6276:6279   */\n      dup2\n        /* \"#utility.yul\":6271:6274   */\n      dup4\n        /* \"#utility.yul\":6258:6288   */\n      calldatacopy\n        /* \"#utility.yul\":6322:6323   */\n      0x00\n        /* \"#utility.yul\":6313:6319   */\n      dup4\n        /* \"#utility.yul\":6308:6311   */\n      dup4\n        /* \"#utility.yul\":6304:6320   */\n      add\n        /* \"#utility.yul\":6297:6324   */\n      mstore\n        /* \"#utility.yul\":6183:6331   */\n      pop\n      pop\n      pop\n      jump\t// out\n        /* \"#utility.yul\":6337:6762   */\n    tag_152:\n        /* \"#utility.yul\":6415:6420   */\n      0x00\n        /* \"#utility.yul\":6440:6506   */\n      tag_261\n        /* \"#utility.yul\":6456:6505   */\n      tag_262\n        /* \"#utility.yul\":6498:6504   */\n      dup5\n        /* \"#utility.yul\":6456:6505   */\n      tag_150\n      jump\t// in\n    tag_262:\n        /* \"#utility.yul\":6440:6506   */\n      tag_149\n      jump\t// in\n    tag_261:\n        /* \"#utility.yul\":6431:6506   */\n      swap1\n      pop\n        /* \"#utility.yul\":6529:6535   */\n      dup3\n        /* \"#utility.yul\":6522:6527   */\n      dup2\n        /* \"#utility.yul\":6515:6536   */\n      mstore\n        /* \"#utility.yul\":6567:6571   */\n      0x20\n        /* \"#utility.yul\":6560:6565   */\n      dup2\n        /* \"#utility.yul\":6556:6572   */\n      add\n        /* \"#utility.yul\":6605:6608   */\n      dup5\n        /* \"#utility.yul\":6596:6602   */\n      dup5\n        /* \"#utility.yul\":6591:6594   */\n      dup5\n        /* \"#utility.yul\":6587:6603   */\n      add\n        /* \"#utility.yul\":6584:6609   */\n      gt\n        /* \"#utility.yul\":6581:6693   */\n      iszero\n      tag_263\n      jumpi\n        /* \"#utility.yul\":6612:6691   */\n      tag_264\n      tag_146\n      jump\t// in\n    tag_264:\n        /* \"#utility.yul\":6581:6693   */\n    tag_263:\n        /* \"#utility.yul\":6702:6756   */\n      tag_265\n        /* \"#utility.yul\":6749:6755   */\n      dup5\n        /* \"#utility.yul\":6744:6747   */\n      dup3\n        /* \"#utility.yul\":6739:6742   */\n      dup6\n        /* \"#utility.yul\":6702:6756   */\n      tag_151\n      jump\t// in\n    tag_265:\n        /* \"#utility.yul\":6421:6762   */\n      pop\n        /* \"#utility.yul\":6337:6762   */\n      swap4\n      swap3\n      pop\n      pop\n      pop\n      jump\t// out\n        /* \"#utility.yul\":6782:7122   */\n    tag_153:\n        /* \"#utility.yul\":6838:6843   */\n      0x00\n        /* \"#utility.yul\":6887:6890   */\n      dup3\n        /* \"#utility.yul\":6880:6884   */\n      0x1f\n        /* \"#utility.yul\":6872:6878   */\n      dup4\n        /* \"#utility.yul\":6868:6885   */\n      add\n        /* \"#utility.yul\":6864:6891   */\n      slt\n        /* \"#utility.yul\":6854:6976   */\n      tag_267\n      jumpi\n        /* \"#utility.yul\":6895:6974   */\n      tag_268\n      tag_145\n      jump\t// in\n    tag_268:\n        /* \"#utility.yul\":6854:6976   */\n    tag_267:\n        /* \"#utility.yul\":7012:7018   */\n      dup2\n        /* \"#utility.yul\":6999:7019   */\n      calldataload\n        /* \"#utility.yul\":7037:7116   */\n      tag_269\n        /* \"#utility.yul\":7112:7115   */\n      dup5\n        /* \"#utility.yul\":7104:7110   */\n      dup3\n        /* \"#utility.yul\":7097:7101   */\n      0x20\n        /* \"#utility.yul\":7089:7095   */\n      dup7\n        /* \"#utility.yul\":7085:7102   */\n      add\n        /* \"#utility.yul\":7037:7116   */\n      tag_152\n      jump\t// in\n    tag_269:\n        /* \"#utility.yul\":7028:7116   */\n      swap2\n      pop\n        /* \"#utility.yul\":6844:7122   */\n      pop\n        /* \"#utility.yul\":6782:7122   */\n      swap3\n      swap2\n      pop\n      pop\n      jump\t// out\n        /* \"#utility.yul\":7128:8399   */\n    tag_53:\n        /* \"#utility.yul\":7243:7249   */\n      0x00\n        /* \"#utility.yul\":7251:7257   */\n      0x00\n        /* \"#utility.yul\":7259:7265   */\n      0x00\n        /* \"#utility.yul\":7267:7273   */\n      0x00\n        /* \"#utility.yul\":7275:7281   */\n      0x00\n        /* \"#utility.yul\":7324:7327   */\n      0xa0\n        /* \"#utility.yul\":7312:7321   */\n      dup7\n        /* \"#utility.yul\":7303:7310   */\n      dup9\n        /* \"#utility.yul\":7299:7322   */\n      sub\n        /* \"#utility.yul\":7295:7328   */\n      slt\n        /* \"#utility.yul\":7292:7412   */\n      iszero\n      tag_271\n      jumpi\n        /* \"#utility.yul\":7331:7410   */\n      tag_272\n      tag_127\n      jump\t// in\n    tag_272:\n        /* \"#utility.yul\":7292:7412   */\n    tag_271:\n        /* \"#utility.yul\":7479:7480   */\n      0x00\n        /* \"#utility.yul\":7468:7477   */\n      dup7\n        /* \"#utility.yul\":7464:7481   */\n      add\n        /* \"#utility.yul\":7451:7482   */\n      calldataload\n        /* \"#utility.yul\":7509:7527   */\n      0xffffffffffffffff\n        /* \"#utility.yul\":7501:7507   */\n      dup2\n        /* \"#utility.yul\":7498:7528   */\n      gt\n        /* \"#utility.yul\":7495:7612   */\n      iszero\n      tag_273\n      jumpi\n        /* \"#utility.yul\":7531:7610   */\n      tag_274\n      tag_128\n      jump\t// in\n    tag_274:\n        /* \"#utility.yul\":7495:7612   */\n    tag_273:\n        /* \"#utility.yul\":7636:7699   */\n      tag_275\n        /* \"#utility.yul\":7691:7698   */\n      dup9\n        /* \"#utility.yul\":7682:7688   */\n      dup3\n        /* \"#utility.yul\":7671:7680   */\n      dup10\n        /* \"#utility.yul\":7667:7689   */\n      add\n        /* \"#utility.yul\":7636:7699   */\n      tag_153\n      jump\t// in\n    tag_275:\n        /* \"#utility.yul\":7626:7699   */\n      swap6\n      pop\n        /* \"#utility.yul\":7422:7709   */\n      pop\n        /* \"#utility.yul\":7776:7778   */\n      0x20\n        /* \"#utility.yul\":7765:7774   */\n      dup7\n        /* \"#utility.yul\":7761:7779   */\n      add\n        /* \"#utility.yul\":7748:7780   */\n      calldataload\n        /* \"#utility.yul\":7807:7825   */\n      0xffffffffffffffff\n        /* \"#utility.yul\":7799:7805   */\n      dup2\n        /* \"#utility.yul\":7796:7826   */\n      gt\n        /* \"#utility.yul\":7793:7910   */\n      iszero\n      tag_276\n      jumpi\n        /* \"#utility.yul\":7829:7908   */\n      tag_277\n      tag_128\n      jump\t// in\n    tag_277:\n        /* \"#utility.yul\":7793:7910   */\n    tag_276:\n        /* \"#utility.yul\":7934:7997   */\n      tag_278\n        /* \"#utility.yul\":7989:7996   */\n      dup9\n        /* \"#utility.yul\":7980:7986   */\n      dup3\n        /* \"#utility.yul\":7969:7978   */\n      dup10\n        /* \"#utility.yul\":7965:7987   */\n      add\n        /* \"#utility.yul\":7934:7997   */\n      tag_153\n      jump\t// in\n    tag_278:\n        /* \"#utility.yul\":7924:7997   */\n      swap5\n      pop\n        /* \"#utility.yul\":7719:8007   */\n      pop\n        /* \"#utility.yul\":8046:8048   */\n      0x40\n        /* \"#utility.yul\":8072:8125   */\n      tag_279\n        /* \"#utility.yul\":8117:8124   */\n      dup9\n        /* \"#utility.yul\":8108:8114   */\n      dup3\n        /* \"#utility.yul\":8097:8106   */\n      dup10\n        /* \"#utility.yul\":8093:8115   */\n      add\n        /* \"#utility.yul\":8072:8125   */\n      tag_131\n      jump\t// in\n    tag_279:\n        /* \"#utility.yul\":8062:8125   */\n      swap4\n      pop\n        /* \"#utility.yul\":8017:8135   */\n      pop\n        /* \"#utility.yul\":8174:8176   */\n      0x60\n        /* \"#utility.yul\":8200:8253   */\n      tag_280\n        /* \"#utility.yul\":8245:8252   */\n      dup9\n        /* \"#utility.yul\":8236:8242   */\n      dup3\n        /* \"#utility.yul\":8225:8234   */\n      dup10\n        /* \"#utility.yul\":8221:8243   */\n      add\n        /* \"#utility.yul\":8200:8253   */\n      tag_131\n      jump\t// in\n    tag_280:\n        /* \"#utility.yul\":8190:8253   */\n      swap3\n      pop\n        /* \"#utility.yul\":8145:8263   */\n      pop\n        /* \"#utility.yul\":8302:8305   */\n      0x80\n        /* \"#utility.yul\":8329:8382   */\n      tag_281\n        /* \"#utility.yul\":8374:8381   */\n      dup9\n        /* \"#utility.yul\":8365:8371   */\n      dup3\n        /* \"#utility.yul\":8354:8363   */\n      dup10\n        /* \"#utility.yul\":8350:8372   */\n      add\n        /* \"#utility.yul\":8329:8382   */\n      tag_131\n      jump\t// in\n    tag_281:\n        /* \"#utility.yul\":8319:8382   */\n      swap2\n      pop\n        /* \"#utility.yul\":8273:8392   */\n      pop\n        /* \"#utility.yul\":7128:8399   */\n      swap3\n      swap6\n      pop\n      swap3\n      swap6\n      swap1\n      swap4\n      pop\n      jump\t// out\n        /* \"#utility.yul\":8405:8625   */\n    tag_154:\n        /* \"#utility.yul\":8545:8579   */\n      0x70726f6a65637420686173206e6f74206265656e206372656174656420796574\n        /* \"#utility.yul\":8541:8542   */\n      0x00\n        /* \"#utility.yul\":8533:8539   */\n      dup3\n        /* \"#utility.yul\":8529:8543   */\n      add\n        /* \"#utility.yul\":8522:8580   */\n      mstore\n        /* \"#utility.yul\":8614:8617   */\n      0x2100000000000000000000000000000000000000000000000000000000000000\n        /* \"#utility.yul\":8609:8611   */\n      0x20\n        /* \"#utility.yul\":8601:8607   */\n      dup3\n        /* \"#utility.yul\":8597:8612   */\n      add\n        /* \"#utility.yul\":8590:8618   */\n      mstore\n        /* \"#utility.yul\":8405:8625   */\n      pop\n      jump\t// out\n        /* \"#utility.yul\":8631:8997   */\n    tag_155:\n        /* \"#utility.yul\":8773:8776   */\n      0x00\n        /* \"#utility.yul\":8794:8861   */\n      tag_284\n        /* \"#utility.yul\":8858:8860   */\n      0x21\n        /* \"#utility.yul\":8853:8856   */\n      dup4\n        /* \"#utility.yul\":8794:8861   */\n      tag_137\n      jump\t// in\n    tag_284:\n        /* \"#utility.yul\":8787:8861   */\n      swap2\n      pop\n        /* \"#utility.yul\":8870:8963   */\n      tag_285\n        /* \"#utility.yul\":8959:8962   */\n      dup3\n        /* \"#utility.yul\":8870:8963   */\n      tag_154\n      jump\t// in\n    tag_285:\n        /* \"#utility.yul\":8988:8990   */\n      0x40\n        /* \"#utility.yul\":8983:8986   */\n      dup3\n        /* \"#utility.yul\":8979:8991   */\n      add\n        /* \"#utility.yul\":8972:8991   */\n      swap1\n      pop\n        /* \"#utility.yul\":8631:8997   */\n      swap2\n      swap1\n      pop\n      jump\t// out\n        /* \"#utility.yul\":9003:9422   */\n    tag_58:\n        /* \"#utility.yul\":9169:9173   */\n      0x00\n        /* \"#utility.yul\":9207:9209   */\n      0x20\n        /* \"#utility.yul\":9196:9205   */\n      dup3\n        /* \"#utility.yul\":9192:9210   */\n      add\n        /* \"#utility.yul\":9184:9210   */\n      swap1\n      pop\n        /* \"#utility.yul\":9256:9265   */\n      dup2\n        /* \"#utility.yul\":9250:9254   */\n      dup2\n        /* \"#utility.yul\":9246:9266   */\n      sub\n        /* \"#utility.yul\":9242:9243   */\n      0x00\n        /* \"#utility.yul\":9231:9240   */\n      dup4\n        /* \"#utility.yul\":9227:9244   */\n      add\n        /* \"#utility.yul\":9220:9267   */\n      mstore\n        /* \"#utility.yul\":9284:9415   */\n      tag_287\n        /* \"#utility.yul\":9410:9414   */\n      dup2\n        /* \"#utility.yul\":9284:9415   */\n      tag_155\n      jump\t// in\n    tag_287:\n        /* \"#utility.yul\":9276:9415   */\n      swap1\n      pop\n        /* \"#utility.yul\":9003:9422   */\n      swap2\n      swap1\n      pop\n      jump\t// out\n        /* \"#utility.yul\":9428:9608   */\n    tag_156:\n        /* \"#utility.yul\":9476:9553   */\n      0x4e487b7100000000000000000000000000000000000000000000000000000000\n        /* \"#utility.yul\":9473:9474   */\n      0x00\n        /* \"#utility.yul\":9466:9554   */\n      mstore\n        /* \"#utility.yul\":9573:9577   */\n      0x11\n        /* \"#utility.yul\":9570:9571   */\n      0x04\n        /* \"#utility.yul\":9563:9578   */\n      mstore\n        /* \"#utility.yul\":9597:9601   */\n      0x24\n        /* \"#utility.yul\":9594:9595   */\n      0x00\n        /* \"#utility.yul\":9587:9602   */\n      revert\n        /* \"#utility.yul\":9614:9808   */\n    tag_62:\n        /* \"#utility.yul\":9654:9658   */\n      0x00\n        /* \"#utility.yul\":9674:9694   */\n      tag_290\n        /* \"#utility.yul\":9692:9693   */\n      dup3\n        /* \"#utility.yul\":9674:9694   */\n      tag_129\n      jump\t// in\n    tag_290:\n        /* \"#utility.yul\":9669:9694   */\n      swap2\n      pop\n        /* \"#utility.yul\":9708:9728   */\n      tag_291\n        /* \"#utility.yul\":9726:9727   */\n      dup4\n        /* \"#utility.yul\":9708:9728   */\n      tag_129\n      jump\t// in\n    tag_291:\n        /* \"#utility.yul\":9703:9728   */\n      swap3\n      pop\n        /* \"#utility.yul\":9752:9753   */\n      dup3\n        /* \"#utility.yul\":9749:9750   */\n      dup3\n        /* \"#utility.yul\":9745:9754   */\n      sub\n        /* \"#utility.yul\":9737:9754   */\n      swap1\n      pop\n        /* \"#utility.yul\":9776:9777   */\n      dup2\n        /* \"#utility.yul\":9770:9774   */\n      dup2\n        /* \"#utility.yul\":9767:9778   */\n      gt\n        /* \"#utility.yul\":9764:9801   */\n      iszero\n      tag_292\n      jumpi\n        /* \"#utility.yul\":9781:9799   */\n      tag_293\n      tag_156\n      jump\t// in\n    tag_293:\n        /* \"#utility.yul\":9764:9801   */\n    tag_292:\n        /* \"#utility.yul\":9614:9808   */\n      swap3\n      swap2\n      pop\n      pop\n      jump\t// out\n        /* \"#utility.yul\":9814:9994   */\n    tag_157:\n        /* \"#utility.yul\":9862:9939   */\n      0x4e487b7100000000000000000000000000000000000000000000000000000000\n        /* \"#utility.yul\":9859:9860   */\n      0x00\n        /* \"#utility.yul\":9852:9940   */\n      mstore\n        /* \"#utility.yul\":9959:9963   */\n      0x22\n        /* \"#utility.yul\":9956:9957   */\n      0x04\n        /* \"#utility.yul\":9949:9964   */\n      mstore\n        /* \"#utility.yul\":9983:9987   */\n      0x24\n        /* \"#utility.yul\":9980:9981   */\n      0x00\n        /* \"#utility.yul\":9973:9988   */\n      revert\n        /* \"#utility.yul\":10000:10320   */\n    tag_64:\n        /* \"#utility.yul\":10044:10050   */\n      0x00\n        /* \"#utility.yul\":10081:10082   */\n      0x02\n        /* \"#utility.yul\":10075:10079   */\n      dup3\n        /* \"#utility.yul\":10071:10083   */\n      div\n        /* \"#utility.yul\":10061:10083   */\n      swap1\n      pop\n        /* \"#utility.yul\":10128:10129   */\n      0x01\n        /* \"#utility.yul\":10122:10126   */\n      dup3\n        /* \"#utility.yul\":10118:10130   */\n      and\n        /* \"#utility.yul\":10149:10167   */\n      dup1\n        /* \"#utility.yul\":10139:10220   */\n      tag_296\n      jumpi\n        /* \"#utility.yul\":10205:10209   */\n      0x7f\n        /* \"#utility.yul\":10197:10203   */\n      dup3\n        /* \"#utility.yul\":10193:10210   */\n      and\n        /* \"#utility.yul\":10183:10210   */\n      swap2\n      pop\n        /* \"#utility.yul\":10139:10220   */\n    tag_296:\n        /* \"#utility.yul\":10267:10269   */\n      0x20\n        /* \"#utility.yul\":10259:10265   */\n      dup3\n        /* \"#utility.yul\":10256:10270   */\n      lt\n        /* \"#utility.yul\":10236:10254   */\n      dup2\n        /* \"#utility.yul\":10233:10271   */\n      sub\n        /* \"#utility.yul\":10230:10314   */\n      tag_297\n      jumpi\n        /* \"#utility.yul\":10286:10304   */\n      tag_298\n      tag_157\n      jump\t// in\n    tag_298:\n        /* \"#utility.yul\":10230:10314   */\n    tag_297:\n        /* \"#utility.yul\":10051:10320   */\n      pop\n        /* \"#utility.yul\":10000:10320   */\n      swap2\n      swap1\n      pop\n      jump\t// out\n        /* \"#utility.yul\":10326:10559   */\n    tag_158:\n        /* \"#utility.yul\":10466:10500   */\n      0x46756e64696e6720676f616c206861732072656163686564202c207573657220\n        /* \"#utility.yul\":10462:10463   */\n      0x00\n        /* \"#utility.yul\":10454:10460   */\n      dup3\n        /* \"#utility.yul\":10450:10464   */\n      add\n        /* \"#utility.yul\":10443:10501   */\n      mstore\n        /* \"#utility.yul\":10535:10551   */\n      0x63616e2774207769746864726177000000000000000000000000000000000000\n        /* \"#utility.yul\":10530:10532   */\n      0x20\n        /* \"#utility.yul\":10522:10528   */\n      dup3\n        /* \"#utility.yul\":10518:10533   */\n      add\n        /* \"#utility.yul\":10511:10552   */\n      mstore\n        /* \"#utility.yul\":10326:10559   */\n      pop\n      jump\t// out\n        /* \"#utility.yul\":10565:10931   */\n    tag_159:\n        /* \"#utility.yul\":10707:10710   */\n      0x00\n        /* \"#utility.yul\":10728:10795   */\n      tag_301\n        /* \"#utility.yul\":10792:10794   */\n      0x2e\n        /* \"#utility.yul\":10787:10790   */\n      dup4\n        /* \"#utility.yul\":10728:10795   */\n      tag_137\n      jump\t// in\n    tag_301:\n        /* \"#utility.yul\":10721:10795   */\n      swap2\n      pop\n        /* \"#utility.yul\":10804:10897   */\n      tag_302\n        /* \"#utility.yul\":10893:10896   */\n      dup3\n        /* \"#utility.yul\":10804:10897   */\n      tag_158\n      jump\t// in\n    tag_302:\n        /* \"#utility.yul\":10922:10924   */\n      0x40\n        /* \"#utility.yul\":10917:10920   */\n      dup3\n        /* \"#utility.yul\":10913:10925   */\n      add\n        /* \"#utility.yul\":10906:10925   */\n      swap1\n      pop\n        /* \"#utility.yul\":10565:10931   */\n      swap2\n      swap1\n      pop\n      jump\t// out\n        /* \"#utility.yul\":10937:11356   */\n    tag_81:\n        /* \"#utility.yul\":11103:11107   */\n      0x00\n        /* \"#utility.yul\":11141:11143   */\n      0x20\n        /* \"#utility.yul\":11130:11139   */\n      dup3\n        /* \"#utility.yul\":11126:11144   */\n      add\n        /* \"#utility.yul\":11118:11144   */\n      swap1\n      pop\n        /* \"#utility.yul\":11190:11199   */\n      dup2\n        /* \"#utility.yul\":11184:11188   */\n      dup2\n        /* \"#utility.yul\":11180:11200   */\n      sub\n        /* \"#utility.yul\":11176:11177   */\n      0x00\n        /* \"#utility.yul\":11165:11174   */\n      dup4\n        /* \"#utility.yul\":11161:11178   */\n      add\n        /* \"#utility.yul\":11154:11201   */\n      mstore\n        /* \"#utility.yul\":11218:11349   */\n      tag_304\n        /* \"#utility.yul\":11344:11348   */\n      dup2\n        /* \"#utility.yul\":11218:11349   */\n      tag_159\n      jump\t// in\n    tag_304:\n        /* \"#utility.yul\":11210:11349   */\n      swap1\n      pop\n        /* \"#utility.yul\":10937:11356   */\n      swap2\n      swap1\n      pop\n      jump\t// out\n        /* \"#utility.yul\":11362:11694   */\n    tag_85:\n        /* \"#utility.yul\":11483:11487   */\n      0x00\n        /* \"#utility.yul\":11521:11523   */\n      0x40\n        /* \"#utility.yul\":11510:11519   */\n      dup3\n        /* \"#utility.yul\":11506:11524   */\n      add\n        /* \"#utility.yul\":11498:11524   */\n      swap1\n      pop\n        /* \"#utility.yul\":11534:11605   */\n      tag_306\n        /* \"#utility.yul\":11602:11603   */\n      0x00\n        /* \"#utility.yul\":11591:11600   */\n      dup4\n        /* \"#utility.yul\":11587:11604   */\n      add\n        /* \"#utility.yul\":11578:11584   */\n      dup6\n        /* \"#utility.yul\":11534:11605   */\n      tag_135\n      jump\t// in\n    tag_306:\n        /* \"#utility.yul\":11615:11687   */\n      tag_307\n        /* \"#utility.yul\":11683:11685   */\n      0x20\n        /* \"#utility.yul\":11672:11681   */\n      dup4\n        /* \"#utility.yul\":11668:11686   */\n      add\n        /* \"#utility.yul\":11659:11665   */\n      dup5\n        /* \"#utility.yul\":11615:11687   */\n      tag_132\n      jump\t// in\n    tag_307:\n        /* \"#utility.yul\":11362:11694   */\n      swap4\n      swap3\n      pop\n      pop\n      pop\n      jump\t// out\n        /* \"#utility.yul\":11700:11875   */\n    tag_160:\n        /* \"#utility.yul\":11840:11867   */\n      0x50726f6a65637420646561646c696e65206973206f7665722100000000000000\n        /* \"#utility.yul\":11836:11837   */\n      0x00\n        /* \"#utility.yul\":11828:11834   */\n      dup3\n        /* \"#utility.yul\":11824:11838   */\n      add\n        /* \"#utility.yul\":11817:11868   */\n      mstore\n        /* \"#utility.yul\":11700:11875   */\n      pop\n      jump\t// out\n        /* \"#utility.yul\":11881:12247   */\n    tag_161:\n        /* \"#utility.yul\":12023:12026   */\n      0x00\n        /* \"#utility.yul\":12044:12111   */\n      tag_310\n        /* \"#utility.yul\":12108:12110   */\n      0x19\n        /* \"#utility.yul\":12103:12106   */\n      dup4\n        /* \"#utility.yul\":12044:12111   */\n      tag_137\n      jump\t// in\n    tag_310:\n        /* \"#utility.yul\":12037:12111   */\n      swap2\n      pop\n        /* \"#utility.yul\":12120:12213   */\n      tag_311\n        /* \"#utility.yul\":12209:12212   */\n      dup3\n        /* \"#utility.yul\":12120:12213   */\n      tag_160\n      jump\t// in\n    tag_311:\n        /* \"#utility.yul\":12238:12240   */\n      0x20\n        /* \"#utility.yul\":12233:12236   */\n      dup3\n        /* \"#utility.yul\":12229:12241   */\n      add\n        /* \"#utility.yul\":12222:12241   */\n      swap1\n      pop\n        /* \"#utility.yul\":11881:12247   */\n      swap2\n      swap1\n      pop\n      jump\t// out\n        /* \"#utility.yul\":12253:12672   */\n    tag_90:\n        /* \"#utility.yul\":12419:12423   */\n      0x00\n        /* \"#utility.yul\":12457:12459   */\n      0x20\n        /* \"#utility.yul\":12446:12455   */\n      dup3\n        /* \"#utility.yul\":12442:12460   */\n      add\n        /* \"#utility.yul\":12434:12460   */\n      swap1\n      pop\n        /* \"#utility.yul\":12506:12515   */\n      dup2\n        /* \"#utility.yul\":12500:12504   */\n      dup2\n        /* \"#utility.yul\":12496:12516   */\n      sub\n        /* \"#utility.yul\":12492:12493   */\n      0x00\n        /* \"#utility.yul\":12481:12490   */\n      dup4\n        /* \"#utility.yul\":12477:12494   */\n      add\n        /* \"#utility.yul\":12470:12517   */\n      mstore\n        /* \"#utility.yul\":12534:12665   */\n      tag_313\n        /* \"#utility.yul\":12660:12664   */\n      dup2\n        /* \"#utility.yul\":12534:12665   */\n      tag_161\n      jump\t// in\n    tag_313:\n        /* \"#utility.yul\":12526:12665   */\n      swap1\n      pop\n        /* \"#utility.yul\":12253:12672   */\n      swap2\n      swap1\n      pop\n      jump\t// out\n        /* \"#utility.yul\":12678:12904   */\n    tag_162:\n        /* \"#utility.yul\":12818:12852   */\n      0x50726f6a6563742052656163686564206974732046756e64696e672072657175\n        /* \"#utility.yul\":12814:12815   */\n      0x00\n        /* \"#utility.yul\":12806:12812   */\n      dup3\n        /* \"#utility.yul\":12802:12816   */\n      add\n        /* \"#utility.yul\":12795:12853   */\n      mstore\n        /* \"#utility.yul\":12887:12896   */\n      0x6972656d656e7400000000000000000000000000000000000000000000000000\n        /* \"#utility.yul\":12882:12884   */\n      0x20\n        /* \"#utility.yul\":12874:12880   */\n      dup3\n        /* \"#utility.yul\":12870:12885   */\n      add\n        /* \"#utility.yul\":12863:12897   */\n      mstore\n        /* \"#utility.yul\":12678:12904   */\n      pop\n      jump\t// out\n        /* \"#utility.yul\":12910:13276   */\n    tag_163:\n        /* \"#utility.yul\":13052:13055   */\n      0x00\n        /* \"#utility.yul\":13073:13140   */\n      tag_316\n        /* \"#utility.yul\":13137:13139   */\n      0x27\n        /* \"#utility.yul\":13132:13135   */\n      dup4\n        /* \"#utility.yul\":13073:13140   */\n      tag_137\n      jump\t// in\n    tag_316:\n        /* \"#utility.yul\":13066:13140   */\n      swap2\n      pop\n        /* \"#utility.yul\":13149:13242   */\n      tag_317\n        /* \"#utility.yul\":13238:13241   */\n      dup3\n        /* \"#utility.yul\":13149:13242   */\n      tag_162\n      jump\t// in\n    tag_317:\n        /* \"#utility.yul\":13267:13269   */\n      0x40\n        /* \"#utility.yul\":13262:13265   */\n      dup3\n        /* \"#utility.yul\":13258:13270   */\n      add\n        /* \"#utility.yul\":13251:13270   */\n      swap1\n      pop\n        /* \"#utility.yul\":12910:13276   */\n      swap2\n      swap1\n      pop\n      jump\t// out\n        /* \"#utility.yul\":13282:13701   */\n    tag_93:\n        /* \"#utility.yul\":13448:13452   */\n      0x00\n        /* \"#utility.yul\":13486:13488   */\n      0x20\n        /* \"#utility.yul\":13475:13484   */\n      dup3\n        /* \"#utility.yul\":13471:13489   */\n      add\n        /* \"#utility.yul\":13463:13489   */\n      swap1\n      pop\n        /* \"#utility.yul\":13535:13544   */\n      dup2\n        /* \"#utility.yul\":13529:13533   */\n      dup2\n        /* \"#utility.yul\":13525:13545   */\n      sub\n        /* \"#utility.yul\":13521:13522   */\n      0x00\n        /* \"#utility.yul\":13510:13519   */\n      dup4\n        /* \"#utility.yul\":13506:13523   */\n      add\n        /* \"#utility.yul\":13499:13546   */\n      mstore\n        /* \"#utility.yul\":13563:13694   */\n      tag_319\n        /* \"#utility.yul\":13689:13693   */\n      dup2\n        /* \"#utility.yul\":13563:13694   */\n      tag_163\n      jump\t// in\n    tag_319:\n        /* \"#utility.yul\":13555:13694   */\n      swap1\n      pop\n        /* \"#utility.yul\":13282:13701   */\n      swap2\n      swap1\n      pop\n      jump\t// out\n        /* \"#utility.yul\":13707:13938   */\n    tag_164:\n        /* \"#utility.yul\":13847:13881   */\n      0x73656e6420736f6d6520657468657220746f20636f6e7472696275746520696e\n        /* \"#utility.yul\":13843:13844   */\n      0x00\n        /* \"#utility.yul\":13835:13841   */\n      dup3\n        /* \"#utility.yul\":13831:13845   */\n      add\n        /* \"#utility.yul\":13824:13882   */\n      mstore\n        /* \"#utility.yul\":13916:13930   */\n      0x207468652070726f6a6563740000000000000000000000000000000000000000\n        /* \"#utility.yul\":13911:13913   */\n      0x20\n        /* \"#utility.yul\":13903:13909   */\n      dup3\n        /* \"#utility.yul\":13899:13914   */\n      add\n        /* \"#utility.yul\":13892:13931   */\n      mstore\n        /* \"#utility.yul\":13707:13938   */\n      pop\n      jump\t// out\n        /* \"#utility.yul\":13944:14310   */\n    tag_165:\n        /* \"#utility.yul\":14086:14089   */\n      0x00\n        /* \"#utility.yul\":14107:14174   */\n      tag_322\n        /* \"#utility.yul\":14171:14173   */\n      0x2c\n        /* \"#utility.yul\":14166:14169   */\n      dup4\n        /* \"#utility.yul\":14107:14174   */\n      tag_137\n      jump\t// in\n    tag_322:\n        /* \"#utility.yul\":14100:14174   */\n      swap2\n      pop\n        /* \"#utility.yul\":14183:14276   */\n      tag_323\n        /* \"#utility.yul\":14272:14275   */\n      dup3\n        /* \"#utility.yul\":14183:14276   */\n      tag_164\n      jump\t// in\n    tag_323:\n        /* \"#utility.yul\":14301:14303   */\n      0x40\n        /* \"#utility.yul\":14296:14299   */\n      dup3\n        /* \"#utility.yul\":14292:14304   */\n      add\n        /* \"#utility.yul\":14285:14304   */\n      swap1\n      pop\n        /* \"#utility.yul\":13944:14310   */\n      swap2\n      swap1\n      pop\n      jump\t// out\n        /* \"#utility.yul\":14316:14735   */\n    tag_96:\n        /* \"#utility.yul\":14482:14486   */\n      0x00\n        /* \"#utility.yul\":14520:14522   */\n      0x20\n        /* \"#utility.yul\":14509:14518   */\n      dup3\n        /* \"#utility.yul\":14505:14523   */\n      add\n        /* \"#utility.yul\":14497:14523   */\n      swap1\n      pop\n        /* \"#utility.yul\":14569:14578   */\n      dup2\n        /* \"#utility.yul\":14563:14567   */\n      dup2\n        /* \"#utility.yul\":14559:14579   */\n      sub\n        /* \"#utility.yul\":14555:14556   */\n      0x00\n        /* \"#utility.yul\":14544:14553   */\n      dup4\n        /* \"#utility.yul\":14540:14557   */\n      add\n        /* \"#utility.yul\":14533:14580   */\n      mstore\n        /* \"#utility.yul\":14597:14728   */\n      tag_325\n        /* \"#utility.yul\":14723:14727   */\n      dup2\n        /* \"#utility.yul\":14597:14728   */\n      tag_165\n      jump\t// in\n    tag_325:\n        /* \"#utility.yul\":14589:14728   */\n      swap1\n      pop\n        /* \"#utility.yul\":14316:14735   */\n      swap2\n      swap1\n      pop\n      jump\t// out\n        /* \"#utility.yul\":14741:14932   */\n    tag_98:\n        /* \"#utility.yul\":14781:14784   */\n      0x00\n        /* \"#utility.yul\":14800:14820   */\n      tag_327\n        /* \"#utility.yul\":14818:14819   */\n      dup3\n        /* \"#utility.yul\":14800:14820   */\n      tag_129\n      jump\t// in\n    tag_327:\n        /* \"#utility.yul\":14795:14820   */\n      swap2\n      pop\n        /* \"#utility.yul\":14834:14854   */\n      tag_328\n        /* \"#utility.yul\":14852:14853   */\n      dup4\n        /* \"#utility.yul\":14834:14854   */\n      tag_129\n      jump\t// in\n    tag_328:\n        /* \"#utility.yul\":14829:14854   */\n      swap3\n      pop\n        /* \"#utility.yul\":14877:14878   */\n      dup3\n        /* \"#utility.yul\":14874:14875   */\n      dup3\n        /* \"#utility.yul\":14870:14879   */\n      add\n        /* \"#utility.yul\":14863:14879   */\n      swap1\n      pop\n        /* \"#utility.yul\":14898:14901   */\n      dup1\n        /* \"#utility.yul\":14895:14896   */\n      dup3\n        /* \"#utility.yul\":14892:14902   */\n      gt\n        /* \"#utility.yul\":14889:14925   */\n      iszero\n      tag_329\n      jumpi\n        /* \"#utility.yul\":14905:14923   */\n      tag_330\n      tag_156\n      jump\t// in\n    tag_330:\n        /* \"#utility.yul\":14889:14925   */\n    tag_329:\n        /* \"#utility.yul\":14741:14932   */\n      swap3\n      swap2\n      pop\n      pop\n      jump\t// out\n        /* \"#utility.yul\":14938:15176   */\n    tag_166:\n        /* \"#utility.yul\":15078:15112   */\n      0x66756e64696e6720676f616c20686173206e6f742072656163686564202c2061\n        /* \"#utility.yul\":15074:15075   */\n      0x00\n        /* \"#utility.yul\":15066:15072   */\n      dup3\n        /* \"#utility.yul\":15062:15076   */\n      add\n        /* \"#utility.yul\":15055:15113   */\n      mstore\n        /* \"#utility.yul\":15147:15168   */\n      0x646d696e2063616e277420776974686472617700000000000000000000000000\n        /* \"#utility.yul\":15142:15144   */\n      0x20\n        /* \"#utility.yul\":15134:15140   */\n      dup3\n        /* \"#utility.yul\":15130:15145   */\n      add\n        /* \"#utility.yul\":15123:15169   */\n      mstore\n        /* \"#utility.yul\":14938:15176   */\n      pop\n      jump\t// out\n        /* \"#utility.yul\":15182:15548   */\n    tag_167:\n        /* \"#utility.yul\":15324:15327   */\n      0x00\n        /* \"#utility.yul\":15345:15412   */\n      tag_333\n        /* \"#utility.yul\":15409:15411   */\n      0x33\n        /* \"#utility.yul\":15404:15407   */\n      dup4\n        /* \"#utility.yul\":15345:15412   */\n      tag_137\n      jump\t// in\n    tag_333:\n        /* \"#utility.yul\":15338:15412   */\n      swap2\n      pop\n        /* \"#utility.yul\":15421:15514   */\n      tag_334\n        /* \"#utility.yul\":15510:15513   */\n      dup3\n        /* \"#utility.yul\":15421:15514   */\n      tag_166\n      jump\t// in\n    tag_334:\n        /* \"#utility.yul\":15539:15541   */\n      0x40\n        /* \"#utility.yul\":15534:15537   */\n      dup3\n        /* \"#utility.yul\":15530:15542   */\n      add\n        /* \"#utility.yul\":15523:15542   */\n      swap1\n      pop\n        /* \"#utility.yul\":15182:15548   */\n      swap2\n      swap1\n      pop\n      jump\t// out\n        /* \"#utility.yul\":15554:15973   */\n    tag_105:\n        /* \"#utility.yul\":15720:15724   */\n      0x00\n        /* \"#utility.yul\":15758:15760   */\n      0x20\n        /* \"#utility.yul\":15747:15756   */\n      dup3\n        /* \"#utility.yul\":15743:15761   */\n      add\n        /* \"#utility.yul\":15735:15761   */\n      swap1\n      pop\n        /* \"#utility.yul\":15807:15816   */\n      dup2\n        /* \"#utility.yul\":15801:15805   */\n      dup2\n        /* \"#utility.yul\":15797:15817   */\n      sub\n        /* \"#utility.yul\":15793:15794   */\n      0x00\n        /* \"#utility.yul\":15782:15791   */\n      dup4\n        /* \"#utility.yul\":15778:15795   */\n      add\n        /* \"#utility.yul\":15771:15818   */\n      mstore\n        /* \"#utility.yul\":15835:15966   */\n      tag_336\n        /* \"#utility.yul\":15961:15965   */\n      dup2\n        /* \"#utility.yul\":15835:15966   */\n      tag_167\n      jump\t// in\n    tag_336:\n        /* \"#utility.yul\":15827:15966   */\n      swap1\n      pop\n        /* \"#utility.yul\":15554:15973   */\n      swap2\n      swap1\n      pop\n      jump\t// out\n        /* \"#utility.yul\":15979:16152   */\n    tag_168:\n        /* \"#utility.yul\":16119:16144   */\n      0x6f6e6c792061646d696e2063616e207769746864726177000000000000000000\n        /* \"#utility.yul\":16115:16116   */\n      0x00\n        /* \"#utility.yul\":16107:16113   */\n      dup3\n        /* \"#utility.yul\":16103:16117   */\n      add\n        /* \"#utility.yul\":16096:16145   */\n      mstore\n        /* \"#utility.yul\":15979:16152   */\n      pop\n      jump\t// out\n        /* \"#utility.yul\":16158:16524   */\n    tag_169:\n        /* \"#utility.yul\":16300:16303   */\n      0x00\n        /* \"#utility.yul\":16321:16388   */\n      tag_339\n        /* \"#utility.yul\":16385:16387   */\n      0x17\n        /* \"#utility.yul\":16380:16383   */\n      dup4\n        /* \"#utility.yul\":16321:16388   */\n      tag_137\n      jump\t// in\n    tag_339:\n        /* \"#utility.yul\":16314:16388   */\n      swap2\n      pop\n        /* \"#utility.yul\":16397:16490   */\n      tag_340\n        /* \"#utility.yul\":16486:16489   */\n      dup3\n        /* \"#utility.yul\":16397:16490   */\n      tag_168\n      jump\t// in\n    tag_340:\n        /* \"#utility.yul\":16515:16517   */\n      0x20\n        /* \"#utility.yul\":16510:16513   */\n      dup3\n        /* \"#utility.yul\":16506:16518   */\n      add\n        /* \"#utility.yul\":16499:16518   */\n      swap1\n      pop\n        /* \"#utility.yul\":16158:16524   */\n      swap2\n      swap1\n      pop\n      jump\t// out\n        /* \"#utility.yul\":16530:16949   */\n    tag_108:\n        /* \"#utility.yul\":16696:16700   */\n      0x00\n        /* \"#utility.yul\":16734:16736   */\n      0x20\n        /* \"#utility.yul\":16723:16732   */\n      dup3\n        /* \"#utility.yul\":16719:16737   */\n      add\n        /* \"#utility.yul\":16711:16737   */\n      swap1\n      pop\n        /* \"#utility.yul\":16783:16792   */\n      dup2\n        /* \"#utility.yul\":16777:16781   */\n      dup2\n        /* \"#utility.yul\":16773:16793   */\n      sub\n        /* \"#utility.yul\":16769:16770   */\n      0x00\n        /* \"#utility.yul\":16758:16767   */\n      dup4\n        /* \"#utility.yul\":16754:16771   */\n      add\n        /* \"#utility.yul\":16747:16794   */\n      mstore\n        /* \"#utility.yul\":16811:16942   */\n      tag_342\n        /* \"#utility.yul\":16937:16941   */\n      dup2\n        /* \"#utility.yul\":16811:16942   */\n      tag_169\n      jump\t// in\n    tag_342:\n        /* \"#utility.yul\":16803:16942   */\n      swap1\n      pop\n        /* \"#utility.yul\":16530:16949   */\n      swap2\n      swap1\n      pop\n      jump\t// out\n        /* \"#utility.yul\":16955:17189   */\n    tag_170:\n        /* \"#utility.yul\":17095:17129   */\n      0x646561646c696e6520686173206e6f742072656163686564202c2061646d696e\n        /* \"#utility.yul\":17091:17092   */\n      0x00\n        /* \"#utility.yul\":17083:17089   */\n      dup3\n        /* \"#utility.yul\":17079:17093   */\n      add\n        /* \"#utility.yul\":17072:17130   */\n      mstore\n        /* \"#utility.yul\":17164:17181   */\n      0x2063616e27742077697468647261770000000000000000000000000000000000\n        /* \"#utility.yul\":17159:17161   */\n      0x20\n        /* \"#utility.yul\":17151:17157   */\n      dup3\n        /* \"#utility.yul\":17147:17162   */\n      add\n        /* \"#utility.yul\":17140:17182   */\n      mstore\n        /* \"#utility.yul\":16955:17189   */\n      pop\n      jump\t// out\n        /* \"#utility.yul\":17195:17561   */\n    tag_171:\n        /* \"#utility.yul\":17337:17340   */\n      0x00\n        /* \"#utility.yul\":17358:17425   */\n      tag_345\n        /* \"#utility.yul\":17422:17424   */\n      0x2f\n        /* \"#utility.yul\":17417:17420   */\n      dup4\n        /* \"#utility.yul\":17358:17425   */\n      tag_137\n      jump\t// in\n    tag_345:\n        /* \"#utility.yul\":17351:17425   */\n      swap2\n      pop\n        /* \"#utility.yul\":17434:17527   */\n      tag_346\n        /* \"#utility.yul\":17523:17526   */\n      dup3\n        /* \"#utility.yul\":17434:17527   */\n      tag_170\n      jump\t// in\n    tag_346:\n        /* \"#utility.yul\":17552:17554   */\n      0x40\n        /* \"#utility.yul\":17547:17550   */\n      dup3\n        /* \"#utility.yul\":17543:17555   */\n      add\n        /* \"#utility.yul\":17536:17555   */\n      swap1\n      pop\n        /* \"#utility.yul\":17195:17561   */\n      swap2\n      swap1\n      pop\n      jump\t// out\n        /* \"#utility.yul\":17567:17986   */\n    tag_111:\n        /* \"#utility.yul\":17733:17737   */\n      0x00\n        /* \"#utility.yul\":17771:17773   */\n      0x20\n        /* \"#utility.yul\":17760:17769   */\n      dup3\n        /* \"#utility.yul\":17756:17774   */\n      add\n        /* \"#utility.yul\":17748:17774   */\n      swap1\n      pop\n        /* \"#utility.yul\":17820:17829   */\n      dup2\n        /* \"#utility.yul\":17814:17818   */\n      dup2\n        /* \"#utility.yul\":17810:17830   */\n      sub\n        /* \"#utility.yul\":17806:17807   */\n      0x00\n        /* \"#utility.yul\":17795:17804   */\n      dup4\n        /* \"#utility.yul\":17791:17808   */\n      add\n        /* \"#utility.yul\":17784:17831   */\n      mstore\n        /* \"#utility.yul\":17848:17979   */\n      tag_348\n        /* \"#utility.yul\":17974:17978   */\n      dup2\n        /* \"#utility.yul\":17848:17979   */\n      tag_171\n      jump\t// in\n    tag_348:\n        /* \"#utility.yul\":17840:17979   */\n      swap1\n      pop\n        /* \"#utility.yul\":17567:17986   */\n      swap2\n      swap1\n      pop\n      jump\t// out\n        /* \"#utility.yul\":17992:18171   */\n    tag_172:\n        /* \"#utility.yul\":18132:18163   */\n      0x50726f6a65637420494420697320616c726561647920696e2075736521000000\n        /* \"#utility.yul\":18128:18129   */\n      0x00\n        /* \"#utility.yul\":18120:18126   */\n      dup3\n        /* \"#utility.yul\":18116:18130   */\n      add\n        /* \"#utility.yul\":18109:18164   */\n      mstore\n        /* \"#utility.yul\":17992:18171   */\n      pop\n      jump\t// out\n        /* \"#utility.yul\":18177:18543   */\n    tag_173:\n        /* \"#utility.yul\":18319:18322   */\n      0x00\n        /* \"#utility.yul\":18340:18407   */\n      tag_351\n        /* \"#utility.yul\":18404:18406   */\n      0x1d\n        /* \"#utility.yul\":18399:18402   */\n      dup4\n        /* \"#utility.yul\":18340:18407   */\n      tag_137\n      jump\t// in\n    tag_351:\n        /* \"#utility.yul\":18333:18407   */\n      swap2\n      pop\n        /* \"#utility.yul\":18416:18509   */\n      tag_352\n        /* \"#utility.yul\":18505:18508   */\n      dup3\n        /* \"#utility.yul\":18416:18509   */\n      tag_172\n      jump\t// in\n    tag_352:\n        /* \"#utility.yul\":18534:18536   */\n      0x20\n        /* \"#utility.yul\":18529:18532   */\n      dup3\n        /* \"#utility.yul\":18525:18537   */\n      add\n        /* \"#utility.yul\":18518:18537   */\n      swap1\n      pop\n        /* \"#utility.yul\":18177:18543   */\n      swap2\n      swap1\n      pop\n      jump\t// out\n        /* \"#utility.yul\":18549:18968   */\n    tag_118:\n        /* \"#utility.yul\":18715:18719   */\n      0x00\n        /* \"#utility.yul\":18753:18755   */\n      0x20\n        /* \"#utility.yul\":18742:18751   */\n      dup3\n        /* \"#utility.yul\":18738:18756   */\n      add\n        /* \"#utility.yul\":18730:18756   */\n      swap1\n      pop\n        /* \"#utility.yul\":18802:18811   */\n      dup2\n        /* \"#utility.yul\":18796:18800   */\n      dup2\n        /* \"#utility.yul\":18792:18812   */\n      sub\n        /* \"#utility.yul\":18788:18789   */\n      0x00\n        /* \"#utility.yul\":18777:18786   */\n      dup4\n        /* \"#utility.yul\":18773:18790   */\n      add\n        /* \"#utility.yul\":18766:18813   */\n      mstore\n        /* \"#utility.yul\":18830:18961   */\n      tag_354\n        /* \"#utility.yul\":18956:18960   */\n      dup2\n        /* \"#utility.yul\":18830:18961   */\n      tag_173\n      jump\t// in\n    tag_354:\n        /* \"#utility.yul\":18822:18961   */\n      swap1\n      pop\n        /* \"#utility.yul\":18549:18968   */\n      swap2\n      swap1\n      pop\n      jump\t// out\n        /* \"#utility.yul\":18974:19115   */\n    tag_174:\n        /* \"#utility.yul\":19023:19027   */\n      0x00\n        /* \"#utility.yul\":19046:19049   */\n      dup2\n        /* \"#utility.yul\":19038:19049   */\n      swap1\n      pop\n        /* \"#utility.yul\":19069:19072   */\n      dup2\n        /* \"#utility.yul\":19066:19067   */\n      0x00\n        /* \"#utility.yul\":19059:19073   */\n      mstore\n        /* \"#utility.yul\":19103:19107   */\n      0x20\n        /* \"#utility.yul\":19100:19101   */\n      0x00\n        /* \"#utility.yul\":19090:19108   */\n      keccak256\n        /* \"#utility.yul\":19082:19108   */\n      swap1\n      pop\n        /* \"#utility.yul\":18974:19115   */\n      swap2\n      swap1\n      pop\n      jump\t// out\n        /* \"#utility.yul\":19121:19214   */\n    tag_175:\n        /* \"#utility.yul\":19158:19164   */\n      0x00\n        /* \"#utility.yul\":19205:19207   */\n      0x20\n        /* \"#utility.yul\":19200:19202   */\n      0x1f\n        /* \"#utility.yul\":19193:19198   */\n      dup4\n        /* \"#utility.yul\":19189:19203   */\n      add\n        /* \"#utility.yul\":19185:19208   */\n      div\n        /* \"#utility.yul\":19175:19208   */\n      swap1\n      pop\n        /* \"#utility.yul\":19121:19214   */\n      swap2\n      swap1\n      pop\n      jump\t// out\n        /* \"#utility.yul\":19220:19327   */\n    tag_176:\n        /* \"#utility.yul\":19264:19272   */\n      0x00\n        /* \"#utility.yul\":19314:19319   */\n      dup3\n        /* \"#utility.yul\":19308:19312   */\n      dup3\n        /* \"#utility.yul\":19304:19320   */\n      shl\n        /* \"#utility.yul\":19283:19320   */\n      swap1\n      pop\n        /* \"#utility.yul\":19220:19327   */\n      swap3\n      swap2\n      pop\n      pop\n      jump\t// out\n        /* \"#utility.yul\":19333:19726   */\n    tag_177:\n        /* \"#utility.yul\":19402:19408   */\n      0x00\n        /* \"#utility.yul\":19452:19453   */\n      0x08\n        /* \"#utility.yul\":19440:19450   */\n      dup4\n        /* \"#utility.yul\":19436:19454   */\n      mul\n        /* \"#utility.yul\":19475:19572   */\n      tag_359\n        /* \"#utility.yul\":19505:19571   */\n      0xffffffffffffffffffffffffffffffffffffffffffffffffffffffffffffffff\n        /* \"#utility.yul\":19494:19503   */\n      dup3\n        /* \"#utility.yul\":19475:19572   */\n      tag_176\n      jump\t// in\n    tag_359:\n        /* \"#utility.yul\":19593:19632   */\n      tag_360\n        /* \"#utility.yul\":19623:19631   */\n      dup7\n        /* \"#utility.yul\":19612:19621   */\n      dup4\n        /* \"#utility.yul\":19593:19632   */\n      tag_176\n      jump\t// in\n    tag_360:\n        /* \"#utility.yul\":19581:19632   */\n      swap6\n      pop\n        /* \"#utility.yul\":19665:19669   */\n      dup1\n        /* \"#utility.yul\":19661:19670   */\n      not\n        /* \"#utility.yul\":19654:19659   */\n      dup5\n        /* \"#utility.yul\":19650:19671   */\n      and\n        /* \"#utility.yul\":19641:19671   */\n      swap4\n      pop\n        /* \"#utility.yul\":19714:19718   */\n      dup1\n        /* \"#utility.yul\":19704:19712   */\n      dup7\n        /* \"#utility.yul\":19700:19719   */\n      and\n        /* \"#utility.yul\":19693:19698   */\n      dup5\n        /* \"#utility.yul\":19690:19720   */\n      or\n        /* \"#utility.yul\":19680:19720   */\n      swap3\n      pop\n        /* \"#utility.yul\":19409:19726   */\n      pop\n      pop\n        /* \"#utility.yul\":19333:19726   */\n      swap4\n      swap3\n      pop\n      pop\n      pop\n      jump\t// out\n        /* \"#utility.yul\":19732:19792   */\n    tag_178:\n        /* \"#utility.yul\":19760:19763   */\n      0x00\n        /* \"#utility.yul\":19781:19786   */\n      dup2\n        /* \"#utility.yul\":19774:19786   */\n      swap1\n      pop\n        /* \"#utility.yul\":19732:19792   */\n      swap2\n      swap1\n      pop\n      jump\t// out\n        /* \"#utility.yul\":19798:19940   */\n    tag_179:\n        /* \"#utility.yul\":19848:19857   */\n      0x00\n        /* \"#utility.yul\":19881:19934   */\n      tag_363\n        /* \"#utility.yul\":19899:19933   */\n      tag_364\n        /* \"#utility.yul\":19908:19932   */\n      tag_365\n        /* \"#utility.yul\":19926:19931   */\n      dup5\n        /* \"#utility.yul\":19908:19932   */\n      tag_129\n      jump\t// in\n    tag_365:\n        /* \"#utility.yul\":19899:19933   */\n      tag_178\n      jump\t// in\n    tag_364:\n        /* \"#utility.yul\":19881:19934   */\n      tag_129\n      jump\t// in\n    tag_363:\n        /* \"#utility.yul\":19868:19934   */\n      swap1\n      pop\n        /* \"#utility.yul\":19798:19940   */\n      swap2\n      swap1\n      pop\n      jump\t// out\n        /* \"#utility.yul\":19946:20021   */\n    tag_180:\n        /* \"#utility.yul\":19989:19992   */\n      0x00\n        /* \"#utility.yul\":20010:20015   */\n      dup2\n        /* \"#utility.yul\":20003:20015   */\n      swap1\n      pop\n        /* \"#utility.yul\":19946:20021   */\n      swap2\n      swap1\n      pop\n      jump\t// out\n        /* \"#utility.yul\":20027:20296   */\n    tag_181:\n        /* \"#utility.yul\":20137:20176   */\n      tag_368\n        /* \"#utility.yul\":20168:20175   */\n      dup4\n        /* \"#utility.yul\":20137:20176   */\n      tag_179\n      jump\t// in\n    tag_368:\n        /* \"#utility.yul\":20198:20289   */\n      tag_369\n        /* \"#utility.yul\":20247:20288   */\n      tag_370\n        /* \"#utility.yul\":20271:20287   */\n      dup3\n        /* \"#utility.yul\":20247:20288   */\n      tag_180\n      jump\t// in\n    tag_370:\n        /* \"#utility.yul\":20239:20245   */\n      dup5\n        /* \"#utility.yul\":20232:20236   */\n      dup5\n        /* \"#utility.yul\":20226:20237   */\n      sload\n        /* \"#utility.yul\":20198:20289   */\n      tag_177\n      jump\t// in\n    tag_369:\n        /* \"#utility.yul\":20192:20196   */\n      dup3\n        /* \"#utility.yul\":20185:20290   */\n      sstore\n        /* \"#utility.yul\":20103:20296   */\n      pop\n        /* \"#utility.yul\":20027:20296   */\n      pop\n      pop\n      pop\n      jump\t// out\n        /* \"#utility.yul\":20302:20375   */\n    tag_182:\n        /* \"#utility.yul\":20347:20350   */\n      0x00\n        /* \"#utility.yul\":20368:20369   */\n      0x00\n        /* \"#utility.yul\":20361:20369   */\n      swap1\n      pop\n        /* \"#utility.yul\":20302:20375   */\n      swap1\n      jump\t// out\n        /* \"#utility.yul\":20381:20570   */\n    tag_183:\n        /* \"#utility.yul\":20458:20490   */\n      tag_373\n      tag_182\n      jump\t// in\n    tag_373:\n        /* \"#utility.yul\":20499:20564   */\n      tag_374\n        /* \"#utility.yul\":20557:20563   */\n      dup2\n        /* \"#utility.yul\":20549:20555   */\n      dup5\n        /* \"#utility.yul\":20543:20547   */\n      dup5\n        /* \"#utility.yul\":20499:20564   */\n      tag_181\n      jump\t// in\n    tag_374:\n        /* \"#utility.yul\":20434:20570   */\n      pop\n        /* \"#utility.yul\":20381:20570   */\n      pop\n      pop\n      jump\t// out\n        /* \"#utility.yul\":20576:20762   */\n    tag_184:\n        /* \"#utility.yul\":20636:20756   */\n    tag_376:\n        /* \"#utility.yul\":20653:20656   */\n      dup2\n        /* \"#utility.yul\":20646:20651   */\n      dup2\n        /* \"#utility.yul\":20643:20657   */\n      lt\n        /* \"#utility.yul\":20636:20756   */\n      iszero\n      tag_378\n      jumpi\n        /* \"#utility.yul\":20707:20746   */\n      tag_379\n        /* \"#utility.yul\":20744:20745   */\n      0x00\n        /* \"#utility.yul\":20737:20742   */\n      dup3\n        /* \"#utility.yul\":20707:20746   */\n      tag_183\n      jump\t// in\n    tag_379:\n        /* \"#utility.yul\":20680:20681   */\n      0x01\n        /* \"#utility.yul\":20673:20678   */\n      dup2\n        /* \"#utility.yul\":20669:20682   */\n      add\n        /* \"#utility.yul\":20660:20682   */\n      swap1\n      pop\n        /* \"#utility.yul\":20636:20756   */\n      jump(tag_376)\n    tag_378:\n        /* \"#utility.yul\":20576:20762   */\n      pop\n      pop\n      jump\t// out\n        /* \"#utility.yul\":20768:21311   */\n    tag_185:\n        /* \"#utility.yul\":20869:20871   */\n      0x1f\n        /* \"#utility.yul\":20864:20867   */\n      dup3\n        /* \"#utility.yul\":20861:20872   */\n      gt\n        /* \"#utility.yul\":20858:21304   */\n      iszero\n      tag_381\n      jumpi\n        /* \"#utility.yul\":20903:20941   */\n      tag_382\n        /* \"#utility.yul\":20935:20940   */\n      dup2\n        /* \"#utility.yul\":20903:20941   */\n      tag_174\n      jump\t// in\n    tag_382:\n        /* \"#utility.yul\":20987:21016   */\n      tag_383\n        /* \"#utility.yul\":21005:21015   */\n      dup5\n        /* \"#utility.yul\":20987:21016   */\n      tag_175\n      jump\t// in\n    tag_383:\n        /* \"#utility.yul\":20977:20985   */\n      dup2\n        /* \"#utility.yul\":20973:21017   */\n      add\n        /* \"#utility.yul\":21170:21172   */\n      0x20\n        /* \"#utility.yul\":21158:21168   */\n      dup6\n        /* \"#utility.yul\":21155:21173   */\n      lt\n        /* \"#utility.yul\":21152:21201   */\n      iszero\n      tag_384\n      jumpi\n        /* \"#utility.yul\":21191:21199   */\n      dup2\n        /* \"#utility.yul\":21176:21199   */\n      swap1\n      pop\n        /* \"#utility.yul\":21152:21201   */\n    tag_384:\n        /* \"#utility.yul\":21214:21294   */\n      tag_385\n        /* \"#utility.yul\":21270:21292   */\n      tag_386\n        /* \"#utility.yul\":21288:21291   */\n      dup6\n        /* \"#utility.yul\":21270:21292   */\n      tag_175\n      jump\t// in\n    tag_386:\n        /* \"#utility.yul\":21260:21268   */\n      dup4\n        /* \"#utility.yul\":21256:21293   */\n      add\n        /* \"#utility.yul\":21243:21254   */\n      dup3\n        /* \"#utility.yul\":21214:21294   */\n      tag_184\n      jump\t// in\n    tag_385:\n        /* \"#utility.yul\":20873:21304   */\n      pop\n      pop\n        /* \"#utility.yul\":20858:21304   */\n    tag_381:\n        /* \"#utility.yul\":20768:21311   */\n      pop\n      pop\n      pop\n      jump\t// out\n        /* \"#utility.yul\":21317:21434   */\n    tag_186:\n        /* \"#utility.yul\":21371:21379   */\n      0x00\n        /* \"#utility.yul\":21421:21426   */\n      dup3\n        /* \"#utility.yul\":21415:21419   */\n      dup3\n        /* \"#utility.yul\":21411:21427   */\n      shr\n        /* \"#utility.yul\":21390:21427   */\n      swap1\n      pop\n        /* \"#utility.yul\":21317:21434   */\n      swap3\n      swap2\n      pop\n      pop\n      jump\t// out\n        /* \"#utility.yul\":21440:21609   */\n    tag_187:\n        /* \"#utility.yul\":21484:21490   */\n      0x00\n        /* \"#utility.yul\":21517:21568   */\n      tag_389\n        /* \"#utility.yul\":21565:21566   */\n      0x00\n        /* \"#utility.yul\":21561:21567   */\n      not\n        /* \"#utility.yul\":21553:21558   */\n      dup5\n        /* \"#utility.yul\":21550:21551   */\n      0x08\n        /* \"#utility.yul\":21546:21559   */\n      mul\n        /* \"#utility.yul\":21517:21568   */\n      tag_186\n      jump\t// in\n    tag_389:\n        /* \"#utility.yul\":21513:21569   */\n      not\n        /* \"#utility.yul\":21598:21602   */\n      dup1\n        /* \"#utility.yul\":21592:21596   */\n      dup4\n        /* \"#utility.yul\":21588:21603   */\n      and\n        /* \"#utility.yul\":21578:21603   */\n      swap2\n      pop\n        /* \"#utility.yul\":21491:21609   */\n      pop\n        /* \"#utility.yul\":21440:21609   */\n      swap3\n      swap2\n      pop\n      pop\n      jump\t// out\n        /* \"#utility.yul\":21614:21909   */\n    tag_188:\n        /* \"#utility.yul\":21690:21694   */\n      0x00\n        /* \"#utility.yul\":21836:21865   */\n      tag_391\n        /* \"#utility.yul\":21861:21864   */\n      dup4\n        /* \"#utility.yul\":21855:21859   */\n      dup4\n        /* \"#utility.yul\":21836:21865   */\n      tag_187\n      jump\t// in\n    tag_391:\n        /* \"#utility.yul\":21828:21865   */\n      swap2\n      pop\n        /* \"#utility.yul\":21898:21901   */\n      dup3\n        /* \"#utility.yul\":21895:21896   */\n      0x02\n        /* \"#utility.yul\":21891:21902   */\n      mul\n        /* \"#utility.yul\":21885:21889   */\n      dup3\n        /* \"#utility.yul\":21882:21903   */\n      or\n        /* \"#utility.yul\":21874:21903   */\n      swap1\n      pop\n        /* \"#utility.yul\":21614:21909   */\n      swap3\n      swap2\n      pop\n      pop\n      jump\t// out\n        /* \"#utility.yul\":21914:23309   */\n    tag_121:\n        /* \"#utility.yul\":22031:22068   */\n      tag_393\n        /* \"#utility.yul\":22064:22067   */\n      dup3\n        /* \"#utility.yul\":22031:22068   */\n      tag_136\n      jump\t// in\n    tag_393:\n        /* \"#utility.yul\":22133:22151   */\n      0xffffffffffffffff\n        /* \"#utility.yul\":22125:22131   */\n      dup2\n        /* \"#utility.yul\":22122:22152   */\n      gt\n        /* \"#utility.yul\":22119:22175   */\n      iszero\n      tag_394\n      jumpi\n        /* \"#utility.yul\":22155:22173   */\n      tag_395\n      tag_147\n      jump\t// in\n    tag_395:\n        /* \"#utility.yul\":22119:22175   */\n    tag_394:\n        /* \"#utility.yul\":22199:22237   */\n      tag_396\n        /* \"#utility.yul\":22231:22235   */\n      dup3\n        /* \"#utility.yul\":22225:22236   */\n      sload\n        /* \"#utility.yul\":22199:22237   */\n      tag_64\n      jump\t// in\n    tag_396:\n        /* \"#utility.yul\":22284:22351   */\n      tag_397\n        /* \"#utility.yul\":22344:22350   */\n      dup3\n        /* \"#utility.yul\":22336:22342   */\n      dup3\n        /* \"#utility.yul\":22330:22334   */\n      dup6\n        /* \"#utility.yul\":22284:22351   */\n      tag_185\n      jump\t// in\n    tag_397:\n        /* \"#utility.yul\":22378:22379   */\n      0x00\n        /* \"#utility.yul\":22402:22406   */\n      0x20\n        /* \"#utility.yul\":22389:22406   */\n      swap1\n      pop\n        /* \"#utility.yul\":22434:22436   */\n      0x1f\n        /* \"#utility.yul\":22426:22432   */\n      dup4\n        /* \"#utility.yul\":22423:22437   */\n      gt\n        /* \"#utility.yul\":22451:22452   */\n      0x01\n        /* \"#utility.yul\":22446:23064   */\n      dup2\n      eq\n      tag_399\n      jumpi\n        /* \"#utility.yul\":23108:23109   */\n      0x00\n        /* \"#utility.yul\":23125:23131   */\n      dup5\n        /* \"#utility.yul\":23122:23199   */\n      iszero\n      tag_400\n      jumpi\n        /* \"#utility.yul\":23174:23183   */\n      dup3\n        /* \"#utility.yul\":23169:23172   */\n      dup8\n        /* \"#utility.yul\":23165:23184   */\n      add\n        /* \"#utility.yul\":23159:23185   */\n      mload\n        /* \"#utility.yul\":23150:23185   */\n      swap1\n      pop\n        /* \"#utility.yul\":23122:23199   */\n    tag_400:\n        /* \"#utility.yul\":23225:23292   */\n      tag_401\n        /* \"#utility.yul\":23285:23291   */\n      dup6\n        /* \"#utility.yul\":23278:23283   */\n      dup3\n        /* \"#utility.yul\":23225:23292   */\n      tag_188\n      jump\t// in\n    tag_401:\n        /* \"#utility.yul\":23219:23223   */\n      dup7\n        /* \"#utility.yul\":23212:23293   */\n      sstore\n        /* \"#utility.yul\":23081:23303   */\n      pop\n        /* \"#utility.yul\":22416:23303   */\n      jump(tag_398)\n        /* \"#utility.yul\":22446:23064   */\n    tag_399:\n        /* \"#utility.yul\":22498:22502   */\n      0x1f\n        /* \"#utility.yul\":22494:22503   */\n      not\n        /* \"#utility.yul\":22486:22492   */\n      dup5\n        /* \"#utility.yul\":22482:22504   */\n      and\n        /* \"#utility.yul\":22532:22569   */\n      tag_402\n        /* \"#utility.yul\":22564:22568   */\n      dup7\n        /* \"#utility.yul\":22532:22569   */\n      tag_174\n      jump\t// in\n    tag_402:\n        /* \"#utility.yul\":22591:22592   */\n      0x00\n        /* \"#utility.yul\":22605:22813   */\n    tag_403:\n        /* \"#utility.yul\":22619:22626   */\n      dup3\n        /* \"#utility.yul\":22616:22617   */\n      dup2\n        /* \"#utility.yul\":22613:22627   */\n      lt\n        /* \"#utility.yul\":22605:22813   */\n      iszero\n      tag_405\n      jumpi\n        /* \"#utility.yul\":22698:22707   */\n      dup5\n        /* \"#utility.yul\":22693:22696   */\n      dup10\n        /* \"#utility.yul\":22689:22708   */\n      add\n        /* \"#utility.yul\":22683:22709   */\n      mload\n        /* \"#utility.yul\":22675:22681   */\n      dup3\n        /* \"#utility.yul\":22668:22710   */\n      sstore\n        /* \"#utility.yul\":22749:22750   */\n      0x01\n        /* \"#utility.yul\":22741:22747   */\n      dup3\n        /* \"#utility.yul\":22737:22751   */\n      add\n        /* \"#utility.yul\":22727:22751   */\n      swap2\n      pop\n        /* \"#utility.yul\":22796:22798   */\n      0x20\n        /* \"#utility.yul\":22785:22794   */\n      dup6\n        /* \"#utility.yul\":22781:22799   */\n      add\n        /* \"#utility.yul\":22768:22799   */\n      swap5\n      pop\n        /* \"#utility.yul\":22642:22646   */\n      0x20\n        /* \"#utility.yul\":22639:22640   */\n      dup2\n        /* \"#utility.yul\":22635:22647   */\n      add\n        /* \"#utility.yul\":22630:22647   */\n      swap1\n      pop\n        /* \"#utility.yul\":22605:22813   */\n      jump(tag_403)\n    tag_405:\n        /* \"#utility.yul\":22841:22847   */\n      dup7\n        /* \"#utility.yul\":22832:22839   */\n      dup4\n        /* \"#utility.yul\":22829:22848   */\n      lt\n        /* \"#utility.yul\":22826:23005   */\n      iszero\n      tag_406\n      jumpi\n        /* \"#utility.yul\":22899:22908   */\n      dup5\n        /* \"#utility.yul\":22894:22897   */\n      dup10\n        /* \"#utility.yul\":22890:22909   */\n      add\n        /* \"#utility.yul\":22884:22910   */\n      mload\n        /* \"#utility.yul\":22942:22990   */\n      tag_407\n        /* \"#utility.yul\":22984:22988   */\n      0x1f\n        /* \"#utility.yul\":22976:22982   */\n      dup10\n        /* \"#utility.yul\":22972:22989   */\n      and\n        /* \"#utility.yul\":22961:22970   */\n      dup3\n        /* \"#utility.yul\":22942:22990   */\n      tag_187\n      jump\t// in\n    tag_407:\n        /* \"#utility.yul\":22934:22940   */\n      dup4\n        /* \"#utility.yul\":22927:22991   */\n      sstore\n        /* \"#utility.yul\":22849:23005   */\n      pop\n        /* \"#utility.yul\":22826:23005   */\n    tag_406:\n        /* \"#utility.yul\":23051:23052   */\n      0x01\n        /* \"#utility.yul\":23047:23048   */\n      0x02\n        /* \"#utility.yul\":23039:23045   */\n      dup9\n        /* \"#utility.yul\":23035:23049   */\n      mul\n        /* \"#utility.yul\":23031:23053   */\n      add\n        /* \"#utility.yul\":23025:23029   */\n      dup9\n        /* \"#utility.yul\":23018:23054   */\n      sstore\n        /* \"#utility.yul\":22453:23064   */\n      pop\n      pop\n      pop\n        /* \"#utility.yul\":22416:23303   */\n    tag_398:\n      pop\n        /* \"#utility.yul\":22006:23309   */\n      pop\n      pop\n      pop\n        /* \"#utility.yul\":21914:23309   */\n      pop\n      pop\n      jump\t// out\n        /* \"#utility.yul\":23315:24050   */\n    tag_125:\n        /* \"#utility.yul\":23532:23536   */\n      0x00\n        /* \"#utility.yul\":23570:23573   */\n      0x80\n        /* \"#utility.yul\":23559:23568   */\n      dup3\n        /* \"#utility.yul\":23555:23574   */\n      add\n        /* \"#utility.yul\":23547:23574   */\n      swap1\n      pop\n        /* \"#utility.yul\":23620:23629   */\n      dup2\n        /* \"#utility.yul\":23614:23618   */\n      dup2\n        /* \"#utility.yul\":23610:23630   */\n      sub\n        /* \"#utility.yul\":23606:23607   */\n      0x00\n        /* \"#utility.yul\":23595:23604   */\n      dup4\n        /* \"#utility.yul\":23591:23608   */\n      add\n        /* \"#utility.yul\":23584:23631   */\n      mstore\n        /* \"#utility.yul\":23648:23726   */\n      tag_409\n        /* \"#utility.yul\":23721:23725   */\n      dup2\n        /* \"#utility.yul\":23712:23718   */\n      dup8\n        /* \"#utility.yul\":23648:23726   */\n      tag_140\n      jump\t// in\n    tag_409:\n        /* \"#utility.yul\":23640:23726   */\n      swap1\n      pop\n        /* \"#utility.yul\":23773:23782   */\n      dup2\n        /* \"#utility.yul\":23767:23771   */\n      dup2\n        /* \"#utility.yul\":23763:23783   */\n      sub\n        /* \"#utility.yul\":23758:23760   */\n      0x20\n        /* \"#utility.yul\":23747:23756   */\n      dup4\n        /* \"#utility.yul\":23743:23761   */\n      add\n        /* \"#utility.yul\":23736:23784   */\n      mstore\n        /* \"#utility.yul\":23801:23879   */\n      tag_410\n        /* \"#utility.yul\":23874:23878   */\n      dup2\n        /* \"#utility.yul\":23865:23871   */\n      dup7\n        /* \"#utility.yul\":23801:23879   */\n      tag_140\n      jump\t// in\n    tag_410:\n        /* \"#utility.yul\":23793:23879   */\n      swap1\n      pop\n        /* \"#utility.yul\":23889:23961   */\n      tag_411\n        /* \"#utility.yul\":23957:23959   */\n      0x40\n        /* \"#utility.yul\":23946:23955   */\n      dup4\n        /* \"#utility.yul\":23942:23960   */\n      add\n        /* \"#utility.yul\":23933:23939   */\n      dup6\n        /* \"#utility.yul\":23889:23961   */\n      tag_132\n      jump\t// in\n    tag_411:\n        /* \"#utility.yul\":23971:24043   */\n      tag_412\n        /* \"#utility.yul\":24039:24041   */\n      0x60\n        /* \"#utility.yul\":24028:24037   */\n      dup4\n        /* \"#utility.yul\":24024:24042   */\n      add\n        /* \"#utility.yul\":24015:24021   */\n      dup5\n        /* \"#utility.yul\":23971:24043   */\n      tag_132\n      jump\t// in\n    tag_412:\n        /* \"#utility.yul\":23315:24050   */\n      swap6\n      swap5\n      pop\n      pop\n      pop\n      pop\n      pop\n      jump\t// out\n\n    auxdata: 0xa26469706673582212206dccbdcd61c682b9ed20f87ee99a27e33e322f52781232a0f723d0320bfa540964736f6c634300081e0033\n}\n",
				"bytecode": {
					"linkReferences": {},
					"object": "6080604052348015600e575f5ffd5b5061189a8061001c5f395ff3fe608060405260043610610085575f3560e01c806354a5bcc51161005857806354a5bcc5146101605780635d4e5d781461018a5780636c563abe146101c657806371eb89f3146101e2578063f81bf601146101fe57610085565b80630dbac1351461008957806321b2416c146100c6578063370c36b4146101085780633b9056bf14610144575b5f5ffd5b348015610094575f5ffd5b506100af60048036038101906100aa9190610c00565b610226565b6040516100bd929190610c3a565b60405180910390f35b3480156100d1575f5ffd5b506100ec60048036038101906100e79190610c00565b610307565b6040516100ff9796959493929190610d2a565b60405180910390f35b348015610113575f5ffd5b5061012e60048036038101906101299190610c00565b61047c565b60405161013b9190610da5565b60405180910390f35b61015e60048036038101906101599190610c00565b6104be565b005b34801561016b575f5ffd5b506101746105ef565b6040516101819190610da5565b60405180910390f35b348015610195575f5ffd5b506101b060048036038101906101ab9190610de8565b6105f7565b6040516101bd9190610da5565b60405180910390f35b6101e060048036038101906101db9190610c00565b610617565b005b6101fc60048036038101906101f79190610c00565b6107f1565b005b348015610209575f5ffd5b50610224600480360381019061021f9190610f52565b6109b7565b005b5f5f5f60015f8581526020019081526020015f209050806003015492505f73ffffffffffffffffffffffffffffffffffffffff16815f015f9054906101000a900473ffffffffffffffffffffffffffffffffffffffff1673ffffffffffffffffffffffffffffffffffffffff16036102d3576040517f08c379a00000000000000000000000000000000000000000000000000000000081526004016102ca90611071565b60405180910390fd5b80600301548160050154106102ea575f9150610301565b806005015481600301546102fe91906110bc565b91505b50915091565b6001602052805f5260405f205f91509050805f015f9054906101000a900473ffffffffffffffffffffffffffffffffffffffff169080600101805461034b9061111c565b80601f01602080910402602001604051908101604052809291908181526020018280546103779061111c565b80156103c25780601f10610399576101008083540402835291602001916103c2565b820191905f5260205f20905b8154815290600101906020018083116103a557829003601f168201915b5050505050908060020180546103d79061111c565b80601f01602080910402602001604051908101604052809291908181526020018280546104039061111c565b801561044e5780601f106104255761010080835404028352916020019161044e565b820191905f5260205f20905b81548152906001019060200180831161043157829003601f168201915b505050505090806003015490806004015490806005015490806006015f9054906101000a900460ff16905087565b5f5f60015f8481526020019081526020015f209050806004015442106104a5575f9150506104b9565b4281600401546104b591906110bc565b9150505b919050565b5f60015f8381526020019081526020015f209050806003015481600501541061051c576040517f08c379a0000000000000000000000000000000000000000000000000000000008152600401610513906111bc565b60405180910390fd5b5f60025f8481526020019081526020015f205f3373ffffffffffffffffffffffffffffffffffffffff1673ffffffffffffffffffffffffffffffffffffffff1681526020019081526020015f205490503373ffffffffffffffffffffffffffffffffffffffff166108fc8290811502906040515f60405180830381858888f193505050501580156105af573d5f5f3e3d5ffd5b50827fb6e4e293b6c7c5cf68fbb52edfaca6173710fcccbcecac03c32e62327fc000c633346040516105e29291906111da565b60405180910390a2505050565b5f5f54905090565b6002602052815f5260405f20602052805f5260405f205f91509150505481565b5f60015f8381526020019081526020015f2090508060040154421115610672576040517f08c379a00000000000000000000000000000000000000000000000000000000081526004016106699061124b565b60405180910390fd5b806006015f9054906101000a900460ff16156106c3576040517f08c379a00000000000000000000000000000000000000000000000000000000081526004016106ba906112d9565b60405180910390fd5b5f3411610705576040517f08c379a00000000000000000000000000000000000000000000000000000000081526004016106fc90611367565b60405180910390fd5b34816005015f8282546107189190611385565b925050819055503460025f8481526020019081526020015f205f3373ffffffffffffffffffffffffffffffffffffffff1673ffffffffffffffffffffffffffffffffffffffff1681526020019081526020015f2081905550345f5f8282546107809190611385565b92505081905550817ff234fc17e03e9c3501c842e35414fd219e9e8bc572c4632ef54db1493e3afaf433346040516107b99291906111da565b60405180910390a280600301548160050154106107ed576001816006015f6101000a81548160ff0219169083151502179055505b5050565b5f60015f8381526020019081526020015f2090505f81600501549050816006015f9054906101000a900460ff1661085d576040517f08c379a000000000000000000000000000000000000000000000000000000000815260040161085490611428565b60405180910390fd5b3373ffffffffffffffffffffffffffffffffffffffff16825f015f9054906101000a900473ffffffffffffffffffffffffffffffffffffffff1673ffffffffffffffffffffffffffffffffffffffff16146108ed576040517f08c379a00000000000000000000000000000000000000000000000000000000081526004016108e490611490565b60405180910390fd5b4282600401541115610934576040517f08c379a000000000000000000000000000000000000000000000000000000000815260040161092b9061151e565b60405180910390fd5b3373ffffffffffffffffffffffffffffffffffffffff166108fc8290811502906040515f60405180830381858888f19350505050158015610977573d5f5f3e3d5ffd5b50827fcae030e1a3c6b0011e7009bd65734e2e1e330528f6983497631fabd47fa7a28133346040516109aa9291906111da565b60405180910390a2505050565b60035f8281526020019081526020015f205f9054906101000a900460ff1615610a15576040517f08c379a0000000000000000000000000000000000000000000000000000000008152600401610a0c90611586565b60405180910390fd5b600160035f8381526020019081526020015f205f6101000a81548160ff0219169083151502179055506040518060e001604052803373ffffffffffffffffffffffffffffffffffffffff1681526020018681526020018581526020018481526020018342610a839190611385565b81526020015f81526020015f151581525060015f8381526020019081526020015f205f820151815f015f6101000a81548173ffffffffffffffffffffffffffffffffffffffff021916908373ffffffffffffffffffffffffffffffffffffffff1602179055506020820151816001019081610afe9190611744565b506040820151816002019081610b149190611744565b50606082015181600301556080820151816004015560a0820151816005015560c0820151816006015f6101000a81548160ff0219169083151502179055509050503373ffffffffffffffffffffffffffffffffffffffff16817fac9b83534845c9e785a6ea70f2d809db1d72ef9a1d981753712d922f5cb55f398787878742610b9d9190611385565b604051610bad9493929190611813565b60405180910390a35050505050565b5f604051905090565b5f5ffd5b5f5ffd5b5f819050919050565b610bdf81610bcd565b8114610be9575f5ffd5b50565b5f81359050610bfa81610bd6565b92915050565b5f60208284031215610c1557610c14610bc5565b5b5f610c2284828501610bec565b91505092915050565b610c3481610bcd565b82525050565b5f604082019050610c4d5f830185610c2b565b610c5a6020830184610c2b565b9392505050565b5f73ffffffffffffffffffffffffffffffffffffffff82169050919050565b5f610c8a82610c61565b9050919050565b610c9a81610c80565b82525050565b5f81519050919050565b5f82825260208201905092915050565b8281835e5f83830152505050565b5f601f19601f8301169050919050565b5f610ce282610ca0565b610cec8185610caa565b9350610cfc818560208601610cba565b610d0581610cc8565b840191505092915050565b5f8115159050919050565b610d2481610d10565b82525050565b5f60e082019050610d3d5f83018a610c91565b8181036020830152610d4f8189610cd8565b90508181036040830152610d638188610cd8565b9050610d726060830187610c2b565b610d7f6080830186610c2b565b610d8c60a0830185610c2b565b610d9960c0830184610d1b565b98975050505050505050565b5f602082019050610db85f830184610c2b565b92915050565b610dc781610c80565b8114610dd1575f5ffd5b50565b5f81359050610de281610dbe565b92915050565b5f5f60408385031215610dfe57610dfd610bc5565b5b5f610e0b85828601610bec565b9250506020610e1c85828601610dd4565b9150509250929050565b5f5ffd5b5f5ffd5b7f4e487b71000000000000000000000000000000000000000000000000000000005f52604160045260245ffd5b610e6482610cc8565b810181811067ffffffffffffffff82111715610e8357610e82610e2e565b5b80604052505050565b5f610e95610bbc565b9050610ea18282610e5b565b919050565b5f67ffffffffffffffff821115610ec057610ebf610e2e565b5b610ec982610cc8565b9050602081019050919050565b828183375f83830152505050565b5f610ef6610ef184610ea6565b610e8c565b905082815260208101848484011115610f1257610f11610e2a565b5b610f1d848285610ed6565b509392505050565b5f82601f830112610f3957610f38610e26565b5b8135610f49848260208601610ee4565b91505092915050565b5f5f5f5f5f60a08688031215610f6b57610f6a610bc5565b5b5f86013567ffffffffffffffff811115610f8857610f87610bc9565b5b610f9488828901610f25565b955050602086013567ffffffffffffffff811115610fb557610fb4610bc9565b5b610fc188828901610f25565b9450506040610fd288828901610bec565b9350506060610fe388828901610bec565b9250506080610ff488828901610bec565b9150509295509295909350565b7f70726f6a65637420686173206e6f74206265656e2063726561746564207965745f8201527f2100000000000000000000000000000000000000000000000000000000000000602082015250565b5f61105b602183610caa565b915061106682611001565b604082019050919050565b5f6020820190508181035f8301526110888161104f565b9050919050565b7f4e487b71000000000000000000000000000000000000000000000000000000005f52601160045260245ffd5b5f6110c682610bcd565b91506110d183610bcd565b92508282039050818111156110e9576110e861108f565b5b92915050565b7f4e487b71000000000000000000000000000000000000000000000000000000005f52602260045260245ffd5b5f600282049050600182168061113357607f821691505b602082108103611146576111456110ef565b5b50919050565b7f46756e64696e6720676f616c206861732072656163686564202c2075736572205f8201527f63616e2774207769746864726177000000000000000000000000000000000000602082015250565b5f6111a6602e83610caa565b91506111b18261114c565b604082019050919050565b5f6020820190508181035f8301526111d38161119a565b9050919050565b5f6040820190506111ed5f830185610c91565b6111fa6020830184610c2b565b9392505050565b7f50726f6a65637420646561646c696e65206973206f76657221000000000000005f82015250565b5f611235601983610caa565b915061124082611201565b602082019050919050565b5f6020820190508181035f83015261126281611229565b9050919050565b7f50726f6a6563742052656163686564206974732046756e64696e6720726571755f8201527f6972656d656e7400000000000000000000000000000000000000000000000000602082015250565b5f6112c3602783610caa565b91506112ce82611269565b604082019050919050565b5f6020820190508181035f8301526112f0816112b7565b9050919050565b7f73656e6420736f6d6520657468657220746f20636f6e7472696275746520696e5f8201527f207468652070726f6a6563740000000000000000000000000000000000000000602082015250565b5f611351602c83610caa565b915061135c826112f7565b604082019050919050565b5f6020820190508181035f83015261137e81611345565b9050919050565b5f61138f82610bcd565b915061139a83610bcd565b92508282019050808211156113b2576113b161108f565b5b92915050565b7f66756e64696e6720676f616c20686173206e6f742072656163686564202c20615f8201527f646d696e2063616e277420776974686472617700000000000000000000000000602082015250565b5f611412603383610caa565b915061141d826113b8565b604082019050919050565b5f6020820190508181035f83015261143f81611406565b9050919050565b7f6f6e6c792061646d696e2063616e2077697468647261770000000000000000005f82015250565b5f61147a601783610caa565b915061148582611446565b602082019050919050565b5f6020820190508181035f8301526114a78161146e565b9050919050565b7f646561646c696e6520686173206e6f742072656163686564202c2061646d696e5f8201527f2063616e27742077697468647261770000000000000000000000000000000000602082015250565b5f611508602f83610caa565b9150611513826114ae565b604082019050919050565b5f6020820190508181035f830152611535816114fc565b9050919050565b7f50726f6a65637420494420697320616c726561647920696e20757365210000005f82015250565b5f611570601d83610caa565b915061157b8261153c565b602082019050919050565b5f6020820190508181035f83015261159d81611564565b9050919050565b5f819050815f5260205f209050919050565b5f6020601f8301049050919050565b5f82821b905092915050565b5f600883026116007fffffffffffffffffffffffffffffffffffffffffffffffffffffffffffffffff826115c5565b61160a86836115c5565b95508019841693508086168417925050509392505050565b5f819050919050565b5f61164561164061163b84610bcd565b611622565b610bcd565b9050919050565b5f819050919050565b61165e8361162b565b61167261166a8261164c565b8484546115d1565b825550505050565b5f5f905090565b61168961167a565b611694818484611655565b505050565b5b818110156116b7576116ac5f82611681565b60018101905061169a565b5050565b601f8211156116fc576116cd816115a4565b6116d6846115b6565b810160208510156116e5578190505b6116f96116f1856115b6565b830182611699565b50505b505050565b5f82821c905092915050565b5f61171c5f1984600802611701565b1980831691505092915050565b5f611734838361170d565b9150826002028217905092915050565b61174d82610ca0565b67ffffffffffffffff81111561176657611765610e2e565b5b611770825461111c565b61177b8282856116bb565b5f60209050601f8311600181146117ac575f841561179a578287015190505b6117a48582611729565b86555061180b565b601f1984166117ba866115a4565b5f5b828110156117e1578489015182556001820191506020850194506020810190506117bc565b868310156117fe57848901516117fa601f89168261170d565b8355505b6001600288020188555050505b505050505050565b5f6080820190508181035f83015261182b8187610cd8565b9050818103602083015261183f8186610cd8565b905061184e6040830185610c2b565b61185b6060830184610c2b565b9594505050505056fea26469706673582212206dccbdcd61c682b9ed20f87ee99a27e33e322f52781232a0f723d0320bfa540964736f6c634300081e0033",
					"opcodes": "PUSH1 0x80 PUSH1 0x40 MSTORE CALLVALUE DUP1 ISZERO PUSH1 0xE JUMPI PUSH0 PUSH0 REVERT JUMPDEST POP PUSH2 0x189A DUP1 PUSH2 0x1C PUSH0 CODECOPY PUSH0 RETURN INVALID PUSH1 0x80 PUSH1 0x40 MSTORE PUSH1 0x4 CALLDATASIZE LT PUSH2 0x85 JUMPI PUSH0 CALLDATALOAD PUSH1 0xE0 SHR DUP1 PUSH4 0x54A5BCC5 GT PUSH2 0x58 JUMPI DUP1 PUSH4 0x54A5BCC5 EQ PUSH2 0x160 JUMPI DUP1 PUSH4 0x5D4E5D78 EQ PUSH2 0x18A JUMPI DUP1 PUSH4 0x6C563ABE EQ PUSH2 0x1C6 JUMPI DUP1 PUSH4 0x71EB89F3 EQ PUSH2 0x1E2 JUMPI DUP1 PUSH4 0xF81BF601 EQ PUSH2 0x1FE JUMPI PUSH2 0x85 JUMP JUMPDEST DUP1 PUSH4 0xDBAC135 EQ PUSH2 0x89 JUMPI DUP1 PUSH4 0x21B2416C EQ PUSH2 0xC6 JUMPI DUP1 PUSH4 0x370C36B4 EQ PUSH2 0x108 JUMPI DUP1 PUSH4 0x3B9056BF EQ PUSH2 0x144 JUMPI JUMPDEST PUSH0 PUSH0 REVERT JUMPDEST CALLVALUE DUP1 ISZERO PUSH2 0x94 JUMPI PUSH0 PUSH0 REVERT JUMPDEST POP PUSH2 0xAF PUSH1 0x4 DUP1 CALLDATASIZE SUB DUP2 ADD SWAP1 PUSH2 0xAA SWAP2 SWAP1 PUSH2 0xC00 JUMP JUMPDEST PUSH2 0x226 JUMP JUMPDEST PUSH1 0x40 MLOAD PUSH2 0xBD SWAP3 SWAP2 SWAP1 PUSH2 0xC3A JUMP JUMPDEST PUSH1 0x40 MLOAD DUP1 SWAP2 SUB SWAP1 RETURN JUMPDEST CALLVALUE DUP1 ISZERO PUSH2 0xD1 JUMPI PUSH0 PUSH0 REVERT JUMPDEST POP PUSH2 0xEC PUSH1 0x4 DUP1 CALLDATASIZE SUB DUP2 ADD SWAP1 PUSH2 0xE7 SWAP2 SWAP1 PUSH2 0xC00 JUMP JUMPDEST PUSH2 0x307 JUMP JUMPDEST PUSH1 0x40 MLOAD PUSH2 0xFF SWAP8 SWAP7 SWAP6 SWAP5 SWAP4 SWAP3 SWAP2 SWAP1 PUSH2 0xD2A JUMP JUMPDEST PUSH1 0x40 MLOAD DUP1 SWAP2 SUB SWAP1 RETURN JUMPDEST CALLVALUE DUP1 ISZERO PUSH2 0x113 JUMPI PUSH0 PUSH0 REVERT JUMPDEST POP PUSH2 0x12E PUSH1 0x4 DUP1 CALLDATASIZE SUB DUP2 ADD SWAP1 PUSH2 0x129 SWAP2 SWAP1 PUSH2 0xC00 JUMP JUMPDEST PUSH2 0x47C JUMP JUMPDEST PUSH1 0x40 MLOAD PUSH2 0x13B SWAP2 SWAP1 PUSH2 0xDA5 JUMP JUMPDEST PUSH1 0x40 MLOAD DUP1 SWAP2 SUB SWAP1 RETURN JUMPDEST PUSH2 0x15E PUSH1 0x4 DUP1 CALLDATASIZE SUB DUP2 ADD SWAP1 PUSH2 0x159 SWAP2 SWAP1 PUSH2 0xC00 JUMP JUMPDEST PUSH2 0x4BE JUMP JUMPDEST STOP JUMPDEST CALLVALUE DUP1 ISZERO PUSH2 0x16B JUMPI PUSH0 PUSH0 REVERT JUMPDEST POP PUSH2 0x174 PUSH2 0x5EF JUMP JUMPDEST PUSH1 0x40 MLOAD PUSH2 0x181 SWAP2 SWAP1 PUSH2 0xDA5 JUMP JUMPDEST PUSH1 0x40 MLOAD DUP1 SWAP2 SUB SWAP1 RETURN JUMPDEST CALLVALUE DUP1 ISZERO PUSH2 0x195 JUMPI PUSH0 PUSH0 REVERT JUMPDEST POP PUSH2 0x1B0 PUSH1 0x4 DUP1 CALLDATASIZE SUB DUP2 ADD SWAP1 PUSH2 0x1AB SWAP2 SWAP1 PUSH2 0xDE8 JUMP JUMPDEST PUSH2 0x5F7 JUMP JUMPDEST PUSH1 0x40 MLOAD PUSH2 0x1BD SWAP2 SWAP1 PUSH2 0xDA5 JUMP JUMPDEST PUSH1 0x40 MLOAD DUP1 SWAP2 SUB SWAP1 RETURN JUMPDEST PUSH2 0x1E0 PUSH1 0x4 DUP1 CALLDATASIZE SUB DUP2 ADD SWAP1 PUSH2 0x1DB SWAP2 SWAP1 PUSH2 0xC00 JUMP JUMPDEST PUSH2 0x617 JUMP JUMPDEST STOP JUMPDEST PUSH2 0x1FC PUSH1 0x4 DUP1 CALLDATASIZE SUB DUP2 ADD SWAP1 PUSH2 0x1F7 SWAP2 SWAP1 PUSH2 0xC00 JUMP JUMPDEST PUSH2 0x7F1 JUMP JUMPDEST STOP JUMPDEST CALLVALUE DUP1 ISZERO PUSH2 0x209 JUMPI PUSH0 PUSH0 REVERT JUMPDEST POP PUSH2 0x224 PUSH1 0x4 DUP1 CALLDATASIZE SUB DUP2 ADD SWAP1 PUSH2 0x21F SWAP2 SWAP1 PUSH2 0xF52 JUMP JUMPDEST PUSH2 0x9B7 JUMP JUMPDEST STOP JUMPDEST PUSH0 PUSH0 PUSH0 PUSH1 0x1 PUSH0 DUP6 DUP2 MSTORE PUSH1 0x20 ADD SWAP1 DUP2 MSTORE PUSH1 0x20 ADD PUSH0 KECCAK256 SWAP1 POP DUP1 PUSH1 0x3 ADD SLOAD SWAP3 POP PUSH0 PUSH20 0xFFFFFFFFFFFFFFFFFFFFFFFFFFFFFFFFFFFFFFFF AND DUP2 PUSH0 ADD PUSH0 SWAP1 SLOAD SWAP1 PUSH2 0x100 EXP SWAP1 DIV PUSH20 0xFFFFFFFFFFFFFFFFFFFFFFFFFFFFFFFFFFFFFFFF AND PUSH20 0xFFFFFFFFFFFFFFFFFFFFFFFFFFFFFFFFFFFFFFFF AND SUB PUSH2 0x2D3 JUMPI PUSH1 0x40 MLOAD PUSH32 0x8C379A000000000000000000000000000000000000000000000000000000000 DUP2 MSTORE PUSH1 0x4 ADD PUSH2 0x2CA SWAP1 PUSH2 0x1071 JUMP JUMPDEST PUSH1 0x40 MLOAD DUP1 SWAP2 SUB SWAP1 REVERT JUMPDEST DUP1 PUSH1 0x3 ADD SLOAD DUP2 PUSH1 0x5 ADD SLOAD LT PUSH2 0x2EA JUMPI PUSH0 SWAP2 POP PUSH2 0x301 JUMP JUMPDEST DUP1 PUSH1 0x5 ADD SLOAD DUP2 PUSH1 0x3 ADD SLOAD PUSH2 0x2FE SWAP2 SWAP1 PUSH2 0x10BC JUMP JUMPDEST SWAP2 POP JUMPDEST POP SWAP2 POP SWAP2 JUMP JUMPDEST PUSH1 0x1 PUSH1 0x20 MSTORE DUP1 PUSH0 MSTORE PUSH1 0x40 PUSH0 KECCAK256 PUSH0 SWAP2 POP SWAP1 POP DUP1 PUSH0 ADD PUSH0 SWAP1 SLOAD SWAP1 PUSH2 0x100 EXP SWAP1 DIV PUSH20 0xFFFFFFFFFFFFFFFFFFFFFFFFFFFFFFFFFFFFFFFF AND SWAP1 DUP1 PUSH1 0x1 ADD DUP1 SLOAD PUSH2 0x34B SWAP1 PUSH2 0x111C JUMP JUMPDEST DUP1 PUSH1 0x1F ADD PUSH1 0x20 DUP1 SWAP2 DIV MUL PUSH1 0x20 ADD PUSH1 0x40 MLOAD SWAP1 DUP2 ADD PUSH1 0x40 MSTORE DUP1 SWAP3 SWAP2 SWAP1 DUP2 DUP2 MSTORE PUSH1 0x20 ADD DUP3 DUP1 SLOAD PUSH2 0x377 SWAP1 PUSH2 0x111C JUMP JUMPDEST DUP1 ISZERO PUSH2 0x3C2 JUMPI DUP1 PUSH1 0x1F LT PUSH2 0x399 JUMPI PUSH2 0x100 DUP1 DUP4 SLOAD DIV MUL DUP4 MSTORE SWAP2 PUSH1 0x20 ADD SWAP2 PUSH2 0x3C2 JUMP JUMPDEST DUP3 ADD SWAP2 SWAP1 PUSH0 MSTORE PUSH1 0x20 PUSH0 KECCAK256 SWAP1 JUMPDEST DUP2 SLOAD DUP2 MSTORE SWAP1 PUSH1 0x1 ADD SWAP1 PUSH1 0x20 ADD DUP1 DUP4 GT PUSH2 0x3A5 JUMPI DUP3 SWAP1 SUB PUSH1 0x1F AND DUP3 ADD SWAP2 JUMPDEST POP POP POP POP POP SWAP1 DUP1 PUSH1 0x2 ADD DUP1 SLOAD PUSH2 0x3D7 SWAP1 PUSH2 0x111C JUMP JUMPDEST DUP1 PUSH1 0x1F ADD PUSH1 0x20 DUP1 SWAP2 DIV MUL PUSH1 0x20 ADD PUSH1 0x40 MLOAD SWAP1 DUP2 ADD PUSH1 0x40 MSTORE DUP1 SWAP3 SWAP2 SWAP1 DUP2 DUP2 MSTORE PUSH1 0x20 ADD DUP3 DUP1 SLOAD PUSH2 0x403 SWAP1 PUSH2 0x111C JUMP JUMPDEST DUP1 ISZERO PUSH2 0x44E JUMPI DUP1 PUSH1 0x1F LT PUSH2 0x425 JUMPI PUSH2 0x100 DUP1 DUP4 SLOAD DIV MUL DUP4 MSTORE SWAP2 PUSH1 0x20 ADD SWAP2 PUSH2 0x44E JUMP JUMPDEST DUP3 ADD SWAP2 SWAP1 PUSH0 MSTORE PUSH1 0x20 PUSH0 KECCAK256 SWAP1 JUMPDEST DUP2 SLOAD DUP2 MSTORE SWAP1 PUSH1 0x1 ADD SWAP1 PUSH1 0x20 ADD DUP1 DUP4 GT PUSH2 0x431 JUMPI DUP3 SWAP1 SUB PUSH1 0x1F AND DUP3 ADD SWAP2 JUMPDEST POP POP POP POP POP SWAP1 DUP1 PUSH1 0x3 ADD SLOAD SWAP1 DUP1 PUSH1 0x4 ADD SLOAD SWAP1 DUP1 PUSH1 0x5 ADD SLOAD SWAP1 DUP1 PUSH1 0x6 ADD PUSH0 SWAP1 SLOAD SWAP1 PUSH2 0x100 EXP SWAP1 DIV PUSH1 0xFF AND SWAP1 POP DUP8 JUMP JUMPDEST PUSH0 PUSH0 PUSH1 0x1 PUSH0 DUP5 DUP2 MSTORE PUSH1 0x20 ADD SWAP1 DUP2 MSTORE PUSH1 0x20 ADD PUSH0 KECCAK256 SWAP1 POP DUP1 PUSH1 0x4 ADD SLOAD TIMESTAMP LT PUSH2 0x4A5 JUMPI PUSH0 SWAP2 POP POP PUSH2 0x4B9 JUMP JUMPDEST TIMESTAMP DUP2 PUSH1 0x4 ADD SLOAD PUSH2 0x4B5 SWAP2 SWAP1 PUSH2 0x10BC JUMP JUMPDEST SWAP2 POP POP JUMPDEST SWAP2 SWAP1 POP JUMP JUMPDEST PUSH0 PUSH1 0x1 PUSH0 DUP4 DUP2 MSTORE PUSH1 0x20 ADD SWAP1 DUP2 MSTORE PUSH1 0x20 ADD PUSH0 KECCAK256 SWAP1 POP DUP1 PUSH1 0x3 ADD SLOAD DUP2 PUSH1 0x5 ADD SLOAD LT PUSH2 0x51C JUMPI PUSH1 0x40 MLOAD PUSH32 0x8C379A000000000000000000000000000000000000000000000000000000000 DUP2 MSTORE PUSH1 0x4 ADD PUSH2 0x513 SWAP1 PUSH2 0x11BC JUMP JUMPDEST PUSH1 0x40 MLOAD DUP1 SWAP2 SUB SWAP1 REVERT JUMPDEST PUSH0 PUSH1 0x2 PUSH0 DUP5 DUP2 MSTORE PUSH1 0x20 ADD SWAP1 DUP2 MSTORE PUSH1 0x20 ADD PUSH0 KECCAK256 PUSH0 CALLER PUSH20 0xFFFFFFFFFFFFFFFFFFFFFFFFFFFFFFFFFFFFFFFF AND PUSH20 0xFFFFFFFFFFFFFFFFFFFFFFFFFFFFFFFFFFFFFFFF AND DUP2 MSTORE PUSH1 0x20 ADD SWAP1 DUP2 MSTORE PUSH1 0x20 ADD PUSH0 KECCAK256 SLOAD SWAP1 POP CALLER PUSH20 0xFFFFFFFFFFFFFFFFFFFFFFFFFFFFFFFFFFFFFFFF AND PUSH2 0x8FC DUP3 SWAP1 DUP2 ISZERO MUL SWAP1 PUSH1 0x40 MLOAD PUSH0 PUSH1 0x40 MLOAD DUP1 DUP4 SUB DUP2 DUP6 DUP9 DUP9 CALL SWAP4 POP POP POP POP ISZERO DUP1 ISZERO PUSH2 0x5AF JUMPI RETURNDATASIZE PUSH0 PUSH0 RETURNDATACOPY RETURNDATASIZE PUSH0 REVERT JUMPDEST POP DUP3 PUSH32 0xB6E4E293B6C7C5CF68FBB52EDFACA6173710FCCCBCECAC03C32E62327FC000C6 CALLER CALLVALUE PUSH1 0x40 MLOAD PUSH2 0x5E2 SWAP3 SWAP2 SWAP1 PUSH2 0x11DA JUMP JUMPDEST PUSH1 0x40 MLOAD DUP1 SWAP2 SUB SWAP1 LOG2 POP POP POP JUMP JUMPDEST PUSH0 PUSH0 SLOAD SWAP1 POP SWAP1 JUMP JUMPDEST PUSH1 0x2 PUSH1 0x20 MSTORE DUP2 PUSH0 MSTORE PUSH1 0x40 PUSH0 KECCAK256 PUSH1 0x20 MSTORE DUP1 PUSH0 MSTORE PUSH1 0x40 PUSH0 KECCAK256 PUSH0 SWAP2 POP SWAP2 POP POP SLOAD DUP2 JUMP JUMPDEST PUSH0 PUSH1 0x1 PUSH0 DUP4 DUP2 MSTORE PUSH1 0x20 ADD SWAP1 DUP2 MSTORE PUSH1 0x20 ADD PUSH0 KECCAK256 SWAP1 POP DUP1 PUSH1 0x4 ADD SLOAD TIMESTAMP GT ISZERO PUSH2 0x672 JUMPI PUSH1 0x40 MLOAD PUSH32 0x8C379A000000000000000000000000000000000000000000000000000000000 DUP2 MSTORE PUSH1 0x4 ADD PUSH2 0x669 SWAP1 PUSH2 0x124B JUMP JUMPDEST PUSH1 0x40 MLOAD DUP1 SWAP2 SUB SWAP1 REVERT JUMPDEST DUP1 PUSH1 0x6 ADD PUSH0 SWAP1 SLOAD SWAP1 PUSH2 0x100 EXP SWAP1 DIV PUSH1 0xFF AND ISZERO PUSH2 0x6C3 JUMPI PUSH1 0x40 MLOAD PUSH32 0x8C379A000000000000000000000000000000000000000000000000000000000 DUP2 MSTORE PUSH1 0x4 ADD PUSH2 0x6BA SWAP1 PUSH2 0x12D9 JUMP JUMPDEST PUSH1 0x40 MLOAD DUP1 SWAP2 SUB SWAP1 REVERT JUMPDEST PUSH0 CALLVALUE GT PUSH2 0x705 JUMPI PUSH1 0x40 MLOAD PUSH32 0x8C379A000000000000000000000000000000000000000000000000000000000 DUP2 MSTORE PUSH1 0x4 ADD PUSH2 0x6FC SWAP1 PUSH2 0x1367 JUMP JUMPDEST PUSH1 0x40 MLOAD DUP1 SWAP2 SUB SWAP1 REVERT JUMPDEST CALLVALUE DUP2 PUSH1 0x5 ADD PUSH0 DUP3 DUP3 SLOAD PUSH2 0x718 SWAP2 SWAP1 PUSH2 0x1385 JUMP JUMPDEST SWAP3 POP POP DUP2 SWAP1 SSTORE POP CALLVALUE PUSH1 0x2 PUSH0 DUP5 DUP2 MSTORE PUSH1 0x20 ADD SWAP1 DUP2 MSTORE PUSH1 0x20 ADD PUSH0 KECCAK256 PUSH0 CALLER PUSH20 0xFFFFFFFFFFFFFFFFFFFFFFFFFFFFFFFFFFFFFFFF AND PUSH20 0xFFFFFFFFFFFFFFFFFFFFFFFFFFFFFFFFFFFFFFFF AND DUP2 MSTORE PUSH1 0x20 ADD SWAP1 DUP2 MSTORE PUSH1 0x20 ADD PUSH0 KECCAK256 DUP2 SWAP1 SSTORE POP CALLVALUE PUSH0 PUSH0 DUP3 DUP3 SLOAD PUSH2 0x780 SWAP2 SWAP1 PUSH2 0x1385 JUMP JUMPDEST SWAP3 POP POP DUP2 SWAP1 SSTORE POP DUP2 PUSH32 0xF234FC17E03E9C3501C842E35414FD219E9E8BC572C4632EF54DB1493E3AFAF4 CALLER CALLVALUE PUSH1 0x40 MLOAD PUSH2 0x7B9 SWAP3 SWAP2 SWAP1 PUSH2 0x11DA JUMP JUMPDEST PUSH1 0x40 MLOAD DUP1 SWAP2 SUB SWAP1 LOG2 DUP1 PUSH1 0x3 ADD SLOAD DUP2 PUSH1 0x5 ADD SLOAD LT PUSH2 0x7ED JUMPI PUSH1 0x1 DUP2 PUSH1 0x6 ADD PUSH0 PUSH2 0x100 EXP DUP2 SLOAD DUP2 PUSH1 0xFF MUL NOT AND SWAP1 DUP4 ISZERO ISZERO MUL OR SWAP1 SSTORE POP JUMPDEST POP POP JUMP JUMPDEST PUSH0 PUSH1 0x1 PUSH0 DUP4 DUP2 MSTORE PUSH1 0x20 ADD SWAP1 DUP2 MSTORE PUSH1 0x20 ADD PUSH0 KECCAK256 SWAP1 POP PUSH0 DUP2 PUSH1 0x5 ADD SLOAD SWAP1 POP DUP2 PUSH1 0x6 ADD PUSH0 SWAP1 SLOAD SWAP1 PUSH2 0x100 EXP SWAP1 DIV PUSH1 0xFF AND PUSH2 0x85D JUMPI PUSH1 0x40 MLOAD PUSH32 0x8C379A000000000000000000000000000000000000000000000000000000000 DUP2 MSTORE PUSH1 0x4 ADD PUSH2 0x854 SWAP1 PUSH2 0x1428 JUMP JUMPDEST PUSH1 0x40 MLOAD DUP1 SWAP2 SUB SWAP1 REVERT JUMPDEST CALLER PUSH20 0xFFFFFFFFFFFFFFFFFFFFFFFFFFFFFFFFFFFFFFFF AND DUP3 PUSH0 ADD PUSH0 SWAP1 SLOAD SWAP1 PUSH2 0x100 EXP SWAP1 DIV PUSH20 0xFFFFFFFFFFFFFFFFFFFFFFFFFFFFFFFFFFFFFFFF AND PUSH20 0xFFFFFFFFFFFFFFFFFFFFFFFFFFFFFFFFFFFFFFFF AND EQ PUSH2 0x8ED JUMPI PUSH1 0x40 MLOAD PUSH32 0x8C379A000000000000000000000000000000000000000000000000000000000 DUP2 MSTORE PUSH1 0x4 ADD PUSH2 0x8E4 SWAP1 PUSH2 0x1490 JUMP JUMPDEST PUSH1 0x40 MLOAD DUP1 SWAP2 SUB SWAP1 REVERT JUMPDEST TIMESTAMP DUP3 PUSH1 0x4 ADD SLOAD GT ISZERO PUSH2 0x934 JUMPI PUSH1 0x40 MLOAD PUSH32 0x8C379A000000000000000000000000000000000000000000000000000000000 DUP2 MSTORE PUSH1 0x4 ADD PUSH2 0x92B SWAP1 PUSH2 0x151E JUMP JUMPDEST PUSH1 0x40 MLOAD DUP1 SWAP2 SUB SWAP1 REVERT JUMPDEST CALLER PUSH20 0xFFFFFFFFFFFFFFFFFFFFFFFFFFFFFFFFFFFFFFFF AND PUSH2 0x8FC DUP3 SWAP1 DUP2 ISZERO MUL SWAP1 PUSH1 0x40 MLOAD PUSH0 PUSH1 0x40 MLOAD DUP1 DUP4 SUB DUP2 DUP6 DUP9 DUP9 CALL SWAP4 POP POP POP POP ISZERO DUP1 ISZERO PUSH2 0x977 JUMPI RETURNDATASIZE PUSH0 PUSH0 RETURNDATACOPY RETURNDATASIZE PUSH0 REVERT JUMPDEST POP DUP3 PUSH32 0xCAE030E1A3C6B0011E7009BD65734E2E1E330528F6983497631FABD47FA7A281 CALLER CALLVALUE PUSH1 0x40 MLOAD PUSH2 0x9AA SWAP3 SWAP2 SWAP1 PUSH2 0x11DA JUMP JUMPDEST PUSH1 0x40 MLOAD DUP1 SWAP2 SUB SWAP1 LOG2 POP POP POP JUMP JUMPDEST PUSH1 0x3 PUSH0 DUP3 DUP2 MSTORE PUSH1 0x20 ADD SWAP1 DUP2 MSTORE PUSH1 0x20 ADD PUSH0 KECCAK256 PUSH0 SWAP1 SLOAD SWAP1 PUSH2 0x100 EXP SWAP1 DIV PUSH1 0xFF AND ISZERO PUSH2 0xA15 JUMPI PUSH1 0x40 MLOAD PUSH32 0x8C379A000000000000000000000000000000000000000000000000000000000 DUP2 MSTORE PUSH1 0x4 ADD PUSH2 0xA0C SWAP1 PUSH2 0x1586 JUMP JUMPDEST PUSH1 0x40 MLOAD DUP1 SWAP2 SUB SWAP1 REVERT JUMPDEST PUSH1 0x1 PUSH1 0x3 PUSH0 DUP4 DUP2 MSTORE PUSH1 0x20 ADD SWAP1 DUP2 MSTORE PUSH1 0x20 ADD PUSH0 KECCAK256 PUSH0 PUSH2 0x100 EXP DUP2 SLOAD DUP2 PUSH1 0xFF MUL NOT AND SWAP1 DUP4 ISZERO ISZERO MUL OR SWAP1 SSTORE POP PUSH1 0x40 MLOAD DUP1 PUSH1 0xE0 ADD PUSH1 0x40 MSTORE DUP1 CALLER PUSH20 0xFFFFFFFFFFFFFFFFFFFFFFFFFFFFFFFFFFFFFFFF AND DUP2 MSTORE PUSH1 0x20 ADD DUP7 DUP2 MSTORE PUSH1 0x20 ADD DUP6 DUP2 MSTORE PUSH1 0x20 ADD DUP5 DUP2 MSTORE PUSH1 0x20 ADD DUP4 TIMESTAMP PUSH2 0xA83 SWAP2 SWAP1 PUSH2 0x1385 JUMP JUMPDEST DUP2 MSTORE PUSH1 0x20 ADD PUSH0 DUP2 MSTORE PUSH1 0x20 ADD PUSH0 ISZERO ISZERO DUP2 MSTORE POP PUSH1 0x1 PUSH0 DUP4 DUP2 MSTORE PUSH1 0x20 ADD SWAP1 DUP2 MSTORE PUSH1 0x20 ADD PUSH0 KECCAK256 PUSH0 DUP3 ADD MLOAD DUP2 PUSH0 ADD PUSH0 PUSH2 0x100 EXP DUP2 SLOAD DUP2 PUSH20 0xFFFFFFFFFFFFFFFFFFFFFFFFFFFFFFFFFFFFFFFF MUL NOT AND SWAP1 DUP4 PUSH20 0xFFFFFFFFFFFFFFFFFFFFFFFFFFFFFFFFFFFFFFFF AND MUL OR SWAP1 SSTORE POP PUSH1 0x20 DUP3 ADD MLOAD DUP2 PUSH1 0x1 ADD SWAP1 DUP2 PUSH2 0xAFE SWAP2 SWAP1 PUSH2 0x1744 JUMP JUMPDEST POP PUSH1 0x40 DUP3 ADD MLOAD DUP2 PUSH1 0x2 ADD SWAP1 DUP2 PUSH2 0xB14 SWAP2 SWAP1 PUSH2 0x1744 JUMP JUMPDEST POP PUSH1 0x60 DUP3 ADD MLOAD DUP2 PUSH1 0x3 ADD SSTORE PUSH1 0x80 DUP3 ADD MLOAD DUP2 PUSH1 0x4 ADD SSTORE PUSH1 0xA0 DUP3 ADD MLOAD DUP2 PUSH1 0x5 ADD SSTORE PUSH1 0xC0 DUP3 ADD MLOAD DUP2 PUSH1 0x6 ADD PUSH0 PUSH2 0x100 EXP DUP2 SLOAD DUP2 PUSH1 0xFF MUL NOT AND SWAP1 DUP4 ISZERO ISZERO MUL OR SWAP1 SSTORE POP SWAP1 POP POP CALLER PUSH20 0xFFFFFFFFFFFFFFFFFFFFFFFFFFFFFFFFFFFFFFFF AND DUP2 PUSH32 0xAC9B83534845C9E785A6EA70F2D809DB1D72EF9A1D981753712D922F5CB55F39 DUP8 DUP8 DUP8 DUP8 TIMESTAMP PUSH2 0xB9D SWAP2 SWAP1 PUSH2 0x1385 JUMP JUMPDEST PUSH1 0x40 MLOAD PUSH2 0xBAD SWAP5 SWAP4 SWAP3 SWAP2 SWAP1 PUSH2 0x1813 JUMP JUMPDEST PUSH1 0x40 MLOAD DUP1 SWAP2 SUB SWAP1 LOG3 POP POP POP POP POP JUMP JUMPDEST PUSH0 PUSH1 0x40 MLOAD SWAP1 POP SWAP1 JUMP JUMPDEST PUSH0 PUSH0 REVERT JUMPDEST PUSH0 PUSH0 REVERT JUMPDEST PUSH0 DUP2 SWAP1 POP SWAP2 SWAP1 POP JUMP JUMPDEST PUSH2 0xBDF DUP2 PUSH2 0xBCD JUMP JUMPDEST DUP2 EQ PUSH2 0xBE9 JUMPI PUSH0 PUSH0 REVERT JUMPDEST POP JUMP JUMPDEST PUSH0 DUP2 CALLDATALOAD SWAP1 POP PUSH2 0xBFA DUP2 PUSH2 0xBD6 JUMP JUMPDEST SWAP3 SWAP2 POP POP JUMP JUMPDEST PUSH0 PUSH1 0x20 DUP3 DUP5 SUB SLT ISZERO PUSH2 0xC15 JUMPI PUSH2 0xC14 PUSH2 0xBC5 JUMP JUMPDEST JUMPDEST PUSH0 PUSH2 0xC22 DUP5 DUP3 DUP6 ADD PUSH2 0xBEC JUMP JUMPDEST SWAP2 POP POP SWAP3 SWAP2 POP POP JUMP JUMPDEST PUSH2 0xC34 DUP2 PUSH2 0xBCD JUMP JUMPDEST DUP3 MSTORE POP POP JUMP JUMPDEST PUSH0 PUSH1 0x40 DUP3 ADD SWAP1 POP PUSH2 0xC4D PUSH0 DUP4 ADD DUP6 PUSH2 0xC2B JUMP JUMPDEST PUSH2 0xC5A PUSH1 0x20 DUP4 ADD DUP5 PUSH2 0xC2B JUMP JUMPDEST SWAP4 SWAP3 POP POP POP JUMP JUMPDEST PUSH0 PUSH20 0xFFFFFFFFFFFFFFFFFFFFFFFFFFFFFFFFFFFFFFFF DUP3 AND SWAP1 POP SWAP2 SWAP1 POP JUMP JUMPDEST PUSH0 PUSH2 0xC8A DUP3 PUSH2 0xC61 JUMP JUMPDEST SWAP1 POP SWAP2 SWAP1 POP JUMP JUMPDEST PUSH2 0xC9A DUP2 PUSH2 0xC80 JUMP JUMPDEST DUP3 MSTORE POP POP JUMP JUMPDEST PUSH0 DUP2 MLOAD SWAP1 POP SWAP2 SWAP1 POP JUMP JUMPDEST PUSH0 DUP3 DUP3 MSTORE PUSH1 0x20 DUP3 ADD SWAP1 POP SWAP3 SWAP2 POP POP JUMP JUMPDEST DUP3 DUP2 DUP4 MCOPY PUSH0 DUP4 DUP4 ADD MSTORE POP POP POP JUMP JUMPDEST PUSH0 PUSH1 0x1F NOT PUSH1 0x1F DUP4 ADD AND SWAP1 POP SWAP2 SWAP1 POP JUMP JUMPDEST PUSH0 PUSH2 0xCE2 DUP3 PUSH2 0xCA0 JUMP JUMPDEST PUSH2 0xCEC DUP2 DUP6 PUSH2 0xCAA JUMP JUMPDEST SWAP4 POP PUSH2 0xCFC DUP2 DUP6 PUSH1 0x20 DUP7 ADD PUSH2 0xCBA JUMP JUMPDEST PUSH2 0xD05 DUP2 PUSH2 0xCC8 JUMP JUMPDEST DUP5 ADD SWAP2 POP POP SWAP3 SWAP2 POP POP JUMP JUMPDEST PUSH0 DUP2 ISZERO ISZERO SWAP1 POP SWAP2 SWAP1 POP JUMP JUMPDEST PUSH2 0xD24 DUP2 PUSH2 0xD10 JUMP JUMPDEST DUP3 MSTORE POP POP JUMP JUMPDEST PUSH0 PUSH1 0xE0 DUP3 ADD SWAP1 POP PUSH2 0xD3D PUSH0 DUP4 ADD DUP11 PUSH2 0xC91 JUMP JUMPDEST DUP2 DUP2 SUB PUSH1 0x20 DUP4 ADD MSTORE PUSH2 0xD4F DUP2 DUP10 PUSH2 0xCD8 JUMP JUMPDEST SWAP1 POP DUP2 DUP2 SUB PUSH1 0x40 DUP4 ADD MSTORE PUSH2 0xD63 DUP2 DUP9 PUSH2 0xCD8 JUMP JUMPDEST SWAP1 POP PUSH2 0xD72 PUSH1 0x60 DUP4 ADD DUP8 PUSH2 0xC2B JUMP JUMPDEST PUSH2 0xD7F PUSH1 0x80 DUP4 ADD DUP7 PUSH2 0xC2B JUMP JUMPDEST PUSH2 0xD8C PUSH1 0xA0 DUP4 ADD DUP6 PUSH2 0xC2B JUMP JUMPDEST PUSH2 0xD99 PUSH1 0xC0 DUP4 ADD DUP5 PUSH2 0xD1B JUMP JUMPDEST SWAP9 SWAP8 POP POP POP POP POP POP POP POP JUMP JUMPDEST PUSH0 PUSH1 0x20 DUP3 ADD SWAP1 POP PUSH2 0xDB8 PUSH0 DUP4 ADD DUP5 PUSH2 0xC2B JUMP JUMPDEST SWAP3 SWAP2 POP POP JUMP JUMPDEST PUSH2 0xDC7 DUP2 PUSH2 0xC80 JUMP JUMPDEST DUP2 EQ PUSH2 0xDD1 JUMPI PUSH0 PUSH0 REVERT JUMPDEST POP JUMP JUMPDEST PUSH0 DUP2 CALLDATALOAD SWAP1 POP PUSH2 0xDE2 DUP2 PUSH2 0xDBE JUMP JUMPDEST SWAP3 SWAP2 POP POP JUMP JUMPDEST PUSH0 PUSH0 PUSH1 0x40 DUP4 DUP6 SUB SLT ISZERO PUSH2 0xDFE JUMPI PUSH2 0xDFD PUSH2 0xBC5 JUMP JUMPDEST JUMPDEST PUSH0 PUSH2 0xE0B DUP6 DUP3 DUP7 ADD PUSH2 0xBEC JUMP JUMPDEST SWAP3 POP POP PUSH1 0x20 PUSH2 0xE1C DUP6 DUP3 DUP7 ADD PUSH2 0xDD4 JUMP JUMPDEST SWAP2 POP POP SWAP3 POP SWAP3 SWAP1 POP JUMP JUMPDEST PUSH0 PUSH0 REVERT JUMPDEST PUSH0 PUSH0 REVERT JUMPDEST PUSH32 0x4E487B7100000000000000000000000000000000000000000000000000000000 PUSH0 MSTORE PUSH1 0x41 PUSH1 0x4 MSTORE PUSH1 0x24 PUSH0 REVERT JUMPDEST PUSH2 0xE64 DUP3 PUSH2 0xCC8 JUMP JUMPDEST DUP2 ADD DUP2 DUP2 LT PUSH8 0xFFFFFFFFFFFFFFFF DUP3 GT OR ISZERO PUSH2 0xE83 JUMPI PUSH2 0xE82 PUSH2 0xE2E JUMP JUMPDEST JUMPDEST DUP1 PUSH1 0x40 MSTORE POP POP POP JUMP JUMPDEST PUSH0 PUSH2 0xE95 PUSH2 0xBBC JUMP JUMPDEST SWAP1 POP PUSH2 0xEA1 DUP3 DUP3 PUSH2 0xE5B JUMP JUMPDEST SWAP2 SWAP1 POP JUMP JUMPDEST PUSH0 PUSH8 0xFFFFFFFFFFFFFFFF DUP3 GT ISZERO PUSH2 0xEC0 JUMPI PUSH2 0xEBF PUSH2 0xE2E JUMP JUMPDEST JUMPDEST PUSH2 0xEC9 DUP3 PUSH2 0xCC8 JUMP JUMPDEST SWAP1 POP PUSH1 0x20 DUP2 ADD SWAP1 POP SWAP2 SWAP1 POP JUMP JUMPDEST DUP3 DUP2 DUP4 CALLDATACOPY PUSH0 DUP4 DUP4 ADD MSTORE POP POP POP JUMP JUMPDEST PUSH0 PUSH2 0xEF6 PUSH2 0xEF1 DUP5 PUSH2 0xEA6 JUMP JUMPDEST PUSH2 0xE8C JUMP JUMPDEST SWAP1 POP DUP3 DUP2 MSTORE PUSH1 0x20 DUP2 ADD DUP5 DUP5 DUP5 ADD GT ISZERO PUSH2 0xF12 JUMPI PUSH2 0xF11 PUSH2 0xE2A JUMP JUMPDEST JUMPDEST PUSH2 0xF1D DUP5 DUP3 DUP6 PUSH2 0xED6 JUMP JUMPDEST POP SWAP4 SWAP3 POP POP POP JUMP JUMPDEST PUSH0 DUP3 PUSH1 0x1F DUP4 ADD SLT PUSH2 0xF39 JUMPI PUSH2 0xF38 PUSH2 0xE26 JUMP JUMPDEST JUMPDEST DUP2 CALLDATALOAD PUSH2 0xF49 DUP5 DUP3 PUSH1 0x20 DUP7 ADD PUSH2 0xEE4 JUMP JUMPDEST SWAP2 POP POP SWAP3 SWAP2 POP POP JUMP JUMPDEST PUSH0 PUSH0 PUSH0 PUSH0 PUSH0 PUSH1 0xA0 DUP7 DUP9 SUB SLT ISZERO PUSH2 0xF6B JUMPI PUSH2 0xF6A PUSH2 0xBC5 JUMP JUMPDEST JUMPDEST PUSH0 DUP7 ADD CALLDATALOAD PUSH8 0xFFFFFFFFFFFFFFFF DUP2 GT ISZERO PUSH2 0xF88 JUMPI PUSH2 0xF87 PUSH2 0xBC9 JUMP JUMPDEST JUMPDEST PUSH2 0xF94 DUP9 DUP3 DUP10 ADD PUSH2 0xF25 JUMP JUMPDEST SWAP6 POP POP PUSH1 0x20 DUP7 ADD CALLDATALOAD PUSH8 0xFFFFFFFFFFFFFFFF DUP2 GT ISZERO PUSH2 0xFB5 JUMPI PUSH2 0xFB4 PUSH2 0xBC9 JUMP JUMPDEST JUMPDEST PUSH2 0xFC1 DUP9 DUP3 DUP10 ADD PUSH2 0xF25 JUMP JUMPDEST SWAP5 POP POP PUSH1 0x40 PUSH2 0xFD2 DUP9 DUP3 DUP10 ADD PUSH2 0xBEC JUMP JUMPDEST SWAP4 POP POP PUSH1 0x60 PUSH2 0xFE3 DUP9 DUP3 DUP10 ADD PUSH2 0xBEC JUMP JUMPDEST SWAP3 POP POP PUSH1 0x80 PUSH2 0xFF4 DUP9 DUP3 DUP10 ADD PUSH2 0xBEC JUMP JUMPDEST SWAP2 POP POP SWAP3 SWAP6 POP SWAP3 SWAP6 SWAP1 SWAP4 POP JUMP JUMPDEST PUSH32 0x70726F6A65637420686173206E6F74206265656E206372656174656420796574 PUSH0 DUP3 ADD MSTORE PUSH32 0x2100000000000000000000000000000000000000000000000000000000000000 PUSH1 0x20 DUP3 ADD MSTORE POP JUMP JUMPDEST PUSH0 PUSH2 0x105B PUSH1 0x21 DUP4 PUSH2 0xCAA JUMP JUMPDEST SWAP2 POP PUSH2 0x1066 DUP3 PUSH2 0x1001 JUMP JUMPDEST PUSH1 0x40 DUP3 ADD SWAP1 POP SWAP2 SWAP1 POP JUMP JUMPDEST PUSH0 PUSH1 0x20 DUP3 ADD SWAP1 POP DUP2 DUP2 SUB PUSH0 DUP4 ADD MSTORE PUSH2 0x1088 DUP2 PUSH2 0x104F JUMP JUMPDEST SWAP1 POP SWAP2 SWAP1 POP JUMP JUMPDEST PUSH32 0x4E487B7100000000000000000000000000000000000000000000000000000000 PUSH0 MSTORE PUSH1 0x11 PUSH1 0x4 MSTORE PUSH1 0x24 PUSH0 REVERT JUMPDEST PUSH0 PUSH2 0x10C6 DUP3 PUSH2 0xBCD JUMP JUMPDEST SWAP2 POP PUSH2 0x10D1 DUP4 PUSH2 0xBCD JUMP JUMPDEST SWAP3 POP DUP3 DUP3 SUB SWAP1 POP DUP2 DUP2 GT ISZERO PUSH2 0x10E9 JUMPI PUSH2 0x10E8 PUSH2 0x108F JUMP JUMPDEST JUMPDEST SWAP3 SWAP2 POP POP JUMP JUMPDEST PUSH32 0x4E487B7100000000000000000000000000000000000000000000000000000000 PUSH0 MSTORE PUSH1 0x22 PUSH1 0x4 MSTORE PUSH1 0x24 PUSH0 REVERT JUMPDEST PUSH0 PUSH1 0x2 DUP3 DIV SWAP1 POP PUSH1 0x1 DUP3 AND DUP1 PUSH2 0x1133 JUMPI PUSH1 0x7F DUP3 AND SWAP2 POP JUMPDEST PUSH1 0x20 DUP3 LT DUP2 SUB PUSH2 0x1146 JUMPI PUSH2 0x1145 PUSH2 0x10EF JUMP JUMPDEST JUMPDEST POP SWAP2 SWAP1 POP JUMP JUMPDEST PUSH32 0x46756E64696E6720676F616C206861732072656163686564202C207573657220 PUSH0 DUP3 ADD MSTORE PUSH32 0x63616E2774207769746864726177000000000000000000000000000000000000 PUSH1 0x20 DUP3 ADD MSTORE POP JUMP JUMPDEST PUSH0 PUSH2 0x11A6 PUSH1 0x2E DUP4 PUSH2 0xCAA JUMP JUMPDEST SWAP2 POP PUSH2 0x11B1 DUP3 PUSH2 0x114C JUMP JUMPDEST PUSH1 0x40 DUP3 ADD SWAP1 POP SWAP2 SWAP1 POP JUMP JUMPDEST PUSH0 PUSH1 0x20 DUP3 ADD SWAP1 POP DUP2 DUP2 SUB PUSH0 DUP4 ADD MSTORE PUSH2 0x11D3 DUP2 PUSH2 0x119A JUMP JUMPDEST SWAP1 POP SWAP2 SWAP1 POP JUMP JUMPDEST PUSH0 PUSH1 0x40 DUP3 ADD SWAP1 POP PUSH2 0x11ED PUSH0 DUP4 ADD DUP6 PUSH2 0xC91 JUMP JUMPDEST PUSH2 0x11FA PUSH1 0x20 DUP4 ADD DUP5 PUSH2 0xC2B JUMP JUMPDEST SWAP4 SWAP3 POP POP POP JUMP JUMPDEST PUSH32 0x50726F6A65637420646561646C696E65206973206F7665722100000000000000 PUSH0 DUP3 ADD MSTORE POP JUMP JUMPDEST PUSH0 PUSH2 0x1235 PUSH1 0x19 DUP4 PUSH2 0xCAA JUMP JUMPDEST SWAP2 POP PUSH2 0x1240 DUP3 PUSH2 0x1201 JUMP JUMPDEST PUSH1 0x20 DUP3 ADD SWAP1 POP SWAP2 SWAP1 POP JUMP JUMPDEST PUSH0 PUSH1 0x20 DUP3 ADD SWAP1 POP DUP2 DUP2 SUB PUSH0 DUP4 ADD MSTORE PUSH2 0x1262 DUP2 PUSH2 0x1229 JUMP JUMPDEST SWAP1 POP SWAP2 SWAP1 POP JUMP JUMPDEST PUSH32 0x50726F6A6563742052656163686564206974732046756E64696E672072657175 PUSH0 DUP3 ADD MSTORE PUSH32 0x6972656D656E7400000000000000000000000000000000000000000000000000 PUSH1 0x20 DUP3 ADD MSTORE POP JUMP JUMPDEST PUSH0 PUSH2 0x12C3 PUSH1 0x27 DUP4 PUSH2 0xCAA JUMP JUMPDEST SWAP2 POP PUSH2 0x12CE DUP3 PUSH2 0x1269 JUMP JUMPDEST PUSH1 0x40 DUP3 ADD SWAP1 POP SWAP2 SWAP1 POP JUMP JUMPDEST PUSH0 PUSH1 0x20 DUP3 ADD SWAP1 POP DUP2 DUP2 SUB PUSH0 DUP4 ADD MSTORE PUSH2 0x12F0 DUP2 PUSH2 0x12B7 JUMP JUMPDEST SWAP1 POP SWAP2 SWAP1 POP JUMP JUMPDEST PUSH32 0x73656E6420736F6D6520657468657220746F20636F6E7472696275746520696E PUSH0 DUP3 ADD MSTORE PUSH32 0x207468652070726F6A6563740000000000000000000000000000000000000000 PUSH1 0x20 DUP3 ADD MSTORE POP JUMP JUMPDEST PUSH0 PUSH2 0x1351 PUSH1 0x2C DUP4 PUSH2 0xCAA JUMP JUMPDEST SWAP2 POP PUSH2 0x135C DUP3 PUSH2 0x12F7 JUMP JUMPDEST PUSH1 0x40 DUP3 ADD SWAP1 POP SWAP2 SWAP1 POP JUMP JUMPDEST PUSH0 PUSH1 0x20 DUP3 ADD SWAP1 POP DUP2 DUP2 SUB PUSH0 DUP4 ADD MSTORE PUSH2 0x137E DUP2 PUSH2 0x1345 JUMP JUMPDEST SWAP1 POP SWAP2 SWAP1 POP JUMP JUMPDEST PUSH0 PUSH2 0x138F DUP3 PUSH2 0xBCD JUMP JUMPDEST SWAP2 POP PUSH2 0x139A DUP4 PUSH2 0xBCD JUMP JUMPDEST SWAP3 POP DUP3 DUP3 ADD SWAP1 POP DUP1 DUP3 GT ISZERO PUSH2 0x13B2 JUMPI PUSH2 0x13B1 PUSH2 0x108F JUMP JUMPDEST JUMPDEST SWAP3 SWAP2 POP POP JUMP JUMPDEST PUSH32 0x66756E64696E6720676F616C20686173206E6F742072656163686564202C2061 PUSH0 DUP3 ADD MSTORE PUSH32 0x646D696E2063616E277420776974686472617700000000000000000000000000 PUSH1 0x20 DUP3 ADD MSTORE POP JUMP JUMPDEST PUSH0 PUSH2 0x1412 PUSH1 0x33 DUP4 PUSH2 0xCAA JUMP JUMPDEST SWAP2 POP PUSH2 0x141D DUP3 PUSH2 0x13B8 JUMP JUMPDEST PUSH1 0x40 DUP3 ADD SWAP1 POP SWAP2 SWAP1 POP JUMP JUMPDEST PUSH0 PUSH1 0x20 DUP3 ADD SWAP1 POP DUP2 DUP2 SUB PUSH0 DUP4 ADD MSTORE PUSH2 0x143F DUP2 PUSH2 0x1406 JUMP JUMPDEST SWAP1 POP SWAP2 SWAP1 POP JUMP JUMPDEST PUSH32 0x6F6E6C792061646D696E2063616E207769746864726177000000000000000000 PUSH0 DUP3 ADD MSTORE POP JUMP JUMPDEST PUSH0 PUSH2 0x147A PUSH1 0x17 DUP4 PUSH2 0xCAA JUMP JUMPDEST SWAP2 POP PUSH2 0x1485 DUP3 PUSH2 0x1446 JUMP JUMPDEST PUSH1 0x20 DUP3 ADD SWAP1 POP SWAP2 SWAP1 POP JUMP JUMPDEST PUSH0 PUSH1 0x20 DUP3 ADD SWAP1 POP DUP2 DUP2 SUB PUSH0 DUP4 ADD MSTORE PUSH2 0x14A7 DUP2 PUSH2 0x146E JUMP JUMPDEST SWAP1 POP SWAP2 SWAP1 POP JUMP JUMPDEST PUSH32 0x646561646C696E6520686173206E6F742072656163686564202C2061646D696E PUSH0 DUP3 ADD MSTORE PUSH32 0x2063616E27742077697468647261770000000000000000000000000000000000 PUSH1 0x20 DUP3 ADD MSTORE POP JUMP JUMPDEST PUSH0 PUSH2 0x1508 PUSH1 0x2F DUP4 PUSH2 0xCAA JUMP JUMPDEST SWAP2 POP PUSH2 0x1513 DUP3 PUSH2 0x14AE JUMP JUMPDEST PUSH1 0x40 DUP3 ADD SWAP1 POP SWAP2 SWAP1 POP JUMP JUMPDEST PUSH0 PUSH1 0x20 DUP3 ADD SWAP1 POP DUP2 DUP2 SUB PUSH0 DUP4 ADD MSTORE PUSH2 0x1535 DUP2 PUSH2 0x14FC JUMP JUMPDEST SWAP1 POP SWAP2 SWAP1 POP JUMP JUMPDEST PUSH32 0x50726F6A65637420494420697320616C726561647920696E2075736521000000 PUSH0 DUP3 ADD MSTORE POP JUMP JUMPDEST PUSH0 PUSH2 0x1570 PUSH1 0x1D DUP4 PUSH2 0xCAA JUMP JUMPDEST SWAP2 POP PUSH2 0x157B DUP3 PUSH2 0x153C JUMP JUMPDEST PUSH1 0x20 DUP3 ADD SWAP1 POP SWAP2 SWAP1 POP JUMP JUMPDEST PUSH0 PUSH1 0x20 DUP3 ADD SWAP1 POP DUP2 DUP2 SUB PUSH0 DUP4 ADD MSTORE PUSH2 0x159D DUP2 PUSH2 0x1564 JUMP JUMPDEST SWAP1 POP SWAP2 SWAP1 POP JUMP JUMPDEST PUSH0 DUP2 SWAP1 POP DUP2 PUSH0 MSTORE PUSH1 0x20 PUSH0 KECCAK256 SWAP1 POP SWAP2 SWAP1 POP JUMP JUMPDEST PUSH0 PUSH1 0x20 PUSH1 0x1F DUP4 ADD DIV SWAP1 POP SWAP2 SWAP1 POP JUMP JUMPDEST PUSH0 DUP3 DUP3 SHL SWAP1 POP SWAP3 SWAP2 POP POP JUMP JUMPDEST PUSH0 PUSH1 0x8 DUP4 MUL PUSH2 0x1600 PUSH32 0xFFFFFFFFFFFFFFFFFFFFFFFFFFFFFFFFFFFFFFFFFFFFFFFFFFFFFFFFFFFFFFFF DUP3 PUSH2 0x15C5 JUMP JUMPDEST PUSH2 0x160A DUP7 DUP4 PUSH2 0x15C5 JUMP JUMPDEST SWAP6 POP DUP1 NOT DUP5 AND SWAP4 POP DUP1 DUP7 AND DUP5 OR SWAP3 POP POP POP SWAP4 SWAP3 POP POP POP JUMP JUMPDEST PUSH0 DUP2 SWAP1 POP SWAP2 SWAP1 POP JUMP JUMPDEST PUSH0 PUSH2 0x1645 PUSH2 0x1640 PUSH2 0x163B DUP5 PUSH2 0xBCD JUMP JUMPDEST PUSH2 0x1622 JUMP JUMPDEST PUSH2 0xBCD JUMP JUMPDEST SWAP1 POP SWAP2 SWAP1 POP JUMP JUMPDEST PUSH0 DUP2 SWAP1 POP SWAP2 SWAP1 POP JUMP JUMPDEST PUSH2 0x165E DUP4 PUSH2 0x162B JUMP JUMPDEST PUSH2 0x1672 PUSH2 0x166A DUP3 PUSH2 0x164C JUMP JUMPDEST DUP5 DUP5 SLOAD PUSH2 0x15D1 JUMP JUMPDEST DUP3 SSTORE POP POP POP POP JUMP JUMPDEST PUSH0 PUSH0 SWAP1 POP SWAP1 JUMP JUMPDEST PUSH2 0x1689 PUSH2 0x167A JUMP JUMPDEST PUSH2 0x1694 DUP2 DUP5 DUP5 PUSH2 0x1655 JUMP JUMPDEST POP POP POP JUMP JUMPDEST JUMPDEST DUP2 DUP2 LT ISZERO PUSH2 0x16B7 JUMPI PUSH2 0x16AC PUSH0 DUP3 PUSH2 0x1681 JUMP JUMPDEST PUSH1 0x1 DUP2 ADD SWAP1 POP PUSH2 0x169A JUMP JUMPDEST POP POP JUMP JUMPDEST PUSH1 0x1F DUP3 GT ISZERO PUSH2 0x16FC JUMPI PUSH2 0x16CD DUP2 PUSH2 0x15A4 JUMP JUMPDEST PUSH2 0x16D6 DUP5 PUSH2 0x15B6 JUMP JUMPDEST DUP2 ADD PUSH1 0x20 DUP6 LT ISZERO PUSH2 0x16E5 JUMPI DUP2 SWAP1 POP JUMPDEST PUSH2 0x16F9 PUSH2 0x16F1 DUP6 PUSH2 0x15B6 JUMP JUMPDEST DUP4 ADD DUP3 PUSH2 0x1699 JUMP JUMPDEST POP POP JUMPDEST POP POP POP JUMP JUMPDEST PUSH0 DUP3 DUP3 SHR SWAP1 POP SWAP3 SWAP2 POP POP JUMP JUMPDEST PUSH0 PUSH2 0x171C PUSH0 NOT DUP5 PUSH1 0x8 MUL PUSH2 0x1701 JUMP JUMPDEST NOT DUP1 DUP4 AND SWAP2 POP POP SWAP3 SWAP2 POP POP JUMP JUMPDEST PUSH0 PUSH2 0x1734 DUP4 DUP4 PUSH2 0x170D JUMP JUMPDEST SWAP2 POP DUP3 PUSH1 0x2 MUL DUP3 OR SWAP1 POP SWAP3 SWAP2 POP POP JUMP JUMPDEST PUSH2 0x174D DUP3 PUSH2 0xCA0 JUMP JUMPDEST PUSH8 0xFFFFFFFFFFFFFFFF DUP2 GT ISZERO PUSH2 0x1766 JUMPI PUSH2 0x1765 PUSH2 0xE2E JUMP JUMPDEST JUMPDEST PUSH2 0x1770 DUP3 SLOAD PUSH2 0x111C JUMP JUMPDEST PUSH2 0x177B DUP3 DUP3 DUP6 PUSH2 0x16BB JUMP JUMPDEST PUSH0 PUSH1 0x20 SWAP1 POP PUSH1 0x1F DUP4 GT PUSH1 0x1 DUP2 EQ PUSH2 0x17AC JUMPI PUSH0 DUP5 ISZERO PUSH2 0x179A JUMPI DUP3 DUP8 ADD MLOAD SWAP1 POP JUMPDEST PUSH2 0x17A4 DUP6 DUP3 PUSH2 0x1729 JUMP JUMPDEST DUP7 SSTORE POP PUSH2 0x180B JUMP JUMPDEST PUSH1 0x1F NOT DUP5 AND PUSH2 0x17BA DUP7 PUSH2 0x15A4 JUMP JUMPDEST PUSH0 JUMPDEST DUP3 DUP2 LT ISZERO PUSH2 0x17E1 JUMPI DUP5 DUP10 ADD MLOAD DUP3 SSTORE PUSH1 0x1 DUP3 ADD SWAP2 POP PUSH1 0x20 DUP6 ADD SWAP5 POP PUSH1 0x20 DUP2 ADD SWAP1 POP PUSH2 0x17BC JUMP JUMPDEST DUP7 DUP4 LT ISZERO PUSH2 0x17FE JUMPI DUP5 DUP10 ADD MLOAD PUSH2 0x17FA PUSH1 0x1F DUP10 AND DUP3 PUSH2 0x170D JUMP JUMPDEST DUP4 SSTORE POP JUMPDEST PUSH1 0x1 PUSH1 0x2 DUP9 MUL ADD DUP9 SSTORE POP POP POP JUMPDEST POP POP POP POP POP POP JUMP JUMPDEST PUSH0 PUSH1 0x80 DUP3 ADD SWAP1 POP DUP2 DUP2 SUB PUSH0 DUP4 ADD MSTORE PUSH2 0x182B DUP2 DUP8 PUSH2 0xCD8 JUMP JUMPDEST SWAP1 POP DUP2 DUP2 SUB PUSH1 0x20 DUP4 ADD MSTORE PUSH2 0x183F DUP2 DUP7 PUSH2 0xCD8 JUMP JUMPDEST SWAP1 POP PUSH2 0x184E PUSH1 0x40 DUP4 ADD DUP6 PUSH2 0xC2B JUMP JUMPDEST PUSH2 0x185B PUSH1 0x60 DUP4 ADD DUP5 PUSH2 0xC2B JUMP JUMPDEST SWAP6 SWAP5 POP POP POP POP POP JUMP INVALID LOG2 PUSH5 0x6970667358 0x22 SLT KECCAK256 PUSH14 0xCCBDCD61C682B9ED20F87EE99A27 CALLF 0x3E32 0x2F MSTORE PUSH25 0x1232A0F723D0320BFA540964736F6C634300081E0033000000 "
				},
				"gasEstimates": {
					"creation": {
						"codeDepositCost": "1259600",
						"executionCost": "1306",
						"totalCost": "1260906"
					},
					"external": {
						"Contributions(uint256,address)": "infinite",
						"Get_Total_Raised_Funding()": "2431",
						"Projects(uint256)": "infinite",
						"Remaining_Fund(uint256)": "infinite",
						"Time_Left(uint256)": "infinite",
						"createProject(string,string,uint256,uint256,uint256)": "infinite",
						"creatorWithdraw(uint256)": "infinite",
						"fundProject(uint256)": "infinite",
						"userWithdraw(uint256)": "infinite"
					}
				},
				"methodIdentifiers": {
					"Contributions(uint256,address)": "5d4e5d78",
					"Get_Total_Raised_Funding()": "54a5bcc5",
					"Projects(uint256)": "21b2416c",
					"Remaining_Fund(uint256)": "0dbac135",
					"Time_Left(uint256)": "370c36b4",
					"createProject(string,string,uint256,uint256,uint256)": "f81bf601",
					"creatorWithdraw(uint256)": "71eb89f3",
					"fundProject(uint256)": "6c563abe",
					"userWithdraw(uint256)": "3b9056bf"
				}
			},
			"storageLayout": {
				"storage": [
					{
						"astId": 3,
						"contract": "contracts/CrowdTank.sol:CrowdTank",
						"label": "TotalRaisedFunding",
						"offset": 0,
						"slot": "0",
						"type": "t_uint256"
					},
					{
						"astId": 23,
						"contract": "contracts/CrowdTank.sol:CrowdTank",
						"label": "Projects",
						"offset": 0,
						"slot": "1",
						"type": "t_mapping(t_uint256,t_struct(project)18_storage)"
					},
					{
						"astId": 29,
						"contract": "contracts/CrowdTank.sol:CrowdTank",
						"label": "Contributions",
						"offset": 0,
						"slot": "2",
						"type": "t_mapping(t_uint256,t_mapping(t_address,t_uint256))"
					},
					{
						"astId": 33,
						"contract": "contracts/CrowdTank.sol:CrowdTank",
						"label": "isIdUsed",
						"offset": 0,
						"slot": "3",
						"type": "t_mapping(t_uint256,t_bool)"
					}
				],
				"types": {
					"t_address": {
						"encoding": "inplace",
						"label": "address",
						"numberOfBytes": "20"
					},
					"t_bool": {
						"encoding": "inplace",
						"label": "bool",
						"numberOfBytes": "1"
					},
					"t_mapping(t_address,t_uint256)": {
						"encoding": "mapping",
						"key": "t_address",
						"label": "mapping(address => uint256)",
						"numberOfBytes": "32",
						"value": "t_uint256"
					},
					"t_mapping(t_uint256,t_bool)": {
						"encoding": "mapping",
						"key": "t_uint256",
						"label": "mapping(uint256 => bool)",
						"numberOfBytes": "32",
						"value": "t_bool"
					},
					"t_mapping(t_uint256,t_mapping(t_address,t_uint256))": {
						"encoding": "mapping",
						"key": "t_uint256",
						"label": "mapping(uint256 => mapping(address => uint256))",
						"numberOfBytes": "32",
						"value": "t_mapping(t_address,t_uint256)"
					},
					"t_mapping(t_uint256,t_struct(project)18_storage)": {
						"encoding": "mapping",
						"key": "t_uint256",
						"label": "mapping(uint256 => struct CrowdTank.project)",
						"numberOfBytes": "32",
						"value": "t_struct(project)18_storage"
					},
					"t_string_storage": {
						"encoding": "bytes",
						"label": "string",
						"numberOfBytes": "32"
					},
					"t_struct(project)18_storage": {
						"encoding": "inplace",
						"label": "struct CrowdTank.project",
						"members": [
							{
								"astId": 5,
								"contract": "contracts/CrowdTank.sol:CrowdTank",
								"label": "creator",
								"offset": 0,
								"slot": "0",
								"type": "t_address"
							},
							{
								"astId": 7,
								"contract": "contracts/CrowdTank.sol:CrowdTank",
								"label": "name",
								"offset": 0,
								"slot": "1",
								"type": "t_string_storage"
							},
							{
								"astId": 9,
								"contract": "contracts/CrowdTank.sol:CrowdTank",
								"label": "description",
								"offset": 0,
								"slot": "2",
								"type": "t_string_storage"
							},
							{
								"astId": 11,
								"contract": "contracts/CrowdTank.sol:CrowdTank",
								"label": "fundingGoal",
								"offset": 0,
								"slot": "3",
								"type": "t_uint256"
							},
							{
								"astId": 13,
								"contract": "contracts/CrowdTank.sol:CrowdTank",
								"label": "deadline",
								"offset": 0,
								"slot": "4",
								"type": "t_uint256"
							},
							{
								"astId": 15,
								"contract": "contracts/CrowdTank.sol:CrowdTank",
								"label": "amountRaised",
								"offset": 0,
								"slot": "5",
								"type": "t_uint256"
							},
							{
								"astId": 17,
								"contract": "contracts/CrowdTank.sol:CrowdTank",
								"label": "funded",
								"offset": 0,
								"slot": "6",
								"type": "t_bool"
							}
						],
						"numberOfBytes": "224"
					},
					"t_uint256": {
						"encoding": "inplace",
						"label": "uint256",
						"numberOfBytes": "32"
					}
				}
			},
			"userdoc": {
				"kind": "user",
				"methods": {},
				"version": 1
			}
		}
	}
}