{
	"contracts/CrowdTank.sol": {
		"CrowdTank": {
			"abi": [
				{
					"anonymous": false,
					"inputs": [
						{
							"indexed": true,
							"internalType": "uint256",
							"name": "projectID",
							"type": "uint256"
						},
						{
							"indexed": true,
							"internalType": "address",
							"name": "creator",
							"type": "address"
						},
						{
							"indexed": false,
							"internalType": "string",
							"name": "name",
							"type": "string"
						},
						{
							"indexed": false,
							"internalType": "string",
							"name": "description",
							"type": "string"
						},
						{
							"indexed": false,
							"internalType": "uint256",
							"name": "fundingGoal",
							"type": "uint256"
						},
						{
							"indexed": false,
							"internalType": "uint256",
							"name": "deadline",
							"type": "uint256"
						}
					],
					"name": "ProjectCreated",
					"type": "event"
				},
				{
					"anonymous": false,
					"inputs": [
						{
							"indexed": true,
							"internalType": "uint256",
							"name": "projectID",
							"type": "uint256"
						},
						{
							"indexed": false,
							"internalType": "address",
							"name": "withdrawer",
							"type": "address"
						},
						{
							"indexed": false,
							"internalType": "uint256",
							"name": "amount",
							"type": "uint256"
						}
					],
					"name": "creatorWithdrawn",
					"type": "event"
				},
				{
					"anonymous": false,
					"inputs": [
						{
							"indexed": true,
							"internalType": "uint256",
							"name": "projectID",
							"type": "uint256"
						},
						{
							"indexed": false,
							"internalType": "address",
							"name": "contributor",
							"type": "address"
						},
						{
							"indexed": false,
							"internalType": "uint256",
							"name": "amount",
							"type": "uint256"
						},
						{
							"indexed": false,
							"internalType": "uint256",
							"name": "refund",
							"type": "uint256"
						}
					],
					"name": "funded",
					"type": "event"
				},
				{
					"anonymous": false,
					"inputs": [
						{
							"indexed": true,
							"internalType": "uint256",
							"name": "projectID",
							"type": "uint256"
						},
						{
							"indexed": false,
							"internalType": "address",
							"name": "withdrawer",
							"type": "address"
						},
						{
							"indexed": false,
							"internalType": "uint256",
							"name": "amount",
							"type": "uint256"
						}
					],
					"name": "userWithdrawn",
					"type": "event"
				},
				{
					"inputs": [
						{
							"internalType": "uint256",
							"name": "_projectID",
							"type": "uint256"
						},
						{
							"internalType": "uint256",
							"name": "Change_Goal",
							"type": "uint256"
						}
					],
					"name": "Change_FundingGoal",
					"outputs": [],
					"stateMutability": "nonpayable",
					"type": "function"
				},
				{
					"inputs": [
						{
							"internalType": "uint256",
							"name": "",
							"type": "uint256"
						},
						{
							"internalType": "address",
							"name": "",
							"type": "address"
						}
					],
					"name": "Contributions",
					"outputs": [
						{
							"internalType": "uint256",
							"name": "",
							"type": "uint256"
						}
					],
					"stateMutability": "view",
					"type": "function"
				},
				{
					"inputs": [
						{
							"internalType": "uint256",
							"name": "_projectID",
							"type": "uint256"
						},
						{
							"internalType": "uint256",
							"name": "_deadline",
							"type": "uint256"
						}
					],
					"name": "Extend_Deadline",
					"outputs": [],
					"stateMutability": "nonpayable",
					"type": "function"
				},
				{
					"inputs": [],
					"name": "Get_Total_Raised_Funding",
					"outputs": [
						{
							"internalType": "uint256",
							"name": "",
							"type": "uint256"
						}
					],
					"stateMutability": "view",
					"type": "function"
				},
				{
					"inputs": [
						{
							"internalType": "uint256",
							"name": "",
							"type": "uint256"
						}
					],
					"name": "Projects",
					"outputs": [
						{
							"internalType": "address",
							"name": "creator",
							"type": "address"
						},
						{
							"internalType": "string",
							"name": "name",
							"type": "string"
						},
						{
							"internalType": "string",
							"name": "description",
							"type": "string"
						},
						{
							"internalType": "uint256",
							"name": "fundingGoal",
							"type": "uint256"
						},
						{
							"internalType": "uint256",
							"name": "deadline",
							"type": "uint256"
						},
						{
							"internalType": "uint256",
							"name": "amountRaised",
							"type": "uint256"
						},
						{
							"internalType": "bool",
							"name": "funded",
							"type": "bool"
						}
					],
					"stateMutability": "view",
					"type": "function"
				},
				{
					"inputs": [
						{
							"internalType": "uint256",
							"name": "projectID",
							"type": "uint256"
						}
					],
					"name": "Remaining_Fund",
					"outputs": [
						{
							"internalType": "uint256",
							"name": "fundingGoal",
							"type": "uint256"
						},
						{
							"internalType": "uint256",
							"name": "remainingFund",
							"type": "uint256"
						}
					],
					"stateMutability": "view",
					"type": "function"
				},
				{
					"inputs": [
						{
							"internalType": "uint256",
							"name": "projectID",
							"type": "uint256"
						}
					],
					"name": "Time_Left",
					"outputs": [
						{
							"internalType": "uint256",
							"name": "",
							"type": "uint256"
						}
					],
					"stateMutability": "view",
					"type": "function"
				},
				{
					"inputs": [
						{
							"internalType": "string",
							"name": "_name",
							"type": "string"
						},
						{
							"internalType": "string",
							"name": "_description",
							"type": "string"
						},
						{
							"internalType": "uint256",
							"name": "_fundingGoal",
							"type": "uint256"
						},
						{
							"internalType": "uint256",
							"name": "_durationSeconds",
							"type": "uint256"
						},
						{
							"internalType": "uint256",
							"name": "_id",
							"type": "uint256"
						}
					],
					"name": "createProject",
					"outputs": [],
					"stateMutability": "nonpayable",
					"type": "function"
				},
				{
					"inputs": [
						{
							"internalType": "uint256",
							"name": "_projectID",
							"type": "uint256"
						}
					],
					"name": "creatorWithdraw",
					"outputs": [],
					"stateMutability": "payable",
					"type": "function"
				},
				{
					"inputs": [
						{
							"internalType": "uint256",
							"name": "_projectID",
							"type": "uint256"
						}
					],
					"name": "fundProject",
					"outputs": [],
					"stateMutability": "payable",
					"type": "function"
				},
				{
					"inputs": [
						{
							"internalType": "uint256",
							"name": "_projectID",
							"type": "uint256"
						}
					],
					"name": "userWithdraw",
					"outputs": [],
					"stateMutability": "payable",
					"type": "function"
				}
			],
			"devdoc": {
				"kind": "dev",
				"methods": {},
				"version": 1
			},
			"evm": {
				"assembly": "    /* \"contracts/CrowdTank.sol\":174:6653  contract CrowdTank {... */\n  mstore(0x40, 0x80)\n  callvalue\n  dup1\n  iszero\n  tag_1\n  jumpi\n  revert(0x00, 0x00)\ntag_1:\n  pop\n  dataSize(sub_0)\n  dup1\n  dataOffset(sub_0)\n  0x00\n  codecopy\n  0x00\n  return\nstop\n\nsub_0: assembly {\n        /* \"contracts/CrowdTank.sol\":174:6653  contract CrowdTank {... */\n      mstore(0x40, 0x80)\n      jumpi(tag_1, lt(calldatasize, 0x04))\n      shr(0xe0, calldataload(0x00))\n      dup1\n      0x54a5bcc5\n      gt\n      tag_13\n      jumpi\n      dup1\n      0x54a5bcc5\n      eq\n      tag_7\n      jumpi\n      dup1\n      0x5d4e5d78\n      eq\n      tag_8\n      jumpi\n      dup1\n      0x629b2647\n      eq\n      tag_9\n      jumpi\n      dup1\n      0x6c563abe\n      eq\n      tag_10\n      jumpi\n      dup1\n      0x71eb89f3\n      eq\n      tag_11\n      jumpi\n      dup1\n      0xf81bf601\n      eq\n      tag_12\n      jumpi\n      jump(tag_1)\n    tag_13:\n      dup1\n      0x0dbac135\n      eq\n      tag_2\n      jumpi\n      dup1\n      0x1392ebfe\n      eq\n      tag_3\n      jumpi\n      dup1\n      0x21b2416c\n      eq\n      tag_4\n      jumpi\n      dup1\n      0x370c36b4\n      eq\n      tag_5\n      jumpi\n      dup1\n      0x3b9056bf\n      eq\n      tag_6\n      jumpi\n    tag_1:\n      revert(0x00, 0x00)\n        /* \"contracts/CrowdTank.sol\":5387:5876  function Remaining_Fund(uint projectID) public view returns(uint fundingGoal , uint remainingFund) {... */\n    tag_2:\n      callvalue\n      dup1\n      iszero\n      tag_14\n      jumpi\n      revert(0x00, 0x00)\n    tag_14:\n      pop\n      tag_15\n      0x04\n      dup1\n      calldatasize\n      sub\n      dup2\n      add\n      swap1\n      tag_16\n      swap2\n      swap1\n      tag_17\n      jump\t// in\n    tag_16:\n      tag_18\n      jump\t// in\n    tag_15:\n      mload(0x40)\n      tag_19\n      swap3\n      swap2\n      swap1\n      tag_20\n      jump\t// in\n    tag_19:\n      mload(0x40)\n      dup1\n      swap2\n      sub\n      swap1\n      return\n        /* \"contracts/CrowdTank.sol\":6242:6650  function Change_FundingGoal( uint _projectID , uint Change_Goal) external {... */\n    tag_3:\n      callvalue\n      dup1\n      iszero\n      tag_21\n      jumpi\n      revert(0x00, 0x00)\n    tag_21:\n      pop\n      tag_22\n      0x04\n      dup1\n      calldatasize\n      sub\n      dup2\n      add\n      swap1\n      tag_23\n      swap2\n      swap1\n      tag_24\n      jump\t// in\n    tag_23:\n      tag_25\n      jump\t// in\n    tag_22:\n      stop\n        /* \"contracts/CrowdTank.sol\":583:624  mapping (uint => project) public Projects */\n    tag_4:\n      callvalue\n      dup1\n      iszero\n      tag_26\n      jumpi\n      revert(0x00, 0x00)\n    tag_26:\n      pop\n      tag_27\n      0x04\n      dup1\n      calldatasize\n      sub\n      dup2\n      add\n      swap1\n      tag_28\n      swap2\n      swap1\n      tag_17\n      jump\t// in\n    tag_28:\n      tag_29\n      jump\t// in\n    tag_27:\n      mload(0x40)\n      tag_30\n      swap8\n      swap7\n      swap6\n      swap5\n      swap4\n      swap3\n      swap2\n      swap1\n      tag_31\n      jump\t// in\n    tag_30:\n      mload(0x40)\n      dup1\n      swap2\n      sub\n      swap1\n      return\n        /* \"contracts/CrowdTank.sol\":5029:5319  function Time_Left(uint projectID) view public returns(uint) {... */\n    tag_5:\n      callvalue\n      dup1\n      iszero\n      tag_32\n      jumpi\n      revert(0x00, 0x00)\n    tag_32:\n      pop\n      tag_33\n      0x04\n      dup1\n      calldatasize\n      sub\n      dup2\n      add\n      swap1\n      tag_34\n      swap2\n      swap1\n      tag_17\n      jump\t// in\n    tag_34:\n      tag_35\n      jump\t// in\n    tag_33:\n      mload(0x40)\n      tag_36\n      swap2\n      swap1\n      tag_37\n      jump\t// in\n    tag_36:\n      mload(0x40)\n      dup1\n      swap2\n      sub\n      swap1\n      return\n        /* \"contracts/CrowdTank.sol\":3839:4306  function userWithdraw(uint _projectID) external payable {... */\n    tag_6:\n      tag_38\n      0x04\n      dup1\n      calldatasize\n      sub\n      dup2\n      add\n      swap1\n      tag_39\n      swap2\n      swap1\n      tag_17\n      jump\t// in\n    tag_39:\n      tag_40\n      jump\t// in\n    tag_38:\n      stop\n        /* \"contracts/CrowdTank.sol\":3693:3799  function Get_Total_Raised_Funding() view public returns(uint) {... */\n    tag_7:\n      callvalue\n      dup1\n      iszero\n      tag_41\n      jumpi\n      revert(0x00, 0x00)\n    tag_41:\n      pop\n      tag_42\n      tag_43\n      jump\t// in\n    tag_42:\n      mload(0x40)\n      tag_44\n      swap2\n      swap1\n      tag_37\n      jump\t// in\n    tag_44:\n      mload(0x40)\n      dup1\n      swap2\n      sub\n      swap1\n      return\n        /* \"contracts/CrowdTank.sol\":683:747  mapping (uint => mapping (address => uint)) public Contributions */\n    tag_8:\n      callvalue\n      dup1\n      iszero\n      tag_45\n      jumpi\n      revert(0x00, 0x00)\n    tag_45:\n      pop\n      tag_46\n      0x04\n      dup1\n      calldatasize\n      sub\n      dup2\n      add\n      swap1\n      tag_47\n      swap2\n      swap1\n      tag_48\n      jump\t// in\n    tag_47:\n      tag_49\n      jump\t// in\n    tag_46:\n      mload(0x40)\n      tag_50\n      swap2\n      swap1\n      tag_37\n      jump\t// in\n    tag_50:\n      mload(0x40)\n      dup1\n      swap2\n      sub\n      swap1\n      return\n        /* \"contracts/CrowdTank.sol\":5922:6195  function Extend_Deadline(uint _projectID , uint _deadline) external {... */\n    tag_9:\n      callvalue\n      dup1\n      iszero\n      tag_51\n      jumpi\n      revert(0x00, 0x00)\n    tag_51:\n      pop\n      tag_52\n      0x04\n      dup1\n      calldatasize\n      sub\n      dup2\n      add\n      swap1\n      tag_53\n      swap2\n      swap1\n      tag_24\n      jump\t// in\n    tag_53:\n      tag_54\n      jump\t// in\n    tag_52:\n      stop\n        /* \"contracts/CrowdTank.sol\":2119:3652  function fundProject(uint _projectID) external payable {... */\n    tag_10:\n      tag_55\n      0x04\n      dup1\n      calldatasize\n      sub\n      dup2\n      add\n      swap1\n      tag_56\n      swap2\n      swap1\n      tag_17\n      jump\t// in\n    tag_56:\n      tag_57\n      jump\t// in\n    tag_55:\n      stop\n        /* \"contracts/CrowdTank.sol\":4358:4959  function creatorWithdraw(uint _projectID) external payable {... */\n    tag_11:\n      tag_58\n      0x04\n      dup1\n      calldatasize\n      sub\n      dup2\n      add\n      swap1\n      tag_59\n      swap2\n      swap1\n      tag_17\n      jump\t// in\n    tag_59:\n      tag_60\n      jump\t// in\n    tag_58:\n      stop\n        /* \"contracts/CrowdTank.sol\":1388:2058  function createProject(string memory _name , string memory _description , uint _fundingGoal , uint _durationSeconds , uint _id) external {... */\n    tag_12:\n      callvalue\n      dup1\n      iszero\n      tag_61\n      jumpi\n      revert(0x00, 0x00)\n    tag_61:\n      pop\n      tag_62\n      0x04\n      dup1\n      calldatasize\n      sub\n      dup2\n      add\n      swap1\n      tag_63\n      swap2\n      swap1\n      tag_64\n      jump\t// in\n    tag_63:\n      tag_65\n      jump\t// in\n    tag_62:\n      stop\n        /* \"contracts/CrowdTank.sol\":5387:5876  function Remaining_Fund(uint projectID) public view returns(uint fundingGoal , uint remainingFund) {... */\n    tag_18:\n        /* \"contracts/CrowdTank.sol\":5447:5463  uint fundingGoal */\n      0x00\n        /* \"contracts/CrowdTank.sol\":5466:5484  uint remainingFund */\n      0x00\n        /* \"contracts/CrowdTank.sol\":5498:5521  project storage Project */\n      0x00\n        /* \"contracts/CrowdTank.sol\":5524:5532  Projects */\n      0x01\n        /* \"contracts/CrowdTank.sol\":5524:5543  Projects[projectID] */\n      0x00\n        /* \"contracts/CrowdTank.sol\":5533:5542  projectID */\n      dup6\n        /* \"contracts/CrowdTank.sol\":5524:5543  Projects[projectID] */\n      dup2\n      mstore\n      0x20\n      add\n      swap1\n      dup2\n      mstore\n      0x20\n      add\n      0x00\n      keccak256\n        /* \"contracts/CrowdTank.sol\":5498:5543  project storage Project = Projects[projectID] */\n      swap1\n      pop\n        /* \"contracts/CrowdTank.sol\":5568:5575  Project */\n      dup1\n        /* \"contracts/CrowdTank.sol\":5568:5587  Project.fundingGoal */\n      0x03\n      add\n      sload\n        /* \"contracts/CrowdTank.sol\":5554:5587  fundingGoal = Project.fundingGoal */\n      swap3\n      pop\n        /* \"contracts/CrowdTank.sol\":5633:5634  0 */\n      0x00\n        /* \"contracts/CrowdTank.sol\":5606:5635  Project.creator != address(0) */\n      0xffffffffffffffffffffffffffffffffffffffff\n      and\n        /* \"contracts/CrowdTank.sol\":5606:5613  Project */\n      dup2\n        /* \"contracts/CrowdTank.sol\":5606:5621  Project.creator */\n      0x00\n      add\n      0x00\n      swap1\n      sload\n      swap1\n      0x0100\n      exp\n      swap1\n      div\n      0xffffffffffffffffffffffffffffffffffffffff\n      and\n        /* \"contracts/CrowdTank.sol\":5606:5635  Project.creator != address(0) */\n      0xffffffffffffffffffffffffffffffffffffffff\n      and\n      sub\n        /* \"contracts/CrowdTank.sol\":5598:5673  require(Project.creator != address(0), \"project has not been created yet!\") */\n      tag_67\n      jumpi\n      mload(0x40)\n      0x08c379a000000000000000000000000000000000000000000000000000000000\n      dup2\n      mstore\n      0x04\n      add\n      tag_68\n      swap1\n      tag_69\n      jump\t// in\n    tag_68:\n      mload(0x40)\n      dup1\n      swap2\n      sub\n      swap1\n      revert\n    tag_67:\n        /* \"contracts/CrowdTank.sol\":5712:5719  Project */\n      dup1\n        /* \"contracts/CrowdTank.sol\":5712:5731  Project.fundingGoal */\n      0x03\n      add\n      sload\n        /* \"contracts/CrowdTank.sol\":5688:5695  Project */\n      dup2\n        /* \"contracts/CrowdTank.sol\":5688:5708  Project.amountRaised */\n      0x05\n      add\n      sload\n        /* \"contracts/CrowdTank.sol\":5688:5731  Project.amountRaised >= Project.fundingGoal */\n      lt\n        /* \"contracts/CrowdTank.sol\":5684:5869  if (Project.amountRaised >= Project.fundingGoal) {... */\n      tag_70\n      jumpi\n        /* \"contracts/CrowdTank.sol\":5765:5766  0 */\n      0x00\n        /* \"contracts/CrowdTank.sol\":5749:5766  remainingFund = 0 */\n      swap2\n      pop\n        /* \"contracts/CrowdTank.sol\":5684:5869  if (Project.amountRaised >= Project.fundingGoal) {... */\n      jump(tag_71)\n    tag_70:\n        /* \"contracts/CrowdTank.sol\":5837:5844  Project */\n      dup1\n        /* \"contracts/CrowdTank.sol\":5837:5857  Project.amountRaised */\n      0x05\n      add\n      sload\n        /* \"contracts/CrowdTank.sol\":5815:5822  Project */\n      dup2\n        /* \"contracts/CrowdTank.sol\":5815:5834  Project.fundingGoal */\n      0x03\n      add\n      sload\n        /* \"contracts/CrowdTank.sol\":5815:5857  Project.fundingGoal - Project.amountRaised */\n      tag_72\n      swap2\n      swap1\n      tag_73\n      jump\t// in\n    tag_72:\n        /* \"contracts/CrowdTank.sol\":5799:5857  remainingFund = Project.fundingGoal - Project.amountRaised */\n      swap2\n      pop\n        /* \"contracts/CrowdTank.sol\":5684:5869  if (Project.amountRaised >= Project.fundingGoal) {... */\n    tag_71:\n        /* \"contracts/CrowdTank.sol\":5486:5876  {... */\n      pop\n        /* \"contracts/CrowdTank.sol\":5387:5876  function Remaining_Fund(uint projectID) public view returns(uint fundingGoal , uint remainingFund) {... */\n      swap2\n      pop\n      swap2\n      jump\t// out\n        /* \"contracts/CrowdTank.sol\":6242:6650  function Change_FundingGoal( uint _projectID , uint Change_Goal) external {... */\n    tag_25:\n        /* \"contracts/CrowdTank.sol\":6328:6351  project storage Project */\n      0x00\n        /* \"contracts/CrowdTank.sol\":6354:6362  Projects */\n      0x01\n        /* \"contracts/CrowdTank.sol\":6354:6374  Projects[_projectID] */\n      0x00\n        /* \"contracts/CrowdTank.sol\":6363:6373  _projectID */\n      dup5\n        /* \"contracts/CrowdTank.sol\":6354:6374  Projects[_projectID] */\n      dup2\n      mstore\n      0x20\n      add\n      swap1\n      dup2\n      mstore\n      0x20\n      add\n      0x00\n      keccak256\n        /* \"contracts/CrowdTank.sol\":6328:6374  project storage Project = Projects[_projectID] */\n      swap1\n      pop\n        /* \"contracts/CrowdTank.sol\":6412:6413  0 */\n      0x00\n        /* \"contracts/CrowdTank.sol\":6393:6400  Project */\n      dup2\n        /* \"contracts/CrowdTank.sol\":6393:6409  Project.deadline */\n      0x04\n      add\n      sload\n        /* \"contracts/CrowdTank.sol\":6393:6413  Project.deadline > 0 */\n      gt\n        /* \"contracts/CrowdTank.sol\":6385:6474  require(Project.deadline > 0 , \"Deadline is over , you Can't change the funding goal !!\") */\n      tag_75\n      jumpi\n      mload(0x40)\n      0x08c379a000000000000000000000000000000000000000000000000000000000\n      dup2\n      mstore\n      0x04\n      add\n      tag_76\n      swap1\n      tag_77\n      jump\t// in\n    tag_76:\n      mload(0x40)\n      dup1\n      swap2\n      sub\n      swap1\n      revert\n    tag_75:\n        /* \"contracts/CrowdTank.sol\":6512:6522  msg.sender */\n      caller\n        /* \"contracts/CrowdTank.sol\":6493:6522  Project.creator == msg.sender */\n      0xffffffffffffffffffffffffffffffffffffffff\n      and\n        /* \"contracts/CrowdTank.sol\":6493:6500  Project */\n      dup2\n        /* \"contracts/CrowdTank.sol\":6493:6508  Project.creator */\n      0x00\n      add\n      0x00\n      swap1\n      sload\n      swap1\n      0x0100\n      exp\n      swap1\n      div\n      0xffffffffffffffffffffffffffffffffffffffff\n      and\n        /* \"contracts/CrowdTank.sol\":6493:6522  Project.creator == msg.sender */\n      0xffffffffffffffffffffffffffffffffffffffff\n      and\n      eq\n        /* \"contracts/CrowdTank.sol\":6485:6596  require(Project.creator == msg.sender , \"You are not the project creator , Only Porject creator can Change !!\") */\n      tag_78\n      jumpi\n      mload(0x40)\n      0x08c379a000000000000000000000000000000000000000000000000000000000\n      dup2\n      mstore\n      0x04\n      add\n      tag_79\n      swap1\n      tag_80\n      jump\t// in\n    tag_79:\n      mload(0x40)\n      dup1\n      swap2\n      sub\n      swap1\n      revert\n    tag_78:\n        /* \"contracts/CrowdTank.sol\":6631:6642  Change_Goal */\n      dup2\n        /* \"contracts/CrowdTank.sol\":6609:6616  Project */\n      dup2\n        /* \"contracts/CrowdTank.sol\":6609:6628  Project.fundingGoal */\n      0x03\n      add\n        /* \"contracts/CrowdTank.sol\":6609:6642  Project.fundingGoal = Change_Goal */\n      dup2\n      swap1\n      sstore\n      pop\n        /* \"contracts/CrowdTank.sol\":6316:6650  {... */\n      pop\n        /* \"contracts/CrowdTank.sol\":6242:6650  function Change_FundingGoal( uint _projectID , uint Change_Goal) external {... */\n      pop\n      pop\n      jump\t// out\n        /* \"contracts/CrowdTank.sol\":583:624  mapping (uint => project) public Projects */\n    tag_29:\n      mstore(0x20, 0x01)\n      dup1\n      0x00\n      mstore\n      keccak256(0x00, 0x40)\n      0x00\n      swap2\n      pop\n      swap1\n      pop\n      dup1\n      0x00\n      add\n      0x00\n      swap1\n      sload\n      swap1\n      0x0100\n      exp\n      swap1\n      div\n      0xffffffffffffffffffffffffffffffffffffffff\n      and\n      swap1\n      dup1\n      0x01\n      add\n      dup1\n      sload\n      tag_81\n      swap1\n      tag_82\n      jump\t// in\n    tag_81:\n      dup1\n      0x1f\n      add\n      0x20\n      dup1\n      swap2\n      div\n      mul\n      0x20\n      add\n      mload(0x40)\n      swap1\n      dup2\n      add\n      0x40\n      mstore\n      dup1\n      swap3\n      swap2\n      swap1\n      dup2\n      dup2\n      mstore\n      0x20\n      add\n      dup3\n      dup1\n      sload\n      tag_83\n      swap1\n      tag_82\n      jump\t// in\n    tag_83:\n      dup1\n      iszero\n      tag_84\n      jumpi\n      dup1\n      0x1f\n      lt\n      tag_85\n      jumpi\n      0x0100\n      dup1\n      dup4\n      sload\n      div\n      mul\n      dup4\n      mstore\n      swap2\n      0x20\n      add\n      swap2\n      jump(tag_84)\n    tag_85:\n      dup3\n      add\n      swap2\n      swap1\n      0x00\n      mstore\n      keccak256(0x00, 0x20)\n      swap1\n    tag_86:\n      dup2\n      sload\n      dup2\n      mstore\n      swap1\n      0x01\n      add\n      swap1\n      0x20\n      add\n      dup1\n      dup4\n      gt\n      tag_86\n      jumpi\n      dup3\n      swap1\n      sub\n      0x1f\n      and\n      dup3\n      add\n      swap2\n    tag_84:\n      pop\n      pop\n      pop\n      pop\n      pop\n      swap1\n      dup1\n      0x02\n      add\n      dup1\n      sload\n      tag_87\n      swap1\n      tag_82\n      jump\t// in\n    tag_87:\n      dup1\n      0x1f\n      add\n      0x20\n      dup1\n      swap2\n      div\n      mul\n      0x20\n      add\n      mload(0x40)\n      swap1\n      dup2\n      add\n      0x40\n      mstore\n      dup1\n      swap3\n      swap2\n      swap1\n      dup2\n      dup2\n      mstore\n      0x20\n      add\n      dup3\n      dup1\n      sload\n      tag_88\n      swap1\n      tag_82\n      jump\t// in\n    tag_88:\n      dup1\n      iszero\n      tag_89\n      jumpi\n      dup1\n      0x1f\n      lt\n      tag_90\n      jumpi\n      0x0100\n      dup1\n      dup4\n      sload\n      div\n      mul\n      dup4\n      mstore\n      swap2\n      0x20\n      add\n      swap2\n      jump(tag_89)\n    tag_90:\n      dup3\n      add\n      swap2\n      swap1\n      0x00\n      mstore\n      keccak256(0x00, 0x20)\n      swap1\n    tag_91:\n      dup2\n      sload\n      dup2\n      mstore\n      swap1\n      0x01\n      add\n      swap1\n      0x20\n      add\n      dup1\n      dup4\n      gt\n      tag_91\n      jumpi\n      dup3\n      swap1\n      sub\n      0x1f\n      and\n      dup3\n      add\n      swap2\n    tag_89:\n      pop\n      pop\n      pop\n      pop\n      pop\n      swap1\n      dup1\n      0x03\n      add\n      sload\n      swap1\n      dup1\n      0x04\n      add\n      sload\n      swap1\n      dup1\n      0x05\n      add\n      sload\n      swap1\n      dup1\n      0x06\n      add\n      0x00\n      swap1\n      sload\n      swap1\n      0x0100\n      exp\n      swap1\n      div\n      0xff\n      and\n      swap1\n      pop\n      dup8\n      jump\t// out\n        /* \"contracts/CrowdTank.sol\":5029:5319  function Time_Left(uint projectID) view public returns(uint) {... */\n    tag_35:\n        /* \"contracts/CrowdTank.sol\":5084:5088  uint */\n      0x00\n        /* \"contracts/CrowdTank.sol\":5101:5124  project storage Project */\n      0x00\n        /* \"contracts/CrowdTank.sol\":5127:5135  Projects */\n      0x01\n        /* \"contracts/CrowdTank.sol\":5127:5146  Projects[projectID] */\n      0x00\n        /* \"contracts/CrowdTank.sol\":5136:5145  projectID */\n      dup5\n        /* \"contracts/CrowdTank.sol\":5127:5146  Projects[projectID] */\n      dup2\n      mstore\n      0x20\n      add\n      swap1\n      dup2\n      mstore\n      0x20\n      add\n      0x00\n      keccak256\n        /* \"contracts/CrowdTank.sol\":5101:5146  project storage Project = Projects[projectID] */\n      swap1\n      pop\n        /* \"contracts/CrowdTank.sol\":5180:5187  Project */\n      dup1\n        /* \"contracts/CrowdTank.sol\":5180:5196  Project.deadline */\n      0x04\n      add\n      sload\n        /* \"contracts/CrowdTank.sol\":5161:5176  block.timestamp */\n      timestamp\n        /* \"contracts/CrowdTank.sol\":5161:5196  block.timestamp >= Project.deadline */\n      lt\n        /* \"contracts/CrowdTank.sol\":5157:5308  if (block.timestamp >= Project.deadline) {... */\n      tag_93\n      jumpi\n        /* \"contracts/CrowdTank.sol\":5220:5221  0 */\n      0x00\n        /* \"contracts/CrowdTank.sol\":5213:5221  return 0 */\n      swap2\n      pop\n      pop\n      jump(tag_92)\n        /* \"contracts/CrowdTank.sol\":5157:5308  if (block.timestamp >= Project.deadline) {... */\n    tag_93:\n        /* \"contracts/CrowdTank.sol\":5280:5295  block.timestamp */\n      timestamp\n        /* \"contracts/CrowdTank.sol\":5261:5268  Project */\n      dup2\n        /* \"contracts/CrowdTank.sol\":5261:5277  Project.deadline */\n      0x04\n      add\n      sload\n        /* \"contracts/CrowdTank.sol\":5261:5295  Project.deadline - block.timestamp */\n      tag_95\n      swap2\n      swap1\n      tag_73\n      jump\t// in\n    tag_95:\n        /* \"contracts/CrowdTank.sol\":5254:5296  return(Project.deadline - block.timestamp) */\n      swap2\n      pop\n      pop\n        /* \"contracts/CrowdTank.sol\":5029:5319  function Time_Left(uint projectID) view public returns(uint) {... */\n    tag_92:\n      swap2\n      swap1\n      pop\n      jump\t// out\n        /* \"contracts/CrowdTank.sol\":3839:4306  function userWithdraw(uint _projectID) external payable {... */\n    tag_40:\n        /* \"contracts/CrowdTank.sol\":3906:3929  project storage Project */\n      0x00\n        /* \"contracts/CrowdTank.sol\":3932:3940  Projects */\n      0x01\n        /* \"contracts/CrowdTank.sol\":3932:3952  Projects[_projectID] */\n      0x00\n        /* \"contracts/CrowdTank.sol\":3941:3951  _projectID */\n      dup4\n        /* \"contracts/CrowdTank.sol\":3932:3952  Projects[_projectID] */\n      dup2\n      mstore\n      0x20\n      add\n      swap1\n      dup2\n      mstore\n      0x20\n      add\n      0x00\n      keccak256\n        /* \"contracts/CrowdTank.sol\":3906:3952  project storage Project = Projects[_projectID] */\n      swap1\n      pop\n        /* \"contracts/CrowdTank.sol\":3992:3999  Project */\n      dup1\n        /* \"contracts/CrowdTank.sol\":3992:4011  Project.fundingGoal */\n      0x03\n      add\n      sload\n        /* \"contracts/CrowdTank.sol\":3971:3978  Project */\n      dup2\n        /* \"contracts/CrowdTank.sol\":3971:3991  Project.amountRaised */\n      0x05\n      add\n      sload\n        /* \"contracts/CrowdTank.sol\":3971:4011  Project.amountRaised<Project.fundingGoal */\n      lt\n        /* \"contracts/CrowdTank.sol\":3963:4063  require(Project.amountRaised<Project.fundingGoal , \"Funding goal has reached , user can't withdraw\") */\n      tag_97\n      jumpi\n      mload(0x40)\n      0x08c379a000000000000000000000000000000000000000000000000000000000\n      dup2\n      mstore\n      0x04\n      add\n      tag_98\n      swap1\n      tag_99\n      jump\t// in\n    tag_98:\n      mload(0x40)\n      dup1\n      swap2\n      sub\n      swap1\n      revert\n    tag_97:\n        /* \"contracts/CrowdTank.sol\":4074:4095  uint fundsContributed */\n      0x00\n        /* \"contracts/CrowdTank.sol\":4098:4111  Contributions */\n      0x02\n        /* \"contracts/CrowdTank.sol\":4098:4123  Contributions[_projectID] */\n      0x00\n        /* \"contracts/CrowdTank.sol\":4112:4122  _projectID */\n      dup5\n        /* \"contracts/CrowdTank.sol\":4098:4123  Contributions[_projectID] */\n      dup2\n      mstore\n      0x20\n      add\n      swap1\n      dup2\n      mstore\n      0x20\n      add\n      0x00\n      keccak256\n        /* \"contracts/CrowdTank.sol\":4098:4135  Contributions[_projectID][msg.sender] */\n      0x00\n        /* \"contracts/CrowdTank.sol\":4124:4134  msg.sender */\n      caller\n        /* \"contracts/CrowdTank.sol\":4098:4135  Contributions[_projectID][msg.sender] */\n      0xffffffffffffffffffffffffffffffffffffffff\n      and\n      0xffffffffffffffffffffffffffffffffffffffff\n      and\n      dup2\n      mstore\n      0x20\n      add\n      swap1\n      dup2\n      mstore\n      0x20\n      add\n      0x00\n      keccak256\n      sload\n        /* \"contracts/CrowdTank.sol\":4074:4135  uint fundsContributed = Contributions[_projectID][msg.sender] */\n      swap1\n      pop\n        /* \"contracts/CrowdTank.sol\":4154:4164  msg.sender */\n      caller\n        /* \"contracts/CrowdTank.sol\":4146:4174  payable(msg.sender).transfer */\n      0xffffffffffffffffffffffffffffffffffffffff\n      and\n        /* \"contracts/CrowdTank.sol\":4146:4192  payable(msg.sender).transfer(fundsContributed) */\n      0x08fc\n        /* \"contracts/CrowdTank.sol\":4175:4191  fundsContributed */\n      dup3\n        /* \"contracts/CrowdTank.sol\":4146:4192  payable(msg.sender).transfer(fundsContributed) */\n      swap1\n      dup2\n      iszero\n      mul\n      swap1\n      mload(0x40)\n      0x00\n      mload(0x40)\n      dup1\n      dup4\n      sub\n      dup2\n      dup6\n      dup9\n      dup9\n      call\n      swap4\n      pop\n      pop\n      pop\n      pop\n      iszero\n      dup1\n      iszero\n      tag_101\n      jumpi\n      returndatacopy(0x00, 0x00, returndatasize)\n      revert(0x00, returndatasize)\n    tag_101:\n      pop\n        /* \"contracts/CrowdTank.sol\":4254:4264  _projectID */\n      dup3\n        /* \"contracts/CrowdTank.sol\":4240:4288  userWithdrawn(_projectID, msg.sender, msg.value) */\n      0xb6e4e293b6c7c5cf68fbb52edfaca6173710fcccbcecac03c32e62327fc000c6\n        /* \"contracts/CrowdTank.sol\":4266:4276  msg.sender */\n      caller\n        /* \"contracts/CrowdTank.sol\":4278:4287  msg.value */\n      callvalue\n        /* \"contracts/CrowdTank.sol\":4240:4288  userWithdrawn(_projectID, msg.sender, msg.value) */\n      mload(0x40)\n      tag_102\n      swap3\n      swap2\n      swap1\n      tag_103\n      jump\t// in\n    tag_102:\n      mload(0x40)\n      dup1\n      swap2\n      sub\n      swap1\n      log2\n        /* \"contracts/CrowdTank.sol\":3895:4306  {... */\n      pop\n      pop\n        /* \"contracts/CrowdTank.sol\":3839:4306  function userWithdraw(uint _projectID) external payable {... */\n      pop\n      jump\t// out\n        /* \"contracts/CrowdTank.sol\":3693:3799  function Get_Total_Raised_Funding() view public returns(uint) {... */\n    tag_43:\n        /* \"contracts/CrowdTank.sol\":3749:3753  uint */\n      0x00\n        /* \"contracts/CrowdTank.sol\":3773:3791  TotalRaisedFunding */\n      sload(0x00)\n        /* \"contracts/CrowdTank.sol\":3766:3791  return TotalRaisedFunding */\n      swap1\n      pop\n        /* \"contracts/CrowdTank.sol\":3693:3799  function Get_Total_Raised_Funding() view public returns(uint) {... */\n      swap1\n      jump\t// out\n        /* \"contracts/CrowdTank.sol\":683:747  mapping (uint => mapping (address => uint)) public Contributions */\n    tag_49:\n      mstore(0x20, 0x02)\n      dup2\n      0x00\n      mstore\n      mstore(0x20, keccak256(0x00, 0x40))\n      dup1\n      0x00\n      mstore\n      keccak256(0x00, 0x40)\n      0x00\n      swap2\n      pop\n      swap2\n      pop\n      pop\n      sload\n      dup2\n      jump\t// out\n        /* \"contracts/CrowdTank.sol\":5922:6195  function Extend_Deadline(uint _projectID , uint _deadline) external {... */\n    tag_54:\n        /* \"contracts/CrowdTank.sol\":6001:6024  project storage Project */\n      0x00\n        /* \"contracts/CrowdTank.sol\":6027:6035  Projects */\n      0x01\n        /* \"contracts/CrowdTank.sol\":6027:6047  Projects[_projectID] */\n      0x00\n        /* \"contracts/CrowdTank.sol\":6036:6046  _projectID */\n      dup5\n        /* \"contracts/CrowdTank.sol\":6027:6047  Projects[_projectID] */\n      dup2\n      mstore\n      0x20\n      add\n      swap1\n      dup2\n      mstore\n      0x20\n      add\n      0x00\n      keccak256\n        /* \"contracts/CrowdTank.sol\":6001:6047  project storage Project = Projects[_projectID] */\n      swap1\n      pop\n        /* \"contracts/CrowdTank.sol\":6085:6095  msg.sender */\n      caller\n        /* \"contracts/CrowdTank.sol\":6066:6095  Project.creator == msg.sender */\n      0xffffffffffffffffffffffffffffffffffffffff\n      and\n        /* \"contracts/CrowdTank.sol\":6066:6073  Project */\n      dup2\n        /* \"contracts/CrowdTank.sol\":6066:6081  Project.creator */\n      0x00\n      add\n      0x00\n      swap1\n      sload\n      swap1\n      0x0100\n      exp\n      swap1\n      div\n      0xffffffffffffffffffffffffffffffffffffffff\n      and\n        /* \"contracts/CrowdTank.sol\":6066:6095  Project.creator == msg.sender */\n      0xffffffffffffffffffffffffffffffffffffffff\n      and\n      eq\n        /* \"contracts/CrowdTank.sol\":6058:6147  require(Project.creator == msg.sender , \"Only Project creator can extend the deadline!!\") */\n      tag_106\n      jumpi\n      mload(0x40)\n      0x08c379a000000000000000000000000000000000000000000000000000000000\n      dup2\n      mstore\n      0x04\n      add\n      tag_107\n      swap1\n      tag_108\n      jump\t// in\n    tag_107:\n      mload(0x40)\n      dup1\n      swap2\n      sub\n      swap1\n      revert\n    tag_106:\n        /* \"contracts/CrowdTank.sol\":6178:6187  _deadline */\n      dup2\n        /* \"contracts/CrowdTank.sol\":6158:6165  Project */\n      dup2\n        /* \"contracts/CrowdTank.sol\":6158:6174  Project.deadline */\n      0x04\n      add\n      0x00\n        /* \"contracts/CrowdTank.sol\":6158:6187  Project.deadline += _deadline */\n      dup3\n      dup3\n      sload\n      tag_109\n      swap2\n      swap1\n      tag_110\n      jump\t// in\n    tag_109:\n      swap3\n      pop\n      pop\n      dup2\n      swap1\n      sstore\n      pop\n        /* \"contracts/CrowdTank.sol\":5990:6195  {... */\n      pop\n        /* \"contracts/CrowdTank.sol\":5922:6195  function Extend_Deadline(uint _projectID , uint _deadline) external {... */\n      pop\n      pop\n      jump\t// out\n        /* \"contracts/CrowdTank.sol\":2119:3652  function fundProject(uint _projectID) external payable {... */\n    tag_57:\n        /* \"contracts/CrowdTank.sol\":2189:2212  project storage Project */\n      0x00\n        /* \"contracts/CrowdTank.sol\":2215:2223  Projects */\n      0x01\n        /* \"contracts/CrowdTank.sol\":2215:2235  Projects[_projectID] */\n      0x00\n        /* \"contracts/CrowdTank.sol\":2224:2234  _projectID */\n      dup4\n        /* \"contracts/CrowdTank.sol\":2215:2235  Projects[_projectID] */\n      dup2\n      mstore\n      0x20\n      add\n      swap1\n      dup2\n      mstore\n      0x20\n      add\n      0x00\n      keccak256\n        /* \"contracts/CrowdTank.sol\":2189:2235  project storage Project = Projects[_projectID] */\n      swap1\n      pop\n        /* \"contracts/CrowdTank.sol\":2275:2282  Project */\n      dup1\n        /* \"contracts/CrowdTank.sol\":2275:2291  Project.deadline */\n      0x04\n      add\n      sload\n        /* \"contracts/CrowdTank.sol\":2258:2273  block.timestamp */\n      timestamp\n        /* \"contracts/CrowdTank.sol\":2258:2291  block.timestamp<=Project.deadline */\n      gt\n      iszero\n        /* \"contracts/CrowdTank.sol\":2250:2322  require(block.timestamp<=Project.deadline , \"Project deadline is over!\") */\n      tag_112\n      jumpi\n      mload(0x40)\n      0x08c379a000000000000000000000000000000000000000000000000000000000\n      dup2\n      mstore\n      0x04\n      add\n      tag_113\n      swap1\n      tag_114\n      jump\t// in\n    tag_113:\n      mload(0x40)\n      dup1\n      swap2\n      sub\n      swap1\n      revert\n    tag_112:\n        /* \"contracts/CrowdTank.sol\":2346:2353  Project */\n      dup1\n        /* \"contracts/CrowdTank.sol\":2346:2360  Project.funded */\n      0x06\n      add\n      0x00\n      swap1\n      sload\n      swap1\n      0x0100\n      exp\n      swap1\n      div\n      0xff\n      and\n        /* \"contracts/CrowdTank.sol\":2345:2360  !Project.funded */\n      iszero\n        /* \"contracts/CrowdTank.sol\":2337:2405  require(!Project.funded , \"Project Reached its Funding requirement\") */\n      tag_115\n      jumpi\n      mload(0x40)\n      0x08c379a000000000000000000000000000000000000000000000000000000000\n      dup2\n      mstore\n      0x04\n      add\n      tag_116\n      swap1\n      tag_117\n      jump\t// in\n    tag_116:\n      mload(0x40)\n      dup1\n      swap2\n      sub\n      swap1\n      revert\n    tag_115:\n        /* \"contracts/CrowdTank.sol\":2438:2439  0 */\n      0x00\n        /* \"contracts/CrowdTank.sol\":2428:2437  msg.value */\n      callvalue\n        /* \"contracts/CrowdTank.sol\":2428:2439  msg.value>0 */\n      gt\n        /* \"contracts/CrowdTank.sol\":2420:2489  require(msg.value>0 , \"send some ether to contribute in the project\") */\n      tag_118\n      jumpi\n      mload(0x40)\n      0x08c379a000000000000000000000000000000000000000000000000000000000\n      dup2\n      mstore\n      0x04\n      add\n      tag_119\n      swap1\n      tag_120\n      jump\t// in\n    tag_119:\n      mload(0x40)\n      dup1\n      swap2\n      sub\n      swap1\n      revert\n    tag_118:\n        /* \"contracts/CrowdTank.sol\":2525:2532  Project */\n      dup1\n        /* \"contracts/CrowdTank.sol\":2525:2544  Project.fundingGoal */\n      0x03\n      add\n      sload\n        /* \"contracts/CrowdTank.sol\":2512:2521  msg.value */\n      callvalue\n        /* \"contracts/CrowdTank.sol\":2512:2544  msg.value <= Project.fundingGoal */\n      gt\n      iszero\n        /* \"contracts/CrowdTank.sol\":2504:2585  require(msg.value <= Project.fundingGoal, \"Amount Contributed is more than Goal\") */\n      tag_121\n      jumpi\n      mload(0x40)\n      0x08c379a000000000000000000000000000000000000000000000000000000000\n      dup2\n      mstore\n      0x04\n      add\n      tag_122\n      swap1\n      tag_123\n      jump\t// in\n    tag_122:\n      mload(0x40)\n      dup1\n      swap2\n      sub\n      swap1\n      revert\n    tag_121:\n        /* \"contracts/CrowdTank.sol\":2631:2638  Project */\n      dup1\n        /* \"contracts/CrowdTank.sol\":2631:2650  Project.fundingGoal */\n      0x03\n      add\n      sload\n        /* \"contracts/CrowdTank.sol\":2608:2615  Project */\n      dup2\n        /* \"contracts/CrowdTank.sol\":2608:2628  Project.amountRaised */\n      0x05\n      add\n      sload\n        /* \"contracts/CrowdTank.sol\":2608:2650  Project.amountRaised < Project.fundingGoal */\n      lt\n        /* \"contracts/CrowdTank.sol\":2600:2685  require(Project.amountRaised < Project.fundingGoal , \"Funding Goal is already met!!\") */\n      tag_124\n      jumpi\n      mload(0x40)\n      0x08c379a000000000000000000000000000000000000000000000000000000000\n      dup2\n      mstore\n      0x04\n      add\n      tag_125\n      swap1\n      tag_126\n      jump\t// in\n    tag_125:\n      mload(0x40)\n      dup1\n      swap2\n      sub\n      swap1\n      revert\n    tag_124:\n        /* \"contracts/CrowdTank.sol\":2700:2714  uint remaining */\n      0x00\n        /* \"contracts/CrowdTank.sol\":2739:2746  Project */\n      dup2\n        /* \"contracts/CrowdTank.sol\":2739:2759  Project.amountRaised */\n      0x05\n      add\n      sload\n        /* \"contracts/CrowdTank.sol\":2717:2724  Project */\n      dup3\n        /* \"contracts/CrowdTank.sol\":2717:2736  Project.fundingGoal */\n      0x03\n      add\n      sload\n        /* \"contracts/CrowdTank.sol\":2717:2759  Project.fundingGoal - Project.amountRaised */\n      tag_127\n      swap2\n      swap1\n      tag_73\n      jump\t// in\n    tag_127:\n        /* \"contracts/CrowdTank.sol\":2700:2759  uint remaining = Project.fundingGoal - Project.amountRaised */\n      swap1\n      pop\n        /* \"contracts/CrowdTank.sol\":2774:2793  uint amountToAccept */\n      0x00\n        /* \"contracts/CrowdTank.sol\":2808:2819  uint refund */\n      0x00\n        /* \"contracts/CrowdTank.sol\":2850:2859  remaining */\n      dup3\n        /* \"contracts/CrowdTank.sol\":2838:2847  msg.value */\n      callvalue\n        /* \"contracts/CrowdTank.sol\":2838:2859  msg.value > remaining */\n      gt\n        /* \"contracts/CrowdTank.sol\":2834:3067  if (msg.value > remaining) {... */\n      iszero\n      tag_128\n      jumpi\n        /* \"contracts/CrowdTank.sol\":2897:2906  remaining */\n      dup3\n        /* \"contracts/CrowdTank.sol\":2880:2906  amountToAccept = remaining */\n      swap2\n      pop\n        /* \"contracts/CrowdTank.sol\":2946:2955  remaining */\n      dup3\n        /* \"contracts/CrowdTank.sol\":2934:2943  msg.value */\n      callvalue\n        /* \"contracts/CrowdTank.sol\":2934:2955  msg.value - remaining */\n      tag_129\n      swap2\n      swap1\n      tag_73\n      jump\t// in\n    tag_129:\n        /* \"contracts/CrowdTank.sol\":2925:2955  refund = msg.value - remaining */\n      swap1\n      pop\n        /* \"contracts/CrowdTank.sol\":2834:3067  if (msg.value > remaining) {... */\n      jump(tag_130)\n    tag_128:\n        /* \"contracts/CrowdTank.sol\":3013:3022  msg.value */\n      callvalue\n        /* \"contracts/CrowdTank.sol\":2996:3022  amountToAccept = msg.value */\n      swap2\n      pop\n        /* \"contracts/CrowdTank.sol\":3050:3051  0 */\n      0x00\n        /* \"contracts/CrowdTank.sol\":3041:3051  refund = 0 */\n      swap1\n      pop\n        /* \"contracts/CrowdTank.sol\":2834:3067  if (msg.value > remaining) {... */\n    tag_130:\n        /* \"contracts/CrowdTank.sol\":3105:3119  amountToAccept */\n      dup2\n        /* \"contracts/CrowdTank.sol\":3081:3088  Project */\n      dup5\n        /* \"contracts/CrowdTank.sol\":3081:3101  Project.amountRaised */\n      0x05\n      add\n      0x00\n        /* \"contracts/CrowdTank.sol\":3081:3119  Project.amountRaised += amountToAccept */\n      dup3\n      dup3\n      sload\n      tag_131\n      swap2\n      swap1\n      tag_110\n      jump\t// in\n    tag_131:\n      swap3\n      pop\n      pop\n      dup2\n      swap1\n      sstore\n      pop\n        /* \"contracts/CrowdTank.sol\":3174:3188  amountToAccept */\n      dup2\n        /* \"contracts/CrowdTank.sol\":3134:3147  Contributions */\n      0x02\n        /* \"contracts/CrowdTank.sol\":3134:3159  Contributions[_projectID] */\n      0x00\n        /* \"contracts/CrowdTank.sol\":3148:3158  _projectID */\n      dup8\n        /* \"contracts/CrowdTank.sol\":3134:3159  Contributions[_projectID] */\n      dup2\n      mstore\n      0x20\n      add\n      swap1\n      dup2\n      mstore\n      0x20\n      add\n      0x00\n      keccak256\n        /* \"contracts/CrowdTank.sol\":3134:3171  Contributions[_projectID][msg.sender] */\n      0x00\n        /* \"contracts/CrowdTank.sol\":3160:3170  msg.sender */\n      caller\n        /* \"contracts/CrowdTank.sol\":3134:3171  Contributions[_projectID][msg.sender] */\n      0xffffffffffffffffffffffffffffffffffffffff\n      and\n      0xffffffffffffffffffffffffffffffffffffffff\n      and\n      dup2\n      mstore\n      0x20\n      add\n      swap1\n      dup2\n      mstore\n      0x20\n      add\n      0x00\n      keccak256\n        /* \"contracts/CrowdTank.sol\":3134:3188  Contributions[_projectID][msg.sender] = amountToAccept */\n      dup2\n      swap1\n      sstore\n      pop\n        /* \"contracts/CrowdTank.sol\":3256:3270  amountToAccept */\n      dup2\n        /* \"contracts/CrowdTank.sol\":3236:3254  TotalRaisedFunding */\n      0x00\n      0x00\n        /* \"contracts/CrowdTank.sol\":3236:3270  TotalRaisedFunding+=amountToAccept */\n      dup3\n      dup3\n      sload\n      tag_132\n      swap2\n      swap1\n      tag_110\n      jump\t// in\n    tag_132:\n      swap3\n      pop\n      pop\n      dup2\n      swap1\n      sstore\n      pop\n        /* \"contracts/CrowdTank.sol\":3298:3299  0 */\n      0x00\n        /* \"contracts/CrowdTank.sol\":3289:3295  refund */\n      dup2\n        /* \"contracts/CrowdTank.sol\":3289:3299  refund > 0 */\n      gt\n        /* \"contracts/CrowdTank.sol\":3285:3445  if (refund > 0) {... */\n      iszero\n      tag_133\n      jumpi\n        /* \"contracts/CrowdTank.sol\":3321:3330  bool sent */\n      0x00\n        /* \"contracts/CrowdTank.sol\":3344:3354  msg.sender */\n      caller\n        /* \"contracts/CrowdTank.sol\":3336:3360  payable(msg.sender).call */\n      0xffffffffffffffffffffffffffffffffffffffff\n      and\n        /* \"contracts/CrowdTank.sol\":3368:3374  refund */\n      dup3\n        /* \"contracts/CrowdTank.sol\":3336:3379  payable(msg.sender).call{value: refund}(\"\") */\n      mload(0x40)\n      tag_134\n      swap1\n      tag_135\n      jump\t// in\n    tag_134:\n      0x00\n      mload(0x40)\n      dup1\n      dup4\n      sub\n      dup2\n      dup6\n      dup8\n      gas\n      call\n      swap3\n      pop\n      pop\n      pop\n      returndatasize\n      dup1\n      0x00\n      dup2\n      eq\n      tag_138\n      jumpi\n      mload(0x40)\n      swap2\n      pop\n      and(add(returndatasize, 0x3f), not(0x1f))\n      dup3\n      add\n      0x40\n      mstore\n      returndatasize\n      dup3\n      mstore\n      returndatasize\n      0x00\n      0x20\n      dup5\n      add\n      returndatacopy\n      jump(tag_137)\n    tag_138:\n      0x60\n      swap2\n      pop\n    tag_137:\n      pop\n        /* \"contracts/CrowdTank.sol\":3320:3379  (bool sent, ) = payable(msg.sender).call{value: refund}(\"\") */\n      pop\n      swap1\n      pop\n        /* \"contracts/CrowdTank.sol\":3406:3410  sent */\n      dup1\n        /* \"contracts/CrowdTank.sol\":3398:3429  require(sent , \"Refund Failed\") */\n      tag_139\n      jumpi\n      mload(0x40)\n      0x08c379a000000000000000000000000000000000000000000000000000000000\n      dup2\n      mstore\n      0x04\n      add\n      tag_140\n      swap1\n      tag_141\n      jump\t// in\n    tag_140:\n      mload(0x40)\n      dup1\n      swap2\n      sub\n      swap1\n      revert\n    tag_139:\n        /* \"contracts/CrowdTank.sol\":3301:3445  {... */\n      pop\n        /* \"contracts/CrowdTank.sol\":3285:3445  if (refund > 0) {... */\n    tag_133:\n        /* \"contracts/CrowdTank.sol\":3473:3483  _projectID */\n      dup5\n        /* \"contracts/CrowdTank.sol\":3466:3521  funded(_projectID, msg.sender, amountToAccept , refund) */\n      0x7dd983e9d08b449d571f3583275e98423857f3ffbe9ef56f927eb02b1c8ab599\n        /* \"contracts/CrowdTank.sol\":3485:3495  msg.sender */\n      caller\n        /* \"contracts/CrowdTank.sol\":3497:3511  amountToAccept */\n      dup5\n        /* \"contracts/CrowdTank.sol\":3514:3520  refund */\n      dup5\n        /* \"contracts/CrowdTank.sol\":3466:3521  funded(_projectID, msg.sender, amountToAccept , refund) */\n      mload(0x40)\n      tag_142\n      swap4\n      swap3\n      swap2\n      swap1\n      tag_143\n      jump\t// in\n    tag_142:\n      mload(0x40)\n      dup1\n      swap2\n      sub\n      swap1\n      log2\n        /* \"contracts/CrowdTank.sol\":3564:3571  Project */\n      dup4\n        /* \"contracts/CrowdTank.sol\":3564:3583  Project.fundingGoal */\n      0x03\n      add\n      sload\n        /* \"contracts/CrowdTank.sol\":3542:3549  Project */\n      dup5\n        /* \"contracts/CrowdTank.sol\":3542:3562  Project.amountRaised */\n      0x05\n      add\n      sload\n        /* \"contracts/CrowdTank.sol\":3542:3583  Project.amountRaised>=Project.fundingGoal */\n      lt\n        /* \"contracts/CrowdTank.sol\":3538:3641  if (Project.amountRaised>=Project.fundingGoal) {... */\n      tag_144\n      jumpi\n        /* \"contracts/CrowdTank.sol\":3621:3625  true */\n      0x01\n        /* \"contracts/CrowdTank.sol\":3604:3611  Project */\n      dup5\n        /* \"contracts/CrowdTank.sol\":3604:3618  Project.funded */\n      0x06\n      add\n      0x00\n        /* \"contracts/CrowdTank.sol\":3604:3625  Project.funded = true */\n      0x0100\n      exp\n      dup2\n      sload\n      dup2\n      0xff\n      mul\n      not\n      and\n      swap1\n      dup4\n      iszero\n      iszero\n      mul\n      or\n      swap1\n      sstore\n      pop\n        /* \"contracts/CrowdTank.sol\":3538:3641  if (Project.amountRaised>=Project.fundingGoal) {... */\n    tag_144:\n        /* \"contracts/CrowdTank.sol\":2174:3652  {... */\n      pop\n      pop\n      pop\n      pop\n        /* \"contracts/CrowdTank.sol\":2119:3652  function fundProject(uint _projectID) external payable {... */\n      pop\n      jump\t// out\n        /* \"contracts/CrowdTank.sol\":4358:4959  function creatorWithdraw(uint _projectID) external payable {... */\n    tag_60:\n        /* \"contracts/CrowdTank.sol\":4428:4451  project storage Project */\n      0x00\n        /* \"contracts/CrowdTank.sol\":4454:4462  Projects */\n      0x01\n        /* \"contracts/CrowdTank.sol\":4454:4474  Projects[_projectID] */\n      0x00\n        /* \"contracts/CrowdTank.sol\":4463:4473  _projectID */\n      dup4\n        /* \"contracts/CrowdTank.sol\":4454:4474  Projects[_projectID] */\n      dup2\n      mstore\n      0x20\n      add\n      swap1\n      dup2\n      mstore\n      0x20\n      add\n      0x00\n      keccak256\n        /* \"contracts/CrowdTank.sol\":4428:4474  project storage Project = Projects[_projectID] */\n      swap1\n      pop\n        /* \"contracts/CrowdTank.sol\":4485:4502  uint totalfunding */\n      0x00\n        /* \"contracts/CrowdTank.sol\":4505:4512  Project */\n      dup2\n        /* \"contracts/CrowdTank.sol\":4505:4525  Project.amountRaised */\n      0x05\n      add\n      sload\n        /* \"contracts/CrowdTank.sol\":4485:4525  uint totalfunding = Project.amountRaised */\n      swap1\n      pop\n        /* \"contracts/CrowdTank.sol\":4544:4551  Project */\n      dup2\n        /* \"contracts/CrowdTank.sol\":4544:4558  Project.funded */\n      0x06\n      add\n      0x00\n      swap1\n      sload\n      swap1\n      0x0100\n      exp\n      swap1\n      div\n      0xff\n      and\n        /* \"contracts/CrowdTank.sol\":4536:4615  require(Project.funded , \"funding goal has not reached , admin can't withdraw\") */\n      tag_146\n      jumpi\n      mload(0x40)\n      0x08c379a000000000000000000000000000000000000000000000000000000000\n      dup2\n      mstore\n      0x04\n      add\n      tag_147\n      swap1\n      tag_148\n      jump\t// in\n    tag_147:\n      mload(0x40)\n      dup1\n      swap2\n      sub\n      swap1\n      revert\n    tag_146:\n        /* \"contracts/CrowdTank.sol\":4653:4663  msg.sender */\n      caller\n        /* \"contracts/CrowdTank.sol\":4634:4663  Project.creator == msg.sender */\n      0xffffffffffffffffffffffffffffffffffffffff\n      and\n        /* \"contracts/CrowdTank.sol\":4634:4641  Project */\n      dup3\n        /* \"contracts/CrowdTank.sol\":4634:4649  Project.creator */\n      0x00\n      add\n      0x00\n      swap1\n      sload\n      swap1\n      0x0100\n      exp\n      swap1\n      div\n      0xffffffffffffffffffffffffffffffffffffffff\n      and\n        /* \"contracts/CrowdTank.sol\":4634:4663  Project.creator == msg.sender */\n      0xffffffffffffffffffffffffffffffffffffffff\n      and\n      eq\n        /* \"contracts/CrowdTank.sol\":4626:4692  require(Project.creator == msg.sender , \"only admin can withdraw\") */\n      tag_149\n      jumpi\n      mload(0x40)\n      0x08c379a000000000000000000000000000000000000000000000000000000000\n      dup2\n      mstore\n      0x04\n      add\n      tag_150\n      swap1\n      tag_151\n      jump\t// in\n    tag_150:\n      mload(0x40)\n      dup1\n      swap2\n      sub\n      swap1\n      revert\n    tag_149:\n        /* \"contracts/CrowdTank.sol\":4729:4744  block.timestamp */\n      timestamp\n        /* \"contracts/CrowdTank.sol\":4711:4718  Project */\n      dup3\n        /* \"contracts/CrowdTank.sol\":4711:4727  Project.deadline */\n      0x04\n      add\n      sload\n        /* \"contracts/CrowdTank.sol\":4711:4744  Project.deadline<=block.timestamp */\n      gt\n      iszero\n        /* \"contracts/CrowdTank.sol\":4703:4797  require(Project.deadline<=block.timestamp , \"deadline has not reached , admin can't withdraw\") */\n      tag_152\n      jumpi\n      mload(0x40)\n      0x08c379a000000000000000000000000000000000000000000000000000000000\n      dup2\n      mstore\n      0x04\n      add\n      tag_153\n      swap1\n      tag_154\n      jump\t// in\n    tag_153:\n      mload(0x40)\n      dup1\n      swap2\n      sub\n      swap1\n      revert\n    tag_152:\n        /* \"contracts/CrowdTank.sol\":4816:4826  msg.sender */\n      caller\n        /* \"contracts/CrowdTank.sol\":4808:4836  payable(msg.sender).transfer */\n      0xffffffffffffffffffffffffffffffffffffffff\n      and\n        /* \"contracts/CrowdTank.sol\":4808:4850  payable(msg.sender).transfer(totalfunding) */\n      0x08fc\n        /* \"contracts/CrowdTank.sol\":4837:4849  totalfunding */\n      dup3\n        /* \"contracts/CrowdTank.sol\":4808:4850  payable(msg.sender).transfer(totalfunding) */\n      swap1\n      dup2\n      iszero\n      mul\n      swap1\n      mload(0x40)\n      0x00\n      mload(0x40)\n      dup1\n      dup4\n      sub\n      dup2\n      dup6\n      dup9\n      dup9\n      call\n      swap4\n      pop\n      pop\n      pop\n      pop\n      iszero\n      dup1\n      iszero\n      tag_156\n      jumpi\n      returndatacopy(0x00, 0x00, returndatasize)\n      revert(0x00, returndatasize)\n    tag_156:\n      pop\n        /* \"contracts/CrowdTank.sol\":4917:4927  _projectID */\n      dup3\n        /* \"contracts/CrowdTank.sol\":4900:4951  creatorWithdrawn(_projectID, msg.sender, msg.value) */\n      0xcae030e1a3c6b0011e7009bd65734e2e1e330528f6983497631fabd47fa7a281\n        /* \"contracts/CrowdTank.sol\":4929:4939  msg.sender */\n      caller\n        /* \"contracts/CrowdTank.sol\":4941:4950  msg.value */\n      callvalue\n        /* \"contracts/CrowdTank.sol\":4900:4951  creatorWithdrawn(_projectID, msg.sender, msg.value) */\n      mload(0x40)\n      tag_157\n      swap3\n      swap2\n      swap1\n      tag_103\n      jump\t// in\n    tag_157:\n      mload(0x40)\n      dup1\n      swap2\n      sub\n      swap1\n      log2\n        /* \"contracts/CrowdTank.sol\":4417:4959  {... */\n      pop\n      pop\n        /* \"contracts/CrowdTank.sol\":4358:4959  function creatorWithdraw(uint _projectID) external payable {... */\n      pop\n      jump\t// out\n        /* \"contracts/CrowdTank.sol\":1388:2058  function createProject(string memory _name , string memory _description , uint _fundingGoal , uint _durationSeconds , uint _id) external {... */\n    tag_65:\n        /* \"contracts/CrowdTank.sol\":1545:1553  isIdUsed */\n      0x03\n        /* \"contracts/CrowdTank.sol\":1545:1558  isIdUsed[_id] */\n      0x00\n        /* \"contracts/CrowdTank.sol\":1554:1557  _id */\n      dup3\n        /* \"contracts/CrowdTank.sol\":1545:1558  isIdUsed[_id] */\n      dup2\n      mstore\n      0x20\n      add\n      swap1\n      dup2\n      mstore\n      0x20\n      add\n      0x00\n      keccak256\n      0x00\n      swap1\n      sload\n      swap1\n      0x0100\n      exp\n      swap1\n      div\n      0xff\n      and\n        /* \"contracts/CrowdTank.sol\":1544:1558  !isIdUsed[_id] */\n      iszero\n        /* \"contracts/CrowdTank.sol\":1536:1593  require(!isIdUsed[_id], \"Project ID is already in use!\" ) */\n      tag_159\n      jumpi\n      mload(0x40)\n      0x08c379a000000000000000000000000000000000000000000000000000000000\n      dup2\n      mstore\n      0x04\n      add\n      tag_160\n      swap1\n      tag_161\n      jump\t// in\n    tag_160:\n      mload(0x40)\n      dup1\n      swap2\n      sub\n      swap1\n      revert\n    tag_159:\n        /* \"contracts/CrowdTank.sol\":1620:1624  true */\n      0x01\n        /* \"contracts/CrowdTank.sol\":1604:1612  isIdUsed */\n      0x03\n        /* \"contracts/CrowdTank.sol\":1604:1617  isIdUsed[_id] */\n      0x00\n        /* \"contracts/CrowdTank.sol\":1613:1616  _id */\n      dup4\n        /* \"contracts/CrowdTank.sol\":1604:1617  isIdUsed[_id] */\n      dup2\n      mstore\n      0x20\n      add\n      swap1\n      dup2\n      mstore\n      0x20\n      add\n      0x00\n      keccak256\n      0x00\n        /* \"contracts/CrowdTank.sol\":1604:1624  isIdUsed[_id] = true */\n      0x0100\n      exp\n      dup2\n      sload\n      dup2\n      0xff\n      mul\n      not\n      and\n      swap1\n      dup4\n      iszero\n      iszero\n      mul\n      or\n      swap1\n      sstore\n      pop\n        /* \"contracts/CrowdTank.sol\":1651:1929  project({... */\n      mload(0x40)\n      dup1\n      0xe0\n      add\n      0x40\n      mstore\n      dup1\n        /* \"contracts/CrowdTank.sol\":1684:1694  msg.sender */\n      caller\n        /* \"contracts/CrowdTank.sol\":1651:1929  project({... */\n      0xffffffffffffffffffffffffffffffffffffffff\n      and\n      dup2\n      mstore\n      0x20\n      add\n        /* \"contracts/CrowdTank.sol\":1715:1720  _name */\n      dup7\n        /* \"contracts/CrowdTank.sol\":1651:1929  project({... */\n      dup2\n      mstore\n      0x20\n      add\n        /* \"contracts/CrowdTank.sol\":1748:1760  _description */\n      dup6\n        /* \"contracts/CrowdTank.sol\":1651:1929  project({... */\n      dup2\n      mstore\n      0x20\n      add\n        /* \"contracts/CrowdTank.sol\":1788:1800  _fundingGoal */\n      dup5\n        /* \"contracts/CrowdTank.sol\":1651:1929  project({... */\n      dup2\n      mstore\n      0x20\n      add\n        /* \"contracts/CrowdTank.sol\":1843:1859  _durationSeconds */\n      dup4\n        /* \"contracts/CrowdTank.sol\":1825:1840  block.timestamp */\n      timestamp\n        /* \"contracts/CrowdTank.sol\":1825:1859  block.timestamp + _durationSeconds */\n      tag_162\n      swap2\n      swap1\n      tag_110\n      jump\t// in\n    tag_162:\n        /* \"contracts/CrowdTank.sol\":1651:1929  project({... */\n      dup2\n      mstore\n      0x20\n      add\n        /* \"contracts/CrowdTank.sol\":1888:1889  0 */\n      0x00\n        /* \"contracts/CrowdTank.sol\":1651:1929  project({... */\n      dup2\n      mstore\n      0x20\n      add\n        /* \"contracts/CrowdTank.sol\":1912:1917  false */\n      0x00\n        /* \"contracts/CrowdTank.sol\":1651:1929  project({... */\n      iszero\n      iszero\n      dup2\n      mstore\n      pop\n        /* \"contracts/CrowdTank.sol\":1635:1643  Projects */\n      0x01\n        /* \"contracts/CrowdTank.sol\":1635:1648  Projects[_id] */\n      0x00\n        /* \"contracts/CrowdTank.sol\":1644:1647  _id */\n      dup4\n        /* \"contracts/CrowdTank.sol\":1635:1648  Projects[_id] */\n      dup2\n      mstore\n      0x20\n      add\n      swap1\n      dup2\n      mstore\n      0x20\n      add\n      0x00\n      keccak256\n        /* \"contracts/CrowdTank.sol\":1635:1929  Projects[_id] = project({... */\n      0x00\n      dup3\n      add\n      mload\n      dup2\n      0x00\n      add\n      exp(0x0100, 0x00)\n      dup2\n      sload\n      dup2\n      0xffffffffffffffffffffffffffffffffffffffff\n      mul\n      not\n      and\n      swap1\n      dup4\n      0xffffffffffffffffffffffffffffffffffffffff\n      and\n      mul\n      or\n      swap1\n      sstore\n      pop\n      0x20\n      dup3\n      add\n      mload\n      dup2\n      0x01\n      add\n      swap1\n      dup2\n      tag_163\n      swap2\n      swap1\n      tag_164\n      jump\t// in\n    tag_163:\n      pop\n      0x40\n      dup3\n      add\n      mload\n      dup2\n      0x02\n      add\n      swap1\n      dup2\n      tag_165\n      swap2\n      swap1\n      tag_164\n      jump\t// in\n    tag_165:\n      pop\n      0x60\n      dup3\n      add\n      mload\n      dup2\n      0x03\n      add\n      sstore\n      0x80\n      dup3\n      add\n      mload\n      dup2\n      0x04\n      add\n      sstore\n      0xa0\n      dup3\n      add\n      mload\n      dup2\n      0x05\n      add\n      sstore\n      0xc0\n      dup3\n      add\n      mload\n      dup2\n      0x06\n      add\n      exp(0x0100, 0x00)\n      dup2\n      sload\n      dup2\n      0xff\n      mul\n      not\n      and\n      swap1\n      dup4\n      iszero\n      iszero\n      mul\n      or\n      swap1\n      sstore\n      pop\n      swap1\n      pop\n      pop\n        /* \"contracts/CrowdTank.sol\":1966:1976  msg.sender */\n      caller\n        /* \"contracts/CrowdTank.sol\":1945:2050  ProjectCreated(_id , msg.sender , _name , _description , _fundingGoal , block.timestamp+_durationSeconds) */\n      0xffffffffffffffffffffffffffffffffffffffff\n      and\n        /* \"contracts/CrowdTank.sol\":1960:1963  _id */\n      dup2\n        /* \"contracts/CrowdTank.sol\":1945:2050  ProjectCreated(_id , msg.sender , _name , _description , _fundingGoal , block.timestamp+_durationSeconds) */\n      0xac9b83534845c9e785a6ea70f2d809db1d72ef9a1d981753712d922f5cb55f39\n        /* \"contracts/CrowdTank.sol\":1979:1984  _name */\n      dup8\n        /* \"contracts/CrowdTank.sol\":1987:1999  _description */\n      dup8\n        /* \"contracts/CrowdTank.sol\":2002:2014  _fundingGoal */\n      dup8\n        /* \"contracts/CrowdTank.sol\":2033:2049  _durationSeconds */\n      dup8\n        /* \"contracts/CrowdTank.sol\":2017:2032  block.timestamp */\n      timestamp\n        /* \"contracts/CrowdTank.sol\":2017:2049  block.timestamp+_durationSeconds */\n      tag_166\n      swap2\n      swap1\n      tag_110\n      jump\t// in\n    tag_166:\n        /* \"contracts/CrowdTank.sol\":1945:2050  ProjectCreated(_id , msg.sender , _name , _description , _fundingGoal , block.timestamp+_durationSeconds) */\n      mload(0x40)\n      tag_167\n      swap5\n      swap4\n      swap3\n      swap2\n      swap1\n      tag_168\n      jump\t// in\n    tag_167:\n      mload(0x40)\n      dup1\n      swap2\n      sub\n      swap1\n      log3\n        /* \"contracts/CrowdTank.sol\":1388:2058  function createProject(string memory _name , string memory _description , uint _fundingGoal , uint _durationSeconds , uint _id) external {... */\n      pop\n      pop\n      pop\n      pop\n      pop\n      jump\t// out\n        /* \"#utility.yul\":7:82   */\n    tag_169:\n        /* \"#utility.yul\":40:46   */\n      0x00\n        /* \"#utility.yul\":73:75   */\n      0x40\n        /* \"#utility.yul\":67:76   */\n      mload\n        /* \"#utility.yul\":57:76   */\n      swap1\n      pop\n        /* \"#utility.yul\":7:82   */\n      swap1\n      jump\t// out\n        /* \"#utility.yul\":88:205   */\n    tag_170:\n        /* \"#utility.yul\":197:198   */\n      0x00\n        /* \"#utility.yul\":194:195   */\n      0x00\n        /* \"#utility.yul\":187:199   */\n      revert\n        /* \"#utility.yul\":211:328   */\n    tag_171:\n        /* \"#utility.yul\":320:321   */\n      0x00\n        /* \"#utility.yul\":317:318   */\n      0x00\n        /* \"#utility.yul\":310:322   */\n      revert\n        /* \"#utility.yul\":334:411   */\n    tag_172:\n        /* \"#utility.yul\":371:378   */\n      0x00\n        /* \"#utility.yul\":400:405   */\n      dup2\n        /* \"#utility.yul\":389:405   */\n      swap1\n      pop\n        /* \"#utility.yul\":334:411   */\n      swap2\n      swap1\n      pop\n      jump\t// out\n        /* \"#utility.yul\":417:539   */\n    tag_173:\n        /* \"#utility.yul\":490:514   */\n      tag_253\n        /* \"#utility.yul\":508:513   */\n      dup2\n        /* \"#utility.yul\":490:514   */\n      tag_172\n      jump\t// in\n    tag_253:\n        /* \"#utility.yul\":483:488   */\n      dup2\n        /* \"#utility.yul\":480:515   */\n      eq\n        /* \"#utility.yul\":470:533   */\n      tag_254\n      jumpi\n        /* \"#utility.yul\":529:530   */\n      0x00\n        /* \"#utility.yul\":526:527   */\n      0x00\n        /* \"#utility.yul\":519:531   */\n      revert\n        /* \"#utility.yul\":470:533   */\n    tag_254:\n        /* \"#utility.yul\":417:539   */\n      pop\n      jump\t// out\n        /* \"#utility.yul\":545:684   */\n    tag_174:\n        /* \"#utility.yul\":591:596   */\n      0x00\n        /* \"#utility.yul\":629:635   */\n      dup2\n        /* \"#utility.yul\":616:636   */\n      calldataload\n        /* \"#utility.yul\":607:636   */\n      swap1\n      pop\n        /* \"#utility.yul\":645:678   */\n      tag_256\n        /* \"#utility.yul\":672:677   */\n      dup2\n        /* \"#utility.yul\":645:678   */\n      tag_173\n      jump\t// in\n    tag_256:\n        /* \"#utility.yul\":545:684   */\n      swap3\n      swap2\n      pop\n      pop\n      jump\t// out\n        /* \"#utility.yul\":690:1019   */\n    tag_17:\n        /* \"#utility.yul\":749:755   */\n      0x00\n        /* \"#utility.yul\":798:800   */\n      0x20\n        /* \"#utility.yul\":786:795   */\n      dup3\n        /* \"#utility.yul\":777:784   */\n      dup5\n        /* \"#utility.yul\":773:796   */\n      sub\n        /* \"#utility.yul\":769:801   */\n      slt\n        /* \"#utility.yul\":766:885   */\n      iszero\n      tag_258\n      jumpi\n        /* \"#utility.yul\":804:883   */\n      tag_259\n      tag_170\n      jump\t// in\n    tag_259:\n        /* \"#utility.yul\":766:885   */\n    tag_258:\n        /* \"#utility.yul\":924:925   */\n      0x00\n        /* \"#utility.yul\":949:1002   */\n      tag_260\n        /* \"#utility.yul\":994:1001   */\n      dup5\n        /* \"#utility.yul\":985:991   */\n      dup3\n        /* \"#utility.yul\":974:983   */\n      dup6\n        /* \"#utility.yul\":970:992   */\n      add\n        /* \"#utility.yul\":949:1002   */\n      tag_174\n      jump\t// in\n    tag_260:\n        /* \"#utility.yul\":939:1002   */\n      swap2\n      pop\n        /* \"#utility.yul\":895:1012   */\n      pop\n        /* \"#utility.yul\":690:1019   */\n      swap3\n      swap2\n      pop\n      pop\n      jump\t// out\n        /* \"#utility.yul\":1025:1143   */\n    tag_175:\n        /* \"#utility.yul\":1112:1136   */\n      tag_262\n        /* \"#utility.yul\":1130:1135   */\n      dup2\n        /* \"#utility.yul\":1112:1136   */\n      tag_172\n      jump\t// in\n    tag_262:\n        /* \"#utility.yul\":1107:1110   */\n      dup3\n        /* \"#utility.yul\":1100:1137   */\n      mstore\n        /* \"#utility.yul\":1025:1143   */\n      pop\n      pop\n      jump\t// out\n        /* \"#utility.yul\":1149:1481   */\n    tag_20:\n        /* \"#utility.yul\":1270:1274   */\n      0x00\n        /* \"#utility.yul\":1308:1310   */\n      0x40\n        /* \"#utility.yul\":1297:1306   */\n      dup3\n        /* \"#utility.yul\":1293:1311   */\n      add\n        /* \"#utility.yul\":1285:1311   */\n      swap1\n      pop\n        /* \"#utility.yul\":1321:1392   */\n      tag_264\n        /* \"#utility.yul\":1389:1390   */\n      0x00\n        /* \"#utility.yul\":1378:1387   */\n      dup4\n        /* \"#utility.yul\":1374:1391   */\n      add\n        /* \"#utility.yul\":1365:1371   */\n      dup6\n        /* \"#utility.yul\":1321:1392   */\n      tag_175\n      jump\t// in\n    tag_264:\n        /* \"#utility.yul\":1402:1474   */\n      tag_265\n        /* \"#utility.yul\":1470:1472   */\n      0x20\n        /* \"#utility.yul\":1459:1468   */\n      dup4\n        /* \"#utility.yul\":1455:1473   */\n      add\n        /* \"#utility.yul\":1446:1452   */\n      dup5\n        /* \"#utility.yul\":1402:1474   */\n      tag_175\n      jump\t// in\n    tag_265:\n        /* \"#utility.yul\":1149:1481   */\n      swap4\n      swap3\n      pop\n      pop\n      pop\n      jump\t// out\n        /* \"#utility.yul\":1487:1961   */\n    tag_24:\n        /* \"#utility.yul\":1555:1561   */\n      0x00\n        /* \"#utility.yul\":1563:1569   */\n      0x00\n        /* \"#utility.yul\":1612:1614   */\n      0x40\n        /* \"#utility.yul\":1600:1609   */\n      dup4\n        /* \"#utility.yul\":1591:1598   */\n      dup6\n        /* \"#utility.yul\":1587:1610   */\n      sub\n        /* \"#utility.yul\":1583:1615   */\n      slt\n        /* \"#utility.yul\":1580:1699   */\n      iszero\n      tag_267\n      jumpi\n        /* \"#utility.yul\":1618:1697   */\n      tag_268\n      tag_170\n      jump\t// in\n    tag_268:\n        /* \"#utility.yul\":1580:1699   */\n    tag_267:\n        /* \"#utility.yul\":1738:1739   */\n      0x00\n        /* \"#utility.yul\":1763:1816   */\n      tag_269\n        /* \"#utility.yul\":1808:1815   */\n      dup6\n        /* \"#utility.yul\":1799:1805   */\n      dup3\n        /* \"#utility.yul\":1788:1797   */\n      dup7\n        /* \"#utility.yul\":1784:1806   */\n      add\n        /* \"#utility.yul\":1763:1816   */\n      tag_174\n      jump\t// in\n    tag_269:\n        /* \"#utility.yul\":1753:1816   */\n      swap3\n      pop\n        /* \"#utility.yul\":1709:1826   */\n      pop\n        /* \"#utility.yul\":1865:1867   */\n      0x20\n        /* \"#utility.yul\":1891:1944   */\n      tag_270\n        /* \"#utility.yul\":1936:1943   */\n      dup6\n        /* \"#utility.yul\":1927:1933   */\n      dup3\n        /* \"#utility.yul\":1916:1925   */\n      dup7\n        /* \"#utility.yul\":1912:1934   */\n      add\n        /* \"#utility.yul\":1891:1944   */\n      tag_174\n      jump\t// in\n    tag_270:\n        /* \"#utility.yul\":1881:1944   */\n      swap2\n      pop\n        /* \"#utility.yul\":1836:1954   */\n      pop\n        /* \"#utility.yul\":1487:1961   */\n      swap3\n      pop\n      swap3\n      swap1\n      pop\n      jump\t// out\n        /* \"#utility.yul\":1967:2093   */\n    tag_176:\n        /* \"#utility.yul\":2004:2011   */\n      0x00\n        /* \"#utility.yul\":2044:2086   */\n      0xffffffffffffffffffffffffffffffffffffffff\n        /* \"#utility.yul\":2037:2042   */\n      dup3\n        /* \"#utility.yul\":2033:2087   */\n      and\n        /* \"#utility.yul\":2022:2087   */\n      swap1\n      pop\n        /* \"#utility.yul\":1967:2093   */\n      swap2\n      swap1\n      pop\n      jump\t// out\n        /* \"#utility.yul\":2099:2195   */\n    tag_177:\n        /* \"#utility.yul\":2136:2143   */\n      0x00\n        /* \"#utility.yul\":2165:2189   */\n      tag_273\n        /* \"#utility.yul\":2183:2188   */\n      dup3\n        /* \"#utility.yul\":2165:2189   */\n      tag_176\n      jump\t// in\n    tag_273:\n        /* \"#utility.yul\":2154:2189   */\n      swap1\n      pop\n        /* \"#utility.yul\":2099:2195   */\n      swap2\n      swap1\n      pop\n      jump\t// out\n        /* \"#utility.yul\":2201:2319   */\n    tag_178:\n        /* \"#utility.yul\":2288:2312   */\n      tag_275\n        /* \"#utility.yul\":2306:2311   */\n      dup2\n        /* \"#utility.yul\":2288:2312   */\n      tag_177\n      jump\t// in\n    tag_275:\n        /* \"#utility.yul\":2283:2286   */\n      dup3\n        /* \"#utility.yul\":2276:2313   */\n      mstore\n        /* \"#utility.yul\":2201:2319   */\n      pop\n      pop\n      jump\t// out\n        /* \"#utility.yul\":2325:2424   */\n    tag_179:\n        /* \"#utility.yul\":2377:2383   */\n      0x00\n        /* \"#utility.yul\":2411:2416   */\n      dup2\n        /* \"#utility.yul\":2405:2417   */\n      mload\n        /* \"#utility.yul\":2395:2417   */\n      swap1\n      pop\n        /* \"#utility.yul\":2325:2424   */\n      swap2\n      swap1\n      pop\n      jump\t// out\n        /* \"#utility.yul\":2430:2599   */\n    tag_180:\n        /* \"#utility.yul\":2514:2525   */\n      0x00\n        /* \"#utility.yul\":2548:2554   */\n      dup3\n        /* \"#utility.yul\":2543:2546   */\n      dup3\n        /* \"#utility.yul\":2536:2555   */\n      mstore\n        /* \"#utility.yul\":2588:2592   */\n      0x20\n        /* \"#utility.yul\":2583:2586   */\n      dup3\n        /* \"#utility.yul\":2579:2593   */\n      add\n        /* \"#utility.yul\":2564:2593   */\n      swap1\n      pop\n        /* \"#utility.yul\":2430:2599   */\n      swap3\n      swap2\n      pop\n      pop\n      jump\t// out\n        /* \"#utility.yul\":2605:2744   */\n    tag_181:\n        /* \"#utility.yul\":2694:2700   */\n      dup3\n        /* \"#utility.yul\":2689:2692   */\n      dup2\n        /* \"#utility.yul\":2684:2687   */\n      dup4\n        /* \"#utility.yul\":2678:2701   */\n      mcopy\n        /* \"#utility.yul\":2735:2736   */\n      0x00\n        /* \"#utility.yul\":2726:2732   */\n      dup4\n        /* \"#utility.yul\":2721:2724   */\n      dup4\n        /* \"#utility.yul\":2717:2733   */\n      add\n        /* \"#utility.yul\":2710:2737   */\n      mstore\n        /* \"#utility.yul\":2605:2744   */\n      pop\n      pop\n      pop\n      jump\t// out\n        /* \"#utility.yul\":2750:2852   */\n    tag_182:\n        /* \"#utility.yul\":2791:2797   */\n      0x00\n        /* \"#utility.yul\":2842:2844   */\n      0x1f\n        /* \"#utility.yul\":2838:2845   */\n      not\n        /* \"#utility.yul\":2833:2835   */\n      0x1f\n        /* \"#utility.yul\":2826:2831   */\n      dup4\n        /* \"#utility.yul\":2822:2836   */\n      add\n        /* \"#utility.yul\":2818:2846   */\n      and\n        /* \"#utility.yul\":2808:2846   */\n      swap1\n      pop\n        /* \"#utility.yul\":2750:2852   */\n      swap2\n      swap1\n      pop\n      jump\t// out\n        /* \"#utility.yul\":2858:3235   */\n    tag_183:\n        /* \"#utility.yul\":2946:2949   */\n      0x00\n        /* \"#utility.yul\":2974:3013   */\n      tag_281\n        /* \"#utility.yul\":3007:3012   */\n      dup3\n        /* \"#utility.yul\":2974:3013   */\n      tag_179\n      jump\t// in\n    tag_281:\n        /* \"#utility.yul\":3029:3100   */\n      tag_282\n        /* \"#utility.yul\":3093:3099   */\n      dup2\n        /* \"#utility.yul\":3088:3091   */\n      dup6\n        /* \"#utility.yul\":3029:3100   */\n      tag_180\n      jump\t// in\n    tag_282:\n        /* \"#utility.yul\":3022:3100   */\n      swap4\n      pop\n        /* \"#utility.yul\":3109:3174   */\n      tag_283\n        /* \"#utility.yul\":3167:3173   */\n      dup2\n        /* \"#utility.yul\":3162:3165   */\n      dup6\n        /* \"#utility.yul\":3155:3159   */\n      0x20\n        /* \"#utility.yul\":3148:3153   */\n      dup7\n        /* \"#utility.yul\":3144:3160   */\n      add\n        /* \"#utility.yul\":3109:3174   */\n      tag_181\n      jump\t// in\n    tag_283:\n        /* \"#utility.yul\":3199:3228   */\n      tag_284\n        /* \"#utility.yul\":3221:3227   */\n      dup2\n        /* \"#utility.yul\":3199:3228   */\n      tag_182\n      jump\t// in\n    tag_284:\n        /* \"#utility.yul\":3194:3197   */\n      dup5\n        /* \"#utility.yul\":3190:3229   */\n      add\n        /* \"#utility.yul\":3183:3229   */\n      swap2\n      pop\n        /* \"#utility.yul\":2950:3235   */\n      pop\n        /* \"#utility.yul\":2858:3235   */\n      swap3\n      swap2\n      pop\n      pop\n      jump\t// out\n        /* \"#utility.yul\":3241:3331   */\n    tag_184:\n        /* \"#utility.yul\":3275:3282   */\n      0x00\n        /* \"#utility.yul\":3318:3323   */\n      dup2\n        /* \"#utility.yul\":3311:3324   */\n      iszero\n        /* \"#utility.yul\":3304:3325   */\n      iszero\n        /* \"#utility.yul\":3293:3325   */\n      swap1\n      pop\n        /* \"#utility.yul\":3241:3331   */\n      swap2\n      swap1\n      pop\n      jump\t// out\n        /* \"#utility.yul\":3337:3446   */\n    tag_185:\n        /* \"#utility.yul\":3418:3439   */\n      tag_287\n        /* \"#utility.yul\":3433:3438   */\n      dup2\n        /* \"#utility.yul\":3418:3439   */\n      tag_184\n      jump\t// in\n    tag_287:\n        /* \"#utility.yul\":3413:3416   */\n      dup3\n        /* \"#utility.yul\":3406:3440   */\n      mstore\n        /* \"#utility.yul\":3337:3446   */\n      pop\n      pop\n      jump\t// out\n        /* \"#utility.yul\":3452:4508   */\n    tag_31:\n        /* \"#utility.yul\":3747:3751   */\n      0x00\n        /* \"#utility.yul\":3785:3788   */\n      0xe0\n        /* \"#utility.yul\":3774:3783   */\n      dup3\n        /* \"#utility.yul\":3770:3789   */\n      add\n        /* \"#utility.yul\":3762:3789   */\n      swap1\n      pop\n        /* \"#utility.yul\":3799:3870   */\n      tag_289\n        /* \"#utility.yul\":3867:3868   */\n      0x00\n        /* \"#utility.yul\":3856:3865   */\n      dup4\n        /* \"#utility.yul\":3852:3869   */\n      add\n        /* \"#utility.yul\":3843:3849   */\n      dup11\n        /* \"#utility.yul\":3799:3870   */\n      tag_178\n      jump\t// in\n    tag_289:\n        /* \"#utility.yul\":3917:3926   */\n      dup2\n        /* \"#utility.yul\":3911:3915   */\n      dup2\n        /* \"#utility.yul\":3907:3927   */\n      sub\n        /* \"#utility.yul\":3902:3904   */\n      0x20\n        /* \"#utility.yul\":3891:3900   */\n      dup4\n        /* \"#utility.yul\":3887:3905   */\n      add\n        /* \"#utility.yul\":3880:3928   */\n      mstore\n        /* \"#utility.yul\":3945:4023   */\n      tag_290\n        /* \"#utility.yul\":4018:4022   */\n      dup2\n        /* \"#utility.yul\":4009:4015   */\n      dup10\n        /* \"#utility.yul\":3945:4023   */\n      tag_183\n      jump\t// in\n    tag_290:\n        /* \"#utility.yul\":3937:4023   */\n      swap1\n      pop\n        /* \"#utility.yul\":4070:4079   */\n      dup2\n        /* \"#utility.yul\":4064:4068   */\n      dup2\n        /* \"#utility.yul\":4060:4080   */\n      sub\n        /* \"#utility.yul\":4055:4057   */\n      0x40\n        /* \"#utility.yul\":4044:4053   */\n      dup4\n        /* \"#utility.yul\":4040:4058   */\n      add\n        /* \"#utility.yul\":4033:4081   */\n      mstore\n        /* \"#utility.yul\":4098:4176   */\n      tag_291\n        /* \"#utility.yul\":4171:4175   */\n      dup2\n        /* \"#utility.yul\":4162:4168   */\n      dup9\n        /* \"#utility.yul\":4098:4176   */\n      tag_183\n      jump\t// in\n    tag_291:\n        /* \"#utility.yul\":4090:4176   */\n      swap1\n      pop\n        /* \"#utility.yul\":4186:4258   */\n      tag_292\n        /* \"#utility.yul\":4254:4256   */\n      0x60\n        /* \"#utility.yul\":4243:4252   */\n      dup4\n        /* \"#utility.yul\":4239:4257   */\n      add\n        /* \"#utility.yul\":4230:4236   */\n      dup8\n        /* \"#utility.yul\":4186:4258   */\n      tag_175\n      jump\t// in\n    tag_292:\n        /* \"#utility.yul\":4268:4341   */\n      tag_293\n        /* \"#utility.yul\":4336:4339   */\n      0x80\n        /* \"#utility.yul\":4325:4334   */\n      dup4\n        /* \"#utility.yul\":4321:4340   */\n      add\n        /* \"#utility.yul\":4312:4318   */\n      dup7\n        /* \"#utility.yul\":4268:4341   */\n      tag_175\n      jump\t// in\n    tag_293:\n        /* \"#utility.yul\":4351:4424   */\n      tag_294\n        /* \"#utility.yul\":4419:4422   */\n      0xa0\n        /* \"#utility.yul\":4408:4417   */\n      dup4\n        /* \"#utility.yul\":4404:4423   */\n      add\n        /* \"#utility.yul\":4395:4401   */\n      dup6\n        /* \"#utility.yul\":4351:4424   */\n      tag_175\n      jump\t// in\n    tag_294:\n        /* \"#utility.yul\":4434:4501   */\n      tag_295\n        /* \"#utility.yul\":4496:4499   */\n      0xc0\n        /* \"#utility.yul\":4485:4494   */\n      dup4\n        /* \"#utility.yul\":4481:4500   */\n      add\n        /* \"#utility.yul\":4472:4478   */\n      dup5\n        /* \"#utility.yul\":4434:4501   */\n      tag_185\n      jump\t// in\n    tag_295:\n        /* \"#utility.yul\":3452:4508   */\n      swap9\n      swap8\n      pop\n      pop\n      pop\n      pop\n      pop\n      pop\n      pop\n      pop\n      jump\t// out\n        /* \"#utility.yul\":4514:4736   */\n    tag_37:\n        /* \"#utility.yul\":4607:4611   */\n      0x00\n        /* \"#utility.yul\":4645:4647   */\n      0x20\n        /* \"#utility.yul\":4634:4643   */\n      dup3\n        /* \"#utility.yul\":4630:4648   */\n      add\n        /* \"#utility.yul\":4622:4648   */\n      swap1\n      pop\n        /* \"#utility.yul\":4658:4729   */\n      tag_297\n        /* \"#utility.yul\":4726:4727   */\n      0x00\n        /* \"#utility.yul\":4715:4724   */\n      dup4\n        /* \"#utility.yul\":4711:4728   */\n      add\n        /* \"#utility.yul\":4702:4708   */\n      dup5\n        /* \"#utility.yul\":4658:4729   */\n      tag_175\n      jump\t// in\n    tag_297:\n        /* \"#utility.yul\":4514:4736   */\n      swap3\n      swap2\n      pop\n      pop\n      jump\t// out\n        /* \"#utility.yul\":4742:4864   */\n    tag_186:\n        /* \"#utility.yul\":4815:4839   */\n      tag_299\n        /* \"#utility.yul\":4833:4838   */\n      dup2\n        /* \"#utility.yul\":4815:4839   */\n      tag_177\n      jump\t// in\n    tag_299:\n        /* \"#utility.yul\":4808:4813   */\n      dup2\n        /* \"#utility.yul\":4805:4840   */\n      eq\n        /* \"#utility.yul\":4795:4858   */\n      tag_300\n      jumpi\n        /* \"#utility.yul\":4854:4855   */\n      0x00\n        /* \"#utility.yul\":4851:4852   */\n      0x00\n        /* \"#utility.yul\":4844:4856   */\n      revert\n        /* \"#utility.yul\":4795:4858   */\n    tag_300:\n        /* \"#utility.yul\":4742:4864   */\n      pop\n      jump\t// out\n        /* \"#utility.yul\":4870:5009   */\n    tag_187:\n        /* \"#utility.yul\":4916:4921   */\n      0x00\n        /* \"#utility.yul\":4954:4960   */\n      dup2\n        /* \"#utility.yul\":4941:4961   */\n      calldataload\n        /* \"#utility.yul\":4932:4961   */\n      swap1\n      pop\n        /* \"#utility.yul\":4970:5003   */\n      tag_302\n        /* \"#utility.yul\":4997:5002   */\n      dup2\n        /* \"#utility.yul\":4970:5003   */\n      tag_186\n      jump\t// in\n    tag_302:\n        /* \"#utility.yul\":4870:5009   */\n      swap3\n      swap2\n      pop\n      pop\n      jump\t// out\n        /* \"#utility.yul\":5015:5489   */\n    tag_48:\n        /* \"#utility.yul\":5083:5089   */\n      0x00\n        /* \"#utility.yul\":5091:5097   */\n      0x00\n        /* \"#utility.yul\":5140:5142   */\n      0x40\n        /* \"#utility.yul\":5128:5137   */\n      dup4\n        /* \"#utility.yul\":5119:5126   */\n      dup6\n        /* \"#utility.yul\":5115:5138   */\n      sub\n        /* \"#utility.yul\":5111:5143   */\n      slt\n        /* \"#utility.yul\":5108:5227   */\n      iszero\n      tag_304\n      jumpi\n        /* \"#utility.yul\":5146:5225   */\n      tag_305\n      tag_170\n      jump\t// in\n    tag_305:\n        /* \"#utility.yul\":5108:5227   */\n    tag_304:\n        /* \"#utility.yul\":5266:5267   */\n      0x00\n        /* \"#utility.yul\":5291:5344   */\n      tag_306\n        /* \"#utility.yul\":5336:5343   */\n      dup6\n        /* \"#utility.yul\":5327:5333   */\n      dup3\n        /* \"#utility.yul\":5316:5325   */\n      dup7\n        /* \"#utility.yul\":5312:5334   */\n      add\n        /* \"#utility.yul\":5291:5344   */\n      tag_174\n      jump\t// in\n    tag_306:\n        /* \"#utility.yul\":5281:5344   */\n      swap3\n      pop\n        /* \"#utility.yul\":5237:5354   */\n      pop\n        /* \"#utility.yul\":5393:5395   */\n      0x20\n        /* \"#utility.yul\":5419:5472   */\n      tag_307\n        /* \"#utility.yul\":5464:5471   */\n      dup6\n        /* \"#utility.yul\":5455:5461   */\n      dup3\n        /* \"#utility.yul\":5444:5453   */\n      dup7\n        /* \"#utility.yul\":5440:5462   */\n      add\n        /* \"#utility.yul\":5419:5472   */\n      tag_187\n      jump\t// in\n    tag_307:\n        /* \"#utility.yul\":5409:5472   */\n      swap2\n      pop\n        /* \"#utility.yul\":5364:5482   */\n      pop\n        /* \"#utility.yul\":5015:5489   */\n      swap3\n      pop\n      swap3\n      swap1\n      pop\n      jump\t// out\n        /* \"#utility.yul\":5495:5612   */\n    tag_188:\n        /* \"#utility.yul\":5604:5605   */\n      0x00\n        /* \"#utility.yul\":5601:5602   */\n      0x00\n        /* \"#utility.yul\":5594:5606   */\n      revert\n        /* \"#utility.yul\":5618:5735   */\n    tag_189:\n        /* \"#utility.yul\":5727:5728   */\n      0x00\n        /* \"#utility.yul\":5724:5725   */\n      0x00\n        /* \"#utility.yul\":5717:5729   */\n      revert\n        /* \"#utility.yul\":5741:5921   */\n    tag_190:\n        /* \"#utility.yul\":5789:5866   */\n      0x4e487b7100000000000000000000000000000000000000000000000000000000\n        /* \"#utility.yul\":5786:5787   */\n      0x00\n        /* \"#utility.yul\":5779:5867   */\n      mstore\n        /* \"#utility.yul\":5886:5890   */\n      0x41\n        /* \"#utility.yul\":5883:5884   */\n      0x04\n        /* \"#utility.yul\":5876:5891   */\n      mstore\n        /* \"#utility.yul\":5910:5914   */\n      0x24\n        /* \"#utility.yul\":5907:5908   */\n      0x00\n        /* \"#utility.yul\":5900:5915   */\n      revert\n        /* \"#utility.yul\":5927:6208   */\n    tag_191:\n        /* \"#utility.yul\":6010:6037   */\n      tag_312\n        /* \"#utility.yul\":6032:6036   */\n      dup3\n        /* \"#utility.yul\":6010:6037   */\n      tag_182\n      jump\t// in\n    tag_312:\n        /* \"#utility.yul\":6002:6008   */\n      dup2\n        /* \"#utility.yul\":5998:6038   */\n      add\n        /* \"#utility.yul\":6140:6146   */\n      dup2\n        /* \"#utility.yul\":6128:6138   */\n      dup2\n        /* \"#utility.yul\":6125:6147   */\n      lt\n        /* \"#utility.yul\":6104:6122   */\n      0xffffffffffffffff\n        /* \"#utility.yul\":6092:6102   */\n      dup3\n        /* \"#utility.yul\":6089:6123   */\n      gt\n        /* \"#utility.yul\":6086:6148   */\n      or\n        /* \"#utility.yul\":6083:6171   */\n      iszero\n      tag_313\n      jumpi\n        /* \"#utility.yul\":6151:6169   */\n      tag_314\n      tag_190\n      jump\t// in\n    tag_314:\n        /* \"#utility.yul\":6083:6171   */\n    tag_313:\n        /* \"#utility.yul\":6191:6201   */\n      dup1\n        /* \"#utility.yul\":6187:6189   */\n      0x40\n        /* \"#utility.yul\":6180:6202   */\n      mstore\n        /* \"#utility.yul\":5970:6208   */\n      pop\n        /* \"#utility.yul\":5927:6208   */\n      pop\n      pop\n      jump\t// out\n        /* \"#utility.yul\":6214:6343   */\n    tag_192:\n        /* \"#utility.yul\":6248:6254   */\n      0x00\n        /* \"#utility.yul\":6275:6295   */\n      tag_316\n      tag_169\n      jump\t// in\n    tag_316:\n        /* \"#utility.yul\":6265:6295   */\n      swap1\n      pop\n        /* \"#utility.yul\":6304:6337   */\n      tag_317\n        /* \"#utility.yul\":6332:6336   */\n      dup3\n        /* \"#utility.yul\":6324:6330   */\n      dup3\n        /* \"#utility.yul\":6304:6337   */\n      tag_191\n      jump\t// in\n    tag_317:\n        /* \"#utility.yul\":6214:6343   */\n      swap2\n      swap1\n      pop\n      jump\t// out\n        /* \"#utility.yul\":6349:6657   */\n    tag_193:\n        /* \"#utility.yul\":6411:6415   */\n      0x00\n        /* \"#utility.yul\":6501:6519   */\n      0xffffffffffffffff\n        /* \"#utility.yul\":6493:6499   */\n      dup3\n        /* \"#utility.yul\":6490:6520   */\n      gt\n        /* \"#utility.yul\":6487:6543   */\n      iszero\n      tag_319\n      jumpi\n        /* \"#utility.yul\":6523:6541   */\n      tag_320\n      tag_190\n      jump\t// in\n    tag_320:\n        /* \"#utility.yul\":6487:6543   */\n    tag_319:\n        /* \"#utility.yul\":6561:6590   */\n      tag_321\n        /* \"#utility.yul\":6583:6589   */\n      dup3\n        /* \"#utility.yul\":6561:6590   */\n      tag_182\n      jump\t// in\n    tag_321:\n        /* \"#utility.yul\":6553:6590   */\n      swap1\n      pop\n        /* \"#utility.yul\":6645:6649   */\n      0x20\n        /* \"#utility.yul\":6639:6643   */\n      dup2\n        /* \"#utility.yul\":6635:6650   */\n      add\n        /* \"#utility.yul\":6627:6650   */\n      swap1\n      pop\n        /* \"#utility.yul\":6349:6657   */\n      swap2\n      swap1\n      pop\n      jump\t// out\n        /* \"#utility.yul\":6663:6811   */\n    tag_194:\n        /* \"#utility.yul\":6761:6767   */\n      dup3\n        /* \"#utility.yul\":6756:6759   */\n      dup2\n        /* \"#utility.yul\":6751:6754   */\n      dup4\n        /* \"#utility.yul\":6738:6768   */\n      calldatacopy\n        /* \"#utility.yul\":6802:6803   */\n      0x00\n        /* \"#utility.yul\":6793:6799   */\n      dup4\n        /* \"#utility.yul\":6788:6791   */\n      dup4\n        /* \"#utility.yul\":6784:6800   */\n      add\n        /* \"#utility.yul\":6777:6804   */\n      mstore\n        /* \"#utility.yul\":6663:6811   */\n      pop\n      pop\n      pop\n      jump\t// out\n        /* \"#utility.yul\":6817:7242   */\n    tag_195:\n        /* \"#utility.yul\":6895:6900   */\n      0x00\n        /* \"#utility.yul\":6920:6986   */\n      tag_324\n        /* \"#utility.yul\":6936:6985   */\n      tag_325\n        /* \"#utility.yul\":6978:6984   */\n      dup5\n        /* \"#utility.yul\":6936:6985   */\n      tag_193\n      jump\t// in\n    tag_325:\n        /* \"#utility.yul\":6920:6986   */\n      tag_192\n      jump\t// in\n    tag_324:\n        /* \"#utility.yul\":6911:6986   */\n      swap1\n      pop\n        /* \"#utility.yul\":7009:7015   */\n      dup3\n        /* \"#utility.yul\":7002:7007   */\n      dup2\n        /* \"#utility.yul\":6995:7016   */\n      mstore\n        /* \"#utility.yul\":7047:7051   */\n      0x20\n        /* \"#utility.yul\":7040:7045   */\n      dup2\n        /* \"#utility.yul\":7036:7052   */\n      add\n        /* \"#utility.yul\":7085:7088   */\n      dup5\n        /* \"#utility.yul\":7076:7082   */\n      dup5\n        /* \"#utility.yul\":7071:7074   */\n      dup5\n        /* \"#utility.yul\":7067:7083   */\n      add\n        /* \"#utility.yul\":7064:7089   */\n      gt\n        /* \"#utility.yul\":7061:7173   */\n      iszero\n      tag_326\n      jumpi\n        /* \"#utility.yul\":7092:7171   */\n      tag_327\n      tag_189\n      jump\t// in\n    tag_327:\n        /* \"#utility.yul\":7061:7173   */\n    tag_326:\n        /* \"#utility.yul\":7182:7236   */\n      tag_328\n        /* \"#utility.yul\":7229:7235   */\n      dup5\n        /* \"#utility.yul\":7224:7227   */\n      dup3\n        /* \"#utility.yul\":7219:7222   */\n      dup6\n        /* \"#utility.yul\":7182:7236   */\n      tag_194\n      jump\t// in\n    tag_328:\n        /* \"#utility.yul\":6901:7242   */\n      pop\n        /* \"#utility.yul\":6817:7242   */\n      swap4\n      swap3\n      pop\n      pop\n      pop\n      jump\t// out\n        /* \"#utility.yul\":7262:7602   */\n    tag_196:\n        /* \"#utility.yul\":7318:7323   */\n      0x00\n        /* \"#utility.yul\":7367:7370   */\n      dup3\n        /* \"#utility.yul\":7360:7364   */\n      0x1f\n        /* \"#utility.yul\":7352:7358   */\n      dup4\n        /* \"#utility.yul\":7348:7365   */\n      add\n        /* \"#utility.yul\":7344:7371   */\n      slt\n        /* \"#utility.yul\":7334:7456   */\n      tag_330\n      jumpi\n        /* \"#utility.yul\":7375:7454   */\n      tag_331\n      tag_188\n      jump\t// in\n    tag_331:\n        /* \"#utility.yul\":7334:7456   */\n    tag_330:\n        /* \"#utility.yul\":7492:7498   */\n      dup2\n        /* \"#utility.yul\":7479:7499   */\n      calldataload\n        /* \"#utility.yul\":7517:7596   */\n      tag_332\n        /* \"#utility.yul\":7592:7595   */\n      dup5\n        /* \"#utility.yul\":7584:7590   */\n      dup3\n        /* \"#utility.yul\":7577:7581   */\n      0x20\n        /* \"#utility.yul\":7569:7575   */\n      dup7\n        /* \"#utility.yul\":7565:7582   */\n      add\n        /* \"#utility.yul\":7517:7596   */\n      tag_195\n      jump\t// in\n    tag_332:\n        /* \"#utility.yul\":7508:7596   */\n      swap2\n      pop\n        /* \"#utility.yul\":7324:7602   */\n      pop\n        /* \"#utility.yul\":7262:7602   */\n      swap3\n      swap2\n      pop\n      pop\n      jump\t// out\n        /* \"#utility.yul\":7608:8879   */\n    tag_64:\n        /* \"#utility.yul\":7723:7729   */\n      0x00\n        /* \"#utility.yul\":7731:7737   */\n      0x00\n        /* \"#utility.yul\":7739:7745   */\n      0x00\n        /* \"#utility.yul\":7747:7753   */\n      0x00\n        /* \"#utility.yul\":7755:7761   */\n      0x00\n        /* \"#utility.yul\":7804:7807   */\n      0xa0\n        /* \"#utility.yul\":7792:7801   */\n      dup7\n        /* \"#utility.yul\":7783:7790   */\n      dup9\n        /* \"#utility.yul\":7779:7802   */\n      sub\n        /* \"#utility.yul\":7775:7808   */\n      slt\n        /* \"#utility.yul\":7772:7892   */\n      iszero\n      tag_334\n      jumpi\n        /* \"#utility.yul\":7811:7890   */\n      tag_335\n      tag_170\n      jump\t// in\n    tag_335:\n        /* \"#utility.yul\":7772:7892   */\n    tag_334:\n        /* \"#utility.yul\":7959:7960   */\n      0x00\n        /* \"#utility.yul\":7948:7957   */\n      dup7\n        /* \"#utility.yul\":7944:7961   */\n      add\n        /* \"#utility.yul\":7931:7962   */\n      calldataload\n        /* \"#utility.yul\":7989:8007   */\n      0xffffffffffffffff\n        /* \"#utility.yul\":7981:7987   */\n      dup2\n        /* \"#utility.yul\":7978:8008   */\n      gt\n        /* \"#utility.yul\":7975:8092   */\n      iszero\n      tag_336\n      jumpi\n        /* \"#utility.yul\":8011:8090   */\n      tag_337\n      tag_171\n      jump\t// in\n    tag_337:\n        /* \"#utility.yul\":7975:8092   */\n    tag_336:\n        /* \"#utility.yul\":8116:8179   */\n      tag_338\n        /* \"#utility.yul\":8171:8178   */\n      dup9\n        /* \"#utility.yul\":8162:8168   */\n      dup3\n        /* \"#utility.yul\":8151:8160   */\n      dup10\n        /* \"#utility.yul\":8147:8169   */\n      add\n        /* \"#utility.yul\":8116:8179   */\n      tag_196\n      jump\t// in\n    tag_338:\n        /* \"#utility.yul\":8106:8179   */\n      swap6\n      pop\n        /* \"#utility.yul\":7902:8189   */\n      pop\n        /* \"#utility.yul\":8256:8258   */\n      0x20\n        /* \"#utility.yul\":8245:8254   */\n      dup7\n        /* \"#utility.yul\":8241:8259   */\n      add\n        /* \"#utility.yul\":8228:8260   */\n      calldataload\n        /* \"#utility.yul\":8287:8305   */\n      0xffffffffffffffff\n        /* \"#utility.yul\":8279:8285   */\n      dup2\n        /* \"#utility.yul\":8276:8306   */\n      gt\n        /* \"#utility.yul\":8273:8390   */\n      iszero\n      tag_339\n      jumpi\n        /* \"#utility.yul\":8309:8388   */\n      tag_340\n      tag_171\n      jump\t// in\n    tag_340:\n        /* \"#utility.yul\":8273:8390   */\n    tag_339:\n        /* \"#utility.yul\":8414:8477   */\n      tag_341\n        /* \"#utility.yul\":8469:8476   */\n      dup9\n        /* \"#utility.yul\":8460:8466   */\n      dup3\n        /* \"#utility.yul\":8449:8458   */\n      dup10\n        /* \"#utility.yul\":8445:8467   */\n      add\n        /* \"#utility.yul\":8414:8477   */\n      tag_196\n      jump\t// in\n    tag_341:\n        /* \"#utility.yul\":8404:8477   */\n      swap5\n      pop\n        /* \"#utility.yul\":8199:8487   */\n      pop\n        /* \"#utility.yul\":8526:8528   */\n      0x40\n        /* \"#utility.yul\":8552:8605   */\n      tag_342\n        /* \"#utility.yul\":8597:8604   */\n      dup9\n        /* \"#utility.yul\":8588:8594   */\n      dup3\n        /* \"#utility.yul\":8577:8586   */\n      dup10\n        /* \"#utility.yul\":8573:8595   */\n      add\n        /* \"#utility.yul\":8552:8605   */\n      tag_174\n      jump\t// in\n    tag_342:\n        /* \"#utility.yul\":8542:8605   */\n      swap4\n      pop\n        /* \"#utility.yul\":8497:8615   */\n      pop\n        /* \"#utility.yul\":8654:8656   */\n      0x60\n        /* \"#utility.yul\":8680:8733   */\n      tag_343\n        /* \"#utility.yul\":8725:8732   */\n      dup9\n        /* \"#utility.yul\":8716:8722   */\n      dup3\n        /* \"#utility.yul\":8705:8714   */\n      dup10\n        /* \"#utility.yul\":8701:8723   */\n      add\n        /* \"#utility.yul\":8680:8733   */\n      tag_174\n      jump\t// in\n    tag_343:\n        /* \"#utility.yul\":8670:8733   */\n      swap3\n      pop\n        /* \"#utility.yul\":8625:8743   */\n      pop\n        /* \"#utility.yul\":8782:8785   */\n      0x80\n        /* \"#utility.yul\":8809:8862   */\n      tag_344\n        /* \"#utility.yul\":8854:8861   */\n      dup9\n        /* \"#utility.yul\":8845:8851   */\n      dup3\n        /* \"#utility.yul\":8834:8843   */\n      dup10\n        /* \"#utility.yul\":8830:8852   */\n      add\n        /* \"#utility.yul\":8809:8862   */\n      tag_174\n      jump\t// in\n    tag_344:\n        /* \"#utility.yul\":8799:8862   */\n      swap2\n      pop\n        /* \"#utility.yul\":8753:8872   */\n      pop\n        /* \"#utility.yul\":7608:8879   */\n      swap3\n      swap6\n      pop\n      swap3\n      swap6\n      swap1\n      swap4\n      pop\n      jump\t// out\n        /* \"#utility.yul\":8885:9105   */\n    tag_197:\n        /* \"#utility.yul\":9025:9059   */\n      0x70726f6a65637420686173206e6f74206265656e206372656174656420796574\n        /* \"#utility.yul\":9021:9022   */\n      0x00\n        /* \"#utility.yul\":9013:9019   */\n      dup3\n        /* \"#utility.yul\":9009:9023   */\n      add\n        /* \"#utility.yul\":9002:9060   */\n      mstore\n        /* \"#utility.yul\":9094:9097   */\n      0x2100000000000000000000000000000000000000000000000000000000000000\n        /* \"#utility.yul\":9089:9091   */\n      0x20\n        /* \"#utility.yul\":9081:9087   */\n      dup3\n        /* \"#utility.yul\":9077:9092   */\n      add\n        /* \"#utility.yul\":9070:9098   */\n      mstore\n        /* \"#utility.yul\":8885:9105   */\n      pop\n      jump\t// out\n        /* \"#utility.yul\":9111:9477   */\n    tag_198:\n        /* \"#utility.yul\":9253:9256   */\n      0x00\n        /* \"#utility.yul\":9274:9341   */\n      tag_347\n        /* \"#utility.yul\":9338:9340   */\n      0x21\n        /* \"#utility.yul\":9333:9336   */\n      dup4\n        /* \"#utility.yul\":9274:9341   */\n      tag_180\n      jump\t// in\n    tag_347:\n        /* \"#utility.yul\":9267:9341   */\n      swap2\n      pop\n        /* \"#utility.yul\":9350:9443   */\n      tag_348\n        /* \"#utility.yul\":9439:9442   */\n      dup3\n        /* \"#utility.yul\":9350:9443   */\n      tag_197\n      jump\t// in\n    tag_348:\n        /* \"#utility.yul\":9468:9470   */\n      0x40\n        /* \"#utility.yul\":9463:9466   */\n      dup3\n        /* \"#utility.yul\":9459:9471   */\n      add\n        /* \"#utility.yul\":9452:9471   */\n      swap1\n      pop\n        /* \"#utility.yul\":9111:9477   */\n      swap2\n      swap1\n      pop\n      jump\t// out\n        /* \"#utility.yul\":9483:9902   */\n    tag_69:\n        /* \"#utility.yul\":9649:9653   */\n      0x00\n        /* \"#utility.yul\":9687:9689   */\n      0x20\n        /* \"#utility.yul\":9676:9685   */\n      dup3\n        /* \"#utility.yul\":9672:9690   */\n      add\n        /* \"#utility.yul\":9664:9690   */\n      swap1\n      pop\n        /* \"#utility.yul\":9736:9745   */\n      dup2\n        /* \"#utility.yul\":9730:9734   */\n      dup2\n        /* \"#utility.yul\":9726:9746   */\n      sub\n        /* \"#utility.yul\":9722:9723   */\n      0x00\n        /* \"#utility.yul\":9711:9720   */\n      dup4\n        /* \"#utility.yul\":9707:9724   */\n      add\n        /* \"#utility.yul\":9700:9747   */\n      mstore\n        /* \"#utility.yul\":9764:9895   */\n      tag_350\n        /* \"#utility.yul\":9890:9894   */\n      dup2\n        /* \"#utility.yul\":9764:9895   */\n      tag_198\n      jump\t// in\n    tag_350:\n        /* \"#utility.yul\":9756:9895   */\n      swap1\n      pop\n        /* \"#utility.yul\":9483:9902   */\n      swap2\n      swap1\n      pop\n      jump\t// out\n        /* \"#utility.yul\":9908:10088   */\n    tag_199:\n        /* \"#utility.yul\":9956:10033   */\n      0x4e487b7100000000000000000000000000000000000000000000000000000000\n        /* \"#utility.yul\":9953:9954   */\n      0x00\n        /* \"#utility.yul\":9946:10034   */\n      mstore\n        /* \"#utility.yul\":10053:10057   */\n      0x11\n        /* \"#utility.yul\":10050:10051   */\n      0x04\n        /* \"#utility.yul\":10043:10058   */\n      mstore\n        /* \"#utility.yul\":10077:10081   */\n      0x24\n        /* \"#utility.yul\":10074:10075   */\n      0x00\n        /* \"#utility.yul\":10067:10082   */\n      revert\n        /* \"#utility.yul\":10094:10288   */\n    tag_73:\n        /* \"#utility.yul\":10134:10138   */\n      0x00\n        /* \"#utility.yul\":10154:10174   */\n      tag_353\n        /* \"#utility.yul\":10172:10173   */\n      dup3\n        /* \"#utility.yul\":10154:10174   */\n      tag_172\n      jump\t// in\n    tag_353:\n        /* \"#utility.yul\":10149:10174   */\n      swap2\n      pop\n        /* \"#utility.yul\":10188:10208   */\n      tag_354\n        /* \"#utility.yul\":10206:10207   */\n      dup4\n        /* \"#utility.yul\":10188:10208   */\n      tag_172\n      jump\t// in\n    tag_354:\n        /* \"#utility.yul\":10183:10208   */\n      swap3\n      pop\n        /* \"#utility.yul\":10232:10233   */\n      dup3\n        /* \"#utility.yul\":10229:10230   */\n      dup3\n        /* \"#utility.yul\":10225:10234   */\n      sub\n        /* \"#utility.yul\":10217:10234   */\n      swap1\n      pop\n        /* \"#utility.yul\":10256:10257   */\n      dup2\n        /* \"#utility.yul\":10250:10254   */\n      dup2\n        /* \"#utility.yul\":10247:10258   */\n      gt\n        /* \"#utility.yul\":10244:10281   */\n      iszero\n      tag_355\n      jumpi\n        /* \"#utility.yul\":10261:10279   */\n      tag_356\n      tag_199\n      jump\t// in\n    tag_356:\n        /* \"#utility.yul\":10244:10281   */\n    tag_355:\n        /* \"#utility.yul\":10094:10288   */\n      swap3\n      swap2\n      pop\n      pop\n      jump\t// out\n        /* \"#utility.yul\":10294:10536   */\n    tag_200:\n        /* \"#utility.yul\":10434:10468   */\n      0x446561646c696e65206973206f766572202c20796f752043616e277420636861\n        /* \"#utility.yul\":10430:10431   */\n      0x00\n        /* \"#utility.yul\":10422:10428   */\n      dup3\n        /* \"#utility.yul\":10418:10432   */\n      add\n        /* \"#utility.yul\":10411:10469   */\n      mstore\n        /* \"#utility.yul\":10503:10528   */\n      0x6e6765207468652066756e64696e6720676f616c202121000000000000000000\n        /* \"#utility.yul\":10498:10500   */\n      0x20\n        /* \"#utility.yul\":10490:10496   */\n      dup3\n        /* \"#utility.yul\":10486:10501   */\n      add\n        /* \"#utility.yul\":10479:10529   */\n      mstore\n        /* \"#utility.yul\":10294:10536   */\n      pop\n      jump\t// out\n        /* \"#utility.yul\":10542:10908   */\n    tag_201:\n        /* \"#utility.yul\":10684:10687   */\n      0x00\n        /* \"#utility.yul\":10705:10772   */\n      tag_359\n        /* \"#utility.yul\":10769:10771   */\n      0x37\n        /* \"#utility.yul\":10764:10767   */\n      dup4\n        /* \"#utility.yul\":10705:10772   */\n      tag_180\n      jump\t// in\n    tag_359:\n        /* \"#utility.yul\":10698:10772   */\n      swap2\n      pop\n        /* \"#utility.yul\":10781:10874   */\n      tag_360\n        /* \"#utility.yul\":10870:10873   */\n      dup3\n        /* \"#utility.yul\":10781:10874   */\n      tag_200\n      jump\t// in\n    tag_360:\n        /* \"#utility.yul\":10899:10901   */\n      0x40\n        /* \"#utility.yul\":10894:10897   */\n      dup3\n        /* \"#utility.yul\":10890:10902   */\n      add\n        /* \"#utility.yul\":10883:10902   */\n      swap1\n      pop\n        /* \"#utility.yul\":10542:10908   */\n      swap2\n      swap1\n      pop\n      jump\t// out\n        /* \"#utility.yul\":10914:11333   */\n    tag_77:\n        /* \"#utility.yul\":11080:11084   */\n      0x00\n        /* \"#utility.yul\":11118:11120   */\n      0x20\n        /* \"#utility.yul\":11107:11116   */\n      dup3\n        /* \"#utility.yul\":11103:11121   */\n      add\n        /* \"#utility.yul\":11095:11121   */\n      swap1\n      pop\n        /* \"#utility.yul\":11167:11176   */\n      dup2\n        /* \"#utility.yul\":11161:11165   */\n      dup2\n        /* \"#utility.yul\":11157:11177   */\n      sub\n        /* \"#utility.yul\":11153:11154   */\n      0x00\n        /* \"#utility.yul\":11142:11151   */\n      dup4\n        /* \"#utility.yul\":11138:11155   */\n      add\n        /* \"#utility.yul\":11131:11178   */\n      mstore\n        /* \"#utility.yul\":11195:11326   */\n      tag_362\n        /* \"#utility.yul\":11321:11325   */\n      dup2\n        /* \"#utility.yul\":11195:11326   */\n      tag_201\n      jump\t// in\n    tag_362:\n        /* \"#utility.yul\":11187:11326   */\n      swap1\n      pop\n        /* \"#utility.yul\":10914:11333   */\n      swap2\n      swap1\n      pop\n      jump\t// out\n        /* \"#utility.yul\":11339:11631   */\n    tag_202:\n        /* \"#utility.yul\":11479:11513   */\n      0x596f7520617265206e6f74207468652070726f6a6563742063726561746f7220\n        /* \"#utility.yul\":11475:11476   */\n      0x00\n        /* \"#utility.yul\":11467:11473   */\n      dup3\n        /* \"#utility.yul\":11463:11477   */\n      add\n        /* \"#utility.yul\":11456:11514   */\n      mstore\n        /* \"#utility.yul\":11548:11582   */\n      0x2c204f6e6c7920506f726a6563742063726561746f722063616e204368616e67\n        /* \"#utility.yul\":11543:11545   */\n      0x20\n        /* \"#utility.yul\":11535:11541   */\n      dup3\n        /* \"#utility.yul\":11531:11546   */\n      add\n        /* \"#utility.yul\":11524:11583   */\n      mstore\n        /* \"#utility.yul\":11617:11623   */\n      0x6520212100000000000000000000000000000000000000000000000000000000\n        /* \"#utility.yul\":11612:11614   */\n      0x40\n        /* \"#utility.yul\":11604:11610   */\n      dup3\n        /* \"#utility.yul\":11600:11615   */\n      add\n        /* \"#utility.yul\":11593:11624   */\n      mstore\n        /* \"#utility.yul\":11339:11631   */\n      pop\n      jump\t// out\n        /* \"#utility.yul\":11637:12003   */\n    tag_203:\n        /* \"#utility.yul\":11779:11782   */\n      0x00\n        /* \"#utility.yul\":11800:11867   */\n      tag_365\n        /* \"#utility.yul\":11864:11866   */\n      0x44\n        /* \"#utility.yul\":11859:11862   */\n      dup4\n        /* \"#utility.yul\":11800:11867   */\n      tag_180\n      jump\t// in\n    tag_365:\n        /* \"#utility.yul\":11793:11867   */\n      swap2\n      pop\n        /* \"#utility.yul\":11876:11969   */\n      tag_366\n        /* \"#utility.yul\":11965:11968   */\n      dup3\n        /* \"#utility.yul\":11876:11969   */\n      tag_202\n      jump\t// in\n    tag_366:\n        /* \"#utility.yul\":11994:11996   */\n      0x60\n        /* \"#utility.yul\":11989:11992   */\n      dup3\n        /* \"#utility.yul\":11985:11997   */\n      add\n        /* \"#utility.yul\":11978:11997   */\n      swap1\n      pop\n        /* \"#utility.yul\":11637:12003   */\n      swap2\n      swap1\n      pop\n      jump\t// out\n        /* \"#utility.yul\":12009:12428   */\n    tag_80:\n        /* \"#utility.yul\":12175:12179   */\n      0x00\n        /* \"#utility.yul\":12213:12215   */\n      0x20\n        /* \"#utility.yul\":12202:12211   */\n      dup3\n        /* \"#utility.yul\":12198:12216   */\n      add\n        /* \"#utility.yul\":12190:12216   */\n      swap1\n      pop\n        /* \"#utility.yul\":12262:12271   */\n      dup2\n        /* \"#utility.yul\":12256:12260   */\n      dup2\n        /* \"#utility.yul\":12252:12272   */\n      sub\n        /* \"#utility.yul\":12248:12249   */\n      0x00\n        /* \"#utility.yul\":12237:12246   */\n      dup4\n        /* \"#utility.yul\":12233:12250   */\n      add\n        /* \"#utility.yul\":12226:12273   */\n      mstore\n        /* \"#utility.yul\":12290:12421   */\n      tag_368\n        /* \"#utility.yul\":12416:12420   */\n      dup2\n        /* \"#utility.yul\":12290:12421   */\n      tag_203\n      jump\t// in\n    tag_368:\n        /* \"#utility.yul\":12282:12421   */\n      swap1\n      pop\n        /* \"#utility.yul\":12009:12428   */\n      swap2\n      swap1\n      pop\n      jump\t// out\n        /* \"#utility.yul\":12434:12614   */\n    tag_204:\n        /* \"#utility.yul\":12482:12559   */\n      0x4e487b7100000000000000000000000000000000000000000000000000000000\n        /* \"#utility.yul\":12479:12480   */\n      0x00\n        /* \"#utility.yul\":12472:12560   */\n      mstore\n        /* \"#utility.yul\":12579:12583   */\n      0x22\n        /* \"#utility.yul\":12576:12577   */\n      0x04\n        /* \"#utility.yul\":12569:12584   */\n      mstore\n        /* \"#utility.yul\":12603:12607   */\n      0x24\n        /* \"#utility.yul\":12600:12601   */\n      0x00\n        /* \"#utility.yul\":12593:12608   */\n      revert\n        /* \"#utility.yul\":12620:12940   */\n    tag_82:\n        /* \"#utility.yul\":12664:12670   */\n      0x00\n        /* \"#utility.yul\":12701:12702   */\n      0x02\n        /* \"#utility.yul\":12695:12699   */\n      dup3\n        /* \"#utility.yul\":12691:12703   */\n      div\n        /* \"#utility.yul\":12681:12703   */\n      swap1\n      pop\n        /* \"#utility.yul\":12748:12749   */\n      0x01\n        /* \"#utility.yul\":12742:12746   */\n      dup3\n        /* \"#utility.yul\":12738:12750   */\n      and\n        /* \"#utility.yul\":12769:12787   */\n      dup1\n        /* \"#utility.yul\":12759:12840   */\n      tag_371\n      jumpi\n        /* \"#utility.yul\":12825:12829   */\n      0x7f\n        /* \"#utility.yul\":12817:12823   */\n      dup3\n        /* \"#utility.yul\":12813:12830   */\n      and\n        /* \"#utility.yul\":12803:12830   */\n      swap2\n      pop\n        /* \"#utility.yul\":12759:12840   */\n    tag_371:\n        /* \"#utility.yul\":12887:12889   */\n      0x20\n        /* \"#utility.yul\":12879:12885   */\n      dup3\n        /* \"#utility.yul\":12876:12890   */\n      lt\n        /* \"#utility.yul\":12856:12874   */\n      dup2\n        /* \"#utility.yul\":12853:12891   */\n      sub\n        /* \"#utility.yul\":12850:12934   */\n      tag_372\n      jumpi\n        /* \"#utility.yul\":12906:12924   */\n      tag_373\n      tag_204\n      jump\t// in\n    tag_373:\n        /* \"#utility.yul\":12850:12934   */\n    tag_372:\n        /* \"#utility.yul\":12671:12940   */\n      pop\n        /* \"#utility.yul\":12620:12940   */\n      swap2\n      swap1\n      pop\n      jump\t// out\n        /* \"#utility.yul\":12946:13179   */\n    tag_205:\n        /* \"#utility.yul\":13086:13120   */\n      0x46756e64696e6720676f616c206861732072656163686564202c207573657220\n        /* \"#utility.yul\":13082:13083   */\n      0x00\n        /* \"#utility.yul\":13074:13080   */\n      dup3\n        /* \"#utility.yul\":13070:13084   */\n      add\n        /* \"#utility.yul\":13063:13121   */\n      mstore\n        /* \"#utility.yul\":13155:13171   */\n      0x63616e2774207769746864726177000000000000000000000000000000000000\n        /* \"#utility.yul\":13150:13152   */\n      0x20\n        /* \"#utility.yul\":13142:13148   */\n      dup3\n        /* \"#utility.yul\":13138:13153   */\n      add\n        /* \"#utility.yul\":13131:13172   */\n      mstore\n        /* \"#utility.yul\":12946:13179   */\n      pop\n      jump\t// out\n        /* \"#utility.yul\":13185:13551   */\n    tag_206:\n        /* \"#utility.yul\":13327:13330   */\n      0x00\n        /* \"#utility.yul\":13348:13415   */\n      tag_376\n        /* \"#utility.yul\":13412:13414   */\n      0x2e\n        /* \"#utility.yul\":13407:13410   */\n      dup4\n        /* \"#utility.yul\":13348:13415   */\n      tag_180\n      jump\t// in\n    tag_376:\n        /* \"#utility.yul\":13341:13415   */\n      swap2\n      pop\n        /* \"#utility.yul\":13424:13517   */\n      tag_377\n        /* \"#utility.yul\":13513:13516   */\n      dup3\n        /* \"#utility.yul\":13424:13517   */\n      tag_205\n      jump\t// in\n    tag_377:\n        /* \"#utility.yul\":13542:13544   */\n      0x40\n        /* \"#utility.yul\":13537:13540   */\n      dup3\n        /* \"#utility.yul\":13533:13545   */\n      add\n        /* \"#utility.yul\":13526:13545   */\n      swap1\n      pop\n        /* \"#utility.yul\":13185:13551   */\n      swap2\n      swap1\n      pop\n      jump\t// out\n        /* \"#utility.yul\":13557:13976   */\n    tag_99:\n        /* \"#utility.yul\":13723:13727   */\n      0x00\n        /* \"#utility.yul\":13761:13763   */\n      0x20\n        /* \"#utility.yul\":13750:13759   */\n      dup3\n        /* \"#utility.yul\":13746:13764   */\n      add\n        /* \"#utility.yul\":13738:13764   */\n      swap1\n      pop\n        /* \"#utility.yul\":13810:13819   */\n      dup2\n        /* \"#utility.yul\":13804:13808   */\n      dup2\n        /* \"#utility.yul\":13800:13820   */\n      sub\n        /* \"#utility.yul\":13796:13797   */\n      0x00\n        /* \"#utility.yul\":13785:13794   */\n      dup4\n        /* \"#utility.yul\":13781:13798   */\n      add\n        /* \"#utility.yul\":13774:13821   */\n      mstore\n        /* \"#utility.yul\":13838:13969   */\n      tag_379\n        /* \"#utility.yul\":13964:13968   */\n      dup2\n        /* \"#utility.yul\":13838:13969   */\n      tag_206\n      jump\t// in\n    tag_379:\n        /* \"#utility.yul\":13830:13969   */\n      swap1\n      pop\n        /* \"#utility.yul\":13557:13976   */\n      swap2\n      swap1\n      pop\n      jump\t// out\n        /* \"#utility.yul\":13982:14314   */\n    tag_103:\n        /* \"#utility.yul\":14103:14107   */\n      0x00\n        /* \"#utility.yul\":14141:14143   */\n      0x40\n        /* \"#utility.yul\":14130:14139   */\n      dup3\n        /* \"#utility.yul\":14126:14144   */\n      add\n        /* \"#utility.yul\":14118:14144   */\n      swap1\n      pop\n        /* \"#utility.yul\":14154:14225   */\n      tag_381\n        /* \"#utility.yul\":14222:14223   */\n      0x00\n        /* \"#utility.yul\":14211:14220   */\n      dup4\n        /* \"#utility.yul\":14207:14224   */\n      add\n        /* \"#utility.yul\":14198:14204   */\n      dup6\n        /* \"#utility.yul\":14154:14225   */\n      tag_178\n      jump\t// in\n    tag_381:\n        /* \"#utility.yul\":14235:14307   */\n      tag_382\n        /* \"#utility.yul\":14303:14305   */\n      0x20\n        /* \"#utility.yul\":14292:14301   */\n      dup4\n        /* \"#utility.yul\":14288:14306   */\n      add\n        /* \"#utility.yul\":14279:14285   */\n      dup5\n        /* \"#utility.yul\":14235:14307   */\n      tag_175\n      jump\t// in\n    tag_382:\n        /* \"#utility.yul\":13982:14314   */\n      swap4\n      swap3\n      pop\n      pop\n      pop\n      jump\t// out\n        /* \"#utility.yul\":14320:14553   */\n    tag_207:\n        /* \"#utility.yul\":14460:14494   */\n      0x4f6e6c792050726f6a6563742063726561746f722063616e20657874656e6420\n        /* \"#utility.yul\":14456:14457   */\n      0x00\n        /* \"#utility.yul\":14448:14454   */\n      dup3\n        /* \"#utility.yul\":14444:14458   */\n      add\n        /* \"#utility.yul\":14437:14495   */\n      mstore\n        /* \"#utility.yul\":14529:14545   */\n      0x74686520646561646c696e652121000000000000000000000000000000000000\n        /* \"#utility.yul\":14524:14526   */\n      0x20\n        /* \"#utility.yul\":14516:14522   */\n      dup3\n        /* \"#utility.yul\":14512:14527   */\n      add\n        /* \"#utility.yul\":14505:14546   */\n      mstore\n        /* \"#utility.yul\":14320:14553   */\n      pop\n      jump\t// out\n        /* \"#utility.yul\":14559:14925   */\n    tag_208:\n        /* \"#utility.yul\":14701:14704   */\n      0x00\n        /* \"#utility.yul\":14722:14789   */\n      tag_385\n        /* \"#utility.yul\":14786:14788   */\n      0x2e\n        /* \"#utility.yul\":14781:14784   */\n      dup4\n        /* \"#utility.yul\":14722:14789   */\n      tag_180\n      jump\t// in\n    tag_385:\n        /* \"#utility.yul\":14715:14789   */\n      swap2\n      pop\n        /* \"#utility.yul\":14798:14891   */\n      tag_386\n        /* \"#utility.yul\":14887:14890   */\n      dup3\n        /* \"#utility.yul\":14798:14891   */\n      tag_207\n      jump\t// in\n    tag_386:\n        /* \"#utility.yul\":14916:14918   */\n      0x40\n        /* \"#utility.yul\":14911:14914   */\n      dup3\n        /* \"#utility.yul\":14907:14919   */\n      add\n        /* \"#utility.yul\":14900:14919   */\n      swap1\n      pop\n        /* \"#utility.yul\":14559:14925   */\n      swap2\n      swap1\n      pop\n      jump\t// out\n        /* \"#utility.yul\":14931:15350   */\n    tag_108:\n        /* \"#utility.yul\":15097:15101   */\n      0x00\n        /* \"#utility.yul\":15135:15137   */\n      0x20\n        /* \"#utility.yul\":15124:15133   */\n      dup3\n        /* \"#utility.yul\":15120:15138   */\n      add\n        /* \"#utility.yul\":15112:15138   */\n      swap1\n      pop\n        /* \"#utility.yul\":15184:15193   */\n      dup2\n        /* \"#utility.yul\":15178:15182   */\n      dup2\n        /* \"#utility.yul\":15174:15194   */\n      sub\n        /* \"#utility.yul\":15170:15171   */\n      0x00\n        /* \"#utility.yul\":15159:15168   */\n      dup4\n        /* \"#utility.yul\":15155:15172   */\n      add\n        /* \"#utility.yul\":15148:15195   */\n      mstore\n        /* \"#utility.yul\":15212:15343   */\n      tag_388\n        /* \"#utility.yul\":15338:15342   */\n      dup2\n        /* \"#utility.yul\":15212:15343   */\n      tag_208\n      jump\t// in\n    tag_388:\n        /* \"#utility.yul\":15204:15343   */\n      swap1\n      pop\n        /* \"#utility.yul\":14931:15350   */\n      swap2\n      swap1\n      pop\n      jump\t// out\n        /* \"#utility.yul\":15356:15547   */\n    tag_110:\n        /* \"#utility.yul\":15396:15399   */\n      0x00\n        /* \"#utility.yul\":15415:15435   */\n      tag_390\n        /* \"#utility.yul\":15433:15434   */\n      dup3\n        /* \"#utility.yul\":15415:15435   */\n      tag_172\n      jump\t// in\n    tag_390:\n        /* \"#utility.yul\":15410:15435   */\n      swap2\n      pop\n        /* \"#utility.yul\":15449:15469   */\n      tag_391\n        /* \"#utility.yul\":15467:15468   */\n      dup4\n        /* \"#utility.yul\":15449:15469   */\n      tag_172\n      jump\t// in\n    tag_391:\n        /* \"#utility.yul\":15444:15469   */\n      swap3\n      pop\n        /* \"#utility.yul\":15492:15493   */\n      dup3\n        /* \"#utility.yul\":15489:15490   */\n      dup3\n        /* \"#utility.yul\":15485:15494   */\n      add\n        /* \"#utility.yul\":15478:15494   */\n      swap1\n      pop\n        /* \"#utility.yul\":15513:15516   */\n      dup1\n        /* \"#utility.yul\":15510:15511   */\n      dup3\n        /* \"#utility.yul\":15507:15517   */\n      gt\n        /* \"#utility.yul\":15504:15540   */\n      iszero\n      tag_392\n      jumpi\n        /* \"#utility.yul\":15520:15538   */\n      tag_393\n      tag_199\n      jump\t// in\n    tag_393:\n        /* \"#utility.yul\":15504:15540   */\n    tag_392:\n        /* \"#utility.yul\":15356:15547   */\n      swap3\n      swap2\n      pop\n      pop\n      jump\t// out\n        /* \"#utility.yul\":15553:15728   */\n    tag_209:\n        /* \"#utility.yul\":15693:15720   */\n      0x50726f6a65637420646561646c696e65206973206f7665722100000000000000\n        /* \"#utility.yul\":15689:15690   */\n      0x00\n        /* \"#utility.yul\":15681:15687   */\n      dup3\n        /* \"#utility.yul\":15677:15691   */\n      add\n        /* \"#utility.yul\":15670:15721   */\n      mstore\n        /* \"#utility.yul\":15553:15728   */\n      pop\n      jump\t// out\n        /* \"#utility.yul\":15734:16100   */\n    tag_210:\n        /* \"#utility.yul\":15876:15879   */\n      0x00\n        /* \"#utility.yul\":15897:15964   */\n      tag_396\n        /* \"#utility.yul\":15961:15963   */\n      0x19\n        /* \"#utility.yul\":15956:15959   */\n      dup4\n        /* \"#utility.yul\":15897:15964   */\n      tag_180\n      jump\t// in\n    tag_396:\n        /* \"#utility.yul\":15890:15964   */\n      swap2\n      pop\n        /* \"#utility.yul\":15973:16066   */\n      tag_397\n        /* \"#utility.yul\":16062:16065   */\n      dup3\n        /* \"#utility.yul\":15973:16066   */\n      tag_209\n      jump\t// in\n    tag_397:\n        /* \"#utility.yul\":16091:16093   */\n      0x20\n        /* \"#utility.yul\":16086:16089   */\n      dup3\n        /* \"#utility.yul\":16082:16094   */\n      add\n        /* \"#utility.yul\":16075:16094   */\n      swap1\n      pop\n        /* \"#utility.yul\":15734:16100   */\n      swap2\n      swap1\n      pop\n      jump\t// out\n        /* \"#utility.yul\":16106:16525   */\n    tag_114:\n        /* \"#utility.yul\":16272:16276   */\n      0x00\n        /* \"#utility.yul\":16310:16312   */\n      0x20\n        /* \"#utility.yul\":16299:16308   */\n      dup3\n        /* \"#utility.yul\":16295:16313   */\n      add\n        /* \"#utility.yul\":16287:16313   */\n      swap1\n      pop\n        /* \"#utility.yul\":16359:16368   */\n      dup2\n        /* \"#utility.yul\":16353:16357   */\n      dup2\n        /* \"#utility.yul\":16349:16369   */\n      sub\n        /* \"#utility.yul\":16345:16346   */\n      0x00\n        /* \"#utility.yul\":16334:16343   */\n      dup4\n        /* \"#utility.yul\":16330:16347   */\n      add\n        /* \"#utility.yul\":16323:16370   */\n      mstore\n        /* \"#utility.yul\":16387:16518   */\n      tag_399\n        /* \"#utility.yul\":16513:16517   */\n      dup2\n        /* \"#utility.yul\":16387:16518   */\n      tag_210\n      jump\t// in\n    tag_399:\n        /* \"#utility.yul\":16379:16518   */\n      swap1\n      pop\n        /* \"#utility.yul\":16106:16525   */\n      swap2\n      swap1\n      pop\n      jump\t// out\n        /* \"#utility.yul\":16531:16757   */\n    tag_211:\n        /* \"#utility.yul\":16671:16705   */\n      0x50726f6a6563742052656163686564206974732046756e64696e672072657175\n        /* \"#utility.yul\":16667:16668   */\n      0x00\n        /* \"#utility.yul\":16659:16665   */\n      dup3\n        /* \"#utility.yul\":16655:16669   */\n      add\n        /* \"#utility.yul\":16648:16706   */\n      mstore\n        /* \"#utility.yul\":16740:16749   */\n      0x6972656d656e7400000000000000000000000000000000000000000000000000\n        /* \"#utility.yul\":16735:16737   */\n      0x20\n        /* \"#utility.yul\":16727:16733   */\n      dup3\n        /* \"#utility.yul\":16723:16738   */\n      add\n        /* \"#utility.yul\":16716:16750   */\n      mstore\n        /* \"#utility.yul\":16531:16757   */\n      pop\n      jump\t// out\n        /* \"#utility.yul\":16763:17129   */\n    tag_212:\n        /* \"#utility.yul\":16905:16908   */\n      0x00\n        /* \"#utility.yul\":16926:16993   */\n      tag_402\n        /* \"#utility.yul\":16990:16992   */\n      0x27\n        /* \"#utility.yul\":16985:16988   */\n      dup4\n        /* \"#utility.yul\":16926:16993   */\n      tag_180\n      jump\t// in\n    tag_402:\n        /* \"#utility.yul\":16919:16993   */\n      swap2\n      pop\n        /* \"#utility.yul\":17002:17095   */\n      tag_403\n        /* \"#utility.yul\":17091:17094   */\n      dup3\n        /* \"#utility.yul\":17002:17095   */\n      tag_211\n      jump\t// in\n    tag_403:\n        /* \"#utility.yul\":17120:17122   */\n      0x40\n        /* \"#utility.yul\":17115:17118   */\n      dup3\n        /* \"#utility.yul\":17111:17123   */\n      add\n        /* \"#utility.yul\":17104:17123   */\n      swap1\n      pop\n        /* \"#utility.yul\":16763:17129   */\n      swap2\n      swap1\n      pop\n      jump\t// out\n        /* \"#utility.yul\":17135:17554   */\n    tag_117:\n        /* \"#utility.yul\":17301:17305   */\n      0x00\n        /* \"#utility.yul\":17339:17341   */\n      0x20\n        /* \"#utility.yul\":17328:17337   */\n      dup3\n        /* \"#utility.yul\":17324:17342   */\n      add\n        /* \"#utility.yul\":17316:17342   */\n      swap1\n      pop\n        /* \"#utility.yul\":17388:17397   */\n      dup2\n        /* \"#utility.yul\":17382:17386   */\n      dup2\n        /* \"#utility.yul\":17378:17398   */\n      sub\n        /* \"#utility.yul\":17374:17375   */\n      0x00\n        /* \"#utility.yul\":17363:17372   */\n      dup4\n        /* \"#utility.yul\":17359:17376   */\n      add\n        /* \"#utility.yul\":17352:17399   */\n      mstore\n        /* \"#utility.yul\":17416:17547   */\n      tag_405\n        /* \"#utility.yul\":17542:17546   */\n      dup2\n        /* \"#utility.yul\":17416:17547   */\n      tag_212\n      jump\t// in\n    tag_405:\n        /* \"#utility.yul\":17408:17547   */\n      swap1\n      pop\n        /* \"#utility.yul\":17135:17554   */\n      swap2\n      swap1\n      pop\n      jump\t// out\n        /* \"#utility.yul\":17560:17791   */\n    tag_213:\n        /* \"#utility.yul\":17700:17734   */\n      0x73656e6420736f6d6520657468657220746f20636f6e7472696275746520696e\n        /* \"#utility.yul\":17696:17697   */\n      0x00\n        /* \"#utility.yul\":17688:17694   */\n      dup3\n        /* \"#utility.yul\":17684:17698   */\n      add\n        /* \"#utility.yul\":17677:17735   */\n      mstore\n        /* \"#utility.yul\":17769:17783   */\n      0x207468652070726f6a6563740000000000000000000000000000000000000000\n        /* \"#utility.yul\":17764:17766   */\n      0x20\n        /* \"#utility.yul\":17756:17762   */\n      dup3\n        /* \"#utility.yul\":17752:17767   */\n      add\n        /* \"#utility.yul\":17745:17784   */\n      mstore\n        /* \"#utility.yul\":17560:17791   */\n      pop\n      jump\t// out\n        /* \"#utility.yul\":17797:18163   */\n    tag_214:\n        /* \"#utility.yul\":17939:17942   */\n      0x00\n        /* \"#utility.yul\":17960:18027   */\n      tag_408\n        /* \"#utility.yul\":18024:18026   */\n      0x2c\n        /* \"#utility.yul\":18019:18022   */\n      dup4\n        /* \"#utility.yul\":17960:18027   */\n      tag_180\n      jump\t// in\n    tag_408:\n        /* \"#utility.yul\":17953:18027   */\n      swap2\n      pop\n        /* \"#utility.yul\":18036:18129   */\n      tag_409\n        /* \"#utility.yul\":18125:18128   */\n      dup3\n        /* \"#utility.yul\":18036:18129   */\n      tag_213\n      jump\t// in\n    tag_409:\n        /* \"#utility.yul\":18154:18156   */\n      0x40\n        /* \"#utility.yul\":18149:18152   */\n      dup3\n        /* \"#utility.yul\":18145:18157   */\n      add\n        /* \"#utility.yul\":18138:18157   */\n      swap1\n      pop\n        /* \"#utility.yul\":17797:18163   */\n      swap2\n      swap1\n      pop\n      jump\t// out\n        /* \"#utility.yul\":18169:18588   */\n    tag_120:\n        /* \"#utility.yul\":18335:18339   */\n      0x00\n        /* \"#utility.yul\":18373:18375   */\n      0x20\n        /* \"#utility.yul\":18362:18371   */\n      dup3\n        /* \"#utility.yul\":18358:18376   */\n      add\n        /* \"#utility.yul\":18350:18376   */\n      swap1\n      pop\n        /* \"#utility.yul\":18422:18431   */\n      dup2\n        /* \"#utility.yul\":18416:18420   */\n      dup2\n        /* \"#utility.yul\":18412:18432   */\n      sub\n        /* \"#utility.yul\":18408:18409   */\n      0x00\n        /* \"#utility.yul\":18397:18406   */\n      dup4\n        /* \"#utility.yul\":18393:18410   */\n      add\n        /* \"#utility.yul\":18386:18433   */\n      mstore\n        /* \"#utility.yul\":18450:18581   */\n      tag_411\n        /* \"#utility.yul\":18576:18580   */\n      dup2\n        /* \"#utility.yul\":18450:18581   */\n      tag_214\n      jump\t// in\n    tag_411:\n        /* \"#utility.yul\":18442:18581   */\n      swap1\n      pop\n        /* \"#utility.yul\":18169:18588   */\n      swap2\n      swap1\n      pop\n      jump\t// out\n        /* \"#utility.yul\":18594:18817   */\n    tag_215:\n        /* \"#utility.yul\":18734:18768   */\n      0x416d6f756e7420436f6e7472696275746564206973206d6f7265207468616e20\n        /* \"#utility.yul\":18730:18731   */\n      0x00\n        /* \"#utility.yul\":18722:18728   */\n      dup3\n        /* \"#utility.yul\":18718:18732   */\n      add\n        /* \"#utility.yul\":18711:18769   */\n      mstore\n        /* \"#utility.yul\":18803:18809   */\n      0x476f616c00000000000000000000000000000000000000000000000000000000\n        /* \"#utility.yul\":18798:18800   */\n      0x20\n        /* \"#utility.yul\":18790:18796   */\n      dup3\n        /* \"#utility.yul\":18786:18801   */\n      add\n        /* \"#utility.yul\":18779:18810   */\n      mstore\n        /* \"#utility.yul\":18594:18817   */\n      pop\n      jump\t// out\n        /* \"#utility.yul\":18823:19189   */\n    tag_216:\n        /* \"#utility.yul\":18965:18968   */\n      0x00\n        /* \"#utility.yul\":18986:19053   */\n      tag_414\n        /* \"#utility.yul\":19050:19052   */\n      0x24\n        /* \"#utility.yul\":19045:19048   */\n      dup4\n        /* \"#utility.yul\":18986:19053   */\n      tag_180\n      jump\t// in\n    tag_414:\n        /* \"#utility.yul\":18979:19053   */\n      swap2\n      pop\n        /* \"#utility.yul\":19062:19155   */\n      tag_415\n        /* \"#utility.yul\":19151:19154   */\n      dup3\n        /* \"#utility.yul\":19062:19155   */\n      tag_215\n      jump\t// in\n    tag_415:\n        /* \"#utility.yul\":19180:19182   */\n      0x40\n        /* \"#utility.yul\":19175:19178   */\n      dup3\n        /* \"#utility.yul\":19171:19183   */\n      add\n        /* \"#utility.yul\":19164:19183   */\n      swap1\n      pop\n        /* \"#utility.yul\":18823:19189   */\n      swap2\n      swap1\n      pop\n      jump\t// out\n        /* \"#utility.yul\":19195:19614   */\n    tag_123:\n        /* \"#utility.yul\":19361:19365   */\n      0x00\n        /* \"#utility.yul\":19399:19401   */\n      0x20\n        /* \"#utility.yul\":19388:19397   */\n      dup3\n        /* \"#utility.yul\":19384:19402   */\n      add\n        /* \"#utility.yul\":19376:19402   */\n      swap1\n      pop\n        /* \"#utility.yul\":19448:19457   */\n      dup2\n        /* \"#utility.yul\":19442:19446   */\n      dup2\n        /* \"#utility.yul\":19438:19458   */\n      sub\n        /* \"#utility.yul\":19434:19435   */\n      0x00\n        /* \"#utility.yul\":19423:19432   */\n      dup4\n        /* \"#utility.yul\":19419:19436   */\n      add\n        /* \"#utility.yul\":19412:19459   */\n      mstore\n        /* \"#utility.yul\":19476:19607   */\n      tag_417\n        /* \"#utility.yul\":19602:19606   */\n      dup2\n        /* \"#utility.yul\":19476:19607   */\n      tag_216\n      jump\t// in\n    tag_417:\n        /* \"#utility.yul\":19468:19607   */\n      swap1\n      pop\n        /* \"#utility.yul\":19195:19614   */\n      swap2\n      swap1\n      pop\n      jump\t// out\n        /* \"#utility.yul\":19620:19799   */\n    tag_217:\n        /* \"#utility.yul\":19760:19791   */\n      0x46756e64696e6720476f616c20697320616c7265616479206d65742121000000\n        /* \"#utility.yul\":19756:19757   */\n      0x00\n        /* \"#utility.yul\":19748:19754   */\n      dup3\n        /* \"#utility.yul\":19744:19758   */\n      add\n        /* \"#utility.yul\":19737:19792   */\n      mstore\n        /* \"#utility.yul\":19620:19799   */\n      pop\n      jump\t// out\n        /* \"#utility.yul\":19805:20171   */\n    tag_218:\n        /* \"#utility.yul\":19947:19950   */\n      0x00\n        /* \"#utility.yul\":19968:20035   */\n      tag_420\n        /* \"#utility.yul\":20032:20034   */\n      0x1d\n        /* \"#utility.yul\":20027:20030   */\n      dup4\n        /* \"#utility.yul\":19968:20035   */\n      tag_180\n      jump\t// in\n    tag_420:\n        /* \"#utility.yul\":19961:20035   */\n      swap2\n      pop\n        /* \"#utility.yul\":20044:20137   */\n      tag_421\n        /* \"#utility.yul\":20133:20136   */\n      dup3\n        /* \"#utility.yul\":20044:20137   */\n      tag_217\n      jump\t// in\n    tag_421:\n        /* \"#utility.yul\":20162:20164   */\n      0x20\n        /* \"#utility.yul\":20157:20160   */\n      dup3\n        /* \"#utility.yul\":20153:20165   */\n      add\n        /* \"#utility.yul\":20146:20165   */\n      swap1\n      pop\n        /* \"#utility.yul\":19805:20171   */\n      swap2\n      swap1\n      pop\n      jump\t// out\n        /* \"#utility.yul\":20177:20596   */\n    tag_126:\n        /* \"#utility.yul\":20343:20347   */\n      0x00\n        /* \"#utility.yul\":20381:20383   */\n      0x20\n        /* \"#utility.yul\":20370:20379   */\n      dup3\n        /* \"#utility.yul\":20366:20384   */\n      add\n        /* \"#utility.yul\":20358:20384   */\n      swap1\n      pop\n        /* \"#utility.yul\":20430:20439   */\n      dup2\n        /* \"#utility.yul\":20424:20428   */\n      dup2\n        /* \"#utility.yul\":20420:20440   */\n      sub\n        /* \"#utility.yul\":20416:20417   */\n      0x00\n        /* \"#utility.yul\":20405:20414   */\n      dup4\n        /* \"#utility.yul\":20401:20418   */\n      add\n        /* \"#utility.yul\":20394:20441   */\n      mstore\n        /* \"#utility.yul\":20458:20589   */\n      tag_423\n        /* \"#utility.yul\":20584:20588   */\n      dup2\n        /* \"#utility.yul\":20458:20589   */\n      tag_218\n      jump\t// in\n    tag_423:\n        /* \"#utility.yul\":20450:20589   */\n      swap1\n      pop\n        /* \"#utility.yul\":20177:20596   */\n      swap2\n      swap1\n      pop\n      jump\t// out\n        /* \"#utility.yul\":20602:20749   */\n    tag_219:\n        /* \"#utility.yul\":20703:20714   */\n      0x00\n        /* \"#utility.yul\":20740:20743   */\n      dup2\n        /* \"#utility.yul\":20725:20743   */\n      swap1\n      pop\n        /* \"#utility.yul\":20602:20749   */\n      swap3\n      swap2\n      pop\n      pop\n      jump\t// out\n        /* \"#utility.yul\":20755:20869   */\n    tag_220:\n      pop\n      jump\t// out\n        /* \"#utility.yul\":20875:21273   */\n    tag_221:\n        /* \"#utility.yul\":21034:21037   */\n      0x00\n        /* \"#utility.yul\":21055:21138   */\n      tag_427\n        /* \"#utility.yul\":21136:21137   */\n      0x00\n        /* \"#utility.yul\":21131:21134   */\n      dup4\n        /* \"#utility.yul\":21055:21138   */\n      tag_219\n      jump\t// in\n    tag_427:\n        /* \"#utility.yul\":21048:21138   */\n      swap2\n      pop\n        /* \"#utility.yul\":21147:21240   */\n      tag_428\n        /* \"#utility.yul\":21236:21239   */\n      dup3\n        /* \"#utility.yul\":21147:21240   */\n      tag_220\n      jump\t// in\n    tag_428:\n        /* \"#utility.yul\":21265:21266   */\n      0x00\n        /* \"#utility.yul\":21260:21263   */\n      dup3\n        /* \"#utility.yul\":21256:21267   */\n      add\n        /* \"#utility.yul\":21249:21267   */\n      swap1\n      pop\n        /* \"#utility.yul\":20875:21273   */\n      swap2\n      swap1\n      pop\n      jump\t// out\n        /* \"#utility.yul\":21279:21658   */\n    tag_135:\n        /* \"#utility.yul\":21463:21466   */\n      0x00\n        /* \"#utility.yul\":21485:21632   */\n      tag_430\n        /* \"#utility.yul\":21628:21631   */\n      dup3\n        /* \"#utility.yul\":21485:21632   */\n      tag_221\n      jump\t// in\n    tag_430:\n        /* \"#utility.yul\":21478:21632   */\n      swap2\n      pop\n        /* \"#utility.yul\":21649:21652   */\n      dup2\n        /* \"#utility.yul\":21642:21652   */\n      swap1\n      pop\n        /* \"#utility.yul\":21279:21658   */\n      swap2\n      swap1\n      pop\n      jump\t// out\n        /* \"#utility.yul\":21664:21827   */\n    tag_222:\n        /* \"#utility.yul\":21804:21819   */\n      0x526566756e64204661696c656400000000000000000000000000000000000000\n        /* \"#utility.yul\":21800:21801   */\n      0x00\n        /* \"#utility.yul\":21792:21798   */\n      dup3\n        /* \"#utility.yul\":21788:21802   */\n      add\n        /* \"#utility.yul\":21781:21820   */\n      mstore\n        /* \"#utility.yul\":21664:21827   */\n      pop\n      jump\t// out\n        /* \"#utility.yul\":21833:22199   */\n    tag_223:\n        /* \"#utility.yul\":21975:21978   */\n      0x00\n        /* \"#utility.yul\":21996:22063   */\n      tag_433\n        /* \"#utility.yul\":22060:22062   */\n      0x0d\n        /* \"#utility.yul\":22055:22058   */\n      dup4\n        /* \"#utility.yul\":21996:22063   */\n      tag_180\n      jump\t// in\n    tag_433:\n        /* \"#utility.yul\":21989:22063   */\n      swap2\n      pop\n        /* \"#utility.yul\":22072:22165   */\n      tag_434\n        /* \"#utility.yul\":22161:22164   */\n      dup3\n        /* \"#utility.yul\":22072:22165   */\n      tag_222\n      jump\t// in\n    tag_434:\n        /* \"#utility.yul\":22190:22192   */\n      0x20\n        /* \"#utility.yul\":22185:22188   */\n      dup3\n        /* \"#utility.yul\":22181:22193   */\n      add\n        /* \"#utility.yul\":22174:22193   */\n      swap1\n      pop\n        /* \"#utility.yul\":21833:22199   */\n      swap2\n      swap1\n      pop\n      jump\t// out\n        /* \"#utility.yul\":22205:22624   */\n    tag_141:\n        /* \"#utility.yul\":22371:22375   */\n      0x00\n        /* \"#utility.yul\":22409:22411   */\n      0x20\n        /* \"#utility.yul\":22398:22407   */\n      dup3\n        /* \"#utility.yul\":22394:22412   */\n      add\n        /* \"#utility.yul\":22386:22412   */\n      swap1\n      pop\n        /* \"#utility.yul\":22458:22467   */\n      dup2\n        /* \"#utility.yul\":22452:22456   */\n      dup2\n        /* \"#utility.yul\":22448:22468   */\n      sub\n        /* \"#utility.yul\":22444:22445   */\n      0x00\n        /* \"#utility.yul\":22433:22442   */\n      dup4\n        /* \"#utility.yul\":22429:22446   */\n      add\n        /* \"#utility.yul\":22422:22469   */\n      mstore\n        /* \"#utility.yul\":22486:22617   */\n      tag_436\n        /* \"#utility.yul\":22612:22616   */\n      dup2\n        /* \"#utility.yul\":22486:22617   */\n      tag_223\n      jump\t// in\n    tag_436:\n        /* \"#utility.yul\":22478:22617   */\n      swap1\n      pop\n        /* \"#utility.yul\":22205:22624   */\n      swap2\n      swap1\n      pop\n      jump\t// out\n        /* \"#utility.yul\":22630:23072   */\n    tag_143:\n        /* \"#utility.yul\":22779:22783   */\n      0x00\n        /* \"#utility.yul\":22817:22819   */\n      0x60\n        /* \"#utility.yul\":22806:22815   */\n      dup3\n        /* \"#utility.yul\":22802:22820   */\n      add\n        /* \"#utility.yul\":22794:22820   */\n      swap1\n      pop\n        /* \"#utility.yul\":22830:22901   */\n      tag_438\n        /* \"#utility.yul\":22898:22899   */\n      0x00\n        /* \"#utility.yul\":22887:22896   */\n      dup4\n        /* \"#utility.yul\":22883:22900   */\n      add\n        /* \"#utility.yul\":22874:22880   */\n      dup7\n        /* \"#utility.yul\":22830:22901   */\n      tag_178\n      jump\t// in\n    tag_438:\n        /* \"#utility.yul\":22911:22983   */\n      tag_439\n        /* \"#utility.yul\":22979:22981   */\n      0x20\n        /* \"#utility.yul\":22968:22977   */\n      dup4\n        /* \"#utility.yul\":22964:22982   */\n      add\n        /* \"#utility.yul\":22955:22961   */\n      dup6\n        /* \"#utility.yul\":22911:22983   */\n      tag_175\n      jump\t// in\n    tag_439:\n        /* \"#utility.yul\":22993:23065   */\n      tag_440\n        /* \"#utility.yul\":23061:23063   */\n      0x40\n        /* \"#utility.yul\":23050:23059   */\n      dup4\n        /* \"#utility.yul\":23046:23064   */\n      add\n        /* \"#utility.yul\":23037:23043   */\n      dup5\n        /* \"#utility.yul\":22993:23065   */\n      tag_175\n      jump\t// in\n    tag_440:\n        /* \"#utility.yul\":22630:23072   */\n      swap5\n      swap4\n      pop\n      pop\n      pop\n      pop\n      jump\t// out\n        /* \"#utility.yul\":23078:23316   */\n    tag_224:\n        /* \"#utility.yul\":23218:23252   */\n      0x66756e64696e6720676f616c20686173206e6f742072656163686564202c2061\n        /* \"#utility.yul\":23214:23215   */\n      0x00\n        /* \"#utility.yul\":23206:23212   */\n      dup3\n        /* \"#utility.yul\":23202:23216   */\n      add\n        /* \"#utility.yul\":23195:23253   */\n      mstore\n        /* \"#utility.yul\":23287:23308   */\n      0x646d696e2063616e277420776974686472617700000000000000000000000000\n        /* \"#utility.yul\":23282:23284   */\n      0x20\n        /* \"#utility.yul\":23274:23280   */\n      dup3\n        /* \"#utility.yul\":23270:23285   */\n      add\n        /* \"#utility.yul\":23263:23309   */\n      mstore\n        /* \"#utility.yul\":23078:23316   */\n      pop\n      jump\t// out\n        /* \"#utility.yul\":23322:23688   */\n    tag_225:\n        /* \"#utility.yul\":23464:23467   */\n      0x00\n        /* \"#utility.yul\":23485:23552   */\n      tag_443\n        /* \"#utility.yul\":23549:23551   */\n      0x33\n        /* \"#utility.yul\":23544:23547   */\n      dup4\n        /* \"#utility.yul\":23485:23552   */\n      tag_180\n      jump\t// in\n    tag_443:\n        /* \"#utility.yul\":23478:23552   */\n      swap2\n      pop\n        /* \"#utility.yul\":23561:23654   */\n      tag_444\n        /* \"#utility.yul\":23650:23653   */\n      dup3\n        /* \"#utility.yul\":23561:23654   */\n      tag_224\n      jump\t// in\n    tag_444:\n        /* \"#utility.yul\":23679:23681   */\n      0x40\n        /* \"#utility.yul\":23674:23677   */\n      dup3\n        /* \"#utility.yul\":23670:23682   */\n      add\n        /* \"#utility.yul\":23663:23682   */\n      swap1\n      pop\n        /* \"#utility.yul\":23322:23688   */\n      swap2\n      swap1\n      pop\n      jump\t// out\n        /* \"#utility.yul\":23694:24113   */\n    tag_148:\n        /* \"#utility.yul\":23860:23864   */\n      0x00\n        /* \"#utility.yul\":23898:23900   */\n      0x20\n        /* \"#utility.yul\":23887:23896   */\n      dup3\n        /* \"#utility.yul\":23883:23901   */\n      add\n        /* \"#utility.yul\":23875:23901   */\n      swap1\n      pop\n        /* \"#utility.yul\":23947:23956   */\n      dup2\n        /* \"#utility.yul\":23941:23945   */\n      dup2\n        /* \"#utility.yul\":23937:23957   */\n      sub\n        /* \"#utility.yul\":23933:23934   */\n      0x00\n        /* \"#utility.yul\":23922:23931   */\n      dup4\n        /* \"#utility.yul\":23918:23935   */\n      add\n        /* \"#utility.yul\":23911:23958   */\n      mstore\n        /* \"#utility.yul\":23975:24106   */\n      tag_446\n        /* \"#utility.yul\":24101:24105   */\n      dup2\n        /* \"#utility.yul\":23975:24106   */\n      tag_225\n      jump\t// in\n    tag_446:\n        /* \"#utility.yul\":23967:24106   */\n      swap1\n      pop\n        /* \"#utility.yul\":23694:24113   */\n      swap2\n      swap1\n      pop\n      jump\t// out\n        /* \"#utility.yul\":24119:24292   */\n    tag_226:\n        /* \"#utility.yul\":24259:24284   */\n      0x6f6e6c792061646d696e2063616e207769746864726177000000000000000000\n        /* \"#utility.yul\":24255:24256   */\n      0x00\n        /* \"#utility.yul\":24247:24253   */\n      dup3\n        /* \"#utility.yul\":24243:24257   */\n      add\n        /* \"#utility.yul\":24236:24285   */\n      mstore\n        /* \"#utility.yul\":24119:24292   */\n      pop\n      jump\t// out\n        /* \"#utility.yul\":24298:24664   */\n    tag_227:\n        /* \"#utility.yul\":24440:24443   */\n      0x00\n        /* \"#utility.yul\":24461:24528   */\n      tag_449\n        /* \"#utility.yul\":24525:24527   */\n      0x17\n        /* \"#utility.yul\":24520:24523   */\n      dup4\n        /* \"#utility.yul\":24461:24528   */\n      tag_180\n      jump\t// in\n    tag_449:\n        /* \"#utility.yul\":24454:24528   */\n      swap2\n      pop\n        /* \"#utility.yul\":24537:24630   */\n      tag_450\n        /* \"#utility.yul\":24626:24629   */\n      dup3\n        /* \"#utility.yul\":24537:24630   */\n      tag_226\n      jump\t// in\n    tag_450:\n        /* \"#utility.yul\":24655:24657   */\n      0x20\n        /* \"#utility.yul\":24650:24653   */\n      dup3\n        /* \"#utility.yul\":24646:24658   */\n      add\n        /* \"#utility.yul\":24639:24658   */\n      swap1\n      pop\n        /* \"#utility.yul\":24298:24664   */\n      swap2\n      swap1\n      pop\n      jump\t// out\n        /* \"#utility.yul\":24670:25089   */\n    tag_151:\n        /* \"#utility.yul\":24836:24840   */\n      0x00\n        /* \"#utility.yul\":24874:24876   */\n      0x20\n        /* \"#utility.yul\":24863:24872   */\n      dup3\n        /* \"#utility.yul\":24859:24877   */\n      add\n        /* \"#utility.yul\":24851:24877   */\n      swap1\n      pop\n        /* \"#utility.yul\":24923:24932   */\n      dup2\n        /* \"#utility.yul\":24917:24921   */\n      dup2\n        /* \"#utility.yul\":24913:24933   */\n      sub\n        /* \"#utility.yul\":24909:24910   */\n      0x00\n        /* \"#utility.yul\":24898:24907   */\n      dup4\n        /* \"#utility.yul\":24894:24911   */\n      add\n        /* \"#utility.yul\":24887:24934   */\n      mstore\n        /* \"#utility.yul\":24951:25082   */\n      tag_452\n        /* \"#utility.yul\":25077:25081   */\n      dup2\n        /* \"#utility.yul\":24951:25082   */\n      tag_227\n      jump\t// in\n    tag_452:\n        /* \"#utility.yul\":24943:25082   */\n      swap1\n      pop\n        /* \"#utility.yul\":24670:25089   */\n      swap2\n      swap1\n      pop\n      jump\t// out\n        /* \"#utility.yul\":25095:25329   */\n    tag_228:\n        /* \"#utility.yul\":25235:25269   */\n      0x646561646c696e6520686173206e6f742072656163686564202c2061646d696e\n        /* \"#utility.yul\":25231:25232   */\n      0x00\n        /* \"#utility.yul\":25223:25229   */\n      dup3\n        /* \"#utility.yul\":25219:25233   */\n      add\n        /* \"#utility.yul\":25212:25270   */\n      mstore\n        /* \"#utility.yul\":25304:25321   */\n      0x2063616e27742077697468647261770000000000000000000000000000000000\n        /* \"#utility.yul\":25299:25301   */\n      0x20\n        /* \"#utility.yul\":25291:25297   */\n      dup3\n        /* \"#utility.yul\":25287:25302   */\n      add\n        /* \"#utility.yul\":25280:25322   */\n      mstore\n        /* \"#utility.yul\":25095:25329   */\n      pop\n      jump\t// out\n        /* \"#utility.yul\":25335:25701   */\n    tag_229:\n        /* \"#utility.yul\":25477:25480   */\n      0x00\n        /* \"#utility.yul\":25498:25565   */\n      tag_455\n        /* \"#utility.yul\":25562:25564   */\n      0x2f\n        /* \"#utility.yul\":25557:25560   */\n      dup4\n        /* \"#utility.yul\":25498:25565   */\n      tag_180\n      jump\t// in\n    tag_455:\n        /* \"#utility.yul\":25491:25565   */\n      swap2\n      pop\n        /* \"#utility.yul\":25574:25667   */\n      tag_456\n        /* \"#utility.yul\":25663:25666   */\n      dup3\n        /* \"#utility.yul\":25574:25667   */\n      tag_228\n      jump\t// in\n    tag_456:\n        /* \"#utility.yul\":25692:25694   */\n      0x40\n        /* \"#utility.yul\":25687:25690   */\n      dup3\n        /* \"#utility.yul\":25683:25695   */\n      add\n        /* \"#utility.yul\":25676:25695   */\n      swap1\n      pop\n        /* \"#utility.yul\":25335:25701   */\n      swap2\n      swap1\n      pop\n      jump\t// out\n        /* \"#utility.yul\":25707:26126   */\n    tag_154:\n        /* \"#utility.yul\":25873:25877   */\n      0x00\n        /* \"#utility.yul\":25911:25913   */\n      0x20\n        /* \"#utility.yul\":25900:25909   */\n      dup3\n        /* \"#utility.yul\":25896:25914   */\n      add\n        /* \"#utility.yul\":25888:25914   */\n      swap1\n      pop\n        /* \"#utility.yul\":25960:25969   */\n      dup2\n        /* \"#utility.yul\":25954:25958   */\n      dup2\n        /* \"#utility.yul\":25950:25970   */\n      sub\n        /* \"#utility.yul\":25946:25947   */\n      0x00\n        /* \"#utility.yul\":25935:25944   */\n      dup4\n        /* \"#utility.yul\":25931:25948   */\n      add\n        /* \"#utility.yul\":25924:25971   */\n      mstore\n        /* \"#utility.yul\":25988:26119   */\n      tag_458\n        /* \"#utility.yul\":26114:26118   */\n      dup2\n        /* \"#utility.yul\":25988:26119   */\n      tag_229\n      jump\t// in\n    tag_458:\n        /* \"#utility.yul\":25980:26119   */\n      swap1\n      pop\n        /* \"#utility.yul\":25707:26126   */\n      swap2\n      swap1\n      pop\n      jump\t// out\n        /* \"#utility.yul\":26132:26311   */\n    tag_230:\n        /* \"#utility.yul\":26272:26303   */\n      0x50726f6a65637420494420697320616c726561647920696e2075736521000000\n        /* \"#utility.yul\":26268:26269   */\n      0x00\n        /* \"#utility.yul\":26260:26266   */\n      dup3\n        /* \"#utility.yul\":26256:26270   */\n      add\n        /* \"#utility.yul\":26249:26304   */\n      mstore\n        /* \"#utility.yul\":26132:26311   */\n      pop\n      jump\t// out\n        /* \"#utility.yul\":26317:26683   */\n    tag_231:\n        /* \"#utility.yul\":26459:26462   */\n      0x00\n        /* \"#utility.yul\":26480:26547   */\n      tag_461\n        /* \"#utility.yul\":26544:26546   */\n      0x1d\n        /* \"#utility.yul\":26539:26542   */\n      dup4\n        /* \"#utility.yul\":26480:26547   */\n      tag_180\n      jump\t// in\n    tag_461:\n        /* \"#utility.yul\":26473:26547   */\n      swap2\n      pop\n        /* \"#utility.yul\":26556:26649   */\n      tag_462\n        /* \"#utility.yul\":26645:26648   */\n      dup3\n        /* \"#utility.yul\":26556:26649   */\n      tag_230\n      jump\t// in\n    tag_462:\n        /* \"#utility.yul\":26674:26676   */\n      0x20\n        /* \"#utility.yul\":26669:26672   */\n      dup3\n        /* \"#utility.yul\":26665:26677   */\n      add\n        /* \"#utility.yul\":26658:26677   */\n      swap1\n      pop\n        /* \"#utility.yul\":26317:26683   */\n      swap2\n      swap1\n      pop\n      jump\t// out\n        /* \"#utility.yul\":26689:27108   */\n    tag_161:\n        /* \"#utility.yul\":26855:26859   */\n      0x00\n        /* \"#utility.yul\":26893:26895   */\n      0x20\n        /* \"#utility.yul\":26882:26891   */\n      dup3\n        /* \"#utility.yul\":26878:26896   */\n      add\n        /* \"#utility.yul\":26870:26896   */\n      swap1\n      pop\n        /* \"#utility.yul\":26942:26951   */\n      dup2\n        /* \"#utility.yul\":26936:26940   */\n      dup2\n        /* \"#utility.yul\":26932:26952   */\n      sub\n        /* \"#utility.yul\":26928:26929   */\n      0x00\n        /* \"#utility.yul\":26917:26926   */\n      dup4\n        /* \"#utility.yul\":26913:26930   */\n      add\n        /* \"#utility.yul\":26906:26953   */\n      mstore\n        /* \"#utility.yul\":26970:27101   */\n      tag_464\n        /* \"#utility.yul\":27096:27100   */\n      dup2\n        /* \"#utility.yul\":26970:27101   */\n      tag_231\n      jump\t// in\n    tag_464:\n        /* \"#utility.yul\":26962:27101   */\n      swap1\n      pop\n        /* \"#utility.yul\":26689:27108   */\n      swap2\n      swap1\n      pop\n      jump\t// out\n        /* \"#utility.yul\":27114:27255   */\n    tag_232:\n        /* \"#utility.yul\":27163:27167   */\n      0x00\n        /* \"#utility.yul\":27186:27189   */\n      dup2\n        /* \"#utility.yul\":27178:27189   */\n      swap1\n      pop\n        /* \"#utility.yul\":27209:27212   */\n      dup2\n        /* \"#utility.yul\":27206:27207   */\n      0x00\n        /* \"#utility.yul\":27199:27213   */\n      mstore\n        /* \"#utility.yul\":27243:27247   */\n      0x20\n        /* \"#utility.yul\":27240:27241   */\n      0x00\n        /* \"#utility.yul\":27230:27248   */\n      keccak256\n        /* \"#utility.yul\":27222:27248   */\n      swap1\n      pop\n        /* \"#utility.yul\":27114:27255   */\n      swap2\n      swap1\n      pop\n      jump\t// out\n        /* \"#utility.yul\":27261:27354   */\n    tag_233:\n        /* \"#utility.yul\":27298:27304   */\n      0x00\n        /* \"#utility.yul\":27345:27347   */\n      0x20\n        /* \"#utility.yul\":27340:27342   */\n      0x1f\n        /* \"#utility.yul\":27333:27338   */\n      dup4\n        /* \"#utility.yul\":27329:27343   */\n      add\n        /* \"#utility.yul\":27325:27348   */\n      div\n        /* \"#utility.yul\":27315:27348   */\n      swap1\n      pop\n        /* \"#utility.yul\":27261:27354   */\n      swap2\n      swap1\n      pop\n      jump\t// out\n        /* \"#utility.yul\":27360:27467   */\n    tag_234:\n        /* \"#utility.yul\":27404:27412   */\n      0x00\n        /* \"#utility.yul\":27454:27459   */\n      dup3\n        /* \"#utility.yul\":27448:27452   */\n      dup3\n        /* \"#utility.yul\":27444:27460   */\n      shl\n        /* \"#utility.yul\":27423:27460   */\n      swap1\n      pop\n        /* \"#utility.yul\":27360:27467   */\n      swap3\n      swap2\n      pop\n      pop\n      jump\t// out\n        /* \"#utility.yul\":27473:27866   */\n    tag_235:\n        /* \"#utility.yul\":27542:27548   */\n      0x00\n        /* \"#utility.yul\":27592:27593   */\n      0x08\n        /* \"#utility.yul\":27580:27590   */\n      dup4\n        /* \"#utility.yul\":27576:27594   */\n      mul\n        /* \"#utility.yul\":27615:27712   */\n      tag_469\n        /* \"#utility.yul\":27645:27711   */\n      0xffffffffffffffffffffffffffffffffffffffffffffffffffffffffffffffff\n        /* \"#utility.yul\":27634:27643   */\n      dup3\n        /* \"#utility.yul\":27615:27712   */\n      tag_234\n      jump\t// in\n    tag_469:\n        /* \"#utility.yul\":27733:27772   */\n      tag_470\n        /* \"#utility.yul\":27763:27771   */\n      dup7\n        /* \"#utility.yul\":27752:27761   */\n      dup4\n        /* \"#utility.yul\":27733:27772   */\n      tag_234\n      jump\t// in\n    tag_470:\n        /* \"#utility.yul\":27721:27772   */\n      swap6\n      pop\n        /* \"#utility.yul\":27805:27809   */\n      dup1\n        /* \"#utility.yul\":27801:27810   */\n      not\n        /* \"#utility.yul\":27794:27799   */\n      dup5\n        /* \"#utility.yul\":27790:27811   */\n      and\n        /* \"#utility.yul\":27781:27811   */\n      swap4\n      pop\n        /* \"#utility.yul\":27854:27858   */\n      dup1\n        /* \"#utility.yul\":27844:27852   */\n      dup7\n        /* \"#utility.yul\":27840:27859   */\n      and\n        /* \"#utility.yul\":27833:27838   */\n      dup5\n        /* \"#utility.yul\":27830:27860   */\n      or\n        /* \"#utility.yul\":27820:27860   */\n      swap3\n      pop\n        /* \"#utility.yul\":27549:27866   */\n      pop\n      pop\n        /* \"#utility.yul\":27473:27866   */\n      swap4\n      swap3\n      pop\n      pop\n      pop\n      jump\t// out\n        /* \"#utility.yul\":27872:27932   */\n    tag_236:\n        /* \"#utility.yul\":27900:27903   */\n      0x00\n        /* \"#utility.yul\":27921:27926   */\n      dup2\n        /* \"#utility.yul\":27914:27926   */\n      swap1\n      pop\n        /* \"#utility.yul\":27872:27932   */\n      swap2\n      swap1\n      pop\n      jump\t// out\n        /* \"#utility.yul\":27938:28080   */\n    tag_237:\n        /* \"#utility.yul\":27988:27997   */\n      0x00\n        /* \"#utility.yul\":28021:28074   */\n      tag_473\n        /* \"#utility.yul\":28039:28073   */\n      tag_474\n        /* \"#utility.yul\":28048:28072   */\n      tag_475\n        /* \"#utility.yul\":28066:28071   */\n      dup5\n        /* \"#utility.yul\":28048:28072   */\n      tag_172\n      jump\t// in\n    tag_475:\n        /* \"#utility.yul\":28039:28073   */\n      tag_236\n      jump\t// in\n    tag_474:\n        /* \"#utility.yul\":28021:28074   */\n      tag_172\n      jump\t// in\n    tag_473:\n        /* \"#utility.yul\":28008:28074   */\n      swap1\n      pop\n        /* \"#utility.yul\":27938:28080   */\n      swap2\n      swap1\n      pop\n      jump\t// out\n        /* \"#utility.yul\":28086:28161   */\n    tag_238:\n        /* \"#utility.yul\":28129:28132   */\n      0x00\n        /* \"#utility.yul\":28150:28155   */\n      dup2\n        /* \"#utility.yul\":28143:28155   */\n      swap1\n      pop\n        /* \"#utility.yul\":28086:28161   */\n      swap2\n      swap1\n      pop\n      jump\t// out\n        /* \"#utility.yul\":28167:28436   */\n    tag_239:\n        /* \"#utility.yul\":28277:28316   */\n      tag_478\n        /* \"#utility.yul\":28308:28315   */\n      dup4\n        /* \"#utility.yul\":28277:28316   */\n      tag_237\n      jump\t// in\n    tag_478:\n        /* \"#utility.yul\":28338:28429   */\n      tag_479\n        /* \"#utility.yul\":28387:28428   */\n      tag_480\n        /* \"#utility.yul\":28411:28427   */\n      dup3\n        /* \"#utility.yul\":28387:28428   */\n      tag_238\n      jump\t// in\n    tag_480:\n        /* \"#utility.yul\":28379:28385   */\n      dup5\n        /* \"#utility.yul\":28372:28376   */\n      dup5\n        /* \"#utility.yul\":28366:28377   */\n      sload\n        /* \"#utility.yul\":28338:28429   */\n      tag_235\n      jump\t// in\n    tag_479:\n        /* \"#utility.yul\":28332:28336   */\n      dup3\n        /* \"#utility.yul\":28325:28430   */\n      sstore\n        /* \"#utility.yul\":28243:28436   */\n      pop\n        /* \"#utility.yul\":28167:28436   */\n      pop\n      pop\n      pop\n      jump\t// out\n        /* \"#utility.yul\":28442:28515   */\n    tag_240:\n        /* \"#utility.yul\":28487:28490   */\n      0x00\n        /* \"#utility.yul\":28508:28509   */\n      0x00\n        /* \"#utility.yul\":28501:28509   */\n      swap1\n      pop\n        /* \"#utility.yul\":28442:28515   */\n      swap1\n      jump\t// out\n        /* \"#utility.yul\":28521:28710   */\n    tag_241:\n        /* \"#utility.yul\":28598:28630   */\n      tag_483\n      tag_240\n      jump\t// in\n    tag_483:\n        /* \"#utility.yul\":28639:28704   */\n      tag_484\n        /* \"#utility.yul\":28697:28703   */\n      dup2\n        /* \"#utility.yul\":28689:28695   */\n      dup5\n        /* \"#utility.yul\":28683:28687   */\n      dup5\n        /* \"#utility.yul\":28639:28704   */\n      tag_239\n      jump\t// in\n    tag_484:\n        /* \"#utility.yul\":28574:28710   */\n      pop\n        /* \"#utility.yul\":28521:28710   */\n      pop\n      pop\n      jump\t// out\n        /* \"#utility.yul\":28716:28902   */\n    tag_242:\n        /* \"#utility.yul\":28776:28896   */\n    tag_486:\n        /* \"#utility.yul\":28793:28796   */\n      dup2\n        /* \"#utility.yul\":28786:28791   */\n      dup2\n        /* \"#utility.yul\":28783:28797   */\n      lt\n        /* \"#utility.yul\":28776:28896   */\n      iszero\n      tag_488\n      jumpi\n        /* \"#utility.yul\":28847:28886   */\n      tag_489\n        /* \"#utility.yul\":28884:28885   */\n      0x00\n        /* \"#utility.yul\":28877:28882   */\n      dup3\n        /* \"#utility.yul\":28847:28886   */\n      tag_241\n      jump\t// in\n    tag_489:\n        /* \"#utility.yul\":28820:28821   */\n      0x01\n        /* \"#utility.yul\":28813:28818   */\n      dup2\n        /* \"#utility.yul\":28809:28822   */\n      add\n        /* \"#utility.yul\":28800:28822   */\n      swap1\n      pop\n        /* \"#utility.yul\":28776:28896   */\n      jump(tag_486)\n    tag_488:\n        /* \"#utility.yul\":28716:28902   */\n      pop\n      pop\n      jump\t// out\n        /* \"#utility.yul\":28908:29451   */\n    tag_243:\n        /* \"#utility.yul\":29009:29011   */\n      0x1f\n        /* \"#utility.yul\":29004:29007   */\n      dup3\n        /* \"#utility.yul\":29001:29012   */\n      gt\n        /* \"#utility.yul\":28998:29444   */\n      iszero\n      tag_491\n      jumpi\n        /* \"#utility.yul\":29043:29081   */\n      tag_492\n        /* \"#utility.yul\":29075:29080   */\n      dup2\n        /* \"#utility.yul\":29043:29081   */\n      tag_232\n      jump\t// in\n    tag_492:\n        /* \"#utility.yul\":29127:29156   */\n      tag_493\n        /* \"#utility.yul\":29145:29155   */\n      dup5\n        /* \"#utility.yul\":29127:29156   */\n      tag_233\n      jump\t// in\n    tag_493:\n        /* \"#utility.yul\":29117:29125   */\n      dup2\n        /* \"#utility.yul\":29113:29157   */\n      add\n        /* \"#utility.yul\":29310:29312   */\n      0x20\n        /* \"#utility.yul\":29298:29308   */\n      dup6\n        /* \"#utility.yul\":29295:29313   */\n      lt\n        /* \"#utility.yul\":29292:29341   */\n      iszero\n      tag_494\n      jumpi\n        /* \"#utility.yul\":29331:29339   */\n      dup2\n        /* \"#utility.yul\":29316:29339   */\n      swap1\n      pop\n        /* \"#utility.yul\":29292:29341   */\n    tag_494:\n        /* \"#utility.yul\":29354:29434   */\n      tag_495\n        /* \"#utility.yul\":29410:29432   */\n      tag_496\n        /* \"#utility.yul\":29428:29431   */\n      dup6\n        /* \"#utility.yul\":29410:29432   */\n      tag_233\n      jump\t// in\n    tag_496:\n        /* \"#utility.yul\":29400:29408   */\n      dup4\n        /* \"#utility.yul\":29396:29433   */\n      add\n        /* \"#utility.yul\":29383:29394   */\n      dup3\n        /* \"#utility.yul\":29354:29434   */\n      tag_242\n      jump\t// in\n    tag_495:\n        /* \"#utility.yul\":29013:29444   */\n      pop\n      pop\n        /* \"#utility.yul\":28998:29444   */\n    tag_491:\n        /* \"#utility.yul\":28908:29451   */\n      pop\n      pop\n      pop\n      jump\t// out\n        /* \"#utility.yul\":29457:29574   */\n    tag_244:\n        /* \"#utility.yul\":29511:29519   */\n      0x00\n        /* \"#utility.yul\":29561:29566   */\n      dup3\n        /* \"#utility.yul\":29555:29559   */\n      dup3\n        /* \"#utility.yul\":29551:29567   */\n      shr\n        /* \"#utility.yul\":29530:29567   */\n      swap1\n      pop\n        /* \"#utility.yul\":29457:29574   */\n      swap3\n      swap2\n      pop\n      pop\n      jump\t// out\n        /* \"#utility.yul\":29580:29749   */\n    tag_245:\n        /* \"#utility.yul\":29624:29630   */\n      0x00\n        /* \"#utility.yul\":29657:29708   */\n      tag_499\n        /* \"#utility.yul\":29705:29706   */\n      0x00\n        /* \"#utility.yul\":29701:29707   */\n      not\n        /* \"#utility.yul\":29693:29698   */\n      dup5\n        /* \"#utility.yul\":29690:29691   */\n      0x08\n        /* \"#utility.yul\":29686:29699   */\n      mul\n        /* \"#utility.yul\":29657:29708   */\n      tag_244\n      jump\t// in\n    tag_499:\n        /* \"#utility.yul\":29653:29709   */\n      not\n        /* \"#utility.yul\":29738:29742   */\n      dup1\n        /* \"#utility.yul\":29732:29736   */\n      dup4\n        /* \"#utility.yul\":29728:29743   */\n      and\n        /* \"#utility.yul\":29718:29743   */\n      swap2\n      pop\n        /* \"#utility.yul\":29631:29749   */\n      pop\n        /* \"#utility.yul\":29580:29749   */\n      swap3\n      swap2\n      pop\n      pop\n      jump\t// out\n        /* \"#utility.yul\":29754:30049   */\n    tag_246:\n        /* \"#utility.yul\":29830:29834   */\n      0x00\n        /* \"#utility.yul\":29976:30005   */\n      tag_501\n        /* \"#utility.yul\":30001:30004   */\n      dup4\n        /* \"#utility.yul\":29995:29999   */\n      dup4\n        /* \"#utility.yul\":29976:30005   */\n      tag_245\n      jump\t// in\n    tag_501:\n        /* \"#utility.yul\":29968:30005   */\n      swap2\n      pop\n        /* \"#utility.yul\":30038:30041   */\n      dup3\n        /* \"#utility.yul\":30035:30036   */\n      0x02\n        /* \"#utility.yul\":30031:30042   */\n      mul\n        /* \"#utility.yul\":30025:30029   */\n      dup3\n        /* \"#utility.yul\":30022:30043   */\n      or\n        /* \"#utility.yul\":30014:30043   */\n      swap1\n      pop\n        /* \"#utility.yul\":29754:30049   */\n      swap3\n      swap2\n      pop\n      pop\n      jump\t// out\n        /* \"#utility.yul\":30054:31449   */\n    tag_164:\n        /* \"#utility.yul\":30171:30208   */\n      tag_503\n        /* \"#utility.yul\":30204:30207   */\n      dup3\n        /* \"#utility.yul\":30171:30208   */\n      tag_179\n      jump\t// in\n    tag_503:\n        /* \"#utility.yul\":30273:30291   */\n      0xffffffffffffffff\n        /* \"#utility.yul\":30265:30271   */\n      dup2\n        /* \"#utility.yul\":30262:30292   */\n      gt\n        /* \"#utility.yul\":30259:30315   */\n      iszero\n      tag_504\n      jumpi\n        /* \"#utility.yul\":30295:30313   */\n      tag_505\n      tag_190\n      jump\t// in\n    tag_505:\n        /* \"#utility.yul\":30259:30315   */\n    tag_504:\n        /* \"#utility.yul\":30339:30377   */\n      tag_506\n        /* \"#utility.yul\":30371:30375   */\n      dup3\n        /* \"#utility.yul\":30365:30376   */\n      sload\n        /* \"#utility.yul\":30339:30377   */\n      tag_82\n      jump\t// in\n    tag_506:\n        /* \"#utility.yul\":30424:30491   */\n      tag_507\n        /* \"#utility.yul\":30484:30490   */\n      dup3\n        /* \"#utility.yul\":30476:30482   */\n      dup3\n        /* \"#utility.yul\":30470:30474   */\n      dup6\n        /* \"#utility.yul\":30424:30491   */\n      tag_243\n      jump\t// in\n    tag_507:\n        /* \"#utility.yul\":30518:30519   */\n      0x00\n        /* \"#utility.yul\":30542:30546   */\n      0x20\n        /* \"#utility.yul\":30529:30546   */\n      swap1\n      pop\n        /* \"#utility.yul\":30574:30576   */\n      0x1f\n        /* \"#utility.yul\":30566:30572   */\n      dup4\n        /* \"#utility.yul\":30563:30577   */\n      gt\n        /* \"#utility.yul\":30591:30592   */\n      0x01\n        /* \"#utility.yul\":30586:31204   */\n      dup2\n      eq\n      tag_509\n      jumpi\n        /* \"#utility.yul\":31248:31249   */\n      0x00\n        /* \"#utility.yul\":31265:31271   */\n      dup5\n        /* \"#utility.yul\":31262:31339   */\n      iszero\n      tag_510\n      jumpi\n        /* \"#utility.yul\":31314:31323   */\n      dup3\n        /* \"#utility.yul\":31309:31312   */\n      dup8\n        /* \"#utility.yul\":31305:31324   */\n      add\n        /* \"#utility.yul\":31299:31325   */\n      mload\n        /* \"#utility.yul\":31290:31325   */\n      swap1\n      pop\n        /* \"#utility.yul\":31262:31339   */\n    tag_510:\n        /* \"#utility.yul\":31365:31432   */\n      tag_511\n        /* \"#utility.yul\":31425:31431   */\n      dup6\n        /* \"#utility.yul\":31418:31423   */\n      dup3\n        /* \"#utility.yul\":31365:31432   */\n      tag_246\n      jump\t// in\n    tag_511:\n        /* \"#utility.yul\":31359:31363   */\n      dup7\n        /* \"#utility.yul\":31352:31433   */\n      sstore\n        /* \"#utility.yul\":31221:31443   */\n      pop\n        /* \"#utility.yul\":30556:31443   */\n      jump(tag_508)\n        /* \"#utility.yul\":30586:31204   */\n    tag_509:\n        /* \"#utility.yul\":30638:30642   */\n      0x1f\n        /* \"#utility.yul\":30634:30643   */\n      not\n        /* \"#utility.yul\":30626:30632   */\n      dup5\n        /* \"#utility.yul\":30622:30644   */\n      and\n        /* \"#utility.yul\":30672:30709   */\n      tag_512\n        /* \"#utility.yul\":30704:30708   */\n      dup7\n        /* \"#utility.yul\":30672:30709   */\n      tag_232\n      jump\t// in\n    tag_512:\n        /* \"#utility.yul\":30731:30732   */\n      0x00\n        /* \"#utility.yul\":30745:30953   */\n    tag_513:\n        /* \"#utility.yul\":30759:30766   */\n      dup3\n        /* \"#utility.yul\":30756:30757   */\n      dup2\n        /* \"#utility.yul\":30753:30767   */\n      lt\n        /* \"#utility.yul\":30745:30953   */\n      iszero\n      tag_515\n      jumpi\n        /* \"#utility.yul\":30838:30847   */\n      dup5\n        /* \"#utility.yul\":30833:30836   */\n      dup10\n        /* \"#utility.yul\":30829:30848   */\n      add\n        /* \"#utility.yul\":30823:30849   */\n      mload\n        /* \"#utility.yul\":30815:30821   */\n      dup3\n        /* \"#utility.yul\":30808:30850   */\n      sstore\n        /* \"#utility.yul\":30889:30890   */\n      0x01\n        /* \"#utility.yul\":30881:30887   */\n      dup3\n        /* \"#utility.yul\":30877:30891   */\n      add\n        /* \"#utility.yul\":30867:30891   */\n      swap2\n      pop\n        /* \"#utility.yul\":30936:30938   */\n      0x20\n        /* \"#utility.yul\":30925:30934   */\n      dup6\n        /* \"#utility.yul\":30921:30939   */\n      add\n        /* \"#utility.yul\":30908:30939   */\n      swap5\n      pop\n        /* \"#utility.yul\":30782:30786   */\n      0x20\n        /* \"#utility.yul\":30779:30780   */\n      dup2\n        /* \"#utility.yul\":30775:30787   */\n      add\n        /* \"#utility.yul\":30770:30787   */\n      swap1\n      pop\n        /* \"#utility.yul\":30745:30953   */\n      jump(tag_513)\n    tag_515:\n        /* \"#utility.yul\":30981:30987   */\n      dup7\n        /* \"#utility.yul\":30972:30979   */\n      dup4\n        /* \"#utility.yul\":30969:30988   */\n      lt\n        /* \"#utility.yul\":30966:31145   */\n      iszero\n      tag_516\n      jumpi\n        /* \"#utility.yul\":31039:31048   */\n      dup5\n        /* \"#utility.yul\":31034:31037   */\n      dup10\n        /* \"#utility.yul\":31030:31049   */\n      add\n        /* \"#utility.yul\":31024:31050   */\n      mload\n        /* \"#utility.yul\":31082:31130   */\n      tag_517\n        /* \"#utility.yul\":31124:31128   */\n      0x1f\n        /* \"#utility.yul\":31116:31122   */\n      dup10\n        /* \"#utility.yul\":31112:31129   */\n      and\n        /* \"#utility.yul\":31101:31110   */\n      dup3\n        /* \"#utility.yul\":31082:31130   */\n      tag_245\n      jump\t// in\n    tag_517:\n        /* \"#utility.yul\":31074:31080   */\n      dup4\n        /* \"#utility.yul\":31067:31131   */\n      sstore\n        /* \"#utility.yul\":30989:31145   */\n      pop\n        /* \"#utility.yul\":30966:31145   */\n    tag_516:\n        /* \"#utility.yul\":31191:31192   */\n      0x01\n        /* \"#utility.yul\":31187:31188   */\n      0x02\n        /* \"#utility.yul\":31179:31185   */\n      dup9\n        /* \"#utility.yul\":31175:31189   */\n      mul\n        /* \"#utility.yul\":31171:31193   */\n      add\n        /* \"#utility.yul\":31165:31169   */\n      dup9\n        /* \"#utility.yul\":31158:31194   */\n      sstore\n        /* \"#utility.yul\":30593:31204   */\n      pop\n      pop\n      pop\n        /* \"#utility.yul\":30556:31443   */\n    tag_508:\n      pop\n        /* \"#utility.yul\":30146:31449   */\n      pop\n      pop\n      pop\n        /* \"#utility.yul\":30054:31449   */\n      pop\n      pop\n      jump\t// out\n        /* \"#utility.yul\":31455:32190   */\n    tag_168:\n        /* \"#utility.yul\":31672:31676   */\n      0x00\n        /* \"#utility.yul\":31710:31713   */\n      0x80\n        /* \"#utility.yul\":31699:31708   */\n      dup3\n        /* \"#utility.yul\":31695:31714   */\n      add\n        /* \"#utility.yul\":31687:31714   */\n      swap1\n      pop\n        /* \"#utility.yul\":31760:31769   */\n      dup2\n        /* \"#utility.yul\":31754:31758   */\n      dup2\n        /* \"#utility.yul\":31750:31770   */\n      sub\n        /* \"#utility.yul\":31746:31747   */\n      0x00\n        /* \"#utility.yul\":31735:31744   */\n      dup4\n        /* \"#utility.yul\":31731:31748   */\n      add\n        /* \"#utility.yul\":31724:31771   */\n      mstore\n        /* \"#utility.yul\":31788:31866   */\n      tag_519\n        /* \"#utility.yul\":31861:31865   */\n      dup2\n        /* \"#utility.yul\":31852:31858   */\n      dup8\n        /* \"#utility.yul\":31788:31866   */\n      tag_183\n      jump\t// in\n    tag_519:\n        /* \"#utility.yul\":31780:31866   */\n      swap1\n      pop\n        /* \"#utility.yul\":31913:31922   */\n      dup2\n        /* \"#utility.yul\":31907:31911   */\n      dup2\n        /* \"#utility.yul\":31903:31923   */\n      sub\n        /* \"#utility.yul\":31898:31900   */\n      0x20\n        /* \"#utility.yul\":31887:31896   */\n      dup4\n        /* \"#utility.yul\":31883:31901   */\n      add\n        /* \"#utility.yul\":31876:31924   */\n      mstore\n        /* \"#utility.yul\":31941:32019   */\n      tag_520\n        /* \"#utility.yul\":32014:32018   */\n      dup2\n        /* \"#utility.yul\":32005:32011   */\n      dup7\n        /* \"#utility.yul\":31941:32019   */\n      tag_183\n      jump\t// in\n    tag_520:\n        /* \"#utility.yul\":31933:32019   */\n      swap1\n      pop\n        /* \"#utility.yul\":32029:32101   */\n      tag_521\n        /* \"#utility.yul\":32097:32099   */\n      0x40\n        /* \"#utility.yul\":32086:32095   */\n      dup4\n        /* \"#utility.yul\":32082:32100   */\n      add\n        /* \"#utility.yul\":32073:32079   */\n      dup6\n        /* \"#utility.yul\":32029:32101   */\n      tag_175\n      jump\t// in\n    tag_521:\n        /* \"#utility.yul\":32111:32183   */\n      tag_522\n        /* \"#utility.yul\":32179:32181   */\n      0x60\n        /* \"#utility.yul\":32168:32177   */\n      dup4\n        /* \"#utility.yul\":32164:32182   */\n      add\n        /* \"#utility.yul\":32155:32161   */\n      dup5\n        /* \"#utility.yul\":32111:32183   */\n      tag_175\n      jump\t// in\n    tag_522:\n        /* \"#utility.yul\":31455:32190   */\n      swap6\n      swap5\n      pop\n      pop\n      pop\n      pop\n      pop\n      jump\t// out\n\n    auxdata: 0xa26469706673582212206104360b0052b721aba086c866732586f4950ceebbff918a2ccb8b5f3368bd2964736f6c634300081e0033\n}\n",
				"bytecode": {
					"linkReferences": {},
					"object": "6080604052348015600e575f5ffd5b506120238061001c5f395ff3fe60806040526004361061009b575f3560e01c806354a5bcc51161006357806354a5bcc51461019e5780635d4e5d78146101c8578063629b2647146102045780636c563abe1461022c57806371eb89f314610248578063f81bf601146102645761009b565b80630dbac1351461009f5780631392ebfe146100dc57806321b2416c14610104578063370c36b4146101465780633b9056bf14610182575b5f5ffd5b3480156100aa575f5ffd5b506100c560048036038101906100c09190610fa7565b61028c565b6040516100d3929190610fe1565b60405180910390f35b3480156100e7575f5ffd5b5061010260048036038101906100fd9190611008565b61036d565b005b34801561010f575f5ffd5b5061012a60048036038101906101259190610fa7565b610465565b60405161013d979695949392919061110f565b60405180910390f35b348015610151575f5ffd5b5061016c60048036038101906101679190610fa7565b6105da565b604051610179919061118a565b60405180910390f35b61019c60048036038101906101979190610fa7565b61061c565b005b3480156101a9575f5ffd5b506101b261074d565b6040516101bf919061118a565b60405180910390f35b3480156101d3575f5ffd5b506101ee60048036038101906101e991906111cd565b610755565b6040516101fb919061118a565b60405180910390f35b34801561020f575f5ffd5b5061022a60048036038101906102259190611008565b610775565b005b61024660048036038101906102419190610fa7565b610838565b005b610262600480360381019061025d9190610fa7565b610b98565b005b34801561026f575f5ffd5b5061028a60048036038101906102859190611337565b610d5e565b005b5f5f5f60015f8581526020019081526020015f209050806003015492505f73ffffffffffffffffffffffffffffffffffffffff16815f015f9054906101000a900473ffffffffffffffffffffffffffffffffffffffff1673ffffffffffffffffffffffffffffffffffffffff1603610339576040517f08c379a000000000000000000000000000000000000000000000000000000000815260040161033090611456565b60405180910390fd5b8060030154816005015410610350575f9150610367565b8060050154816003015461036491906114a1565b91505b50915091565b5f60015f8481526020019081526020015f2090505f8160040154116103c7576040517f08c379a00000000000000000000000000000000000000000000000000000000081526004016103be90611544565b60405180910390fd5b3373ffffffffffffffffffffffffffffffffffffffff16815f015f9054906101000a900473ffffffffffffffffffffffffffffffffffffffff1673ffffffffffffffffffffffffffffffffffffffff1614610457576040517f08c379a000000000000000000000000000000000000000000000000000000000815260040161044e906115f8565b60405180910390fd5b818160030181905550505050565b6001602052805f5260405f205f91509050805f015f9054906101000a900473ffffffffffffffffffffffffffffffffffffffff16908060010180546104a990611643565b80601f01602080910402602001604051908101604052809291908181526020018280546104d590611643565b80156105205780601f106104f757610100808354040283529160200191610520565b820191905f5260205f20905b81548152906001019060200180831161050357829003601f168201915b50505050509080600201805461053590611643565b80601f016020809104026020016040519081016040528092919081815260200182805461056190611643565b80156105ac5780601f10610583576101008083540402835291602001916105ac565b820191905f5260205f20905b81548152906001019060200180831161058f57829003601f168201915b505050505090806003015490806004015490806005015490806006015f9054906101000a900460ff16905087565b5f5f60015f8481526020019081526020015f20905080600401544210610603575f915050610617565b42816004015461061391906114a1565b9150505b919050565b5f60015f8381526020019081526020015f209050806003015481600501541061067a576040517f08c379a0000000000000000000000000000000000000000000000000000000008152600401610671906116e3565b60405180910390fd5b5f60025f8481526020019081526020015f205f3373ffffffffffffffffffffffffffffffffffffffff1673ffffffffffffffffffffffffffffffffffffffff1681526020019081526020015f205490503373ffffffffffffffffffffffffffffffffffffffff166108fc8290811502906040515f60405180830381858888f1935050505015801561070d573d5f5f3e3d5ffd5b50827fb6e4e293b6c7c5cf68fbb52edfaca6173710fcccbcecac03c32e62327fc000c63334604051610740929190611701565b60405180910390a2505050565b5f5f54905090565b6002602052815f5260405f20602052805f5260405f205f91509150505481565b5f60015f8481526020019081526020015f2090503373ffffffffffffffffffffffffffffffffffffffff16815f015f9054906101000a900473ffffffffffffffffffffffffffffffffffffffff1673ffffffffffffffffffffffffffffffffffffffff1614610819576040517f08c379a000000000000000000000000000000000000000000000000000000000815260040161081090611798565b60405180910390fd5b81816004015f82825461082c91906117b6565b92505081905550505050565b5f60015f8381526020019081526020015f2090508060040154421115610893576040517f08c379a000000000000000000000000000000000000000000000000000000000815260040161088a90611833565b60405180910390fd5b806006015f9054906101000a900460ff16156108e4576040517f08c379a00000000000000000000000000000000000000000000000000000000081526004016108db906118c1565b60405180910390fd5b5f3411610926576040517f08c379a000000000000000000000000000000000000000000000000000000000815260040161091d9061194f565b60405180910390fd5b806003015434111561096d576040517f08c379a0000000000000000000000000000000000000000000000000000000008152600401610964906119dd565b60405180910390fd5b80600301548160050154106109b7576040517f08c379a00000000000000000000000000000000000000000000000000000000081526004016109ae90611a45565b60405180910390fd5b5f816005015482600301546109cc91906114a1565b90505f5f823411156109ee5782915082346109e791906114a1565b90506109f5565b3491505f90505b81846005015f828254610a0891906117b6565b925050819055508160025f8781526020019081526020015f205f3373ffffffffffffffffffffffffffffffffffffffff1673ffffffffffffffffffffffffffffffffffffffff1681526020019081526020015f2081905550815f5f828254610a7091906117b6565b925050819055505f811115610b29575f3373ffffffffffffffffffffffffffffffffffffffff1682604051610aa490611a90565b5f6040518083038185875af1925050503d805f8114610ade576040519150601f19603f3d011682016040523d82523d5f602084013e610ae3565b606091505b5050905080610b27576040517f08c379a0000000000000000000000000000000000000000000000000000000008152600401610b1e90611aee565b60405180910390fd5b505b847f7dd983e9d08b449d571f3583275e98423857f3ffbe9ef56f927eb02b1c8ab599338484604051610b5d93929190611b0c565b60405180910390a28360030154846005015410610b91576001846006015f6101000a81548160ff0219169083151502179055505b5050505050565b5f60015f8381526020019081526020015f2090505f81600501549050816006015f9054906101000a900460ff16610c04576040517f08c379a0000000000000000000000000000000000000000000000000000000008152600401610bfb90611bb1565b60405180910390fd5b3373ffffffffffffffffffffffffffffffffffffffff16825f015f9054906101000a900473ffffffffffffffffffffffffffffffffffffffff1673ffffffffffffffffffffffffffffffffffffffff1614610c94576040517f08c379a0000000000000000000000000000000000000000000000000000000008152600401610c8b90611c19565b60405180910390fd5b4282600401541115610cdb576040517f08c379a0000000000000000000000000000000000000000000000000000000008152600401610cd290611ca7565b60405180910390fd5b3373ffffffffffffffffffffffffffffffffffffffff166108fc8290811502906040515f60405180830381858888f19350505050158015610d1e573d5f5f3e3d5ffd5b50827fcae030e1a3c6b0011e7009bd65734e2e1e330528f6983497631fabd47fa7a2813334604051610d51929190611701565b60405180910390a2505050565b60035f8281526020019081526020015f205f9054906101000a900460ff1615610dbc576040517f08c379a0000000000000000000000000000000000000000000000000000000008152600401610db390611d0f565b60405180910390fd5b600160035f8381526020019081526020015f205f6101000a81548160ff0219169083151502179055506040518060e001604052803373ffffffffffffffffffffffffffffffffffffffff1681526020018681526020018581526020018481526020018342610e2a91906117b6565b81526020015f81526020015f151581525060015f8381526020019081526020015f205f820151815f015f6101000a81548173ffffffffffffffffffffffffffffffffffffffff021916908373ffffffffffffffffffffffffffffffffffffffff1602179055506020820151816001019081610ea59190611ecd565b506040820151816002019081610ebb9190611ecd565b50606082015181600301556080820151816004015560a0820151816005015560c0820151816006015f6101000a81548160ff0219169083151502179055509050503373ffffffffffffffffffffffffffffffffffffffff16817fac9b83534845c9e785a6ea70f2d809db1d72ef9a1d981753712d922f5cb55f398787878742610f4491906117b6565b604051610f549493929190611f9c565b60405180910390a35050505050565b5f604051905090565b5f5ffd5b5f5ffd5b5f819050919050565b610f8681610f74565b8114610f90575f5ffd5b50565b5f81359050610fa181610f7d565b92915050565b5f60208284031215610fbc57610fbb610f6c565b5b5f610fc984828501610f93565b91505092915050565b610fdb81610f74565b82525050565b5f604082019050610ff45f830185610fd2565b6110016020830184610fd2565b9392505050565b5f5f6040838503121561101e5761101d610f6c565b5b5f61102b85828601610f93565b925050602061103c85828601610f93565b9150509250929050565b5f73ffffffffffffffffffffffffffffffffffffffff82169050919050565b5f61106f82611046565b9050919050565b61107f81611065565b82525050565b5f81519050919050565b5f82825260208201905092915050565b8281835e5f83830152505050565b5f601f19601f8301169050919050565b5f6110c782611085565b6110d1818561108f565b93506110e181856020860161109f565b6110ea816110ad565b840191505092915050565b5f8115159050919050565b611109816110f5565b82525050565b5f60e0820190506111225f83018a611076565b818103602083015261113481896110bd565b9050818103604083015261114881886110bd565b90506111576060830187610fd2565b6111646080830186610fd2565b61117160a0830185610fd2565b61117e60c0830184611100565b98975050505050505050565b5f60208201905061119d5f830184610fd2565b92915050565b6111ac81611065565b81146111b6575f5ffd5b50565b5f813590506111c7816111a3565b92915050565b5f5f604083850312156111e3576111e2610f6c565b5b5f6111f085828601610f93565b9250506020611201858286016111b9565b9150509250929050565b5f5ffd5b5f5ffd5b7f4e487b71000000000000000000000000000000000000000000000000000000005f52604160045260245ffd5b611249826110ad565b810181811067ffffffffffffffff8211171561126857611267611213565b5b80604052505050565b5f61127a610f63565b90506112868282611240565b919050565b5f67ffffffffffffffff8211156112a5576112a4611213565b5b6112ae826110ad565b9050602081019050919050565b828183375f83830152505050565b5f6112db6112d68461128b565b611271565b9050828152602081018484840111156112f7576112f661120f565b5b6113028482856112bb565b509392505050565b5f82601f83011261131e5761131d61120b565b5b813561132e8482602086016112c9565b91505092915050565b5f5f5f5f5f60a086880312156113505761134f610f6c565b5b5f86013567ffffffffffffffff81111561136d5761136c610f70565b5b6113798882890161130a565b955050602086013567ffffffffffffffff81111561139a57611399610f70565b5b6113a68882890161130a565b94505060406113b788828901610f93565b93505060606113c888828901610f93565b92505060806113d988828901610f93565b9150509295509295909350565b7f70726f6a65637420686173206e6f74206265656e2063726561746564207965745f8201527f2100000000000000000000000000000000000000000000000000000000000000602082015250565b5f61144060218361108f565b915061144b826113e6565b604082019050919050565b5f6020820190508181035f83015261146d81611434565b9050919050565b7f4e487b71000000000000000000000000000000000000000000000000000000005f52601160045260245ffd5b5f6114ab82610f74565b91506114b683610f74565b92508282039050818111156114ce576114cd611474565b5b92915050565b7f446561646c696e65206973206f766572202c20796f752043616e2774206368615f8201527f6e6765207468652066756e64696e6720676f616c202121000000000000000000602082015250565b5f61152e60378361108f565b9150611539826114d4565b604082019050919050565b5f6020820190508181035f83015261155b81611522565b9050919050565b7f596f7520617265206e6f74207468652070726f6a6563742063726561746f72205f8201527f2c204f6e6c7920506f726a6563742063726561746f722063616e204368616e6760208201527f6520212100000000000000000000000000000000000000000000000000000000604082015250565b5f6115e260448361108f565b91506115ed82611562565b606082019050919050565b5f6020820190508181035f83015261160f816115d6565b9050919050565b7f4e487b71000000000000000000000000000000000000000000000000000000005f52602260045260245ffd5b5f600282049050600182168061165a57607f821691505b60208210810361166d5761166c611616565b5b50919050565b7f46756e64696e6720676f616c206861732072656163686564202c2075736572205f8201527f63616e2774207769746864726177000000000000000000000000000000000000602082015250565b5f6116cd602e8361108f565b91506116d882611673565b604082019050919050565b5f6020820190508181035f8301526116fa816116c1565b9050919050565b5f6040820190506117145f830185611076565b6117216020830184610fd2565b9392505050565b7f4f6e6c792050726f6a6563742063726561746f722063616e20657874656e64205f8201527f74686520646561646c696e652121000000000000000000000000000000000000602082015250565b5f611782602e8361108f565b915061178d82611728565b604082019050919050565b5f6020820190508181035f8301526117af81611776565b9050919050565b5f6117c082610f74565b91506117cb83610f74565b92508282019050808211156117e3576117e2611474565b5b92915050565b7f50726f6a65637420646561646c696e65206973206f76657221000000000000005f82015250565b5f61181d60198361108f565b9150611828826117e9565b602082019050919050565b5f6020820190508181035f83015261184a81611811565b9050919050565b7f50726f6a6563742052656163686564206974732046756e64696e6720726571755f8201527f6972656d656e7400000000000000000000000000000000000000000000000000602082015250565b5f6118ab60278361108f565b91506118b682611851565b604082019050919050565b5f6020820190508181035f8301526118d88161189f565b9050919050565b7f73656e6420736f6d6520657468657220746f20636f6e7472696275746520696e5f8201527f207468652070726f6a6563740000000000000000000000000000000000000000602082015250565b5f611939602c8361108f565b9150611944826118df565b604082019050919050565b5f6020820190508181035f8301526119668161192d565b9050919050565b7f416d6f756e7420436f6e7472696275746564206973206d6f7265207468616e205f8201527f476f616c00000000000000000000000000000000000000000000000000000000602082015250565b5f6119c760248361108f565b91506119d28261196d565b604082019050919050565b5f6020820190508181035f8301526119f4816119bb565b9050919050565b7f46756e64696e6720476f616c20697320616c7265616479206d657421210000005f82015250565b5f611a2f601d8361108f565b9150611a3a826119fb565b602082019050919050565b5f6020820190508181035f830152611a5c81611a23565b9050919050565b5f81905092915050565b50565b5f611a7b5f83611a63565b9150611a8682611a6d565b5f82019050919050565b5f611a9a82611a70565b9150819050919050565b7f526566756e64204661696c6564000000000000000000000000000000000000005f82015250565b5f611ad8600d8361108f565b9150611ae382611aa4565b602082019050919050565b5f6020820190508181035f830152611b0581611acc565b9050919050565b5f606082019050611b1f5f830186611076565b611b2c6020830185610fd2565b611b396040830184610fd2565b949350505050565b7f66756e64696e6720676f616c20686173206e6f742072656163686564202c20615f8201527f646d696e2063616e277420776974686472617700000000000000000000000000602082015250565b5f611b9b60338361108f565b9150611ba682611b41565b604082019050919050565b5f6020820190508181035f830152611bc881611b8f565b9050919050565b7f6f6e6c792061646d696e2063616e2077697468647261770000000000000000005f82015250565b5f611c0360178361108f565b9150611c0e82611bcf565b602082019050919050565b5f6020820190508181035f830152611c3081611bf7565b9050919050565b7f646561646c696e6520686173206e6f742072656163686564202c2061646d696e5f8201527f2063616e27742077697468647261770000000000000000000000000000000000602082015250565b5f611c91602f8361108f565b9150611c9c82611c37565b604082019050919050565b5f6020820190508181035f830152611cbe81611c85565b9050919050565b7f50726f6a65637420494420697320616c726561647920696e20757365210000005f82015250565b5f611cf9601d8361108f565b9150611d0482611cc5565b602082019050919050565b5f6020820190508181035f830152611d2681611ced565b9050919050565b5f819050815f5260205f209050919050565b5f6020601f8301049050919050565b5f82821b905092915050565b5f60088302611d897fffffffffffffffffffffffffffffffffffffffffffffffffffffffffffffffff82611d4e565b611d938683611d4e565b95508019841693508086168417925050509392505050565b5f819050919050565b5f611dce611dc9611dc484610f74565b611dab565b610f74565b9050919050565b5f819050919050565b611de783611db4565b611dfb611df382611dd5565b848454611d5a565b825550505050565b5f5f905090565b611e12611e03565b611e1d818484611dde565b505050565b5b81811015611e4057611e355f82611e0a565b600181019050611e23565b5050565b601f821115611e8557611e5681611d2d565b611e5f84611d3f565b81016020851015611e6e578190505b611e82611e7a85611d3f565b830182611e22565b50505b505050565b5f82821c905092915050565b5f611ea55f1984600802611e8a565b1980831691505092915050565b5f611ebd8383611e96565b9150826002028217905092915050565b611ed682611085565b67ffffffffffffffff811115611eef57611eee611213565b5b611ef98254611643565b611f04828285611e44565b5f60209050601f831160018114611f35575f8415611f23578287015190505b611f2d8582611eb2565b865550611f94565b601f198416611f4386611d2d565b5f5b82811015611f6a57848901518255600182019150602085019450602081019050611f45565b86831015611f875784890151611f83601f891682611e96565b8355505b6001600288020188555050505b505050505050565b5f6080820190508181035f830152611fb481876110bd565b90508181036020830152611fc881866110bd565b9050611fd76040830185610fd2565b611fe46060830184610fd2565b9594505050505056fea26469706673582212206104360b0052b721aba086c866732586f4950ceebbff918a2ccb8b5f3368bd2964736f6c634300081e0033",
					"opcodes": "PUSH1 0x80 PUSH1 0x40 MSTORE CALLVALUE DUP1 ISZERO PUSH1 0xE JUMPI PUSH0 PUSH0 REVERT JUMPDEST POP PUSH2 0x2023 DUP1 PUSH2 0x1C PUSH0 CODECOPY PUSH0 RETURN INVALID PUSH1 0x80 PUSH1 0x40 MSTORE PUSH1 0x4 CALLDATASIZE LT PUSH2 0x9B JUMPI PUSH0 CALLDATALOAD PUSH1 0xE0 SHR DUP1 PUSH4 0x54A5BCC5 GT PUSH2 0x63 JUMPI DUP1 PUSH4 0x54A5BCC5 EQ PUSH2 0x19E JUMPI DUP1 PUSH4 0x5D4E5D78 EQ PUSH2 0x1C8 JUMPI DUP1 PUSH4 0x629B2647 EQ PUSH2 0x204 JUMPI DUP1 PUSH4 0x6C563ABE EQ PUSH2 0x22C JUMPI DUP1 PUSH4 0x71EB89F3 EQ PUSH2 0x248 JUMPI DUP1 PUSH4 0xF81BF601 EQ PUSH2 0x264 JUMPI PUSH2 0x9B JUMP JUMPDEST DUP1 PUSH4 0xDBAC135 EQ PUSH2 0x9F JUMPI DUP1 PUSH4 0x1392EBFE EQ PUSH2 0xDC JUMPI DUP1 PUSH4 0x21B2416C EQ PUSH2 0x104 JUMPI DUP1 PUSH4 0x370C36B4 EQ PUSH2 0x146 JUMPI DUP1 PUSH4 0x3B9056BF EQ PUSH2 0x182 JUMPI JUMPDEST PUSH0 PUSH0 REVERT JUMPDEST CALLVALUE DUP1 ISZERO PUSH2 0xAA JUMPI PUSH0 PUSH0 REVERT JUMPDEST POP PUSH2 0xC5 PUSH1 0x4 DUP1 CALLDATASIZE SUB DUP2 ADD SWAP1 PUSH2 0xC0 SWAP2 SWAP1 PUSH2 0xFA7 JUMP JUMPDEST PUSH2 0x28C JUMP JUMPDEST PUSH1 0x40 MLOAD PUSH2 0xD3 SWAP3 SWAP2 SWAP1 PUSH2 0xFE1 JUMP JUMPDEST PUSH1 0x40 MLOAD DUP1 SWAP2 SUB SWAP1 RETURN JUMPDEST CALLVALUE DUP1 ISZERO PUSH2 0xE7 JUMPI PUSH0 PUSH0 REVERT JUMPDEST POP PUSH2 0x102 PUSH1 0x4 DUP1 CALLDATASIZE SUB DUP2 ADD SWAP1 PUSH2 0xFD SWAP2 SWAP1 PUSH2 0x1008 JUMP JUMPDEST PUSH2 0x36D JUMP JUMPDEST STOP JUMPDEST CALLVALUE DUP1 ISZERO PUSH2 0x10F JUMPI PUSH0 PUSH0 REVERT JUMPDEST POP PUSH2 0x12A PUSH1 0x4 DUP1 CALLDATASIZE SUB DUP2 ADD SWAP1 PUSH2 0x125 SWAP2 SWAP1 PUSH2 0xFA7 JUMP JUMPDEST PUSH2 0x465 JUMP JUMPDEST PUSH1 0x40 MLOAD PUSH2 0x13D SWAP8 SWAP7 SWAP6 SWAP5 SWAP4 SWAP3 SWAP2 SWAP1 PUSH2 0x110F JUMP JUMPDEST PUSH1 0x40 MLOAD DUP1 SWAP2 SUB SWAP1 RETURN JUMPDEST CALLVALUE DUP1 ISZERO PUSH2 0x151 JUMPI PUSH0 PUSH0 REVERT JUMPDEST POP PUSH2 0x16C PUSH1 0x4 DUP1 CALLDATASIZE SUB DUP2 ADD SWAP1 PUSH2 0x167 SWAP2 SWAP1 PUSH2 0xFA7 JUMP JUMPDEST PUSH2 0x5DA JUMP JUMPDEST PUSH1 0x40 MLOAD PUSH2 0x179 SWAP2 SWAP1 PUSH2 0x118A JUMP JUMPDEST PUSH1 0x40 MLOAD DUP1 SWAP2 SUB SWAP1 RETURN JUMPDEST PUSH2 0x19C PUSH1 0x4 DUP1 CALLDATASIZE SUB DUP2 ADD SWAP1 PUSH2 0x197 SWAP2 SWAP1 PUSH2 0xFA7 JUMP JUMPDEST PUSH2 0x61C JUMP JUMPDEST STOP JUMPDEST CALLVALUE DUP1 ISZERO PUSH2 0x1A9 JUMPI PUSH0 PUSH0 REVERT JUMPDEST POP PUSH2 0x1B2 PUSH2 0x74D JUMP JUMPDEST PUSH1 0x40 MLOAD PUSH2 0x1BF SWAP2 SWAP1 PUSH2 0x118A JUMP JUMPDEST PUSH1 0x40 MLOAD DUP1 SWAP2 SUB SWAP1 RETURN JUMPDEST CALLVALUE DUP1 ISZERO PUSH2 0x1D3 JUMPI PUSH0 PUSH0 REVERT JUMPDEST POP PUSH2 0x1EE PUSH1 0x4 DUP1 CALLDATASIZE SUB DUP2 ADD SWAP1 PUSH2 0x1E9 SWAP2 SWAP1 PUSH2 0x11CD JUMP JUMPDEST PUSH2 0x755 JUMP JUMPDEST PUSH1 0x40 MLOAD PUSH2 0x1FB SWAP2 SWAP1 PUSH2 0x118A JUMP JUMPDEST PUSH1 0x40 MLOAD DUP1 SWAP2 SUB SWAP1 RETURN JUMPDEST CALLVALUE DUP1 ISZERO PUSH2 0x20F JUMPI PUSH0 PUSH0 REVERT JUMPDEST POP PUSH2 0x22A PUSH1 0x4 DUP1 CALLDATASIZE SUB DUP2 ADD SWAP1 PUSH2 0x225 SWAP2 SWAP1 PUSH2 0x1008 JUMP JUMPDEST PUSH2 0x775 JUMP JUMPDEST STOP JUMPDEST PUSH2 0x246 PUSH1 0x4 DUP1 CALLDATASIZE SUB DUP2 ADD SWAP1 PUSH2 0x241 SWAP2 SWAP1 PUSH2 0xFA7 JUMP JUMPDEST PUSH2 0x838 JUMP JUMPDEST STOP JUMPDEST PUSH2 0x262 PUSH1 0x4 DUP1 CALLDATASIZE SUB DUP2 ADD SWAP1 PUSH2 0x25D SWAP2 SWAP1 PUSH2 0xFA7 JUMP JUMPDEST PUSH2 0xB98 JUMP JUMPDEST STOP JUMPDEST CALLVALUE DUP1 ISZERO PUSH2 0x26F JUMPI PUSH0 PUSH0 REVERT JUMPDEST POP PUSH2 0x28A PUSH1 0x4 DUP1 CALLDATASIZE SUB DUP2 ADD SWAP1 PUSH2 0x285 SWAP2 SWAP1 PUSH2 0x1337 JUMP JUMPDEST PUSH2 0xD5E JUMP JUMPDEST STOP JUMPDEST PUSH0 PUSH0 PUSH0 PUSH1 0x1 PUSH0 DUP6 DUP2 MSTORE PUSH1 0x20 ADD SWAP1 DUP2 MSTORE PUSH1 0x20 ADD PUSH0 KECCAK256 SWAP1 POP DUP1 PUSH1 0x3 ADD SLOAD SWAP3 POP PUSH0 PUSH20 0xFFFFFFFFFFFFFFFFFFFFFFFFFFFFFFFFFFFFFFFF AND DUP2 PUSH0 ADD PUSH0 SWAP1 SLOAD SWAP1 PUSH2 0x100 EXP SWAP1 DIV PUSH20 0xFFFFFFFFFFFFFFFFFFFFFFFFFFFFFFFFFFFFFFFF AND PUSH20 0xFFFFFFFFFFFFFFFFFFFFFFFFFFFFFFFFFFFFFFFF AND SUB PUSH2 0x339 JUMPI PUSH1 0x40 MLOAD PUSH32 0x8C379A000000000000000000000000000000000000000000000000000000000 DUP2 MSTORE PUSH1 0x4 ADD PUSH2 0x330 SWAP1 PUSH2 0x1456 JUMP JUMPDEST PUSH1 0x40 MLOAD DUP1 SWAP2 SUB SWAP1 REVERT JUMPDEST DUP1 PUSH1 0x3 ADD SLOAD DUP2 PUSH1 0x5 ADD SLOAD LT PUSH2 0x350 JUMPI PUSH0 SWAP2 POP PUSH2 0x367 JUMP JUMPDEST DUP1 PUSH1 0x5 ADD SLOAD DUP2 PUSH1 0x3 ADD SLOAD PUSH2 0x364 SWAP2 SWAP1 PUSH2 0x14A1 JUMP JUMPDEST SWAP2 POP JUMPDEST POP SWAP2 POP SWAP2 JUMP JUMPDEST PUSH0 PUSH1 0x1 PUSH0 DUP5 DUP2 MSTORE PUSH1 0x20 ADD SWAP1 DUP2 MSTORE PUSH1 0x20 ADD PUSH0 KECCAK256 SWAP1 POP PUSH0 DUP2 PUSH1 0x4 ADD SLOAD GT PUSH2 0x3C7 JUMPI PUSH1 0x40 MLOAD PUSH32 0x8C379A000000000000000000000000000000000000000000000000000000000 DUP2 MSTORE PUSH1 0x4 ADD PUSH2 0x3BE SWAP1 PUSH2 0x1544 JUMP JUMPDEST PUSH1 0x40 MLOAD DUP1 SWAP2 SUB SWAP1 REVERT JUMPDEST CALLER PUSH20 0xFFFFFFFFFFFFFFFFFFFFFFFFFFFFFFFFFFFFFFFF AND DUP2 PUSH0 ADD PUSH0 SWAP1 SLOAD SWAP1 PUSH2 0x100 EXP SWAP1 DIV PUSH20 0xFFFFFFFFFFFFFFFFFFFFFFFFFFFFFFFFFFFFFFFF AND PUSH20 0xFFFFFFFFFFFFFFFFFFFFFFFFFFFFFFFFFFFFFFFF AND EQ PUSH2 0x457 JUMPI PUSH1 0x40 MLOAD PUSH32 0x8C379A000000000000000000000000000000000000000000000000000000000 DUP2 MSTORE PUSH1 0x4 ADD PUSH2 0x44E SWAP1 PUSH2 0x15F8 JUMP JUMPDEST PUSH1 0x40 MLOAD DUP1 SWAP2 SUB SWAP1 REVERT JUMPDEST DUP2 DUP2 PUSH1 0x3 ADD DUP2 SWAP1 SSTORE POP POP POP POP JUMP JUMPDEST PUSH1 0x1 PUSH1 0x20 MSTORE DUP1 PUSH0 MSTORE PUSH1 0x40 PUSH0 KECCAK256 PUSH0 SWAP2 POP SWAP1 POP DUP1 PUSH0 ADD PUSH0 SWAP1 SLOAD SWAP1 PUSH2 0x100 EXP SWAP1 DIV PUSH20 0xFFFFFFFFFFFFFFFFFFFFFFFFFFFFFFFFFFFFFFFF AND SWAP1 DUP1 PUSH1 0x1 ADD DUP1 SLOAD PUSH2 0x4A9 SWAP1 PUSH2 0x1643 JUMP JUMPDEST DUP1 PUSH1 0x1F ADD PUSH1 0x20 DUP1 SWAP2 DIV MUL PUSH1 0x20 ADD PUSH1 0x40 MLOAD SWAP1 DUP2 ADD PUSH1 0x40 MSTORE DUP1 SWAP3 SWAP2 SWAP1 DUP2 DUP2 MSTORE PUSH1 0x20 ADD DUP3 DUP1 SLOAD PUSH2 0x4D5 SWAP1 PUSH2 0x1643 JUMP JUMPDEST DUP1 ISZERO PUSH2 0x520 JUMPI DUP1 PUSH1 0x1F LT PUSH2 0x4F7 JUMPI PUSH2 0x100 DUP1 DUP4 SLOAD DIV MUL DUP4 MSTORE SWAP2 PUSH1 0x20 ADD SWAP2 PUSH2 0x520 JUMP JUMPDEST DUP3 ADD SWAP2 SWAP1 PUSH0 MSTORE PUSH1 0x20 PUSH0 KECCAK256 SWAP1 JUMPDEST DUP2 SLOAD DUP2 MSTORE SWAP1 PUSH1 0x1 ADD SWAP1 PUSH1 0x20 ADD DUP1 DUP4 GT PUSH2 0x503 JUMPI DUP3 SWAP1 SUB PUSH1 0x1F AND DUP3 ADD SWAP2 JUMPDEST POP POP POP POP POP SWAP1 DUP1 PUSH1 0x2 ADD DUP1 SLOAD PUSH2 0x535 SWAP1 PUSH2 0x1643 JUMP JUMPDEST DUP1 PUSH1 0x1F ADD PUSH1 0x20 DUP1 SWAP2 DIV MUL PUSH1 0x20 ADD PUSH1 0x40 MLOAD SWAP1 DUP2 ADD PUSH1 0x40 MSTORE DUP1 SWAP3 SWAP2 SWAP1 DUP2 DUP2 MSTORE PUSH1 0x20 ADD DUP3 DUP1 SLOAD PUSH2 0x561 SWAP1 PUSH2 0x1643 JUMP JUMPDEST DUP1 ISZERO PUSH2 0x5AC JUMPI DUP1 PUSH1 0x1F LT PUSH2 0x583 JUMPI PUSH2 0x100 DUP1 DUP4 SLOAD DIV MUL DUP4 MSTORE SWAP2 PUSH1 0x20 ADD SWAP2 PUSH2 0x5AC JUMP JUMPDEST DUP3 ADD SWAP2 SWAP1 PUSH0 MSTORE PUSH1 0x20 PUSH0 KECCAK256 SWAP1 JUMPDEST DUP2 SLOAD DUP2 MSTORE SWAP1 PUSH1 0x1 ADD SWAP1 PUSH1 0x20 ADD DUP1 DUP4 GT PUSH2 0x58F JUMPI DUP3 SWAP1 SUB PUSH1 0x1F AND DUP3 ADD SWAP2 JUMPDEST POP POP POP POP POP SWAP1 DUP1 PUSH1 0x3 ADD SLOAD SWAP1 DUP1 PUSH1 0x4 ADD SLOAD SWAP1 DUP1 PUSH1 0x5 ADD SLOAD SWAP1 DUP1 PUSH1 0x6 ADD PUSH0 SWAP1 SLOAD SWAP1 PUSH2 0x100 EXP SWAP1 DIV PUSH1 0xFF AND SWAP1 POP DUP8 JUMP JUMPDEST PUSH0 PUSH0 PUSH1 0x1 PUSH0 DUP5 DUP2 MSTORE PUSH1 0x20 ADD SWAP1 DUP2 MSTORE PUSH1 0x20 ADD PUSH0 KECCAK256 SWAP1 POP DUP1 PUSH1 0x4 ADD SLOAD TIMESTAMP LT PUSH2 0x603 JUMPI PUSH0 SWAP2 POP POP PUSH2 0x617 JUMP JUMPDEST TIMESTAMP DUP2 PUSH1 0x4 ADD SLOAD PUSH2 0x613 SWAP2 SWAP1 PUSH2 0x14A1 JUMP JUMPDEST SWAP2 POP POP JUMPDEST SWAP2 SWAP1 POP JUMP JUMPDEST PUSH0 PUSH1 0x1 PUSH0 DUP4 DUP2 MSTORE PUSH1 0x20 ADD SWAP1 DUP2 MSTORE PUSH1 0x20 ADD PUSH0 KECCAK256 SWAP1 POP DUP1 PUSH1 0x3 ADD SLOAD DUP2 PUSH1 0x5 ADD SLOAD LT PUSH2 0x67A JUMPI PUSH1 0x40 MLOAD PUSH32 0x8C379A000000000000000000000000000000000000000000000000000000000 DUP2 MSTORE PUSH1 0x4 ADD PUSH2 0x671 SWAP1 PUSH2 0x16E3 JUMP JUMPDEST PUSH1 0x40 MLOAD DUP1 SWAP2 SUB SWAP1 REVERT JUMPDEST PUSH0 PUSH1 0x2 PUSH0 DUP5 DUP2 MSTORE PUSH1 0x20 ADD SWAP1 DUP2 MSTORE PUSH1 0x20 ADD PUSH0 KECCAK256 PUSH0 CALLER PUSH20 0xFFFFFFFFFFFFFFFFFFFFFFFFFFFFFFFFFFFFFFFF AND PUSH20 0xFFFFFFFFFFFFFFFFFFFFFFFFFFFFFFFFFFFFFFFF AND DUP2 MSTORE PUSH1 0x20 ADD SWAP1 DUP2 MSTORE PUSH1 0x20 ADD PUSH0 KECCAK256 SLOAD SWAP1 POP CALLER PUSH20 0xFFFFFFFFFFFFFFFFFFFFFFFFFFFFFFFFFFFFFFFF AND PUSH2 0x8FC DUP3 SWAP1 DUP2 ISZERO MUL SWAP1 PUSH1 0x40 MLOAD PUSH0 PUSH1 0x40 MLOAD DUP1 DUP4 SUB DUP2 DUP6 DUP9 DUP9 CALL SWAP4 POP POP POP POP ISZERO DUP1 ISZERO PUSH2 0x70D JUMPI RETURNDATASIZE PUSH0 PUSH0 RETURNDATACOPY RETURNDATASIZE PUSH0 REVERT JUMPDEST POP DUP3 PUSH32 0xB6E4E293B6C7C5CF68FBB52EDFACA6173710FCCCBCECAC03C32E62327FC000C6 CALLER CALLVALUE PUSH1 0x40 MLOAD PUSH2 0x740 SWAP3 SWAP2 SWAP1 PUSH2 0x1701 JUMP JUMPDEST PUSH1 0x40 MLOAD DUP1 SWAP2 SUB SWAP1 LOG2 POP POP POP JUMP JUMPDEST PUSH0 PUSH0 SLOAD SWAP1 POP SWAP1 JUMP JUMPDEST PUSH1 0x2 PUSH1 0x20 MSTORE DUP2 PUSH0 MSTORE PUSH1 0x40 PUSH0 KECCAK256 PUSH1 0x20 MSTORE DUP1 PUSH0 MSTORE PUSH1 0x40 PUSH0 KECCAK256 PUSH0 SWAP2 POP SWAP2 POP POP SLOAD DUP2 JUMP JUMPDEST PUSH0 PUSH1 0x1 PUSH0 DUP5 DUP2 MSTORE PUSH1 0x20 ADD SWAP1 DUP2 MSTORE PUSH1 0x20 ADD PUSH0 KECCAK256 SWAP1 POP CALLER PUSH20 0xFFFFFFFFFFFFFFFFFFFFFFFFFFFFFFFFFFFFFFFF AND DUP2 PUSH0 ADD PUSH0 SWAP1 SLOAD SWAP1 PUSH2 0x100 EXP SWAP1 DIV PUSH20 0xFFFFFFFFFFFFFFFFFFFFFFFFFFFFFFFFFFFFFFFF AND PUSH20 0xFFFFFFFFFFFFFFFFFFFFFFFFFFFFFFFFFFFFFFFF AND EQ PUSH2 0x819 JUMPI PUSH1 0x40 MLOAD PUSH32 0x8C379A000000000000000000000000000000000000000000000000000000000 DUP2 MSTORE PUSH1 0x4 ADD PUSH2 0x810 SWAP1 PUSH2 0x1798 JUMP JUMPDEST PUSH1 0x40 MLOAD DUP1 SWAP2 SUB SWAP1 REVERT JUMPDEST DUP2 DUP2 PUSH1 0x4 ADD PUSH0 DUP3 DUP3 SLOAD PUSH2 0x82C SWAP2 SWAP1 PUSH2 0x17B6 JUMP JUMPDEST SWAP3 POP POP DUP2 SWAP1 SSTORE POP POP POP POP JUMP JUMPDEST PUSH0 PUSH1 0x1 PUSH0 DUP4 DUP2 MSTORE PUSH1 0x20 ADD SWAP1 DUP2 MSTORE PUSH1 0x20 ADD PUSH0 KECCAK256 SWAP1 POP DUP1 PUSH1 0x4 ADD SLOAD TIMESTAMP GT ISZERO PUSH2 0x893 JUMPI PUSH1 0x40 MLOAD PUSH32 0x8C379A000000000000000000000000000000000000000000000000000000000 DUP2 MSTORE PUSH1 0x4 ADD PUSH2 0x88A SWAP1 PUSH2 0x1833 JUMP JUMPDEST PUSH1 0x40 MLOAD DUP1 SWAP2 SUB SWAP1 REVERT JUMPDEST DUP1 PUSH1 0x6 ADD PUSH0 SWAP1 SLOAD SWAP1 PUSH2 0x100 EXP SWAP1 DIV PUSH1 0xFF AND ISZERO PUSH2 0x8E4 JUMPI PUSH1 0x40 MLOAD PUSH32 0x8C379A000000000000000000000000000000000000000000000000000000000 DUP2 MSTORE PUSH1 0x4 ADD PUSH2 0x8DB SWAP1 PUSH2 0x18C1 JUMP JUMPDEST PUSH1 0x40 MLOAD DUP1 SWAP2 SUB SWAP1 REVERT JUMPDEST PUSH0 CALLVALUE GT PUSH2 0x926 JUMPI PUSH1 0x40 MLOAD PUSH32 0x8C379A000000000000000000000000000000000000000000000000000000000 DUP2 MSTORE PUSH1 0x4 ADD PUSH2 0x91D SWAP1 PUSH2 0x194F JUMP JUMPDEST PUSH1 0x40 MLOAD DUP1 SWAP2 SUB SWAP1 REVERT JUMPDEST DUP1 PUSH1 0x3 ADD SLOAD CALLVALUE GT ISZERO PUSH2 0x96D JUMPI PUSH1 0x40 MLOAD PUSH32 0x8C379A000000000000000000000000000000000000000000000000000000000 DUP2 MSTORE PUSH1 0x4 ADD PUSH2 0x964 SWAP1 PUSH2 0x19DD JUMP JUMPDEST PUSH1 0x40 MLOAD DUP1 SWAP2 SUB SWAP1 REVERT JUMPDEST DUP1 PUSH1 0x3 ADD SLOAD DUP2 PUSH1 0x5 ADD SLOAD LT PUSH2 0x9B7 JUMPI PUSH1 0x40 MLOAD PUSH32 0x8C379A000000000000000000000000000000000000000000000000000000000 DUP2 MSTORE PUSH1 0x4 ADD PUSH2 0x9AE SWAP1 PUSH2 0x1A45 JUMP JUMPDEST PUSH1 0x40 MLOAD DUP1 SWAP2 SUB SWAP1 REVERT JUMPDEST PUSH0 DUP2 PUSH1 0x5 ADD SLOAD DUP3 PUSH1 0x3 ADD SLOAD PUSH2 0x9CC SWAP2 SWAP1 PUSH2 0x14A1 JUMP JUMPDEST SWAP1 POP PUSH0 PUSH0 DUP3 CALLVALUE GT ISZERO PUSH2 0x9EE JUMPI DUP3 SWAP2 POP DUP3 CALLVALUE PUSH2 0x9E7 SWAP2 SWAP1 PUSH2 0x14A1 JUMP JUMPDEST SWAP1 POP PUSH2 0x9F5 JUMP JUMPDEST CALLVALUE SWAP2 POP PUSH0 SWAP1 POP JUMPDEST DUP2 DUP5 PUSH1 0x5 ADD PUSH0 DUP3 DUP3 SLOAD PUSH2 0xA08 SWAP2 SWAP1 PUSH2 0x17B6 JUMP JUMPDEST SWAP3 POP POP DUP2 SWAP1 SSTORE POP DUP2 PUSH1 0x2 PUSH0 DUP8 DUP2 MSTORE PUSH1 0x20 ADD SWAP1 DUP2 MSTORE PUSH1 0x20 ADD PUSH0 KECCAK256 PUSH0 CALLER PUSH20 0xFFFFFFFFFFFFFFFFFFFFFFFFFFFFFFFFFFFFFFFF AND PUSH20 0xFFFFFFFFFFFFFFFFFFFFFFFFFFFFFFFFFFFFFFFF AND DUP2 MSTORE PUSH1 0x20 ADD SWAP1 DUP2 MSTORE PUSH1 0x20 ADD PUSH0 KECCAK256 DUP2 SWAP1 SSTORE POP DUP2 PUSH0 PUSH0 DUP3 DUP3 SLOAD PUSH2 0xA70 SWAP2 SWAP1 PUSH2 0x17B6 JUMP JUMPDEST SWAP3 POP POP DUP2 SWAP1 SSTORE POP PUSH0 DUP2 GT ISZERO PUSH2 0xB29 JUMPI PUSH0 CALLER PUSH20 0xFFFFFFFFFFFFFFFFFFFFFFFFFFFFFFFFFFFFFFFF AND DUP3 PUSH1 0x40 MLOAD PUSH2 0xAA4 SWAP1 PUSH2 0x1A90 JUMP JUMPDEST PUSH0 PUSH1 0x40 MLOAD DUP1 DUP4 SUB DUP2 DUP6 DUP8 GAS CALL SWAP3 POP POP POP RETURNDATASIZE DUP1 PUSH0 DUP2 EQ PUSH2 0xADE JUMPI PUSH1 0x40 MLOAD SWAP2 POP PUSH1 0x1F NOT PUSH1 0x3F RETURNDATASIZE ADD AND DUP3 ADD PUSH1 0x40 MSTORE RETURNDATASIZE DUP3 MSTORE RETURNDATASIZE PUSH0 PUSH1 0x20 DUP5 ADD RETURNDATACOPY PUSH2 0xAE3 JUMP JUMPDEST PUSH1 0x60 SWAP2 POP JUMPDEST POP POP SWAP1 POP DUP1 PUSH2 0xB27 JUMPI PUSH1 0x40 MLOAD PUSH32 0x8C379A000000000000000000000000000000000000000000000000000000000 DUP2 MSTORE PUSH1 0x4 ADD PUSH2 0xB1E SWAP1 PUSH2 0x1AEE JUMP JUMPDEST PUSH1 0x40 MLOAD DUP1 SWAP2 SUB SWAP1 REVERT JUMPDEST POP JUMPDEST DUP5 PUSH32 0x7DD983E9D08B449D571F3583275E98423857F3FFBE9EF56F927EB02B1C8AB599 CALLER DUP5 DUP5 PUSH1 0x40 MLOAD PUSH2 0xB5D SWAP4 SWAP3 SWAP2 SWAP1 PUSH2 0x1B0C JUMP JUMPDEST PUSH1 0x40 MLOAD DUP1 SWAP2 SUB SWAP1 LOG2 DUP4 PUSH1 0x3 ADD SLOAD DUP5 PUSH1 0x5 ADD SLOAD LT PUSH2 0xB91 JUMPI PUSH1 0x1 DUP5 PUSH1 0x6 ADD PUSH0 PUSH2 0x100 EXP DUP2 SLOAD DUP2 PUSH1 0xFF MUL NOT AND SWAP1 DUP4 ISZERO ISZERO MUL OR SWAP1 SSTORE POP JUMPDEST POP POP POP POP POP JUMP JUMPDEST PUSH0 PUSH1 0x1 PUSH0 DUP4 DUP2 MSTORE PUSH1 0x20 ADD SWAP1 DUP2 MSTORE PUSH1 0x20 ADD PUSH0 KECCAK256 SWAP1 POP PUSH0 DUP2 PUSH1 0x5 ADD SLOAD SWAP1 POP DUP2 PUSH1 0x6 ADD PUSH0 SWAP1 SLOAD SWAP1 PUSH2 0x100 EXP SWAP1 DIV PUSH1 0xFF AND PUSH2 0xC04 JUMPI PUSH1 0x40 MLOAD PUSH32 0x8C379A000000000000000000000000000000000000000000000000000000000 DUP2 MSTORE PUSH1 0x4 ADD PUSH2 0xBFB SWAP1 PUSH2 0x1BB1 JUMP JUMPDEST PUSH1 0x40 MLOAD DUP1 SWAP2 SUB SWAP1 REVERT JUMPDEST CALLER PUSH20 0xFFFFFFFFFFFFFFFFFFFFFFFFFFFFFFFFFFFFFFFF AND DUP3 PUSH0 ADD PUSH0 SWAP1 SLOAD SWAP1 PUSH2 0x100 EXP SWAP1 DIV PUSH20 0xFFFFFFFFFFFFFFFFFFFFFFFFFFFFFFFFFFFFFFFF AND PUSH20 0xFFFFFFFFFFFFFFFFFFFFFFFFFFFFFFFFFFFFFFFF AND EQ PUSH2 0xC94 JUMPI PUSH1 0x40 MLOAD PUSH32 0x8C379A000000000000000000000000000000000000000000000000000000000 DUP2 MSTORE PUSH1 0x4 ADD PUSH2 0xC8B SWAP1 PUSH2 0x1C19 JUMP JUMPDEST PUSH1 0x40 MLOAD DUP1 SWAP2 SUB SWAP1 REVERT JUMPDEST TIMESTAMP DUP3 PUSH1 0x4 ADD SLOAD GT ISZERO PUSH2 0xCDB JUMPI PUSH1 0x40 MLOAD PUSH32 0x8C379A000000000000000000000000000000000000000000000000000000000 DUP2 MSTORE PUSH1 0x4 ADD PUSH2 0xCD2 SWAP1 PUSH2 0x1CA7 JUMP JUMPDEST PUSH1 0x40 MLOAD DUP1 SWAP2 SUB SWAP1 REVERT JUMPDEST CALLER PUSH20 0xFFFFFFFFFFFFFFFFFFFFFFFFFFFFFFFFFFFFFFFF AND PUSH2 0x8FC DUP3 SWAP1 DUP2 ISZERO MUL SWAP1 PUSH1 0x40 MLOAD PUSH0 PUSH1 0x40 MLOAD DUP1 DUP4 SUB DUP2 DUP6 DUP9 DUP9 CALL SWAP4 POP POP POP POP ISZERO DUP1 ISZERO PUSH2 0xD1E JUMPI RETURNDATASIZE PUSH0 PUSH0 RETURNDATACOPY RETURNDATASIZE PUSH0 REVERT JUMPDEST POP DUP3 PUSH32 0xCAE030E1A3C6B0011E7009BD65734E2E1E330528F6983497631FABD47FA7A281 CALLER CALLVALUE PUSH1 0x40 MLOAD PUSH2 0xD51 SWAP3 SWAP2 SWAP1 PUSH2 0x1701 JUMP JUMPDEST PUSH1 0x40 MLOAD DUP1 SWAP2 SUB SWAP1 LOG2 POP POP POP JUMP JUMPDEST PUSH1 0x3 PUSH0 DUP3 DUP2 MSTORE PUSH1 0x20 ADD SWAP1 DUP2 MSTORE PUSH1 0x20 ADD PUSH0 KECCAK256 PUSH0 SWAP1 SLOAD SWAP1 PUSH2 0x100 EXP SWAP1 DIV PUSH1 0xFF AND ISZERO PUSH2 0xDBC JUMPI PUSH1 0x40 MLOAD PUSH32 0x8C379A000000000000000000000000000000000000000000000000000000000 DUP2 MSTORE PUSH1 0x4 ADD PUSH2 0xDB3 SWAP1 PUSH2 0x1D0F JUMP JUMPDEST PUSH1 0x40 MLOAD DUP1 SWAP2 SUB SWAP1 REVERT JUMPDEST PUSH1 0x1 PUSH1 0x3 PUSH0 DUP4 DUP2 MSTORE PUSH1 0x20 ADD SWAP1 DUP2 MSTORE PUSH1 0x20 ADD PUSH0 KECCAK256 PUSH0 PUSH2 0x100 EXP DUP2 SLOAD DUP2 PUSH1 0xFF MUL NOT AND SWAP1 DUP4 ISZERO ISZERO MUL OR SWAP1 SSTORE POP PUSH1 0x40 MLOAD DUP1 PUSH1 0xE0 ADD PUSH1 0x40 MSTORE DUP1 CALLER PUSH20 0xFFFFFFFFFFFFFFFFFFFFFFFFFFFFFFFFFFFFFFFF AND DUP2 MSTORE PUSH1 0x20 ADD DUP7 DUP2 MSTORE PUSH1 0x20 ADD DUP6 DUP2 MSTORE PUSH1 0x20 ADD DUP5 DUP2 MSTORE PUSH1 0x20 ADD DUP4 TIMESTAMP PUSH2 0xE2A SWAP2 SWAP1 PUSH2 0x17B6 JUMP JUMPDEST DUP2 MSTORE PUSH1 0x20 ADD PUSH0 DUP2 MSTORE PUSH1 0x20 ADD PUSH0 ISZERO ISZERO DUP2 MSTORE POP PUSH1 0x1 PUSH0 DUP4 DUP2 MSTORE PUSH1 0x20 ADD SWAP1 DUP2 MSTORE PUSH1 0x20 ADD PUSH0 KECCAK256 PUSH0 DUP3 ADD MLOAD DUP2 PUSH0 ADD PUSH0 PUSH2 0x100 EXP DUP2 SLOAD DUP2 PUSH20 0xFFFFFFFFFFFFFFFFFFFFFFFFFFFFFFFFFFFFFFFF MUL NOT AND SWAP1 DUP4 PUSH20 0xFFFFFFFFFFFFFFFFFFFFFFFFFFFFFFFFFFFFFFFF AND MUL OR SWAP1 SSTORE POP PUSH1 0x20 DUP3 ADD MLOAD DUP2 PUSH1 0x1 ADD SWAP1 DUP2 PUSH2 0xEA5 SWAP2 SWAP1 PUSH2 0x1ECD JUMP JUMPDEST POP PUSH1 0x40 DUP3 ADD MLOAD DUP2 PUSH1 0x2 ADD SWAP1 DUP2 PUSH2 0xEBB SWAP2 SWAP1 PUSH2 0x1ECD JUMP JUMPDEST POP PUSH1 0x60 DUP3 ADD MLOAD DUP2 PUSH1 0x3 ADD SSTORE PUSH1 0x80 DUP3 ADD MLOAD DUP2 PUSH1 0x4 ADD SSTORE PUSH1 0xA0 DUP3 ADD MLOAD DUP2 PUSH1 0x5 ADD SSTORE PUSH1 0xC0 DUP3 ADD MLOAD DUP2 PUSH1 0x6 ADD PUSH0 PUSH2 0x100 EXP DUP2 SLOAD DUP2 PUSH1 0xFF MUL NOT AND SWAP1 DUP4 ISZERO ISZERO MUL OR SWAP1 SSTORE POP SWAP1 POP POP CALLER PUSH20 0xFFFFFFFFFFFFFFFFFFFFFFFFFFFFFFFFFFFFFFFF AND DUP2 PUSH32 0xAC9B83534845C9E785A6EA70F2D809DB1D72EF9A1D981753712D922F5CB55F39 DUP8 DUP8 DUP8 DUP8 TIMESTAMP PUSH2 0xF44 SWAP2 SWAP1 PUSH2 0x17B6 JUMP JUMPDEST PUSH1 0x40 MLOAD PUSH2 0xF54 SWAP5 SWAP4 SWAP3 SWAP2 SWAP1 PUSH2 0x1F9C JUMP JUMPDEST PUSH1 0x40 MLOAD DUP1 SWAP2 SUB SWAP1 LOG3 POP POP POP POP POP JUMP JUMPDEST PUSH0 PUSH1 0x40 MLOAD SWAP1 POP SWAP1 JUMP JUMPDEST PUSH0 PUSH0 REVERT JUMPDEST PUSH0 PUSH0 REVERT JUMPDEST PUSH0 DUP2 SWAP1 POP SWAP2 SWAP1 POP JUMP JUMPDEST PUSH2 0xF86 DUP2 PUSH2 0xF74 JUMP JUMPDEST DUP2 EQ PUSH2 0xF90 JUMPI PUSH0 PUSH0 REVERT JUMPDEST POP JUMP JUMPDEST PUSH0 DUP2 CALLDATALOAD SWAP1 POP PUSH2 0xFA1 DUP2 PUSH2 0xF7D JUMP JUMPDEST SWAP3 SWAP2 POP POP JUMP JUMPDEST PUSH0 PUSH1 0x20 DUP3 DUP5 SUB SLT ISZERO PUSH2 0xFBC JUMPI PUSH2 0xFBB PUSH2 0xF6C JUMP JUMPDEST JUMPDEST PUSH0 PUSH2 0xFC9 DUP5 DUP3 DUP6 ADD PUSH2 0xF93 JUMP JUMPDEST SWAP2 POP POP SWAP3 SWAP2 POP POP JUMP JUMPDEST PUSH2 0xFDB DUP2 PUSH2 0xF74 JUMP JUMPDEST DUP3 MSTORE POP POP JUMP JUMPDEST PUSH0 PUSH1 0x40 DUP3 ADD SWAP1 POP PUSH2 0xFF4 PUSH0 DUP4 ADD DUP6 PUSH2 0xFD2 JUMP JUMPDEST PUSH2 0x1001 PUSH1 0x20 DUP4 ADD DUP5 PUSH2 0xFD2 JUMP JUMPDEST SWAP4 SWAP3 POP POP POP JUMP JUMPDEST PUSH0 PUSH0 PUSH1 0x40 DUP4 DUP6 SUB SLT ISZERO PUSH2 0x101E JUMPI PUSH2 0x101D PUSH2 0xF6C JUMP JUMPDEST JUMPDEST PUSH0 PUSH2 0x102B DUP6 DUP3 DUP7 ADD PUSH2 0xF93 JUMP JUMPDEST SWAP3 POP POP PUSH1 0x20 PUSH2 0x103C DUP6 DUP3 DUP7 ADD PUSH2 0xF93 JUMP JUMPDEST SWAP2 POP POP SWAP3 POP SWAP3 SWAP1 POP JUMP JUMPDEST PUSH0 PUSH20 0xFFFFFFFFFFFFFFFFFFFFFFFFFFFFFFFFFFFFFFFF DUP3 AND SWAP1 POP SWAP2 SWAP1 POP JUMP JUMPDEST PUSH0 PUSH2 0x106F DUP3 PUSH2 0x1046 JUMP JUMPDEST SWAP1 POP SWAP2 SWAP1 POP JUMP JUMPDEST PUSH2 0x107F DUP2 PUSH2 0x1065 JUMP JUMPDEST DUP3 MSTORE POP POP JUMP JUMPDEST PUSH0 DUP2 MLOAD SWAP1 POP SWAP2 SWAP1 POP JUMP JUMPDEST PUSH0 DUP3 DUP3 MSTORE PUSH1 0x20 DUP3 ADD SWAP1 POP SWAP3 SWAP2 POP POP JUMP JUMPDEST DUP3 DUP2 DUP4 MCOPY PUSH0 DUP4 DUP4 ADD MSTORE POP POP POP JUMP JUMPDEST PUSH0 PUSH1 0x1F NOT PUSH1 0x1F DUP4 ADD AND SWAP1 POP SWAP2 SWAP1 POP JUMP JUMPDEST PUSH0 PUSH2 0x10C7 DUP3 PUSH2 0x1085 JUMP JUMPDEST PUSH2 0x10D1 DUP2 DUP6 PUSH2 0x108F JUMP JUMPDEST SWAP4 POP PUSH2 0x10E1 DUP2 DUP6 PUSH1 0x20 DUP7 ADD PUSH2 0x109F JUMP JUMPDEST PUSH2 0x10EA DUP2 PUSH2 0x10AD JUMP JUMPDEST DUP5 ADD SWAP2 POP POP SWAP3 SWAP2 POP POP JUMP JUMPDEST PUSH0 DUP2 ISZERO ISZERO SWAP1 POP SWAP2 SWAP1 POP JUMP JUMPDEST PUSH2 0x1109 DUP2 PUSH2 0x10F5 JUMP JUMPDEST DUP3 MSTORE POP POP JUMP JUMPDEST PUSH0 PUSH1 0xE0 DUP3 ADD SWAP1 POP PUSH2 0x1122 PUSH0 DUP4 ADD DUP11 PUSH2 0x1076 JUMP JUMPDEST DUP2 DUP2 SUB PUSH1 0x20 DUP4 ADD MSTORE PUSH2 0x1134 DUP2 DUP10 PUSH2 0x10BD JUMP JUMPDEST SWAP1 POP DUP2 DUP2 SUB PUSH1 0x40 DUP4 ADD MSTORE PUSH2 0x1148 DUP2 DUP9 PUSH2 0x10BD JUMP JUMPDEST SWAP1 POP PUSH2 0x1157 PUSH1 0x60 DUP4 ADD DUP8 PUSH2 0xFD2 JUMP JUMPDEST PUSH2 0x1164 PUSH1 0x80 DUP4 ADD DUP7 PUSH2 0xFD2 JUMP JUMPDEST PUSH2 0x1171 PUSH1 0xA0 DUP4 ADD DUP6 PUSH2 0xFD2 JUMP JUMPDEST PUSH2 0x117E PUSH1 0xC0 DUP4 ADD DUP5 PUSH2 0x1100 JUMP JUMPDEST SWAP9 SWAP8 POP POP POP POP POP POP POP POP JUMP JUMPDEST PUSH0 PUSH1 0x20 DUP3 ADD SWAP1 POP PUSH2 0x119D PUSH0 DUP4 ADD DUP5 PUSH2 0xFD2 JUMP JUMPDEST SWAP3 SWAP2 POP POP JUMP JUMPDEST PUSH2 0x11AC DUP2 PUSH2 0x1065 JUMP JUMPDEST DUP2 EQ PUSH2 0x11B6 JUMPI PUSH0 PUSH0 REVERT JUMPDEST POP JUMP JUMPDEST PUSH0 DUP2 CALLDATALOAD SWAP1 POP PUSH2 0x11C7 DUP2 PUSH2 0x11A3 JUMP JUMPDEST SWAP3 SWAP2 POP POP JUMP JUMPDEST PUSH0 PUSH0 PUSH1 0x40 DUP4 DUP6 SUB SLT ISZERO PUSH2 0x11E3 JUMPI PUSH2 0x11E2 PUSH2 0xF6C JUMP JUMPDEST JUMPDEST PUSH0 PUSH2 0x11F0 DUP6 DUP3 DUP7 ADD PUSH2 0xF93 JUMP JUMPDEST SWAP3 POP POP PUSH1 0x20 PUSH2 0x1201 DUP6 DUP3 DUP7 ADD PUSH2 0x11B9 JUMP JUMPDEST SWAP2 POP POP SWAP3 POP SWAP3 SWAP1 POP JUMP JUMPDEST PUSH0 PUSH0 REVERT JUMPDEST PUSH0 PUSH0 REVERT JUMPDEST PUSH32 0x4E487B7100000000000000000000000000000000000000000000000000000000 PUSH0 MSTORE PUSH1 0x41 PUSH1 0x4 MSTORE PUSH1 0x24 PUSH0 REVERT JUMPDEST PUSH2 0x1249 DUP3 PUSH2 0x10AD JUMP JUMPDEST DUP2 ADD DUP2 DUP2 LT PUSH8 0xFFFFFFFFFFFFFFFF DUP3 GT OR ISZERO PUSH2 0x1268 JUMPI PUSH2 0x1267 PUSH2 0x1213 JUMP JUMPDEST JUMPDEST DUP1 PUSH1 0x40 MSTORE POP POP POP JUMP JUMPDEST PUSH0 PUSH2 0x127A PUSH2 0xF63 JUMP JUMPDEST SWAP1 POP PUSH2 0x1286 DUP3 DUP3 PUSH2 0x1240 JUMP JUMPDEST SWAP2 SWAP1 POP JUMP JUMPDEST PUSH0 PUSH8 0xFFFFFFFFFFFFFFFF DUP3 GT ISZERO PUSH2 0x12A5 JUMPI PUSH2 0x12A4 PUSH2 0x1213 JUMP JUMPDEST JUMPDEST PUSH2 0x12AE DUP3 PUSH2 0x10AD JUMP JUMPDEST SWAP1 POP PUSH1 0x20 DUP2 ADD SWAP1 POP SWAP2 SWAP1 POP JUMP JUMPDEST DUP3 DUP2 DUP4 CALLDATACOPY PUSH0 DUP4 DUP4 ADD MSTORE POP POP POP JUMP JUMPDEST PUSH0 PUSH2 0x12DB PUSH2 0x12D6 DUP5 PUSH2 0x128B JUMP JUMPDEST PUSH2 0x1271 JUMP JUMPDEST SWAP1 POP DUP3 DUP2 MSTORE PUSH1 0x20 DUP2 ADD DUP5 DUP5 DUP5 ADD GT ISZERO PUSH2 0x12F7 JUMPI PUSH2 0x12F6 PUSH2 0x120F JUMP JUMPDEST JUMPDEST PUSH2 0x1302 DUP5 DUP3 DUP6 PUSH2 0x12BB JUMP JUMPDEST POP SWAP4 SWAP3 POP POP POP JUMP JUMPDEST PUSH0 DUP3 PUSH1 0x1F DUP4 ADD SLT PUSH2 0x131E JUMPI PUSH2 0x131D PUSH2 0x120B JUMP JUMPDEST JUMPDEST DUP2 CALLDATALOAD PUSH2 0x132E DUP5 DUP3 PUSH1 0x20 DUP7 ADD PUSH2 0x12C9 JUMP JUMPDEST SWAP2 POP POP SWAP3 SWAP2 POP POP JUMP JUMPDEST PUSH0 PUSH0 PUSH0 PUSH0 PUSH0 PUSH1 0xA0 DUP7 DUP9 SUB SLT ISZERO PUSH2 0x1350 JUMPI PUSH2 0x134F PUSH2 0xF6C JUMP JUMPDEST JUMPDEST PUSH0 DUP7 ADD CALLDATALOAD PUSH8 0xFFFFFFFFFFFFFFFF DUP2 GT ISZERO PUSH2 0x136D JUMPI PUSH2 0x136C PUSH2 0xF70 JUMP JUMPDEST JUMPDEST PUSH2 0x1379 DUP9 DUP3 DUP10 ADD PUSH2 0x130A JUMP JUMPDEST SWAP6 POP POP PUSH1 0x20 DUP7 ADD CALLDATALOAD PUSH8 0xFFFFFFFFFFFFFFFF DUP2 GT ISZERO PUSH2 0x139A JUMPI PUSH2 0x1399 PUSH2 0xF70 JUMP JUMPDEST JUMPDEST PUSH2 0x13A6 DUP9 DUP3 DUP10 ADD PUSH2 0x130A JUMP JUMPDEST SWAP5 POP POP PUSH1 0x40 PUSH2 0x13B7 DUP9 DUP3 DUP10 ADD PUSH2 0xF93 JUMP JUMPDEST SWAP4 POP POP PUSH1 0x60 PUSH2 0x13C8 DUP9 DUP3 DUP10 ADD PUSH2 0xF93 JUMP JUMPDEST SWAP3 POP POP PUSH1 0x80 PUSH2 0x13D9 DUP9 DUP3 DUP10 ADD PUSH2 0xF93 JUMP JUMPDEST SWAP2 POP POP SWAP3 SWAP6 POP SWAP3 SWAP6 SWAP1 SWAP4 POP JUMP JUMPDEST PUSH32 0x70726F6A65637420686173206E6F74206265656E206372656174656420796574 PUSH0 DUP3 ADD MSTORE PUSH32 0x2100000000000000000000000000000000000000000000000000000000000000 PUSH1 0x20 DUP3 ADD MSTORE POP JUMP JUMPDEST PUSH0 PUSH2 0x1440 PUSH1 0x21 DUP4 PUSH2 0x108F JUMP JUMPDEST SWAP2 POP PUSH2 0x144B DUP3 PUSH2 0x13E6 JUMP JUMPDEST PUSH1 0x40 DUP3 ADD SWAP1 POP SWAP2 SWAP1 POP JUMP JUMPDEST PUSH0 PUSH1 0x20 DUP3 ADD SWAP1 POP DUP2 DUP2 SUB PUSH0 DUP4 ADD MSTORE PUSH2 0x146D DUP2 PUSH2 0x1434 JUMP JUMPDEST SWAP1 POP SWAP2 SWAP1 POP JUMP JUMPDEST PUSH32 0x4E487B7100000000000000000000000000000000000000000000000000000000 PUSH0 MSTORE PUSH1 0x11 PUSH1 0x4 MSTORE PUSH1 0x24 PUSH0 REVERT JUMPDEST PUSH0 PUSH2 0x14AB DUP3 PUSH2 0xF74 JUMP JUMPDEST SWAP2 POP PUSH2 0x14B6 DUP4 PUSH2 0xF74 JUMP JUMPDEST SWAP3 POP DUP3 DUP3 SUB SWAP1 POP DUP2 DUP2 GT ISZERO PUSH2 0x14CE JUMPI PUSH2 0x14CD PUSH2 0x1474 JUMP JUMPDEST JUMPDEST SWAP3 SWAP2 POP POP JUMP JUMPDEST PUSH32 0x446561646C696E65206973206F766572202C20796F752043616E277420636861 PUSH0 DUP3 ADD MSTORE PUSH32 0x6E6765207468652066756E64696E6720676F616C202121000000000000000000 PUSH1 0x20 DUP3 ADD MSTORE POP JUMP JUMPDEST PUSH0 PUSH2 0x152E PUSH1 0x37 DUP4 PUSH2 0x108F JUMP JUMPDEST SWAP2 POP PUSH2 0x1539 DUP3 PUSH2 0x14D4 JUMP JUMPDEST PUSH1 0x40 DUP3 ADD SWAP1 POP SWAP2 SWAP1 POP JUMP JUMPDEST PUSH0 PUSH1 0x20 DUP3 ADD SWAP1 POP DUP2 DUP2 SUB PUSH0 DUP4 ADD MSTORE PUSH2 0x155B DUP2 PUSH2 0x1522 JUMP JUMPDEST SWAP1 POP SWAP2 SWAP1 POP JUMP JUMPDEST PUSH32 0x596F7520617265206E6F74207468652070726F6A6563742063726561746F7220 PUSH0 DUP3 ADD MSTORE PUSH32 0x2C204F6E6C7920506F726A6563742063726561746F722063616E204368616E67 PUSH1 0x20 DUP3 ADD MSTORE PUSH32 0x6520212100000000000000000000000000000000000000000000000000000000 PUSH1 0x40 DUP3 ADD MSTORE POP JUMP JUMPDEST PUSH0 PUSH2 0x15E2 PUSH1 0x44 DUP4 PUSH2 0x108F JUMP JUMPDEST SWAP2 POP PUSH2 0x15ED DUP3 PUSH2 0x1562 JUMP JUMPDEST PUSH1 0x60 DUP3 ADD SWAP1 POP SWAP2 SWAP1 POP JUMP JUMPDEST PUSH0 PUSH1 0x20 DUP3 ADD SWAP1 POP DUP2 DUP2 SUB PUSH0 DUP4 ADD MSTORE PUSH2 0x160F DUP2 PUSH2 0x15D6 JUMP JUMPDEST SWAP1 POP SWAP2 SWAP1 POP JUMP JUMPDEST PUSH32 0x4E487B7100000000000000000000000000000000000000000000000000000000 PUSH0 MSTORE PUSH1 0x22 PUSH1 0x4 MSTORE PUSH1 0x24 PUSH0 REVERT JUMPDEST PUSH0 PUSH1 0x2 DUP3 DIV SWAP1 POP PUSH1 0x1 DUP3 AND DUP1 PUSH2 0x165A JUMPI PUSH1 0x7F DUP3 AND SWAP2 POP JUMPDEST PUSH1 0x20 DUP3 LT DUP2 SUB PUSH2 0x166D JUMPI PUSH2 0x166C PUSH2 0x1616 JUMP JUMPDEST JUMPDEST POP SWAP2 SWAP1 POP JUMP JUMPDEST PUSH32 0x46756E64696E6720676F616C206861732072656163686564202C207573657220 PUSH0 DUP3 ADD MSTORE PUSH32 0x63616E2774207769746864726177000000000000000000000000000000000000 PUSH1 0x20 DUP3 ADD MSTORE POP JUMP JUMPDEST PUSH0 PUSH2 0x16CD PUSH1 0x2E DUP4 PUSH2 0x108F JUMP JUMPDEST SWAP2 POP PUSH2 0x16D8 DUP3 PUSH2 0x1673 JUMP JUMPDEST PUSH1 0x40 DUP3 ADD SWAP1 POP SWAP2 SWAP1 POP JUMP JUMPDEST PUSH0 PUSH1 0x20 DUP3 ADD SWAP1 POP DUP2 DUP2 SUB PUSH0 DUP4 ADD MSTORE PUSH2 0x16FA DUP2 PUSH2 0x16C1 JUMP JUMPDEST SWAP1 POP SWAP2 SWAP1 POP JUMP JUMPDEST PUSH0 PUSH1 0x40 DUP3 ADD SWAP1 POP PUSH2 0x1714 PUSH0 DUP4 ADD DUP6 PUSH2 0x1076 JUMP JUMPDEST PUSH2 0x1721 PUSH1 0x20 DUP4 ADD DUP5 PUSH2 0xFD2 JUMP JUMPDEST SWAP4 SWAP3 POP POP POP JUMP JUMPDEST PUSH32 0x4F6E6C792050726F6A6563742063726561746F722063616E20657874656E6420 PUSH0 DUP3 ADD MSTORE PUSH32 0x74686520646561646C696E652121000000000000000000000000000000000000 PUSH1 0x20 DUP3 ADD MSTORE POP JUMP JUMPDEST PUSH0 PUSH2 0x1782 PUSH1 0x2E DUP4 PUSH2 0x108F JUMP JUMPDEST SWAP2 POP PUSH2 0x178D DUP3 PUSH2 0x1728 JUMP JUMPDEST PUSH1 0x40 DUP3 ADD SWAP1 POP SWAP2 SWAP1 POP JUMP JUMPDEST PUSH0 PUSH1 0x20 DUP3 ADD SWAP1 POP DUP2 DUP2 SUB PUSH0 DUP4 ADD MSTORE PUSH2 0x17AF DUP2 PUSH2 0x1776 JUMP JUMPDEST SWAP1 POP SWAP2 SWAP1 POP JUMP JUMPDEST PUSH0 PUSH2 0x17C0 DUP3 PUSH2 0xF74 JUMP JUMPDEST SWAP2 POP PUSH2 0x17CB DUP4 PUSH2 0xF74 JUMP JUMPDEST SWAP3 POP DUP3 DUP3 ADD SWAP1 POP DUP1 DUP3 GT ISZERO PUSH2 0x17E3 JUMPI PUSH2 0x17E2 PUSH2 0x1474 JUMP JUMPDEST JUMPDEST SWAP3 SWAP2 POP POP JUMP JUMPDEST PUSH32 0x50726F6A65637420646561646C696E65206973206F7665722100000000000000 PUSH0 DUP3 ADD MSTORE POP JUMP JUMPDEST PUSH0 PUSH2 0x181D PUSH1 0x19 DUP4 PUSH2 0x108F JUMP JUMPDEST SWAP2 POP PUSH2 0x1828 DUP3 PUSH2 0x17E9 JUMP JUMPDEST PUSH1 0x20 DUP3 ADD SWAP1 POP SWAP2 SWAP1 POP JUMP JUMPDEST PUSH0 PUSH1 0x20 DUP3 ADD SWAP1 POP DUP2 DUP2 SUB PUSH0 DUP4 ADD MSTORE PUSH2 0x184A DUP2 PUSH2 0x1811 JUMP JUMPDEST SWAP1 POP SWAP2 SWAP1 POP JUMP JUMPDEST PUSH32 0x50726F6A6563742052656163686564206974732046756E64696E672072657175 PUSH0 DUP3 ADD MSTORE PUSH32 0x6972656D656E7400000000000000000000000000000000000000000000000000 PUSH1 0x20 DUP3 ADD MSTORE POP JUMP JUMPDEST PUSH0 PUSH2 0x18AB PUSH1 0x27 DUP4 PUSH2 0x108F JUMP JUMPDEST SWAP2 POP PUSH2 0x18B6 DUP3 PUSH2 0x1851 JUMP JUMPDEST PUSH1 0x40 DUP3 ADD SWAP1 POP SWAP2 SWAP1 POP JUMP JUMPDEST PUSH0 PUSH1 0x20 DUP3 ADD SWAP1 POP DUP2 DUP2 SUB PUSH0 DUP4 ADD MSTORE PUSH2 0x18D8 DUP2 PUSH2 0x189F JUMP JUMPDEST SWAP1 POP SWAP2 SWAP1 POP JUMP JUMPDEST PUSH32 0x73656E6420736F6D6520657468657220746F20636F6E7472696275746520696E PUSH0 DUP3 ADD MSTORE PUSH32 0x207468652070726F6A6563740000000000000000000000000000000000000000 PUSH1 0x20 DUP3 ADD MSTORE POP JUMP JUMPDEST PUSH0 PUSH2 0x1939 PUSH1 0x2C DUP4 PUSH2 0x108F JUMP JUMPDEST SWAP2 POP PUSH2 0x1944 DUP3 PUSH2 0x18DF JUMP JUMPDEST PUSH1 0x40 DUP3 ADD SWAP1 POP SWAP2 SWAP1 POP JUMP JUMPDEST PUSH0 PUSH1 0x20 DUP3 ADD SWAP1 POP DUP2 DUP2 SUB PUSH0 DUP4 ADD MSTORE PUSH2 0x1966 DUP2 PUSH2 0x192D JUMP JUMPDEST SWAP1 POP SWAP2 SWAP1 POP JUMP JUMPDEST PUSH32 0x416D6F756E7420436F6E7472696275746564206973206D6F7265207468616E20 PUSH0 DUP3 ADD MSTORE PUSH32 0x476F616C00000000000000000000000000000000000000000000000000000000 PUSH1 0x20 DUP3 ADD MSTORE POP JUMP JUMPDEST PUSH0 PUSH2 0x19C7 PUSH1 0x24 DUP4 PUSH2 0x108F JUMP JUMPDEST SWAP2 POP PUSH2 0x19D2 DUP3 PUSH2 0x196D JUMP JUMPDEST PUSH1 0x40 DUP3 ADD SWAP1 POP SWAP2 SWAP1 POP JUMP JUMPDEST PUSH0 PUSH1 0x20 DUP3 ADD SWAP1 POP DUP2 DUP2 SUB PUSH0 DUP4 ADD MSTORE PUSH2 0x19F4 DUP2 PUSH2 0x19BB JUMP JUMPDEST SWAP1 POP SWAP2 SWAP1 POP JUMP JUMPDEST PUSH32 0x46756E64696E6720476F616C20697320616C7265616479206D65742121000000 PUSH0 DUP3 ADD MSTORE POP JUMP JUMPDEST PUSH0 PUSH2 0x1A2F PUSH1 0x1D DUP4 PUSH2 0x108F JUMP JUMPDEST SWAP2 POP PUSH2 0x1A3A DUP3 PUSH2 0x19FB JUMP JUMPDEST PUSH1 0x20 DUP3 ADD SWAP1 POP SWAP2 SWAP1 POP JUMP JUMPDEST PUSH0 PUSH1 0x20 DUP3 ADD SWAP1 POP DUP2 DUP2 SUB PUSH0 DUP4 ADD MSTORE PUSH2 0x1A5C DUP2 PUSH2 0x1A23 JUMP JUMPDEST SWAP1 POP SWAP2 SWAP1 POP JUMP JUMPDEST PUSH0 DUP2 SWAP1 POP SWAP3 SWAP2 POP POP JUMP JUMPDEST POP JUMP JUMPDEST PUSH0 PUSH2 0x1A7B PUSH0 DUP4 PUSH2 0x1A63 JUMP JUMPDEST SWAP2 POP PUSH2 0x1A86 DUP3 PUSH2 0x1A6D JUMP JUMPDEST PUSH0 DUP3 ADD SWAP1 POP SWAP2 SWAP1 POP JUMP JUMPDEST PUSH0 PUSH2 0x1A9A DUP3 PUSH2 0x1A70 JUMP JUMPDEST SWAP2 POP DUP2 SWAP1 POP SWAP2 SWAP1 POP JUMP JUMPDEST PUSH32 0x526566756E64204661696C656400000000000000000000000000000000000000 PUSH0 DUP3 ADD MSTORE POP JUMP JUMPDEST PUSH0 PUSH2 0x1AD8 PUSH1 0xD DUP4 PUSH2 0x108F JUMP JUMPDEST SWAP2 POP PUSH2 0x1AE3 DUP3 PUSH2 0x1AA4 JUMP JUMPDEST PUSH1 0x20 DUP3 ADD SWAP1 POP SWAP2 SWAP1 POP JUMP JUMPDEST PUSH0 PUSH1 0x20 DUP3 ADD SWAP1 POP DUP2 DUP2 SUB PUSH0 DUP4 ADD MSTORE PUSH2 0x1B05 DUP2 PUSH2 0x1ACC JUMP JUMPDEST SWAP1 POP SWAP2 SWAP1 POP JUMP JUMPDEST PUSH0 PUSH1 0x60 DUP3 ADD SWAP1 POP PUSH2 0x1B1F PUSH0 DUP4 ADD DUP7 PUSH2 0x1076 JUMP JUMPDEST PUSH2 0x1B2C PUSH1 0x20 DUP4 ADD DUP6 PUSH2 0xFD2 JUMP JUMPDEST PUSH2 0x1B39 PUSH1 0x40 DUP4 ADD DUP5 PUSH2 0xFD2 JUMP JUMPDEST SWAP5 SWAP4 POP POP POP POP JUMP JUMPDEST PUSH32 0x66756E64696E6720676F616C20686173206E6F742072656163686564202C2061 PUSH0 DUP3 ADD MSTORE PUSH32 0x646D696E2063616E277420776974686472617700000000000000000000000000 PUSH1 0x20 DUP3 ADD MSTORE POP JUMP JUMPDEST PUSH0 PUSH2 0x1B9B PUSH1 0x33 DUP4 PUSH2 0x108F JUMP JUMPDEST SWAP2 POP PUSH2 0x1BA6 DUP3 PUSH2 0x1B41 JUMP JUMPDEST PUSH1 0x40 DUP3 ADD SWAP1 POP SWAP2 SWAP1 POP JUMP JUMPDEST PUSH0 PUSH1 0x20 DUP3 ADD SWAP1 POP DUP2 DUP2 SUB PUSH0 DUP4 ADD MSTORE PUSH2 0x1BC8 DUP2 PUSH2 0x1B8F JUMP JUMPDEST SWAP1 POP SWAP2 SWAP1 POP JUMP JUMPDEST PUSH32 0x6F6E6C792061646D696E2063616E207769746864726177000000000000000000 PUSH0 DUP3 ADD MSTORE POP JUMP JUMPDEST PUSH0 PUSH2 0x1C03 PUSH1 0x17 DUP4 PUSH2 0x108F JUMP JUMPDEST SWAP2 POP PUSH2 0x1C0E DUP3 PUSH2 0x1BCF JUMP JUMPDEST PUSH1 0x20 DUP3 ADD SWAP1 POP SWAP2 SWAP1 POP JUMP JUMPDEST PUSH0 PUSH1 0x20 DUP3 ADD SWAP1 POP DUP2 DUP2 SUB PUSH0 DUP4 ADD MSTORE PUSH2 0x1C30 DUP2 PUSH2 0x1BF7 JUMP JUMPDEST SWAP1 POP SWAP2 SWAP1 POP JUMP JUMPDEST PUSH32 0x646561646C696E6520686173206E6F742072656163686564202C2061646D696E PUSH0 DUP3 ADD MSTORE PUSH32 0x2063616E27742077697468647261770000000000000000000000000000000000 PUSH1 0x20 DUP3 ADD MSTORE POP JUMP JUMPDEST PUSH0 PUSH2 0x1C91 PUSH1 0x2F DUP4 PUSH2 0x108F JUMP JUMPDEST SWAP2 POP PUSH2 0x1C9C DUP3 PUSH2 0x1C37 JUMP JUMPDEST PUSH1 0x40 DUP3 ADD SWAP1 POP SWAP2 SWAP1 POP JUMP JUMPDEST PUSH0 PUSH1 0x20 DUP3 ADD SWAP1 POP DUP2 DUP2 SUB PUSH0 DUP4 ADD MSTORE PUSH2 0x1CBE DUP2 PUSH2 0x1C85 JUMP JUMPDEST SWAP1 POP SWAP2 SWAP1 POP JUMP JUMPDEST PUSH32 0x50726F6A65637420494420697320616C726561647920696E2075736521000000 PUSH0 DUP3 ADD MSTORE POP JUMP JUMPDEST PUSH0 PUSH2 0x1CF9 PUSH1 0x1D DUP4 PUSH2 0x108F JUMP JUMPDEST SWAP2 POP PUSH2 0x1D04 DUP3 PUSH2 0x1CC5 JUMP JUMPDEST PUSH1 0x20 DUP3 ADD SWAP1 POP SWAP2 SWAP1 POP JUMP JUMPDEST PUSH0 PUSH1 0x20 DUP3 ADD SWAP1 POP DUP2 DUP2 SUB PUSH0 DUP4 ADD MSTORE PUSH2 0x1D26 DUP2 PUSH2 0x1CED JUMP JUMPDEST SWAP1 POP SWAP2 SWAP1 POP JUMP JUMPDEST PUSH0 DUP2 SWAP1 POP DUP2 PUSH0 MSTORE PUSH1 0x20 PUSH0 KECCAK256 SWAP1 POP SWAP2 SWAP1 POP JUMP JUMPDEST PUSH0 PUSH1 0x20 PUSH1 0x1F DUP4 ADD DIV SWAP1 POP SWAP2 SWAP1 POP JUMP JUMPDEST PUSH0 DUP3 DUP3 SHL SWAP1 POP SWAP3 SWAP2 POP POP JUMP JUMPDEST PUSH0 PUSH1 0x8 DUP4 MUL PUSH2 0x1D89 PUSH32 0xFFFFFFFFFFFFFFFFFFFFFFFFFFFFFFFFFFFFFFFFFFFFFFFFFFFFFFFFFFFFFFFF DUP3 PUSH2 0x1D4E JUMP JUMPDEST PUSH2 0x1D93 DUP7 DUP4 PUSH2 0x1D4E JUMP JUMPDEST SWAP6 POP DUP1 NOT DUP5 AND SWAP4 POP DUP1 DUP7 AND DUP5 OR SWAP3 POP POP POP SWAP4 SWAP3 POP POP POP JUMP JUMPDEST PUSH0 DUP2 SWAP1 POP SWAP2 SWAP1 POP JUMP JUMPDEST PUSH0 PUSH2 0x1DCE PUSH2 0x1DC9 PUSH2 0x1DC4 DUP5 PUSH2 0xF74 JUMP JUMPDEST PUSH2 0x1DAB JUMP JUMPDEST PUSH2 0xF74 JUMP JUMPDEST SWAP1 POP SWAP2 SWAP1 POP JUMP JUMPDEST PUSH0 DUP2 SWAP1 POP SWAP2 SWAP1 POP JUMP JUMPDEST PUSH2 0x1DE7 DUP4 PUSH2 0x1DB4 JUMP JUMPDEST PUSH2 0x1DFB PUSH2 0x1DF3 DUP3 PUSH2 0x1DD5 JUMP JUMPDEST DUP5 DUP5 SLOAD PUSH2 0x1D5A JUMP JUMPDEST DUP3 SSTORE POP POP POP POP JUMP JUMPDEST PUSH0 PUSH0 SWAP1 POP SWAP1 JUMP JUMPDEST PUSH2 0x1E12 PUSH2 0x1E03 JUMP JUMPDEST PUSH2 0x1E1D DUP2 DUP5 DUP5 PUSH2 0x1DDE JUMP JUMPDEST POP POP POP JUMP JUMPDEST JUMPDEST DUP2 DUP2 LT ISZERO PUSH2 0x1E40 JUMPI PUSH2 0x1E35 PUSH0 DUP3 PUSH2 0x1E0A JUMP JUMPDEST PUSH1 0x1 DUP2 ADD SWAP1 POP PUSH2 0x1E23 JUMP JUMPDEST POP POP JUMP JUMPDEST PUSH1 0x1F DUP3 GT ISZERO PUSH2 0x1E85 JUMPI PUSH2 0x1E56 DUP2 PUSH2 0x1D2D JUMP JUMPDEST PUSH2 0x1E5F DUP5 PUSH2 0x1D3F JUMP JUMPDEST DUP2 ADD PUSH1 0x20 DUP6 LT ISZERO PUSH2 0x1E6E JUMPI DUP2 SWAP1 POP JUMPDEST PUSH2 0x1E82 PUSH2 0x1E7A DUP6 PUSH2 0x1D3F JUMP JUMPDEST DUP4 ADD DUP3 PUSH2 0x1E22 JUMP JUMPDEST POP POP JUMPDEST POP POP POP JUMP JUMPDEST PUSH0 DUP3 DUP3 SHR SWAP1 POP SWAP3 SWAP2 POP POP JUMP JUMPDEST PUSH0 PUSH2 0x1EA5 PUSH0 NOT DUP5 PUSH1 0x8 MUL PUSH2 0x1E8A JUMP JUMPDEST NOT DUP1 DUP4 AND SWAP2 POP POP SWAP3 SWAP2 POP POP JUMP JUMPDEST PUSH0 PUSH2 0x1EBD DUP4 DUP4 PUSH2 0x1E96 JUMP JUMPDEST SWAP2 POP DUP3 PUSH1 0x2 MUL DUP3 OR SWAP1 POP SWAP3 SWAP2 POP POP JUMP JUMPDEST PUSH2 0x1ED6 DUP3 PUSH2 0x1085 JUMP JUMPDEST PUSH8 0xFFFFFFFFFFFFFFFF DUP2 GT ISZERO PUSH2 0x1EEF JUMPI PUSH2 0x1EEE PUSH2 0x1213 JUMP JUMPDEST JUMPDEST PUSH2 0x1EF9 DUP3 SLOAD PUSH2 0x1643 JUMP JUMPDEST PUSH2 0x1F04 DUP3 DUP3 DUP6 PUSH2 0x1E44 JUMP JUMPDEST PUSH0 PUSH1 0x20 SWAP1 POP PUSH1 0x1F DUP4 GT PUSH1 0x1 DUP2 EQ PUSH2 0x1F35 JUMPI PUSH0 DUP5 ISZERO PUSH2 0x1F23 JUMPI DUP3 DUP8 ADD MLOAD SWAP1 POP JUMPDEST PUSH2 0x1F2D DUP6 DUP3 PUSH2 0x1EB2 JUMP JUMPDEST DUP7 SSTORE POP PUSH2 0x1F94 JUMP JUMPDEST PUSH1 0x1F NOT DUP5 AND PUSH2 0x1F43 DUP7 PUSH2 0x1D2D JUMP JUMPDEST PUSH0 JUMPDEST DUP3 DUP2 LT ISZERO PUSH2 0x1F6A JUMPI DUP5 DUP10 ADD MLOAD DUP3 SSTORE PUSH1 0x1 DUP3 ADD SWAP2 POP PUSH1 0x20 DUP6 ADD SWAP5 POP PUSH1 0x20 DUP2 ADD SWAP1 POP PUSH2 0x1F45 JUMP JUMPDEST DUP7 DUP4 LT ISZERO PUSH2 0x1F87 JUMPI DUP5 DUP10 ADD MLOAD PUSH2 0x1F83 PUSH1 0x1F DUP10 AND DUP3 PUSH2 0x1E96 JUMP JUMPDEST DUP4 SSTORE POP JUMPDEST PUSH1 0x1 PUSH1 0x2 DUP9 MUL ADD DUP9 SSTORE POP POP POP JUMPDEST POP POP POP POP POP POP JUMP JUMPDEST PUSH0 PUSH1 0x80 DUP3 ADD SWAP1 POP DUP2 DUP2 SUB PUSH0 DUP4 ADD MSTORE PUSH2 0x1FB4 DUP2 DUP8 PUSH2 0x10BD JUMP JUMPDEST SWAP1 POP DUP2 DUP2 SUB PUSH1 0x20 DUP4 ADD MSTORE PUSH2 0x1FC8 DUP2 DUP7 PUSH2 0x10BD JUMP JUMPDEST SWAP1 POP PUSH2 0x1FD7 PUSH1 0x40 DUP4 ADD DUP6 PUSH2 0xFD2 JUMP JUMPDEST PUSH2 0x1FE4 PUSH1 0x60 DUP4 ADD DUP5 PUSH2 0xFD2 JUMP JUMPDEST SWAP6 SWAP5 POP POP POP POP POP JUMP INVALID LOG2 PUSH5 0x6970667358 0x22 SLT KECCAK256 PUSH2 0x436 SIGNEXTEND STOP MSTORE 0xB7 0x21 0xAB LOG0 DUP7 0xC8 PUSH7 0x732586F4950CEE 0xBB SELFDESTRUCT SWAP2 DUP11 0x2C 0xCB DUP12 PUSH0 CALLER PUSH9 0xBD2964736F6C634300 ADDMOD 0x1E STOP CALLER "
				},
				"gasEstimates": {
					"creation": {
						"codeDepositCost": "1645400",
						"executionCost": "1727",
						"totalCost": "1647127"
					},
					"external": {
						"Change_FundingGoal(uint256,uint256)": "infinite",
						"Contributions(uint256,address)": "infinite",
						"Extend_Deadline(uint256,uint256)": "infinite",
						"Get_Total_Raised_Funding()": "2431",
						"Projects(uint256)": "infinite",
						"Remaining_Fund(uint256)": "infinite",
						"Time_Left(uint256)": "infinite",
						"createProject(string,string,uint256,uint256,uint256)": "infinite",
						"creatorWithdraw(uint256)": "infinite",
						"fundProject(uint256)": "infinite",
						"userWithdraw(uint256)": "infinite"
					}
				},
				"methodIdentifiers": {
					"Change_FundingGoal(uint256,uint256)": "1392ebfe",
					"Contributions(uint256,address)": "5d4e5d78",
					"Extend_Deadline(uint256,uint256)": "629b2647",
					"Get_Total_Raised_Funding()": "54a5bcc5",
					"Projects(uint256)": "21b2416c",
					"Remaining_Fund(uint256)": "0dbac135",
					"Time_Left(uint256)": "370c36b4",
					"createProject(string,string,uint256,uint256,uint256)": "f81bf601",
					"creatorWithdraw(uint256)": "71eb89f3",
					"fundProject(uint256)": "6c563abe",
					"userWithdraw(uint256)": "3b9056bf"
				}
			},
			"storageLayout": {
				"storage": [
					{
						"astId": 3,
						"contract": "contracts/CrowdTank.sol:CrowdTank",
						"label": "TotalRaisedFunding",
						"offset": 0,
						"slot": "0",
						"type": "t_uint256"
					},
					{
						"astId": 23,
						"contract": "contracts/CrowdTank.sol:CrowdTank",
						"label": "Projects",
						"offset": 0,
						"slot": "1",
						"type": "t_mapping(t_uint256,t_struct(project)18_storage)"
					},
					{
						"astId": 29,
						"contract": "contracts/CrowdTank.sol:CrowdTank",
						"label": "Contributions",
						"offset": 0,
						"slot": "2",
						"type": "t_mapping(t_uint256,t_mapping(t_address,t_uint256))"
					},
					{
						"astId": 33,
						"contract": "contracts/CrowdTank.sol:CrowdTank",
						"label": "isIdUsed",
						"offset": 0,
						"slot": "3",
						"type": "t_mapping(t_uint256,t_bool)"
					}
				],
				"types": {
					"t_address": {
						"encoding": "inplace",
						"label": "address",
						"numberOfBytes": "20"
					},
					"t_bool": {
						"encoding": "inplace",
						"label": "bool",
						"numberOfBytes": "1"
					},
					"t_mapping(t_address,t_uint256)": {
						"encoding": "mapping",
						"key": "t_address",
						"label": "mapping(address => uint256)",
						"numberOfBytes": "32",
						"value": "t_uint256"
					},
					"t_mapping(t_uint256,t_bool)": {
						"encoding": "mapping",
						"key": "t_uint256",
						"label": "mapping(uint256 => bool)",
						"numberOfBytes": "32",
						"value": "t_bool"
					},
					"t_mapping(t_uint256,t_mapping(t_address,t_uint256))": {
						"encoding": "mapping",
						"key": "t_uint256",
						"label": "mapping(uint256 => mapping(address => uint256))",
						"numberOfBytes": "32",
						"value": "t_mapping(t_address,t_uint256)"
					},
					"t_mapping(t_uint256,t_struct(project)18_storage)": {
						"encoding": "mapping",
						"key": "t_uint256",
						"label": "mapping(uint256 => struct CrowdTank.project)",
						"numberOfBytes": "32",
						"value": "t_struct(project)18_storage"
					},
					"t_string_storage": {
						"encoding": "bytes",
						"label": "string",
						"numberOfBytes": "32"
					},
					"t_struct(project)18_storage": {
						"encoding": "inplace",
						"label": "struct CrowdTank.project",
						"members": [
							{
								"astId": 5,
								"contract": "contracts/CrowdTank.sol:CrowdTank",
								"label": "creator",
								"offset": 0,
								"slot": "0",
								"type": "t_address"
							},
							{
								"astId": 7,
								"contract": "contracts/CrowdTank.sol:CrowdTank",
								"label": "name",
								"offset": 0,
								"slot": "1",
								"type": "t_string_storage"
							},
							{
								"astId": 9,
								"contract": "contracts/CrowdTank.sol:CrowdTank",
								"label": "description",
								"offset": 0,
								"slot": "2",
								"type": "t_string_storage"
							},
							{
								"astId": 11,
								"contract": "contracts/CrowdTank.sol:CrowdTank",
								"label": "fundingGoal",
								"offset": 0,
								"slot": "3",
								"type": "t_uint256"
							},
							{
								"astId": 13,
								"contract": "contracts/CrowdTank.sol:CrowdTank",
								"label": "deadline",
								"offset": 0,
								"slot": "4",
								"type": "t_uint256"
							},
							{
								"astId": 15,
								"contract": "contracts/CrowdTank.sol:CrowdTank",
								"label": "amountRaised",
								"offset": 0,
								"slot": "5",
								"type": "t_uint256"
							},
							{
								"astId": 17,
								"contract": "contracts/CrowdTank.sol:CrowdTank",
								"label": "funded",
								"offset": 0,
								"slot": "6",
								"type": "t_bool"
							}
						],
						"numberOfBytes": "224"
					},
					"t_uint256": {
						"encoding": "inplace",
						"label": "uint256",
						"numberOfBytes": "32"
					}
				}
			},
			"userdoc": {
				"kind": "user",
				"methods": {},
				"version": 1
			}
		}
	}
}