{
	"contracts/CrowdTank.sol": {
		"CrowdTank": {
			"abi": [
				{
					"inputs": [],
					"stateMutability": "nonpayable",
					"type": "constructor"
				},
				{
					"inputs": [],
					"name": "ReentrancyGuardReentrantCall",
					"type": "error"
				},
				{
					"anonymous": false,
					"inputs": [
						{
							"indexed": true,
							"internalType": "uint256",
							"name": "projectID",
							"type": "uint256"
						},
						{
							"indexed": true,
							"internalType": "address",
							"name": "creator",
							"type": "address"
						},
						{
							"indexed": false,
							"internalType": "string",
							"name": "name",
							"type": "string"
						},
						{
							"indexed": false,
							"internalType": "string",
							"name": "description",
							"type": "string"
						},
						{
							"indexed": false,
							"internalType": "uint256",
							"name": "fundingGoal",
							"type": "uint256"
						},
						{
							"indexed": false,
							"internalType": "uint256",
							"name": "deadline",
							"type": "uint256"
						}
					],
					"name": "ProjectCreated",
					"type": "event"
				},
				{
					"anonymous": false,
					"inputs": [
						{
							"indexed": true,
							"internalType": "address",
							"name": "user",
							"type": "address"
						},
						{
							"indexed": true,
							"internalType": "uint256",
							"name": "_projectID",
							"type": "uint256"
						},
						{
							"indexed": false,
							"internalType": "uint256",
							"name": "amount",
							"type": "uint256"
						}
					],
					"name": "UserEarlyWithdraw",
					"type": "event"
				},
				{
					"anonymous": false,
					"inputs": [
						{
							"indexed": true,
							"internalType": "address",
							"name": "creator",
							"type": "address"
						}
					],
					"name": "addedCreator",
					"type": "event"
				},
				{
					"anonymous": false,
					"inputs": [
						{
							"indexed": true,
							"internalType": "uint256",
							"name": "projectID",
							"type": "uint256"
						},
						{
							"indexed": false,
							"internalType": "address",
							"name": "withdrawer",
							"type": "address"
						},
						{
							"indexed": false,
							"internalType": "uint256",
							"name": "amount",
							"type": "uint256"
						}
					],
					"name": "creatorWithdrawn",
					"type": "event"
				},
				{
					"anonymous": false,
					"inputs": [
						{
							"indexed": true,
							"internalType": "uint256",
							"name": "projectID",
							"type": "uint256"
						},
						{
							"indexed": false,
							"internalType": "address",
							"name": "contributor",
							"type": "address"
						},
						{
							"indexed": false,
							"internalType": "uint256",
							"name": "amount",
							"type": "uint256"
						},
						{
							"indexed": false,
							"internalType": "uint256",
							"name": "refund",
							"type": "uint256"
						}
					],
					"name": "funded",
					"type": "event"
				},
				{
					"anonymous": false,
					"inputs": [
						{
							"indexed": true,
							"internalType": "address",
							"name": "creator",
							"type": "address"
						}
					],
					"name": "removedCreator",
					"type": "event"
				},
				{
					"anonymous": false,
					"inputs": [
						{
							"indexed": true,
							"internalType": "uint256",
							"name": "projectID",
							"type": "uint256"
						},
						{
							"indexed": false,
							"internalType": "address",
							"name": "withdrawer",
							"type": "address"
						},
						{
							"indexed": false,
							"internalType": "uint256",
							"name": "amount",
							"type": "uint256"
						}
					],
					"name": "userWithdrawn",
					"type": "event"
				},
				{
					"inputs": [
						{
							"internalType": "address",
							"name": "_creator",
							"type": "address"
						}
					],
					"name": "Add_Creators",
					"outputs": [],
					"stateMutability": "nonpayable",
					"type": "function"
				},
				{
					"inputs": [
						{
							"internalType": "address",
							"name": "",
							"type": "address"
						}
					],
					"name": "AuthorizedCreators",
					"outputs": [
						{
							"internalType": "bool",
							"name": "",
							"type": "bool"
						}
					],
					"stateMutability": "view",
					"type": "function"
				},
				{
					"inputs": [
						{
							"internalType": "uint256",
							"name": "_projectID",
							"type": "uint256"
						},
						{
							"internalType": "uint256",
							"name": "Change_Goal",
							"type": "uint256"
						}
					],
					"name": "Change_FundingGoal",
					"outputs": [],
					"stateMutability": "nonpayable",
					"type": "function"
				},
				{
					"inputs": [
						{
							"internalType": "uint256",
							"name": "",
							"type": "uint256"
						},
						{
							"internalType": "address",
							"name": "",
							"type": "address"
						}
					],
					"name": "Contributions",
					"outputs": [
						{
							"internalType": "uint256",
							"name": "",
							"type": "uint256"
						}
					],
					"stateMutability": "view",
					"type": "function"
				},
				{
					"inputs": [
						{
							"internalType": "uint256",
							"name": "_projectID",
							"type": "uint256"
						},
						{
							"internalType": "uint256",
							"name": "_deadline",
							"type": "uint256"
						}
					],
					"name": "Extend_Deadline",
					"outputs": [],
					"stateMutability": "nonpayable",
					"type": "function"
				},
				{
					"inputs": [],
					"name": "Failed_Funded_Projects",
					"outputs": [
						{
							"internalType": "uint256",
							"name": "",
							"type": "uint256"
						}
					],
					"stateMutability": "view",
					"type": "function"
				},
				{
					"inputs": [
						{
							"internalType": "uint256",
							"name": "_projectID",
							"type": "uint256"
						}
					],
					"name": "Funding_Raised_Percentage",
					"outputs": [
						{
							"internalType": "uint256",
							"name": "",
							"type": "uint256"
						}
					],
					"stateMutability": "view",
					"type": "function"
				},
				{
					"inputs": [],
					"name": "Get_Total_Raised_Funding",
					"outputs": [
						{
							"internalType": "uint256",
							"name": "",
							"type": "uint256"
						}
					],
					"stateMutability": "view",
					"type": "function"
				},
				{
					"inputs": [],
					"name": "Mark_failed_Projects",
					"outputs": [],
					"stateMutability": "nonpayable",
					"type": "function"
				},
				{
					"inputs": [
						{
							"internalType": "uint256",
							"name": "",
							"type": "uint256"
						}
					],
					"name": "Projects",
					"outputs": [
						{
							"internalType": "address",
							"name": "creator",
							"type": "address"
						},
						{
							"internalType": "string",
							"name": "name",
							"type": "string"
						},
						{
							"internalType": "string",
							"name": "description",
							"type": "string"
						},
						{
							"internalType": "uint256",
							"name": "fundingGoal",
							"type": "uint256"
						},
						{
							"internalType": "uint256",
							"name": "deadline",
							"type": "uint256"
						},
						{
							"internalType": "uint256",
							"name": "amountRaised",
							"type": "uint256"
						},
						{
							"internalType": "bool",
							"name": "funded",
							"type": "bool"
						},
						{
							"internalType": "address",
							"name": "highest_Funder",
							"type": "address"
						},
						{
							"internalType": "uint256",
							"name": "highest_contribution",
							"type": "uint256"
						},
						{
							"internalType": "bool",
							"name": "failed_projects",
							"type": "bool"
						}
					],
					"stateMutability": "view",
					"type": "function"
				},
				{
					"inputs": [
						{
							"internalType": "uint256",
							"name": "projectID",
							"type": "uint256"
						}
					],
					"name": "Remaining_Fund",
					"outputs": [
						{
							"internalType": "uint256",
							"name": "fundingGoal",
							"type": "uint256"
						},
						{
							"internalType": "uint256",
							"name": "remainingFund",
							"type": "uint256"
						}
					],
					"stateMutability": "view",
					"type": "function"
				},
				{
					"inputs": [
						{
							"internalType": "address",
							"name": "_creator",
							"type": "address"
						}
					],
					"name": "Remove_Creators",
					"outputs": [],
					"stateMutability": "nonpayable",
					"type": "function"
				},
				{
					"inputs": [],
					"name": "Successful_Funded_Projects",
					"outputs": [
						{
							"internalType": "uint256",
							"name": "",
							"type": "uint256"
						}
					],
					"stateMutability": "view",
					"type": "function"
				},
				{
					"inputs": [
						{
							"internalType": "uint256",
							"name": "projectID",
							"type": "uint256"
						}
					],
					"name": "Time_Left",
					"outputs": [
						{
							"internalType": "uint256",
							"name": "",
							"type": "uint256"
						}
					],
					"stateMutability": "view",
					"type": "function"
				},
				{
					"inputs": [],
					"name": "TotalProjects",
					"outputs": [
						{
							"internalType": "uint256",
							"name": "",
							"type": "uint256"
						}
					],
					"stateMutability": "view",
					"type": "function"
				},
				{
					"inputs": [],
					"name": "admin",
					"outputs": [
						{
							"internalType": "address",
							"name": "",
							"type": "address"
						}
					],
					"stateMutability": "view",
					"type": "function"
				},
				{
					"inputs": [
						{
							"internalType": "string",
							"name": "_name",
							"type": "string"
						},
						{
							"internalType": "string",
							"name": "_description",
							"type": "string"
						},
						{
							"internalType": "uint256",
							"name": "_fundingGoal",
							"type": "uint256"
						},
						{
							"internalType": "uint256",
							"name": "_durationSeconds",
							"type": "uint256"
						},
						{
							"internalType": "uint256",
							"name": "_id",
							"type": "uint256"
						}
					],
					"name": "createProject",
					"outputs": [],
					"stateMutability": "nonpayable",
					"type": "function"
				},
				{
					"inputs": [
						{
							"internalType": "uint256",
							"name": "_projectID",
							"type": "uint256"
						}
					],
					"name": "creatorWithdraw",
					"outputs": [],
					"stateMutability": "payable",
					"type": "function"
				},
				{
					"inputs": [
						{
							"internalType": "uint256",
							"name": "_projectID",
							"type": "uint256"
						}
					],
					"name": "fundProject",
					"outputs": [],
					"stateMutability": "payable",
					"type": "function"
				},
				{
					"inputs": [
						{
							"internalType": "uint256",
							"name": "_projectID",
							"type": "uint256"
						},
						{
							"internalType": "uint256",
							"name": "withdrawn_amount",
							"type": "uint256"
						}
					],
					"name": "userEarlyWithdraw",
					"outputs": [],
					"stateMutability": "payable",
					"type": "function"
				},
				{
					"inputs": [
						{
							"internalType": "uint256",
							"name": "_projectID",
							"type": "uint256"
						}
					],
					"name": "userWithdraw",
					"outputs": [],
					"stateMutability": "payable",
					"type": "function"
				}
			],
			"devdoc": {
				"errors": {
					"ReentrancyGuardReentrantCall()": [
						{
							"details": "Unauthorized reentrant call."
						}
					]
				},
				"kind": "dev",
				"methods": {},
				"version": 1
			},
			"evm": {
				"assembly": "    /* \"contracts/CrowdTank.sol\":237:10485  contract CrowdTank is ReentrancyGuard {... */\n  mstore(0x40, 0x80)\n    /* \"contracts/CrowdTank.sol\":686:736  constructor() {... */\n  callvalue\n  dup1\n  iszero\n  tag_1\n  jumpi\n  revert(0x00, 0x00)\ntag_1:\n  pop\n    /* \"@openzeppelin/contracts/utils/ReentrancyGuard.sol\":1857:1858  1 */\n  0x01\n    /* \"@openzeppelin/contracts/utils/ReentrancyGuard.sol\":2061:2068  _status */\n  0x00\n    /* \"@openzeppelin/contracts/utils/ReentrancyGuard.sol\":2061:2082  _status = NOT_ENTERED */\n  dup2\n  swap1\n  sstore\n  pop\n    /* \"contracts/CrowdTank.sol\":719:729  msg.sender */\n  caller\n    /* \"contracts/CrowdTank.sol\":711:716  admin */\n  0x03\n  0x00\n    /* \"contracts/CrowdTank.sol\":711:729  admin = msg.sender */\n  0x0100\n  exp\n  dup2\n  sload\n  dup2\n  0xffffffffffffffffffffffffffffffffffffffff\n  mul\n  not\n  and\n  swap1\n  dup4\n  0xffffffffffffffffffffffffffffffffffffffff\n  and\n  mul\n  or\n  swap1\n  sstore\n  pop\n    /* \"contracts/CrowdTank.sol\":237:10485  contract CrowdTank is ReentrancyGuard {... */\n  dataSize(sub_0)\n  dup1\n  dataOffset(sub_0)\n  0x00\n  codecopy\n  0x00\n  return\nstop\n\nsub_0: assembly {\n        /* \"contracts/CrowdTank.sol\":237:10485  contract CrowdTank is ReentrancyGuard {... */\n      mstore(0x40, 0x80)\n      jumpi(tag_1, lt(calldatasize, 0x04))\n      shr(0xe0, calldataload(0x00))\n      dup1\n      0x629b2647\n      gt\n      tag_23\n      jumpi\n      dup1\n      0x9ab761c7\n      gt\n      tag_24\n      jumpi\n      dup1\n      0x9ab761c7\n      eq\n      tag_17\n      jumpi\n      dup1\n      0xcd4ac98c\n      eq\n      tag_18\n      jumpi\n      dup1\n      0xce7c9080\n      eq\n      tag_19\n      jumpi\n      dup1\n      0xf81bf601\n      eq\n      tag_20\n      jumpi\n      dup1\n      0xf851a440\n      eq\n      tag_21\n      jumpi\n      dup1\n      0xfee2f1c9\n      eq\n      tag_22\n      jumpi\n      jump(tag_1)\n    tag_24:\n      dup1\n      0x629b2647\n      eq\n      tag_12\n      jumpi\n      dup1\n      0x6c563abe\n      eq\n      tag_13\n      jumpi\n      dup1\n      0x71eb89f3\n      eq\n      tag_14\n      jumpi\n      dup1\n      0x7299baeb\n      eq\n      tag_15\n      jumpi\n      dup1\n      0x88283c0f\n      eq\n      tag_16\n      jumpi\n      jump(tag_1)\n    tag_23:\n      dup1\n      0x3b9056bf\n      gt\n      tag_25\n      jumpi\n      dup1\n      0x3b9056bf\n      eq\n      tag_7\n      jumpi\n      dup1\n      0x42d844a5\n      eq\n      tag_8\n      jumpi\n      dup1\n      0x530a8570\n      eq\n      tag_9\n      jumpi\n      dup1\n      0x54a5bcc5\n      eq\n      tag_10\n      jumpi\n      dup1\n      0x5d4e5d78\n      eq\n      tag_11\n      jumpi\n      jump(tag_1)\n    tag_25:\n      dup1\n      0x0dbac135\n      eq\n      tag_2\n      jumpi\n      dup1\n      0x1392ebfe\n      eq\n      tag_3\n      jumpi\n      dup1\n      0x21b2416c\n      eq\n      tag_4\n      jumpi\n      dup1\n      0x32dcd3a1\n      eq\n      tag_5\n      jumpi\n      dup1\n      0x370c36b4\n      eq\n      tag_6\n      jumpi\n    tag_1:\n      revert(0x00, 0x00)\n        /* \"contracts/CrowdTank.sol\":7895:8384  function Remaining_Fund(uint projectID) public view returns(uint fundingGoal , uint remainingFund) {... */\n    tag_2:\n      callvalue\n      dup1\n      iszero\n      tag_26\n      jumpi\n      revert(0x00, 0x00)\n    tag_26:\n      pop\n      tag_27\n      0x04\n      dup1\n      calldatasize\n      sub\n      dup2\n      add\n      swap1\n      tag_28\n      swap2\n      swap1\n      tag_29\n      jump\t// in\n    tag_28:\n      tag_30\n      jump\t// in\n    tag_27:\n      mload(0x40)\n      tag_31\n      swap3\n      swap2\n      swap1\n      tag_32\n      jump\t// in\n    tag_31:\n      mload(0x40)\n      dup1\n      swap2\n      sub\n      swap1\n      return\n        /* \"contracts/CrowdTank.sol\":8750:9158  function Change_FundingGoal( uint _projectID , uint Change_Goal) external {... */\n    tag_3:\n      callvalue\n      dup1\n      iszero\n      tag_33\n      jumpi\n      revert(0x00, 0x00)\n    tag_33:\n      pop\n      tag_34\n      0x04\n      dup1\n      calldatasize\n      sub\n      dup2\n      add\n      swap1\n      tag_35\n      swap2\n      swap1\n      tag_36\n      jump\t// in\n    tag_35:\n      tag_37\n      jump\t// in\n    tag_34:\n      stop\n        /* \"contracts/CrowdTank.sol\":1662:1703  mapping (uint => project) public Projects */\n    tag_4:\n      callvalue\n      dup1\n      iszero\n      tag_38\n      jumpi\n      revert(0x00, 0x00)\n    tag_38:\n      pop\n      tag_39\n      0x04\n      dup1\n      calldatasize\n      sub\n      dup2\n      add\n      swap1\n      tag_40\n      swap2\n      swap1\n      tag_29\n      jump\t// in\n    tag_40:\n      tag_41\n      jump\t// in\n    tag_39:\n      mload(0x40)\n      tag_42\n      swap11\n      swap10\n      swap9\n      swap8\n      swap7\n      swap6\n      swap5\n      swap4\n      swap3\n      swap2\n      swap1\n      tag_43\n      jump\t// in\n    tag_42:\n      mload(0x40)\n      dup1\n      swap2\n      sub\n      swap1\n      return\n        /* \"contracts/CrowdTank.sol\":542:576  uint public Failed_Funded_Projects */\n    tag_5:\n      callvalue\n      dup1\n      iszero\n      tag_44\n      jumpi\n      revert(0x00, 0x00)\n    tag_44:\n      pop\n      tag_45\n      tag_46\n      jump\t// in\n    tag_45:\n      mload(0x40)\n      tag_47\n      swap2\n      swap1\n      tag_48\n      jump\t// in\n    tag_47:\n      mload(0x40)\n      dup1\n      swap2\n      sub\n      swap1\n      return\n        /* \"contracts/CrowdTank.sol\":7537:7827  function Time_Left(uint projectID) view public returns(uint) {... */\n    tag_6:\n      callvalue\n      dup1\n      iszero\n      tag_49\n      jumpi\n      revert(0x00, 0x00)\n    tag_49:\n      pop\n      tag_50\n      0x04\n      dup1\n      calldatasize\n      sub\n      dup2\n      add\n      swap1\n      tag_51\n      swap2\n      swap1\n      tag_29\n      jump\t// in\n    tag_51:\n      tag_52\n      jump\t// in\n    tag_50:\n      mload(0x40)\n      tag_53\n      swap2\n      swap1\n      tag_48\n      jump\t// in\n    tag_53:\n      mload(0x40)\n      dup1\n      swap2\n      sub\n      swap1\n      return\n        /* \"contracts/CrowdTank.sol\":6171:6814  function userWithdraw(uint _projectID) external payable {... */\n    tag_7:\n      tag_54\n      0x04\n      dup1\n      calldatasize\n      sub\n      dup2\n      add\n      swap1\n      tag_55\n      swap2\n      swap1\n      tag_29\n      jump\t// in\n    tag_55:\n      tag_56\n      jump\t// in\n    tag_54:\n      stop\n        /* \"contracts/CrowdTank.sol\":9206:9473  function Funding_Raised_Percentage( uint _projectID ) public view  returns(uint) {... */\n    tag_8:\n      callvalue\n      dup1\n      iszero\n      tag_57\n      jumpi\n      revert(0x00, 0x00)\n    tag_57:\n      pop\n      tag_58\n      0x04\n      dup1\n      calldatasize\n      sub\n      dup2\n      add\n      swap1\n      tag_59\n      swap2\n      swap1\n      tag_29\n      jump\t// in\n    tag_59:\n      tag_60\n      jump\t// in\n    tag_58:\n      mload(0x40)\n      tag_61\n      swap2\n      swap1\n      tag_48\n      jump\t// in\n    tag_61:\n      mload(0x40)\n      dup1\n      swap2\n      sub\n      swap1\n      return\n        /* \"contracts/CrowdTank.sol\":5534:5952  function Mark_failed_Projects() external {... */\n    tag_9:\n      callvalue\n      dup1\n      iszero\n      tag_62\n      jumpi\n      revert(0x00, 0x00)\n    tag_62:\n      pop\n      tag_63\n      tag_64\n      jump\t// in\n    tag_63:\n      stop\n        /* \"contracts/CrowdTank.sol\":6017:6131  function Get_Total_Raised_Funding() view public returns(uint) {... */\n    tag_10:\n      callvalue\n      dup1\n      iszero\n      tag_65\n      jumpi\n      revert(0x00, 0x00)\n    tag_65:\n      pop\n      tag_66\n      tag_67\n      jump\t// in\n    tag_66:\n      mload(0x40)\n      tag_68\n      swap2\n      swap1\n      tag_48\n      jump\t// in\n    tag_68:\n      mload(0x40)\n      dup1\n      swap2\n      sub\n      swap1\n      return\n        /* \"contracts/CrowdTank.sol\":1762:1826  mapping (uint => mapping (address => uint)) public Contributions */\n    tag_11:\n      callvalue\n      dup1\n      iszero\n      tag_69\n      jumpi\n      revert(0x00, 0x00)\n    tag_69:\n      pop\n      tag_70\n      0x04\n      dup1\n      calldatasize\n      sub\n      dup2\n      add\n      swap1\n      tag_71\n      swap2\n      swap1\n      tag_72\n      jump\t// in\n    tag_71:\n      tag_73\n      jump\t// in\n    tag_70:\n      mload(0x40)\n      tag_74\n      swap2\n      swap1\n      tag_48\n      jump\t// in\n    tag_74:\n      mload(0x40)\n      dup1\n      swap2\n      sub\n      swap1\n      return\n        /* \"contracts/CrowdTank.sol\":8430:8703  function Extend_Deadline(uint _projectID , uint _deadline) external {... */\n    tag_12:\n      callvalue\n      dup1\n      iszero\n      tag_75\n      jumpi\n      revert(0x00, 0x00)\n    tag_75:\n      pop\n      tag_76\n      0x04\n      dup1\n      calldatasize\n      sub\n      dup2\n      add\n      swap1\n      tag_77\n      swap2\n      swap1\n      tag_36\n      jump\t// in\n    tag_77:\n      tag_78\n      jump\t// in\n    tag_76:\n      stop\n        /* \"contracts/CrowdTank.sol\":3525:5522  function fundProject(uint _projectID) external payable nonReentrant {... */\n    tag_13:\n      tag_79\n      0x04\n      dup1\n      calldatasize\n      sub\n      dup2\n      add\n      swap1\n      tag_80\n      swap2\n      swap1\n      tag_29\n      jump\t// in\n    tag_80:\n      tag_81\n      jump\t// in\n    tag_79:\n      stop\n        /* \"contracts/CrowdTank.sol\":6866:7467  function creatorWithdraw(uint _projectID) external payable {... */\n    tag_14:\n      tag_82\n      0x04\n      dup1\n      calldatasize\n      sub\n      dup2\n      add\n      swap1\n      tag_83\n      swap2\n      swap1\n      tag_29\n      jump\t// in\n    tag_83:\n      tag_84\n      jump\t// in\n    tag_82:\n      stop\n        /* \"contracts/CrowdTank.sol\":1106:1267  function Remove_Creators( address _creator ) external OnlyAdmin {... */\n    tag_15:\n      callvalue\n      dup1\n      iszero\n      tag_85\n      jumpi\n      revert(0x00, 0x00)\n    tag_85:\n      pop\n      tag_86\n      0x04\n      dup1\n      calldatasize\n      sub\n      dup2\n      add\n      swap1\n      tag_87\n      swap2\n      swap1\n      tag_88\n      jump\t// in\n    tag_87:\n      tag_89\n      jump\t// in\n    tag_86:\n      stop\n        /* \"contracts/CrowdTank.sol\":879:930  mapping (address => bool) public AuthorizedCreators */\n    tag_16:\n      callvalue\n      dup1\n      iszero\n      tag_90\n      jumpi\n      revert(0x00, 0x00)\n    tag_90:\n      pop\n      tag_91\n      0x04\n      dup1\n      calldatasize\n      sub\n      dup2\n      add\n      swap1\n      tag_92\n      swap2\n      swap1\n      tag_88\n      jump\t// in\n    tag_92:\n      tag_93\n      jump\t// in\n    tag_91:\n      mload(0x40)\n      tag_94\n      swap2\n      swap1\n      tag_95\n      jump\t// in\n    tag_94:\n      mload(0x40)\n      dup1\n      swap2\n      sub\n      swap1\n      return\n        /* \"contracts/CrowdTank.sol\":394:419  uint public TotalProjects */\n    tag_17:\n      callvalue\n      dup1\n      iszero\n      tag_96\n      jumpi\n      revert(0x00, 0x00)\n    tag_96:\n      pop\n      tag_97\n      tag_98\n      jump\t// in\n    tag_97:\n      mload(0x40)\n      tag_99\n      swap2\n      swap1\n      tag_48\n      jump\t// in\n    tag_99:\n      mload(0x40)\n      dup1\n      swap2\n      sub\n      swap1\n      return\n        /* \"contracts/CrowdTank.sol\":9522:10476  function userEarlyWithdraw( uint _projectID , uint withdrawn_amount) external payable {... */\n    tag_18:\n      tag_100\n      0x04\n      dup1\n      calldatasize\n      sub\n      dup2\n      add\n      swap1\n      tag_101\n      swap2\n      swap1\n      tag_36\n      jump\t// in\n    tag_101:\n      tag_102\n      jump\t// in\n    tag_100:\n      stop\n        /* \"contracts/CrowdTank.sol\":497:535  uint public Successful_Funded_Projects */\n    tag_19:\n      callvalue\n      dup1\n      iszero\n      tag_103\n      jumpi\n      revert(0x00, 0x00)\n    tag_103:\n      pop\n      tag_104\n      tag_105\n      jump\t// in\n    tag_104:\n      mload(0x40)\n      tag_106\n      swap2\n      swap1\n      tag_48\n      jump\t// in\n    tag_106:\n      mload(0x40)\n      dup1\n      swap2\n      sub\n      swap1\n      return\n        /* \"contracts/CrowdTank.sol\":2561:3464  function createProject(string memory _name , string memory _description , uint _fundingGoal , uint _durationSeconds , uint _id) external {... */\n    tag_20:\n      callvalue\n      dup1\n      iszero\n      tag_107\n      jumpi\n      revert(0x00, 0x00)\n    tag_107:\n      pop\n      tag_108\n      0x04\n      dup1\n      calldatasize\n      sub\n      dup2\n      add\n      swap1\n      tag_109\n      swap2\n      swap1\n      tag_110\n      jump\t// in\n    tag_109:\n      tag_111\n      jump\t// in\n    tag_108:\n      stop\n        /* \"contracts/CrowdTank.sol\":468:488  address public admin */\n    tag_21:\n      callvalue\n      dup1\n      iszero\n      tag_112\n      jumpi\n      revert(0x00, 0x00)\n    tag_112:\n      pop\n      tag_113\n      tag_114\n      jump\t// in\n    tag_113:\n      mload(0x40)\n      tag_115\n      swap2\n      swap1\n      tag_116\n      jump\t// in\n    tag_115:\n      mload(0x40)\n      dup1\n      swap2\n      sub\n      swap1\n      return\n        /* \"contracts/CrowdTank.sol\":939:1094  function Add_Creators( address _creator ) external OnlyAdmin {... */\n    tag_22:\n      callvalue\n      dup1\n      iszero\n      tag_117\n      jumpi\n      revert(0x00, 0x00)\n    tag_117:\n      pop\n      tag_118\n      0x04\n      dup1\n      calldatasize\n      sub\n      dup2\n      add\n      swap1\n      tag_119\n      swap2\n      swap1\n      tag_88\n      jump\t// in\n    tag_119:\n      tag_120\n      jump\t// in\n    tag_118:\n      stop\n        /* \"contracts/CrowdTank.sol\":7895:8384  function Remaining_Fund(uint projectID) public view returns(uint fundingGoal , uint remainingFund) {... */\n    tag_30:\n        /* \"contracts/CrowdTank.sol\":7955:7971  uint fundingGoal */\n      0x00\n        /* \"contracts/CrowdTank.sol\":7974:7992  uint remainingFund */\n      0x00\n        /* \"contracts/CrowdTank.sol\":8006:8029  project storage Project */\n      0x00\n        /* \"contracts/CrowdTank.sol\":8032:8040  Projects */\n      0x07\n        /* \"contracts/CrowdTank.sol\":8032:8051  Projects[projectID] */\n      0x00\n        /* \"contracts/CrowdTank.sol\":8041:8050  projectID */\n      dup6\n        /* \"contracts/CrowdTank.sol\":8032:8051  Projects[projectID] */\n      dup2\n      mstore\n      0x20\n      add\n      swap1\n      dup2\n      mstore\n      0x20\n      add\n      0x00\n      keccak256\n        /* \"contracts/CrowdTank.sol\":8006:8051  project storage Project = Projects[projectID] */\n      swap1\n      pop\n        /* \"contracts/CrowdTank.sol\":8076:8083  Project */\n      dup1\n        /* \"contracts/CrowdTank.sol\":8076:8095  Project.fundingGoal */\n      0x03\n      add\n      sload\n        /* \"contracts/CrowdTank.sol\":8062:8095  fundingGoal = Project.fundingGoal */\n      swap3\n      pop\n        /* \"contracts/CrowdTank.sol\":8141:8142  0 */\n      0x00\n        /* \"contracts/CrowdTank.sol\":8114:8143  Project.creator != address(0) */\n      0xffffffffffffffffffffffffffffffffffffffff\n      and\n        /* \"contracts/CrowdTank.sol\":8114:8121  Project */\n      dup2\n        /* \"contracts/CrowdTank.sol\":8114:8129  Project.creator */\n      0x00\n      add\n      0x00\n      swap1\n      sload\n      swap1\n      0x0100\n      exp\n      swap1\n      div\n      0xffffffffffffffffffffffffffffffffffffffff\n      and\n        /* \"contracts/CrowdTank.sol\":8114:8143  Project.creator != address(0) */\n      0xffffffffffffffffffffffffffffffffffffffff\n      and\n      sub\n        /* \"contracts/CrowdTank.sol\":8106:8181  require(Project.creator != address(0), \"project has not been created yet!\") */\n      tag_122\n      jumpi\n      mload(0x40)\n      0x08c379a000000000000000000000000000000000000000000000000000000000\n      dup2\n      mstore\n      0x04\n      add\n      tag_123\n      swap1\n      tag_124\n      jump\t// in\n    tag_123:\n      mload(0x40)\n      dup1\n      swap2\n      sub\n      swap1\n      revert\n    tag_122:\n        /* \"contracts/CrowdTank.sol\":8220:8227  Project */\n      dup1\n        /* \"contracts/CrowdTank.sol\":8220:8239  Project.fundingGoal */\n      0x03\n      add\n      sload\n        /* \"contracts/CrowdTank.sol\":8196:8203  Project */\n      dup2\n        /* \"contracts/CrowdTank.sol\":8196:8216  Project.amountRaised */\n      0x05\n      add\n      sload\n        /* \"contracts/CrowdTank.sol\":8196:8239  Project.amountRaised >= Project.fundingGoal */\n      lt\n        /* \"contracts/CrowdTank.sol\":8192:8377  if (Project.amountRaised >= Project.fundingGoal) {... */\n      tag_125\n      jumpi\n        /* \"contracts/CrowdTank.sol\":8273:8274  0 */\n      0x00\n        /* \"contracts/CrowdTank.sol\":8257:8274  remainingFund = 0 */\n      swap2\n      pop\n        /* \"contracts/CrowdTank.sol\":8192:8377  if (Project.amountRaised >= Project.fundingGoal) {... */\n      jump(tag_126)\n    tag_125:\n        /* \"contracts/CrowdTank.sol\":8345:8352  Project */\n      dup1\n        /* \"contracts/CrowdTank.sol\":8345:8365  Project.amountRaised */\n      0x05\n      add\n      sload\n        /* \"contracts/CrowdTank.sol\":8323:8330  Project */\n      dup2\n        /* \"contracts/CrowdTank.sol\":8323:8342  Project.fundingGoal */\n      0x03\n      add\n      sload\n        /* \"contracts/CrowdTank.sol\":8323:8365  Project.fundingGoal - Project.amountRaised */\n      tag_127\n      swap2\n      swap1\n      tag_128\n      jump\t// in\n    tag_127:\n        /* \"contracts/CrowdTank.sol\":8307:8365  remainingFund = Project.fundingGoal - Project.amountRaised */\n      swap2\n      pop\n        /* \"contracts/CrowdTank.sol\":8192:8377  if (Project.amountRaised >= Project.fundingGoal) {... */\n    tag_126:\n        /* \"contracts/CrowdTank.sol\":7994:8384  {... */\n      pop\n        /* \"contracts/CrowdTank.sol\":7895:8384  function Remaining_Fund(uint projectID) public view returns(uint fundingGoal , uint remainingFund) {... */\n      swap2\n      pop\n      swap2\n      jump\t// out\n        /* \"contracts/CrowdTank.sol\":8750:9158  function Change_FundingGoal( uint _projectID , uint Change_Goal) external {... */\n    tag_37:\n        /* \"contracts/CrowdTank.sol\":8836:8859  project storage Project */\n      0x00\n        /* \"contracts/CrowdTank.sol\":8862:8870  Projects */\n      0x07\n        /* \"contracts/CrowdTank.sol\":8862:8882  Projects[_projectID] */\n      0x00\n        /* \"contracts/CrowdTank.sol\":8871:8881  _projectID */\n      dup5\n        /* \"contracts/CrowdTank.sol\":8862:8882  Projects[_projectID] */\n      dup2\n      mstore\n      0x20\n      add\n      swap1\n      dup2\n      mstore\n      0x20\n      add\n      0x00\n      keccak256\n        /* \"contracts/CrowdTank.sol\":8836:8882  project storage Project = Projects[_projectID] */\n      swap1\n      pop\n        /* \"contracts/CrowdTank.sol\":8920:8921  0 */\n      0x00\n        /* \"contracts/CrowdTank.sol\":8901:8908  Project */\n      dup2\n        /* \"contracts/CrowdTank.sol\":8901:8917  Project.deadline */\n      0x04\n      add\n      sload\n        /* \"contracts/CrowdTank.sol\":8901:8921  Project.deadline > 0 */\n      gt\n        /* \"contracts/CrowdTank.sol\":8893:8982  require(Project.deadline > 0 , \"Deadline is over , you Can't change the funding goal !!\") */\n      tag_130\n      jumpi\n      mload(0x40)\n      0x08c379a000000000000000000000000000000000000000000000000000000000\n      dup2\n      mstore\n      0x04\n      add\n      tag_131\n      swap1\n      tag_132\n      jump\t// in\n    tag_131:\n      mload(0x40)\n      dup1\n      swap2\n      sub\n      swap1\n      revert\n    tag_130:\n        /* \"contracts/CrowdTank.sol\":9020:9030  msg.sender */\n      caller\n        /* \"contracts/CrowdTank.sol\":9001:9030  Project.creator == msg.sender */\n      0xffffffffffffffffffffffffffffffffffffffff\n      and\n        /* \"contracts/CrowdTank.sol\":9001:9008  Project */\n      dup2\n        /* \"contracts/CrowdTank.sol\":9001:9016  Project.creator */\n      0x00\n      add\n      0x00\n      swap1\n      sload\n      swap1\n      0x0100\n      exp\n      swap1\n      div\n      0xffffffffffffffffffffffffffffffffffffffff\n      and\n        /* \"contracts/CrowdTank.sol\":9001:9030  Project.creator == msg.sender */\n      0xffffffffffffffffffffffffffffffffffffffff\n      and\n      eq\n        /* \"contracts/CrowdTank.sol\":8993:9104  require(Project.creator == msg.sender , \"You are not the project creator , Only Porject creator can Change !!\") */\n      tag_133\n      jumpi\n      mload(0x40)\n      0x08c379a000000000000000000000000000000000000000000000000000000000\n      dup2\n      mstore\n      0x04\n      add\n      tag_134\n      swap1\n      tag_135\n      jump\t// in\n    tag_134:\n      mload(0x40)\n      dup1\n      swap2\n      sub\n      swap1\n      revert\n    tag_133:\n        /* \"contracts/CrowdTank.sol\":9139:9150  Change_Goal */\n      dup2\n        /* \"contracts/CrowdTank.sol\":9117:9124  Project */\n      dup2\n        /* \"contracts/CrowdTank.sol\":9117:9136  Project.fundingGoal */\n      0x03\n      add\n        /* \"contracts/CrowdTank.sol\":9117:9150  Project.fundingGoal = Change_Goal */\n      dup2\n      swap1\n      sstore\n      pop\n        /* \"contracts/CrowdTank.sol\":8824:9158  {... */\n      pop\n        /* \"contracts/CrowdTank.sol\":8750:9158  function Change_FundingGoal( uint _projectID , uint Change_Goal) external {... */\n      pop\n      pop\n      jump\t// out\n        /* \"contracts/CrowdTank.sol\":1662:1703  mapping (uint => project) public Projects */\n    tag_41:\n      mstore(0x20, 0x07)\n      dup1\n      0x00\n      mstore\n      keccak256(0x00, 0x40)\n      0x00\n      swap2\n      pop\n      swap1\n      pop\n      dup1\n      0x00\n      add\n      0x00\n      swap1\n      sload\n      swap1\n      0x0100\n      exp\n      swap1\n      div\n      0xffffffffffffffffffffffffffffffffffffffff\n      and\n      swap1\n      dup1\n      0x01\n      add\n      dup1\n      sload\n      tag_136\n      swap1\n      tag_137\n      jump\t// in\n    tag_136:\n      dup1\n      0x1f\n      add\n      0x20\n      dup1\n      swap2\n      div\n      mul\n      0x20\n      add\n      mload(0x40)\n      swap1\n      dup2\n      add\n      0x40\n      mstore\n      dup1\n      swap3\n      swap2\n      swap1\n      dup2\n      dup2\n      mstore\n      0x20\n      add\n      dup3\n      dup1\n      sload\n      tag_138\n      swap1\n      tag_137\n      jump\t// in\n    tag_138:\n      dup1\n      iszero\n      tag_139\n      jumpi\n      dup1\n      0x1f\n      lt\n      tag_140\n      jumpi\n      0x0100\n      dup1\n      dup4\n      sload\n      div\n      mul\n      dup4\n      mstore\n      swap2\n      0x20\n      add\n      swap2\n      jump(tag_139)\n    tag_140:\n      dup3\n      add\n      swap2\n      swap1\n      0x00\n      mstore\n      keccak256(0x00, 0x20)\n      swap1\n    tag_141:\n      dup2\n      sload\n      dup2\n      mstore\n      swap1\n      0x01\n      add\n      swap1\n      0x20\n      add\n      dup1\n      dup4\n      gt\n      tag_141\n      jumpi\n      dup3\n      swap1\n      sub\n      0x1f\n      and\n      dup3\n      add\n      swap2\n    tag_139:\n      pop\n      pop\n      pop\n      pop\n      pop\n      swap1\n      dup1\n      0x02\n      add\n      dup1\n      sload\n      tag_142\n      swap1\n      tag_137\n      jump\t// in\n    tag_142:\n      dup1\n      0x1f\n      add\n      0x20\n      dup1\n      swap2\n      div\n      mul\n      0x20\n      add\n      mload(0x40)\n      swap1\n      dup2\n      add\n      0x40\n      mstore\n      dup1\n      swap3\n      swap2\n      swap1\n      dup2\n      dup2\n      mstore\n      0x20\n      add\n      dup3\n      dup1\n      sload\n      tag_143\n      swap1\n      tag_137\n      jump\t// in\n    tag_143:\n      dup1\n      iszero\n      tag_144\n      jumpi\n      dup1\n      0x1f\n      lt\n      tag_145\n      jumpi\n      0x0100\n      dup1\n      dup4\n      sload\n      div\n      mul\n      dup4\n      mstore\n      swap2\n      0x20\n      add\n      swap2\n      jump(tag_144)\n    tag_145:\n      dup3\n      add\n      swap2\n      swap1\n      0x00\n      mstore\n      keccak256(0x00, 0x20)\n      swap1\n    tag_146:\n      dup2\n      sload\n      dup2\n      mstore\n      swap1\n      0x01\n      add\n      swap1\n      0x20\n      add\n      dup1\n      dup4\n      gt\n      tag_146\n      jumpi\n      dup3\n      swap1\n      sub\n      0x1f\n      and\n      dup3\n      add\n      swap2\n    tag_144:\n      pop\n      pop\n      pop\n      pop\n      pop\n      swap1\n      dup1\n      0x03\n      add\n      sload\n      swap1\n      dup1\n      0x04\n      add\n      sload\n      swap1\n      dup1\n      0x05\n      add\n      sload\n      swap1\n      dup1\n      0x06\n      add\n      0x00\n      swap1\n      sload\n      swap1\n      0x0100\n      exp\n      swap1\n      div\n      0xff\n      and\n      swap1\n      dup1\n      0x06\n      add\n      0x01\n      swap1\n      sload\n      swap1\n      0x0100\n      exp\n      swap1\n      div\n      0xffffffffffffffffffffffffffffffffffffffff\n      and\n      swap1\n      dup1\n      0x07\n      add\n      sload\n      swap1\n      dup1\n      0x08\n      add\n      0x00\n      swap1\n      sload\n      swap1\n      0x0100\n      exp\n      swap1\n      div\n      0xff\n      and\n      swap1\n      pop\n      dup11\n      jump\t// out\n        /* \"contracts/CrowdTank.sol\":542:576  uint public Failed_Funded_Projects */\n    tag_46:\n      sload(0x05)\n      dup2\n      jump\t// out\n        /* \"contracts/CrowdTank.sol\":7537:7827  function Time_Left(uint projectID) view public returns(uint) {... */\n    tag_52:\n        /* \"contracts/CrowdTank.sol\":7592:7596  uint */\n      0x00\n        /* \"contracts/CrowdTank.sol\":7609:7632  project storage Project */\n      0x00\n        /* \"contracts/CrowdTank.sol\":7635:7643  Projects */\n      0x07\n        /* \"contracts/CrowdTank.sol\":7635:7654  Projects[projectID] */\n      0x00\n        /* \"contracts/CrowdTank.sol\":7644:7653  projectID */\n      dup5\n        /* \"contracts/CrowdTank.sol\":7635:7654  Projects[projectID] */\n      dup2\n      mstore\n      0x20\n      add\n      swap1\n      dup2\n      mstore\n      0x20\n      add\n      0x00\n      keccak256\n        /* \"contracts/CrowdTank.sol\":7609:7654  project storage Project = Projects[projectID] */\n      swap1\n      pop\n        /* \"contracts/CrowdTank.sol\":7688:7695  Project */\n      dup1\n        /* \"contracts/CrowdTank.sol\":7688:7704  Project.deadline */\n      0x04\n      add\n      sload\n        /* \"contracts/CrowdTank.sol\":7669:7684  block.timestamp */\n      timestamp\n        /* \"contracts/CrowdTank.sol\":7669:7704  block.timestamp >= Project.deadline */\n      lt\n        /* \"contracts/CrowdTank.sol\":7665:7816  if (block.timestamp >= Project.deadline) {... */\n      tag_148\n      jumpi\n        /* \"contracts/CrowdTank.sol\":7728:7729  0 */\n      0x00\n        /* \"contracts/CrowdTank.sol\":7721:7729  return 0 */\n      swap2\n      pop\n      pop\n      jump(tag_147)\n        /* \"contracts/CrowdTank.sol\":7665:7816  if (block.timestamp >= Project.deadline) {... */\n    tag_148:\n        /* \"contracts/CrowdTank.sol\":7788:7803  block.timestamp */\n      timestamp\n        /* \"contracts/CrowdTank.sol\":7769:7776  Project */\n      dup2\n        /* \"contracts/CrowdTank.sol\":7769:7785  Project.deadline */\n      0x04\n      add\n      sload\n        /* \"contracts/CrowdTank.sol\":7769:7803  Project.deadline - block.timestamp */\n      tag_150\n      swap2\n      swap1\n      tag_128\n      jump\t// in\n    tag_150:\n        /* \"contracts/CrowdTank.sol\":7762:7804  return(Project.deadline - block.timestamp) */\n      swap2\n      pop\n      pop\n        /* \"contracts/CrowdTank.sol\":7537:7827  function Time_Left(uint projectID) view public returns(uint) {... */\n    tag_147:\n      swap2\n      swap1\n      pop\n      jump\t// out\n        /* \"contracts/CrowdTank.sol\":6171:6814  function userWithdraw(uint _projectID) external payable {... */\n    tag_56:\n        /* \"contracts/CrowdTank.sol\":6238:6261  project storage Project */\n      0x00\n        /* \"contracts/CrowdTank.sol\":6264:6272  Projects */\n      0x07\n        /* \"contracts/CrowdTank.sol\":6264:6284  Projects[_projectID] */\n      0x00\n        /* \"contracts/CrowdTank.sol\":6273:6283  _projectID */\n      dup4\n        /* \"contracts/CrowdTank.sol\":6264:6284  Projects[_projectID] */\n      dup2\n      mstore\n      0x20\n      add\n      swap1\n      dup2\n      mstore\n      0x20\n      add\n      0x00\n      keccak256\n        /* \"contracts/CrowdTank.sol\":6238:6284  project storage Project = Projects[_projectID] */\n      swap1\n      pop\n        /* \"contracts/CrowdTank.sol\":6324:6331  Project */\n      dup1\n        /* \"contracts/CrowdTank.sol\":6324:6343  Project.fundingGoal */\n      0x03\n      add\n      sload\n        /* \"contracts/CrowdTank.sol\":6303:6310  Project */\n      dup2\n        /* \"contracts/CrowdTank.sol\":6303:6323  Project.amountRaised */\n      0x05\n      add\n      sload\n        /* \"contracts/CrowdTank.sol\":6303:6343  Project.amountRaised<Project.fundingGoal */\n      lt\n        /* \"contracts/CrowdTank.sol\":6295:6395  require(Project.amountRaised<Project.fundingGoal , \"Funding goal has reached , user can't withdraw\") */\n      tag_152\n      jumpi\n      mload(0x40)\n      0x08c379a000000000000000000000000000000000000000000000000000000000\n      dup2\n      mstore\n      0x04\n      add\n      tag_153\n      swap1\n      tag_154\n      jump\t// in\n    tag_153:\n      mload(0x40)\n      dup1\n      swap2\n      sub\n      swap1\n      revert\n    tag_152:\n        /* \"contracts/CrowdTank.sol\":6406:6427  uint fundsContributed */\n      0x00\n        /* \"contracts/CrowdTank.sol\":6430:6443  Contributions */\n      0x08\n        /* \"contracts/CrowdTank.sol\":6430:6455  Contributions[_projectID] */\n      0x00\n        /* \"contracts/CrowdTank.sol\":6444:6454  _projectID */\n      dup5\n        /* \"contracts/CrowdTank.sol\":6430:6455  Contributions[_projectID] */\n      dup2\n      mstore\n      0x20\n      add\n      swap1\n      dup2\n      mstore\n      0x20\n      add\n      0x00\n      keccak256\n        /* \"contracts/CrowdTank.sol\":6430:6467  Contributions[_projectID][msg.sender] */\n      0x00\n        /* \"contracts/CrowdTank.sol\":6456:6466  msg.sender */\n      caller\n        /* \"contracts/CrowdTank.sol\":6430:6467  Contributions[_projectID][msg.sender] */\n      0xffffffffffffffffffffffffffffffffffffffff\n      and\n      0xffffffffffffffffffffffffffffffffffffffff\n      and\n      dup2\n      mstore\n      0x20\n      add\n      swap1\n      dup2\n      mstore\n      0x20\n      add\n      0x00\n      keccak256\n      sload\n        /* \"contracts/CrowdTank.sol\":6406:6467  uint fundsContributed = Contributions[_projectID][msg.sender] */\n      swap1\n      pop\n        /* \"contracts/CrowdTank.sol\":6503:6519  fundsContributed */\n      dup1\n        /* \"contracts/CrowdTank.sol\":6479:6486  Project */\n      dup3\n        /* \"contracts/CrowdTank.sol\":6479:6499  Project.amountRaised */\n      0x05\n      add\n      0x00\n        /* \"contracts/CrowdTank.sol\":6479:6519  Project.amountRaised -= fundsContributed */\n      dup3\n      dup3\n      sload\n      tag_155\n      swap2\n      swap1\n      tag_128\n      jump\t// in\n    tag_155:\n      swap3\n      pop\n      pop\n      dup2\n      swap1\n      sstore\n      pop\n        /* \"contracts/CrowdTank.sol\":6571:6587  fundsContributed */\n      dup1\n        /* \"contracts/CrowdTank.sol\":6530:6543  Contributions */\n      0x08\n        /* \"contracts/CrowdTank.sol\":6530:6555  Contributions[_projectID] */\n      0x00\n        /* \"contracts/CrowdTank.sol\":6544:6554  _projectID */\n      dup6\n        /* \"contracts/CrowdTank.sol\":6530:6555  Contributions[_projectID] */\n      dup2\n      mstore\n      0x20\n      add\n      swap1\n      dup2\n      mstore\n      0x20\n      add\n      0x00\n      keccak256\n        /* \"contracts/CrowdTank.sol\":6530:6567  Contributions[_projectID][msg.sender] */\n      0x00\n        /* \"contracts/CrowdTank.sol\":6556:6566  msg.sender */\n      caller\n        /* \"contracts/CrowdTank.sol\":6530:6567  Contributions[_projectID][msg.sender] */\n      0xffffffffffffffffffffffffffffffffffffffff\n      and\n      0xffffffffffffffffffffffffffffffffffffffff\n      and\n      dup2\n      mstore\n      0x20\n      add\n      swap1\n      dup2\n      mstore\n      0x20\n      add\n      0x00\n      keccak256\n      0x00\n        /* \"contracts/CrowdTank.sol\":6530:6587  Contributions[_projectID][msg.sender] -= fundsContributed */\n      dup3\n      dup3\n      sload\n      tag_156\n      swap2\n      swap1\n      tag_128\n      jump\t// in\n    tag_156:\n      swap3\n      pop\n      pop\n      dup2\n      swap1\n      sstore\n      pop\n        /* \"contracts/CrowdTank.sol\":6620:6636  fundsContributed */\n      dup1\n        /* \"contracts/CrowdTank.sol\":6598:6616  TotalRaisedFunding */\n      0x01\n      0x00\n        /* \"contracts/CrowdTank.sol\":6598:6636  TotalRaisedFunding -= fundsContributed */\n      dup3\n      dup3\n      sload\n      tag_157\n      swap2\n      swap1\n      tag_128\n      jump\t// in\n    tag_157:\n      swap3\n      pop\n      pop\n      dup2\n      swap1\n      sstore\n      pop\n        /* \"contracts/CrowdTank.sol\":6655:6665  msg.sender */\n      caller\n        /* \"contracts/CrowdTank.sol\":6647:6675  payable(msg.sender).transfer */\n      0xffffffffffffffffffffffffffffffffffffffff\n      and\n        /* \"contracts/CrowdTank.sol\":6647:6693  payable(msg.sender).transfer(fundsContributed) */\n      0x08fc\n        /* \"contracts/CrowdTank.sol\":6676:6692  fundsContributed */\n      dup3\n        /* \"contracts/CrowdTank.sol\":6647:6693  payable(msg.sender).transfer(fundsContributed) */\n      swap1\n      dup2\n      iszero\n      mul\n      swap1\n      mload(0x40)\n      0x00\n      mload(0x40)\n      dup1\n      dup4\n      sub\n      dup2\n      dup6\n      dup9\n      dup9\n      call\n      swap4\n      pop\n      pop\n      pop\n      pop\n      iszero\n      dup1\n      iszero\n      tag_159\n      jumpi\n      returndatacopy(0x00, 0x00, returndatasize)\n      revert(0x00, returndatasize)\n    tag_159:\n      pop\n        /* \"contracts/CrowdTank.sol\":6755:6765  _projectID */\n      dup3\n        /* \"contracts/CrowdTank.sol\":6741:6796  userWithdrawn(_projectID, msg.sender, fundsContributed) */\n      0xb6e4e293b6c7c5cf68fbb52edfaca6173710fcccbcecac03c32e62327fc000c6\n        /* \"contracts/CrowdTank.sol\":6767:6777  msg.sender */\n      caller\n        /* \"contracts/CrowdTank.sol\":6779:6795  fundsContributed */\n      dup4\n        /* \"contracts/CrowdTank.sol\":6741:6796  userWithdrawn(_projectID, msg.sender, fundsContributed) */\n      mload(0x40)\n      tag_160\n      swap3\n      swap2\n      swap1\n      tag_161\n      jump\t// in\n    tag_160:\n      mload(0x40)\n      dup1\n      swap2\n      sub\n      swap1\n      log2\n        /* \"contracts/CrowdTank.sol\":6227:6814  {... */\n      pop\n      pop\n        /* \"contracts/CrowdTank.sol\":6171:6814  function userWithdraw(uint _projectID) external payable {... */\n      pop\n      jump\t// out\n        /* \"contracts/CrowdTank.sol\":9206:9473  function Funding_Raised_Percentage( uint _projectID ) public view  returns(uint) {... */\n    tag_60:\n        /* \"contracts/CrowdTank.sol\":9281:9285  uint */\n      0x00\n        /* \"contracts/CrowdTank.sol\":9298:9321  project storage Project */\n      0x00\n        /* \"contracts/CrowdTank.sol\":9324:9332  Projects */\n      0x07\n        /* \"contracts/CrowdTank.sol\":9324:9344  Projects[_projectID] */\n      0x00\n        /* \"contracts/CrowdTank.sol\":9333:9343  _projectID */\n      dup5\n        /* \"contracts/CrowdTank.sol\":9324:9344  Projects[_projectID] */\n      dup2\n      mstore\n      0x20\n      add\n      swap1\n      dup2\n      mstore\n      0x20\n      add\n      0x00\n      keccak256\n        /* \"contracts/CrowdTank.sol\":9298:9344  project storage Project = Projects[_projectID] */\n      swap1\n      pop\n        /* \"contracts/CrowdTank.sol\":9355:9377  uint Raised_Percentage */\n      0x00\n        /* \"contracts/CrowdTank.sol\":9411:9418  Project */\n      dup2\n        /* \"contracts/CrowdTank.sol\":9411:9430  Project.fundingGoal */\n      0x03\n      add\n      sload\n        /* \"contracts/CrowdTank.sol\":9403:9406  100 */\n      0x64\n        /* \"contracts/CrowdTank.sol\":9382:9389  Project */\n      dup4\n        /* \"contracts/CrowdTank.sol\":9382:9402  Project.amountRaised */\n      0x05\n      add\n      sload\n        /* \"contracts/CrowdTank.sol\":9382:9406  Project.amountRaised*100 */\n      tag_163\n      swap2\n      swap1\n      tag_164\n      jump\t// in\n    tag_163:\n        /* \"contracts/CrowdTank.sol\":9380:9430  ( Project.amountRaised*100 ) / Project.fundingGoal */\n      tag_165\n      swap2\n      swap1\n      tag_166\n      jump\t// in\n    tag_165:\n        /* \"contracts/CrowdTank.sol\":9355:9430  uint Raised_Percentage = ( Project.amountRaised*100 ) / Project.fundingGoal */\n      swap1\n      pop\n        /* \"contracts/CrowdTank.sol\":9448:9465  Raised_Percentage */\n      dup1\n        /* \"contracts/CrowdTank.sol\":9441:9465  return Raised_Percentage */\n      swap3\n      pop\n      pop\n      pop\n        /* \"contracts/CrowdTank.sol\":9206:9473  function Funding_Raised_Percentage( uint _projectID ) public view  returns(uint) {... */\n      swap2\n      swap1\n      pop\n      jump\t// out\n        /* \"contracts/CrowdTank.sol\":5534:5952  function Mark_failed_Projects() external {... */\n    tag_64:\n        /* \"contracts/CrowdTank.sol\":5595:5601  uint i */\n      0x00\n        /* \"contracts/CrowdTank.sol\":5604:5605  0 */\n      0x00\n        /* \"contracts/CrowdTank.sol\":5595:5605  uint i = 0 */\n      swap1\n      pop\n        /* \"contracts/CrowdTank.sol\":5590:5937  for (uint i = 0; i < TotalProjects; i++) {... */\n    tag_168:\n        /* \"contracts/CrowdTank.sol\":5611:5624  TotalProjects */\n      sload(0x02)\n        /* \"contracts/CrowdTank.sol\":5607:5608  i */\n      dup2\n        /* \"contracts/CrowdTank.sol\":5607:5624  i < TotalProjects */\n      lt\n        /* \"contracts/CrowdTank.sol\":5590:5937  for (uint i = 0; i < TotalProjects; i++) {... */\n      iszero\n      tag_169\n      jumpi\n        /* \"contracts/CrowdTank.sol\":5650:5673  project storage Project */\n      0x00\n        /* \"contracts/CrowdTank.sol\":5676:5684  Projects */\n      0x07\n        /* \"contracts/CrowdTank.sol\":5676:5687  Projects[i] */\n      0x00\n        /* \"contracts/CrowdTank.sol\":5685:5686  i */\n      dup4\n        /* \"contracts/CrowdTank.sol\":5676:5687  Projects[i] */\n      dup2\n      mstore\n      0x20\n      add\n      swap1\n      dup2\n      mstore\n      0x20\n      add\n      0x00\n      keccak256\n        /* \"contracts/CrowdTank.sol\":5650:5687  project storage Project = Projects[i] */\n      swap1\n      pop\n        /* \"contracts/CrowdTank.sol\":5711:5718  Project */\n      dup1\n        /* \"contracts/CrowdTank.sol\":5711:5725  Project.funded */\n      0x06\n      add\n      0x00\n      swap1\n      sload\n      swap1\n      0x0100\n      exp\n      swap1\n      div\n      0xff\n      and\n        /* \"contracts/CrowdTank.sol\":5710:5725  !Project.funded */\n      iszero\n        /* \"contracts/CrowdTank.sol\":5710:5763  !Project.funded && block.timestamp > Project.deadline */\n      dup1\n      iszero\n      tag_171\n      jumpi\n      pop\n        /* \"contracts/CrowdTank.sol\":5747:5754  Project */\n      dup1\n        /* \"contracts/CrowdTank.sol\":5747:5763  Project.deadline */\n      0x04\n      add\n      sload\n        /* \"contracts/CrowdTank.sol\":5729:5744  block.timestamp */\n      timestamp\n        /* \"contracts/CrowdTank.sol\":5729:5763  block.timestamp > Project.deadline */\n      gt\n        /* \"contracts/CrowdTank.sol\":5710:5763  !Project.funded && block.timestamp > Project.deadline */\n    tag_171:\n        /* \"contracts/CrowdTank.sol\":5710:5791  !Project.funded && block.timestamp > Project.deadline && !Project.failed_projects */\n      dup1\n      iszero\n      tag_172\n      jumpi\n      pop\n        /* \"contracts/CrowdTank.sol\":5768:5775  Project */\n      dup1\n        /* \"contracts/CrowdTank.sol\":5768:5791  Project.failed_projects */\n      0x08\n      add\n      0x00\n      swap1\n      sload\n      swap1\n      0x0100\n      exp\n      swap1\n      div\n      0xff\n      and\n        /* \"contracts/CrowdTank.sol\":5767:5791  !Project.failed_projects */\n      iszero\n        /* \"contracts/CrowdTank.sol\":5710:5791  !Project.funded && block.timestamp > Project.deadline && !Project.failed_projects */\n    tag_172:\n        /* \"contracts/CrowdTank.sol\":5706:5918  if (!Project.funded && block.timestamp > Project.deadline && !Project.failed_projects ) {... */\n      iszero\n      tag_173\n      jumpi\n        /* \"contracts/CrowdTank.sol\":5817:5839  Failed_Funded_Projects */\n      0x05\n      0x00\n        /* \"contracts/CrowdTank.sol\":5817:5841  Failed_Funded_Projects++ */\n      dup2\n      sload\n      dup1\n      swap3\n      swap2\n      swap1\n      tag_174\n      swap1\n      tag_175\n      jump\t// in\n    tag_174:\n      swap2\n      swap1\n      pop\n      sstore\n      pop\n        /* \"contracts/CrowdTank.sol\":5890:5894  true */\n      0x01\n        /* \"contracts/CrowdTank.sol\":5864:5871  Project */\n      dup2\n        /* \"contracts/CrowdTank.sol\":5864:5887  Project.failed_projects */\n      0x08\n      add\n      0x00\n        /* \"contracts/CrowdTank.sol\":5864:5894  Project.failed_projects = true */\n      0x0100\n      exp\n      dup2\n      sload\n      dup2\n      0xff\n      mul\n      not\n      and\n      swap1\n      dup4\n      iszero\n      iszero\n      mul\n      or\n      swap1\n      sstore\n      pop\n        /* \"contracts/CrowdTank.sol\":5706:5918  if (!Project.funded && block.timestamp > Project.deadline && !Project.failed_projects ) {... */\n    tag_173:\n        /* \"contracts/CrowdTank.sol\":5631:5937  {... */\n      pop\n        /* \"contracts/CrowdTank.sol\":5626:5629  i++ */\n      dup1\n      dup1\n      0x01\n      add\n      swap2\n      pop\n      pop\n        /* \"contracts/CrowdTank.sol\":5590:5937  for (uint i = 0; i < TotalProjects; i++) {... */\n      jump(tag_168)\n    tag_169:\n      pop\n        /* \"contracts/CrowdTank.sol\":5534:5952  function Mark_failed_Projects() external {... */\n      jump\t// out\n        /* \"contracts/CrowdTank.sol\":6017:6131  function Get_Total_Raised_Funding() view public returns(uint) {... */\n    tag_67:\n        /* \"contracts/CrowdTank.sol\":6073:6077  uint */\n      0x00\n        /* \"contracts/CrowdTank.sol\":6101:6119  TotalRaisedFunding */\n      sload(0x01)\n        /* \"contracts/CrowdTank.sol\":6094:6119  return TotalRaisedFunding */\n      swap1\n      pop\n        /* \"contracts/CrowdTank.sol\":6017:6131  function Get_Total_Raised_Funding() view public returns(uint) {... */\n      swap1\n      jump\t// out\n        /* \"contracts/CrowdTank.sol\":1762:1826  mapping (uint => mapping (address => uint)) public Contributions */\n    tag_73:\n      mstore(0x20, 0x08)\n      dup2\n      0x00\n      mstore\n      mstore(0x20, keccak256(0x00, 0x40))\n      dup1\n      0x00\n      mstore\n      keccak256(0x00, 0x40)\n      0x00\n      swap2\n      pop\n      swap2\n      pop\n      pop\n      sload\n      dup2\n      jump\t// out\n        /* \"contracts/CrowdTank.sol\":8430:8703  function Extend_Deadline(uint _projectID , uint _deadline) external {... */\n    tag_78:\n        /* \"contracts/CrowdTank.sol\":8509:8532  project storage Project */\n      0x00\n        /* \"contracts/CrowdTank.sol\":8535:8543  Projects */\n      0x07\n        /* \"contracts/CrowdTank.sol\":8535:8555  Projects[_projectID] */\n      0x00\n        /* \"contracts/CrowdTank.sol\":8544:8554  _projectID */\n      dup5\n        /* \"contracts/CrowdTank.sol\":8535:8555  Projects[_projectID] */\n      dup2\n      mstore\n      0x20\n      add\n      swap1\n      dup2\n      mstore\n      0x20\n      add\n      0x00\n      keccak256\n        /* \"contracts/CrowdTank.sol\":8509:8555  project storage Project = Projects[_projectID] */\n      swap1\n      pop\n        /* \"contracts/CrowdTank.sol\":8593:8603  msg.sender */\n      caller\n        /* \"contracts/CrowdTank.sol\":8574:8603  Project.creator == msg.sender */\n      0xffffffffffffffffffffffffffffffffffffffff\n      and\n        /* \"contracts/CrowdTank.sol\":8574:8581  Project */\n      dup2\n        /* \"contracts/CrowdTank.sol\":8574:8589  Project.creator */\n      0x00\n      add\n      0x00\n      swap1\n      sload\n      swap1\n      0x0100\n      exp\n      swap1\n      div\n      0xffffffffffffffffffffffffffffffffffffffff\n      and\n        /* \"contracts/CrowdTank.sol\":8574:8603  Project.creator == msg.sender */\n      0xffffffffffffffffffffffffffffffffffffffff\n      and\n      eq\n        /* \"contracts/CrowdTank.sol\":8566:8655  require(Project.creator == msg.sender , \"Only Project creator can extend the deadline!!\") */\n      tag_178\n      jumpi\n      mload(0x40)\n      0x08c379a000000000000000000000000000000000000000000000000000000000\n      dup2\n      mstore\n      0x04\n      add\n      tag_179\n      swap1\n      tag_180\n      jump\t// in\n    tag_179:\n      mload(0x40)\n      dup1\n      swap2\n      sub\n      swap1\n      revert\n    tag_178:\n        /* \"contracts/CrowdTank.sol\":8686:8695  _deadline */\n      dup2\n        /* \"contracts/CrowdTank.sol\":8666:8673  Project */\n      dup2\n        /* \"contracts/CrowdTank.sol\":8666:8682  Project.deadline */\n      0x04\n      add\n      0x00\n        /* \"contracts/CrowdTank.sol\":8666:8695  Project.deadline += _deadline */\n      dup3\n      dup3\n      sload\n      tag_181\n      swap2\n      swap1\n      tag_182\n      jump\t// in\n    tag_181:\n      swap3\n      pop\n      pop\n      dup2\n      swap1\n      sstore\n      pop\n        /* \"contracts/CrowdTank.sol\":8498:8703  {... */\n      pop\n        /* \"contracts/CrowdTank.sol\":8430:8703  function Extend_Deadline(uint _projectID , uint _deadline) external {... */\n      pop\n      pop\n      jump\t// out\n        /* \"contracts/CrowdTank.sol\":3525:5522  function fundProject(uint _projectID) external payable nonReentrant {... */\n    tag_81:\n        /* \"@openzeppelin/contracts/utils/ReentrancyGuard.sol\":2500:2521  _nonReentrantBefore() */\n      tag_184\n        /* \"@openzeppelin/contracts/utils/ReentrancyGuard.sol\":2500:2519  _nonReentrantBefore */\n      tag_185\n        /* \"@openzeppelin/contracts/utils/ReentrancyGuard.sol\":2500:2521  _nonReentrantBefore() */\n      jump\t// in\n    tag_184:\n        /* \"contracts/CrowdTank.sol\":3608:3631  project storage Project */\n      0x00\n        /* \"contracts/CrowdTank.sol\":3634:3642  Projects */\n      0x07\n        /* \"contracts/CrowdTank.sol\":3634:3654  Projects[_projectID] */\n      0x00\n        /* \"contracts/CrowdTank.sol\":3643:3653  _projectID */\n      dup4\n        /* \"contracts/CrowdTank.sol\":3634:3654  Projects[_projectID] */\n      dup2\n      mstore\n      0x20\n      add\n      swap1\n      dup2\n      mstore\n      0x20\n      add\n      0x00\n      keccak256\n        /* \"contracts/CrowdTank.sol\":3608:3654  project storage Project = Projects[_projectID] */\n      swap1\n      pop\n        /* \"contracts/CrowdTank.sol\":3694:3701  Project */\n      dup1\n        /* \"contracts/CrowdTank.sol\":3694:3710  Project.deadline */\n      0x04\n      add\n      sload\n        /* \"contracts/CrowdTank.sol\":3677:3692  block.timestamp */\n      timestamp\n        /* \"contracts/CrowdTank.sol\":3677:3710  block.timestamp<=Project.deadline */\n      gt\n      iszero\n        /* \"contracts/CrowdTank.sol\":3669:3741  require(block.timestamp<=Project.deadline , \"Project deadline is over!\") */\n      tag_187\n      jumpi\n      mload(0x40)\n      0x08c379a000000000000000000000000000000000000000000000000000000000\n      dup2\n      mstore\n      0x04\n      add\n      tag_188\n      swap1\n      tag_189\n      jump\t// in\n    tag_188:\n      mload(0x40)\n      dup1\n      swap2\n      sub\n      swap1\n      revert\n    tag_187:\n        /* \"contracts/CrowdTank.sol\":3765:3772  Project */\n      dup1\n        /* \"contracts/CrowdTank.sol\":3765:3779  Project.funded */\n      0x06\n      add\n      0x00\n      swap1\n      sload\n      swap1\n      0x0100\n      exp\n      swap1\n      div\n      0xff\n      and\n        /* \"contracts/CrowdTank.sol\":3764:3779  !Project.funded */\n      iszero\n        /* \"contracts/CrowdTank.sol\":3756:3824  require(!Project.funded , \"Project Reached its Funding requirement\") */\n      tag_190\n      jumpi\n      mload(0x40)\n      0x08c379a000000000000000000000000000000000000000000000000000000000\n      dup2\n      mstore\n      0x04\n      add\n      tag_191\n      swap1\n      tag_192\n      jump\t// in\n    tag_191:\n      mload(0x40)\n      dup1\n      swap2\n      sub\n      swap1\n      revert\n    tag_190:\n        /* \"contracts/CrowdTank.sol\":3857:3858  0 */\n      0x00\n        /* \"contracts/CrowdTank.sol\":3847:3856  msg.value */\n      callvalue\n        /* \"contracts/CrowdTank.sol\":3847:3858  msg.value>0 */\n      gt\n        /* \"contracts/CrowdTank.sol\":3839:3908  require(msg.value>0 , \"send some ether to contribute in the project\") */\n      tag_193\n      jumpi\n      mload(0x40)\n      0x08c379a000000000000000000000000000000000000000000000000000000000\n      dup2\n      mstore\n      0x04\n      add\n      tag_194\n      swap1\n      tag_195\n      jump\t// in\n    tag_194:\n      mload(0x40)\n      dup1\n      swap2\n      sub\n      swap1\n      revert\n    tag_193:\n        /* \"contracts/CrowdTank.sol\":3944:3951  Project */\n      dup1\n        /* \"contracts/CrowdTank.sol\":3944:3963  Project.fundingGoal */\n      0x03\n      add\n      sload\n        /* \"contracts/CrowdTank.sol\":3931:3940  msg.value */\n      callvalue\n        /* \"contracts/CrowdTank.sol\":3931:3963  msg.value <= Project.fundingGoal */\n      gt\n      iszero\n        /* \"contracts/CrowdTank.sol\":3923:4004  require(msg.value <= Project.fundingGoal, \"Amount Contributed is more than Goal\") */\n      tag_196\n      jumpi\n      mload(0x40)\n      0x08c379a000000000000000000000000000000000000000000000000000000000\n      dup2\n      mstore\n      0x04\n      add\n      tag_197\n      swap1\n      tag_198\n      jump\t// in\n    tag_197:\n      mload(0x40)\n      dup1\n      swap2\n      sub\n      swap1\n      revert\n    tag_196:\n        /* \"contracts/CrowdTank.sol\":4019:4033  uint remaining */\n      0x00\n        /* \"contracts/CrowdTank.sol\":4058:4065  Project */\n      dup2\n        /* \"contracts/CrowdTank.sol\":4058:4078  Project.amountRaised */\n      0x05\n      add\n      sload\n        /* \"contracts/CrowdTank.sol\":4036:4043  Project */\n      dup3\n        /* \"contracts/CrowdTank.sol\":4036:4055  Project.fundingGoal */\n      0x03\n      add\n      sload\n        /* \"contracts/CrowdTank.sol\":4036:4078  Project.fundingGoal - Project.amountRaised */\n      tag_199\n      swap2\n      swap1\n      tag_128\n      jump\t// in\n    tag_199:\n        /* \"contracts/CrowdTank.sol\":4019:4078  uint remaining = Project.fundingGoal - Project.amountRaised */\n      swap1\n      pop\n        /* \"contracts/CrowdTank.sol\":4093:4112  uint amountToAccept */\n      0x00\n        /* \"contracts/CrowdTank.sol\":4127:4138  uint refund */\n      0x00\n        /* \"contracts/CrowdTank.sol\":4168:4177  remaining */\n      dup3\n        /* \"contracts/CrowdTank.sol\":4156:4165  msg.value */\n      callvalue\n        /* \"contracts/CrowdTank.sol\":4156:4177  msg.value > remaining */\n      gt\n        /* \"contracts/CrowdTank.sol\":4153:4385  if(msg.value > remaining) {... */\n      iszero\n      tag_200\n      jumpi\n        /* \"contracts/CrowdTank.sol\":4215:4224  remaining */\n      dup3\n        /* \"contracts/CrowdTank.sol\":4198:4224  amountToAccept = remaining */\n      swap2\n      pop\n        /* \"contracts/CrowdTank.sol\":4264:4273  remaining */\n      dup3\n        /* \"contracts/CrowdTank.sol\":4252:4261  msg.value */\n      callvalue\n        /* \"contracts/CrowdTank.sol\":4252:4273  msg.value - remaining */\n      tag_201\n      swap2\n      swap1\n      tag_128\n      jump\t// in\n    tag_201:\n        /* \"contracts/CrowdTank.sol\":4243:4273  refund = msg.value - remaining */\n      swap1\n      pop\n        /* \"contracts/CrowdTank.sol\":4153:4385  if(msg.value > remaining) {... */\n      jump(tag_202)\n    tag_200:\n        /* \"contracts/CrowdTank.sol\":4331:4340  msg.value */\n      callvalue\n        /* \"contracts/CrowdTank.sol\":4314:4340  amountToAccept = msg.value */\n      swap2\n      pop\n        /* \"contracts/CrowdTank.sol\":4368:4369  0 */\n      0x00\n        /* \"contracts/CrowdTank.sol\":4359:4369  refund = 0 */\n      swap1\n      pop\n        /* \"contracts/CrowdTank.sol\":4153:4385  if(msg.value > remaining) {... */\n    tag_202:\n        /* \"contracts/CrowdTank.sol\":4423:4437  amountToAccept */\n      dup2\n        /* \"contracts/CrowdTank.sol\":4399:4406  Project */\n      dup5\n        /* \"contracts/CrowdTank.sol\":4399:4419  Project.amountRaised */\n      0x05\n      add\n      0x00\n        /* \"contracts/CrowdTank.sol\":4399:4437  Project.amountRaised += amountToAccept */\n      dup3\n      dup3\n      sload\n      tag_203\n      swap2\n      swap1\n      tag_182\n      jump\t// in\n    tag_203:\n      swap3\n      pop\n      pop\n      dup2\n      swap1\n      sstore\n      pop\n        /* \"contracts/CrowdTank.sol\":4492:4506  amountToAccept */\n      dup2\n        /* \"contracts/CrowdTank.sol\":4452:4465  Contributions */\n      0x08\n        /* \"contracts/CrowdTank.sol\":4452:4477  Contributions[_projectID] */\n      0x00\n        /* \"contracts/CrowdTank.sol\":4466:4476  _projectID */\n      dup8\n        /* \"contracts/CrowdTank.sol\":4452:4477  Contributions[_projectID] */\n      dup2\n      mstore\n      0x20\n      add\n      swap1\n      dup2\n      mstore\n      0x20\n      add\n      0x00\n      keccak256\n        /* \"contracts/CrowdTank.sol\":4452:4489  Contributions[_projectID][msg.sender] */\n      0x00\n        /* \"contracts/CrowdTank.sol\":4478:4488  msg.sender */\n      caller\n        /* \"contracts/CrowdTank.sol\":4452:4489  Contributions[_projectID][msg.sender] */\n      0xffffffffffffffffffffffffffffffffffffffff\n      and\n      0xffffffffffffffffffffffffffffffffffffffff\n      and\n      dup2\n      mstore\n      0x20\n      add\n      swap1\n      dup2\n      mstore\n      0x20\n      add\n      0x00\n      keccak256\n        /* \"contracts/CrowdTank.sol\":4452:4506  Contributions[_projectID][msg.sender] = amountToAccept */\n      dup2\n      swap1\n      sstore\n      pop\n        /* \"contracts/CrowdTank.sol\":4574:4588  amountToAccept */\n      dup2\n        /* \"contracts/CrowdTank.sol\":4554:4572  TotalRaisedFunding */\n      0x01\n      0x00\n        /* \"contracts/CrowdTank.sol\":4554:4588  TotalRaisedFunding+=amountToAccept */\n      dup3\n      dup3\n      sload\n      tag_204\n      swap2\n      swap1\n      tag_182\n      jump\t// in\n    tag_204:\n      swap3\n      pop\n      pop\n      dup2\n      swap1\n      sstore\n      pop\n        /* \"contracts/CrowdTank.sol\":4616:4617  0 */\n      0x00\n        /* \"contracts/CrowdTank.sol\":4607:4613  refund */\n      dup2\n        /* \"contracts/CrowdTank.sol\":4607:4617  refund > 0 */\n      gt\n        /* \"contracts/CrowdTank.sol\":4603:4763  if (refund > 0) {... */\n      iszero\n      tag_205\n      jumpi\n        /* \"contracts/CrowdTank.sol\":4639:4648  bool sent */\n      0x00\n        /* \"contracts/CrowdTank.sol\":4662:4672  msg.sender */\n      caller\n        /* \"contracts/CrowdTank.sol\":4654:4678  payable(msg.sender).call */\n      0xffffffffffffffffffffffffffffffffffffffff\n      and\n        /* \"contracts/CrowdTank.sol\":4686:4692  refund */\n      dup3\n        /* \"contracts/CrowdTank.sol\":4654:4697  payable(msg.sender).call{value: refund}(\"\") */\n      mload(0x40)\n      tag_206\n      swap1\n      tag_207\n      jump\t// in\n    tag_206:\n      0x00\n      mload(0x40)\n      dup1\n      dup4\n      sub\n      dup2\n      dup6\n      dup8\n      gas\n      call\n      swap3\n      pop\n      pop\n      pop\n      returndatasize\n      dup1\n      0x00\n      dup2\n      eq\n      tag_210\n      jumpi\n      mload(0x40)\n      swap2\n      pop\n      and(add(returndatasize, 0x3f), not(0x1f))\n      dup3\n      add\n      0x40\n      mstore\n      returndatasize\n      dup3\n      mstore\n      returndatasize\n      0x00\n      0x20\n      dup5\n      add\n      returndatacopy\n      jump(tag_209)\n    tag_210:\n      0x60\n      swap2\n      pop\n    tag_209:\n      pop\n        /* \"contracts/CrowdTank.sol\":4638:4697  (bool sent, ) = payable(msg.sender).call{value: refund}(\"\") */\n      pop\n      swap1\n      pop\n        /* \"contracts/CrowdTank.sol\":4724:4728  sent */\n      dup1\n        /* \"contracts/CrowdTank.sol\":4716:4747  require(sent , \"Refund Failed\") */\n      tag_211\n      jumpi\n      mload(0x40)\n      0x08c379a000000000000000000000000000000000000000000000000000000000\n      dup2\n      mstore\n      0x04\n      add\n      tag_212\n      swap1\n      tag_213\n      jump\t// in\n    tag_212:\n      mload(0x40)\n      dup1\n      swap2\n      sub\n      swap1\n      revert\n    tag_211:\n        /* \"contracts/CrowdTank.sol\":4619:4763  {... */\n      pop\n        /* \"contracts/CrowdTank.sol\":4603:4763  if (refund > 0) {... */\n    tag_205:\n        /* \"contracts/CrowdTank.sol\":4826:4840  uint userTotal */\n      0x00\n        /* \"contracts/CrowdTank.sol\":4843:4856  Contributions */\n      0x08\n        /* \"contracts/CrowdTank.sol\":4843:4868  Contributions[_projectID] */\n      0x00\n        /* \"contracts/CrowdTank.sol\":4857:4867  _projectID */\n      dup8\n        /* \"contracts/CrowdTank.sol\":4843:4868  Contributions[_projectID] */\n      dup2\n      mstore\n      0x20\n      add\n      swap1\n      dup2\n      mstore\n      0x20\n      add\n      0x00\n      keccak256\n        /* \"contracts/CrowdTank.sol\":4843:4880  Contributions[_projectID][msg.sender] */\n      0x00\n        /* \"contracts/CrowdTank.sol\":4869:4879  msg.sender */\n      caller\n        /* \"contracts/CrowdTank.sol\":4843:4880  Contributions[_projectID][msg.sender] */\n      0xffffffffffffffffffffffffffffffffffffffff\n      and\n      0xffffffffffffffffffffffffffffffffffffffff\n      and\n      dup2\n      mstore\n      0x20\n      add\n      swap1\n      dup2\n      mstore\n      0x20\n      add\n      0x00\n      keccak256\n      sload\n        /* \"contracts/CrowdTank.sol\":4826:4880  uint userTotal = Contributions[_projectID][msg.sender] */\n      swap1\n      pop\n        /* \"contracts/CrowdTank.sol\":4911:4918  Project */\n      dup5\n        /* \"contracts/CrowdTank.sol\":4911:4939  Project.highest_contribution */\n      0x07\n      add\n      sload\n        /* \"contracts/CrowdTank.sol\":4899:4908  userTotal */\n      dup2\n        /* \"contracts/CrowdTank.sol\":4899:4939  userTotal > Project.highest_contribution */\n      gt\n        /* \"contracts/CrowdTank.sol\":4895:5070  if (userTotal > Project.highest_contribution) {... */\n      iszero\n      tag_214\n      jumpi\n        /* \"contracts/CrowdTank.sol\":4991:5000  userTotal */\n      dup1\n        /* \"contracts/CrowdTank.sol\":4960:4967  Project */\n      dup6\n        /* \"contracts/CrowdTank.sol\":4960:4988  Project.highest_contribution */\n      0x07\n      add\n        /* \"contracts/CrowdTank.sol\":4960:5000  Project.highest_contribution = userTotal */\n      dup2\n      swap1\n      sstore\n      pop\n        /* \"contracts/CrowdTank.sol\":5044:5054  msg.sender */\n      caller\n        /* \"contracts/CrowdTank.sol\":5019:5026  Project */\n      dup6\n        /* \"contracts/CrowdTank.sol\":5019:5041  Project.highest_Funder */\n      0x06\n      add\n      0x01\n        /* \"contracts/CrowdTank.sol\":5019:5054  Project.highest_Funder = msg.sender */\n      0x0100\n      exp\n      dup2\n      sload\n      dup2\n      0xffffffffffffffffffffffffffffffffffffffff\n      mul\n      not\n      and\n      swap1\n      dup4\n      0xffffffffffffffffffffffffffffffffffffffff\n      and\n      mul\n      or\n      swap1\n      sstore\n      pop\n        /* \"contracts/CrowdTank.sol\":4895:5070  if (userTotal > Project.highest_contribution) {... */\n    tag_214:\n        /* \"contracts/CrowdTank.sol\":5098:5108  _projectID */\n      dup6\n        /* \"contracts/CrowdTank.sol\":5091:5146  funded(_projectID, msg.sender, amountToAccept , refund) */\n      0x7dd983e9d08b449d571f3583275e98423857f3ffbe9ef56f927eb02b1c8ab599\n        /* \"contracts/CrowdTank.sol\":5110:5120  msg.sender */\n      caller\n        /* \"contracts/CrowdTank.sol\":5122:5136  amountToAccept */\n      dup6\n        /* \"contracts/CrowdTank.sol\":5139:5145  refund */\n      dup6\n        /* \"contracts/CrowdTank.sol\":5091:5146  funded(_projectID, msg.sender, amountToAccept , refund) */\n      mload(0x40)\n      tag_215\n      swap4\n      swap3\n      swap2\n      swap1\n      tag_216\n      jump\t// in\n    tag_215:\n      mload(0x40)\n      dup1\n      swap2\n      sub\n      swap1\n      log2\n        /* \"contracts/CrowdTank.sol\":5189:5196  Project */\n      dup5\n        /* \"contracts/CrowdTank.sol\":5189:5208  Project.fundingGoal */\n      0x03\n      add\n      sload\n        /* \"contracts/CrowdTank.sol\":5167:5174  Project */\n      dup6\n        /* \"contracts/CrowdTank.sol\":5167:5187  Project.amountRaised */\n      0x05\n      add\n      sload\n        /* \"contracts/CrowdTank.sol\":5167:5208  Project.amountRaised>=Project.fundingGoal */\n      lt\n        /* \"contracts/CrowdTank.sol\":5163:5266  if (Project.amountRaised>=Project.fundingGoal) {... */\n      tag_217\n      jumpi\n        /* \"contracts/CrowdTank.sol\":5246:5250  true */\n      0x01\n        /* \"contracts/CrowdTank.sol\":5229:5236  Project */\n      dup6\n        /* \"contracts/CrowdTank.sol\":5229:5243  Project.funded */\n      0x06\n      add\n      0x00\n        /* \"contracts/CrowdTank.sol\":5229:5250  Project.funded = true */\n      0x0100\n      exp\n      dup2\n      sload\n      dup2\n      0xff\n      mul\n      not\n      and\n      swap1\n      dup4\n      iszero\n      iszero\n      mul\n      or\n      swap1\n      sstore\n      pop\n        /* \"contracts/CrowdTank.sol\":5163:5266  if (Project.amountRaised>=Project.fundingGoal) {... */\n    tag_217:\n        /* \"contracts/CrowdTank.sol\":5335:5342  Project */\n      dup5\n        /* \"contracts/CrowdTank.sol\":5335:5349  Project.funded */\n      0x06\n      add\n      0x00\n      swap1\n      sload\n      swap1\n      0x0100\n      exp\n      swap1\n      div\n      0xff\n      and\n        /* \"contracts/CrowdTank.sol\":5334:5349  !Project.funded */\n      iszero\n        /* \"contracts/CrowdTank.sol\":5333:5406  (!Project.funded) && (Project.amountRaised+msg.value >= Project.deadline) */\n      dup1\n      iszero\n      tag_218\n      jumpi\n      pop\n        /* \"contracts/CrowdTank.sol\":5389:5396  Project */\n      dup5\n        /* \"contracts/CrowdTank.sol\":5389:5405  Project.deadline */\n      0x04\n      add\n      sload\n        /* \"contracts/CrowdTank.sol\":5376:5385  msg.value */\n      callvalue\n        /* \"contracts/CrowdTank.sol\":5355:5362  Project */\n      dup7\n        /* \"contracts/CrowdTank.sol\":5355:5375  Project.amountRaised */\n      0x05\n      add\n      sload\n        /* \"contracts/CrowdTank.sol\":5355:5385  Project.amountRaised+msg.value */\n      tag_219\n      swap2\n      swap1\n      tag_182\n      jump\t// in\n    tag_219:\n        /* \"contracts/CrowdTank.sol\":5355:5405  Project.amountRaised+msg.value >= Project.deadline */\n      lt\n      iszero\n        /* \"contracts/CrowdTank.sol\":5333:5406  (!Project.funded) && (Project.amountRaised+msg.value >= Project.deadline) */\n    tag_218:\n        /* \"contracts/CrowdTank.sol\":5329:5511  if ((!Project.funded) && (Project.amountRaised+msg.value >= Project.deadline)) {... */\n      iszero\n      tag_220\n      jumpi\n        /* \"contracts/CrowdTank.sol\":5444:5448  true */\n      0x01\n        /* \"contracts/CrowdTank.sol\":5427:5434  Project */\n      dup6\n        /* \"contracts/CrowdTank.sol\":5427:5441  Project.funded */\n      0x06\n      add\n      0x00\n        /* \"contracts/CrowdTank.sol\":5427:5448  Project.funded = true */\n      0x0100\n      exp\n      dup2\n      sload\n      dup2\n      0xff\n      mul\n      not\n      and\n      swap1\n      dup4\n      iszero\n      iszero\n      mul\n      or\n      swap1\n      sstore\n      pop\n        /* \"contracts/CrowdTank.sol\":5467:5493  Successful_Funded_Projects */\n      0x04\n      0x00\n        /* \"contracts/CrowdTank.sol\":5467:5495  Successful_Funded_Projects++ */\n      dup2\n      sload\n      dup1\n      swap3\n      swap2\n      swap1\n      tag_221\n      swap1\n      tag_175\n      jump\t// in\n    tag_221:\n      swap2\n      swap1\n      pop\n      sstore\n      pop\n        /* \"contracts/CrowdTank.sol\":5329:5511  if ((!Project.funded) && (Project.amountRaised+msg.value >= Project.deadline)) {... */\n    tag_220:\n        /* \"contracts/CrowdTank.sol\":3593:5522  {... */\n      pop\n      pop\n      pop\n      pop\n      pop\n        /* \"@openzeppelin/contracts/utils/ReentrancyGuard.sol\":2542:2562  _nonReentrantAfter() */\n      tag_222\n        /* \"@openzeppelin/contracts/utils/ReentrancyGuard.sol\":2542:2560  _nonReentrantAfter */\n      tag_223\n        /* \"@openzeppelin/contracts/utils/ReentrancyGuard.sol\":2542:2562  _nonReentrantAfter() */\n      jump\t// in\n    tag_222:\n        /* \"contracts/CrowdTank.sol\":3525:5522  function fundProject(uint _projectID) external payable nonReentrant {... */\n      pop\n      jump\t// out\n        /* \"contracts/CrowdTank.sol\":6866:7467  function creatorWithdraw(uint _projectID) external payable {... */\n    tag_84:\n        /* \"contracts/CrowdTank.sol\":6936:6959  project storage Project */\n      0x00\n        /* \"contracts/CrowdTank.sol\":6962:6970  Projects */\n      0x07\n        /* \"contracts/CrowdTank.sol\":6962:6982  Projects[_projectID] */\n      0x00\n        /* \"contracts/CrowdTank.sol\":6971:6981  _projectID */\n      dup4\n        /* \"contracts/CrowdTank.sol\":6962:6982  Projects[_projectID] */\n      dup2\n      mstore\n      0x20\n      add\n      swap1\n      dup2\n      mstore\n      0x20\n      add\n      0x00\n      keccak256\n        /* \"contracts/CrowdTank.sol\":6936:6982  project storage Project = Projects[_projectID] */\n      swap1\n      pop\n        /* \"contracts/CrowdTank.sol\":6993:7010  uint totalfunding */\n      0x00\n        /* \"contracts/CrowdTank.sol\":7013:7020  Project */\n      dup2\n        /* \"contracts/CrowdTank.sol\":7013:7033  Project.amountRaised */\n      0x05\n      add\n      sload\n        /* \"contracts/CrowdTank.sol\":6993:7033  uint totalfunding = Project.amountRaised */\n      swap1\n      pop\n        /* \"contracts/CrowdTank.sol\":7052:7059  Project */\n      dup2\n        /* \"contracts/CrowdTank.sol\":7052:7066  Project.funded */\n      0x06\n      add\n      0x00\n      swap1\n      sload\n      swap1\n      0x0100\n      exp\n      swap1\n      div\n      0xff\n      and\n        /* \"contracts/CrowdTank.sol\":7044:7123  require(Project.funded , \"funding goal has not reached , admin can't withdraw\") */\n      tag_225\n      jumpi\n      mload(0x40)\n      0x08c379a000000000000000000000000000000000000000000000000000000000\n      dup2\n      mstore\n      0x04\n      add\n      tag_226\n      swap1\n      tag_227\n      jump\t// in\n    tag_226:\n      mload(0x40)\n      dup1\n      swap2\n      sub\n      swap1\n      revert\n    tag_225:\n        /* \"contracts/CrowdTank.sol\":7161:7171  msg.sender */\n      caller\n        /* \"contracts/CrowdTank.sol\":7142:7171  Project.creator == msg.sender */\n      0xffffffffffffffffffffffffffffffffffffffff\n      and\n        /* \"contracts/CrowdTank.sol\":7142:7149  Project */\n      dup3\n        /* \"contracts/CrowdTank.sol\":7142:7157  Project.creator */\n      0x00\n      add\n      0x00\n      swap1\n      sload\n      swap1\n      0x0100\n      exp\n      swap1\n      div\n      0xffffffffffffffffffffffffffffffffffffffff\n      and\n        /* \"contracts/CrowdTank.sol\":7142:7171  Project.creator == msg.sender */\n      0xffffffffffffffffffffffffffffffffffffffff\n      and\n      eq\n        /* \"contracts/CrowdTank.sol\":7134:7200  require(Project.creator == msg.sender , \"only admin can withdraw\") */\n      tag_228\n      jumpi\n      mload(0x40)\n      0x08c379a000000000000000000000000000000000000000000000000000000000\n      dup2\n      mstore\n      0x04\n      add\n      tag_229\n      swap1\n      tag_230\n      jump\t// in\n    tag_229:\n      mload(0x40)\n      dup1\n      swap2\n      sub\n      swap1\n      revert\n    tag_228:\n        /* \"contracts/CrowdTank.sol\":7237:7252  block.timestamp */\n      timestamp\n        /* \"contracts/CrowdTank.sol\":7219:7226  Project */\n      dup3\n        /* \"contracts/CrowdTank.sol\":7219:7235  Project.deadline */\n      0x04\n      add\n      sload\n        /* \"contracts/CrowdTank.sol\":7219:7252  Project.deadline<=block.timestamp */\n      gt\n      iszero\n        /* \"contracts/CrowdTank.sol\":7211:7305  require(Project.deadline<=block.timestamp , \"deadline has not reached , admin can't withdraw\") */\n      tag_231\n      jumpi\n      mload(0x40)\n      0x08c379a000000000000000000000000000000000000000000000000000000000\n      dup2\n      mstore\n      0x04\n      add\n      tag_232\n      swap1\n      tag_233\n      jump\t// in\n    tag_232:\n      mload(0x40)\n      dup1\n      swap2\n      sub\n      swap1\n      revert\n    tag_231:\n        /* \"contracts/CrowdTank.sol\":7324:7334  msg.sender */\n      caller\n        /* \"contracts/CrowdTank.sol\":7316:7344  payable(msg.sender).transfer */\n      0xffffffffffffffffffffffffffffffffffffffff\n      and\n        /* \"contracts/CrowdTank.sol\":7316:7358  payable(msg.sender).transfer(totalfunding) */\n      0x08fc\n        /* \"contracts/CrowdTank.sol\":7345:7357  totalfunding */\n      dup3\n        /* \"contracts/CrowdTank.sol\":7316:7358  payable(msg.sender).transfer(totalfunding) */\n      swap1\n      dup2\n      iszero\n      mul\n      swap1\n      mload(0x40)\n      0x00\n      mload(0x40)\n      dup1\n      dup4\n      sub\n      dup2\n      dup6\n      dup9\n      dup9\n      call\n      swap4\n      pop\n      pop\n      pop\n      pop\n      iszero\n      dup1\n      iszero\n      tag_235\n      jumpi\n      returndatacopy(0x00, 0x00, returndatasize)\n      revert(0x00, returndatasize)\n    tag_235:\n      pop\n        /* \"contracts/CrowdTank.sol\":7425:7435  _projectID */\n      dup3\n        /* \"contracts/CrowdTank.sol\":7408:7459  creatorWithdrawn(_projectID, msg.sender, msg.value) */\n      0xcae030e1a3c6b0011e7009bd65734e2e1e330528f6983497631fabd47fa7a281\n        /* \"contracts/CrowdTank.sol\":7437:7447  msg.sender */\n      caller\n        /* \"contracts/CrowdTank.sol\":7449:7458  msg.value */\n      callvalue\n        /* \"contracts/CrowdTank.sol\":7408:7459  creatorWithdrawn(_projectID, msg.sender, msg.value) */\n      mload(0x40)\n      tag_236\n      swap3\n      swap2\n      swap1\n      tag_161\n      jump\t// in\n    tag_236:\n      mload(0x40)\n      dup1\n      swap2\n      sub\n      swap1\n      log2\n        /* \"contracts/CrowdTank.sol\":6925:7467  {... */\n      pop\n      pop\n        /* \"contracts/CrowdTank.sol\":6866:7467  function creatorWithdraw(uint _projectID) external payable {... */\n      pop\n      jump\t// out\n        /* \"contracts/CrowdTank.sol\":1106:1267  function Remove_Creators( address _creator ) external OnlyAdmin {... */\n    tag_89:\n        /* \"contracts/CrowdTank.sol\":788:798  msg.sender */\n      caller\n        /* \"contracts/CrowdTank.sol\":779:798  admin == msg.sender */\n      0xffffffffffffffffffffffffffffffffffffffff\n      and\n        /* \"contracts/CrowdTank.sol\":779:784  admin */\n      0x03\n      0x00\n      swap1\n      sload\n      swap1\n      0x0100\n      exp\n      swap1\n      div\n      0xffffffffffffffffffffffffffffffffffffffff\n      and\n        /* \"contracts/CrowdTank.sol\":779:798  admin == msg.sender */\n      0xffffffffffffffffffffffffffffffffffffffff\n      and\n      eq\n        /* \"contracts/CrowdTank.sol\":771:825  require(admin == msg.sender , \"Only Admin can access\") */\n      tag_238\n      jumpi\n      mload(0x40)\n      0x08c379a000000000000000000000000000000000000000000000000000000000\n      dup2\n      mstore\n      0x04\n      add\n      tag_239\n      swap1\n      tag_240\n      jump\t// in\n    tag_239:\n      mload(0x40)\n      dup1\n      swap2\n      sub\n      swap1\n      revert\n    tag_238:\n        /* \"contracts/CrowdTank.sol\":1212:1217  false */\n      0x00\n        /* \"contracts/CrowdTank.sol\":1181:1199  AuthorizedCreators */\n      0x06\n        /* \"contracts/CrowdTank.sol\":1181:1209  AuthorizedCreators[_creator] */\n      0x00\n        /* \"contracts/CrowdTank.sol\":1200:1208  _creator */\n      dup4\n        /* \"contracts/CrowdTank.sol\":1181:1209  AuthorizedCreators[_creator] */\n      0xffffffffffffffffffffffffffffffffffffffff\n      and\n      0xffffffffffffffffffffffffffffffffffffffff\n      and\n      dup2\n      mstore\n      0x20\n      add\n      swap1\n      dup2\n      mstore\n      0x20\n      add\n      0x00\n      keccak256\n      0x00\n        /* \"contracts/CrowdTank.sol\":1181:1217  AuthorizedCreators[_creator] = false */\n      0x0100\n      exp\n      dup2\n      sload\n      dup2\n      0xff\n      mul\n      not\n      and\n      swap1\n      dup4\n      iszero\n      iszero\n      mul\n      or\n      swap1\n      sstore\n      pop\n        /* \"contracts/CrowdTank.sol\":1250:1258  _creator */\n      dup1\n        /* \"contracts/CrowdTank.sol\":1235:1259  removedCreator(_creator) */\n      0xffffffffffffffffffffffffffffffffffffffff\n      and\n      0x0925d0e195cc39b7ade3fd58fdf494022e37bfd6242c2be09c0b2863977c1879\n      mload(0x40)\n      mload(0x40)\n      dup1\n      swap2\n      sub\n      swap1\n      log2\n        /* \"contracts/CrowdTank.sol\":1106:1267  function Remove_Creators( address _creator ) external OnlyAdmin {... */\n      pop\n      jump\t// out\n        /* \"contracts/CrowdTank.sol\":879:930  mapping (address => bool) public AuthorizedCreators */\n    tag_93:\n      mstore(0x20, 0x06)\n      dup1\n      0x00\n      mstore\n      keccak256(0x00, 0x40)\n      0x00\n      swap2\n      pop\n      sload\n      swap1\n      0x0100\n      exp\n      swap1\n      div\n      0xff\n      and\n      dup2\n      jump\t// out\n        /* \"contracts/CrowdTank.sol\":394:419  uint public TotalProjects */\n    tag_98:\n      sload(0x02)\n      dup2\n      jump\t// out\n        /* \"contracts/CrowdTank.sol\":9522:10476  function userEarlyWithdraw( uint _projectID , uint withdrawn_amount) external payable {... */\n    tag_102:\n        /* \"contracts/CrowdTank.sol\":9619:9642  project storage Project */\n      0x00\n        /* \"contracts/CrowdTank.sol\":9645:9653  Projects */\n      0x07\n        /* \"contracts/CrowdTank.sol\":9645:9665  Projects[_projectID] */\n      0x00\n        /* \"contracts/CrowdTank.sol\":9654:9664  _projectID */\n      dup5\n        /* \"contracts/CrowdTank.sol\":9645:9665  Projects[_projectID] */\n      dup2\n      mstore\n      0x20\n      add\n      swap1\n      dup2\n      mstore\n      0x20\n      add\n      0x00\n      keccak256\n        /* \"contracts/CrowdTank.sol\":9619:9665  project storage Project = Projects[_projectID] */\n      swap1\n      pop\n        /* \"contracts/CrowdTank.sol\":9702:9709  Project */\n      dup1\n        /* \"contracts/CrowdTank.sol\":9702:9718  Project.deadline */\n      0x04\n      add\n      sload\n        /* \"contracts/CrowdTank.sol\":9684:9699  block.timestamp */\n      timestamp\n        /* \"contracts/CrowdTank.sol\":9684:9718  block.timestamp < Project.deadline */\n      lt\n        /* \"contracts/CrowdTank.sol\":9676:9753  require(block.timestamp < Project.deadline, \"Cannot withdraw after deadline\") */\n      tag_243\n      jumpi\n      mload(0x40)\n      0x08c379a000000000000000000000000000000000000000000000000000000000\n      dup2\n      mstore\n      0x04\n      add\n      tag_244\n      swap1\n      tag_245\n      jump\t// in\n    tag_244:\n      mload(0x40)\n      dup1\n      swap2\n      sub\n      swap1\n      revert\n    tag_243:\n        /* \"contracts/CrowdTank.sol\":9764:9787  uint contributed_amount */\n      0x00\n        /* \"contracts/CrowdTank.sol\":9790:9803  Contributions */\n      0x08\n        /* \"contracts/CrowdTank.sol\":9790:9815  Contributions[_projectID] */\n      0x00\n        /* \"contracts/CrowdTank.sol\":9804:9814  _projectID */\n      dup6\n        /* \"contracts/CrowdTank.sol\":9790:9815  Contributions[_projectID] */\n      dup2\n      mstore\n      0x20\n      add\n      swap1\n      dup2\n      mstore\n      0x20\n      add\n      0x00\n      keccak256\n        /* \"contracts/CrowdTank.sol\":9790:9827  Contributions[_projectID][msg.sender] */\n      0x00\n        /* \"contracts/CrowdTank.sol\":9816:9826  msg.sender */\n      caller\n        /* \"contracts/CrowdTank.sol\":9790:9827  Contributions[_projectID][msg.sender] */\n      0xffffffffffffffffffffffffffffffffffffffff\n      and\n      0xffffffffffffffffffffffffffffffffffffffff\n      and\n      dup2\n      mstore\n      0x20\n      add\n      swap1\n      dup2\n      mstore\n      0x20\n      add\n      0x00\n      keccak256\n      sload\n        /* \"contracts/CrowdTank.sol\":9764:9827  uint contributed_amount = Contributions[_projectID][msg.sender] */\n      swap1\n      pop\n        /* \"contracts/CrowdTank.sol\":9867:9868  0 */\n      0x00\n        /* \"contracts/CrowdTank.sol\":9846:9864  contributed_amount */\n      dup2\n        /* \"contracts/CrowdTank.sol\":9846:9868  contributed_amount > 0 */\n      gt\n        /* \"contracts/CrowdTank.sol\":9838:9896  require(contributed_amount > 0 , \"No Funds to withdraw!!\") */\n      tag_246\n      jumpi\n      mload(0x40)\n      0x08c379a000000000000000000000000000000000000000000000000000000000\n      dup2\n      mstore\n      0x04\n      add\n      tag_247\n      swap1\n      tag_248\n      jump\t// in\n    tag_247:\n      mload(0x40)\n      dup1\n      swap2\n      sub\n      swap1\n      revert\n    tag_246:\n        /* \"contracts/CrowdTank.sol\":9935:9953  contributed_amount */\n      dup1\n        /* \"contracts/CrowdTank.sol\":9915:9931  withdrawn_amount */\n      dup4\n        /* \"contracts/CrowdTank.sol\":9915:9953  withdrawn_amount <= contributed_amount */\n      gt\n      iszero\n        /* \"contracts/CrowdTank.sol\":9907:10000  require(withdrawn_amount <= contributed_amount , \"Withdraw amount exceeds your contribution\") */\n      tag_249\n      jumpi\n      mload(0x40)\n      0x08c379a000000000000000000000000000000000000000000000000000000000\n      dup2\n      mstore\n      0x04\n      add\n      tag_250\n      swap1\n      tag_251\n      jump\t// in\n    tag_250:\n      mload(0x40)\n      dup1\n      swap2\n      sub\n      swap1\n      revert\n    tag_249:\n        /* \"contracts/CrowdTank.sol\":10093:10109  withdrawn_amount */\n      dup3\n        /* \"contracts/CrowdTank.sol\":10069:10076  Project */\n      dup3\n        /* \"contracts/CrowdTank.sol\":10069:10089  Project.amountRaised */\n      0x05\n      add\n      0x00\n        /* \"contracts/CrowdTank.sol\":10069:10109  Project.amountRaised -= withdrawn_amount */\n      dup3\n      dup3\n      sload\n      tag_252\n      swap2\n      swap1\n      tag_128\n      jump\t// in\n    tag_252:\n      swap3\n      pop\n      pop\n      dup2\n      swap1\n      sstore\n      pop\n        /* \"contracts/CrowdTank.sol\":10161:10177  withdrawn_amount */\n      dup3\n        /* \"contracts/CrowdTank.sol\":10120:10133  Contributions */\n      0x08\n        /* \"contracts/CrowdTank.sol\":10120:10145  Contributions[_projectID] */\n      0x00\n        /* \"contracts/CrowdTank.sol\":10134:10144  _projectID */\n      dup7\n        /* \"contracts/CrowdTank.sol\":10120:10145  Contributions[_projectID] */\n      dup2\n      mstore\n      0x20\n      add\n      swap1\n      dup2\n      mstore\n      0x20\n      add\n      0x00\n      keccak256\n        /* \"contracts/CrowdTank.sol\":10120:10157  Contributions[_projectID][msg.sender] */\n      0x00\n        /* \"contracts/CrowdTank.sol\":10146:10156  msg.sender */\n      caller\n        /* \"contracts/CrowdTank.sol\":10120:10157  Contributions[_projectID][msg.sender] */\n      0xffffffffffffffffffffffffffffffffffffffff\n      and\n      0xffffffffffffffffffffffffffffffffffffffff\n      and\n      dup2\n      mstore\n      0x20\n      add\n      swap1\n      dup2\n      mstore\n      0x20\n      add\n      0x00\n      keccak256\n      0x00\n        /* \"contracts/CrowdTank.sol\":10120:10177  Contributions[_projectID][msg.sender] -= withdrawn_amount */\n      dup3\n      dup3\n      sload\n      tag_253\n      swap2\n      swap1\n      tag_128\n      jump\t// in\n    tag_253:\n      swap3\n      pop\n      pop\n      dup2\n      swap1\n      sstore\n      pop\n        /* \"contracts/CrowdTank.sol\":10210:10226  withdrawn_amount */\n      dup3\n        /* \"contracts/CrowdTank.sol\":10188:10206  TotalRaisedFunding */\n      0x01\n      0x00\n        /* \"contracts/CrowdTank.sol\":10188:10226  TotalRaisedFunding -= withdrawn_amount */\n      dup3\n      dup3\n      sload\n      tag_254\n      swap2\n      swap1\n      tag_128\n      jump\t// in\n    tag_254:\n      swap3\n      pop\n      pop\n      dup2\n      swap1\n      sstore\n      pop\n        /* \"contracts/CrowdTank.sol\":10274:10283  bool sent */\n      0x00\n        /* \"contracts/CrowdTank.sol\":10297:10307  msg.sender */\n      caller\n        /* \"contracts/CrowdTank.sol\":10289:10313  payable(msg.sender).call */\n      0xffffffffffffffffffffffffffffffffffffffff\n      and\n        /* \"contracts/CrowdTank.sol\":10322:10338  withdrawn_amount */\n      dup5\n        /* \"contracts/CrowdTank.sol\":10289:10343  payable(msg.sender).call{value : withdrawn_amount}(\"\") */\n      mload(0x40)\n      tag_255\n      swap1\n      tag_207\n      jump\t// in\n    tag_255:\n      0x00\n      mload(0x40)\n      dup1\n      dup4\n      sub\n      dup2\n      dup6\n      dup8\n      gas\n      call\n      swap3\n      pop\n      pop\n      pop\n      returndatasize\n      dup1\n      0x00\n      dup2\n      eq\n      tag_258\n      jumpi\n      mload(0x40)\n      swap2\n      pop\n      and(add(returndatasize, 0x3f), not(0x1f))\n      dup3\n      add\n      0x40\n      mstore\n      returndatasize\n      dup3\n      mstore\n      returndatasize\n      0x00\n      0x20\n      dup5\n      add\n      returndatacopy\n      jump(tag_257)\n    tag_258:\n      0x60\n      swap2\n      pop\n    tag_257:\n      pop\n        /* \"contracts/CrowdTank.sol\":10273:10343  (bool sent, ) = payable(msg.sender).call{value : withdrawn_amount}(\"\") */\n      pop\n      swap1\n      pop\n        /* \"contracts/CrowdTank.sol\":10362:10366  sent */\n      dup1\n        /* \"contracts/CrowdTank.sol\":10354:10391  require(sent , \"withdraw failed!!!!\") */\n      tag_259\n      jumpi\n      mload(0x40)\n      0x08c379a000000000000000000000000000000000000000000000000000000000\n      dup2\n      mstore\n      0x04\n      add\n      tag_260\n      swap1\n      tag_261\n      jump\t// in\n    tag_260:\n      mload(0x40)\n      dup1\n      swap2\n      sub\n      swap1\n      revert\n    tag_259:\n        /* \"contracts/CrowdTank.sol\":10439:10449  _projectID */\n      dup5\n        /* \"contracts/CrowdTank.sol\":10427:10437  msg.sender */\n      caller\n        /* \"contracts/CrowdTank.sol\":10409:10468  UserEarlyWithdraw(msg.sender, _projectID, withdrawn_amount) */\n      0xffffffffffffffffffffffffffffffffffffffff\n      and\n      0xb37480540ffb97ff520a59b38ea1a83aefbfd3d2a956d958a00214b8b6551f28\n        /* \"contracts/CrowdTank.sol\":10451:10467  withdrawn_amount */\n      dup7\n        /* \"contracts/CrowdTank.sol\":10409:10468  UserEarlyWithdraw(msg.sender, _projectID, withdrawn_amount) */\n      mload(0x40)\n      tag_262\n      swap2\n      swap1\n      tag_48\n      jump\t// in\n    tag_262:\n      mload(0x40)\n      dup1\n      swap2\n      sub\n      swap1\n      log3\n        /* \"contracts/CrowdTank.sol\":9608:10476  {... */\n      pop\n      pop\n      pop\n        /* \"contracts/CrowdTank.sol\":9522:10476  function userEarlyWithdraw( uint _projectID , uint withdrawn_amount) external payable {... */\n      pop\n      pop\n      jump\t// out\n        /* \"contracts/CrowdTank.sol\":497:535  uint public Successful_Funded_Projects */\n    tag_105:\n      sload(0x04)\n      dup2\n      jump\t// out\n        /* \"contracts/CrowdTank.sol\":2561:3464  function createProject(string memory _name , string memory _description , uint _fundingGoal , uint _durationSeconds , uint _id) external {... */\n    tag_111:\n        /* \"contracts/CrowdTank.sol\":2718:2726  isIdUsed */\n      0x09\n        /* \"contracts/CrowdTank.sol\":2718:2731  isIdUsed[_id] */\n      0x00\n        /* \"contracts/CrowdTank.sol\":2727:2730  _id */\n      dup3\n        /* \"contracts/CrowdTank.sol\":2718:2731  isIdUsed[_id] */\n      dup2\n      mstore\n      0x20\n      add\n      swap1\n      dup2\n      mstore\n      0x20\n      add\n      0x00\n      keccak256\n      0x00\n      swap1\n      sload\n      swap1\n      0x0100\n      exp\n      swap1\n      div\n      0xff\n      and\n        /* \"contracts/CrowdTank.sol\":2717:2731  !isIdUsed[_id] */\n      iszero\n        /* \"contracts/CrowdTank.sol\":2709:2766  require(!isIdUsed[_id], \"Project ID is already in use!\" ) */\n      tag_264\n      jumpi\n      mload(0x40)\n      0x08c379a000000000000000000000000000000000000000000000000000000000\n      dup2\n      mstore\n      0x04\n      add\n      tag_265\n      swap1\n      tag_266\n      jump\t// in\n    tag_265:\n      mload(0x40)\n      dup1\n      swap2\n      sub\n      swap1\n      revert\n    tag_264:\n        /* \"contracts/CrowdTank.sol\":2785:2803  AuthorizedCreators */\n      0x06\n        /* \"contracts/CrowdTank.sol\":2785:2815  AuthorizedCreators[msg.sender] */\n      0x00\n        /* \"contracts/CrowdTank.sol\":2804:2814  msg.sender */\n      caller\n        /* \"contracts/CrowdTank.sol\":2785:2815  AuthorizedCreators[msg.sender] */\n      0xffffffffffffffffffffffffffffffffffffffff\n      and\n      0xffffffffffffffffffffffffffffffffffffffff\n      and\n      dup2\n      mstore\n      0x20\n      add\n      swap1\n      dup2\n      mstore\n      0x20\n      add\n      0x00\n      keccak256\n      0x00\n      swap1\n      sload\n      swap1\n      0x0100\n      exp\n      swap1\n      div\n      0xff\n      and\n        /* \"contracts/CrowdTank.sol\":2777:2858  require(AuthorizedCreators[msg.sender] , \"Only Authorized creators can access!!\") */\n      tag_267\n      jumpi\n      mload(0x40)\n      0x08c379a000000000000000000000000000000000000000000000000000000000\n      dup2\n      mstore\n      0x04\n      add\n      tag_268\n      swap1\n      tag_269\n      jump\t// in\n    tag_268:\n      mload(0x40)\n      dup1\n      swap2\n      sub\n      swap1\n      revert\n    tag_267:\n        /* \"contracts/CrowdTank.sol\":2885:2889  true */\n      0x01\n        /* \"contracts/CrowdTank.sol\":2869:2877  isIdUsed */\n      0x09\n        /* \"contracts/CrowdTank.sol\":2869:2882  isIdUsed[_id] */\n      0x00\n        /* \"contracts/CrowdTank.sol\":2878:2881  _id */\n      dup4\n        /* \"contracts/CrowdTank.sol\":2869:2882  isIdUsed[_id] */\n      dup2\n      mstore\n      0x20\n      add\n      swap1\n      dup2\n      mstore\n      0x20\n      add\n      0x00\n      keccak256\n      0x00\n        /* \"contracts/CrowdTank.sol\":2869:2889  isIdUsed[_id] = true */\n      0x0100\n      exp\n      dup2\n      sload\n      dup2\n      0xff\n      mul\n      not\n      and\n      swap1\n      dup4\n      iszero\n      iszero\n      mul\n      or\n      swap1\n      sstore\n      pop\n        /* \"contracts/CrowdTank.sol\":2916:3309  project({... */\n      mload(0x40)\n      dup1\n      0x0140\n      add\n      0x40\n      mstore\n      dup1\n        /* \"contracts/CrowdTank.sol\":2949:2959  msg.sender */\n      caller\n        /* \"contracts/CrowdTank.sol\":2916:3309  project({... */\n      0xffffffffffffffffffffffffffffffffffffffff\n      and\n      dup2\n      mstore\n      0x20\n      add\n        /* \"contracts/CrowdTank.sol\":2980:2985  _name */\n      dup7\n        /* \"contracts/CrowdTank.sol\":2916:3309  project({... */\n      dup2\n      mstore\n      0x20\n      add\n        /* \"contracts/CrowdTank.sol\":3013:3025  _description */\n      dup6\n        /* \"contracts/CrowdTank.sol\":2916:3309  project({... */\n      dup2\n      mstore\n      0x20\n      add\n        /* \"contracts/CrowdTank.sol\":3053:3065  _fundingGoal */\n      dup5\n        /* \"contracts/CrowdTank.sol\":2916:3309  project({... */\n      dup2\n      mstore\n      0x20\n      add\n        /* \"contracts/CrowdTank.sol\":3108:3124  _durationSeconds */\n      dup4\n        /* \"contracts/CrowdTank.sol\":3090:3105  block.timestamp */\n      timestamp\n        /* \"contracts/CrowdTank.sol\":3090:3124  block.timestamp + _durationSeconds */\n      tag_270\n      swap2\n      swap1\n      tag_182\n      jump\t// in\n    tag_270:\n        /* \"contracts/CrowdTank.sol\":2916:3309  project({... */\n      dup2\n      mstore\n      0x20\n      add\n        /* \"contracts/CrowdTank.sol\":3153:3154  0 */\n      0x00\n        /* \"contracts/CrowdTank.sol\":2916:3309  project({... */\n      dup2\n      mstore\n      0x20\n      add\n        /* \"contracts/CrowdTank.sol\":3177:3182  false */\n      0x00\n        /* \"contracts/CrowdTank.sol\":2916:3309  project({... */\n      iszero\n      iszero\n      dup2\n      mstore\n      0x20\n      add\n        /* \"contracts/CrowdTank.sol\":3221:3222  0 */\n      0x00\n        /* \"contracts/CrowdTank.sol\":2916:3309  project({... */\n      0xffffffffffffffffffffffffffffffffffffffff\n      and\n      dup2\n      mstore\n      0x20\n      add\n        /* \"contracts/CrowdTank.sol\":3259:3260  0 */\n      0x00\n        /* \"contracts/CrowdTank.sol\":2916:3309  project({... */\n      dup2\n      mstore\n      0x20\n      add\n        /* \"contracts/CrowdTank.sol\":3292:3297  false */\n      0x00\n        /* \"contracts/CrowdTank.sol\":2916:3309  project({... */\n      iszero\n      iszero\n      dup2\n      mstore\n      pop\n        /* \"contracts/CrowdTank.sol\":2900:2908  Projects */\n      0x07\n        /* \"contracts/CrowdTank.sol\":2900:2913  Projects[_id] */\n      0x00\n        /* \"contracts/CrowdTank.sol\":2909:2912  _id */\n      dup4\n        /* \"contracts/CrowdTank.sol\":2900:2913  Projects[_id] */\n      dup2\n      mstore\n      0x20\n      add\n      swap1\n      dup2\n      mstore\n      0x20\n      add\n      0x00\n      keccak256\n        /* \"contracts/CrowdTank.sol\":2900:3309  Projects[_id] = project({... */\n      0x00\n      dup3\n      add\n      mload\n      dup2\n      0x00\n      add\n      exp(0x0100, 0x00)\n      dup2\n      sload\n      dup2\n      0xffffffffffffffffffffffffffffffffffffffff\n      mul\n      not\n      and\n      swap1\n      dup4\n      0xffffffffffffffffffffffffffffffffffffffff\n      and\n      mul\n      or\n      swap1\n      sstore\n      pop\n      0x20\n      dup3\n      add\n      mload\n      dup2\n      0x01\n      add\n      swap1\n      dup2\n      tag_271\n      swap2\n      swap1\n      tag_272\n      jump\t// in\n    tag_271:\n      pop\n      0x40\n      dup3\n      add\n      mload\n      dup2\n      0x02\n      add\n      swap1\n      dup2\n      tag_273\n      swap2\n      swap1\n      tag_272\n      jump\t// in\n    tag_273:\n      pop\n      0x60\n      dup3\n      add\n      mload\n      dup2\n      0x03\n      add\n      sstore\n      0x80\n      dup3\n      add\n      mload\n      dup2\n      0x04\n      add\n      sstore\n      0xa0\n      dup3\n      add\n      mload\n      dup2\n      0x05\n      add\n      sstore\n      0xc0\n      dup3\n      add\n      mload\n      dup2\n      0x06\n      add\n      exp(0x0100, 0x00)\n      dup2\n      sload\n      dup2\n      0xff\n      mul\n      not\n      and\n      swap1\n      dup4\n      iszero\n      iszero\n      mul\n      or\n      swap1\n      sstore\n      pop\n      0xe0\n      dup3\n      add\n      mload\n      dup2\n      0x06\n      add\n      exp(0x0100, 0x01)\n      dup2\n      sload\n      dup2\n      0xffffffffffffffffffffffffffffffffffffffff\n      mul\n      not\n      and\n      swap1\n      dup4\n      0xffffffffffffffffffffffffffffffffffffffff\n      and\n      mul\n      or\n      swap1\n      sstore\n      pop\n      0x0100\n      dup3\n      add\n      mload\n      dup2\n      0x07\n      add\n      sstore\n      0x0120\n      dup3\n      add\n      mload\n      dup2\n      0x08\n      add\n      exp(0x0100, 0x00)\n      dup2\n      sload\n      dup2\n      0xff\n      mul\n      not\n      and\n      swap1\n      dup4\n      iszero\n      iszero\n      mul\n      or\n      swap1\n      sstore\n      pop\n      swap1\n      pop\n      pop\n        /* \"contracts/CrowdTank.sol\":3320:3333  TotalProjects */\n      0x02\n      0x00\n        /* \"contracts/CrowdTank.sol\":3320:3335  TotalProjects++ */\n      dup2\n      sload\n      dup1\n      swap3\n      swap2\n      swap1\n      tag_274\n      swap1\n      tag_175\n      jump\t// in\n    tag_274:\n      swap2\n      swap1\n      pop\n      sstore\n      pop\n        /* \"contracts/CrowdTank.sol\":3372:3382  msg.sender */\n      caller\n        /* \"contracts/CrowdTank.sol\":3351:3456  ProjectCreated(_id , msg.sender , _name , _description , _fundingGoal , block.timestamp+_durationSeconds) */\n      0xffffffffffffffffffffffffffffffffffffffff\n      and\n        /* \"contracts/CrowdTank.sol\":3366:3369  _id */\n      dup2\n        /* \"contracts/CrowdTank.sol\":3351:3456  ProjectCreated(_id , msg.sender , _name , _description , _fundingGoal , block.timestamp+_durationSeconds) */\n      0xac9b83534845c9e785a6ea70f2d809db1d72ef9a1d981753712d922f5cb55f39\n        /* \"contracts/CrowdTank.sol\":3385:3390  _name */\n      dup8\n        /* \"contracts/CrowdTank.sol\":3393:3405  _description */\n      dup8\n        /* \"contracts/CrowdTank.sol\":3408:3420  _fundingGoal */\n      dup8\n        /* \"contracts/CrowdTank.sol\":3439:3455  _durationSeconds */\n      dup8\n        /* \"contracts/CrowdTank.sol\":3423:3438  block.timestamp */\n      timestamp\n        /* \"contracts/CrowdTank.sol\":3423:3455  block.timestamp+_durationSeconds */\n      tag_275\n      swap2\n      swap1\n      tag_182\n      jump\t// in\n    tag_275:\n        /* \"contracts/CrowdTank.sol\":3351:3456  ProjectCreated(_id , msg.sender , _name , _description , _fundingGoal , block.timestamp+_durationSeconds) */\n      mload(0x40)\n      tag_276\n      swap5\n      swap4\n      swap3\n      swap2\n      swap1\n      tag_277\n      jump\t// in\n    tag_276:\n      mload(0x40)\n      dup1\n      swap2\n      sub\n      swap1\n      log3\n        /* \"contracts/CrowdTank.sol\":2561:3464  function createProject(string memory _name , string memory _description , uint _fundingGoal , uint _durationSeconds , uint _id) external {... */\n      pop\n      pop\n      pop\n      pop\n      pop\n      jump\t// out\n        /* \"contracts/CrowdTank.sol\":468:488  address public admin */\n    tag_114:\n      0x03\n      0x00\n      swap1\n      sload\n      swap1\n      0x0100\n      exp\n      swap1\n      div\n      0xffffffffffffffffffffffffffffffffffffffff\n      and\n      dup2\n      jump\t// out\n        /* \"contracts/CrowdTank.sol\":939:1094  function Add_Creators( address _creator ) external OnlyAdmin {... */\n    tag_120:\n        /* \"contracts/CrowdTank.sol\":788:798  msg.sender */\n      caller\n        /* \"contracts/CrowdTank.sol\":779:798  admin == msg.sender */\n      0xffffffffffffffffffffffffffffffffffffffff\n      and\n        /* \"contracts/CrowdTank.sol\":779:784  admin */\n      0x03\n      0x00\n      swap1\n      sload\n      swap1\n      0x0100\n      exp\n      swap1\n      div\n      0xffffffffffffffffffffffffffffffffffffffff\n      and\n        /* \"contracts/CrowdTank.sol\":779:798  admin == msg.sender */\n      0xffffffffffffffffffffffffffffffffffffffff\n      and\n      eq\n        /* \"contracts/CrowdTank.sol\":771:825  require(admin == msg.sender , \"Only Admin can access\") */\n      tag_279\n      jumpi\n      mload(0x40)\n      0x08c379a000000000000000000000000000000000000000000000000000000000\n      dup2\n      mstore\n      0x04\n      add\n      tag_280\n      swap1\n      tag_240\n      jump\t// in\n    tag_280:\n      mload(0x40)\n      dup1\n      swap2\n      sub\n      swap1\n      revert\n    tag_279:\n        /* \"contracts/CrowdTank.sol\":1042:1046  true */\n      0x01\n        /* \"contracts/CrowdTank.sol\":1011:1029  AuthorizedCreators */\n      0x06\n        /* \"contracts/CrowdTank.sol\":1011:1039  AuthorizedCreators[_creator] */\n      0x00\n        /* \"contracts/CrowdTank.sol\":1030:1038  _creator */\n      dup4\n        /* \"contracts/CrowdTank.sol\":1011:1039  AuthorizedCreators[_creator] */\n      0xffffffffffffffffffffffffffffffffffffffff\n      and\n      0xffffffffffffffffffffffffffffffffffffffff\n      and\n      dup2\n      mstore\n      0x20\n      add\n      swap1\n      dup2\n      mstore\n      0x20\n      add\n      0x00\n      keccak256\n      0x00\n        /* \"contracts/CrowdTank.sol\":1011:1046  AuthorizedCreators[_creator] = true */\n      0x0100\n      exp\n      dup2\n      sload\n      dup2\n      0xff\n      mul\n      not\n      and\n      swap1\n      dup4\n      iszero\n      iszero\n      mul\n      or\n      swap1\n      sstore\n      pop\n        /* \"contracts/CrowdTank.sol\":1077:1085  _creator */\n      dup1\n        /* \"contracts/CrowdTank.sol\":1064:1086  addedCreator(_creator) */\n      0xffffffffffffffffffffffffffffffffffffffff\n      and\n      0x1f9f86dc4a3ce57ee42e33c59def65713163420d0ab979169ef129299ff2b85e\n      mload(0x40)\n      mload(0x40)\n      dup1\n      swap2\n      sub\n      swap1\n      log2\n        /* \"contracts/CrowdTank.sol\":939:1094  function Add_Creators( address _creator ) external OnlyAdmin {... */\n      pop\n      jump\t// out\n        /* \"@openzeppelin/contracts/utils/ReentrancyGuard.sol\":2575:2882  function _nonReentrantBefore() private {... */\n    tag_185:\n        /* \"@openzeppelin/contracts/utils/ReentrancyGuard.sol\":1899:1900  2 */\n      0x02\n        /* \"@openzeppelin/contracts/utils/ReentrancyGuard.sol\":2702:2709  _status */\n      sload(0x00)\n        /* \"@openzeppelin/contracts/utils/ReentrancyGuard.sol\":2702:2720  _status == ENTERED */\n      sub\n        /* \"@openzeppelin/contracts/utils/ReentrancyGuard.sol\":2698:2784  if (_status == ENTERED) {... */\n      tag_283\n      jumpi\n        /* \"@openzeppelin/contracts/utils/ReentrancyGuard.sol\":2743:2773  ReentrancyGuardReentrantCall() */\n      mload(0x40)\n      0x3ee5aeb500000000000000000000000000000000000000000000000000000000\n      dup2\n      mstore\n      0x04\n      add\n      mload(0x40)\n      dup1\n      swap2\n      sub\n      swap1\n      revert\n        /* \"@openzeppelin/contracts/utils/ReentrancyGuard.sol\":2698:2784  if (_status == ENTERED) {... */\n    tag_283:\n        /* \"@openzeppelin/contracts/utils/ReentrancyGuard.sol\":1899:1900  2 */\n      0x02\n        /* \"@openzeppelin/contracts/utils/ReentrancyGuard.sol\":2858:2865  _status */\n      0x00\n        /* \"@openzeppelin/contracts/utils/ReentrancyGuard.sol\":2858:2875  _status = ENTERED */\n      dup2\n      swap1\n      sstore\n      pop\n        /* \"@openzeppelin/contracts/utils/ReentrancyGuard.sol\":2575:2882  function _nonReentrantBefore() private {... */\n      jump\t// out\n        /* \"@openzeppelin/contracts/utils/ReentrancyGuard.sol\":2888:3096  function _nonReentrantAfter() private {... */\n    tag_223:\n        /* \"@openzeppelin/contracts/utils/ReentrancyGuard.sol\":1857:1858  1 */\n      0x01\n        /* \"@openzeppelin/contracts/utils/ReentrancyGuard.sol\":3068:3075  _status */\n      0x00\n        /* \"@openzeppelin/contracts/utils/ReentrancyGuard.sol\":3068:3089  _status = NOT_ENTERED */\n      dup2\n      swap1\n      sstore\n      pop\n        /* \"@openzeppelin/contracts/utils/ReentrancyGuard.sol\":2888:3096  function _nonReentrantAfter() private {... */\n      jump\t// out\n        /* \"#utility.yul\":7:82   */\n    tag_285:\n        /* \"#utility.yul\":40:46   */\n      0x00\n        /* \"#utility.yul\":73:75   */\n      0x40\n        /* \"#utility.yul\":67:76   */\n      mload\n        /* \"#utility.yul\":57:76   */\n      swap1\n      pop\n        /* \"#utility.yul\":7:82   */\n      swap1\n      jump\t// out\n        /* \"#utility.yul\":88:205   */\n    tag_286:\n        /* \"#utility.yul\":197:198   */\n      0x00\n        /* \"#utility.yul\":194:195   */\n      0x00\n        /* \"#utility.yul\":187:199   */\n      revert\n        /* \"#utility.yul\":211:328   */\n    tag_287:\n        /* \"#utility.yul\":320:321   */\n      0x00\n        /* \"#utility.yul\":317:318   */\n      0x00\n        /* \"#utility.yul\":310:322   */\n      revert\n        /* \"#utility.yul\":334:411   */\n    tag_288:\n        /* \"#utility.yul\":371:378   */\n      0x00\n        /* \"#utility.yul\":400:405   */\n      dup2\n        /* \"#utility.yul\":389:405   */\n      swap1\n      pop\n        /* \"#utility.yul\":334:411   */\n      swap2\n      swap1\n      pop\n      jump\t// out\n        /* \"#utility.yul\":417:539   */\n    tag_289:\n        /* \"#utility.yul\":490:514   */\n      tag_380\n        /* \"#utility.yul\":508:513   */\n      dup2\n        /* \"#utility.yul\":490:514   */\n      tag_288\n      jump\t// in\n    tag_380:\n        /* \"#utility.yul\":483:488   */\n      dup2\n        /* \"#utility.yul\":480:515   */\n      eq\n        /* \"#utility.yul\":470:533   */\n      tag_381\n      jumpi\n        /* \"#utility.yul\":529:530   */\n      0x00\n        /* \"#utility.yul\":526:527   */\n      0x00\n        /* \"#utility.yul\":519:531   */\n      revert\n        /* \"#utility.yul\":470:533   */\n    tag_381:\n        /* \"#utility.yul\":417:539   */\n      pop\n      jump\t// out\n        /* \"#utility.yul\":545:684   */\n    tag_290:\n        /* \"#utility.yul\":591:596   */\n      0x00\n        /* \"#utility.yul\":629:635   */\n      dup2\n        /* \"#utility.yul\":616:636   */\n      calldataload\n        /* \"#utility.yul\":607:636   */\n      swap1\n      pop\n        /* \"#utility.yul\":645:678   */\n      tag_383\n        /* \"#utility.yul\":672:677   */\n      dup2\n        /* \"#utility.yul\":645:678   */\n      tag_289\n      jump\t// in\n    tag_383:\n        /* \"#utility.yul\":545:684   */\n      swap3\n      swap2\n      pop\n      pop\n      jump\t// out\n        /* \"#utility.yul\":690:1019   */\n    tag_29:\n        /* \"#utility.yul\":749:755   */\n      0x00\n        /* \"#utility.yul\":798:800   */\n      0x20\n        /* \"#utility.yul\":786:795   */\n      dup3\n        /* \"#utility.yul\":777:784   */\n      dup5\n        /* \"#utility.yul\":773:796   */\n      sub\n        /* \"#utility.yul\":769:801   */\n      slt\n        /* \"#utility.yul\":766:885   */\n      iszero\n      tag_385\n      jumpi\n        /* \"#utility.yul\":804:883   */\n      tag_386\n      tag_286\n      jump\t// in\n    tag_386:\n        /* \"#utility.yul\":766:885   */\n    tag_385:\n        /* \"#utility.yul\":924:925   */\n      0x00\n        /* \"#utility.yul\":949:1002   */\n      tag_387\n        /* \"#utility.yul\":994:1001   */\n      dup5\n        /* \"#utility.yul\":985:991   */\n      dup3\n        /* \"#utility.yul\":974:983   */\n      dup6\n        /* \"#utility.yul\":970:992   */\n      add\n        /* \"#utility.yul\":949:1002   */\n      tag_290\n      jump\t// in\n    tag_387:\n        /* \"#utility.yul\":939:1002   */\n      swap2\n      pop\n        /* \"#utility.yul\":895:1012   */\n      pop\n        /* \"#utility.yul\":690:1019   */\n      swap3\n      swap2\n      pop\n      pop\n      jump\t// out\n        /* \"#utility.yul\":1025:1143   */\n    tag_291:\n        /* \"#utility.yul\":1112:1136   */\n      tag_389\n        /* \"#utility.yul\":1130:1135   */\n      dup2\n        /* \"#utility.yul\":1112:1136   */\n      tag_288\n      jump\t// in\n    tag_389:\n        /* \"#utility.yul\":1107:1110   */\n      dup3\n        /* \"#utility.yul\":1100:1137   */\n      mstore\n        /* \"#utility.yul\":1025:1143   */\n      pop\n      pop\n      jump\t// out\n        /* \"#utility.yul\":1149:1481   */\n    tag_32:\n        /* \"#utility.yul\":1270:1274   */\n      0x00\n        /* \"#utility.yul\":1308:1310   */\n      0x40\n        /* \"#utility.yul\":1297:1306   */\n      dup3\n        /* \"#utility.yul\":1293:1311   */\n      add\n        /* \"#utility.yul\":1285:1311   */\n      swap1\n      pop\n        /* \"#utility.yul\":1321:1392   */\n      tag_391\n        /* \"#utility.yul\":1389:1390   */\n      0x00\n        /* \"#utility.yul\":1378:1387   */\n      dup4\n        /* \"#utility.yul\":1374:1391   */\n      add\n        /* \"#utility.yul\":1365:1371   */\n      dup6\n        /* \"#utility.yul\":1321:1392   */\n      tag_291\n      jump\t// in\n    tag_391:\n        /* \"#utility.yul\":1402:1474   */\n      tag_392\n        /* \"#utility.yul\":1470:1472   */\n      0x20\n        /* \"#utility.yul\":1459:1468   */\n      dup4\n        /* \"#utility.yul\":1455:1473   */\n      add\n        /* \"#utility.yul\":1446:1452   */\n      dup5\n        /* \"#utility.yul\":1402:1474   */\n      tag_291\n      jump\t// in\n    tag_392:\n        /* \"#utility.yul\":1149:1481   */\n      swap4\n      swap3\n      pop\n      pop\n      pop\n      jump\t// out\n        /* \"#utility.yul\":1487:1961   */\n    tag_36:\n        /* \"#utility.yul\":1555:1561   */\n      0x00\n        /* \"#utility.yul\":1563:1569   */\n      0x00\n        /* \"#utility.yul\":1612:1614   */\n      0x40\n        /* \"#utility.yul\":1600:1609   */\n      dup4\n        /* \"#utility.yul\":1591:1598   */\n      dup6\n        /* \"#utility.yul\":1587:1610   */\n      sub\n        /* \"#utility.yul\":1583:1615   */\n      slt\n        /* \"#utility.yul\":1580:1699   */\n      iszero\n      tag_394\n      jumpi\n        /* \"#utility.yul\":1618:1697   */\n      tag_395\n      tag_286\n      jump\t// in\n    tag_395:\n        /* \"#utility.yul\":1580:1699   */\n    tag_394:\n        /* \"#utility.yul\":1738:1739   */\n      0x00\n        /* \"#utility.yul\":1763:1816   */\n      tag_396\n        /* \"#utility.yul\":1808:1815   */\n      dup6\n        /* \"#utility.yul\":1799:1805   */\n      dup3\n        /* \"#utility.yul\":1788:1797   */\n      dup7\n        /* \"#utility.yul\":1784:1806   */\n      add\n        /* \"#utility.yul\":1763:1816   */\n      tag_290\n      jump\t// in\n    tag_396:\n        /* \"#utility.yul\":1753:1816   */\n      swap3\n      pop\n        /* \"#utility.yul\":1709:1826   */\n      pop\n        /* \"#utility.yul\":1865:1867   */\n      0x20\n        /* \"#utility.yul\":1891:1944   */\n      tag_397\n        /* \"#utility.yul\":1936:1943   */\n      dup6\n        /* \"#utility.yul\":1927:1933   */\n      dup3\n        /* \"#utility.yul\":1916:1925   */\n      dup7\n        /* \"#utility.yul\":1912:1934   */\n      add\n        /* \"#utility.yul\":1891:1944   */\n      tag_290\n      jump\t// in\n    tag_397:\n        /* \"#utility.yul\":1881:1944   */\n      swap2\n      pop\n        /* \"#utility.yul\":1836:1954   */\n      pop\n        /* \"#utility.yul\":1487:1961   */\n      swap3\n      pop\n      swap3\n      swap1\n      pop\n      jump\t// out\n        /* \"#utility.yul\":1967:2093   */\n    tag_292:\n        /* \"#utility.yul\":2004:2011   */\n      0x00\n        /* \"#utility.yul\":2044:2086   */\n      0xffffffffffffffffffffffffffffffffffffffff\n        /* \"#utility.yul\":2037:2042   */\n      dup3\n        /* \"#utility.yul\":2033:2087   */\n      and\n        /* \"#utility.yul\":2022:2087   */\n      swap1\n      pop\n        /* \"#utility.yul\":1967:2093   */\n      swap2\n      swap1\n      pop\n      jump\t// out\n        /* \"#utility.yul\":2099:2195   */\n    tag_293:\n        /* \"#utility.yul\":2136:2143   */\n      0x00\n        /* \"#utility.yul\":2165:2189   */\n      tag_400\n        /* \"#utility.yul\":2183:2188   */\n      dup3\n        /* \"#utility.yul\":2165:2189   */\n      tag_292\n      jump\t// in\n    tag_400:\n        /* \"#utility.yul\":2154:2189   */\n      swap1\n      pop\n        /* \"#utility.yul\":2099:2195   */\n      swap2\n      swap1\n      pop\n      jump\t// out\n        /* \"#utility.yul\":2201:2319   */\n    tag_294:\n        /* \"#utility.yul\":2288:2312   */\n      tag_402\n        /* \"#utility.yul\":2306:2311   */\n      dup2\n        /* \"#utility.yul\":2288:2312   */\n      tag_293\n      jump\t// in\n    tag_402:\n        /* \"#utility.yul\":2283:2286   */\n      dup3\n        /* \"#utility.yul\":2276:2313   */\n      mstore\n        /* \"#utility.yul\":2201:2319   */\n      pop\n      pop\n      jump\t// out\n        /* \"#utility.yul\":2325:2424   */\n    tag_295:\n        /* \"#utility.yul\":2377:2383   */\n      0x00\n        /* \"#utility.yul\":2411:2416   */\n      dup2\n        /* \"#utility.yul\":2405:2417   */\n      mload\n        /* \"#utility.yul\":2395:2417   */\n      swap1\n      pop\n        /* \"#utility.yul\":2325:2424   */\n      swap2\n      swap1\n      pop\n      jump\t// out\n        /* \"#utility.yul\":2430:2599   */\n    tag_296:\n        /* \"#utility.yul\":2514:2525   */\n      0x00\n        /* \"#utility.yul\":2548:2554   */\n      dup3\n        /* \"#utility.yul\":2543:2546   */\n      dup3\n        /* \"#utility.yul\":2536:2555   */\n      mstore\n        /* \"#utility.yul\":2588:2592   */\n      0x20\n        /* \"#utility.yul\":2583:2586   */\n      dup3\n        /* \"#utility.yul\":2579:2593   */\n      add\n        /* \"#utility.yul\":2564:2593   */\n      swap1\n      pop\n        /* \"#utility.yul\":2430:2599   */\n      swap3\n      swap2\n      pop\n      pop\n      jump\t// out\n        /* \"#utility.yul\":2605:2744   */\n    tag_297:\n        /* \"#utility.yul\":2694:2700   */\n      dup3\n        /* \"#utility.yul\":2689:2692   */\n      dup2\n        /* \"#utility.yul\":2684:2687   */\n      dup4\n        /* \"#utility.yul\":2678:2701   */\n      mcopy\n        /* \"#utility.yul\":2735:2736   */\n      0x00\n        /* \"#utility.yul\":2726:2732   */\n      dup4\n        /* \"#utility.yul\":2721:2724   */\n      dup4\n        /* \"#utility.yul\":2717:2733   */\n      add\n        /* \"#utility.yul\":2710:2737   */\n      mstore\n        /* \"#utility.yul\":2605:2744   */\n      pop\n      pop\n      pop\n      jump\t// out\n        /* \"#utility.yul\":2750:2852   */\n    tag_298:\n        /* \"#utility.yul\":2791:2797   */\n      0x00\n        /* \"#utility.yul\":2842:2844   */\n      0x1f\n        /* \"#utility.yul\":2838:2845   */\n      not\n        /* \"#utility.yul\":2833:2835   */\n      0x1f\n        /* \"#utility.yul\":2826:2831   */\n      dup4\n        /* \"#utility.yul\":2822:2836   */\n      add\n        /* \"#utility.yul\":2818:2846   */\n      and\n        /* \"#utility.yul\":2808:2846   */\n      swap1\n      pop\n        /* \"#utility.yul\":2750:2852   */\n      swap2\n      swap1\n      pop\n      jump\t// out\n        /* \"#utility.yul\":2858:3235   */\n    tag_299:\n        /* \"#utility.yul\":2946:2949   */\n      0x00\n        /* \"#utility.yul\":2974:3013   */\n      tag_408\n        /* \"#utility.yul\":3007:3012   */\n      dup3\n        /* \"#utility.yul\":2974:3013   */\n      tag_295\n      jump\t// in\n    tag_408:\n        /* \"#utility.yul\":3029:3100   */\n      tag_409\n        /* \"#utility.yul\":3093:3099   */\n      dup2\n        /* \"#utility.yul\":3088:3091   */\n      dup6\n        /* \"#utility.yul\":3029:3100   */\n      tag_296\n      jump\t// in\n    tag_409:\n        /* \"#utility.yul\":3022:3100   */\n      swap4\n      pop\n        /* \"#utility.yul\":3109:3174   */\n      tag_410\n        /* \"#utility.yul\":3167:3173   */\n      dup2\n        /* \"#utility.yul\":3162:3165   */\n      dup6\n        /* \"#utility.yul\":3155:3159   */\n      0x20\n        /* \"#utility.yul\":3148:3153   */\n      dup7\n        /* \"#utility.yul\":3144:3160   */\n      add\n        /* \"#utility.yul\":3109:3174   */\n      tag_297\n      jump\t// in\n    tag_410:\n        /* \"#utility.yul\":3199:3228   */\n      tag_411\n        /* \"#utility.yul\":3221:3227   */\n      dup2\n        /* \"#utility.yul\":3199:3228   */\n      tag_298\n      jump\t// in\n    tag_411:\n        /* \"#utility.yul\":3194:3197   */\n      dup5\n        /* \"#utility.yul\":3190:3229   */\n      add\n        /* \"#utility.yul\":3183:3229   */\n      swap2\n      pop\n        /* \"#utility.yul\":2950:3235   */\n      pop\n        /* \"#utility.yul\":2858:3235   */\n      swap3\n      swap2\n      pop\n      pop\n      jump\t// out\n        /* \"#utility.yul\":3241:3331   */\n    tag_300:\n        /* \"#utility.yul\":3275:3282   */\n      0x00\n        /* \"#utility.yul\":3318:3323   */\n      dup2\n        /* \"#utility.yul\":3311:3324   */\n      iszero\n        /* \"#utility.yul\":3304:3325   */\n      iszero\n        /* \"#utility.yul\":3293:3325   */\n      swap1\n      pop\n        /* \"#utility.yul\":3241:3331   */\n      swap2\n      swap1\n      pop\n      jump\t// out\n        /* \"#utility.yul\":3337:3446   */\n    tag_301:\n        /* \"#utility.yul\":3418:3439   */\n      tag_414\n        /* \"#utility.yul\":3433:3438   */\n      dup2\n        /* \"#utility.yul\":3418:3439   */\n      tag_300\n      jump\t// in\n    tag_414:\n        /* \"#utility.yul\":3413:3416   */\n      dup3\n        /* \"#utility.yul\":3406:3440   */\n      mstore\n        /* \"#utility.yul\":3337:3446   */\n      pop\n      pop\n      jump\t// out\n        /* \"#utility.yul\":3452:4829   */\n    tag_43:\n        /* \"#utility.yul\":3825:3829   */\n      0x00\n        /* \"#utility.yul\":3863:3866   */\n      0x0140\n        /* \"#utility.yul\":3852:3861   */\n      dup3\n        /* \"#utility.yul\":3848:3867   */\n      add\n        /* \"#utility.yul\":3840:3867   */\n      swap1\n      pop\n        /* \"#utility.yul\":3877:3948   */\n      tag_416\n        /* \"#utility.yul\":3945:3946   */\n      0x00\n        /* \"#utility.yul\":3934:3943   */\n      dup4\n        /* \"#utility.yul\":3930:3947   */\n      add\n        /* \"#utility.yul\":3921:3927   */\n      dup14\n        /* \"#utility.yul\":3877:3948   */\n      tag_294\n      jump\t// in\n    tag_416:\n        /* \"#utility.yul\":3995:4004   */\n      dup2\n        /* \"#utility.yul\":3989:3993   */\n      dup2\n        /* \"#utility.yul\":3985:4005   */\n      sub\n        /* \"#utility.yul\":3980:3982   */\n      0x20\n        /* \"#utility.yul\":3969:3978   */\n      dup4\n        /* \"#utility.yul\":3965:3983   */\n      add\n        /* \"#utility.yul\":3958:4006   */\n      mstore\n        /* \"#utility.yul\":4023:4101   */\n      tag_417\n        /* \"#utility.yul\":4096:4100   */\n      dup2\n        /* \"#utility.yul\":4087:4093   */\n      dup13\n        /* \"#utility.yul\":4023:4101   */\n      tag_299\n      jump\t// in\n    tag_417:\n        /* \"#utility.yul\":4015:4101   */\n      swap1\n      pop\n        /* \"#utility.yul\":4148:4157   */\n      dup2\n        /* \"#utility.yul\":4142:4146   */\n      dup2\n        /* \"#utility.yul\":4138:4158   */\n      sub\n        /* \"#utility.yul\":4133:4135   */\n      0x40\n        /* \"#utility.yul\":4122:4131   */\n      dup4\n        /* \"#utility.yul\":4118:4136   */\n      add\n        /* \"#utility.yul\":4111:4159   */\n      mstore\n        /* \"#utility.yul\":4176:4254   */\n      tag_418\n        /* \"#utility.yul\":4249:4253   */\n      dup2\n        /* \"#utility.yul\":4240:4246   */\n      dup12\n        /* \"#utility.yul\":4176:4254   */\n      tag_299\n      jump\t// in\n    tag_418:\n        /* \"#utility.yul\":4168:4254   */\n      swap1\n      pop\n        /* \"#utility.yul\":4264:4336   */\n      tag_419\n        /* \"#utility.yul\":4332:4334   */\n      0x60\n        /* \"#utility.yul\":4321:4330   */\n      dup4\n        /* \"#utility.yul\":4317:4335   */\n      add\n        /* \"#utility.yul\":4308:4314   */\n      dup11\n        /* \"#utility.yul\":4264:4336   */\n      tag_291\n      jump\t// in\n    tag_419:\n        /* \"#utility.yul\":4346:4419   */\n      tag_420\n        /* \"#utility.yul\":4414:4417   */\n      0x80\n        /* \"#utility.yul\":4403:4412   */\n      dup4\n        /* \"#utility.yul\":4399:4418   */\n      add\n        /* \"#utility.yul\":4390:4396   */\n      dup10\n        /* \"#utility.yul\":4346:4419   */\n      tag_291\n      jump\t// in\n    tag_420:\n        /* \"#utility.yul\":4429:4502   */\n      tag_421\n        /* \"#utility.yul\":4497:4500   */\n      0xa0\n        /* \"#utility.yul\":4486:4495   */\n      dup4\n        /* \"#utility.yul\":4482:4501   */\n      add\n        /* \"#utility.yul\":4473:4479   */\n      dup9\n        /* \"#utility.yul\":4429:4502   */\n      tag_291\n      jump\t// in\n    tag_421:\n        /* \"#utility.yul\":4512:4579   */\n      tag_422\n        /* \"#utility.yul\":4574:4577   */\n      0xc0\n        /* \"#utility.yul\":4563:4572   */\n      dup4\n        /* \"#utility.yul\":4559:4578   */\n      add\n        /* \"#utility.yul\":4550:4556   */\n      dup8\n        /* \"#utility.yul\":4512:4579   */\n      tag_301\n      jump\t// in\n    tag_422:\n        /* \"#utility.yul\":4589:4662   */\n      tag_423\n        /* \"#utility.yul\":4657:4660   */\n      0xe0\n        /* \"#utility.yul\":4646:4655   */\n      dup4\n        /* \"#utility.yul\":4642:4661   */\n      add\n        /* \"#utility.yul\":4633:4639   */\n      dup7\n        /* \"#utility.yul\":4589:4662   */\n      tag_294\n      jump\t// in\n    tag_423:\n        /* \"#utility.yul\":4672:4745   */\n      tag_424\n        /* \"#utility.yul\":4740:4743   */\n      0x0100\n        /* \"#utility.yul\":4729:4738   */\n      dup4\n        /* \"#utility.yul\":4725:4744   */\n      add\n        /* \"#utility.yul\":4716:4722   */\n      dup6\n        /* \"#utility.yul\":4672:4745   */\n      tag_291\n      jump\t// in\n    tag_424:\n        /* \"#utility.yul\":4755:4822   */\n      tag_425\n        /* \"#utility.yul\":4817:4820   */\n      0x0120\n        /* \"#utility.yul\":4806:4815   */\n      dup4\n        /* \"#utility.yul\":4802:4821   */\n      add\n        /* \"#utility.yul\":4793:4799   */\n      dup5\n        /* \"#utility.yul\":4755:4822   */\n      tag_301\n      jump\t// in\n    tag_425:\n        /* \"#utility.yul\":3452:4829   */\n      swap12\n      swap11\n      pop\n      pop\n      pop\n      pop\n      pop\n      pop\n      pop\n      pop\n      pop\n      pop\n      pop\n      jump\t// out\n        /* \"#utility.yul\":4835:5057   */\n    tag_48:\n        /* \"#utility.yul\":4928:4932   */\n      0x00\n        /* \"#utility.yul\":4966:4968   */\n      0x20\n        /* \"#utility.yul\":4955:4964   */\n      dup3\n        /* \"#utility.yul\":4951:4969   */\n      add\n        /* \"#utility.yul\":4943:4969   */\n      swap1\n      pop\n        /* \"#utility.yul\":4979:5050   */\n      tag_427\n        /* \"#utility.yul\":5047:5048   */\n      0x00\n        /* \"#utility.yul\":5036:5045   */\n      dup4\n        /* \"#utility.yul\":5032:5049   */\n      add\n        /* \"#utility.yul\":5023:5029   */\n      dup5\n        /* \"#utility.yul\":4979:5050   */\n      tag_291\n      jump\t// in\n    tag_427:\n        /* \"#utility.yul\":4835:5057   */\n      swap3\n      swap2\n      pop\n      pop\n      jump\t// out\n        /* \"#utility.yul\":5063:5185   */\n    tag_302:\n        /* \"#utility.yul\":5136:5160   */\n      tag_429\n        /* \"#utility.yul\":5154:5159   */\n      dup2\n        /* \"#utility.yul\":5136:5160   */\n      tag_293\n      jump\t// in\n    tag_429:\n        /* \"#utility.yul\":5129:5134   */\n      dup2\n        /* \"#utility.yul\":5126:5161   */\n      eq\n        /* \"#utility.yul\":5116:5179   */\n      tag_430\n      jumpi\n        /* \"#utility.yul\":5175:5176   */\n      0x00\n        /* \"#utility.yul\":5172:5173   */\n      0x00\n        /* \"#utility.yul\":5165:5177   */\n      revert\n        /* \"#utility.yul\":5116:5179   */\n    tag_430:\n        /* \"#utility.yul\":5063:5185   */\n      pop\n      jump\t// out\n        /* \"#utility.yul\":5191:5330   */\n    tag_303:\n        /* \"#utility.yul\":5237:5242   */\n      0x00\n        /* \"#utility.yul\":5275:5281   */\n      dup2\n        /* \"#utility.yul\":5262:5282   */\n      calldataload\n        /* \"#utility.yul\":5253:5282   */\n      swap1\n      pop\n        /* \"#utility.yul\":5291:5324   */\n      tag_432\n        /* \"#utility.yul\":5318:5323   */\n      dup2\n        /* \"#utility.yul\":5291:5324   */\n      tag_302\n      jump\t// in\n    tag_432:\n        /* \"#utility.yul\":5191:5330   */\n      swap3\n      swap2\n      pop\n      pop\n      jump\t// out\n        /* \"#utility.yul\":5336:5810   */\n    tag_72:\n        /* \"#utility.yul\":5404:5410   */\n      0x00\n        /* \"#utility.yul\":5412:5418   */\n      0x00\n        /* \"#utility.yul\":5461:5463   */\n      0x40\n        /* \"#utility.yul\":5449:5458   */\n      dup4\n        /* \"#utility.yul\":5440:5447   */\n      dup6\n        /* \"#utility.yul\":5436:5459   */\n      sub\n        /* \"#utility.yul\":5432:5464   */\n      slt\n        /* \"#utility.yul\":5429:5548   */\n      iszero\n      tag_434\n      jumpi\n        /* \"#utility.yul\":5467:5546   */\n      tag_435\n      tag_286\n      jump\t// in\n    tag_435:\n        /* \"#utility.yul\":5429:5548   */\n    tag_434:\n        /* \"#utility.yul\":5587:5588   */\n      0x00\n        /* \"#utility.yul\":5612:5665   */\n      tag_436\n        /* \"#utility.yul\":5657:5664   */\n      dup6\n        /* \"#utility.yul\":5648:5654   */\n      dup3\n        /* \"#utility.yul\":5637:5646   */\n      dup7\n        /* \"#utility.yul\":5633:5655   */\n      add\n        /* \"#utility.yul\":5612:5665   */\n      tag_290\n      jump\t// in\n    tag_436:\n        /* \"#utility.yul\":5602:5665   */\n      swap3\n      pop\n        /* \"#utility.yul\":5558:5675   */\n      pop\n        /* \"#utility.yul\":5714:5716   */\n      0x20\n        /* \"#utility.yul\":5740:5793   */\n      tag_437\n        /* \"#utility.yul\":5785:5792   */\n      dup6\n        /* \"#utility.yul\":5776:5782   */\n      dup3\n        /* \"#utility.yul\":5765:5774   */\n      dup7\n        /* \"#utility.yul\":5761:5783   */\n      add\n        /* \"#utility.yul\":5740:5793   */\n      tag_303\n      jump\t// in\n    tag_437:\n        /* \"#utility.yul\":5730:5793   */\n      swap2\n      pop\n        /* \"#utility.yul\":5685:5803   */\n      pop\n        /* \"#utility.yul\":5336:5810   */\n      swap3\n      pop\n      swap3\n      swap1\n      pop\n      jump\t// out\n        /* \"#utility.yul\":5816:6145   */\n    tag_88:\n        /* \"#utility.yul\":5875:5881   */\n      0x00\n        /* \"#utility.yul\":5924:5926   */\n      0x20\n        /* \"#utility.yul\":5912:5921   */\n      dup3\n        /* \"#utility.yul\":5903:5910   */\n      dup5\n        /* \"#utility.yul\":5899:5922   */\n      sub\n        /* \"#utility.yul\":5895:5927   */\n      slt\n        /* \"#utility.yul\":5892:6011   */\n      iszero\n      tag_439\n      jumpi\n        /* \"#utility.yul\":5930:6009   */\n      tag_440\n      tag_286\n      jump\t// in\n    tag_440:\n        /* \"#utility.yul\":5892:6011   */\n    tag_439:\n        /* \"#utility.yul\":6050:6051   */\n      0x00\n        /* \"#utility.yul\":6075:6128   */\n      tag_441\n        /* \"#utility.yul\":6120:6127   */\n      dup5\n        /* \"#utility.yul\":6111:6117   */\n      dup3\n        /* \"#utility.yul\":6100:6109   */\n      dup6\n        /* \"#utility.yul\":6096:6118   */\n      add\n        /* \"#utility.yul\":6075:6128   */\n      tag_303\n      jump\t// in\n    tag_441:\n        /* \"#utility.yul\":6065:6128   */\n      swap2\n      pop\n        /* \"#utility.yul\":6021:6138   */\n      pop\n        /* \"#utility.yul\":5816:6145   */\n      swap3\n      swap2\n      pop\n      pop\n      jump\t// out\n        /* \"#utility.yul\":6151:6361   */\n    tag_95:\n        /* \"#utility.yul\":6238:6242   */\n      0x00\n        /* \"#utility.yul\":6276:6278   */\n      0x20\n        /* \"#utility.yul\":6265:6274   */\n      dup3\n        /* \"#utility.yul\":6261:6279   */\n      add\n        /* \"#utility.yul\":6253:6279   */\n      swap1\n      pop\n        /* \"#utility.yul\":6289:6354   */\n      tag_443\n        /* \"#utility.yul\":6351:6352   */\n      0x00\n        /* \"#utility.yul\":6340:6349   */\n      dup4\n        /* \"#utility.yul\":6336:6353   */\n      add\n        /* \"#utility.yul\":6327:6333   */\n      dup5\n        /* \"#utility.yul\":6289:6354   */\n      tag_301\n      jump\t// in\n    tag_443:\n        /* \"#utility.yul\":6151:6361   */\n      swap3\n      swap2\n      pop\n      pop\n      jump\t// out\n        /* \"#utility.yul\":6367:6484   */\n    tag_304:\n        /* \"#utility.yul\":6476:6477   */\n      0x00\n        /* \"#utility.yul\":6473:6474   */\n      0x00\n        /* \"#utility.yul\":6466:6478   */\n      revert\n        /* \"#utility.yul\":6490:6607   */\n    tag_305:\n        /* \"#utility.yul\":6599:6600   */\n      0x00\n        /* \"#utility.yul\":6596:6597   */\n      0x00\n        /* \"#utility.yul\":6589:6601   */\n      revert\n        /* \"#utility.yul\":6613:6793   */\n    tag_306:\n        /* \"#utility.yul\":6661:6738   */\n      0x4e487b7100000000000000000000000000000000000000000000000000000000\n        /* \"#utility.yul\":6658:6659   */\n      0x00\n        /* \"#utility.yul\":6651:6739   */\n      mstore\n        /* \"#utility.yul\":6758:6762   */\n      0x41\n        /* \"#utility.yul\":6755:6756   */\n      0x04\n        /* \"#utility.yul\":6748:6763   */\n      mstore\n        /* \"#utility.yul\":6782:6786   */\n      0x24\n        /* \"#utility.yul\":6779:6780   */\n      0x00\n        /* \"#utility.yul\":6772:6787   */\n      revert\n        /* \"#utility.yul\":6799:7080   */\n    tag_307:\n        /* \"#utility.yul\":6882:6909   */\n      tag_448\n        /* \"#utility.yul\":6904:6908   */\n      dup3\n        /* \"#utility.yul\":6882:6909   */\n      tag_298\n      jump\t// in\n    tag_448:\n        /* \"#utility.yul\":6874:6880   */\n      dup2\n        /* \"#utility.yul\":6870:6910   */\n      add\n        /* \"#utility.yul\":7012:7018   */\n      dup2\n        /* \"#utility.yul\":7000:7010   */\n      dup2\n        /* \"#utility.yul\":6997:7019   */\n      lt\n        /* \"#utility.yul\":6976:6994   */\n      0xffffffffffffffff\n        /* \"#utility.yul\":6964:6974   */\n      dup3\n        /* \"#utility.yul\":6961:6995   */\n      gt\n        /* \"#utility.yul\":6958:7020   */\n      or\n        /* \"#utility.yul\":6955:7043   */\n      iszero\n      tag_449\n      jumpi\n        /* \"#utility.yul\":7023:7041   */\n      tag_450\n      tag_306\n      jump\t// in\n    tag_450:\n        /* \"#utility.yul\":6955:7043   */\n    tag_449:\n        /* \"#utility.yul\":7063:7073   */\n      dup1\n        /* \"#utility.yul\":7059:7061   */\n      0x40\n        /* \"#utility.yul\":7052:7074   */\n      mstore\n        /* \"#utility.yul\":6842:7080   */\n      pop\n        /* \"#utility.yul\":6799:7080   */\n      pop\n      pop\n      jump\t// out\n        /* \"#utility.yul\":7086:7215   */\n    tag_308:\n        /* \"#utility.yul\":7120:7126   */\n      0x00\n        /* \"#utility.yul\":7147:7167   */\n      tag_452\n      tag_285\n      jump\t// in\n    tag_452:\n        /* \"#utility.yul\":7137:7167   */\n      swap1\n      pop\n        /* \"#utility.yul\":7176:7209   */\n      tag_453\n        /* \"#utility.yul\":7204:7208   */\n      dup3\n        /* \"#utility.yul\":7196:7202   */\n      dup3\n        /* \"#utility.yul\":7176:7209   */\n      tag_307\n      jump\t// in\n    tag_453:\n        /* \"#utility.yul\":7086:7215   */\n      swap2\n      swap1\n      pop\n      jump\t// out\n        /* \"#utility.yul\":7221:7529   */\n    tag_309:\n        /* \"#utility.yul\":7283:7287   */\n      0x00\n        /* \"#utility.yul\":7373:7391   */\n      0xffffffffffffffff\n        /* \"#utility.yul\":7365:7371   */\n      dup3\n        /* \"#utility.yul\":7362:7392   */\n      gt\n        /* \"#utility.yul\":7359:7415   */\n      iszero\n      tag_455\n      jumpi\n        /* \"#utility.yul\":7395:7413   */\n      tag_456\n      tag_306\n      jump\t// in\n    tag_456:\n        /* \"#utility.yul\":7359:7415   */\n    tag_455:\n        /* \"#utility.yul\":7433:7462   */\n      tag_457\n        /* \"#utility.yul\":7455:7461   */\n      dup3\n        /* \"#utility.yul\":7433:7462   */\n      tag_298\n      jump\t// in\n    tag_457:\n        /* \"#utility.yul\":7425:7462   */\n      swap1\n      pop\n        /* \"#utility.yul\":7517:7521   */\n      0x20\n        /* \"#utility.yul\":7511:7515   */\n      dup2\n        /* \"#utility.yul\":7507:7522   */\n      add\n        /* \"#utility.yul\":7499:7522   */\n      swap1\n      pop\n        /* \"#utility.yul\":7221:7529   */\n      swap2\n      swap1\n      pop\n      jump\t// out\n        /* \"#utility.yul\":7535:7683   */\n    tag_310:\n        /* \"#utility.yul\":7633:7639   */\n      dup3\n        /* \"#utility.yul\":7628:7631   */\n      dup2\n        /* \"#utility.yul\":7623:7626   */\n      dup4\n        /* \"#utility.yul\":7610:7640   */\n      calldatacopy\n        /* \"#utility.yul\":7674:7675   */\n      0x00\n        /* \"#utility.yul\":7665:7671   */\n      dup4\n        /* \"#utility.yul\":7660:7663   */\n      dup4\n        /* \"#utility.yul\":7656:7672   */\n      add\n        /* \"#utility.yul\":7649:7676   */\n      mstore\n        /* \"#utility.yul\":7535:7683   */\n      pop\n      pop\n      pop\n      jump\t// out\n        /* \"#utility.yul\":7689:8114   */\n    tag_311:\n        /* \"#utility.yul\":7767:7772   */\n      0x00\n        /* \"#utility.yul\":7792:7858   */\n      tag_460\n        /* \"#utility.yul\":7808:7857   */\n      tag_461\n        /* \"#utility.yul\":7850:7856   */\n      dup5\n        /* \"#utility.yul\":7808:7857   */\n      tag_309\n      jump\t// in\n    tag_461:\n        /* \"#utility.yul\":7792:7858   */\n      tag_308\n      jump\t// in\n    tag_460:\n        /* \"#utility.yul\":7783:7858   */\n      swap1\n      pop\n        /* \"#utility.yul\":7881:7887   */\n      dup3\n        /* \"#utility.yul\":7874:7879   */\n      dup2\n        /* \"#utility.yul\":7867:7888   */\n      mstore\n        /* \"#utility.yul\":7919:7923   */\n      0x20\n        /* \"#utility.yul\":7912:7917   */\n      dup2\n        /* \"#utility.yul\":7908:7924   */\n      add\n        /* \"#utility.yul\":7957:7960   */\n      dup5\n        /* \"#utility.yul\":7948:7954   */\n      dup5\n        /* \"#utility.yul\":7943:7946   */\n      dup5\n        /* \"#utility.yul\":7939:7955   */\n      add\n        /* \"#utility.yul\":7936:7961   */\n      gt\n        /* \"#utility.yul\":7933:8045   */\n      iszero\n      tag_462\n      jumpi\n        /* \"#utility.yul\":7964:8043   */\n      tag_463\n      tag_305\n      jump\t// in\n    tag_463:\n        /* \"#utility.yul\":7933:8045   */\n    tag_462:\n        /* \"#utility.yul\":8054:8108   */\n      tag_464\n        /* \"#utility.yul\":8101:8107   */\n      dup5\n        /* \"#utility.yul\":8096:8099   */\n      dup3\n        /* \"#utility.yul\":8091:8094   */\n      dup6\n        /* \"#utility.yul\":8054:8108   */\n      tag_310\n      jump\t// in\n    tag_464:\n        /* \"#utility.yul\":7773:8114   */\n      pop\n        /* \"#utility.yul\":7689:8114   */\n      swap4\n      swap3\n      pop\n      pop\n      pop\n      jump\t// out\n        /* \"#utility.yul\":8134:8474   */\n    tag_312:\n        /* \"#utility.yul\":8190:8195   */\n      0x00\n        /* \"#utility.yul\":8239:8242   */\n      dup3\n        /* \"#utility.yul\":8232:8236   */\n      0x1f\n        /* \"#utility.yul\":8224:8230   */\n      dup4\n        /* \"#utility.yul\":8220:8237   */\n      add\n        /* \"#utility.yul\":8216:8243   */\n      slt\n        /* \"#utility.yul\":8206:8328   */\n      tag_466\n      jumpi\n        /* \"#utility.yul\":8247:8326   */\n      tag_467\n      tag_304\n      jump\t// in\n    tag_467:\n        /* \"#utility.yul\":8206:8328   */\n    tag_466:\n        /* \"#utility.yul\":8364:8370   */\n      dup2\n        /* \"#utility.yul\":8351:8371   */\n      calldataload\n        /* \"#utility.yul\":8389:8468   */\n      tag_468\n        /* \"#utility.yul\":8464:8467   */\n      dup5\n        /* \"#utility.yul\":8456:8462   */\n      dup3\n        /* \"#utility.yul\":8449:8453   */\n      0x20\n        /* \"#utility.yul\":8441:8447   */\n      dup7\n        /* \"#utility.yul\":8437:8454   */\n      add\n        /* \"#utility.yul\":8389:8468   */\n      tag_311\n      jump\t// in\n    tag_468:\n        /* \"#utility.yul\":8380:8468   */\n      swap2\n      pop\n        /* \"#utility.yul\":8196:8474   */\n      pop\n        /* \"#utility.yul\":8134:8474   */\n      swap3\n      swap2\n      pop\n      pop\n      jump\t// out\n        /* \"#utility.yul\":8480:9751   */\n    tag_110:\n        /* \"#utility.yul\":8595:8601   */\n      0x00\n        /* \"#utility.yul\":8603:8609   */\n      0x00\n        /* \"#utility.yul\":8611:8617   */\n      0x00\n        /* \"#utility.yul\":8619:8625   */\n      0x00\n        /* \"#utility.yul\":8627:8633   */\n      0x00\n        /* \"#utility.yul\":8676:8679   */\n      0xa0\n        /* \"#utility.yul\":8664:8673   */\n      dup7\n        /* \"#utility.yul\":8655:8662   */\n      dup9\n        /* \"#utility.yul\":8651:8674   */\n      sub\n        /* \"#utility.yul\":8647:8680   */\n      slt\n        /* \"#utility.yul\":8644:8764   */\n      iszero\n      tag_470\n      jumpi\n        /* \"#utility.yul\":8683:8762   */\n      tag_471\n      tag_286\n      jump\t// in\n    tag_471:\n        /* \"#utility.yul\":8644:8764   */\n    tag_470:\n        /* \"#utility.yul\":8831:8832   */\n      0x00\n        /* \"#utility.yul\":8820:8829   */\n      dup7\n        /* \"#utility.yul\":8816:8833   */\n      add\n        /* \"#utility.yul\":8803:8834   */\n      calldataload\n        /* \"#utility.yul\":8861:8879   */\n      0xffffffffffffffff\n        /* \"#utility.yul\":8853:8859   */\n      dup2\n        /* \"#utility.yul\":8850:8880   */\n      gt\n        /* \"#utility.yul\":8847:8964   */\n      iszero\n      tag_472\n      jumpi\n        /* \"#utility.yul\":8883:8962   */\n      tag_473\n      tag_287\n      jump\t// in\n    tag_473:\n        /* \"#utility.yul\":8847:8964   */\n    tag_472:\n        /* \"#utility.yul\":8988:9051   */\n      tag_474\n        /* \"#utility.yul\":9043:9050   */\n      dup9\n        /* \"#utility.yul\":9034:9040   */\n      dup3\n        /* \"#utility.yul\":9023:9032   */\n      dup10\n        /* \"#utility.yul\":9019:9041   */\n      add\n        /* \"#utility.yul\":8988:9051   */\n      tag_312\n      jump\t// in\n    tag_474:\n        /* \"#utility.yul\":8978:9051   */\n      swap6\n      pop\n        /* \"#utility.yul\":8774:9061   */\n      pop\n        /* \"#utility.yul\":9128:9130   */\n      0x20\n        /* \"#utility.yul\":9117:9126   */\n      dup7\n        /* \"#utility.yul\":9113:9131   */\n      add\n        /* \"#utility.yul\":9100:9132   */\n      calldataload\n        /* \"#utility.yul\":9159:9177   */\n      0xffffffffffffffff\n        /* \"#utility.yul\":9151:9157   */\n      dup2\n        /* \"#utility.yul\":9148:9178   */\n      gt\n        /* \"#utility.yul\":9145:9262   */\n      iszero\n      tag_475\n      jumpi\n        /* \"#utility.yul\":9181:9260   */\n      tag_476\n      tag_287\n      jump\t// in\n    tag_476:\n        /* \"#utility.yul\":9145:9262   */\n    tag_475:\n        /* \"#utility.yul\":9286:9349   */\n      tag_477\n        /* \"#utility.yul\":9341:9348   */\n      dup9\n        /* \"#utility.yul\":9332:9338   */\n      dup3\n        /* \"#utility.yul\":9321:9330   */\n      dup10\n        /* \"#utility.yul\":9317:9339   */\n      add\n        /* \"#utility.yul\":9286:9349   */\n      tag_312\n      jump\t// in\n    tag_477:\n        /* \"#utility.yul\":9276:9349   */\n      swap5\n      pop\n        /* \"#utility.yul\":9071:9359   */\n      pop\n        /* \"#utility.yul\":9398:9400   */\n      0x40\n        /* \"#utility.yul\":9424:9477   */\n      tag_478\n        /* \"#utility.yul\":9469:9476   */\n      dup9\n        /* \"#utility.yul\":9460:9466   */\n      dup3\n        /* \"#utility.yul\":9449:9458   */\n      dup10\n        /* \"#utility.yul\":9445:9467   */\n      add\n        /* \"#utility.yul\":9424:9477   */\n      tag_290\n      jump\t// in\n    tag_478:\n        /* \"#utility.yul\":9414:9477   */\n      swap4\n      pop\n        /* \"#utility.yul\":9369:9487   */\n      pop\n        /* \"#utility.yul\":9526:9528   */\n      0x60\n        /* \"#utility.yul\":9552:9605   */\n      tag_479\n        /* \"#utility.yul\":9597:9604   */\n      dup9\n        /* \"#utility.yul\":9588:9594   */\n      dup3\n        /* \"#utility.yul\":9577:9586   */\n      dup10\n        /* \"#utility.yul\":9573:9595   */\n      add\n        /* \"#utility.yul\":9552:9605   */\n      tag_290\n      jump\t// in\n    tag_479:\n        /* \"#utility.yul\":9542:9605   */\n      swap3\n      pop\n        /* \"#utility.yul\":9497:9615   */\n      pop\n        /* \"#utility.yul\":9654:9657   */\n      0x80\n        /* \"#utility.yul\":9681:9734   */\n      tag_480\n        /* \"#utility.yul\":9726:9733   */\n      dup9\n        /* \"#utility.yul\":9717:9723   */\n      dup3\n        /* \"#utility.yul\":9706:9715   */\n      dup10\n        /* \"#utility.yul\":9702:9724   */\n      add\n        /* \"#utility.yul\":9681:9734   */\n      tag_290\n      jump\t// in\n    tag_480:\n        /* \"#utility.yul\":9671:9734   */\n      swap2\n      pop\n        /* \"#utility.yul\":9625:9744   */\n      pop\n        /* \"#utility.yul\":8480:9751   */\n      swap3\n      swap6\n      pop\n      swap3\n      swap6\n      swap1\n      swap4\n      pop\n      jump\t// out\n        /* \"#utility.yul\":9757:9979   */\n    tag_116:\n        /* \"#utility.yul\":9850:9854   */\n      0x00\n        /* \"#utility.yul\":9888:9890   */\n      0x20\n        /* \"#utility.yul\":9877:9886   */\n      dup3\n        /* \"#utility.yul\":9873:9891   */\n      add\n        /* \"#utility.yul\":9865:9891   */\n      swap1\n      pop\n        /* \"#utility.yul\":9901:9972   */\n      tag_482\n        /* \"#utility.yul\":9969:9970   */\n      0x00\n        /* \"#utility.yul\":9958:9967   */\n      dup4\n        /* \"#utility.yul\":9954:9971   */\n      add\n        /* \"#utility.yul\":9945:9951   */\n      dup5\n        /* \"#utility.yul\":9901:9972   */\n      tag_294\n      jump\t// in\n    tag_482:\n        /* \"#utility.yul\":9757:9979   */\n      swap3\n      swap2\n      pop\n      pop\n      jump\t// out\n        /* \"#utility.yul\":9985:10205   */\n    tag_313:\n        /* \"#utility.yul\":10125:10159   */\n      0x70726f6a65637420686173206e6f74206265656e206372656174656420796574\n        /* \"#utility.yul\":10121:10122   */\n      0x00\n        /* \"#utility.yul\":10113:10119   */\n      dup3\n        /* \"#utility.yul\":10109:10123   */\n      add\n        /* \"#utility.yul\":10102:10160   */\n      mstore\n        /* \"#utility.yul\":10194:10197   */\n      0x2100000000000000000000000000000000000000000000000000000000000000\n        /* \"#utility.yul\":10189:10191   */\n      0x20\n        /* \"#utility.yul\":10181:10187   */\n      dup3\n        /* \"#utility.yul\":10177:10192   */\n      add\n        /* \"#utility.yul\":10170:10198   */\n      mstore\n        /* \"#utility.yul\":9985:10205   */\n      pop\n      jump\t// out\n        /* \"#utility.yul\":10211:10577   */\n    tag_314:\n        /* \"#utility.yul\":10353:10356   */\n      0x00\n        /* \"#utility.yul\":10374:10441   */\n      tag_485\n        /* \"#utility.yul\":10438:10440   */\n      0x21\n        /* \"#utility.yul\":10433:10436   */\n      dup4\n        /* \"#utility.yul\":10374:10441   */\n      tag_296\n      jump\t// in\n    tag_485:\n        /* \"#utility.yul\":10367:10441   */\n      swap2\n      pop\n        /* \"#utility.yul\":10450:10543   */\n      tag_486\n        /* \"#utility.yul\":10539:10542   */\n      dup3\n        /* \"#utility.yul\":10450:10543   */\n      tag_313\n      jump\t// in\n    tag_486:\n        /* \"#utility.yul\":10568:10570   */\n      0x40\n        /* \"#utility.yul\":10563:10566   */\n      dup3\n        /* \"#utility.yul\":10559:10571   */\n      add\n        /* \"#utility.yul\":10552:10571   */\n      swap1\n      pop\n        /* \"#utility.yul\":10211:10577   */\n      swap2\n      swap1\n      pop\n      jump\t// out\n        /* \"#utility.yul\":10583:11002   */\n    tag_124:\n        /* \"#utility.yul\":10749:10753   */\n      0x00\n        /* \"#utility.yul\":10787:10789   */\n      0x20\n        /* \"#utility.yul\":10776:10785   */\n      dup3\n        /* \"#utility.yul\":10772:10790   */\n      add\n        /* \"#utility.yul\":10764:10790   */\n      swap1\n      pop\n        /* \"#utility.yul\":10836:10845   */\n      dup2\n        /* \"#utility.yul\":10830:10834   */\n      dup2\n        /* \"#utility.yul\":10826:10846   */\n      sub\n        /* \"#utility.yul\":10822:10823   */\n      0x00\n        /* \"#utility.yul\":10811:10820   */\n      dup4\n        /* \"#utility.yul\":10807:10824   */\n      add\n        /* \"#utility.yul\":10800:10847   */\n      mstore\n        /* \"#utility.yul\":10864:10995   */\n      tag_488\n        /* \"#utility.yul\":10990:10994   */\n      dup2\n        /* \"#utility.yul\":10864:10995   */\n      tag_314\n      jump\t// in\n    tag_488:\n        /* \"#utility.yul\":10856:10995   */\n      swap1\n      pop\n        /* \"#utility.yul\":10583:11002   */\n      swap2\n      swap1\n      pop\n      jump\t// out\n        /* \"#utility.yul\":11008:11188   */\n    tag_315:\n        /* \"#utility.yul\":11056:11133   */\n      0x4e487b7100000000000000000000000000000000000000000000000000000000\n        /* \"#utility.yul\":11053:11054   */\n      0x00\n        /* \"#utility.yul\":11046:11134   */\n      mstore\n        /* \"#utility.yul\":11153:11157   */\n      0x11\n        /* \"#utility.yul\":11150:11151   */\n      0x04\n        /* \"#utility.yul\":11143:11158   */\n      mstore\n        /* \"#utility.yul\":11177:11181   */\n      0x24\n        /* \"#utility.yul\":11174:11175   */\n      0x00\n        /* \"#utility.yul\":11167:11182   */\n      revert\n        /* \"#utility.yul\":11194:11388   */\n    tag_128:\n        /* \"#utility.yul\":11234:11238   */\n      0x00\n        /* \"#utility.yul\":11254:11274   */\n      tag_491\n        /* \"#utility.yul\":11272:11273   */\n      dup3\n        /* \"#utility.yul\":11254:11274   */\n      tag_288\n      jump\t// in\n    tag_491:\n        /* \"#utility.yul\":11249:11274   */\n      swap2\n      pop\n        /* \"#utility.yul\":11288:11308   */\n      tag_492\n        /* \"#utility.yul\":11306:11307   */\n      dup4\n        /* \"#utility.yul\":11288:11308   */\n      tag_288\n      jump\t// in\n    tag_492:\n        /* \"#utility.yul\":11283:11308   */\n      swap3\n      pop\n        /* \"#utility.yul\":11332:11333   */\n      dup3\n        /* \"#utility.yul\":11329:11330   */\n      dup3\n        /* \"#utility.yul\":11325:11334   */\n      sub\n        /* \"#utility.yul\":11317:11334   */\n      swap1\n      pop\n        /* \"#utility.yul\":11356:11357   */\n      dup2\n        /* \"#utility.yul\":11350:11354   */\n      dup2\n        /* \"#utility.yul\":11347:11358   */\n      gt\n        /* \"#utility.yul\":11344:11381   */\n      iszero\n      tag_493\n      jumpi\n        /* \"#utility.yul\":11361:11379   */\n      tag_494\n      tag_315\n      jump\t// in\n    tag_494:\n        /* \"#utility.yul\":11344:11381   */\n    tag_493:\n        /* \"#utility.yul\":11194:11388   */\n      swap3\n      swap2\n      pop\n      pop\n      jump\t// out\n        /* \"#utility.yul\":11394:11636   */\n    tag_316:\n        /* \"#utility.yul\":11534:11568   */\n      0x446561646c696e65206973206f766572202c20796f752043616e277420636861\n        /* \"#utility.yul\":11530:11531   */\n      0x00\n        /* \"#utility.yul\":11522:11528   */\n      dup3\n        /* \"#utility.yul\":11518:11532   */\n      add\n        /* \"#utility.yul\":11511:11569   */\n      mstore\n        /* \"#utility.yul\":11603:11628   */\n      0x6e6765207468652066756e64696e6720676f616c202121000000000000000000\n        /* \"#utility.yul\":11598:11600   */\n      0x20\n        /* \"#utility.yul\":11590:11596   */\n      dup3\n        /* \"#utility.yul\":11586:11601   */\n      add\n        /* \"#utility.yul\":11579:11629   */\n      mstore\n        /* \"#utility.yul\":11394:11636   */\n      pop\n      jump\t// out\n        /* \"#utility.yul\":11642:12008   */\n    tag_317:\n        /* \"#utility.yul\":11784:11787   */\n      0x00\n        /* \"#utility.yul\":11805:11872   */\n      tag_497\n        /* \"#utility.yul\":11869:11871   */\n      0x37\n        /* \"#utility.yul\":11864:11867   */\n      dup4\n        /* \"#utility.yul\":11805:11872   */\n      tag_296\n      jump\t// in\n    tag_497:\n        /* \"#utility.yul\":11798:11872   */\n      swap2\n      pop\n        /* \"#utility.yul\":11881:11974   */\n      tag_498\n        /* \"#utility.yul\":11970:11973   */\n      dup3\n        /* \"#utility.yul\":11881:11974   */\n      tag_316\n      jump\t// in\n    tag_498:\n        /* \"#utility.yul\":11999:12001   */\n      0x40\n        /* \"#utility.yul\":11994:11997   */\n      dup3\n        /* \"#utility.yul\":11990:12002   */\n      add\n        /* \"#utility.yul\":11983:12002   */\n      swap1\n      pop\n        /* \"#utility.yul\":11642:12008   */\n      swap2\n      swap1\n      pop\n      jump\t// out\n        /* \"#utility.yul\":12014:12433   */\n    tag_132:\n        /* \"#utility.yul\":12180:12184   */\n      0x00\n        /* \"#utility.yul\":12218:12220   */\n      0x20\n        /* \"#utility.yul\":12207:12216   */\n      dup3\n        /* \"#utility.yul\":12203:12221   */\n      add\n        /* \"#utility.yul\":12195:12221   */\n      swap1\n      pop\n        /* \"#utility.yul\":12267:12276   */\n      dup2\n        /* \"#utility.yul\":12261:12265   */\n      dup2\n        /* \"#utility.yul\":12257:12277   */\n      sub\n        /* \"#utility.yul\":12253:12254   */\n      0x00\n        /* \"#utility.yul\":12242:12251   */\n      dup4\n        /* \"#utility.yul\":12238:12255   */\n      add\n        /* \"#utility.yul\":12231:12278   */\n      mstore\n        /* \"#utility.yul\":12295:12426   */\n      tag_500\n        /* \"#utility.yul\":12421:12425   */\n      dup2\n        /* \"#utility.yul\":12295:12426   */\n      tag_317\n      jump\t// in\n    tag_500:\n        /* \"#utility.yul\":12287:12426   */\n      swap1\n      pop\n        /* \"#utility.yul\":12014:12433   */\n      swap2\n      swap1\n      pop\n      jump\t// out\n        /* \"#utility.yul\":12439:12731   */\n    tag_318:\n        /* \"#utility.yul\":12579:12613   */\n      0x596f7520617265206e6f74207468652070726f6a6563742063726561746f7220\n        /* \"#utility.yul\":12575:12576   */\n      0x00\n        /* \"#utility.yul\":12567:12573   */\n      dup3\n        /* \"#utility.yul\":12563:12577   */\n      add\n        /* \"#utility.yul\":12556:12614   */\n      mstore\n        /* \"#utility.yul\":12648:12682   */\n      0x2c204f6e6c7920506f726a6563742063726561746f722063616e204368616e67\n        /* \"#utility.yul\":12643:12645   */\n      0x20\n        /* \"#utility.yul\":12635:12641   */\n      dup3\n        /* \"#utility.yul\":12631:12646   */\n      add\n        /* \"#utility.yul\":12624:12683   */\n      mstore\n        /* \"#utility.yul\":12717:12723   */\n      0x6520212100000000000000000000000000000000000000000000000000000000\n        /* \"#utility.yul\":12712:12714   */\n      0x40\n        /* \"#utility.yul\":12704:12710   */\n      dup3\n        /* \"#utility.yul\":12700:12715   */\n      add\n        /* \"#utility.yul\":12693:12724   */\n      mstore\n        /* \"#utility.yul\":12439:12731   */\n      pop\n      jump\t// out\n        /* \"#utility.yul\":12737:13103   */\n    tag_319:\n        /* \"#utility.yul\":12879:12882   */\n      0x00\n        /* \"#utility.yul\":12900:12967   */\n      tag_503\n        /* \"#utility.yul\":12964:12966   */\n      0x44\n        /* \"#utility.yul\":12959:12962   */\n      dup4\n        /* \"#utility.yul\":12900:12967   */\n      tag_296\n      jump\t// in\n    tag_503:\n        /* \"#utility.yul\":12893:12967   */\n      swap2\n      pop\n        /* \"#utility.yul\":12976:13069   */\n      tag_504\n        /* \"#utility.yul\":13065:13068   */\n      dup3\n        /* \"#utility.yul\":12976:13069   */\n      tag_318\n      jump\t// in\n    tag_504:\n        /* \"#utility.yul\":13094:13096   */\n      0x60\n        /* \"#utility.yul\":13089:13092   */\n      dup3\n        /* \"#utility.yul\":13085:13097   */\n      add\n        /* \"#utility.yul\":13078:13097   */\n      swap1\n      pop\n        /* \"#utility.yul\":12737:13103   */\n      swap2\n      swap1\n      pop\n      jump\t// out\n        /* \"#utility.yul\":13109:13528   */\n    tag_135:\n        /* \"#utility.yul\":13275:13279   */\n      0x00\n        /* \"#utility.yul\":13313:13315   */\n      0x20\n        /* \"#utility.yul\":13302:13311   */\n      dup3\n        /* \"#utility.yul\":13298:13316   */\n      add\n        /* \"#utility.yul\":13290:13316   */\n      swap1\n      pop\n        /* \"#utility.yul\":13362:13371   */\n      dup2\n        /* \"#utility.yul\":13356:13360   */\n      dup2\n        /* \"#utility.yul\":13352:13372   */\n      sub\n        /* \"#utility.yul\":13348:13349   */\n      0x00\n        /* \"#utility.yul\":13337:13346   */\n      dup4\n        /* \"#utility.yul\":13333:13350   */\n      add\n        /* \"#utility.yul\":13326:13373   */\n      mstore\n        /* \"#utility.yul\":13390:13521   */\n      tag_506\n        /* \"#utility.yul\":13516:13520   */\n      dup2\n        /* \"#utility.yul\":13390:13521   */\n      tag_319\n      jump\t// in\n    tag_506:\n        /* \"#utility.yul\":13382:13521   */\n      swap1\n      pop\n        /* \"#utility.yul\":13109:13528   */\n      swap2\n      swap1\n      pop\n      jump\t// out\n        /* \"#utility.yul\":13534:13714   */\n    tag_320:\n        /* \"#utility.yul\":13582:13659   */\n      0x4e487b7100000000000000000000000000000000000000000000000000000000\n        /* \"#utility.yul\":13579:13580   */\n      0x00\n        /* \"#utility.yul\":13572:13660   */\n      mstore\n        /* \"#utility.yul\":13679:13683   */\n      0x22\n        /* \"#utility.yul\":13676:13677   */\n      0x04\n        /* \"#utility.yul\":13669:13684   */\n      mstore\n        /* \"#utility.yul\":13703:13707   */\n      0x24\n        /* \"#utility.yul\":13700:13701   */\n      0x00\n        /* \"#utility.yul\":13693:13708   */\n      revert\n        /* \"#utility.yul\":13720:14040   */\n    tag_137:\n        /* \"#utility.yul\":13764:13770   */\n      0x00\n        /* \"#utility.yul\":13801:13802   */\n      0x02\n        /* \"#utility.yul\":13795:13799   */\n      dup3\n        /* \"#utility.yul\":13791:13803   */\n      div\n        /* \"#utility.yul\":13781:13803   */\n      swap1\n      pop\n        /* \"#utility.yul\":13848:13849   */\n      0x01\n        /* \"#utility.yul\":13842:13846   */\n      dup3\n        /* \"#utility.yul\":13838:13850   */\n      and\n        /* \"#utility.yul\":13869:13887   */\n      dup1\n        /* \"#utility.yul\":13859:13940   */\n      tag_509\n      jumpi\n        /* \"#utility.yul\":13925:13929   */\n      0x7f\n        /* \"#utility.yul\":13917:13923   */\n      dup3\n        /* \"#utility.yul\":13913:13930   */\n      and\n        /* \"#utility.yul\":13903:13930   */\n      swap2\n      pop\n        /* \"#utility.yul\":13859:13940   */\n    tag_509:\n        /* \"#utility.yul\":13987:13989   */\n      0x20\n        /* \"#utility.yul\":13979:13985   */\n      dup3\n        /* \"#utility.yul\":13976:13990   */\n      lt\n        /* \"#utility.yul\":13956:13974   */\n      dup2\n        /* \"#utility.yul\":13953:13991   */\n      sub\n        /* \"#utility.yul\":13950:14034   */\n      tag_510\n      jumpi\n        /* \"#utility.yul\":14006:14024   */\n      tag_511\n      tag_320\n      jump\t// in\n    tag_511:\n        /* \"#utility.yul\":13950:14034   */\n    tag_510:\n        /* \"#utility.yul\":13771:14040   */\n      pop\n        /* \"#utility.yul\":13720:14040   */\n      swap2\n      swap1\n      pop\n      jump\t// out\n        /* \"#utility.yul\":14046:14279   */\n    tag_321:\n        /* \"#utility.yul\":14186:14220   */\n      0x46756e64696e6720676f616c206861732072656163686564202c207573657220\n        /* \"#utility.yul\":14182:14183   */\n      0x00\n        /* \"#utility.yul\":14174:14180   */\n      dup3\n        /* \"#utility.yul\":14170:14184   */\n      add\n        /* \"#utility.yul\":14163:14221   */\n      mstore\n        /* \"#utility.yul\":14255:14271   */\n      0x63616e2774207769746864726177000000000000000000000000000000000000\n        /* \"#utility.yul\":14250:14252   */\n      0x20\n        /* \"#utility.yul\":14242:14248   */\n      dup3\n        /* \"#utility.yul\":14238:14253   */\n      add\n        /* \"#utility.yul\":14231:14272   */\n      mstore\n        /* \"#utility.yul\":14046:14279   */\n      pop\n      jump\t// out\n        /* \"#utility.yul\":14285:14651   */\n    tag_322:\n        /* \"#utility.yul\":14427:14430   */\n      0x00\n        /* \"#utility.yul\":14448:14515   */\n      tag_514\n        /* \"#utility.yul\":14512:14514   */\n      0x2e\n        /* \"#utility.yul\":14507:14510   */\n      dup4\n        /* \"#utility.yul\":14448:14515   */\n      tag_296\n      jump\t// in\n    tag_514:\n        /* \"#utility.yul\":14441:14515   */\n      swap2\n      pop\n        /* \"#utility.yul\":14524:14617   */\n      tag_515\n        /* \"#utility.yul\":14613:14616   */\n      dup3\n        /* \"#utility.yul\":14524:14617   */\n      tag_321\n      jump\t// in\n    tag_515:\n        /* \"#utility.yul\":14642:14644   */\n      0x40\n        /* \"#utility.yul\":14637:14640   */\n      dup3\n        /* \"#utility.yul\":14633:14645   */\n      add\n        /* \"#utility.yul\":14626:14645   */\n      swap1\n      pop\n        /* \"#utility.yul\":14285:14651   */\n      swap2\n      swap1\n      pop\n      jump\t// out\n        /* \"#utility.yul\":14657:15076   */\n    tag_154:\n        /* \"#utility.yul\":14823:14827   */\n      0x00\n        /* \"#utility.yul\":14861:14863   */\n      0x20\n        /* \"#utility.yul\":14850:14859   */\n      dup3\n        /* \"#utility.yul\":14846:14864   */\n      add\n        /* \"#utility.yul\":14838:14864   */\n      swap1\n      pop\n        /* \"#utility.yul\":14910:14919   */\n      dup2\n        /* \"#utility.yul\":14904:14908   */\n      dup2\n        /* \"#utility.yul\":14900:14920   */\n      sub\n        /* \"#utility.yul\":14896:14897   */\n      0x00\n        /* \"#utility.yul\":14885:14894   */\n      dup4\n        /* \"#utility.yul\":14881:14898   */\n      add\n        /* \"#utility.yul\":14874:14921   */\n      mstore\n        /* \"#utility.yul\":14938:15069   */\n      tag_517\n        /* \"#utility.yul\":15064:15068   */\n      dup2\n        /* \"#utility.yul\":14938:15069   */\n      tag_322\n      jump\t// in\n    tag_517:\n        /* \"#utility.yul\":14930:15069   */\n      swap1\n      pop\n        /* \"#utility.yul\":14657:15076   */\n      swap2\n      swap1\n      pop\n      jump\t// out\n        /* \"#utility.yul\":15082:15414   */\n    tag_161:\n        /* \"#utility.yul\":15203:15207   */\n      0x00\n        /* \"#utility.yul\":15241:15243   */\n      0x40\n        /* \"#utility.yul\":15230:15239   */\n      dup3\n        /* \"#utility.yul\":15226:15244   */\n      add\n        /* \"#utility.yul\":15218:15244   */\n      swap1\n      pop\n        /* \"#utility.yul\":15254:15325   */\n      tag_519\n        /* \"#utility.yul\":15322:15323   */\n      0x00\n        /* \"#utility.yul\":15311:15320   */\n      dup4\n        /* \"#utility.yul\":15307:15324   */\n      add\n        /* \"#utility.yul\":15298:15304   */\n      dup6\n        /* \"#utility.yul\":15254:15325   */\n      tag_294\n      jump\t// in\n    tag_519:\n        /* \"#utility.yul\":15335:15407   */\n      tag_520\n        /* \"#utility.yul\":15403:15405   */\n      0x20\n        /* \"#utility.yul\":15392:15401   */\n      dup4\n        /* \"#utility.yul\":15388:15406   */\n      add\n        /* \"#utility.yul\":15379:15385   */\n      dup5\n        /* \"#utility.yul\":15335:15407   */\n      tag_291\n      jump\t// in\n    tag_520:\n        /* \"#utility.yul\":15082:15414   */\n      swap4\n      swap3\n      pop\n      pop\n      pop\n      jump\t// out\n        /* \"#utility.yul\":15420:15830   */\n    tag_164:\n        /* \"#utility.yul\":15460:15467   */\n      0x00\n        /* \"#utility.yul\":15483:15503   */\n      tag_522\n        /* \"#utility.yul\":15501:15502   */\n      dup3\n        /* \"#utility.yul\":15483:15503   */\n      tag_288\n      jump\t// in\n    tag_522:\n        /* \"#utility.yul\":15478:15503   */\n      swap2\n      pop\n        /* \"#utility.yul\":15517:15537   */\n      tag_523\n        /* \"#utility.yul\":15535:15536   */\n      dup4\n        /* \"#utility.yul\":15517:15537   */\n      tag_288\n      jump\t// in\n    tag_523:\n        /* \"#utility.yul\":15512:15537   */\n      swap3\n      pop\n        /* \"#utility.yul\":15572:15573   */\n      dup3\n        /* \"#utility.yul\":15569:15570   */\n      dup3\n        /* \"#utility.yul\":15565:15574   */\n      mul\n        /* \"#utility.yul\":15594:15624   */\n      tag_524\n        /* \"#utility.yul\":15612:15623   */\n      dup2\n        /* \"#utility.yul\":15594:15624   */\n      tag_288\n      jump\t// in\n    tag_524:\n        /* \"#utility.yul\":15583:15624   */\n      swap2\n      pop\n        /* \"#utility.yul\":15773:15774   */\n      dup3\n        /* \"#utility.yul\":15764:15771   */\n      dup3\n        /* \"#utility.yul\":15760:15775   */\n      div\n        /* \"#utility.yul\":15757:15758   */\n      dup5\n        /* \"#utility.yul\":15754:15776   */\n      eq\n        /* \"#utility.yul\":15734:15735   */\n      dup4\n        /* \"#utility.yul\":15727:15736   */\n      iszero\n        /* \"#utility.yul\":15707:15790   */\n      or\n        /* \"#utility.yul\":15684:15823   */\n      tag_525\n      jumpi\n        /* \"#utility.yul\":15803:15821   */\n      tag_526\n      tag_315\n      jump\t// in\n    tag_526:\n        /* \"#utility.yul\":15684:15823   */\n    tag_525:\n        /* \"#utility.yul\":15468:15830   */\n      pop\n        /* \"#utility.yul\":15420:15830   */\n      swap3\n      swap2\n      pop\n      pop\n      jump\t// out\n        /* \"#utility.yul\":15836:16016   */\n    tag_323:\n        /* \"#utility.yul\":15884:15961   */\n      0x4e487b7100000000000000000000000000000000000000000000000000000000\n        /* \"#utility.yul\":15881:15882   */\n      0x00\n        /* \"#utility.yul\":15874:15962   */\n      mstore\n        /* \"#utility.yul\":15981:15985   */\n      0x12\n        /* \"#utility.yul\":15978:15979   */\n      0x04\n        /* \"#utility.yul\":15971:15986   */\n      mstore\n        /* \"#utility.yul\":16005:16009   */\n      0x24\n        /* \"#utility.yul\":16002:16003   */\n      0x00\n        /* \"#utility.yul\":15995:16010   */\n      revert\n        /* \"#utility.yul\":16022:16207   */\n    tag_166:\n        /* \"#utility.yul\":16062:16063   */\n      0x00\n        /* \"#utility.yul\":16079:16099   */\n      tag_529\n        /* \"#utility.yul\":16097:16098   */\n      dup3\n        /* \"#utility.yul\":16079:16099   */\n      tag_288\n      jump\t// in\n    tag_529:\n        /* \"#utility.yul\":16074:16099   */\n      swap2\n      pop\n        /* \"#utility.yul\":16113:16133   */\n      tag_530\n        /* \"#utility.yul\":16131:16132   */\n      dup4\n        /* \"#utility.yul\":16113:16133   */\n      tag_288\n      jump\t// in\n    tag_530:\n        /* \"#utility.yul\":16108:16133   */\n      swap3\n      pop\n        /* \"#utility.yul\":16152:16153   */\n      dup3\n        /* \"#utility.yul\":16142:16177   */\n      tag_531\n      jumpi\n        /* \"#utility.yul\":16157:16175   */\n      tag_532\n      tag_323\n      jump\t// in\n    tag_532:\n        /* \"#utility.yul\":16142:16177   */\n    tag_531:\n        /* \"#utility.yul\":16199:16200   */\n      dup3\n        /* \"#utility.yul\":16196:16197   */\n      dup3\n        /* \"#utility.yul\":16192:16201   */\n      div\n        /* \"#utility.yul\":16187:16201   */\n      swap1\n      pop\n        /* \"#utility.yul\":16022:16207   */\n      swap3\n      swap2\n      pop\n      pop\n      jump\t// out\n        /* \"#utility.yul\":16213:16446   */\n    tag_175:\n        /* \"#utility.yul\":16252:16255   */\n      0x00\n        /* \"#utility.yul\":16275:16299   */\n      tag_534\n        /* \"#utility.yul\":16293:16298   */\n      dup3\n        /* \"#utility.yul\":16275:16299   */\n      tag_288\n      jump\t// in\n    tag_534:\n        /* \"#utility.yul\":16266:16299   */\n      swap2\n      pop\n        /* \"#utility.yul\":16321:16387   */\n      0xffffffffffffffffffffffffffffffffffffffffffffffffffffffffffffffff\n        /* \"#utility.yul\":16314:16319   */\n      dup3\n        /* \"#utility.yul\":16311:16388   */\n      sub\n        /* \"#utility.yul\":16308:16411   */\n      tag_535\n      jumpi\n        /* \"#utility.yul\":16391:16409   */\n      tag_536\n      tag_315\n      jump\t// in\n    tag_536:\n        /* \"#utility.yul\":16308:16411   */\n    tag_535:\n        /* \"#utility.yul\":16438:16439   */\n      0x01\n        /* \"#utility.yul\":16431:16436   */\n      dup3\n        /* \"#utility.yul\":16427:16440   */\n      add\n        /* \"#utility.yul\":16420:16440   */\n      swap1\n      pop\n        /* \"#utility.yul\":16213:16446   */\n      swap2\n      swap1\n      pop\n      jump\t// out\n        /* \"#utility.yul\":16452:16685   */\n    tag_324:\n        /* \"#utility.yul\":16592:16626   */\n      0x4f6e6c792050726f6a6563742063726561746f722063616e20657874656e6420\n        /* \"#utility.yul\":16588:16589   */\n      0x00\n        /* \"#utility.yul\":16580:16586   */\n      dup3\n        /* \"#utility.yul\":16576:16590   */\n      add\n        /* \"#utility.yul\":16569:16627   */\n      mstore\n        /* \"#utility.yul\":16661:16677   */\n      0x74686520646561646c696e652121000000000000000000000000000000000000\n        /* \"#utility.yul\":16656:16658   */\n      0x20\n        /* \"#utility.yul\":16648:16654   */\n      dup3\n        /* \"#utility.yul\":16644:16659   */\n      add\n        /* \"#utility.yul\":16637:16678   */\n      mstore\n        /* \"#utility.yul\":16452:16685   */\n      pop\n      jump\t// out\n        /* \"#utility.yul\":16691:17057   */\n    tag_325:\n        /* \"#utility.yul\":16833:16836   */\n      0x00\n        /* \"#utility.yul\":16854:16921   */\n      tag_539\n        /* \"#utility.yul\":16918:16920   */\n      0x2e\n        /* \"#utility.yul\":16913:16916   */\n      dup4\n        /* \"#utility.yul\":16854:16921   */\n      tag_296\n      jump\t// in\n    tag_539:\n        /* \"#utility.yul\":16847:16921   */\n      swap2\n      pop\n        /* \"#utility.yul\":16930:17023   */\n      tag_540\n        /* \"#utility.yul\":17019:17022   */\n      dup3\n        /* \"#utility.yul\":16930:17023   */\n      tag_324\n      jump\t// in\n    tag_540:\n        /* \"#utility.yul\":17048:17050   */\n      0x40\n        /* \"#utility.yul\":17043:17046   */\n      dup3\n        /* \"#utility.yul\":17039:17051   */\n      add\n        /* \"#utility.yul\":17032:17051   */\n      swap1\n      pop\n        /* \"#utility.yul\":16691:17057   */\n      swap2\n      swap1\n      pop\n      jump\t// out\n        /* \"#utility.yul\":17063:17482   */\n    tag_180:\n        /* \"#utility.yul\":17229:17233   */\n      0x00\n        /* \"#utility.yul\":17267:17269   */\n      0x20\n        /* \"#utility.yul\":17256:17265   */\n      dup3\n        /* \"#utility.yul\":17252:17270   */\n      add\n        /* \"#utility.yul\":17244:17270   */\n      swap1\n      pop\n        /* \"#utility.yul\":17316:17325   */\n      dup2\n        /* \"#utility.yul\":17310:17314   */\n      dup2\n        /* \"#utility.yul\":17306:17326   */\n      sub\n        /* \"#utility.yul\":17302:17303   */\n      0x00\n        /* \"#utility.yul\":17291:17300   */\n      dup4\n        /* \"#utility.yul\":17287:17304   */\n      add\n        /* \"#utility.yul\":17280:17327   */\n      mstore\n        /* \"#utility.yul\":17344:17475   */\n      tag_542\n        /* \"#utility.yul\":17470:17474   */\n      dup2\n        /* \"#utility.yul\":17344:17475   */\n      tag_325\n      jump\t// in\n    tag_542:\n        /* \"#utility.yul\":17336:17475   */\n      swap1\n      pop\n        /* \"#utility.yul\":17063:17482   */\n      swap2\n      swap1\n      pop\n      jump\t// out\n        /* \"#utility.yul\":17488:17679   */\n    tag_182:\n        /* \"#utility.yul\":17528:17531   */\n      0x00\n        /* \"#utility.yul\":17547:17567   */\n      tag_544\n        /* \"#utility.yul\":17565:17566   */\n      dup3\n        /* \"#utility.yul\":17547:17567   */\n      tag_288\n      jump\t// in\n    tag_544:\n        /* \"#utility.yul\":17542:17567   */\n      swap2\n      pop\n        /* \"#utility.yul\":17581:17601   */\n      tag_545\n        /* \"#utility.yul\":17599:17600   */\n      dup4\n        /* \"#utility.yul\":17581:17601   */\n      tag_288\n      jump\t// in\n    tag_545:\n        /* \"#utility.yul\":17576:17601   */\n      swap3\n      pop\n        /* \"#utility.yul\":17624:17625   */\n      dup3\n        /* \"#utility.yul\":17621:17622   */\n      dup3\n        /* \"#utility.yul\":17617:17626   */\n      add\n        /* \"#utility.yul\":17610:17626   */\n      swap1\n      pop\n        /* \"#utility.yul\":17645:17648   */\n      dup1\n        /* \"#utility.yul\":17642:17643   */\n      dup3\n        /* \"#utility.yul\":17639:17649   */\n      gt\n        /* \"#utility.yul\":17636:17672   */\n      iszero\n      tag_546\n      jumpi\n        /* \"#utility.yul\":17652:17670   */\n      tag_547\n      tag_315\n      jump\t// in\n    tag_547:\n        /* \"#utility.yul\":17636:17672   */\n    tag_546:\n        /* \"#utility.yul\":17488:17679   */\n      swap3\n      swap2\n      pop\n      pop\n      jump\t// out\n        /* \"#utility.yul\":17685:17860   */\n    tag_326:\n        /* \"#utility.yul\":17825:17852   */\n      0x50726f6a65637420646561646c696e65206973206f7665722100000000000000\n        /* \"#utility.yul\":17821:17822   */\n      0x00\n        /* \"#utility.yul\":17813:17819   */\n      dup3\n        /* \"#utility.yul\":17809:17823   */\n      add\n        /* \"#utility.yul\":17802:17853   */\n      mstore\n        /* \"#utility.yul\":17685:17860   */\n      pop\n      jump\t// out\n        /* \"#utility.yul\":17866:18232   */\n    tag_327:\n        /* \"#utility.yul\":18008:18011   */\n      0x00\n        /* \"#utility.yul\":18029:18096   */\n      tag_550\n        /* \"#utility.yul\":18093:18095   */\n      0x19\n        /* \"#utility.yul\":18088:18091   */\n      dup4\n        /* \"#utility.yul\":18029:18096   */\n      tag_296\n      jump\t// in\n    tag_550:\n        /* \"#utility.yul\":18022:18096   */\n      swap2\n      pop\n        /* \"#utility.yul\":18105:18198   */\n      tag_551\n        /* \"#utility.yul\":18194:18197   */\n      dup3\n        /* \"#utility.yul\":18105:18198   */\n      tag_326\n      jump\t// in\n    tag_551:\n        /* \"#utility.yul\":18223:18225   */\n      0x20\n        /* \"#utility.yul\":18218:18221   */\n      dup3\n        /* \"#utility.yul\":18214:18226   */\n      add\n        /* \"#utility.yul\":18207:18226   */\n      swap1\n      pop\n        /* \"#utility.yul\":17866:18232   */\n      swap2\n      swap1\n      pop\n      jump\t// out\n        /* \"#utility.yul\":18238:18657   */\n    tag_189:\n        /* \"#utility.yul\":18404:18408   */\n      0x00\n        /* \"#utility.yul\":18442:18444   */\n      0x20\n        /* \"#utility.yul\":18431:18440   */\n      dup3\n        /* \"#utility.yul\":18427:18445   */\n      add\n        /* \"#utility.yul\":18419:18445   */\n      swap1\n      pop\n        /* \"#utility.yul\":18491:18500   */\n      dup2\n        /* \"#utility.yul\":18485:18489   */\n      dup2\n        /* \"#utility.yul\":18481:18501   */\n      sub\n        /* \"#utility.yul\":18477:18478   */\n      0x00\n        /* \"#utility.yul\":18466:18475   */\n      dup4\n        /* \"#utility.yul\":18462:18479   */\n      add\n        /* \"#utility.yul\":18455:18502   */\n      mstore\n        /* \"#utility.yul\":18519:18650   */\n      tag_553\n        /* \"#utility.yul\":18645:18649   */\n      dup2\n        /* \"#utility.yul\":18519:18650   */\n      tag_327\n      jump\t// in\n    tag_553:\n        /* \"#utility.yul\":18511:18650   */\n      swap1\n      pop\n        /* \"#utility.yul\":18238:18657   */\n      swap2\n      swap1\n      pop\n      jump\t// out\n        /* \"#utility.yul\":18663:18889   */\n    tag_328:\n        /* \"#utility.yul\":18803:18837   */\n      0x50726f6a6563742052656163686564206974732046756e64696e672072657175\n        /* \"#utility.yul\":18799:18800   */\n      0x00\n        /* \"#utility.yul\":18791:18797   */\n      dup3\n        /* \"#utility.yul\":18787:18801   */\n      add\n        /* \"#utility.yul\":18780:18838   */\n      mstore\n        /* \"#utility.yul\":18872:18881   */\n      0x6972656d656e7400000000000000000000000000000000000000000000000000\n        /* \"#utility.yul\":18867:18869   */\n      0x20\n        /* \"#utility.yul\":18859:18865   */\n      dup3\n        /* \"#utility.yul\":18855:18870   */\n      add\n        /* \"#utility.yul\":18848:18882   */\n      mstore\n        /* \"#utility.yul\":18663:18889   */\n      pop\n      jump\t// out\n        /* \"#utility.yul\":18895:19261   */\n    tag_329:\n        /* \"#utility.yul\":19037:19040   */\n      0x00\n        /* \"#utility.yul\":19058:19125   */\n      tag_556\n        /* \"#utility.yul\":19122:19124   */\n      0x27\n        /* \"#utility.yul\":19117:19120   */\n      dup4\n        /* \"#utility.yul\":19058:19125   */\n      tag_296\n      jump\t// in\n    tag_556:\n        /* \"#utility.yul\":19051:19125   */\n      swap2\n      pop\n        /* \"#utility.yul\":19134:19227   */\n      tag_557\n        /* \"#utility.yul\":19223:19226   */\n      dup3\n        /* \"#utility.yul\":19134:19227   */\n      tag_328\n      jump\t// in\n    tag_557:\n        /* \"#utility.yul\":19252:19254   */\n      0x40\n        /* \"#utility.yul\":19247:19250   */\n      dup3\n        /* \"#utility.yul\":19243:19255   */\n      add\n        /* \"#utility.yul\":19236:19255   */\n      swap1\n      pop\n        /* \"#utility.yul\":18895:19261   */\n      swap2\n      swap1\n      pop\n      jump\t// out\n        /* \"#utility.yul\":19267:19686   */\n    tag_192:\n        /* \"#utility.yul\":19433:19437   */\n      0x00\n        /* \"#utility.yul\":19471:19473   */\n      0x20\n        /* \"#utility.yul\":19460:19469   */\n      dup3\n        /* \"#utility.yul\":19456:19474   */\n      add\n        /* \"#utility.yul\":19448:19474   */\n      swap1\n      pop\n        /* \"#utility.yul\":19520:19529   */\n      dup2\n        /* \"#utility.yul\":19514:19518   */\n      dup2\n        /* \"#utility.yul\":19510:19530   */\n      sub\n        /* \"#utility.yul\":19506:19507   */\n      0x00\n        /* \"#utility.yul\":19495:19504   */\n      dup4\n        /* \"#utility.yul\":19491:19508   */\n      add\n        /* \"#utility.yul\":19484:19531   */\n      mstore\n        /* \"#utility.yul\":19548:19679   */\n      tag_559\n        /* \"#utility.yul\":19674:19678   */\n      dup2\n        /* \"#utility.yul\":19548:19679   */\n      tag_329\n      jump\t// in\n    tag_559:\n        /* \"#utility.yul\":19540:19679   */\n      swap1\n      pop\n        /* \"#utility.yul\":19267:19686   */\n      swap2\n      swap1\n      pop\n      jump\t// out\n        /* \"#utility.yul\":19692:19923   */\n    tag_330:\n        /* \"#utility.yul\":19832:19866   */\n      0x73656e6420736f6d6520657468657220746f20636f6e7472696275746520696e\n        /* \"#utility.yul\":19828:19829   */\n      0x00\n        /* \"#utility.yul\":19820:19826   */\n      dup3\n        /* \"#utility.yul\":19816:19830   */\n      add\n        /* \"#utility.yul\":19809:19867   */\n      mstore\n        /* \"#utility.yul\":19901:19915   */\n      0x207468652070726f6a6563740000000000000000000000000000000000000000\n        /* \"#utility.yul\":19896:19898   */\n      0x20\n        /* \"#utility.yul\":19888:19894   */\n      dup3\n        /* \"#utility.yul\":19884:19899   */\n      add\n        /* \"#utility.yul\":19877:19916   */\n      mstore\n        /* \"#utility.yul\":19692:19923   */\n      pop\n      jump\t// out\n        /* \"#utility.yul\":19929:20295   */\n    tag_331:\n        /* \"#utility.yul\":20071:20074   */\n      0x00\n        /* \"#utility.yul\":20092:20159   */\n      tag_562\n        /* \"#utility.yul\":20156:20158   */\n      0x2c\n        /* \"#utility.yul\":20151:20154   */\n      dup4\n        /* \"#utility.yul\":20092:20159   */\n      tag_296\n      jump\t// in\n    tag_562:\n        /* \"#utility.yul\":20085:20159   */\n      swap2\n      pop\n        /* \"#utility.yul\":20168:20261   */\n      tag_563\n        /* \"#utility.yul\":20257:20260   */\n      dup3\n        /* \"#utility.yul\":20168:20261   */\n      tag_330\n      jump\t// in\n    tag_563:\n        /* \"#utility.yul\":20286:20288   */\n      0x40\n        /* \"#utility.yul\":20281:20284   */\n      dup3\n        /* \"#utility.yul\":20277:20289   */\n      add\n        /* \"#utility.yul\":20270:20289   */\n      swap1\n      pop\n        /* \"#utility.yul\":19929:20295   */\n      swap2\n      swap1\n      pop\n      jump\t// out\n        /* \"#utility.yul\":20301:20720   */\n    tag_195:\n        /* \"#utility.yul\":20467:20471   */\n      0x00\n        /* \"#utility.yul\":20505:20507   */\n      0x20\n        /* \"#utility.yul\":20494:20503   */\n      dup3\n        /* \"#utility.yul\":20490:20508   */\n      add\n        /* \"#utility.yul\":20482:20508   */\n      swap1\n      pop\n        /* \"#utility.yul\":20554:20563   */\n      dup2\n        /* \"#utility.yul\":20548:20552   */\n      dup2\n        /* \"#utility.yul\":20544:20564   */\n      sub\n        /* \"#utility.yul\":20540:20541   */\n      0x00\n        /* \"#utility.yul\":20529:20538   */\n      dup4\n        /* \"#utility.yul\":20525:20542   */\n      add\n        /* \"#utility.yul\":20518:20565   */\n      mstore\n        /* \"#utility.yul\":20582:20713   */\n      tag_565\n        /* \"#utility.yul\":20708:20712   */\n      dup2\n        /* \"#utility.yul\":20582:20713   */\n      tag_331\n      jump\t// in\n    tag_565:\n        /* \"#utility.yul\":20574:20713   */\n      swap1\n      pop\n        /* \"#utility.yul\":20301:20720   */\n      swap2\n      swap1\n      pop\n      jump\t// out\n        /* \"#utility.yul\":20726:20949   */\n    tag_332:\n        /* \"#utility.yul\":20866:20900   */\n      0x416d6f756e7420436f6e7472696275746564206973206d6f7265207468616e20\n        /* \"#utility.yul\":20862:20863   */\n      0x00\n        /* \"#utility.yul\":20854:20860   */\n      dup3\n        /* \"#utility.yul\":20850:20864   */\n      add\n        /* \"#utility.yul\":20843:20901   */\n      mstore\n        /* \"#utility.yul\":20935:20941   */\n      0x476f616c00000000000000000000000000000000000000000000000000000000\n        /* \"#utility.yul\":20930:20932   */\n      0x20\n        /* \"#utility.yul\":20922:20928   */\n      dup3\n        /* \"#utility.yul\":20918:20933   */\n      add\n        /* \"#utility.yul\":20911:20942   */\n      mstore\n        /* \"#utility.yul\":20726:20949   */\n      pop\n      jump\t// out\n        /* \"#utility.yul\":20955:21321   */\n    tag_333:\n        /* \"#utility.yul\":21097:21100   */\n      0x00\n        /* \"#utility.yul\":21118:21185   */\n      tag_568\n        /* \"#utility.yul\":21182:21184   */\n      0x24\n        /* \"#utility.yul\":21177:21180   */\n      dup4\n        /* \"#utility.yul\":21118:21185   */\n      tag_296\n      jump\t// in\n    tag_568:\n        /* \"#utility.yul\":21111:21185   */\n      swap2\n      pop\n        /* \"#utility.yul\":21194:21287   */\n      tag_569\n        /* \"#utility.yul\":21283:21286   */\n      dup3\n        /* \"#utility.yul\":21194:21287   */\n      tag_332\n      jump\t// in\n    tag_569:\n        /* \"#utility.yul\":21312:21314   */\n      0x40\n        /* \"#utility.yul\":21307:21310   */\n      dup3\n        /* \"#utility.yul\":21303:21315   */\n      add\n        /* \"#utility.yul\":21296:21315   */\n      swap1\n      pop\n        /* \"#utility.yul\":20955:21321   */\n      swap2\n      swap1\n      pop\n      jump\t// out\n        /* \"#utility.yul\":21327:21746   */\n    tag_198:\n        /* \"#utility.yul\":21493:21497   */\n      0x00\n        /* \"#utility.yul\":21531:21533   */\n      0x20\n        /* \"#utility.yul\":21520:21529   */\n      dup3\n        /* \"#utility.yul\":21516:21534   */\n      add\n        /* \"#utility.yul\":21508:21534   */\n      swap1\n      pop\n        /* \"#utility.yul\":21580:21589   */\n      dup2\n        /* \"#utility.yul\":21574:21578   */\n      dup2\n        /* \"#utility.yul\":21570:21590   */\n      sub\n        /* \"#utility.yul\":21566:21567   */\n      0x00\n        /* \"#utility.yul\":21555:21564   */\n      dup4\n        /* \"#utility.yul\":21551:21568   */\n      add\n        /* \"#utility.yul\":21544:21591   */\n      mstore\n        /* \"#utility.yul\":21608:21739   */\n      tag_571\n        /* \"#utility.yul\":21734:21738   */\n      dup2\n        /* \"#utility.yul\":21608:21739   */\n      tag_333\n      jump\t// in\n    tag_571:\n        /* \"#utility.yul\":21600:21739   */\n      swap1\n      pop\n        /* \"#utility.yul\":21327:21746   */\n      swap2\n      swap1\n      pop\n      jump\t// out\n        /* \"#utility.yul\":21752:21899   */\n    tag_334:\n        /* \"#utility.yul\":21853:21864   */\n      0x00\n        /* \"#utility.yul\":21890:21893   */\n      dup2\n        /* \"#utility.yul\":21875:21893   */\n      swap1\n      pop\n        /* \"#utility.yul\":21752:21899   */\n      swap3\n      swap2\n      pop\n      pop\n      jump\t// out\n        /* \"#utility.yul\":21905:22019   */\n    tag_335:\n      pop\n      jump\t// out\n        /* \"#utility.yul\":22025:22423   */\n    tag_336:\n        /* \"#utility.yul\":22184:22187   */\n      0x00\n        /* \"#utility.yul\":22205:22288   */\n      tag_575\n        /* \"#utility.yul\":22286:22287   */\n      0x00\n        /* \"#utility.yul\":22281:22284   */\n      dup4\n        /* \"#utility.yul\":22205:22288   */\n      tag_334\n      jump\t// in\n    tag_575:\n        /* \"#utility.yul\":22198:22288   */\n      swap2\n      pop\n        /* \"#utility.yul\":22297:22390   */\n      tag_576\n        /* \"#utility.yul\":22386:22389   */\n      dup3\n        /* \"#utility.yul\":22297:22390   */\n      tag_335\n      jump\t// in\n    tag_576:\n        /* \"#utility.yul\":22415:22416   */\n      0x00\n        /* \"#utility.yul\":22410:22413   */\n      dup3\n        /* \"#utility.yul\":22406:22417   */\n      add\n        /* \"#utility.yul\":22399:22417   */\n      swap1\n      pop\n        /* \"#utility.yul\":22025:22423   */\n      swap2\n      swap1\n      pop\n      jump\t// out\n        /* \"#utility.yul\":22429:22808   */\n    tag_207:\n        /* \"#utility.yul\":22613:22616   */\n      0x00\n        /* \"#utility.yul\":22635:22782   */\n      tag_578\n        /* \"#utility.yul\":22778:22781   */\n      dup3\n        /* \"#utility.yul\":22635:22782   */\n      tag_336\n      jump\t// in\n    tag_578:\n        /* \"#utility.yul\":22628:22782   */\n      swap2\n      pop\n        /* \"#utility.yul\":22799:22802   */\n      dup2\n        /* \"#utility.yul\":22792:22802   */\n      swap1\n      pop\n        /* \"#utility.yul\":22429:22808   */\n      swap2\n      swap1\n      pop\n      jump\t// out\n        /* \"#utility.yul\":22814:22977   */\n    tag_337:\n        /* \"#utility.yul\":22954:22969   */\n      0x526566756e64204661696c656400000000000000000000000000000000000000\n        /* \"#utility.yul\":22950:22951   */\n      0x00\n        /* \"#utility.yul\":22942:22948   */\n      dup3\n        /* \"#utility.yul\":22938:22952   */\n      add\n        /* \"#utility.yul\":22931:22970   */\n      mstore\n        /* \"#utility.yul\":22814:22977   */\n      pop\n      jump\t// out\n        /* \"#utility.yul\":22983:23349   */\n    tag_338:\n        /* \"#utility.yul\":23125:23128   */\n      0x00\n        /* \"#utility.yul\":23146:23213   */\n      tag_581\n        /* \"#utility.yul\":23210:23212   */\n      0x0d\n        /* \"#utility.yul\":23205:23208   */\n      dup4\n        /* \"#utility.yul\":23146:23213   */\n      tag_296\n      jump\t// in\n    tag_581:\n        /* \"#utility.yul\":23139:23213   */\n      swap2\n      pop\n        /* \"#utility.yul\":23222:23315   */\n      tag_582\n        /* \"#utility.yul\":23311:23314   */\n      dup3\n        /* \"#utility.yul\":23222:23315   */\n      tag_337\n      jump\t// in\n    tag_582:\n        /* \"#utility.yul\":23340:23342   */\n      0x20\n        /* \"#utility.yul\":23335:23338   */\n      dup3\n        /* \"#utility.yul\":23331:23343   */\n      add\n        /* \"#utility.yul\":23324:23343   */\n      swap1\n      pop\n        /* \"#utility.yul\":22983:23349   */\n      swap2\n      swap1\n      pop\n      jump\t// out\n        /* \"#utility.yul\":23355:23774   */\n    tag_213:\n        /* \"#utility.yul\":23521:23525   */\n      0x00\n        /* \"#utility.yul\":23559:23561   */\n      0x20\n        /* \"#utility.yul\":23548:23557   */\n      dup3\n        /* \"#utility.yul\":23544:23562   */\n      add\n        /* \"#utility.yul\":23536:23562   */\n      swap1\n      pop\n        /* \"#utility.yul\":23608:23617   */\n      dup2\n        /* \"#utility.yul\":23602:23606   */\n      dup2\n        /* \"#utility.yul\":23598:23618   */\n      sub\n        /* \"#utility.yul\":23594:23595   */\n      0x00\n        /* \"#utility.yul\":23583:23592   */\n      dup4\n        /* \"#utility.yul\":23579:23596   */\n      add\n        /* \"#utility.yul\":23572:23619   */\n      mstore\n        /* \"#utility.yul\":23636:23767   */\n      tag_584\n        /* \"#utility.yul\":23762:23766   */\n      dup2\n        /* \"#utility.yul\":23636:23767   */\n      tag_338\n      jump\t// in\n    tag_584:\n        /* \"#utility.yul\":23628:23767   */\n      swap1\n      pop\n        /* \"#utility.yul\":23355:23774   */\n      swap2\n      swap1\n      pop\n      jump\t// out\n        /* \"#utility.yul\":23780:24222   */\n    tag_216:\n        /* \"#utility.yul\":23929:23933   */\n      0x00\n        /* \"#utility.yul\":23967:23969   */\n      0x60\n        /* \"#utility.yul\":23956:23965   */\n      dup3\n        /* \"#utility.yul\":23952:23970   */\n      add\n        /* \"#utility.yul\":23944:23970   */\n      swap1\n      pop\n        /* \"#utility.yul\":23980:24051   */\n      tag_586\n        /* \"#utility.yul\":24048:24049   */\n      0x00\n        /* \"#utility.yul\":24037:24046   */\n      dup4\n        /* \"#utility.yul\":24033:24050   */\n      add\n        /* \"#utility.yul\":24024:24030   */\n      dup7\n        /* \"#utility.yul\":23980:24051   */\n      tag_294\n      jump\t// in\n    tag_586:\n        /* \"#utility.yul\":24061:24133   */\n      tag_587\n        /* \"#utility.yul\":24129:24131   */\n      0x20\n        /* \"#utility.yul\":24118:24127   */\n      dup4\n        /* \"#utility.yul\":24114:24132   */\n      add\n        /* \"#utility.yul\":24105:24111   */\n      dup6\n        /* \"#utility.yul\":24061:24133   */\n      tag_291\n      jump\t// in\n    tag_587:\n        /* \"#utility.yul\":24143:24215   */\n      tag_588\n        /* \"#utility.yul\":24211:24213   */\n      0x40\n        /* \"#utility.yul\":24200:24209   */\n      dup4\n        /* \"#utility.yul\":24196:24214   */\n      add\n        /* \"#utility.yul\":24187:24193   */\n      dup5\n        /* \"#utility.yul\":24143:24215   */\n      tag_291\n      jump\t// in\n    tag_588:\n        /* \"#utility.yul\":23780:24222   */\n      swap5\n      swap4\n      pop\n      pop\n      pop\n      pop\n      jump\t// out\n        /* \"#utility.yul\":24228:24466   */\n    tag_339:\n        /* \"#utility.yul\":24368:24402   */\n      0x66756e64696e6720676f616c20686173206e6f742072656163686564202c2061\n        /* \"#utility.yul\":24364:24365   */\n      0x00\n        /* \"#utility.yul\":24356:24362   */\n      dup3\n        /* \"#utility.yul\":24352:24366   */\n      add\n        /* \"#utility.yul\":24345:24403   */\n      mstore\n        /* \"#utility.yul\":24437:24458   */\n      0x646d696e2063616e277420776974686472617700000000000000000000000000\n        /* \"#utility.yul\":24432:24434   */\n      0x20\n        /* \"#utility.yul\":24424:24430   */\n      dup3\n        /* \"#utility.yul\":24420:24435   */\n      add\n        /* \"#utility.yul\":24413:24459   */\n      mstore\n        /* \"#utility.yul\":24228:24466   */\n      pop\n      jump\t// out\n        /* \"#utility.yul\":24472:24838   */\n    tag_340:\n        /* \"#utility.yul\":24614:24617   */\n      0x00\n        /* \"#utility.yul\":24635:24702   */\n      tag_591\n        /* \"#utility.yul\":24699:24701   */\n      0x33\n        /* \"#utility.yul\":24694:24697   */\n      dup4\n        /* \"#utility.yul\":24635:24702   */\n      tag_296\n      jump\t// in\n    tag_591:\n        /* \"#utility.yul\":24628:24702   */\n      swap2\n      pop\n        /* \"#utility.yul\":24711:24804   */\n      tag_592\n        /* \"#utility.yul\":24800:24803   */\n      dup3\n        /* \"#utility.yul\":24711:24804   */\n      tag_339\n      jump\t// in\n    tag_592:\n        /* \"#utility.yul\":24829:24831   */\n      0x40\n        /* \"#utility.yul\":24824:24827   */\n      dup3\n        /* \"#utility.yul\":24820:24832   */\n      add\n        /* \"#utility.yul\":24813:24832   */\n      swap1\n      pop\n        /* \"#utility.yul\":24472:24838   */\n      swap2\n      swap1\n      pop\n      jump\t// out\n        /* \"#utility.yul\":24844:25263   */\n    tag_227:\n        /* \"#utility.yul\":25010:25014   */\n      0x00\n        /* \"#utility.yul\":25048:25050   */\n      0x20\n        /* \"#utility.yul\":25037:25046   */\n      dup3\n        /* \"#utility.yul\":25033:25051   */\n      add\n        /* \"#utility.yul\":25025:25051   */\n      swap1\n      pop\n        /* \"#utility.yul\":25097:25106   */\n      dup2\n        /* \"#utility.yul\":25091:25095   */\n      dup2\n        /* \"#utility.yul\":25087:25107   */\n      sub\n        /* \"#utility.yul\":25083:25084   */\n      0x00\n        /* \"#utility.yul\":25072:25081   */\n      dup4\n        /* \"#utility.yul\":25068:25085   */\n      add\n        /* \"#utility.yul\":25061:25108   */\n      mstore\n        /* \"#utility.yul\":25125:25256   */\n      tag_594\n        /* \"#utility.yul\":25251:25255   */\n      dup2\n        /* \"#utility.yul\":25125:25256   */\n      tag_340\n      jump\t// in\n    tag_594:\n        /* \"#utility.yul\":25117:25256   */\n      swap1\n      pop\n        /* \"#utility.yul\":24844:25263   */\n      swap2\n      swap1\n      pop\n      jump\t// out\n        /* \"#utility.yul\":25269:25442   */\n    tag_341:\n        /* \"#utility.yul\":25409:25434   */\n      0x6f6e6c792061646d696e2063616e207769746864726177000000000000000000\n        /* \"#utility.yul\":25405:25406   */\n      0x00\n        /* \"#utility.yul\":25397:25403   */\n      dup3\n        /* \"#utility.yul\":25393:25407   */\n      add\n        /* \"#utility.yul\":25386:25435   */\n      mstore\n        /* \"#utility.yul\":25269:25442   */\n      pop\n      jump\t// out\n        /* \"#utility.yul\":25448:25814   */\n    tag_342:\n        /* \"#utility.yul\":25590:25593   */\n      0x00\n        /* \"#utility.yul\":25611:25678   */\n      tag_597\n        /* \"#utility.yul\":25675:25677   */\n      0x17\n        /* \"#utility.yul\":25670:25673   */\n      dup4\n        /* \"#utility.yul\":25611:25678   */\n      tag_296\n      jump\t// in\n    tag_597:\n        /* \"#utility.yul\":25604:25678   */\n      swap2\n      pop\n        /* \"#utility.yul\":25687:25780   */\n      tag_598\n        /* \"#utility.yul\":25776:25779   */\n      dup3\n        /* \"#utility.yul\":25687:25780   */\n      tag_341\n      jump\t// in\n    tag_598:\n        /* \"#utility.yul\":25805:25807   */\n      0x20\n        /* \"#utility.yul\":25800:25803   */\n      dup3\n        /* \"#utility.yul\":25796:25808   */\n      add\n        /* \"#utility.yul\":25789:25808   */\n      swap1\n      pop\n        /* \"#utility.yul\":25448:25814   */\n      swap2\n      swap1\n      pop\n      jump\t// out\n        /* \"#utility.yul\":25820:26239   */\n    tag_230:\n        /* \"#utility.yul\":25986:25990   */\n      0x00\n        /* \"#utility.yul\":26024:26026   */\n      0x20\n        /* \"#utility.yul\":26013:26022   */\n      dup3\n        /* \"#utility.yul\":26009:26027   */\n      add\n        /* \"#utility.yul\":26001:26027   */\n      swap1\n      pop\n        /* \"#utility.yul\":26073:26082   */\n      dup2\n        /* \"#utility.yul\":26067:26071   */\n      dup2\n        /* \"#utility.yul\":26063:26083   */\n      sub\n        /* \"#utility.yul\":26059:26060   */\n      0x00\n        /* \"#utility.yul\":26048:26057   */\n      dup4\n        /* \"#utility.yul\":26044:26061   */\n      add\n        /* \"#utility.yul\":26037:26084   */\n      mstore\n        /* \"#utility.yul\":26101:26232   */\n      tag_600\n        /* \"#utility.yul\":26227:26231   */\n      dup2\n        /* \"#utility.yul\":26101:26232   */\n      tag_342\n      jump\t// in\n    tag_600:\n        /* \"#utility.yul\":26093:26232   */\n      swap1\n      pop\n        /* \"#utility.yul\":25820:26239   */\n      swap2\n      swap1\n      pop\n      jump\t// out\n        /* \"#utility.yul\":26245:26479   */\n    tag_343:\n        /* \"#utility.yul\":26385:26419   */\n      0x646561646c696e6520686173206e6f742072656163686564202c2061646d696e\n        /* \"#utility.yul\":26381:26382   */\n      0x00\n        /* \"#utility.yul\":26373:26379   */\n      dup3\n        /* \"#utility.yul\":26369:26383   */\n      add\n        /* \"#utility.yul\":26362:26420   */\n      mstore\n        /* \"#utility.yul\":26454:26471   */\n      0x2063616e27742077697468647261770000000000000000000000000000000000\n        /* \"#utility.yul\":26449:26451   */\n      0x20\n        /* \"#utility.yul\":26441:26447   */\n      dup3\n        /* \"#utility.yul\":26437:26452   */\n      add\n        /* \"#utility.yul\":26430:26472   */\n      mstore\n        /* \"#utility.yul\":26245:26479   */\n      pop\n      jump\t// out\n        /* \"#utility.yul\":26485:26851   */\n    tag_344:\n        /* \"#utility.yul\":26627:26630   */\n      0x00\n        /* \"#utility.yul\":26648:26715   */\n      tag_603\n        /* \"#utility.yul\":26712:26714   */\n      0x2f\n        /* \"#utility.yul\":26707:26710   */\n      dup4\n        /* \"#utility.yul\":26648:26715   */\n      tag_296\n      jump\t// in\n    tag_603:\n        /* \"#utility.yul\":26641:26715   */\n      swap2\n      pop\n        /* \"#utility.yul\":26724:26817   */\n      tag_604\n        /* \"#utility.yul\":26813:26816   */\n      dup3\n        /* \"#utility.yul\":26724:26817   */\n      tag_343\n      jump\t// in\n    tag_604:\n        /* \"#utility.yul\":26842:26844   */\n      0x40\n        /* \"#utility.yul\":26837:26840   */\n      dup3\n        /* \"#utility.yul\":26833:26845   */\n      add\n        /* \"#utility.yul\":26826:26845   */\n      swap1\n      pop\n        /* \"#utility.yul\":26485:26851   */\n      swap2\n      swap1\n      pop\n      jump\t// out\n        /* \"#utility.yul\":26857:27276   */\n    tag_233:\n        /* \"#utility.yul\":27023:27027   */\n      0x00\n        /* \"#utility.yul\":27061:27063   */\n      0x20\n        /* \"#utility.yul\":27050:27059   */\n      dup3\n        /* \"#utility.yul\":27046:27064   */\n      add\n        /* \"#utility.yul\":27038:27064   */\n      swap1\n      pop\n        /* \"#utility.yul\":27110:27119   */\n      dup2\n        /* \"#utility.yul\":27104:27108   */\n      dup2\n        /* \"#utility.yul\":27100:27120   */\n      sub\n        /* \"#utility.yul\":27096:27097   */\n      0x00\n        /* \"#utility.yul\":27085:27094   */\n      dup4\n        /* \"#utility.yul\":27081:27098   */\n      add\n        /* \"#utility.yul\":27074:27121   */\n      mstore\n        /* \"#utility.yul\":27138:27269   */\n      tag_606\n        /* \"#utility.yul\":27264:27268   */\n      dup2\n        /* \"#utility.yul\":27138:27269   */\n      tag_344\n      jump\t// in\n    tag_606:\n        /* \"#utility.yul\":27130:27269   */\n      swap1\n      pop\n        /* \"#utility.yul\":26857:27276   */\n      swap2\n      swap1\n      pop\n      jump\t// out\n        /* \"#utility.yul\":27282:27453   */\n    tag_345:\n        /* \"#utility.yul\":27422:27445   */\n      0x4f6e6c792041646d696e2063616e206163636573730000000000000000000000\n        /* \"#utility.yul\":27418:27419   */\n      0x00\n        /* \"#utility.yul\":27410:27416   */\n      dup3\n        /* \"#utility.yul\":27406:27420   */\n      add\n        /* \"#utility.yul\":27399:27446   */\n      mstore\n        /* \"#utility.yul\":27282:27453   */\n      pop\n      jump\t// out\n        /* \"#utility.yul\":27459:27825   */\n    tag_346:\n        /* \"#utility.yul\":27601:27604   */\n      0x00\n        /* \"#utility.yul\":27622:27689   */\n      tag_609\n        /* \"#utility.yul\":27686:27688   */\n      0x15\n        /* \"#utility.yul\":27681:27684   */\n      dup4\n        /* \"#utility.yul\":27622:27689   */\n      tag_296\n      jump\t// in\n    tag_609:\n        /* \"#utility.yul\":27615:27689   */\n      swap2\n      pop\n        /* \"#utility.yul\":27698:27791   */\n      tag_610\n        /* \"#utility.yul\":27787:27790   */\n      dup3\n        /* \"#utility.yul\":27698:27791   */\n      tag_345\n      jump\t// in\n    tag_610:\n        /* \"#utility.yul\":27816:27818   */\n      0x20\n        /* \"#utility.yul\":27811:27814   */\n      dup3\n        /* \"#utility.yul\":27807:27819   */\n      add\n        /* \"#utility.yul\":27800:27819   */\n      swap1\n      pop\n        /* \"#utility.yul\":27459:27825   */\n      swap2\n      swap1\n      pop\n      jump\t// out\n        /* \"#utility.yul\":27831:28250   */\n    tag_240:\n        /* \"#utility.yul\":27997:28001   */\n      0x00\n        /* \"#utility.yul\":28035:28037   */\n      0x20\n        /* \"#utility.yul\":28024:28033   */\n      dup3\n        /* \"#utility.yul\":28020:28038   */\n      add\n        /* \"#utility.yul\":28012:28038   */\n      swap1\n      pop\n        /* \"#utility.yul\":28084:28093   */\n      dup2\n        /* \"#utility.yul\":28078:28082   */\n      dup2\n        /* \"#utility.yul\":28074:28094   */\n      sub\n        /* \"#utility.yul\":28070:28071   */\n      0x00\n        /* \"#utility.yul\":28059:28068   */\n      dup4\n        /* \"#utility.yul\":28055:28072   */\n      add\n        /* \"#utility.yul\":28048:28095   */\n      mstore\n        /* \"#utility.yul\":28112:28243   */\n      tag_612\n        /* \"#utility.yul\":28238:28242   */\n      dup2\n        /* \"#utility.yul\":28112:28243   */\n      tag_346\n      jump\t// in\n    tag_612:\n        /* \"#utility.yul\":28104:28243   */\n      swap1\n      pop\n        /* \"#utility.yul\":27831:28250   */\n      swap2\n      swap1\n      pop\n      jump\t// out\n        /* \"#utility.yul\":28256:28436   */\n    tag_347:\n        /* \"#utility.yul\":28396:28428   */\n      0x43616e6e6f7420776974686472617720616674657220646561646c696e650000\n        /* \"#utility.yul\":28392:28393   */\n      0x00\n        /* \"#utility.yul\":28384:28390   */\n      dup3\n        /* \"#utility.yul\":28380:28394   */\n      add\n        /* \"#utility.yul\":28373:28429   */\n      mstore\n        /* \"#utility.yul\":28256:28436   */\n      pop\n      jump\t// out\n        /* \"#utility.yul\":28442:28808   */\n    tag_348:\n        /* \"#utility.yul\":28584:28587   */\n      0x00\n        /* \"#utility.yul\":28605:28672   */\n      tag_615\n        /* \"#utility.yul\":28669:28671   */\n      0x1e\n        /* \"#utility.yul\":28664:28667   */\n      dup4\n        /* \"#utility.yul\":28605:28672   */\n      tag_296\n      jump\t// in\n    tag_615:\n        /* \"#utility.yul\":28598:28672   */\n      swap2\n      pop\n        /* \"#utility.yul\":28681:28774   */\n      tag_616\n        /* \"#utility.yul\":28770:28773   */\n      dup3\n        /* \"#utility.yul\":28681:28774   */\n      tag_347\n      jump\t// in\n    tag_616:\n        /* \"#utility.yul\":28799:28801   */\n      0x20\n        /* \"#utility.yul\":28794:28797   */\n      dup3\n        /* \"#utility.yul\":28790:28802   */\n      add\n        /* \"#utility.yul\":28783:28802   */\n      swap1\n      pop\n        /* \"#utility.yul\":28442:28808   */\n      swap2\n      swap1\n      pop\n      jump\t// out\n        /* \"#utility.yul\":28814:29233   */\n    tag_245:\n        /* \"#utility.yul\":28980:28984   */\n      0x00\n        /* \"#utility.yul\":29018:29020   */\n      0x20\n        /* \"#utility.yul\":29007:29016   */\n      dup3\n        /* \"#utility.yul\":29003:29021   */\n      add\n        /* \"#utility.yul\":28995:29021   */\n      swap1\n      pop\n        /* \"#utility.yul\":29067:29076   */\n      dup2\n        /* \"#utility.yul\":29061:29065   */\n      dup2\n        /* \"#utility.yul\":29057:29077   */\n      sub\n        /* \"#utility.yul\":29053:29054   */\n      0x00\n        /* \"#utility.yul\":29042:29051   */\n      dup4\n        /* \"#utility.yul\":29038:29055   */\n      add\n        /* \"#utility.yul\":29031:29078   */\n      mstore\n        /* \"#utility.yul\":29095:29226   */\n      tag_618\n        /* \"#utility.yul\":29221:29225   */\n      dup2\n        /* \"#utility.yul\":29095:29226   */\n      tag_348\n      jump\t// in\n    tag_618:\n        /* \"#utility.yul\":29087:29226   */\n      swap1\n      pop\n        /* \"#utility.yul\":28814:29233   */\n      swap2\n      swap1\n      pop\n      jump\t// out\n        /* \"#utility.yul\":29239:29411   */\n    tag_349:\n        /* \"#utility.yul\":29379:29403   */\n      0x4e6f2046756e647320746f207769746864726177212100000000000000000000\n        /* \"#utility.yul\":29375:29376   */\n      0x00\n        /* \"#utility.yul\":29367:29373   */\n      dup3\n        /* \"#utility.yul\":29363:29377   */\n      add\n        /* \"#utility.yul\":29356:29404   */\n      mstore\n        /* \"#utility.yul\":29239:29411   */\n      pop\n      jump\t// out\n        /* \"#utility.yul\":29417:29783   */\n    tag_350:\n        /* \"#utility.yul\":29559:29562   */\n      0x00\n        /* \"#utility.yul\":29580:29647   */\n      tag_621\n        /* \"#utility.yul\":29644:29646   */\n      0x16\n        /* \"#utility.yul\":29639:29642   */\n      dup4\n        /* \"#utility.yul\":29580:29647   */\n      tag_296\n      jump\t// in\n    tag_621:\n        /* \"#utility.yul\":29573:29647   */\n      swap2\n      pop\n        /* \"#utility.yul\":29656:29749   */\n      tag_622\n        /* \"#utility.yul\":29745:29748   */\n      dup3\n        /* \"#utility.yul\":29656:29749   */\n      tag_349\n      jump\t// in\n    tag_622:\n        /* \"#utility.yul\":29774:29776   */\n      0x20\n        /* \"#utility.yul\":29769:29772   */\n      dup3\n        /* \"#utility.yul\":29765:29777   */\n      add\n        /* \"#utility.yul\":29758:29777   */\n      swap1\n      pop\n        /* \"#utility.yul\":29417:29783   */\n      swap2\n      swap1\n      pop\n      jump\t// out\n        /* \"#utility.yul\":29789:30208   */\n    tag_248:\n        /* \"#utility.yul\":29955:29959   */\n      0x00\n        /* \"#utility.yul\":29993:29995   */\n      0x20\n        /* \"#utility.yul\":29982:29991   */\n      dup3\n        /* \"#utility.yul\":29978:29996   */\n      add\n        /* \"#utility.yul\":29970:29996   */\n      swap1\n      pop\n        /* \"#utility.yul\":30042:30051   */\n      dup2\n        /* \"#utility.yul\":30036:30040   */\n      dup2\n        /* \"#utility.yul\":30032:30052   */\n      sub\n        /* \"#utility.yul\":30028:30029   */\n      0x00\n        /* \"#utility.yul\":30017:30026   */\n      dup4\n        /* \"#utility.yul\":30013:30030   */\n      add\n        /* \"#utility.yul\":30006:30053   */\n      mstore\n        /* \"#utility.yul\":30070:30201   */\n      tag_624\n        /* \"#utility.yul\":30196:30200   */\n      dup2\n        /* \"#utility.yul\":30070:30201   */\n      tag_350\n      jump\t// in\n    tag_624:\n        /* \"#utility.yul\":30062:30201   */\n      swap1\n      pop\n        /* \"#utility.yul\":29789:30208   */\n      swap2\n      swap1\n      pop\n      jump\t// out\n        /* \"#utility.yul\":30214:30442   */\n    tag_351:\n        /* \"#utility.yul\":30354:30388   */\n      0x576974686472617720616d6f756e74206578636565647320796f757220636f6e\n        /* \"#utility.yul\":30350:30351   */\n      0x00\n        /* \"#utility.yul\":30342:30348   */\n      dup3\n        /* \"#utility.yul\":30338:30352   */\n      add\n        /* \"#utility.yul\":30331:30389   */\n      mstore\n        /* \"#utility.yul\":30423:30434   */\n      0x747269627574696f6e0000000000000000000000000000000000000000000000\n        /* \"#utility.yul\":30418:30420   */\n      0x20\n        /* \"#utility.yul\":30410:30416   */\n      dup3\n        /* \"#utility.yul\":30406:30421   */\n      add\n        /* \"#utility.yul\":30399:30435   */\n      mstore\n        /* \"#utility.yul\":30214:30442   */\n      pop\n      jump\t// out\n        /* \"#utility.yul\":30448:30814   */\n    tag_352:\n        /* \"#utility.yul\":30590:30593   */\n      0x00\n        /* \"#utility.yul\":30611:30678   */\n      tag_627\n        /* \"#utility.yul\":30675:30677   */\n      0x29\n        /* \"#utility.yul\":30670:30673   */\n      dup4\n        /* \"#utility.yul\":30611:30678   */\n      tag_296\n      jump\t// in\n    tag_627:\n        /* \"#utility.yul\":30604:30678   */\n      swap2\n      pop\n        /* \"#utility.yul\":30687:30780   */\n      tag_628\n        /* \"#utility.yul\":30776:30779   */\n      dup3\n        /* \"#utility.yul\":30687:30780   */\n      tag_351\n      jump\t// in\n    tag_628:\n        /* \"#utility.yul\":30805:30807   */\n      0x40\n        /* \"#utility.yul\":30800:30803   */\n      dup3\n        /* \"#utility.yul\":30796:30808   */\n      add\n        /* \"#utility.yul\":30789:30808   */\n      swap1\n      pop\n        /* \"#utility.yul\":30448:30814   */\n      swap2\n      swap1\n      pop\n      jump\t// out\n        /* \"#utility.yul\":30820:31239   */\n    tag_251:\n        /* \"#utility.yul\":30986:30990   */\n      0x00\n        /* \"#utility.yul\":31024:31026   */\n      0x20\n        /* \"#utility.yul\":31013:31022   */\n      dup3\n        /* \"#utility.yul\":31009:31027   */\n      add\n        /* \"#utility.yul\":31001:31027   */\n      swap1\n      pop\n        /* \"#utility.yul\":31073:31082   */\n      dup2\n        /* \"#utility.yul\":31067:31071   */\n      dup2\n        /* \"#utility.yul\":31063:31083   */\n      sub\n        /* \"#utility.yul\":31059:31060   */\n      0x00\n        /* \"#utility.yul\":31048:31057   */\n      dup4\n        /* \"#utility.yul\":31044:31061   */\n      add\n        /* \"#utility.yul\":31037:31084   */\n      mstore\n        /* \"#utility.yul\":31101:31232   */\n      tag_630\n        /* \"#utility.yul\":31227:31231   */\n      dup2\n        /* \"#utility.yul\":31101:31232   */\n      tag_352\n      jump\t// in\n    tag_630:\n        /* \"#utility.yul\":31093:31232   */\n      swap1\n      pop\n        /* \"#utility.yul\":30820:31239   */\n      swap2\n      swap1\n      pop\n      jump\t// out\n        /* \"#utility.yul\":31245:31414   */\n    tag_353:\n        /* \"#utility.yul\":31385:31406   */\n      0x7769746864726177206661696c65642121212100000000000000000000000000\n        /* \"#utility.yul\":31381:31382   */\n      0x00\n        /* \"#utility.yul\":31373:31379   */\n      dup3\n        /* \"#utility.yul\":31369:31383   */\n      add\n        /* \"#utility.yul\":31362:31407   */\n      mstore\n        /* \"#utility.yul\":31245:31414   */\n      pop\n      jump\t// out\n        /* \"#utility.yul\":31420:31786   */\n    tag_354:\n        /* \"#utility.yul\":31562:31565   */\n      0x00\n        /* \"#utility.yul\":31583:31650   */\n      tag_633\n        /* \"#utility.yul\":31647:31649   */\n      0x13\n        /* \"#utility.yul\":31642:31645   */\n      dup4\n        /* \"#utility.yul\":31583:31650   */\n      tag_296\n      jump\t// in\n    tag_633:\n        /* \"#utility.yul\":31576:31650   */\n      swap2\n      pop\n        /* \"#utility.yul\":31659:31752   */\n      tag_634\n        /* \"#utility.yul\":31748:31751   */\n      dup3\n        /* \"#utility.yul\":31659:31752   */\n      tag_353\n      jump\t// in\n    tag_634:\n        /* \"#utility.yul\":31777:31779   */\n      0x20\n        /* \"#utility.yul\":31772:31775   */\n      dup3\n        /* \"#utility.yul\":31768:31780   */\n      add\n        /* \"#utility.yul\":31761:31780   */\n      swap1\n      pop\n        /* \"#utility.yul\":31420:31786   */\n      swap2\n      swap1\n      pop\n      jump\t// out\n        /* \"#utility.yul\":31792:32211   */\n    tag_261:\n        /* \"#utility.yul\":31958:31962   */\n      0x00\n        /* \"#utility.yul\":31996:31998   */\n      0x20\n        /* \"#utility.yul\":31985:31994   */\n      dup3\n        /* \"#utility.yul\":31981:31999   */\n      add\n        /* \"#utility.yul\":31973:31999   */\n      swap1\n      pop\n        /* \"#utility.yul\":32045:32054   */\n      dup2\n        /* \"#utility.yul\":32039:32043   */\n      dup2\n        /* \"#utility.yul\":32035:32055   */\n      sub\n        /* \"#utility.yul\":32031:32032   */\n      0x00\n        /* \"#utility.yul\":32020:32029   */\n      dup4\n        /* \"#utility.yul\":32016:32033   */\n      add\n        /* \"#utility.yul\":32009:32056   */\n      mstore\n        /* \"#utility.yul\":32073:32204   */\n      tag_636\n        /* \"#utility.yul\":32199:32203   */\n      dup2\n        /* \"#utility.yul\":32073:32204   */\n      tag_354\n      jump\t// in\n    tag_636:\n        /* \"#utility.yul\":32065:32204   */\n      swap1\n      pop\n        /* \"#utility.yul\":31792:32211   */\n      swap2\n      swap1\n      pop\n      jump\t// out\n        /* \"#utility.yul\":32217:32396   */\n    tag_355:\n        /* \"#utility.yul\":32357:32388   */\n      0x50726f6a65637420494420697320616c726561647920696e2075736521000000\n        /* \"#utility.yul\":32353:32354   */\n      0x00\n        /* \"#utility.yul\":32345:32351   */\n      dup3\n        /* \"#utility.yul\":32341:32355   */\n      add\n        /* \"#utility.yul\":32334:32389   */\n      mstore\n        /* \"#utility.yul\":32217:32396   */\n      pop\n      jump\t// out\n        /* \"#utility.yul\":32402:32768   */\n    tag_356:\n        /* \"#utility.yul\":32544:32547   */\n      0x00\n        /* \"#utility.yul\":32565:32632   */\n      tag_639\n        /* \"#utility.yul\":32629:32631   */\n      0x1d\n        /* \"#utility.yul\":32624:32627   */\n      dup4\n        /* \"#utility.yul\":32565:32632   */\n      tag_296\n      jump\t// in\n    tag_639:\n        /* \"#utility.yul\":32558:32632   */\n      swap2\n      pop\n        /* \"#utility.yul\":32641:32734   */\n      tag_640\n        /* \"#utility.yul\":32730:32733   */\n      dup3\n        /* \"#utility.yul\":32641:32734   */\n      tag_355\n      jump\t// in\n    tag_640:\n        /* \"#utility.yul\":32759:32761   */\n      0x20\n        /* \"#utility.yul\":32754:32757   */\n      dup3\n        /* \"#utility.yul\":32750:32762   */\n      add\n        /* \"#utility.yul\":32743:32762   */\n      swap1\n      pop\n        /* \"#utility.yul\":32402:32768   */\n      swap2\n      swap1\n      pop\n      jump\t// out\n        /* \"#utility.yul\":32774:33193   */\n    tag_266:\n        /* \"#utility.yul\":32940:32944   */\n      0x00\n        /* \"#utility.yul\":32978:32980   */\n      0x20\n        /* \"#utility.yul\":32967:32976   */\n      dup3\n        /* \"#utility.yul\":32963:32981   */\n      add\n        /* \"#utility.yul\":32955:32981   */\n      swap1\n      pop\n        /* \"#utility.yul\":33027:33036   */\n      dup2\n        /* \"#utility.yul\":33021:33025   */\n      dup2\n        /* \"#utility.yul\":33017:33037   */\n      sub\n        /* \"#utility.yul\":33013:33014   */\n      0x00\n        /* \"#utility.yul\":33002:33011   */\n      dup4\n        /* \"#utility.yul\":32998:33015   */\n      add\n        /* \"#utility.yul\":32991:33038   */\n      mstore\n        /* \"#utility.yul\":33055:33186   */\n      tag_642\n        /* \"#utility.yul\":33181:33185   */\n      dup2\n        /* \"#utility.yul\":33055:33186   */\n      tag_356\n      jump\t// in\n    tag_642:\n        /* \"#utility.yul\":33047:33186   */\n      swap1\n      pop\n        /* \"#utility.yul\":32774:33193   */\n      swap2\n      swap1\n      pop\n      jump\t// out\n        /* \"#utility.yul\":33199:33423   */\n    tag_357:\n        /* \"#utility.yul\":33339:33373   */\n      0x4f6e6c7920417574686f72697a65642063726561746f72732063616e20616363\n        /* \"#utility.yul\":33335:33336   */\n      0x00\n        /* \"#utility.yul\":33327:33333   */\n      dup3\n        /* \"#utility.yul\":33323:33337   */\n      add\n        /* \"#utility.yul\":33316:33374   */\n      mstore\n        /* \"#utility.yul\":33408:33415   */\n      0x6573732121000000000000000000000000000000000000000000000000000000\n        /* \"#utility.yul\":33403:33405   */\n      0x20\n        /* \"#utility.yul\":33395:33401   */\n      dup3\n        /* \"#utility.yul\":33391:33406   */\n      add\n        /* \"#utility.yul\":33384:33416   */\n      mstore\n        /* \"#utility.yul\":33199:33423   */\n      pop\n      jump\t// out\n        /* \"#utility.yul\":33429:33795   */\n    tag_358:\n        /* \"#utility.yul\":33571:33574   */\n      0x00\n        /* \"#utility.yul\":33592:33659   */\n      tag_645\n        /* \"#utility.yul\":33656:33658   */\n      0x25\n        /* \"#utility.yul\":33651:33654   */\n      dup4\n        /* \"#utility.yul\":33592:33659   */\n      tag_296\n      jump\t// in\n    tag_645:\n        /* \"#utility.yul\":33585:33659   */\n      swap2\n      pop\n        /* \"#utility.yul\":33668:33761   */\n      tag_646\n        /* \"#utility.yul\":33757:33760   */\n      dup3\n        /* \"#utility.yul\":33668:33761   */\n      tag_357\n      jump\t// in\n    tag_646:\n        /* \"#utility.yul\":33786:33788   */\n      0x40\n        /* \"#utility.yul\":33781:33784   */\n      dup3\n        /* \"#utility.yul\":33777:33789   */\n      add\n        /* \"#utility.yul\":33770:33789   */\n      swap1\n      pop\n        /* \"#utility.yul\":33429:33795   */\n      swap2\n      swap1\n      pop\n      jump\t// out\n        /* \"#utility.yul\":33801:34220   */\n    tag_269:\n        /* \"#utility.yul\":33967:33971   */\n      0x00\n        /* \"#utility.yul\":34005:34007   */\n      0x20\n        /* \"#utility.yul\":33994:34003   */\n      dup3\n        /* \"#utility.yul\":33990:34008   */\n      add\n        /* \"#utility.yul\":33982:34008   */\n      swap1\n      pop\n        /* \"#utility.yul\":34054:34063   */\n      dup2\n        /* \"#utility.yul\":34048:34052   */\n      dup2\n        /* \"#utility.yul\":34044:34064   */\n      sub\n        /* \"#utility.yul\":34040:34041   */\n      0x00\n        /* \"#utility.yul\":34029:34038   */\n      dup4\n        /* \"#utility.yul\":34025:34042   */\n      add\n        /* \"#utility.yul\":34018:34065   */\n      mstore\n        /* \"#utility.yul\":34082:34213   */\n      tag_648\n        /* \"#utility.yul\":34208:34212   */\n      dup2\n        /* \"#utility.yul\":34082:34213   */\n      tag_358\n      jump\t// in\n    tag_648:\n        /* \"#utility.yul\":34074:34213   */\n      swap1\n      pop\n        /* \"#utility.yul\":33801:34220   */\n      swap2\n      swap1\n      pop\n      jump\t// out\n        /* \"#utility.yul\":34226:34367   */\n    tag_359:\n        /* \"#utility.yul\":34275:34279   */\n      0x00\n        /* \"#utility.yul\":34298:34301   */\n      dup2\n        /* \"#utility.yul\":34290:34301   */\n      swap1\n      pop\n        /* \"#utility.yul\":34321:34324   */\n      dup2\n        /* \"#utility.yul\":34318:34319   */\n      0x00\n        /* \"#utility.yul\":34311:34325   */\n      mstore\n        /* \"#utility.yul\":34355:34359   */\n      0x20\n        /* \"#utility.yul\":34352:34353   */\n      0x00\n        /* \"#utility.yul\":34342:34360   */\n      keccak256\n        /* \"#utility.yul\":34334:34360   */\n      swap1\n      pop\n        /* \"#utility.yul\":34226:34367   */\n      swap2\n      swap1\n      pop\n      jump\t// out\n        /* \"#utility.yul\":34373:34466   */\n    tag_360:\n        /* \"#utility.yul\":34410:34416   */\n      0x00\n        /* \"#utility.yul\":34457:34459   */\n      0x20\n        /* \"#utility.yul\":34452:34454   */\n      0x1f\n        /* \"#utility.yul\":34445:34450   */\n      dup4\n        /* \"#utility.yul\":34441:34455   */\n      add\n        /* \"#utility.yul\":34437:34460   */\n      div\n        /* \"#utility.yul\":34427:34460   */\n      swap1\n      pop\n        /* \"#utility.yul\":34373:34466   */\n      swap2\n      swap1\n      pop\n      jump\t// out\n        /* \"#utility.yul\":34472:34579   */\n    tag_361:\n        /* \"#utility.yul\":34516:34524   */\n      0x00\n        /* \"#utility.yul\":34566:34571   */\n      dup3\n        /* \"#utility.yul\":34560:34564   */\n      dup3\n        /* \"#utility.yul\":34556:34572   */\n      shl\n        /* \"#utility.yul\":34535:34572   */\n      swap1\n      pop\n        /* \"#utility.yul\":34472:34579   */\n      swap3\n      swap2\n      pop\n      pop\n      jump\t// out\n        /* \"#utility.yul\":34585:34978   */\n    tag_362:\n        /* \"#utility.yul\":34654:34660   */\n      0x00\n        /* \"#utility.yul\":34704:34705   */\n      0x08\n        /* \"#utility.yul\":34692:34702   */\n      dup4\n        /* \"#utility.yul\":34688:34706   */\n      mul\n        /* \"#utility.yul\":34727:34824   */\n      tag_653\n        /* \"#utility.yul\":34757:34823   */\n      0xffffffffffffffffffffffffffffffffffffffffffffffffffffffffffffffff\n        /* \"#utility.yul\":34746:34755   */\n      dup3\n        /* \"#utility.yul\":34727:34824   */\n      tag_361\n      jump\t// in\n    tag_653:\n        /* \"#utility.yul\":34845:34884   */\n      tag_654\n        /* \"#utility.yul\":34875:34883   */\n      dup7\n        /* \"#utility.yul\":34864:34873   */\n      dup4\n        /* \"#utility.yul\":34845:34884   */\n      tag_361\n      jump\t// in\n    tag_654:\n        /* \"#utility.yul\":34833:34884   */\n      swap6\n      pop\n        /* \"#utility.yul\":34917:34921   */\n      dup1\n        /* \"#utility.yul\":34913:34922   */\n      not\n        /* \"#utility.yul\":34906:34911   */\n      dup5\n        /* \"#utility.yul\":34902:34923   */\n      and\n        /* \"#utility.yul\":34893:34923   */\n      swap4\n      pop\n        /* \"#utility.yul\":34966:34970   */\n      dup1\n        /* \"#utility.yul\":34956:34964   */\n      dup7\n        /* \"#utility.yul\":34952:34971   */\n      and\n        /* \"#utility.yul\":34945:34950   */\n      dup5\n        /* \"#utility.yul\":34942:34972   */\n      or\n        /* \"#utility.yul\":34932:34972   */\n      swap3\n      pop\n        /* \"#utility.yul\":34661:34978   */\n      pop\n      pop\n        /* \"#utility.yul\":34585:34978   */\n      swap4\n      swap3\n      pop\n      pop\n      pop\n      jump\t// out\n        /* \"#utility.yul\":34984:35044   */\n    tag_363:\n        /* \"#utility.yul\":35012:35015   */\n      0x00\n        /* \"#utility.yul\":35033:35038   */\n      dup2\n        /* \"#utility.yul\":35026:35038   */\n      swap1\n      pop\n        /* \"#utility.yul\":34984:35044   */\n      swap2\n      swap1\n      pop\n      jump\t// out\n        /* \"#utility.yul\":35050:35192   */\n    tag_364:\n        /* \"#utility.yul\":35100:35109   */\n      0x00\n        /* \"#utility.yul\":35133:35186   */\n      tag_657\n        /* \"#utility.yul\":35151:35185   */\n      tag_658\n        /* \"#utility.yul\":35160:35184   */\n      tag_659\n        /* \"#utility.yul\":35178:35183   */\n      dup5\n        /* \"#utility.yul\":35160:35184   */\n      tag_288\n      jump\t// in\n    tag_659:\n        /* \"#utility.yul\":35151:35185   */\n      tag_363\n      jump\t// in\n    tag_658:\n        /* \"#utility.yul\":35133:35186   */\n      tag_288\n      jump\t// in\n    tag_657:\n        /* \"#utility.yul\":35120:35186   */\n      swap1\n      pop\n        /* \"#utility.yul\":35050:35192   */\n      swap2\n      swap1\n      pop\n      jump\t// out\n        /* \"#utility.yul\":35198:35273   */\n    tag_365:\n        /* \"#utility.yul\":35241:35244   */\n      0x00\n        /* \"#utility.yul\":35262:35267   */\n      dup2\n        /* \"#utility.yul\":35255:35267   */\n      swap1\n      pop\n        /* \"#utility.yul\":35198:35273   */\n      swap2\n      swap1\n      pop\n      jump\t// out\n        /* \"#utility.yul\":35279:35548   */\n    tag_366:\n        /* \"#utility.yul\":35389:35428   */\n      tag_662\n        /* \"#utility.yul\":35420:35427   */\n      dup4\n        /* \"#utility.yul\":35389:35428   */\n      tag_364\n      jump\t// in\n    tag_662:\n        /* \"#utility.yul\":35450:35541   */\n      tag_663\n        /* \"#utility.yul\":35499:35540   */\n      tag_664\n        /* \"#utility.yul\":35523:35539   */\n      dup3\n        /* \"#utility.yul\":35499:35540   */\n      tag_365\n      jump\t// in\n    tag_664:\n        /* \"#utility.yul\":35491:35497   */\n      dup5\n        /* \"#utility.yul\":35484:35488   */\n      dup5\n        /* \"#utility.yul\":35478:35489   */\n      sload\n        /* \"#utility.yul\":35450:35541   */\n      tag_362\n      jump\t// in\n    tag_663:\n        /* \"#utility.yul\":35444:35448   */\n      dup3\n        /* \"#utility.yul\":35437:35542   */\n      sstore\n        /* \"#utility.yul\":35355:35548   */\n      pop\n        /* \"#utility.yul\":35279:35548   */\n      pop\n      pop\n      pop\n      jump\t// out\n        /* \"#utility.yul\":35554:35627   */\n    tag_367:\n        /* \"#utility.yul\":35599:35602   */\n      0x00\n        /* \"#utility.yul\":35620:35621   */\n      0x00\n        /* \"#utility.yul\":35613:35621   */\n      swap1\n      pop\n        /* \"#utility.yul\":35554:35627   */\n      swap1\n      jump\t// out\n        /* \"#utility.yul\":35633:35822   */\n    tag_368:\n        /* \"#utility.yul\":35710:35742   */\n      tag_667\n      tag_367\n      jump\t// in\n    tag_667:\n        /* \"#utility.yul\":35751:35816   */\n      tag_668\n        /* \"#utility.yul\":35809:35815   */\n      dup2\n        /* \"#utility.yul\":35801:35807   */\n      dup5\n        /* \"#utility.yul\":35795:35799   */\n      dup5\n        /* \"#utility.yul\":35751:35816   */\n      tag_366\n      jump\t// in\n    tag_668:\n        /* \"#utility.yul\":35686:35822   */\n      pop\n        /* \"#utility.yul\":35633:35822   */\n      pop\n      pop\n      jump\t// out\n        /* \"#utility.yul\":35828:36014   */\n    tag_369:\n        /* \"#utility.yul\":35888:36008   */\n    tag_670:\n        /* \"#utility.yul\":35905:35908   */\n      dup2\n        /* \"#utility.yul\":35898:35903   */\n      dup2\n        /* \"#utility.yul\":35895:35909   */\n      lt\n        /* \"#utility.yul\":35888:36008   */\n      iszero\n      tag_672\n      jumpi\n        /* \"#utility.yul\":35959:35998   */\n      tag_673\n        /* \"#utility.yul\":35996:35997   */\n      0x00\n        /* \"#utility.yul\":35989:35994   */\n      dup3\n        /* \"#utility.yul\":35959:35998   */\n      tag_368\n      jump\t// in\n    tag_673:\n        /* \"#utility.yul\":35932:35933   */\n      0x01\n        /* \"#utility.yul\":35925:35930   */\n      dup2\n        /* \"#utility.yul\":35921:35934   */\n      add\n        /* \"#utility.yul\":35912:35934   */\n      swap1\n      pop\n        /* \"#utility.yul\":35888:36008   */\n      jump(tag_670)\n    tag_672:\n        /* \"#utility.yul\":35828:36014   */\n      pop\n      pop\n      jump\t// out\n        /* \"#utility.yul\":36020:36563   */\n    tag_370:\n        /* \"#utility.yul\":36121:36123   */\n      0x1f\n        /* \"#utility.yul\":36116:36119   */\n      dup3\n        /* \"#utility.yul\":36113:36124   */\n      gt\n        /* \"#utility.yul\":36110:36556   */\n      iszero\n      tag_675\n      jumpi\n        /* \"#utility.yul\":36155:36193   */\n      tag_676\n        /* \"#utility.yul\":36187:36192   */\n      dup2\n        /* \"#utility.yul\":36155:36193   */\n      tag_359\n      jump\t// in\n    tag_676:\n        /* \"#utility.yul\":36239:36268   */\n      tag_677\n        /* \"#utility.yul\":36257:36267   */\n      dup5\n        /* \"#utility.yul\":36239:36268   */\n      tag_360\n      jump\t// in\n    tag_677:\n        /* \"#utility.yul\":36229:36237   */\n      dup2\n        /* \"#utility.yul\":36225:36269   */\n      add\n        /* \"#utility.yul\":36422:36424   */\n      0x20\n        /* \"#utility.yul\":36410:36420   */\n      dup6\n        /* \"#utility.yul\":36407:36425   */\n      lt\n        /* \"#utility.yul\":36404:36453   */\n      iszero\n      tag_678\n      jumpi\n        /* \"#utility.yul\":36443:36451   */\n      dup2\n        /* \"#utility.yul\":36428:36451   */\n      swap1\n      pop\n        /* \"#utility.yul\":36404:36453   */\n    tag_678:\n        /* \"#utility.yul\":36466:36546   */\n      tag_679\n        /* \"#utility.yul\":36522:36544   */\n      tag_680\n        /* \"#utility.yul\":36540:36543   */\n      dup6\n        /* \"#utility.yul\":36522:36544   */\n      tag_360\n      jump\t// in\n    tag_680:\n        /* \"#utility.yul\":36512:36520   */\n      dup4\n        /* \"#utility.yul\":36508:36545   */\n      add\n        /* \"#utility.yul\":36495:36506   */\n      dup3\n        /* \"#utility.yul\":36466:36546   */\n      tag_369\n      jump\t// in\n    tag_679:\n        /* \"#utility.yul\":36125:36556   */\n      pop\n      pop\n        /* \"#utility.yul\":36110:36556   */\n    tag_675:\n        /* \"#utility.yul\":36020:36563   */\n      pop\n      pop\n      pop\n      jump\t// out\n        /* \"#utility.yul\":36569:36686   */\n    tag_371:\n        /* \"#utility.yul\":36623:36631   */\n      0x00\n        /* \"#utility.yul\":36673:36678   */\n      dup3\n        /* \"#utility.yul\":36667:36671   */\n      dup3\n        /* \"#utility.yul\":36663:36679   */\n      shr\n        /* \"#utility.yul\":36642:36679   */\n      swap1\n      pop\n        /* \"#utility.yul\":36569:36686   */\n      swap3\n      swap2\n      pop\n      pop\n      jump\t// out\n        /* \"#utility.yul\":36692:36861   */\n    tag_372:\n        /* \"#utility.yul\":36736:36742   */\n      0x00\n        /* \"#utility.yul\":36769:36820   */\n      tag_683\n        /* \"#utility.yul\":36817:36818   */\n      0x00\n        /* \"#utility.yul\":36813:36819   */\n      not\n        /* \"#utility.yul\":36805:36810   */\n      dup5\n        /* \"#utility.yul\":36802:36803   */\n      0x08\n        /* \"#utility.yul\":36798:36811   */\n      mul\n        /* \"#utility.yul\":36769:36820   */\n      tag_371\n      jump\t// in\n    tag_683:\n        /* \"#utility.yul\":36765:36821   */\n      not\n        /* \"#utility.yul\":36850:36854   */\n      dup1\n        /* \"#utility.yul\":36844:36848   */\n      dup4\n        /* \"#utility.yul\":36840:36855   */\n      and\n        /* \"#utility.yul\":36830:36855   */\n      swap2\n      pop\n        /* \"#utility.yul\":36743:36861   */\n      pop\n        /* \"#utility.yul\":36692:36861   */\n      swap3\n      swap2\n      pop\n      pop\n      jump\t// out\n        /* \"#utility.yul\":36866:37161   */\n    tag_373:\n        /* \"#utility.yul\":36942:36946   */\n      0x00\n        /* \"#utility.yul\":37088:37117   */\n      tag_685\n        /* \"#utility.yul\":37113:37116   */\n      dup4\n        /* \"#utility.yul\":37107:37111   */\n      dup4\n        /* \"#utility.yul\":37088:37117   */\n      tag_372\n      jump\t// in\n    tag_685:\n        /* \"#utility.yul\":37080:37117   */\n      swap2\n      pop\n        /* \"#utility.yul\":37150:37153   */\n      dup3\n        /* \"#utility.yul\":37147:37148   */\n      0x02\n        /* \"#utility.yul\":37143:37154   */\n      mul\n        /* \"#utility.yul\":37137:37141   */\n      dup3\n        /* \"#utility.yul\":37134:37155   */\n      or\n        /* \"#utility.yul\":37126:37155   */\n      swap1\n      pop\n        /* \"#utility.yul\":36866:37161   */\n      swap3\n      swap2\n      pop\n      pop\n      jump\t// out\n        /* \"#utility.yul\":37166:38561   */\n    tag_272:\n        /* \"#utility.yul\":37283:37320   */\n      tag_687\n        /* \"#utility.yul\":37316:37319   */\n      dup3\n        /* \"#utility.yul\":37283:37320   */\n      tag_295\n      jump\t// in\n    tag_687:\n        /* \"#utility.yul\":37385:37403   */\n      0xffffffffffffffff\n        /* \"#utility.yul\":37377:37383   */\n      dup2\n        /* \"#utility.yul\":37374:37404   */\n      gt\n        /* \"#utility.yul\":37371:37427   */\n      iszero\n      tag_688\n      jumpi\n        /* \"#utility.yul\":37407:37425   */\n      tag_689\n      tag_306\n      jump\t// in\n    tag_689:\n        /* \"#utility.yul\":37371:37427   */\n    tag_688:\n        /* \"#utility.yul\":37451:37489   */\n      tag_690\n        /* \"#utility.yul\":37483:37487   */\n      dup3\n        /* \"#utility.yul\":37477:37488   */\n      sload\n        /* \"#utility.yul\":37451:37489   */\n      tag_137\n      jump\t// in\n    tag_690:\n        /* \"#utility.yul\":37536:37603   */\n      tag_691\n        /* \"#utility.yul\":37596:37602   */\n      dup3\n        /* \"#utility.yul\":37588:37594   */\n      dup3\n        /* \"#utility.yul\":37582:37586   */\n      dup6\n        /* \"#utility.yul\":37536:37603   */\n      tag_370\n      jump\t// in\n    tag_691:\n        /* \"#utility.yul\":37630:37631   */\n      0x00\n        /* \"#utility.yul\":37654:37658   */\n      0x20\n        /* \"#utility.yul\":37641:37658   */\n      swap1\n      pop\n        /* \"#utility.yul\":37686:37688   */\n      0x1f\n        /* \"#utility.yul\":37678:37684   */\n      dup4\n        /* \"#utility.yul\":37675:37689   */\n      gt\n        /* \"#utility.yul\":37703:37704   */\n      0x01\n        /* \"#utility.yul\":37698:38316   */\n      dup2\n      eq\n      tag_693\n      jumpi\n        /* \"#utility.yul\":38360:38361   */\n      0x00\n        /* \"#utility.yul\":38377:38383   */\n      dup5\n        /* \"#utility.yul\":38374:38451   */\n      iszero\n      tag_694\n      jumpi\n        /* \"#utility.yul\":38426:38435   */\n      dup3\n        /* \"#utility.yul\":38421:38424   */\n      dup8\n        /* \"#utility.yul\":38417:38436   */\n      add\n        /* \"#utility.yul\":38411:38437   */\n      mload\n        /* \"#utility.yul\":38402:38437   */\n      swap1\n      pop\n        /* \"#utility.yul\":38374:38451   */\n    tag_694:\n        /* \"#utility.yul\":38477:38544   */\n      tag_695\n        /* \"#utility.yul\":38537:38543   */\n      dup6\n        /* \"#utility.yul\":38530:38535   */\n      dup3\n        /* \"#utility.yul\":38477:38544   */\n      tag_373\n      jump\t// in\n    tag_695:\n        /* \"#utility.yul\":38471:38475   */\n      dup7\n        /* \"#utility.yul\":38464:38545   */\n      sstore\n        /* \"#utility.yul\":38333:38555   */\n      pop\n        /* \"#utility.yul\":37668:38555   */\n      jump(tag_692)\n        /* \"#utility.yul\":37698:38316   */\n    tag_693:\n        /* \"#utility.yul\":37750:37754   */\n      0x1f\n        /* \"#utility.yul\":37746:37755   */\n      not\n        /* \"#utility.yul\":37738:37744   */\n      dup5\n        /* \"#utility.yul\":37734:37756   */\n      and\n        /* \"#utility.yul\":37784:37821   */\n      tag_696\n        /* \"#utility.yul\":37816:37820   */\n      dup7\n        /* \"#utility.yul\":37784:37821   */\n      tag_359\n      jump\t// in\n    tag_696:\n        /* \"#utility.yul\":37843:37844   */\n      0x00\n        /* \"#utility.yul\":37857:38065   */\n    tag_697:\n        /* \"#utility.yul\":37871:37878   */\n      dup3\n        /* \"#utility.yul\":37868:37869   */\n      dup2\n        /* \"#utility.yul\":37865:37879   */\n      lt\n        /* \"#utility.yul\":37857:38065   */\n      iszero\n      tag_699\n      jumpi\n        /* \"#utility.yul\":37950:37959   */\n      dup5\n        /* \"#utility.yul\":37945:37948   */\n      dup10\n        /* \"#utility.yul\":37941:37960   */\n      add\n        /* \"#utility.yul\":37935:37961   */\n      mload\n        /* \"#utility.yul\":37927:37933   */\n      dup3\n        /* \"#utility.yul\":37920:37962   */\n      sstore\n        /* \"#utility.yul\":38001:38002   */\n      0x01\n        /* \"#utility.yul\":37993:37999   */\n      dup3\n        /* \"#utility.yul\":37989:38003   */\n      add\n        /* \"#utility.yul\":37979:38003   */\n      swap2\n      pop\n        /* \"#utility.yul\":38048:38050   */\n      0x20\n        /* \"#utility.yul\":38037:38046   */\n      dup6\n        /* \"#utility.yul\":38033:38051   */\n      add\n        /* \"#utility.yul\":38020:38051   */\n      swap5\n      pop\n        /* \"#utility.yul\":37894:37898   */\n      0x20\n        /* \"#utility.yul\":37891:37892   */\n      dup2\n        /* \"#utility.yul\":37887:37899   */\n      add\n        /* \"#utility.yul\":37882:37899   */\n      swap1\n      pop\n        /* \"#utility.yul\":37857:38065   */\n      jump(tag_697)\n    tag_699:\n        /* \"#utility.yul\":38093:38099   */\n      dup7\n        /* \"#utility.yul\":38084:38091   */\n      dup4\n        /* \"#utility.yul\":38081:38100   */\n      lt\n        /* \"#utility.yul\":38078:38257   */\n      iszero\n      tag_700\n      jumpi\n        /* \"#utility.yul\":38151:38160   */\n      dup5\n        /* \"#utility.yul\":38146:38149   */\n      dup10\n        /* \"#utility.yul\":38142:38161   */\n      add\n        /* \"#utility.yul\":38136:38162   */\n      mload\n        /* \"#utility.yul\":38194:38242   */\n      tag_701\n        /* \"#utility.yul\":38236:38240   */\n      0x1f\n        /* \"#utility.yul\":38228:38234   */\n      dup10\n        /* \"#utility.yul\":38224:38241   */\n      and\n        /* \"#utility.yul\":38213:38222   */\n      dup3\n        /* \"#utility.yul\":38194:38242   */\n      tag_372\n      jump\t// in\n    tag_701:\n        /* \"#utility.yul\":38186:38192   */\n      dup4\n        /* \"#utility.yul\":38179:38243   */\n      sstore\n        /* \"#utility.yul\":38101:38257   */\n      pop\n        /* \"#utility.yul\":38078:38257   */\n    tag_700:\n        /* \"#utility.yul\":38303:38304   */\n      0x01\n        /* \"#utility.yul\":38299:38300   */\n      0x02\n        /* \"#utility.yul\":38291:38297   */\n      dup9\n        /* \"#utility.yul\":38287:38301   */\n      mul\n        /* \"#utility.yul\":38283:38305   */\n      add\n        /* \"#utility.yul\":38277:38281   */\n      dup9\n        /* \"#utility.yul\":38270:38306   */\n      sstore\n        /* \"#utility.yul\":37705:38316   */\n      pop\n      pop\n      pop\n        /* \"#utility.yul\":37668:38555   */\n    tag_692:\n      pop\n        /* \"#utility.yul\":37258:38561   */\n      pop\n      pop\n      pop\n        /* \"#utility.yul\":37166:38561   */\n      pop\n      pop\n      jump\t// out\n        /* \"#utility.yul\":38567:39302   */\n    tag_277:\n        /* \"#utility.yul\":38784:38788   */\n      0x00\n        /* \"#utility.yul\":38822:38825   */\n      0x80\n        /* \"#utility.yul\":38811:38820   */\n      dup3\n        /* \"#utility.yul\":38807:38826   */\n      add\n        /* \"#utility.yul\":38799:38826   */\n      swap1\n      pop\n        /* \"#utility.yul\":38872:38881   */\n      dup2\n        /* \"#utility.yul\":38866:38870   */\n      dup2\n        /* \"#utility.yul\":38862:38882   */\n      sub\n        /* \"#utility.yul\":38858:38859   */\n      0x00\n        /* \"#utility.yul\":38847:38856   */\n      dup4\n        /* \"#utility.yul\":38843:38860   */\n      add\n        /* \"#utility.yul\":38836:38883   */\n      mstore\n        /* \"#utility.yul\":38900:38978   */\n      tag_703\n        /* \"#utility.yul\":38973:38977   */\n      dup2\n        /* \"#utility.yul\":38964:38970   */\n      dup8\n        /* \"#utility.yul\":38900:38978   */\n      tag_299\n      jump\t// in\n    tag_703:\n        /* \"#utility.yul\":38892:38978   */\n      swap1\n      pop\n        /* \"#utility.yul\":39025:39034   */\n      dup2\n        /* \"#utility.yul\":39019:39023   */\n      dup2\n        /* \"#utility.yul\":39015:39035   */\n      sub\n        /* \"#utility.yul\":39010:39012   */\n      0x20\n        /* \"#utility.yul\":38999:39008   */\n      dup4\n        /* \"#utility.yul\":38995:39013   */\n      add\n        /* \"#utility.yul\":38988:39036   */\n      mstore\n        /* \"#utility.yul\":39053:39131   */\n      tag_704\n        /* \"#utility.yul\":39126:39130   */\n      dup2\n        /* \"#utility.yul\":39117:39123   */\n      dup7\n        /* \"#utility.yul\":39053:39131   */\n      tag_299\n      jump\t// in\n    tag_704:\n        /* \"#utility.yul\":39045:39131   */\n      swap1\n      pop\n        /* \"#utility.yul\":39141:39213   */\n      tag_705\n        /* \"#utility.yul\":39209:39211   */\n      0x40\n        /* \"#utility.yul\":39198:39207   */\n      dup4\n        /* \"#utility.yul\":39194:39212   */\n      add\n        /* \"#utility.yul\":39185:39191   */\n      dup6\n        /* \"#utility.yul\":39141:39213   */\n      tag_291\n      jump\t// in\n    tag_705:\n        /* \"#utility.yul\":39223:39295   */\n      tag_706\n        /* \"#utility.yul\":39291:39293   */\n      0x60\n        /* \"#utility.yul\":39280:39289   */\n      dup4\n        /* \"#utility.yul\":39276:39294   */\n      add\n        /* \"#utility.yul\":39267:39273   */\n      dup5\n        /* \"#utility.yul\":39223:39295   */\n      tag_291\n      jump\t// in\n    tag_706:\n        /* \"#utility.yul\":38567:39302   */\n      swap6\n      swap5\n      pop\n      pop\n      pop\n      pop\n      pop\n      jump\t// out\n\n    auxdata: 0xa2646970667358221220cf6ef7b8dfac1a3e3d1a62b2cf451d77982fa5f51b581bcc2125ac428c7e4e8d64736f6c634300081e0033\n}\n",
				"bytecode": {
					"linkReferences": {},
					"object": "6080604052348015600e575f5ffd5b5060015f819055503360035f6101000a81548173ffffffffffffffffffffffffffffffffffffffff021916908373ffffffffffffffffffffffffffffffffffffffff160217905550612fa3806100635f395ff3fe608060405260043610610129575f3560e01c8063629b2647116100aa5780639ab761c71161006e5780639ab761c7146103d5578063cd4ac98c146103ff578063ce7c90801461041b578063f81bf60114610445578063f851a4401461046d578063fee2f1c91461049757610129565b8063629b2647146103115780636c563abe1461033957806371eb89f3146103555780637299baeb1461037157806388283c0f1461039957610129565b80633b9056bf116100f15780633b9056bf1461023d57806342d844a514610259578063530a85701461029557806354a5bcc5146102ab5780635d4e5d78146102d557610129565b80630dbac1351461012d5780631392ebfe1461016a57806321b2416c1461019257806332dcd3a1146101d7578063370c36b414610201575b5f5ffd5b348015610138575f5ffd5b50610153600480360381019061014e9190611b64565b6104bf565b604051610161929190611b9e565b60405180910390f35b348015610175575f5ffd5b50610190600480360381019061018b9190611bc5565b6105a0565b005b34801561019d575f5ffd5b506101b860048036038101906101b39190611b64565b610698565b6040516101ce9a99989796959493929190611ccc565b60405180910390f35b3480156101e2575f5ffd5b506101eb61084b565b6040516101f89190611d74565b60405180910390f35b34801561020c575f5ffd5b5061022760048036038101906102229190611b64565b610851565b6040516102349190611d74565b60405180910390f35b61025760048036038101906102529190611b64565b610893565b005b348015610264575f5ffd5b5061027f600480360381019061027a9190611b64565b610a58565b60405161028c9190611d74565b60405180910390f35b3480156102a0575f5ffd5b506102a9610a9a565b005b3480156102b6575f5ffd5b506102bf610b42565b6040516102cc9190611d74565b60405180910390f35b3480156102e0575f5ffd5b506102fb60048036038101906102f69190611db7565b610b4b565b6040516103089190611d74565b60405180910390f35b34801561031c575f5ffd5b5061033760048036038101906103329190611bc5565b610b6b565b005b610353600480360381019061034e9190611b64565b610c2e565b005b61036f600480360381019061036a9190611b64565b611069565b005b34801561037c575f5ffd5b5061039760048036038101906103929190611df5565b61122f565b005b3480156103a4575f5ffd5b506103bf60048036038101906103ba9190611df5565b611358565b6040516103cc9190611e20565b60405180910390f35b3480156103e0575f5ffd5b506103e9611375565b6040516103f69190611d74565b60405180910390f35b61041960048036038101906104149190611bc5565b61137b565b005b348015610426575f5ffd5b5061042f61163c565b60405161043c9190611d74565b60405180910390f35b348015610450575f5ffd5b5061046b60048036038101906104669190611f65565b611642565b005b348015610478575f5ffd5b50610481611984565b60405161048e9190612014565b60405180910390f35b3480156104a2575f5ffd5b506104bd60048036038101906104b89190611df5565b6119a9565b005b5f5f5f60075f8581526020019081526020015f209050806003015492505f73ffffffffffffffffffffffffffffffffffffffff16815f015f9054906101000a900473ffffffffffffffffffffffffffffffffffffffff1673ffffffffffffffffffffffffffffffffffffffff160361056c576040517f08c379a00000000000000000000000000000000000000000000000000000000081526004016105639061209d565b60405180910390fd5b8060030154816005015410610583575f915061059a565b8060050154816003015461059791906120e8565b91505b50915091565b5f60075f8481526020019081526020015f2090505f8160040154116105fa576040517f08c379a00000000000000000000000000000000000000000000000000000000081526004016105f19061218b565b60405180910390fd5b3373ffffffffffffffffffffffffffffffffffffffff16815f015f9054906101000a900473ffffffffffffffffffffffffffffffffffffffff1673ffffffffffffffffffffffffffffffffffffffff161461068a576040517f08c379a00000000000000000000000000000000000000000000000000000000081526004016106819061223f565b60405180910390fd5b818160030181905550505050565b6007602052805f5260405f205f91509050805f015f9054906101000a900473ffffffffffffffffffffffffffffffffffffffff16908060010180546106dc9061228a565b80601f01602080910402602001604051908101604052809291908181526020018280546107089061228a565b80156107535780601f1061072a57610100808354040283529160200191610753565b820191905f5260205f20905b81548152906001019060200180831161073657829003601f168201915b5050505050908060020180546107689061228a565b80601f01602080910402602001604051908101604052809291908181526020018280546107949061228a565b80156107df5780601f106107b6576101008083540402835291602001916107df565b820191905f5260205f20905b8154815290600101906020018083116107c257829003601f168201915b505050505090806003015490806004015490806005015490806006015f9054906101000a900460ff16908060060160019054906101000a900473ffffffffffffffffffffffffffffffffffffffff1690806007015490806008015f9054906101000a900460ff1690508a565b60055481565b5f5f60075f8481526020019081526020015f2090508060040154421061087a575f91505061088e565b42816004015461088a91906120e8565b9150505b919050565b5f60075f8381526020019081526020015f20905080600301548160050154106108f1576040517f08c379a00000000000000000000000000000000000000000000000000000000081526004016108e89061232a565b60405180910390fd5b5f60085f8481526020019081526020015f205f3373ffffffffffffffffffffffffffffffffffffffff1673ffffffffffffffffffffffffffffffffffffffff1681526020019081526020015f2054905080826005015f82825461095491906120e8565b925050819055508060085f8581526020019081526020015f205f3373ffffffffffffffffffffffffffffffffffffffff1673ffffffffffffffffffffffffffffffffffffffff1681526020019081526020015f205f8282546109b691906120e8565b925050819055508060015f8282546109ce91906120e8565b925050819055503373ffffffffffffffffffffffffffffffffffffffff166108fc8290811502906040515f60405180830381858888f19350505050158015610a18573d5f5f3e3d5ffd5b50827fb6e4e293b6c7c5cf68fbb52edfaca6173710fcccbcecac03c32e62327fc000c63383604051610a4b929190612348565b60405180910390a2505050565b5f5f60075f8481526020019081526020015f2090505f816003015460648360050154610a84919061236f565b610a8e91906123dd565b90508092505050919050565b5f5f90505b600254811015610b3f575f60075f8381526020019081526020015f209050806006015f9054906101000a900460ff16158015610ade5750806004015442115b8015610af85750806008015f9054906101000a900460ff16155b15610b315760055f815480929190610b0f9061240d565b91905055506001816008015f6101000a81548160ff0219169083151502179055505b508080600101915050610a9f565b50565b5f600154905090565b6008602052815f5260405f20602052805f5260405f205f91509150505481565b5f60075f8481526020019081526020015f2090503373ffffffffffffffffffffffffffffffffffffffff16815f015f9054906101000a900473ffffffffffffffffffffffffffffffffffffffff1673ffffffffffffffffffffffffffffffffffffffff1614610c0f576040517f08c379a0000000000000000000000000000000000000000000000000000000008152600401610c06906124c4565b60405180910390fd5b81816004015f828254610c2291906124e2565b92505081905550505050565b610c36611ad3565b5f60075f8381526020019081526020015f2090508060040154421115610c91576040517f08c379a0000000000000000000000000000000000000000000000000000000008152600401610c889061255f565b60405180910390fd5b806006015f9054906101000a900460ff1615610ce2576040517f08c379a0000000000000000000000000000000000000000000000000000000008152600401610cd9906125ed565b60405180910390fd5b5f3411610d24576040517f08c379a0000000000000000000000000000000000000000000000000000000008152600401610d1b9061267b565b60405180910390fd5b8060030154341115610d6b576040517f08c379a0000000000000000000000000000000000000000000000000000000008152600401610d6290612709565b60405180910390fd5b5f81600501548260030154610d8091906120e8565b90505f5f82341115610da2578291508234610d9b91906120e8565b9050610da9565b3491505f90505b81846005015f828254610dbc91906124e2565b925050819055508160085f8781526020019081526020015f205f3373ffffffffffffffffffffffffffffffffffffffff1673ffffffffffffffffffffffffffffffffffffffff1681526020019081526020015f20819055508160015f828254610e2591906124e2565b925050819055505f811115610ede575f3373ffffffffffffffffffffffffffffffffffffffff1682604051610e5990612754565b5f6040518083038185875af1925050503d805f8114610e93576040519150601f19603f3d011682016040523d82523d5f602084013e610e98565b606091505b5050905080610edc576040517f08c379a0000000000000000000000000000000000000000000000000000000008152600401610ed3906127b2565b60405180910390fd5b505b5f60085f8781526020019081526020015f205f3373ffffffffffffffffffffffffffffffffffffffff1673ffffffffffffffffffffffffffffffffffffffff1681526020019081526020015f205490508460070154811115610f8757808560070181905550338560060160016101000a81548173ffffffffffffffffffffffffffffffffffffffff021916908373ffffffffffffffffffffffffffffffffffffffff1602179055505b857f7dd983e9d08b449d571f3583275e98423857f3ffbe9ef56f927eb02b1c8ab599338585604051610fbb939291906127d0565b60405180910390a28460030154856005015410610fef576001856006015f6101000a81548160ff0219169083151502179055505b846006015f9054906101000a900460ff161580156110205750846004015434866005015461101d91906124e2565b10155b15611059576001856006015f6101000a81548160ff02191690831515021790555060045f8154809291906110539061240d565b91905055505b5050505050611066611b17565b50565b5f60075f8381526020019081526020015f2090505f81600501549050816006015f9054906101000a900460ff166110d5576040517f08c379a00000000000000000000000000000000000000000000000000000000081526004016110cc90612875565b60405180910390fd5b3373ffffffffffffffffffffffffffffffffffffffff16825f015f9054906101000a900473ffffffffffffffffffffffffffffffffffffffff1673ffffffffffffffffffffffffffffffffffffffff1614611165576040517f08c379a000000000000000000000000000000000000000000000000000000000815260040161115c906128dd565b60405180910390fd5b42826004015411156111ac576040517f08c379a00000000000000000000000000000000000000000000000000000000081526004016111a39061296b565b60405180910390fd5b3373ffffffffffffffffffffffffffffffffffffffff166108fc8290811502906040515f60405180830381858888f193505050501580156111ef573d5f5f3e3d5ffd5b50827fcae030e1a3c6b0011e7009bd65734e2e1e330528f6983497631fabd47fa7a2813334604051611222929190612348565b60405180910390a2505050565b3373ffffffffffffffffffffffffffffffffffffffff1660035f9054906101000a900473ffffffffffffffffffffffffffffffffffffffff1673ffffffffffffffffffffffffffffffffffffffff16146112be576040517f08c379a00000000000000000000000000000000000000000000000000000000081526004016112b5906129d3565b60405180910390fd5b5f60065f8373ffffffffffffffffffffffffffffffffffffffff1673ffffffffffffffffffffffffffffffffffffffff1681526020019081526020015f205f6101000a81548160ff0219169083151502179055508073ffffffffffffffffffffffffffffffffffffffff167f0925d0e195cc39b7ade3fd58fdf494022e37bfd6242c2be09c0b2863977c187960405160405180910390a250565b6006602052805f5260405f205f915054906101000a900460ff1681565b60025481565b5f60075f8481526020019081526020015f209050806004015442106113d5576040517f08c379a00000000000000000000000000000000000000000000000000000000081526004016113cc90612a3b565b60405180910390fd5b5f60085f8581526020019081526020015f205f3373ffffffffffffffffffffffffffffffffffffffff1673ffffffffffffffffffffffffffffffffffffffff1681526020019081526020015f205490505f8111611467576040517f08c379a000000000000000000000000000000000000000000000000000000000815260040161145e90612aa3565b60405180910390fd5b808311156114aa576040517f08c379a00000000000000000000000000000000000000000000000000000000081526004016114a190612b31565b60405180910390fd5b82826005015f8282546114bd91906120e8565b925050819055508260085f8681526020019081526020015f205f3373ffffffffffffffffffffffffffffffffffffffff1673ffffffffffffffffffffffffffffffffffffffff1681526020019081526020015f205f82825461151f91906120e8565b925050819055508260015f82825461153791906120e8565b925050819055505f3373ffffffffffffffffffffffffffffffffffffffff168460405161156390612754565b5f6040518083038185875af1925050503d805f811461159d576040519150601f19603f3d011682016040523d82523d5f602084013e6115a2565b606091505b50509050806115e6576040517f08c379a00000000000000000000000000000000000000000000000000000000081526004016115dd90612b99565b60405180910390fd5b843373ffffffffffffffffffffffffffffffffffffffff167fb37480540ffb97ff520a59b38ea1a83aefbfd3d2a956d958a00214b8b6551f288660405161162d9190611d74565b60405180910390a35050505050565b60045481565b60095f8281526020019081526020015f205f9054906101000a900460ff16156116a0576040517f08c379a000000000000000000000000000000000000000000000000000000000815260040161169790612c01565b60405180910390fd5b60065f3373ffffffffffffffffffffffffffffffffffffffff1673ffffffffffffffffffffffffffffffffffffffff1681526020019081526020015f205f9054906101000a900460ff16611729576040517f08c379a000000000000000000000000000000000000000000000000000000000815260040161172090612c8f565b60405180910390fd5b600160095f8381526020019081526020015f205f6101000a81548160ff0219169083151502179055506040518061014001604052803373ffffffffffffffffffffffffffffffffffffffff168152602001868152602001858152602001848152602001834261179891906124e2565b81526020015f81526020015f151581526020015f73ffffffffffffffffffffffffffffffffffffffff1681526020015f81526020015f151581525060075f8381526020019081526020015f205f820151815f015f6101000a81548173ffffffffffffffffffffffffffffffffffffffff021916908373ffffffffffffffffffffffffffffffffffffffff160217905550602082015181600101908161183d9190612e4d565b5060408201518160020190816118539190612e4d565b50606082015181600301556080820151816004015560a0820151816005015560c0820151816006015f6101000a81548160ff02191690831515021790555060e08201518160060160016101000a81548173ffffffffffffffffffffffffffffffffffffffff021916908373ffffffffffffffffffffffffffffffffffffffff1602179055506101008201518160070155610120820151816008015f6101000a81548160ff02191690831515021790555090505060025f8154809291906119189061240d565b91905055503373ffffffffffffffffffffffffffffffffffffffff16817fac9b83534845c9e785a6ea70f2d809db1d72ef9a1d981753712d922f5cb55f39878787874261196591906124e2565b6040516119759493929190612f1c565b60405180910390a35050505050565b60035f9054906101000a900473ffffffffffffffffffffffffffffffffffffffff1681565b3373ffffffffffffffffffffffffffffffffffffffff1660035f9054906101000a900473ffffffffffffffffffffffffffffffffffffffff1673ffffffffffffffffffffffffffffffffffffffff1614611a38576040517f08c379a0000000000000000000000000000000000000000000000000000000008152600401611a2f906129d3565b60405180910390fd5b600160065f8373ffffffffffffffffffffffffffffffffffffffff1673ffffffffffffffffffffffffffffffffffffffff1681526020019081526020015f205f6101000a81548160ff0219169083151502179055508073ffffffffffffffffffffffffffffffffffffffff167f1f9f86dc4a3ce57ee42e33c59def65713163420d0ab979169ef129299ff2b85e60405160405180910390a250565b60025f5403611b0e576040517f3ee5aeb500000000000000000000000000000000000000000000000000000000815260040160405180910390fd5b60025f81905550565b60015f81905550565b5f604051905090565b5f5ffd5b5f5ffd5b5f819050919050565b611b4381611b31565b8114611b4d575f5ffd5b50565b5f81359050611b5e81611b3a565b92915050565b5f60208284031215611b7957611b78611b29565b5b5f611b8684828501611b50565b91505092915050565b611b9881611b31565b82525050565b5f604082019050611bb15f830185611b8f565b611bbe6020830184611b8f565b9392505050565b5f5f60408385031215611bdb57611bda611b29565b5b5f611be885828601611b50565b9250506020611bf985828601611b50565b9150509250929050565b5f73ffffffffffffffffffffffffffffffffffffffff82169050919050565b5f611c2c82611c03565b9050919050565b611c3c81611c22565b82525050565b5f81519050919050565b5f82825260208201905092915050565b8281835e5f83830152505050565b5f601f19601f8301169050919050565b5f611c8482611c42565b611c8e8185611c4c565b9350611c9e818560208601611c5c565b611ca781611c6a565b840191505092915050565b5f8115159050919050565b611cc681611cb2565b82525050565b5f61014082019050611ce05f83018d611c33565b8181036020830152611cf2818c611c7a565b90508181036040830152611d06818b611c7a565b9050611d15606083018a611b8f565b611d226080830189611b8f565b611d2f60a0830188611b8f565b611d3c60c0830187611cbd565b611d4960e0830186611c33565b611d57610100830185611b8f565b611d65610120830184611cbd565b9b9a5050505050505050505050565b5f602082019050611d875f830184611b8f565b92915050565b611d9681611c22565b8114611da0575f5ffd5b50565b5f81359050611db181611d8d565b92915050565b5f5f60408385031215611dcd57611dcc611b29565b5b5f611dda85828601611b50565b9250506020611deb85828601611da3565b9150509250929050565b5f60208284031215611e0a57611e09611b29565b5b5f611e1784828501611da3565b91505092915050565b5f602082019050611e335f830184611cbd565b92915050565b5f5ffd5b5f5ffd5b7f4e487b71000000000000000000000000000000000000000000000000000000005f52604160045260245ffd5b611e7782611c6a565b810181811067ffffffffffffffff82111715611e9657611e95611e41565b5b80604052505050565b5f611ea8611b20565b9050611eb48282611e6e565b919050565b5f67ffffffffffffffff821115611ed357611ed2611e41565b5b611edc82611c6a565b9050602081019050919050565b828183375f83830152505050565b5f611f09611f0484611eb9565b611e9f565b905082815260208101848484011115611f2557611f24611e3d565b5b611f30848285611ee9565b509392505050565b5f82601f830112611f4c57611f4b611e39565b5b8135611f5c848260208601611ef7565b91505092915050565b5f5f5f5f5f60a08688031215611f7e57611f7d611b29565b5b5f86013567ffffffffffffffff811115611f9b57611f9a611b2d565b5b611fa788828901611f38565b955050602086013567ffffffffffffffff811115611fc857611fc7611b2d565b5b611fd488828901611f38565b9450506040611fe588828901611b50565b9350506060611ff688828901611b50565b925050608061200788828901611b50565b9150509295509295909350565b5f6020820190506120275f830184611c33565b92915050565b7f70726f6a65637420686173206e6f74206265656e2063726561746564207965745f8201527f2100000000000000000000000000000000000000000000000000000000000000602082015250565b5f612087602183611c4c565b91506120928261202d565b604082019050919050565b5f6020820190508181035f8301526120b48161207b565b9050919050565b7f4e487b71000000000000000000000000000000000000000000000000000000005f52601160045260245ffd5b5f6120f282611b31565b91506120fd83611b31565b9250828203905081811115612115576121146120bb565b5b92915050565b7f446561646c696e65206973206f766572202c20796f752043616e2774206368615f8201527f6e6765207468652066756e64696e6720676f616c202121000000000000000000602082015250565b5f612175603783611c4c565b91506121808261211b565b604082019050919050565b5f6020820190508181035f8301526121a281612169565b9050919050565b7f596f7520617265206e6f74207468652070726f6a6563742063726561746f72205f8201527f2c204f6e6c7920506f726a6563742063726561746f722063616e204368616e6760208201527f6520212100000000000000000000000000000000000000000000000000000000604082015250565b5f612229604483611c4c565b9150612234826121a9565b606082019050919050565b5f6020820190508181035f8301526122568161221d565b9050919050565b7f4e487b71000000000000000000000000000000000000000000000000000000005f52602260045260245ffd5b5f60028204905060018216806122a157607f821691505b6020821081036122b4576122b361225d565b5b50919050565b7f46756e64696e6720676f616c206861732072656163686564202c2075736572205f8201527f63616e2774207769746864726177000000000000000000000000000000000000602082015250565b5f612314602e83611c4c565b915061231f826122ba565b604082019050919050565b5f6020820190508181035f83015261234181612308565b9050919050565b5f60408201905061235b5f830185611c33565b6123686020830184611b8f565b9392505050565b5f61237982611b31565b915061238483611b31565b925082820261239281611b31565b915082820484148315176123a9576123a86120bb565b5b5092915050565b7f4e487b71000000000000000000000000000000000000000000000000000000005f52601260045260245ffd5b5f6123e782611b31565b91506123f283611b31565b925082612402576124016123b0565b5b828204905092915050565b5f61241782611b31565b91507fffffffffffffffffffffffffffffffffffffffffffffffffffffffffffffffff8203612449576124486120bb565b5b600182019050919050565b7f4f6e6c792050726f6a6563742063726561746f722063616e20657874656e64205f8201527f74686520646561646c696e652121000000000000000000000000000000000000602082015250565b5f6124ae602e83611c4c565b91506124b982612454565b604082019050919050565b5f6020820190508181035f8301526124db816124a2565b9050919050565b5f6124ec82611b31565b91506124f783611b31565b925082820190508082111561250f5761250e6120bb565b5b92915050565b7f50726f6a65637420646561646c696e65206973206f76657221000000000000005f82015250565b5f612549601983611c4c565b915061255482612515565b602082019050919050565b5f6020820190508181035f8301526125768161253d565b9050919050565b7f50726f6a6563742052656163686564206974732046756e64696e6720726571755f8201527f6972656d656e7400000000000000000000000000000000000000000000000000602082015250565b5f6125d7602783611c4c565b91506125e28261257d565b604082019050919050565b5f6020820190508181035f830152612604816125cb565b9050919050565b7f73656e6420736f6d6520657468657220746f20636f6e7472696275746520696e5f8201527f207468652070726f6a6563740000000000000000000000000000000000000000602082015250565b5f612665602c83611c4c565b91506126708261260b565b604082019050919050565b5f6020820190508181035f83015261269281612659565b9050919050565b7f416d6f756e7420436f6e7472696275746564206973206d6f7265207468616e205f8201527f476f616c00000000000000000000000000000000000000000000000000000000602082015250565b5f6126f3602483611c4c565b91506126fe82612699565b604082019050919050565b5f6020820190508181035f830152612720816126e7565b9050919050565b5f81905092915050565b50565b5f61273f5f83612727565b915061274a82612731565b5f82019050919050565b5f61275e82612734565b9150819050919050565b7f526566756e64204661696c6564000000000000000000000000000000000000005f82015250565b5f61279c600d83611c4c565b91506127a782612768565b602082019050919050565b5f6020820190508181035f8301526127c981612790565b9050919050565b5f6060820190506127e35f830186611c33565b6127f06020830185611b8f565b6127fd6040830184611b8f565b949350505050565b7f66756e64696e6720676f616c20686173206e6f742072656163686564202c20615f8201527f646d696e2063616e277420776974686472617700000000000000000000000000602082015250565b5f61285f603383611c4c565b915061286a82612805565b604082019050919050565b5f6020820190508181035f83015261288c81612853565b9050919050565b7f6f6e6c792061646d696e2063616e2077697468647261770000000000000000005f82015250565b5f6128c7601783611c4c565b91506128d282612893565b602082019050919050565b5f6020820190508181035f8301526128f4816128bb565b9050919050565b7f646561646c696e6520686173206e6f742072656163686564202c2061646d696e5f8201527f2063616e27742077697468647261770000000000000000000000000000000000602082015250565b5f612955602f83611c4c565b9150612960826128fb565b604082019050919050565b5f6020820190508181035f83015261298281612949565b9050919050565b7f4f6e6c792041646d696e2063616e2061636365737300000000000000000000005f82015250565b5f6129bd601583611c4c565b91506129c882612989565b602082019050919050565b5f6020820190508181035f8301526129ea816129b1565b9050919050565b7f43616e6e6f7420776974686472617720616674657220646561646c696e6500005f82015250565b5f612a25601e83611c4c565b9150612a30826129f1565b602082019050919050565b5f6020820190508181035f830152612a5281612a19565b9050919050565b7f4e6f2046756e647320746f2077697468647261772121000000000000000000005f82015250565b5f612a8d601683611c4c565b9150612a9882612a59565b602082019050919050565b5f6020820190508181035f830152612aba81612a81565b9050919050565b7f576974686472617720616d6f756e74206578636565647320796f757220636f6e5f8201527f747269627574696f6e0000000000000000000000000000000000000000000000602082015250565b5f612b1b602983611c4c565b9150612b2682612ac1565b604082019050919050565b5f6020820190508181035f830152612b4881612b0f565b9050919050565b7f7769746864726177206661696c656421212121000000000000000000000000005f82015250565b5f612b83601383611c4c565b9150612b8e82612b4f565b602082019050919050565b5f6020820190508181035f830152612bb081612b77565b9050919050565b7f50726f6a65637420494420697320616c726561647920696e20757365210000005f82015250565b5f612beb601d83611c4c565b9150612bf682612bb7565b602082019050919050565b5f6020820190508181035f830152612c1881612bdf565b9050919050565b7f4f6e6c7920417574686f72697a65642063726561746f72732063616e206163635f8201527f6573732121000000000000000000000000000000000000000000000000000000602082015250565b5f612c79602583611c4c565b9150612c8482612c1f565b604082019050919050565b5f6020820190508181035f830152612ca681612c6d565b9050919050565b5f819050815f5260205f209050919050565b5f6020601f8301049050919050565b5f82821b905092915050565b5f60088302612d097fffffffffffffffffffffffffffffffffffffffffffffffffffffffffffffffff82612cce565b612d138683612cce565b95508019841693508086168417925050509392505050565b5f819050919050565b5f612d4e612d49612d4484611b31565b612d2b565b611b31565b9050919050565b5f819050919050565b612d6783612d34565b612d7b612d7382612d55565b848454612cda565b825550505050565b5f5f905090565b612d92612d83565b612d9d818484612d5e565b505050565b5b81811015612dc057612db55f82612d8a565b600181019050612da3565b5050565b601f821115612e0557612dd681612cad565b612ddf84612cbf565b81016020851015612dee578190505b612e02612dfa85612cbf565b830182612da2565b50505b505050565b5f82821c905092915050565b5f612e255f1984600802612e0a565b1980831691505092915050565b5f612e3d8383612e16565b9150826002028217905092915050565b612e5682611c42565b67ffffffffffffffff811115612e6f57612e6e611e41565b5b612e79825461228a565b612e84828285612dc4565b5f60209050601f831160018114612eb5575f8415612ea3578287015190505b612ead8582612e32565b865550612f14565b601f198416612ec386612cad565b5f5b82811015612eea57848901518255600182019150602085019450602081019050612ec5565b86831015612f075784890151612f03601f891682612e16565b8355505b6001600288020188555050505b505050505050565b5f6080820190508181035f830152612f348187611c7a565b90508181036020830152612f488186611c7a565b9050612f576040830185611b8f565b612f646060830184611b8f565b9594505050505056fea2646970667358221220cf6ef7b8dfac1a3e3d1a62b2cf451d77982fa5f51b581bcc2125ac428c7e4e8d64736f6c634300081e0033",
					"opcodes": "PUSH1 0x80 PUSH1 0x40 MSTORE CALLVALUE DUP1 ISZERO PUSH1 0xE JUMPI PUSH0 PUSH0 REVERT JUMPDEST POP PUSH1 0x1 PUSH0 DUP2 SWAP1 SSTORE POP CALLER PUSH1 0x3 PUSH0 PUSH2 0x100 EXP DUP2 SLOAD DUP2 PUSH20 0xFFFFFFFFFFFFFFFFFFFFFFFFFFFFFFFFFFFFFFFF MUL NOT AND SWAP1 DUP4 PUSH20 0xFFFFFFFFFFFFFFFFFFFFFFFFFFFFFFFFFFFFFFFF AND MUL OR SWAP1 SSTORE POP PUSH2 0x2FA3 DUP1 PUSH2 0x63 PUSH0 CODECOPY PUSH0 RETURN INVALID PUSH1 0x80 PUSH1 0x40 MSTORE PUSH1 0x4 CALLDATASIZE LT PUSH2 0x129 JUMPI PUSH0 CALLDATALOAD PUSH1 0xE0 SHR DUP1 PUSH4 0x629B2647 GT PUSH2 0xAA JUMPI DUP1 PUSH4 0x9AB761C7 GT PUSH2 0x6E JUMPI DUP1 PUSH4 0x9AB761C7 EQ PUSH2 0x3D5 JUMPI DUP1 PUSH4 0xCD4AC98C EQ PUSH2 0x3FF JUMPI DUP1 PUSH4 0xCE7C9080 EQ PUSH2 0x41B JUMPI DUP1 PUSH4 0xF81BF601 EQ PUSH2 0x445 JUMPI DUP1 PUSH4 0xF851A440 EQ PUSH2 0x46D JUMPI DUP1 PUSH4 0xFEE2F1C9 EQ PUSH2 0x497 JUMPI PUSH2 0x129 JUMP JUMPDEST DUP1 PUSH4 0x629B2647 EQ PUSH2 0x311 JUMPI DUP1 PUSH4 0x6C563ABE EQ PUSH2 0x339 JUMPI DUP1 PUSH4 0x71EB89F3 EQ PUSH2 0x355 JUMPI DUP1 PUSH4 0x7299BAEB EQ PUSH2 0x371 JUMPI DUP1 PUSH4 0x88283C0F EQ PUSH2 0x399 JUMPI PUSH2 0x129 JUMP JUMPDEST DUP1 PUSH4 0x3B9056BF GT PUSH2 0xF1 JUMPI DUP1 PUSH4 0x3B9056BF EQ PUSH2 0x23D JUMPI DUP1 PUSH4 0x42D844A5 EQ PUSH2 0x259 JUMPI DUP1 PUSH4 0x530A8570 EQ PUSH2 0x295 JUMPI DUP1 PUSH4 0x54A5BCC5 EQ PUSH2 0x2AB JUMPI DUP1 PUSH4 0x5D4E5D78 EQ PUSH2 0x2D5 JUMPI PUSH2 0x129 JUMP JUMPDEST DUP1 PUSH4 0xDBAC135 EQ PUSH2 0x12D JUMPI DUP1 PUSH4 0x1392EBFE EQ PUSH2 0x16A JUMPI DUP1 PUSH4 0x21B2416C EQ PUSH2 0x192 JUMPI DUP1 PUSH4 0x32DCD3A1 EQ PUSH2 0x1D7 JUMPI DUP1 PUSH4 0x370C36B4 EQ PUSH2 0x201 JUMPI JUMPDEST PUSH0 PUSH0 REVERT JUMPDEST CALLVALUE DUP1 ISZERO PUSH2 0x138 JUMPI PUSH0 PUSH0 REVERT JUMPDEST POP PUSH2 0x153 PUSH1 0x4 DUP1 CALLDATASIZE SUB DUP2 ADD SWAP1 PUSH2 0x14E SWAP2 SWAP1 PUSH2 0x1B64 JUMP JUMPDEST PUSH2 0x4BF JUMP JUMPDEST PUSH1 0x40 MLOAD PUSH2 0x161 SWAP3 SWAP2 SWAP1 PUSH2 0x1B9E JUMP JUMPDEST PUSH1 0x40 MLOAD DUP1 SWAP2 SUB SWAP1 RETURN JUMPDEST CALLVALUE DUP1 ISZERO PUSH2 0x175 JUMPI PUSH0 PUSH0 REVERT JUMPDEST POP PUSH2 0x190 PUSH1 0x4 DUP1 CALLDATASIZE SUB DUP2 ADD SWAP1 PUSH2 0x18B SWAP2 SWAP1 PUSH2 0x1BC5 JUMP JUMPDEST PUSH2 0x5A0 JUMP JUMPDEST STOP JUMPDEST CALLVALUE DUP1 ISZERO PUSH2 0x19D JUMPI PUSH0 PUSH0 REVERT JUMPDEST POP PUSH2 0x1B8 PUSH1 0x4 DUP1 CALLDATASIZE SUB DUP2 ADD SWAP1 PUSH2 0x1B3 SWAP2 SWAP1 PUSH2 0x1B64 JUMP JUMPDEST PUSH2 0x698 JUMP JUMPDEST PUSH1 0x40 MLOAD PUSH2 0x1CE SWAP11 SWAP10 SWAP9 SWAP8 SWAP7 SWAP6 SWAP5 SWAP4 SWAP3 SWAP2 SWAP1 PUSH2 0x1CCC JUMP JUMPDEST PUSH1 0x40 MLOAD DUP1 SWAP2 SUB SWAP1 RETURN JUMPDEST CALLVALUE DUP1 ISZERO PUSH2 0x1E2 JUMPI PUSH0 PUSH0 REVERT JUMPDEST POP PUSH2 0x1EB PUSH2 0x84B JUMP JUMPDEST PUSH1 0x40 MLOAD PUSH2 0x1F8 SWAP2 SWAP1 PUSH2 0x1D74 JUMP JUMPDEST PUSH1 0x40 MLOAD DUP1 SWAP2 SUB SWAP1 RETURN JUMPDEST CALLVALUE DUP1 ISZERO PUSH2 0x20C JUMPI PUSH0 PUSH0 REVERT JUMPDEST POP PUSH2 0x227 PUSH1 0x4 DUP1 CALLDATASIZE SUB DUP2 ADD SWAP1 PUSH2 0x222 SWAP2 SWAP1 PUSH2 0x1B64 JUMP JUMPDEST PUSH2 0x851 JUMP JUMPDEST PUSH1 0x40 MLOAD PUSH2 0x234 SWAP2 SWAP1 PUSH2 0x1D74 JUMP JUMPDEST PUSH1 0x40 MLOAD DUP1 SWAP2 SUB SWAP1 RETURN JUMPDEST PUSH2 0x257 PUSH1 0x4 DUP1 CALLDATASIZE SUB DUP2 ADD SWAP1 PUSH2 0x252 SWAP2 SWAP1 PUSH2 0x1B64 JUMP JUMPDEST PUSH2 0x893 JUMP JUMPDEST STOP JUMPDEST CALLVALUE DUP1 ISZERO PUSH2 0x264 JUMPI PUSH0 PUSH0 REVERT JUMPDEST POP PUSH2 0x27F PUSH1 0x4 DUP1 CALLDATASIZE SUB DUP2 ADD SWAP1 PUSH2 0x27A SWAP2 SWAP1 PUSH2 0x1B64 JUMP JUMPDEST PUSH2 0xA58 JUMP JUMPDEST PUSH1 0x40 MLOAD PUSH2 0x28C SWAP2 SWAP1 PUSH2 0x1D74 JUMP JUMPDEST PUSH1 0x40 MLOAD DUP1 SWAP2 SUB SWAP1 RETURN JUMPDEST CALLVALUE DUP1 ISZERO PUSH2 0x2A0 JUMPI PUSH0 PUSH0 REVERT JUMPDEST POP PUSH2 0x2A9 PUSH2 0xA9A JUMP JUMPDEST STOP JUMPDEST CALLVALUE DUP1 ISZERO PUSH2 0x2B6 JUMPI PUSH0 PUSH0 REVERT JUMPDEST POP PUSH2 0x2BF PUSH2 0xB42 JUMP JUMPDEST PUSH1 0x40 MLOAD PUSH2 0x2CC SWAP2 SWAP1 PUSH2 0x1D74 JUMP JUMPDEST PUSH1 0x40 MLOAD DUP1 SWAP2 SUB SWAP1 RETURN JUMPDEST CALLVALUE DUP1 ISZERO PUSH2 0x2E0 JUMPI PUSH0 PUSH0 REVERT JUMPDEST POP PUSH2 0x2FB PUSH1 0x4 DUP1 CALLDATASIZE SUB DUP2 ADD SWAP1 PUSH2 0x2F6 SWAP2 SWAP1 PUSH2 0x1DB7 JUMP JUMPDEST PUSH2 0xB4B JUMP JUMPDEST PUSH1 0x40 MLOAD PUSH2 0x308 SWAP2 SWAP1 PUSH2 0x1D74 JUMP JUMPDEST PUSH1 0x40 MLOAD DUP1 SWAP2 SUB SWAP1 RETURN JUMPDEST CALLVALUE DUP1 ISZERO PUSH2 0x31C JUMPI PUSH0 PUSH0 REVERT JUMPDEST POP PUSH2 0x337 PUSH1 0x4 DUP1 CALLDATASIZE SUB DUP2 ADD SWAP1 PUSH2 0x332 SWAP2 SWAP1 PUSH2 0x1BC5 JUMP JUMPDEST PUSH2 0xB6B JUMP JUMPDEST STOP JUMPDEST PUSH2 0x353 PUSH1 0x4 DUP1 CALLDATASIZE SUB DUP2 ADD SWAP1 PUSH2 0x34E SWAP2 SWAP1 PUSH2 0x1B64 JUMP JUMPDEST PUSH2 0xC2E JUMP JUMPDEST STOP JUMPDEST PUSH2 0x36F PUSH1 0x4 DUP1 CALLDATASIZE SUB DUP2 ADD SWAP1 PUSH2 0x36A SWAP2 SWAP1 PUSH2 0x1B64 JUMP JUMPDEST PUSH2 0x1069 JUMP JUMPDEST STOP JUMPDEST CALLVALUE DUP1 ISZERO PUSH2 0x37C JUMPI PUSH0 PUSH0 REVERT JUMPDEST POP PUSH2 0x397 PUSH1 0x4 DUP1 CALLDATASIZE SUB DUP2 ADD SWAP1 PUSH2 0x392 SWAP2 SWAP1 PUSH2 0x1DF5 JUMP JUMPDEST PUSH2 0x122F JUMP JUMPDEST STOP JUMPDEST CALLVALUE DUP1 ISZERO PUSH2 0x3A4 JUMPI PUSH0 PUSH0 REVERT JUMPDEST POP PUSH2 0x3BF PUSH1 0x4 DUP1 CALLDATASIZE SUB DUP2 ADD SWAP1 PUSH2 0x3BA SWAP2 SWAP1 PUSH2 0x1DF5 JUMP JUMPDEST PUSH2 0x1358 JUMP JUMPDEST PUSH1 0x40 MLOAD PUSH2 0x3CC SWAP2 SWAP1 PUSH2 0x1E20 JUMP JUMPDEST PUSH1 0x40 MLOAD DUP1 SWAP2 SUB SWAP1 RETURN JUMPDEST CALLVALUE DUP1 ISZERO PUSH2 0x3E0 JUMPI PUSH0 PUSH0 REVERT JUMPDEST POP PUSH2 0x3E9 PUSH2 0x1375 JUMP JUMPDEST PUSH1 0x40 MLOAD PUSH2 0x3F6 SWAP2 SWAP1 PUSH2 0x1D74 JUMP JUMPDEST PUSH1 0x40 MLOAD DUP1 SWAP2 SUB SWAP1 RETURN JUMPDEST PUSH2 0x419 PUSH1 0x4 DUP1 CALLDATASIZE SUB DUP2 ADD SWAP1 PUSH2 0x414 SWAP2 SWAP1 PUSH2 0x1BC5 JUMP JUMPDEST PUSH2 0x137B JUMP JUMPDEST STOP JUMPDEST CALLVALUE DUP1 ISZERO PUSH2 0x426 JUMPI PUSH0 PUSH0 REVERT JUMPDEST POP PUSH2 0x42F PUSH2 0x163C JUMP JUMPDEST PUSH1 0x40 MLOAD PUSH2 0x43C SWAP2 SWAP1 PUSH2 0x1D74 JUMP JUMPDEST PUSH1 0x40 MLOAD DUP1 SWAP2 SUB SWAP1 RETURN JUMPDEST CALLVALUE DUP1 ISZERO PUSH2 0x450 JUMPI PUSH0 PUSH0 REVERT JUMPDEST POP PUSH2 0x46B PUSH1 0x4 DUP1 CALLDATASIZE SUB DUP2 ADD SWAP1 PUSH2 0x466 SWAP2 SWAP1 PUSH2 0x1F65 JUMP JUMPDEST PUSH2 0x1642 JUMP JUMPDEST STOP JUMPDEST CALLVALUE DUP1 ISZERO PUSH2 0x478 JUMPI PUSH0 PUSH0 REVERT JUMPDEST POP PUSH2 0x481 PUSH2 0x1984 JUMP JUMPDEST PUSH1 0x40 MLOAD PUSH2 0x48E SWAP2 SWAP1 PUSH2 0x2014 JUMP JUMPDEST PUSH1 0x40 MLOAD DUP1 SWAP2 SUB SWAP1 RETURN JUMPDEST CALLVALUE DUP1 ISZERO PUSH2 0x4A2 JUMPI PUSH0 PUSH0 REVERT JUMPDEST POP PUSH2 0x4BD PUSH1 0x4 DUP1 CALLDATASIZE SUB DUP2 ADD SWAP1 PUSH2 0x4B8 SWAP2 SWAP1 PUSH2 0x1DF5 JUMP JUMPDEST PUSH2 0x19A9 JUMP JUMPDEST STOP JUMPDEST PUSH0 PUSH0 PUSH0 PUSH1 0x7 PUSH0 DUP6 DUP2 MSTORE PUSH1 0x20 ADD SWAP1 DUP2 MSTORE PUSH1 0x20 ADD PUSH0 KECCAK256 SWAP1 POP DUP1 PUSH1 0x3 ADD SLOAD SWAP3 POP PUSH0 PUSH20 0xFFFFFFFFFFFFFFFFFFFFFFFFFFFFFFFFFFFFFFFF AND DUP2 PUSH0 ADD PUSH0 SWAP1 SLOAD SWAP1 PUSH2 0x100 EXP SWAP1 DIV PUSH20 0xFFFFFFFFFFFFFFFFFFFFFFFFFFFFFFFFFFFFFFFF AND PUSH20 0xFFFFFFFFFFFFFFFFFFFFFFFFFFFFFFFFFFFFFFFF AND SUB PUSH2 0x56C JUMPI PUSH1 0x40 MLOAD PUSH32 0x8C379A000000000000000000000000000000000000000000000000000000000 DUP2 MSTORE PUSH1 0x4 ADD PUSH2 0x563 SWAP1 PUSH2 0x209D JUMP JUMPDEST PUSH1 0x40 MLOAD DUP1 SWAP2 SUB SWAP1 REVERT JUMPDEST DUP1 PUSH1 0x3 ADD SLOAD DUP2 PUSH1 0x5 ADD SLOAD LT PUSH2 0x583 JUMPI PUSH0 SWAP2 POP PUSH2 0x59A JUMP JUMPDEST DUP1 PUSH1 0x5 ADD SLOAD DUP2 PUSH1 0x3 ADD SLOAD PUSH2 0x597 SWAP2 SWAP1 PUSH2 0x20E8 JUMP JUMPDEST SWAP2 POP JUMPDEST POP SWAP2 POP SWAP2 JUMP JUMPDEST PUSH0 PUSH1 0x7 PUSH0 DUP5 DUP2 MSTORE PUSH1 0x20 ADD SWAP1 DUP2 MSTORE PUSH1 0x20 ADD PUSH0 KECCAK256 SWAP1 POP PUSH0 DUP2 PUSH1 0x4 ADD SLOAD GT PUSH2 0x5FA JUMPI PUSH1 0x40 MLOAD PUSH32 0x8C379A000000000000000000000000000000000000000000000000000000000 DUP2 MSTORE PUSH1 0x4 ADD PUSH2 0x5F1 SWAP1 PUSH2 0x218B JUMP JUMPDEST PUSH1 0x40 MLOAD DUP1 SWAP2 SUB SWAP1 REVERT JUMPDEST CALLER PUSH20 0xFFFFFFFFFFFFFFFFFFFFFFFFFFFFFFFFFFFFFFFF AND DUP2 PUSH0 ADD PUSH0 SWAP1 SLOAD SWAP1 PUSH2 0x100 EXP SWAP1 DIV PUSH20 0xFFFFFFFFFFFFFFFFFFFFFFFFFFFFFFFFFFFFFFFF AND PUSH20 0xFFFFFFFFFFFFFFFFFFFFFFFFFFFFFFFFFFFFFFFF AND EQ PUSH2 0x68A JUMPI PUSH1 0x40 MLOAD PUSH32 0x8C379A000000000000000000000000000000000000000000000000000000000 DUP2 MSTORE PUSH1 0x4 ADD PUSH2 0x681 SWAP1 PUSH2 0x223F JUMP JUMPDEST PUSH1 0x40 MLOAD DUP1 SWAP2 SUB SWAP1 REVERT JUMPDEST DUP2 DUP2 PUSH1 0x3 ADD DUP2 SWAP1 SSTORE POP POP POP POP JUMP JUMPDEST PUSH1 0x7 PUSH1 0x20 MSTORE DUP1 PUSH0 MSTORE PUSH1 0x40 PUSH0 KECCAK256 PUSH0 SWAP2 POP SWAP1 POP DUP1 PUSH0 ADD PUSH0 SWAP1 SLOAD SWAP1 PUSH2 0x100 EXP SWAP1 DIV PUSH20 0xFFFFFFFFFFFFFFFFFFFFFFFFFFFFFFFFFFFFFFFF AND SWAP1 DUP1 PUSH1 0x1 ADD DUP1 SLOAD PUSH2 0x6DC SWAP1 PUSH2 0x228A JUMP JUMPDEST DUP1 PUSH1 0x1F ADD PUSH1 0x20 DUP1 SWAP2 DIV MUL PUSH1 0x20 ADD PUSH1 0x40 MLOAD SWAP1 DUP2 ADD PUSH1 0x40 MSTORE DUP1 SWAP3 SWAP2 SWAP1 DUP2 DUP2 MSTORE PUSH1 0x20 ADD DUP3 DUP1 SLOAD PUSH2 0x708 SWAP1 PUSH2 0x228A JUMP JUMPDEST DUP1 ISZERO PUSH2 0x753 JUMPI DUP1 PUSH1 0x1F LT PUSH2 0x72A JUMPI PUSH2 0x100 DUP1 DUP4 SLOAD DIV MUL DUP4 MSTORE SWAP2 PUSH1 0x20 ADD SWAP2 PUSH2 0x753 JUMP JUMPDEST DUP3 ADD SWAP2 SWAP1 PUSH0 MSTORE PUSH1 0x20 PUSH0 KECCAK256 SWAP1 JUMPDEST DUP2 SLOAD DUP2 MSTORE SWAP1 PUSH1 0x1 ADD SWAP1 PUSH1 0x20 ADD DUP1 DUP4 GT PUSH2 0x736 JUMPI DUP3 SWAP1 SUB PUSH1 0x1F AND DUP3 ADD SWAP2 JUMPDEST POP POP POP POP POP SWAP1 DUP1 PUSH1 0x2 ADD DUP1 SLOAD PUSH2 0x768 SWAP1 PUSH2 0x228A JUMP JUMPDEST DUP1 PUSH1 0x1F ADD PUSH1 0x20 DUP1 SWAP2 DIV MUL PUSH1 0x20 ADD PUSH1 0x40 MLOAD SWAP1 DUP2 ADD PUSH1 0x40 MSTORE DUP1 SWAP3 SWAP2 SWAP1 DUP2 DUP2 MSTORE PUSH1 0x20 ADD DUP3 DUP1 SLOAD PUSH2 0x794 SWAP1 PUSH2 0x228A JUMP JUMPDEST DUP1 ISZERO PUSH2 0x7DF JUMPI DUP1 PUSH1 0x1F LT PUSH2 0x7B6 JUMPI PUSH2 0x100 DUP1 DUP4 SLOAD DIV MUL DUP4 MSTORE SWAP2 PUSH1 0x20 ADD SWAP2 PUSH2 0x7DF JUMP JUMPDEST DUP3 ADD SWAP2 SWAP1 PUSH0 MSTORE PUSH1 0x20 PUSH0 KECCAK256 SWAP1 JUMPDEST DUP2 SLOAD DUP2 MSTORE SWAP1 PUSH1 0x1 ADD SWAP1 PUSH1 0x20 ADD DUP1 DUP4 GT PUSH2 0x7C2 JUMPI DUP3 SWAP1 SUB PUSH1 0x1F AND DUP3 ADD SWAP2 JUMPDEST POP POP POP POP POP SWAP1 DUP1 PUSH1 0x3 ADD SLOAD SWAP1 DUP1 PUSH1 0x4 ADD SLOAD SWAP1 DUP1 PUSH1 0x5 ADD SLOAD SWAP1 DUP1 PUSH1 0x6 ADD PUSH0 SWAP1 SLOAD SWAP1 PUSH2 0x100 EXP SWAP1 DIV PUSH1 0xFF AND SWAP1 DUP1 PUSH1 0x6 ADD PUSH1 0x1 SWAP1 SLOAD SWAP1 PUSH2 0x100 EXP SWAP1 DIV PUSH20 0xFFFFFFFFFFFFFFFFFFFFFFFFFFFFFFFFFFFFFFFF AND SWAP1 DUP1 PUSH1 0x7 ADD SLOAD SWAP1 DUP1 PUSH1 0x8 ADD PUSH0 SWAP1 SLOAD SWAP1 PUSH2 0x100 EXP SWAP1 DIV PUSH1 0xFF AND SWAP1 POP DUP11 JUMP JUMPDEST PUSH1 0x5 SLOAD DUP2 JUMP JUMPDEST PUSH0 PUSH0 PUSH1 0x7 PUSH0 DUP5 DUP2 MSTORE PUSH1 0x20 ADD SWAP1 DUP2 MSTORE PUSH1 0x20 ADD PUSH0 KECCAK256 SWAP1 POP DUP1 PUSH1 0x4 ADD SLOAD TIMESTAMP LT PUSH2 0x87A JUMPI PUSH0 SWAP2 POP POP PUSH2 0x88E JUMP JUMPDEST TIMESTAMP DUP2 PUSH1 0x4 ADD SLOAD PUSH2 0x88A SWAP2 SWAP1 PUSH2 0x20E8 JUMP JUMPDEST SWAP2 POP POP JUMPDEST SWAP2 SWAP1 POP JUMP JUMPDEST PUSH0 PUSH1 0x7 PUSH0 DUP4 DUP2 MSTORE PUSH1 0x20 ADD SWAP1 DUP2 MSTORE PUSH1 0x20 ADD PUSH0 KECCAK256 SWAP1 POP DUP1 PUSH1 0x3 ADD SLOAD DUP2 PUSH1 0x5 ADD SLOAD LT PUSH2 0x8F1 JUMPI PUSH1 0x40 MLOAD PUSH32 0x8C379A000000000000000000000000000000000000000000000000000000000 DUP2 MSTORE PUSH1 0x4 ADD PUSH2 0x8E8 SWAP1 PUSH2 0x232A JUMP JUMPDEST PUSH1 0x40 MLOAD DUP1 SWAP2 SUB SWAP1 REVERT JUMPDEST PUSH0 PUSH1 0x8 PUSH0 DUP5 DUP2 MSTORE PUSH1 0x20 ADD SWAP1 DUP2 MSTORE PUSH1 0x20 ADD PUSH0 KECCAK256 PUSH0 CALLER PUSH20 0xFFFFFFFFFFFFFFFFFFFFFFFFFFFFFFFFFFFFFFFF AND PUSH20 0xFFFFFFFFFFFFFFFFFFFFFFFFFFFFFFFFFFFFFFFF AND DUP2 MSTORE PUSH1 0x20 ADD SWAP1 DUP2 MSTORE PUSH1 0x20 ADD PUSH0 KECCAK256 SLOAD SWAP1 POP DUP1 DUP3 PUSH1 0x5 ADD PUSH0 DUP3 DUP3 SLOAD PUSH2 0x954 SWAP2 SWAP1 PUSH2 0x20E8 JUMP JUMPDEST SWAP3 POP POP DUP2 SWAP1 SSTORE POP DUP1 PUSH1 0x8 PUSH0 DUP6 DUP2 MSTORE PUSH1 0x20 ADD SWAP1 DUP2 MSTORE PUSH1 0x20 ADD PUSH0 KECCAK256 PUSH0 CALLER PUSH20 0xFFFFFFFFFFFFFFFFFFFFFFFFFFFFFFFFFFFFFFFF AND PUSH20 0xFFFFFFFFFFFFFFFFFFFFFFFFFFFFFFFFFFFFFFFF AND DUP2 MSTORE PUSH1 0x20 ADD SWAP1 DUP2 MSTORE PUSH1 0x20 ADD PUSH0 KECCAK256 PUSH0 DUP3 DUP3 SLOAD PUSH2 0x9B6 SWAP2 SWAP1 PUSH2 0x20E8 JUMP JUMPDEST SWAP3 POP POP DUP2 SWAP1 SSTORE POP DUP1 PUSH1 0x1 PUSH0 DUP3 DUP3 SLOAD PUSH2 0x9CE SWAP2 SWAP1 PUSH2 0x20E8 JUMP JUMPDEST SWAP3 POP POP DUP2 SWAP1 SSTORE POP CALLER PUSH20 0xFFFFFFFFFFFFFFFFFFFFFFFFFFFFFFFFFFFFFFFF AND PUSH2 0x8FC DUP3 SWAP1 DUP2 ISZERO MUL SWAP1 PUSH1 0x40 MLOAD PUSH0 PUSH1 0x40 MLOAD DUP1 DUP4 SUB DUP2 DUP6 DUP9 DUP9 CALL SWAP4 POP POP POP POP ISZERO DUP1 ISZERO PUSH2 0xA18 JUMPI RETURNDATASIZE PUSH0 PUSH0 RETURNDATACOPY RETURNDATASIZE PUSH0 REVERT JUMPDEST POP DUP3 PUSH32 0xB6E4E293B6C7C5CF68FBB52EDFACA6173710FCCCBCECAC03C32E62327FC000C6 CALLER DUP4 PUSH1 0x40 MLOAD PUSH2 0xA4B SWAP3 SWAP2 SWAP1 PUSH2 0x2348 JUMP JUMPDEST PUSH1 0x40 MLOAD DUP1 SWAP2 SUB SWAP1 LOG2 POP POP POP JUMP JUMPDEST PUSH0 PUSH0 PUSH1 0x7 PUSH0 DUP5 DUP2 MSTORE PUSH1 0x20 ADD SWAP1 DUP2 MSTORE PUSH1 0x20 ADD PUSH0 KECCAK256 SWAP1 POP PUSH0 DUP2 PUSH1 0x3 ADD SLOAD PUSH1 0x64 DUP4 PUSH1 0x5 ADD SLOAD PUSH2 0xA84 SWAP2 SWAP1 PUSH2 0x236F JUMP JUMPDEST PUSH2 0xA8E SWAP2 SWAP1 PUSH2 0x23DD JUMP JUMPDEST SWAP1 POP DUP1 SWAP3 POP POP POP SWAP2 SWAP1 POP JUMP JUMPDEST PUSH0 PUSH0 SWAP1 POP JUMPDEST PUSH1 0x2 SLOAD DUP2 LT ISZERO PUSH2 0xB3F JUMPI PUSH0 PUSH1 0x7 PUSH0 DUP4 DUP2 MSTORE PUSH1 0x20 ADD SWAP1 DUP2 MSTORE PUSH1 0x20 ADD PUSH0 KECCAK256 SWAP1 POP DUP1 PUSH1 0x6 ADD PUSH0 SWAP1 SLOAD SWAP1 PUSH2 0x100 EXP SWAP1 DIV PUSH1 0xFF AND ISZERO DUP1 ISZERO PUSH2 0xADE JUMPI POP DUP1 PUSH1 0x4 ADD SLOAD TIMESTAMP GT JUMPDEST DUP1 ISZERO PUSH2 0xAF8 JUMPI POP DUP1 PUSH1 0x8 ADD PUSH0 SWAP1 SLOAD SWAP1 PUSH2 0x100 EXP SWAP1 DIV PUSH1 0xFF AND ISZERO JUMPDEST ISZERO PUSH2 0xB31 JUMPI PUSH1 0x5 PUSH0 DUP2 SLOAD DUP1 SWAP3 SWAP2 SWAP1 PUSH2 0xB0F SWAP1 PUSH2 0x240D JUMP JUMPDEST SWAP2 SWAP1 POP SSTORE POP PUSH1 0x1 DUP2 PUSH1 0x8 ADD PUSH0 PUSH2 0x100 EXP DUP2 SLOAD DUP2 PUSH1 0xFF MUL NOT AND SWAP1 DUP4 ISZERO ISZERO MUL OR SWAP1 SSTORE POP JUMPDEST POP DUP1 DUP1 PUSH1 0x1 ADD SWAP2 POP POP PUSH2 0xA9F JUMP JUMPDEST POP JUMP JUMPDEST PUSH0 PUSH1 0x1 SLOAD SWAP1 POP SWAP1 JUMP JUMPDEST PUSH1 0x8 PUSH1 0x20 MSTORE DUP2 PUSH0 MSTORE PUSH1 0x40 PUSH0 KECCAK256 PUSH1 0x20 MSTORE DUP1 PUSH0 MSTORE PUSH1 0x40 PUSH0 KECCAK256 PUSH0 SWAP2 POP SWAP2 POP POP SLOAD DUP2 JUMP JUMPDEST PUSH0 PUSH1 0x7 PUSH0 DUP5 DUP2 MSTORE PUSH1 0x20 ADD SWAP1 DUP2 MSTORE PUSH1 0x20 ADD PUSH0 KECCAK256 SWAP1 POP CALLER PUSH20 0xFFFFFFFFFFFFFFFFFFFFFFFFFFFFFFFFFFFFFFFF AND DUP2 PUSH0 ADD PUSH0 SWAP1 SLOAD SWAP1 PUSH2 0x100 EXP SWAP1 DIV PUSH20 0xFFFFFFFFFFFFFFFFFFFFFFFFFFFFFFFFFFFFFFFF AND PUSH20 0xFFFFFFFFFFFFFFFFFFFFFFFFFFFFFFFFFFFFFFFF AND EQ PUSH2 0xC0F JUMPI PUSH1 0x40 MLOAD PUSH32 0x8C379A000000000000000000000000000000000000000000000000000000000 DUP2 MSTORE PUSH1 0x4 ADD PUSH2 0xC06 SWAP1 PUSH2 0x24C4 JUMP JUMPDEST PUSH1 0x40 MLOAD DUP1 SWAP2 SUB SWAP1 REVERT JUMPDEST DUP2 DUP2 PUSH1 0x4 ADD PUSH0 DUP3 DUP3 SLOAD PUSH2 0xC22 SWAP2 SWAP1 PUSH2 0x24E2 JUMP JUMPDEST SWAP3 POP POP DUP2 SWAP1 SSTORE POP POP POP POP JUMP JUMPDEST PUSH2 0xC36 PUSH2 0x1AD3 JUMP JUMPDEST PUSH0 PUSH1 0x7 PUSH0 DUP4 DUP2 MSTORE PUSH1 0x20 ADD SWAP1 DUP2 MSTORE PUSH1 0x20 ADD PUSH0 KECCAK256 SWAP1 POP DUP1 PUSH1 0x4 ADD SLOAD TIMESTAMP GT ISZERO PUSH2 0xC91 JUMPI PUSH1 0x40 MLOAD PUSH32 0x8C379A000000000000000000000000000000000000000000000000000000000 DUP2 MSTORE PUSH1 0x4 ADD PUSH2 0xC88 SWAP1 PUSH2 0x255F JUMP JUMPDEST PUSH1 0x40 MLOAD DUP1 SWAP2 SUB SWAP1 REVERT JUMPDEST DUP1 PUSH1 0x6 ADD PUSH0 SWAP1 SLOAD SWAP1 PUSH2 0x100 EXP SWAP1 DIV PUSH1 0xFF AND ISZERO PUSH2 0xCE2 JUMPI PUSH1 0x40 MLOAD PUSH32 0x8C379A000000000000000000000000000000000000000000000000000000000 DUP2 MSTORE PUSH1 0x4 ADD PUSH2 0xCD9 SWAP1 PUSH2 0x25ED JUMP JUMPDEST PUSH1 0x40 MLOAD DUP1 SWAP2 SUB SWAP1 REVERT JUMPDEST PUSH0 CALLVALUE GT PUSH2 0xD24 JUMPI PUSH1 0x40 MLOAD PUSH32 0x8C379A000000000000000000000000000000000000000000000000000000000 DUP2 MSTORE PUSH1 0x4 ADD PUSH2 0xD1B SWAP1 PUSH2 0x267B JUMP JUMPDEST PUSH1 0x40 MLOAD DUP1 SWAP2 SUB SWAP1 REVERT JUMPDEST DUP1 PUSH1 0x3 ADD SLOAD CALLVALUE GT ISZERO PUSH2 0xD6B JUMPI PUSH1 0x40 MLOAD PUSH32 0x8C379A000000000000000000000000000000000000000000000000000000000 DUP2 MSTORE PUSH1 0x4 ADD PUSH2 0xD62 SWAP1 PUSH2 0x2709 JUMP JUMPDEST PUSH1 0x40 MLOAD DUP1 SWAP2 SUB SWAP1 REVERT JUMPDEST PUSH0 DUP2 PUSH1 0x5 ADD SLOAD DUP3 PUSH1 0x3 ADD SLOAD PUSH2 0xD80 SWAP2 SWAP1 PUSH2 0x20E8 JUMP JUMPDEST SWAP1 POP PUSH0 PUSH0 DUP3 CALLVALUE GT ISZERO PUSH2 0xDA2 JUMPI DUP3 SWAP2 POP DUP3 CALLVALUE PUSH2 0xD9B SWAP2 SWAP1 PUSH2 0x20E8 JUMP JUMPDEST SWAP1 POP PUSH2 0xDA9 JUMP JUMPDEST CALLVALUE SWAP2 POP PUSH0 SWAP1 POP JUMPDEST DUP2 DUP5 PUSH1 0x5 ADD PUSH0 DUP3 DUP3 SLOAD PUSH2 0xDBC SWAP2 SWAP1 PUSH2 0x24E2 JUMP JUMPDEST SWAP3 POP POP DUP2 SWAP1 SSTORE POP DUP2 PUSH1 0x8 PUSH0 DUP8 DUP2 MSTORE PUSH1 0x20 ADD SWAP1 DUP2 MSTORE PUSH1 0x20 ADD PUSH0 KECCAK256 PUSH0 CALLER PUSH20 0xFFFFFFFFFFFFFFFFFFFFFFFFFFFFFFFFFFFFFFFF AND PUSH20 0xFFFFFFFFFFFFFFFFFFFFFFFFFFFFFFFFFFFFFFFF AND DUP2 MSTORE PUSH1 0x20 ADD SWAP1 DUP2 MSTORE PUSH1 0x20 ADD PUSH0 KECCAK256 DUP2 SWAP1 SSTORE POP DUP2 PUSH1 0x1 PUSH0 DUP3 DUP3 SLOAD PUSH2 0xE25 SWAP2 SWAP1 PUSH2 0x24E2 JUMP JUMPDEST SWAP3 POP POP DUP2 SWAP1 SSTORE POP PUSH0 DUP2 GT ISZERO PUSH2 0xEDE JUMPI PUSH0 CALLER PUSH20 0xFFFFFFFFFFFFFFFFFFFFFFFFFFFFFFFFFFFFFFFF AND DUP3 PUSH1 0x40 MLOAD PUSH2 0xE59 SWAP1 PUSH2 0x2754 JUMP JUMPDEST PUSH0 PUSH1 0x40 MLOAD DUP1 DUP4 SUB DUP2 DUP6 DUP8 GAS CALL SWAP3 POP POP POP RETURNDATASIZE DUP1 PUSH0 DUP2 EQ PUSH2 0xE93 JUMPI PUSH1 0x40 MLOAD SWAP2 POP PUSH1 0x1F NOT PUSH1 0x3F RETURNDATASIZE ADD AND DUP3 ADD PUSH1 0x40 MSTORE RETURNDATASIZE DUP3 MSTORE RETURNDATASIZE PUSH0 PUSH1 0x20 DUP5 ADD RETURNDATACOPY PUSH2 0xE98 JUMP JUMPDEST PUSH1 0x60 SWAP2 POP JUMPDEST POP POP SWAP1 POP DUP1 PUSH2 0xEDC JUMPI PUSH1 0x40 MLOAD PUSH32 0x8C379A000000000000000000000000000000000000000000000000000000000 DUP2 MSTORE PUSH1 0x4 ADD PUSH2 0xED3 SWAP1 PUSH2 0x27B2 JUMP JUMPDEST PUSH1 0x40 MLOAD DUP1 SWAP2 SUB SWAP1 REVERT JUMPDEST POP JUMPDEST PUSH0 PUSH1 0x8 PUSH0 DUP8 DUP2 MSTORE PUSH1 0x20 ADD SWAP1 DUP2 MSTORE PUSH1 0x20 ADD PUSH0 KECCAK256 PUSH0 CALLER PUSH20 0xFFFFFFFFFFFFFFFFFFFFFFFFFFFFFFFFFFFFFFFF AND PUSH20 0xFFFFFFFFFFFFFFFFFFFFFFFFFFFFFFFFFFFFFFFF AND DUP2 MSTORE PUSH1 0x20 ADD SWAP1 DUP2 MSTORE PUSH1 0x20 ADD PUSH0 KECCAK256 SLOAD SWAP1 POP DUP5 PUSH1 0x7 ADD SLOAD DUP2 GT ISZERO PUSH2 0xF87 JUMPI DUP1 DUP6 PUSH1 0x7 ADD DUP2 SWAP1 SSTORE POP CALLER DUP6 PUSH1 0x6 ADD PUSH1 0x1 PUSH2 0x100 EXP DUP2 SLOAD DUP2 PUSH20 0xFFFFFFFFFFFFFFFFFFFFFFFFFFFFFFFFFFFFFFFF MUL NOT AND SWAP1 DUP4 PUSH20 0xFFFFFFFFFFFFFFFFFFFFFFFFFFFFFFFFFFFFFFFF AND MUL OR SWAP1 SSTORE POP JUMPDEST DUP6 PUSH32 0x7DD983E9D08B449D571F3583275E98423857F3FFBE9EF56F927EB02B1C8AB599 CALLER DUP6 DUP6 PUSH1 0x40 MLOAD PUSH2 0xFBB SWAP4 SWAP3 SWAP2 SWAP1 PUSH2 0x27D0 JUMP JUMPDEST PUSH1 0x40 MLOAD DUP1 SWAP2 SUB SWAP1 LOG2 DUP5 PUSH1 0x3 ADD SLOAD DUP6 PUSH1 0x5 ADD SLOAD LT PUSH2 0xFEF JUMPI PUSH1 0x1 DUP6 PUSH1 0x6 ADD PUSH0 PUSH2 0x100 EXP DUP2 SLOAD DUP2 PUSH1 0xFF MUL NOT AND SWAP1 DUP4 ISZERO ISZERO MUL OR SWAP1 SSTORE POP JUMPDEST DUP5 PUSH1 0x6 ADD PUSH0 SWAP1 SLOAD SWAP1 PUSH2 0x100 EXP SWAP1 DIV PUSH1 0xFF AND ISZERO DUP1 ISZERO PUSH2 0x1020 JUMPI POP DUP5 PUSH1 0x4 ADD SLOAD CALLVALUE DUP7 PUSH1 0x5 ADD SLOAD PUSH2 0x101D SWAP2 SWAP1 PUSH2 0x24E2 JUMP JUMPDEST LT ISZERO JUMPDEST ISZERO PUSH2 0x1059 JUMPI PUSH1 0x1 DUP6 PUSH1 0x6 ADD PUSH0 PUSH2 0x100 EXP DUP2 SLOAD DUP2 PUSH1 0xFF MUL NOT AND SWAP1 DUP4 ISZERO ISZERO MUL OR SWAP1 SSTORE POP PUSH1 0x4 PUSH0 DUP2 SLOAD DUP1 SWAP3 SWAP2 SWAP1 PUSH2 0x1053 SWAP1 PUSH2 0x240D JUMP JUMPDEST SWAP2 SWAP1 POP SSTORE POP JUMPDEST POP POP POP POP POP PUSH2 0x1066 PUSH2 0x1B17 JUMP JUMPDEST POP JUMP JUMPDEST PUSH0 PUSH1 0x7 PUSH0 DUP4 DUP2 MSTORE PUSH1 0x20 ADD SWAP1 DUP2 MSTORE PUSH1 0x20 ADD PUSH0 KECCAK256 SWAP1 POP PUSH0 DUP2 PUSH1 0x5 ADD SLOAD SWAP1 POP DUP2 PUSH1 0x6 ADD PUSH0 SWAP1 SLOAD SWAP1 PUSH2 0x100 EXP SWAP1 DIV PUSH1 0xFF AND PUSH2 0x10D5 JUMPI PUSH1 0x40 MLOAD PUSH32 0x8C379A000000000000000000000000000000000000000000000000000000000 DUP2 MSTORE PUSH1 0x4 ADD PUSH2 0x10CC SWAP1 PUSH2 0x2875 JUMP JUMPDEST PUSH1 0x40 MLOAD DUP1 SWAP2 SUB SWAP1 REVERT JUMPDEST CALLER PUSH20 0xFFFFFFFFFFFFFFFFFFFFFFFFFFFFFFFFFFFFFFFF AND DUP3 PUSH0 ADD PUSH0 SWAP1 SLOAD SWAP1 PUSH2 0x100 EXP SWAP1 DIV PUSH20 0xFFFFFFFFFFFFFFFFFFFFFFFFFFFFFFFFFFFFFFFF AND PUSH20 0xFFFFFFFFFFFFFFFFFFFFFFFFFFFFFFFFFFFFFFFF AND EQ PUSH2 0x1165 JUMPI PUSH1 0x40 MLOAD PUSH32 0x8C379A000000000000000000000000000000000000000000000000000000000 DUP2 MSTORE PUSH1 0x4 ADD PUSH2 0x115C SWAP1 PUSH2 0x28DD JUMP JUMPDEST PUSH1 0x40 MLOAD DUP1 SWAP2 SUB SWAP1 REVERT JUMPDEST TIMESTAMP DUP3 PUSH1 0x4 ADD SLOAD GT ISZERO PUSH2 0x11AC JUMPI PUSH1 0x40 MLOAD PUSH32 0x8C379A000000000000000000000000000000000000000000000000000000000 DUP2 MSTORE PUSH1 0x4 ADD PUSH2 0x11A3 SWAP1 PUSH2 0x296B JUMP JUMPDEST PUSH1 0x40 MLOAD DUP1 SWAP2 SUB SWAP1 REVERT JUMPDEST CALLER PUSH20 0xFFFFFFFFFFFFFFFFFFFFFFFFFFFFFFFFFFFFFFFF AND PUSH2 0x8FC DUP3 SWAP1 DUP2 ISZERO MUL SWAP1 PUSH1 0x40 MLOAD PUSH0 PUSH1 0x40 MLOAD DUP1 DUP4 SUB DUP2 DUP6 DUP9 DUP9 CALL SWAP4 POP POP POP POP ISZERO DUP1 ISZERO PUSH2 0x11EF JUMPI RETURNDATASIZE PUSH0 PUSH0 RETURNDATACOPY RETURNDATASIZE PUSH0 REVERT JUMPDEST POP DUP3 PUSH32 0xCAE030E1A3C6B0011E7009BD65734E2E1E330528F6983497631FABD47FA7A281 CALLER CALLVALUE PUSH1 0x40 MLOAD PUSH2 0x1222 SWAP3 SWAP2 SWAP1 PUSH2 0x2348 JUMP JUMPDEST PUSH1 0x40 MLOAD DUP1 SWAP2 SUB SWAP1 LOG2 POP POP POP JUMP JUMPDEST CALLER PUSH20 0xFFFFFFFFFFFFFFFFFFFFFFFFFFFFFFFFFFFFFFFF AND PUSH1 0x3 PUSH0 SWAP1 SLOAD SWAP1 PUSH2 0x100 EXP SWAP1 DIV PUSH20 0xFFFFFFFFFFFFFFFFFFFFFFFFFFFFFFFFFFFFFFFF AND PUSH20 0xFFFFFFFFFFFFFFFFFFFFFFFFFFFFFFFFFFFFFFFF AND EQ PUSH2 0x12BE JUMPI PUSH1 0x40 MLOAD PUSH32 0x8C379A000000000000000000000000000000000000000000000000000000000 DUP2 MSTORE PUSH1 0x4 ADD PUSH2 0x12B5 SWAP1 PUSH2 0x29D3 JUMP JUMPDEST PUSH1 0x40 MLOAD DUP1 SWAP2 SUB SWAP1 REVERT JUMPDEST PUSH0 PUSH1 0x6 PUSH0 DUP4 PUSH20 0xFFFFFFFFFFFFFFFFFFFFFFFFFFFFFFFFFFFFFFFF AND PUSH20 0xFFFFFFFFFFFFFFFFFFFFFFFFFFFFFFFFFFFFFFFF AND DUP2 MSTORE PUSH1 0x20 ADD SWAP1 DUP2 MSTORE PUSH1 0x20 ADD PUSH0 KECCAK256 PUSH0 PUSH2 0x100 EXP DUP2 SLOAD DUP2 PUSH1 0xFF MUL NOT AND SWAP1 DUP4 ISZERO ISZERO MUL OR SWAP1 SSTORE POP DUP1 PUSH20 0xFFFFFFFFFFFFFFFFFFFFFFFFFFFFFFFFFFFFFFFF AND PUSH32 0x925D0E195CC39B7ADE3FD58FDF494022E37BFD6242C2BE09C0B2863977C1879 PUSH1 0x40 MLOAD PUSH1 0x40 MLOAD DUP1 SWAP2 SUB SWAP1 LOG2 POP JUMP JUMPDEST PUSH1 0x6 PUSH1 0x20 MSTORE DUP1 PUSH0 MSTORE PUSH1 0x40 PUSH0 KECCAK256 PUSH0 SWAP2 POP SLOAD SWAP1 PUSH2 0x100 EXP SWAP1 DIV PUSH1 0xFF AND DUP2 JUMP JUMPDEST PUSH1 0x2 SLOAD DUP2 JUMP JUMPDEST PUSH0 PUSH1 0x7 PUSH0 DUP5 DUP2 MSTORE PUSH1 0x20 ADD SWAP1 DUP2 MSTORE PUSH1 0x20 ADD PUSH0 KECCAK256 SWAP1 POP DUP1 PUSH1 0x4 ADD SLOAD TIMESTAMP LT PUSH2 0x13D5 JUMPI PUSH1 0x40 MLOAD PUSH32 0x8C379A000000000000000000000000000000000000000000000000000000000 DUP2 MSTORE PUSH1 0x4 ADD PUSH2 0x13CC SWAP1 PUSH2 0x2A3B JUMP JUMPDEST PUSH1 0x40 MLOAD DUP1 SWAP2 SUB SWAP1 REVERT JUMPDEST PUSH0 PUSH1 0x8 PUSH0 DUP6 DUP2 MSTORE PUSH1 0x20 ADD SWAP1 DUP2 MSTORE PUSH1 0x20 ADD PUSH0 KECCAK256 PUSH0 CALLER PUSH20 0xFFFFFFFFFFFFFFFFFFFFFFFFFFFFFFFFFFFFFFFF AND PUSH20 0xFFFFFFFFFFFFFFFFFFFFFFFFFFFFFFFFFFFFFFFF AND DUP2 MSTORE PUSH1 0x20 ADD SWAP1 DUP2 MSTORE PUSH1 0x20 ADD PUSH0 KECCAK256 SLOAD SWAP1 POP PUSH0 DUP2 GT PUSH2 0x1467 JUMPI PUSH1 0x40 MLOAD PUSH32 0x8C379A000000000000000000000000000000000000000000000000000000000 DUP2 MSTORE PUSH1 0x4 ADD PUSH2 0x145E SWAP1 PUSH2 0x2AA3 JUMP JUMPDEST PUSH1 0x40 MLOAD DUP1 SWAP2 SUB SWAP1 REVERT JUMPDEST DUP1 DUP4 GT ISZERO PUSH2 0x14AA JUMPI PUSH1 0x40 MLOAD PUSH32 0x8C379A000000000000000000000000000000000000000000000000000000000 DUP2 MSTORE PUSH1 0x4 ADD PUSH2 0x14A1 SWAP1 PUSH2 0x2B31 JUMP JUMPDEST PUSH1 0x40 MLOAD DUP1 SWAP2 SUB SWAP1 REVERT JUMPDEST DUP3 DUP3 PUSH1 0x5 ADD PUSH0 DUP3 DUP3 SLOAD PUSH2 0x14BD SWAP2 SWAP1 PUSH2 0x20E8 JUMP JUMPDEST SWAP3 POP POP DUP2 SWAP1 SSTORE POP DUP3 PUSH1 0x8 PUSH0 DUP7 DUP2 MSTORE PUSH1 0x20 ADD SWAP1 DUP2 MSTORE PUSH1 0x20 ADD PUSH0 KECCAK256 PUSH0 CALLER PUSH20 0xFFFFFFFFFFFFFFFFFFFFFFFFFFFFFFFFFFFFFFFF AND PUSH20 0xFFFFFFFFFFFFFFFFFFFFFFFFFFFFFFFFFFFFFFFF AND DUP2 MSTORE PUSH1 0x20 ADD SWAP1 DUP2 MSTORE PUSH1 0x20 ADD PUSH0 KECCAK256 PUSH0 DUP3 DUP3 SLOAD PUSH2 0x151F SWAP2 SWAP1 PUSH2 0x20E8 JUMP JUMPDEST SWAP3 POP POP DUP2 SWAP1 SSTORE POP DUP3 PUSH1 0x1 PUSH0 DUP3 DUP3 SLOAD PUSH2 0x1537 SWAP2 SWAP1 PUSH2 0x20E8 JUMP JUMPDEST SWAP3 POP POP DUP2 SWAP1 SSTORE POP PUSH0 CALLER PUSH20 0xFFFFFFFFFFFFFFFFFFFFFFFFFFFFFFFFFFFFFFFF AND DUP5 PUSH1 0x40 MLOAD PUSH2 0x1563 SWAP1 PUSH2 0x2754 JUMP JUMPDEST PUSH0 PUSH1 0x40 MLOAD DUP1 DUP4 SUB DUP2 DUP6 DUP8 GAS CALL SWAP3 POP POP POP RETURNDATASIZE DUP1 PUSH0 DUP2 EQ PUSH2 0x159D JUMPI PUSH1 0x40 MLOAD SWAP2 POP PUSH1 0x1F NOT PUSH1 0x3F RETURNDATASIZE ADD AND DUP3 ADD PUSH1 0x40 MSTORE RETURNDATASIZE DUP3 MSTORE RETURNDATASIZE PUSH0 PUSH1 0x20 DUP5 ADD RETURNDATACOPY PUSH2 0x15A2 JUMP JUMPDEST PUSH1 0x60 SWAP2 POP JUMPDEST POP POP SWAP1 POP DUP1 PUSH2 0x15E6 JUMPI PUSH1 0x40 MLOAD PUSH32 0x8C379A000000000000000000000000000000000000000000000000000000000 DUP2 MSTORE PUSH1 0x4 ADD PUSH2 0x15DD SWAP1 PUSH2 0x2B99 JUMP JUMPDEST PUSH1 0x40 MLOAD DUP1 SWAP2 SUB SWAP1 REVERT JUMPDEST DUP5 CALLER PUSH20 0xFFFFFFFFFFFFFFFFFFFFFFFFFFFFFFFFFFFFFFFF AND PUSH32 0xB37480540FFB97FF520A59B38EA1A83AEFBFD3D2A956D958A00214B8B6551F28 DUP7 PUSH1 0x40 MLOAD PUSH2 0x162D SWAP2 SWAP1 PUSH2 0x1D74 JUMP JUMPDEST PUSH1 0x40 MLOAD DUP1 SWAP2 SUB SWAP1 LOG3 POP POP POP POP POP JUMP JUMPDEST PUSH1 0x4 SLOAD DUP2 JUMP JUMPDEST PUSH1 0x9 PUSH0 DUP3 DUP2 MSTORE PUSH1 0x20 ADD SWAP1 DUP2 MSTORE PUSH1 0x20 ADD PUSH0 KECCAK256 PUSH0 SWAP1 SLOAD SWAP1 PUSH2 0x100 EXP SWAP1 DIV PUSH1 0xFF AND ISZERO PUSH2 0x16A0 JUMPI PUSH1 0x40 MLOAD PUSH32 0x8C379A000000000000000000000000000000000000000000000000000000000 DUP2 MSTORE PUSH1 0x4 ADD PUSH2 0x1697 SWAP1 PUSH2 0x2C01 JUMP JUMPDEST PUSH1 0x40 MLOAD DUP1 SWAP2 SUB SWAP1 REVERT JUMPDEST PUSH1 0x6 PUSH0 CALLER PUSH20 0xFFFFFFFFFFFFFFFFFFFFFFFFFFFFFFFFFFFFFFFF AND PUSH20 0xFFFFFFFFFFFFFFFFFFFFFFFFFFFFFFFFFFFFFFFF AND DUP2 MSTORE PUSH1 0x20 ADD SWAP1 DUP2 MSTORE PUSH1 0x20 ADD PUSH0 KECCAK256 PUSH0 SWAP1 SLOAD SWAP1 PUSH2 0x100 EXP SWAP1 DIV PUSH1 0xFF AND PUSH2 0x1729 JUMPI PUSH1 0x40 MLOAD PUSH32 0x8C379A000000000000000000000000000000000000000000000000000000000 DUP2 MSTORE PUSH1 0x4 ADD PUSH2 0x1720 SWAP1 PUSH2 0x2C8F JUMP JUMPDEST PUSH1 0x40 MLOAD DUP1 SWAP2 SUB SWAP1 REVERT JUMPDEST PUSH1 0x1 PUSH1 0x9 PUSH0 DUP4 DUP2 MSTORE PUSH1 0x20 ADD SWAP1 DUP2 MSTORE PUSH1 0x20 ADD PUSH0 KECCAK256 PUSH0 PUSH2 0x100 EXP DUP2 SLOAD DUP2 PUSH1 0xFF MUL NOT AND SWAP1 DUP4 ISZERO ISZERO MUL OR SWAP1 SSTORE POP PUSH1 0x40 MLOAD DUP1 PUSH2 0x140 ADD PUSH1 0x40 MSTORE DUP1 CALLER PUSH20 0xFFFFFFFFFFFFFFFFFFFFFFFFFFFFFFFFFFFFFFFF AND DUP2 MSTORE PUSH1 0x20 ADD DUP7 DUP2 MSTORE PUSH1 0x20 ADD DUP6 DUP2 MSTORE PUSH1 0x20 ADD DUP5 DUP2 MSTORE PUSH1 0x20 ADD DUP4 TIMESTAMP PUSH2 0x1798 SWAP2 SWAP1 PUSH2 0x24E2 JUMP JUMPDEST DUP2 MSTORE PUSH1 0x20 ADD PUSH0 DUP2 MSTORE PUSH1 0x20 ADD PUSH0 ISZERO ISZERO DUP2 MSTORE PUSH1 0x20 ADD PUSH0 PUSH20 0xFFFFFFFFFFFFFFFFFFFFFFFFFFFFFFFFFFFFFFFF AND DUP2 MSTORE PUSH1 0x20 ADD PUSH0 DUP2 MSTORE PUSH1 0x20 ADD PUSH0 ISZERO ISZERO DUP2 MSTORE POP PUSH1 0x7 PUSH0 DUP4 DUP2 MSTORE PUSH1 0x20 ADD SWAP1 DUP2 MSTORE PUSH1 0x20 ADD PUSH0 KECCAK256 PUSH0 DUP3 ADD MLOAD DUP2 PUSH0 ADD PUSH0 PUSH2 0x100 EXP DUP2 SLOAD DUP2 PUSH20 0xFFFFFFFFFFFFFFFFFFFFFFFFFFFFFFFFFFFFFFFF MUL NOT AND SWAP1 DUP4 PUSH20 0xFFFFFFFFFFFFFFFFFFFFFFFFFFFFFFFFFFFFFFFF AND MUL OR SWAP1 SSTORE POP PUSH1 0x20 DUP3 ADD MLOAD DUP2 PUSH1 0x1 ADD SWAP1 DUP2 PUSH2 0x183D SWAP2 SWAP1 PUSH2 0x2E4D JUMP JUMPDEST POP PUSH1 0x40 DUP3 ADD MLOAD DUP2 PUSH1 0x2 ADD SWAP1 DUP2 PUSH2 0x1853 SWAP2 SWAP1 PUSH2 0x2E4D JUMP JUMPDEST POP PUSH1 0x60 DUP3 ADD MLOAD DUP2 PUSH1 0x3 ADD SSTORE PUSH1 0x80 DUP3 ADD MLOAD DUP2 PUSH1 0x4 ADD SSTORE PUSH1 0xA0 DUP3 ADD MLOAD DUP2 PUSH1 0x5 ADD SSTORE PUSH1 0xC0 DUP3 ADD MLOAD DUP2 PUSH1 0x6 ADD PUSH0 PUSH2 0x100 EXP DUP2 SLOAD DUP2 PUSH1 0xFF MUL NOT AND SWAP1 DUP4 ISZERO ISZERO MUL OR SWAP1 SSTORE POP PUSH1 0xE0 DUP3 ADD MLOAD DUP2 PUSH1 0x6 ADD PUSH1 0x1 PUSH2 0x100 EXP DUP2 SLOAD DUP2 PUSH20 0xFFFFFFFFFFFFFFFFFFFFFFFFFFFFFFFFFFFFFFFF MUL NOT AND SWAP1 DUP4 PUSH20 0xFFFFFFFFFFFFFFFFFFFFFFFFFFFFFFFFFFFFFFFF AND MUL OR SWAP1 SSTORE POP PUSH2 0x100 DUP3 ADD MLOAD DUP2 PUSH1 0x7 ADD SSTORE PUSH2 0x120 DUP3 ADD MLOAD DUP2 PUSH1 0x8 ADD PUSH0 PUSH2 0x100 EXP DUP2 SLOAD DUP2 PUSH1 0xFF MUL NOT AND SWAP1 DUP4 ISZERO ISZERO MUL OR SWAP1 SSTORE POP SWAP1 POP POP PUSH1 0x2 PUSH0 DUP2 SLOAD DUP1 SWAP3 SWAP2 SWAP1 PUSH2 0x1918 SWAP1 PUSH2 0x240D JUMP JUMPDEST SWAP2 SWAP1 POP SSTORE POP CALLER PUSH20 0xFFFFFFFFFFFFFFFFFFFFFFFFFFFFFFFFFFFFFFFF AND DUP2 PUSH32 0xAC9B83534845C9E785A6EA70F2D809DB1D72EF9A1D981753712D922F5CB55F39 DUP8 DUP8 DUP8 DUP8 TIMESTAMP PUSH2 0x1965 SWAP2 SWAP1 PUSH2 0x24E2 JUMP JUMPDEST PUSH1 0x40 MLOAD PUSH2 0x1975 SWAP5 SWAP4 SWAP3 SWAP2 SWAP1 PUSH2 0x2F1C JUMP JUMPDEST PUSH1 0x40 MLOAD DUP1 SWAP2 SUB SWAP1 LOG3 POP POP POP POP POP JUMP JUMPDEST PUSH1 0x3 PUSH0 SWAP1 SLOAD SWAP1 PUSH2 0x100 EXP SWAP1 DIV PUSH20 0xFFFFFFFFFFFFFFFFFFFFFFFFFFFFFFFFFFFFFFFF AND DUP2 JUMP JUMPDEST CALLER PUSH20 0xFFFFFFFFFFFFFFFFFFFFFFFFFFFFFFFFFFFFFFFF AND PUSH1 0x3 PUSH0 SWAP1 SLOAD SWAP1 PUSH2 0x100 EXP SWAP1 DIV PUSH20 0xFFFFFFFFFFFFFFFFFFFFFFFFFFFFFFFFFFFFFFFF AND PUSH20 0xFFFFFFFFFFFFFFFFFFFFFFFFFFFFFFFFFFFFFFFF AND EQ PUSH2 0x1A38 JUMPI PUSH1 0x40 MLOAD PUSH32 0x8C379A000000000000000000000000000000000000000000000000000000000 DUP2 MSTORE PUSH1 0x4 ADD PUSH2 0x1A2F SWAP1 PUSH2 0x29D3 JUMP JUMPDEST PUSH1 0x40 MLOAD DUP1 SWAP2 SUB SWAP1 REVERT JUMPDEST PUSH1 0x1 PUSH1 0x6 PUSH0 DUP4 PUSH20 0xFFFFFFFFFFFFFFFFFFFFFFFFFFFFFFFFFFFFFFFF AND PUSH20 0xFFFFFFFFFFFFFFFFFFFFFFFFFFFFFFFFFFFFFFFF AND DUP2 MSTORE PUSH1 0x20 ADD SWAP1 DUP2 MSTORE PUSH1 0x20 ADD PUSH0 KECCAK256 PUSH0 PUSH2 0x100 EXP DUP2 SLOAD DUP2 PUSH1 0xFF MUL NOT AND SWAP1 DUP4 ISZERO ISZERO MUL OR SWAP1 SSTORE POP DUP1 PUSH20 0xFFFFFFFFFFFFFFFFFFFFFFFFFFFFFFFFFFFFFFFF AND PUSH32 0x1F9F86DC4A3CE57EE42E33C59DEF65713163420D0AB979169EF129299FF2B85E PUSH1 0x40 MLOAD PUSH1 0x40 MLOAD DUP1 SWAP2 SUB SWAP1 LOG2 POP JUMP JUMPDEST PUSH1 0x2 PUSH0 SLOAD SUB PUSH2 0x1B0E JUMPI PUSH1 0x40 MLOAD PUSH32 0x3EE5AEB500000000000000000000000000000000000000000000000000000000 DUP2 MSTORE PUSH1 0x4 ADD PUSH1 0x40 MLOAD DUP1 SWAP2 SUB SWAP1 REVERT JUMPDEST PUSH1 0x2 PUSH0 DUP2 SWAP1 SSTORE POP JUMP JUMPDEST PUSH1 0x1 PUSH0 DUP2 SWAP1 SSTORE POP JUMP JUMPDEST PUSH0 PUSH1 0x40 MLOAD SWAP1 POP SWAP1 JUMP JUMPDEST PUSH0 PUSH0 REVERT JUMPDEST PUSH0 PUSH0 REVERT JUMPDEST PUSH0 DUP2 SWAP1 POP SWAP2 SWAP1 POP JUMP JUMPDEST PUSH2 0x1B43 DUP2 PUSH2 0x1B31 JUMP JUMPDEST DUP2 EQ PUSH2 0x1B4D JUMPI PUSH0 PUSH0 REVERT JUMPDEST POP JUMP JUMPDEST PUSH0 DUP2 CALLDATALOAD SWAP1 POP PUSH2 0x1B5E DUP2 PUSH2 0x1B3A JUMP JUMPDEST SWAP3 SWAP2 POP POP JUMP JUMPDEST PUSH0 PUSH1 0x20 DUP3 DUP5 SUB SLT ISZERO PUSH2 0x1B79 JUMPI PUSH2 0x1B78 PUSH2 0x1B29 JUMP JUMPDEST JUMPDEST PUSH0 PUSH2 0x1B86 DUP5 DUP3 DUP6 ADD PUSH2 0x1B50 JUMP JUMPDEST SWAP2 POP POP SWAP3 SWAP2 POP POP JUMP JUMPDEST PUSH2 0x1B98 DUP2 PUSH2 0x1B31 JUMP JUMPDEST DUP3 MSTORE POP POP JUMP JUMPDEST PUSH0 PUSH1 0x40 DUP3 ADD SWAP1 POP PUSH2 0x1BB1 PUSH0 DUP4 ADD DUP6 PUSH2 0x1B8F JUMP JUMPDEST PUSH2 0x1BBE PUSH1 0x20 DUP4 ADD DUP5 PUSH2 0x1B8F JUMP JUMPDEST SWAP4 SWAP3 POP POP POP JUMP JUMPDEST PUSH0 PUSH0 PUSH1 0x40 DUP4 DUP6 SUB SLT ISZERO PUSH2 0x1BDB JUMPI PUSH2 0x1BDA PUSH2 0x1B29 JUMP JUMPDEST JUMPDEST PUSH0 PUSH2 0x1BE8 DUP6 DUP3 DUP7 ADD PUSH2 0x1B50 JUMP JUMPDEST SWAP3 POP POP PUSH1 0x20 PUSH2 0x1BF9 DUP6 DUP3 DUP7 ADD PUSH2 0x1B50 JUMP JUMPDEST SWAP2 POP POP SWAP3 POP SWAP3 SWAP1 POP JUMP JUMPDEST PUSH0 PUSH20 0xFFFFFFFFFFFFFFFFFFFFFFFFFFFFFFFFFFFFFFFF DUP3 AND SWAP1 POP SWAP2 SWAP1 POP JUMP JUMPDEST PUSH0 PUSH2 0x1C2C DUP3 PUSH2 0x1C03 JUMP JUMPDEST SWAP1 POP SWAP2 SWAP1 POP JUMP JUMPDEST PUSH2 0x1C3C DUP2 PUSH2 0x1C22 JUMP JUMPDEST DUP3 MSTORE POP POP JUMP JUMPDEST PUSH0 DUP2 MLOAD SWAP1 POP SWAP2 SWAP1 POP JUMP JUMPDEST PUSH0 DUP3 DUP3 MSTORE PUSH1 0x20 DUP3 ADD SWAP1 POP SWAP3 SWAP2 POP POP JUMP JUMPDEST DUP3 DUP2 DUP4 MCOPY PUSH0 DUP4 DUP4 ADD MSTORE POP POP POP JUMP JUMPDEST PUSH0 PUSH1 0x1F NOT PUSH1 0x1F DUP4 ADD AND SWAP1 POP SWAP2 SWAP1 POP JUMP JUMPDEST PUSH0 PUSH2 0x1C84 DUP3 PUSH2 0x1C42 JUMP JUMPDEST PUSH2 0x1C8E DUP2 DUP6 PUSH2 0x1C4C JUMP JUMPDEST SWAP4 POP PUSH2 0x1C9E DUP2 DUP6 PUSH1 0x20 DUP7 ADD PUSH2 0x1C5C JUMP JUMPDEST PUSH2 0x1CA7 DUP2 PUSH2 0x1C6A JUMP JUMPDEST DUP5 ADD SWAP2 POP POP SWAP3 SWAP2 POP POP JUMP JUMPDEST PUSH0 DUP2 ISZERO ISZERO SWAP1 POP SWAP2 SWAP1 POP JUMP JUMPDEST PUSH2 0x1CC6 DUP2 PUSH2 0x1CB2 JUMP JUMPDEST DUP3 MSTORE POP POP JUMP JUMPDEST PUSH0 PUSH2 0x140 DUP3 ADD SWAP1 POP PUSH2 0x1CE0 PUSH0 DUP4 ADD DUP14 PUSH2 0x1C33 JUMP JUMPDEST DUP2 DUP2 SUB PUSH1 0x20 DUP4 ADD MSTORE PUSH2 0x1CF2 DUP2 DUP13 PUSH2 0x1C7A JUMP JUMPDEST SWAP1 POP DUP2 DUP2 SUB PUSH1 0x40 DUP4 ADD MSTORE PUSH2 0x1D06 DUP2 DUP12 PUSH2 0x1C7A JUMP JUMPDEST SWAP1 POP PUSH2 0x1D15 PUSH1 0x60 DUP4 ADD DUP11 PUSH2 0x1B8F JUMP JUMPDEST PUSH2 0x1D22 PUSH1 0x80 DUP4 ADD DUP10 PUSH2 0x1B8F JUMP JUMPDEST PUSH2 0x1D2F PUSH1 0xA0 DUP4 ADD DUP9 PUSH2 0x1B8F JUMP JUMPDEST PUSH2 0x1D3C PUSH1 0xC0 DUP4 ADD DUP8 PUSH2 0x1CBD JUMP JUMPDEST PUSH2 0x1D49 PUSH1 0xE0 DUP4 ADD DUP7 PUSH2 0x1C33 JUMP JUMPDEST PUSH2 0x1D57 PUSH2 0x100 DUP4 ADD DUP6 PUSH2 0x1B8F JUMP JUMPDEST PUSH2 0x1D65 PUSH2 0x120 DUP4 ADD DUP5 PUSH2 0x1CBD JUMP JUMPDEST SWAP12 SWAP11 POP POP POP POP POP POP POP POP POP POP POP JUMP JUMPDEST PUSH0 PUSH1 0x20 DUP3 ADD SWAP1 POP PUSH2 0x1D87 PUSH0 DUP4 ADD DUP5 PUSH2 0x1B8F JUMP JUMPDEST SWAP3 SWAP2 POP POP JUMP JUMPDEST PUSH2 0x1D96 DUP2 PUSH2 0x1C22 JUMP JUMPDEST DUP2 EQ PUSH2 0x1DA0 JUMPI PUSH0 PUSH0 REVERT JUMPDEST POP JUMP JUMPDEST PUSH0 DUP2 CALLDATALOAD SWAP1 POP PUSH2 0x1DB1 DUP2 PUSH2 0x1D8D JUMP JUMPDEST SWAP3 SWAP2 POP POP JUMP JUMPDEST PUSH0 PUSH0 PUSH1 0x40 DUP4 DUP6 SUB SLT ISZERO PUSH2 0x1DCD JUMPI PUSH2 0x1DCC PUSH2 0x1B29 JUMP JUMPDEST JUMPDEST PUSH0 PUSH2 0x1DDA DUP6 DUP3 DUP7 ADD PUSH2 0x1B50 JUMP JUMPDEST SWAP3 POP POP PUSH1 0x20 PUSH2 0x1DEB DUP6 DUP3 DUP7 ADD PUSH2 0x1DA3 JUMP JUMPDEST SWAP2 POP POP SWAP3 POP SWAP3 SWAP1 POP JUMP JUMPDEST PUSH0 PUSH1 0x20 DUP3 DUP5 SUB SLT ISZERO PUSH2 0x1E0A JUMPI PUSH2 0x1E09 PUSH2 0x1B29 JUMP JUMPDEST JUMPDEST PUSH0 PUSH2 0x1E17 DUP5 DUP3 DUP6 ADD PUSH2 0x1DA3 JUMP JUMPDEST SWAP2 POP POP SWAP3 SWAP2 POP POP JUMP JUMPDEST PUSH0 PUSH1 0x20 DUP3 ADD SWAP1 POP PUSH2 0x1E33 PUSH0 DUP4 ADD DUP5 PUSH2 0x1CBD JUMP JUMPDEST SWAP3 SWAP2 POP POP JUMP JUMPDEST PUSH0 PUSH0 REVERT JUMPDEST PUSH0 PUSH0 REVERT JUMPDEST PUSH32 0x4E487B7100000000000000000000000000000000000000000000000000000000 PUSH0 MSTORE PUSH1 0x41 PUSH1 0x4 MSTORE PUSH1 0x24 PUSH0 REVERT JUMPDEST PUSH2 0x1E77 DUP3 PUSH2 0x1C6A JUMP JUMPDEST DUP2 ADD DUP2 DUP2 LT PUSH8 0xFFFFFFFFFFFFFFFF DUP3 GT OR ISZERO PUSH2 0x1E96 JUMPI PUSH2 0x1E95 PUSH2 0x1E41 JUMP JUMPDEST JUMPDEST DUP1 PUSH1 0x40 MSTORE POP POP POP JUMP JUMPDEST PUSH0 PUSH2 0x1EA8 PUSH2 0x1B20 JUMP JUMPDEST SWAP1 POP PUSH2 0x1EB4 DUP3 DUP3 PUSH2 0x1E6E JUMP JUMPDEST SWAP2 SWAP1 POP JUMP JUMPDEST PUSH0 PUSH8 0xFFFFFFFFFFFFFFFF DUP3 GT ISZERO PUSH2 0x1ED3 JUMPI PUSH2 0x1ED2 PUSH2 0x1E41 JUMP JUMPDEST JUMPDEST PUSH2 0x1EDC DUP3 PUSH2 0x1C6A JUMP JUMPDEST SWAP1 POP PUSH1 0x20 DUP2 ADD SWAP1 POP SWAP2 SWAP1 POP JUMP JUMPDEST DUP3 DUP2 DUP4 CALLDATACOPY PUSH0 DUP4 DUP4 ADD MSTORE POP POP POP JUMP JUMPDEST PUSH0 PUSH2 0x1F09 PUSH2 0x1F04 DUP5 PUSH2 0x1EB9 JUMP JUMPDEST PUSH2 0x1E9F JUMP JUMPDEST SWAP1 POP DUP3 DUP2 MSTORE PUSH1 0x20 DUP2 ADD DUP5 DUP5 DUP5 ADD GT ISZERO PUSH2 0x1F25 JUMPI PUSH2 0x1F24 PUSH2 0x1E3D JUMP JUMPDEST JUMPDEST PUSH2 0x1F30 DUP5 DUP3 DUP6 PUSH2 0x1EE9 JUMP JUMPDEST POP SWAP4 SWAP3 POP POP POP JUMP JUMPDEST PUSH0 DUP3 PUSH1 0x1F DUP4 ADD SLT PUSH2 0x1F4C JUMPI PUSH2 0x1F4B PUSH2 0x1E39 JUMP JUMPDEST JUMPDEST DUP2 CALLDATALOAD PUSH2 0x1F5C DUP5 DUP3 PUSH1 0x20 DUP7 ADD PUSH2 0x1EF7 JUMP JUMPDEST SWAP2 POP POP SWAP3 SWAP2 POP POP JUMP JUMPDEST PUSH0 PUSH0 PUSH0 PUSH0 PUSH0 PUSH1 0xA0 DUP7 DUP9 SUB SLT ISZERO PUSH2 0x1F7E JUMPI PUSH2 0x1F7D PUSH2 0x1B29 JUMP JUMPDEST JUMPDEST PUSH0 DUP7 ADD CALLDATALOAD PUSH8 0xFFFFFFFFFFFFFFFF DUP2 GT ISZERO PUSH2 0x1F9B JUMPI PUSH2 0x1F9A PUSH2 0x1B2D JUMP JUMPDEST JUMPDEST PUSH2 0x1FA7 DUP9 DUP3 DUP10 ADD PUSH2 0x1F38 JUMP JUMPDEST SWAP6 POP POP PUSH1 0x20 DUP7 ADD CALLDATALOAD PUSH8 0xFFFFFFFFFFFFFFFF DUP2 GT ISZERO PUSH2 0x1FC8 JUMPI PUSH2 0x1FC7 PUSH2 0x1B2D JUMP JUMPDEST JUMPDEST PUSH2 0x1FD4 DUP9 DUP3 DUP10 ADD PUSH2 0x1F38 JUMP JUMPDEST SWAP5 POP POP PUSH1 0x40 PUSH2 0x1FE5 DUP9 DUP3 DUP10 ADD PUSH2 0x1B50 JUMP JUMPDEST SWAP4 POP POP PUSH1 0x60 PUSH2 0x1FF6 DUP9 DUP3 DUP10 ADD PUSH2 0x1B50 JUMP JUMPDEST SWAP3 POP POP PUSH1 0x80 PUSH2 0x2007 DUP9 DUP3 DUP10 ADD PUSH2 0x1B50 JUMP JUMPDEST SWAP2 POP POP SWAP3 SWAP6 POP SWAP3 SWAP6 SWAP1 SWAP4 POP JUMP JUMPDEST PUSH0 PUSH1 0x20 DUP3 ADD SWAP1 POP PUSH2 0x2027 PUSH0 DUP4 ADD DUP5 PUSH2 0x1C33 JUMP JUMPDEST SWAP3 SWAP2 POP POP JUMP JUMPDEST PUSH32 0x70726F6A65637420686173206E6F74206265656E206372656174656420796574 PUSH0 DUP3 ADD MSTORE PUSH32 0x2100000000000000000000000000000000000000000000000000000000000000 PUSH1 0x20 DUP3 ADD MSTORE POP JUMP JUMPDEST PUSH0 PUSH2 0x2087 PUSH1 0x21 DUP4 PUSH2 0x1C4C JUMP JUMPDEST SWAP2 POP PUSH2 0x2092 DUP3 PUSH2 0x202D JUMP JUMPDEST PUSH1 0x40 DUP3 ADD SWAP1 POP SWAP2 SWAP1 POP JUMP JUMPDEST PUSH0 PUSH1 0x20 DUP3 ADD SWAP1 POP DUP2 DUP2 SUB PUSH0 DUP4 ADD MSTORE PUSH2 0x20B4 DUP2 PUSH2 0x207B JUMP JUMPDEST SWAP1 POP SWAP2 SWAP1 POP JUMP JUMPDEST PUSH32 0x4E487B7100000000000000000000000000000000000000000000000000000000 PUSH0 MSTORE PUSH1 0x11 PUSH1 0x4 MSTORE PUSH1 0x24 PUSH0 REVERT JUMPDEST PUSH0 PUSH2 0x20F2 DUP3 PUSH2 0x1B31 JUMP JUMPDEST SWAP2 POP PUSH2 0x20FD DUP4 PUSH2 0x1B31 JUMP JUMPDEST SWAP3 POP DUP3 DUP3 SUB SWAP1 POP DUP2 DUP2 GT ISZERO PUSH2 0x2115 JUMPI PUSH2 0x2114 PUSH2 0x20BB JUMP JUMPDEST JUMPDEST SWAP3 SWAP2 POP POP JUMP JUMPDEST PUSH32 0x446561646C696E65206973206F766572202C20796F752043616E277420636861 PUSH0 DUP3 ADD MSTORE PUSH32 0x6E6765207468652066756E64696E6720676F616C202121000000000000000000 PUSH1 0x20 DUP3 ADD MSTORE POP JUMP JUMPDEST PUSH0 PUSH2 0x2175 PUSH1 0x37 DUP4 PUSH2 0x1C4C JUMP JUMPDEST SWAP2 POP PUSH2 0x2180 DUP3 PUSH2 0x211B JUMP JUMPDEST PUSH1 0x40 DUP3 ADD SWAP1 POP SWAP2 SWAP1 POP JUMP JUMPDEST PUSH0 PUSH1 0x20 DUP3 ADD SWAP1 POP DUP2 DUP2 SUB PUSH0 DUP4 ADD MSTORE PUSH2 0x21A2 DUP2 PUSH2 0x2169 JUMP JUMPDEST SWAP1 POP SWAP2 SWAP1 POP JUMP JUMPDEST PUSH32 0x596F7520617265206E6F74207468652070726F6A6563742063726561746F7220 PUSH0 DUP3 ADD MSTORE PUSH32 0x2C204F6E6C7920506F726A6563742063726561746F722063616E204368616E67 PUSH1 0x20 DUP3 ADD MSTORE PUSH32 0x6520212100000000000000000000000000000000000000000000000000000000 PUSH1 0x40 DUP3 ADD MSTORE POP JUMP JUMPDEST PUSH0 PUSH2 0x2229 PUSH1 0x44 DUP4 PUSH2 0x1C4C JUMP JUMPDEST SWAP2 POP PUSH2 0x2234 DUP3 PUSH2 0x21A9 JUMP JUMPDEST PUSH1 0x60 DUP3 ADD SWAP1 POP SWAP2 SWAP1 POP JUMP JUMPDEST PUSH0 PUSH1 0x20 DUP3 ADD SWAP1 POP DUP2 DUP2 SUB PUSH0 DUP4 ADD MSTORE PUSH2 0x2256 DUP2 PUSH2 0x221D JUMP JUMPDEST SWAP1 POP SWAP2 SWAP1 POP JUMP JUMPDEST PUSH32 0x4E487B7100000000000000000000000000000000000000000000000000000000 PUSH0 MSTORE PUSH1 0x22 PUSH1 0x4 MSTORE PUSH1 0x24 PUSH0 REVERT JUMPDEST PUSH0 PUSH1 0x2 DUP3 DIV SWAP1 POP PUSH1 0x1 DUP3 AND DUP1 PUSH2 0x22A1 JUMPI PUSH1 0x7F DUP3 AND SWAP2 POP JUMPDEST PUSH1 0x20 DUP3 LT DUP2 SUB PUSH2 0x22B4 JUMPI PUSH2 0x22B3 PUSH2 0x225D JUMP JUMPDEST JUMPDEST POP SWAP2 SWAP1 POP JUMP JUMPDEST PUSH32 0x46756E64696E6720676F616C206861732072656163686564202C207573657220 PUSH0 DUP3 ADD MSTORE PUSH32 0x63616E2774207769746864726177000000000000000000000000000000000000 PUSH1 0x20 DUP3 ADD MSTORE POP JUMP JUMPDEST PUSH0 PUSH2 0x2314 PUSH1 0x2E DUP4 PUSH2 0x1C4C JUMP JUMPDEST SWAP2 POP PUSH2 0x231F DUP3 PUSH2 0x22BA JUMP JUMPDEST PUSH1 0x40 DUP3 ADD SWAP1 POP SWAP2 SWAP1 POP JUMP JUMPDEST PUSH0 PUSH1 0x20 DUP3 ADD SWAP1 POP DUP2 DUP2 SUB PUSH0 DUP4 ADD MSTORE PUSH2 0x2341 DUP2 PUSH2 0x2308 JUMP JUMPDEST SWAP1 POP SWAP2 SWAP1 POP JUMP JUMPDEST PUSH0 PUSH1 0x40 DUP3 ADD SWAP1 POP PUSH2 0x235B PUSH0 DUP4 ADD DUP6 PUSH2 0x1C33 JUMP JUMPDEST PUSH2 0x2368 PUSH1 0x20 DUP4 ADD DUP5 PUSH2 0x1B8F JUMP JUMPDEST SWAP4 SWAP3 POP POP POP JUMP JUMPDEST PUSH0 PUSH2 0x2379 DUP3 PUSH2 0x1B31 JUMP JUMPDEST SWAP2 POP PUSH2 0x2384 DUP4 PUSH2 0x1B31 JUMP JUMPDEST SWAP3 POP DUP3 DUP3 MUL PUSH2 0x2392 DUP2 PUSH2 0x1B31 JUMP JUMPDEST SWAP2 POP DUP3 DUP3 DIV DUP5 EQ DUP4 ISZERO OR PUSH2 0x23A9 JUMPI PUSH2 0x23A8 PUSH2 0x20BB JUMP JUMPDEST JUMPDEST POP SWAP3 SWAP2 POP POP JUMP JUMPDEST PUSH32 0x4E487B7100000000000000000000000000000000000000000000000000000000 PUSH0 MSTORE PUSH1 0x12 PUSH1 0x4 MSTORE PUSH1 0x24 PUSH0 REVERT JUMPDEST PUSH0 PUSH2 0x23E7 DUP3 PUSH2 0x1B31 JUMP JUMPDEST SWAP2 POP PUSH2 0x23F2 DUP4 PUSH2 0x1B31 JUMP JUMPDEST SWAP3 POP DUP3 PUSH2 0x2402 JUMPI PUSH2 0x2401 PUSH2 0x23B0 JUMP JUMPDEST JUMPDEST DUP3 DUP3 DIV SWAP1 POP SWAP3 SWAP2 POP POP JUMP JUMPDEST PUSH0 PUSH2 0x2417 DUP3 PUSH2 0x1B31 JUMP JUMPDEST SWAP2 POP PUSH32 0xFFFFFFFFFFFFFFFFFFFFFFFFFFFFFFFFFFFFFFFFFFFFFFFFFFFFFFFFFFFFFFFF DUP3 SUB PUSH2 0x2449 JUMPI PUSH2 0x2448 PUSH2 0x20BB JUMP JUMPDEST JUMPDEST PUSH1 0x1 DUP3 ADD SWAP1 POP SWAP2 SWAP1 POP JUMP JUMPDEST PUSH32 0x4F6E6C792050726F6A6563742063726561746F722063616E20657874656E6420 PUSH0 DUP3 ADD MSTORE PUSH32 0x74686520646561646C696E652121000000000000000000000000000000000000 PUSH1 0x20 DUP3 ADD MSTORE POP JUMP JUMPDEST PUSH0 PUSH2 0x24AE PUSH1 0x2E DUP4 PUSH2 0x1C4C JUMP JUMPDEST SWAP2 POP PUSH2 0x24B9 DUP3 PUSH2 0x2454 JUMP JUMPDEST PUSH1 0x40 DUP3 ADD SWAP1 POP SWAP2 SWAP1 POP JUMP JUMPDEST PUSH0 PUSH1 0x20 DUP3 ADD SWAP1 POP DUP2 DUP2 SUB PUSH0 DUP4 ADD MSTORE PUSH2 0x24DB DUP2 PUSH2 0x24A2 JUMP JUMPDEST SWAP1 POP SWAP2 SWAP1 POP JUMP JUMPDEST PUSH0 PUSH2 0x24EC DUP3 PUSH2 0x1B31 JUMP JUMPDEST SWAP2 POP PUSH2 0x24F7 DUP4 PUSH2 0x1B31 JUMP JUMPDEST SWAP3 POP DUP3 DUP3 ADD SWAP1 POP DUP1 DUP3 GT ISZERO PUSH2 0x250F JUMPI PUSH2 0x250E PUSH2 0x20BB JUMP JUMPDEST JUMPDEST SWAP3 SWAP2 POP POP JUMP JUMPDEST PUSH32 0x50726F6A65637420646561646C696E65206973206F7665722100000000000000 PUSH0 DUP3 ADD MSTORE POP JUMP JUMPDEST PUSH0 PUSH2 0x2549 PUSH1 0x19 DUP4 PUSH2 0x1C4C JUMP JUMPDEST SWAP2 POP PUSH2 0x2554 DUP3 PUSH2 0x2515 JUMP JUMPDEST PUSH1 0x20 DUP3 ADD SWAP1 POP SWAP2 SWAP1 POP JUMP JUMPDEST PUSH0 PUSH1 0x20 DUP3 ADD SWAP1 POP DUP2 DUP2 SUB PUSH0 DUP4 ADD MSTORE PUSH2 0x2576 DUP2 PUSH2 0x253D JUMP JUMPDEST SWAP1 POP SWAP2 SWAP1 POP JUMP JUMPDEST PUSH32 0x50726F6A6563742052656163686564206974732046756E64696E672072657175 PUSH0 DUP3 ADD MSTORE PUSH32 0x6972656D656E7400000000000000000000000000000000000000000000000000 PUSH1 0x20 DUP3 ADD MSTORE POP JUMP JUMPDEST PUSH0 PUSH2 0x25D7 PUSH1 0x27 DUP4 PUSH2 0x1C4C JUMP JUMPDEST SWAP2 POP PUSH2 0x25E2 DUP3 PUSH2 0x257D JUMP JUMPDEST PUSH1 0x40 DUP3 ADD SWAP1 POP SWAP2 SWAP1 POP JUMP JUMPDEST PUSH0 PUSH1 0x20 DUP3 ADD SWAP1 POP DUP2 DUP2 SUB PUSH0 DUP4 ADD MSTORE PUSH2 0x2604 DUP2 PUSH2 0x25CB JUMP JUMPDEST SWAP1 POP SWAP2 SWAP1 POP JUMP JUMPDEST PUSH32 0x73656E6420736F6D6520657468657220746F20636F6E7472696275746520696E PUSH0 DUP3 ADD MSTORE PUSH32 0x207468652070726F6A6563740000000000000000000000000000000000000000 PUSH1 0x20 DUP3 ADD MSTORE POP JUMP JUMPDEST PUSH0 PUSH2 0x2665 PUSH1 0x2C DUP4 PUSH2 0x1C4C JUMP JUMPDEST SWAP2 POP PUSH2 0x2670 DUP3 PUSH2 0x260B JUMP JUMPDEST PUSH1 0x40 DUP3 ADD SWAP1 POP SWAP2 SWAP1 POP JUMP JUMPDEST PUSH0 PUSH1 0x20 DUP3 ADD SWAP1 POP DUP2 DUP2 SUB PUSH0 DUP4 ADD MSTORE PUSH2 0x2692 DUP2 PUSH2 0x2659 JUMP JUMPDEST SWAP1 POP SWAP2 SWAP1 POP JUMP JUMPDEST PUSH32 0x416D6F756E7420436F6E7472696275746564206973206D6F7265207468616E20 PUSH0 DUP3 ADD MSTORE PUSH32 0x476F616C00000000000000000000000000000000000000000000000000000000 PUSH1 0x20 DUP3 ADD MSTORE POP JUMP JUMPDEST PUSH0 PUSH2 0x26F3 PUSH1 0x24 DUP4 PUSH2 0x1C4C JUMP JUMPDEST SWAP2 POP PUSH2 0x26FE DUP3 PUSH2 0x2699 JUMP JUMPDEST PUSH1 0x40 DUP3 ADD SWAP1 POP SWAP2 SWAP1 POP JUMP JUMPDEST PUSH0 PUSH1 0x20 DUP3 ADD SWAP1 POP DUP2 DUP2 SUB PUSH0 DUP4 ADD MSTORE PUSH2 0x2720 DUP2 PUSH2 0x26E7 JUMP JUMPDEST SWAP1 POP SWAP2 SWAP1 POP JUMP JUMPDEST PUSH0 DUP2 SWAP1 POP SWAP3 SWAP2 POP POP JUMP JUMPDEST POP JUMP JUMPDEST PUSH0 PUSH2 0x273F PUSH0 DUP4 PUSH2 0x2727 JUMP JUMPDEST SWAP2 POP PUSH2 0x274A DUP3 PUSH2 0x2731 JUMP JUMPDEST PUSH0 DUP3 ADD SWAP1 POP SWAP2 SWAP1 POP JUMP JUMPDEST PUSH0 PUSH2 0x275E DUP3 PUSH2 0x2734 JUMP JUMPDEST SWAP2 POP DUP2 SWAP1 POP SWAP2 SWAP1 POP JUMP JUMPDEST PUSH32 0x526566756E64204661696C656400000000000000000000000000000000000000 PUSH0 DUP3 ADD MSTORE POP JUMP JUMPDEST PUSH0 PUSH2 0x279C PUSH1 0xD DUP4 PUSH2 0x1C4C JUMP JUMPDEST SWAP2 POP PUSH2 0x27A7 DUP3 PUSH2 0x2768 JUMP JUMPDEST PUSH1 0x20 DUP3 ADD SWAP1 POP SWAP2 SWAP1 POP JUMP JUMPDEST PUSH0 PUSH1 0x20 DUP3 ADD SWAP1 POP DUP2 DUP2 SUB PUSH0 DUP4 ADD MSTORE PUSH2 0x27C9 DUP2 PUSH2 0x2790 JUMP JUMPDEST SWAP1 POP SWAP2 SWAP1 POP JUMP JUMPDEST PUSH0 PUSH1 0x60 DUP3 ADD SWAP1 POP PUSH2 0x27E3 PUSH0 DUP4 ADD DUP7 PUSH2 0x1C33 JUMP JUMPDEST PUSH2 0x27F0 PUSH1 0x20 DUP4 ADD DUP6 PUSH2 0x1B8F JUMP JUMPDEST PUSH2 0x27FD PUSH1 0x40 DUP4 ADD DUP5 PUSH2 0x1B8F JUMP JUMPDEST SWAP5 SWAP4 POP POP POP POP JUMP JUMPDEST PUSH32 0x66756E64696E6720676F616C20686173206E6F742072656163686564202C2061 PUSH0 DUP3 ADD MSTORE PUSH32 0x646D696E2063616E277420776974686472617700000000000000000000000000 PUSH1 0x20 DUP3 ADD MSTORE POP JUMP JUMPDEST PUSH0 PUSH2 0x285F PUSH1 0x33 DUP4 PUSH2 0x1C4C JUMP JUMPDEST SWAP2 POP PUSH2 0x286A DUP3 PUSH2 0x2805 JUMP JUMPDEST PUSH1 0x40 DUP3 ADD SWAP1 POP SWAP2 SWAP1 POP JUMP JUMPDEST PUSH0 PUSH1 0x20 DUP3 ADD SWAP1 POP DUP2 DUP2 SUB PUSH0 DUP4 ADD MSTORE PUSH2 0x288C DUP2 PUSH2 0x2853 JUMP JUMPDEST SWAP1 POP SWAP2 SWAP1 POP JUMP JUMPDEST PUSH32 0x6F6E6C792061646D696E2063616E207769746864726177000000000000000000 PUSH0 DUP3 ADD MSTORE POP JUMP JUMPDEST PUSH0 PUSH2 0x28C7 PUSH1 0x17 DUP4 PUSH2 0x1C4C JUMP JUMPDEST SWAP2 POP PUSH2 0x28D2 DUP3 PUSH2 0x2893 JUMP JUMPDEST PUSH1 0x20 DUP3 ADD SWAP1 POP SWAP2 SWAP1 POP JUMP JUMPDEST PUSH0 PUSH1 0x20 DUP3 ADD SWAP1 POP DUP2 DUP2 SUB PUSH0 DUP4 ADD MSTORE PUSH2 0x28F4 DUP2 PUSH2 0x28BB JUMP JUMPDEST SWAP1 POP SWAP2 SWAP1 POP JUMP JUMPDEST PUSH32 0x646561646C696E6520686173206E6F742072656163686564202C2061646D696E PUSH0 DUP3 ADD MSTORE PUSH32 0x2063616E27742077697468647261770000000000000000000000000000000000 PUSH1 0x20 DUP3 ADD MSTORE POP JUMP JUMPDEST PUSH0 PUSH2 0x2955 PUSH1 0x2F DUP4 PUSH2 0x1C4C JUMP JUMPDEST SWAP2 POP PUSH2 0x2960 DUP3 PUSH2 0x28FB JUMP JUMPDEST PUSH1 0x40 DUP3 ADD SWAP1 POP SWAP2 SWAP1 POP JUMP JUMPDEST PUSH0 PUSH1 0x20 DUP3 ADD SWAP1 POP DUP2 DUP2 SUB PUSH0 DUP4 ADD MSTORE PUSH2 0x2982 DUP2 PUSH2 0x2949 JUMP JUMPDEST SWAP1 POP SWAP2 SWAP1 POP JUMP JUMPDEST PUSH32 0x4F6E6C792041646D696E2063616E206163636573730000000000000000000000 PUSH0 DUP3 ADD MSTORE POP JUMP JUMPDEST PUSH0 PUSH2 0x29BD PUSH1 0x15 DUP4 PUSH2 0x1C4C JUMP JUMPDEST SWAP2 POP PUSH2 0x29C8 DUP3 PUSH2 0x2989 JUMP JUMPDEST PUSH1 0x20 DUP3 ADD SWAP1 POP SWAP2 SWAP1 POP JUMP JUMPDEST PUSH0 PUSH1 0x20 DUP3 ADD SWAP1 POP DUP2 DUP2 SUB PUSH0 DUP4 ADD MSTORE PUSH2 0x29EA DUP2 PUSH2 0x29B1 JUMP JUMPDEST SWAP1 POP SWAP2 SWAP1 POP JUMP JUMPDEST PUSH32 0x43616E6E6F7420776974686472617720616674657220646561646C696E650000 PUSH0 DUP3 ADD MSTORE POP JUMP JUMPDEST PUSH0 PUSH2 0x2A25 PUSH1 0x1E DUP4 PUSH2 0x1C4C JUMP JUMPDEST SWAP2 POP PUSH2 0x2A30 DUP3 PUSH2 0x29F1 JUMP JUMPDEST PUSH1 0x20 DUP3 ADD SWAP1 POP SWAP2 SWAP1 POP JUMP JUMPDEST PUSH0 PUSH1 0x20 DUP3 ADD SWAP1 POP DUP2 DUP2 SUB PUSH0 DUP4 ADD MSTORE PUSH2 0x2A52 DUP2 PUSH2 0x2A19 JUMP JUMPDEST SWAP1 POP SWAP2 SWAP1 POP JUMP JUMPDEST PUSH32 0x4E6F2046756E647320746F207769746864726177212100000000000000000000 PUSH0 DUP3 ADD MSTORE POP JUMP JUMPDEST PUSH0 PUSH2 0x2A8D PUSH1 0x16 DUP4 PUSH2 0x1C4C JUMP JUMPDEST SWAP2 POP PUSH2 0x2A98 DUP3 PUSH2 0x2A59 JUMP JUMPDEST PUSH1 0x20 DUP3 ADD SWAP1 POP SWAP2 SWAP1 POP JUMP JUMPDEST PUSH0 PUSH1 0x20 DUP3 ADD SWAP1 POP DUP2 DUP2 SUB PUSH0 DUP4 ADD MSTORE PUSH2 0x2ABA DUP2 PUSH2 0x2A81 JUMP JUMPDEST SWAP1 POP SWAP2 SWAP1 POP JUMP JUMPDEST PUSH32 0x576974686472617720616D6F756E74206578636565647320796F757220636F6E PUSH0 DUP3 ADD MSTORE PUSH32 0x747269627574696F6E0000000000000000000000000000000000000000000000 PUSH1 0x20 DUP3 ADD MSTORE POP JUMP JUMPDEST PUSH0 PUSH2 0x2B1B PUSH1 0x29 DUP4 PUSH2 0x1C4C JUMP JUMPDEST SWAP2 POP PUSH2 0x2B26 DUP3 PUSH2 0x2AC1 JUMP JUMPDEST PUSH1 0x40 DUP3 ADD SWAP1 POP SWAP2 SWAP1 POP JUMP JUMPDEST PUSH0 PUSH1 0x20 DUP3 ADD SWAP1 POP DUP2 DUP2 SUB PUSH0 DUP4 ADD MSTORE PUSH2 0x2B48 DUP2 PUSH2 0x2B0F JUMP JUMPDEST SWAP1 POP SWAP2 SWAP1 POP JUMP JUMPDEST PUSH32 0x7769746864726177206661696C65642121212100000000000000000000000000 PUSH0 DUP3 ADD MSTORE POP JUMP JUMPDEST PUSH0 PUSH2 0x2B83 PUSH1 0x13 DUP4 PUSH2 0x1C4C JUMP JUMPDEST SWAP2 POP PUSH2 0x2B8E DUP3 PUSH2 0x2B4F JUMP JUMPDEST PUSH1 0x20 DUP3 ADD SWAP1 POP SWAP2 SWAP1 POP JUMP JUMPDEST PUSH0 PUSH1 0x20 DUP3 ADD SWAP1 POP DUP2 DUP2 SUB PUSH0 DUP4 ADD MSTORE PUSH2 0x2BB0 DUP2 PUSH2 0x2B77 JUMP JUMPDEST SWAP1 POP SWAP2 SWAP1 POP JUMP JUMPDEST PUSH32 0x50726F6A65637420494420697320616C726561647920696E2075736521000000 PUSH0 DUP3 ADD MSTORE POP JUMP JUMPDEST PUSH0 PUSH2 0x2BEB PUSH1 0x1D DUP4 PUSH2 0x1C4C JUMP JUMPDEST SWAP2 POP PUSH2 0x2BF6 DUP3 PUSH2 0x2BB7 JUMP JUMPDEST PUSH1 0x20 DUP3 ADD SWAP1 POP SWAP2 SWAP1 POP JUMP JUMPDEST PUSH0 PUSH1 0x20 DUP3 ADD SWAP1 POP DUP2 DUP2 SUB PUSH0 DUP4 ADD MSTORE PUSH2 0x2C18 DUP2 PUSH2 0x2BDF JUMP JUMPDEST SWAP1 POP SWAP2 SWAP1 POP JUMP JUMPDEST PUSH32 0x4F6E6C7920417574686F72697A65642063726561746F72732063616E20616363 PUSH0 DUP3 ADD MSTORE PUSH32 0x6573732121000000000000000000000000000000000000000000000000000000 PUSH1 0x20 DUP3 ADD MSTORE POP JUMP JUMPDEST PUSH0 PUSH2 0x2C79 PUSH1 0x25 DUP4 PUSH2 0x1C4C JUMP JUMPDEST SWAP2 POP PUSH2 0x2C84 DUP3 PUSH2 0x2C1F JUMP JUMPDEST PUSH1 0x40 DUP3 ADD SWAP1 POP SWAP2 SWAP1 POP JUMP JUMPDEST PUSH0 PUSH1 0x20 DUP3 ADD SWAP1 POP DUP2 DUP2 SUB PUSH0 DUP4 ADD MSTORE PUSH2 0x2CA6 DUP2 PUSH2 0x2C6D JUMP JUMPDEST SWAP1 POP SWAP2 SWAP1 POP JUMP JUMPDEST PUSH0 DUP2 SWAP1 POP DUP2 PUSH0 MSTORE PUSH1 0x20 PUSH0 KECCAK256 SWAP1 POP SWAP2 SWAP1 POP JUMP JUMPDEST PUSH0 PUSH1 0x20 PUSH1 0x1F DUP4 ADD DIV SWAP1 POP SWAP2 SWAP1 POP JUMP JUMPDEST PUSH0 DUP3 DUP3 SHL SWAP1 POP SWAP3 SWAP2 POP POP JUMP JUMPDEST PUSH0 PUSH1 0x8 DUP4 MUL PUSH2 0x2D09 PUSH32 0xFFFFFFFFFFFFFFFFFFFFFFFFFFFFFFFFFFFFFFFFFFFFFFFFFFFFFFFFFFFFFFFF DUP3 PUSH2 0x2CCE JUMP JUMPDEST PUSH2 0x2D13 DUP7 DUP4 PUSH2 0x2CCE JUMP JUMPDEST SWAP6 POP DUP1 NOT DUP5 AND SWAP4 POP DUP1 DUP7 AND DUP5 OR SWAP3 POP POP POP SWAP4 SWAP3 POP POP POP JUMP JUMPDEST PUSH0 DUP2 SWAP1 POP SWAP2 SWAP1 POP JUMP JUMPDEST PUSH0 PUSH2 0x2D4E PUSH2 0x2D49 PUSH2 0x2D44 DUP5 PUSH2 0x1B31 JUMP JUMPDEST PUSH2 0x2D2B JUMP JUMPDEST PUSH2 0x1B31 JUMP JUMPDEST SWAP1 POP SWAP2 SWAP1 POP JUMP JUMPDEST PUSH0 DUP2 SWAP1 POP SWAP2 SWAP1 POP JUMP JUMPDEST PUSH2 0x2D67 DUP4 PUSH2 0x2D34 JUMP JUMPDEST PUSH2 0x2D7B PUSH2 0x2D73 DUP3 PUSH2 0x2D55 JUMP JUMPDEST DUP5 DUP5 SLOAD PUSH2 0x2CDA JUMP JUMPDEST DUP3 SSTORE POP POP POP POP JUMP JUMPDEST PUSH0 PUSH0 SWAP1 POP SWAP1 JUMP JUMPDEST PUSH2 0x2D92 PUSH2 0x2D83 JUMP JUMPDEST PUSH2 0x2D9D DUP2 DUP5 DUP5 PUSH2 0x2D5E JUMP JUMPDEST POP POP POP JUMP JUMPDEST JUMPDEST DUP2 DUP2 LT ISZERO PUSH2 0x2DC0 JUMPI PUSH2 0x2DB5 PUSH0 DUP3 PUSH2 0x2D8A JUMP JUMPDEST PUSH1 0x1 DUP2 ADD SWAP1 POP PUSH2 0x2DA3 JUMP JUMPDEST POP POP JUMP JUMPDEST PUSH1 0x1F DUP3 GT ISZERO PUSH2 0x2E05 JUMPI PUSH2 0x2DD6 DUP2 PUSH2 0x2CAD JUMP JUMPDEST PUSH2 0x2DDF DUP5 PUSH2 0x2CBF JUMP JUMPDEST DUP2 ADD PUSH1 0x20 DUP6 LT ISZERO PUSH2 0x2DEE JUMPI DUP2 SWAP1 POP JUMPDEST PUSH2 0x2E02 PUSH2 0x2DFA DUP6 PUSH2 0x2CBF JUMP JUMPDEST DUP4 ADD DUP3 PUSH2 0x2DA2 JUMP JUMPDEST POP POP JUMPDEST POP POP POP JUMP JUMPDEST PUSH0 DUP3 DUP3 SHR SWAP1 POP SWAP3 SWAP2 POP POP JUMP JUMPDEST PUSH0 PUSH2 0x2E25 PUSH0 NOT DUP5 PUSH1 0x8 MUL PUSH2 0x2E0A JUMP JUMPDEST NOT DUP1 DUP4 AND SWAP2 POP POP SWAP3 SWAP2 POP POP JUMP JUMPDEST PUSH0 PUSH2 0x2E3D DUP4 DUP4 PUSH2 0x2E16 JUMP JUMPDEST SWAP2 POP DUP3 PUSH1 0x2 MUL DUP3 OR SWAP1 POP SWAP3 SWAP2 POP POP JUMP JUMPDEST PUSH2 0x2E56 DUP3 PUSH2 0x1C42 JUMP JUMPDEST PUSH8 0xFFFFFFFFFFFFFFFF DUP2 GT ISZERO PUSH2 0x2E6F JUMPI PUSH2 0x2E6E PUSH2 0x1E41 JUMP JUMPDEST JUMPDEST PUSH2 0x2E79 DUP3 SLOAD PUSH2 0x228A JUMP JUMPDEST PUSH2 0x2E84 DUP3 DUP3 DUP6 PUSH2 0x2DC4 JUMP JUMPDEST PUSH0 PUSH1 0x20 SWAP1 POP PUSH1 0x1F DUP4 GT PUSH1 0x1 DUP2 EQ PUSH2 0x2EB5 JUMPI PUSH0 DUP5 ISZERO PUSH2 0x2EA3 JUMPI DUP3 DUP8 ADD MLOAD SWAP1 POP JUMPDEST PUSH2 0x2EAD DUP6 DUP3 PUSH2 0x2E32 JUMP JUMPDEST DUP7 SSTORE POP PUSH2 0x2F14 JUMP JUMPDEST PUSH1 0x1F NOT DUP5 AND PUSH2 0x2EC3 DUP7 PUSH2 0x2CAD JUMP JUMPDEST PUSH0 JUMPDEST DUP3 DUP2 LT ISZERO PUSH2 0x2EEA JUMPI DUP5 DUP10 ADD MLOAD DUP3 SSTORE PUSH1 0x1 DUP3 ADD SWAP2 POP PUSH1 0x20 DUP6 ADD SWAP5 POP PUSH1 0x20 DUP2 ADD SWAP1 POP PUSH2 0x2EC5 JUMP JUMPDEST DUP7 DUP4 LT ISZERO PUSH2 0x2F07 JUMPI DUP5 DUP10 ADD MLOAD PUSH2 0x2F03 PUSH1 0x1F DUP10 AND DUP3 PUSH2 0x2E16 JUMP JUMPDEST DUP4 SSTORE POP JUMPDEST PUSH1 0x1 PUSH1 0x2 DUP9 MUL ADD DUP9 SSTORE POP POP POP JUMPDEST POP POP POP POP POP POP JUMP JUMPDEST PUSH0 PUSH1 0x80 DUP3 ADD SWAP1 POP DUP2 DUP2 SUB PUSH0 DUP4 ADD MSTORE PUSH2 0x2F34 DUP2 DUP8 PUSH2 0x1C7A JUMP JUMPDEST SWAP1 POP DUP2 DUP2 SUB PUSH1 0x20 DUP4 ADD MSTORE PUSH2 0x2F48 DUP2 DUP7 PUSH2 0x1C7A JUMP JUMPDEST SWAP1 POP PUSH2 0x2F57 PUSH1 0x40 DUP4 ADD DUP6 PUSH2 0x1B8F JUMP JUMPDEST PUSH2 0x2F64 PUSH1 0x60 DUP4 ADD DUP5 PUSH2 0x1B8F JUMP JUMPDEST SWAP6 SWAP5 POP POP POP POP POP JUMP INVALID LOG2 PUSH5 0x6970667358 0x22 SLT KECCAK256 0xCF PUSH15 0xF7B8DFAC1A3E3D1A62B2CF451D7798 0x2F 0xA5 CREATE2 SHL PC SHL 0xCC 0x21 0x25 0xAC TIMESTAMP DUP13 PUSH31 0x4E8D64736F6C634300081E0033000000000000000000000000000000000000 "
				},
				"gasEstimates": {
					"creation": {
						"codeDepositCost": "2439000",
						"executionCost": "49004",
						"totalCost": "2488004"
					},
					"external": {
						"Add_Creators(address)": "28265",
						"AuthorizedCreators(address)": "2944",
						"Change_FundingGoal(uint256,uint256)": "infinite",
						"Contributions(uint256,address)": "infinite",
						"Extend_Deadline(uint256,uint256)": "infinite",
						"Failed_Funded_Projects()": "2515",
						"Funding_Raised_Percentage(uint256)": "infinite",
						"Get_Total_Raised_Funding()": "2521",
						"Mark_failed_Projects()": "infinite",
						"Projects(uint256)": "infinite",
						"Remaining_Fund(uint256)": "infinite",
						"Remove_Creators(address)": "28221",
						"Successful_Funded_Projects()": "2491",
						"Time_Left(uint256)": "infinite",
						"TotalProjects()": "2447",
						"admin()": "2618",
						"createProject(string,string,uint256,uint256,uint256)": "infinite",
						"creatorWithdraw(uint256)": "infinite",
						"fundProject(uint256)": "infinite",
						"userEarlyWithdraw(uint256,uint256)": "infinite",
						"userWithdraw(uint256)": "infinite"
					}
				},
				"methodIdentifiers": {
					"Add_Creators(address)": "fee2f1c9",
					"AuthorizedCreators(address)": "88283c0f",
					"Change_FundingGoal(uint256,uint256)": "1392ebfe",
					"Contributions(uint256,address)": "5d4e5d78",
					"Extend_Deadline(uint256,uint256)": "629b2647",
					"Failed_Funded_Projects()": "32dcd3a1",
					"Funding_Raised_Percentage(uint256)": "42d844a5",
					"Get_Total_Raised_Funding()": "54a5bcc5",
					"Mark_failed_Projects()": "530a8570",
					"Projects(uint256)": "21b2416c",
					"Remaining_Fund(uint256)": "0dbac135",
					"Remove_Creators(address)": "7299baeb",
					"Successful_Funded_Projects()": "ce7c9080",
					"Time_Left(uint256)": "370c36b4",
					"TotalProjects()": "9ab761c7",
					"admin()": "f851a440",
					"createProject(string,string,uint256,uint256,uint256)": "f81bf601",
					"creatorWithdraw(uint256)": "71eb89f3",
					"fundProject(uint256)": "6c563abe",
					"userEarlyWithdraw(uint256,uint256)": "cd4ac98c",
					"userWithdraw(uint256)": "3b9056bf"
				}
			},
			"storageLayout": {
				"storage": [
					{
						"astId": 10,
						"contract": "contracts/CrowdTank.sol:CrowdTank",
						"label": "_status",
						"offset": 0,
						"slot": "0",
						"type": "t_uint256"
					},
					{
						"astId": 75,
						"contract": "contracts/CrowdTank.sol:CrowdTank",
						"label": "TotalRaisedFunding",
						"offset": 0,
						"slot": "1",
						"type": "t_uint256"
					},
					{
						"astId": 77,
						"contract": "contracts/CrowdTank.sol:CrowdTank",
						"label": "TotalProjects",
						"offset": 0,
						"slot": "2",
						"type": "t_uint256"
					},
					{
						"astId": 79,
						"contract": "contracts/CrowdTank.sol:CrowdTank",
						"label": "admin",
						"offset": 0,
						"slot": "3",
						"type": "t_address"
					},
					{
						"astId": 81,
						"contract": "contracts/CrowdTank.sol:CrowdTank",
						"label": "Successful_Funded_Projects",
						"offset": 0,
						"slot": "4",
						"type": "t_uint256"
					},
					{
						"astId": 83,
						"contract": "contracts/CrowdTank.sol:CrowdTank",
						"label": "Failed_Funded_Projects",
						"offset": 0,
						"slot": "5",
						"type": "t_uint256"
					},
					{
						"astId": 116,
						"contract": "contracts/CrowdTank.sol:CrowdTank",
						"label": "AuthorizedCreators",
						"offset": 0,
						"slot": "6",
						"type": "t_mapping(t_address,t_bool)"
					},
					{
						"astId": 178,
						"contract": "contracts/CrowdTank.sol:CrowdTank",
						"label": "Projects",
						"offset": 0,
						"slot": "7",
						"type": "t_mapping(t_uint256,t_struct(project)173_storage)"
					},
					{
						"astId": 184,
						"contract": "contracts/CrowdTank.sol:CrowdTank",
						"label": "Contributions",
						"offset": 0,
						"slot": "8",
						"type": "t_mapping(t_uint256,t_mapping(t_address,t_uint256))"
					},
					{
						"astId": 188,
						"contract": "contracts/CrowdTank.sol:CrowdTank",
						"label": "isIdUsed",
						"offset": 0,
						"slot": "9",
						"type": "t_mapping(t_uint256,t_bool)"
					}
				],
				"types": {
					"t_address": {
						"encoding": "inplace",
						"label": "address",
						"numberOfBytes": "20"
					},
					"t_bool": {
						"encoding": "inplace",
						"label": "bool",
						"numberOfBytes": "1"
					},
					"t_mapping(t_address,t_bool)": {
						"encoding": "mapping",
						"key": "t_address",
						"label": "mapping(address => bool)",
						"numberOfBytes": "32",
						"value": "t_bool"
					},
					"t_mapping(t_address,t_uint256)": {
						"encoding": "mapping",
						"key": "t_address",
						"label": "mapping(address => uint256)",
						"numberOfBytes": "32",
						"value": "t_uint256"
					},
					"t_mapping(t_uint256,t_bool)": {
						"encoding": "mapping",
						"key": "t_uint256",
						"label": "mapping(uint256 => bool)",
						"numberOfBytes": "32",
						"value": "t_bool"
					},
					"t_mapping(t_uint256,t_mapping(t_address,t_uint256))": {
						"encoding": "mapping",
						"key": "t_uint256",
						"label": "mapping(uint256 => mapping(address => uint256))",
						"numberOfBytes": "32",
						"value": "t_mapping(t_address,t_uint256)"
					},
					"t_mapping(t_uint256,t_struct(project)173_storage)": {
						"encoding": "mapping",
						"key": "t_uint256",
						"label": "mapping(uint256 => struct CrowdTank.project)",
						"numberOfBytes": "32",
						"value": "t_struct(project)173_storage"
					},
					"t_string_storage": {
						"encoding": "bytes",
						"label": "string",
						"numberOfBytes": "32"
					},
					"t_struct(project)173_storage": {
						"encoding": "inplace",
						"label": "struct CrowdTank.project",
						"members": [
							{
								"astId": 154,
								"contract": "contracts/CrowdTank.sol:CrowdTank",
								"label": "creator",
								"offset": 0,
								"slot": "0",
								"type": "t_address"
							},
							{
								"astId": 156,
								"contract": "contracts/CrowdTank.sol:CrowdTank",
								"label": "name",
								"offset": 0,
								"slot": "1",
								"type": "t_string_storage"
							},
							{
								"astId": 158,
								"contract": "contracts/CrowdTank.sol:CrowdTank",
								"label": "description",
								"offset": 0,
								"slot": "2",
								"type": "t_string_storage"
							},
							{
								"astId": 160,
								"contract": "contracts/CrowdTank.sol:CrowdTank",
								"label": "fundingGoal",
								"offset": 0,
								"slot": "3",
								"type": "t_uint256"
							},
							{
								"astId": 162,
								"contract": "contracts/CrowdTank.sol:CrowdTank",
								"label": "deadline",
								"offset": 0,
								"slot": "4",
								"type": "t_uint256"
							},
							{
								"astId": 164,
								"contract": "contracts/CrowdTank.sol:CrowdTank",
								"label": "amountRaised",
								"offset": 0,
								"slot": "5",
								"type": "t_uint256"
							},
							{
								"astId": 166,
								"contract": "contracts/CrowdTank.sol:CrowdTank",
								"label": "funded",
								"offset": 0,
								"slot": "6",
								"type": "t_bool"
							},
							{
								"astId": 168,
								"contract": "contracts/CrowdTank.sol:CrowdTank",
								"label": "highest_Funder",
								"offset": 1,
								"slot": "6",
								"type": "t_address"
							},
							{
								"astId": 170,
								"contract": "contracts/CrowdTank.sol:CrowdTank",
								"label": "highest_contribution",
								"offset": 0,
								"slot": "7",
								"type": "t_uint256"
							},
							{
								"astId": 172,
								"contract": "contracts/CrowdTank.sol:CrowdTank",
								"label": "failed_projects",
								"offset": 0,
								"slot": "8",
								"type": "t_bool"
							}
						],
						"numberOfBytes": "288"
					},
					"t_uint256": {
						"encoding": "inplace",
						"label": "uint256",
						"numberOfBytes": "32"
					}
				}
			},
			"userdoc": {
				"kind": "user",
				"methods": {},
				"version": 1
			}
		}
	}
}