{
	"CROWD_TANK/contracts/CrowdTank.sol": {
		"CrowdTank": {
			"abi": [
				{
					"inputs": [],
					"name": "ReentrancyGuardReentrantCall",
					"type": "error"
				},
				{
					"anonymous": false,
					"inputs": [
						{
							"indexed": true,
							"internalType": "uint256",
							"name": "projectID",
							"type": "uint256"
						},
						{
							"indexed": true,
							"internalType": "address",
							"name": "creator",
							"type": "address"
						},
						{
							"indexed": false,
							"internalType": "string",
							"name": "name",
							"type": "string"
						},
						{
							"indexed": false,
							"internalType": "string",
							"name": "description",
							"type": "string"
						},
						{
							"indexed": false,
							"internalType": "uint256",
							"name": "fundingGoal",
							"type": "uint256"
						},
						{
							"indexed": false,
							"internalType": "uint256",
							"name": "deadline",
							"type": "uint256"
						}
					],
					"name": "ProjectCreated",
					"type": "event"
				},
				{
					"anonymous": false,
					"inputs": [
						{
							"indexed": true,
							"internalType": "uint256",
							"name": "projectID",
							"type": "uint256"
						},
						{
							"indexed": false,
							"internalType": "address",
							"name": "withdrawer",
							"type": "address"
						},
						{
							"indexed": false,
							"internalType": "uint256",
							"name": "amount",
							"type": "uint256"
						}
					],
					"name": "creatorWithdrawn",
					"type": "event"
				},
				{
					"anonymous": false,
					"inputs": [
						{
							"indexed": true,
							"internalType": "uint256",
							"name": "projectID",
							"type": "uint256"
						},
						{
							"indexed": false,
							"internalType": "address",
							"name": "contributor",
							"type": "address"
						},
						{
							"indexed": false,
							"internalType": "uint256",
							"name": "amount",
							"type": "uint256"
						},
						{
							"indexed": false,
							"internalType": "uint256",
							"name": "refund",
							"type": "uint256"
						}
					],
					"name": "funded",
					"type": "event"
				},
				{
					"anonymous": false,
					"inputs": [
						{
							"indexed": true,
							"internalType": "uint256",
							"name": "projectID",
							"type": "uint256"
						},
						{
							"indexed": false,
							"internalType": "address",
							"name": "withdrawer",
							"type": "address"
						},
						{
							"indexed": false,
							"internalType": "uint256",
							"name": "amount",
							"type": "uint256"
						}
					],
					"name": "userWithdrawn",
					"type": "event"
				},
				{
					"inputs": [
						{
							"internalType": "uint256",
							"name": "_projectID",
							"type": "uint256"
						},
						{
							"internalType": "uint256",
							"name": "Change_Goal",
							"type": "uint256"
						}
					],
					"name": "Change_FundingGoal",
					"outputs": [],
					"stateMutability": "nonpayable",
					"type": "function"
				},
				{
					"inputs": [
						{
							"internalType": "uint256",
							"name": "",
							"type": "uint256"
						},
						{
							"internalType": "address",
							"name": "",
							"type": "address"
						}
					],
					"name": "Contributions",
					"outputs": [
						{
							"internalType": "uint256",
							"name": "",
							"type": "uint256"
						}
					],
					"stateMutability": "view",
					"type": "function"
				},
				{
					"inputs": [
						{
							"internalType": "uint256",
							"name": "_projectID",
							"type": "uint256"
						},
						{
							"internalType": "uint256",
							"name": "_deadline",
							"type": "uint256"
						}
					],
					"name": "Extend_Deadline",
					"outputs": [],
					"stateMutability": "nonpayable",
					"type": "function"
				},
				{
					"inputs": [
						{
							"internalType": "uint256",
							"name": "_projectID",
							"type": "uint256"
						}
					],
					"name": "Funding_Raised_Percentage",
					"outputs": [
						{
							"internalType": "uint256",
							"name": "",
							"type": "uint256"
						}
					],
					"stateMutability": "view",
					"type": "function"
				},
				{
					"inputs": [],
					"name": "Get_Total_Raised_Funding",
					"outputs": [
						{
							"internalType": "uint256",
							"name": "",
							"type": "uint256"
						}
					],
					"stateMutability": "view",
					"type": "function"
				},
				{
					"inputs": [
						{
							"internalType": "uint256",
							"name": "",
							"type": "uint256"
						}
					],
					"name": "Projects",
					"outputs": [
						{
							"internalType": "address",
							"name": "creator",
							"type": "address"
						},
						{
							"internalType": "string",
							"name": "name",
							"type": "string"
						},
						{
							"internalType": "string",
							"name": "description",
							"type": "string"
						},
						{
							"internalType": "uint256",
							"name": "fundingGoal",
							"type": "uint256"
						},
						{
							"internalType": "uint256",
							"name": "deadline",
							"type": "uint256"
						},
						{
							"internalType": "uint256",
							"name": "amountRaised",
							"type": "uint256"
						},
						{
							"internalType": "bool",
							"name": "funded",
							"type": "bool"
						}
					],
					"stateMutability": "view",
					"type": "function"
				},
				{
					"inputs": [
						{
							"internalType": "uint256",
							"name": "projectID",
							"type": "uint256"
						}
					],
					"name": "Remaining_Fund",
					"outputs": [
						{
							"internalType": "uint256",
							"name": "fundingGoal",
							"type": "uint256"
						},
						{
							"internalType": "uint256",
							"name": "remainingFund",
							"type": "uint256"
						}
					],
					"stateMutability": "view",
					"type": "function"
				},
				{
					"inputs": [
						{
							"internalType": "uint256",
							"name": "projectID",
							"type": "uint256"
						}
					],
					"name": "Time_Left",
					"outputs": [
						{
							"internalType": "uint256",
							"name": "",
							"type": "uint256"
						}
					],
					"stateMutability": "view",
					"type": "function"
				},
				{
					"inputs": [],
					"name": "TotalProjects",
					"outputs": [
						{
							"internalType": "uint256",
							"name": "",
							"type": "uint256"
						}
					],
					"stateMutability": "view",
					"type": "function"
				},
				{
					"inputs": [
						{
							"internalType": "string",
							"name": "_name",
							"type": "string"
						},
						{
							"internalType": "string",
							"name": "_description",
							"type": "string"
						},
						{
							"internalType": "uint256",
							"name": "_fundingGoal",
							"type": "uint256"
						},
						{
							"internalType": "uint256",
							"name": "_durationSeconds",
							"type": "uint256"
						},
						{
							"internalType": "uint256",
							"name": "_id",
							"type": "uint256"
						}
					],
					"name": "createProject",
					"outputs": [],
					"stateMutability": "nonpayable",
					"type": "function"
				},
				{
					"inputs": [
						{
							"internalType": "uint256",
							"name": "_projectID",
							"type": "uint256"
						}
					],
					"name": "creatorWithdraw",
					"outputs": [],
					"stateMutability": "payable",
					"type": "function"
				},
				{
					"inputs": [
						{
							"internalType": "uint256",
							"name": "_projectID",
							"type": "uint256"
						}
					],
					"name": "fundProject",
					"outputs": [],
					"stateMutability": "payable",
					"type": "function"
				},
				{
					"inputs": [
						{
							"internalType": "uint256",
							"name": "_projectID",
							"type": "uint256"
						}
					],
					"name": "userWithdraw",
					"outputs": [],
					"stateMutability": "payable",
					"type": "function"
				}
			],
			"devdoc": {
				"errors": {
					"ReentrancyGuardReentrantCall()": [
						{
							"details": "Unauthorized reentrant call."
						}
					]
				},
				"kind": "dev",
				"methods": {},
				"version": 1
			},
			"evm": {
				"assembly": "    /* \"CROWD_TANK/contracts/CrowdTank.sol\":237:7061  contract CrowdTank is ReentrancyGuard {... */\n  mstore(0x40, 0x80)\n  callvalue\n  dup1\n  iszero\n  tag_1\n  jumpi\n  revert(0x00, 0x00)\ntag_1:\n  pop\n    /* \"@openzeppelin/contracts/utils/ReentrancyGuard.sol\":1857:1858  1 */\n  0x01\n    /* \"@openzeppelin/contracts/utils/ReentrancyGuard.sol\":2061:2068  _status */\n  0x00\n    /* \"@openzeppelin/contracts/utils/ReentrancyGuard.sol\":2061:2082  _status = NOT_ENTERED */\n  dup2\n  swap1\n  sstore\n  pop\n    /* \"CROWD_TANK/contracts/CrowdTank.sol\":237:7061  contract CrowdTank is ReentrancyGuard {... */\n  dataSize(sub_0)\n  dup1\n  dataOffset(sub_0)\n  0x00\n  codecopy\n  0x00\n  return\nstop\n\nsub_0: assembly {\n        /* \"CROWD_TANK/contracts/CrowdTank.sol\":237:7061  contract CrowdTank is ReentrancyGuard {... */\n      mstore(0x40, 0x80)\n      jumpi(tag_1, lt(calldatasize, 0x04))\n      shr(0xe0, calldataload(0x00))\n      dup1\n      0x54a5bcc5\n      gt\n      tag_15\n      jumpi\n      dup1\n      0x6c563abe\n      gt\n      tag_16\n      jumpi\n      dup1\n      0x6c563abe\n      eq\n      tag_11\n      jumpi\n      dup1\n      0x71eb89f3\n      eq\n      tag_12\n      jumpi\n      dup1\n      0x9ab761c7\n      eq\n      tag_13\n      jumpi\n      dup1\n      0xf81bf601\n      eq\n      tag_14\n      jumpi\n      jump(tag_1)\n    tag_16:\n      dup1\n      0x54a5bcc5\n      eq\n      tag_8\n      jumpi\n      dup1\n      0x5d4e5d78\n      eq\n      tag_9\n      jumpi\n      dup1\n      0x629b2647\n      eq\n      tag_10\n      jumpi\n      jump(tag_1)\n    tag_15:\n      dup1\n      0x0dbac135\n      eq\n      tag_2\n      jumpi\n      dup1\n      0x1392ebfe\n      eq\n      tag_3\n      jumpi\n      dup1\n      0x21b2416c\n      eq\n      tag_4\n      jumpi\n      dup1\n      0x370c36b4\n      eq\n      tag_5\n      jumpi\n      dup1\n      0x3b9056bf\n      eq\n      tag_6\n      jumpi\n      dup1\n      0x42d844a5\n      eq\n      tag_7\n      jumpi\n    tag_1:\n      revert(0x00, 0x00)\n        /* \"CROWD_TANK/contracts/CrowdTank.sol\":5480:5969  function Remaining_Fund(uint projectID) public view returns(uint fundingGoal , uint remainingFund) {... */\n    tag_2:\n      callvalue\n      dup1\n      iszero\n      tag_17\n      jumpi\n      revert(0x00, 0x00)\n    tag_17:\n      pop\n      tag_18\n      0x04\n      dup1\n      calldatasize\n      sub\n      dup2\n      add\n      swap1\n      tag_19\n      swap2\n      swap1\n      tag_20\n      jump\t// in\n    tag_19:\n      tag_21\n      jump\t// in\n    tag_18:\n      mload(0x40)\n      tag_22\n      swap3\n      swap2\n      swap1\n      tag_23\n      jump\t// in\n    tag_22:\n      mload(0x40)\n      dup1\n      swap2\n      sub\n      swap1\n      return\n        /* \"CROWD_TANK/contracts/CrowdTank.sol\":6335:6743  function Change_FundingGoal( uint _projectID , uint Change_Goal) external {... */\n    tag_3:\n      callvalue\n      dup1\n      iszero\n      tag_24\n      jumpi\n      revert(0x00, 0x00)\n    tag_24:\n      pop\n      tag_25\n      0x04\n      dup1\n      calldatasize\n      sub\n      dup2\n      add\n      swap1\n      tag_26\n      swap2\n      swap1\n      tag_27\n      jump\t// in\n    tag_26:\n      tag_28\n      jump\t// in\n    tag_25:\n      stop\n        /* \"CROWD_TANK/contracts/CrowdTank.sol\":737:778  mapping (uint => project) public Projects */\n    tag_4:\n      callvalue\n      dup1\n      iszero\n      tag_29\n      jumpi\n      revert(0x00, 0x00)\n    tag_29:\n      pop\n      tag_30\n      0x04\n      dup1\n      calldatasize\n      sub\n      dup2\n      add\n      swap1\n      tag_31\n      swap2\n      swap1\n      tag_20\n      jump\t// in\n    tag_31:\n      tag_32\n      jump\t// in\n    tag_30:\n      mload(0x40)\n      tag_33\n      swap8\n      swap7\n      swap6\n      swap5\n      swap4\n      swap3\n      swap2\n      swap1\n      tag_34\n      jump\t// in\n    tag_33:\n      mload(0x40)\n      dup1\n      swap2\n      sub\n      swap1\n      return\n        /* \"CROWD_TANK/contracts/CrowdTank.sol\":5122:5412  function Time_Left(uint projectID) view public returns(uint) {... */\n    tag_5:\n      callvalue\n      dup1\n      iszero\n      tag_35\n      jumpi\n      revert(0x00, 0x00)\n    tag_35:\n      pop\n      tag_36\n      0x04\n      dup1\n      calldatasize\n      sub\n      dup2\n      add\n      swap1\n      tag_37\n      swap2\n      swap1\n      tag_20\n      jump\t// in\n    tag_37:\n      tag_38\n      jump\t// in\n    tag_36:\n      mload(0x40)\n      tag_39\n      swap2\n      swap1\n      tag_40\n      jump\t// in\n    tag_39:\n      mload(0x40)\n      dup1\n      swap2\n      sub\n      swap1\n      return\n        /* \"CROWD_TANK/contracts/CrowdTank.sol\":3932:4399  function userWithdraw(uint _projectID) external payable {... */\n    tag_6:\n      tag_41\n      0x04\n      dup1\n      calldatasize\n      sub\n      dup2\n      add\n      swap1\n      tag_42\n      swap2\n      swap1\n      tag_20\n      jump\t// in\n    tag_42:\n      tag_43\n      jump\t// in\n    tag_41:\n      stop\n        /* \"CROWD_TANK/contracts/CrowdTank.sol\":6791:7058  function Funding_Raised_Percentage( uint _projectID ) public view  returns(uint) {... */\n    tag_7:\n      callvalue\n      dup1\n      iszero\n      tag_44\n      jumpi\n      revert(0x00, 0x00)\n    tag_44:\n      pop\n      tag_45\n      0x04\n      dup1\n      calldatasize\n      sub\n      dup2\n      add\n      swap1\n      tag_46\n      swap2\n      swap1\n      tag_20\n      jump\t// in\n    tag_46:\n      tag_47\n      jump\t// in\n    tag_45:\n      mload(0x40)\n      tag_48\n      swap2\n      swap1\n      tag_40\n      jump\t// in\n    tag_48:\n      mload(0x40)\n      dup1\n      swap2\n      sub\n      swap1\n      return\n        /* \"CROWD_TANK/contracts/CrowdTank.sol\":3786:3892  function Get_Total_Raised_Funding() view public returns(uint) {... */\n    tag_8:\n      callvalue\n      dup1\n      iszero\n      tag_49\n      jumpi\n      revert(0x00, 0x00)\n    tag_49:\n      pop\n      tag_50\n      tag_51\n      jump\t// in\n    tag_50:\n      mload(0x40)\n      tag_52\n      swap2\n      swap1\n      tag_40\n      jump\t// in\n    tag_52:\n      mload(0x40)\n      dup1\n      swap2\n      sub\n      swap1\n      return\n        /* \"CROWD_TANK/contracts/CrowdTank.sol\":837:901  mapping (uint => mapping (address => uint)) public Contributions */\n    tag_9:\n      callvalue\n      dup1\n      iszero\n      tag_53\n      jumpi\n      revert(0x00, 0x00)\n    tag_53:\n      pop\n      tag_54\n      0x04\n      dup1\n      calldatasize\n      sub\n      dup2\n      add\n      swap1\n      tag_55\n      swap2\n      swap1\n      tag_56\n      jump\t// in\n    tag_55:\n      tag_57\n      jump\t// in\n    tag_54:\n      mload(0x40)\n      tag_58\n      swap2\n      swap1\n      tag_40\n      jump\t// in\n    tag_58:\n      mload(0x40)\n      dup1\n      swap2\n      sub\n      swap1\n      return\n        /* \"CROWD_TANK/contracts/CrowdTank.sol\":6015:6288  function Extend_Deadline(uint _projectID , uint _deadline) external {... */\n    tag_10:\n      callvalue\n      dup1\n      iszero\n      tag_59\n      jumpi\n      revert(0x00, 0x00)\n    tag_59:\n      pop\n      tag_60\n      0x04\n      dup1\n      calldatasize\n      sub\n      dup2\n      add\n      swap1\n      tag_61\n      swap2\n      swap1\n      tag_27\n      jump\t// in\n    tag_61:\n      tag_62\n      jump\t// in\n    tag_60:\n      stop\n        /* \"CROWD_TANK/contracts/CrowdTank.sol\":2299:3745  function fundProject(uint _projectID) external payable nonReentrant {... */\n    tag_11:\n      tag_63\n      0x04\n      dup1\n      calldatasize\n      sub\n      dup2\n      add\n      swap1\n      tag_64\n      swap2\n      swap1\n      tag_20\n      jump\t// in\n    tag_64:\n      tag_65\n      jump\t// in\n    tag_63:\n      stop\n        /* \"CROWD_TANK/contracts/CrowdTank.sol\":4451:5052  function creatorWithdraw(uint _projectID) external payable {... */\n    tag_12:\n      tag_66\n      0x04\n      dup1\n      calldatasize\n      sub\n      dup2\n      add\n      swap1\n      tag_67\n      swap2\n      swap1\n      tag_20\n      jump\t// in\n    tag_67:\n      tag_68\n      jump\t// in\n    tag_66:\n      stop\n        /* \"CROWD_TANK/contracts/CrowdTank.sol\":420:445  uint public TotalProjects */\n    tag_13:\n      callvalue\n      dup1\n      iszero\n      tag_69\n      jumpi\n      revert(0x00, 0x00)\n    tag_69:\n      pop\n      tag_70\n      tag_71\n      jump\t// in\n    tag_70:\n      mload(0x40)\n      tag_72\n      swap2\n      swap1\n      tag_40\n      jump\t// in\n    tag_72:\n      mload(0x40)\n      dup1\n      swap2\n      sub\n      swap1\n      return\n        /* \"CROWD_TANK/contracts/CrowdTank.sol\":1542:2238  function createProject(string memory _name , string memory _description , uint _fundingGoal , uint _durationSeconds , uint _id) external {... */\n    tag_14:\n      callvalue\n      dup1\n      iszero\n      tag_73\n      jumpi\n      revert(0x00, 0x00)\n    tag_73:\n      pop\n      tag_74\n      0x04\n      dup1\n      calldatasize\n      sub\n      dup2\n      add\n      swap1\n      tag_75\n      swap2\n      swap1\n      tag_76\n      jump\t// in\n    tag_75:\n      tag_77\n      jump\t// in\n    tag_74:\n      stop\n        /* \"CROWD_TANK/contracts/CrowdTank.sol\":5480:5969  function Remaining_Fund(uint projectID) public view returns(uint fundingGoal , uint remainingFund) {... */\n    tag_21:\n        /* \"CROWD_TANK/contracts/CrowdTank.sol\":5540:5556  uint fundingGoal */\n      0x00\n        /* \"CROWD_TANK/contracts/CrowdTank.sol\":5559:5577  uint remainingFund */\n      0x00\n        /* \"CROWD_TANK/contracts/CrowdTank.sol\":5591:5614  project storage Project */\n      0x00\n        /* \"CROWD_TANK/contracts/CrowdTank.sol\":5617:5625  Projects */\n      0x03\n        /* \"CROWD_TANK/contracts/CrowdTank.sol\":5617:5636  Projects[projectID] */\n      0x00\n        /* \"CROWD_TANK/contracts/CrowdTank.sol\":5626:5635  projectID */\n      dup6\n        /* \"CROWD_TANK/contracts/CrowdTank.sol\":5617:5636  Projects[projectID] */\n      dup2\n      mstore\n      0x20\n      add\n      swap1\n      dup2\n      mstore\n      0x20\n      add\n      0x00\n      keccak256\n        /* \"CROWD_TANK/contracts/CrowdTank.sol\":5591:5636  project storage Project = Projects[projectID] */\n      swap1\n      pop\n        /* \"CROWD_TANK/contracts/CrowdTank.sol\":5661:5668  Project */\n      dup1\n        /* \"CROWD_TANK/contracts/CrowdTank.sol\":5661:5680  Project.fundingGoal */\n      0x03\n      add\n      sload\n        /* \"CROWD_TANK/contracts/CrowdTank.sol\":5647:5680  fundingGoal = Project.fundingGoal */\n      swap3\n      pop\n        /* \"CROWD_TANK/contracts/CrowdTank.sol\":5726:5727  0 */\n      0x00\n        /* \"CROWD_TANK/contracts/CrowdTank.sol\":5699:5728  Project.creator != address(0) */\n      0xffffffffffffffffffffffffffffffffffffffff\n      and\n        /* \"CROWD_TANK/contracts/CrowdTank.sol\":5699:5706  Project */\n      dup2\n        /* \"CROWD_TANK/contracts/CrowdTank.sol\":5699:5714  Project.creator */\n      0x00\n      add\n      0x00\n      swap1\n      sload\n      swap1\n      0x0100\n      exp\n      swap1\n      div\n      0xffffffffffffffffffffffffffffffffffffffff\n      and\n        /* \"CROWD_TANK/contracts/CrowdTank.sol\":5699:5728  Project.creator != address(0) */\n      0xffffffffffffffffffffffffffffffffffffffff\n      and\n      sub\n        /* \"CROWD_TANK/contracts/CrowdTank.sol\":5691:5766  require(Project.creator != address(0), \"project has not been created yet!\") */\n      tag_79\n      jumpi\n      mload(0x40)\n      0x08c379a000000000000000000000000000000000000000000000000000000000\n      dup2\n      mstore\n      0x04\n      add\n      tag_80\n      swap1\n      tag_81\n      jump\t// in\n    tag_80:\n      mload(0x40)\n      dup1\n      swap2\n      sub\n      swap1\n      revert\n    tag_79:\n        /* \"CROWD_TANK/contracts/CrowdTank.sol\":5805:5812  Project */\n      dup1\n        /* \"CROWD_TANK/contracts/CrowdTank.sol\":5805:5824  Project.fundingGoal */\n      0x03\n      add\n      sload\n        /* \"CROWD_TANK/contracts/CrowdTank.sol\":5781:5788  Project */\n      dup2\n        /* \"CROWD_TANK/contracts/CrowdTank.sol\":5781:5801  Project.amountRaised */\n      0x05\n      add\n      sload\n        /* \"CROWD_TANK/contracts/CrowdTank.sol\":5781:5824  Project.amountRaised >= Project.fundingGoal */\n      lt\n        /* \"CROWD_TANK/contracts/CrowdTank.sol\":5777:5962  if (Project.amountRaised >= Project.fundingGoal) {... */\n      tag_82\n      jumpi\n        /* \"CROWD_TANK/contracts/CrowdTank.sol\":5858:5859  0 */\n      0x00\n        /* \"CROWD_TANK/contracts/CrowdTank.sol\":5842:5859  remainingFund = 0 */\n      swap2\n      pop\n        /* \"CROWD_TANK/contracts/CrowdTank.sol\":5777:5962  if (Project.amountRaised >= Project.fundingGoal) {... */\n      jump(tag_83)\n    tag_82:\n        /* \"CROWD_TANK/contracts/CrowdTank.sol\":5930:5937  Project */\n      dup1\n        /* \"CROWD_TANK/contracts/CrowdTank.sol\":5930:5950  Project.amountRaised */\n      0x05\n      add\n      sload\n        /* \"CROWD_TANK/contracts/CrowdTank.sol\":5908:5915  Project */\n      dup2\n        /* \"CROWD_TANK/contracts/CrowdTank.sol\":5908:5927  Project.fundingGoal */\n      0x03\n      add\n      sload\n        /* \"CROWD_TANK/contracts/CrowdTank.sol\":5908:5950  Project.fundingGoal - Project.amountRaised */\n      tag_84\n      swap2\n      swap1\n      tag_85\n      jump\t// in\n    tag_84:\n        /* \"CROWD_TANK/contracts/CrowdTank.sol\":5892:5950  remainingFund = Project.fundingGoal - Project.amountRaised */\n      swap2\n      pop\n        /* \"CROWD_TANK/contracts/CrowdTank.sol\":5777:5962  if (Project.amountRaised >= Project.fundingGoal) {... */\n    tag_83:\n        /* \"CROWD_TANK/contracts/CrowdTank.sol\":5579:5969  {... */\n      pop\n        /* \"CROWD_TANK/contracts/CrowdTank.sol\":5480:5969  function Remaining_Fund(uint projectID) public view returns(uint fundingGoal , uint remainingFund) {... */\n      swap2\n      pop\n      swap2\n      jump\t// out\n        /* \"CROWD_TANK/contracts/CrowdTank.sol\":6335:6743  function Change_FundingGoal( uint _projectID , uint Change_Goal) external {... */\n    tag_28:\n        /* \"CROWD_TANK/contracts/CrowdTank.sol\":6421:6444  project storage Project */\n      0x00\n        /* \"CROWD_TANK/contracts/CrowdTank.sol\":6447:6455  Projects */\n      0x03\n        /* \"CROWD_TANK/contracts/CrowdTank.sol\":6447:6467  Projects[_projectID] */\n      0x00\n        /* \"CROWD_TANK/contracts/CrowdTank.sol\":6456:6466  _projectID */\n      dup5\n        /* \"CROWD_TANK/contracts/CrowdTank.sol\":6447:6467  Projects[_projectID] */\n      dup2\n      mstore\n      0x20\n      add\n      swap1\n      dup2\n      mstore\n      0x20\n      add\n      0x00\n      keccak256\n        /* \"CROWD_TANK/contracts/CrowdTank.sol\":6421:6467  project storage Project = Projects[_projectID] */\n      swap1\n      pop\n        /* \"CROWD_TANK/contracts/CrowdTank.sol\":6505:6506  0 */\n      0x00\n        /* \"CROWD_TANK/contracts/CrowdTank.sol\":6486:6493  Project */\n      dup2\n        /* \"CROWD_TANK/contracts/CrowdTank.sol\":6486:6502  Project.deadline */\n      0x04\n      add\n      sload\n        /* \"CROWD_TANK/contracts/CrowdTank.sol\":6486:6506  Project.deadline > 0 */\n      gt\n        /* \"CROWD_TANK/contracts/CrowdTank.sol\":6478:6567  require(Project.deadline > 0 , \"Deadline is over , you Can't change the funding goal !!\") */\n      tag_87\n      jumpi\n      mload(0x40)\n      0x08c379a000000000000000000000000000000000000000000000000000000000\n      dup2\n      mstore\n      0x04\n      add\n      tag_88\n      swap1\n      tag_89\n      jump\t// in\n    tag_88:\n      mload(0x40)\n      dup1\n      swap2\n      sub\n      swap1\n      revert\n    tag_87:\n        /* \"CROWD_TANK/contracts/CrowdTank.sol\":6605:6615  msg.sender */\n      caller\n        /* \"CROWD_TANK/contracts/CrowdTank.sol\":6586:6615  Project.creator == msg.sender */\n      0xffffffffffffffffffffffffffffffffffffffff\n      and\n        /* \"CROWD_TANK/contracts/CrowdTank.sol\":6586:6593  Project */\n      dup2\n        /* \"CROWD_TANK/contracts/CrowdTank.sol\":6586:6601  Project.creator */\n      0x00\n      add\n      0x00\n      swap1\n      sload\n      swap1\n      0x0100\n      exp\n      swap1\n      div\n      0xffffffffffffffffffffffffffffffffffffffff\n      and\n        /* \"CROWD_TANK/contracts/CrowdTank.sol\":6586:6615  Project.creator == msg.sender */\n      0xffffffffffffffffffffffffffffffffffffffff\n      and\n      eq\n        /* \"CROWD_TANK/contracts/CrowdTank.sol\":6578:6689  require(Project.creator == msg.sender , \"You are not the project creator , Only Porject creator can Change !!\") */\n      tag_90\n      jumpi\n      mload(0x40)\n      0x08c379a000000000000000000000000000000000000000000000000000000000\n      dup2\n      mstore\n      0x04\n      add\n      tag_91\n      swap1\n      tag_92\n      jump\t// in\n    tag_91:\n      mload(0x40)\n      dup1\n      swap2\n      sub\n      swap1\n      revert\n    tag_90:\n        /* \"CROWD_TANK/contracts/CrowdTank.sol\":6724:6735  Change_Goal */\n      dup2\n        /* \"CROWD_TANK/contracts/CrowdTank.sol\":6702:6709  Project */\n      dup2\n        /* \"CROWD_TANK/contracts/CrowdTank.sol\":6702:6721  Project.fundingGoal */\n      0x03\n      add\n        /* \"CROWD_TANK/contracts/CrowdTank.sol\":6702:6735  Project.fundingGoal = Change_Goal */\n      dup2\n      swap1\n      sstore\n      pop\n        /* \"CROWD_TANK/contracts/CrowdTank.sol\":6409:6743  {... */\n      pop\n        /* \"CROWD_TANK/contracts/CrowdTank.sol\":6335:6743  function Change_FundingGoal( uint _projectID , uint Change_Goal) external {... */\n      pop\n      pop\n      jump\t// out\n        /* \"CROWD_TANK/contracts/CrowdTank.sol\":737:778  mapping (uint => project) public Projects */\n    tag_32:\n      mstore(0x20, 0x03)\n      dup1\n      0x00\n      mstore\n      keccak256(0x00, 0x40)\n      0x00\n      swap2\n      pop\n      swap1\n      pop\n      dup1\n      0x00\n      add\n      0x00\n      swap1\n      sload\n      swap1\n      0x0100\n      exp\n      swap1\n      div\n      0xffffffffffffffffffffffffffffffffffffffff\n      and\n      swap1\n      dup1\n      0x01\n      add\n      dup1\n      sload\n      tag_93\n      swap1\n      tag_94\n      jump\t// in\n    tag_93:\n      dup1\n      0x1f\n      add\n      0x20\n      dup1\n      swap2\n      div\n      mul\n      0x20\n      add\n      mload(0x40)\n      swap1\n      dup2\n      add\n      0x40\n      mstore\n      dup1\n      swap3\n      swap2\n      swap1\n      dup2\n      dup2\n      mstore\n      0x20\n      add\n      dup3\n      dup1\n      sload\n      tag_95\n      swap1\n      tag_94\n      jump\t// in\n    tag_95:\n      dup1\n      iszero\n      tag_96\n      jumpi\n      dup1\n      0x1f\n      lt\n      tag_97\n      jumpi\n      0x0100\n      dup1\n      dup4\n      sload\n      div\n      mul\n      dup4\n      mstore\n      swap2\n      0x20\n      add\n      swap2\n      jump(tag_96)\n    tag_97:\n      dup3\n      add\n      swap2\n      swap1\n      0x00\n      mstore\n      keccak256(0x00, 0x20)\n      swap1\n    tag_98:\n      dup2\n      sload\n      dup2\n      mstore\n      swap1\n      0x01\n      add\n      swap1\n      0x20\n      add\n      dup1\n      dup4\n      gt\n      tag_98\n      jumpi\n      dup3\n      swap1\n      sub\n      0x1f\n      and\n      dup3\n      add\n      swap2\n    tag_96:\n      pop\n      pop\n      pop\n      pop\n      pop\n      swap1\n      dup1\n      0x02\n      add\n      dup1\n      sload\n      tag_99\n      swap1\n      tag_94\n      jump\t// in\n    tag_99:\n      dup1\n      0x1f\n      add\n      0x20\n      dup1\n      swap2\n      div\n      mul\n      0x20\n      add\n      mload(0x40)\n      swap1\n      dup2\n      add\n      0x40\n      mstore\n      dup1\n      swap3\n      swap2\n      swap1\n      dup2\n      dup2\n      mstore\n      0x20\n      add\n      dup3\n      dup1\n      sload\n      tag_100\n      swap1\n      tag_94\n      jump\t// in\n    tag_100:\n      dup1\n      iszero\n      tag_101\n      jumpi\n      dup1\n      0x1f\n      lt\n      tag_102\n      jumpi\n      0x0100\n      dup1\n      dup4\n      sload\n      div\n      mul\n      dup4\n      mstore\n      swap2\n      0x20\n      add\n      swap2\n      jump(tag_101)\n    tag_102:\n      dup3\n      add\n      swap2\n      swap1\n      0x00\n      mstore\n      keccak256(0x00, 0x20)\n      swap1\n    tag_103:\n      dup2\n      sload\n      dup2\n      mstore\n      swap1\n      0x01\n      add\n      swap1\n      0x20\n      add\n      dup1\n      dup4\n      gt\n      tag_103\n      jumpi\n      dup3\n      swap1\n      sub\n      0x1f\n      and\n      dup3\n      add\n      swap2\n    tag_101:\n      pop\n      pop\n      pop\n      pop\n      pop\n      swap1\n      dup1\n      0x03\n      add\n      sload\n      swap1\n      dup1\n      0x04\n      add\n      sload\n      swap1\n      dup1\n      0x05\n      add\n      sload\n      swap1\n      dup1\n      0x06\n      add\n      0x00\n      swap1\n      sload\n      swap1\n      0x0100\n      exp\n      swap1\n      div\n      0xff\n      and\n      swap1\n      pop\n      dup8\n      jump\t// out\n        /* \"CROWD_TANK/contracts/CrowdTank.sol\":5122:5412  function Time_Left(uint projectID) view public returns(uint) {... */\n    tag_38:\n        /* \"CROWD_TANK/contracts/CrowdTank.sol\":5177:5181  uint */\n      0x00\n        /* \"CROWD_TANK/contracts/CrowdTank.sol\":5194:5217  project storage Project */\n      0x00\n        /* \"CROWD_TANK/contracts/CrowdTank.sol\":5220:5228  Projects */\n      0x03\n        /* \"CROWD_TANK/contracts/CrowdTank.sol\":5220:5239  Projects[projectID] */\n      0x00\n        /* \"CROWD_TANK/contracts/CrowdTank.sol\":5229:5238  projectID */\n      dup5\n        /* \"CROWD_TANK/contracts/CrowdTank.sol\":5220:5239  Projects[projectID] */\n      dup2\n      mstore\n      0x20\n      add\n      swap1\n      dup2\n      mstore\n      0x20\n      add\n      0x00\n      keccak256\n        /* \"CROWD_TANK/contracts/CrowdTank.sol\":5194:5239  project storage Project = Projects[projectID] */\n      swap1\n      pop\n        /* \"CROWD_TANK/contracts/CrowdTank.sol\":5273:5280  Project */\n      dup1\n        /* \"CROWD_TANK/contracts/CrowdTank.sol\":5273:5289  Project.deadline */\n      0x04\n      add\n      sload\n        /* \"CROWD_TANK/contracts/CrowdTank.sol\":5254:5269  block.timestamp */\n      timestamp\n        /* \"CROWD_TANK/contracts/CrowdTank.sol\":5254:5289  block.timestamp >= Project.deadline */\n      lt\n        /* \"CROWD_TANK/contracts/CrowdTank.sol\":5250:5401  if (block.timestamp >= Project.deadline) {... */\n      tag_105\n      jumpi\n        /* \"CROWD_TANK/contracts/CrowdTank.sol\":5313:5314  0 */\n      0x00\n        /* \"CROWD_TANK/contracts/CrowdTank.sol\":5306:5314  return 0 */\n      swap2\n      pop\n      pop\n      jump(tag_104)\n        /* \"CROWD_TANK/contracts/CrowdTank.sol\":5250:5401  if (block.timestamp >= Project.deadline) {... */\n    tag_105:\n        /* \"CROWD_TANK/contracts/CrowdTank.sol\":5373:5388  block.timestamp */\n      timestamp\n        /* \"CROWD_TANK/contracts/CrowdTank.sol\":5354:5361  Project */\n      dup2\n        /* \"CROWD_TANK/contracts/CrowdTank.sol\":5354:5370  Project.deadline */\n      0x04\n      add\n      sload\n        /* \"CROWD_TANK/contracts/CrowdTank.sol\":5354:5388  Project.deadline - block.timestamp */\n      tag_107\n      swap2\n      swap1\n      tag_85\n      jump\t// in\n    tag_107:\n        /* \"CROWD_TANK/contracts/CrowdTank.sol\":5347:5389  return(Project.deadline - block.timestamp) */\n      swap2\n      pop\n      pop\n        /* \"CROWD_TANK/contracts/CrowdTank.sol\":5122:5412  function Time_Left(uint projectID) view public returns(uint) {... */\n    tag_104:\n      swap2\n      swap1\n      pop\n      jump\t// out\n        /* \"CROWD_TANK/contracts/CrowdTank.sol\":3932:4399  function userWithdraw(uint _projectID) external payable {... */\n    tag_43:\n        /* \"CROWD_TANK/contracts/CrowdTank.sol\":3999:4022  project storage Project */\n      0x00\n        /* \"CROWD_TANK/contracts/CrowdTank.sol\":4025:4033  Projects */\n      0x03\n        /* \"CROWD_TANK/contracts/CrowdTank.sol\":4025:4045  Projects[_projectID] */\n      0x00\n        /* \"CROWD_TANK/contracts/CrowdTank.sol\":4034:4044  _projectID */\n      dup4\n        /* \"CROWD_TANK/contracts/CrowdTank.sol\":4025:4045  Projects[_projectID] */\n      dup2\n      mstore\n      0x20\n      add\n      swap1\n      dup2\n      mstore\n      0x20\n      add\n      0x00\n      keccak256\n        /* \"CROWD_TANK/contracts/CrowdTank.sol\":3999:4045  project storage Project = Projects[_projectID] */\n      swap1\n      pop\n        /* \"CROWD_TANK/contracts/CrowdTank.sol\":4085:4092  Project */\n      dup1\n        /* \"CROWD_TANK/contracts/CrowdTank.sol\":4085:4104  Project.fundingGoal */\n      0x03\n      add\n      sload\n        /* \"CROWD_TANK/contracts/CrowdTank.sol\":4064:4071  Project */\n      dup2\n        /* \"CROWD_TANK/contracts/CrowdTank.sol\":4064:4084  Project.amountRaised */\n      0x05\n      add\n      sload\n        /* \"CROWD_TANK/contracts/CrowdTank.sol\":4064:4104  Project.amountRaised<Project.fundingGoal */\n      lt\n        /* \"CROWD_TANK/contracts/CrowdTank.sol\":4056:4156  require(Project.amountRaised<Project.fundingGoal , \"Funding goal has reached , user can't withdraw\") */\n      tag_109\n      jumpi\n      mload(0x40)\n      0x08c379a000000000000000000000000000000000000000000000000000000000\n      dup2\n      mstore\n      0x04\n      add\n      tag_110\n      swap1\n      tag_111\n      jump\t// in\n    tag_110:\n      mload(0x40)\n      dup1\n      swap2\n      sub\n      swap1\n      revert\n    tag_109:\n        /* \"CROWD_TANK/contracts/CrowdTank.sol\":4167:4188  uint fundsContributed */\n      0x00\n        /* \"CROWD_TANK/contracts/CrowdTank.sol\":4191:4204  Contributions */\n      0x04\n        /* \"CROWD_TANK/contracts/CrowdTank.sol\":4191:4216  Contributions[_projectID] */\n      0x00\n        /* \"CROWD_TANK/contracts/CrowdTank.sol\":4205:4215  _projectID */\n      dup5\n        /* \"CROWD_TANK/contracts/CrowdTank.sol\":4191:4216  Contributions[_projectID] */\n      dup2\n      mstore\n      0x20\n      add\n      swap1\n      dup2\n      mstore\n      0x20\n      add\n      0x00\n      keccak256\n        /* \"CROWD_TANK/contracts/CrowdTank.sol\":4191:4228  Contributions[_projectID][msg.sender] */\n      0x00\n        /* \"CROWD_TANK/contracts/CrowdTank.sol\":4217:4227  msg.sender */\n      caller\n        /* \"CROWD_TANK/contracts/CrowdTank.sol\":4191:4228  Contributions[_projectID][msg.sender] */\n      0xffffffffffffffffffffffffffffffffffffffff\n      and\n      0xffffffffffffffffffffffffffffffffffffffff\n      and\n      dup2\n      mstore\n      0x20\n      add\n      swap1\n      dup2\n      mstore\n      0x20\n      add\n      0x00\n      keccak256\n      sload\n        /* \"CROWD_TANK/contracts/CrowdTank.sol\":4167:4228  uint fundsContributed = Contributions[_projectID][msg.sender] */\n      swap1\n      pop\n        /* \"CROWD_TANK/contracts/CrowdTank.sol\":4247:4257  msg.sender */\n      caller\n        /* \"CROWD_TANK/contracts/CrowdTank.sol\":4239:4267  payable(msg.sender).transfer */\n      0xffffffffffffffffffffffffffffffffffffffff\n      and\n        /* \"CROWD_TANK/contracts/CrowdTank.sol\":4239:4285  payable(msg.sender).transfer(fundsContributed) */\n      0x08fc\n        /* \"CROWD_TANK/contracts/CrowdTank.sol\":4268:4284  fundsContributed */\n      dup3\n        /* \"CROWD_TANK/contracts/CrowdTank.sol\":4239:4285  payable(msg.sender).transfer(fundsContributed) */\n      swap1\n      dup2\n      iszero\n      mul\n      swap1\n      mload(0x40)\n      0x00\n      mload(0x40)\n      dup1\n      dup4\n      sub\n      dup2\n      dup6\n      dup9\n      dup9\n      call\n      swap4\n      pop\n      pop\n      pop\n      pop\n      iszero\n      dup1\n      iszero\n      tag_113\n      jumpi\n      returndatacopy(0x00, 0x00, returndatasize)\n      revert(0x00, returndatasize)\n    tag_113:\n      pop\n        /* \"CROWD_TANK/contracts/CrowdTank.sol\":4347:4357  _projectID */\n      dup3\n        /* \"CROWD_TANK/contracts/CrowdTank.sol\":4333:4381  userWithdrawn(_projectID, msg.sender, msg.value) */\n      0xb6e4e293b6c7c5cf68fbb52edfaca6173710fcccbcecac03c32e62327fc000c6\n        /* \"CROWD_TANK/contracts/CrowdTank.sol\":4359:4369  msg.sender */\n      caller\n        /* \"CROWD_TANK/contracts/CrowdTank.sol\":4371:4380  msg.value */\n      callvalue\n        /* \"CROWD_TANK/contracts/CrowdTank.sol\":4333:4381  userWithdrawn(_projectID, msg.sender, msg.value) */\n      mload(0x40)\n      tag_114\n      swap3\n      swap2\n      swap1\n      tag_115\n      jump\t// in\n    tag_114:\n      mload(0x40)\n      dup1\n      swap2\n      sub\n      swap1\n      log2\n        /* \"CROWD_TANK/contracts/CrowdTank.sol\":3988:4399  {... */\n      pop\n      pop\n        /* \"CROWD_TANK/contracts/CrowdTank.sol\":3932:4399  function userWithdraw(uint _projectID) external payable {... */\n      pop\n      jump\t// out\n        /* \"CROWD_TANK/contracts/CrowdTank.sol\":6791:7058  function Funding_Raised_Percentage( uint _projectID ) public view  returns(uint) {... */\n    tag_47:\n        /* \"CROWD_TANK/contracts/CrowdTank.sol\":6866:6870  uint */\n      0x00\n        /* \"CROWD_TANK/contracts/CrowdTank.sol\":6883:6906  project storage Project */\n      0x00\n        /* \"CROWD_TANK/contracts/CrowdTank.sol\":6909:6917  Projects */\n      0x03\n        /* \"CROWD_TANK/contracts/CrowdTank.sol\":6909:6929  Projects[_projectID] */\n      0x00\n        /* \"CROWD_TANK/contracts/CrowdTank.sol\":6918:6928  _projectID */\n      dup5\n        /* \"CROWD_TANK/contracts/CrowdTank.sol\":6909:6929  Projects[_projectID] */\n      dup2\n      mstore\n      0x20\n      add\n      swap1\n      dup2\n      mstore\n      0x20\n      add\n      0x00\n      keccak256\n        /* \"CROWD_TANK/contracts/CrowdTank.sol\":6883:6929  project storage Project = Projects[_projectID] */\n      swap1\n      pop\n        /* \"CROWD_TANK/contracts/CrowdTank.sol\":6940:6962  uint Raised_Percentage */\n      0x00\n        /* \"CROWD_TANK/contracts/CrowdTank.sol\":6996:7003  Project */\n      dup2\n        /* \"CROWD_TANK/contracts/CrowdTank.sol\":6996:7015  Project.fundingGoal */\n      0x03\n      add\n      sload\n        /* \"CROWD_TANK/contracts/CrowdTank.sol\":6988:6991  100 */\n      0x64\n        /* \"CROWD_TANK/contracts/CrowdTank.sol\":6967:6974  Project */\n      dup4\n        /* \"CROWD_TANK/contracts/CrowdTank.sol\":6967:6987  Project.amountRaised */\n      0x05\n      add\n      sload\n        /* \"CROWD_TANK/contracts/CrowdTank.sol\":6967:6991  Project.amountRaised*100 */\n      tag_117\n      swap2\n      swap1\n      tag_118\n      jump\t// in\n    tag_117:\n        /* \"CROWD_TANK/contracts/CrowdTank.sol\":6965:7015  ( Project.amountRaised*100 ) / Project.fundingGoal */\n      tag_119\n      swap2\n      swap1\n      tag_120\n      jump\t// in\n    tag_119:\n        /* \"CROWD_TANK/contracts/CrowdTank.sol\":6940:7015  uint Raised_Percentage = ( Project.amountRaised*100 ) / Project.fundingGoal */\n      swap1\n      pop\n        /* \"CROWD_TANK/contracts/CrowdTank.sol\":7033:7050  Raised_Percentage */\n      dup1\n        /* \"CROWD_TANK/contracts/CrowdTank.sol\":7026:7050  return Raised_Percentage */\n      swap3\n      pop\n      pop\n      pop\n        /* \"CROWD_TANK/contracts/CrowdTank.sol\":6791:7058  function Funding_Raised_Percentage( uint _projectID ) public view  returns(uint) {... */\n      swap2\n      swap1\n      pop\n      jump\t// out\n        /* \"CROWD_TANK/contracts/CrowdTank.sol\":3786:3892  function Get_Total_Raised_Funding() view public returns(uint) {... */\n    tag_51:\n        /* \"CROWD_TANK/contracts/CrowdTank.sol\":3842:3846  uint */\n      0x00\n        /* \"CROWD_TANK/contracts/CrowdTank.sol\":3866:3884  TotalRaisedFunding */\n      sload(0x01)\n        /* \"CROWD_TANK/contracts/CrowdTank.sol\":3859:3884  return TotalRaisedFunding */\n      swap1\n      pop\n        /* \"CROWD_TANK/contracts/CrowdTank.sol\":3786:3892  function Get_Total_Raised_Funding() view public returns(uint) {... */\n      swap1\n      jump\t// out\n        /* \"CROWD_TANK/contracts/CrowdTank.sol\":837:901  mapping (uint => mapping (address => uint)) public Contributions */\n    tag_57:\n      mstore(0x20, 0x04)\n      dup2\n      0x00\n      mstore\n      mstore(0x20, keccak256(0x00, 0x40))\n      dup1\n      0x00\n      mstore\n      keccak256(0x00, 0x40)\n      0x00\n      swap2\n      pop\n      swap2\n      pop\n      pop\n      sload\n      dup2\n      jump\t// out\n        /* \"CROWD_TANK/contracts/CrowdTank.sol\":6015:6288  function Extend_Deadline(uint _projectID , uint _deadline) external {... */\n    tag_62:\n        /* \"CROWD_TANK/contracts/CrowdTank.sol\":6094:6117  project storage Project */\n      0x00\n        /* \"CROWD_TANK/contracts/CrowdTank.sol\":6120:6128  Projects */\n      0x03\n        /* \"CROWD_TANK/contracts/CrowdTank.sol\":6120:6140  Projects[_projectID] */\n      0x00\n        /* \"CROWD_TANK/contracts/CrowdTank.sol\":6129:6139  _projectID */\n      dup5\n        /* \"CROWD_TANK/contracts/CrowdTank.sol\":6120:6140  Projects[_projectID] */\n      dup2\n      mstore\n      0x20\n      add\n      swap1\n      dup2\n      mstore\n      0x20\n      add\n      0x00\n      keccak256\n        /* \"CROWD_TANK/contracts/CrowdTank.sol\":6094:6140  project storage Project = Projects[_projectID] */\n      swap1\n      pop\n        /* \"CROWD_TANK/contracts/CrowdTank.sol\":6178:6188  msg.sender */\n      caller\n        /* \"CROWD_TANK/contracts/CrowdTank.sol\":6159:6188  Project.creator == msg.sender */\n      0xffffffffffffffffffffffffffffffffffffffff\n      and\n        /* \"CROWD_TANK/contracts/CrowdTank.sol\":6159:6166  Project */\n      dup2\n        /* \"CROWD_TANK/contracts/CrowdTank.sol\":6159:6174  Project.creator */\n      0x00\n      add\n      0x00\n      swap1\n      sload\n      swap1\n      0x0100\n      exp\n      swap1\n      div\n      0xffffffffffffffffffffffffffffffffffffffff\n      and\n        /* \"CROWD_TANK/contracts/CrowdTank.sol\":6159:6188  Project.creator == msg.sender */\n      0xffffffffffffffffffffffffffffffffffffffff\n      and\n      eq\n        /* \"CROWD_TANK/contracts/CrowdTank.sol\":6151:6240  require(Project.creator == msg.sender , \"Only Project creator can extend the deadline!!\") */\n      tag_123\n      jumpi\n      mload(0x40)\n      0x08c379a000000000000000000000000000000000000000000000000000000000\n      dup2\n      mstore\n      0x04\n      add\n      tag_124\n      swap1\n      tag_125\n      jump\t// in\n    tag_124:\n      mload(0x40)\n      dup1\n      swap2\n      sub\n      swap1\n      revert\n    tag_123:\n        /* \"CROWD_TANK/contracts/CrowdTank.sol\":6271:6280  _deadline */\n      dup2\n        /* \"CROWD_TANK/contracts/CrowdTank.sol\":6251:6258  Project */\n      dup2\n        /* \"CROWD_TANK/contracts/CrowdTank.sol\":6251:6267  Project.deadline */\n      0x04\n      add\n      0x00\n        /* \"CROWD_TANK/contracts/CrowdTank.sol\":6251:6280  Project.deadline += _deadline */\n      dup3\n      dup3\n      sload\n      tag_126\n      swap2\n      swap1\n      tag_127\n      jump\t// in\n    tag_126:\n      swap3\n      pop\n      pop\n      dup2\n      swap1\n      sstore\n      pop\n        /* \"CROWD_TANK/contracts/CrowdTank.sol\":6083:6288  {... */\n      pop\n        /* \"CROWD_TANK/contracts/CrowdTank.sol\":6015:6288  function Extend_Deadline(uint _projectID , uint _deadline) external {... */\n      pop\n      pop\n      jump\t// out\n        /* \"CROWD_TANK/contracts/CrowdTank.sol\":2299:3745  function fundProject(uint _projectID) external payable nonReentrant {... */\n    tag_65:\n        /* \"@openzeppelin/contracts/utils/ReentrancyGuard.sol\":2500:2521  _nonReentrantBefore() */\n      tag_129\n        /* \"@openzeppelin/contracts/utils/ReentrancyGuard.sol\":2500:2519  _nonReentrantBefore */\n      tag_130\n        /* \"@openzeppelin/contracts/utils/ReentrancyGuard.sol\":2500:2521  _nonReentrantBefore() */\n      jump\t// in\n    tag_129:\n        /* \"CROWD_TANK/contracts/CrowdTank.sol\":2382:2405  project storage Project */\n      0x00\n        /* \"CROWD_TANK/contracts/CrowdTank.sol\":2408:2416  Projects */\n      0x03\n        /* \"CROWD_TANK/contracts/CrowdTank.sol\":2408:2428  Projects[_projectID] */\n      0x00\n        /* \"CROWD_TANK/contracts/CrowdTank.sol\":2417:2427  _projectID */\n      dup4\n        /* \"CROWD_TANK/contracts/CrowdTank.sol\":2408:2428  Projects[_projectID] */\n      dup2\n      mstore\n      0x20\n      add\n      swap1\n      dup2\n      mstore\n      0x20\n      add\n      0x00\n      keccak256\n        /* \"CROWD_TANK/contracts/CrowdTank.sol\":2382:2428  project storage Project = Projects[_projectID] */\n      swap1\n      pop\n        /* \"CROWD_TANK/contracts/CrowdTank.sol\":2468:2475  Project */\n      dup1\n        /* \"CROWD_TANK/contracts/CrowdTank.sol\":2468:2484  Project.deadline */\n      0x04\n      add\n      sload\n        /* \"CROWD_TANK/contracts/CrowdTank.sol\":2451:2466  block.timestamp */\n      timestamp\n        /* \"CROWD_TANK/contracts/CrowdTank.sol\":2451:2484  block.timestamp<=Project.deadline */\n      gt\n      iszero\n        /* \"CROWD_TANK/contracts/CrowdTank.sol\":2443:2515  require(block.timestamp<=Project.deadline , \"Project deadline is over!\") */\n      tag_132\n      jumpi\n      mload(0x40)\n      0x08c379a000000000000000000000000000000000000000000000000000000000\n      dup2\n      mstore\n      0x04\n      add\n      tag_133\n      swap1\n      tag_134\n      jump\t// in\n    tag_133:\n      mload(0x40)\n      dup1\n      swap2\n      sub\n      swap1\n      revert\n    tag_132:\n        /* \"CROWD_TANK/contracts/CrowdTank.sol\":2539:2546  Project */\n      dup1\n        /* \"CROWD_TANK/contracts/CrowdTank.sol\":2539:2553  Project.funded */\n      0x06\n      add\n      0x00\n      swap1\n      sload\n      swap1\n      0x0100\n      exp\n      swap1\n      div\n      0xff\n      and\n        /* \"CROWD_TANK/contracts/CrowdTank.sol\":2538:2553  !Project.funded */\n      iszero\n        /* \"CROWD_TANK/contracts/CrowdTank.sol\":2530:2598  require(!Project.funded , \"Project Reached its Funding requirement\") */\n      tag_135\n      jumpi\n      mload(0x40)\n      0x08c379a000000000000000000000000000000000000000000000000000000000\n      dup2\n      mstore\n      0x04\n      add\n      tag_136\n      swap1\n      tag_137\n      jump\t// in\n    tag_136:\n      mload(0x40)\n      dup1\n      swap2\n      sub\n      swap1\n      revert\n    tag_135:\n        /* \"CROWD_TANK/contracts/CrowdTank.sol\":2631:2632  0 */\n      0x00\n        /* \"CROWD_TANK/contracts/CrowdTank.sol\":2621:2630  msg.value */\n      callvalue\n        /* \"CROWD_TANK/contracts/CrowdTank.sol\":2621:2632  msg.value>0 */\n      gt\n        /* \"CROWD_TANK/contracts/CrowdTank.sol\":2613:2682  require(msg.value>0 , \"send some ether to contribute in the project\") */\n      tag_138\n      jumpi\n      mload(0x40)\n      0x08c379a000000000000000000000000000000000000000000000000000000000\n      dup2\n      mstore\n      0x04\n      add\n      tag_139\n      swap1\n      tag_140\n      jump\t// in\n    tag_139:\n      mload(0x40)\n      dup1\n      swap2\n      sub\n      swap1\n      revert\n    tag_138:\n        /* \"CROWD_TANK/contracts/CrowdTank.sol\":2718:2725  Project */\n      dup1\n        /* \"CROWD_TANK/contracts/CrowdTank.sol\":2718:2737  Project.fundingGoal */\n      0x03\n      add\n      sload\n        /* \"CROWD_TANK/contracts/CrowdTank.sol\":2705:2714  msg.value */\n      callvalue\n        /* \"CROWD_TANK/contracts/CrowdTank.sol\":2705:2737  msg.value <= Project.fundingGoal */\n      gt\n      iszero\n        /* \"CROWD_TANK/contracts/CrowdTank.sol\":2697:2778  require(msg.value <= Project.fundingGoal, \"Amount Contributed is more than Goal\") */\n      tag_141\n      jumpi\n      mload(0x40)\n      0x08c379a000000000000000000000000000000000000000000000000000000000\n      dup2\n      mstore\n      0x04\n      add\n      tag_142\n      swap1\n      tag_143\n      jump\t// in\n    tag_142:\n      mload(0x40)\n      dup1\n      swap2\n      sub\n      swap1\n      revert\n    tag_141:\n        /* \"CROWD_TANK/contracts/CrowdTank.sol\":2793:2807  uint remaining */\n      0x00\n        /* \"CROWD_TANK/contracts/CrowdTank.sol\":2832:2839  Project */\n      dup2\n        /* \"CROWD_TANK/contracts/CrowdTank.sol\":2832:2852  Project.amountRaised */\n      0x05\n      add\n      sload\n        /* \"CROWD_TANK/contracts/CrowdTank.sol\":2810:2817  Project */\n      dup3\n        /* \"CROWD_TANK/contracts/CrowdTank.sol\":2810:2829  Project.fundingGoal */\n      0x03\n      add\n      sload\n        /* \"CROWD_TANK/contracts/CrowdTank.sol\":2810:2852  Project.fundingGoal - Project.amountRaised */\n      tag_144\n      swap2\n      swap1\n      tag_85\n      jump\t// in\n    tag_144:\n        /* \"CROWD_TANK/contracts/CrowdTank.sol\":2793:2852  uint remaining = Project.fundingGoal - Project.amountRaised */\n      swap1\n      pop\n        /* \"CROWD_TANK/contracts/CrowdTank.sol\":2867:2886  uint amountToAccept */\n      0x00\n        /* \"CROWD_TANK/contracts/CrowdTank.sol\":2901:2912  uint refund */\n      0x00\n        /* \"CROWD_TANK/contracts/CrowdTank.sol\":2943:2952  remaining */\n      dup3\n        /* \"CROWD_TANK/contracts/CrowdTank.sol\":2931:2940  msg.value */\n      callvalue\n        /* \"CROWD_TANK/contracts/CrowdTank.sol\":2931:2952  msg.value > remaining */\n      gt\n        /* \"CROWD_TANK/contracts/CrowdTank.sol\":2927:3160  if (msg.value > remaining) {... */\n      iszero\n      tag_145\n      jumpi\n        /* \"CROWD_TANK/contracts/CrowdTank.sol\":2990:2999  remaining */\n      dup3\n        /* \"CROWD_TANK/contracts/CrowdTank.sol\":2973:2999  amountToAccept = remaining */\n      swap2\n      pop\n        /* \"CROWD_TANK/contracts/CrowdTank.sol\":3039:3048  remaining */\n      dup3\n        /* \"CROWD_TANK/contracts/CrowdTank.sol\":3027:3036  msg.value */\n      callvalue\n        /* \"CROWD_TANK/contracts/CrowdTank.sol\":3027:3048  msg.value - remaining */\n      tag_146\n      swap2\n      swap1\n      tag_85\n      jump\t// in\n    tag_146:\n        /* \"CROWD_TANK/contracts/CrowdTank.sol\":3018:3048  refund = msg.value - remaining */\n      swap1\n      pop\n        /* \"CROWD_TANK/contracts/CrowdTank.sol\":2927:3160  if (msg.value > remaining) {... */\n      jump(tag_147)\n    tag_145:\n        /* \"CROWD_TANK/contracts/CrowdTank.sol\":3106:3115  msg.value */\n      callvalue\n        /* \"CROWD_TANK/contracts/CrowdTank.sol\":3089:3115  amountToAccept = msg.value */\n      swap2\n      pop\n        /* \"CROWD_TANK/contracts/CrowdTank.sol\":3143:3144  0 */\n      0x00\n        /* \"CROWD_TANK/contracts/CrowdTank.sol\":3134:3144  refund = 0 */\n      swap1\n      pop\n        /* \"CROWD_TANK/contracts/CrowdTank.sol\":2927:3160  if (msg.value > remaining) {... */\n    tag_147:\n        /* \"CROWD_TANK/contracts/CrowdTank.sol\":3198:3212  amountToAccept */\n      dup2\n        /* \"CROWD_TANK/contracts/CrowdTank.sol\":3174:3181  Project */\n      dup5\n        /* \"CROWD_TANK/contracts/CrowdTank.sol\":3174:3194  Project.amountRaised */\n      0x05\n      add\n      0x00\n        /* \"CROWD_TANK/contracts/CrowdTank.sol\":3174:3212  Project.amountRaised += amountToAccept */\n      dup3\n      dup3\n      sload\n      tag_148\n      swap2\n      swap1\n      tag_127\n      jump\t// in\n    tag_148:\n      swap3\n      pop\n      pop\n      dup2\n      swap1\n      sstore\n      pop\n        /* \"CROWD_TANK/contracts/CrowdTank.sol\":3267:3281  amountToAccept */\n      dup2\n        /* \"CROWD_TANK/contracts/CrowdTank.sol\":3227:3240  Contributions */\n      0x04\n        /* \"CROWD_TANK/contracts/CrowdTank.sol\":3227:3252  Contributions[_projectID] */\n      0x00\n        /* \"CROWD_TANK/contracts/CrowdTank.sol\":3241:3251  _projectID */\n      dup8\n        /* \"CROWD_TANK/contracts/CrowdTank.sol\":3227:3252  Contributions[_projectID] */\n      dup2\n      mstore\n      0x20\n      add\n      swap1\n      dup2\n      mstore\n      0x20\n      add\n      0x00\n      keccak256\n        /* \"CROWD_TANK/contracts/CrowdTank.sol\":3227:3264  Contributions[_projectID][msg.sender] */\n      0x00\n        /* \"CROWD_TANK/contracts/CrowdTank.sol\":3253:3263  msg.sender */\n      caller\n        /* \"CROWD_TANK/contracts/CrowdTank.sol\":3227:3264  Contributions[_projectID][msg.sender] */\n      0xffffffffffffffffffffffffffffffffffffffff\n      and\n      0xffffffffffffffffffffffffffffffffffffffff\n      and\n      dup2\n      mstore\n      0x20\n      add\n      swap1\n      dup2\n      mstore\n      0x20\n      add\n      0x00\n      keccak256\n        /* \"CROWD_TANK/contracts/CrowdTank.sol\":3227:3281  Contributions[_projectID][msg.sender] = amountToAccept */\n      dup2\n      swap1\n      sstore\n      pop\n        /* \"CROWD_TANK/contracts/CrowdTank.sol\":3349:3363  amountToAccept */\n      dup2\n        /* \"CROWD_TANK/contracts/CrowdTank.sol\":3329:3347  TotalRaisedFunding */\n      0x01\n      0x00\n        /* \"CROWD_TANK/contracts/CrowdTank.sol\":3329:3363  TotalRaisedFunding+=amountToAccept */\n      dup3\n      dup3\n      sload\n      tag_149\n      swap2\n      swap1\n      tag_127\n      jump\t// in\n    tag_149:\n      swap3\n      pop\n      pop\n      dup2\n      swap1\n      sstore\n      pop\n        /* \"CROWD_TANK/contracts/CrowdTank.sol\":3391:3392  0 */\n      0x00\n        /* \"CROWD_TANK/contracts/CrowdTank.sol\":3382:3388  refund */\n      dup2\n        /* \"CROWD_TANK/contracts/CrowdTank.sol\":3382:3392  refund > 0 */\n      gt\n        /* \"CROWD_TANK/contracts/CrowdTank.sol\":3378:3538  if (refund > 0) {... */\n      iszero\n      tag_150\n      jumpi\n        /* \"CROWD_TANK/contracts/CrowdTank.sol\":3414:3423  bool sent */\n      0x00\n        /* \"CROWD_TANK/contracts/CrowdTank.sol\":3437:3447  msg.sender */\n      caller\n        /* \"CROWD_TANK/contracts/CrowdTank.sol\":3429:3453  payable(msg.sender).call */\n      0xffffffffffffffffffffffffffffffffffffffff\n      and\n        /* \"CROWD_TANK/contracts/CrowdTank.sol\":3461:3467  refund */\n      dup3\n        /* \"CROWD_TANK/contracts/CrowdTank.sol\":3429:3472  payable(msg.sender).call{value: refund}(\"\") */\n      mload(0x40)\n      tag_151\n      swap1\n      tag_152\n      jump\t// in\n    tag_151:\n      0x00\n      mload(0x40)\n      dup1\n      dup4\n      sub\n      dup2\n      dup6\n      dup8\n      gas\n      call\n      swap3\n      pop\n      pop\n      pop\n      returndatasize\n      dup1\n      0x00\n      dup2\n      eq\n      tag_155\n      jumpi\n      mload(0x40)\n      swap2\n      pop\n      and(add(returndatasize, 0x3f), not(0x1f))\n      dup3\n      add\n      0x40\n      mstore\n      returndatasize\n      dup3\n      mstore\n      returndatasize\n      0x00\n      0x20\n      dup5\n      add\n      returndatacopy\n      jump(tag_154)\n    tag_155:\n      0x60\n      swap2\n      pop\n    tag_154:\n      pop\n        /* \"CROWD_TANK/contracts/CrowdTank.sol\":3413:3472  (bool sent, ) = payable(msg.sender).call{value: refund}(\"\") */\n      pop\n      swap1\n      pop\n        /* \"CROWD_TANK/contracts/CrowdTank.sol\":3499:3503  sent */\n      dup1\n        /* \"CROWD_TANK/contracts/CrowdTank.sol\":3491:3522  require(sent , \"Refund Failed\") */\n      tag_156\n      jumpi\n      mload(0x40)\n      0x08c379a000000000000000000000000000000000000000000000000000000000\n      dup2\n      mstore\n      0x04\n      add\n      tag_157\n      swap1\n      tag_158\n      jump\t// in\n    tag_157:\n      mload(0x40)\n      dup1\n      swap2\n      sub\n      swap1\n      revert\n    tag_156:\n        /* \"CROWD_TANK/contracts/CrowdTank.sol\":3394:3538  {... */\n      pop\n        /* \"CROWD_TANK/contracts/CrowdTank.sol\":3378:3538  if (refund > 0) {... */\n    tag_150:\n        /* \"CROWD_TANK/contracts/CrowdTank.sol\":3566:3576  _projectID */\n      dup5\n        /* \"CROWD_TANK/contracts/CrowdTank.sol\":3559:3614  funded(_projectID, msg.sender, amountToAccept , refund) */\n      0x7dd983e9d08b449d571f3583275e98423857f3ffbe9ef56f927eb02b1c8ab599\n        /* \"CROWD_TANK/contracts/CrowdTank.sol\":3578:3588  msg.sender */\n      caller\n        /* \"CROWD_TANK/contracts/CrowdTank.sol\":3590:3604  amountToAccept */\n      dup5\n        /* \"CROWD_TANK/contracts/CrowdTank.sol\":3607:3613  refund */\n      dup5\n        /* \"CROWD_TANK/contracts/CrowdTank.sol\":3559:3614  funded(_projectID, msg.sender, amountToAccept , refund) */\n      mload(0x40)\n      tag_159\n      swap4\n      swap3\n      swap2\n      swap1\n      tag_160\n      jump\t// in\n    tag_159:\n      mload(0x40)\n      dup1\n      swap2\n      sub\n      swap1\n      log2\n        /* \"CROWD_TANK/contracts/CrowdTank.sol\":3657:3664  Project */\n      dup4\n        /* \"CROWD_TANK/contracts/CrowdTank.sol\":3657:3676  Project.fundingGoal */\n      0x03\n      add\n      sload\n        /* \"CROWD_TANK/contracts/CrowdTank.sol\":3635:3642  Project */\n      dup5\n        /* \"CROWD_TANK/contracts/CrowdTank.sol\":3635:3655  Project.amountRaised */\n      0x05\n      add\n      sload\n        /* \"CROWD_TANK/contracts/CrowdTank.sol\":3635:3676  Project.amountRaised>=Project.fundingGoal */\n      lt\n        /* \"CROWD_TANK/contracts/CrowdTank.sol\":3631:3734  if (Project.amountRaised>=Project.fundingGoal) {... */\n      tag_161\n      jumpi\n        /* \"CROWD_TANK/contracts/CrowdTank.sol\":3714:3718  true */\n      0x01\n        /* \"CROWD_TANK/contracts/CrowdTank.sol\":3697:3704  Project */\n      dup5\n        /* \"CROWD_TANK/contracts/CrowdTank.sol\":3697:3711  Project.funded */\n      0x06\n      add\n      0x00\n        /* \"CROWD_TANK/contracts/CrowdTank.sol\":3697:3718  Project.funded = true */\n      0x0100\n      exp\n      dup2\n      sload\n      dup2\n      0xff\n      mul\n      not\n      and\n      swap1\n      dup4\n      iszero\n      iszero\n      mul\n      or\n      swap1\n      sstore\n      pop\n        /* \"CROWD_TANK/contracts/CrowdTank.sol\":3631:3734  if (Project.amountRaised>=Project.fundingGoal) {... */\n    tag_161:\n        /* \"CROWD_TANK/contracts/CrowdTank.sol\":2367:3745  {... */\n      pop\n      pop\n      pop\n      pop\n        /* \"@openzeppelin/contracts/utils/ReentrancyGuard.sol\":2542:2562  _nonReentrantAfter() */\n      tag_162\n        /* \"@openzeppelin/contracts/utils/ReentrancyGuard.sol\":2542:2560  _nonReentrantAfter */\n      tag_163\n        /* \"@openzeppelin/contracts/utils/ReentrancyGuard.sol\":2542:2562  _nonReentrantAfter() */\n      jump\t// in\n    tag_162:\n        /* \"CROWD_TANK/contracts/CrowdTank.sol\":2299:3745  function fundProject(uint _projectID) external payable nonReentrant {... */\n      pop\n      jump\t// out\n        /* \"CROWD_TANK/contracts/CrowdTank.sol\":4451:5052  function creatorWithdraw(uint _projectID) external payable {... */\n    tag_68:\n        /* \"CROWD_TANK/contracts/CrowdTank.sol\":4521:4544  project storage Project */\n      0x00\n        /* \"CROWD_TANK/contracts/CrowdTank.sol\":4547:4555  Projects */\n      0x03\n        /* \"CROWD_TANK/contracts/CrowdTank.sol\":4547:4567  Projects[_projectID] */\n      0x00\n        /* \"CROWD_TANK/contracts/CrowdTank.sol\":4556:4566  _projectID */\n      dup4\n        /* \"CROWD_TANK/contracts/CrowdTank.sol\":4547:4567  Projects[_projectID] */\n      dup2\n      mstore\n      0x20\n      add\n      swap1\n      dup2\n      mstore\n      0x20\n      add\n      0x00\n      keccak256\n        /* \"CROWD_TANK/contracts/CrowdTank.sol\":4521:4567  project storage Project = Projects[_projectID] */\n      swap1\n      pop\n        /* \"CROWD_TANK/contracts/CrowdTank.sol\":4578:4595  uint totalfunding */\n      0x00\n        /* \"CROWD_TANK/contracts/CrowdTank.sol\":4598:4605  Project */\n      dup2\n        /* \"CROWD_TANK/contracts/CrowdTank.sol\":4598:4618  Project.amountRaised */\n      0x05\n      add\n      sload\n        /* \"CROWD_TANK/contracts/CrowdTank.sol\":4578:4618  uint totalfunding = Project.amountRaised */\n      swap1\n      pop\n        /* \"CROWD_TANK/contracts/CrowdTank.sol\":4637:4644  Project */\n      dup2\n        /* \"CROWD_TANK/contracts/CrowdTank.sol\":4637:4651  Project.funded */\n      0x06\n      add\n      0x00\n      swap1\n      sload\n      swap1\n      0x0100\n      exp\n      swap1\n      div\n      0xff\n      and\n        /* \"CROWD_TANK/contracts/CrowdTank.sol\":4629:4708  require(Project.funded , \"funding goal has not reached , admin can't withdraw\") */\n      tag_165\n      jumpi\n      mload(0x40)\n      0x08c379a000000000000000000000000000000000000000000000000000000000\n      dup2\n      mstore\n      0x04\n      add\n      tag_166\n      swap1\n      tag_167\n      jump\t// in\n    tag_166:\n      mload(0x40)\n      dup1\n      swap2\n      sub\n      swap1\n      revert\n    tag_165:\n        /* \"CROWD_TANK/contracts/CrowdTank.sol\":4746:4756  msg.sender */\n      caller\n        /* \"CROWD_TANK/contracts/CrowdTank.sol\":4727:4756  Project.creator == msg.sender */\n      0xffffffffffffffffffffffffffffffffffffffff\n      and\n        /* \"CROWD_TANK/contracts/CrowdTank.sol\":4727:4734  Project */\n      dup3\n        /* \"CROWD_TANK/contracts/CrowdTank.sol\":4727:4742  Project.creator */\n      0x00\n      add\n      0x00\n      swap1\n      sload\n      swap1\n      0x0100\n      exp\n      swap1\n      div\n      0xffffffffffffffffffffffffffffffffffffffff\n      and\n        /* \"CROWD_TANK/contracts/CrowdTank.sol\":4727:4756  Project.creator == msg.sender */\n      0xffffffffffffffffffffffffffffffffffffffff\n      and\n      eq\n        /* \"CROWD_TANK/contracts/CrowdTank.sol\":4719:4785  require(Project.creator == msg.sender , \"only admin can withdraw\") */\n      tag_168\n      jumpi\n      mload(0x40)\n      0x08c379a000000000000000000000000000000000000000000000000000000000\n      dup2\n      mstore\n      0x04\n      add\n      tag_169\n      swap1\n      tag_170\n      jump\t// in\n    tag_169:\n      mload(0x40)\n      dup1\n      swap2\n      sub\n      swap1\n      revert\n    tag_168:\n        /* \"CROWD_TANK/contracts/CrowdTank.sol\":4822:4837  block.timestamp */\n      timestamp\n        /* \"CROWD_TANK/contracts/CrowdTank.sol\":4804:4811  Project */\n      dup3\n        /* \"CROWD_TANK/contracts/CrowdTank.sol\":4804:4820  Project.deadline */\n      0x04\n      add\n      sload\n        /* \"CROWD_TANK/contracts/CrowdTank.sol\":4804:4837  Project.deadline<=block.timestamp */\n      gt\n      iszero\n        /* \"CROWD_TANK/contracts/CrowdTank.sol\":4796:4890  require(Project.deadline<=block.timestamp , \"deadline has not reached , admin can't withdraw\") */\n      tag_171\n      jumpi\n      mload(0x40)\n      0x08c379a000000000000000000000000000000000000000000000000000000000\n      dup2\n      mstore\n      0x04\n      add\n      tag_172\n      swap1\n      tag_173\n      jump\t// in\n    tag_172:\n      mload(0x40)\n      dup1\n      swap2\n      sub\n      swap1\n      revert\n    tag_171:\n        /* \"CROWD_TANK/contracts/CrowdTank.sol\":4909:4919  msg.sender */\n      caller\n        /* \"CROWD_TANK/contracts/CrowdTank.sol\":4901:4929  payable(msg.sender).transfer */\n      0xffffffffffffffffffffffffffffffffffffffff\n      and\n        /* \"CROWD_TANK/contracts/CrowdTank.sol\":4901:4943  payable(msg.sender).transfer(totalfunding) */\n      0x08fc\n        /* \"CROWD_TANK/contracts/CrowdTank.sol\":4930:4942  totalfunding */\n      dup3\n        /* \"CROWD_TANK/contracts/CrowdTank.sol\":4901:4943  payable(msg.sender).transfer(totalfunding) */\n      swap1\n      dup2\n      iszero\n      mul\n      swap1\n      mload(0x40)\n      0x00\n      mload(0x40)\n      dup1\n      dup4\n      sub\n      dup2\n      dup6\n      dup9\n      dup9\n      call\n      swap4\n      pop\n      pop\n      pop\n      pop\n      iszero\n      dup1\n      iszero\n      tag_175\n      jumpi\n      returndatacopy(0x00, 0x00, returndatasize)\n      revert(0x00, returndatasize)\n    tag_175:\n      pop\n        /* \"CROWD_TANK/contracts/CrowdTank.sol\":5010:5020  _projectID */\n      dup3\n        /* \"CROWD_TANK/contracts/CrowdTank.sol\":4993:5044  creatorWithdrawn(_projectID, msg.sender, msg.value) */\n      0xcae030e1a3c6b0011e7009bd65734e2e1e330528f6983497631fabd47fa7a281\n        /* \"CROWD_TANK/contracts/CrowdTank.sol\":5022:5032  msg.sender */\n      caller\n        /* \"CROWD_TANK/contracts/CrowdTank.sol\":5034:5043  msg.value */\n      callvalue\n        /* \"CROWD_TANK/contracts/CrowdTank.sol\":4993:5044  creatorWithdrawn(_projectID, msg.sender, msg.value) */\n      mload(0x40)\n      tag_176\n      swap3\n      swap2\n      swap1\n      tag_115\n      jump\t// in\n    tag_176:\n      mload(0x40)\n      dup1\n      swap2\n      sub\n      swap1\n      log2\n        /* \"CROWD_TANK/contracts/CrowdTank.sol\":4510:5052  {... */\n      pop\n      pop\n        /* \"CROWD_TANK/contracts/CrowdTank.sol\":4451:5052  function creatorWithdraw(uint _projectID) external payable {... */\n      pop\n      jump\t// out\n        /* \"CROWD_TANK/contracts/CrowdTank.sol\":420:445  uint public TotalProjects */\n    tag_71:\n      sload(0x02)\n      dup2\n      jump\t// out\n        /* \"CROWD_TANK/contracts/CrowdTank.sol\":1542:2238  function createProject(string memory _name , string memory _description , uint _fundingGoal , uint _durationSeconds , uint _id) external {... */\n    tag_77:\n        /* \"CROWD_TANK/contracts/CrowdTank.sol\":1699:1707  isIdUsed */\n      0x05\n        /* \"CROWD_TANK/contracts/CrowdTank.sol\":1699:1712  isIdUsed[_id] */\n      0x00\n        /* \"CROWD_TANK/contracts/CrowdTank.sol\":1708:1711  _id */\n      dup3\n        /* \"CROWD_TANK/contracts/CrowdTank.sol\":1699:1712  isIdUsed[_id] */\n      dup2\n      mstore\n      0x20\n      add\n      swap1\n      dup2\n      mstore\n      0x20\n      add\n      0x00\n      keccak256\n      0x00\n      swap1\n      sload\n      swap1\n      0x0100\n      exp\n      swap1\n      div\n      0xff\n      and\n        /* \"CROWD_TANK/contracts/CrowdTank.sol\":1698:1712  !isIdUsed[_id] */\n      iszero\n        /* \"CROWD_TANK/contracts/CrowdTank.sol\":1690:1747  require(!isIdUsed[_id], \"Project ID is already in use!\" ) */\n      tag_178\n      jumpi\n      mload(0x40)\n      0x08c379a000000000000000000000000000000000000000000000000000000000\n      dup2\n      mstore\n      0x04\n      add\n      tag_179\n      swap1\n      tag_180\n      jump\t// in\n    tag_179:\n      mload(0x40)\n      dup1\n      swap2\n      sub\n      swap1\n      revert\n    tag_178:\n        /* \"CROWD_TANK/contracts/CrowdTank.sol\":1774:1778  true */\n      0x01\n        /* \"CROWD_TANK/contracts/CrowdTank.sol\":1758:1766  isIdUsed */\n      0x05\n        /* \"CROWD_TANK/contracts/CrowdTank.sol\":1758:1771  isIdUsed[_id] */\n      0x00\n        /* \"CROWD_TANK/contracts/CrowdTank.sol\":1767:1770  _id */\n      dup4\n        /* \"CROWD_TANK/contracts/CrowdTank.sol\":1758:1771  isIdUsed[_id] */\n      dup2\n      mstore\n      0x20\n      add\n      swap1\n      dup2\n      mstore\n      0x20\n      add\n      0x00\n      keccak256\n      0x00\n        /* \"CROWD_TANK/contracts/CrowdTank.sol\":1758:1778  isIdUsed[_id] = true */\n      0x0100\n      exp\n      dup2\n      sload\n      dup2\n      0xff\n      mul\n      not\n      and\n      swap1\n      dup4\n      iszero\n      iszero\n      mul\n      or\n      swap1\n      sstore\n      pop\n        /* \"CROWD_TANK/contracts/CrowdTank.sol\":1805:2083  project({... */\n      mload(0x40)\n      dup1\n      0xe0\n      add\n      0x40\n      mstore\n      dup1\n        /* \"CROWD_TANK/contracts/CrowdTank.sol\":1838:1848  msg.sender */\n      caller\n        /* \"CROWD_TANK/contracts/CrowdTank.sol\":1805:2083  project({... */\n      0xffffffffffffffffffffffffffffffffffffffff\n      and\n      dup2\n      mstore\n      0x20\n      add\n        /* \"CROWD_TANK/contracts/CrowdTank.sol\":1869:1874  _name */\n      dup7\n        /* \"CROWD_TANK/contracts/CrowdTank.sol\":1805:2083  project({... */\n      dup2\n      mstore\n      0x20\n      add\n        /* \"CROWD_TANK/contracts/CrowdTank.sol\":1902:1914  _description */\n      dup6\n        /* \"CROWD_TANK/contracts/CrowdTank.sol\":1805:2083  project({... */\n      dup2\n      mstore\n      0x20\n      add\n        /* \"CROWD_TANK/contracts/CrowdTank.sol\":1942:1954  _fundingGoal */\n      dup5\n        /* \"CROWD_TANK/contracts/CrowdTank.sol\":1805:2083  project({... */\n      dup2\n      mstore\n      0x20\n      add\n        /* \"CROWD_TANK/contracts/CrowdTank.sol\":1997:2013  _durationSeconds */\n      dup4\n        /* \"CROWD_TANK/contracts/CrowdTank.sol\":1979:1994  block.timestamp */\n      timestamp\n        /* \"CROWD_TANK/contracts/CrowdTank.sol\":1979:2013  block.timestamp + _durationSeconds */\n      tag_181\n      swap2\n      swap1\n      tag_127\n      jump\t// in\n    tag_181:\n        /* \"CROWD_TANK/contracts/CrowdTank.sol\":1805:2083  project({... */\n      dup2\n      mstore\n      0x20\n      add\n        /* \"CROWD_TANK/contracts/CrowdTank.sol\":2042:2043  0 */\n      0x00\n        /* \"CROWD_TANK/contracts/CrowdTank.sol\":1805:2083  project({... */\n      dup2\n      mstore\n      0x20\n      add\n        /* \"CROWD_TANK/contracts/CrowdTank.sol\":2066:2071  false */\n      0x00\n        /* \"CROWD_TANK/contracts/CrowdTank.sol\":1805:2083  project({... */\n      iszero\n      iszero\n      dup2\n      mstore\n      pop\n        /* \"CROWD_TANK/contracts/CrowdTank.sol\":1789:1797  Projects */\n      0x03\n        /* \"CROWD_TANK/contracts/CrowdTank.sol\":1789:1802  Projects[_id] */\n      0x00\n        /* \"CROWD_TANK/contracts/CrowdTank.sol\":1798:1801  _id */\n      dup4\n        /* \"CROWD_TANK/contracts/CrowdTank.sol\":1789:1802  Projects[_id] */\n      dup2\n      mstore\n      0x20\n      add\n      swap1\n      dup2\n      mstore\n      0x20\n      add\n      0x00\n      keccak256\n        /* \"CROWD_TANK/contracts/CrowdTank.sol\":1789:2083  Projects[_id] = project({... */\n      0x00\n      dup3\n      add\n      mload\n      dup2\n      0x00\n      add\n      exp(0x0100, 0x00)\n      dup2\n      sload\n      dup2\n      0xffffffffffffffffffffffffffffffffffffffff\n      mul\n      not\n      and\n      swap1\n      dup4\n      0xffffffffffffffffffffffffffffffffffffffff\n      and\n      mul\n      or\n      swap1\n      sstore\n      pop\n      0x20\n      dup3\n      add\n      mload\n      dup2\n      0x01\n      add\n      swap1\n      dup2\n      tag_182\n      swap2\n      swap1\n      tag_183\n      jump\t// in\n    tag_182:\n      pop\n      0x40\n      dup3\n      add\n      mload\n      dup2\n      0x02\n      add\n      swap1\n      dup2\n      tag_184\n      swap2\n      swap1\n      tag_183\n      jump\t// in\n    tag_184:\n      pop\n      0x60\n      dup3\n      add\n      mload\n      dup2\n      0x03\n      add\n      sstore\n      0x80\n      dup3\n      add\n      mload\n      dup2\n      0x04\n      add\n      sstore\n      0xa0\n      dup3\n      add\n      mload\n      dup2\n      0x05\n      add\n      sstore\n      0xc0\n      dup3\n      add\n      mload\n      dup2\n      0x06\n      add\n      exp(0x0100, 0x00)\n      dup2\n      sload\n      dup2\n      0xff\n      mul\n      not\n      and\n      swap1\n      dup4\n      iszero\n      iszero\n      mul\n      or\n      swap1\n      sstore\n      pop\n      swap1\n      pop\n      pop\n        /* \"CROWD_TANK/contracts/CrowdTank.sol\":2094:2107  TotalProjects */\n      0x02\n      0x00\n        /* \"CROWD_TANK/contracts/CrowdTank.sol\":2094:2109  TotalProjects++ */\n      dup2\n      sload\n      dup1\n      swap3\n      swap2\n      swap1\n      tag_185\n      swap1\n      tag_186\n      jump\t// in\n    tag_185:\n      swap2\n      swap1\n      pop\n      sstore\n      pop\n        /* \"CROWD_TANK/contracts/CrowdTank.sol\":2146:2156  msg.sender */\n      caller\n        /* \"CROWD_TANK/contracts/CrowdTank.sol\":2125:2230  ProjectCreated(_id , msg.sender , _name , _description , _fundingGoal , block.timestamp+_durationSeconds) */\n      0xffffffffffffffffffffffffffffffffffffffff\n      and\n        /* \"CROWD_TANK/contracts/CrowdTank.sol\":2140:2143  _id */\n      dup2\n        /* \"CROWD_TANK/contracts/CrowdTank.sol\":2125:2230  ProjectCreated(_id , msg.sender , _name , _description , _fundingGoal , block.timestamp+_durationSeconds) */\n      0xac9b83534845c9e785a6ea70f2d809db1d72ef9a1d981753712d922f5cb55f39\n        /* \"CROWD_TANK/contracts/CrowdTank.sol\":2159:2164  _name */\n      dup8\n        /* \"CROWD_TANK/contracts/CrowdTank.sol\":2167:2179  _description */\n      dup8\n        /* \"CROWD_TANK/contracts/CrowdTank.sol\":2182:2194  _fundingGoal */\n      dup8\n        /* \"CROWD_TANK/contracts/CrowdTank.sol\":2213:2229  _durationSeconds */\n      dup8\n        /* \"CROWD_TANK/contracts/CrowdTank.sol\":2197:2212  block.timestamp */\n      timestamp\n        /* \"CROWD_TANK/contracts/CrowdTank.sol\":2197:2229  block.timestamp+_durationSeconds */\n      tag_187\n      swap2\n      swap1\n      tag_127\n      jump\t// in\n    tag_187:\n        /* \"CROWD_TANK/contracts/CrowdTank.sol\":2125:2230  ProjectCreated(_id , msg.sender , _name , _description , _fundingGoal , block.timestamp+_durationSeconds) */\n      mload(0x40)\n      tag_188\n      swap5\n      swap4\n      swap3\n      swap2\n      swap1\n      tag_189\n      jump\t// in\n    tag_188:\n      mload(0x40)\n      dup1\n      swap2\n      sub\n      swap1\n      log3\n        /* \"CROWD_TANK/contracts/CrowdTank.sol\":1542:2238  function createProject(string memory _name , string memory _description , uint _fundingGoal , uint _durationSeconds , uint _id) external {... */\n      pop\n      pop\n      pop\n      pop\n      pop\n      jump\t// out\n        /* \"@openzeppelin/contracts/utils/ReentrancyGuard.sol\":2575:2882  function _nonReentrantBefore() private {... */\n    tag_130:\n        /* \"@openzeppelin/contracts/utils/ReentrancyGuard.sol\":1899:1900  2 */\n      0x02\n        /* \"@openzeppelin/contracts/utils/ReentrancyGuard.sol\":2702:2709  _status */\n      sload(0x00)\n        /* \"@openzeppelin/contracts/utils/ReentrancyGuard.sol\":2702:2720  _status == ENTERED */\n      sub\n        /* \"@openzeppelin/contracts/utils/ReentrancyGuard.sol\":2698:2784  if (_status == ENTERED) {... */\n      tag_191\n      jumpi\n        /* \"@openzeppelin/contracts/utils/ReentrancyGuard.sol\":2743:2773  ReentrancyGuardReentrantCall() */\n      mload(0x40)\n      0x3ee5aeb500000000000000000000000000000000000000000000000000000000\n      dup2\n      mstore\n      0x04\n      add\n      mload(0x40)\n      dup1\n      swap2\n      sub\n      swap1\n      revert\n        /* \"@openzeppelin/contracts/utils/ReentrancyGuard.sol\":2698:2784  if (_status == ENTERED) {... */\n    tag_191:\n        /* \"@openzeppelin/contracts/utils/ReentrancyGuard.sol\":1899:1900  2 */\n      0x02\n        /* \"@openzeppelin/contracts/utils/ReentrancyGuard.sol\":2858:2865  _status */\n      0x00\n        /* \"@openzeppelin/contracts/utils/ReentrancyGuard.sol\":2858:2875  _status = ENTERED */\n      dup2\n      swap1\n      sstore\n      pop\n        /* \"@openzeppelin/contracts/utils/ReentrancyGuard.sol\":2575:2882  function _nonReentrantBefore() private {... */\n      jump\t// out\n        /* \"@openzeppelin/contracts/utils/ReentrancyGuard.sol\":2888:3096  function _nonReentrantAfter() private {... */\n    tag_163:\n        /* \"@openzeppelin/contracts/utils/ReentrancyGuard.sol\":1857:1858  1 */\n      0x01\n        /* \"@openzeppelin/contracts/utils/ReentrancyGuard.sol\":3068:3075  _status */\n      0x00\n        /* \"@openzeppelin/contracts/utils/ReentrancyGuard.sol\":3068:3089  _status = NOT_ENTERED */\n      dup2\n      swap1\n      sstore\n      pop\n        /* \"@openzeppelin/contracts/utils/ReentrancyGuard.sol\":2888:3096  function _nonReentrantAfter() private {... */\n      jump\t// out\n        /* \"#utility.yul\":7:82   */\n    tag_193:\n        /* \"#utility.yul\":40:46   */\n      0x00\n        /* \"#utility.yul\":73:75   */\n      0x40\n        /* \"#utility.yul\":67:76   */\n      mload\n        /* \"#utility.yul\":57:76   */\n      swap1\n      pop\n        /* \"#utility.yul\":7:82   */\n      swap1\n      jump\t// out\n        /* \"#utility.yul\":88:205   */\n    tag_194:\n        /* \"#utility.yul\":197:198   */\n      0x00\n        /* \"#utility.yul\":194:195   */\n      0x00\n        /* \"#utility.yul\":187:199   */\n      revert\n        /* \"#utility.yul\":211:328   */\n    tag_195:\n        /* \"#utility.yul\":320:321   */\n      0x00\n        /* \"#utility.yul\":317:318   */\n      0x00\n        /* \"#utility.yul\":310:322   */\n      revert\n        /* \"#utility.yul\":334:411   */\n    tag_196:\n        /* \"#utility.yul\":371:378   */\n      0x00\n        /* \"#utility.yul\":400:405   */\n      dup2\n        /* \"#utility.yul\":389:405   */\n      swap1\n      pop\n        /* \"#utility.yul\":334:411   */\n      swap2\n      swap1\n      pop\n      jump\t// out\n        /* \"#utility.yul\":417:539   */\n    tag_197:\n        /* \"#utility.yul\":490:514   */\n      tag_276\n        /* \"#utility.yul\":508:513   */\n      dup2\n        /* \"#utility.yul\":490:514   */\n      tag_196\n      jump\t// in\n    tag_276:\n        /* \"#utility.yul\":483:488   */\n      dup2\n        /* \"#utility.yul\":480:515   */\n      eq\n        /* \"#utility.yul\":470:533   */\n      tag_277\n      jumpi\n        /* \"#utility.yul\":529:530   */\n      0x00\n        /* \"#utility.yul\":526:527   */\n      0x00\n        /* \"#utility.yul\":519:531   */\n      revert\n        /* \"#utility.yul\":470:533   */\n    tag_277:\n        /* \"#utility.yul\":417:539   */\n      pop\n      jump\t// out\n        /* \"#utility.yul\":545:684   */\n    tag_198:\n        /* \"#utility.yul\":591:596   */\n      0x00\n        /* \"#utility.yul\":629:635   */\n      dup2\n        /* \"#utility.yul\":616:636   */\n      calldataload\n        /* \"#utility.yul\":607:636   */\n      swap1\n      pop\n        /* \"#utility.yul\":645:678   */\n      tag_279\n        /* \"#utility.yul\":672:677   */\n      dup2\n        /* \"#utility.yul\":645:678   */\n      tag_197\n      jump\t// in\n    tag_279:\n        /* \"#utility.yul\":545:684   */\n      swap3\n      swap2\n      pop\n      pop\n      jump\t// out\n        /* \"#utility.yul\":690:1019   */\n    tag_20:\n        /* \"#utility.yul\":749:755   */\n      0x00\n        /* \"#utility.yul\":798:800   */\n      0x20\n        /* \"#utility.yul\":786:795   */\n      dup3\n        /* \"#utility.yul\":777:784   */\n      dup5\n        /* \"#utility.yul\":773:796   */\n      sub\n        /* \"#utility.yul\":769:801   */\n      slt\n        /* \"#utility.yul\":766:885   */\n      iszero\n      tag_281\n      jumpi\n        /* \"#utility.yul\":804:883   */\n      tag_282\n      tag_194\n      jump\t// in\n    tag_282:\n        /* \"#utility.yul\":766:885   */\n    tag_281:\n        /* \"#utility.yul\":924:925   */\n      0x00\n        /* \"#utility.yul\":949:1002   */\n      tag_283\n        /* \"#utility.yul\":994:1001   */\n      dup5\n        /* \"#utility.yul\":985:991   */\n      dup3\n        /* \"#utility.yul\":974:983   */\n      dup6\n        /* \"#utility.yul\":970:992   */\n      add\n        /* \"#utility.yul\":949:1002   */\n      tag_198\n      jump\t// in\n    tag_283:\n        /* \"#utility.yul\":939:1002   */\n      swap2\n      pop\n        /* \"#utility.yul\":895:1012   */\n      pop\n        /* \"#utility.yul\":690:1019   */\n      swap3\n      swap2\n      pop\n      pop\n      jump\t// out\n        /* \"#utility.yul\":1025:1143   */\n    tag_199:\n        /* \"#utility.yul\":1112:1136   */\n      tag_285\n        /* \"#utility.yul\":1130:1135   */\n      dup2\n        /* \"#utility.yul\":1112:1136   */\n      tag_196\n      jump\t// in\n    tag_285:\n        /* \"#utility.yul\":1107:1110   */\n      dup3\n        /* \"#utility.yul\":1100:1137   */\n      mstore\n        /* \"#utility.yul\":1025:1143   */\n      pop\n      pop\n      jump\t// out\n        /* \"#utility.yul\":1149:1481   */\n    tag_23:\n        /* \"#utility.yul\":1270:1274   */\n      0x00\n        /* \"#utility.yul\":1308:1310   */\n      0x40\n        /* \"#utility.yul\":1297:1306   */\n      dup3\n        /* \"#utility.yul\":1293:1311   */\n      add\n        /* \"#utility.yul\":1285:1311   */\n      swap1\n      pop\n        /* \"#utility.yul\":1321:1392   */\n      tag_287\n        /* \"#utility.yul\":1389:1390   */\n      0x00\n        /* \"#utility.yul\":1378:1387   */\n      dup4\n        /* \"#utility.yul\":1374:1391   */\n      add\n        /* \"#utility.yul\":1365:1371   */\n      dup6\n        /* \"#utility.yul\":1321:1392   */\n      tag_199\n      jump\t// in\n    tag_287:\n        /* \"#utility.yul\":1402:1474   */\n      tag_288\n        /* \"#utility.yul\":1470:1472   */\n      0x20\n        /* \"#utility.yul\":1459:1468   */\n      dup4\n        /* \"#utility.yul\":1455:1473   */\n      add\n        /* \"#utility.yul\":1446:1452   */\n      dup5\n        /* \"#utility.yul\":1402:1474   */\n      tag_199\n      jump\t// in\n    tag_288:\n        /* \"#utility.yul\":1149:1481   */\n      swap4\n      swap3\n      pop\n      pop\n      pop\n      jump\t// out\n        /* \"#utility.yul\":1487:1961   */\n    tag_27:\n        /* \"#utility.yul\":1555:1561   */\n      0x00\n        /* \"#utility.yul\":1563:1569   */\n      0x00\n        /* \"#utility.yul\":1612:1614   */\n      0x40\n        /* \"#utility.yul\":1600:1609   */\n      dup4\n        /* \"#utility.yul\":1591:1598   */\n      dup6\n        /* \"#utility.yul\":1587:1610   */\n      sub\n        /* \"#utility.yul\":1583:1615   */\n      slt\n        /* \"#utility.yul\":1580:1699   */\n      iszero\n      tag_290\n      jumpi\n        /* \"#utility.yul\":1618:1697   */\n      tag_291\n      tag_194\n      jump\t// in\n    tag_291:\n        /* \"#utility.yul\":1580:1699   */\n    tag_290:\n        /* \"#utility.yul\":1738:1739   */\n      0x00\n        /* \"#utility.yul\":1763:1816   */\n      tag_292\n        /* \"#utility.yul\":1808:1815   */\n      dup6\n        /* \"#utility.yul\":1799:1805   */\n      dup3\n        /* \"#utility.yul\":1788:1797   */\n      dup7\n        /* \"#utility.yul\":1784:1806   */\n      add\n        /* \"#utility.yul\":1763:1816   */\n      tag_198\n      jump\t// in\n    tag_292:\n        /* \"#utility.yul\":1753:1816   */\n      swap3\n      pop\n        /* \"#utility.yul\":1709:1826   */\n      pop\n        /* \"#utility.yul\":1865:1867   */\n      0x20\n        /* \"#utility.yul\":1891:1944   */\n      tag_293\n        /* \"#utility.yul\":1936:1943   */\n      dup6\n        /* \"#utility.yul\":1927:1933   */\n      dup3\n        /* \"#utility.yul\":1916:1925   */\n      dup7\n        /* \"#utility.yul\":1912:1934   */\n      add\n        /* \"#utility.yul\":1891:1944   */\n      tag_198\n      jump\t// in\n    tag_293:\n        /* \"#utility.yul\":1881:1944   */\n      swap2\n      pop\n        /* \"#utility.yul\":1836:1954   */\n      pop\n        /* \"#utility.yul\":1487:1961   */\n      swap3\n      pop\n      swap3\n      swap1\n      pop\n      jump\t// out\n        /* \"#utility.yul\":1967:2093   */\n    tag_200:\n        /* \"#utility.yul\":2004:2011   */\n      0x00\n        /* \"#utility.yul\":2044:2086   */\n      0xffffffffffffffffffffffffffffffffffffffff\n        /* \"#utility.yul\":2037:2042   */\n      dup3\n        /* \"#utility.yul\":2033:2087   */\n      and\n        /* \"#utility.yul\":2022:2087   */\n      swap1\n      pop\n        /* \"#utility.yul\":1967:2093   */\n      swap2\n      swap1\n      pop\n      jump\t// out\n        /* \"#utility.yul\":2099:2195   */\n    tag_201:\n        /* \"#utility.yul\":2136:2143   */\n      0x00\n        /* \"#utility.yul\":2165:2189   */\n      tag_296\n        /* \"#utility.yul\":2183:2188   */\n      dup3\n        /* \"#utility.yul\":2165:2189   */\n      tag_200\n      jump\t// in\n    tag_296:\n        /* \"#utility.yul\":2154:2189   */\n      swap1\n      pop\n        /* \"#utility.yul\":2099:2195   */\n      swap2\n      swap1\n      pop\n      jump\t// out\n        /* \"#utility.yul\":2201:2319   */\n    tag_202:\n        /* \"#utility.yul\":2288:2312   */\n      tag_298\n        /* \"#utility.yul\":2306:2311   */\n      dup2\n        /* \"#utility.yul\":2288:2312   */\n      tag_201\n      jump\t// in\n    tag_298:\n        /* \"#utility.yul\":2283:2286   */\n      dup3\n        /* \"#utility.yul\":2276:2313   */\n      mstore\n        /* \"#utility.yul\":2201:2319   */\n      pop\n      pop\n      jump\t// out\n        /* \"#utility.yul\":2325:2424   */\n    tag_203:\n        /* \"#utility.yul\":2377:2383   */\n      0x00\n        /* \"#utility.yul\":2411:2416   */\n      dup2\n        /* \"#utility.yul\":2405:2417   */\n      mload\n        /* \"#utility.yul\":2395:2417   */\n      swap1\n      pop\n        /* \"#utility.yul\":2325:2424   */\n      swap2\n      swap1\n      pop\n      jump\t// out\n        /* \"#utility.yul\":2430:2599   */\n    tag_204:\n        /* \"#utility.yul\":2514:2525   */\n      0x00\n        /* \"#utility.yul\":2548:2554   */\n      dup3\n        /* \"#utility.yul\":2543:2546   */\n      dup3\n        /* \"#utility.yul\":2536:2555   */\n      mstore\n        /* \"#utility.yul\":2588:2592   */\n      0x20\n        /* \"#utility.yul\":2583:2586   */\n      dup3\n        /* \"#utility.yul\":2579:2593   */\n      add\n        /* \"#utility.yul\":2564:2593   */\n      swap1\n      pop\n        /* \"#utility.yul\":2430:2599   */\n      swap3\n      swap2\n      pop\n      pop\n      jump\t// out\n        /* \"#utility.yul\":2605:2744   */\n    tag_205:\n        /* \"#utility.yul\":2694:2700   */\n      dup3\n        /* \"#utility.yul\":2689:2692   */\n      dup2\n        /* \"#utility.yul\":2684:2687   */\n      dup4\n        /* \"#utility.yul\":2678:2701   */\n      mcopy\n        /* \"#utility.yul\":2735:2736   */\n      0x00\n        /* \"#utility.yul\":2726:2732   */\n      dup4\n        /* \"#utility.yul\":2721:2724   */\n      dup4\n        /* \"#utility.yul\":2717:2733   */\n      add\n        /* \"#utility.yul\":2710:2737   */\n      mstore\n        /* \"#utility.yul\":2605:2744   */\n      pop\n      pop\n      pop\n      jump\t// out\n        /* \"#utility.yul\":2750:2852   */\n    tag_206:\n        /* \"#utility.yul\":2791:2797   */\n      0x00\n        /* \"#utility.yul\":2842:2844   */\n      0x1f\n        /* \"#utility.yul\":2838:2845   */\n      not\n        /* \"#utility.yul\":2833:2835   */\n      0x1f\n        /* \"#utility.yul\":2826:2831   */\n      dup4\n        /* \"#utility.yul\":2822:2836   */\n      add\n        /* \"#utility.yul\":2818:2846   */\n      and\n        /* \"#utility.yul\":2808:2846   */\n      swap1\n      pop\n        /* \"#utility.yul\":2750:2852   */\n      swap2\n      swap1\n      pop\n      jump\t// out\n        /* \"#utility.yul\":2858:3235   */\n    tag_207:\n        /* \"#utility.yul\":2946:2949   */\n      0x00\n        /* \"#utility.yul\":2974:3013   */\n      tag_304\n        /* \"#utility.yul\":3007:3012   */\n      dup3\n        /* \"#utility.yul\":2974:3013   */\n      tag_203\n      jump\t// in\n    tag_304:\n        /* \"#utility.yul\":3029:3100   */\n      tag_305\n        /* \"#utility.yul\":3093:3099   */\n      dup2\n        /* \"#utility.yul\":3088:3091   */\n      dup6\n        /* \"#utility.yul\":3029:3100   */\n      tag_204\n      jump\t// in\n    tag_305:\n        /* \"#utility.yul\":3022:3100   */\n      swap4\n      pop\n        /* \"#utility.yul\":3109:3174   */\n      tag_306\n        /* \"#utility.yul\":3167:3173   */\n      dup2\n        /* \"#utility.yul\":3162:3165   */\n      dup6\n        /* \"#utility.yul\":3155:3159   */\n      0x20\n        /* \"#utility.yul\":3148:3153   */\n      dup7\n        /* \"#utility.yul\":3144:3160   */\n      add\n        /* \"#utility.yul\":3109:3174   */\n      tag_205\n      jump\t// in\n    tag_306:\n        /* \"#utility.yul\":3199:3228   */\n      tag_307\n        /* \"#utility.yul\":3221:3227   */\n      dup2\n        /* \"#utility.yul\":3199:3228   */\n      tag_206\n      jump\t// in\n    tag_307:\n        /* \"#utility.yul\":3194:3197   */\n      dup5\n        /* \"#utility.yul\":3190:3229   */\n      add\n        /* \"#utility.yul\":3183:3229   */\n      swap2\n      pop\n        /* \"#utility.yul\":2950:3235   */\n      pop\n        /* \"#utility.yul\":2858:3235   */\n      swap3\n      swap2\n      pop\n      pop\n      jump\t// out\n        /* \"#utility.yul\":3241:3331   */\n    tag_208:\n        /* \"#utility.yul\":3275:3282   */\n      0x00\n        /* \"#utility.yul\":3318:3323   */\n      dup2\n        /* \"#utility.yul\":3311:3324   */\n      iszero\n        /* \"#utility.yul\":3304:3325   */\n      iszero\n        /* \"#utility.yul\":3293:3325   */\n      swap1\n      pop\n        /* \"#utility.yul\":3241:3331   */\n      swap2\n      swap1\n      pop\n      jump\t// out\n        /* \"#utility.yul\":3337:3446   */\n    tag_209:\n        /* \"#utility.yul\":3418:3439   */\n      tag_310\n        /* \"#utility.yul\":3433:3438   */\n      dup2\n        /* \"#utility.yul\":3418:3439   */\n      tag_208\n      jump\t// in\n    tag_310:\n        /* \"#utility.yul\":3413:3416   */\n      dup3\n        /* \"#utility.yul\":3406:3440   */\n      mstore\n        /* \"#utility.yul\":3337:3446   */\n      pop\n      pop\n      jump\t// out\n        /* \"#utility.yul\":3452:4508   */\n    tag_34:\n        /* \"#utility.yul\":3747:3751   */\n      0x00\n        /* \"#utility.yul\":3785:3788   */\n      0xe0\n        /* \"#utility.yul\":3774:3783   */\n      dup3\n        /* \"#utility.yul\":3770:3789   */\n      add\n        /* \"#utility.yul\":3762:3789   */\n      swap1\n      pop\n        /* \"#utility.yul\":3799:3870   */\n      tag_312\n        /* \"#utility.yul\":3867:3868   */\n      0x00\n        /* \"#utility.yul\":3856:3865   */\n      dup4\n        /* \"#utility.yul\":3852:3869   */\n      add\n        /* \"#utility.yul\":3843:3849   */\n      dup11\n        /* \"#utility.yul\":3799:3870   */\n      tag_202\n      jump\t// in\n    tag_312:\n        /* \"#utility.yul\":3917:3926   */\n      dup2\n        /* \"#utility.yul\":3911:3915   */\n      dup2\n        /* \"#utility.yul\":3907:3927   */\n      sub\n        /* \"#utility.yul\":3902:3904   */\n      0x20\n        /* \"#utility.yul\":3891:3900   */\n      dup4\n        /* \"#utility.yul\":3887:3905   */\n      add\n        /* \"#utility.yul\":3880:3928   */\n      mstore\n        /* \"#utility.yul\":3945:4023   */\n      tag_313\n        /* \"#utility.yul\":4018:4022   */\n      dup2\n        /* \"#utility.yul\":4009:4015   */\n      dup10\n        /* \"#utility.yul\":3945:4023   */\n      tag_207\n      jump\t// in\n    tag_313:\n        /* \"#utility.yul\":3937:4023   */\n      swap1\n      pop\n        /* \"#utility.yul\":4070:4079   */\n      dup2\n        /* \"#utility.yul\":4064:4068   */\n      dup2\n        /* \"#utility.yul\":4060:4080   */\n      sub\n        /* \"#utility.yul\":4055:4057   */\n      0x40\n        /* \"#utility.yul\":4044:4053   */\n      dup4\n        /* \"#utility.yul\":4040:4058   */\n      add\n        /* \"#utility.yul\":4033:4081   */\n      mstore\n        /* \"#utility.yul\":4098:4176   */\n      tag_314\n        /* \"#utility.yul\":4171:4175   */\n      dup2\n        /* \"#utility.yul\":4162:4168   */\n      dup9\n        /* \"#utility.yul\":4098:4176   */\n      tag_207\n      jump\t// in\n    tag_314:\n        /* \"#utility.yul\":4090:4176   */\n      swap1\n      pop\n        /* \"#utility.yul\":4186:4258   */\n      tag_315\n        /* \"#utility.yul\":4254:4256   */\n      0x60\n        /* \"#utility.yul\":4243:4252   */\n      dup4\n        /* \"#utility.yul\":4239:4257   */\n      add\n        /* \"#utility.yul\":4230:4236   */\n      dup8\n        /* \"#utility.yul\":4186:4258   */\n      tag_199\n      jump\t// in\n    tag_315:\n        /* \"#utility.yul\":4268:4341   */\n      tag_316\n        /* \"#utility.yul\":4336:4339   */\n      0x80\n        /* \"#utility.yul\":4325:4334   */\n      dup4\n        /* \"#utility.yul\":4321:4340   */\n      add\n        /* \"#utility.yul\":4312:4318   */\n      dup7\n        /* \"#utility.yul\":4268:4341   */\n      tag_199\n      jump\t// in\n    tag_316:\n        /* \"#utility.yul\":4351:4424   */\n      tag_317\n        /* \"#utility.yul\":4419:4422   */\n      0xa0\n        /* \"#utility.yul\":4408:4417   */\n      dup4\n        /* \"#utility.yul\":4404:4423   */\n      add\n        /* \"#utility.yul\":4395:4401   */\n      dup6\n        /* \"#utility.yul\":4351:4424   */\n      tag_199\n      jump\t// in\n    tag_317:\n        /* \"#utility.yul\":4434:4501   */\n      tag_318\n        /* \"#utility.yul\":4496:4499   */\n      0xc0\n        /* \"#utility.yul\":4485:4494   */\n      dup4\n        /* \"#utility.yul\":4481:4500   */\n      add\n        /* \"#utility.yul\":4472:4478   */\n      dup5\n        /* \"#utility.yul\":4434:4501   */\n      tag_209\n      jump\t// in\n    tag_318:\n        /* \"#utility.yul\":3452:4508   */\n      swap9\n      swap8\n      pop\n      pop\n      pop\n      pop\n      pop\n      pop\n      pop\n      pop\n      jump\t// out\n        /* \"#utility.yul\":4514:4736   */\n    tag_40:\n        /* \"#utility.yul\":4607:4611   */\n      0x00\n        /* \"#utility.yul\":4645:4647   */\n      0x20\n        /* \"#utility.yul\":4634:4643   */\n      dup3\n        /* \"#utility.yul\":4630:4648   */\n      add\n        /* \"#utility.yul\":4622:4648   */\n      swap1\n      pop\n        /* \"#utility.yul\":4658:4729   */\n      tag_320\n        /* \"#utility.yul\":4726:4727   */\n      0x00\n        /* \"#utility.yul\":4715:4724   */\n      dup4\n        /* \"#utility.yul\":4711:4728   */\n      add\n        /* \"#utility.yul\":4702:4708   */\n      dup5\n        /* \"#utility.yul\":4658:4729   */\n      tag_199\n      jump\t// in\n    tag_320:\n        /* \"#utility.yul\":4514:4736   */\n      swap3\n      swap2\n      pop\n      pop\n      jump\t// out\n        /* \"#utility.yul\":4742:4864   */\n    tag_210:\n        /* \"#utility.yul\":4815:4839   */\n      tag_322\n        /* \"#utility.yul\":4833:4838   */\n      dup2\n        /* \"#utility.yul\":4815:4839   */\n      tag_201\n      jump\t// in\n    tag_322:\n        /* \"#utility.yul\":4808:4813   */\n      dup2\n        /* \"#utility.yul\":4805:4840   */\n      eq\n        /* \"#utility.yul\":4795:4858   */\n      tag_323\n      jumpi\n        /* \"#utility.yul\":4854:4855   */\n      0x00\n        /* \"#utility.yul\":4851:4852   */\n      0x00\n        /* \"#utility.yul\":4844:4856   */\n      revert\n        /* \"#utility.yul\":4795:4858   */\n    tag_323:\n        /* \"#utility.yul\":4742:4864   */\n      pop\n      jump\t// out\n        /* \"#utility.yul\":4870:5009   */\n    tag_211:\n        /* \"#utility.yul\":4916:4921   */\n      0x00\n        /* \"#utility.yul\":4954:4960   */\n      dup2\n        /* \"#utility.yul\":4941:4961   */\n      calldataload\n        /* \"#utility.yul\":4932:4961   */\n      swap1\n      pop\n        /* \"#utility.yul\":4970:5003   */\n      tag_325\n        /* \"#utility.yul\":4997:5002   */\n      dup2\n        /* \"#utility.yul\":4970:5003   */\n      tag_210\n      jump\t// in\n    tag_325:\n        /* \"#utility.yul\":4870:5009   */\n      swap3\n      swap2\n      pop\n      pop\n      jump\t// out\n        /* \"#utility.yul\":5015:5489   */\n    tag_56:\n        /* \"#utility.yul\":5083:5089   */\n      0x00\n        /* \"#utility.yul\":5091:5097   */\n      0x00\n        /* \"#utility.yul\":5140:5142   */\n      0x40\n        /* \"#utility.yul\":5128:5137   */\n      dup4\n        /* \"#utility.yul\":5119:5126   */\n      dup6\n        /* \"#utility.yul\":5115:5138   */\n      sub\n        /* \"#utility.yul\":5111:5143   */\n      slt\n        /* \"#utility.yul\":5108:5227   */\n      iszero\n      tag_327\n      jumpi\n        /* \"#utility.yul\":5146:5225   */\n      tag_328\n      tag_194\n      jump\t// in\n    tag_328:\n        /* \"#utility.yul\":5108:5227   */\n    tag_327:\n        /* \"#utility.yul\":5266:5267   */\n      0x00\n        /* \"#utility.yul\":5291:5344   */\n      tag_329\n        /* \"#utility.yul\":5336:5343   */\n      dup6\n        /* \"#utility.yul\":5327:5333   */\n      dup3\n        /* \"#utility.yul\":5316:5325   */\n      dup7\n        /* \"#utility.yul\":5312:5334   */\n      add\n        /* \"#utility.yul\":5291:5344   */\n      tag_198\n      jump\t// in\n    tag_329:\n        /* \"#utility.yul\":5281:5344   */\n      swap3\n      pop\n        /* \"#utility.yul\":5237:5354   */\n      pop\n        /* \"#utility.yul\":5393:5395   */\n      0x20\n        /* \"#utility.yul\":5419:5472   */\n      tag_330\n        /* \"#utility.yul\":5464:5471   */\n      dup6\n        /* \"#utility.yul\":5455:5461   */\n      dup3\n        /* \"#utility.yul\":5444:5453   */\n      dup7\n        /* \"#utility.yul\":5440:5462   */\n      add\n        /* \"#utility.yul\":5419:5472   */\n      tag_211\n      jump\t// in\n    tag_330:\n        /* \"#utility.yul\":5409:5472   */\n      swap2\n      pop\n        /* \"#utility.yul\":5364:5482   */\n      pop\n        /* \"#utility.yul\":5015:5489   */\n      swap3\n      pop\n      swap3\n      swap1\n      pop\n      jump\t// out\n        /* \"#utility.yul\":5495:5612   */\n    tag_212:\n        /* \"#utility.yul\":5604:5605   */\n      0x00\n        /* \"#utility.yul\":5601:5602   */\n      0x00\n        /* \"#utility.yul\":5594:5606   */\n      revert\n        /* \"#utility.yul\":5618:5735   */\n    tag_213:\n        /* \"#utility.yul\":5727:5728   */\n      0x00\n        /* \"#utility.yul\":5724:5725   */\n      0x00\n        /* \"#utility.yul\":5717:5729   */\n      revert\n        /* \"#utility.yul\":5741:5921   */\n    tag_214:\n        /* \"#utility.yul\":5789:5866   */\n      0x4e487b7100000000000000000000000000000000000000000000000000000000\n        /* \"#utility.yul\":5786:5787   */\n      0x00\n        /* \"#utility.yul\":5779:5867   */\n      mstore\n        /* \"#utility.yul\":5886:5890   */\n      0x41\n        /* \"#utility.yul\":5883:5884   */\n      0x04\n        /* \"#utility.yul\":5876:5891   */\n      mstore\n        /* \"#utility.yul\":5910:5914   */\n      0x24\n        /* \"#utility.yul\":5907:5908   */\n      0x00\n        /* \"#utility.yul\":5900:5915   */\n      revert\n        /* \"#utility.yul\":5927:6208   */\n    tag_215:\n        /* \"#utility.yul\":6010:6037   */\n      tag_335\n        /* \"#utility.yul\":6032:6036   */\n      dup3\n        /* \"#utility.yul\":6010:6037   */\n      tag_206\n      jump\t// in\n    tag_335:\n        /* \"#utility.yul\":6002:6008   */\n      dup2\n        /* \"#utility.yul\":5998:6038   */\n      add\n        /* \"#utility.yul\":6140:6146   */\n      dup2\n        /* \"#utility.yul\":6128:6138   */\n      dup2\n        /* \"#utility.yul\":6125:6147   */\n      lt\n        /* \"#utility.yul\":6104:6122   */\n      0xffffffffffffffff\n        /* \"#utility.yul\":6092:6102   */\n      dup3\n        /* \"#utility.yul\":6089:6123   */\n      gt\n        /* \"#utility.yul\":6086:6148   */\n      or\n        /* \"#utility.yul\":6083:6171   */\n      iszero\n      tag_336\n      jumpi\n        /* \"#utility.yul\":6151:6169   */\n      tag_337\n      tag_214\n      jump\t// in\n    tag_337:\n        /* \"#utility.yul\":6083:6171   */\n    tag_336:\n        /* \"#utility.yul\":6191:6201   */\n      dup1\n        /* \"#utility.yul\":6187:6189   */\n      0x40\n        /* \"#utility.yul\":6180:6202   */\n      mstore\n        /* \"#utility.yul\":5970:6208   */\n      pop\n        /* \"#utility.yul\":5927:6208   */\n      pop\n      pop\n      jump\t// out\n        /* \"#utility.yul\":6214:6343   */\n    tag_216:\n        /* \"#utility.yul\":6248:6254   */\n      0x00\n        /* \"#utility.yul\":6275:6295   */\n      tag_339\n      tag_193\n      jump\t// in\n    tag_339:\n        /* \"#utility.yul\":6265:6295   */\n      swap1\n      pop\n        /* \"#utility.yul\":6304:6337   */\n      tag_340\n        /* \"#utility.yul\":6332:6336   */\n      dup3\n        /* \"#utility.yul\":6324:6330   */\n      dup3\n        /* \"#utility.yul\":6304:6337   */\n      tag_215\n      jump\t// in\n    tag_340:\n        /* \"#utility.yul\":6214:6343   */\n      swap2\n      swap1\n      pop\n      jump\t// out\n        /* \"#utility.yul\":6349:6657   */\n    tag_217:\n        /* \"#utility.yul\":6411:6415   */\n      0x00\n        /* \"#utility.yul\":6501:6519   */\n      0xffffffffffffffff\n        /* \"#utility.yul\":6493:6499   */\n      dup3\n        /* \"#utility.yul\":6490:6520   */\n      gt\n        /* \"#utility.yul\":6487:6543   */\n      iszero\n      tag_342\n      jumpi\n        /* \"#utility.yul\":6523:6541   */\n      tag_343\n      tag_214\n      jump\t// in\n    tag_343:\n        /* \"#utility.yul\":6487:6543   */\n    tag_342:\n        /* \"#utility.yul\":6561:6590   */\n      tag_344\n        /* \"#utility.yul\":6583:6589   */\n      dup3\n        /* \"#utility.yul\":6561:6590   */\n      tag_206\n      jump\t// in\n    tag_344:\n        /* \"#utility.yul\":6553:6590   */\n      swap1\n      pop\n        /* \"#utility.yul\":6645:6649   */\n      0x20\n        /* \"#utility.yul\":6639:6643   */\n      dup2\n        /* \"#utility.yul\":6635:6650   */\n      add\n        /* \"#utility.yul\":6627:6650   */\n      swap1\n      pop\n        /* \"#utility.yul\":6349:6657   */\n      swap2\n      swap1\n      pop\n      jump\t// out\n        /* \"#utility.yul\":6663:6811   */\n    tag_218:\n        /* \"#utility.yul\":6761:6767   */\n      dup3\n        /* \"#utility.yul\":6756:6759   */\n      dup2\n        /* \"#utility.yul\":6751:6754   */\n      dup4\n        /* \"#utility.yul\":6738:6768   */\n      calldatacopy\n        /* \"#utility.yul\":6802:6803   */\n      0x00\n        /* \"#utility.yul\":6793:6799   */\n      dup4\n        /* \"#utility.yul\":6788:6791   */\n      dup4\n        /* \"#utility.yul\":6784:6800   */\n      add\n        /* \"#utility.yul\":6777:6804   */\n      mstore\n        /* \"#utility.yul\":6663:6811   */\n      pop\n      pop\n      pop\n      jump\t// out\n        /* \"#utility.yul\":6817:7242   */\n    tag_219:\n        /* \"#utility.yul\":6895:6900   */\n      0x00\n        /* \"#utility.yul\":6920:6986   */\n      tag_347\n        /* \"#utility.yul\":6936:6985   */\n      tag_348\n        /* \"#utility.yul\":6978:6984   */\n      dup5\n        /* \"#utility.yul\":6936:6985   */\n      tag_217\n      jump\t// in\n    tag_348:\n        /* \"#utility.yul\":6920:6986   */\n      tag_216\n      jump\t// in\n    tag_347:\n        /* \"#utility.yul\":6911:6986   */\n      swap1\n      pop\n        /* \"#utility.yul\":7009:7015   */\n      dup3\n        /* \"#utility.yul\":7002:7007   */\n      dup2\n        /* \"#utility.yul\":6995:7016   */\n      mstore\n        /* \"#utility.yul\":7047:7051   */\n      0x20\n        /* \"#utility.yul\":7040:7045   */\n      dup2\n        /* \"#utility.yul\":7036:7052   */\n      add\n        /* \"#utility.yul\":7085:7088   */\n      dup5\n        /* \"#utility.yul\":7076:7082   */\n      dup5\n        /* \"#utility.yul\":7071:7074   */\n      dup5\n        /* \"#utility.yul\":7067:7083   */\n      add\n        /* \"#utility.yul\":7064:7089   */\n      gt\n        /* \"#utility.yul\":7061:7173   */\n      iszero\n      tag_349\n      jumpi\n        /* \"#utility.yul\":7092:7171   */\n      tag_350\n      tag_213\n      jump\t// in\n    tag_350:\n        /* \"#utility.yul\":7061:7173   */\n    tag_349:\n        /* \"#utility.yul\":7182:7236   */\n      tag_351\n        /* \"#utility.yul\":7229:7235   */\n      dup5\n        /* \"#utility.yul\":7224:7227   */\n      dup3\n        /* \"#utility.yul\":7219:7222   */\n      dup6\n        /* \"#utility.yul\":7182:7236   */\n      tag_218\n      jump\t// in\n    tag_351:\n        /* \"#utility.yul\":6901:7242   */\n      pop\n        /* \"#utility.yul\":6817:7242   */\n      swap4\n      swap3\n      pop\n      pop\n      pop\n      jump\t// out\n        /* \"#utility.yul\":7262:7602   */\n    tag_220:\n        /* \"#utility.yul\":7318:7323   */\n      0x00\n        /* \"#utility.yul\":7367:7370   */\n      dup3\n        /* \"#utility.yul\":7360:7364   */\n      0x1f\n        /* \"#utility.yul\":7352:7358   */\n      dup4\n        /* \"#utility.yul\":7348:7365   */\n      add\n        /* \"#utility.yul\":7344:7371   */\n      slt\n        /* \"#utility.yul\":7334:7456   */\n      tag_353\n      jumpi\n        /* \"#utility.yul\":7375:7454   */\n      tag_354\n      tag_212\n      jump\t// in\n    tag_354:\n        /* \"#utility.yul\":7334:7456   */\n    tag_353:\n        /* \"#utility.yul\":7492:7498   */\n      dup2\n        /* \"#utility.yul\":7479:7499   */\n      calldataload\n        /* \"#utility.yul\":7517:7596   */\n      tag_355\n        /* \"#utility.yul\":7592:7595   */\n      dup5\n        /* \"#utility.yul\":7584:7590   */\n      dup3\n        /* \"#utility.yul\":7577:7581   */\n      0x20\n        /* \"#utility.yul\":7569:7575   */\n      dup7\n        /* \"#utility.yul\":7565:7582   */\n      add\n        /* \"#utility.yul\":7517:7596   */\n      tag_219\n      jump\t// in\n    tag_355:\n        /* \"#utility.yul\":7508:7596   */\n      swap2\n      pop\n        /* \"#utility.yul\":7324:7602   */\n      pop\n        /* \"#utility.yul\":7262:7602   */\n      swap3\n      swap2\n      pop\n      pop\n      jump\t// out\n        /* \"#utility.yul\":7608:8879   */\n    tag_76:\n        /* \"#utility.yul\":7723:7729   */\n      0x00\n        /* \"#utility.yul\":7731:7737   */\n      0x00\n        /* \"#utility.yul\":7739:7745   */\n      0x00\n        /* \"#utility.yul\":7747:7753   */\n      0x00\n        /* \"#utility.yul\":7755:7761   */\n      0x00\n        /* \"#utility.yul\":7804:7807   */\n      0xa0\n        /* \"#utility.yul\":7792:7801   */\n      dup7\n        /* \"#utility.yul\":7783:7790   */\n      dup9\n        /* \"#utility.yul\":7779:7802   */\n      sub\n        /* \"#utility.yul\":7775:7808   */\n      slt\n        /* \"#utility.yul\":7772:7892   */\n      iszero\n      tag_357\n      jumpi\n        /* \"#utility.yul\":7811:7890   */\n      tag_358\n      tag_194\n      jump\t// in\n    tag_358:\n        /* \"#utility.yul\":7772:7892   */\n    tag_357:\n        /* \"#utility.yul\":7959:7960   */\n      0x00\n        /* \"#utility.yul\":7948:7957   */\n      dup7\n        /* \"#utility.yul\":7944:7961   */\n      add\n        /* \"#utility.yul\":7931:7962   */\n      calldataload\n        /* \"#utility.yul\":7989:8007   */\n      0xffffffffffffffff\n        /* \"#utility.yul\":7981:7987   */\n      dup2\n        /* \"#utility.yul\":7978:8008   */\n      gt\n        /* \"#utility.yul\":7975:8092   */\n      iszero\n      tag_359\n      jumpi\n        /* \"#utility.yul\":8011:8090   */\n      tag_360\n      tag_195\n      jump\t// in\n    tag_360:\n        /* \"#utility.yul\":7975:8092   */\n    tag_359:\n        /* \"#utility.yul\":8116:8179   */\n      tag_361\n        /* \"#utility.yul\":8171:8178   */\n      dup9\n        /* \"#utility.yul\":8162:8168   */\n      dup3\n        /* \"#utility.yul\":8151:8160   */\n      dup10\n        /* \"#utility.yul\":8147:8169   */\n      add\n        /* \"#utility.yul\":8116:8179   */\n      tag_220\n      jump\t// in\n    tag_361:\n        /* \"#utility.yul\":8106:8179   */\n      swap6\n      pop\n        /* \"#utility.yul\":7902:8189   */\n      pop\n        /* \"#utility.yul\":8256:8258   */\n      0x20\n        /* \"#utility.yul\":8245:8254   */\n      dup7\n        /* \"#utility.yul\":8241:8259   */\n      add\n        /* \"#utility.yul\":8228:8260   */\n      calldataload\n        /* \"#utility.yul\":8287:8305   */\n      0xffffffffffffffff\n        /* \"#utility.yul\":8279:8285   */\n      dup2\n        /* \"#utility.yul\":8276:8306   */\n      gt\n        /* \"#utility.yul\":8273:8390   */\n      iszero\n      tag_362\n      jumpi\n        /* \"#utility.yul\":8309:8388   */\n      tag_363\n      tag_195\n      jump\t// in\n    tag_363:\n        /* \"#utility.yul\":8273:8390   */\n    tag_362:\n        /* \"#utility.yul\":8414:8477   */\n      tag_364\n        /* \"#utility.yul\":8469:8476   */\n      dup9\n        /* \"#utility.yul\":8460:8466   */\n      dup3\n        /* \"#utility.yul\":8449:8458   */\n      dup10\n        /* \"#utility.yul\":8445:8467   */\n      add\n        /* \"#utility.yul\":8414:8477   */\n      tag_220\n      jump\t// in\n    tag_364:\n        /* \"#utility.yul\":8404:8477   */\n      swap5\n      pop\n        /* \"#utility.yul\":8199:8487   */\n      pop\n        /* \"#utility.yul\":8526:8528   */\n      0x40\n        /* \"#utility.yul\":8552:8605   */\n      tag_365\n        /* \"#utility.yul\":8597:8604   */\n      dup9\n        /* \"#utility.yul\":8588:8594   */\n      dup3\n        /* \"#utility.yul\":8577:8586   */\n      dup10\n        /* \"#utility.yul\":8573:8595   */\n      add\n        /* \"#utility.yul\":8552:8605   */\n      tag_198\n      jump\t// in\n    tag_365:\n        /* \"#utility.yul\":8542:8605   */\n      swap4\n      pop\n        /* \"#utility.yul\":8497:8615   */\n      pop\n        /* \"#utility.yul\":8654:8656   */\n      0x60\n        /* \"#utility.yul\":8680:8733   */\n      tag_366\n        /* \"#utility.yul\":8725:8732   */\n      dup9\n        /* \"#utility.yul\":8716:8722   */\n      dup3\n        /* \"#utility.yul\":8705:8714   */\n      dup10\n        /* \"#utility.yul\":8701:8723   */\n      add\n        /* \"#utility.yul\":8680:8733   */\n      tag_198\n      jump\t// in\n    tag_366:\n        /* \"#utility.yul\":8670:8733   */\n      swap3\n      pop\n        /* \"#utility.yul\":8625:8743   */\n      pop\n        /* \"#utility.yul\":8782:8785   */\n      0x80\n        /* \"#utility.yul\":8809:8862   */\n      tag_367\n        /* \"#utility.yul\":8854:8861   */\n      dup9\n        /* \"#utility.yul\":8845:8851   */\n      dup3\n        /* \"#utility.yul\":8834:8843   */\n      dup10\n        /* \"#utility.yul\":8830:8852   */\n      add\n        /* \"#utility.yul\":8809:8862   */\n      tag_198\n      jump\t// in\n    tag_367:\n        /* \"#utility.yul\":8799:8862   */\n      swap2\n      pop\n        /* \"#utility.yul\":8753:8872   */\n      pop\n        /* \"#utility.yul\":7608:8879   */\n      swap3\n      swap6\n      pop\n      swap3\n      swap6\n      swap1\n      swap4\n      pop\n      jump\t// out\n        /* \"#utility.yul\":8885:9105   */\n    tag_221:\n        /* \"#utility.yul\":9025:9059   */\n      0x70726f6a65637420686173206e6f74206265656e206372656174656420796574\n        /* \"#utility.yul\":9021:9022   */\n      0x00\n        /* \"#utility.yul\":9013:9019   */\n      dup3\n        /* \"#utility.yul\":9009:9023   */\n      add\n        /* \"#utility.yul\":9002:9060   */\n      mstore\n        /* \"#utility.yul\":9094:9097   */\n      0x2100000000000000000000000000000000000000000000000000000000000000\n        /* \"#utility.yul\":9089:9091   */\n      0x20\n        /* \"#utility.yul\":9081:9087   */\n      dup3\n        /* \"#utility.yul\":9077:9092   */\n      add\n        /* \"#utility.yul\":9070:9098   */\n      mstore\n        /* \"#utility.yul\":8885:9105   */\n      pop\n      jump\t// out\n        /* \"#utility.yul\":9111:9477   */\n    tag_222:\n        /* \"#utility.yul\":9253:9256   */\n      0x00\n        /* \"#utility.yul\":9274:9341   */\n      tag_370\n        /* \"#utility.yul\":9338:9340   */\n      0x21\n        /* \"#utility.yul\":9333:9336   */\n      dup4\n        /* \"#utility.yul\":9274:9341   */\n      tag_204\n      jump\t// in\n    tag_370:\n        /* \"#utility.yul\":9267:9341   */\n      swap2\n      pop\n        /* \"#utility.yul\":9350:9443   */\n      tag_371\n        /* \"#utility.yul\":9439:9442   */\n      dup3\n        /* \"#utility.yul\":9350:9443   */\n      tag_221\n      jump\t// in\n    tag_371:\n        /* \"#utility.yul\":9468:9470   */\n      0x40\n        /* \"#utility.yul\":9463:9466   */\n      dup3\n        /* \"#utility.yul\":9459:9471   */\n      add\n        /* \"#utility.yul\":9452:9471   */\n      swap1\n      pop\n        /* \"#utility.yul\":9111:9477   */\n      swap2\n      swap1\n      pop\n      jump\t// out\n        /* \"#utility.yul\":9483:9902   */\n    tag_81:\n        /* \"#utility.yul\":9649:9653   */\n      0x00\n        /* \"#utility.yul\":9687:9689   */\n      0x20\n        /* \"#utility.yul\":9676:9685   */\n      dup3\n        /* \"#utility.yul\":9672:9690   */\n      add\n        /* \"#utility.yul\":9664:9690   */\n      swap1\n      pop\n        /* \"#utility.yul\":9736:9745   */\n      dup2\n        /* \"#utility.yul\":9730:9734   */\n      dup2\n        /* \"#utility.yul\":9726:9746   */\n      sub\n        /* \"#utility.yul\":9722:9723   */\n      0x00\n        /* \"#utility.yul\":9711:9720   */\n      dup4\n        /* \"#utility.yul\":9707:9724   */\n      add\n        /* \"#utility.yul\":9700:9747   */\n      mstore\n        /* \"#utility.yul\":9764:9895   */\n      tag_373\n        /* \"#utility.yul\":9890:9894   */\n      dup2\n        /* \"#utility.yul\":9764:9895   */\n      tag_222\n      jump\t// in\n    tag_373:\n        /* \"#utility.yul\":9756:9895   */\n      swap1\n      pop\n        /* \"#utility.yul\":9483:9902   */\n      swap2\n      swap1\n      pop\n      jump\t// out\n        /* \"#utility.yul\":9908:10088   */\n    tag_223:\n        /* \"#utility.yul\":9956:10033   */\n      0x4e487b7100000000000000000000000000000000000000000000000000000000\n        /* \"#utility.yul\":9953:9954   */\n      0x00\n        /* \"#utility.yul\":9946:10034   */\n      mstore\n        /* \"#utility.yul\":10053:10057   */\n      0x11\n        /* \"#utility.yul\":10050:10051   */\n      0x04\n        /* \"#utility.yul\":10043:10058   */\n      mstore\n        /* \"#utility.yul\":10077:10081   */\n      0x24\n        /* \"#utility.yul\":10074:10075   */\n      0x00\n        /* \"#utility.yul\":10067:10082   */\n      revert\n        /* \"#utility.yul\":10094:10288   */\n    tag_85:\n        /* \"#utility.yul\":10134:10138   */\n      0x00\n        /* \"#utility.yul\":10154:10174   */\n      tag_376\n        /* \"#utility.yul\":10172:10173   */\n      dup3\n        /* \"#utility.yul\":10154:10174   */\n      tag_196\n      jump\t// in\n    tag_376:\n        /* \"#utility.yul\":10149:10174   */\n      swap2\n      pop\n        /* \"#utility.yul\":10188:10208   */\n      tag_377\n        /* \"#utility.yul\":10206:10207   */\n      dup4\n        /* \"#utility.yul\":10188:10208   */\n      tag_196\n      jump\t// in\n    tag_377:\n        /* \"#utility.yul\":10183:10208   */\n      swap3\n      pop\n        /* \"#utility.yul\":10232:10233   */\n      dup3\n        /* \"#utility.yul\":10229:10230   */\n      dup3\n        /* \"#utility.yul\":10225:10234   */\n      sub\n        /* \"#utility.yul\":10217:10234   */\n      swap1\n      pop\n        /* \"#utility.yul\":10256:10257   */\n      dup2\n        /* \"#utility.yul\":10250:10254   */\n      dup2\n        /* \"#utility.yul\":10247:10258   */\n      gt\n        /* \"#utility.yul\":10244:10281   */\n      iszero\n      tag_378\n      jumpi\n        /* \"#utility.yul\":10261:10279   */\n      tag_379\n      tag_223\n      jump\t// in\n    tag_379:\n        /* \"#utility.yul\":10244:10281   */\n    tag_378:\n        /* \"#utility.yul\":10094:10288   */\n      swap3\n      swap2\n      pop\n      pop\n      jump\t// out\n        /* \"#utility.yul\":10294:10536   */\n    tag_224:\n        /* \"#utility.yul\":10434:10468   */\n      0x446561646c696e65206973206f766572202c20796f752043616e277420636861\n        /* \"#utility.yul\":10430:10431   */\n      0x00\n        /* \"#utility.yul\":10422:10428   */\n      dup3\n        /* \"#utility.yul\":10418:10432   */\n      add\n        /* \"#utility.yul\":10411:10469   */\n      mstore\n        /* \"#utility.yul\":10503:10528   */\n      0x6e6765207468652066756e64696e6720676f616c202121000000000000000000\n        /* \"#utility.yul\":10498:10500   */\n      0x20\n        /* \"#utility.yul\":10490:10496   */\n      dup3\n        /* \"#utility.yul\":10486:10501   */\n      add\n        /* \"#utility.yul\":10479:10529   */\n      mstore\n        /* \"#utility.yul\":10294:10536   */\n      pop\n      jump\t// out\n        /* \"#utility.yul\":10542:10908   */\n    tag_225:\n        /* \"#utility.yul\":10684:10687   */\n      0x00\n        /* \"#utility.yul\":10705:10772   */\n      tag_382\n        /* \"#utility.yul\":10769:10771   */\n      0x37\n        /* \"#utility.yul\":10764:10767   */\n      dup4\n        /* \"#utility.yul\":10705:10772   */\n      tag_204\n      jump\t// in\n    tag_382:\n        /* \"#utility.yul\":10698:10772   */\n      swap2\n      pop\n        /* \"#utility.yul\":10781:10874   */\n      tag_383\n        /* \"#utility.yul\":10870:10873   */\n      dup3\n        /* \"#utility.yul\":10781:10874   */\n      tag_224\n      jump\t// in\n    tag_383:\n        /* \"#utility.yul\":10899:10901   */\n      0x40\n        /* \"#utility.yul\":10894:10897   */\n      dup3\n        /* \"#utility.yul\":10890:10902   */\n      add\n        /* \"#utility.yul\":10883:10902   */\n      swap1\n      pop\n        /* \"#utility.yul\":10542:10908   */\n      swap2\n      swap1\n      pop\n      jump\t// out\n        /* \"#utility.yul\":10914:11333   */\n    tag_89:\n        /* \"#utility.yul\":11080:11084   */\n      0x00\n        /* \"#utility.yul\":11118:11120   */\n      0x20\n        /* \"#utility.yul\":11107:11116   */\n      dup3\n        /* \"#utility.yul\":11103:11121   */\n      add\n        /* \"#utility.yul\":11095:11121   */\n      swap1\n      pop\n        /* \"#utility.yul\":11167:11176   */\n      dup2\n        /* \"#utility.yul\":11161:11165   */\n      dup2\n        /* \"#utility.yul\":11157:11177   */\n      sub\n        /* \"#utility.yul\":11153:11154   */\n      0x00\n        /* \"#utility.yul\":11142:11151   */\n      dup4\n        /* \"#utility.yul\":11138:11155   */\n      add\n        /* \"#utility.yul\":11131:11178   */\n      mstore\n        /* \"#utility.yul\":11195:11326   */\n      tag_385\n        /* \"#utility.yul\":11321:11325   */\n      dup2\n        /* \"#utility.yul\":11195:11326   */\n      tag_225\n      jump\t// in\n    tag_385:\n        /* \"#utility.yul\":11187:11326   */\n      swap1\n      pop\n        /* \"#utility.yul\":10914:11333   */\n      swap2\n      swap1\n      pop\n      jump\t// out\n        /* \"#utility.yul\":11339:11631   */\n    tag_226:\n        /* \"#utility.yul\":11479:11513   */\n      0x596f7520617265206e6f74207468652070726f6a6563742063726561746f7220\n        /* \"#utility.yul\":11475:11476   */\n      0x00\n        /* \"#utility.yul\":11467:11473   */\n      dup3\n        /* \"#utility.yul\":11463:11477   */\n      add\n        /* \"#utility.yul\":11456:11514   */\n      mstore\n        /* \"#utility.yul\":11548:11582   */\n      0x2c204f6e6c7920506f726a6563742063726561746f722063616e204368616e67\n        /* \"#utility.yul\":11543:11545   */\n      0x20\n        /* \"#utility.yul\":11535:11541   */\n      dup3\n        /* \"#utility.yul\":11531:11546   */\n      add\n        /* \"#utility.yul\":11524:11583   */\n      mstore\n        /* \"#utility.yul\":11617:11623   */\n      0x6520212100000000000000000000000000000000000000000000000000000000\n        /* \"#utility.yul\":11612:11614   */\n      0x40\n        /* \"#utility.yul\":11604:11610   */\n      dup3\n        /* \"#utility.yul\":11600:11615   */\n      add\n        /* \"#utility.yul\":11593:11624   */\n      mstore\n        /* \"#utility.yul\":11339:11631   */\n      pop\n      jump\t// out\n        /* \"#utility.yul\":11637:12003   */\n    tag_227:\n        /* \"#utility.yul\":11779:11782   */\n      0x00\n        /* \"#utility.yul\":11800:11867   */\n      tag_388\n        /* \"#utility.yul\":11864:11866   */\n      0x44\n        /* \"#utility.yul\":11859:11862   */\n      dup4\n        /* \"#utility.yul\":11800:11867   */\n      tag_204\n      jump\t// in\n    tag_388:\n        /* \"#utility.yul\":11793:11867   */\n      swap2\n      pop\n        /* \"#utility.yul\":11876:11969   */\n      tag_389\n        /* \"#utility.yul\":11965:11968   */\n      dup3\n        /* \"#utility.yul\":11876:11969   */\n      tag_226\n      jump\t// in\n    tag_389:\n        /* \"#utility.yul\":11994:11996   */\n      0x60\n        /* \"#utility.yul\":11989:11992   */\n      dup3\n        /* \"#utility.yul\":11985:11997   */\n      add\n        /* \"#utility.yul\":11978:11997   */\n      swap1\n      pop\n        /* \"#utility.yul\":11637:12003   */\n      swap2\n      swap1\n      pop\n      jump\t// out\n        /* \"#utility.yul\":12009:12428   */\n    tag_92:\n        /* \"#utility.yul\":12175:12179   */\n      0x00\n        /* \"#utility.yul\":12213:12215   */\n      0x20\n        /* \"#utility.yul\":12202:12211   */\n      dup3\n        /* \"#utility.yul\":12198:12216   */\n      add\n        /* \"#utility.yul\":12190:12216   */\n      swap1\n      pop\n        /* \"#utility.yul\":12262:12271   */\n      dup2\n        /* \"#utility.yul\":12256:12260   */\n      dup2\n        /* \"#utility.yul\":12252:12272   */\n      sub\n        /* \"#utility.yul\":12248:12249   */\n      0x00\n        /* \"#utility.yul\":12237:12246   */\n      dup4\n        /* \"#utility.yul\":12233:12250   */\n      add\n        /* \"#utility.yul\":12226:12273   */\n      mstore\n        /* \"#utility.yul\":12290:12421   */\n      tag_391\n        /* \"#utility.yul\":12416:12420   */\n      dup2\n        /* \"#utility.yul\":12290:12421   */\n      tag_227\n      jump\t// in\n    tag_391:\n        /* \"#utility.yul\":12282:12421   */\n      swap1\n      pop\n        /* \"#utility.yul\":12009:12428   */\n      swap2\n      swap1\n      pop\n      jump\t// out\n        /* \"#utility.yul\":12434:12614   */\n    tag_228:\n        /* \"#utility.yul\":12482:12559   */\n      0x4e487b7100000000000000000000000000000000000000000000000000000000\n        /* \"#utility.yul\":12479:12480   */\n      0x00\n        /* \"#utility.yul\":12472:12560   */\n      mstore\n        /* \"#utility.yul\":12579:12583   */\n      0x22\n        /* \"#utility.yul\":12576:12577   */\n      0x04\n        /* \"#utility.yul\":12569:12584   */\n      mstore\n        /* \"#utility.yul\":12603:12607   */\n      0x24\n        /* \"#utility.yul\":12600:12601   */\n      0x00\n        /* \"#utility.yul\":12593:12608   */\n      revert\n        /* \"#utility.yul\":12620:12940   */\n    tag_94:\n        /* \"#utility.yul\":12664:12670   */\n      0x00\n        /* \"#utility.yul\":12701:12702   */\n      0x02\n        /* \"#utility.yul\":12695:12699   */\n      dup3\n        /* \"#utility.yul\":12691:12703   */\n      div\n        /* \"#utility.yul\":12681:12703   */\n      swap1\n      pop\n        /* \"#utility.yul\":12748:12749   */\n      0x01\n        /* \"#utility.yul\":12742:12746   */\n      dup3\n        /* \"#utility.yul\":12738:12750   */\n      and\n        /* \"#utility.yul\":12769:12787   */\n      dup1\n        /* \"#utility.yul\":12759:12840   */\n      tag_394\n      jumpi\n        /* \"#utility.yul\":12825:12829   */\n      0x7f\n        /* \"#utility.yul\":12817:12823   */\n      dup3\n        /* \"#utility.yul\":12813:12830   */\n      and\n        /* \"#utility.yul\":12803:12830   */\n      swap2\n      pop\n        /* \"#utility.yul\":12759:12840   */\n    tag_394:\n        /* \"#utility.yul\":12887:12889   */\n      0x20\n        /* \"#utility.yul\":12879:12885   */\n      dup3\n        /* \"#utility.yul\":12876:12890   */\n      lt\n        /* \"#utility.yul\":12856:12874   */\n      dup2\n        /* \"#utility.yul\":12853:12891   */\n      sub\n        /* \"#utility.yul\":12850:12934   */\n      tag_395\n      jumpi\n        /* \"#utility.yul\":12906:12924   */\n      tag_396\n      tag_228\n      jump\t// in\n    tag_396:\n        /* \"#utility.yul\":12850:12934   */\n    tag_395:\n        /* \"#utility.yul\":12671:12940   */\n      pop\n        /* \"#utility.yul\":12620:12940   */\n      swap2\n      swap1\n      pop\n      jump\t// out\n        /* \"#utility.yul\":12946:13179   */\n    tag_229:\n        /* \"#utility.yul\":13086:13120   */\n      0x46756e64696e6720676f616c206861732072656163686564202c207573657220\n        /* \"#utility.yul\":13082:13083   */\n      0x00\n        /* \"#utility.yul\":13074:13080   */\n      dup3\n        /* \"#utility.yul\":13070:13084   */\n      add\n        /* \"#utility.yul\":13063:13121   */\n      mstore\n        /* \"#utility.yul\":13155:13171   */\n      0x63616e2774207769746864726177000000000000000000000000000000000000\n        /* \"#utility.yul\":13150:13152   */\n      0x20\n        /* \"#utility.yul\":13142:13148   */\n      dup3\n        /* \"#utility.yul\":13138:13153   */\n      add\n        /* \"#utility.yul\":13131:13172   */\n      mstore\n        /* \"#utility.yul\":12946:13179   */\n      pop\n      jump\t// out\n        /* \"#utility.yul\":13185:13551   */\n    tag_230:\n        /* \"#utility.yul\":13327:13330   */\n      0x00\n        /* \"#utility.yul\":13348:13415   */\n      tag_399\n        /* \"#utility.yul\":13412:13414   */\n      0x2e\n        /* \"#utility.yul\":13407:13410   */\n      dup4\n        /* \"#utility.yul\":13348:13415   */\n      tag_204\n      jump\t// in\n    tag_399:\n        /* \"#utility.yul\":13341:13415   */\n      swap2\n      pop\n        /* \"#utility.yul\":13424:13517   */\n      tag_400\n        /* \"#utility.yul\":13513:13516   */\n      dup3\n        /* \"#utility.yul\":13424:13517   */\n      tag_229\n      jump\t// in\n    tag_400:\n        /* \"#utility.yul\":13542:13544   */\n      0x40\n        /* \"#utility.yul\":13537:13540   */\n      dup3\n        /* \"#utility.yul\":13533:13545   */\n      add\n        /* \"#utility.yul\":13526:13545   */\n      swap1\n      pop\n        /* \"#utility.yul\":13185:13551   */\n      swap2\n      swap1\n      pop\n      jump\t// out\n        /* \"#utility.yul\":13557:13976   */\n    tag_111:\n        /* \"#utility.yul\":13723:13727   */\n      0x00\n        /* \"#utility.yul\":13761:13763   */\n      0x20\n        /* \"#utility.yul\":13750:13759   */\n      dup3\n        /* \"#utility.yul\":13746:13764   */\n      add\n        /* \"#utility.yul\":13738:13764   */\n      swap1\n      pop\n        /* \"#utility.yul\":13810:13819   */\n      dup2\n        /* \"#utility.yul\":13804:13808   */\n      dup2\n        /* \"#utility.yul\":13800:13820   */\n      sub\n        /* \"#utility.yul\":13796:13797   */\n      0x00\n        /* \"#utility.yul\":13785:13794   */\n      dup4\n        /* \"#utility.yul\":13781:13798   */\n      add\n        /* \"#utility.yul\":13774:13821   */\n      mstore\n        /* \"#utility.yul\":13838:13969   */\n      tag_402\n        /* \"#utility.yul\":13964:13968   */\n      dup2\n        /* \"#utility.yul\":13838:13969   */\n      tag_230\n      jump\t// in\n    tag_402:\n        /* \"#utility.yul\":13830:13969   */\n      swap1\n      pop\n        /* \"#utility.yul\":13557:13976   */\n      swap2\n      swap1\n      pop\n      jump\t// out\n        /* \"#utility.yul\":13982:14314   */\n    tag_115:\n        /* \"#utility.yul\":14103:14107   */\n      0x00\n        /* \"#utility.yul\":14141:14143   */\n      0x40\n        /* \"#utility.yul\":14130:14139   */\n      dup3\n        /* \"#utility.yul\":14126:14144   */\n      add\n        /* \"#utility.yul\":14118:14144   */\n      swap1\n      pop\n        /* \"#utility.yul\":14154:14225   */\n      tag_404\n        /* \"#utility.yul\":14222:14223   */\n      0x00\n        /* \"#utility.yul\":14211:14220   */\n      dup4\n        /* \"#utility.yul\":14207:14224   */\n      add\n        /* \"#utility.yul\":14198:14204   */\n      dup6\n        /* \"#utility.yul\":14154:14225   */\n      tag_202\n      jump\t// in\n    tag_404:\n        /* \"#utility.yul\":14235:14307   */\n      tag_405\n        /* \"#utility.yul\":14303:14305   */\n      0x20\n        /* \"#utility.yul\":14292:14301   */\n      dup4\n        /* \"#utility.yul\":14288:14306   */\n      add\n        /* \"#utility.yul\":14279:14285   */\n      dup5\n        /* \"#utility.yul\":14235:14307   */\n      tag_199\n      jump\t// in\n    tag_405:\n        /* \"#utility.yul\":13982:14314   */\n      swap4\n      swap3\n      pop\n      pop\n      pop\n      jump\t// out\n        /* \"#utility.yul\":14320:14730   */\n    tag_118:\n        /* \"#utility.yul\":14360:14367   */\n      0x00\n        /* \"#utility.yul\":14383:14403   */\n      tag_407\n        /* \"#utility.yul\":14401:14402   */\n      dup3\n        /* \"#utility.yul\":14383:14403   */\n      tag_196\n      jump\t// in\n    tag_407:\n        /* \"#utility.yul\":14378:14403   */\n      swap2\n      pop\n        /* \"#utility.yul\":14417:14437   */\n      tag_408\n        /* \"#utility.yul\":14435:14436   */\n      dup4\n        /* \"#utility.yul\":14417:14437   */\n      tag_196\n      jump\t// in\n    tag_408:\n        /* \"#utility.yul\":14412:14437   */\n      swap3\n      pop\n        /* \"#utility.yul\":14472:14473   */\n      dup3\n        /* \"#utility.yul\":14469:14470   */\n      dup3\n        /* \"#utility.yul\":14465:14474   */\n      mul\n        /* \"#utility.yul\":14494:14524   */\n      tag_409\n        /* \"#utility.yul\":14512:14523   */\n      dup2\n        /* \"#utility.yul\":14494:14524   */\n      tag_196\n      jump\t// in\n    tag_409:\n        /* \"#utility.yul\":14483:14524   */\n      swap2\n      pop\n        /* \"#utility.yul\":14673:14674   */\n      dup3\n        /* \"#utility.yul\":14664:14671   */\n      dup3\n        /* \"#utility.yul\":14660:14675   */\n      div\n        /* \"#utility.yul\":14657:14658   */\n      dup5\n        /* \"#utility.yul\":14654:14676   */\n      eq\n        /* \"#utility.yul\":14634:14635   */\n      dup4\n        /* \"#utility.yul\":14627:14636   */\n      iszero\n        /* \"#utility.yul\":14607:14690   */\n      or\n        /* \"#utility.yul\":14584:14723   */\n      tag_410\n      jumpi\n        /* \"#utility.yul\":14703:14721   */\n      tag_411\n      tag_223\n      jump\t// in\n    tag_411:\n        /* \"#utility.yul\":14584:14723   */\n    tag_410:\n        /* \"#utility.yul\":14368:14730   */\n      pop\n        /* \"#utility.yul\":14320:14730   */\n      swap3\n      swap2\n      pop\n      pop\n      jump\t// out\n        /* \"#utility.yul\":14736:14916   */\n    tag_231:\n        /* \"#utility.yul\":14784:14861   */\n      0x4e487b7100000000000000000000000000000000000000000000000000000000\n        /* \"#utility.yul\":14781:14782   */\n      0x00\n        /* \"#utility.yul\":14774:14862   */\n      mstore\n        /* \"#utility.yul\":14881:14885   */\n      0x12\n        /* \"#utility.yul\":14878:14879   */\n      0x04\n        /* \"#utility.yul\":14871:14886   */\n      mstore\n        /* \"#utility.yul\":14905:14909   */\n      0x24\n        /* \"#utility.yul\":14902:14903   */\n      0x00\n        /* \"#utility.yul\":14895:14910   */\n      revert\n        /* \"#utility.yul\":14922:15107   */\n    tag_120:\n        /* \"#utility.yul\":14962:14963   */\n      0x00\n        /* \"#utility.yul\":14979:14999   */\n      tag_414\n        /* \"#utility.yul\":14997:14998   */\n      dup3\n        /* \"#utility.yul\":14979:14999   */\n      tag_196\n      jump\t// in\n    tag_414:\n        /* \"#utility.yul\":14974:14999   */\n      swap2\n      pop\n        /* \"#utility.yul\":15013:15033   */\n      tag_415\n        /* \"#utility.yul\":15031:15032   */\n      dup4\n        /* \"#utility.yul\":15013:15033   */\n      tag_196\n      jump\t// in\n    tag_415:\n        /* \"#utility.yul\":15008:15033   */\n      swap3\n      pop\n        /* \"#utility.yul\":15052:15053   */\n      dup3\n        /* \"#utility.yul\":15042:15077   */\n      tag_416\n      jumpi\n        /* \"#utility.yul\":15057:15075   */\n      tag_417\n      tag_231\n      jump\t// in\n    tag_417:\n        /* \"#utility.yul\":15042:15077   */\n    tag_416:\n        /* \"#utility.yul\":15099:15100   */\n      dup3\n        /* \"#utility.yul\":15096:15097   */\n      dup3\n        /* \"#utility.yul\":15092:15101   */\n      div\n        /* \"#utility.yul\":15087:15101   */\n      swap1\n      pop\n        /* \"#utility.yul\":14922:15107   */\n      swap3\n      swap2\n      pop\n      pop\n      jump\t// out\n        /* \"#utility.yul\":15113:15346   */\n    tag_232:\n        /* \"#utility.yul\":15253:15287   */\n      0x4f6e6c792050726f6a6563742063726561746f722063616e20657874656e6420\n        /* \"#utility.yul\":15249:15250   */\n      0x00\n        /* \"#utility.yul\":15241:15247   */\n      dup3\n        /* \"#utility.yul\":15237:15251   */\n      add\n        /* \"#utility.yul\":15230:15288   */\n      mstore\n        /* \"#utility.yul\":15322:15338   */\n      0x74686520646561646c696e652121000000000000000000000000000000000000\n        /* \"#utility.yul\":15317:15319   */\n      0x20\n        /* \"#utility.yul\":15309:15315   */\n      dup3\n        /* \"#utility.yul\":15305:15320   */\n      add\n        /* \"#utility.yul\":15298:15339   */\n      mstore\n        /* \"#utility.yul\":15113:15346   */\n      pop\n      jump\t// out\n        /* \"#utility.yul\":15352:15718   */\n    tag_233:\n        /* \"#utility.yul\":15494:15497   */\n      0x00\n        /* \"#utility.yul\":15515:15582   */\n      tag_420\n        /* \"#utility.yul\":15579:15581   */\n      0x2e\n        /* \"#utility.yul\":15574:15577   */\n      dup4\n        /* \"#utility.yul\":15515:15582   */\n      tag_204\n      jump\t// in\n    tag_420:\n        /* \"#utility.yul\":15508:15582   */\n      swap2\n      pop\n        /* \"#utility.yul\":15591:15684   */\n      tag_421\n        /* \"#utility.yul\":15680:15683   */\n      dup3\n        /* \"#utility.yul\":15591:15684   */\n      tag_232\n      jump\t// in\n    tag_421:\n        /* \"#utility.yul\":15709:15711   */\n      0x40\n        /* \"#utility.yul\":15704:15707   */\n      dup3\n        /* \"#utility.yul\":15700:15712   */\n      add\n        /* \"#utility.yul\":15693:15712   */\n      swap1\n      pop\n        /* \"#utility.yul\":15352:15718   */\n      swap2\n      swap1\n      pop\n      jump\t// out\n        /* \"#utility.yul\":15724:16143   */\n    tag_125:\n        /* \"#utility.yul\":15890:15894   */\n      0x00\n        /* \"#utility.yul\":15928:15930   */\n      0x20\n        /* \"#utility.yul\":15917:15926   */\n      dup3\n        /* \"#utility.yul\":15913:15931   */\n      add\n        /* \"#utility.yul\":15905:15931   */\n      swap1\n      pop\n        /* \"#utility.yul\":15977:15986   */\n      dup2\n        /* \"#utility.yul\":15971:15975   */\n      dup2\n        /* \"#utility.yul\":15967:15987   */\n      sub\n        /* \"#utility.yul\":15963:15964   */\n      0x00\n        /* \"#utility.yul\":15952:15961   */\n      dup4\n        /* \"#utility.yul\":15948:15965   */\n      add\n        /* \"#utility.yul\":15941:15988   */\n      mstore\n        /* \"#utility.yul\":16005:16136   */\n      tag_423\n        /* \"#utility.yul\":16131:16135   */\n      dup2\n        /* \"#utility.yul\":16005:16136   */\n      tag_233\n      jump\t// in\n    tag_423:\n        /* \"#utility.yul\":15997:16136   */\n      swap1\n      pop\n        /* \"#utility.yul\":15724:16143   */\n      swap2\n      swap1\n      pop\n      jump\t// out\n        /* \"#utility.yul\":16149:16340   */\n    tag_127:\n        /* \"#utility.yul\":16189:16192   */\n      0x00\n        /* \"#utility.yul\":16208:16228   */\n      tag_425\n        /* \"#utility.yul\":16226:16227   */\n      dup3\n        /* \"#utility.yul\":16208:16228   */\n      tag_196\n      jump\t// in\n    tag_425:\n        /* \"#utility.yul\":16203:16228   */\n      swap2\n      pop\n        /* \"#utility.yul\":16242:16262   */\n      tag_426\n        /* \"#utility.yul\":16260:16261   */\n      dup4\n        /* \"#utility.yul\":16242:16262   */\n      tag_196\n      jump\t// in\n    tag_426:\n        /* \"#utility.yul\":16237:16262   */\n      swap3\n      pop\n        /* \"#utility.yul\":16285:16286   */\n      dup3\n        /* \"#utility.yul\":16282:16283   */\n      dup3\n        /* \"#utility.yul\":16278:16287   */\n      add\n        /* \"#utility.yul\":16271:16287   */\n      swap1\n      pop\n        /* \"#utility.yul\":16306:16309   */\n      dup1\n        /* \"#utility.yul\":16303:16304   */\n      dup3\n        /* \"#utility.yul\":16300:16310   */\n      gt\n        /* \"#utility.yul\":16297:16333   */\n      iszero\n      tag_427\n      jumpi\n        /* \"#utility.yul\":16313:16331   */\n      tag_428\n      tag_223\n      jump\t// in\n    tag_428:\n        /* \"#utility.yul\":16297:16333   */\n    tag_427:\n        /* \"#utility.yul\":16149:16340   */\n      swap3\n      swap2\n      pop\n      pop\n      jump\t// out\n        /* \"#utility.yul\":16346:16521   */\n    tag_234:\n        /* \"#utility.yul\":16486:16513   */\n      0x50726f6a65637420646561646c696e65206973206f7665722100000000000000\n        /* \"#utility.yul\":16482:16483   */\n      0x00\n        /* \"#utility.yul\":16474:16480   */\n      dup3\n        /* \"#utility.yul\":16470:16484   */\n      add\n        /* \"#utility.yul\":16463:16514   */\n      mstore\n        /* \"#utility.yul\":16346:16521   */\n      pop\n      jump\t// out\n        /* \"#utility.yul\":16527:16893   */\n    tag_235:\n        /* \"#utility.yul\":16669:16672   */\n      0x00\n        /* \"#utility.yul\":16690:16757   */\n      tag_431\n        /* \"#utility.yul\":16754:16756   */\n      0x19\n        /* \"#utility.yul\":16749:16752   */\n      dup4\n        /* \"#utility.yul\":16690:16757   */\n      tag_204\n      jump\t// in\n    tag_431:\n        /* \"#utility.yul\":16683:16757   */\n      swap2\n      pop\n        /* \"#utility.yul\":16766:16859   */\n      tag_432\n        /* \"#utility.yul\":16855:16858   */\n      dup3\n        /* \"#utility.yul\":16766:16859   */\n      tag_234\n      jump\t// in\n    tag_432:\n        /* \"#utility.yul\":16884:16886   */\n      0x20\n        /* \"#utility.yul\":16879:16882   */\n      dup3\n        /* \"#utility.yul\":16875:16887   */\n      add\n        /* \"#utility.yul\":16868:16887   */\n      swap1\n      pop\n        /* \"#utility.yul\":16527:16893   */\n      swap2\n      swap1\n      pop\n      jump\t// out\n        /* \"#utility.yul\":16899:17318   */\n    tag_134:\n        /* \"#utility.yul\":17065:17069   */\n      0x00\n        /* \"#utility.yul\":17103:17105   */\n      0x20\n        /* \"#utility.yul\":17092:17101   */\n      dup3\n        /* \"#utility.yul\":17088:17106   */\n      add\n        /* \"#utility.yul\":17080:17106   */\n      swap1\n      pop\n        /* \"#utility.yul\":17152:17161   */\n      dup2\n        /* \"#utility.yul\":17146:17150   */\n      dup2\n        /* \"#utility.yul\":17142:17162   */\n      sub\n        /* \"#utility.yul\":17138:17139   */\n      0x00\n        /* \"#utility.yul\":17127:17136   */\n      dup4\n        /* \"#utility.yul\":17123:17140   */\n      add\n        /* \"#utility.yul\":17116:17163   */\n      mstore\n        /* \"#utility.yul\":17180:17311   */\n      tag_434\n        /* \"#utility.yul\":17306:17310   */\n      dup2\n        /* \"#utility.yul\":17180:17311   */\n      tag_235\n      jump\t// in\n    tag_434:\n        /* \"#utility.yul\":17172:17311   */\n      swap1\n      pop\n        /* \"#utility.yul\":16899:17318   */\n      swap2\n      swap1\n      pop\n      jump\t// out\n        /* \"#utility.yul\":17324:17550   */\n    tag_236:\n        /* \"#utility.yul\":17464:17498   */\n      0x50726f6a6563742052656163686564206974732046756e64696e672072657175\n        /* \"#utility.yul\":17460:17461   */\n      0x00\n        /* \"#utility.yul\":17452:17458   */\n      dup3\n        /* \"#utility.yul\":17448:17462   */\n      add\n        /* \"#utility.yul\":17441:17499   */\n      mstore\n        /* \"#utility.yul\":17533:17542   */\n      0x6972656d656e7400000000000000000000000000000000000000000000000000\n        /* \"#utility.yul\":17528:17530   */\n      0x20\n        /* \"#utility.yul\":17520:17526   */\n      dup3\n        /* \"#utility.yul\":17516:17531   */\n      add\n        /* \"#utility.yul\":17509:17543   */\n      mstore\n        /* \"#utility.yul\":17324:17550   */\n      pop\n      jump\t// out\n        /* \"#utility.yul\":17556:17922   */\n    tag_237:\n        /* \"#utility.yul\":17698:17701   */\n      0x00\n        /* \"#utility.yul\":17719:17786   */\n      tag_437\n        /* \"#utility.yul\":17783:17785   */\n      0x27\n        /* \"#utility.yul\":17778:17781   */\n      dup4\n        /* \"#utility.yul\":17719:17786   */\n      tag_204\n      jump\t// in\n    tag_437:\n        /* \"#utility.yul\":17712:17786   */\n      swap2\n      pop\n        /* \"#utility.yul\":17795:17888   */\n      tag_438\n        /* \"#utility.yul\":17884:17887   */\n      dup3\n        /* \"#utility.yul\":17795:17888   */\n      tag_236\n      jump\t// in\n    tag_438:\n        /* \"#utility.yul\":17913:17915   */\n      0x40\n        /* \"#utility.yul\":17908:17911   */\n      dup3\n        /* \"#utility.yul\":17904:17916   */\n      add\n        /* \"#utility.yul\":17897:17916   */\n      swap1\n      pop\n        /* \"#utility.yul\":17556:17922   */\n      swap2\n      swap1\n      pop\n      jump\t// out\n        /* \"#utility.yul\":17928:18347   */\n    tag_137:\n        /* \"#utility.yul\":18094:18098   */\n      0x00\n        /* \"#utility.yul\":18132:18134   */\n      0x20\n        /* \"#utility.yul\":18121:18130   */\n      dup3\n        /* \"#utility.yul\":18117:18135   */\n      add\n        /* \"#utility.yul\":18109:18135   */\n      swap1\n      pop\n        /* \"#utility.yul\":18181:18190   */\n      dup2\n        /* \"#utility.yul\":18175:18179   */\n      dup2\n        /* \"#utility.yul\":18171:18191   */\n      sub\n        /* \"#utility.yul\":18167:18168   */\n      0x00\n        /* \"#utility.yul\":18156:18165   */\n      dup4\n        /* \"#utility.yul\":18152:18169   */\n      add\n        /* \"#utility.yul\":18145:18192   */\n      mstore\n        /* \"#utility.yul\":18209:18340   */\n      tag_440\n        /* \"#utility.yul\":18335:18339   */\n      dup2\n        /* \"#utility.yul\":18209:18340   */\n      tag_237\n      jump\t// in\n    tag_440:\n        /* \"#utility.yul\":18201:18340   */\n      swap1\n      pop\n        /* \"#utility.yul\":17928:18347   */\n      swap2\n      swap1\n      pop\n      jump\t// out\n        /* \"#utility.yul\":18353:18584   */\n    tag_238:\n        /* \"#utility.yul\":18493:18527   */\n      0x73656e6420736f6d6520657468657220746f20636f6e7472696275746520696e\n        /* \"#utility.yul\":18489:18490   */\n      0x00\n        /* \"#utility.yul\":18481:18487   */\n      dup3\n        /* \"#utility.yul\":18477:18491   */\n      add\n        /* \"#utility.yul\":18470:18528   */\n      mstore\n        /* \"#utility.yul\":18562:18576   */\n      0x207468652070726f6a6563740000000000000000000000000000000000000000\n        /* \"#utility.yul\":18557:18559   */\n      0x20\n        /* \"#utility.yul\":18549:18555   */\n      dup3\n        /* \"#utility.yul\":18545:18560   */\n      add\n        /* \"#utility.yul\":18538:18577   */\n      mstore\n        /* \"#utility.yul\":18353:18584   */\n      pop\n      jump\t// out\n        /* \"#utility.yul\":18590:18956   */\n    tag_239:\n        /* \"#utility.yul\":18732:18735   */\n      0x00\n        /* \"#utility.yul\":18753:18820   */\n      tag_443\n        /* \"#utility.yul\":18817:18819   */\n      0x2c\n        /* \"#utility.yul\":18812:18815   */\n      dup4\n        /* \"#utility.yul\":18753:18820   */\n      tag_204\n      jump\t// in\n    tag_443:\n        /* \"#utility.yul\":18746:18820   */\n      swap2\n      pop\n        /* \"#utility.yul\":18829:18922   */\n      tag_444\n        /* \"#utility.yul\":18918:18921   */\n      dup3\n        /* \"#utility.yul\":18829:18922   */\n      tag_238\n      jump\t// in\n    tag_444:\n        /* \"#utility.yul\":18947:18949   */\n      0x40\n        /* \"#utility.yul\":18942:18945   */\n      dup3\n        /* \"#utility.yul\":18938:18950   */\n      add\n        /* \"#utility.yul\":18931:18950   */\n      swap1\n      pop\n        /* \"#utility.yul\":18590:18956   */\n      swap2\n      swap1\n      pop\n      jump\t// out\n        /* \"#utility.yul\":18962:19381   */\n    tag_140:\n        /* \"#utility.yul\":19128:19132   */\n      0x00\n        /* \"#utility.yul\":19166:19168   */\n      0x20\n        /* \"#utility.yul\":19155:19164   */\n      dup3\n        /* \"#utility.yul\":19151:19169   */\n      add\n        /* \"#utility.yul\":19143:19169   */\n      swap1\n      pop\n        /* \"#utility.yul\":19215:19224   */\n      dup2\n        /* \"#utility.yul\":19209:19213   */\n      dup2\n        /* \"#utility.yul\":19205:19225   */\n      sub\n        /* \"#utility.yul\":19201:19202   */\n      0x00\n        /* \"#utility.yul\":19190:19199   */\n      dup4\n        /* \"#utility.yul\":19186:19203   */\n      add\n        /* \"#utility.yul\":19179:19226   */\n      mstore\n        /* \"#utility.yul\":19243:19374   */\n      tag_446\n        /* \"#utility.yul\":19369:19373   */\n      dup2\n        /* \"#utility.yul\":19243:19374   */\n      tag_239\n      jump\t// in\n    tag_446:\n        /* \"#utility.yul\":19235:19374   */\n      swap1\n      pop\n        /* \"#utility.yul\":18962:19381   */\n      swap2\n      swap1\n      pop\n      jump\t// out\n        /* \"#utility.yul\":19387:19610   */\n    tag_240:\n        /* \"#utility.yul\":19527:19561   */\n      0x416d6f756e7420436f6e7472696275746564206973206d6f7265207468616e20\n        /* \"#utility.yul\":19523:19524   */\n      0x00\n        /* \"#utility.yul\":19515:19521   */\n      dup3\n        /* \"#utility.yul\":19511:19525   */\n      add\n        /* \"#utility.yul\":19504:19562   */\n      mstore\n        /* \"#utility.yul\":19596:19602   */\n      0x476f616c00000000000000000000000000000000000000000000000000000000\n        /* \"#utility.yul\":19591:19593   */\n      0x20\n        /* \"#utility.yul\":19583:19589   */\n      dup3\n        /* \"#utility.yul\":19579:19594   */\n      add\n        /* \"#utility.yul\":19572:19603   */\n      mstore\n        /* \"#utility.yul\":19387:19610   */\n      pop\n      jump\t// out\n        /* \"#utility.yul\":19616:19982   */\n    tag_241:\n        /* \"#utility.yul\":19758:19761   */\n      0x00\n        /* \"#utility.yul\":19779:19846   */\n      tag_449\n        /* \"#utility.yul\":19843:19845   */\n      0x24\n        /* \"#utility.yul\":19838:19841   */\n      dup4\n        /* \"#utility.yul\":19779:19846   */\n      tag_204\n      jump\t// in\n    tag_449:\n        /* \"#utility.yul\":19772:19846   */\n      swap2\n      pop\n        /* \"#utility.yul\":19855:19948   */\n      tag_450\n        /* \"#utility.yul\":19944:19947   */\n      dup3\n        /* \"#utility.yul\":19855:19948   */\n      tag_240\n      jump\t// in\n    tag_450:\n        /* \"#utility.yul\":19973:19975   */\n      0x40\n        /* \"#utility.yul\":19968:19971   */\n      dup3\n        /* \"#utility.yul\":19964:19976   */\n      add\n        /* \"#utility.yul\":19957:19976   */\n      swap1\n      pop\n        /* \"#utility.yul\":19616:19982   */\n      swap2\n      swap1\n      pop\n      jump\t// out\n        /* \"#utility.yul\":19988:20407   */\n    tag_143:\n        /* \"#utility.yul\":20154:20158   */\n      0x00\n        /* \"#utility.yul\":20192:20194   */\n      0x20\n        /* \"#utility.yul\":20181:20190   */\n      dup3\n        /* \"#utility.yul\":20177:20195   */\n      add\n        /* \"#utility.yul\":20169:20195   */\n      swap1\n      pop\n        /* \"#utility.yul\":20241:20250   */\n      dup2\n        /* \"#utility.yul\":20235:20239   */\n      dup2\n        /* \"#utility.yul\":20231:20251   */\n      sub\n        /* \"#utility.yul\":20227:20228   */\n      0x00\n        /* \"#utility.yul\":20216:20225   */\n      dup4\n        /* \"#utility.yul\":20212:20229   */\n      add\n        /* \"#utility.yul\":20205:20252   */\n      mstore\n        /* \"#utility.yul\":20269:20400   */\n      tag_452\n        /* \"#utility.yul\":20395:20399   */\n      dup2\n        /* \"#utility.yul\":20269:20400   */\n      tag_241\n      jump\t// in\n    tag_452:\n        /* \"#utility.yul\":20261:20400   */\n      swap1\n      pop\n        /* \"#utility.yul\":19988:20407   */\n      swap2\n      swap1\n      pop\n      jump\t// out\n        /* \"#utility.yul\":20413:20560   */\n    tag_242:\n        /* \"#utility.yul\":20514:20525   */\n      0x00\n        /* \"#utility.yul\":20551:20554   */\n      dup2\n        /* \"#utility.yul\":20536:20554   */\n      swap1\n      pop\n        /* \"#utility.yul\":20413:20560   */\n      swap3\n      swap2\n      pop\n      pop\n      jump\t// out\n        /* \"#utility.yul\":20566:20680   */\n    tag_243:\n      pop\n      jump\t// out\n        /* \"#utility.yul\":20686:21084   */\n    tag_244:\n        /* \"#utility.yul\":20845:20848   */\n      0x00\n        /* \"#utility.yul\":20866:20949   */\n      tag_456\n        /* \"#utility.yul\":20947:20948   */\n      0x00\n        /* \"#utility.yul\":20942:20945   */\n      dup4\n        /* \"#utility.yul\":20866:20949   */\n      tag_242\n      jump\t// in\n    tag_456:\n        /* \"#utility.yul\":20859:20949   */\n      swap2\n      pop\n        /* \"#utility.yul\":20958:21051   */\n      tag_457\n        /* \"#utility.yul\":21047:21050   */\n      dup3\n        /* \"#utility.yul\":20958:21051   */\n      tag_243\n      jump\t// in\n    tag_457:\n        /* \"#utility.yul\":21076:21077   */\n      0x00\n        /* \"#utility.yul\":21071:21074   */\n      dup3\n        /* \"#utility.yul\":21067:21078   */\n      add\n        /* \"#utility.yul\":21060:21078   */\n      swap1\n      pop\n        /* \"#utility.yul\":20686:21084   */\n      swap2\n      swap1\n      pop\n      jump\t// out\n        /* \"#utility.yul\":21090:21469   */\n    tag_152:\n        /* \"#utility.yul\":21274:21277   */\n      0x00\n        /* \"#utility.yul\":21296:21443   */\n      tag_459\n        /* \"#utility.yul\":21439:21442   */\n      dup3\n        /* \"#utility.yul\":21296:21443   */\n      tag_244\n      jump\t// in\n    tag_459:\n        /* \"#utility.yul\":21289:21443   */\n      swap2\n      pop\n        /* \"#utility.yul\":21460:21463   */\n      dup2\n        /* \"#utility.yul\":21453:21463   */\n      swap1\n      pop\n        /* \"#utility.yul\":21090:21469   */\n      swap2\n      swap1\n      pop\n      jump\t// out\n        /* \"#utility.yul\":21475:21638   */\n    tag_245:\n        /* \"#utility.yul\":21615:21630   */\n      0x526566756e64204661696c656400000000000000000000000000000000000000\n        /* \"#utility.yul\":21611:21612   */\n      0x00\n        /* \"#utility.yul\":21603:21609   */\n      dup3\n        /* \"#utility.yul\":21599:21613   */\n      add\n        /* \"#utility.yul\":21592:21631   */\n      mstore\n        /* \"#utility.yul\":21475:21638   */\n      pop\n      jump\t// out\n        /* \"#utility.yul\":21644:22010   */\n    tag_246:\n        /* \"#utility.yul\":21786:21789   */\n      0x00\n        /* \"#utility.yul\":21807:21874   */\n      tag_462\n        /* \"#utility.yul\":21871:21873   */\n      0x0d\n        /* \"#utility.yul\":21866:21869   */\n      dup4\n        /* \"#utility.yul\":21807:21874   */\n      tag_204\n      jump\t// in\n    tag_462:\n        /* \"#utility.yul\":21800:21874   */\n      swap2\n      pop\n        /* \"#utility.yul\":21883:21976   */\n      tag_463\n        /* \"#utility.yul\":21972:21975   */\n      dup3\n        /* \"#utility.yul\":21883:21976   */\n      tag_245\n      jump\t// in\n    tag_463:\n        /* \"#utility.yul\":22001:22003   */\n      0x20\n        /* \"#utility.yul\":21996:21999   */\n      dup3\n        /* \"#utility.yul\":21992:22004   */\n      add\n        /* \"#utility.yul\":21985:22004   */\n      swap1\n      pop\n        /* \"#utility.yul\":21644:22010   */\n      swap2\n      swap1\n      pop\n      jump\t// out\n        /* \"#utility.yul\":22016:22435   */\n    tag_158:\n        /* \"#utility.yul\":22182:22186   */\n      0x00\n        /* \"#utility.yul\":22220:22222   */\n      0x20\n        /* \"#utility.yul\":22209:22218   */\n      dup3\n        /* \"#utility.yul\":22205:22223   */\n      add\n        /* \"#utility.yul\":22197:22223   */\n      swap1\n      pop\n        /* \"#utility.yul\":22269:22278   */\n      dup2\n        /* \"#utility.yul\":22263:22267   */\n      dup2\n        /* \"#utility.yul\":22259:22279   */\n      sub\n        /* \"#utility.yul\":22255:22256   */\n      0x00\n        /* \"#utility.yul\":22244:22253   */\n      dup4\n        /* \"#utility.yul\":22240:22257   */\n      add\n        /* \"#utility.yul\":22233:22280   */\n      mstore\n        /* \"#utility.yul\":22297:22428   */\n      tag_465\n        /* \"#utility.yul\":22423:22427   */\n      dup2\n        /* \"#utility.yul\":22297:22428   */\n      tag_246\n      jump\t// in\n    tag_465:\n        /* \"#utility.yul\":22289:22428   */\n      swap1\n      pop\n        /* \"#utility.yul\":22016:22435   */\n      swap2\n      swap1\n      pop\n      jump\t// out\n        /* \"#utility.yul\":22441:22883   */\n    tag_160:\n        /* \"#utility.yul\":22590:22594   */\n      0x00\n        /* \"#utility.yul\":22628:22630   */\n      0x60\n        /* \"#utility.yul\":22617:22626   */\n      dup3\n        /* \"#utility.yul\":22613:22631   */\n      add\n        /* \"#utility.yul\":22605:22631   */\n      swap1\n      pop\n        /* \"#utility.yul\":22641:22712   */\n      tag_467\n        /* \"#utility.yul\":22709:22710   */\n      0x00\n        /* \"#utility.yul\":22698:22707   */\n      dup4\n        /* \"#utility.yul\":22694:22711   */\n      add\n        /* \"#utility.yul\":22685:22691   */\n      dup7\n        /* \"#utility.yul\":22641:22712   */\n      tag_202\n      jump\t// in\n    tag_467:\n        /* \"#utility.yul\":22722:22794   */\n      tag_468\n        /* \"#utility.yul\":22790:22792   */\n      0x20\n        /* \"#utility.yul\":22779:22788   */\n      dup4\n        /* \"#utility.yul\":22775:22793   */\n      add\n        /* \"#utility.yul\":22766:22772   */\n      dup6\n        /* \"#utility.yul\":22722:22794   */\n      tag_199\n      jump\t// in\n    tag_468:\n        /* \"#utility.yul\":22804:22876   */\n      tag_469\n        /* \"#utility.yul\":22872:22874   */\n      0x40\n        /* \"#utility.yul\":22861:22870   */\n      dup4\n        /* \"#utility.yul\":22857:22875   */\n      add\n        /* \"#utility.yul\":22848:22854   */\n      dup5\n        /* \"#utility.yul\":22804:22876   */\n      tag_199\n      jump\t// in\n    tag_469:\n        /* \"#utility.yul\":22441:22883   */\n      swap5\n      swap4\n      pop\n      pop\n      pop\n      pop\n      jump\t// out\n        /* \"#utility.yul\":22889:23127   */\n    tag_247:\n        /* \"#utility.yul\":23029:23063   */\n      0x66756e64696e6720676f616c20686173206e6f742072656163686564202c2061\n        /* \"#utility.yul\":23025:23026   */\n      0x00\n        /* \"#utility.yul\":23017:23023   */\n      dup3\n        /* \"#utility.yul\":23013:23027   */\n      add\n        /* \"#utility.yul\":23006:23064   */\n      mstore\n        /* \"#utility.yul\":23098:23119   */\n      0x646d696e2063616e277420776974686472617700000000000000000000000000\n        /* \"#utility.yul\":23093:23095   */\n      0x20\n        /* \"#utility.yul\":23085:23091   */\n      dup3\n        /* \"#utility.yul\":23081:23096   */\n      add\n        /* \"#utility.yul\":23074:23120   */\n      mstore\n        /* \"#utility.yul\":22889:23127   */\n      pop\n      jump\t// out\n        /* \"#utility.yul\":23133:23499   */\n    tag_248:\n        /* \"#utility.yul\":23275:23278   */\n      0x00\n        /* \"#utility.yul\":23296:23363   */\n      tag_472\n        /* \"#utility.yul\":23360:23362   */\n      0x33\n        /* \"#utility.yul\":23355:23358   */\n      dup4\n        /* \"#utility.yul\":23296:23363   */\n      tag_204\n      jump\t// in\n    tag_472:\n        /* \"#utility.yul\":23289:23363   */\n      swap2\n      pop\n        /* \"#utility.yul\":23372:23465   */\n      tag_473\n        /* \"#utility.yul\":23461:23464   */\n      dup3\n        /* \"#utility.yul\":23372:23465   */\n      tag_247\n      jump\t// in\n    tag_473:\n        /* \"#utility.yul\":23490:23492   */\n      0x40\n        /* \"#utility.yul\":23485:23488   */\n      dup3\n        /* \"#utility.yul\":23481:23493   */\n      add\n        /* \"#utility.yul\":23474:23493   */\n      swap1\n      pop\n        /* \"#utility.yul\":23133:23499   */\n      swap2\n      swap1\n      pop\n      jump\t// out\n        /* \"#utility.yul\":23505:23924   */\n    tag_167:\n        /* \"#utility.yul\":23671:23675   */\n      0x00\n        /* \"#utility.yul\":23709:23711   */\n      0x20\n        /* \"#utility.yul\":23698:23707   */\n      dup3\n        /* \"#utility.yul\":23694:23712   */\n      add\n        /* \"#utility.yul\":23686:23712   */\n      swap1\n      pop\n        /* \"#utility.yul\":23758:23767   */\n      dup2\n        /* \"#utility.yul\":23752:23756   */\n      dup2\n        /* \"#utility.yul\":23748:23768   */\n      sub\n        /* \"#utility.yul\":23744:23745   */\n      0x00\n        /* \"#utility.yul\":23733:23742   */\n      dup4\n        /* \"#utility.yul\":23729:23746   */\n      add\n        /* \"#utility.yul\":23722:23769   */\n      mstore\n        /* \"#utility.yul\":23786:23917   */\n      tag_475\n        /* \"#utility.yul\":23912:23916   */\n      dup2\n        /* \"#utility.yul\":23786:23917   */\n      tag_248\n      jump\t// in\n    tag_475:\n        /* \"#utility.yul\":23778:23917   */\n      swap1\n      pop\n        /* \"#utility.yul\":23505:23924   */\n      swap2\n      swap1\n      pop\n      jump\t// out\n        /* \"#utility.yul\":23930:24103   */\n    tag_249:\n        /* \"#utility.yul\":24070:24095   */\n      0x6f6e6c792061646d696e2063616e207769746864726177000000000000000000\n        /* \"#utility.yul\":24066:24067   */\n      0x00\n        /* \"#utility.yul\":24058:24064   */\n      dup3\n        /* \"#utility.yul\":24054:24068   */\n      add\n        /* \"#utility.yul\":24047:24096   */\n      mstore\n        /* \"#utility.yul\":23930:24103   */\n      pop\n      jump\t// out\n        /* \"#utility.yul\":24109:24475   */\n    tag_250:\n        /* \"#utility.yul\":24251:24254   */\n      0x00\n        /* \"#utility.yul\":24272:24339   */\n      tag_478\n        /* \"#utility.yul\":24336:24338   */\n      0x17\n        /* \"#utility.yul\":24331:24334   */\n      dup4\n        /* \"#utility.yul\":24272:24339   */\n      tag_204\n      jump\t// in\n    tag_478:\n        /* \"#utility.yul\":24265:24339   */\n      swap2\n      pop\n        /* \"#utility.yul\":24348:24441   */\n      tag_479\n        /* \"#utility.yul\":24437:24440   */\n      dup3\n        /* \"#utility.yul\":24348:24441   */\n      tag_249\n      jump\t// in\n    tag_479:\n        /* \"#utility.yul\":24466:24468   */\n      0x20\n        /* \"#utility.yul\":24461:24464   */\n      dup3\n        /* \"#utility.yul\":24457:24469   */\n      add\n        /* \"#utility.yul\":24450:24469   */\n      swap1\n      pop\n        /* \"#utility.yul\":24109:24475   */\n      swap2\n      swap1\n      pop\n      jump\t// out\n        /* \"#utility.yul\":24481:24900   */\n    tag_170:\n        /* \"#utility.yul\":24647:24651   */\n      0x00\n        /* \"#utility.yul\":24685:24687   */\n      0x20\n        /* \"#utility.yul\":24674:24683   */\n      dup3\n        /* \"#utility.yul\":24670:24688   */\n      add\n        /* \"#utility.yul\":24662:24688   */\n      swap1\n      pop\n        /* \"#utility.yul\":24734:24743   */\n      dup2\n        /* \"#utility.yul\":24728:24732   */\n      dup2\n        /* \"#utility.yul\":24724:24744   */\n      sub\n        /* \"#utility.yul\":24720:24721   */\n      0x00\n        /* \"#utility.yul\":24709:24718   */\n      dup4\n        /* \"#utility.yul\":24705:24722   */\n      add\n        /* \"#utility.yul\":24698:24745   */\n      mstore\n        /* \"#utility.yul\":24762:24893   */\n      tag_481\n        /* \"#utility.yul\":24888:24892   */\n      dup2\n        /* \"#utility.yul\":24762:24893   */\n      tag_250\n      jump\t// in\n    tag_481:\n        /* \"#utility.yul\":24754:24893   */\n      swap1\n      pop\n        /* \"#utility.yul\":24481:24900   */\n      swap2\n      swap1\n      pop\n      jump\t// out\n        /* \"#utility.yul\":24906:25140   */\n    tag_251:\n        /* \"#utility.yul\":25046:25080   */\n      0x646561646c696e6520686173206e6f742072656163686564202c2061646d696e\n        /* \"#utility.yul\":25042:25043   */\n      0x00\n        /* \"#utility.yul\":25034:25040   */\n      dup3\n        /* \"#utility.yul\":25030:25044   */\n      add\n        /* \"#utility.yul\":25023:25081   */\n      mstore\n        /* \"#utility.yul\":25115:25132   */\n      0x2063616e27742077697468647261770000000000000000000000000000000000\n        /* \"#utility.yul\":25110:25112   */\n      0x20\n        /* \"#utility.yul\":25102:25108   */\n      dup3\n        /* \"#utility.yul\":25098:25113   */\n      add\n        /* \"#utility.yul\":25091:25133   */\n      mstore\n        /* \"#utility.yul\":24906:25140   */\n      pop\n      jump\t// out\n        /* \"#utility.yul\":25146:25512   */\n    tag_252:\n        /* \"#utility.yul\":25288:25291   */\n      0x00\n        /* \"#utility.yul\":25309:25376   */\n      tag_484\n        /* \"#utility.yul\":25373:25375   */\n      0x2f\n        /* \"#utility.yul\":25368:25371   */\n      dup4\n        /* \"#utility.yul\":25309:25376   */\n      tag_204\n      jump\t// in\n    tag_484:\n        /* \"#utility.yul\":25302:25376   */\n      swap2\n      pop\n        /* \"#utility.yul\":25385:25478   */\n      tag_485\n        /* \"#utility.yul\":25474:25477   */\n      dup3\n        /* \"#utility.yul\":25385:25478   */\n      tag_251\n      jump\t// in\n    tag_485:\n        /* \"#utility.yul\":25503:25505   */\n      0x40\n        /* \"#utility.yul\":25498:25501   */\n      dup3\n        /* \"#utility.yul\":25494:25506   */\n      add\n        /* \"#utility.yul\":25487:25506   */\n      swap1\n      pop\n        /* \"#utility.yul\":25146:25512   */\n      swap2\n      swap1\n      pop\n      jump\t// out\n        /* \"#utility.yul\":25518:25937   */\n    tag_173:\n        /* \"#utility.yul\":25684:25688   */\n      0x00\n        /* \"#utility.yul\":25722:25724   */\n      0x20\n        /* \"#utility.yul\":25711:25720   */\n      dup3\n        /* \"#utility.yul\":25707:25725   */\n      add\n        /* \"#utility.yul\":25699:25725   */\n      swap1\n      pop\n        /* \"#utility.yul\":25771:25780   */\n      dup2\n        /* \"#utility.yul\":25765:25769   */\n      dup2\n        /* \"#utility.yul\":25761:25781   */\n      sub\n        /* \"#utility.yul\":25757:25758   */\n      0x00\n        /* \"#utility.yul\":25746:25755   */\n      dup4\n        /* \"#utility.yul\":25742:25759   */\n      add\n        /* \"#utility.yul\":25735:25782   */\n      mstore\n        /* \"#utility.yul\":25799:25930   */\n      tag_487\n        /* \"#utility.yul\":25925:25929   */\n      dup2\n        /* \"#utility.yul\":25799:25930   */\n      tag_252\n      jump\t// in\n    tag_487:\n        /* \"#utility.yul\":25791:25930   */\n      swap1\n      pop\n        /* \"#utility.yul\":25518:25937   */\n      swap2\n      swap1\n      pop\n      jump\t// out\n        /* \"#utility.yul\":25943:26122   */\n    tag_253:\n        /* \"#utility.yul\":26083:26114   */\n      0x50726f6a65637420494420697320616c726561647920696e2075736521000000\n        /* \"#utility.yul\":26079:26080   */\n      0x00\n        /* \"#utility.yul\":26071:26077   */\n      dup3\n        /* \"#utility.yul\":26067:26081   */\n      add\n        /* \"#utility.yul\":26060:26115   */\n      mstore\n        /* \"#utility.yul\":25943:26122   */\n      pop\n      jump\t// out\n        /* \"#utility.yul\":26128:26494   */\n    tag_254:\n        /* \"#utility.yul\":26270:26273   */\n      0x00\n        /* \"#utility.yul\":26291:26358   */\n      tag_490\n        /* \"#utility.yul\":26355:26357   */\n      0x1d\n        /* \"#utility.yul\":26350:26353   */\n      dup4\n        /* \"#utility.yul\":26291:26358   */\n      tag_204\n      jump\t// in\n    tag_490:\n        /* \"#utility.yul\":26284:26358   */\n      swap2\n      pop\n        /* \"#utility.yul\":26367:26460   */\n      tag_491\n        /* \"#utility.yul\":26456:26459   */\n      dup3\n        /* \"#utility.yul\":26367:26460   */\n      tag_253\n      jump\t// in\n    tag_491:\n        /* \"#utility.yul\":26485:26487   */\n      0x20\n        /* \"#utility.yul\":26480:26483   */\n      dup3\n        /* \"#utility.yul\":26476:26488   */\n      add\n        /* \"#utility.yul\":26469:26488   */\n      swap1\n      pop\n        /* \"#utility.yul\":26128:26494   */\n      swap2\n      swap1\n      pop\n      jump\t// out\n        /* \"#utility.yul\":26500:26919   */\n    tag_180:\n        /* \"#utility.yul\":26666:26670   */\n      0x00\n        /* \"#utility.yul\":26704:26706   */\n      0x20\n        /* \"#utility.yul\":26693:26702   */\n      dup3\n        /* \"#utility.yul\":26689:26707   */\n      add\n        /* \"#utility.yul\":26681:26707   */\n      swap1\n      pop\n        /* \"#utility.yul\":26753:26762   */\n      dup2\n        /* \"#utility.yul\":26747:26751   */\n      dup2\n        /* \"#utility.yul\":26743:26763   */\n      sub\n        /* \"#utility.yul\":26739:26740   */\n      0x00\n        /* \"#utility.yul\":26728:26737   */\n      dup4\n        /* \"#utility.yul\":26724:26741   */\n      add\n        /* \"#utility.yul\":26717:26764   */\n      mstore\n        /* \"#utility.yul\":26781:26912   */\n      tag_493\n        /* \"#utility.yul\":26907:26911   */\n      dup2\n        /* \"#utility.yul\":26781:26912   */\n      tag_254\n      jump\t// in\n    tag_493:\n        /* \"#utility.yul\":26773:26912   */\n      swap1\n      pop\n        /* \"#utility.yul\":26500:26919   */\n      swap2\n      swap1\n      pop\n      jump\t// out\n        /* \"#utility.yul\":26925:27066   */\n    tag_255:\n        /* \"#utility.yul\":26974:26978   */\n      0x00\n        /* \"#utility.yul\":26997:27000   */\n      dup2\n        /* \"#utility.yul\":26989:27000   */\n      swap1\n      pop\n        /* \"#utility.yul\":27020:27023   */\n      dup2\n        /* \"#utility.yul\":27017:27018   */\n      0x00\n        /* \"#utility.yul\":27010:27024   */\n      mstore\n        /* \"#utility.yul\":27054:27058   */\n      0x20\n        /* \"#utility.yul\":27051:27052   */\n      0x00\n        /* \"#utility.yul\":27041:27059   */\n      keccak256\n        /* \"#utility.yul\":27033:27059   */\n      swap1\n      pop\n        /* \"#utility.yul\":26925:27066   */\n      swap2\n      swap1\n      pop\n      jump\t// out\n        /* \"#utility.yul\":27072:27165   */\n    tag_256:\n        /* \"#utility.yul\":27109:27115   */\n      0x00\n        /* \"#utility.yul\":27156:27158   */\n      0x20\n        /* \"#utility.yul\":27151:27153   */\n      0x1f\n        /* \"#utility.yul\":27144:27149   */\n      dup4\n        /* \"#utility.yul\":27140:27154   */\n      add\n        /* \"#utility.yul\":27136:27159   */\n      div\n        /* \"#utility.yul\":27126:27159   */\n      swap1\n      pop\n        /* \"#utility.yul\":27072:27165   */\n      swap2\n      swap1\n      pop\n      jump\t// out\n        /* \"#utility.yul\":27171:27278   */\n    tag_257:\n        /* \"#utility.yul\":27215:27223   */\n      0x00\n        /* \"#utility.yul\":27265:27270   */\n      dup3\n        /* \"#utility.yul\":27259:27263   */\n      dup3\n        /* \"#utility.yul\":27255:27271   */\n      shl\n        /* \"#utility.yul\":27234:27271   */\n      swap1\n      pop\n        /* \"#utility.yul\":27171:27278   */\n      swap3\n      swap2\n      pop\n      pop\n      jump\t// out\n        /* \"#utility.yul\":27284:27677   */\n    tag_258:\n        /* \"#utility.yul\":27353:27359   */\n      0x00\n        /* \"#utility.yul\":27403:27404   */\n      0x08\n        /* \"#utility.yul\":27391:27401   */\n      dup4\n        /* \"#utility.yul\":27387:27405   */\n      mul\n        /* \"#utility.yul\":27426:27523   */\n      tag_498\n        /* \"#utility.yul\":27456:27522   */\n      0xffffffffffffffffffffffffffffffffffffffffffffffffffffffffffffffff\n        /* \"#utility.yul\":27445:27454   */\n      dup3\n        /* \"#utility.yul\":27426:27523   */\n      tag_257\n      jump\t// in\n    tag_498:\n        /* \"#utility.yul\":27544:27583   */\n      tag_499\n        /* \"#utility.yul\":27574:27582   */\n      dup7\n        /* \"#utility.yul\":27563:27572   */\n      dup4\n        /* \"#utility.yul\":27544:27583   */\n      tag_257\n      jump\t// in\n    tag_499:\n        /* \"#utility.yul\":27532:27583   */\n      swap6\n      pop\n        /* \"#utility.yul\":27616:27620   */\n      dup1\n        /* \"#utility.yul\":27612:27621   */\n      not\n        /* \"#utility.yul\":27605:27610   */\n      dup5\n        /* \"#utility.yul\":27601:27622   */\n      and\n        /* \"#utility.yul\":27592:27622   */\n      swap4\n      pop\n        /* \"#utility.yul\":27665:27669   */\n      dup1\n        /* \"#utility.yul\":27655:27663   */\n      dup7\n        /* \"#utility.yul\":27651:27670   */\n      and\n        /* \"#utility.yul\":27644:27649   */\n      dup5\n        /* \"#utility.yul\":27641:27671   */\n      or\n        /* \"#utility.yul\":27631:27671   */\n      swap3\n      pop\n        /* \"#utility.yul\":27360:27677   */\n      pop\n      pop\n        /* \"#utility.yul\":27284:27677   */\n      swap4\n      swap3\n      pop\n      pop\n      pop\n      jump\t// out\n        /* \"#utility.yul\":27683:27743   */\n    tag_259:\n        /* \"#utility.yul\":27711:27714   */\n      0x00\n        /* \"#utility.yul\":27732:27737   */\n      dup2\n        /* \"#utility.yul\":27725:27737   */\n      swap1\n      pop\n        /* \"#utility.yul\":27683:27743   */\n      swap2\n      swap1\n      pop\n      jump\t// out\n        /* \"#utility.yul\":27749:27891   */\n    tag_260:\n        /* \"#utility.yul\":27799:27808   */\n      0x00\n        /* \"#utility.yul\":27832:27885   */\n      tag_502\n        /* \"#utility.yul\":27850:27884   */\n      tag_503\n        /* \"#utility.yul\":27859:27883   */\n      tag_504\n        /* \"#utility.yul\":27877:27882   */\n      dup5\n        /* \"#utility.yul\":27859:27883   */\n      tag_196\n      jump\t// in\n    tag_504:\n        /* \"#utility.yul\":27850:27884   */\n      tag_259\n      jump\t// in\n    tag_503:\n        /* \"#utility.yul\":27832:27885   */\n      tag_196\n      jump\t// in\n    tag_502:\n        /* \"#utility.yul\":27819:27885   */\n      swap1\n      pop\n        /* \"#utility.yul\":27749:27891   */\n      swap2\n      swap1\n      pop\n      jump\t// out\n        /* \"#utility.yul\":27897:27972   */\n    tag_261:\n        /* \"#utility.yul\":27940:27943   */\n      0x00\n        /* \"#utility.yul\":27961:27966   */\n      dup2\n        /* \"#utility.yul\":27954:27966   */\n      swap1\n      pop\n        /* \"#utility.yul\":27897:27972   */\n      swap2\n      swap1\n      pop\n      jump\t// out\n        /* \"#utility.yul\":27978:28247   */\n    tag_262:\n        /* \"#utility.yul\":28088:28127   */\n      tag_507\n        /* \"#utility.yul\":28119:28126   */\n      dup4\n        /* \"#utility.yul\":28088:28127   */\n      tag_260\n      jump\t// in\n    tag_507:\n        /* \"#utility.yul\":28149:28240   */\n      tag_508\n        /* \"#utility.yul\":28198:28239   */\n      tag_509\n        /* \"#utility.yul\":28222:28238   */\n      dup3\n        /* \"#utility.yul\":28198:28239   */\n      tag_261\n      jump\t// in\n    tag_509:\n        /* \"#utility.yul\":28190:28196   */\n      dup5\n        /* \"#utility.yul\":28183:28187   */\n      dup5\n        /* \"#utility.yul\":28177:28188   */\n      sload\n        /* \"#utility.yul\":28149:28240   */\n      tag_258\n      jump\t// in\n    tag_508:\n        /* \"#utility.yul\":28143:28147   */\n      dup3\n        /* \"#utility.yul\":28136:28241   */\n      sstore\n        /* \"#utility.yul\":28054:28247   */\n      pop\n        /* \"#utility.yul\":27978:28247   */\n      pop\n      pop\n      pop\n      jump\t// out\n        /* \"#utility.yul\":28253:28326   */\n    tag_263:\n        /* \"#utility.yul\":28298:28301   */\n      0x00\n        /* \"#utility.yul\":28319:28320   */\n      0x00\n        /* \"#utility.yul\":28312:28320   */\n      swap1\n      pop\n        /* \"#utility.yul\":28253:28326   */\n      swap1\n      jump\t// out\n        /* \"#utility.yul\":28332:28521   */\n    tag_264:\n        /* \"#utility.yul\":28409:28441   */\n      tag_512\n      tag_263\n      jump\t// in\n    tag_512:\n        /* \"#utility.yul\":28450:28515   */\n      tag_513\n        /* \"#utility.yul\":28508:28514   */\n      dup2\n        /* \"#utility.yul\":28500:28506   */\n      dup5\n        /* \"#utility.yul\":28494:28498   */\n      dup5\n        /* \"#utility.yul\":28450:28515   */\n      tag_262\n      jump\t// in\n    tag_513:\n        /* \"#utility.yul\":28385:28521   */\n      pop\n        /* \"#utility.yul\":28332:28521   */\n      pop\n      pop\n      jump\t// out\n        /* \"#utility.yul\":28527:28713   */\n    tag_265:\n        /* \"#utility.yul\":28587:28707   */\n    tag_515:\n        /* \"#utility.yul\":28604:28607   */\n      dup2\n        /* \"#utility.yul\":28597:28602   */\n      dup2\n        /* \"#utility.yul\":28594:28608   */\n      lt\n        /* \"#utility.yul\":28587:28707   */\n      iszero\n      tag_517\n      jumpi\n        /* \"#utility.yul\":28658:28697   */\n      tag_518\n        /* \"#utility.yul\":28695:28696   */\n      0x00\n        /* \"#utility.yul\":28688:28693   */\n      dup3\n        /* \"#utility.yul\":28658:28697   */\n      tag_264\n      jump\t// in\n    tag_518:\n        /* \"#utility.yul\":28631:28632   */\n      0x01\n        /* \"#utility.yul\":28624:28629   */\n      dup2\n        /* \"#utility.yul\":28620:28633   */\n      add\n        /* \"#utility.yul\":28611:28633   */\n      swap1\n      pop\n        /* \"#utility.yul\":28587:28707   */\n      jump(tag_515)\n    tag_517:\n        /* \"#utility.yul\":28527:28713   */\n      pop\n      pop\n      jump\t// out\n        /* \"#utility.yul\":28719:29262   */\n    tag_266:\n        /* \"#utility.yul\":28820:28822   */\n      0x1f\n        /* \"#utility.yul\":28815:28818   */\n      dup3\n        /* \"#utility.yul\":28812:28823   */\n      gt\n        /* \"#utility.yul\":28809:29255   */\n      iszero\n      tag_520\n      jumpi\n        /* \"#utility.yul\":28854:28892   */\n      tag_521\n        /* \"#utility.yul\":28886:28891   */\n      dup2\n        /* \"#utility.yul\":28854:28892   */\n      tag_255\n      jump\t// in\n    tag_521:\n        /* \"#utility.yul\":28938:28967   */\n      tag_522\n        /* \"#utility.yul\":28956:28966   */\n      dup5\n        /* \"#utility.yul\":28938:28967   */\n      tag_256\n      jump\t// in\n    tag_522:\n        /* \"#utility.yul\":28928:28936   */\n      dup2\n        /* \"#utility.yul\":28924:28968   */\n      add\n        /* \"#utility.yul\":29121:29123   */\n      0x20\n        /* \"#utility.yul\":29109:29119   */\n      dup6\n        /* \"#utility.yul\":29106:29124   */\n      lt\n        /* \"#utility.yul\":29103:29152   */\n      iszero\n      tag_523\n      jumpi\n        /* \"#utility.yul\":29142:29150   */\n      dup2\n        /* \"#utility.yul\":29127:29150   */\n      swap1\n      pop\n        /* \"#utility.yul\":29103:29152   */\n    tag_523:\n        /* \"#utility.yul\":29165:29245   */\n      tag_524\n        /* \"#utility.yul\":29221:29243   */\n      tag_525\n        /* \"#utility.yul\":29239:29242   */\n      dup6\n        /* \"#utility.yul\":29221:29243   */\n      tag_256\n      jump\t// in\n    tag_525:\n        /* \"#utility.yul\":29211:29219   */\n      dup4\n        /* \"#utility.yul\":29207:29244   */\n      add\n        /* \"#utility.yul\":29194:29205   */\n      dup3\n        /* \"#utility.yul\":29165:29245   */\n      tag_265\n      jump\t// in\n    tag_524:\n        /* \"#utility.yul\":28824:29255   */\n      pop\n      pop\n        /* \"#utility.yul\":28809:29255   */\n    tag_520:\n        /* \"#utility.yul\":28719:29262   */\n      pop\n      pop\n      pop\n      jump\t// out\n        /* \"#utility.yul\":29268:29385   */\n    tag_267:\n        /* \"#utility.yul\":29322:29330   */\n      0x00\n        /* \"#utility.yul\":29372:29377   */\n      dup3\n        /* \"#utility.yul\":29366:29370   */\n      dup3\n        /* \"#utility.yul\":29362:29378   */\n      shr\n        /* \"#utility.yul\":29341:29378   */\n      swap1\n      pop\n        /* \"#utility.yul\":29268:29385   */\n      swap3\n      swap2\n      pop\n      pop\n      jump\t// out\n        /* \"#utility.yul\":29391:29560   */\n    tag_268:\n        /* \"#utility.yul\":29435:29441   */\n      0x00\n        /* \"#utility.yul\":29468:29519   */\n      tag_528\n        /* \"#utility.yul\":29516:29517   */\n      0x00\n        /* \"#utility.yul\":29512:29518   */\n      not\n        /* \"#utility.yul\":29504:29509   */\n      dup5\n        /* \"#utility.yul\":29501:29502   */\n      0x08\n        /* \"#utility.yul\":29497:29510   */\n      mul\n        /* \"#utility.yul\":29468:29519   */\n      tag_267\n      jump\t// in\n    tag_528:\n        /* \"#utility.yul\":29464:29520   */\n      not\n        /* \"#utility.yul\":29549:29553   */\n      dup1\n        /* \"#utility.yul\":29543:29547   */\n      dup4\n        /* \"#utility.yul\":29539:29554   */\n      and\n        /* \"#utility.yul\":29529:29554   */\n      swap2\n      pop\n        /* \"#utility.yul\":29442:29560   */\n      pop\n        /* \"#utility.yul\":29391:29560   */\n      swap3\n      swap2\n      pop\n      pop\n      jump\t// out\n        /* \"#utility.yul\":29565:29860   */\n    tag_269:\n        /* \"#utility.yul\":29641:29645   */\n      0x00\n        /* \"#utility.yul\":29787:29816   */\n      tag_530\n        /* \"#utility.yul\":29812:29815   */\n      dup4\n        /* \"#utility.yul\":29806:29810   */\n      dup4\n        /* \"#utility.yul\":29787:29816   */\n      tag_268\n      jump\t// in\n    tag_530:\n        /* \"#utility.yul\":29779:29816   */\n      swap2\n      pop\n        /* \"#utility.yul\":29849:29852   */\n      dup3\n        /* \"#utility.yul\":29846:29847   */\n      0x02\n        /* \"#utility.yul\":29842:29853   */\n      mul\n        /* \"#utility.yul\":29836:29840   */\n      dup3\n        /* \"#utility.yul\":29833:29854   */\n      or\n        /* \"#utility.yul\":29825:29854   */\n      swap1\n      pop\n        /* \"#utility.yul\":29565:29860   */\n      swap3\n      swap2\n      pop\n      pop\n      jump\t// out\n        /* \"#utility.yul\":29865:31260   */\n    tag_183:\n        /* \"#utility.yul\":29982:30019   */\n      tag_532\n        /* \"#utility.yul\":30015:30018   */\n      dup3\n        /* \"#utility.yul\":29982:30019   */\n      tag_203\n      jump\t// in\n    tag_532:\n        /* \"#utility.yul\":30084:30102   */\n      0xffffffffffffffff\n        /* \"#utility.yul\":30076:30082   */\n      dup2\n        /* \"#utility.yul\":30073:30103   */\n      gt\n        /* \"#utility.yul\":30070:30126   */\n      iszero\n      tag_533\n      jumpi\n        /* \"#utility.yul\":30106:30124   */\n      tag_534\n      tag_214\n      jump\t// in\n    tag_534:\n        /* \"#utility.yul\":30070:30126   */\n    tag_533:\n        /* \"#utility.yul\":30150:30188   */\n      tag_535\n        /* \"#utility.yul\":30182:30186   */\n      dup3\n        /* \"#utility.yul\":30176:30187   */\n      sload\n        /* \"#utility.yul\":30150:30188   */\n      tag_94\n      jump\t// in\n    tag_535:\n        /* \"#utility.yul\":30235:30302   */\n      tag_536\n        /* \"#utility.yul\":30295:30301   */\n      dup3\n        /* \"#utility.yul\":30287:30293   */\n      dup3\n        /* \"#utility.yul\":30281:30285   */\n      dup6\n        /* \"#utility.yul\":30235:30302   */\n      tag_266\n      jump\t// in\n    tag_536:\n        /* \"#utility.yul\":30329:30330   */\n      0x00\n        /* \"#utility.yul\":30353:30357   */\n      0x20\n        /* \"#utility.yul\":30340:30357   */\n      swap1\n      pop\n        /* \"#utility.yul\":30385:30387   */\n      0x1f\n        /* \"#utility.yul\":30377:30383   */\n      dup4\n        /* \"#utility.yul\":30374:30388   */\n      gt\n        /* \"#utility.yul\":30402:30403   */\n      0x01\n        /* \"#utility.yul\":30397:31015   */\n      dup2\n      eq\n      tag_538\n      jumpi\n        /* \"#utility.yul\":31059:31060   */\n      0x00\n        /* \"#utility.yul\":31076:31082   */\n      dup5\n        /* \"#utility.yul\":31073:31150   */\n      iszero\n      tag_539\n      jumpi\n        /* \"#utility.yul\":31125:31134   */\n      dup3\n        /* \"#utility.yul\":31120:31123   */\n      dup8\n        /* \"#utility.yul\":31116:31135   */\n      add\n        /* \"#utility.yul\":31110:31136   */\n      mload\n        /* \"#utility.yul\":31101:31136   */\n      swap1\n      pop\n        /* \"#utility.yul\":31073:31150   */\n    tag_539:\n        /* \"#utility.yul\":31176:31243   */\n      tag_540\n        /* \"#utility.yul\":31236:31242   */\n      dup6\n        /* \"#utility.yul\":31229:31234   */\n      dup3\n        /* \"#utility.yul\":31176:31243   */\n      tag_269\n      jump\t// in\n    tag_540:\n        /* \"#utility.yul\":31170:31174   */\n      dup7\n        /* \"#utility.yul\":31163:31244   */\n      sstore\n        /* \"#utility.yul\":31032:31254   */\n      pop\n        /* \"#utility.yul\":30367:31254   */\n      jump(tag_537)\n        /* \"#utility.yul\":30397:31015   */\n    tag_538:\n        /* \"#utility.yul\":30449:30453   */\n      0x1f\n        /* \"#utility.yul\":30445:30454   */\n      not\n        /* \"#utility.yul\":30437:30443   */\n      dup5\n        /* \"#utility.yul\":30433:30455   */\n      and\n        /* \"#utility.yul\":30483:30520   */\n      tag_541\n        /* \"#utility.yul\":30515:30519   */\n      dup7\n        /* \"#utility.yul\":30483:30520   */\n      tag_255\n      jump\t// in\n    tag_541:\n        /* \"#utility.yul\":30542:30543   */\n      0x00\n        /* \"#utility.yul\":30556:30764   */\n    tag_542:\n        /* \"#utility.yul\":30570:30577   */\n      dup3\n        /* \"#utility.yul\":30567:30568   */\n      dup2\n        /* \"#utility.yul\":30564:30578   */\n      lt\n        /* \"#utility.yul\":30556:30764   */\n      iszero\n      tag_544\n      jumpi\n        /* \"#utility.yul\":30649:30658   */\n      dup5\n        /* \"#utility.yul\":30644:30647   */\n      dup10\n        /* \"#utility.yul\":30640:30659   */\n      add\n        /* \"#utility.yul\":30634:30660   */\n      mload\n        /* \"#utility.yul\":30626:30632   */\n      dup3\n        /* \"#utility.yul\":30619:30661   */\n      sstore\n        /* \"#utility.yul\":30700:30701   */\n      0x01\n        /* \"#utility.yul\":30692:30698   */\n      dup3\n        /* \"#utility.yul\":30688:30702   */\n      add\n        /* \"#utility.yul\":30678:30702   */\n      swap2\n      pop\n        /* \"#utility.yul\":30747:30749   */\n      0x20\n        /* \"#utility.yul\":30736:30745   */\n      dup6\n        /* \"#utility.yul\":30732:30750   */\n      add\n        /* \"#utility.yul\":30719:30750   */\n      swap5\n      pop\n        /* \"#utility.yul\":30593:30597   */\n      0x20\n        /* \"#utility.yul\":30590:30591   */\n      dup2\n        /* \"#utility.yul\":30586:30598   */\n      add\n        /* \"#utility.yul\":30581:30598   */\n      swap1\n      pop\n        /* \"#utility.yul\":30556:30764   */\n      jump(tag_542)\n    tag_544:\n        /* \"#utility.yul\":30792:30798   */\n      dup7\n        /* \"#utility.yul\":30783:30790   */\n      dup4\n        /* \"#utility.yul\":30780:30799   */\n      lt\n        /* \"#utility.yul\":30777:30956   */\n      iszero\n      tag_545\n      jumpi\n        /* \"#utility.yul\":30850:30859   */\n      dup5\n        /* \"#utility.yul\":30845:30848   */\n      dup10\n        /* \"#utility.yul\":30841:30860   */\n      add\n        /* \"#utility.yul\":30835:30861   */\n      mload\n        /* \"#utility.yul\":30893:30941   */\n      tag_546\n        /* \"#utility.yul\":30935:30939   */\n      0x1f\n        /* \"#utility.yul\":30927:30933   */\n      dup10\n        /* \"#utility.yul\":30923:30940   */\n      and\n        /* \"#utility.yul\":30912:30921   */\n      dup3\n        /* \"#utility.yul\":30893:30941   */\n      tag_268\n      jump\t// in\n    tag_546:\n        /* \"#utility.yul\":30885:30891   */\n      dup4\n        /* \"#utility.yul\":30878:30942   */\n      sstore\n        /* \"#utility.yul\":30800:30956   */\n      pop\n        /* \"#utility.yul\":30777:30956   */\n    tag_545:\n        /* \"#utility.yul\":31002:31003   */\n      0x01\n        /* \"#utility.yul\":30998:30999   */\n      0x02\n        /* \"#utility.yul\":30990:30996   */\n      dup9\n        /* \"#utility.yul\":30986:31000   */\n      mul\n        /* \"#utility.yul\":30982:31004   */\n      add\n        /* \"#utility.yul\":30976:30980   */\n      dup9\n        /* \"#utility.yul\":30969:31005   */\n      sstore\n        /* \"#utility.yul\":30404:31015   */\n      pop\n      pop\n      pop\n        /* \"#utility.yul\":30367:31254   */\n    tag_537:\n      pop\n        /* \"#utility.yul\":29957:31260   */\n      pop\n      pop\n      pop\n        /* \"#utility.yul\":29865:31260   */\n      pop\n      pop\n      jump\t// out\n        /* \"#utility.yul\":31266:31499   */\n    tag_186:\n        /* \"#utility.yul\":31305:31308   */\n      0x00\n        /* \"#utility.yul\":31328:31352   */\n      tag_548\n        /* \"#utility.yul\":31346:31351   */\n      dup3\n        /* \"#utility.yul\":31328:31352   */\n      tag_196\n      jump\t// in\n    tag_548:\n        /* \"#utility.yul\":31319:31352   */\n      swap2\n      pop\n        /* \"#utility.yul\":31374:31440   */\n      0xffffffffffffffffffffffffffffffffffffffffffffffffffffffffffffffff\n        /* \"#utility.yul\":31367:31372   */\n      dup3\n        /* \"#utility.yul\":31364:31441   */\n      sub\n        /* \"#utility.yul\":31361:31464   */\n      tag_549\n      jumpi\n        /* \"#utility.yul\":31444:31462   */\n      tag_550\n      tag_223\n      jump\t// in\n    tag_550:\n        /* \"#utility.yul\":31361:31464   */\n    tag_549:\n        /* \"#utility.yul\":31491:31492   */\n      0x01\n        /* \"#utility.yul\":31484:31489   */\n      dup3\n        /* \"#utility.yul\":31480:31493   */\n      add\n        /* \"#utility.yul\":31473:31493   */\n      swap1\n      pop\n        /* \"#utility.yul\":31266:31499   */\n      swap2\n      swap1\n      pop\n      jump\t// out\n        /* \"#utility.yul\":31505:32240   */\n    tag_189:\n        /* \"#utility.yul\":31722:31726   */\n      0x00\n        /* \"#utility.yul\":31760:31763   */\n      0x80\n        /* \"#utility.yul\":31749:31758   */\n      dup3\n        /* \"#utility.yul\":31745:31764   */\n      add\n        /* \"#utility.yul\":31737:31764   */\n      swap1\n      pop\n        /* \"#utility.yul\":31810:31819   */\n      dup2\n        /* \"#utility.yul\":31804:31808   */\n      dup2\n        /* \"#utility.yul\":31800:31820   */\n      sub\n        /* \"#utility.yul\":31796:31797   */\n      0x00\n        /* \"#utility.yul\":31785:31794   */\n      dup4\n        /* \"#utility.yul\":31781:31798   */\n      add\n        /* \"#utility.yul\":31774:31821   */\n      mstore\n        /* \"#utility.yul\":31838:31916   */\n      tag_552\n        /* \"#utility.yul\":31911:31915   */\n      dup2\n        /* \"#utility.yul\":31902:31908   */\n      dup8\n        /* \"#utility.yul\":31838:31916   */\n      tag_207\n      jump\t// in\n    tag_552:\n        /* \"#utility.yul\":31830:31916   */\n      swap1\n      pop\n        /* \"#utility.yul\":31963:31972   */\n      dup2\n        /* \"#utility.yul\":31957:31961   */\n      dup2\n        /* \"#utility.yul\":31953:31973   */\n      sub\n        /* \"#utility.yul\":31948:31950   */\n      0x20\n        /* \"#utility.yul\":31937:31946   */\n      dup4\n        /* \"#utility.yul\":31933:31951   */\n      add\n        /* \"#utility.yul\":31926:31974   */\n      mstore\n        /* \"#utility.yul\":31991:32069   */\n      tag_553\n        /* \"#utility.yul\":32064:32068   */\n      dup2\n        /* \"#utility.yul\":32055:32061   */\n      dup7\n        /* \"#utility.yul\":31991:32069   */\n      tag_207\n      jump\t// in\n    tag_553:\n        /* \"#utility.yul\":31983:32069   */\n      swap1\n      pop\n        /* \"#utility.yul\":32079:32151   */\n      tag_554\n        /* \"#utility.yul\":32147:32149   */\n      0x40\n        /* \"#utility.yul\":32136:32145   */\n      dup4\n        /* \"#utility.yul\":32132:32150   */\n      add\n        /* \"#utility.yul\":32123:32129   */\n      dup6\n        /* \"#utility.yul\":32079:32151   */\n      tag_199\n      jump\t// in\n    tag_554:\n        /* \"#utility.yul\":32161:32233   */\n      tag_555\n        /* \"#utility.yul\":32229:32231   */\n      0x60\n        /* \"#utility.yul\":32218:32227   */\n      dup4\n        /* \"#utility.yul\":32214:32232   */\n      add\n        /* \"#utility.yul\":32205:32211   */\n      dup5\n        /* \"#utility.yul\":32161:32233   */\n      tag_199\n      jump\t// in\n    tag_555:\n        /* \"#utility.yul\":31505:32240   */\n      swap6\n      swap5\n      pop\n      pop\n      pop\n      pop\n      pop\n      jump\t// out\n\n    auxdata: 0xa2646970667358221220c30389081a6c4b5fc05b3255d2c6b1a5bd30d5485c0a53d9747203d22094190864736f6c634300081e0033\n}\n",
				"bytecode": {
					"linkReferences": {},
					"object": "6080604052348015600e575f5ffd5b5060015f819055506121a0806100235f395ff3fe6080604052600436106100c1575f3560e01c806354a5bcc51161007e5780636c563abe116100585780636c563abe1461028e57806371eb89f3146102aa5780639ab761c7146102c6578063f81bf601146102f0576100c1565b806354a5bcc5146102005780635d4e5d781461022a578063629b264714610266576100c1565b80630dbac135146100c55780631392ebfe1461010257806321b2416c1461012a578063370c36b41461016c5780633b9056bf146101a857806342d844a5146101c4575b5f5ffd5b3480156100d0575f5ffd5b506100eb60048036038101906100e691906110a7565b610318565b6040516100f99291906110e1565b60405180910390f35b34801561010d575f5ffd5b5061012860048036038101906101239190611108565b6103f9565b005b348015610135575f5ffd5b50610150600480360381019061014b91906110a7565b6104f1565b604051610163979695949392919061120f565b60405180910390f35b348015610177575f5ffd5b50610192600480360381019061018d91906110a7565b610666565b60405161019f919061128a565b60405180910390f35b6101c260048036038101906101bd91906110a7565b6106a8565b005b3480156101cf575f5ffd5b506101ea60048036038101906101e591906110a7565b6107d9565b6040516101f7919061128a565b60405180910390f35b34801561020b575f5ffd5b5061021461081b565b604051610221919061128a565b60405180910390f35b348015610235575f5ffd5b50610250600480360381019061024b91906112cd565b610824565b60405161025d919061128a565b60405180910390f35b348015610271575f5ffd5b5061028c60048036038101906102879190611108565b610844565b005b6102a860048036038101906102a391906110a7565b610907565b005b6102c460048036038101906102bf91906110a7565b610c2e565b005b3480156102d1575f5ffd5b506102da610df4565b6040516102e7919061128a565b60405180910390f35b3480156102fb575f5ffd5b5061031660048036038101906103119190611437565b610dfa565b005b5f5f5f60035f8581526020019081526020015f209050806003015492505f73ffffffffffffffffffffffffffffffffffffffff16815f015f9054906101000a900473ffffffffffffffffffffffffffffffffffffffff1673ffffffffffffffffffffffffffffffffffffffff16036103c5576040517f08c379a00000000000000000000000000000000000000000000000000000000081526004016103bc90611556565b60405180910390fd5b80600301548160050154106103dc575f91506103f3565b806005015481600301546103f091906115a1565b91505b50915091565b5f60035f8481526020019081526020015f2090505f816004015411610453576040517f08c379a000000000000000000000000000000000000000000000000000000000815260040161044a90611644565b60405180910390fd5b3373ffffffffffffffffffffffffffffffffffffffff16815f015f9054906101000a900473ffffffffffffffffffffffffffffffffffffffff1673ffffffffffffffffffffffffffffffffffffffff16146104e3576040517f08c379a00000000000000000000000000000000000000000000000000000000081526004016104da906116f8565b60405180910390fd5b818160030181905550505050565b6003602052805f5260405f205f91509050805f015f9054906101000a900473ffffffffffffffffffffffffffffffffffffffff169080600101805461053590611743565b80601f016020809104026020016040519081016040528092919081815260200182805461056190611743565b80156105ac5780601f10610583576101008083540402835291602001916105ac565b820191905f5260205f20905b81548152906001019060200180831161058f57829003601f168201915b5050505050908060020180546105c190611743565b80601f01602080910402602001604051908101604052809291908181526020018280546105ed90611743565b80156106385780601f1061060f57610100808354040283529160200191610638565b820191905f5260205f20905b81548152906001019060200180831161061b57829003601f168201915b505050505090806003015490806004015490806005015490806006015f9054906101000a900460ff16905087565b5f5f60035f8481526020019081526020015f2090508060040154421061068f575f9150506106a3565b42816004015461069f91906115a1565b9150505b919050565b5f60035f8381526020019081526020015f2090508060030154816005015410610706576040517f08c379a00000000000000000000000000000000000000000000000000000000081526004016106fd906117e3565b60405180910390fd5b5f60045f8481526020019081526020015f205f3373ffffffffffffffffffffffffffffffffffffffff1673ffffffffffffffffffffffffffffffffffffffff1681526020019081526020015f205490503373ffffffffffffffffffffffffffffffffffffffff166108fc8290811502906040515f60405180830381858888f19350505050158015610799573d5f5f3e3d5ffd5b50827fb6e4e293b6c7c5cf68fbb52edfaca6173710fcccbcecac03c32e62327fc000c633346040516107cc929190611801565b60405180910390a2505050565b5f5f60035f8481526020019081526020015f2090505f8160030154606483600501546108059190611828565b61080f9190611896565b90508092505050919050565b5f600154905090565b6004602052815f5260405f20602052805f5260405f205f91509150505481565b5f60035f8481526020019081526020015f2090503373ffffffffffffffffffffffffffffffffffffffff16815f015f9054906101000a900473ffffffffffffffffffffffffffffffffffffffff1673ffffffffffffffffffffffffffffffffffffffff16146108e8576040517f08c379a00000000000000000000000000000000000000000000000000000000081526004016108df90611936565b60405180910390fd5b81816004015f8282546108fb9190611954565b92505081905550505050565b61090f611016565b5f60035f8381526020019081526020015f209050806004015442111561096a576040517f08c379a0000000000000000000000000000000000000000000000000000000008152600401610961906119d1565b60405180910390fd5b806006015f9054906101000a900460ff16156109bb576040517f08c379a00000000000000000000000000000000000000000000000000000000081526004016109b290611a5f565b60405180910390fd5b5f34116109fd576040517f08c379a00000000000000000000000000000000000000000000000000000000081526004016109f490611aed565b60405180910390fd5b8060030154341115610a44576040517f08c379a0000000000000000000000000000000000000000000000000000000008152600401610a3b90611b7b565b60405180910390fd5b5f81600501548260030154610a5991906115a1565b90505f5f82341115610a7b578291508234610a7491906115a1565b9050610a82565b3491505f90505b81846005015f828254610a959190611954565b925050819055508160045f8781526020019081526020015f205f3373ffffffffffffffffffffffffffffffffffffffff1673ffffffffffffffffffffffffffffffffffffffff1681526020019081526020015f20819055508160015f828254610afe9190611954565b925050819055505f811115610bb7575f3373ffffffffffffffffffffffffffffffffffffffff1682604051610b3290611bc6565b5f6040518083038185875af1925050503d805f8114610b6c576040519150601f19603f3d011682016040523d82523d5f602084013e610b71565b606091505b5050905080610bb5576040517f08c379a0000000000000000000000000000000000000000000000000000000008152600401610bac90611c24565b60405180910390fd5b505b847f7dd983e9d08b449d571f3583275e98423857f3ffbe9ef56f927eb02b1c8ab599338484604051610beb93929190611c42565b60405180910390a28360030154846005015410610c1f576001846006015f6101000a81548160ff0219169083151502179055505b50505050610c2b61105a565b50565b5f60035f8381526020019081526020015f2090505f81600501549050816006015f9054906101000a900460ff16610c9a576040517f08c379a0000000000000000000000000000000000000000000000000000000008152600401610c9190611ce7565b60405180910390fd5b3373ffffffffffffffffffffffffffffffffffffffff16825f015f9054906101000a900473ffffffffffffffffffffffffffffffffffffffff1673ffffffffffffffffffffffffffffffffffffffff1614610d2a576040517f08c379a0000000000000000000000000000000000000000000000000000000008152600401610d2190611d4f565b60405180910390fd5b4282600401541115610d71576040517f08c379a0000000000000000000000000000000000000000000000000000000008152600401610d6890611ddd565b60405180910390fd5b3373ffffffffffffffffffffffffffffffffffffffff166108fc8290811502906040515f60405180830381858888f19350505050158015610db4573d5f5f3e3d5ffd5b50827fcae030e1a3c6b0011e7009bd65734e2e1e330528f6983497631fabd47fa7a2813334604051610de7929190611801565b60405180910390a2505050565b60025481565b60055f8281526020019081526020015f205f9054906101000a900460ff1615610e58576040517f08c379a0000000000000000000000000000000000000000000000000000000008152600401610e4f90611e45565b60405180910390fd5b600160055f8381526020019081526020015f205f6101000a81548160ff0219169083151502179055506040518060e001604052803373ffffffffffffffffffffffffffffffffffffffff1681526020018681526020018581526020018481526020018342610ec69190611954565b81526020015f81526020015f151581525060035f8381526020019081526020015f205f820151815f015f6101000a81548173ffffffffffffffffffffffffffffffffffffffff021916908373ffffffffffffffffffffffffffffffffffffffff1602179055506020820151816001019081610f419190612003565b506040820151816002019081610f579190612003565b50606082015181600301556080820151816004015560a0820151816005015560c0820151816006015f6101000a81548160ff02191690831515021790555090505060025f815480929190610faa906120d2565b91905055503373ffffffffffffffffffffffffffffffffffffffff16817fac9b83534845c9e785a6ea70f2d809db1d72ef9a1d981753712d922f5cb55f398787878742610ff79190611954565b6040516110079493929190612119565b60405180910390a35050505050565b60025f5403611051576040517f3ee5aeb500000000000000000000000000000000000000000000000000000000815260040160405180910390fd5b60025f81905550565b60015f81905550565b5f604051905090565b5f5ffd5b5f5ffd5b5f819050919050565b61108681611074565b8114611090575f5ffd5b50565b5f813590506110a18161107d565b92915050565b5f602082840312156110bc576110bb61106c565b5b5f6110c984828501611093565b91505092915050565b6110db81611074565b82525050565b5f6040820190506110f45f8301856110d2565b61110160208301846110d2565b9392505050565b5f5f6040838503121561111e5761111d61106c565b5b5f61112b85828601611093565b925050602061113c85828601611093565b9150509250929050565b5f73ffffffffffffffffffffffffffffffffffffffff82169050919050565b5f61116f82611146565b9050919050565b61117f81611165565b82525050565b5f81519050919050565b5f82825260208201905092915050565b8281835e5f83830152505050565b5f601f19601f8301169050919050565b5f6111c782611185565b6111d1818561118f565b93506111e181856020860161119f565b6111ea816111ad565b840191505092915050565b5f8115159050919050565b611209816111f5565b82525050565b5f60e0820190506112225f83018a611176565b818103602083015261123481896111bd565b9050818103604083015261124881886111bd565b905061125760608301876110d2565b61126460808301866110d2565b61127160a08301856110d2565b61127e60c0830184611200565b98975050505050505050565b5f60208201905061129d5f8301846110d2565b92915050565b6112ac81611165565b81146112b6575f5ffd5b50565b5f813590506112c7816112a3565b92915050565b5f5f604083850312156112e3576112e261106c565b5b5f6112f085828601611093565b9250506020611301858286016112b9565b9150509250929050565b5f5ffd5b5f5ffd5b7f4e487b71000000000000000000000000000000000000000000000000000000005f52604160045260245ffd5b611349826111ad565b810181811067ffffffffffffffff8211171561136857611367611313565b5b80604052505050565b5f61137a611063565b90506113868282611340565b919050565b5f67ffffffffffffffff8211156113a5576113a4611313565b5b6113ae826111ad565b9050602081019050919050565b828183375f83830152505050565b5f6113db6113d68461138b565b611371565b9050828152602081018484840111156113f7576113f661130f565b5b6114028482856113bb565b509392505050565b5f82601f83011261141e5761141d61130b565b5b813561142e8482602086016113c9565b91505092915050565b5f5f5f5f5f60a086880312156114505761144f61106c565b5b5f86013567ffffffffffffffff81111561146d5761146c611070565b5b6114798882890161140a565b955050602086013567ffffffffffffffff81111561149a57611499611070565b5b6114a68882890161140a565b94505060406114b788828901611093565b93505060606114c888828901611093565b92505060806114d988828901611093565b9150509295509295909350565b7f70726f6a65637420686173206e6f74206265656e2063726561746564207965745f8201527f2100000000000000000000000000000000000000000000000000000000000000602082015250565b5f61154060218361118f565b915061154b826114e6565b604082019050919050565b5f6020820190508181035f83015261156d81611534565b9050919050565b7f4e487b71000000000000000000000000000000000000000000000000000000005f52601160045260245ffd5b5f6115ab82611074565b91506115b683611074565b92508282039050818111156115ce576115cd611574565b5b92915050565b7f446561646c696e65206973206f766572202c20796f752043616e2774206368615f8201527f6e6765207468652066756e64696e6720676f616c202121000000000000000000602082015250565b5f61162e60378361118f565b9150611639826115d4565b604082019050919050565b5f6020820190508181035f83015261165b81611622565b9050919050565b7f596f7520617265206e6f74207468652070726f6a6563742063726561746f72205f8201527f2c204f6e6c7920506f726a6563742063726561746f722063616e204368616e6760208201527f6520212100000000000000000000000000000000000000000000000000000000604082015250565b5f6116e260448361118f565b91506116ed82611662565b606082019050919050565b5f6020820190508181035f83015261170f816116d6565b9050919050565b7f4e487b71000000000000000000000000000000000000000000000000000000005f52602260045260245ffd5b5f600282049050600182168061175a57607f821691505b60208210810361176d5761176c611716565b5b50919050565b7f46756e64696e6720676f616c206861732072656163686564202c2075736572205f8201527f63616e2774207769746864726177000000000000000000000000000000000000602082015250565b5f6117cd602e8361118f565b91506117d882611773565b604082019050919050565b5f6020820190508181035f8301526117fa816117c1565b9050919050565b5f6040820190506118145f830185611176565b61182160208301846110d2565b9392505050565b5f61183282611074565b915061183d83611074565b925082820261184b81611074565b9150828204841483151761186257611861611574565b5b5092915050565b7f4e487b71000000000000000000000000000000000000000000000000000000005f52601260045260245ffd5b5f6118a082611074565b91506118ab83611074565b9250826118bb576118ba611869565b5b828204905092915050565b7f4f6e6c792050726f6a6563742063726561746f722063616e20657874656e64205f8201527f74686520646561646c696e652121000000000000000000000000000000000000602082015250565b5f611920602e8361118f565b915061192b826118c6565b604082019050919050565b5f6020820190508181035f83015261194d81611914565b9050919050565b5f61195e82611074565b915061196983611074565b925082820190508082111561198157611980611574565b5b92915050565b7f50726f6a65637420646561646c696e65206973206f76657221000000000000005f82015250565b5f6119bb60198361118f565b91506119c682611987565b602082019050919050565b5f6020820190508181035f8301526119e8816119af565b9050919050565b7f50726f6a6563742052656163686564206974732046756e64696e6720726571755f8201527f6972656d656e7400000000000000000000000000000000000000000000000000602082015250565b5f611a4960278361118f565b9150611a54826119ef565b604082019050919050565b5f6020820190508181035f830152611a7681611a3d565b9050919050565b7f73656e6420736f6d6520657468657220746f20636f6e7472696275746520696e5f8201527f207468652070726f6a6563740000000000000000000000000000000000000000602082015250565b5f611ad7602c8361118f565b9150611ae282611a7d565b604082019050919050565b5f6020820190508181035f830152611b0481611acb565b9050919050565b7f416d6f756e7420436f6e7472696275746564206973206d6f7265207468616e205f8201527f476f616c00000000000000000000000000000000000000000000000000000000602082015250565b5f611b6560248361118f565b9150611b7082611b0b565b604082019050919050565b5f6020820190508181035f830152611b9281611b59565b9050919050565b5f81905092915050565b50565b5f611bb15f83611b99565b9150611bbc82611ba3565b5f82019050919050565b5f611bd082611ba6565b9150819050919050565b7f526566756e64204661696c6564000000000000000000000000000000000000005f82015250565b5f611c0e600d8361118f565b9150611c1982611bda565b602082019050919050565b5f6020820190508181035f830152611c3b81611c02565b9050919050565b5f606082019050611c555f830186611176565b611c6260208301856110d2565b611c6f60408301846110d2565b949350505050565b7f66756e64696e6720676f616c20686173206e6f742072656163686564202c20615f8201527f646d696e2063616e277420776974686472617700000000000000000000000000602082015250565b5f611cd160338361118f565b9150611cdc82611c77565b604082019050919050565b5f6020820190508181035f830152611cfe81611cc5565b9050919050565b7f6f6e6c792061646d696e2063616e2077697468647261770000000000000000005f82015250565b5f611d3960178361118f565b9150611d4482611d05565b602082019050919050565b5f6020820190508181035f830152611d6681611d2d565b9050919050565b7f646561646c696e6520686173206e6f742072656163686564202c2061646d696e5f8201527f2063616e27742077697468647261770000000000000000000000000000000000602082015250565b5f611dc7602f8361118f565b9150611dd282611d6d565b604082019050919050565b5f6020820190508181035f830152611df481611dbb565b9050919050565b7f50726f6a65637420494420697320616c726561647920696e20757365210000005f82015250565b5f611e2f601d8361118f565b9150611e3a82611dfb565b602082019050919050565b5f6020820190508181035f830152611e5c81611e23565b9050919050565b5f819050815f5260205f209050919050565b5f6020601f8301049050919050565b5f82821b905092915050565b5f60088302611ebf7fffffffffffffffffffffffffffffffffffffffffffffffffffffffffffffffff82611e84565b611ec98683611e84565b95508019841693508086168417925050509392505050565b5f819050919050565b5f611f04611eff611efa84611074565b611ee1565b611074565b9050919050565b5f819050919050565b611f1d83611eea565b611f31611f2982611f0b565b848454611e90565b825550505050565b5f5f905090565b611f48611f39565b611f53818484611f14565b505050565b5b81811015611f7657611f6b5f82611f40565b600181019050611f59565b5050565b601f821115611fbb57611f8c81611e63565b611f9584611e75565b81016020851015611fa4578190505b611fb8611fb085611e75565b830182611f58565b50505b505050565b5f82821c905092915050565b5f611fdb5f1984600802611fc0565b1980831691505092915050565b5f611ff38383611fcc565b9150826002028217905092915050565b61200c82611185565b67ffffffffffffffff81111561202557612024611313565b5b61202f8254611743565b61203a828285611f7a565b5f60209050601f83116001811461206b575f8415612059578287015190505b6120638582611fe8565b8655506120ca565b601f19841661207986611e63565b5f5b828110156120a05784890151825560018201915060208501945060208101905061207b565b868310156120bd57848901516120b9601f891682611fcc565b8355505b6001600288020188555050505b505050505050565b5f6120dc82611074565b91507fffffffffffffffffffffffffffffffffffffffffffffffffffffffffffffffff820361210e5761210d611574565b5b600182019050919050565b5f6080820190508181035f83015261213181876111bd565b9050818103602083015261214581866111bd565b905061215460408301856110d2565b61216160608301846110d2565b9594505050505056fea2646970667358221220c30389081a6c4b5fc05b3255d2c6b1a5bd30d5485c0a53d9747203d22094190864736f6c634300081e0033",
					"opcodes": "PUSH1 0x80 PUSH1 0x40 MSTORE CALLVALUE DUP1 ISZERO PUSH1 0xE JUMPI PUSH0 PUSH0 REVERT JUMPDEST POP PUSH1 0x1 PUSH0 DUP2 SWAP1 SSTORE POP PUSH2 0x21A0 DUP1 PUSH2 0x23 PUSH0 CODECOPY PUSH0 RETURN INVALID PUSH1 0x80 PUSH1 0x40 MSTORE PUSH1 0x4 CALLDATASIZE LT PUSH2 0xC1 JUMPI PUSH0 CALLDATALOAD PUSH1 0xE0 SHR DUP1 PUSH4 0x54A5BCC5 GT PUSH2 0x7E JUMPI DUP1 PUSH4 0x6C563ABE GT PUSH2 0x58 JUMPI DUP1 PUSH4 0x6C563ABE EQ PUSH2 0x28E JUMPI DUP1 PUSH4 0x71EB89F3 EQ PUSH2 0x2AA JUMPI DUP1 PUSH4 0x9AB761C7 EQ PUSH2 0x2C6 JUMPI DUP1 PUSH4 0xF81BF601 EQ PUSH2 0x2F0 JUMPI PUSH2 0xC1 JUMP JUMPDEST DUP1 PUSH4 0x54A5BCC5 EQ PUSH2 0x200 JUMPI DUP1 PUSH4 0x5D4E5D78 EQ PUSH2 0x22A JUMPI DUP1 PUSH4 0x629B2647 EQ PUSH2 0x266 JUMPI PUSH2 0xC1 JUMP JUMPDEST DUP1 PUSH4 0xDBAC135 EQ PUSH2 0xC5 JUMPI DUP1 PUSH4 0x1392EBFE EQ PUSH2 0x102 JUMPI DUP1 PUSH4 0x21B2416C EQ PUSH2 0x12A JUMPI DUP1 PUSH4 0x370C36B4 EQ PUSH2 0x16C JUMPI DUP1 PUSH4 0x3B9056BF EQ PUSH2 0x1A8 JUMPI DUP1 PUSH4 0x42D844A5 EQ PUSH2 0x1C4 JUMPI JUMPDEST PUSH0 PUSH0 REVERT JUMPDEST CALLVALUE DUP1 ISZERO PUSH2 0xD0 JUMPI PUSH0 PUSH0 REVERT JUMPDEST POP PUSH2 0xEB PUSH1 0x4 DUP1 CALLDATASIZE SUB DUP2 ADD SWAP1 PUSH2 0xE6 SWAP2 SWAP1 PUSH2 0x10A7 JUMP JUMPDEST PUSH2 0x318 JUMP JUMPDEST PUSH1 0x40 MLOAD PUSH2 0xF9 SWAP3 SWAP2 SWAP1 PUSH2 0x10E1 JUMP JUMPDEST PUSH1 0x40 MLOAD DUP1 SWAP2 SUB SWAP1 RETURN JUMPDEST CALLVALUE DUP1 ISZERO PUSH2 0x10D JUMPI PUSH0 PUSH0 REVERT JUMPDEST POP PUSH2 0x128 PUSH1 0x4 DUP1 CALLDATASIZE SUB DUP2 ADD SWAP1 PUSH2 0x123 SWAP2 SWAP1 PUSH2 0x1108 JUMP JUMPDEST PUSH2 0x3F9 JUMP JUMPDEST STOP JUMPDEST CALLVALUE DUP1 ISZERO PUSH2 0x135 JUMPI PUSH0 PUSH0 REVERT JUMPDEST POP PUSH2 0x150 PUSH1 0x4 DUP1 CALLDATASIZE SUB DUP2 ADD SWAP1 PUSH2 0x14B SWAP2 SWAP1 PUSH2 0x10A7 JUMP JUMPDEST PUSH2 0x4F1 JUMP JUMPDEST PUSH1 0x40 MLOAD PUSH2 0x163 SWAP8 SWAP7 SWAP6 SWAP5 SWAP4 SWAP3 SWAP2 SWAP1 PUSH2 0x120F JUMP JUMPDEST PUSH1 0x40 MLOAD DUP1 SWAP2 SUB SWAP1 RETURN JUMPDEST CALLVALUE DUP1 ISZERO PUSH2 0x177 JUMPI PUSH0 PUSH0 REVERT JUMPDEST POP PUSH2 0x192 PUSH1 0x4 DUP1 CALLDATASIZE SUB DUP2 ADD SWAP1 PUSH2 0x18D SWAP2 SWAP1 PUSH2 0x10A7 JUMP JUMPDEST PUSH2 0x666 JUMP JUMPDEST PUSH1 0x40 MLOAD PUSH2 0x19F SWAP2 SWAP1 PUSH2 0x128A JUMP JUMPDEST PUSH1 0x40 MLOAD DUP1 SWAP2 SUB SWAP1 RETURN JUMPDEST PUSH2 0x1C2 PUSH1 0x4 DUP1 CALLDATASIZE SUB DUP2 ADD SWAP1 PUSH2 0x1BD SWAP2 SWAP1 PUSH2 0x10A7 JUMP JUMPDEST PUSH2 0x6A8 JUMP JUMPDEST STOP JUMPDEST CALLVALUE DUP1 ISZERO PUSH2 0x1CF JUMPI PUSH0 PUSH0 REVERT JUMPDEST POP PUSH2 0x1EA PUSH1 0x4 DUP1 CALLDATASIZE SUB DUP2 ADD SWAP1 PUSH2 0x1E5 SWAP2 SWAP1 PUSH2 0x10A7 JUMP JUMPDEST PUSH2 0x7D9 JUMP JUMPDEST PUSH1 0x40 MLOAD PUSH2 0x1F7 SWAP2 SWAP1 PUSH2 0x128A JUMP JUMPDEST PUSH1 0x40 MLOAD DUP1 SWAP2 SUB SWAP1 RETURN JUMPDEST CALLVALUE DUP1 ISZERO PUSH2 0x20B JUMPI PUSH0 PUSH0 REVERT JUMPDEST POP PUSH2 0x214 PUSH2 0x81B JUMP JUMPDEST PUSH1 0x40 MLOAD PUSH2 0x221 SWAP2 SWAP1 PUSH2 0x128A JUMP JUMPDEST PUSH1 0x40 MLOAD DUP1 SWAP2 SUB SWAP1 RETURN JUMPDEST CALLVALUE DUP1 ISZERO PUSH2 0x235 JUMPI PUSH0 PUSH0 REVERT JUMPDEST POP PUSH2 0x250 PUSH1 0x4 DUP1 CALLDATASIZE SUB DUP2 ADD SWAP1 PUSH2 0x24B SWAP2 SWAP1 PUSH2 0x12CD JUMP JUMPDEST PUSH2 0x824 JUMP JUMPDEST PUSH1 0x40 MLOAD PUSH2 0x25D SWAP2 SWAP1 PUSH2 0x128A JUMP JUMPDEST PUSH1 0x40 MLOAD DUP1 SWAP2 SUB SWAP1 RETURN JUMPDEST CALLVALUE DUP1 ISZERO PUSH2 0x271 JUMPI PUSH0 PUSH0 REVERT JUMPDEST POP PUSH2 0x28C PUSH1 0x4 DUP1 CALLDATASIZE SUB DUP2 ADD SWAP1 PUSH2 0x287 SWAP2 SWAP1 PUSH2 0x1108 JUMP JUMPDEST PUSH2 0x844 JUMP JUMPDEST STOP JUMPDEST PUSH2 0x2A8 PUSH1 0x4 DUP1 CALLDATASIZE SUB DUP2 ADD SWAP1 PUSH2 0x2A3 SWAP2 SWAP1 PUSH2 0x10A7 JUMP JUMPDEST PUSH2 0x907 JUMP JUMPDEST STOP JUMPDEST PUSH2 0x2C4 PUSH1 0x4 DUP1 CALLDATASIZE SUB DUP2 ADD SWAP1 PUSH2 0x2BF SWAP2 SWAP1 PUSH2 0x10A7 JUMP JUMPDEST PUSH2 0xC2E JUMP JUMPDEST STOP JUMPDEST CALLVALUE DUP1 ISZERO PUSH2 0x2D1 JUMPI PUSH0 PUSH0 REVERT JUMPDEST POP PUSH2 0x2DA PUSH2 0xDF4 JUMP JUMPDEST PUSH1 0x40 MLOAD PUSH2 0x2E7 SWAP2 SWAP1 PUSH2 0x128A JUMP JUMPDEST PUSH1 0x40 MLOAD DUP1 SWAP2 SUB SWAP1 RETURN JUMPDEST CALLVALUE DUP1 ISZERO PUSH2 0x2FB JUMPI PUSH0 PUSH0 REVERT JUMPDEST POP PUSH2 0x316 PUSH1 0x4 DUP1 CALLDATASIZE SUB DUP2 ADD SWAP1 PUSH2 0x311 SWAP2 SWAP1 PUSH2 0x1437 JUMP JUMPDEST PUSH2 0xDFA JUMP JUMPDEST STOP JUMPDEST PUSH0 PUSH0 PUSH0 PUSH1 0x3 PUSH0 DUP6 DUP2 MSTORE PUSH1 0x20 ADD SWAP1 DUP2 MSTORE PUSH1 0x20 ADD PUSH0 KECCAK256 SWAP1 POP DUP1 PUSH1 0x3 ADD SLOAD SWAP3 POP PUSH0 PUSH20 0xFFFFFFFFFFFFFFFFFFFFFFFFFFFFFFFFFFFFFFFF AND DUP2 PUSH0 ADD PUSH0 SWAP1 SLOAD SWAP1 PUSH2 0x100 EXP SWAP1 DIV PUSH20 0xFFFFFFFFFFFFFFFFFFFFFFFFFFFFFFFFFFFFFFFF AND PUSH20 0xFFFFFFFFFFFFFFFFFFFFFFFFFFFFFFFFFFFFFFFF AND SUB PUSH2 0x3C5 JUMPI PUSH1 0x40 MLOAD PUSH32 0x8C379A000000000000000000000000000000000000000000000000000000000 DUP2 MSTORE PUSH1 0x4 ADD PUSH2 0x3BC SWAP1 PUSH2 0x1556 JUMP JUMPDEST PUSH1 0x40 MLOAD DUP1 SWAP2 SUB SWAP1 REVERT JUMPDEST DUP1 PUSH1 0x3 ADD SLOAD DUP2 PUSH1 0x5 ADD SLOAD LT PUSH2 0x3DC JUMPI PUSH0 SWAP2 POP PUSH2 0x3F3 JUMP JUMPDEST DUP1 PUSH1 0x5 ADD SLOAD DUP2 PUSH1 0x3 ADD SLOAD PUSH2 0x3F0 SWAP2 SWAP1 PUSH2 0x15A1 JUMP JUMPDEST SWAP2 POP JUMPDEST POP SWAP2 POP SWAP2 JUMP JUMPDEST PUSH0 PUSH1 0x3 PUSH0 DUP5 DUP2 MSTORE PUSH1 0x20 ADD SWAP1 DUP2 MSTORE PUSH1 0x20 ADD PUSH0 KECCAK256 SWAP1 POP PUSH0 DUP2 PUSH1 0x4 ADD SLOAD GT PUSH2 0x453 JUMPI PUSH1 0x40 MLOAD PUSH32 0x8C379A000000000000000000000000000000000000000000000000000000000 DUP2 MSTORE PUSH1 0x4 ADD PUSH2 0x44A SWAP1 PUSH2 0x1644 JUMP JUMPDEST PUSH1 0x40 MLOAD DUP1 SWAP2 SUB SWAP1 REVERT JUMPDEST CALLER PUSH20 0xFFFFFFFFFFFFFFFFFFFFFFFFFFFFFFFFFFFFFFFF AND DUP2 PUSH0 ADD PUSH0 SWAP1 SLOAD SWAP1 PUSH2 0x100 EXP SWAP1 DIV PUSH20 0xFFFFFFFFFFFFFFFFFFFFFFFFFFFFFFFFFFFFFFFF AND PUSH20 0xFFFFFFFFFFFFFFFFFFFFFFFFFFFFFFFFFFFFFFFF AND EQ PUSH2 0x4E3 JUMPI PUSH1 0x40 MLOAD PUSH32 0x8C379A000000000000000000000000000000000000000000000000000000000 DUP2 MSTORE PUSH1 0x4 ADD PUSH2 0x4DA SWAP1 PUSH2 0x16F8 JUMP JUMPDEST PUSH1 0x40 MLOAD DUP1 SWAP2 SUB SWAP1 REVERT JUMPDEST DUP2 DUP2 PUSH1 0x3 ADD DUP2 SWAP1 SSTORE POP POP POP POP JUMP JUMPDEST PUSH1 0x3 PUSH1 0x20 MSTORE DUP1 PUSH0 MSTORE PUSH1 0x40 PUSH0 KECCAK256 PUSH0 SWAP2 POP SWAP1 POP DUP1 PUSH0 ADD PUSH0 SWAP1 SLOAD SWAP1 PUSH2 0x100 EXP SWAP1 DIV PUSH20 0xFFFFFFFFFFFFFFFFFFFFFFFFFFFFFFFFFFFFFFFF AND SWAP1 DUP1 PUSH1 0x1 ADD DUP1 SLOAD PUSH2 0x535 SWAP1 PUSH2 0x1743 JUMP JUMPDEST DUP1 PUSH1 0x1F ADD PUSH1 0x20 DUP1 SWAP2 DIV MUL PUSH1 0x20 ADD PUSH1 0x40 MLOAD SWAP1 DUP2 ADD PUSH1 0x40 MSTORE DUP1 SWAP3 SWAP2 SWAP1 DUP2 DUP2 MSTORE PUSH1 0x20 ADD DUP3 DUP1 SLOAD PUSH2 0x561 SWAP1 PUSH2 0x1743 JUMP JUMPDEST DUP1 ISZERO PUSH2 0x5AC JUMPI DUP1 PUSH1 0x1F LT PUSH2 0x583 JUMPI PUSH2 0x100 DUP1 DUP4 SLOAD DIV MUL DUP4 MSTORE SWAP2 PUSH1 0x20 ADD SWAP2 PUSH2 0x5AC JUMP JUMPDEST DUP3 ADD SWAP2 SWAP1 PUSH0 MSTORE PUSH1 0x20 PUSH0 KECCAK256 SWAP1 JUMPDEST DUP2 SLOAD DUP2 MSTORE SWAP1 PUSH1 0x1 ADD SWAP1 PUSH1 0x20 ADD DUP1 DUP4 GT PUSH2 0x58F JUMPI DUP3 SWAP1 SUB PUSH1 0x1F AND DUP3 ADD SWAP2 JUMPDEST POP POP POP POP POP SWAP1 DUP1 PUSH1 0x2 ADD DUP1 SLOAD PUSH2 0x5C1 SWAP1 PUSH2 0x1743 JUMP JUMPDEST DUP1 PUSH1 0x1F ADD PUSH1 0x20 DUP1 SWAP2 DIV MUL PUSH1 0x20 ADD PUSH1 0x40 MLOAD SWAP1 DUP2 ADD PUSH1 0x40 MSTORE DUP1 SWAP3 SWAP2 SWAP1 DUP2 DUP2 MSTORE PUSH1 0x20 ADD DUP3 DUP1 SLOAD PUSH2 0x5ED SWAP1 PUSH2 0x1743 JUMP JUMPDEST DUP1 ISZERO PUSH2 0x638 JUMPI DUP1 PUSH1 0x1F LT PUSH2 0x60F JUMPI PUSH2 0x100 DUP1 DUP4 SLOAD DIV MUL DUP4 MSTORE SWAP2 PUSH1 0x20 ADD SWAP2 PUSH2 0x638 JUMP JUMPDEST DUP3 ADD SWAP2 SWAP1 PUSH0 MSTORE PUSH1 0x20 PUSH0 KECCAK256 SWAP1 JUMPDEST DUP2 SLOAD DUP2 MSTORE SWAP1 PUSH1 0x1 ADD SWAP1 PUSH1 0x20 ADD DUP1 DUP4 GT PUSH2 0x61B JUMPI DUP3 SWAP1 SUB PUSH1 0x1F AND DUP3 ADD SWAP2 JUMPDEST POP POP POP POP POP SWAP1 DUP1 PUSH1 0x3 ADD SLOAD SWAP1 DUP1 PUSH1 0x4 ADD SLOAD SWAP1 DUP1 PUSH1 0x5 ADD SLOAD SWAP1 DUP1 PUSH1 0x6 ADD PUSH0 SWAP1 SLOAD SWAP1 PUSH2 0x100 EXP SWAP1 DIV PUSH1 0xFF AND SWAP1 POP DUP8 JUMP JUMPDEST PUSH0 PUSH0 PUSH1 0x3 PUSH0 DUP5 DUP2 MSTORE PUSH1 0x20 ADD SWAP1 DUP2 MSTORE PUSH1 0x20 ADD PUSH0 KECCAK256 SWAP1 POP DUP1 PUSH1 0x4 ADD SLOAD TIMESTAMP LT PUSH2 0x68F JUMPI PUSH0 SWAP2 POP POP PUSH2 0x6A3 JUMP JUMPDEST TIMESTAMP DUP2 PUSH1 0x4 ADD SLOAD PUSH2 0x69F SWAP2 SWAP1 PUSH2 0x15A1 JUMP JUMPDEST SWAP2 POP POP JUMPDEST SWAP2 SWAP1 POP JUMP JUMPDEST PUSH0 PUSH1 0x3 PUSH0 DUP4 DUP2 MSTORE PUSH1 0x20 ADD SWAP1 DUP2 MSTORE PUSH1 0x20 ADD PUSH0 KECCAK256 SWAP1 POP DUP1 PUSH1 0x3 ADD SLOAD DUP2 PUSH1 0x5 ADD SLOAD LT PUSH2 0x706 JUMPI PUSH1 0x40 MLOAD PUSH32 0x8C379A000000000000000000000000000000000000000000000000000000000 DUP2 MSTORE PUSH1 0x4 ADD PUSH2 0x6FD SWAP1 PUSH2 0x17E3 JUMP JUMPDEST PUSH1 0x40 MLOAD DUP1 SWAP2 SUB SWAP1 REVERT JUMPDEST PUSH0 PUSH1 0x4 PUSH0 DUP5 DUP2 MSTORE PUSH1 0x20 ADD SWAP1 DUP2 MSTORE PUSH1 0x20 ADD PUSH0 KECCAK256 PUSH0 CALLER PUSH20 0xFFFFFFFFFFFFFFFFFFFFFFFFFFFFFFFFFFFFFFFF AND PUSH20 0xFFFFFFFFFFFFFFFFFFFFFFFFFFFFFFFFFFFFFFFF AND DUP2 MSTORE PUSH1 0x20 ADD SWAP1 DUP2 MSTORE PUSH1 0x20 ADD PUSH0 KECCAK256 SLOAD SWAP1 POP CALLER PUSH20 0xFFFFFFFFFFFFFFFFFFFFFFFFFFFFFFFFFFFFFFFF AND PUSH2 0x8FC DUP3 SWAP1 DUP2 ISZERO MUL SWAP1 PUSH1 0x40 MLOAD PUSH0 PUSH1 0x40 MLOAD DUP1 DUP4 SUB DUP2 DUP6 DUP9 DUP9 CALL SWAP4 POP POP POP POP ISZERO DUP1 ISZERO PUSH2 0x799 JUMPI RETURNDATASIZE PUSH0 PUSH0 RETURNDATACOPY RETURNDATASIZE PUSH0 REVERT JUMPDEST POP DUP3 PUSH32 0xB6E4E293B6C7C5CF68FBB52EDFACA6173710FCCCBCECAC03C32E62327FC000C6 CALLER CALLVALUE PUSH1 0x40 MLOAD PUSH2 0x7CC SWAP3 SWAP2 SWAP1 PUSH2 0x1801 JUMP JUMPDEST PUSH1 0x40 MLOAD DUP1 SWAP2 SUB SWAP1 LOG2 POP POP POP JUMP JUMPDEST PUSH0 PUSH0 PUSH1 0x3 PUSH0 DUP5 DUP2 MSTORE PUSH1 0x20 ADD SWAP1 DUP2 MSTORE PUSH1 0x20 ADD PUSH0 KECCAK256 SWAP1 POP PUSH0 DUP2 PUSH1 0x3 ADD SLOAD PUSH1 0x64 DUP4 PUSH1 0x5 ADD SLOAD PUSH2 0x805 SWAP2 SWAP1 PUSH2 0x1828 JUMP JUMPDEST PUSH2 0x80F SWAP2 SWAP1 PUSH2 0x1896 JUMP JUMPDEST SWAP1 POP DUP1 SWAP3 POP POP POP SWAP2 SWAP1 POP JUMP JUMPDEST PUSH0 PUSH1 0x1 SLOAD SWAP1 POP SWAP1 JUMP JUMPDEST PUSH1 0x4 PUSH1 0x20 MSTORE DUP2 PUSH0 MSTORE PUSH1 0x40 PUSH0 KECCAK256 PUSH1 0x20 MSTORE DUP1 PUSH0 MSTORE PUSH1 0x40 PUSH0 KECCAK256 PUSH0 SWAP2 POP SWAP2 POP POP SLOAD DUP2 JUMP JUMPDEST PUSH0 PUSH1 0x3 PUSH0 DUP5 DUP2 MSTORE PUSH1 0x20 ADD SWAP1 DUP2 MSTORE PUSH1 0x20 ADD PUSH0 KECCAK256 SWAP1 POP CALLER PUSH20 0xFFFFFFFFFFFFFFFFFFFFFFFFFFFFFFFFFFFFFFFF AND DUP2 PUSH0 ADD PUSH0 SWAP1 SLOAD SWAP1 PUSH2 0x100 EXP SWAP1 DIV PUSH20 0xFFFFFFFFFFFFFFFFFFFFFFFFFFFFFFFFFFFFFFFF AND PUSH20 0xFFFFFFFFFFFFFFFFFFFFFFFFFFFFFFFFFFFFFFFF AND EQ PUSH2 0x8E8 JUMPI PUSH1 0x40 MLOAD PUSH32 0x8C379A000000000000000000000000000000000000000000000000000000000 DUP2 MSTORE PUSH1 0x4 ADD PUSH2 0x8DF SWAP1 PUSH2 0x1936 JUMP JUMPDEST PUSH1 0x40 MLOAD DUP1 SWAP2 SUB SWAP1 REVERT JUMPDEST DUP2 DUP2 PUSH1 0x4 ADD PUSH0 DUP3 DUP3 SLOAD PUSH2 0x8FB SWAP2 SWAP1 PUSH2 0x1954 JUMP JUMPDEST SWAP3 POP POP DUP2 SWAP1 SSTORE POP POP POP POP JUMP JUMPDEST PUSH2 0x90F PUSH2 0x1016 JUMP JUMPDEST PUSH0 PUSH1 0x3 PUSH0 DUP4 DUP2 MSTORE PUSH1 0x20 ADD SWAP1 DUP2 MSTORE PUSH1 0x20 ADD PUSH0 KECCAK256 SWAP1 POP DUP1 PUSH1 0x4 ADD SLOAD TIMESTAMP GT ISZERO PUSH2 0x96A JUMPI PUSH1 0x40 MLOAD PUSH32 0x8C379A000000000000000000000000000000000000000000000000000000000 DUP2 MSTORE PUSH1 0x4 ADD PUSH2 0x961 SWAP1 PUSH2 0x19D1 JUMP JUMPDEST PUSH1 0x40 MLOAD DUP1 SWAP2 SUB SWAP1 REVERT JUMPDEST DUP1 PUSH1 0x6 ADD PUSH0 SWAP1 SLOAD SWAP1 PUSH2 0x100 EXP SWAP1 DIV PUSH1 0xFF AND ISZERO PUSH2 0x9BB JUMPI PUSH1 0x40 MLOAD PUSH32 0x8C379A000000000000000000000000000000000000000000000000000000000 DUP2 MSTORE PUSH1 0x4 ADD PUSH2 0x9B2 SWAP1 PUSH2 0x1A5F JUMP JUMPDEST PUSH1 0x40 MLOAD DUP1 SWAP2 SUB SWAP1 REVERT JUMPDEST PUSH0 CALLVALUE GT PUSH2 0x9FD JUMPI PUSH1 0x40 MLOAD PUSH32 0x8C379A000000000000000000000000000000000000000000000000000000000 DUP2 MSTORE PUSH1 0x4 ADD PUSH2 0x9F4 SWAP1 PUSH2 0x1AED JUMP JUMPDEST PUSH1 0x40 MLOAD DUP1 SWAP2 SUB SWAP1 REVERT JUMPDEST DUP1 PUSH1 0x3 ADD SLOAD CALLVALUE GT ISZERO PUSH2 0xA44 JUMPI PUSH1 0x40 MLOAD PUSH32 0x8C379A000000000000000000000000000000000000000000000000000000000 DUP2 MSTORE PUSH1 0x4 ADD PUSH2 0xA3B SWAP1 PUSH2 0x1B7B JUMP JUMPDEST PUSH1 0x40 MLOAD DUP1 SWAP2 SUB SWAP1 REVERT JUMPDEST PUSH0 DUP2 PUSH1 0x5 ADD SLOAD DUP3 PUSH1 0x3 ADD SLOAD PUSH2 0xA59 SWAP2 SWAP1 PUSH2 0x15A1 JUMP JUMPDEST SWAP1 POP PUSH0 PUSH0 DUP3 CALLVALUE GT ISZERO PUSH2 0xA7B JUMPI DUP3 SWAP2 POP DUP3 CALLVALUE PUSH2 0xA74 SWAP2 SWAP1 PUSH2 0x15A1 JUMP JUMPDEST SWAP1 POP PUSH2 0xA82 JUMP JUMPDEST CALLVALUE SWAP2 POP PUSH0 SWAP1 POP JUMPDEST DUP2 DUP5 PUSH1 0x5 ADD PUSH0 DUP3 DUP3 SLOAD PUSH2 0xA95 SWAP2 SWAP1 PUSH2 0x1954 JUMP JUMPDEST SWAP3 POP POP DUP2 SWAP1 SSTORE POP DUP2 PUSH1 0x4 PUSH0 DUP8 DUP2 MSTORE PUSH1 0x20 ADD SWAP1 DUP2 MSTORE PUSH1 0x20 ADD PUSH0 KECCAK256 PUSH0 CALLER PUSH20 0xFFFFFFFFFFFFFFFFFFFFFFFFFFFFFFFFFFFFFFFF AND PUSH20 0xFFFFFFFFFFFFFFFFFFFFFFFFFFFFFFFFFFFFFFFF AND DUP2 MSTORE PUSH1 0x20 ADD SWAP1 DUP2 MSTORE PUSH1 0x20 ADD PUSH0 KECCAK256 DUP2 SWAP1 SSTORE POP DUP2 PUSH1 0x1 PUSH0 DUP3 DUP3 SLOAD PUSH2 0xAFE SWAP2 SWAP1 PUSH2 0x1954 JUMP JUMPDEST SWAP3 POP POP DUP2 SWAP1 SSTORE POP PUSH0 DUP2 GT ISZERO PUSH2 0xBB7 JUMPI PUSH0 CALLER PUSH20 0xFFFFFFFFFFFFFFFFFFFFFFFFFFFFFFFFFFFFFFFF AND DUP3 PUSH1 0x40 MLOAD PUSH2 0xB32 SWAP1 PUSH2 0x1BC6 JUMP JUMPDEST PUSH0 PUSH1 0x40 MLOAD DUP1 DUP4 SUB DUP2 DUP6 DUP8 GAS CALL SWAP3 POP POP POP RETURNDATASIZE DUP1 PUSH0 DUP2 EQ PUSH2 0xB6C JUMPI PUSH1 0x40 MLOAD SWAP2 POP PUSH1 0x1F NOT PUSH1 0x3F RETURNDATASIZE ADD AND DUP3 ADD PUSH1 0x40 MSTORE RETURNDATASIZE DUP3 MSTORE RETURNDATASIZE PUSH0 PUSH1 0x20 DUP5 ADD RETURNDATACOPY PUSH2 0xB71 JUMP JUMPDEST PUSH1 0x60 SWAP2 POP JUMPDEST POP POP SWAP1 POP DUP1 PUSH2 0xBB5 JUMPI PUSH1 0x40 MLOAD PUSH32 0x8C379A000000000000000000000000000000000000000000000000000000000 DUP2 MSTORE PUSH1 0x4 ADD PUSH2 0xBAC SWAP1 PUSH2 0x1C24 JUMP JUMPDEST PUSH1 0x40 MLOAD DUP1 SWAP2 SUB SWAP1 REVERT JUMPDEST POP JUMPDEST DUP5 PUSH32 0x7DD983E9D08B449D571F3583275E98423857F3FFBE9EF56F927EB02B1C8AB599 CALLER DUP5 DUP5 PUSH1 0x40 MLOAD PUSH2 0xBEB SWAP4 SWAP3 SWAP2 SWAP1 PUSH2 0x1C42 JUMP JUMPDEST PUSH1 0x40 MLOAD DUP1 SWAP2 SUB SWAP1 LOG2 DUP4 PUSH1 0x3 ADD SLOAD DUP5 PUSH1 0x5 ADD SLOAD LT PUSH2 0xC1F JUMPI PUSH1 0x1 DUP5 PUSH1 0x6 ADD PUSH0 PUSH2 0x100 EXP DUP2 SLOAD DUP2 PUSH1 0xFF MUL NOT AND SWAP1 DUP4 ISZERO ISZERO MUL OR SWAP1 SSTORE POP JUMPDEST POP POP POP POP PUSH2 0xC2B PUSH2 0x105A JUMP JUMPDEST POP JUMP JUMPDEST PUSH0 PUSH1 0x3 PUSH0 DUP4 DUP2 MSTORE PUSH1 0x20 ADD SWAP1 DUP2 MSTORE PUSH1 0x20 ADD PUSH0 KECCAK256 SWAP1 POP PUSH0 DUP2 PUSH1 0x5 ADD SLOAD SWAP1 POP DUP2 PUSH1 0x6 ADD PUSH0 SWAP1 SLOAD SWAP1 PUSH2 0x100 EXP SWAP1 DIV PUSH1 0xFF AND PUSH2 0xC9A JUMPI PUSH1 0x40 MLOAD PUSH32 0x8C379A000000000000000000000000000000000000000000000000000000000 DUP2 MSTORE PUSH1 0x4 ADD PUSH2 0xC91 SWAP1 PUSH2 0x1CE7 JUMP JUMPDEST PUSH1 0x40 MLOAD DUP1 SWAP2 SUB SWAP1 REVERT JUMPDEST CALLER PUSH20 0xFFFFFFFFFFFFFFFFFFFFFFFFFFFFFFFFFFFFFFFF AND DUP3 PUSH0 ADD PUSH0 SWAP1 SLOAD SWAP1 PUSH2 0x100 EXP SWAP1 DIV PUSH20 0xFFFFFFFFFFFFFFFFFFFFFFFFFFFFFFFFFFFFFFFF AND PUSH20 0xFFFFFFFFFFFFFFFFFFFFFFFFFFFFFFFFFFFFFFFF AND EQ PUSH2 0xD2A JUMPI PUSH1 0x40 MLOAD PUSH32 0x8C379A000000000000000000000000000000000000000000000000000000000 DUP2 MSTORE PUSH1 0x4 ADD PUSH2 0xD21 SWAP1 PUSH2 0x1D4F JUMP JUMPDEST PUSH1 0x40 MLOAD DUP1 SWAP2 SUB SWAP1 REVERT JUMPDEST TIMESTAMP DUP3 PUSH1 0x4 ADD SLOAD GT ISZERO PUSH2 0xD71 JUMPI PUSH1 0x40 MLOAD PUSH32 0x8C379A000000000000000000000000000000000000000000000000000000000 DUP2 MSTORE PUSH1 0x4 ADD PUSH2 0xD68 SWAP1 PUSH2 0x1DDD JUMP JUMPDEST PUSH1 0x40 MLOAD DUP1 SWAP2 SUB SWAP1 REVERT JUMPDEST CALLER PUSH20 0xFFFFFFFFFFFFFFFFFFFFFFFFFFFFFFFFFFFFFFFF AND PUSH2 0x8FC DUP3 SWAP1 DUP2 ISZERO MUL SWAP1 PUSH1 0x40 MLOAD PUSH0 PUSH1 0x40 MLOAD DUP1 DUP4 SUB DUP2 DUP6 DUP9 DUP9 CALL SWAP4 POP POP POP POP ISZERO DUP1 ISZERO PUSH2 0xDB4 JUMPI RETURNDATASIZE PUSH0 PUSH0 RETURNDATACOPY RETURNDATASIZE PUSH0 REVERT JUMPDEST POP DUP3 PUSH32 0xCAE030E1A3C6B0011E7009BD65734E2E1E330528F6983497631FABD47FA7A281 CALLER CALLVALUE PUSH1 0x40 MLOAD PUSH2 0xDE7 SWAP3 SWAP2 SWAP1 PUSH2 0x1801 JUMP JUMPDEST PUSH1 0x40 MLOAD DUP1 SWAP2 SUB SWAP1 LOG2 POP POP POP JUMP JUMPDEST PUSH1 0x2 SLOAD DUP2 JUMP JUMPDEST PUSH1 0x5 PUSH0 DUP3 DUP2 MSTORE PUSH1 0x20 ADD SWAP1 DUP2 MSTORE PUSH1 0x20 ADD PUSH0 KECCAK256 PUSH0 SWAP1 SLOAD SWAP1 PUSH2 0x100 EXP SWAP1 DIV PUSH1 0xFF AND ISZERO PUSH2 0xE58 JUMPI PUSH1 0x40 MLOAD PUSH32 0x8C379A000000000000000000000000000000000000000000000000000000000 DUP2 MSTORE PUSH1 0x4 ADD PUSH2 0xE4F SWAP1 PUSH2 0x1E45 JUMP JUMPDEST PUSH1 0x40 MLOAD DUP1 SWAP2 SUB SWAP1 REVERT JUMPDEST PUSH1 0x1 PUSH1 0x5 PUSH0 DUP4 DUP2 MSTORE PUSH1 0x20 ADD SWAP1 DUP2 MSTORE PUSH1 0x20 ADD PUSH0 KECCAK256 PUSH0 PUSH2 0x100 EXP DUP2 SLOAD DUP2 PUSH1 0xFF MUL NOT AND SWAP1 DUP4 ISZERO ISZERO MUL OR SWAP1 SSTORE POP PUSH1 0x40 MLOAD DUP1 PUSH1 0xE0 ADD PUSH1 0x40 MSTORE DUP1 CALLER PUSH20 0xFFFFFFFFFFFFFFFFFFFFFFFFFFFFFFFFFFFFFFFF AND DUP2 MSTORE PUSH1 0x20 ADD DUP7 DUP2 MSTORE PUSH1 0x20 ADD DUP6 DUP2 MSTORE PUSH1 0x20 ADD DUP5 DUP2 MSTORE PUSH1 0x20 ADD DUP4 TIMESTAMP PUSH2 0xEC6 SWAP2 SWAP1 PUSH2 0x1954 JUMP JUMPDEST DUP2 MSTORE PUSH1 0x20 ADD PUSH0 DUP2 MSTORE PUSH1 0x20 ADD PUSH0 ISZERO ISZERO DUP2 MSTORE POP PUSH1 0x3 PUSH0 DUP4 DUP2 MSTORE PUSH1 0x20 ADD SWAP1 DUP2 MSTORE PUSH1 0x20 ADD PUSH0 KECCAK256 PUSH0 DUP3 ADD MLOAD DUP2 PUSH0 ADD PUSH0 PUSH2 0x100 EXP DUP2 SLOAD DUP2 PUSH20 0xFFFFFFFFFFFFFFFFFFFFFFFFFFFFFFFFFFFFFFFF MUL NOT AND SWAP1 DUP4 PUSH20 0xFFFFFFFFFFFFFFFFFFFFFFFFFFFFFFFFFFFFFFFF AND MUL OR SWAP1 SSTORE POP PUSH1 0x20 DUP3 ADD MLOAD DUP2 PUSH1 0x1 ADD SWAP1 DUP2 PUSH2 0xF41 SWAP2 SWAP1 PUSH2 0x2003 JUMP JUMPDEST POP PUSH1 0x40 DUP3 ADD MLOAD DUP2 PUSH1 0x2 ADD SWAP1 DUP2 PUSH2 0xF57 SWAP2 SWAP1 PUSH2 0x2003 JUMP JUMPDEST POP PUSH1 0x60 DUP3 ADD MLOAD DUP2 PUSH1 0x3 ADD SSTORE PUSH1 0x80 DUP3 ADD MLOAD DUP2 PUSH1 0x4 ADD SSTORE PUSH1 0xA0 DUP3 ADD MLOAD DUP2 PUSH1 0x5 ADD SSTORE PUSH1 0xC0 DUP3 ADD MLOAD DUP2 PUSH1 0x6 ADD PUSH0 PUSH2 0x100 EXP DUP2 SLOAD DUP2 PUSH1 0xFF MUL NOT AND SWAP1 DUP4 ISZERO ISZERO MUL OR SWAP1 SSTORE POP SWAP1 POP POP PUSH1 0x2 PUSH0 DUP2 SLOAD DUP1 SWAP3 SWAP2 SWAP1 PUSH2 0xFAA SWAP1 PUSH2 0x20D2 JUMP JUMPDEST SWAP2 SWAP1 POP SSTORE POP CALLER PUSH20 0xFFFFFFFFFFFFFFFFFFFFFFFFFFFFFFFFFFFFFFFF AND DUP2 PUSH32 0xAC9B83534845C9E785A6EA70F2D809DB1D72EF9A1D981753712D922F5CB55F39 DUP8 DUP8 DUP8 DUP8 TIMESTAMP PUSH2 0xFF7 SWAP2 SWAP1 PUSH2 0x1954 JUMP JUMPDEST PUSH1 0x40 MLOAD PUSH2 0x1007 SWAP5 SWAP4 SWAP3 SWAP2 SWAP1 PUSH2 0x2119 JUMP JUMPDEST PUSH1 0x40 MLOAD DUP1 SWAP2 SUB SWAP1 LOG3 POP POP POP POP POP JUMP JUMPDEST PUSH1 0x2 PUSH0 SLOAD SUB PUSH2 0x1051 JUMPI PUSH1 0x40 MLOAD PUSH32 0x3EE5AEB500000000000000000000000000000000000000000000000000000000 DUP2 MSTORE PUSH1 0x4 ADD PUSH1 0x40 MLOAD DUP1 SWAP2 SUB SWAP1 REVERT JUMPDEST PUSH1 0x2 PUSH0 DUP2 SWAP1 SSTORE POP JUMP JUMPDEST PUSH1 0x1 PUSH0 DUP2 SWAP1 SSTORE POP JUMP JUMPDEST PUSH0 PUSH1 0x40 MLOAD SWAP1 POP SWAP1 JUMP JUMPDEST PUSH0 PUSH0 REVERT JUMPDEST PUSH0 PUSH0 REVERT JUMPDEST PUSH0 DUP2 SWAP1 POP SWAP2 SWAP1 POP JUMP JUMPDEST PUSH2 0x1086 DUP2 PUSH2 0x1074 JUMP JUMPDEST DUP2 EQ PUSH2 0x1090 JUMPI PUSH0 PUSH0 REVERT JUMPDEST POP JUMP JUMPDEST PUSH0 DUP2 CALLDATALOAD SWAP1 POP PUSH2 0x10A1 DUP2 PUSH2 0x107D JUMP JUMPDEST SWAP3 SWAP2 POP POP JUMP JUMPDEST PUSH0 PUSH1 0x20 DUP3 DUP5 SUB SLT ISZERO PUSH2 0x10BC JUMPI PUSH2 0x10BB PUSH2 0x106C JUMP JUMPDEST JUMPDEST PUSH0 PUSH2 0x10C9 DUP5 DUP3 DUP6 ADD PUSH2 0x1093 JUMP JUMPDEST SWAP2 POP POP SWAP3 SWAP2 POP POP JUMP JUMPDEST PUSH2 0x10DB DUP2 PUSH2 0x1074 JUMP JUMPDEST DUP3 MSTORE POP POP JUMP JUMPDEST PUSH0 PUSH1 0x40 DUP3 ADD SWAP1 POP PUSH2 0x10F4 PUSH0 DUP4 ADD DUP6 PUSH2 0x10D2 JUMP JUMPDEST PUSH2 0x1101 PUSH1 0x20 DUP4 ADD DUP5 PUSH2 0x10D2 JUMP JUMPDEST SWAP4 SWAP3 POP POP POP JUMP JUMPDEST PUSH0 PUSH0 PUSH1 0x40 DUP4 DUP6 SUB SLT ISZERO PUSH2 0x111E JUMPI PUSH2 0x111D PUSH2 0x106C JUMP JUMPDEST JUMPDEST PUSH0 PUSH2 0x112B DUP6 DUP3 DUP7 ADD PUSH2 0x1093 JUMP JUMPDEST SWAP3 POP POP PUSH1 0x20 PUSH2 0x113C DUP6 DUP3 DUP7 ADD PUSH2 0x1093 JUMP JUMPDEST SWAP2 POP POP SWAP3 POP SWAP3 SWAP1 POP JUMP JUMPDEST PUSH0 PUSH20 0xFFFFFFFFFFFFFFFFFFFFFFFFFFFFFFFFFFFFFFFF DUP3 AND SWAP1 POP SWAP2 SWAP1 POP JUMP JUMPDEST PUSH0 PUSH2 0x116F DUP3 PUSH2 0x1146 JUMP JUMPDEST SWAP1 POP SWAP2 SWAP1 POP JUMP JUMPDEST PUSH2 0x117F DUP2 PUSH2 0x1165 JUMP JUMPDEST DUP3 MSTORE POP POP JUMP JUMPDEST PUSH0 DUP2 MLOAD SWAP1 POP SWAP2 SWAP1 POP JUMP JUMPDEST PUSH0 DUP3 DUP3 MSTORE PUSH1 0x20 DUP3 ADD SWAP1 POP SWAP3 SWAP2 POP POP JUMP JUMPDEST DUP3 DUP2 DUP4 MCOPY PUSH0 DUP4 DUP4 ADD MSTORE POP POP POP JUMP JUMPDEST PUSH0 PUSH1 0x1F NOT PUSH1 0x1F DUP4 ADD AND SWAP1 POP SWAP2 SWAP1 POP JUMP JUMPDEST PUSH0 PUSH2 0x11C7 DUP3 PUSH2 0x1185 JUMP JUMPDEST PUSH2 0x11D1 DUP2 DUP6 PUSH2 0x118F JUMP JUMPDEST SWAP4 POP PUSH2 0x11E1 DUP2 DUP6 PUSH1 0x20 DUP7 ADD PUSH2 0x119F JUMP JUMPDEST PUSH2 0x11EA DUP2 PUSH2 0x11AD JUMP JUMPDEST DUP5 ADD SWAP2 POP POP SWAP3 SWAP2 POP POP JUMP JUMPDEST PUSH0 DUP2 ISZERO ISZERO SWAP1 POP SWAP2 SWAP1 POP JUMP JUMPDEST PUSH2 0x1209 DUP2 PUSH2 0x11F5 JUMP JUMPDEST DUP3 MSTORE POP POP JUMP JUMPDEST PUSH0 PUSH1 0xE0 DUP3 ADD SWAP1 POP PUSH2 0x1222 PUSH0 DUP4 ADD DUP11 PUSH2 0x1176 JUMP JUMPDEST DUP2 DUP2 SUB PUSH1 0x20 DUP4 ADD MSTORE PUSH2 0x1234 DUP2 DUP10 PUSH2 0x11BD JUMP JUMPDEST SWAP1 POP DUP2 DUP2 SUB PUSH1 0x40 DUP4 ADD MSTORE PUSH2 0x1248 DUP2 DUP9 PUSH2 0x11BD JUMP JUMPDEST SWAP1 POP PUSH2 0x1257 PUSH1 0x60 DUP4 ADD DUP8 PUSH2 0x10D2 JUMP JUMPDEST PUSH2 0x1264 PUSH1 0x80 DUP4 ADD DUP7 PUSH2 0x10D2 JUMP JUMPDEST PUSH2 0x1271 PUSH1 0xA0 DUP4 ADD DUP6 PUSH2 0x10D2 JUMP JUMPDEST PUSH2 0x127E PUSH1 0xC0 DUP4 ADD DUP5 PUSH2 0x1200 JUMP JUMPDEST SWAP9 SWAP8 POP POP POP POP POP POP POP POP JUMP JUMPDEST PUSH0 PUSH1 0x20 DUP3 ADD SWAP1 POP PUSH2 0x129D PUSH0 DUP4 ADD DUP5 PUSH2 0x10D2 JUMP JUMPDEST SWAP3 SWAP2 POP POP JUMP JUMPDEST PUSH2 0x12AC DUP2 PUSH2 0x1165 JUMP JUMPDEST DUP2 EQ PUSH2 0x12B6 JUMPI PUSH0 PUSH0 REVERT JUMPDEST POP JUMP JUMPDEST PUSH0 DUP2 CALLDATALOAD SWAP1 POP PUSH2 0x12C7 DUP2 PUSH2 0x12A3 JUMP JUMPDEST SWAP3 SWAP2 POP POP JUMP JUMPDEST PUSH0 PUSH0 PUSH1 0x40 DUP4 DUP6 SUB SLT ISZERO PUSH2 0x12E3 JUMPI PUSH2 0x12E2 PUSH2 0x106C JUMP JUMPDEST JUMPDEST PUSH0 PUSH2 0x12F0 DUP6 DUP3 DUP7 ADD PUSH2 0x1093 JUMP JUMPDEST SWAP3 POP POP PUSH1 0x20 PUSH2 0x1301 DUP6 DUP3 DUP7 ADD PUSH2 0x12B9 JUMP JUMPDEST SWAP2 POP POP SWAP3 POP SWAP3 SWAP1 POP JUMP JUMPDEST PUSH0 PUSH0 REVERT JUMPDEST PUSH0 PUSH0 REVERT JUMPDEST PUSH32 0x4E487B7100000000000000000000000000000000000000000000000000000000 PUSH0 MSTORE PUSH1 0x41 PUSH1 0x4 MSTORE PUSH1 0x24 PUSH0 REVERT JUMPDEST PUSH2 0x1349 DUP3 PUSH2 0x11AD JUMP JUMPDEST DUP2 ADD DUP2 DUP2 LT PUSH8 0xFFFFFFFFFFFFFFFF DUP3 GT OR ISZERO PUSH2 0x1368 JUMPI PUSH2 0x1367 PUSH2 0x1313 JUMP JUMPDEST JUMPDEST DUP1 PUSH1 0x40 MSTORE POP POP POP JUMP JUMPDEST PUSH0 PUSH2 0x137A PUSH2 0x1063 JUMP JUMPDEST SWAP1 POP PUSH2 0x1386 DUP3 DUP3 PUSH2 0x1340 JUMP JUMPDEST SWAP2 SWAP1 POP JUMP JUMPDEST PUSH0 PUSH8 0xFFFFFFFFFFFFFFFF DUP3 GT ISZERO PUSH2 0x13A5 JUMPI PUSH2 0x13A4 PUSH2 0x1313 JUMP JUMPDEST JUMPDEST PUSH2 0x13AE DUP3 PUSH2 0x11AD JUMP JUMPDEST SWAP1 POP PUSH1 0x20 DUP2 ADD SWAP1 POP SWAP2 SWAP1 POP JUMP JUMPDEST DUP3 DUP2 DUP4 CALLDATACOPY PUSH0 DUP4 DUP4 ADD MSTORE POP POP POP JUMP JUMPDEST PUSH0 PUSH2 0x13DB PUSH2 0x13D6 DUP5 PUSH2 0x138B JUMP JUMPDEST PUSH2 0x1371 JUMP JUMPDEST SWAP1 POP DUP3 DUP2 MSTORE PUSH1 0x20 DUP2 ADD DUP5 DUP5 DUP5 ADD GT ISZERO PUSH2 0x13F7 JUMPI PUSH2 0x13F6 PUSH2 0x130F JUMP JUMPDEST JUMPDEST PUSH2 0x1402 DUP5 DUP3 DUP6 PUSH2 0x13BB JUMP JUMPDEST POP SWAP4 SWAP3 POP POP POP JUMP JUMPDEST PUSH0 DUP3 PUSH1 0x1F DUP4 ADD SLT PUSH2 0x141E JUMPI PUSH2 0x141D PUSH2 0x130B JUMP JUMPDEST JUMPDEST DUP2 CALLDATALOAD PUSH2 0x142E DUP5 DUP3 PUSH1 0x20 DUP7 ADD PUSH2 0x13C9 JUMP JUMPDEST SWAP2 POP POP SWAP3 SWAP2 POP POP JUMP JUMPDEST PUSH0 PUSH0 PUSH0 PUSH0 PUSH0 PUSH1 0xA0 DUP7 DUP9 SUB SLT ISZERO PUSH2 0x1450 JUMPI PUSH2 0x144F PUSH2 0x106C JUMP JUMPDEST JUMPDEST PUSH0 DUP7 ADD CALLDATALOAD PUSH8 0xFFFFFFFFFFFFFFFF DUP2 GT ISZERO PUSH2 0x146D JUMPI PUSH2 0x146C PUSH2 0x1070 JUMP JUMPDEST JUMPDEST PUSH2 0x1479 DUP9 DUP3 DUP10 ADD PUSH2 0x140A JUMP JUMPDEST SWAP6 POP POP PUSH1 0x20 DUP7 ADD CALLDATALOAD PUSH8 0xFFFFFFFFFFFFFFFF DUP2 GT ISZERO PUSH2 0x149A JUMPI PUSH2 0x1499 PUSH2 0x1070 JUMP JUMPDEST JUMPDEST PUSH2 0x14A6 DUP9 DUP3 DUP10 ADD PUSH2 0x140A JUMP JUMPDEST SWAP5 POP POP PUSH1 0x40 PUSH2 0x14B7 DUP9 DUP3 DUP10 ADD PUSH2 0x1093 JUMP JUMPDEST SWAP4 POP POP PUSH1 0x60 PUSH2 0x14C8 DUP9 DUP3 DUP10 ADD PUSH2 0x1093 JUMP JUMPDEST SWAP3 POP POP PUSH1 0x80 PUSH2 0x14D9 DUP9 DUP3 DUP10 ADD PUSH2 0x1093 JUMP JUMPDEST SWAP2 POP POP SWAP3 SWAP6 POP SWAP3 SWAP6 SWAP1 SWAP4 POP JUMP JUMPDEST PUSH32 0x70726F6A65637420686173206E6F74206265656E206372656174656420796574 PUSH0 DUP3 ADD MSTORE PUSH32 0x2100000000000000000000000000000000000000000000000000000000000000 PUSH1 0x20 DUP3 ADD MSTORE POP JUMP JUMPDEST PUSH0 PUSH2 0x1540 PUSH1 0x21 DUP4 PUSH2 0x118F JUMP JUMPDEST SWAP2 POP PUSH2 0x154B DUP3 PUSH2 0x14E6 JUMP JUMPDEST PUSH1 0x40 DUP3 ADD SWAP1 POP SWAP2 SWAP1 POP JUMP JUMPDEST PUSH0 PUSH1 0x20 DUP3 ADD SWAP1 POP DUP2 DUP2 SUB PUSH0 DUP4 ADD MSTORE PUSH2 0x156D DUP2 PUSH2 0x1534 JUMP JUMPDEST SWAP1 POP SWAP2 SWAP1 POP JUMP JUMPDEST PUSH32 0x4E487B7100000000000000000000000000000000000000000000000000000000 PUSH0 MSTORE PUSH1 0x11 PUSH1 0x4 MSTORE PUSH1 0x24 PUSH0 REVERT JUMPDEST PUSH0 PUSH2 0x15AB DUP3 PUSH2 0x1074 JUMP JUMPDEST SWAP2 POP PUSH2 0x15B6 DUP4 PUSH2 0x1074 JUMP JUMPDEST SWAP3 POP DUP3 DUP3 SUB SWAP1 POP DUP2 DUP2 GT ISZERO PUSH2 0x15CE JUMPI PUSH2 0x15CD PUSH2 0x1574 JUMP JUMPDEST JUMPDEST SWAP3 SWAP2 POP POP JUMP JUMPDEST PUSH32 0x446561646C696E65206973206F766572202C20796F752043616E277420636861 PUSH0 DUP3 ADD MSTORE PUSH32 0x6E6765207468652066756E64696E6720676F616C202121000000000000000000 PUSH1 0x20 DUP3 ADD MSTORE POP JUMP JUMPDEST PUSH0 PUSH2 0x162E PUSH1 0x37 DUP4 PUSH2 0x118F JUMP JUMPDEST SWAP2 POP PUSH2 0x1639 DUP3 PUSH2 0x15D4 JUMP JUMPDEST PUSH1 0x40 DUP3 ADD SWAP1 POP SWAP2 SWAP1 POP JUMP JUMPDEST PUSH0 PUSH1 0x20 DUP3 ADD SWAP1 POP DUP2 DUP2 SUB PUSH0 DUP4 ADD MSTORE PUSH2 0x165B DUP2 PUSH2 0x1622 JUMP JUMPDEST SWAP1 POP SWAP2 SWAP1 POP JUMP JUMPDEST PUSH32 0x596F7520617265206E6F74207468652070726F6A6563742063726561746F7220 PUSH0 DUP3 ADD MSTORE PUSH32 0x2C204F6E6C7920506F726A6563742063726561746F722063616E204368616E67 PUSH1 0x20 DUP3 ADD MSTORE PUSH32 0x6520212100000000000000000000000000000000000000000000000000000000 PUSH1 0x40 DUP3 ADD MSTORE POP JUMP JUMPDEST PUSH0 PUSH2 0x16E2 PUSH1 0x44 DUP4 PUSH2 0x118F JUMP JUMPDEST SWAP2 POP PUSH2 0x16ED DUP3 PUSH2 0x1662 JUMP JUMPDEST PUSH1 0x60 DUP3 ADD SWAP1 POP SWAP2 SWAP1 POP JUMP JUMPDEST PUSH0 PUSH1 0x20 DUP3 ADD SWAP1 POP DUP2 DUP2 SUB PUSH0 DUP4 ADD MSTORE PUSH2 0x170F DUP2 PUSH2 0x16D6 JUMP JUMPDEST SWAP1 POP SWAP2 SWAP1 POP JUMP JUMPDEST PUSH32 0x4E487B7100000000000000000000000000000000000000000000000000000000 PUSH0 MSTORE PUSH1 0x22 PUSH1 0x4 MSTORE PUSH1 0x24 PUSH0 REVERT JUMPDEST PUSH0 PUSH1 0x2 DUP3 DIV SWAP1 POP PUSH1 0x1 DUP3 AND DUP1 PUSH2 0x175A JUMPI PUSH1 0x7F DUP3 AND SWAP2 POP JUMPDEST PUSH1 0x20 DUP3 LT DUP2 SUB PUSH2 0x176D JUMPI PUSH2 0x176C PUSH2 0x1716 JUMP JUMPDEST JUMPDEST POP SWAP2 SWAP1 POP JUMP JUMPDEST PUSH32 0x46756E64696E6720676F616C206861732072656163686564202C207573657220 PUSH0 DUP3 ADD MSTORE PUSH32 0x63616E2774207769746864726177000000000000000000000000000000000000 PUSH1 0x20 DUP3 ADD MSTORE POP JUMP JUMPDEST PUSH0 PUSH2 0x17CD PUSH1 0x2E DUP4 PUSH2 0x118F JUMP JUMPDEST SWAP2 POP PUSH2 0x17D8 DUP3 PUSH2 0x1773 JUMP JUMPDEST PUSH1 0x40 DUP3 ADD SWAP1 POP SWAP2 SWAP1 POP JUMP JUMPDEST PUSH0 PUSH1 0x20 DUP3 ADD SWAP1 POP DUP2 DUP2 SUB PUSH0 DUP4 ADD MSTORE PUSH2 0x17FA DUP2 PUSH2 0x17C1 JUMP JUMPDEST SWAP1 POP SWAP2 SWAP1 POP JUMP JUMPDEST PUSH0 PUSH1 0x40 DUP3 ADD SWAP1 POP PUSH2 0x1814 PUSH0 DUP4 ADD DUP6 PUSH2 0x1176 JUMP JUMPDEST PUSH2 0x1821 PUSH1 0x20 DUP4 ADD DUP5 PUSH2 0x10D2 JUMP JUMPDEST SWAP4 SWAP3 POP POP POP JUMP JUMPDEST PUSH0 PUSH2 0x1832 DUP3 PUSH2 0x1074 JUMP JUMPDEST SWAP2 POP PUSH2 0x183D DUP4 PUSH2 0x1074 JUMP JUMPDEST SWAP3 POP DUP3 DUP3 MUL PUSH2 0x184B DUP2 PUSH2 0x1074 JUMP JUMPDEST SWAP2 POP DUP3 DUP3 DIV DUP5 EQ DUP4 ISZERO OR PUSH2 0x1862 JUMPI PUSH2 0x1861 PUSH2 0x1574 JUMP JUMPDEST JUMPDEST POP SWAP3 SWAP2 POP POP JUMP JUMPDEST PUSH32 0x4E487B7100000000000000000000000000000000000000000000000000000000 PUSH0 MSTORE PUSH1 0x12 PUSH1 0x4 MSTORE PUSH1 0x24 PUSH0 REVERT JUMPDEST PUSH0 PUSH2 0x18A0 DUP3 PUSH2 0x1074 JUMP JUMPDEST SWAP2 POP PUSH2 0x18AB DUP4 PUSH2 0x1074 JUMP JUMPDEST SWAP3 POP DUP3 PUSH2 0x18BB JUMPI PUSH2 0x18BA PUSH2 0x1869 JUMP JUMPDEST JUMPDEST DUP3 DUP3 DIV SWAP1 POP SWAP3 SWAP2 POP POP JUMP JUMPDEST PUSH32 0x4F6E6C792050726F6A6563742063726561746F722063616E20657874656E6420 PUSH0 DUP3 ADD MSTORE PUSH32 0x74686520646561646C696E652121000000000000000000000000000000000000 PUSH1 0x20 DUP3 ADD MSTORE POP JUMP JUMPDEST PUSH0 PUSH2 0x1920 PUSH1 0x2E DUP4 PUSH2 0x118F JUMP JUMPDEST SWAP2 POP PUSH2 0x192B DUP3 PUSH2 0x18C6 JUMP JUMPDEST PUSH1 0x40 DUP3 ADD SWAP1 POP SWAP2 SWAP1 POP JUMP JUMPDEST PUSH0 PUSH1 0x20 DUP3 ADD SWAP1 POP DUP2 DUP2 SUB PUSH0 DUP4 ADD MSTORE PUSH2 0x194D DUP2 PUSH2 0x1914 JUMP JUMPDEST SWAP1 POP SWAP2 SWAP1 POP JUMP JUMPDEST PUSH0 PUSH2 0x195E DUP3 PUSH2 0x1074 JUMP JUMPDEST SWAP2 POP PUSH2 0x1969 DUP4 PUSH2 0x1074 JUMP JUMPDEST SWAP3 POP DUP3 DUP3 ADD SWAP1 POP DUP1 DUP3 GT ISZERO PUSH2 0x1981 JUMPI PUSH2 0x1980 PUSH2 0x1574 JUMP JUMPDEST JUMPDEST SWAP3 SWAP2 POP POP JUMP JUMPDEST PUSH32 0x50726F6A65637420646561646C696E65206973206F7665722100000000000000 PUSH0 DUP3 ADD MSTORE POP JUMP JUMPDEST PUSH0 PUSH2 0x19BB PUSH1 0x19 DUP4 PUSH2 0x118F JUMP JUMPDEST SWAP2 POP PUSH2 0x19C6 DUP3 PUSH2 0x1987 JUMP JUMPDEST PUSH1 0x20 DUP3 ADD SWAP1 POP SWAP2 SWAP1 POP JUMP JUMPDEST PUSH0 PUSH1 0x20 DUP3 ADD SWAP1 POP DUP2 DUP2 SUB PUSH0 DUP4 ADD MSTORE PUSH2 0x19E8 DUP2 PUSH2 0x19AF JUMP JUMPDEST SWAP1 POP SWAP2 SWAP1 POP JUMP JUMPDEST PUSH32 0x50726F6A6563742052656163686564206974732046756E64696E672072657175 PUSH0 DUP3 ADD MSTORE PUSH32 0x6972656D656E7400000000000000000000000000000000000000000000000000 PUSH1 0x20 DUP3 ADD MSTORE POP JUMP JUMPDEST PUSH0 PUSH2 0x1A49 PUSH1 0x27 DUP4 PUSH2 0x118F JUMP JUMPDEST SWAP2 POP PUSH2 0x1A54 DUP3 PUSH2 0x19EF JUMP JUMPDEST PUSH1 0x40 DUP3 ADD SWAP1 POP SWAP2 SWAP1 POP JUMP JUMPDEST PUSH0 PUSH1 0x20 DUP3 ADD SWAP1 POP DUP2 DUP2 SUB PUSH0 DUP4 ADD MSTORE PUSH2 0x1A76 DUP2 PUSH2 0x1A3D JUMP JUMPDEST SWAP1 POP SWAP2 SWAP1 POP JUMP JUMPDEST PUSH32 0x73656E6420736F6D6520657468657220746F20636F6E7472696275746520696E PUSH0 DUP3 ADD MSTORE PUSH32 0x207468652070726F6A6563740000000000000000000000000000000000000000 PUSH1 0x20 DUP3 ADD MSTORE POP JUMP JUMPDEST PUSH0 PUSH2 0x1AD7 PUSH1 0x2C DUP4 PUSH2 0x118F JUMP JUMPDEST SWAP2 POP PUSH2 0x1AE2 DUP3 PUSH2 0x1A7D JUMP JUMPDEST PUSH1 0x40 DUP3 ADD SWAP1 POP SWAP2 SWAP1 POP JUMP JUMPDEST PUSH0 PUSH1 0x20 DUP3 ADD SWAP1 POP DUP2 DUP2 SUB PUSH0 DUP4 ADD MSTORE PUSH2 0x1B04 DUP2 PUSH2 0x1ACB JUMP JUMPDEST SWAP1 POP SWAP2 SWAP1 POP JUMP JUMPDEST PUSH32 0x416D6F756E7420436F6E7472696275746564206973206D6F7265207468616E20 PUSH0 DUP3 ADD MSTORE PUSH32 0x476F616C00000000000000000000000000000000000000000000000000000000 PUSH1 0x20 DUP3 ADD MSTORE POP JUMP JUMPDEST PUSH0 PUSH2 0x1B65 PUSH1 0x24 DUP4 PUSH2 0x118F JUMP JUMPDEST SWAP2 POP PUSH2 0x1B70 DUP3 PUSH2 0x1B0B JUMP JUMPDEST PUSH1 0x40 DUP3 ADD SWAP1 POP SWAP2 SWAP1 POP JUMP JUMPDEST PUSH0 PUSH1 0x20 DUP3 ADD SWAP1 POP DUP2 DUP2 SUB PUSH0 DUP4 ADD MSTORE PUSH2 0x1B92 DUP2 PUSH2 0x1B59 JUMP JUMPDEST SWAP1 POP SWAP2 SWAP1 POP JUMP JUMPDEST PUSH0 DUP2 SWAP1 POP SWAP3 SWAP2 POP POP JUMP JUMPDEST POP JUMP JUMPDEST PUSH0 PUSH2 0x1BB1 PUSH0 DUP4 PUSH2 0x1B99 JUMP JUMPDEST SWAP2 POP PUSH2 0x1BBC DUP3 PUSH2 0x1BA3 JUMP JUMPDEST PUSH0 DUP3 ADD SWAP1 POP SWAP2 SWAP1 POP JUMP JUMPDEST PUSH0 PUSH2 0x1BD0 DUP3 PUSH2 0x1BA6 JUMP JUMPDEST SWAP2 POP DUP2 SWAP1 POP SWAP2 SWAP1 POP JUMP JUMPDEST PUSH32 0x526566756E64204661696C656400000000000000000000000000000000000000 PUSH0 DUP3 ADD MSTORE POP JUMP JUMPDEST PUSH0 PUSH2 0x1C0E PUSH1 0xD DUP4 PUSH2 0x118F JUMP JUMPDEST SWAP2 POP PUSH2 0x1C19 DUP3 PUSH2 0x1BDA JUMP JUMPDEST PUSH1 0x20 DUP3 ADD SWAP1 POP SWAP2 SWAP1 POP JUMP JUMPDEST PUSH0 PUSH1 0x20 DUP3 ADD SWAP1 POP DUP2 DUP2 SUB PUSH0 DUP4 ADD MSTORE PUSH2 0x1C3B DUP2 PUSH2 0x1C02 JUMP JUMPDEST SWAP1 POP SWAP2 SWAP1 POP JUMP JUMPDEST PUSH0 PUSH1 0x60 DUP3 ADD SWAP1 POP PUSH2 0x1C55 PUSH0 DUP4 ADD DUP7 PUSH2 0x1176 JUMP JUMPDEST PUSH2 0x1C62 PUSH1 0x20 DUP4 ADD DUP6 PUSH2 0x10D2 JUMP JUMPDEST PUSH2 0x1C6F PUSH1 0x40 DUP4 ADD DUP5 PUSH2 0x10D2 JUMP JUMPDEST SWAP5 SWAP4 POP POP POP POP JUMP JUMPDEST PUSH32 0x66756E64696E6720676F616C20686173206E6F742072656163686564202C2061 PUSH0 DUP3 ADD MSTORE PUSH32 0x646D696E2063616E277420776974686472617700000000000000000000000000 PUSH1 0x20 DUP3 ADD MSTORE POP JUMP JUMPDEST PUSH0 PUSH2 0x1CD1 PUSH1 0x33 DUP4 PUSH2 0x118F JUMP JUMPDEST SWAP2 POP PUSH2 0x1CDC DUP3 PUSH2 0x1C77 JUMP JUMPDEST PUSH1 0x40 DUP3 ADD SWAP1 POP SWAP2 SWAP1 POP JUMP JUMPDEST PUSH0 PUSH1 0x20 DUP3 ADD SWAP1 POP DUP2 DUP2 SUB PUSH0 DUP4 ADD MSTORE PUSH2 0x1CFE DUP2 PUSH2 0x1CC5 JUMP JUMPDEST SWAP1 POP SWAP2 SWAP1 POP JUMP JUMPDEST PUSH32 0x6F6E6C792061646D696E2063616E207769746864726177000000000000000000 PUSH0 DUP3 ADD MSTORE POP JUMP JUMPDEST PUSH0 PUSH2 0x1D39 PUSH1 0x17 DUP4 PUSH2 0x118F JUMP JUMPDEST SWAP2 POP PUSH2 0x1D44 DUP3 PUSH2 0x1D05 JUMP JUMPDEST PUSH1 0x20 DUP3 ADD SWAP1 POP SWAP2 SWAP1 POP JUMP JUMPDEST PUSH0 PUSH1 0x20 DUP3 ADD SWAP1 POP DUP2 DUP2 SUB PUSH0 DUP4 ADD MSTORE PUSH2 0x1D66 DUP2 PUSH2 0x1D2D JUMP JUMPDEST SWAP1 POP SWAP2 SWAP1 POP JUMP JUMPDEST PUSH32 0x646561646C696E6520686173206E6F742072656163686564202C2061646D696E PUSH0 DUP3 ADD MSTORE PUSH32 0x2063616E27742077697468647261770000000000000000000000000000000000 PUSH1 0x20 DUP3 ADD MSTORE POP JUMP JUMPDEST PUSH0 PUSH2 0x1DC7 PUSH1 0x2F DUP4 PUSH2 0x118F JUMP JUMPDEST SWAP2 POP PUSH2 0x1DD2 DUP3 PUSH2 0x1D6D JUMP JUMPDEST PUSH1 0x40 DUP3 ADD SWAP1 POP SWAP2 SWAP1 POP JUMP JUMPDEST PUSH0 PUSH1 0x20 DUP3 ADD SWAP1 POP DUP2 DUP2 SUB PUSH0 DUP4 ADD MSTORE PUSH2 0x1DF4 DUP2 PUSH2 0x1DBB JUMP JUMPDEST SWAP1 POP SWAP2 SWAP1 POP JUMP JUMPDEST PUSH32 0x50726F6A65637420494420697320616C726561647920696E2075736521000000 PUSH0 DUP3 ADD MSTORE POP JUMP JUMPDEST PUSH0 PUSH2 0x1E2F PUSH1 0x1D DUP4 PUSH2 0x118F JUMP JUMPDEST SWAP2 POP PUSH2 0x1E3A DUP3 PUSH2 0x1DFB JUMP JUMPDEST PUSH1 0x20 DUP3 ADD SWAP1 POP SWAP2 SWAP1 POP JUMP JUMPDEST PUSH0 PUSH1 0x20 DUP3 ADD SWAP1 POP DUP2 DUP2 SUB PUSH0 DUP4 ADD MSTORE PUSH2 0x1E5C DUP2 PUSH2 0x1E23 JUMP JUMPDEST SWAP1 POP SWAP2 SWAP1 POP JUMP JUMPDEST PUSH0 DUP2 SWAP1 POP DUP2 PUSH0 MSTORE PUSH1 0x20 PUSH0 KECCAK256 SWAP1 POP SWAP2 SWAP1 POP JUMP JUMPDEST PUSH0 PUSH1 0x20 PUSH1 0x1F DUP4 ADD DIV SWAP1 POP SWAP2 SWAP1 POP JUMP JUMPDEST PUSH0 DUP3 DUP3 SHL SWAP1 POP SWAP3 SWAP2 POP POP JUMP JUMPDEST PUSH0 PUSH1 0x8 DUP4 MUL PUSH2 0x1EBF PUSH32 0xFFFFFFFFFFFFFFFFFFFFFFFFFFFFFFFFFFFFFFFFFFFFFFFFFFFFFFFFFFFFFFFF DUP3 PUSH2 0x1E84 JUMP JUMPDEST PUSH2 0x1EC9 DUP7 DUP4 PUSH2 0x1E84 JUMP JUMPDEST SWAP6 POP DUP1 NOT DUP5 AND SWAP4 POP DUP1 DUP7 AND DUP5 OR SWAP3 POP POP POP SWAP4 SWAP3 POP POP POP JUMP JUMPDEST PUSH0 DUP2 SWAP1 POP SWAP2 SWAP1 POP JUMP JUMPDEST PUSH0 PUSH2 0x1F04 PUSH2 0x1EFF PUSH2 0x1EFA DUP5 PUSH2 0x1074 JUMP JUMPDEST PUSH2 0x1EE1 JUMP JUMPDEST PUSH2 0x1074 JUMP JUMPDEST SWAP1 POP SWAP2 SWAP1 POP JUMP JUMPDEST PUSH0 DUP2 SWAP1 POP SWAP2 SWAP1 POP JUMP JUMPDEST PUSH2 0x1F1D DUP4 PUSH2 0x1EEA JUMP JUMPDEST PUSH2 0x1F31 PUSH2 0x1F29 DUP3 PUSH2 0x1F0B JUMP JUMPDEST DUP5 DUP5 SLOAD PUSH2 0x1E90 JUMP JUMPDEST DUP3 SSTORE POP POP POP POP JUMP JUMPDEST PUSH0 PUSH0 SWAP1 POP SWAP1 JUMP JUMPDEST PUSH2 0x1F48 PUSH2 0x1F39 JUMP JUMPDEST PUSH2 0x1F53 DUP2 DUP5 DUP5 PUSH2 0x1F14 JUMP JUMPDEST POP POP POP JUMP JUMPDEST JUMPDEST DUP2 DUP2 LT ISZERO PUSH2 0x1F76 JUMPI PUSH2 0x1F6B PUSH0 DUP3 PUSH2 0x1F40 JUMP JUMPDEST PUSH1 0x1 DUP2 ADD SWAP1 POP PUSH2 0x1F59 JUMP JUMPDEST POP POP JUMP JUMPDEST PUSH1 0x1F DUP3 GT ISZERO PUSH2 0x1FBB JUMPI PUSH2 0x1F8C DUP2 PUSH2 0x1E63 JUMP JUMPDEST PUSH2 0x1F95 DUP5 PUSH2 0x1E75 JUMP JUMPDEST DUP2 ADD PUSH1 0x20 DUP6 LT ISZERO PUSH2 0x1FA4 JUMPI DUP2 SWAP1 POP JUMPDEST PUSH2 0x1FB8 PUSH2 0x1FB0 DUP6 PUSH2 0x1E75 JUMP JUMPDEST DUP4 ADD DUP3 PUSH2 0x1F58 JUMP JUMPDEST POP POP JUMPDEST POP POP POP JUMP JUMPDEST PUSH0 DUP3 DUP3 SHR SWAP1 POP SWAP3 SWAP2 POP POP JUMP JUMPDEST PUSH0 PUSH2 0x1FDB PUSH0 NOT DUP5 PUSH1 0x8 MUL PUSH2 0x1FC0 JUMP JUMPDEST NOT DUP1 DUP4 AND SWAP2 POP POP SWAP3 SWAP2 POP POP JUMP JUMPDEST PUSH0 PUSH2 0x1FF3 DUP4 DUP4 PUSH2 0x1FCC JUMP JUMPDEST SWAP2 POP DUP3 PUSH1 0x2 MUL DUP3 OR SWAP1 POP SWAP3 SWAP2 POP POP JUMP JUMPDEST PUSH2 0x200C DUP3 PUSH2 0x1185 JUMP JUMPDEST PUSH8 0xFFFFFFFFFFFFFFFF DUP2 GT ISZERO PUSH2 0x2025 JUMPI PUSH2 0x2024 PUSH2 0x1313 JUMP JUMPDEST JUMPDEST PUSH2 0x202F DUP3 SLOAD PUSH2 0x1743 JUMP JUMPDEST PUSH2 0x203A DUP3 DUP3 DUP6 PUSH2 0x1F7A JUMP JUMPDEST PUSH0 PUSH1 0x20 SWAP1 POP PUSH1 0x1F DUP4 GT PUSH1 0x1 DUP2 EQ PUSH2 0x206B JUMPI PUSH0 DUP5 ISZERO PUSH2 0x2059 JUMPI DUP3 DUP8 ADD MLOAD SWAP1 POP JUMPDEST PUSH2 0x2063 DUP6 DUP3 PUSH2 0x1FE8 JUMP JUMPDEST DUP7 SSTORE POP PUSH2 0x20CA JUMP JUMPDEST PUSH1 0x1F NOT DUP5 AND PUSH2 0x2079 DUP7 PUSH2 0x1E63 JUMP JUMPDEST PUSH0 JUMPDEST DUP3 DUP2 LT ISZERO PUSH2 0x20A0 JUMPI DUP5 DUP10 ADD MLOAD DUP3 SSTORE PUSH1 0x1 DUP3 ADD SWAP2 POP PUSH1 0x20 DUP6 ADD SWAP5 POP PUSH1 0x20 DUP2 ADD SWAP1 POP PUSH2 0x207B JUMP JUMPDEST DUP7 DUP4 LT ISZERO PUSH2 0x20BD JUMPI DUP5 DUP10 ADD MLOAD PUSH2 0x20B9 PUSH1 0x1F DUP10 AND DUP3 PUSH2 0x1FCC JUMP JUMPDEST DUP4 SSTORE POP JUMPDEST PUSH1 0x1 PUSH1 0x2 DUP9 MUL ADD DUP9 SSTORE POP POP POP JUMPDEST POP POP POP POP POP POP JUMP JUMPDEST PUSH0 PUSH2 0x20DC DUP3 PUSH2 0x1074 JUMP JUMPDEST SWAP2 POP PUSH32 0xFFFFFFFFFFFFFFFFFFFFFFFFFFFFFFFFFFFFFFFFFFFFFFFFFFFFFFFFFFFFFFFF DUP3 SUB PUSH2 0x210E JUMPI PUSH2 0x210D PUSH2 0x1574 JUMP JUMPDEST JUMPDEST PUSH1 0x1 DUP3 ADD SWAP1 POP SWAP2 SWAP1 POP JUMP JUMPDEST PUSH0 PUSH1 0x80 DUP3 ADD SWAP1 POP DUP2 DUP2 SUB PUSH0 DUP4 ADD MSTORE PUSH2 0x2131 DUP2 DUP8 PUSH2 0x11BD JUMP JUMPDEST SWAP1 POP DUP2 DUP2 SUB PUSH1 0x20 DUP4 ADD MSTORE PUSH2 0x2145 DUP2 DUP7 PUSH2 0x11BD JUMP JUMPDEST SWAP1 POP PUSH2 0x2154 PUSH1 0x40 DUP4 ADD DUP6 PUSH2 0x10D2 JUMP JUMPDEST PUSH2 0x2161 PUSH1 0x60 DUP4 ADD DUP5 PUSH2 0x10D2 JUMP JUMPDEST SWAP6 SWAP5 POP POP POP POP POP JUMP INVALID LOG2 PUSH5 0x6970667358 0x22 SLT KECCAK256 0xC3 SUB DUP10 ADDMOD BYTE PUSH13 0x4B5FC05B3255D2C6B1A5BD30D5 BASEFEE TLOAD EXP MSTORE8 0xD9 PUSH21 0x7203D22094190864736F6C634300081E0033000000 "
				},
				"gasEstimates": {
					"creation": {
						"codeDepositCost": "1721600",
						"executionCost": "23917",
						"totalCost": "1745517"
					},
					"external": {
						"Change_FundingGoal(uint256,uint256)": "infinite",
						"Contributions(uint256,address)": "infinite",
						"Extend_Deadline(uint256,uint256)": "infinite",
						"Funding_Raised_Percentage(uint256)": "infinite",
						"Get_Total_Raised_Funding()": "2455",
						"Projects(uint256)": "infinite",
						"Remaining_Fund(uint256)": "infinite",
						"Time_Left(uint256)": "infinite",
						"TotalProjects()": "2491",
						"createProject(string,string,uint256,uint256,uint256)": "infinite",
						"creatorWithdraw(uint256)": "infinite",
						"fundProject(uint256)": "infinite",
						"userWithdraw(uint256)": "infinite"
					}
				},
				"methodIdentifiers": {
					"Change_FundingGoal(uint256,uint256)": "1392ebfe",
					"Contributions(uint256,address)": "5d4e5d78",
					"Extend_Deadline(uint256,uint256)": "629b2647",
					"Funding_Raised_Percentage(uint256)": "42d844a5",
					"Get_Total_Raised_Funding()": "54a5bcc5",
					"Projects(uint256)": "21b2416c",
					"Remaining_Fund(uint256)": "0dbac135",
					"Time_Left(uint256)": "370c36b4",
					"TotalProjects()": "9ab761c7",
					"createProject(string,string,uint256,uint256,uint256)": "f81bf601",
					"creatorWithdraw(uint256)": "71eb89f3",
					"fundProject(uint256)": "6c563abe",
					"userWithdraw(uint256)": "3b9056bf"
				}
			},
			"storageLayout": {
				"storage": [
					{
						"astId": 10,
						"contract": "CROWD_TANK/contracts/CrowdTank.sol:CrowdTank",
						"label": "_status",
						"offset": 0,
						"slot": "0",
						"type": "t_uint256"
					},
					{
						"astId": 75,
						"contract": "CROWD_TANK/contracts/CrowdTank.sol:CrowdTank",
						"label": "TotalRaisedFunding",
						"offset": 0,
						"slot": "1",
						"type": "t_uint256"
					},
					{
						"astId": 77,
						"contract": "CROWD_TANK/contracts/CrowdTank.sol:CrowdTank",
						"label": "TotalProjects",
						"offset": 0,
						"slot": "2",
						"type": "t_uint256"
					},
					{
						"astId": 97,
						"contract": "CROWD_TANK/contracts/CrowdTank.sol:CrowdTank",
						"label": "Projects",
						"offset": 0,
						"slot": "3",
						"type": "t_mapping(t_uint256,t_struct(project)92_storage)"
					},
					{
						"astId": 103,
						"contract": "CROWD_TANK/contracts/CrowdTank.sol:CrowdTank",
						"label": "Contributions",
						"offset": 0,
						"slot": "4",
						"type": "t_mapping(t_uint256,t_mapping(t_address,t_uint256))"
					},
					{
						"astId": 107,
						"contract": "CROWD_TANK/contracts/CrowdTank.sol:CrowdTank",
						"label": "isIdUsed",
						"offset": 0,
						"slot": "5",
						"type": "t_mapping(t_uint256,t_bool)"
					}
				],
				"types": {
					"t_address": {
						"encoding": "inplace",
						"label": "address",
						"numberOfBytes": "20"
					},
					"t_bool": {
						"encoding": "inplace",
						"label": "bool",
						"numberOfBytes": "1"
					},
					"t_mapping(t_address,t_uint256)": {
						"encoding": "mapping",
						"key": "t_address",
						"label": "mapping(address => uint256)",
						"numberOfBytes": "32",
						"value": "t_uint256"
					},
					"t_mapping(t_uint256,t_bool)": {
						"encoding": "mapping",
						"key": "t_uint256",
						"label": "mapping(uint256 => bool)",
						"numberOfBytes": "32",
						"value": "t_bool"
					},
					"t_mapping(t_uint256,t_mapping(t_address,t_uint256))": {
						"encoding": "mapping",
						"key": "t_uint256",
						"label": "mapping(uint256 => mapping(address => uint256))",
						"numberOfBytes": "32",
						"value": "t_mapping(t_address,t_uint256)"
					},
					"t_mapping(t_uint256,t_struct(project)92_storage)": {
						"encoding": "mapping",
						"key": "t_uint256",
						"label": "mapping(uint256 => struct CrowdTank.project)",
						"numberOfBytes": "32",
						"value": "t_struct(project)92_storage"
					},
					"t_string_storage": {
						"encoding": "bytes",
						"label": "string",
						"numberOfBytes": "32"
					},
					"t_struct(project)92_storage": {
						"encoding": "inplace",
						"label": "struct CrowdTank.project",
						"members": [
							{
								"astId": 79,
								"contract": "CROWD_TANK/contracts/CrowdTank.sol:CrowdTank",
								"label": "creator",
								"offset": 0,
								"slot": "0",
								"type": "t_address"
							},
							{
								"astId": 81,
								"contract": "CROWD_TANK/contracts/CrowdTank.sol:CrowdTank",
								"label": "name",
								"offset": 0,
								"slot": "1",
								"type": "t_string_storage"
							},
							{
								"astId": 83,
								"contract": "CROWD_TANK/contracts/CrowdTank.sol:CrowdTank",
								"label": "description",
								"offset": 0,
								"slot": "2",
								"type": "t_string_storage"
							},
							{
								"astId": 85,
								"contract": "CROWD_TANK/contracts/CrowdTank.sol:CrowdTank",
								"label": "fundingGoal",
								"offset": 0,
								"slot": "3",
								"type": "t_uint256"
							},
							{
								"astId": 87,
								"contract": "CROWD_TANK/contracts/CrowdTank.sol:CrowdTank",
								"label": "deadline",
								"offset": 0,
								"slot": "4",
								"type": "t_uint256"
							},
							{
								"astId": 89,
								"contract": "CROWD_TANK/contracts/CrowdTank.sol:CrowdTank",
								"label": "amountRaised",
								"offset": 0,
								"slot": "5",
								"type": "t_uint256"
							},
							{
								"astId": 91,
								"contract": "CROWD_TANK/contracts/CrowdTank.sol:CrowdTank",
								"label": "funded",
								"offset": 0,
								"slot": "6",
								"type": "t_bool"
							}
						],
						"numberOfBytes": "224"
					},
					"t_uint256": {
						"encoding": "inplace",
						"label": "uint256",
						"numberOfBytes": "32"
					}
				}
			},
			"userdoc": {
				"kind": "user",
				"methods": {},
				"version": 1
			}
		}
	}
}