{
	"contracts/CrowdTank.sol": {
		"CrowdTank": {
			"abi": [
				{
					"anonymous": false,
					"inputs": [
						{
							"indexed": true,
							"internalType": "uint256",
							"name": "projectID",
							"type": "uint256"
						},
						{
							"indexed": true,
							"internalType": "address",
							"name": "creator",
							"type": "address"
						},
						{
							"indexed": false,
							"internalType": "string",
							"name": "name",
							"type": "string"
						},
						{
							"indexed": false,
							"internalType": "string",
							"name": "description",
							"type": "string"
						},
						{
							"indexed": false,
							"internalType": "uint256",
							"name": "fundingGoal",
							"type": "uint256"
						},
						{
							"indexed": false,
							"internalType": "uint256",
							"name": "deadline",
							"type": "uint256"
						}
					],
					"name": "ProjectCreated",
					"type": "event"
				},
				{
					"anonymous": false,
					"inputs": [
						{
							"indexed": true,
							"internalType": "uint256",
							"name": "projectID",
							"type": "uint256"
						},
						{
							"indexed": false,
							"internalType": "address",
							"name": "contributor",
							"type": "address"
						},
						{
							"indexed": false,
							"internalType": "uint256",
							"name": "amount",
							"type": "uint256"
						}
					],
					"name": "funded",
					"type": "event"
				},
				{
					"anonymous": false,
					"inputs": [
						{
							"indexed": true,
							"internalType": "uint256",
							"name": "projectID",
							"type": "uint256"
						},
						{
							"indexed": false,
							"internalType": "address",
							"name": "withdrawer",
							"type": "address"
						},
						{
							"indexed": false,
							"internalType": "uint256",
							"name": "amount",
							"type": "uint256"
						},
						{
							"indexed": false,
							"internalType": "string",
							"name": "withdrawerType",
							"type": "string"
						}
					],
					"name": "fundsWithdrawn",
					"type": "event"
				},
				{
					"inputs": [
						{
							"internalType": "uint256",
							"name": "",
							"type": "uint256"
						},
						{
							"internalType": "address",
							"name": "",
							"type": "address"
						}
					],
					"name": "Contributions",
					"outputs": [
						{
							"internalType": "uint256",
							"name": "",
							"type": "uint256"
						}
					],
					"stateMutability": "view",
					"type": "function"
				},
				{
					"inputs": [],
					"name": "Get_Total_Raised_Funding",
					"outputs": [
						{
							"internalType": "uint256",
							"name": "",
							"type": "uint256"
						}
					],
					"stateMutability": "view",
					"type": "function"
				},
				{
					"inputs": [
						{
							"internalType": "uint256",
							"name": "",
							"type": "uint256"
						}
					],
					"name": "Projects",
					"outputs": [
						{
							"internalType": "address",
							"name": "creator",
							"type": "address"
						},
						{
							"internalType": "string",
							"name": "name",
							"type": "string"
						},
						{
							"internalType": "string",
							"name": "description",
							"type": "string"
						},
						{
							"internalType": "uint256",
							"name": "fundingGoal",
							"type": "uint256"
						},
						{
							"internalType": "uint256",
							"name": "deadline",
							"type": "uint256"
						},
						{
							"internalType": "uint256",
							"name": "amountRaised",
							"type": "uint256"
						},
						{
							"internalType": "bool",
							"name": "funded",
							"type": "bool"
						}
					],
					"stateMutability": "view",
					"type": "function"
				},
				{
					"inputs": [
						{
							"internalType": "uint256",
							"name": "projectID",
							"type": "uint256"
						}
					],
					"name": "Time_Left",
					"outputs": [
						{
							"internalType": "uint256",
							"name": "",
							"type": "uint256"
						}
					],
					"stateMutability": "view",
					"type": "function"
				},
				{
					"inputs": [
						{
							"internalType": "string",
							"name": "_name",
							"type": "string"
						},
						{
							"internalType": "string",
							"name": "_description",
							"type": "string"
						},
						{
							"internalType": "uint256",
							"name": "_fundingGoal",
							"type": "uint256"
						},
						{
							"internalType": "uint256",
							"name": "_durationSeconds",
							"type": "uint256"
						},
						{
							"internalType": "uint256",
							"name": "_id",
							"type": "uint256"
						}
					],
					"name": "createProject",
					"outputs": [],
					"stateMutability": "nonpayable",
					"type": "function"
				},
				{
					"inputs": [
						{
							"internalType": "uint256",
							"name": "_projectID",
							"type": "uint256"
						}
					],
					"name": "creatorWithdraw",
					"outputs": [],
					"stateMutability": "payable",
					"type": "function"
				},
				{
					"inputs": [
						{
							"internalType": "uint256",
							"name": "_projectID",
							"type": "uint256"
						}
					],
					"name": "fundProject",
					"outputs": [],
					"stateMutability": "payable",
					"type": "function"
				},
				{
					"inputs": [
						{
							"internalType": "uint256",
							"name": "_projectID",
							"type": "uint256"
						}
					],
					"name": "userWithdraw",
					"outputs": [],
					"stateMutability": "payable",
					"type": "function"
				}
			],
			"devdoc": {
				"kind": "dev",
				"methods": {},
				"version": 1
			},
			"evm": {
				"assembly": "    /* \"contracts/CrowdTank.sol\":121:4103  contract CrowdTank {... */\n  mstore(0x40, 0x80)\n  callvalue\n  dup1\n  iszero\n  tag_1\n  jumpi\n  revert(0x00, 0x00)\ntag_1:\n  pop\n  dataSize(sub_0)\n  dup1\n  dataOffset(sub_0)\n  0x00\n  codecopy\n  0x00\n  return\nstop\n\nsub_0: assembly {\n        /* \"contracts/CrowdTank.sol\":121:4103  contract CrowdTank {... */\n      mstore(0x40, 0x80)\n      jumpi(tag_1, lt(calldatasize, 0x04))\n      shr(0xe0, calldataload(0x00))\n      dup1\n      0x5d4e5d78\n      gt\n      tag_10\n      jumpi\n      dup1\n      0x5d4e5d78\n      eq\n      tag_6\n      jumpi\n      dup1\n      0x6c563abe\n      eq\n      tag_7\n      jumpi\n      dup1\n      0x71eb89f3\n      eq\n      tag_8\n      jumpi\n      dup1\n      0xf81bf601\n      eq\n      tag_9\n      jumpi\n      jump(tag_1)\n    tag_10:\n      dup1\n      0x21b2416c\n      eq\n      tag_2\n      jumpi\n      dup1\n      0x370c36b4\n      eq\n      tag_3\n      jumpi\n      dup1\n      0x3b9056bf\n      eq\n      tag_4\n      jumpi\n      dup1\n      0x54a5bcc5\n      eq\n      tag_5\n      jumpi\n    tag_1:\n      revert(0x00, 0x00)\n        /* \"contracts/CrowdTank.sol\":530:571  mapping (uint => project) public Projects */\n    tag_2:\n      callvalue\n      dup1\n      iszero\n      tag_11\n      jumpi\n      revert(0x00, 0x00)\n    tag_11:\n      pop\n      tag_12\n      0x04\n      dup1\n      calldatasize\n      sub\n      dup2\n      add\n      swap1\n      tag_13\n      swap2\n      swap1\n      tag_14\n      jump\t// in\n    tag_13:\n      tag_15\n      jump\t// in\n    tag_12:\n      mload(0x40)\n      tag_16\n      swap8\n      swap7\n      swap6\n      swap5\n      swap4\n      swap3\n      swap2\n      swap1\n      tag_17\n      jump\t// in\n    tag_16:\n      mload(0x40)\n      dup1\n      swap2\n      sub\n      swap1\n      return\n        /* \"contracts/CrowdTank.sol\":3804:4094  function Time_Left(uint projectID) view public returns(uint) {... */\n    tag_3:\n      callvalue\n      dup1\n      iszero\n      tag_18\n      jumpi\n      revert(0x00, 0x00)\n    tag_18:\n      pop\n      tag_19\n      0x04\n      dup1\n      calldatasize\n      sub\n      dup2\n      add\n      swap1\n      tag_20\n      swap2\n      swap1\n      tag_14\n      jump\t// in\n    tag_20:\n      tag_21\n      jump\t// in\n    tag_19:\n      mload(0x40)\n      tag_22\n      swap2\n      swap1\n      tag_23\n      jump\t// in\n    tag_22:\n      mload(0x40)\n      dup1\n      swap2\n      sub\n      swap1\n      return\n        /* \"contracts/CrowdTank.sol\":2821:3182  function userWithdraw(uint _projectID) external payable {... */\n    tag_4:\n      tag_24\n      0x04\n      dup1\n      calldatasize\n      sub\n      dup2\n      add\n      swap1\n      tag_25\n      swap2\n      swap1\n      tag_14\n      jump\t// in\n    tag_25:\n      tag_26\n      jump\t// in\n    tag_24:\n      stop\n        /* \"contracts/CrowdTank.sol\":2675:2781  function Get_Total_Raised_Funding() view public returns(uint) {... */\n    tag_5:\n      callvalue\n      dup1\n      iszero\n      tag_27\n      jumpi\n      revert(0x00, 0x00)\n    tag_27:\n      pop\n      tag_28\n      tag_29\n      jump\t// in\n    tag_28:\n      mload(0x40)\n      tag_30\n      swap2\n      swap1\n      tag_23\n      jump\t// in\n    tag_30:\n      mload(0x40)\n      dup1\n      swap2\n      sub\n      swap1\n      return\n        /* \"contracts/CrowdTank.sol\":630:694  mapping (uint => mapping (address => uint)) public Contributions */\n    tag_6:\n      callvalue\n      dup1\n      iszero\n      tag_31\n      jumpi\n      revert(0x00, 0x00)\n    tag_31:\n      pop\n      tag_32\n      0x04\n      dup1\n      calldatasize\n      sub\n      dup2\n      add\n      swap1\n      tag_33\n      swap2\n      swap1\n      tag_34\n      jump\t// in\n    tag_33:\n      tag_35\n      jump\t// in\n    tag_32:\n      mload(0x40)\n      tag_36\n      swap2\n      swap1\n      tag_23\n      jump\t// in\n    tag_36:\n      mload(0x40)\n      dup1\n      swap2\n      sub\n      swap1\n      return\n        /* \"contracts/CrowdTank.sol\":1924:2634  function fundProject(uint _projectID) external payable {... */\n    tag_7:\n      tag_37\n      0x04\n      dup1\n      calldatasize\n      sub\n      dup2\n      add\n      swap1\n      tag_38\n      swap2\n      swap1\n      tag_14\n      jump\t// in\n    tag_38:\n      tag_39\n      jump\t// in\n    tag_37:\n      stop\n        /* \"contracts/CrowdTank.sol\":3234:3734  function creatorWithdraw(uint _projectID) external payable {... */\n    tag_8:\n      tag_40\n      0x04\n      dup1\n      calldatasize\n      sub\n      dup2\n      add\n      swap1\n      tag_41\n      swap2\n      swap1\n      tag_14\n      jump\t// in\n    tag_41:\n      tag_42\n      jump\t// in\n    tag_40:\n      stop\n        /* \"contracts/CrowdTank.sol\":1195:1863  function createProject(string memory _name , string memory _description , uint _fundingGoal , uint _durationSeconds , uint _id) external {... */\n    tag_9:\n      callvalue\n      dup1\n      iszero\n      tag_43\n      jumpi\n      revert(0x00, 0x00)\n    tag_43:\n      pop\n      tag_44\n      0x04\n      dup1\n      calldatasize\n      sub\n      dup2\n      add\n      swap1\n      tag_45\n      swap2\n      swap1\n      tag_46\n      jump\t// in\n    tag_45:\n      tag_47\n      jump\t// in\n    tag_44:\n      stop\n        /* \"contracts/CrowdTank.sol\":530:571  mapping (uint => project) public Projects */\n    tag_15:\n      mstore(0x20, 0x01)\n      dup1\n      0x00\n      mstore\n      keccak256(0x00, 0x40)\n      0x00\n      swap2\n      pop\n      swap1\n      pop\n      dup1\n      0x00\n      add\n      0x00\n      swap1\n      sload\n      swap1\n      0x0100\n      exp\n      swap1\n      div\n      0xffffffffffffffffffffffffffffffffffffffff\n      and\n      swap1\n      dup1\n      0x01\n      add\n      dup1\n      sload\n      tag_48\n      swap1\n      tag_49\n      jump\t// in\n    tag_48:\n      dup1\n      0x1f\n      add\n      0x20\n      dup1\n      swap2\n      div\n      mul\n      0x20\n      add\n      mload(0x40)\n      swap1\n      dup2\n      add\n      0x40\n      mstore\n      dup1\n      swap3\n      swap2\n      swap1\n      dup2\n      dup2\n      mstore\n      0x20\n      add\n      dup3\n      dup1\n      sload\n      tag_50\n      swap1\n      tag_49\n      jump\t// in\n    tag_50:\n      dup1\n      iszero\n      tag_51\n      jumpi\n      dup1\n      0x1f\n      lt\n      tag_52\n      jumpi\n      0x0100\n      dup1\n      dup4\n      sload\n      div\n      mul\n      dup4\n      mstore\n      swap2\n      0x20\n      add\n      swap2\n      jump(tag_51)\n    tag_52:\n      dup3\n      add\n      swap2\n      swap1\n      0x00\n      mstore\n      keccak256(0x00, 0x20)\n      swap1\n    tag_53:\n      dup2\n      sload\n      dup2\n      mstore\n      swap1\n      0x01\n      add\n      swap1\n      0x20\n      add\n      dup1\n      dup4\n      gt\n      tag_53\n      jumpi\n      dup3\n      swap1\n      sub\n      0x1f\n      and\n      dup3\n      add\n      swap2\n    tag_51:\n      pop\n      pop\n      pop\n      pop\n      pop\n      swap1\n      dup1\n      0x02\n      add\n      dup1\n      sload\n      tag_54\n      swap1\n      tag_49\n      jump\t// in\n    tag_54:\n      dup1\n      0x1f\n      add\n      0x20\n      dup1\n      swap2\n      div\n      mul\n      0x20\n      add\n      mload(0x40)\n      swap1\n      dup2\n      add\n      0x40\n      mstore\n      dup1\n      swap3\n      swap2\n      swap1\n      dup2\n      dup2\n      mstore\n      0x20\n      add\n      dup3\n      dup1\n      sload\n      tag_55\n      swap1\n      tag_49\n      jump\t// in\n    tag_55:\n      dup1\n      iszero\n      tag_56\n      jumpi\n      dup1\n      0x1f\n      lt\n      tag_57\n      jumpi\n      0x0100\n      dup1\n      dup4\n      sload\n      div\n      mul\n      dup4\n      mstore\n      swap2\n      0x20\n      add\n      swap2\n      jump(tag_56)\n    tag_57:\n      dup3\n      add\n      swap2\n      swap1\n      0x00\n      mstore\n      keccak256(0x00, 0x20)\n      swap1\n    tag_58:\n      dup2\n      sload\n      dup2\n      mstore\n      swap1\n      0x01\n      add\n      swap1\n      0x20\n      add\n      dup1\n      dup4\n      gt\n      tag_58\n      jumpi\n      dup3\n      swap1\n      sub\n      0x1f\n      and\n      dup3\n      add\n      swap2\n    tag_56:\n      pop\n      pop\n      pop\n      pop\n      pop\n      swap1\n      dup1\n      0x03\n      add\n      sload\n      swap1\n      dup1\n      0x04\n      add\n      sload\n      swap1\n      dup1\n      0x05\n      add\n      sload\n      swap1\n      dup1\n      0x06\n      add\n      0x00\n      swap1\n      sload\n      swap1\n      0x0100\n      exp\n      swap1\n      div\n      0xff\n      and\n      swap1\n      pop\n      dup8\n      jump\t// out\n        /* \"contracts/CrowdTank.sol\":3804:4094  function Time_Left(uint projectID) view public returns(uint) {... */\n    tag_21:\n        /* \"contracts/CrowdTank.sol\":3859:3863  uint */\n      0x00\n        /* \"contracts/CrowdTank.sol\":3876:3899  project storage Project */\n      0x00\n        /* \"contracts/CrowdTank.sol\":3902:3910  Projects */\n      0x01\n        /* \"contracts/CrowdTank.sol\":3902:3921  Projects[projectID] */\n      0x00\n        /* \"contracts/CrowdTank.sol\":3911:3920  projectID */\n      dup5\n        /* \"contracts/CrowdTank.sol\":3902:3921  Projects[projectID] */\n      dup2\n      mstore\n      0x20\n      add\n      swap1\n      dup2\n      mstore\n      0x20\n      add\n      0x00\n      keccak256\n        /* \"contracts/CrowdTank.sol\":3876:3921  project storage Project = Projects[projectID] */\n      swap1\n      pop\n        /* \"contracts/CrowdTank.sol\":3955:3962  Project */\n      dup1\n        /* \"contracts/CrowdTank.sol\":3955:3971  Project.deadline */\n      0x04\n      add\n      sload\n        /* \"contracts/CrowdTank.sol\":3936:3951  block.timestamp */\n      timestamp\n        /* \"contracts/CrowdTank.sol\":3936:3971  block.timestamp >= Project.deadline */\n      lt\n        /* \"contracts/CrowdTank.sol\":3932:4083  if (block.timestamp >= Project.deadline) {... */\n      tag_60\n      jumpi\n        /* \"contracts/CrowdTank.sol\":3995:3996  0 */\n      0x00\n        /* \"contracts/CrowdTank.sol\":3988:3996  return 0 */\n      swap2\n      pop\n      pop\n      jump(tag_59)\n        /* \"contracts/CrowdTank.sol\":3932:4083  if (block.timestamp >= Project.deadline) {... */\n    tag_60:\n        /* \"contracts/CrowdTank.sol\":4055:4070  block.timestamp */\n      timestamp\n        /* \"contracts/CrowdTank.sol\":4036:4043  Project */\n      dup2\n        /* \"contracts/CrowdTank.sol\":4036:4052  Project.deadline */\n      0x04\n      add\n      sload\n        /* \"contracts/CrowdTank.sol\":4036:4070  Project.deadline - block.timestamp */\n      tag_62\n      swap2\n      swap1\n      tag_63\n      jump\t// in\n    tag_62:\n        /* \"contracts/CrowdTank.sol\":4029:4071  return(Project.deadline - block.timestamp) */\n      swap2\n      pop\n      pop\n        /* \"contracts/CrowdTank.sol\":3804:4094  function Time_Left(uint projectID) view public returns(uint) {... */\n    tag_59:\n      swap2\n      swap1\n      pop\n      jump\t// out\n        /* \"contracts/CrowdTank.sol\":2821:3182  function userWithdraw(uint _projectID) external payable {... */\n    tag_26:\n        /* \"contracts/CrowdTank.sol\":2888:2911  project storage Project */\n      0x00\n        /* \"contracts/CrowdTank.sol\":2914:2922  Projects */\n      0x01\n        /* \"contracts/CrowdTank.sol\":2914:2934  Projects[_projectID] */\n      0x00\n        /* \"contracts/CrowdTank.sol\":2923:2933  _projectID */\n      dup4\n        /* \"contracts/CrowdTank.sol\":2914:2934  Projects[_projectID] */\n      dup2\n      mstore\n      0x20\n      add\n      swap1\n      dup2\n      mstore\n      0x20\n      add\n      0x00\n      keccak256\n        /* \"contracts/CrowdTank.sol\":2888:2934  project storage Project = Projects[_projectID] */\n      swap1\n      pop\n        /* \"contracts/CrowdTank.sol\":2974:2981  Project */\n      dup1\n        /* \"contracts/CrowdTank.sol\":2974:2993  Project.fundingGoal */\n      0x03\n      add\n      sload\n        /* \"contracts/CrowdTank.sol\":2953:2960  Project */\n      dup2\n        /* \"contracts/CrowdTank.sol\":2953:2973  Project.amountRaised */\n      0x05\n      add\n      sload\n        /* \"contracts/CrowdTank.sol\":2953:2993  Project.amountRaised<Project.fundingGoal */\n      lt\n        /* \"contracts/CrowdTank.sol\":2945:3045  require(Project.amountRaised<Project.fundingGoal , \"Funding goal has reached , user can't withdraw\") */\n      tag_65\n      jumpi\n      mload(0x40)\n      0x08c379a000000000000000000000000000000000000000000000000000000000\n      dup2\n      mstore\n      0x04\n      add\n      tag_66\n      swap1\n      tag_67\n      jump\t// in\n    tag_66:\n      mload(0x40)\n      dup1\n      swap2\n      sub\n      swap1\n      revert\n    tag_65:\n        /* \"contracts/CrowdTank.sol\":3056:3077  uint fundsContributed */\n      0x00\n        /* \"contracts/CrowdTank.sol\":3080:3093  Contributions */\n      0x02\n        /* \"contracts/CrowdTank.sol\":3080:3105  Contributions[_projectID] */\n      0x00\n        /* \"contracts/CrowdTank.sol\":3094:3104  _projectID */\n      dup5\n        /* \"contracts/CrowdTank.sol\":3080:3105  Contributions[_projectID] */\n      dup2\n      mstore\n      0x20\n      add\n      swap1\n      dup2\n      mstore\n      0x20\n      add\n      0x00\n      keccak256\n        /* \"contracts/CrowdTank.sol\":3080:3117  Contributions[_projectID][msg.sender] */\n      0x00\n        /* \"contracts/CrowdTank.sol\":3106:3116  msg.sender */\n      caller\n        /* \"contracts/CrowdTank.sol\":3080:3117  Contributions[_projectID][msg.sender] */\n      0xffffffffffffffffffffffffffffffffffffffff\n      and\n      0xffffffffffffffffffffffffffffffffffffffff\n      and\n      dup2\n      mstore\n      0x20\n      add\n      swap1\n      dup2\n      mstore\n      0x20\n      add\n      0x00\n      keccak256\n      sload\n        /* \"contracts/CrowdTank.sol\":3056:3117  uint fundsContributed = Contributions[_projectID][msg.sender] */\n      swap1\n      pop\n        /* \"contracts/CrowdTank.sol\":3136:3146  msg.sender */\n      caller\n        /* \"contracts/CrowdTank.sol\":3128:3156  payable(msg.sender).transfer */\n      0xffffffffffffffffffffffffffffffffffffffff\n      and\n        /* \"contracts/CrowdTank.sol\":3128:3174  payable(msg.sender).transfer(fundsContributed) */\n      0x08fc\n        /* \"contracts/CrowdTank.sol\":3157:3173  fundsContributed */\n      dup3\n        /* \"contracts/CrowdTank.sol\":3128:3174  payable(msg.sender).transfer(fundsContributed) */\n      swap1\n      dup2\n      iszero\n      mul\n      swap1\n      mload(0x40)\n      0x00\n      mload(0x40)\n      dup1\n      dup4\n      sub\n      dup2\n      dup6\n      dup9\n      dup9\n      call\n      swap4\n      pop\n      pop\n      pop\n      pop\n      iszero\n      dup1\n      iszero\n      tag_69\n      jumpi\n      returndatacopy(0x00, 0x00, returndatasize)\n      revert(0x00, returndatasize)\n    tag_69:\n      pop\n        /* \"contracts/CrowdTank.sol\":2877:3182  {... */\n      pop\n      pop\n        /* \"contracts/CrowdTank.sol\":2821:3182  function userWithdraw(uint _projectID) external payable {... */\n      pop\n      jump\t// out\n        /* \"contracts/CrowdTank.sol\":2675:2781  function Get_Total_Raised_Funding() view public returns(uint) {... */\n    tag_29:\n        /* \"contracts/CrowdTank.sol\":2731:2735  uint */\n      0x00\n        /* \"contracts/CrowdTank.sol\":2755:2773  TotalRaisedFunding */\n      sload(0x00)\n        /* \"contracts/CrowdTank.sol\":2748:2773  return TotalRaisedFunding */\n      swap1\n      pop\n        /* \"contracts/CrowdTank.sol\":2675:2781  function Get_Total_Raised_Funding() view public returns(uint) {... */\n      swap1\n      jump\t// out\n        /* \"contracts/CrowdTank.sol\":630:694  mapping (uint => mapping (address => uint)) public Contributions */\n    tag_35:\n      mstore(0x20, 0x02)\n      dup2\n      0x00\n      mstore\n      mstore(0x20, keccak256(0x00, 0x40))\n      dup1\n      0x00\n      mstore\n      keccak256(0x00, 0x40)\n      0x00\n      swap2\n      pop\n      swap2\n      pop\n      pop\n      sload\n      dup2\n      jump\t// out\n        /* \"contracts/CrowdTank.sol\":1924:2634  function fundProject(uint _projectID) external payable {... */\n    tag_39:\n        /* \"contracts/CrowdTank.sol\":1991:2014  project storage Project */\n      0x00\n        /* \"contracts/CrowdTank.sol\":2017:2025  Projects */\n      0x01\n        /* \"contracts/CrowdTank.sol\":2017:2037  Projects[_projectID] */\n      0x00\n        /* \"contracts/CrowdTank.sol\":2026:2036  _projectID */\n      dup4\n        /* \"contracts/CrowdTank.sol\":2017:2037  Projects[_projectID] */\n      dup2\n      mstore\n      0x20\n      add\n      swap1\n      dup2\n      mstore\n      0x20\n      add\n      0x00\n      keccak256\n        /* \"contracts/CrowdTank.sol\":1991:2037  project storage Project = Projects[_projectID] */\n      swap1\n      pop\n        /* \"contracts/CrowdTank.sol\":2074:2081  Project */\n      dup1\n        /* \"contracts/CrowdTank.sol\":2074:2090  Project.deadline */\n      0x04\n      add\n      sload\n        /* \"contracts/CrowdTank.sol\":2057:2072  block.timestamp */\n      timestamp\n        /* \"contracts/CrowdTank.sol\":2057:2090  block.timestamp<=Project.deadline */\n      gt\n      iszero\n        /* \"contracts/CrowdTank.sol\":2049:2121  require(block.timestamp<=Project.deadline , \"Project deadline is over!\") */\n      tag_72\n      jumpi\n      mload(0x40)\n      0x08c379a000000000000000000000000000000000000000000000000000000000\n      dup2\n      mstore\n      0x04\n      add\n      tag_73\n      swap1\n      tag_74\n      jump\t// in\n    tag_73:\n      mload(0x40)\n      dup1\n      swap2\n      sub\n      swap1\n      revert\n    tag_72:\n        /* \"contracts/CrowdTank.sol\":2142:2149  Project */\n      dup1\n        /* \"contracts/CrowdTank.sol\":2142:2156  Project.funded */\n      0x06\n      add\n      0x00\n      swap1\n      sload\n      swap1\n      0x0100\n      exp\n      swap1\n      div\n      0xff\n      and\n        /* \"contracts/CrowdTank.sol\":2141:2156  !Project.funded */\n      iszero\n        /* \"contracts/CrowdTank.sol\":2133:2201  require(!Project.funded , \"Project Reached its Funding requirement\") */\n      tag_75\n      jumpi\n      mload(0x40)\n      0x08c379a000000000000000000000000000000000000000000000000000000000\n      dup2\n      mstore\n      0x04\n      add\n      tag_76\n      swap1\n      tag_77\n      jump\t// in\n    tag_76:\n      mload(0x40)\n      dup1\n      swap2\n      sub\n      swap1\n      revert\n    tag_75:\n        /* \"contracts/CrowdTank.sol\":2231:2232  0 */\n      0x00\n        /* \"contracts/CrowdTank.sol\":2221:2230  msg.value */\n      callvalue\n        /* \"contracts/CrowdTank.sol\":2221:2232  msg.value>0 */\n      gt\n        /* \"contracts/CrowdTank.sol\":2213:2282  require(msg.value>0 , \"send some ether to contribute in the project\") */\n      tag_78\n      jumpi\n      mload(0x40)\n      0x08c379a000000000000000000000000000000000000000000000000000000000\n      dup2\n      mstore\n      0x04\n      add\n      tag_79\n      swap1\n      tag_80\n      jump\t// in\n    tag_79:\n      mload(0x40)\n      dup1\n      swap2\n      sub\n      swap1\n      revert\n    tag_78:\n        /* \"contracts/CrowdTank.sol\":2316:2325  msg.value */\n      callvalue\n        /* \"contracts/CrowdTank.sol\":2294:2301  Project */\n      dup2\n        /* \"contracts/CrowdTank.sol\":2294:2314  Project.amountRaised */\n      0x05\n      add\n      0x00\n        /* \"contracts/CrowdTank.sol\":2294:2325  Project.amountRaised+=msg.value */\n      dup3\n      dup3\n      sload\n      tag_81\n      swap2\n      swap1\n      tag_82\n      jump\t// in\n    tag_81:\n      swap3\n      pop\n      pop\n      dup2\n      swap1\n      sstore\n      pop\n        /* \"contracts/CrowdTank.sol\":2377:2386  msg.value */\n      callvalue\n        /* \"contracts/CrowdTank.sol\":2337:2350  Contributions */\n      0x02\n        /* \"contracts/CrowdTank.sol\":2337:2362  Contributions[_projectID] */\n      0x00\n        /* \"contracts/CrowdTank.sol\":2351:2361  _projectID */\n      dup5\n        /* \"contracts/CrowdTank.sol\":2337:2362  Contributions[_projectID] */\n      dup2\n      mstore\n      0x20\n      add\n      swap1\n      dup2\n      mstore\n      0x20\n      add\n      0x00\n      keccak256\n        /* \"contracts/CrowdTank.sol\":2337:2374  Contributions[_projectID][msg.sender] */\n      0x00\n        /* \"contracts/CrowdTank.sol\":2363:2373  msg.sender */\n      caller\n        /* \"contracts/CrowdTank.sol\":2337:2374  Contributions[_projectID][msg.sender] */\n      0xffffffffffffffffffffffffffffffffffffffff\n      and\n      0xffffffffffffffffffffffffffffffffffffffff\n      and\n      dup2\n      mstore\n      0x20\n      add\n      swap1\n      dup2\n      mstore\n      0x20\n      add\n      0x00\n      keccak256\n        /* \"contracts/CrowdTank.sol\":2337:2386  Contributions[_projectID][msg.sender] = msg.value */\n      dup2\n      swap1\n      sstore\n      pop\n        /* \"contracts/CrowdTank.sol\":2448:2457  msg.value */\n      callvalue\n        /* \"contracts/CrowdTank.sol\":2428:2446  TotalRaisedFunding */\n      0x00\n      0x00\n        /* \"contracts/CrowdTank.sol\":2428:2457  TotalRaisedFunding+=msg.value */\n      dup3\n      dup3\n      sload\n      tag_83\n      swap2\n      swap1\n      tag_82\n      jump\t// in\n    tag_83:\n      swap3\n      pop\n      pop\n      dup2\n      swap1\n      sstore\n      pop\n        /* \"contracts/CrowdTank.sol\":2483:2493  _projectID */\n      dup2\n        /* \"contracts/CrowdTank.sol\":2476:2517  funded(_projectID, msg.sender, msg.value) */\n      0xf234fc17e03e9c3501c842e35414fd219e9e8bc572c4632ef54db1493e3afaf4\n        /* \"contracts/CrowdTank.sol\":2495:2505  msg.sender */\n      caller\n        /* \"contracts/CrowdTank.sol\":2507:2516  msg.value */\n      callvalue\n        /* \"contracts/CrowdTank.sol\":2476:2517  funded(_projectID, msg.sender, msg.value) */\n      mload(0x40)\n      tag_84\n      swap3\n      swap2\n      swap1\n      tag_85\n      jump\t// in\n    tag_84:\n      mload(0x40)\n      dup1\n      swap2\n      sub\n      swap1\n      log2\n        /* \"contracts/CrowdTank.sol\":2557:2564  Project */\n      dup1\n        /* \"contracts/CrowdTank.sol\":2557:2576  Project.fundingGoal */\n      0x03\n      add\n      sload\n        /* \"contracts/CrowdTank.sol\":2535:2542  Project */\n      dup2\n        /* \"contracts/CrowdTank.sol\":2535:2555  Project.amountRaised */\n      0x05\n      add\n      sload\n        /* \"contracts/CrowdTank.sol\":2535:2576  Project.amountRaised>=Project.fundingGoal */\n      lt\n        /* \"contracts/CrowdTank.sol\":2531:2627  if (Project.amountRaised>=Project.fundingGoal) {... */\n      tag_86\n      jumpi\n        /* \"contracts/CrowdTank.sol\":2610:2614  true */\n      0x01\n        /* \"contracts/CrowdTank.sol\":2593:2600  Project */\n      dup2\n        /* \"contracts/CrowdTank.sol\":2593:2607  Project.funded */\n      0x06\n      add\n      0x00\n        /* \"contracts/CrowdTank.sol\":2593:2614  Project.funded = true */\n      0x0100\n      exp\n      dup2\n      sload\n      dup2\n      0xff\n      mul\n      not\n      and\n      swap1\n      dup4\n      iszero\n      iszero\n      mul\n      or\n      swap1\n      sstore\n      pop\n        /* \"contracts/CrowdTank.sol\":2531:2627  if (Project.amountRaised>=Project.fundingGoal) {... */\n    tag_86:\n        /* \"contracts/CrowdTank.sol\":1979:2634  {... */\n      pop\n        /* \"contracts/CrowdTank.sol\":1924:2634  function fundProject(uint _projectID) external payable {... */\n      pop\n      jump\t// out\n        /* \"contracts/CrowdTank.sol\":3234:3734  function creatorWithdraw(uint _projectID) external payable {... */\n    tag_42:\n        /* \"contracts/CrowdTank.sol\":3304:3327  project storage Project */\n      0x00\n        /* \"contracts/CrowdTank.sol\":3330:3338  Projects */\n      0x01\n        /* \"contracts/CrowdTank.sol\":3330:3350  Projects[_projectID] */\n      0x00\n        /* \"contracts/CrowdTank.sol\":3339:3349  _projectID */\n      dup4\n        /* \"contracts/CrowdTank.sol\":3330:3350  Projects[_projectID] */\n      dup2\n      mstore\n      0x20\n      add\n      swap1\n      dup2\n      mstore\n      0x20\n      add\n      0x00\n      keccak256\n        /* \"contracts/CrowdTank.sol\":3304:3350  project storage Project = Projects[_projectID] */\n      swap1\n      pop\n        /* \"contracts/CrowdTank.sol\":3361:3378  uint totalfunding */\n      0x00\n        /* \"contracts/CrowdTank.sol\":3381:3388  Project */\n      dup2\n        /* \"contracts/CrowdTank.sol\":3381:3401  Project.amountRaised */\n      0x05\n      add\n      sload\n        /* \"contracts/CrowdTank.sol\":3361:3401  uint totalfunding = Project.amountRaised */\n      swap1\n      pop\n        /* \"contracts/CrowdTank.sol\":3420:3427  Project */\n      dup2\n        /* \"contracts/CrowdTank.sol\":3420:3434  Project.funded */\n      0x06\n      add\n      0x00\n      swap1\n      sload\n      swap1\n      0x0100\n      exp\n      swap1\n      div\n      0xff\n      and\n        /* \"contracts/CrowdTank.sol\":3412:3491  require(Project.funded , \"funding goal has not reached , admin can't withdraw\") */\n      tag_88\n      jumpi\n      mload(0x40)\n      0x08c379a000000000000000000000000000000000000000000000000000000000\n      dup2\n      mstore\n      0x04\n      add\n      tag_89\n      swap1\n      tag_90\n      jump\t// in\n    tag_89:\n      mload(0x40)\n      dup1\n      swap2\n      sub\n      swap1\n      revert\n    tag_88:\n        /* \"contracts/CrowdTank.sol\":3529:3539  msg.sender */\n      caller\n        /* \"contracts/CrowdTank.sol\":3510:3539  Project.creator == msg.sender */\n      0xffffffffffffffffffffffffffffffffffffffff\n      and\n        /* \"contracts/CrowdTank.sol\":3510:3517  Project */\n      dup3\n        /* \"contracts/CrowdTank.sol\":3510:3525  Project.creator */\n      0x00\n      add\n      0x00\n      swap1\n      sload\n      swap1\n      0x0100\n      exp\n      swap1\n      div\n      0xffffffffffffffffffffffffffffffffffffffff\n      and\n        /* \"contracts/CrowdTank.sol\":3510:3539  Project.creator == msg.sender */\n      0xffffffffffffffffffffffffffffffffffffffff\n      and\n      eq\n        /* \"contracts/CrowdTank.sol\":3502:3568  require(Project.creator == msg.sender , \"only admin can withdraw\") */\n      tag_91\n      jumpi\n      mload(0x40)\n      0x08c379a000000000000000000000000000000000000000000000000000000000\n      dup2\n      mstore\n      0x04\n      add\n      tag_92\n      swap1\n      tag_93\n      jump\t// in\n    tag_92:\n      mload(0x40)\n      dup1\n      swap2\n      sub\n      swap1\n      revert\n    tag_91:\n        /* \"contracts/CrowdTank.sol\":3605:3620  block.timestamp */\n      timestamp\n        /* \"contracts/CrowdTank.sol\":3587:3594  Project */\n      dup3\n        /* \"contracts/CrowdTank.sol\":3587:3603  Project.deadline */\n      0x04\n      add\n      sload\n        /* \"contracts/CrowdTank.sol\":3587:3620  Project.deadline<=block.timestamp */\n      gt\n      iszero\n        /* \"contracts/CrowdTank.sol\":3579:3673  require(Project.deadline<=block.timestamp , \"deadline has not reached , admin can't withdraw\") */\n      tag_94\n      jumpi\n      mload(0x40)\n      0x08c379a000000000000000000000000000000000000000000000000000000000\n      dup2\n      mstore\n      0x04\n      add\n      tag_95\n      swap1\n      tag_96\n      jump\t// in\n    tag_95:\n      mload(0x40)\n      dup1\n      swap2\n      sub\n      swap1\n      revert\n    tag_94:\n        /* \"contracts/CrowdTank.sol\":3692:3702  msg.sender */\n      caller\n        /* \"contracts/CrowdTank.sol\":3684:3712  payable(msg.sender).transfer */\n      0xffffffffffffffffffffffffffffffffffffffff\n      and\n        /* \"contracts/CrowdTank.sol\":3684:3726  payable(msg.sender).transfer(totalfunding) */\n      0x08fc\n        /* \"contracts/CrowdTank.sol\":3713:3725  totalfunding */\n      dup3\n        /* \"contracts/CrowdTank.sol\":3684:3726  payable(msg.sender).transfer(totalfunding) */\n      swap1\n      dup2\n      iszero\n      mul\n      swap1\n      mload(0x40)\n      0x00\n      mload(0x40)\n      dup1\n      dup4\n      sub\n      dup2\n      dup6\n      dup9\n      dup9\n      call\n      swap4\n      pop\n      pop\n      pop\n      pop\n      iszero\n      dup1\n      iszero\n      tag_98\n      jumpi\n      returndatacopy(0x00, 0x00, returndatasize)\n      revert(0x00, returndatasize)\n    tag_98:\n      pop\n        /* \"contracts/CrowdTank.sol\":3293:3734  {... */\n      pop\n      pop\n        /* \"contracts/CrowdTank.sol\":3234:3734  function creatorWithdraw(uint _projectID) external payable {... */\n      pop\n      jump\t// out\n        /* \"contracts/CrowdTank.sol\":1195:1863  function createProject(string memory _name , string memory _description , uint _fundingGoal , uint _durationSeconds , uint _id) external {... */\n    tag_47:\n        /* \"contracts/CrowdTank.sol\":1352:1360  isIdUsed */\n      0x03\n        /* \"contracts/CrowdTank.sol\":1352:1365  isIdUsed[_id] */\n      0x00\n        /* \"contracts/CrowdTank.sol\":1361:1364  _id */\n      dup3\n        /* \"contracts/CrowdTank.sol\":1352:1365  isIdUsed[_id] */\n      dup2\n      mstore\n      0x20\n      add\n      swap1\n      dup2\n      mstore\n      0x20\n      add\n      0x00\n      keccak256\n      0x00\n      swap1\n      sload\n      swap1\n      0x0100\n      exp\n      swap1\n      div\n      0xff\n      and\n        /* \"contracts/CrowdTank.sol\":1351:1365  !isIdUsed[_id] */\n      iszero\n        /* \"contracts/CrowdTank.sol\":1343:1400  require(!isIdUsed[_id], \"Project ID is already in use!\" ) */\n      tag_100\n      jumpi\n      mload(0x40)\n      0x08c379a000000000000000000000000000000000000000000000000000000000\n      dup2\n      mstore\n      0x04\n      add\n      tag_101\n      swap1\n      tag_102\n      jump\t// in\n    tag_101:\n      mload(0x40)\n      dup1\n      swap2\n      sub\n      swap1\n      revert\n    tag_100:\n        /* \"contracts/CrowdTank.sol\":1427:1431  true */\n      0x01\n        /* \"contracts/CrowdTank.sol\":1411:1419  isIdUsed */\n      0x03\n        /* \"contracts/CrowdTank.sol\":1411:1424  isIdUsed[_id] */\n      0x00\n        /* \"contracts/CrowdTank.sol\":1420:1423  _id */\n      dup4\n        /* \"contracts/CrowdTank.sol\":1411:1424  isIdUsed[_id] */\n      dup2\n      mstore\n      0x20\n      add\n      swap1\n      dup2\n      mstore\n      0x20\n      add\n      0x00\n      keccak256\n      0x00\n        /* \"contracts/CrowdTank.sol\":1411:1431  isIdUsed[_id] = true */\n      0x0100\n      exp\n      dup2\n      sload\n      dup2\n      0xff\n      mul\n      not\n      and\n      swap1\n      dup4\n      iszero\n      iszero\n      mul\n      or\n      swap1\n      sstore\n      pop\n        /* \"contracts/CrowdTank.sol\":1458:1734  project({... */\n      mload(0x40)\n      dup1\n      0xe0\n      add\n      0x40\n      mstore\n      dup1\n        /* \"contracts/CrowdTank.sol\":1491:1501  msg.sender */\n      caller\n        /* \"contracts/CrowdTank.sol\":1458:1734  project({... */\n      0xffffffffffffffffffffffffffffffffffffffff\n      and\n      dup2\n      mstore\n      0x20\n      add\n        /* \"contracts/CrowdTank.sol\":1522:1527  _name */\n      dup7\n        /* \"contracts/CrowdTank.sol\":1458:1734  project({... */\n      dup2\n      mstore\n      0x20\n      add\n        /* \"contracts/CrowdTank.sol\":1555:1567  _description */\n      dup6\n        /* \"contracts/CrowdTank.sol\":1458:1734  project({... */\n      dup2\n      mstore\n      0x20\n      add\n        /* \"contracts/CrowdTank.sol\":1595:1607  _fundingGoal */\n      dup5\n        /* \"contracts/CrowdTank.sol\":1458:1734  project({... */\n      dup2\n      mstore\n      0x20\n      add\n        /* \"contracts/CrowdTank.sol\":1648:1664  _durationSeconds */\n      dup4\n        /* \"contracts/CrowdTank.sol\":1632:1647  block.timestamp */\n      timestamp\n        /* \"contracts/CrowdTank.sol\":1632:1664  block.timestamp+_durationSeconds */\n      tag_103\n      swap2\n      swap1\n      tag_82\n      jump\t// in\n    tag_103:\n        /* \"contracts/CrowdTank.sol\":1458:1734  project({... */\n      dup2\n      mstore\n      0x20\n      add\n        /* \"contracts/CrowdTank.sol\":1693:1694  0 */\n      0x00\n        /* \"contracts/CrowdTank.sol\":1458:1734  project({... */\n      dup2\n      mstore\n      0x20\n      add\n        /* \"contracts/CrowdTank.sol\":1717:1722  false */\n      0x00\n        /* \"contracts/CrowdTank.sol\":1458:1734  project({... */\n      iszero\n      iszero\n      dup2\n      mstore\n      pop\n        /* \"contracts/CrowdTank.sol\":1442:1450  Projects */\n      0x01\n        /* \"contracts/CrowdTank.sol\":1442:1455  Projects[_id] */\n      0x00\n        /* \"contracts/CrowdTank.sol\":1451:1454  _id */\n      dup4\n        /* \"contracts/CrowdTank.sol\":1442:1455  Projects[_id] */\n      dup2\n      mstore\n      0x20\n      add\n      swap1\n      dup2\n      mstore\n      0x20\n      add\n      0x00\n      keccak256\n        /* \"contracts/CrowdTank.sol\":1442:1734  Projects[_id] = project({... */\n      0x00\n      dup3\n      add\n      mload\n      dup2\n      0x00\n      add\n      exp(0x0100, 0x00)\n      dup2\n      sload\n      dup2\n      0xffffffffffffffffffffffffffffffffffffffff\n      mul\n      not\n      and\n      swap1\n      dup4\n      0xffffffffffffffffffffffffffffffffffffffff\n      and\n      mul\n      or\n      swap1\n      sstore\n      pop\n      0x20\n      dup3\n      add\n      mload\n      dup2\n      0x01\n      add\n      swap1\n      dup2\n      tag_104\n      swap2\n      swap1\n      tag_105\n      jump\t// in\n    tag_104:\n      pop\n      0x40\n      dup3\n      add\n      mload\n      dup2\n      0x02\n      add\n      swap1\n      dup2\n      tag_106\n      swap2\n      swap1\n      tag_105\n      jump\t// in\n    tag_106:\n      pop\n      0x60\n      dup3\n      add\n      mload\n      dup2\n      0x03\n      add\n      sstore\n      0x80\n      dup3\n      add\n      mload\n      dup2\n      0x04\n      add\n      sstore\n      0xa0\n      dup3\n      add\n      mload\n      dup2\n      0x05\n      add\n      sstore\n      0xc0\n      dup3\n      add\n      mload\n      dup2\n      0x06\n      add\n      exp(0x0100, 0x00)\n      dup2\n      sload\n      dup2\n      0xff\n      mul\n      not\n      and\n      swap1\n      dup4\n      iszero\n      iszero\n      mul\n      or\n      swap1\n      sstore\n      pop\n      swap1\n      pop\n      pop\n        /* \"contracts/CrowdTank.sol\":1771:1781  msg.sender */\n      caller\n        /* \"contracts/CrowdTank.sol\":1750:1855  ProjectCreated(_id , msg.sender , _name , _description , _fundingGoal , block.timestamp+_durationSeconds) */\n      0xffffffffffffffffffffffffffffffffffffffff\n      and\n        /* \"contracts/CrowdTank.sol\":1765:1768  _id */\n      dup2\n        /* \"contracts/CrowdTank.sol\":1750:1855  ProjectCreated(_id , msg.sender , _name , _description , _fundingGoal , block.timestamp+_durationSeconds) */\n      0xac9b83534845c9e785a6ea70f2d809db1d72ef9a1d981753712d922f5cb55f39\n        /* \"contracts/CrowdTank.sol\":1784:1789  _name */\n      dup8\n        /* \"contracts/CrowdTank.sol\":1792:1804  _description */\n      dup8\n        /* \"contracts/CrowdTank.sol\":1807:1819  _fundingGoal */\n      dup8\n        /* \"contracts/CrowdTank.sol\":1838:1854  _durationSeconds */\n      dup8\n        /* \"contracts/CrowdTank.sol\":1822:1837  block.timestamp */\n      timestamp\n        /* \"contracts/CrowdTank.sol\":1822:1854  block.timestamp+_durationSeconds */\n      tag_107\n      swap2\n      swap1\n      tag_82\n      jump\t// in\n    tag_107:\n        /* \"contracts/CrowdTank.sol\":1750:1855  ProjectCreated(_id , msg.sender , _name , _description , _fundingGoal , block.timestamp+_durationSeconds) */\n      mload(0x40)\n      tag_108\n      swap5\n      swap4\n      swap3\n      swap2\n      swap1\n      tag_109\n      jump\t// in\n    tag_108:\n      mload(0x40)\n      dup1\n      swap2\n      sub\n      swap1\n      log3\n        /* \"contracts/CrowdTank.sol\":1195:1863  function createProject(string memory _name , string memory _description , uint _fundingGoal , uint _durationSeconds , uint _id) external {... */\n      pop\n      pop\n      pop\n      pop\n      pop\n      jump\t// out\n        /* \"#utility.yul\":7:82   */\n    tag_110:\n        /* \"#utility.yul\":40:46   */\n      0x00\n        /* \"#utility.yul\":73:75   */\n      0x40\n        /* \"#utility.yul\":67:76   */\n      mload\n        /* \"#utility.yul\":57:76   */\n      swap1\n      pop\n        /* \"#utility.yul\":7:82   */\n      swap1\n      jump\t// out\n        /* \"#utility.yul\":88:205   */\n    tag_111:\n        /* \"#utility.yul\":197:198   */\n      0x00\n        /* \"#utility.yul\":194:195   */\n      0x00\n        /* \"#utility.yul\":187:199   */\n      revert\n        /* \"#utility.yul\":211:328   */\n    tag_112:\n        /* \"#utility.yul\":320:321   */\n      0x00\n        /* \"#utility.yul\":317:318   */\n      0x00\n        /* \"#utility.yul\":310:322   */\n      revert\n        /* \"#utility.yul\":334:411   */\n    tag_113:\n        /* \"#utility.yul\":371:378   */\n      0x00\n        /* \"#utility.yul\":400:405   */\n      dup2\n        /* \"#utility.yul\":389:405   */\n      swap1\n      pop\n        /* \"#utility.yul\":334:411   */\n      swap2\n      swap1\n      pop\n      jump\t// out\n        /* \"#utility.yul\":417:539   */\n    tag_114:\n        /* \"#utility.yul\":490:514   */\n      tag_177\n        /* \"#utility.yul\":508:513   */\n      dup2\n        /* \"#utility.yul\":490:514   */\n      tag_113\n      jump\t// in\n    tag_177:\n        /* \"#utility.yul\":483:488   */\n      dup2\n        /* \"#utility.yul\":480:515   */\n      eq\n        /* \"#utility.yul\":470:533   */\n      tag_178\n      jumpi\n        /* \"#utility.yul\":529:530   */\n      0x00\n        /* \"#utility.yul\":526:527   */\n      0x00\n        /* \"#utility.yul\":519:531   */\n      revert\n        /* \"#utility.yul\":470:533   */\n    tag_178:\n        /* \"#utility.yul\":417:539   */\n      pop\n      jump\t// out\n        /* \"#utility.yul\":545:684   */\n    tag_115:\n        /* \"#utility.yul\":591:596   */\n      0x00\n        /* \"#utility.yul\":629:635   */\n      dup2\n        /* \"#utility.yul\":616:636   */\n      calldataload\n        /* \"#utility.yul\":607:636   */\n      swap1\n      pop\n        /* \"#utility.yul\":645:678   */\n      tag_180\n        /* \"#utility.yul\":672:677   */\n      dup2\n        /* \"#utility.yul\":645:678   */\n      tag_114\n      jump\t// in\n    tag_180:\n        /* \"#utility.yul\":545:684   */\n      swap3\n      swap2\n      pop\n      pop\n      jump\t// out\n        /* \"#utility.yul\":690:1019   */\n    tag_14:\n        /* \"#utility.yul\":749:755   */\n      0x00\n        /* \"#utility.yul\":798:800   */\n      0x20\n        /* \"#utility.yul\":786:795   */\n      dup3\n        /* \"#utility.yul\":777:784   */\n      dup5\n        /* \"#utility.yul\":773:796   */\n      sub\n        /* \"#utility.yul\":769:801   */\n      slt\n        /* \"#utility.yul\":766:885   */\n      iszero\n      tag_182\n      jumpi\n        /* \"#utility.yul\":804:883   */\n      tag_183\n      tag_111\n      jump\t// in\n    tag_183:\n        /* \"#utility.yul\":766:885   */\n    tag_182:\n        /* \"#utility.yul\":924:925   */\n      0x00\n        /* \"#utility.yul\":949:1002   */\n      tag_184\n        /* \"#utility.yul\":994:1001   */\n      dup5\n        /* \"#utility.yul\":985:991   */\n      dup3\n        /* \"#utility.yul\":974:983   */\n      dup6\n        /* \"#utility.yul\":970:992   */\n      add\n        /* \"#utility.yul\":949:1002   */\n      tag_115\n      jump\t// in\n    tag_184:\n        /* \"#utility.yul\":939:1002   */\n      swap2\n      pop\n        /* \"#utility.yul\":895:1012   */\n      pop\n        /* \"#utility.yul\":690:1019   */\n      swap3\n      swap2\n      pop\n      pop\n      jump\t// out\n        /* \"#utility.yul\":1025:1151   */\n    tag_116:\n        /* \"#utility.yul\":1062:1069   */\n      0x00\n        /* \"#utility.yul\":1102:1144   */\n      0xffffffffffffffffffffffffffffffffffffffff\n        /* \"#utility.yul\":1095:1100   */\n      dup3\n        /* \"#utility.yul\":1091:1145   */\n      and\n        /* \"#utility.yul\":1080:1145   */\n      swap1\n      pop\n        /* \"#utility.yul\":1025:1151   */\n      swap2\n      swap1\n      pop\n      jump\t// out\n        /* \"#utility.yul\":1157:1253   */\n    tag_117:\n        /* \"#utility.yul\":1194:1201   */\n      0x00\n        /* \"#utility.yul\":1223:1247   */\n      tag_187\n        /* \"#utility.yul\":1241:1246   */\n      dup3\n        /* \"#utility.yul\":1223:1247   */\n      tag_116\n      jump\t// in\n    tag_187:\n        /* \"#utility.yul\":1212:1247   */\n      swap1\n      pop\n        /* \"#utility.yul\":1157:1253   */\n      swap2\n      swap1\n      pop\n      jump\t// out\n        /* \"#utility.yul\":1259:1377   */\n    tag_118:\n        /* \"#utility.yul\":1346:1370   */\n      tag_189\n        /* \"#utility.yul\":1364:1369   */\n      dup2\n        /* \"#utility.yul\":1346:1370   */\n      tag_117\n      jump\t// in\n    tag_189:\n        /* \"#utility.yul\":1341:1344   */\n      dup3\n        /* \"#utility.yul\":1334:1371   */\n      mstore\n        /* \"#utility.yul\":1259:1377   */\n      pop\n      pop\n      jump\t// out\n        /* \"#utility.yul\":1383:1482   */\n    tag_119:\n        /* \"#utility.yul\":1435:1441   */\n      0x00\n        /* \"#utility.yul\":1469:1474   */\n      dup2\n        /* \"#utility.yul\":1463:1475   */\n      mload\n        /* \"#utility.yul\":1453:1475   */\n      swap1\n      pop\n        /* \"#utility.yul\":1383:1482   */\n      swap2\n      swap1\n      pop\n      jump\t// out\n        /* \"#utility.yul\":1488:1657   */\n    tag_120:\n        /* \"#utility.yul\":1572:1583   */\n      0x00\n        /* \"#utility.yul\":1606:1612   */\n      dup3\n        /* \"#utility.yul\":1601:1604   */\n      dup3\n        /* \"#utility.yul\":1594:1613   */\n      mstore\n        /* \"#utility.yul\":1646:1650   */\n      0x20\n        /* \"#utility.yul\":1641:1644   */\n      dup3\n        /* \"#utility.yul\":1637:1651   */\n      add\n        /* \"#utility.yul\":1622:1651   */\n      swap1\n      pop\n        /* \"#utility.yul\":1488:1657   */\n      swap3\n      swap2\n      pop\n      pop\n      jump\t// out\n        /* \"#utility.yul\":1663:1802   */\n    tag_121:\n        /* \"#utility.yul\":1752:1758   */\n      dup3\n        /* \"#utility.yul\":1747:1750   */\n      dup2\n        /* \"#utility.yul\":1742:1745   */\n      dup4\n        /* \"#utility.yul\":1736:1759   */\n      mcopy\n        /* \"#utility.yul\":1793:1794   */\n      0x00\n        /* \"#utility.yul\":1784:1790   */\n      dup4\n        /* \"#utility.yul\":1779:1782   */\n      dup4\n        /* \"#utility.yul\":1775:1791   */\n      add\n        /* \"#utility.yul\":1768:1795   */\n      mstore\n        /* \"#utility.yul\":1663:1802   */\n      pop\n      pop\n      pop\n      jump\t// out\n        /* \"#utility.yul\":1808:1910   */\n    tag_122:\n        /* \"#utility.yul\":1849:1855   */\n      0x00\n        /* \"#utility.yul\":1900:1902   */\n      0x1f\n        /* \"#utility.yul\":1896:1903   */\n      not\n        /* \"#utility.yul\":1891:1893   */\n      0x1f\n        /* \"#utility.yul\":1884:1889   */\n      dup4\n        /* \"#utility.yul\":1880:1894   */\n      add\n        /* \"#utility.yul\":1876:1904   */\n      and\n        /* \"#utility.yul\":1866:1904   */\n      swap1\n      pop\n        /* \"#utility.yul\":1808:1910   */\n      swap2\n      swap1\n      pop\n      jump\t// out\n        /* \"#utility.yul\":1916:2293   */\n    tag_123:\n        /* \"#utility.yul\":2004:2007   */\n      0x00\n        /* \"#utility.yul\":2032:2071   */\n      tag_195\n        /* \"#utility.yul\":2065:2070   */\n      dup3\n        /* \"#utility.yul\":2032:2071   */\n      tag_119\n      jump\t// in\n    tag_195:\n        /* \"#utility.yul\":2087:2158   */\n      tag_196\n        /* \"#utility.yul\":2151:2157   */\n      dup2\n        /* \"#utility.yul\":2146:2149   */\n      dup6\n        /* \"#utility.yul\":2087:2158   */\n      tag_120\n      jump\t// in\n    tag_196:\n        /* \"#utility.yul\":2080:2158   */\n      swap4\n      pop\n        /* \"#utility.yul\":2167:2232   */\n      tag_197\n        /* \"#utility.yul\":2225:2231   */\n      dup2\n        /* \"#utility.yul\":2220:2223   */\n      dup6\n        /* \"#utility.yul\":2213:2217   */\n      0x20\n        /* \"#utility.yul\":2206:2211   */\n      dup7\n        /* \"#utility.yul\":2202:2218   */\n      add\n        /* \"#utility.yul\":2167:2232   */\n      tag_121\n      jump\t// in\n    tag_197:\n        /* \"#utility.yul\":2257:2286   */\n      tag_198\n        /* \"#utility.yul\":2279:2285   */\n      dup2\n        /* \"#utility.yul\":2257:2286   */\n      tag_122\n      jump\t// in\n    tag_198:\n        /* \"#utility.yul\":2252:2255   */\n      dup5\n        /* \"#utility.yul\":2248:2287   */\n      add\n        /* \"#utility.yul\":2241:2287   */\n      swap2\n      pop\n        /* \"#utility.yul\":2008:2293   */\n      pop\n        /* \"#utility.yul\":1916:2293   */\n      swap3\n      swap2\n      pop\n      pop\n      jump\t// out\n        /* \"#utility.yul\":2299:2417   */\n    tag_124:\n        /* \"#utility.yul\":2386:2410   */\n      tag_200\n        /* \"#utility.yul\":2404:2409   */\n      dup2\n        /* \"#utility.yul\":2386:2410   */\n      tag_113\n      jump\t// in\n    tag_200:\n        /* \"#utility.yul\":2381:2384   */\n      dup3\n        /* \"#utility.yul\":2374:2411   */\n      mstore\n        /* \"#utility.yul\":2299:2417   */\n      pop\n      pop\n      jump\t// out\n        /* \"#utility.yul\":2423:2513   */\n    tag_125:\n        /* \"#utility.yul\":2457:2464   */\n      0x00\n        /* \"#utility.yul\":2500:2505   */\n      dup2\n        /* \"#utility.yul\":2493:2506   */\n      iszero\n        /* \"#utility.yul\":2486:2507   */\n      iszero\n        /* \"#utility.yul\":2475:2507   */\n      swap1\n      pop\n        /* \"#utility.yul\":2423:2513   */\n      swap2\n      swap1\n      pop\n      jump\t// out\n        /* \"#utility.yul\":2519:2628   */\n    tag_126:\n        /* \"#utility.yul\":2600:2621   */\n      tag_203\n        /* \"#utility.yul\":2615:2620   */\n      dup2\n        /* \"#utility.yul\":2600:2621   */\n      tag_125\n      jump\t// in\n    tag_203:\n        /* \"#utility.yul\":2595:2598   */\n      dup3\n        /* \"#utility.yul\":2588:2622   */\n      mstore\n        /* \"#utility.yul\":2519:2628   */\n      pop\n      pop\n      jump\t// out\n        /* \"#utility.yul\":2634:3690   */\n    tag_17:\n        /* \"#utility.yul\":2929:2933   */\n      0x00\n        /* \"#utility.yul\":2967:2970   */\n      0xe0\n        /* \"#utility.yul\":2956:2965   */\n      dup3\n        /* \"#utility.yul\":2952:2971   */\n      add\n        /* \"#utility.yul\":2944:2971   */\n      swap1\n      pop\n        /* \"#utility.yul\":2981:3052   */\n      tag_205\n        /* \"#utility.yul\":3049:3050   */\n      0x00\n        /* \"#utility.yul\":3038:3047   */\n      dup4\n        /* \"#utility.yul\":3034:3051   */\n      add\n        /* \"#utility.yul\":3025:3031   */\n      dup11\n        /* \"#utility.yul\":2981:3052   */\n      tag_118\n      jump\t// in\n    tag_205:\n        /* \"#utility.yul\":3099:3108   */\n      dup2\n        /* \"#utility.yul\":3093:3097   */\n      dup2\n        /* \"#utility.yul\":3089:3109   */\n      sub\n        /* \"#utility.yul\":3084:3086   */\n      0x20\n        /* \"#utility.yul\":3073:3082   */\n      dup4\n        /* \"#utility.yul\":3069:3087   */\n      add\n        /* \"#utility.yul\":3062:3110   */\n      mstore\n        /* \"#utility.yul\":3127:3205   */\n      tag_206\n        /* \"#utility.yul\":3200:3204   */\n      dup2\n        /* \"#utility.yul\":3191:3197   */\n      dup10\n        /* \"#utility.yul\":3127:3205   */\n      tag_123\n      jump\t// in\n    tag_206:\n        /* \"#utility.yul\":3119:3205   */\n      swap1\n      pop\n        /* \"#utility.yul\":3252:3261   */\n      dup2\n        /* \"#utility.yul\":3246:3250   */\n      dup2\n        /* \"#utility.yul\":3242:3262   */\n      sub\n        /* \"#utility.yul\":3237:3239   */\n      0x40\n        /* \"#utility.yul\":3226:3235   */\n      dup4\n        /* \"#utility.yul\":3222:3240   */\n      add\n        /* \"#utility.yul\":3215:3263   */\n      mstore\n        /* \"#utility.yul\":3280:3358   */\n      tag_207\n        /* \"#utility.yul\":3353:3357   */\n      dup2\n        /* \"#utility.yul\":3344:3350   */\n      dup9\n        /* \"#utility.yul\":3280:3358   */\n      tag_123\n      jump\t// in\n    tag_207:\n        /* \"#utility.yul\":3272:3358   */\n      swap1\n      pop\n        /* \"#utility.yul\":3368:3440   */\n      tag_208\n        /* \"#utility.yul\":3436:3438   */\n      0x60\n        /* \"#utility.yul\":3425:3434   */\n      dup4\n        /* \"#utility.yul\":3421:3439   */\n      add\n        /* \"#utility.yul\":3412:3418   */\n      dup8\n        /* \"#utility.yul\":3368:3440   */\n      tag_124\n      jump\t// in\n    tag_208:\n        /* \"#utility.yul\":3450:3523   */\n      tag_209\n        /* \"#utility.yul\":3518:3521   */\n      0x80\n        /* \"#utility.yul\":3507:3516   */\n      dup4\n        /* \"#utility.yul\":3503:3522   */\n      add\n        /* \"#utility.yul\":3494:3500   */\n      dup7\n        /* \"#utility.yul\":3450:3523   */\n      tag_124\n      jump\t// in\n    tag_209:\n        /* \"#utility.yul\":3533:3606   */\n      tag_210\n        /* \"#utility.yul\":3601:3604   */\n      0xa0\n        /* \"#utility.yul\":3590:3599   */\n      dup4\n        /* \"#utility.yul\":3586:3605   */\n      add\n        /* \"#utility.yul\":3577:3583   */\n      dup6\n        /* \"#utility.yul\":3533:3606   */\n      tag_124\n      jump\t// in\n    tag_210:\n        /* \"#utility.yul\":3616:3683   */\n      tag_211\n        /* \"#utility.yul\":3678:3681   */\n      0xc0\n        /* \"#utility.yul\":3667:3676   */\n      dup4\n        /* \"#utility.yul\":3663:3682   */\n      add\n        /* \"#utility.yul\":3654:3660   */\n      dup5\n        /* \"#utility.yul\":3616:3683   */\n      tag_126\n      jump\t// in\n    tag_211:\n        /* \"#utility.yul\":2634:3690   */\n      swap9\n      swap8\n      pop\n      pop\n      pop\n      pop\n      pop\n      pop\n      pop\n      pop\n      jump\t// out\n        /* \"#utility.yul\":3696:3918   */\n    tag_23:\n        /* \"#utility.yul\":3789:3793   */\n      0x00\n        /* \"#utility.yul\":3827:3829   */\n      0x20\n        /* \"#utility.yul\":3816:3825   */\n      dup3\n        /* \"#utility.yul\":3812:3830   */\n      add\n        /* \"#utility.yul\":3804:3830   */\n      swap1\n      pop\n        /* \"#utility.yul\":3840:3911   */\n      tag_213\n        /* \"#utility.yul\":3908:3909   */\n      0x00\n        /* \"#utility.yul\":3897:3906   */\n      dup4\n        /* \"#utility.yul\":3893:3910   */\n      add\n        /* \"#utility.yul\":3884:3890   */\n      dup5\n        /* \"#utility.yul\":3840:3911   */\n      tag_124\n      jump\t// in\n    tag_213:\n        /* \"#utility.yul\":3696:3918   */\n      swap3\n      swap2\n      pop\n      pop\n      jump\t// out\n        /* \"#utility.yul\":3924:4046   */\n    tag_127:\n        /* \"#utility.yul\":3997:4021   */\n      tag_215\n        /* \"#utility.yul\":4015:4020   */\n      dup2\n        /* \"#utility.yul\":3997:4021   */\n      tag_117\n      jump\t// in\n    tag_215:\n        /* \"#utility.yul\":3990:3995   */\n      dup2\n        /* \"#utility.yul\":3987:4022   */\n      eq\n        /* \"#utility.yul\":3977:4040   */\n      tag_216\n      jumpi\n        /* \"#utility.yul\":4036:4037   */\n      0x00\n        /* \"#utility.yul\":4033:4034   */\n      0x00\n        /* \"#utility.yul\":4026:4038   */\n      revert\n        /* \"#utility.yul\":3977:4040   */\n    tag_216:\n        /* \"#utility.yul\":3924:4046   */\n      pop\n      jump\t// out\n        /* \"#utility.yul\":4052:4191   */\n    tag_128:\n        /* \"#utility.yul\":4098:4103   */\n      0x00\n        /* \"#utility.yul\":4136:4142   */\n      dup2\n        /* \"#utility.yul\":4123:4143   */\n      calldataload\n        /* \"#utility.yul\":4114:4143   */\n      swap1\n      pop\n        /* \"#utility.yul\":4152:4185   */\n      tag_218\n        /* \"#utility.yul\":4179:4184   */\n      dup2\n        /* \"#utility.yul\":4152:4185   */\n      tag_127\n      jump\t// in\n    tag_218:\n        /* \"#utility.yul\":4052:4191   */\n      swap3\n      swap2\n      pop\n      pop\n      jump\t// out\n        /* \"#utility.yul\":4197:4671   */\n    tag_34:\n        /* \"#utility.yul\":4265:4271   */\n      0x00\n        /* \"#utility.yul\":4273:4279   */\n      0x00\n        /* \"#utility.yul\":4322:4324   */\n      0x40\n        /* \"#utility.yul\":4310:4319   */\n      dup4\n        /* \"#utility.yul\":4301:4308   */\n      dup6\n        /* \"#utility.yul\":4297:4320   */\n      sub\n        /* \"#utility.yul\":4293:4325   */\n      slt\n        /* \"#utility.yul\":4290:4409   */\n      iszero\n      tag_220\n      jumpi\n        /* \"#utility.yul\":4328:4407   */\n      tag_221\n      tag_111\n      jump\t// in\n    tag_221:\n        /* \"#utility.yul\":4290:4409   */\n    tag_220:\n        /* \"#utility.yul\":4448:4449   */\n      0x00\n        /* \"#utility.yul\":4473:4526   */\n      tag_222\n        /* \"#utility.yul\":4518:4525   */\n      dup6\n        /* \"#utility.yul\":4509:4515   */\n      dup3\n        /* \"#utility.yul\":4498:4507   */\n      dup7\n        /* \"#utility.yul\":4494:4516   */\n      add\n        /* \"#utility.yul\":4473:4526   */\n      tag_115\n      jump\t// in\n    tag_222:\n        /* \"#utility.yul\":4463:4526   */\n      swap3\n      pop\n        /* \"#utility.yul\":4419:4536   */\n      pop\n        /* \"#utility.yul\":4575:4577   */\n      0x20\n        /* \"#utility.yul\":4601:4654   */\n      tag_223\n        /* \"#utility.yul\":4646:4653   */\n      dup6\n        /* \"#utility.yul\":4637:4643   */\n      dup3\n        /* \"#utility.yul\":4626:4635   */\n      dup7\n        /* \"#utility.yul\":4622:4644   */\n      add\n        /* \"#utility.yul\":4601:4654   */\n      tag_128\n      jump\t// in\n    tag_223:\n        /* \"#utility.yul\":4591:4654   */\n      swap2\n      pop\n        /* \"#utility.yul\":4546:4664   */\n      pop\n        /* \"#utility.yul\":4197:4671   */\n      swap3\n      pop\n      swap3\n      swap1\n      pop\n      jump\t// out\n        /* \"#utility.yul\":4677:4794   */\n    tag_129:\n        /* \"#utility.yul\":4786:4787   */\n      0x00\n        /* \"#utility.yul\":4783:4784   */\n      0x00\n        /* \"#utility.yul\":4776:4788   */\n      revert\n        /* \"#utility.yul\":4800:4917   */\n    tag_130:\n        /* \"#utility.yul\":4909:4910   */\n      0x00\n        /* \"#utility.yul\":4906:4907   */\n      0x00\n        /* \"#utility.yul\":4899:4911   */\n      revert\n        /* \"#utility.yul\":4923:5103   */\n    tag_131:\n        /* \"#utility.yul\":4971:5048   */\n      0x4e487b7100000000000000000000000000000000000000000000000000000000\n        /* \"#utility.yul\":4968:4969   */\n      0x00\n        /* \"#utility.yul\":4961:5049   */\n      mstore\n        /* \"#utility.yul\":5068:5072   */\n      0x41\n        /* \"#utility.yul\":5065:5066   */\n      0x04\n        /* \"#utility.yul\":5058:5073   */\n      mstore\n        /* \"#utility.yul\":5092:5096   */\n      0x24\n        /* \"#utility.yul\":5089:5090   */\n      0x00\n        /* \"#utility.yul\":5082:5097   */\n      revert\n        /* \"#utility.yul\":5109:5390   */\n    tag_132:\n        /* \"#utility.yul\":5192:5219   */\n      tag_228\n        /* \"#utility.yul\":5214:5218   */\n      dup3\n        /* \"#utility.yul\":5192:5219   */\n      tag_122\n      jump\t// in\n    tag_228:\n        /* \"#utility.yul\":5184:5190   */\n      dup2\n        /* \"#utility.yul\":5180:5220   */\n      add\n        /* \"#utility.yul\":5322:5328   */\n      dup2\n        /* \"#utility.yul\":5310:5320   */\n      dup2\n        /* \"#utility.yul\":5307:5329   */\n      lt\n        /* \"#utility.yul\":5286:5304   */\n      0xffffffffffffffff\n        /* \"#utility.yul\":5274:5284   */\n      dup3\n        /* \"#utility.yul\":5271:5305   */\n      gt\n        /* \"#utility.yul\":5268:5330   */\n      or\n        /* \"#utility.yul\":5265:5353   */\n      iszero\n      tag_229\n      jumpi\n        /* \"#utility.yul\":5333:5351   */\n      tag_230\n      tag_131\n      jump\t// in\n    tag_230:\n        /* \"#utility.yul\":5265:5353   */\n    tag_229:\n        /* \"#utility.yul\":5373:5383   */\n      dup1\n        /* \"#utility.yul\":5369:5371   */\n      0x40\n        /* \"#utility.yul\":5362:5384   */\n      mstore\n        /* \"#utility.yul\":5152:5390   */\n      pop\n        /* \"#utility.yul\":5109:5390   */\n      pop\n      pop\n      jump\t// out\n        /* \"#utility.yul\":5396:5525   */\n    tag_133:\n        /* \"#utility.yul\":5430:5436   */\n      0x00\n        /* \"#utility.yul\":5457:5477   */\n      tag_232\n      tag_110\n      jump\t// in\n    tag_232:\n        /* \"#utility.yul\":5447:5477   */\n      swap1\n      pop\n        /* \"#utility.yul\":5486:5519   */\n      tag_233\n        /* \"#utility.yul\":5514:5518   */\n      dup3\n        /* \"#utility.yul\":5506:5512   */\n      dup3\n        /* \"#utility.yul\":5486:5519   */\n      tag_132\n      jump\t// in\n    tag_233:\n        /* \"#utility.yul\":5396:5525   */\n      swap2\n      swap1\n      pop\n      jump\t// out\n        /* \"#utility.yul\":5531:5839   */\n    tag_134:\n        /* \"#utility.yul\":5593:5597   */\n      0x00\n        /* \"#utility.yul\":5683:5701   */\n      0xffffffffffffffff\n        /* \"#utility.yul\":5675:5681   */\n      dup3\n        /* \"#utility.yul\":5672:5702   */\n      gt\n        /* \"#utility.yul\":5669:5725   */\n      iszero\n      tag_235\n      jumpi\n        /* \"#utility.yul\":5705:5723   */\n      tag_236\n      tag_131\n      jump\t// in\n    tag_236:\n        /* \"#utility.yul\":5669:5725   */\n    tag_235:\n        /* \"#utility.yul\":5743:5772   */\n      tag_237\n        /* \"#utility.yul\":5765:5771   */\n      dup3\n        /* \"#utility.yul\":5743:5772   */\n      tag_122\n      jump\t// in\n    tag_237:\n        /* \"#utility.yul\":5735:5772   */\n      swap1\n      pop\n        /* \"#utility.yul\":5827:5831   */\n      0x20\n        /* \"#utility.yul\":5821:5825   */\n      dup2\n        /* \"#utility.yul\":5817:5832   */\n      add\n        /* \"#utility.yul\":5809:5832   */\n      swap1\n      pop\n        /* \"#utility.yul\":5531:5839   */\n      swap2\n      swap1\n      pop\n      jump\t// out\n        /* \"#utility.yul\":5845:5993   */\n    tag_135:\n        /* \"#utility.yul\":5943:5949   */\n      dup3\n        /* \"#utility.yul\":5938:5941   */\n      dup2\n        /* \"#utility.yul\":5933:5936   */\n      dup4\n        /* \"#utility.yul\":5920:5950   */\n      calldatacopy\n        /* \"#utility.yul\":5984:5985   */\n      0x00\n        /* \"#utility.yul\":5975:5981   */\n      dup4\n        /* \"#utility.yul\":5970:5973   */\n      dup4\n        /* \"#utility.yul\":5966:5982   */\n      add\n        /* \"#utility.yul\":5959:5986   */\n      mstore\n        /* \"#utility.yul\":5845:5993   */\n      pop\n      pop\n      pop\n      jump\t// out\n        /* \"#utility.yul\":5999:6424   */\n    tag_136:\n        /* \"#utility.yul\":6077:6082   */\n      0x00\n        /* \"#utility.yul\":6102:6168   */\n      tag_240\n        /* \"#utility.yul\":6118:6167   */\n      tag_241\n        /* \"#utility.yul\":6160:6166   */\n      dup5\n        /* \"#utility.yul\":6118:6167   */\n      tag_134\n      jump\t// in\n    tag_241:\n        /* \"#utility.yul\":6102:6168   */\n      tag_133\n      jump\t// in\n    tag_240:\n        /* \"#utility.yul\":6093:6168   */\n      swap1\n      pop\n        /* \"#utility.yul\":6191:6197   */\n      dup3\n        /* \"#utility.yul\":6184:6189   */\n      dup2\n        /* \"#utility.yul\":6177:6198   */\n      mstore\n        /* \"#utility.yul\":6229:6233   */\n      0x20\n        /* \"#utility.yul\":6222:6227   */\n      dup2\n        /* \"#utility.yul\":6218:6234   */\n      add\n        /* \"#utility.yul\":6267:6270   */\n      dup5\n        /* \"#utility.yul\":6258:6264   */\n      dup5\n        /* \"#utility.yul\":6253:6256   */\n      dup5\n        /* \"#utility.yul\":6249:6265   */\n      add\n        /* \"#utility.yul\":6246:6271   */\n      gt\n        /* \"#utility.yul\":6243:6355   */\n      iszero\n      tag_242\n      jumpi\n        /* \"#utility.yul\":6274:6353   */\n      tag_243\n      tag_130\n      jump\t// in\n    tag_243:\n        /* \"#utility.yul\":6243:6355   */\n    tag_242:\n        /* \"#utility.yul\":6364:6418   */\n      tag_244\n        /* \"#utility.yul\":6411:6417   */\n      dup5\n        /* \"#utility.yul\":6406:6409   */\n      dup3\n        /* \"#utility.yul\":6401:6404   */\n      dup6\n        /* \"#utility.yul\":6364:6418   */\n      tag_135\n      jump\t// in\n    tag_244:\n        /* \"#utility.yul\":6083:6424   */\n      pop\n        /* \"#utility.yul\":5999:6424   */\n      swap4\n      swap3\n      pop\n      pop\n      pop\n      jump\t// out\n        /* \"#utility.yul\":6444:6784   */\n    tag_137:\n        /* \"#utility.yul\":6500:6505   */\n      0x00\n        /* \"#utility.yul\":6549:6552   */\n      dup3\n        /* \"#utility.yul\":6542:6546   */\n      0x1f\n        /* \"#utility.yul\":6534:6540   */\n      dup4\n        /* \"#utility.yul\":6530:6547   */\n      add\n        /* \"#utility.yul\":6526:6553   */\n      slt\n        /* \"#utility.yul\":6516:6638   */\n      tag_246\n      jumpi\n        /* \"#utility.yul\":6557:6636   */\n      tag_247\n      tag_129\n      jump\t// in\n    tag_247:\n        /* \"#utility.yul\":6516:6638   */\n    tag_246:\n        /* \"#utility.yul\":6674:6680   */\n      dup2\n        /* \"#utility.yul\":6661:6681   */\n      calldataload\n        /* \"#utility.yul\":6699:6778   */\n      tag_248\n        /* \"#utility.yul\":6774:6777   */\n      dup5\n        /* \"#utility.yul\":6766:6772   */\n      dup3\n        /* \"#utility.yul\":6759:6763   */\n      0x20\n        /* \"#utility.yul\":6751:6757   */\n      dup7\n        /* \"#utility.yul\":6747:6764   */\n      add\n        /* \"#utility.yul\":6699:6778   */\n      tag_136\n      jump\t// in\n    tag_248:\n        /* \"#utility.yul\":6690:6778   */\n      swap2\n      pop\n        /* \"#utility.yul\":6506:6784   */\n      pop\n        /* \"#utility.yul\":6444:6784   */\n      swap3\n      swap2\n      pop\n      pop\n      jump\t// out\n        /* \"#utility.yul\":6790:8061   */\n    tag_46:\n        /* \"#utility.yul\":6905:6911   */\n      0x00\n        /* \"#utility.yul\":6913:6919   */\n      0x00\n        /* \"#utility.yul\":6921:6927   */\n      0x00\n        /* \"#utility.yul\":6929:6935   */\n      0x00\n        /* \"#utility.yul\":6937:6943   */\n      0x00\n        /* \"#utility.yul\":6986:6989   */\n      0xa0\n        /* \"#utility.yul\":6974:6983   */\n      dup7\n        /* \"#utility.yul\":6965:6972   */\n      dup9\n        /* \"#utility.yul\":6961:6984   */\n      sub\n        /* \"#utility.yul\":6957:6990   */\n      slt\n        /* \"#utility.yul\":6954:7074   */\n      iszero\n      tag_250\n      jumpi\n        /* \"#utility.yul\":6993:7072   */\n      tag_251\n      tag_111\n      jump\t// in\n    tag_251:\n        /* \"#utility.yul\":6954:7074   */\n    tag_250:\n        /* \"#utility.yul\":7141:7142   */\n      0x00\n        /* \"#utility.yul\":7130:7139   */\n      dup7\n        /* \"#utility.yul\":7126:7143   */\n      add\n        /* \"#utility.yul\":7113:7144   */\n      calldataload\n        /* \"#utility.yul\":7171:7189   */\n      0xffffffffffffffff\n        /* \"#utility.yul\":7163:7169   */\n      dup2\n        /* \"#utility.yul\":7160:7190   */\n      gt\n        /* \"#utility.yul\":7157:7274   */\n      iszero\n      tag_252\n      jumpi\n        /* \"#utility.yul\":7193:7272   */\n      tag_253\n      tag_112\n      jump\t// in\n    tag_253:\n        /* \"#utility.yul\":7157:7274   */\n    tag_252:\n        /* \"#utility.yul\":7298:7361   */\n      tag_254\n        /* \"#utility.yul\":7353:7360   */\n      dup9\n        /* \"#utility.yul\":7344:7350   */\n      dup3\n        /* \"#utility.yul\":7333:7342   */\n      dup10\n        /* \"#utility.yul\":7329:7351   */\n      add\n        /* \"#utility.yul\":7298:7361   */\n      tag_137\n      jump\t// in\n    tag_254:\n        /* \"#utility.yul\":7288:7361   */\n      swap6\n      pop\n        /* \"#utility.yul\":7084:7371   */\n      pop\n        /* \"#utility.yul\":7438:7440   */\n      0x20\n        /* \"#utility.yul\":7427:7436   */\n      dup7\n        /* \"#utility.yul\":7423:7441   */\n      add\n        /* \"#utility.yul\":7410:7442   */\n      calldataload\n        /* \"#utility.yul\":7469:7487   */\n      0xffffffffffffffff\n        /* \"#utility.yul\":7461:7467   */\n      dup2\n        /* \"#utility.yul\":7458:7488   */\n      gt\n        /* \"#utility.yul\":7455:7572   */\n      iszero\n      tag_255\n      jumpi\n        /* \"#utility.yul\":7491:7570   */\n      tag_256\n      tag_112\n      jump\t// in\n    tag_256:\n        /* \"#utility.yul\":7455:7572   */\n    tag_255:\n        /* \"#utility.yul\":7596:7659   */\n      tag_257\n        /* \"#utility.yul\":7651:7658   */\n      dup9\n        /* \"#utility.yul\":7642:7648   */\n      dup3\n        /* \"#utility.yul\":7631:7640   */\n      dup10\n        /* \"#utility.yul\":7627:7649   */\n      add\n        /* \"#utility.yul\":7596:7659   */\n      tag_137\n      jump\t// in\n    tag_257:\n        /* \"#utility.yul\":7586:7659   */\n      swap5\n      pop\n        /* \"#utility.yul\":7381:7669   */\n      pop\n        /* \"#utility.yul\":7708:7710   */\n      0x40\n        /* \"#utility.yul\":7734:7787   */\n      tag_258\n        /* \"#utility.yul\":7779:7786   */\n      dup9\n        /* \"#utility.yul\":7770:7776   */\n      dup3\n        /* \"#utility.yul\":7759:7768   */\n      dup10\n        /* \"#utility.yul\":7755:7777   */\n      add\n        /* \"#utility.yul\":7734:7787   */\n      tag_115\n      jump\t// in\n    tag_258:\n        /* \"#utility.yul\":7724:7787   */\n      swap4\n      pop\n        /* \"#utility.yul\":7679:7797   */\n      pop\n        /* \"#utility.yul\":7836:7838   */\n      0x60\n        /* \"#utility.yul\":7862:7915   */\n      tag_259\n        /* \"#utility.yul\":7907:7914   */\n      dup9\n        /* \"#utility.yul\":7898:7904   */\n      dup3\n        /* \"#utility.yul\":7887:7896   */\n      dup10\n        /* \"#utility.yul\":7883:7905   */\n      add\n        /* \"#utility.yul\":7862:7915   */\n      tag_115\n      jump\t// in\n    tag_259:\n        /* \"#utility.yul\":7852:7915   */\n      swap3\n      pop\n        /* \"#utility.yul\":7807:7925   */\n      pop\n        /* \"#utility.yul\":7964:7967   */\n      0x80\n        /* \"#utility.yul\":7991:8044   */\n      tag_260\n        /* \"#utility.yul\":8036:8043   */\n      dup9\n        /* \"#utility.yul\":8027:8033   */\n      dup3\n        /* \"#utility.yul\":8016:8025   */\n      dup10\n        /* \"#utility.yul\":8012:8034   */\n      add\n        /* \"#utility.yul\":7991:8044   */\n      tag_115\n      jump\t// in\n    tag_260:\n        /* \"#utility.yul\":7981:8044   */\n      swap2\n      pop\n        /* \"#utility.yul\":7935:8054   */\n      pop\n        /* \"#utility.yul\":6790:8061   */\n      swap3\n      swap6\n      pop\n      swap3\n      swap6\n      swap1\n      swap4\n      pop\n      jump\t// out\n        /* \"#utility.yul\":8067:8247   */\n    tag_138:\n        /* \"#utility.yul\":8115:8192   */\n      0x4e487b7100000000000000000000000000000000000000000000000000000000\n        /* \"#utility.yul\":8112:8113   */\n      0x00\n        /* \"#utility.yul\":8105:8193   */\n      mstore\n        /* \"#utility.yul\":8212:8216   */\n      0x22\n        /* \"#utility.yul\":8209:8210   */\n      0x04\n        /* \"#utility.yul\":8202:8217   */\n      mstore\n        /* \"#utility.yul\":8236:8240   */\n      0x24\n        /* \"#utility.yul\":8233:8234   */\n      0x00\n        /* \"#utility.yul\":8226:8241   */\n      revert\n        /* \"#utility.yul\":8253:8573   */\n    tag_49:\n        /* \"#utility.yul\":8297:8303   */\n      0x00\n        /* \"#utility.yul\":8334:8335   */\n      0x02\n        /* \"#utility.yul\":8328:8332   */\n      dup3\n        /* \"#utility.yul\":8324:8336   */\n      div\n        /* \"#utility.yul\":8314:8336   */\n      swap1\n      pop\n        /* \"#utility.yul\":8381:8382   */\n      0x01\n        /* \"#utility.yul\":8375:8379   */\n      dup3\n        /* \"#utility.yul\":8371:8383   */\n      and\n        /* \"#utility.yul\":8402:8420   */\n      dup1\n        /* \"#utility.yul\":8392:8473   */\n      tag_263\n      jumpi\n        /* \"#utility.yul\":8458:8462   */\n      0x7f\n        /* \"#utility.yul\":8450:8456   */\n      dup3\n        /* \"#utility.yul\":8446:8463   */\n      and\n        /* \"#utility.yul\":8436:8463   */\n      swap2\n      pop\n        /* \"#utility.yul\":8392:8473   */\n    tag_263:\n        /* \"#utility.yul\":8520:8522   */\n      0x20\n        /* \"#utility.yul\":8512:8518   */\n      dup3\n        /* \"#utility.yul\":8509:8523   */\n      lt\n        /* \"#utility.yul\":8489:8507   */\n      dup2\n        /* \"#utility.yul\":8486:8524   */\n      sub\n        /* \"#utility.yul\":8483:8567   */\n      tag_264\n      jumpi\n        /* \"#utility.yul\":8539:8557   */\n      tag_265\n      tag_138\n      jump\t// in\n    tag_265:\n        /* \"#utility.yul\":8483:8567   */\n    tag_264:\n        /* \"#utility.yul\":8304:8573   */\n      pop\n        /* \"#utility.yul\":8253:8573   */\n      swap2\n      swap1\n      pop\n      jump\t// out\n        /* \"#utility.yul\":8579:8759   */\n    tag_139:\n        /* \"#utility.yul\":8627:8704   */\n      0x4e487b7100000000000000000000000000000000000000000000000000000000\n        /* \"#utility.yul\":8624:8625   */\n      0x00\n        /* \"#utility.yul\":8617:8705   */\n      mstore\n        /* \"#utility.yul\":8724:8728   */\n      0x11\n        /* \"#utility.yul\":8721:8722   */\n      0x04\n        /* \"#utility.yul\":8714:8729   */\n      mstore\n        /* \"#utility.yul\":8748:8752   */\n      0x24\n        /* \"#utility.yul\":8745:8746   */\n      0x00\n        /* \"#utility.yul\":8738:8753   */\n      revert\n        /* \"#utility.yul\":8765:8959   */\n    tag_63:\n        /* \"#utility.yul\":8805:8809   */\n      0x00\n        /* \"#utility.yul\":8825:8845   */\n      tag_268\n        /* \"#utility.yul\":8843:8844   */\n      dup3\n        /* \"#utility.yul\":8825:8845   */\n      tag_113\n      jump\t// in\n    tag_268:\n        /* \"#utility.yul\":8820:8845   */\n      swap2\n      pop\n        /* \"#utility.yul\":8859:8879   */\n      tag_269\n        /* \"#utility.yul\":8877:8878   */\n      dup4\n        /* \"#utility.yul\":8859:8879   */\n      tag_113\n      jump\t// in\n    tag_269:\n        /* \"#utility.yul\":8854:8879   */\n      swap3\n      pop\n        /* \"#utility.yul\":8903:8904   */\n      dup3\n        /* \"#utility.yul\":8900:8901   */\n      dup3\n        /* \"#utility.yul\":8896:8905   */\n      sub\n        /* \"#utility.yul\":8888:8905   */\n      swap1\n      pop\n        /* \"#utility.yul\":8927:8928   */\n      dup2\n        /* \"#utility.yul\":8921:8925   */\n      dup2\n        /* \"#utility.yul\":8918:8929   */\n      gt\n        /* \"#utility.yul\":8915:8952   */\n      iszero\n      tag_270\n      jumpi\n        /* \"#utility.yul\":8932:8950   */\n      tag_271\n      tag_139\n      jump\t// in\n    tag_271:\n        /* \"#utility.yul\":8915:8952   */\n    tag_270:\n        /* \"#utility.yul\":8765:8959   */\n      swap3\n      swap2\n      pop\n      pop\n      jump\t// out\n        /* \"#utility.yul\":8965:9198   */\n    tag_140:\n        /* \"#utility.yul\":9105:9139   */\n      0x46756e64696e6720676f616c206861732072656163686564202c207573657220\n        /* \"#utility.yul\":9101:9102   */\n      0x00\n        /* \"#utility.yul\":9093:9099   */\n      dup3\n        /* \"#utility.yul\":9089:9103   */\n      add\n        /* \"#utility.yul\":9082:9140   */\n      mstore\n        /* \"#utility.yul\":9174:9190   */\n      0x63616e2774207769746864726177000000000000000000000000000000000000\n        /* \"#utility.yul\":9169:9171   */\n      0x20\n        /* \"#utility.yul\":9161:9167   */\n      dup3\n        /* \"#utility.yul\":9157:9172   */\n      add\n        /* \"#utility.yul\":9150:9191   */\n      mstore\n        /* \"#utility.yul\":8965:9198   */\n      pop\n      jump\t// out\n        /* \"#utility.yul\":9204:9570   */\n    tag_141:\n        /* \"#utility.yul\":9346:9349   */\n      0x00\n        /* \"#utility.yul\":9367:9434   */\n      tag_274\n        /* \"#utility.yul\":9431:9433   */\n      0x2e\n        /* \"#utility.yul\":9426:9429   */\n      dup4\n        /* \"#utility.yul\":9367:9434   */\n      tag_120\n      jump\t// in\n    tag_274:\n        /* \"#utility.yul\":9360:9434   */\n      swap2\n      pop\n        /* \"#utility.yul\":9443:9536   */\n      tag_275\n        /* \"#utility.yul\":9532:9535   */\n      dup3\n        /* \"#utility.yul\":9443:9536   */\n      tag_140\n      jump\t// in\n    tag_275:\n        /* \"#utility.yul\":9561:9563   */\n      0x40\n        /* \"#utility.yul\":9556:9559   */\n      dup3\n        /* \"#utility.yul\":9552:9564   */\n      add\n        /* \"#utility.yul\":9545:9564   */\n      swap1\n      pop\n        /* \"#utility.yul\":9204:9570   */\n      swap2\n      swap1\n      pop\n      jump\t// out\n        /* \"#utility.yul\":9576:9995   */\n    tag_67:\n        /* \"#utility.yul\":9742:9746   */\n      0x00\n        /* \"#utility.yul\":9780:9782   */\n      0x20\n        /* \"#utility.yul\":9769:9778   */\n      dup3\n        /* \"#utility.yul\":9765:9783   */\n      add\n        /* \"#utility.yul\":9757:9783   */\n      swap1\n      pop\n        /* \"#utility.yul\":9829:9838   */\n      dup2\n        /* \"#utility.yul\":9823:9827   */\n      dup2\n        /* \"#utility.yul\":9819:9839   */\n      sub\n        /* \"#utility.yul\":9815:9816   */\n      0x00\n        /* \"#utility.yul\":9804:9813   */\n      dup4\n        /* \"#utility.yul\":9800:9817   */\n      add\n        /* \"#utility.yul\":9793:9840   */\n      mstore\n        /* \"#utility.yul\":9857:9988   */\n      tag_277\n        /* \"#utility.yul\":9983:9987   */\n      dup2\n        /* \"#utility.yul\":9857:9988   */\n      tag_141\n      jump\t// in\n    tag_277:\n        /* \"#utility.yul\":9849:9988   */\n      swap1\n      pop\n        /* \"#utility.yul\":9576:9995   */\n      swap2\n      swap1\n      pop\n      jump\t// out\n        /* \"#utility.yul\":10001:10176   */\n    tag_142:\n        /* \"#utility.yul\":10141:10168   */\n      0x50726f6a65637420646561646c696e65206973206f7665722100000000000000\n        /* \"#utility.yul\":10137:10138   */\n      0x00\n        /* \"#utility.yul\":10129:10135   */\n      dup3\n        /* \"#utility.yul\":10125:10139   */\n      add\n        /* \"#utility.yul\":10118:10169   */\n      mstore\n        /* \"#utility.yul\":10001:10176   */\n      pop\n      jump\t// out\n        /* \"#utility.yul\":10182:10548   */\n    tag_143:\n        /* \"#utility.yul\":10324:10327   */\n      0x00\n        /* \"#utility.yul\":10345:10412   */\n      tag_280\n        /* \"#utility.yul\":10409:10411   */\n      0x19\n        /* \"#utility.yul\":10404:10407   */\n      dup4\n        /* \"#utility.yul\":10345:10412   */\n      tag_120\n      jump\t// in\n    tag_280:\n        /* \"#utility.yul\":10338:10412   */\n      swap2\n      pop\n        /* \"#utility.yul\":10421:10514   */\n      tag_281\n        /* \"#utility.yul\":10510:10513   */\n      dup3\n        /* \"#utility.yul\":10421:10514   */\n      tag_142\n      jump\t// in\n    tag_281:\n        /* \"#utility.yul\":10539:10541   */\n      0x20\n        /* \"#utility.yul\":10534:10537   */\n      dup3\n        /* \"#utility.yul\":10530:10542   */\n      add\n        /* \"#utility.yul\":10523:10542   */\n      swap1\n      pop\n        /* \"#utility.yul\":10182:10548   */\n      swap2\n      swap1\n      pop\n      jump\t// out\n        /* \"#utility.yul\":10554:10973   */\n    tag_74:\n        /* \"#utility.yul\":10720:10724   */\n      0x00\n        /* \"#utility.yul\":10758:10760   */\n      0x20\n        /* \"#utility.yul\":10747:10756   */\n      dup3\n        /* \"#utility.yul\":10743:10761   */\n      add\n        /* \"#utility.yul\":10735:10761   */\n      swap1\n      pop\n        /* \"#utility.yul\":10807:10816   */\n      dup2\n        /* \"#utility.yul\":10801:10805   */\n      dup2\n        /* \"#utility.yul\":10797:10817   */\n      sub\n        /* \"#utility.yul\":10793:10794   */\n      0x00\n        /* \"#utility.yul\":10782:10791   */\n      dup4\n        /* \"#utility.yul\":10778:10795   */\n      add\n        /* \"#utility.yul\":10771:10818   */\n      mstore\n        /* \"#utility.yul\":10835:10966   */\n      tag_283\n        /* \"#utility.yul\":10961:10965   */\n      dup2\n        /* \"#utility.yul\":10835:10966   */\n      tag_143\n      jump\t// in\n    tag_283:\n        /* \"#utility.yul\":10827:10966   */\n      swap1\n      pop\n        /* \"#utility.yul\":10554:10973   */\n      swap2\n      swap1\n      pop\n      jump\t// out\n        /* \"#utility.yul\":10979:11205   */\n    tag_144:\n        /* \"#utility.yul\":11119:11153   */\n      0x50726f6a6563742052656163686564206974732046756e64696e672072657175\n        /* \"#utility.yul\":11115:11116   */\n      0x00\n        /* \"#utility.yul\":11107:11113   */\n      dup3\n        /* \"#utility.yul\":11103:11117   */\n      add\n        /* \"#utility.yul\":11096:11154   */\n      mstore\n        /* \"#utility.yul\":11188:11197   */\n      0x6972656d656e7400000000000000000000000000000000000000000000000000\n        /* \"#utility.yul\":11183:11185   */\n      0x20\n        /* \"#utility.yul\":11175:11181   */\n      dup3\n        /* \"#utility.yul\":11171:11186   */\n      add\n        /* \"#utility.yul\":11164:11198   */\n      mstore\n        /* \"#utility.yul\":10979:11205   */\n      pop\n      jump\t// out\n        /* \"#utility.yul\":11211:11577   */\n    tag_145:\n        /* \"#utility.yul\":11353:11356   */\n      0x00\n        /* \"#utility.yul\":11374:11441   */\n      tag_286\n        /* \"#utility.yul\":11438:11440   */\n      0x27\n        /* \"#utility.yul\":11433:11436   */\n      dup4\n        /* \"#utility.yul\":11374:11441   */\n      tag_120\n      jump\t// in\n    tag_286:\n        /* \"#utility.yul\":11367:11441   */\n      swap2\n      pop\n        /* \"#utility.yul\":11450:11543   */\n      tag_287\n        /* \"#utility.yul\":11539:11542   */\n      dup3\n        /* \"#utility.yul\":11450:11543   */\n      tag_144\n      jump\t// in\n    tag_287:\n        /* \"#utility.yul\":11568:11570   */\n      0x40\n        /* \"#utility.yul\":11563:11566   */\n      dup3\n        /* \"#utility.yul\":11559:11571   */\n      add\n        /* \"#utility.yul\":11552:11571   */\n      swap1\n      pop\n        /* \"#utility.yul\":11211:11577   */\n      swap2\n      swap1\n      pop\n      jump\t// out\n        /* \"#utility.yul\":11583:12002   */\n    tag_77:\n        /* \"#utility.yul\":11749:11753   */\n      0x00\n        /* \"#utility.yul\":11787:11789   */\n      0x20\n        /* \"#utility.yul\":11776:11785   */\n      dup3\n        /* \"#utility.yul\":11772:11790   */\n      add\n        /* \"#utility.yul\":11764:11790   */\n      swap1\n      pop\n        /* \"#utility.yul\":11836:11845   */\n      dup2\n        /* \"#utility.yul\":11830:11834   */\n      dup2\n        /* \"#utility.yul\":11826:11846   */\n      sub\n        /* \"#utility.yul\":11822:11823   */\n      0x00\n        /* \"#utility.yul\":11811:11820   */\n      dup4\n        /* \"#utility.yul\":11807:11824   */\n      add\n        /* \"#utility.yul\":11800:11847   */\n      mstore\n        /* \"#utility.yul\":11864:11995   */\n      tag_289\n        /* \"#utility.yul\":11990:11994   */\n      dup2\n        /* \"#utility.yul\":11864:11995   */\n      tag_145\n      jump\t// in\n    tag_289:\n        /* \"#utility.yul\":11856:11995   */\n      swap1\n      pop\n        /* \"#utility.yul\":11583:12002   */\n      swap2\n      swap1\n      pop\n      jump\t// out\n        /* \"#utility.yul\":12008:12239   */\n    tag_146:\n        /* \"#utility.yul\":12148:12182   */\n      0x73656e6420736f6d6520657468657220746f20636f6e7472696275746520696e\n        /* \"#utility.yul\":12144:12145   */\n      0x00\n        /* \"#utility.yul\":12136:12142   */\n      dup3\n        /* \"#utility.yul\":12132:12146   */\n      add\n        /* \"#utility.yul\":12125:12183   */\n      mstore\n        /* \"#utility.yul\":12217:12231   */\n      0x207468652070726f6a6563740000000000000000000000000000000000000000\n        /* \"#utility.yul\":12212:12214   */\n      0x20\n        /* \"#utility.yul\":12204:12210   */\n      dup3\n        /* \"#utility.yul\":12200:12215   */\n      add\n        /* \"#utility.yul\":12193:12232   */\n      mstore\n        /* \"#utility.yul\":12008:12239   */\n      pop\n      jump\t// out\n        /* \"#utility.yul\":12245:12611   */\n    tag_147:\n        /* \"#utility.yul\":12387:12390   */\n      0x00\n        /* \"#utility.yul\":12408:12475   */\n      tag_292\n        /* \"#utility.yul\":12472:12474   */\n      0x2c\n        /* \"#utility.yul\":12467:12470   */\n      dup4\n        /* \"#utility.yul\":12408:12475   */\n      tag_120\n      jump\t// in\n    tag_292:\n        /* \"#utility.yul\":12401:12475   */\n      swap2\n      pop\n        /* \"#utility.yul\":12484:12577   */\n      tag_293\n        /* \"#utility.yul\":12573:12576   */\n      dup3\n        /* \"#utility.yul\":12484:12577   */\n      tag_146\n      jump\t// in\n    tag_293:\n        /* \"#utility.yul\":12602:12604   */\n      0x40\n        /* \"#utility.yul\":12597:12600   */\n      dup3\n        /* \"#utility.yul\":12593:12605   */\n      add\n        /* \"#utility.yul\":12586:12605   */\n      swap1\n      pop\n        /* \"#utility.yul\":12245:12611   */\n      swap2\n      swap1\n      pop\n      jump\t// out\n        /* \"#utility.yul\":12617:13036   */\n    tag_80:\n        /* \"#utility.yul\":12783:12787   */\n      0x00\n        /* \"#utility.yul\":12821:12823   */\n      0x20\n        /* \"#utility.yul\":12810:12819   */\n      dup3\n        /* \"#utility.yul\":12806:12824   */\n      add\n        /* \"#utility.yul\":12798:12824   */\n      swap1\n      pop\n        /* \"#utility.yul\":12870:12879   */\n      dup2\n        /* \"#utility.yul\":12864:12868   */\n      dup2\n        /* \"#utility.yul\":12860:12880   */\n      sub\n        /* \"#utility.yul\":12856:12857   */\n      0x00\n        /* \"#utility.yul\":12845:12854   */\n      dup4\n        /* \"#utility.yul\":12841:12858   */\n      add\n        /* \"#utility.yul\":12834:12881   */\n      mstore\n        /* \"#utility.yul\":12898:13029   */\n      tag_295\n        /* \"#utility.yul\":13024:13028   */\n      dup2\n        /* \"#utility.yul\":12898:13029   */\n      tag_147\n      jump\t// in\n    tag_295:\n        /* \"#utility.yul\":12890:13029   */\n      swap1\n      pop\n        /* \"#utility.yul\":12617:13036   */\n      swap2\n      swap1\n      pop\n      jump\t// out\n        /* \"#utility.yul\":13042:13233   */\n    tag_82:\n        /* \"#utility.yul\":13082:13085   */\n      0x00\n        /* \"#utility.yul\":13101:13121   */\n      tag_297\n        /* \"#utility.yul\":13119:13120   */\n      dup3\n        /* \"#utility.yul\":13101:13121   */\n      tag_113\n      jump\t// in\n    tag_297:\n        /* \"#utility.yul\":13096:13121   */\n      swap2\n      pop\n        /* \"#utility.yul\":13135:13155   */\n      tag_298\n        /* \"#utility.yul\":13153:13154   */\n      dup4\n        /* \"#utility.yul\":13135:13155   */\n      tag_113\n      jump\t// in\n    tag_298:\n        /* \"#utility.yul\":13130:13155   */\n      swap3\n      pop\n        /* \"#utility.yul\":13178:13179   */\n      dup3\n        /* \"#utility.yul\":13175:13176   */\n      dup3\n        /* \"#utility.yul\":13171:13180   */\n      add\n        /* \"#utility.yul\":13164:13180   */\n      swap1\n      pop\n        /* \"#utility.yul\":13199:13202   */\n      dup1\n        /* \"#utility.yul\":13196:13197   */\n      dup3\n        /* \"#utility.yul\":13193:13203   */\n      gt\n        /* \"#utility.yul\":13190:13226   */\n      iszero\n      tag_299\n      jumpi\n        /* \"#utility.yul\":13206:13224   */\n      tag_300\n      tag_139\n      jump\t// in\n    tag_300:\n        /* \"#utility.yul\":13190:13226   */\n    tag_299:\n        /* \"#utility.yul\":13042:13233   */\n      swap3\n      swap2\n      pop\n      pop\n      jump\t// out\n        /* \"#utility.yul\":13239:13571   */\n    tag_85:\n        /* \"#utility.yul\":13360:13364   */\n      0x00\n        /* \"#utility.yul\":13398:13400   */\n      0x40\n        /* \"#utility.yul\":13387:13396   */\n      dup3\n        /* \"#utility.yul\":13383:13401   */\n      add\n        /* \"#utility.yul\":13375:13401   */\n      swap1\n      pop\n        /* \"#utility.yul\":13411:13482   */\n      tag_302\n        /* \"#utility.yul\":13479:13480   */\n      0x00\n        /* \"#utility.yul\":13468:13477   */\n      dup4\n        /* \"#utility.yul\":13464:13481   */\n      add\n        /* \"#utility.yul\":13455:13461   */\n      dup6\n        /* \"#utility.yul\":13411:13482   */\n      tag_118\n      jump\t// in\n    tag_302:\n        /* \"#utility.yul\":13492:13564   */\n      tag_303\n        /* \"#utility.yul\":13560:13562   */\n      0x20\n        /* \"#utility.yul\":13549:13558   */\n      dup4\n        /* \"#utility.yul\":13545:13563   */\n      add\n        /* \"#utility.yul\":13536:13542   */\n      dup5\n        /* \"#utility.yul\":13492:13564   */\n      tag_124\n      jump\t// in\n    tag_303:\n        /* \"#utility.yul\":13239:13571   */\n      swap4\n      swap3\n      pop\n      pop\n      pop\n      jump\t// out\n        /* \"#utility.yul\":13577:13815   */\n    tag_148:\n        /* \"#utility.yul\":13717:13751   */\n      0x66756e64696e6720676f616c20686173206e6f742072656163686564202c2061\n        /* \"#utility.yul\":13713:13714   */\n      0x00\n        /* \"#utility.yul\":13705:13711   */\n      dup3\n        /* \"#utility.yul\":13701:13715   */\n      add\n        /* \"#utility.yul\":13694:13752   */\n      mstore\n        /* \"#utility.yul\":13786:13807   */\n      0x646d696e2063616e277420776974686472617700000000000000000000000000\n        /* \"#utility.yul\":13781:13783   */\n      0x20\n        /* \"#utility.yul\":13773:13779   */\n      dup3\n        /* \"#utility.yul\":13769:13784   */\n      add\n        /* \"#utility.yul\":13762:13808   */\n      mstore\n        /* \"#utility.yul\":13577:13815   */\n      pop\n      jump\t// out\n        /* \"#utility.yul\":13821:14187   */\n    tag_149:\n        /* \"#utility.yul\":13963:13966   */\n      0x00\n        /* \"#utility.yul\":13984:14051   */\n      tag_306\n        /* \"#utility.yul\":14048:14050   */\n      0x33\n        /* \"#utility.yul\":14043:14046   */\n      dup4\n        /* \"#utility.yul\":13984:14051   */\n      tag_120\n      jump\t// in\n    tag_306:\n        /* \"#utility.yul\":13977:14051   */\n      swap2\n      pop\n        /* \"#utility.yul\":14060:14153   */\n      tag_307\n        /* \"#utility.yul\":14149:14152   */\n      dup3\n        /* \"#utility.yul\":14060:14153   */\n      tag_148\n      jump\t// in\n    tag_307:\n        /* \"#utility.yul\":14178:14180   */\n      0x40\n        /* \"#utility.yul\":14173:14176   */\n      dup3\n        /* \"#utility.yul\":14169:14181   */\n      add\n        /* \"#utility.yul\":14162:14181   */\n      swap1\n      pop\n        /* \"#utility.yul\":13821:14187   */\n      swap2\n      swap1\n      pop\n      jump\t// out\n        /* \"#utility.yul\":14193:14612   */\n    tag_90:\n        /* \"#utility.yul\":14359:14363   */\n      0x00\n        /* \"#utility.yul\":14397:14399   */\n      0x20\n        /* \"#utility.yul\":14386:14395   */\n      dup3\n        /* \"#utility.yul\":14382:14400   */\n      add\n        /* \"#utility.yul\":14374:14400   */\n      swap1\n      pop\n        /* \"#utility.yul\":14446:14455   */\n      dup2\n        /* \"#utility.yul\":14440:14444   */\n      dup2\n        /* \"#utility.yul\":14436:14456   */\n      sub\n        /* \"#utility.yul\":14432:14433   */\n      0x00\n        /* \"#utility.yul\":14421:14430   */\n      dup4\n        /* \"#utility.yul\":14417:14434   */\n      add\n        /* \"#utility.yul\":14410:14457   */\n      mstore\n        /* \"#utility.yul\":14474:14605   */\n      tag_309\n        /* \"#utility.yul\":14600:14604   */\n      dup2\n        /* \"#utility.yul\":14474:14605   */\n      tag_149\n      jump\t// in\n    tag_309:\n        /* \"#utility.yul\":14466:14605   */\n      swap1\n      pop\n        /* \"#utility.yul\":14193:14612   */\n      swap2\n      swap1\n      pop\n      jump\t// out\n        /* \"#utility.yul\":14618:14791   */\n    tag_150:\n        /* \"#utility.yul\":14758:14783   */\n      0x6f6e6c792061646d696e2063616e207769746864726177000000000000000000\n        /* \"#utility.yul\":14754:14755   */\n      0x00\n        /* \"#utility.yul\":14746:14752   */\n      dup3\n        /* \"#utility.yul\":14742:14756   */\n      add\n        /* \"#utility.yul\":14735:14784   */\n      mstore\n        /* \"#utility.yul\":14618:14791   */\n      pop\n      jump\t// out\n        /* \"#utility.yul\":14797:15163   */\n    tag_151:\n        /* \"#utility.yul\":14939:14942   */\n      0x00\n        /* \"#utility.yul\":14960:15027   */\n      tag_312\n        /* \"#utility.yul\":15024:15026   */\n      0x17\n        /* \"#utility.yul\":15019:15022   */\n      dup4\n        /* \"#utility.yul\":14960:15027   */\n      tag_120\n      jump\t// in\n    tag_312:\n        /* \"#utility.yul\":14953:15027   */\n      swap2\n      pop\n        /* \"#utility.yul\":15036:15129   */\n      tag_313\n        /* \"#utility.yul\":15125:15128   */\n      dup3\n        /* \"#utility.yul\":15036:15129   */\n      tag_150\n      jump\t// in\n    tag_313:\n        /* \"#utility.yul\":15154:15156   */\n      0x20\n        /* \"#utility.yul\":15149:15152   */\n      dup3\n        /* \"#utility.yul\":15145:15157   */\n      add\n        /* \"#utility.yul\":15138:15157   */\n      swap1\n      pop\n        /* \"#utility.yul\":14797:15163   */\n      swap2\n      swap1\n      pop\n      jump\t// out\n        /* \"#utility.yul\":15169:15588   */\n    tag_93:\n        /* \"#utility.yul\":15335:15339   */\n      0x00\n        /* \"#utility.yul\":15373:15375   */\n      0x20\n        /* \"#utility.yul\":15362:15371   */\n      dup3\n        /* \"#utility.yul\":15358:15376   */\n      add\n        /* \"#utility.yul\":15350:15376   */\n      swap1\n      pop\n        /* \"#utility.yul\":15422:15431   */\n      dup2\n        /* \"#utility.yul\":15416:15420   */\n      dup2\n        /* \"#utility.yul\":15412:15432   */\n      sub\n        /* \"#utility.yul\":15408:15409   */\n      0x00\n        /* \"#utility.yul\":15397:15406   */\n      dup4\n        /* \"#utility.yul\":15393:15410   */\n      add\n        /* \"#utility.yul\":15386:15433   */\n      mstore\n        /* \"#utility.yul\":15450:15581   */\n      tag_315\n        /* \"#utility.yul\":15576:15580   */\n      dup2\n        /* \"#utility.yul\":15450:15581   */\n      tag_151\n      jump\t// in\n    tag_315:\n        /* \"#utility.yul\":15442:15581   */\n      swap1\n      pop\n        /* \"#utility.yul\":15169:15588   */\n      swap2\n      swap1\n      pop\n      jump\t// out\n        /* \"#utility.yul\":15594:15828   */\n    tag_152:\n        /* \"#utility.yul\":15734:15768   */\n      0x646561646c696e6520686173206e6f742072656163686564202c2061646d696e\n        /* \"#utility.yul\":15730:15731   */\n      0x00\n        /* \"#utility.yul\":15722:15728   */\n      dup3\n        /* \"#utility.yul\":15718:15732   */\n      add\n        /* \"#utility.yul\":15711:15769   */\n      mstore\n        /* \"#utility.yul\":15803:15820   */\n      0x2063616e27742077697468647261770000000000000000000000000000000000\n        /* \"#utility.yul\":15798:15800   */\n      0x20\n        /* \"#utility.yul\":15790:15796   */\n      dup3\n        /* \"#utility.yul\":15786:15801   */\n      add\n        /* \"#utility.yul\":15779:15821   */\n      mstore\n        /* \"#utility.yul\":15594:15828   */\n      pop\n      jump\t// out\n        /* \"#utility.yul\":15834:16200   */\n    tag_153:\n        /* \"#utility.yul\":15976:15979   */\n      0x00\n        /* \"#utility.yul\":15997:16064   */\n      tag_318\n        /* \"#utility.yul\":16061:16063   */\n      0x2f\n        /* \"#utility.yul\":16056:16059   */\n      dup4\n        /* \"#utility.yul\":15997:16064   */\n      tag_120\n      jump\t// in\n    tag_318:\n        /* \"#utility.yul\":15990:16064   */\n      swap2\n      pop\n        /* \"#utility.yul\":16073:16166   */\n      tag_319\n        /* \"#utility.yul\":16162:16165   */\n      dup3\n        /* \"#utility.yul\":16073:16166   */\n      tag_152\n      jump\t// in\n    tag_319:\n        /* \"#utility.yul\":16191:16193   */\n      0x40\n        /* \"#utility.yul\":16186:16189   */\n      dup3\n        /* \"#utility.yul\":16182:16194   */\n      add\n        /* \"#utility.yul\":16175:16194   */\n      swap1\n      pop\n        /* \"#utility.yul\":15834:16200   */\n      swap2\n      swap1\n      pop\n      jump\t// out\n        /* \"#utility.yul\":16206:16625   */\n    tag_96:\n        /* \"#utility.yul\":16372:16376   */\n      0x00\n        /* \"#utility.yul\":16410:16412   */\n      0x20\n        /* \"#utility.yul\":16399:16408   */\n      dup3\n        /* \"#utility.yul\":16395:16413   */\n      add\n        /* \"#utility.yul\":16387:16413   */\n      swap1\n      pop\n        /* \"#utility.yul\":16459:16468   */\n      dup2\n        /* \"#utility.yul\":16453:16457   */\n      dup2\n        /* \"#utility.yul\":16449:16469   */\n      sub\n        /* \"#utility.yul\":16445:16446   */\n      0x00\n        /* \"#utility.yul\":16434:16443   */\n      dup4\n        /* \"#utility.yul\":16430:16447   */\n      add\n        /* \"#utility.yul\":16423:16470   */\n      mstore\n        /* \"#utility.yul\":16487:16618   */\n      tag_321\n        /* \"#utility.yul\":16613:16617   */\n      dup2\n        /* \"#utility.yul\":16487:16618   */\n      tag_153\n      jump\t// in\n    tag_321:\n        /* \"#utility.yul\":16479:16618   */\n      swap1\n      pop\n        /* \"#utility.yul\":16206:16625   */\n      swap2\n      swap1\n      pop\n      jump\t// out\n        /* \"#utility.yul\":16631:16810   */\n    tag_154:\n        /* \"#utility.yul\":16771:16802   */\n      0x50726f6a65637420494420697320616c726561647920696e2075736521000000\n        /* \"#utility.yul\":16767:16768   */\n      0x00\n        /* \"#utility.yul\":16759:16765   */\n      dup3\n        /* \"#utility.yul\":16755:16769   */\n      add\n        /* \"#utility.yul\":16748:16803   */\n      mstore\n        /* \"#utility.yul\":16631:16810   */\n      pop\n      jump\t// out\n        /* \"#utility.yul\":16816:17182   */\n    tag_155:\n        /* \"#utility.yul\":16958:16961   */\n      0x00\n        /* \"#utility.yul\":16979:17046   */\n      tag_324\n        /* \"#utility.yul\":17043:17045   */\n      0x1d\n        /* \"#utility.yul\":17038:17041   */\n      dup4\n        /* \"#utility.yul\":16979:17046   */\n      tag_120\n      jump\t// in\n    tag_324:\n        /* \"#utility.yul\":16972:17046   */\n      swap2\n      pop\n        /* \"#utility.yul\":17055:17148   */\n      tag_325\n        /* \"#utility.yul\":17144:17147   */\n      dup3\n        /* \"#utility.yul\":17055:17148   */\n      tag_154\n      jump\t// in\n    tag_325:\n        /* \"#utility.yul\":17173:17175   */\n      0x20\n        /* \"#utility.yul\":17168:17171   */\n      dup3\n        /* \"#utility.yul\":17164:17176   */\n      add\n        /* \"#utility.yul\":17157:17176   */\n      swap1\n      pop\n        /* \"#utility.yul\":16816:17182   */\n      swap2\n      swap1\n      pop\n      jump\t// out\n        /* \"#utility.yul\":17188:17607   */\n    tag_102:\n        /* \"#utility.yul\":17354:17358   */\n      0x00\n        /* \"#utility.yul\":17392:17394   */\n      0x20\n        /* \"#utility.yul\":17381:17390   */\n      dup3\n        /* \"#utility.yul\":17377:17395   */\n      add\n        /* \"#utility.yul\":17369:17395   */\n      swap1\n      pop\n        /* \"#utility.yul\":17441:17450   */\n      dup2\n        /* \"#utility.yul\":17435:17439   */\n      dup2\n        /* \"#utility.yul\":17431:17451   */\n      sub\n        /* \"#utility.yul\":17427:17428   */\n      0x00\n        /* \"#utility.yul\":17416:17425   */\n      dup4\n        /* \"#utility.yul\":17412:17429   */\n      add\n        /* \"#utility.yul\":17405:17452   */\n      mstore\n        /* \"#utility.yul\":17469:17600   */\n      tag_327\n        /* \"#utility.yul\":17595:17599   */\n      dup2\n        /* \"#utility.yul\":17469:17600   */\n      tag_155\n      jump\t// in\n    tag_327:\n        /* \"#utility.yul\":17461:17600   */\n      swap1\n      pop\n        /* \"#utility.yul\":17188:17607   */\n      swap2\n      swap1\n      pop\n      jump\t// out\n        /* \"#utility.yul\":17613:17754   */\n    tag_156:\n        /* \"#utility.yul\":17662:17666   */\n      0x00\n        /* \"#utility.yul\":17685:17688   */\n      dup2\n        /* \"#utility.yul\":17677:17688   */\n      swap1\n      pop\n        /* \"#utility.yul\":17708:17711   */\n      dup2\n        /* \"#utility.yul\":17705:17706   */\n      0x00\n        /* \"#utility.yul\":17698:17712   */\n      mstore\n        /* \"#utility.yul\":17742:17746   */\n      0x20\n        /* \"#utility.yul\":17739:17740   */\n      0x00\n        /* \"#utility.yul\":17729:17747   */\n      keccak256\n        /* \"#utility.yul\":17721:17747   */\n      swap1\n      pop\n        /* \"#utility.yul\":17613:17754   */\n      swap2\n      swap1\n      pop\n      jump\t// out\n        /* \"#utility.yul\":17760:17853   */\n    tag_157:\n        /* \"#utility.yul\":17797:17803   */\n      0x00\n        /* \"#utility.yul\":17844:17846   */\n      0x20\n        /* \"#utility.yul\":17839:17841   */\n      0x1f\n        /* \"#utility.yul\":17832:17837   */\n      dup4\n        /* \"#utility.yul\":17828:17842   */\n      add\n        /* \"#utility.yul\":17824:17847   */\n      div\n        /* \"#utility.yul\":17814:17847   */\n      swap1\n      pop\n        /* \"#utility.yul\":17760:17853   */\n      swap2\n      swap1\n      pop\n      jump\t// out\n        /* \"#utility.yul\":17859:17966   */\n    tag_158:\n        /* \"#utility.yul\":17903:17911   */\n      0x00\n        /* \"#utility.yul\":17953:17958   */\n      dup3\n        /* \"#utility.yul\":17947:17951   */\n      dup3\n        /* \"#utility.yul\":17943:17959   */\n      shl\n        /* \"#utility.yul\":17922:17959   */\n      swap1\n      pop\n        /* \"#utility.yul\":17859:17966   */\n      swap3\n      swap2\n      pop\n      pop\n      jump\t// out\n        /* \"#utility.yul\":17972:18365   */\n    tag_159:\n        /* \"#utility.yul\":18041:18047   */\n      0x00\n        /* \"#utility.yul\":18091:18092   */\n      0x08\n        /* \"#utility.yul\":18079:18089   */\n      dup4\n        /* \"#utility.yul\":18075:18093   */\n      mul\n        /* \"#utility.yul\":18114:18211   */\n      tag_332\n        /* \"#utility.yul\":18144:18210   */\n      0xffffffffffffffffffffffffffffffffffffffffffffffffffffffffffffffff\n        /* \"#utility.yul\":18133:18142   */\n      dup3\n        /* \"#utility.yul\":18114:18211   */\n      tag_158\n      jump\t// in\n    tag_332:\n        /* \"#utility.yul\":18232:18271   */\n      tag_333\n        /* \"#utility.yul\":18262:18270   */\n      dup7\n        /* \"#utility.yul\":18251:18260   */\n      dup4\n        /* \"#utility.yul\":18232:18271   */\n      tag_158\n      jump\t// in\n    tag_333:\n        /* \"#utility.yul\":18220:18271   */\n      swap6\n      pop\n        /* \"#utility.yul\":18304:18308   */\n      dup1\n        /* \"#utility.yul\":18300:18309   */\n      not\n        /* \"#utility.yul\":18293:18298   */\n      dup5\n        /* \"#utility.yul\":18289:18310   */\n      and\n        /* \"#utility.yul\":18280:18310   */\n      swap4\n      pop\n        /* \"#utility.yul\":18353:18357   */\n      dup1\n        /* \"#utility.yul\":18343:18351   */\n      dup7\n        /* \"#utility.yul\":18339:18358   */\n      and\n        /* \"#utility.yul\":18332:18337   */\n      dup5\n        /* \"#utility.yul\":18329:18359   */\n      or\n        /* \"#utility.yul\":18319:18359   */\n      swap3\n      pop\n        /* \"#utility.yul\":18048:18365   */\n      pop\n      pop\n        /* \"#utility.yul\":17972:18365   */\n      swap4\n      swap3\n      pop\n      pop\n      pop\n      jump\t// out\n        /* \"#utility.yul\":18371:18431   */\n    tag_160:\n        /* \"#utility.yul\":18399:18402   */\n      0x00\n        /* \"#utility.yul\":18420:18425   */\n      dup2\n        /* \"#utility.yul\":18413:18425   */\n      swap1\n      pop\n        /* \"#utility.yul\":18371:18431   */\n      swap2\n      swap1\n      pop\n      jump\t// out\n        /* \"#utility.yul\":18437:18579   */\n    tag_161:\n        /* \"#utility.yul\":18487:18496   */\n      0x00\n        /* \"#utility.yul\":18520:18573   */\n      tag_336\n        /* \"#utility.yul\":18538:18572   */\n      tag_337\n        /* \"#utility.yul\":18547:18571   */\n      tag_338\n        /* \"#utility.yul\":18565:18570   */\n      dup5\n        /* \"#utility.yul\":18547:18571   */\n      tag_113\n      jump\t// in\n    tag_338:\n        /* \"#utility.yul\":18538:18572   */\n      tag_160\n      jump\t// in\n    tag_337:\n        /* \"#utility.yul\":18520:18573   */\n      tag_113\n      jump\t// in\n    tag_336:\n        /* \"#utility.yul\":18507:18573   */\n      swap1\n      pop\n        /* \"#utility.yul\":18437:18579   */\n      swap2\n      swap1\n      pop\n      jump\t// out\n        /* \"#utility.yul\":18585:18660   */\n    tag_162:\n        /* \"#utility.yul\":18628:18631   */\n      0x00\n        /* \"#utility.yul\":18649:18654   */\n      dup2\n        /* \"#utility.yul\":18642:18654   */\n      swap1\n      pop\n        /* \"#utility.yul\":18585:18660   */\n      swap2\n      swap1\n      pop\n      jump\t// out\n        /* \"#utility.yul\":18666:18935   */\n    tag_163:\n        /* \"#utility.yul\":18776:18815   */\n      tag_341\n        /* \"#utility.yul\":18807:18814   */\n      dup4\n        /* \"#utility.yul\":18776:18815   */\n      tag_161\n      jump\t// in\n    tag_341:\n        /* \"#utility.yul\":18837:18928   */\n      tag_342\n        /* \"#utility.yul\":18886:18927   */\n      tag_343\n        /* \"#utility.yul\":18910:18926   */\n      dup3\n        /* \"#utility.yul\":18886:18927   */\n      tag_162\n      jump\t// in\n    tag_343:\n        /* \"#utility.yul\":18878:18884   */\n      dup5\n        /* \"#utility.yul\":18871:18875   */\n      dup5\n        /* \"#utility.yul\":18865:18876   */\n      sload\n        /* \"#utility.yul\":18837:18928   */\n      tag_159\n      jump\t// in\n    tag_342:\n        /* \"#utility.yul\":18831:18835   */\n      dup3\n        /* \"#utility.yul\":18824:18929   */\n      sstore\n        /* \"#utility.yul\":18742:18935   */\n      pop\n        /* \"#utility.yul\":18666:18935   */\n      pop\n      pop\n      pop\n      jump\t// out\n        /* \"#utility.yul\":18941:19014   */\n    tag_164:\n        /* \"#utility.yul\":18986:18989   */\n      0x00\n        /* \"#utility.yul\":19007:19008   */\n      0x00\n        /* \"#utility.yul\":19000:19008   */\n      swap1\n      pop\n        /* \"#utility.yul\":18941:19014   */\n      swap1\n      jump\t// out\n        /* \"#utility.yul\":19020:19209   */\n    tag_165:\n        /* \"#utility.yul\":19097:19129   */\n      tag_346\n      tag_164\n      jump\t// in\n    tag_346:\n        /* \"#utility.yul\":19138:19203   */\n      tag_347\n        /* \"#utility.yul\":19196:19202   */\n      dup2\n        /* \"#utility.yul\":19188:19194   */\n      dup5\n        /* \"#utility.yul\":19182:19186   */\n      dup5\n        /* \"#utility.yul\":19138:19203   */\n      tag_163\n      jump\t// in\n    tag_347:\n        /* \"#utility.yul\":19073:19209   */\n      pop\n        /* \"#utility.yul\":19020:19209   */\n      pop\n      pop\n      jump\t// out\n        /* \"#utility.yul\":19215:19401   */\n    tag_166:\n        /* \"#utility.yul\":19275:19395   */\n    tag_349:\n        /* \"#utility.yul\":19292:19295   */\n      dup2\n        /* \"#utility.yul\":19285:19290   */\n      dup2\n        /* \"#utility.yul\":19282:19296   */\n      lt\n        /* \"#utility.yul\":19275:19395   */\n      iszero\n      tag_351\n      jumpi\n        /* \"#utility.yul\":19346:19385   */\n      tag_352\n        /* \"#utility.yul\":19383:19384   */\n      0x00\n        /* \"#utility.yul\":19376:19381   */\n      dup3\n        /* \"#utility.yul\":19346:19385   */\n      tag_165\n      jump\t// in\n    tag_352:\n        /* \"#utility.yul\":19319:19320   */\n      0x01\n        /* \"#utility.yul\":19312:19317   */\n      dup2\n        /* \"#utility.yul\":19308:19321   */\n      add\n        /* \"#utility.yul\":19299:19321   */\n      swap1\n      pop\n        /* \"#utility.yul\":19275:19395   */\n      jump(tag_349)\n    tag_351:\n        /* \"#utility.yul\":19215:19401   */\n      pop\n      pop\n      jump\t// out\n        /* \"#utility.yul\":19407:19950   */\n    tag_167:\n        /* \"#utility.yul\":19508:19510   */\n      0x1f\n        /* \"#utility.yul\":19503:19506   */\n      dup3\n        /* \"#utility.yul\":19500:19511   */\n      gt\n        /* \"#utility.yul\":19497:19943   */\n      iszero\n      tag_354\n      jumpi\n        /* \"#utility.yul\":19542:19580   */\n      tag_355\n        /* \"#utility.yul\":19574:19579   */\n      dup2\n        /* \"#utility.yul\":19542:19580   */\n      tag_156\n      jump\t// in\n    tag_355:\n        /* \"#utility.yul\":19626:19655   */\n      tag_356\n        /* \"#utility.yul\":19644:19654   */\n      dup5\n        /* \"#utility.yul\":19626:19655   */\n      tag_157\n      jump\t// in\n    tag_356:\n        /* \"#utility.yul\":19616:19624   */\n      dup2\n        /* \"#utility.yul\":19612:19656   */\n      add\n        /* \"#utility.yul\":19809:19811   */\n      0x20\n        /* \"#utility.yul\":19797:19807   */\n      dup6\n        /* \"#utility.yul\":19794:19812   */\n      lt\n        /* \"#utility.yul\":19791:19840   */\n      iszero\n      tag_357\n      jumpi\n        /* \"#utility.yul\":19830:19838   */\n      dup2\n        /* \"#utility.yul\":19815:19838   */\n      swap1\n      pop\n        /* \"#utility.yul\":19791:19840   */\n    tag_357:\n        /* \"#utility.yul\":19853:19933   */\n      tag_358\n        /* \"#utility.yul\":19909:19931   */\n      tag_359\n        /* \"#utility.yul\":19927:19930   */\n      dup6\n        /* \"#utility.yul\":19909:19931   */\n      tag_157\n      jump\t// in\n    tag_359:\n        /* \"#utility.yul\":19899:19907   */\n      dup4\n        /* \"#utility.yul\":19895:19932   */\n      add\n        /* \"#utility.yul\":19882:19893   */\n      dup3\n        /* \"#utility.yul\":19853:19933   */\n      tag_166\n      jump\t// in\n    tag_358:\n        /* \"#utility.yul\":19512:19943   */\n      pop\n      pop\n        /* \"#utility.yul\":19497:19943   */\n    tag_354:\n        /* \"#utility.yul\":19407:19950   */\n      pop\n      pop\n      pop\n      jump\t// out\n        /* \"#utility.yul\":19956:20073   */\n    tag_168:\n        /* \"#utility.yul\":20010:20018   */\n      0x00\n        /* \"#utility.yul\":20060:20065   */\n      dup3\n        /* \"#utility.yul\":20054:20058   */\n      dup3\n        /* \"#utility.yul\":20050:20066   */\n      shr\n        /* \"#utility.yul\":20029:20066   */\n      swap1\n      pop\n        /* \"#utility.yul\":19956:20073   */\n      swap3\n      swap2\n      pop\n      pop\n      jump\t// out\n        /* \"#utility.yul\":20079:20248   */\n    tag_169:\n        /* \"#utility.yul\":20123:20129   */\n      0x00\n        /* \"#utility.yul\":20156:20207   */\n      tag_362\n        /* \"#utility.yul\":20204:20205   */\n      0x00\n        /* \"#utility.yul\":20200:20206   */\n      not\n        /* \"#utility.yul\":20192:20197   */\n      dup5\n        /* \"#utility.yul\":20189:20190   */\n      0x08\n        /* \"#utility.yul\":20185:20198   */\n      mul\n        /* \"#utility.yul\":20156:20207   */\n      tag_168\n      jump\t// in\n    tag_362:\n        /* \"#utility.yul\":20152:20208   */\n      not\n        /* \"#utility.yul\":20237:20241   */\n      dup1\n        /* \"#utility.yul\":20231:20235   */\n      dup4\n        /* \"#utility.yul\":20227:20242   */\n      and\n        /* \"#utility.yul\":20217:20242   */\n      swap2\n      pop\n        /* \"#utility.yul\":20130:20248   */\n      pop\n        /* \"#utility.yul\":20079:20248   */\n      swap3\n      swap2\n      pop\n      pop\n      jump\t// out\n        /* \"#utility.yul\":20253:20548   */\n    tag_170:\n        /* \"#utility.yul\":20329:20333   */\n      0x00\n        /* \"#utility.yul\":20475:20504   */\n      tag_364\n        /* \"#utility.yul\":20500:20503   */\n      dup4\n        /* \"#utility.yul\":20494:20498   */\n      dup4\n        /* \"#utility.yul\":20475:20504   */\n      tag_169\n      jump\t// in\n    tag_364:\n        /* \"#utility.yul\":20467:20504   */\n      swap2\n      pop\n        /* \"#utility.yul\":20537:20540   */\n      dup3\n        /* \"#utility.yul\":20534:20535   */\n      0x02\n        /* \"#utility.yul\":20530:20541   */\n      mul\n        /* \"#utility.yul\":20524:20528   */\n      dup3\n        /* \"#utility.yul\":20521:20542   */\n      or\n        /* \"#utility.yul\":20513:20542   */\n      swap1\n      pop\n        /* \"#utility.yul\":20253:20548   */\n      swap3\n      swap2\n      pop\n      pop\n      jump\t// out\n        /* \"#utility.yul\":20553:21948   */\n    tag_105:\n        /* \"#utility.yul\":20670:20707   */\n      tag_366\n        /* \"#utility.yul\":20703:20706   */\n      dup3\n        /* \"#utility.yul\":20670:20707   */\n      tag_119\n      jump\t// in\n    tag_366:\n        /* \"#utility.yul\":20772:20790   */\n      0xffffffffffffffff\n        /* \"#utility.yul\":20764:20770   */\n      dup2\n        /* \"#utility.yul\":20761:20791   */\n      gt\n        /* \"#utility.yul\":20758:20814   */\n      iszero\n      tag_367\n      jumpi\n        /* \"#utility.yul\":20794:20812   */\n      tag_368\n      tag_131\n      jump\t// in\n    tag_368:\n        /* \"#utility.yul\":20758:20814   */\n    tag_367:\n        /* \"#utility.yul\":20838:20876   */\n      tag_369\n        /* \"#utility.yul\":20870:20874   */\n      dup3\n        /* \"#utility.yul\":20864:20875   */\n      sload\n        /* \"#utility.yul\":20838:20876   */\n      tag_49\n      jump\t// in\n    tag_369:\n        /* \"#utility.yul\":20923:20990   */\n      tag_370\n        /* \"#utility.yul\":20983:20989   */\n      dup3\n        /* \"#utility.yul\":20975:20981   */\n      dup3\n        /* \"#utility.yul\":20969:20973   */\n      dup6\n        /* \"#utility.yul\":20923:20990   */\n      tag_167\n      jump\t// in\n    tag_370:\n        /* \"#utility.yul\":21017:21018   */\n      0x00\n        /* \"#utility.yul\":21041:21045   */\n      0x20\n        /* \"#utility.yul\":21028:21045   */\n      swap1\n      pop\n        /* \"#utility.yul\":21073:21075   */\n      0x1f\n        /* \"#utility.yul\":21065:21071   */\n      dup4\n        /* \"#utility.yul\":21062:21076   */\n      gt\n        /* \"#utility.yul\":21090:21091   */\n      0x01\n        /* \"#utility.yul\":21085:21703   */\n      dup2\n      eq\n      tag_372\n      jumpi\n        /* \"#utility.yul\":21747:21748   */\n      0x00\n        /* \"#utility.yul\":21764:21770   */\n      dup5\n        /* \"#utility.yul\":21761:21838   */\n      iszero\n      tag_373\n      jumpi\n        /* \"#utility.yul\":21813:21822   */\n      dup3\n        /* \"#utility.yul\":21808:21811   */\n      dup8\n        /* \"#utility.yul\":21804:21823   */\n      add\n        /* \"#utility.yul\":21798:21824   */\n      mload\n        /* \"#utility.yul\":21789:21824   */\n      swap1\n      pop\n        /* \"#utility.yul\":21761:21838   */\n    tag_373:\n        /* \"#utility.yul\":21864:21931   */\n      tag_374\n        /* \"#utility.yul\":21924:21930   */\n      dup6\n        /* \"#utility.yul\":21917:21922   */\n      dup3\n        /* \"#utility.yul\":21864:21931   */\n      tag_170\n      jump\t// in\n    tag_374:\n        /* \"#utility.yul\":21858:21862   */\n      dup7\n        /* \"#utility.yul\":21851:21932   */\n      sstore\n        /* \"#utility.yul\":21720:21942   */\n      pop\n        /* \"#utility.yul\":21055:21942   */\n      jump(tag_371)\n        /* \"#utility.yul\":21085:21703   */\n    tag_372:\n        /* \"#utility.yul\":21137:21141   */\n      0x1f\n        /* \"#utility.yul\":21133:21142   */\n      not\n        /* \"#utility.yul\":21125:21131   */\n      dup5\n        /* \"#utility.yul\":21121:21143   */\n      and\n        /* \"#utility.yul\":21171:21208   */\n      tag_375\n        /* \"#utility.yul\":21203:21207   */\n      dup7\n        /* \"#utility.yul\":21171:21208   */\n      tag_156\n      jump\t// in\n    tag_375:\n        /* \"#utility.yul\":21230:21231   */\n      0x00\n        /* \"#utility.yul\":21244:21452   */\n    tag_376:\n        /* \"#utility.yul\":21258:21265   */\n      dup3\n        /* \"#utility.yul\":21255:21256   */\n      dup2\n        /* \"#utility.yul\":21252:21266   */\n      lt\n        /* \"#utility.yul\":21244:21452   */\n      iszero\n      tag_378\n      jumpi\n        /* \"#utility.yul\":21337:21346   */\n      dup5\n        /* \"#utility.yul\":21332:21335   */\n      dup10\n        /* \"#utility.yul\":21328:21347   */\n      add\n        /* \"#utility.yul\":21322:21348   */\n      mload\n        /* \"#utility.yul\":21314:21320   */\n      dup3\n        /* \"#utility.yul\":21307:21349   */\n      sstore\n        /* \"#utility.yul\":21388:21389   */\n      0x01\n        /* \"#utility.yul\":21380:21386   */\n      dup3\n        /* \"#utility.yul\":21376:21390   */\n      add\n        /* \"#utility.yul\":21366:21390   */\n      swap2\n      pop\n        /* \"#utility.yul\":21435:21437   */\n      0x20\n        /* \"#utility.yul\":21424:21433   */\n      dup6\n        /* \"#utility.yul\":21420:21438   */\n      add\n        /* \"#utility.yul\":21407:21438   */\n      swap5\n      pop\n        /* \"#utility.yul\":21281:21285   */\n      0x20\n        /* \"#utility.yul\":21278:21279   */\n      dup2\n        /* \"#utility.yul\":21274:21286   */\n      add\n        /* \"#utility.yul\":21269:21286   */\n      swap1\n      pop\n        /* \"#utility.yul\":21244:21452   */\n      jump(tag_376)\n    tag_378:\n        /* \"#utility.yul\":21480:21486   */\n      dup7\n        /* \"#utility.yul\":21471:21478   */\n      dup4\n        /* \"#utility.yul\":21468:21487   */\n      lt\n        /* \"#utility.yul\":21465:21644   */\n      iszero\n      tag_379\n      jumpi\n        /* \"#utility.yul\":21538:21547   */\n      dup5\n        /* \"#utility.yul\":21533:21536   */\n      dup10\n        /* \"#utility.yul\":21529:21548   */\n      add\n        /* \"#utility.yul\":21523:21549   */\n      mload\n        /* \"#utility.yul\":21581:21629   */\n      tag_380\n        /* \"#utility.yul\":21623:21627   */\n      0x1f\n        /* \"#utility.yul\":21615:21621   */\n      dup10\n        /* \"#utility.yul\":21611:21628   */\n      and\n        /* \"#utility.yul\":21600:21609   */\n      dup3\n        /* \"#utility.yul\":21581:21629   */\n      tag_169\n      jump\t// in\n    tag_380:\n        /* \"#utility.yul\":21573:21579   */\n      dup4\n        /* \"#utility.yul\":21566:21630   */\n      sstore\n        /* \"#utility.yul\":21488:21644   */\n      pop\n        /* \"#utility.yul\":21465:21644   */\n    tag_379:\n        /* \"#utility.yul\":21690:21691   */\n      0x01\n        /* \"#utility.yul\":21686:21687   */\n      0x02\n        /* \"#utility.yul\":21678:21684   */\n      dup9\n        /* \"#utility.yul\":21674:21688   */\n      mul\n        /* \"#utility.yul\":21670:21692   */\n      add\n        /* \"#utility.yul\":21664:21668   */\n      dup9\n        /* \"#utility.yul\":21657:21693   */\n      sstore\n        /* \"#utility.yul\":21092:21703   */\n      pop\n      pop\n      pop\n        /* \"#utility.yul\":21055:21942   */\n    tag_371:\n      pop\n        /* \"#utility.yul\":20645:21948   */\n      pop\n      pop\n      pop\n        /* \"#utility.yul\":20553:21948   */\n      pop\n      pop\n      jump\t// out\n        /* \"#utility.yul\":21954:22689   */\n    tag_109:\n        /* \"#utility.yul\":22171:22175   */\n      0x00\n        /* \"#utility.yul\":22209:22212   */\n      0x80\n        /* \"#utility.yul\":22198:22207   */\n      dup3\n        /* \"#utility.yul\":22194:22213   */\n      add\n        /* \"#utility.yul\":22186:22213   */\n      swap1\n      pop\n        /* \"#utility.yul\":22259:22268   */\n      dup2\n        /* \"#utility.yul\":22253:22257   */\n      dup2\n        /* \"#utility.yul\":22249:22269   */\n      sub\n        /* \"#utility.yul\":22245:22246   */\n      0x00\n        /* \"#utility.yul\":22234:22243   */\n      dup4\n        /* \"#utility.yul\":22230:22247   */\n      add\n        /* \"#utility.yul\":22223:22270   */\n      mstore\n        /* \"#utility.yul\":22287:22365   */\n      tag_382\n        /* \"#utility.yul\":22360:22364   */\n      dup2\n        /* \"#utility.yul\":22351:22357   */\n      dup8\n        /* \"#utility.yul\":22287:22365   */\n      tag_123\n      jump\t// in\n    tag_382:\n        /* \"#utility.yul\":22279:22365   */\n      swap1\n      pop\n        /* \"#utility.yul\":22412:22421   */\n      dup2\n        /* \"#utility.yul\":22406:22410   */\n      dup2\n        /* \"#utility.yul\":22402:22422   */\n      sub\n        /* \"#utility.yul\":22397:22399   */\n      0x20\n        /* \"#utility.yul\":22386:22395   */\n      dup4\n        /* \"#utility.yul\":22382:22400   */\n      add\n        /* \"#utility.yul\":22375:22423   */\n      mstore\n        /* \"#utility.yul\":22440:22518   */\n      tag_383\n        /* \"#utility.yul\":22513:22517   */\n      dup2\n        /* \"#utility.yul\":22504:22510   */\n      dup7\n        /* \"#utility.yul\":22440:22518   */\n      tag_123\n      jump\t// in\n    tag_383:\n        /* \"#utility.yul\":22432:22518   */\n      swap1\n      pop\n        /* \"#utility.yul\":22528:22600   */\n      tag_384\n        /* \"#utility.yul\":22596:22598   */\n      0x40\n        /* \"#utility.yul\":22585:22594   */\n      dup4\n        /* \"#utility.yul\":22581:22599   */\n      add\n        /* \"#utility.yul\":22572:22578   */\n      dup6\n        /* \"#utility.yul\":22528:22600   */\n      tag_124\n      jump\t// in\n    tag_384:\n        /* \"#utility.yul\":22610:22682   */\n      tag_385\n        /* \"#utility.yul\":22678:22680   */\n      0x60\n        /* \"#utility.yul\":22667:22676   */\n      dup4\n        /* \"#utility.yul\":22663:22681   */\n      add\n        /* \"#utility.yul\":22654:22660   */\n      dup5\n        /* \"#utility.yul\":22610:22682   */\n      tag_124\n      jump\t// in\n    tag_385:\n        /* \"#utility.yul\":21954:22689   */\n      swap6\n      swap5\n      pop\n      pop\n      pop\n      pop\n      pop\n      jump\t// out\n\n    auxdata: 0xa2646970667358221220880ba95b549f9012e2b89ad8201d0310890eff53164315ab84692743e2ef5d4764736f6c634300081e0033\n}\n",
				"bytecode": {
					"linkReferences": {},
					"object": "6080604052348015600e575f5ffd5b506116488061001c5f395ff3fe60806040526004361061007a575f3560e01c80635d4e5d781161004d5780635d4e5d78146101425780636c563abe1461017e57806371eb89f31461019a578063f81bf601146101b65761007a565b806321b2416c1461007e578063370c36b4146100c05780633b9056bf146100fc57806354a5bcc514610118575b5f5ffd5b348015610089575f5ffd5b506100a4600480360381019061009f9190610a63565b6101de565b6040516100b79796959493929190610b66565b60405180910390f35b3480156100cb575f5ffd5b506100e660048036038101906100e19190610a63565b610353565b6040516100f39190610be1565b60405180910390f35b61011660048036038101906101119190610a63565b610395565b005b348015610123575f5ffd5b5061012c61048c565b6040516101399190610be1565b60405180910390f35b34801561014d575f5ffd5b5061016860048036038101906101639190610c24565b610494565b6040516101759190610be1565b60405180910390f35b61019860048036038101906101939190610a63565b6104b4565b005b6101b460048036038101906101af9190610a63565b61068e565b005b3480156101c1575f5ffd5b506101dc60048036038101906101d79190610d8e565b61081a565b005b6001602052805f5260405f205f91509050805f015f9054906101000a900473ffffffffffffffffffffffffffffffffffffffff169080600101805461022290610e6a565b80601f016020809104026020016040519081016040528092919081815260200182805461024e90610e6a565b80156102995780601f1061027057610100808354040283529160200191610299565b820191905f5260205f20905b81548152906001019060200180831161027c57829003601f168201915b5050505050908060020180546102ae90610e6a565b80601f01602080910402602001604051908101604052809291908181526020018280546102da90610e6a565b80156103255780601f106102fc57610100808354040283529160200191610325565b820191905f5260205f20905b81548152906001019060200180831161030857829003601f168201915b505050505090806003015490806004015490806005015490806006015f9054906101000a900460ff16905087565b5f5f60015f8481526020019081526020015f2090508060040154421061037c575f915050610390565b42816004015461038c9190610ec7565b9150505b919050565b5f60015f8381526020019081526020015f20905080600301548160050154106103f3576040517f08c379a00000000000000000000000000000000000000000000000000000000081526004016103ea90610f6a565b60405180910390fd5b5f60025f8481526020019081526020015f205f3373ffffffffffffffffffffffffffffffffffffffff1673ffffffffffffffffffffffffffffffffffffffff1681526020019081526020015f205490503373ffffffffffffffffffffffffffffffffffffffff166108fc8290811502906040515f60405180830381858888f19350505050158015610486573d5f5f3e3d5ffd5b50505050565b5f5f54905090565b6002602052815f5260405f20602052805f5260405f205f91509150505481565b5f60015f8381526020019081526020015f209050806004015442111561050f576040517f08c379a000000000000000000000000000000000000000000000000000000000815260040161050690610fd2565b60405180910390fd5b806006015f9054906101000a900460ff1615610560576040517f08c379a000000000000000000000000000000000000000000000000000000000815260040161055790611060565b60405180910390fd5b5f34116105a2576040517f08c379a0000000000000000000000000000000000000000000000000000000008152600401610599906110ee565b60405180910390fd5b34816005015f8282546105b5919061110c565b925050819055503460025f8481526020019081526020015f205f3373ffffffffffffffffffffffffffffffffffffffff1673ffffffffffffffffffffffffffffffffffffffff1681526020019081526020015f2081905550345f5f82825461061d919061110c565b92505081905550817ff234fc17e03e9c3501c842e35414fd219e9e8bc572c4632ef54db1493e3afaf4333460405161065692919061113f565b60405180910390a2806003015481600501541061068a576001816006015f6101000a81548160ff0219169083151502179055505b5050565b5f60015f8381526020019081526020015f2090505f81600501549050816006015f9054906101000a900460ff166106fa576040517f08c379a00000000000000000000000000000000000000000000000000000000081526004016106f1906111d6565b60405180910390fd5b3373ffffffffffffffffffffffffffffffffffffffff16825f015f9054906101000a900473ffffffffffffffffffffffffffffffffffffffff1673ffffffffffffffffffffffffffffffffffffffff161461078a576040517f08c379a00000000000000000000000000000000000000000000000000000000081526004016107819061123e565b60405180910390fd5b42826004015411156107d1576040517f08c379a00000000000000000000000000000000000000000000000000000000081526004016107c8906112cc565b60405180910390fd5b3373ffffffffffffffffffffffffffffffffffffffff166108fc8290811502906040515f60405180830381858888f19350505050158015610814573d5f5f3e3d5ffd5b50505050565b60035f8281526020019081526020015f205f9054906101000a900460ff1615610878576040517f08c379a000000000000000000000000000000000000000000000000000000000815260040161086f90611334565b60405180910390fd5b600160035f8381526020019081526020015f205f6101000a81548160ff0219169083151502179055506040518060e001604052803373ffffffffffffffffffffffffffffffffffffffff16815260200186815260200185815260200184815260200183426108e6919061110c565b81526020015f81526020015f151581525060015f8381526020019081526020015f205f820151815f015f6101000a81548173ffffffffffffffffffffffffffffffffffffffff021916908373ffffffffffffffffffffffffffffffffffffffff160217905550602082015181600101908161096191906114f2565b50604082015181600201908161097791906114f2565b50606082015181600301556080820151816004015560a0820151816005015560c0820151816006015f6101000a81548160ff0219169083151502179055509050503373ffffffffffffffffffffffffffffffffffffffff16817fac9b83534845c9e785a6ea70f2d809db1d72ef9a1d981753712d922f5cb55f398787878742610a00919061110c565b604051610a1094939291906115c1565b60405180910390a35050505050565b5f604051905090565b5f5ffd5b5f5ffd5b5f819050919050565b610a4281610a30565b8114610a4c575f5ffd5b50565b5f81359050610a5d81610a39565b92915050565b5f60208284031215610a7857610a77610a28565b5b5f610a8584828501610a4f565b91505092915050565b5f73ffffffffffffffffffffffffffffffffffffffff82169050919050565b5f610ab782610a8e565b9050919050565b610ac781610aad565b82525050565b5f81519050919050565b5f82825260208201905092915050565b8281835e5f83830152505050565b5f601f19601f8301169050919050565b5f610b0f82610acd565b610b198185610ad7565b9350610b29818560208601610ae7565b610b3281610af5565b840191505092915050565b610b4681610a30565b82525050565b5f8115159050919050565b610b6081610b4c565b82525050565b5f60e082019050610b795f83018a610abe565b8181036020830152610b8b8189610b05565b90508181036040830152610b9f8188610b05565b9050610bae6060830187610b3d565b610bbb6080830186610b3d565b610bc860a0830185610b3d565b610bd560c0830184610b57565b98975050505050505050565b5f602082019050610bf45f830184610b3d565b92915050565b610c0381610aad565b8114610c0d575f5ffd5b50565b5f81359050610c1e81610bfa565b92915050565b5f5f60408385031215610c3a57610c39610a28565b5b5f610c4785828601610a4f565b9250506020610c5885828601610c10565b9150509250929050565b5f5ffd5b5f5ffd5b7f4e487b71000000000000000000000000000000000000000000000000000000005f52604160045260245ffd5b610ca082610af5565b810181811067ffffffffffffffff82111715610cbf57610cbe610c6a565b5b80604052505050565b5f610cd1610a1f565b9050610cdd8282610c97565b919050565b5f67ffffffffffffffff821115610cfc57610cfb610c6a565b5b610d0582610af5565b9050602081019050919050565b828183375f83830152505050565b5f610d32610d2d84610ce2565b610cc8565b905082815260208101848484011115610d4e57610d4d610c66565b5b610d59848285610d12565b509392505050565b5f82601f830112610d7557610d74610c62565b5b8135610d85848260208601610d20565b91505092915050565b5f5f5f5f5f60a08688031215610da757610da6610a28565b5b5f86013567ffffffffffffffff811115610dc457610dc3610a2c565b5b610dd088828901610d61565b955050602086013567ffffffffffffffff811115610df157610df0610a2c565b5b610dfd88828901610d61565b9450506040610e0e88828901610a4f565b9350506060610e1f88828901610a4f565b9250506080610e3088828901610a4f565b9150509295509295909350565b7f4e487b71000000000000000000000000000000000000000000000000000000005f52602260045260245ffd5b5f6002820490506001821680610e8157607f821691505b602082108103610e9457610e93610e3d565b5b50919050565b7f4e487b71000000000000000000000000000000000000000000000000000000005f52601160045260245ffd5b5f610ed182610a30565b9150610edc83610a30565b9250828203905081811115610ef457610ef3610e9a565b5b92915050565b7f46756e64696e6720676f616c206861732072656163686564202c2075736572205f8201527f63616e2774207769746864726177000000000000000000000000000000000000602082015250565b5f610f54602e83610ad7565b9150610f5f82610efa565b604082019050919050565b5f6020820190508181035f830152610f8181610f48565b9050919050565b7f50726f6a65637420646561646c696e65206973206f76657221000000000000005f82015250565b5f610fbc601983610ad7565b9150610fc782610f88565b602082019050919050565b5f6020820190508181035f830152610fe981610fb0565b9050919050565b7f50726f6a6563742052656163686564206974732046756e64696e6720726571755f8201527f6972656d656e7400000000000000000000000000000000000000000000000000602082015250565b5f61104a602783610ad7565b915061105582610ff0565b604082019050919050565b5f6020820190508181035f8301526110778161103e565b9050919050565b7f73656e6420736f6d6520657468657220746f20636f6e7472696275746520696e5f8201527f207468652070726f6a6563740000000000000000000000000000000000000000602082015250565b5f6110d8602c83610ad7565b91506110e38261107e565b604082019050919050565b5f6020820190508181035f830152611105816110cc565b9050919050565b5f61111682610a30565b915061112183610a30565b925082820190508082111561113957611138610e9a565b5b92915050565b5f6040820190506111525f830185610abe565b61115f6020830184610b3d565b9392505050565b7f66756e64696e6720676f616c20686173206e6f742072656163686564202c20615f8201527f646d696e2063616e277420776974686472617700000000000000000000000000602082015250565b5f6111c0603383610ad7565b91506111cb82611166565b604082019050919050565b5f6020820190508181035f8301526111ed816111b4565b9050919050565b7f6f6e6c792061646d696e2063616e2077697468647261770000000000000000005f82015250565b5f611228601783610ad7565b9150611233826111f4565b602082019050919050565b5f6020820190508181035f8301526112558161121c565b9050919050565b7f646561646c696e6520686173206e6f742072656163686564202c2061646d696e5f8201527f2063616e27742077697468647261770000000000000000000000000000000000602082015250565b5f6112b6602f83610ad7565b91506112c18261125c565b604082019050919050565b5f6020820190508181035f8301526112e3816112aa565b9050919050565b7f50726f6a65637420494420697320616c726561647920696e20757365210000005f82015250565b5f61131e601d83610ad7565b9150611329826112ea565b602082019050919050565b5f6020820190508181035f83015261134b81611312565b9050919050565b5f819050815f5260205f209050919050565b5f6020601f8301049050919050565b5f82821b905092915050565b5f600883026113ae7fffffffffffffffffffffffffffffffffffffffffffffffffffffffffffffffff82611373565b6113b88683611373565b95508019841693508086168417925050509392505050565b5f819050919050565b5f6113f36113ee6113e984610a30565b6113d0565b610a30565b9050919050565b5f819050919050565b61140c836113d9565b611420611418826113fa565b84845461137f565b825550505050565b5f5f905090565b611437611428565b611442818484611403565b505050565b5b818110156114655761145a5f8261142f565b600181019050611448565b5050565b601f8211156114aa5761147b81611352565b61148484611364565b81016020851015611493578190505b6114a761149f85611364565b830182611447565b50505b505050565b5f82821c905092915050565b5f6114ca5f19846008026114af565b1980831691505092915050565b5f6114e283836114bb565b9150826002028217905092915050565b6114fb82610acd565b67ffffffffffffffff81111561151457611513610c6a565b5b61151e8254610e6a565b611529828285611469565b5f60209050601f83116001811461155a575f8415611548578287015190505b61155285826114d7565b8655506115b9565b601f19841661156886611352565b5f5b8281101561158f5784890151825560018201915060208501945060208101905061156a565b868310156115ac57848901516115a8601f8916826114bb565b8355505b6001600288020188555050505b505050505050565b5f6080820190508181035f8301526115d98187610b05565b905081810360208301526115ed8186610b05565b90506115fc6040830185610b3d565b6116096060830184610b3d565b9594505050505056fea2646970667358221220880ba95b549f9012e2b89ad8201d0310890eff53164315ab84692743e2ef5d4764736f6c634300081e0033",
					"opcodes": "PUSH1 0x80 PUSH1 0x40 MSTORE CALLVALUE DUP1 ISZERO PUSH1 0xE JUMPI PUSH0 PUSH0 REVERT JUMPDEST POP PUSH2 0x1648 DUP1 PUSH2 0x1C PUSH0 CODECOPY PUSH0 RETURN INVALID PUSH1 0x80 PUSH1 0x40 MSTORE PUSH1 0x4 CALLDATASIZE LT PUSH2 0x7A JUMPI PUSH0 CALLDATALOAD PUSH1 0xE0 SHR DUP1 PUSH4 0x5D4E5D78 GT PUSH2 0x4D JUMPI DUP1 PUSH4 0x5D4E5D78 EQ PUSH2 0x142 JUMPI DUP1 PUSH4 0x6C563ABE EQ PUSH2 0x17E JUMPI DUP1 PUSH4 0x71EB89F3 EQ PUSH2 0x19A JUMPI DUP1 PUSH4 0xF81BF601 EQ PUSH2 0x1B6 JUMPI PUSH2 0x7A JUMP JUMPDEST DUP1 PUSH4 0x21B2416C EQ PUSH2 0x7E JUMPI DUP1 PUSH4 0x370C36B4 EQ PUSH2 0xC0 JUMPI DUP1 PUSH4 0x3B9056BF EQ PUSH2 0xFC JUMPI DUP1 PUSH4 0x54A5BCC5 EQ PUSH2 0x118 JUMPI JUMPDEST PUSH0 PUSH0 REVERT JUMPDEST CALLVALUE DUP1 ISZERO PUSH2 0x89 JUMPI PUSH0 PUSH0 REVERT JUMPDEST POP PUSH2 0xA4 PUSH1 0x4 DUP1 CALLDATASIZE SUB DUP2 ADD SWAP1 PUSH2 0x9F SWAP2 SWAP1 PUSH2 0xA63 JUMP JUMPDEST PUSH2 0x1DE JUMP JUMPDEST PUSH1 0x40 MLOAD PUSH2 0xB7 SWAP8 SWAP7 SWAP6 SWAP5 SWAP4 SWAP3 SWAP2 SWAP1 PUSH2 0xB66 JUMP JUMPDEST PUSH1 0x40 MLOAD DUP1 SWAP2 SUB SWAP1 RETURN JUMPDEST CALLVALUE DUP1 ISZERO PUSH2 0xCB JUMPI PUSH0 PUSH0 REVERT JUMPDEST POP PUSH2 0xE6 PUSH1 0x4 DUP1 CALLDATASIZE SUB DUP2 ADD SWAP1 PUSH2 0xE1 SWAP2 SWAP1 PUSH2 0xA63 JUMP JUMPDEST PUSH2 0x353 JUMP JUMPDEST PUSH1 0x40 MLOAD PUSH2 0xF3 SWAP2 SWAP1 PUSH2 0xBE1 JUMP JUMPDEST PUSH1 0x40 MLOAD DUP1 SWAP2 SUB SWAP1 RETURN JUMPDEST PUSH2 0x116 PUSH1 0x4 DUP1 CALLDATASIZE SUB DUP2 ADD SWAP1 PUSH2 0x111 SWAP2 SWAP1 PUSH2 0xA63 JUMP JUMPDEST PUSH2 0x395 JUMP JUMPDEST STOP JUMPDEST CALLVALUE DUP1 ISZERO PUSH2 0x123 JUMPI PUSH0 PUSH0 REVERT JUMPDEST POP PUSH2 0x12C PUSH2 0x48C JUMP JUMPDEST PUSH1 0x40 MLOAD PUSH2 0x139 SWAP2 SWAP1 PUSH2 0xBE1 JUMP JUMPDEST PUSH1 0x40 MLOAD DUP1 SWAP2 SUB SWAP1 RETURN JUMPDEST CALLVALUE DUP1 ISZERO PUSH2 0x14D JUMPI PUSH0 PUSH0 REVERT JUMPDEST POP PUSH2 0x168 PUSH1 0x4 DUP1 CALLDATASIZE SUB DUP2 ADD SWAP1 PUSH2 0x163 SWAP2 SWAP1 PUSH2 0xC24 JUMP JUMPDEST PUSH2 0x494 JUMP JUMPDEST PUSH1 0x40 MLOAD PUSH2 0x175 SWAP2 SWAP1 PUSH2 0xBE1 JUMP JUMPDEST PUSH1 0x40 MLOAD DUP1 SWAP2 SUB SWAP1 RETURN JUMPDEST PUSH2 0x198 PUSH1 0x4 DUP1 CALLDATASIZE SUB DUP2 ADD SWAP1 PUSH2 0x193 SWAP2 SWAP1 PUSH2 0xA63 JUMP JUMPDEST PUSH2 0x4B4 JUMP JUMPDEST STOP JUMPDEST PUSH2 0x1B4 PUSH1 0x4 DUP1 CALLDATASIZE SUB DUP2 ADD SWAP1 PUSH2 0x1AF SWAP2 SWAP1 PUSH2 0xA63 JUMP JUMPDEST PUSH2 0x68E JUMP JUMPDEST STOP JUMPDEST CALLVALUE DUP1 ISZERO PUSH2 0x1C1 JUMPI PUSH0 PUSH0 REVERT JUMPDEST POP PUSH2 0x1DC PUSH1 0x4 DUP1 CALLDATASIZE SUB DUP2 ADD SWAP1 PUSH2 0x1D7 SWAP2 SWAP1 PUSH2 0xD8E JUMP JUMPDEST PUSH2 0x81A JUMP JUMPDEST STOP JUMPDEST PUSH1 0x1 PUSH1 0x20 MSTORE DUP1 PUSH0 MSTORE PUSH1 0x40 PUSH0 KECCAK256 PUSH0 SWAP2 POP SWAP1 POP DUP1 PUSH0 ADD PUSH0 SWAP1 SLOAD SWAP1 PUSH2 0x100 EXP SWAP1 DIV PUSH20 0xFFFFFFFFFFFFFFFFFFFFFFFFFFFFFFFFFFFFFFFF AND SWAP1 DUP1 PUSH1 0x1 ADD DUP1 SLOAD PUSH2 0x222 SWAP1 PUSH2 0xE6A JUMP JUMPDEST DUP1 PUSH1 0x1F ADD PUSH1 0x20 DUP1 SWAP2 DIV MUL PUSH1 0x20 ADD PUSH1 0x40 MLOAD SWAP1 DUP2 ADD PUSH1 0x40 MSTORE DUP1 SWAP3 SWAP2 SWAP1 DUP2 DUP2 MSTORE PUSH1 0x20 ADD DUP3 DUP1 SLOAD PUSH2 0x24E SWAP1 PUSH2 0xE6A JUMP JUMPDEST DUP1 ISZERO PUSH2 0x299 JUMPI DUP1 PUSH1 0x1F LT PUSH2 0x270 JUMPI PUSH2 0x100 DUP1 DUP4 SLOAD DIV MUL DUP4 MSTORE SWAP2 PUSH1 0x20 ADD SWAP2 PUSH2 0x299 JUMP JUMPDEST DUP3 ADD SWAP2 SWAP1 PUSH0 MSTORE PUSH1 0x20 PUSH0 KECCAK256 SWAP1 JUMPDEST DUP2 SLOAD DUP2 MSTORE SWAP1 PUSH1 0x1 ADD SWAP1 PUSH1 0x20 ADD DUP1 DUP4 GT PUSH2 0x27C JUMPI DUP3 SWAP1 SUB PUSH1 0x1F AND DUP3 ADD SWAP2 JUMPDEST POP POP POP POP POP SWAP1 DUP1 PUSH1 0x2 ADD DUP1 SLOAD PUSH2 0x2AE SWAP1 PUSH2 0xE6A JUMP JUMPDEST DUP1 PUSH1 0x1F ADD PUSH1 0x20 DUP1 SWAP2 DIV MUL PUSH1 0x20 ADD PUSH1 0x40 MLOAD SWAP1 DUP2 ADD PUSH1 0x40 MSTORE DUP1 SWAP3 SWAP2 SWAP1 DUP2 DUP2 MSTORE PUSH1 0x20 ADD DUP3 DUP1 SLOAD PUSH2 0x2DA SWAP1 PUSH2 0xE6A JUMP JUMPDEST DUP1 ISZERO PUSH2 0x325 JUMPI DUP1 PUSH1 0x1F LT PUSH2 0x2FC JUMPI PUSH2 0x100 DUP1 DUP4 SLOAD DIV MUL DUP4 MSTORE SWAP2 PUSH1 0x20 ADD SWAP2 PUSH2 0x325 JUMP JUMPDEST DUP3 ADD SWAP2 SWAP1 PUSH0 MSTORE PUSH1 0x20 PUSH0 KECCAK256 SWAP1 JUMPDEST DUP2 SLOAD DUP2 MSTORE SWAP1 PUSH1 0x1 ADD SWAP1 PUSH1 0x20 ADD DUP1 DUP4 GT PUSH2 0x308 JUMPI DUP3 SWAP1 SUB PUSH1 0x1F AND DUP3 ADD SWAP2 JUMPDEST POP POP POP POP POP SWAP1 DUP1 PUSH1 0x3 ADD SLOAD SWAP1 DUP1 PUSH1 0x4 ADD SLOAD SWAP1 DUP1 PUSH1 0x5 ADD SLOAD SWAP1 DUP1 PUSH1 0x6 ADD PUSH0 SWAP1 SLOAD SWAP1 PUSH2 0x100 EXP SWAP1 DIV PUSH1 0xFF AND SWAP1 POP DUP8 JUMP JUMPDEST PUSH0 PUSH0 PUSH1 0x1 PUSH0 DUP5 DUP2 MSTORE PUSH1 0x20 ADD SWAP1 DUP2 MSTORE PUSH1 0x20 ADD PUSH0 KECCAK256 SWAP1 POP DUP1 PUSH1 0x4 ADD SLOAD TIMESTAMP LT PUSH2 0x37C JUMPI PUSH0 SWAP2 POP POP PUSH2 0x390 JUMP JUMPDEST TIMESTAMP DUP2 PUSH1 0x4 ADD SLOAD PUSH2 0x38C SWAP2 SWAP1 PUSH2 0xEC7 JUMP JUMPDEST SWAP2 POP POP JUMPDEST SWAP2 SWAP1 POP JUMP JUMPDEST PUSH0 PUSH1 0x1 PUSH0 DUP4 DUP2 MSTORE PUSH1 0x20 ADD SWAP1 DUP2 MSTORE PUSH1 0x20 ADD PUSH0 KECCAK256 SWAP1 POP DUP1 PUSH1 0x3 ADD SLOAD DUP2 PUSH1 0x5 ADD SLOAD LT PUSH2 0x3F3 JUMPI PUSH1 0x40 MLOAD PUSH32 0x8C379A000000000000000000000000000000000000000000000000000000000 DUP2 MSTORE PUSH1 0x4 ADD PUSH2 0x3EA SWAP1 PUSH2 0xF6A JUMP JUMPDEST PUSH1 0x40 MLOAD DUP1 SWAP2 SUB SWAP1 REVERT JUMPDEST PUSH0 PUSH1 0x2 PUSH0 DUP5 DUP2 MSTORE PUSH1 0x20 ADD SWAP1 DUP2 MSTORE PUSH1 0x20 ADD PUSH0 KECCAK256 PUSH0 CALLER PUSH20 0xFFFFFFFFFFFFFFFFFFFFFFFFFFFFFFFFFFFFFFFF AND PUSH20 0xFFFFFFFFFFFFFFFFFFFFFFFFFFFFFFFFFFFFFFFF AND DUP2 MSTORE PUSH1 0x20 ADD SWAP1 DUP2 MSTORE PUSH1 0x20 ADD PUSH0 KECCAK256 SLOAD SWAP1 POP CALLER PUSH20 0xFFFFFFFFFFFFFFFFFFFFFFFFFFFFFFFFFFFFFFFF AND PUSH2 0x8FC DUP3 SWAP1 DUP2 ISZERO MUL SWAP1 PUSH1 0x40 MLOAD PUSH0 PUSH1 0x40 MLOAD DUP1 DUP4 SUB DUP2 DUP6 DUP9 DUP9 CALL SWAP4 POP POP POP POP ISZERO DUP1 ISZERO PUSH2 0x486 JUMPI RETURNDATASIZE PUSH0 PUSH0 RETURNDATACOPY RETURNDATASIZE PUSH0 REVERT JUMPDEST POP POP POP POP JUMP JUMPDEST PUSH0 PUSH0 SLOAD SWAP1 POP SWAP1 JUMP JUMPDEST PUSH1 0x2 PUSH1 0x20 MSTORE DUP2 PUSH0 MSTORE PUSH1 0x40 PUSH0 KECCAK256 PUSH1 0x20 MSTORE DUP1 PUSH0 MSTORE PUSH1 0x40 PUSH0 KECCAK256 PUSH0 SWAP2 POP SWAP2 POP POP SLOAD DUP2 JUMP JUMPDEST PUSH0 PUSH1 0x1 PUSH0 DUP4 DUP2 MSTORE PUSH1 0x20 ADD SWAP1 DUP2 MSTORE PUSH1 0x20 ADD PUSH0 KECCAK256 SWAP1 POP DUP1 PUSH1 0x4 ADD SLOAD TIMESTAMP GT ISZERO PUSH2 0x50F JUMPI PUSH1 0x40 MLOAD PUSH32 0x8C379A000000000000000000000000000000000000000000000000000000000 DUP2 MSTORE PUSH1 0x4 ADD PUSH2 0x506 SWAP1 PUSH2 0xFD2 JUMP JUMPDEST PUSH1 0x40 MLOAD DUP1 SWAP2 SUB SWAP1 REVERT JUMPDEST DUP1 PUSH1 0x6 ADD PUSH0 SWAP1 SLOAD SWAP1 PUSH2 0x100 EXP SWAP1 DIV PUSH1 0xFF AND ISZERO PUSH2 0x560 JUMPI PUSH1 0x40 MLOAD PUSH32 0x8C379A000000000000000000000000000000000000000000000000000000000 DUP2 MSTORE PUSH1 0x4 ADD PUSH2 0x557 SWAP1 PUSH2 0x1060 JUMP JUMPDEST PUSH1 0x40 MLOAD DUP1 SWAP2 SUB SWAP1 REVERT JUMPDEST PUSH0 CALLVALUE GT PUSH2 0x5A2 JUMPI PUSH1 0x40 MLOAD PUSH32 0x8C379A000000000000000000000000000000000000000000000000000000000 DUP2 MSTORE PUSH1 0x4 ADD PUSH2 0x599 SWAP1 PUSH2 0x10EE JUMP JUMPDEST PUSH1 0x40 MLOAD DUP1 SWAP2 SUB SWAP1 REVERT JUMPDEST CALLVALUE DUP2 PUSH1 0x5 ADD PUSH0 DUP3 DUP3 SLOAD PUSH2 0x5B5 SWAP2 SWAP1 PUSH2 0x110C JUMP JUMPDEST SWAP3 POP POP DUP2 SWAP1 SSTORE POP CALLVALUE PUSH1 0x2 PUSH0 DUP5 DUP2 MSTORE PUSH1 0x20 ADD SWAP1 DUP2 MSTORE PUSH1 0x20 ADD PUSH0 KECCAK256 PUSH0 CALLER PUSH20 0xFFFFFFFFFFFFFFFFFFFFFFFFFFFFFFFFFFFFFFFF AND PUSH20 0xFFFFFFFFFFFFFFFFFFFFFFFFFFFFFFFFFFFFFFFF AND DUP2 MSTORE PUSH1 0x20 ADD SWAP1 DUP2 MSTORE PUSH1 0x20 ADD PUSH0 KECCAK256 DUP2 SWAP1 SSTORE POP CALLVALUE PUSH0 PUSH0 DUP3 DUP3 SLOAD PUSH2 0x61D SWAP2 SWAP1 PUSH2 0x110C JUMP JUMPDEST SWAP3 POP POP DUP2 SWAP1 SSTORE POP DUP2 PUSH32 0xF234FC17E03E9C3501C842E35414FD219E9E8BC572C4632EF54DB1493E3AFAF4 CALLER CALLVALUE PUSH1 0x40 MLOAD PUSH2 0x656 SWAP3 SWAP2 SWAP1 PUSH2 0x113F JUMP JUMPDEST PUSH1 0x40 MLOAD DUP1 SWAP2 SUB SWAP1 LOG2 DUP1 PUSH1 0x3 ADD SLOAD DUP2 PUSH1 0x5 ADD SLOAD LT PUSH2 0x68A JUMPI PUSH1 0x1 DUP2 PUSH1 0x6 ADD PUSH0 PUSH2 0x100 EXP DUP2 SLOAD DUP2 PUSH1 0xFF MUL NOT AND SWAP1 DUP4 ISZERO ISZERO MUL OR SWAP1 SSTORE POP JUMPDEST POP POP JUMP JUMPDEST PUSH0 PUSH1 0x1 PUSH0 DUP4 DUP2 MSTORE PUSH1 0x20 ADD SWAP1 DUP2 MSTORE PUSH1 0x20 ADD PUSH0 KECCAK256 SWAP1 POP PUSH0 DUP2 PUSH1 0x5 ADD SLOAD SWAP1 POP DUP2 PUSH1 0x6 ADD PUSH0 SWAP1 SLOAD SWAP1 PUSH2 0x100 EXP SWAP1 DIV PUSH1 0xFF AND PUSH2 0x6FA JUMPI PUSH1 0x40 MLOAD PUSH32 0x8C379A000000000000000000000000000000000000000000000000000000000 DUP2 MSTORE PUSH1 0x4 ADD PUSH2 0x6F1 SWAP1 PUSH2 0x11D6 JUMP JUMPDEST PUSH1 0x40 MLOAD DUP1 SWAP2 SUB SWAP1 REVERT JUMPDEST CALLER PUSH20 0xFFFFFFFFFFFFFFFFFFFFFFFFFFFFFFFFFFFFFFFF AND DUP3 PUSH0 ADD PUSH0 SWAP1 SLOAD SWAP1 PUSH2 0x100 EXP SWAP1 DIV PUSH20 0xFFFFFFFFFFFFFFFFFFFFFFFFFFFFFFFFFFFFFFFF AND PUSH20 0xFFFFFFFFFFFFFFFFFFFFFFFFFFFFFFFFFFFFFFFF AND EQ PUSH2 0x78A JUMPI PUSH1 0x40 MLOAD PUSH32 0x8C379A000000000000000000000000000000000000000000000000000000000 DUP2 MSTORE PUSH1 0x4 ADD PUSH2 0x781 SWAP1 PUSH2 0x123E JUMP JUMPDEST PUSH1 0x40 MLOAD DUP1 SWAP2 SUB SWAP1 REVERT JUMPDEST TIMESTAMP DUP3 PUSH1 0x4 ADD SLOAD GT ISZERO PUSH2 0x7D1 JUMPI PUSH1 0x40 MLOAD PUSH32 0x8C379A000000000000000000000000000000000000000000000000000000000 DUP2 MSTORE PUSH1 0x4 ADD PUSH2 0x7C8 SWAP1 PUSH2 0x12CC JUMP JUMPDEST PUSH1 0x40 MLOAD DUP1 SWAP2 SUB SWAP1 REVERT JUMPDEST CALLER PUSH20 0xFFFFFFFFFFFFFFFFFFFFFFFFFFFFFFFFFFFFFFFF AND PUSH2 0x8FC DUP3 SWAP1 DUP2 ISZERO MUL SWAP1 PUSH1 0x40 MLOAD PUSH0 PUSH1 0x40 MLOAD DUP1 DUP4 SUB DUP2 DUP6 DUP9 DUP9 CALL SWAP4 POP POP POP POP ISZERO DUP1 ISZERO PUSH2 0x814 JUMPI RETURNDATASIZE PUSH0 PUSH0 RETURNDATACOPY RETURNDATASIZE PUSH0 REVERT JUMPDEST POP POP POP POP JUMP JUMPDEST PUSH1 0x3 PUSH0 DUP3 DUP2 MSTORE PUSH1 0x20 ADD SWAP1 DUP2 MSTORE PUSH1 0x20 ADD PUSH0 KECCAK256 PUSH0 SWAP1 SLOAD SWAP1 PUSH2 0x100 EXP SWAP1 DIV PUSH1 0xFF AND ISZERO PUSH2 0x878 JUMPI PUSH1 0x40 MLOAD PUSH32 0x8C379A000000000000000000000000000000000000000000000000000000000 DUP2 MSTORE PUSH1 0x4 ADD PUSH2 0x86F SWAP1 PUSH2 0x1334 JUMP JUMPDEST PUSH1 0x40 MLOAD DUP1 SWAP2 SUB SWAP1 REVERT JUMPDEST PUSH1 0x1 PUSH1 0x3 PUSH0 DUP4 DUP2 MSTORE PUSH1 0x20 ADD SWAP1 DUP2 MSTORE PUSH1 0x20 ADD PUSH0 KECCAK256 PUSH0 PUSH2 0x100 EXP DUP2 SLOAD DUP2 PUSH1 0xFF MUL NOT AND SWAP1 DUP4 ISZERO ISZERO MUL OR SWAP1 SSTORE POP PUSH1 0x40 MLOAD DUP1 PUSH1 0xE0 ADD PUSH1 0x40 MSTORE DUP1 CALLER PUSH20 0xFFFFFFFFFFFFFFFFFFFFFFFFFFFFFFFFFFFFFFFF AND DUP2 MSTORE PUSH1 0x20 ADD DUP7 DUP2 MSTORE PUSH1 0x20 ADD DUP6 DUP2 MSTORE PUSH1 0x20 ADD DUP5 DUP2 MSTORE PUSH1 0x20 ADD DUP4 TIMESTAMP PUSH2 0x8E6 SWAP2 SWAP1 PUSH2 0x110C JUMP JUMPDEST DUP2 MSTORE PUSH1 0x20 ADD PUSH0 DUP2 MSTORE PUSH1 0x20 ADD PUSH0 ISZERO ISZERO DUP2 MSTORE POP PUSH1 0x1 PUSH0 DUP4 DUP2 MSTORE PUSH1 0x20 ADD SWAP1 DUP2 MSTORE PUSH1 0x20 ADD PUSH0 KECCAK256 PUSH0 DUP3 ADD MLOAD DUP2 PUSH0 ADD PUSH0 PUSH2 0x100 EXP DUP2 SLOAD DUP2 PUSH20 0xFFFFFFFFFFFFFFFFFFFFFFFFFFFFFFFFFFFFFFFF MUL NOT AND SWAP1 DUP4 PUSH20 0xFFFFFFFFFFFFFFFFFFFFFFFFFFFFFFFFFFFFFFFF AND MUL OR SWAP1 SSTORE POP PUSH1 0x20 DUP3 ADD MLOAD DUP2 PUSH1 0x1 ADD SWAP1 DUP2 PUSH2 0x961 SWAP2 SWAP1 PUSH2 0x14F2 JUMP JUMPDEST POP PUSH1 0x40 DUP3 ADD MLOAD DUP2 PUSH1 0x2 ADD SWAP1 DUP2 PUSH2 0x977 SWAP2 SWAP1 PUSH2 0x14F2 JUMP JUMPDEST POP PUSH1 0x60 DUP3 ADD MLOAD DUP2 PUSH1 0x3 ADD SSTORE PUSH1 0x80 DUP3 ADD MLOAD DUP2 PUSH1 0x4 ADD SSTORE PUSH1 0xA0 DUP3 ADD MLOAD DUP2 PUSH1 0x5 ADD SSTORE PUSH1 0xC0 DUP3 ADD MLOAD DUP2 PUSH1 0x6 ADD PUSH0 PUSH2 0x100 EXP DUP2 SLOAD DUP2 PUSH1 0xFF MUL NOT AND SWAP1 DUP4 ISZERO ISZERO MUL OR SWAP1 SSTORE POP SWAP1 POP POP CALLER PUSH20 0xFFFFFFFFFFFFFFFFFFFFFFFFFFFFFFFFFFFFFFFF AND DUP2 PUSH32 0xAC9B83534845C9E785A6EA70F2D809DB1D72EF9A1D981753712D922F5CB55F39 DUP8 DUP8 DUP8 DUP8 TIMESTAMP PUSH2 0xA00 SWAP2 SWAP1 PUSH2 0x110C JUMP JUMPDEST PUSH1 0x40 MLOAD PUSH2 0xA10 SWAP5 SWAP4 SWAP3 SWAP2 SWAP1 PUSH2 0x15C1 JUMP JUMPDEST PUSH1 0x40 MLOAD DUP1 SWAP2 SUB SWAP1 LOG3 POP POP POP POP POP JUMP JUMPDEST PUSH0 PUSH1 0x40 MLOAD SWAP1 POP SWAP1 JUMP JUMPDEST PUSH0 PUSH0 REVERT JUMPDEST PUSH0 PUSH0 REVERT JUMPDEST PUSH0 DUP2 SWAP1 POP SWAP2 SWAP1 POP JUMP JUMPDEST PUSH2 0xA42 DUP2 PUSH2 0xA30 JUMP JUMPDEST DUP2 EQ PUSH2 0xA4C JUMPI PUSH0 PUSH0 REVERT JUMPDEST POP JUMP JUMPDEST PUSH0 DUP2 CALLDATALOAD SWAP1 POP PUSH2 0xA5D DUP2 PUSH2 0xA39 JUMP JUMPDEST SWAP3 SWAP2 POP POP JUMP JUMPDEST PUSH0 PUSH1 0x20 DUP3 DUP5 SUB SLT ISZERO PUSH2 0xA78 JUMPI PUSH2 0xA77 PUSH2 0xA28 JUMP JUMPDEST JUMPDEST PUSH0 PUSH2 0xA85 DUP5 DUP3 DUP6 ADD PUSH2 0xA4F JUMP JUMPDEST SWAP2 POP POP SWAP3 SWAP2 POP POP JUMP JUMPDEST PUSH0 PUSH20 0xFFFFFFFFFFFFFFFFFFFFFFFFFFFFFFFFFFFFFFFF DUP3 AND SWAP1 POP SWAP2 SWAP1 POP JUMP JUMPDEST PUSH0 PUSH2 0xAB7 DUP3 PUSH2 0xA8E JUMP JUMPDEST SWAP1 POP SWAP2 SWAP1 POP JUMP JUMPDEST PUSH2 0xAC7 DUP2 PUSH2 0xAAD JUMP JUMPDEST DUP3 MSTORE POP POP JUMP JUMPDEST PUSH0 DUP2 MLOAD SWAP1 POP SWAP2 SWAP1 POP JUMP JUMPDEST PUSH0 DUP3 DUP3 MSTORE PUSH1 0x20 DUP3 ADD SWAP1 POP SWAP3 SWAP2 POP POP JUMP JUMPDEST DUP3 DUP2 DUP4 MCOPY PUSH0 DUP4 DUP4 ADD MSTORE POP POP POP JUMP JUMPDEST PUSH0 PUSH1 0x1F NOT PUSH1 0x1F DUP4 ADD AND SWAP1 POP SWAP2 SWAP1 POP JUMP JUMPDEST PUSH0 PUSH2 0xB0F DUP3 PUSH2 0xACD JUMP JUMPDEST PUSH2 0xB19 DUP2 DUP6 PUSH2 0xAD7 JUMP JUMPDEST SWAP4 POP PUSH2 0xB29 DUP2 DUP6 PUSH1 0x20 DUP7 ADD PUSH2 0xAE7 JUMP JUMPDEST PUSH2 0xB32 DUP2 PUSH2 0xAF5 JUMP JUMPDEST DUP5 ADD SWAP2 POP POP SWAP3 SWAP2 POP POP JUMP JUMPDEST PUSH2 0xB46 DUP2 PUSH2 0xA30 JUMP JUMPDEST DUP3 MSTORE POP POP JUMP JUMPDEST PUSH0 DUP2 ISZERO ISZERO SWAP1 POP SWAP2 SWAP1 POP JUMP JUMPDEST PUSH2 0xB60 DUP2 PUSH2 0xB4C JUMP JUMPDEST DUP3 MSTORE POP POP JUMP JUMPDEST PUSH0 PUSH1 0xE0 DUP3 ADD SWAP1 POP PUSH2 0xB79 PUSH0 DUP4 ADD DUP11 PUSH2 0xABE JUMP JUMPDEST DUP2 DUP2 SUB PUSH1 0x20 DUP4 ADD MSTORE PUSH2 0xB8B DUP2 DUP10 PUSH2 0xB05 JUMP JUMPDEST SWAP1 POP DUP2 DUP2 SUB PUSH1 0x40 DUP4 ADD MSTORE PUSH2 0xB9F DUP2 DUP9 PUSH2 0xB05 JUMP JUMPDEST SWAP1 POP PUSH2 0xBAE PUSH1 0x60 DUP4 ADD DUP8 PUSH2 0xB3D JUMP JUMPDEST PUSH2 0xBBB PUSH1 0x80 DUP4 ADD DUP7 PUSH2 0xB3D JUMP JUMPDEST PUSH2 0xBC8 PUSH1 0xA0 DUP4 ADD DUP6 PUSH2 0xB3D JUMP JUMPDEST PUSH2 0xBD5 PUSH1 0xC0 DUP4 ADD DUP5 PUSH2 0xB57 JUMP JUMPDEST SWAP9 SWAP8 POP POP POP POP POP POP POP POP JUMP JUMPDEST PUSH0 PUSH1 0x20 DUP3 ADD SWAP1 POP PUSH2 0xBF4 PUSH0 DUP4 ADD DUP5 PUSH2 0xB3D JUMP JUMPDEST SWAP3 SWAP2 POP POP JUMP JUMPDEST PUSH2 0xC03 DUP2 PUSH2 0xAAD JUMP JUMPDEST DUP2 EQ PUSH2 0xC0D JUMPI PUSH0 PUSH0 REVERT JUMPDEST POP JUMP JUMPDEST PUSH0 DUP2 CALLDATALOAD SWAP1 POP PUSH2 0xC1E DUP2 PUSH2 0xBFA JUMP JUMPDEST SWAP3 SWAP2 POP POP JUMP JUMPDEST PUSH0 PUSH0 PUSH1 0x40 DUP4 DUP6 SUB SLT ISZERO PUSH2 0xC3A JUMPI PUSH2 0xC39 PUSH2 0xA28 JUMP JUMPDEST JUMPDEST PUSH0 PUSH2 0xC47 DUP6 DUP3 DUP7 ADD PUSH2 0xA4F JUMP JUMPDEST SWAP3 POP POP PUSH1 0x20 PUSH2 0xC58 DUP6 DUP3 DUP7 ADD PUSH2 0xC10 JUMP JUMPDEST SWAP2 POP POP SWAP3 POP SWAP3 SWAP1 POP JUMP JUMPDEST PUSH0 PUSH0 REVERT JUMPDEST PUSH0 PUSH0 REVERT JUMPDEST PUSH32 0x4E487B7100000000000000000000000000000000000000000000000000000000 PUSH0 MSTORE PUSH1 0x41 PUSH1 0x4 MSTORE PUSH1 0x24 PUSH0 REVERT JUMPDEST PUSH2 0xCA0 DUP3 PUSH2 0xAF5 JUMP JUMPDEST DUP2 ADD DUP2 DUP2 LT PUSH8 0xFFFFFFFFFFFFFFFF DUP3 GT OR ISZERO PUSH2 0xCBF JUMPI PUSH2 0xCBE PUSH2 0xC6A JUMP JUMPDEST JUMPDEST DUP1 PUSH1 0x40 MSTORE POP POP POP JUMP JUMPDEST PUSH0 PUSH2 0xCD1 PUSH2 0xA1F JUMP JUMPDEST SWAP1 POP PUSH2 0xCDD DUP3 DUP3 PUSH2 0xC97 JUMP JUMPDEST SWAP2 SWAP1 POP JUMP JUMPDEST PUSH0 PUSH8 0xFFFFFFFFFFFFFFFF DUP3 GT ISZERO PUSH2 0xCFC JUMPI PUSH2 0xCFB PUSH2 0xC6A JUMP JUMPDEST JUMPDEST PUSH2 0xD05 DUP3 PUSH2 0xAF5 JUMP JUMPDEST SWAP1 POP PUSH1 0x20 DUP2 ADD SWAP1 POP SWAP2 SWAP1 POP JUMP JUMPDEST DUP3 DUP2 DUP4 CALLDATACOPY PUSH0 DUP4 DUP4 ADD MSTORE POP POP POP JUMP JUMPDEST PUSH0 PUSH2 0xD32 PUSH2 0xD2D DUP5 PUSH2 0xCE2 JUMP JUMPDEST PUSH2 0xCC8 JUMP JUMPDEST SWAP1 POP DUP3 DUP2 MSTORE PUSH1 0x20 DUP2 ADD DUP5 DUP5 DUP5 ADD GT ISZERO PUSH2 0xD4E JUMPI PUSH2 0xD4D PUSH2 0xC66 JUMP JUMPDEST JUMPDEST PUSH2 0xD59 DUP5 DUP3 DUP6 PUSH2 0xD12 JUMP JUMPDEST POP SWAP4 SWAP3 POP POP POP JUMP JUMPDEST PUSH0 DUP3 PUSH1 0x1F DUP4 ADD SLT PUSH2 0xD75 JUMPI PUSH2 0xD74 PUSH2 0xC62 JUMP JUMPDEST JUMPDEST DUP2 CALLDATALOAD PUSH2 0xD85 DUP5 DUP3 PUSH1 0x20 DUP7 ADD PUSH2 0xD20 JUMP JUMPDEST SWAP2 POP POP SWAP3 SWAP2 POP POP JUMP JUMPDEST PUSH0 PUSH0 PUSH0 PUSH0 PUSH0 PUSH1 0xA0 DUP7 DUP9 SUB SLT ISZERO PUSH2 0xDA7 JUMPI PUSH2 0xDA6 PUSH2 0xA28 JUMP JUMPDEST JUMPDEST PUSH0 DUP7 ADD CALLDATALOAD PUSH8 0xFFFFFFFFFFFFFFFF DUP2 GT ISZERO PUSH2 0xDC4 JUMPI PUSH2 0xDC3 PUSH2 0xA2C JUMP JUMPDEST JUMPDEST PUSH2 0xDD0 DUP9 DUP3 DUP10 ADD PUSH2 0xD61 JUMP JUMPDEST SWAP6 POP POP PUSH1 0x20 DUP7 ADD CALLDATALOAD PUSH8 0xFFFFFFFFFFFFFFFF DUP2 GT ISZERO PUSH2 0xDF1 JUMPI PUSH2 0xDF0 PUSH2 0xA2C JUMP JUMPDEST JUMPDEST PUSH2 0xDFD DUP9 DUP3 DUP10 ADD PUSH2 0xD61 JUMP JUMPDEST SWAP5 POP POP PUSH1 0x40 PUSH2 0xE0E DUP9 DUP3 DUP10 ADD PUSH2 0xA4F JUMP JUMPDEST SWAP4 POP POP PUSH1 0x60 PUSH2 0xE1F DUP9 DUP3 DUP10 ADD PUSH2 0xA4F JUMP JUMPDEST SWAP3 POP POP PUSH1 0x80 PUSH2 0xE30 DUP9 DUP3 DUP10 ADD PUSH2 0xA4F JUMP JUMPDEST SWAP2 POP POP SWAP3 SWAP6 POP SWAP3 SWAP6 SWAP1 SWAP4 POP JUMP JUMPDEST PUSH32 0x4E487B7100000000000000000000000000000000000000000000000000000000 PUSH0 MSTORE PUSH1 0x22 PUSH1 0x4 MSTORE PUSH1 0x24 PUSH0 REVERT JUMPDEST PUSH0 PUSH1 0x2 DUP3 DIV SWAP1 POP PUSH1 0x1 DUP3 AND DUP1 PUSH2 0xE81 JUMPI PUSH1 0x7F DUP3 AND SWAP2 POP JUMPDEST PUSH1 0x20 DUP3 LT DUP2 SUB PUSH2 0xE94 JUMPI PUSH2 0xE93 PUSH2 0xE3D JUMP JUMPDEST JUMPDEST POP SWAP2 SWAP1 POP JUMP JUMPDEST PUSH32 0x4E487B7100000000000000000000000000000000000000000000000000000000 PUSH0 MSTORE PUSH1 0x11 PUSH1 0x4 MSTORE PUSH1 0x24 PUSH0 REVERT JUMPDEST PUSH0 PUSH2 0xED1 DUP3 PUSH2 0xA30 JUMP JUMPDEST SWAP2 POP PUSH2 0xEDC DUP4 PUSH2 0xA30 JUMP JUMPDEST SWAP3 POP DUP3 DUP3 SUB SWAP1 POP DUP2 DUP2 GT ISZERO PUSH2 0xEF4 JUMPI PUSH2 0xEF3 PUSH2 0xE9A JUMP JUMPDEST JUMPDEST SWAP3 SWAP2 POP POP JUMP JUMPDEST PUSH32 0x46756E64696E6720676F616C206861732072656163686564202C207573657220 PUSH0 DUP3 ADD MSTORE PUSH32 0x63616E2774207769746864726177000000000000000000000000000000000000 PUSH1 0x20 DUP3 ADD MSTORE POP JUMP JUMPDEST PUSH0 PUSH2 0xF54 PUSH1 0x2E DUP4 PUSH2 0xAD7 JUMP JUMPDEST SWAP2 POP PUSH2 0xF5F DUP3 PUSH2 0xEFA JUMP JUMPDEST PUSH1 0x40 DUP3 ADD SWAP1 POP SWAP2 SWAP1 POP JUMP JUMPDEST PUSH0 PUSH1 0x20 DUP3 ADD SWAP1 POP DUP2 DUP2 SUB PUSH0 DUP4 ADD MSTORE PUSH2 0xF81 DUP2 PUSH2 0xF48 JUMP JUMPDEST SWAP1 POP SWAP2 SWAP1 POP JUMP JUMPDEST PUSH32 0x50726F6A65637420646561646C696E65206973206F7665722100000000000000 PUSH0 DUP3 ADD MSTORE POP JUMP JUMPDEST PUSH0 PUSH2 0xFBC PUSH1 0x19 DUP4 PUSH2 0xAD7 JUMP JUMPDEST SWAP2 POP PUSH2 0xFC7 DUP3 PUSH2 0xF88 JUMP JUMPDEST PUSH1 0x20 DUP3 ADD SWAP1 POP SWAP2 SWAP1 POP JUMP JUMPDEST PUSH0 PUSH1 0x20 DUP3 ADD SWAP1 POP DUP2 DUP2 SUB PUSH0 DUP4 ADD MSTORE PUSH2 0xFE9 DUP2 PUSH2 0xFB0 JUMP JUMPDEST SWAP1 POP SWAP2 SWAP1 POP JUMP JUMPDEST PUSH32 0x50726F6A6563742052656163686564206974732046756E64696E672072657175 PUSH0 DUP3 ADD MSTORE PUSH32 0x6972656D656E7400000000000000000000000000000000000000000000000000 PUSH1 0x20 DUP3 ADD MSTORE POP JUMP JUMPDEST PUSH0 PUSH2 0x104A PUSH1 0x27 DUP4 PUSH2 0xAD7 JUMP JUMPDEST SWAP2 POP PUSH2 0x1055 DUP3 PUSH2 0xFF0 JUMP JUMPDEST PUSH1 0x40 DUP3 ADD SWAP1 POP SWAP2 SWAP1 POP JUMP JUMPDEST PUSH0 PUSH1 0x20 DUP3 ADD SWAP1 POP DUP2 DUP2 SUB PUSH0 DUP4 ADD MSTORE PUSH2 0x1077 DUP2 PUSH2 0x103E JUMP JUMPDEST SWAP1 POP SWAP2 SWAP1 POP JUMP JUMPDEST PUSH32 0x73656E6420736F6D6520657468657220746F20636F6E7472696275746520696E PUSH0 DUP3 ADD MSTORE PUSH32 0x207468652070726F6A6563740000000000000000000000000000000000000000 PUSH1 0x20 DUP3 ADD MSTORE POP JUMP JUMPDEST PUSH0 PUSH2 0x10D8 PUSH1 0x2C DUP4 PUSH2 0xAD7 JUMP JUMPDEST SWAP2 POP PUSH2 0x10E3 DUP3 PUSH2 0x107E JUMP JUMPDEST PUSH1 0x40 DUP3 ADD SWAP1 POP SWAP2 SWAP1 POP JUMP JUMPDEST PUSH0 PUSH1 0x20 DUP3 ADD SWAP1 POP DUP2 DUP2 SUB PUSH0 DUP4 ADD MSTORE PUSH2 0x1105 DUP2 PUSH2 0x10CC JUMP JUMPDEST SWAP1 POP SWAP2 SWAP1 POP JUMP JUMPDEST PUSH0 PUSH2 0x1116 DUP3 PUSH2 0xA30 JUMP JUMPDEST SWAP2 POP PUSH2 0x1121 DUP4 PUSH2 0xA30 JUMP JUMPDEST SWAP3 POP DUP3 DUP3 ADD SWAP1 POP DUP1 DUP3 GT ISZERO PUSH2 0x1139 JUMPI PUSH2 0x1138 PUSH2 0xE9A JUMP JUMPDEST JUMPDEST SWAP3 SWAP2 POP POP JUMP JUMPDEST PUSH0 PUSH1 0x40 DUP3 ADD SWAP1 POP PUSH2 0x1152 PUSH0 DUP4 ADD DUP6 PUSH2 0xABE JUMP JUMPDEST PUSH2 0x115F PUSH1 0x20 DUP4 ADD DUP5 PUSH2 0xB3D JUMP JUMPDEST SWAP4 SWAP3 POP POP POP JUMP JUMPDEST PUSH32 0x66756E64696E6720676F616C20686173206E6F742072656163686564202C2061 PUSH0 DUP3 ADD MSTORE PUSH32 0x646D696E2063616E277420776974686472617700000000000000000000000000 PUSH1 0x20 DUP3 ADD MSTORE POP JUMP JUMPDEST PUSH0 PUSH2 0x11C0 PUSH1 0x33 DUP4 PUSH2 0xAD7 JUMP JUMPDEST SWAP2 POP PUSH2 0x11CB DUP3 PUSH2 0x1166 JUMP JUMPDEST PUSH1 0x40 DUP3 ADD SWAP1 POP SWAP2 SWAP1 POP JUMP JUMPDEST PUSH0 PUSH1 0x20 DUP3 ADD SWAP1 POP DUP2 DUP2 SUB PUSH0 DUP4 ADD MSTORE PUSH2 0x11ED DUP2 PUSH2 0x11B4 JUMP JUMPDEST SWAP1 POP SWAP2 SWAP1 POP JUMP JUMPDEST PUSH32 0x6F6E6C792061646D696E2063616E207769746864726177000000000000000000 PUSH0 DUP3 ADD MSTORE POP JUMP JUMPDEST PUSH0 PUSH2 0x1228 PUSH1 0x17 DUP4 PUSH2 0xAD7 JUMP JUMPDEST SWAP2 POP PUSH2 0x1233 DUP3 PUSH2 0x11F4 JUMP JUMPDEST PUSH1 0x20 DUP3 ADD SWAP1 POP SWAP2 SWAP1 POP JUMP JUMPDEST PUSH0 PUSH1 0x20 DUP3 ADD SWAP1 POP DUP2 DUP2 SUB PUSH0 DUP4 ADD MSTORE PUSH2 0x1255 DUP2 PUSH2 0x121C JUMP JUMPDEST SWAP1 POP SWAP2 SWAP1 POP JUMP JUMPDEST PUSH32 0x646561646C696E6520686173206E6F742072656163686564202C2061646D696E PUSH0 DUP3 ADD MSTORE PUSH32 0x2063616E27742077697468647261770000000000000000000000000000000000 PUSH1 0x20 DUP3 ADD MSTORE POP JUMP JUMPDEST PUSH0 PUSH2 0x12B6 PUSH1 0x2F DUP4 PUSH2 0xAD7 JUMP JUMPDEST SWAP2 POP PUSH2 0x12C1 DUP3 PUSH2 0x125C JUMP JUMPDEST PUSH1 0x40 DUP3 ADD SWAP1 POP SWAP2 SWAP1 POP JUMP JUMPDEST PUSH0 PUSH1 0x20 DUP3 ADD SWAP1 POP DUP2 DUP2 SUB PUSH0 DUP4 ADD MSTORE PUSH2 0x12E3 DUP2 PUSH2 0x12AA JUMP JUMPDEST SWAP1 POP SWAP2 SWAP1 POP JUMP JUMPDEST PUSH32 0x50726F6A65637420494420697320616C726561647920696E2075736521000000 PUSH0 DUP3 ADD MSTORE POP JUMP JUMPDEST PUSH0 PUSH2 0x131E PUSH1 0x1D DUP4 PUSH2 0xAD7 JUMP JUMPDEST SWAP2 POP PUSH2 0x1329 DUP3 PUSH2 0x12EA JUMP JUMPDEST PUSH1 0x20 DUP3 ADD SWAP1 POP SWAP2 SWAP1 POP JUMP JUMPDEST PUSH0 PUSH1 0x20 DUP3 ADD SWAP1 POP DUP2 DUP2 SUB PUSH0 DUP4 ADD MSTORE PUSH2 0x134B DUP2 PUSH2 0x1312 JUMP JUMPDEST SWAP1 POP SWAP2 SWAP1 POP JUMP JUMPDEST PUSH0 DUP2 SWAP1 POP DUP2 PUSH0 MSTORE PUSH1 0x20 PUSH0 KECCAK256 SWAP1 POP SWAP2 SWAP1 POP JUMP JUMPDEST PUSH0 PUSH1 0x20 PUSH1 0x1F DUP4 ADD DIV SWAP1 POP SWAP2 SWAP1 POP JUMP JUMPDEST PUSH0 DUP3 DUP3 SHL SWAP1 POP SWAP3 SWAP2 POP POP JUMP JUMPDEST PUSH0 PUSH1 0x8 DUP4 MUL PUSH2 0x13AE PUSH32 0xFFFFFFFFFFFFFFFFFFFFFFFFFFFFFFFFFFFFFFFFFFFFFFFFFFFFFFFFFFFFFFFF DUP3 PUSH2 0x1373 JUMP JUMPDEST PUSH2 0x13B8 DUP7 DUP4 PUSH2 0x1373 JUMP JUMPDEST SWAP6 POP DUP1 NOT DUP5 AND SWAP4 POP DUP1 DUP7 AND DUP5 OR SWAP3 POP POP POP SWAP4 SWAP3 POP POP POP JUMP JUMPDEST PUSH0 DUP2 SWAP1 POP SWAP2 SWAP1 POP JUMP JUMPDEST PUSH0 PUSH2 0x13F3 PUSH2 0x13EE PUSH2 0x13E9 DUP5 PUSH2 0xA30 JUMP JUMPDEST PUSH2 0x13D0 JUMP JUMPDEST PUSH2 0xA30 JUMP JUMPDEST SWAP1 POP SWAP2 SWAP1 POP JUMP JUMPDEST PUSH0 DUP2 SWAP1 POP SWAP2 SWAP1 POP JUMP JUMPDEST PUSH2 0x140C DUP4 PUSH2 0x13D9 JUMP JUMPDEST PUSH2 0x1420 PUSH2 0x1418 DUP3 PUSH2 0x13FA JUMP JUMPDEST DUP5 DUP5 SLOAD PUSH2 0x137F JUMP JUMPDEST DUP3 SSTORE POP POP POP POP JUMP JUMPDEST PUSH0 PUSH0 SWAP1 POP SWAP1 JUMP JUMPDEST PUSH2 0x1437 PUSH2 0x1428 JUMP JUMPDEST PUSH2 0x1442 DUP2 DUP5 DUP5 PUSH2 0x1403 JUMP JUMPDEST POP POP POP JUMP JUMPDEST JUMPDEST DUP2 DUP2 LT ISZERO PUSH2 0x1465 JUMPI PUSH2 0x145A PUSH0 DUP3 PUSH2 0x142F JUMP JUMPDEST PUSH1 0x1 DUP2 ADD SWAP1 POP PUSH2 0x1448 JUMP JUMPDEST POP POP JUMP JUMPDEST PUSH1 0x1F DUP3 GT ISZERO PUSH2 0x14AA JUMPI PUSH2 0x147B DUP2 PUSH2 0x1352 JUMP JUMPDEST PUSH2 0x1484 DUP5 PUSH2 0x1364 JUMP JUMPDEST DUP2 ADD PUSH1 0x20 DUP6 LT ISZERO PUSH2 0x1493 JUMPI DUP2 SWAP1 POP JUMPDEST PUSH2 0x14A7 PUSH2 0x149F DUP6 PUSH2 0x1364 JUMP JUMPDEST DUP4 ADD DUP3 PUSH2 0x1447 JUMP JUMPDEST POP POP JUMPDEST POP POP POP JUMP JUMPDEST PUSH0 DUP3 DUP3 SHR SWAP1 POP SWAP3 SWAP2 POP POP JUMP JUMPDEST PUSH0 PUSH2 0x14CA PUSH0 NOT DUP5 PUSH1 0x8 MUL PUSH2 0x14AF JUMP JUMPDEST NOT DUP1 DUP4 AND SWAP2 POP POP SWAP3 SWAP2 POP POP JUMP JUMPDEST PUSH0 PUSH2 0x14E2 DUP4 DUP4 PUSH2 0x14BB JUMP JUMPDEST SWAP2 POP DUP3 PUSH1 0x2 MUL DUP3 OR SWAP1 POP SWAP3 SWAP2 POP POP JUMP JUMPDEST PUSH2 0x14FB DUP3 PUSH2 0xACD JUMP JUMPDEST PUSH8 0xFFFFFFFFFFFFFFFF DUP2 GT ISZERO PUSH2 0x1514 JUMPI PUSH2 0x1513 PUSH2 0xC6A JUMP JUMPDEST JUMPDEST PUSH2 0x151E DUP3 SLOAD PUSH2 0xE6A JUMP JUMPDEST PUSH2 0x1529 DUP3 DUP3 DUP6 PUSH2 0x1469 JUMP JUMPDEST PUSH0 PUSH1 0x20 SWAP1 POP PUSH1 0x1F DUP4 GT PUSH1 0x1 DUP2 EQ PUSH2 0x155A JUMPI PUSH0 DUP5 ISZERO PUSH2 0x1548 JUMPI DUP3 DUP8 ADD MLOAD SWAP1 POP JUMPDEST PUSH2 0x1552 DUP6 DUP3 PUSH2 0x14D7 JUMP JUMPDEST DUP7 SSTORE POP PUSH2 0x15B9 JUMP JUMPDEST PUSH1 0x1F NOT DUP5 AND PUSH2 0x1568 DUP7 PUSH2 0x1352 JUMP JUMPDEST PUSH0 JUMPDEST DUP3 DUP2 LT ISZERO PUSH2 0x158F JUMPI DUP5 DUP10 ADD MLOAD DUP3 SSTORE PUSH1 0x1 DUP3 ADD SWAP2 POP PUSH1 0x20 DUP6 ADD SWAP5 POP PUSH1 0x20 DUP2 ADD SWAP1 POP PUSH2 0x156A JUMP JUMPDEST DUP7 DUP4 LT ISZERO PUSH2 0x15AC JUMPI DUP5 DUP10 ADD MLOAD PUSH2 0x15A8 PUSH1 0x1F DUP10 AND DUP3 PUSH2 0x14BB JUMP JUMPDEST DUP4 SSTORE POP JUMPDEST PUSH1 0x1 PUSH1 0x2 DUP9 MUL ADD DUP9 SSTORE POP POP POP JUMPDEST POP POP POP POP POP POP JUMP JUMPDEST PUSH0 PUSH1 0x80 DUP3 ADD SWAP1 POP DUP2 DUP2 SUB PUSH0 DUP4 ADD MSTORE PUSH2 0x15D9 DUP2 DUP8 PUSH2 0xB05 JUMP JUMPDEST SWAP1 POP DUP2 DUP2 SUB PUSH1 0x20 DUP4 ADD MSTORE PUSH2 0x15ED DUP2 DUP7 PUSH2 0xB05 JUMP JUMPDEST SWAP1 POP PUSH2 0x15FC PUSH1 0x40 DUP4 ADD DUP6 PUSH2 0xB3D JUMP JUMPDEST PUSH2 0x1609 PUSH1 0x60 DUP4 ADD DUP5 PUSH2 0xB3D JUMP JUMPDEST SWAP6 SWAP5 POP POP POP POP POP JUMP INVALID LOG2 PUSH5 0x6970667358 0x22 SLT KECCAK256 DUP9 SIGNEXTEND 0xA9 JUMPDEST SLOAD SWAP16 SWAP1 SLT 0xE2 0xB8 SWAP11 0xD8 KECCAK256 SAR SUB LT DUP10 0xE SELFDESTRUCT MSTORE8 AND NUMBER ISZERO 0xAB DUP5 PUSH10 0x2743E2EF5D4764736F6C PUSH4 0x4300081E STOP CALLER "
				},
				"gasEstimates": {
					"creation": {
						"codeDepositCost": "1140800",
						"executionCost": "1185",
						"totalCost": "1141985"
					},
					"external": {
						"Contributions(uint256,address)": "infinite",
						"Get_Total_Raised_Funding()": "2498",
						"Projects(uint256)": "infinite",
						"Time_Left(uint256)": "infinite",
						"createProject(string,string,uint256,uint256,uint256)": "infinite",
						"creatorWithdraw(uint256)": "infinite",
						"fundProject(uint256)": "infinite",
						"userWithdraw(uint256)": "infinite"
					}
				},
				"methodIdentifiers": {
					"Contributions(uint256,address)": "5d4e5d78",
					"Get_Total_Raised_Funding()": "54a5bcc5",
					"Projects(uint256)": "21b2416c",
					"Time_Left(uint256)": "370c36b4",
					"createProject(string,string,uint256,uint256,uint256)": "f81bf601",
					"creatorWithdraw(uint256)": "71eb89f3",
					"fundProject(uint256)": "6c563abe",
					"userWithdraw(uint256)": "3b9056bf"
				}
			},
			"storageLayout": {
				"storage": [
					{
						"astId": 3,
						"contract": "contracts/CrowdTank.sol:CrowdTank",
						"label": "TotalRaisedFunding",
						"offset": 0,
						"slot": "0",
						"type": "t_uint256"
					},
					{
						"astId": 23,
						"contract": "contracts/CrowdTank.sol:CrowdTank",
						"label": "Projects",
						"offset": 0,
						"slot": "1",
						"type": "t_mapping(t_uint256,t_struct(project)18_storage)"
					},
					{
						"astId": 29,
						"contract": "contracts/CrowdTank.sol:CrowdTank",
						"label": "Contributions",
						"offset": 0,
						"slot": "2",
						"type": "t_mapping(t_uint256,t_mapping(t_address,t_uint256))"
					},
					{
						"astId": 33,
						"contract": "contracts/CrowdTank.sol:CrowdTank",
						"label": "isIdUsed",
						"offset": 0,
						"slot": "3",
						"type": "t_mapping(t_uint256,t_bool)"
					}
				],
				"types": {
					"t_address": {
						"encoding": "inplace",
						"label": "address",
						"numberOfBytes": "20"
					},
					"t_bool": {
						"encoding": "inplace",
						"label": "bool",
						"numberOfBytes": "1"
					},
					"t_mapping(t_address,t_uint256)": {
						"encoding": "mapping",
						"key": "t_address",
						"label": "mapping(address => uint256)",
						"numberOfBytes": "32",
						"value": "t_uint256"
					},
					"t_mapping(t_uint256,t_bool)": {
						"encoding": "mapping",
						"key": "t_uint256",
						"label": "mapping(uint256 => bool)",
						"numberOfBytes": "32",
						"value": "t_bool"
					},
					"t_mapping(t_uint256,t_mapping(t_address,t_uint256))": {
						"encoding": "mapping",
						"key": "t_uint256",
						"label": "mapping(uint256 => mapping(address => uint256))",
						"numberOfBytes": "32",
						"value": "t_mapping(t_address,t_uint256)"
					},
					"t_mapping(t_uint256,t_struct(project)18_storage)": {
						"encoding": "mapping",
						"key": "t_uint256",
						"label": "mapping(uint256 => struct CrowdTank.project)",
						"numberOfBytes": "32",
						"value": "t_struct(project)18_storage"
					},
					"t_string_storage": {
						"encoding": "bytes",
						"label": "string",
						"numberOfBytes": "32"
					},
					"t_struct(project)18_storage": {
						"encoding": "inplace",
						"label": "struct CrowdTank.project",
						"members": [
							{
								"astId": 5,
								"contract": "contracts/CrowdTank.sol:CrowdTank",
								"label": "creator",
								"offset": 0,
								"slot": "0",
								"type": "t_address"
							},
							{
								"astId": 7,
								"contract": "contracts/CrowdTank.sol:CrowdTank",
								"label": "name",
								"offset": 0,
								"slot": "1",
								"type": "t_string_storage"
							},
							{
								"astId": 9,
								"contract": "contracts/CrowdTank.sol:CrowdTank",
								"label": "description",
								"offset": 0,
								"slot": "2",
								"type": "t_string_storage"
							},
							{
								"astId": 11,
								"contract": "contracts/CrowdTank.sol:CrowdTank",
								"label": "fundingGoal",
								"offset": 0,
								"slot": "3",
								"type": "t_uint256"
							},
							{
								"astId": 13,
								"contract": "contracts/CrowdTank.sol:CrowdTank",
								"label": "deadline",
								"offset": 0,
								"slot": "4",
								"type": "t_uint256"
							},
							{
								"astId": 15,
								"contract": "contracts/CrowdTank.sol:CrowdTank",
								"label": "amountRaised",
								"offset": 0,
								"slot": "5",
								"type": "t_uint256"
							},
							{
								"astId": 17,
								"contract": "contracts/CrowdTank.sol:CrowdTank",
								"label": "funded",
								"offset": 0,
								"slot": "6",
								"type": "t_bool"
							}
						],
						"numberOfBytes": "224"
					},
					"t_uint256": {
						"encoding": "inplace",
						"label": "uint256",
						"numberOfBytes": "32"
					}
				}
			},
			"userdoc": {
				"kind": "user",
				"methods": {},
				"version": 1
			}
		}
	}
}